{"abi":[{"type":"constructor","inputs":[{"name":"gardenAccountImplementation","type":"address","internalType":"address"}],"stateMutability":"nonpayable"},{"type":"function","name":"approve","inputs":[{"name":"to","type":"address","internalType":"address"},{"name":"tokenId","type":"uint256","internalType":"uint256"}],"outputs":[],"stateMutability":"nonpayable"},{"type":"function","name":"balanceOf","inputs":[{"name":"owner","type":"address","internalType":"address"}],"outputs":[{"name":"","type":"uint256","internalType":"uint256"}],"stateMutability":"view"},{"type":"function","name":"batchMintGardens","inputs":[{"name":"configs","type":"tuple[]","internalType":"struct GardenToken.GardenConfig[]","components":[{"name":"communityToken","type":"address","internalType":"address"},{"name":"name","type":"string","internalType":"string"},{"name":"description","type":"string","internalType":"string"},{"name":"location","type":"string","internalType":"string"},{"name":"bannerImage","type":"string","internalType":"string"},{"name":"metadata","type":"string","internalType":"string"},{"name":"openJoining","type":"bool","internalType":"bool"},{"name":"gardeners","type":"address[]","internalType":"address[]"},{"name":"gardenOperators","type":"address[]","internalType":"address[]"}]}],"outputs":[{"name":"gardenAccounts","type":"address[]","internalType":"address[]"}],"stateMutability":"nonpayable"},{"type":"function","name":"deploymentRegistry","inputs":[],"outputs":[{"name":"","type":"address","internalType":"address"}],"stateMutability":"view"},{"type":"function","name":"gardenHatsModule","inputs":[],"outputs":[{"name":"","type":"address","internalType":"contract IGardenHatsModule"}],"stateMutability":"view"},{"type":"function","name":"getApproved","inputs":[{"name":"tokenId","type":"uint256","internalType":"uint256"}],"outputs":[{"name":"","type":"address","internalType":"address"}],"stateMutability":"view"},{"type":"function","name":"initialize","inputs":[{"name":"_multisig","type":"address","internalType":"address"},{"name":"_deploymentRegistry","type":"address","internalType":"address"}],"outputs":[],"stateMutability":"nonpayable"},{"type":"function","name":"isApprovedForAll","inputs":[{"name":"owner","type":"address","internalType":"address"},{"name":"operator","type":"address","internalType":"address"}],"outputs":[{"name":"","type":"bool","internalType":"bool"}],"stateMutability":"view"},{"type":"function","name":"karmaGAPModule","inputs":[],"outputs":[{"name":"","type":"address","internalType":"contract IKarmaGAPModule"}],"stateMutability":"view"},{"type":"function","name":"mintGarden","inputs":[{"name":"config","type":"tuple","internalType":"struct GardenToken.GardenConfig","components":[{"name":"communityToken","type":"address","internalType":"address"},{"name":"name","type":"string","internalType":"string"},{"name":"description","type":"string","internalType":"string"},{"name":"location","type":"string","internalType":"string"},{"name":"bannerImage","type":"string","internalType":"string"},{"name":"metadata","type":"string","internalType":"string"},{"name":"openJoining","type":"bool","internalType":"bool"},{"name":"gardeners","type":"address[]","internalType":"address[]"},{"name":"gardenOperators","type":"address[]","internalType":"address[]"}]}],"outputs":[{"name":"","type":"address","internalType":"address"}],"stateMutability":"nonpayable"},{"type":"function","name":"name","inputs":[],"outputs":[{"name":"","type":"string","internalType":"string"}],"stateMutability":"view"},{"type":"function","name":"owner","inputs":[],"outputs":[{"name":"","type":"address","internalType":"address"}],"stateMutability":"view"},{"type":"function","name":"ownerOf","inputs":[{"name":"tokenId","type":"uint256","internalType":"uint256"}],"outputs":[{"name":"","type":"address","internalType":"address"}],"stateMutability":"view"},{"type":"function","name":"proxiableUUID","inputs":[],"outputs":[{"name":"","type":"bytes32","internalType":"bytes32"}],"stateMutability":"view"},{"type":"function","name":"renounceOwnership","inputs":[],"outputs":[],"stateMutability":"nonpayable"},{"type":"function","name":"safeTransferFrom","inputs":[{"name":"from","type":"address","internalType":"address"},{"name":"to","type":"address","internalType":"address"},{"name":"tokenId","type":"uint256","internalType":"uint256"}],"outputs":[],"stateMutability":"nonpayable"},{"type":"function","name":"safeTransferFrom","inputs":[{"name":"from","type":"address","internalType":"address"},{"name":"to","type":"address","internalType":"address"},{"name":"tokenId","type":"uint256","internalType":"uint256"},{"name":"data","type":"bytes","internalType":"bytes"}],"outputs":[],"stateMutability":"nonpayable"},{"type":"function","name":"setApprovalForAll","inputs":[{"name":"operator","type":"address","internalType":"address"},{"name":"approved","type":"bool","internalType":"bool"}],"outputs":[],"stateMutability":"nonpayable"},{"type":"function","name":"setDeploymentRegistry","inputs":[{"name":"_deploymentRegistry","type":"address","internalType":"address"}],"outputs":[],"stateMutability":"nonpayable"},{"type":"function","name":"setGardenHatsModule","inputs":[{"name":"_gardenHatsModule","type":"address","internalType":"address"}],"outputs":[],"stateMutability":"nonpayable"},{"type":"function","name":"setKarmaGAPModule","inputs":[{"name":"_karmaGAPModule","type":"address","internalType":"address"}],"outputs":[],"stateMutability":"nonpayable"},{"type":"function","name":"supportsInterface","inputs":[{"name":"interfaceId","type":"bytes4","internalType":"bytes4"}],"outputs":[{"name":"","type":"bool","internalType":"bool"}],"stateMutability":"view"},{"type":"function","name":"symbol","inputs":[],"outputs":[{"name":"","type":"string","internalType":"string"}],"stateMutability":"view"},{"type":"function","name":"tokenURI","inputs":[{"name":"tokenId","type":"uint256","internalType":"uint256"}],"outputs":[{"name":"","type":"string","internalType":"string"}],"stateMutability":"view"},{"type":"function","name":"transferFrom","inputs":[{"name":"from","type":"address","internalType":"address"},{"name":"to","type":"address","internalType":"address"},{"name":"tokenId","type":"uint256","internalType":"uint256"}],"outputs":[],"stateMutability":"nonpayable"},{"type":"function","name":"transferOwnership","inputs":[{"name":"newOwner","type":"address","internalType":"address"}],"outputs":[],"stateMutability":"nonpayable"},{"type":"function","name":"upgradeTo","inputs":[{"name":"newImplementation","type":"address","internalType":"address"}],"outputs":[],"stateMutability":"nonpayable"},{"type":"function","name":"upgradeToAndCall","inputs":[{"name":"newImplementation","type":"address","internalType":"address"},{"name":"data","type":"bytes","internalType":"bytes"}],"outputs":[],"stateMutability":"payable"},{"type":"event","name":"AdminChanged","inputs":[{"name":"previousAdmin","type":"address","indexed":false,"internalType":"address"},{"name":"newAdmin","type":"address","indexed":false,"internalType":"address"}],"anonymous":false},{"type":"event","name":"Approval","inputs":[{"name":"owner","type":"address","indexed":true,"internalType":"address"},{"name":"approved","type":"address","indexed":true,"internalType":"address"},{"name":"tokenId","type":"uint256","indexed":true,"internalType":"uint256"}],"anonymous":false},{"type":"event","name":"ApprovalForAll","inputs":[{"name":"owner","type":"address","indexed":true,"internalType":"address"},{"name":"operator","type":"address","indexed":true,"internalType":"address"},{"name":"approved","type":"bool","indexed":false,"internalType":"bool"}],"anonymous":false},{"type":"event","name":"BatchGardensMinted","inputs":[{"name":"startTokenId","type":"uint256","indexed":true,"internalType":"uint256"},{"name":"endTokenId","type":"uint256","indexed":true,"internalType":"uint256"},{"name":"minter","type":"address","indexed":true,"internalType":"address"},{"name":"count","type":"uint256","indexed":false,"internalType":"uint256"}],"anonymous":false},{"type":"event","name":"BeaconUpgraded","inputs":[{"name":"beacon","type":"address","indexed":true,"internalType":"address"}],"anonymous":false},{"type":"event","name":"GardenHatsModuleUpdated","inputs":[{"name":"oldModule","type":"address","indexed":true,"internalType":"address"},{"name":"newModule","type":"address","indexed":true,"internalType":"address"}],"anonymous":false},{"type":"event","name":"GardenMinted","inputs":[{"name":"tokenId","type":"uint256","indexed":true,"internalType":"uint256"},{"name":"account","type":"address","indexed":true,"internalType":"address"},{"name":"name","type":"string","indexed":false,"internalType":"string"},{"name":"description","type":"string","indexed":false,"internalType":"string"},{"name":"location","type":"string","indexed":false,"internalType":"string"},{"name":"bannerImage","type":"string","indexed":false,"internalType":"string"},{"name":"openJoining","type":"bool","indexed":false,"internalType":"bool"},{"name":"gardeners","type":"address[]","indexed":false,"internalType":"address[]"},{"name":"operators","type":"address[]","indexed":false,"internalType":"address[]"}],"anonymous":false},{"type":"event","name":"Initialized","inputs":[{"name":"version","type":"uint8","indexed":false,"internalType":"uint8"}],"anonymous":false},{"type":"event","name":"KarmaGAPModuleUpdated","inputs":[{"name":"oldModule","type":"address","indexed":true,"internalType":"address"},{"name":"newModule","type":"address","indexed":true,"internalType":"address"}],"anonymous":false},{"type":"event","name":"OwnershipTransferred","inputs":[{"name":"previousOwner","type":"address","indexed":true,"internalType":"address"},{"name":"newOwner","type":"address","indexed":true,"internalType":"address"}],"anonymous":false},{"type":"event","name":"Transfer","inputs":[{"name":"from","type":"address","indexed":true,"internalType":"address"},{"name":"to","type":"address","indexed":true,"internalType":"address"},{"name":"tokenId","type":"uint256","indexed":true,"internalType":"uint256"}],"anonymous":false},{"type":"event","name":"Upgraded","inputs":[{"name":"implementation","type":"address","indexed":true,"internalType":"address"}],"anonymous":false},{"type":"error","name":"CommunityTokenNotContract","inputs":[]},{"type":"error","name":"DeploymentRegistryNotConfigured","inputs":[]},{"type":"error","name":"InvalidBatchSize","inputs":[]},{"type":"error","name":"InvalidCommunityToken","inputs":[]},{"type":"error","name":"InvalidERC20Token","inputs":[]},{"type":"error","name":"NoOperatorsProvided","inputs":[]},{"type":"error","name":"TooManyGardeners","inputs":[]},{"type":"error","name":"TooManyOperators","inputs":[]},{"type":"error","name":"UnauthorizedMinter","inputs":[]}],"bytecode":{"object":"0x60c03461013357601f61364138819003918201601f19168301916001600160401b038311848410176101375780849260209460405283398101031261013357516001600160a01b0381168103610133573060805260a0525f5460ff8160081c166100de5760ff808216036100a4575b6040516134f5908161014c8239608051818181611869015281816119570152612070015260a05181818161043f01526110dd0152f35b60ff90811916175f557f7f26b83ff96e1f2b6a682f133852f6798a09c465da95921460cefb3847402498602060405160ff8152a15f61006e565b60405162461bcd60e51b815260206004820152602760248201527f496e697469616c697a61626c653a20636f6e747261637420697320696e697469604482015266616c697a696e6760c81b6064820152608490fd5b5f80fd5b634e487b7160e01b5f52604160045260245ffdfe610140806040526004361015610013575f80fd5b5f3560e01c90816301ffc9a7146124a55750806306fdde03146123fc578063081812fc146123de578063095ea7b31461226a57806314902ad31461222757806323b872dd146122035780633659cfe61461204b5780634026d7621461202357806342842e0e14611ff1578063485cc95514611b985780634f1ef2861461191957806352d1902d1461185757806360a3c73f14610f7b5780636352211e14610f4b57806370a0823114610eb6578063715018a614610e5b5780638da5cb5b14610e3357806395d89b4114610d55578063a22cb46514610c87578063b88d4fde14610c13578063bdecffeb14610beb578063bf645f261461039e578063c663109214610376578063c87b56dd14610308578063d76ad6dc1461029f578063d9e4aaee14610236578063e985e9c5146101e45763f2fde38b14610151575f80fd5b346101e05760203660031901126101e05761016a61254e565b610172612ccc565b6001600160a01b0381161561018c5761018a90612f57565b005b60405162461bcd60e51b815260206004820152602660248201527f4f776e61626c653a206e6577206f776e657220697320746865207a65726f206160448201526564647265737360d01b6064820152608490fd5b5f80fd5b346101e05760403660031901126101e0576101fd61254e565b610205612564565b9060018060a01b038091165f52606a60205260405f2091165f52602052602060ff60405f2054166040519015158152f35b346101e05760203660031901126101e05761024f61254e565b610257612ccc565b60cc80546001600160a01b039283166001600160a01b0319821681179092559091167fdbf2e72ed7bd92ccbb36e552bb0c1a8df6df7e6a54ab7ddc78720975e93fc88e5f80a3005b346101e05760203660031901126101e0576102b861254e565b6102c0612ccc565b60cb80546001600160a01b039283166001600160a01b0319821681179092559091167f6a4b50f0f3259f0a7be63012b940111fd6e9b6c2ad0593db2bf5b0c4e3d45cc05f80a3005b346101e05760203660031901126101e0576004355f9081526067602052604090205461033e906001600160a01b03161515612c5e565b5f60405161034b816125f2565b5261037260405161035b816125f2565b5f8152604051918291602083526020830190612510565b0390f35b346101e0575f3660031901126101e05760ca546040516001600160a01b039091168152602090f35b346101e0576003196020368201126101e0576001600160401b03600435116101e05761012090600435360301126101e0576097546001600160a01b03163303610b44575b6103f86103f36004356004016128e2565b612f9f565b61040d610104600435016004356004016128f6565b905015610b325760c9545f198114610b1e576001810160c955610430813361303d565b604051630918575160e11b81527f00000000000000000000000000000000000000000000000000000000000000006001600160a01b031660048201523060248201526044810182905260208160648173__$22345123dcf5f39d8c23eeef107f852197$__5af4801561076d575f608052610aed575b506104b86004803560248101910161296e565b9060e05290600435604401600435600401906104d39161296e565b6104e56004803560648101910161296e565b9092906104fa6004803560848101910161296e565b90919061050b60c4600435016129a0565b9061051e6004803560e4810191016128f6565b92909161053460048035610104810191016128f6565b9690956040519a8b9a8b9a600160a01b60019003608051169f60e0516105599d612a10565b037f14bc337f206da7f70397d9e85710d8cfc832cef49209b70d37be108a159794f291a360cb546001600160a01b031680610869575b5060cc546001600160a01b031680610778575b506105b060048035016128e2565b6105c26004803560248101910161296e565b60c0526105d76004803560448101910161296e565b906105ea6004803560648101910161296e565b906105fd6004803560848101910161296e565b906106106004803560a48101910161296e565b92909360043560c401610622906129a0565b956106356004803560e4810191016128f6565b989099600435610104016004356004019061064f916128f6565b9c909d60405160a05260a051610664906125d6565b600160a01b600190031660a051523660c05161067f9261267f565b60a0516020015236906106919261267f565b60a0516040015236906106a39261267f565b60a0516060015236906106b59261267f565b60a0516080015236906106c79261267f565b60a05160a00152151560a05160c0015236906106e292612b38565b60a05160e0015236906106f492612b38565b60a05161010001526080516001600160a01b03163b156101e0576040516359ec380160e01b81525f818061072d60a05160048301612b8e565b03818360018060a01b03608051165af1801561076d5761075e575b6040516080516001600160a01b03168152602090f35b610767906125c3565b80610748565b6040513d5f823e3d90fd5b61078d610104600435016004356004016128f6565b91909115610855575f6020916107a5610821946128e2565b6107b960246004350160043560040161296e565b9390916107d060446004350160043560040161296e565b6107e7606460049a939a350160043560040161296e565b6107fe60846004949394350160043560040161296e565b9390926040519c8d9b8c9a8b99638ae4d28160e01b8b5260805160048c01612ad3565b03925af1156105a257602090813d831161084e575b6108408183612643565b810103126101e057806105a2565b503d610836565b634e487b7160e01b5f52603260045260245ffd5b61087e610104600435016004356004016128f6565b156108555761088e6020916128e2565b916108a360246004350160043560040161296e565b91905f6108b46004356004016128e2565b956108d8604051978896879586946314d2f5ab60e11b865260805160048701612a9b565b03925af1801561076d57610ac2575b5060cb546001600160a01b0316803b156101e057604051633868e7e560e01b81526080516001600160a01b0316600482015233602482015260036044820152905f908290606490829084905af1801561076d57610ab3575b505f5b610957610104600435016004356004016128f6565b90508110156109fc5760cb546001600160a01b03169061099261098d8261098760048035610104810191016128f6565b90612a8b565b6128e2565b91803b156101e057604051633868e7e560e01b81526080516001600160a01b039081166004830152939093166024840152600260448401525f908390606490829084905af191821561076d576001926109ed575b5001610942565b6109f6906125c3565b826109e6565b505f5b610a1360e4600435016004356004016128f6565b9050811015610aac5760cb546001600160a01b031690610a4261098d826109876004803560e4810191016128f6565b91803b156101e057604051633868e7e560e01b81526080516001600160a01b0390811660048301529390931660248401525f60448401819052908390606490829084905af191821561076d57600192610a9d575b50016109ff565b610aa6906125c3565b82610a96565b508061058f565b610abc906125c3565b8061093f565b602090813d8311610ae6575b610ad88183612643565b810103126101e057806108e7565b503d610ace565b610b0e9060203d602011610b17575b610b068183612643565b81019061294f565b608052816104a5565b503d610afc565b634e487b7160e01b5f52601160045260245ffd5b6040516301e18b7f60e61b8152600490fd5b60ca546001600160a01b03168015610bd95760206024916040519283809262a743f760e61b82523360048301525afa5f9181610ba8575b50610b925760405163955c501b60e01b8152600490fd5b6103e25760405163955c501b60e01b8152600490fd5b610bcb91925060203d602011610bd2575b610bc38183612643565b8101906128a7565b9082610b7b565b503d610bb9565b604051631db3a6cb60e11b8152600490fd5b346101e0575f3660031901126101e05760cb546040516001600160a01b039091168152602090f35b346101e05760803660031901126101e057610c2c61254e565b610c34612564565b90606435906044356001600160401b0383116101e05761018a93610c5f610c829436906004016126b5565b92610c72610c6d8433612d24565b612783565b610c7d838383612de8565b61336f565b6131a1565b346101e05760403660031901126101e057610ca061254e565b602435908115158092036101e0576001600160a01b031690338214610d1057335f52606a60205260405f20825f5260205260405f2060ff1981541660ff83161790556040519081527f17307eab39ab6107e8899845ad3d59bd9653f200f220920489ca2b5937696c3160203392a3005b60405162461bcd60e51b815260206004820152601960248201527f4552433732313a20617070726f766520746f2063616c6c6572000000000000006044820152606490fd5b346101e0575f3660031901126101e0576040516066545f82610d768361270f565b91828252602093600190856001821691825f14610e13575050600114610db8575b50610da492500383612643565b610372604051928284938452830190612510565b84915060665f527f46501879b8ca8525e8c2fd519e2fbfcfa2ebea26501294aa02cbfcfb12e94354905f915b858310610dfb575050610da4935082010185610d97565b80548389018501528794508693909201918101610de4565b60ff191685820152610da495151560051b8501019250879150610d979050565b346101e0575f3660031901126101e0576097546040516001600160a01b039091168152602090f35b346101e0575f3660031901126101e057610e73612ccc565b609780546001600160a01b031981169091555f906001600160a01b03167f8be0079c531659141344cd1fd0a4f28419497f9722a3daafe3b4186f6b6457e08280a3005b346101e05760203660031901126101e0576001600160a01b03610ed761254e565b168015610ef4575f526068602052602060405f2054604051908152f35b60405162461bcd60e51b815260206004820152602960248201527f4552433732313a2061646472657373207a65726f206973206e6f7420612076616044820152683634b21037bbb732b960b91b6064820152608490fd5b346101e05760203660031901126101e0576020610f69600435612caa565b6040516001600160a01b039091168152f35b346101e05760203660031901126101e0576004356001600160401b038082116101e057366023830112156101e0578160040135116101e057366024826004013560051b830101116101e0576097546001600160a01b031633036117d2575b80600401351580156117c4575b6117b2575f5b816004013581106116f45750611005816004013561292b565b6110126040519182612643565b6004820135808252601f19906110279061292b565b0136602083013760c95491611040816004013584612942565b60c9555f5b816004013581106110a7575060c9545f198101908111610b1e5761037293604051926004013583527fce282076a1439bd4b653b5657c2ab7abea5a48b4572799f57582e79e357b59f760203394a46040519182916020835260208301906126d3565b6110b18185612942565b906110c4818460040135602486016128bf565b6110ce833361303d565b604051630918575160e11b81527f00000000000000000000000000000000000000000000000000000000000000006001600160a01b03166004820152306024820152604481018490529260208460648173__$22345123dcf5f39d8c23eeef107f852197$__5af493841561076d575f946116d3575b50611151602083018361296e565b90610120529060408301611165908461296e565b9086611174606087018761296e565b90611182608089018961296e565b9061118f60c08b016129a0565b61119c60e08c018c6128f6565b9390926111ad6101008e018e6128f6565b9790966040519b8c9b8c9b600160a01b60019003169f610120516111d09d612a10565b037f14bc337f206da7f70397d9e85710d8cfc832cef49209b70d37be108a159794f291a360cb546001600160a01b03168061147e575b5060cc546001600160a01b0316806113cf575b50611223816128e2565b90611231602082018261296e565b9190611240604083018361296e565b9061124e606085018561296e565b9061125c608087018761296e565b909161126b60a089018961296e565b94909560c08a0161127b906129a0565b9761128960e08c018c6128f6565b9a909b610100810161129a916128f6565b9d909e60405161010052610100516112b1906125d6565b600160a01b6001900316610100515236906112cb9261267f565b610100516020015236906112de9261267f565b610100516040015236906112f19261267f565b610100516060015236906113049261267f565b610100516080015236906113179261267f565b6101005160a0015215156101005160c00152369061133492612b38565b6101005160e00152369061134792612b38565b610100805101526001600160a01b0382163b156101e0576040516359ec380160e01b81525f818061137e6101005160048301612b8e565b0381836001600160a01b0388165af1801561076d576113c0575b508351811015610855576001600160a01b03909116600582901b840160200152600101611045565b6113c9906125c3565b85611398565b6113dd6101008301836128f6565b15610855576113ed6020916128e2565b6113f98285018561296e565b9390915f8861144a61140e60408a018a61296e565b9061141c60608c018c61296e565b9061142a60808e018e61296e565b9490936040519d8e9c8d9b8c9a638ae4d28160e01b8c5260048c01612ad3565b03925af11561121957602090813d8311611477575b6114698183612643565b810103126101e05786611219565b503d61145f565b6114926101008398949795969301886128f6565b9190911561085557876020916114aa6114c3946128e2565b5f896114e06114bb8787018761296e565b9890966128e2565b6040516314d2f5ab60e11b81529889978896879560048701612a9b565b03925af1801561076d576116a8575b5060cb546001600160a01b0316803b156101e057604051633868e7e560e01b81526001600160a01b038616600482015233602482015260036044820152905f908290606490829084905af1801561076d57611699575b505f5b6115566101008801886128f6565b90508110156115e85760cb546001600160a01b03169061158161098d826109876101008c018c6128f6565b91803b156101e057604051633868e7e560e01b81526001600160a01b038881166004830152939093166024840152600260448401525f908390606490829084905af191821561076d576001926115d9575b5001611548565b6115e2906125c3565b886115d2565b50909391935f5b6115fc60e08801886128f6565b905081101561168d5760cb546001600160a01b03169061162661098d8261098760e08c018c6128f6565b91803b156101e057604051633868e7e560e01b81526001600160a01b0388811660048301529390931660248401525f60448401819052908390606490829084905af191821561076d5760019261167e575b50016115ef565b611687906125c3565b88611677565b50949291909286611206565b6116a2906125c3565b86611545565b602090813d83116116cc575b6116be8183612643565b810103126101e057866114ef565b503d6116b4565b6116ed91945060203d602011610b1757610b068183612643565b9287611143565b61170c6103f361098d838560040135602487016128bf565b61172b611721828460040135602486016128bf565b60e08101906128f6565b905060648091116117a057611748828460040135602486016128bf565b9061175961010092838101906128f6565b90501161178e5761177f90611776838560040135602487016128bf565b908101906128f6565b905015610b3257600101610fec565b604051636055dca160e01b8152600490fd5b604051636bd3434560e11b8152600490fd5b604051637862e95960e01b8152600490fd5b50600a816004013511610fe6565b60ca546001600160a01b03168015610bd95760206024916040519283809262a743f760e61b82523360048301525afa5f9181611836575b506118205760405163955c501b60e01b8152600490fd5b610fd95760405163955c501b60e01b8152600490fd5b61185091925060203d602011610bd257610bc38183612643565b9083611809565b346101e0575f3660031901126101e0577f00000000000000000000000000000000000000000000000000000000000000006001600160a01b031630036118ae5760206040515f805160206134c98339815191528152f35b60405162461bcd60e51b815260206004820152603860248201527f555550535570677261646561626c653a206d757374206e6f742062652063616c60448201527f6c6564207468726f7567682064656c656761746563616c6c00000000000000006064820152608490fd5b60403660031901126101e05761192d61254e565b6024356001600160401b0381116101e05761194c9036906004016126b5565b906001600160a01b037f0000000000000000000000000000000000000000000000000000000000000000811690611985308314156127e5565b6119a15f805160206134c9833981519152928284541614612846565b6119a9612ccc565b7f4910fdfa16fed3260ed0e7147f7cc6da11a60208b5b9406d12a635614ffd91435460ff16156119df57505061018a91506131c5565b6040516352d1902d60e01b81526020939291831691908481600481865afa5f9181611b69575b50611a665760405162461bcd60e51b815260048101869052602e60248201527f45524331393637557067726164653a206e657720696d706c656d656e7461746960448201526d6f6e206973206e6f74205555505360901b6064820152608490fd5b03611b1257611a74826131c5565b7fbc7cd75a20ee27fd9adebab32041f755214dbc6bffa90cc0225b39da2e5c2d3b5f80a2825115801590611b0a575b611aa957005b5f8061018a9460405194611abc8661260d565b602786527f416464726573733a206c6f772d6c6576656c2064656c65676174652063616c6c81870152660819985a5b195960ca1b604087015281519101845af4611b04613254565b9161342f565b506001611aa3565b60405162461bcd60e51b815260048101849052602960248201527f45524331393637557067726164653a20756e737570706f727465642070726f786044820152681a58589b195555525160ba1b6064820152608490fd5b9091508581813d8311611b91575b611b818183612643565b810103126101e057519087611a05565b503d611b77565b346101e05760403660031901126101e057611bb161254e565b611bb9612564565b905f549160ff8360081c161590818092611fe4575b8015611fcd575b15611f7157600193828560ff198316175f55611f60575b5060405192611bfa84612628565b601284526020937123b932b2b71023b7b7b2399023b0b93232b760711b8582015260405190611c2882612628565b600382526247474760e81b86830152611c5060ff5f5460081c16611c4b81612ef7565b612ef7565b8051916001600160401b0392838111611e555780611c6f60655461270f565b93601f94858111611ef3575b508990858311600114611e74575f92611e69575b50505f19600383901b1c191690891b176065555b8051928311611e5557611cb760665461270f565b828111611df3575b5086918311600114611d6f57611d0f9392915f9183611d64575b50505f19600383901b1c191690871b176066555b611d0160ff5f5460081c16611c4b81612ef7565b611d0a33612f57565b612f57565b60018060a01b03166001600160601b0360a01b60ca54161760ca55611d3057005b7f7f26b83ff96e1f2b6a682f133852f6798a09c465da95921460cefb38474024989161ff00195f54165f55604051908152a1005b015190508880611cd9565b92918791601f1982169060665f527f46501879b8ca8525e8c2fd519e2fbfcfa2ebea26501294aa02cbfcfb12e94354915f5b8a828210611ddd5750509583611d0f9710611dc5575b505050811b01606655611ced565b01515f1960f88460031b161c19169055888080611db7565b8389015185558c96909401939283019201611da1565b60665f527f46501879b8ca8525e8c2fd519e2fbfcfa2ebea26501294aa02cbfcfb12e943548380860160051c8201928a8710611e4c575b0160051c019089905b828110611e41575050611cbf565b5f8155018990611e33565b92508192611e2a565b634e487b7160e01b5f52604160045260245ffd5b015190508a80611c8f565b908b9350601f1983169160655f527f8ff97419363ffd7000167f130ef7168fbea05faf9251824ca5043f113cc6a7c7925f5b8d828210611edd5750508411611ec5575b505050811b01606555611ca3565b01515f1960f88460031b161c191690558a8080611eb7565b8385015186558f97909501949384019301611ea6565b90915060655f527f8ff97419363ffd7000167f130ef7168fbea05faf9251824ca5043f113cc6a7c78580850160051c8201928c8610611f57575b918d91869594930160051c01915b828110611f49575050611c7b565b5f81558594508d9101611f3b565b92508192611f2d565b61ffff1916610101175f5584611bec565b60405162461bcd60e51b815260206004820152602e60248201527f496e697469616c697a61626c653a20636f6e747261637420697320616c72656160448201526d191e481a5b9a5d1a585b1a5e995960921b6064820152608490fd5b50303b158015611bd55750600160ff851614611bd5565b50600160ff851610611bce565b346101e05761018a610c826120053661258e565b9060405192612013846125f2565b5f8452610c72610c6d8433612d24565b346101e0575f3660031901126101e05760cc546040516001600160a01b039091168152602090f35b346101e0576020806003193601126101e05761206561254e565b6001600160a01b03917f0000000000000000000000000000000000000000000000000000000000000000831661209d308214156127e5565b6120b95f805160206134c9833981519152918583541614612846565b6120c1612ccc565b604051936120ce856125f2565b5f85527f4910fdfa16fed3260ed0e7147f7cc6da11a60208b5b9406d12a635614ffd91435460ff16156121085750505061018a91506131c5565b83929316906040516352d1902d60e01b81528481600481865afa5f91816121d4575b5061218b5760405162461bcd60e51b815260048101869052602e60248201527f45524331393637557067726164653a206e657720696d706c656d656e7461746960448201526d6f6e206973206e6f74205555505360901b6064820152608490fd5b03611b1257612199826131c5565b7fbc7cd75a20ee27fd9adebab32041f755214dbc6bffa90cc0225b39da2e5c2d3b5f80a28251158015906121cd57611aa957005b505f611aa3565b9091508581813d83116121fc575b6121ec8183612643565b810103126101e05751908761212a565b503d6121e2565b346101e05761018a6122143661258e565b91612222610c6d8433612d24565b612de8565b346101e05760203660031901126101e05761224061254e565b612248612ccc565b60ca80546001600160a01b0319166001600160a01b0392909216919091179055005b346101e05760403660031901126101e05761228361254e565b602435906001600160a01b03808061229a85612caa565b1692169180831461238f5780331490811561236e575b5015612303575f83815260696020526040902080546001600160a01b031916831790556122dc83612caa565b167f8c5be1e5ebec7d5bd14f71427d1e84f3dd0314c0f7b2291e5b200ac8c7c3b9255f80a4005b60405162461bcd60e51b815260206004820152603d60248201527f4552433732313a20617070726f76652063616c6c6572206973206e6f7420746f60448201527f6b656e206f776e6572206f7220617070726f76656420666f7220616c6c0000006064820152608490fd5b90505f52606a60205260405f20335f5260205260ff60405f205416846122b0565b60405162461bcd60e51b815260206004820152602160248201527f4552433732313a20617070726f76616c20746f2063757272656e74206f776e656044820152603960f91b6064820152608490fd5b346101e05760203660031901126101e0576020610f69600435612747565b346101e0575f3660031901126101e0576040516065545f8261241d8361270f565b91828252602093600190856001821691825f14610e1357505060011461244a5750610da492500383612643565b84915060655f527f8ff97419363ffd7000167f130ef7168fbea05faf9251824ca5043f113cc6a7c7905f915b85831061248d575050610da4935082010185610d97565b80548389018501528794508693909201918101612476565b346101e05760203660031901126101e0576004359063ffffffff60e01b82168092036101e0576020916380ac58cd60e01b81149081156124ff575b81156124ee575b5015158152f35b6301ffc9a760e01b149050836124e7565b635b5e139f60e01b811491506124e0565b91908251928382525f5b84811061253a575050825f602080949584010152601f8019910116010190565b60208183018101518483018201520161251a565b600435906001600160a01b03821682036101e057565b602435906001600160a01b03821682036101e057565b35906001600160a01b03821682036101e057565b60609060031901126101e0576001600160a01b039060043582811681036101e0579160243590811681036101e0579060443590565b6001600160401b038111611e5557604052565b61012081019081106001600160401b03821117611e5557604052565b602081019081106001600160401b03821117611e5557604052565b606081019081106001600160401b03821117611e5557604052565b604081019081106001600160401b03821117611e5557604052565b90601f801991011681019081106001600160401b03821117611e5557604052565b6001600160401b038111611e5557601f01601f191660200190565b92919261268b82612664565b916126996040519384612643565b8294818452818301116101e0578281602093845f960137010152565b9080601f830112156101e0578160206126d09335910161267f565b90565b9081518082526020808093019301915f5b8281106126f2575050505090565b83516001600160a01b0316855293810193928101926001016126e4565b90600182811c9216801561273d575b602083101461272957565b634e487b7160e01b5f52602260045260245ffd5b91607f169161271e565b5f81815260676020526040902054612769906001600160a01b03161515612c5e565b5f908152606960205260409020546001600160a01b031690565b1561278a57565b60405162461bcd60e51b815260206004820152602d60248201527f4552433732313a2063616c6c6572206973206e6f7420746f6b656e206f776e6560448201526c1c881bdc88185c1c1c9bdd9959609a1b6064820152608490fd5b156127ec57565b60405162461bcd60e51b815260206004820152602c60248201527f46756e6374696f6e206d7573742062652063616c6c6564207468726f7567682060448201526b19195b1959d85d1958d85b1b60a21b6064820152608490fd5b1561284d57565b60405162461bcd60e51b815260206004820152602c60248201527f46756e6374696f6e206d7573742062652063616c6c6564207468726f7567682060448201526b6163746976652070726f787960a01b6064820152608490fd5b908160209103126101e0575180151581036101e05790565b91908110156108555760051b8101359061011e19813603018212156101e0570190565b356001600160a01b03811681036101e05790565b903590601e19813603018212156101e057018035906001600160401b0382116101e057602001918160051b360383136101e057565b6001600160401b038111611e555760051b60200190565b91908201809211610b1e57565b908160209103126101e057516001600160a01b03811681036101e05790565b903590601e19813603018212156101e057018035906001600160401b0382116101e0576020019181360383136101e057565b3580151581036101e05790565b908060209392818452848401375f828201840152601f01601f1916010190565b9190808252602080920192915f5b8281106129e9575050505090565b909192938280600192838060a01b03612a018961257a565b168152019501939291016129db565b9b9995612a4c8d6126d09f9d9996612a7d9c9b96612a3e612a689a96612a5a9860e0865260e08601916129ad565b9260208185039101526129ad565b8d810360408f0152916129ad565b918a830360608c01526129ad565b921515608088015286830360a08801526129cd565b9260c08185039101526129cd565b91908110156108555760051b0190565b9392606093612acc9297969760018060a01b03948580921688521660208701526080604087015260808601916129ad565b9416910152565b98969491612b1c936126d09b9995612b2a9893612b0e938d60018060a01b0380931690521660208d015260c060408d015260c08c01916129ad565b9189830360608b01526129ad565b9186830360808801526129ad565b9260a08185039101526129ad565b9291612b438261292b565b91612b516040519384612643565b829481845260208094019160051b81019283116101e057905b828210612b775750505050565b838091612b838461257a565b815201910190612b6a565b602080825282516001600160a01b031681830152820151610120604083018190526126d093929091612bc590610140830190612510565b91612c27612c13612bff612beb604088015196601f199788888303016060890152612510565b606088015187878303016080880152612510565b6080870151868683030160a0870152612510565b60a0860151858583030160c0860152612510565b60c0850151151560e0840152612c4e60e086015191610100928686830301848701526126d3565b94015192828503019101526126d3565b15612c6557565b60405162461bcd60e51b815260206004820152601860248201527f4552433732313a20696e76616c696420746f6b656e20494400000000000000006044820152606490fd5b5f908152606760205260409020546001600160a01b03166126d0811515612c5e565b6097546001600160a01b03163303612ce057565b606460405162461bcd60e51b815260206004820152602060248201527f4f776e61626c653a2063616c6c6572206973206e6f7420746865206f776e65726044820152fd5b906001600160a01b038080612d3884612caa565b16931691838314938415612d6b575b508315612d55575b50505090565b612d6191929350612747565b16145f8080612d4f565b9093505f52606a60205260405f20825f5260205260ff60405f205416925f612d47565b15612d9557565b60405162461bcd60e51b815260206004820152602560248201527f4552433732313a207472616e736665722066726f6d20696e636f72726563742060448201526437bbb732b960d91b6064820152608490fd5b90612e1091612df684612caa565b6001600160a01b0393918416928492909183168414612d8e565b16918215612ea65781612e2d91612e2686612caa565b1614612d8e565b825f52606960205260405f206001600160601b0360a01b90818154169055815f52606860205260405f205f198154019055825f5260405f2060018154019055835f5260676020528260405f20918254161790557fddf252ad1be2c89b69c2b068fc378daa952ba7f163c4a11628f55a4df523b3ef5f80a4565b60405162461bcd60e51b8152602060048201526024808201527f4552433732313a207472616e7366657220746f20746865207a65726f206164646044820152637265737360e01b6064820152608490fd5b15612efe57565b60405162461bcd60e51b815260206004820152602b60248201527f496e697469616c697a61626c653a20636f6e7472616374206973206e6f74206960448201526a6e697469616c697a696e6760a81b6064820152608490fd5b609780546001600160a01b039283166001600160a01b0319821681179092559091167f8be0079c531659141344cd1fd0a4f28419497f9722a3daafe3b4186f6b6457e05f80a3565b6001600160a01b03811690811561302b573b15613019576020600491604051928380926318160ddd60e01b82525afa9081612fee575b50612fec576040516326412d8960e21b8152600490fd5b565b602090813d8311613012575b6130048183612643565b810103126101e0575f612fd5565b503d612ffa565b60405163d0acc0d360e01b8152600490fd5b604051631a747e4f60e31b8152600490fd5b9060405161304a816125f2565b5f81526001600160a01b03831691821561310a57612fec9381610c829461308d613087835f52606760205260018060a01b0360405f205416151590565b156133e3565b5f828152606760205260409020546130af906001600160a01b03161515613087565b805f52606860205260405f2060018154019055815f52606760205260405f20816001600160601b0360a01b8254161790555f7fddf252ad1be2c89b69c2b068fc378daa952ba7f163c4a11628f55a4df523b3ef8180a4613283565b606460405162461bcd60e51b815260206004820152602060248201527f4552433732313a206d696e7420746f20746865207a65726f20616464726573736044820152fd5b60809060208152603260208201527f4552433732313a207472616e7366657220746f206e6f6e20455243373231526560408201527131b2b4bb32b91034b6b83632b6b2b73a32b960711b60608201520190565b156131a857565b60405162461bcd60e51b8152806131c16004820161314e565b0390fd5b803b156131f9575f805160206134c983398151915280546001600160a01b0319166001600160a01b03909216919091179055565b60405162461bcd60e51b815260206004820152602d60248201527f455243313936373a206e657720696d706c656d656e746174696f6e206973206e60448201526c1bdd08184818dbdb9d1c9858dd609a1b6064820152608490fd5b3d1561327e573d9061326582612664565b916132736040519384612643565b82523d5f602084013e565b606090565b909190803b15613367576132cc6020915f93604051948580948193630a85bd0160e11b998a84523360048501528460248501526044840152608060648401526084830190612510565b03926001600160a01b03165af15f9181613322575b50613314576132ee613254565b8051908161330f5760405162461bcd60e51b8152806131c16004820161314e565b602001fd5b6001600160e01b0319161490565b9091506020813d60201161335f575b8161333e60209383612643565b810103126101e057516001600160e01b0319811681036101e057905f6132e1565b3d9150613331565b505050600190565b92909190823b156133da576133c1926020925f60018060a01b0360405180978196829584630a85bd0160e11b9c8d86523360048701521660248501526044840152608060648401526084830190612510565b0393165af15f91816133225750613314576132ee613254565b50505050600190565b156133ea57565b60405162461bcd60e51b815260206004820152601c60248201527f4552433732313a20746f6b656e20616c7265616479206d696e746564000000006044820152606490fd5b919290156134915750815115613443575090565b3b1561344c5790565b60405162461bcd60e51b815260206004820152601d60248201527f416464726573733a2063616c6c20746f206e6f6e2d636f6e74726163740000006044820152606490fd5b8251909150156134a45750805190602001fd5b60405162461bcd60e51b8152602060048201529081906131c190602483019061251056fe360894a13ba1a3210667c828492db98dca3e2076cc3735a920a3ca505d382bbca164736f6c6343000819000a","linkReferences":{"src/lib/TBA.sol":{"TBALib":[{"start":1485,"length":20},{"start":4716,"length":20}]}}},"methodIdentifiers":{"approve(address,uint256)":"095ea7b3","balanceOf(address)":"70a08231","batchMintGardens((address,string,string,string,string,string,bool,address[],address[])[])":"60a3c73f","deploymentRegistry()":"c6631092","gardenHatsModule()":"bdecffeb","getApproved(uint256)":"081812fc","initialize(address,address)":"485cc955","isApprovedForAll(address,address)":"e985e9c5","karmaGAPModule()":"4026d762","mintGarden((address,string,string,string,string,string,bool,address[],address[]))":"bf645f26","name()":"06fdde03","owner()":"8da5cb5b","ownerOf(uint256)":"6352211e","proxiableUUID()":"52d1902d","renounceOwnership()":"715018a6","safeTransferFrom(address,address,uint256)":"42842e0e","safeTransferFrom(address,address,uint256,bytes)":"b88d4fde","setApprovalForAll(address,bool)":"a22cb465","setDeploymentRegistry(address)":"14902ad3","setGardenHatsModule(address)":"d76ad6dc","setKarmaGAPModule(address)":"d9e4aaee","supportsInterface(bytes4)":"01ffc9a7","symbol()":"95d89b41","tokenURI(uint256)":"c87b56dd","transferFrom(address,address,uint256)":"23b872dd","transferOwnership(address)":"f2fde38b","upgradeTo(address)":"3659cfe6","upgradeToAndCall(address,bytes)":"4f1ef286"},"id":101}