{"abi":[{"type":"constructor","inputs":[{"name":"erc4337EntryPoint","type":"address","internalType":"address"},{"name":"multicallForwarder","type":"address","internalType":"address"},{"name":"erc6551Registry","type":"address","internalType":"address"},{"name":"guardian","type":"address","internalType":"address"},{"name":"workApprovalResolver","type":"address","internalType":"address"},{"name":"assessmentResolver","type":"address","internalType":"address"}],"stateMutability":"nonpayable"},{"type":"fallback","stateMutability":"payable"},{"type":"receive","stateMutability":"payable"},{"type":"function","name":"ASSESSMENT_RESOLVER","inputs":[],"outputs":[{"name":"","type":"address","internalType":"address"}],"stateMutability":"view"},{"type":"function","name":"WORK_APPROVAL_RESOLVER","inputs":[],"outputs":[{"name":"","type":"address","internalType":"address"}],"stateMutability":"view"},{"type":"function","name":"addGardenOperator","inputs":[{"name":"operator","type":"address","internalType":"address"}],"outputs":[],"stateMutability":"nonpayable"},{"type":"function","name":"addGardener","inputs":[{"name":"gardener","type":"address","internalType":"address"}],"outputs":[],"stateMutability":"nonpayable"},{"type":"function","name":"bannerImage","inputs":[],"outputs":[{"name":"","type":"string","internalType":"string"}],"stateMutability":"view"},{"type":"function","name":"communityToken","inputs":[],"outputs":[{"name":"","type":"address","internalType":"address"}],"stateMutability":"view"},{"type":"function","name":"description","inputs":[],"outputs":[{"name":"","type":"string","internalType":"string"}],"stateMutability":"view"},{"type":"function","name":"entryPoint","inputs":[],"outputs":[{"name":"","type":"address","internalType":"contract IEntryPoint"}],"stateMutability":"view"},{"type":"function","name":"erc6551Registry","inputs":[],"outputs":[{"name":"","type":"address","internalType":"address"}],"stateMutability":"view"},{"type":"function","name":"execute","inputs":[{"name":"to","type":"address","internalType":"address"},{"name":"value","type":"uint256","internalType":"uint256"},{"name":"data","type":"bytes","internalType":"bytes"},{"name":"operation","type":"uint8","internalType":"uint8"}],"outputs":[{"name":"","type":"bytes","internalType":"bytes"}],"stateMutability":"payable"},{"type":"function","name":"executeBatch","inputs":[{"name":"operations","type":"tuple[]","internalType":"struct BatchExecutor.Operation[]","components":[{"name":"to","type":"address","internalType":"address"},{"name":"value","type":"uint256","internalType":"uint256"},{"name":"data","type":"bytes","internalType":"bytes"},{"name":"operation","type":"uint8","internalType":"uint8"}]}],"outputs":[{"name":"","type":"bytes[]","internalType":"bytes[]"}],"stateMutability":"payable"},{"type":"function","name":"executeNested","inputs":[{"name":"to","type":"address","internalType":"address"},{"name":"value","type":"uint256","internalType":"uint256"},{"name":"data","type":"bytes","internalType":"bytes"},{"name":"operation","type":"uint8","internalType":"uint8"},{"name":"proof","type":"tuple[]","internalType":"struct NestedAccountExecutor.ERC6551AccountInfo[]","components":[{"name":"salt","type":"bytes32","internalType":"bytes32"},{"name":"tokenContract","type":"address","internalType":"address"},{"name":"tokenId","type":"uint256","internalType":"uint256"}]}],"outputs":[{"name":"","type":"bytes","internalType":"bytes"}],"stateMutability":"payable"},{"type":"function","name":"extcall","inputs":[{"name":"to","type":"address","internalType":"address"},{"name":"value","type":"uint256","internalType":"uint256"},{"name":"data","type":"bytes","internalType":"bytes"}],"outputs":[{"name":"result","type":"bytes","internalType":"bytes"}],"stateMutability":"nonpayable"},{"type":"function","name":"extcreate","inputs":[{"name":"value","type":"uint256","internalType":"uint256"},{"name":"bytecode","type":"bytes","internalType":"bytes"}],"outputs":[{"name":"","type":"address","internalType":"address"}],"stateMutability":"nonpayable"},{"type":"function","name":"extcreate2","inputs":[{"name":"value","type":"uint256","internalType":"uint256"},{"name":"salt","type":"bytes32","internalType":"bytes32"},{"name":"bytecode","type":"bytes","internalType":"bytes"}],"outputs":[{"name":"","type":"address","internalType":"address"}],"stateMutability":"nonpayable"},{"type":"function","name":"extsload","inputs":[{"name":"slot","type":"bytes32","internalType":"bytes32"}],"outputs":[{"name":"value","type":"bytes32","internalType":"bytes32"}],"stateMutability":"view"},{"type":"function","name":"gapProjectUID","inputs":[],"outputs":[{"name":"","type":"bytes32","internalType":"bytes32"}],"stateMutability":"view"},{"type":"function","name":"gardenOperators","inputs":[{"name":"operator","type":"address","internalType":"address"}],"outputs":[{"name":"isOperator","type":"bool","internalType":"bool"}],"stateMutability":"view"},{"type":"function","name":"gardeners","inputs":[{"name":"gardener","type":"address","internalType":"address"}],"outputs":[{"name":"isGardener","type":"bool","internalType":"bool"}],"stateMutability":"view"},{"type":"function","name":"getGAPProjectUID","inputs":[],"outputs":[{"name":"","type":"bytes32","internalType":"bytes32"}],"stateMutability":"view"},{"type":"function","name":"getNonce","inputs":[],"outputs":[{"name":"","type":"uint256","internalType":"uint256"}],"stateMutability":"view"},{"type":"function","name":"initialize","inputs":[{"name":"params","type":"tuple","internalType":"struct IGardenAccount.InitParams","components":[{"name":"communityToken","type":"address","internalType":"address"},{"name":"name","type":"string","internalType":"string"},{"name":"description","type":"string","internalType":"string"},{"name":"location","type":"string","internalType":"string"},{"name":"bannerImage","type":"string","internalType":"string"},{"name":"metadata","type":"string","internalType":"string"},{"name":"openJoining","type":"bool","internalType":"bool"},{"name":"gardeners","type":"address[]","internalType":"address[]"},{"name":"gardenOperators","type":"address[]","internalType":"address[]"}]}],"outputs":[],"stateMutability":"nonpayable"},{"type":"function","name":"isCommunity","inputs":[{"name":"account","type":"address","internalType":"address"}],"outputs":[{"name":"","type":"bool","internalType":"bool"}],"stateMutability":"view"},{"type":"function","name":"isEvaluator","inputs":[{"name":"account","type":"address","internalType":"address"}],"outputs":[{"name":"","type":"bool","internalType":"bool"}],"stateMutability":"view"},{"type":"function","name":"isFunder","inputs":[{"name":"account","type":"address","internalType":"address"}],"outputs":[{"name":"","type":"bool","internalType":"bool"}],"stateMutability":"view"},{"type":"function","name":"isGardener","inputs":[{"name":"account","type":"address","internalType":"address"}],"outputs":[{"name":"","type":"bool","internalType":"bool"}],"stateMutability":"view"},{"type":"function","name":"isLocked","inputs":[],"outputs":[{"name":"","type":"bool","internalType":"bool"}],"stateMutability":"view"},{"type":"function","name":"isOperator","inputs":[{"name":"account","type":"address","internalType":"address"}],"outputs":[{"name":"","type":"bool","internalType":"bool"}],"stateMutability":"view"},{"type":"function","name":"isOwner","inputs":[{"name":"account","type":"address","internalType":"address"}],"outputs":[{"name":"","type":"bool","internalType":"bool"}],"stateMutability":"view"},{"type":"function","name":"isTrustedForwarder","inputs":[{"name":"forwarder","type":"address","internalType":"address"}],"outputs":[{"name":"","type":"bool","internalType":"bool"}],"stateMutability":"view"},{"type":"function","name":"isValidSignature","inputs":[{"name":"hash","type":"bytes32","internalType":"bytes32"},{"name":"signature","type":"bytes","internalType":"bytes"}],"outputs":[{"name":"magicValue","type":"bytes4","internalType":"bytes4"}],"stateMutability":"view"},{"type":"function","name":"isValidSigner","inputs":[{"name":"signer","type":"address","internalType":"address"},{"name":"data","type":"bytes","internalType":"bytes"}],"outputs":[{"name":"magicValue","type":"bytes4","internalType":"bytes4"}],"stateMutability":"view"},{"type":"function","name":"joinGarden","inputs":[],"outputs":[],"stateMutability":"nonpayable"},{"type":"function","name":"location","inputs":[],"outputs":[{"name":"","type":"string","internalType":"string"}],"stateMutability":"view"},{"type":"function","name":"lock","inputs":[{"name":"_lockedUntil","type":"uint256","internalType":"uint256"}],"outputs":[],"stateMutability":"nonpayable"},{"type":"function","name":"lockedUntil","inputs":[],"outputs":[{"name":"","type":"uint256","internalType":"uint256"}],"stateMutability":"view"},{"type":"function","name":"metadata","inputs":[],"outputs":[{"name":"","type":"string","internalType":"string"}],"stateMutability":"view"},{"type":"function","name":"name","inputs":[],"outputs":[{"name":"","type":"string","internalType":"string"}],"stateMutability":"view"},{"type":"function","name":"onERC1155BatchReceived","inputs":[{"name":"","type":"address","internalType":"address"},{"name":"","type":"address","internalType":"address"},{"name":"","type":"uint256[]","internalType":"uint256[]"},{"name":"","type":"uint256[]","internalType":"uint256[]"},{"name":"","type":"bytes","internalType":"bytes"}],"outputs":[{"name":"","type":"bytes4","internalType":"bytes4"}],"stateMutability":"nonpayable"},{"type":"function","name":"onERC1155Received","inputs":[{"name":"","type":"address","internalType":"address"},{"name":"","type":"address","internalType":"address"},{"name":"","type":"uint256","internalType":"uint256"},{"name":"","type":"uint256","internalType":"uint256"},{"name":"","type":"bytes","internalType":"bytes"}],"outputs":[{"name":"","type":"bytes4","internalType":"bytes4"}],"stateMutability":"nonpayable"},{"type":"function","name":"onERC721Received","inputs":[{"name":"","type":"address","internalType":"address"},{"name":"","type":"address","internalType":"address"},{"name":"tokenId","type":"uint256","internalType":"uint256"},{"name":"","type":"bytes","internalType":"bytes"}],"outputs":[{"name":"","type":"bytes4","internalType":"bytes4"}],"stateMutability":"nonpayable"},{"type":"function","name":"openJoining","inputs":[],"outputs":[{"name":"","type":"bool","internalType":"bool"}],"stateMutability":"view"},{"type":"function","name":"overrides","inputs":[{"name":"","type":"address","internalType":"address"},{"name":"","type":"bytes4","internalType":"bytes4"}],"outputs":[{"name":"","type":"address","internalType":"address"}],"stateMutability":"view"},{"type":"function","name":"owner","inputs":[],"outputs":[{"name":"","type":"address","internalType":"address"}],"stateMutability":"view"},{"type":"function","name":"permissions","inputs":[{"name":"","type":"address","internalType":"address"},{"name":"","type":"address","internalType":"address"}],"outputs":[{"name":"","type":"bool","internalType":"bool"}],"stateMutability":"view"},{"type":"function","name":"proxiableUUID","inputs":[],"outputs":[{"name":"","type":"bytes32","internalType":"bytes32"}],"stateMutability":"view"},{"type":"function","name":"removeGardenOperator","inputs":[{"name":"operator","type":"address","internalType":"address"}],"outputs":[],"stateMutability":"nonpayable"},{"type":"function","name":"removeGardener","inputs":[{"name":"gardener","type":"address","internalType":"address"}],"outputs":[],"stateMutability":"nonpayable"},{"type":"function","name":"setOpenJoining","inputs":[{"name":"_openJoining","type":"bool","internalType":"bool"}],"outputs":[],"stateMutability":"nonpayable"},{"type":"function","name":"setOverrides","inputs":[{"name":"selectors","type":"bytes4[]","internalType":"bytes4[]"},{"name":"implementations","type":"address[]","internalType":"address[]"}],"outputs":[],"stateMutability":"nonpayable"},{"type":"function","name":"setPermissions","inputs":[{"name":"callers","type":"address[]","internalType":"address[]"},{"name":"_permissions","type":"bool[]","internalType":"bool[]"}],"outputs":[],"stateMutability":"nonpayable"},{"type":"function","name":"state","inputs":[],"outputs":[{"name":"","type":"uint256","internalType":"uint256"}],"stateMutability":"view"},{"type":"function","name":"supportsInterface","inputs":[{"name":"interfaceId","type":"bytes4","internalType":"bytes4"}],"outputs":[{"name":"","type":"bool","internalType":"bool"}],"stateMutability":"view"},{"type":"function","name":"token","inputs":[],"outputs":[{"name":"chainId","type":"uint256","internalType":"uint256"},{"name":"tokenContract","type":"address","internalType":"address"},{"name":"tokenId","type":"uint256","internalType":"uint256"}],"stateMutability":"view"},{"type":"function","name":"updateDescription","inputs":[{"name":"_description","type":"string","internalType":"string"}],"outputs":[],"stateMutability":"nonpayable"},{"type":"function","name":"updateName","inputs":[{"name":"_name","type":"string","internalType":"string"}],"outputs":[],"stateMutability":"nonpayable"},{"type":"function","name":"upgradeTo","inputs":[{"name":"newImplementation","type":"address","internalType":"address"}],"outputs":[],"stateMutability":"nonpayable"},{"type":"function","name":"upgradeToAndCall","inputs":[{"name":"newImplementation","type":"address","internalType":"address"},{"name":"data","type":"bytes","internalType":"bytes"}],"outputs":[],"stateMutability":"payable"},{"type":"function","name":"validateUserOp","inputs":[{"name":"userOp","type":"tuple","internalType":"struct UserOperation","components":[{"name":"sender","type":"address","internalType":"address"},{"name":"nonce","type":"uint256","internalType":"uint256"},{"name":"initCode","type":"bytes","internalType":"bytes"},{"name":"callData","type":"bytes","internalType":"bytes"},{"name":"callGasLimit","type":"uint256","internalType":"uint256"},{"name":"verificationGasLimit","type":"uint256","internalType":"uint256"},{"name":"preVerificationGas","type":"uint256","internalType":"uint256"},{"name":"maxFeePerGas","type":"uint256","internalType":"uint256"},{"name":"maxPriorityFeePerGas","type":"uint256","internalType":"uint256"},{"name":"paymasterAndData","type":"bytes","internalType":"bytes"},{"name":"signature","type":"bytes","internalType":"bytes"}]},{"name":"userOpHash","type":"bytes32","internalType":"bytes32"},{"name":"missingAccountFunds","type":"uint256","internalType":"uint256"}],"outputs":[{"name":"validationData","type":"uint256","internalType":"uint256"}],"stateMutability":"nonpayable"},{"type":"event","name":"AdminChanged","inputs":[{"name":"previousAdmin","type":"address","indexed":false,"internalType":"address"},{"name":"newAdmin","type":"address","indexed":false,"internalType":"address"}],"anonymous":false},{"type":"event","name":"BannerImageUpdated","inputs":[{"name":"updater","type":"address","indexed":true,"internalType":"address"},{"name":"newBannerImage","type":"string","indexed":false,"internalType":"string"}],"anonymous":false},{"type":"event","name":"BeaconUpgraded","inputs":[{"name":"beacon","type":"address","indexed":true,"internalType":"address"}],"anonymous":false},{"type":"event","name":"CommunityTokenUpdated","inputs":[{"name":"updater","type":"address","indexed":true,"internalType":"address"},{"name":"newToken","type":"address","indexed":false,"internalType":"address"}],"anonymous":false},{"type":"event","name":"DescriptionUpdated","inputs":[{"name":"updater","type":"address","indexed":true,"internalType":"address"},{"name":"newDescription","type":"string","indexed":false,"internalType":"string"}],"anonymous":false},{"type":"event","name":"GardenOperatorAdded","inputs":[{"name":"updater","type":"address","indexed":true,"internalType":"address"},{"name":"operator","type":"address","indexed":true,"internalType":"address"}],"anonymous":false},{"type":"event","name":"GardenOperatorRemoved","inputs":[{"name":"updater","type":"address","indexed":true,"internalType":"address"},{"name":"operator","type":"address","indexed":true,"internalType":"address"}],"anonymous":false},{"type":"event","name":"GardenerAdded","inputs":[{"name":"updater","type":"address","indexed":true,"internalType":"address"},{"name":"gardener","type":"address","indexed":true,"internalType":"address"}],"anonymous":false},{"type":"event","name":"GardenerRemoved","inputs":[{"name":"updater","type":"address","indexed":true,"internalType":"address"},{"name":"gardener","type":"address","indexed":true,"internalType":"address"}],"anonymous":false},{"type":"event","name":"Initialized","inputs":[{"name":"version","type":"uint8","indexed":false,"internalType":"uint8"}],"anonymous":false},{"type":"event","name":"LocationUpdated","inputs":[{"name":"updater","type":"address","indexed":true,"internalType":"address"},{"name":"newLocation","type":"string","indexed":false,"internalType":"string"}],"anonymous":false},{"type":"event","name":"LockUpdated","inputs":[{"name":"lockedUntil","type":"uint256","indexed":false,"internalType":"uint256"}],"anonymous":false},{"type":"event","name":"MetadataUpdated","inputs":[{"name":"updater","type":"address","indexed":true,"internalType":"address"},{"name":"newMetadata","type":"string","indexed":false,"internalType":"string"}],"anonymous":false},{"type":"event","name":"NameUpdated","inputs":[{"name":"updater","type":"address","indexed":true,"internalType":"address"},{"name":"newName","type":"string","indexed":false,"internalType":"string"}],"anonymous":false},{"type":"event","name":"OpenJoiningUpdated","inputs":[{"name":"updater","type":"address","indexed":true,"internalType":"address"},{"name":"openJoining","type":"bool","indexed":false,"internalType":"bool"}],"anonymous":false},{"type":"event","name":"OverrideUpdated","inputs":[{"name":"owner","type":"address","indexed":false,"internalType":"address"},{"name":"selector","type":"bytes4","indexed":false,"internalType":"bytes4"},{"name":"implementation","type":"address","indexed":false,"internalType":"address"}],"anonymous":false},{"type":"event","name":"PermissionUpdated","inputs":[{"name":"owner","type":"address","indexed":false,"internalType":"address"},{"name":"caller","type":"address","indexed":false,"internalType":"address"},{"name":"hasPermission","type":"bool","indexed":false,"internalType":"bool"}],"anonymous":false},{"type":"event","name":"Upgraded","inputs":[{"name":"implementation","type":"address","indexed":true,"internalType":"address"}],"anonymous":false},{"type":"error","name":"AccountLocked","inputs":[]},{"type":"error","name":"AlreadyGardener","inputs":[]},{"type":"error","name":"ContractCreationFailed","inputs":[]},{"type":"error","name":"ExceedsMaxLockTime","inputs":[]},{"type":"error","name":"HatsEnabled","inputs":[]},{"type":"error","name":"InvalidAccountProof","inputs":[]},{"type":"error","name":"InvalidERC6551Registry","inputs":[]},{"type":"error","name":"InvalidEntryPoint","inputs":[]},{"type":"error","name":"InvalidImplementation","inputs":[]},{"type":"error","name":"InvalidInput","inputs":[]},{"type":"error","name":"InvalidInvite","inputs":[]},{"type":"error","name":"InvalidMulticallForwarder","inputs":[]},{"type":"error","name":"InvalidOperation","inputs":[]},{"type":"error","name":"NotAuthorized","inputs":[]},{"type":"error","name":"NotGardenOperator","inputs":[]},{"type":"error","name":"NotGardenOwner","inputs":[]},{"type":"error","name":"OwnershipCycle","inputs":[]},{"type":"error","name":"TooManyGardeners","inputs":[]},{"type":"error","name":"TooManyOperators","inputs":[]}],"bytecode":{"object":"0x6101803461024857601f614b3838819003918201601f1916830191906001600160401b0383118484101761024c578160c092859260409586528339810103126102485761004b82610260565b61005760208401610260565b92610063838201610260565b9161007060608301610260565b9461008960a061008260808601610260565b9401610260565b936001600160a01b039283168015610237576080523060a052828116156102275760c05260e081905281161561021657610100941684526101209230845261014091825261016092835260045460ff8160081c166101c25760ff80821603610188575b5051926148c394856102758639608051858181610eb001528181611c0801528181611f130152613951015260a0518581816126c801526141be015260c0518581816105fc015281816126e901526141e0015260e05185818161149a01528181614365015261476e015251848181613a590152613cde015251838181610c6c0152818161114001526113c501525182611e7a01525181610e4b0152f35b60ff90811916176004557f7f26b83ff96e1f2b6a682f133852f6798a09c465da95921460cefb38474024986020825160ff8152a15f6100ec565b815162461bcd60e51b815260206004820152602760248201527f496e697469616c697a61626c653a20636f6e747261637420697320696e697469604482015266616c697a696e6760c81b6064820152608490fd5b835163754c753360e11b8152600490fd5b85516246a29560e81b8152600490fd5b8651632039d3c960e01b8152600490fd5b5f80fd5b634e487b7160e01b5f52604160045260245ffd5b51906001600160a01b03821682036102485756fe60806040526004361015610026575b361561001e5761001c6135bc565b005b61001c6135bc565b5f3560e01c806301ffc9a7146103d0578063039721b1146103cb578063056d5afe146103c657806306fdde03146103c15780630959f6a8146103bc578063150b7a02146103b75780631626ba7e146103b25780631b561cf9146103ad5780631e2eaeaf146103a85780631ea48870146103a35780631f6e45e31461039e5780631f9838b5146103995780631fb1ecf014610394578063291d05481461038f57806329aa16171461038a5780632f54bf6e1461038557806334715fb1146103805780633659cfe61461037b578063392f37e9146103765780633a208f95146103715780633a871cdd1461036c57806343629a731461036757806345a24e3e146103625780634f1ef2861461035d578063516f279e146103585780635194544714610353578063523e32601461034e57806352d1902d14610349578063572b6c051461034457806359ec38011461033f5780636d70f7ae1461033a5780637284e416146103355780637597bc7c146103305780637a8f73561461032b57806384da92a7146103265780638da5cb5b1461032157806394def29d1461031c57806398b7a25a14610317578063993fa20b14610312578063a4e2d6341461030d578063adbce85e14610308578063b0d691fe14610303578063b10006a6146102fe578063b709467c146102f9578063bc197c81146102f4578063bcc5cf88146102ef578063c19d93fb146102ea578063ce0617ec146102e5578063d087d288146102e0578063dd467064146102db578063e735b48a146102d6578063eaff6dc9146102d1578063ee9c6054146102cc578063eeb97057146102c7578063eed9df74146102c2578063f23a6e61146102bd578063f7fc57b0146102b8578063f89b9b93146102b85763fc0c546a0361000e57612407565b6123e5565b612384565b6122eb565b612269565b612201565b61217c565b612031565b611f8e565b611ee2565b611ec6565b611ea9565b611e65565b611dc5565b611cfe565b611c37565b611bf3565b611b71565b611b53565b611b2c565b611a9e565b6119ef565b6119d2565b611863565b6116d1565b611691565b6115ff565b6115d8565b6114ce565b611476565b6113b3565b61136b565b6112e7565b611242565b6110ff565b6110b0565b610fca565b610e7a565b610e36565b610d91565b610c45565b610bea565b610bc3565b610b97565b610b75565b610ae8565b610a79565b610a39565b610a12565b6109f3565b6109cc565b61097b565b61089e565b61080b565b61072d565b6105e7565b610496565b6103eb565b6001600160e01b03198116036103e757565b5f80fd5b346103e75760203660031901126103e757602061041260043561040d816103d5565b61243e565b6040519015158152f35b9181601f840112156103e7578235916001600160401b0383116103e7576020808501948460051b0101116103e757565b60406003198201126103e7576001600160401b03916004358381116103e757826104789160040161041c565b939093926024359182116103e7576104929160040161041c565b9091565b346103e7576104a43661044c565b92906104bf6104ba6104b4613367565b916140c3565b6141bb565b6001600160a01b03811680156105d55733036105d5576104dd6133c4565b8385036105c3575f5b8481106104ef57005b8061055b6105086105036001948a8861254b565b612560565b6001600160a01b0385165f90815260026020526040902061054a90610536610531868c8c61254b565b61256a565b60018060a01b03165f5260205260405f2090565b9060ff801983541691151516179055565b7f394777a58092892d136a90c4bb7e4350c72ac50fba6a0208128677f36527dcf561058a61053183898961254b565b610598610503848b8961254b565b604080516001600160a01b03888116825293909316602084015290151590820152606090a1016104e6565b60405163b4fa3fb360e01b8152600490fd5b60405163ea8e4eb560e01b8152600490fd5b346103e7575f3660031901126103e7576040517f00000000000000000000000000000000000000000000000000000000000000006001600160a01b03168152602090f35b90600182811c92168015610659575b602083101461064557565b634e487b7160e01b5f52602260045260245ffd5b91607f169161063a565b634e487b7160e01b5f52604160045260245ffd5b602081019081106001600160401b0382111761069257604052565b610663565b606081019081106001600160401b0382111761069257604052565b90601f801991011681019081106001600160401b0382111761069257604052565b5f5b8381106106e45750505f910152565b81810151838201526020016106d5565b9060209161070d815180928185528580860191016106d3565b601f01601f1916010190565b90602061072a9281815201906106f4565b90565b346103e7575f3660031901126103e7576040515f60055461074d8161062b565b808452906020906001908181169081156107d0575060011461078a575b6107868561077a818703826106b2565b60405191829182610719565b0390f35b60055f90815293505f805160206148578339815191525b8385106107bd5750505050810160200161077a8261078661076a565b80548686018401529382019381016107a1565b8695506107869693506020925061077a94915060ff191682840152151560051b820101929361076a565b6001600160a01b038116036103e757565b346103e75760203660031901126103e757602061041260043561082d816107fa565b613434565b6001600160401b03811161069257601f01601f191660200190565b92919261085982610832565b9161086760405193846106b2565b8294818452818301116103e7578281602093845f960137010152565b9080601f830112156103e75781602061072a9335910161084d565b346103e75760803660031901126103e7576108ba6004356107fa565b6108c56024356107fa565b6064356001600160401b0381116103e7576108e4903690600401610883565b506108ed613367565b919060018060a01b031633149182610942575b5081610938575b50610926576109146135bc565b604051630a85bd0160e11b8152602090f35b60405163b79e3f3f60e01b8152600490fd5b905046145f610907565b6044351491505f610900565b9181601f840112156103e7578235916001600160401b0383116103e757602083818601950101116103e757565b346103e75760403660031901126103e7576024356001600160401b0381116103e7576109b96109b0602092369060040161094e565b90600435612574565b6040516001600160e01b03199091168152f35b346103e75760203660031901126103e75760206104126004356109ee816107fa565b6137eb565b346103e75760203660031901126103e757602060043554604051908152f35b346103e75760203660031901126103e7576020610412600435610a34816107fa565b6125b2565b346103e75760203660031901126103e757600435610a56816107fa565b60018060a01b03165f52600a602052602060ff60405f2054166040519015158152f35b346103e75760403660031901126103e757602060ff610ad1600435610a9d816107fa565b60243590610aaa826107fa565b60018060a01b03165f526002845260405f209060018060a01b03165f5260205260405f2090565b54166040519015158152f35b60ff8116036103e757565b60a03660031901126103e757600435610b00816107fa565b6001600160401b036044358181116103e757610b2090369060040161094e565b919092606435610b2f81610add565b608435938385116103e757366023860112156103e75784600401359384116103e75736602460608602870101116103e75761078695602461077a96019360243590612661565b346103e7575f3660031901126103e757602060ff600c54166040519015158152f35b346103e7575f3660031901126103e75760045460405160109190911c6001600160a01b03168152602090f35b346103e75760203660031901126103e7576020610412600435610be5816107fa565b613bff565b346103e75760603660031901126103e7576044356001600160401b0381116103e757610c33610c1f602092369060040161094e565b90610c28613c61565b602435600435613c7b565b6040516001600160a01b039091168152f35b346103e75760203660031901126103e757600435610c62816107fa565b6001600160a01b037f000000000000000000000000000000000000000000000000000000000000000081169190610c9b30841415612830565b610cb75f80516020614877833981519152938285541614612891565b610cc082613cb5565b60405190610ccd82610677565b5f82527f4910fdfa16fed3260ed0e7147f7cc6da11a60208b5b9406d12a635614ffd91435460ff1615610d0657505061001c91506144bf565b6020600491604094939451928380926352d1902d60e01b825286165afa5f9181610d60575b50610d4d5760405162461bcd60e51b815280610d4960048201613dce565b0390fd5b61001c93610d5b9114613d70565b61446e565b610d8391925060203d602011610d8a575b610d7b81836106b2565b810190613d61565b905f610d2b565b503d610d71565b346103e7575f3660031901126103e7576040515f600954610db18161062b565b808452906020906001908181169081156107d05750600114610ddd576107868561077a818703826106b2565b60095f90815293507f6e1540171b6c0c960b71a7020d9f60077f6af931a8bbf590da0223dacf75c7af5b838510610e235750505050810160200161077a8261078661076a565b8054868601840152938201938101610e07565b346103e7575f3660031901126103e7576040517f00000000000000000000000000000000000000000000000000000000000000006001600160a01b03168152602090f35b346103e7576003196060368201126103e757600435906001600160401b0382116103e7576101609082360301126103e7576044357f00000000000000000000000000000000000000000000000000000000000000006001600160a01b03163303610f2257610ef16107869260243590600401613e1d565b9080610f09575b506040519081529081906020820190565b5f80808093338219f150610f1b613338565b505f610ef8565b60405162461bcd60e51b815260206004820152601c60248201527f6163636f756e743a206e6f742066726f6d20456e747279506f696e74000000006044820152606490fd5b6020808201906020835283518092526040830192602060408460051b8301019501935f915b848310610f9c5750505050505090565b9091929394958480610fba600193603f198682030187528a516106f4565b9801930193019194939290610f8c565b6020806003193601126103e7576004356001600160401b0381116103e757610ff690369060040161041c565b9161100e61100a611005614362565b613944565b1590565b6105d55761101a6133c4565b6110238361292e565b925f5b81811061103b57604051806107868782610f67565b8061109461104f6105316001948689612977565b84878761105d868484612977565b013561108e606061108888611080611076828989612977565b6040810190612999565b979096612977565b016129cb565b93613ae6565b61109e82886129d5565b526110a981876129d5565b5001611026565b346103e75760403660031901126103e7576024356001600160401b0381116103e757610c336110f76110e8602093369060040161094e565b6110f0613c61565b369161084d565b600435613e6d565b60403660031901126103e757600435611117816107fa565b6024356001600160401b0381116103e757611136903690600401610883565b6001600160a01b037f0000000000000000000000000000000000000000000000000000000000000000811692919061117030851415612830565b61118c5f80516020614877833981519152948286541614612891565b61119583613cb5565b7f4910fdfa16fed3260ed0e7147f7cc6da11a60208b5b9406d12a635614ffd91435460ff16156111cb57505061001c91506144bf565b6020600491604094939451928380926352d1902d60e01b825286165afa5f9181611221575b5061120e5760405162461bcd60e51b815280610d4960048201613dce565b61001c9361121c9114613d70565b6143b4565b61123b91925060203d602011610d8a57610d7b81836106b2565b905f6111f0565b346103e7575f3660031901126103e7576040515f6007546112628161062b565b808452906020906001908181169081156107d0575060011461128e576107868561077a818703826106b2565b60075f90815293507fa66cc928b5edb82af9bd49922954155ab7b0942694bea4ce44661d9a8736c6885b8385106112d45750505050810160200161077a8261078661076a565b80548686018401529382019381016112b8565b60803660031901126103e7576004356112ff816107fa565b6044356001600160401b0381116103e75761131e90369060040161094e565b6064929192359061132e82610add565b611339611005614362565b156105d557610786936113579361134e6133c4565b60243590613ae6565b6040519182916020835260208301906106f4565b346103e75760403660031901126103e757600435611388816107fa565b6024356001600160401b0381116103e7576020916113ad6109b992369060040161094e565b916129e9565b346103e7575f3660031901126103e7577f00000000000000000000000000000000000000000000000000000000000000006001600160a01b0316300361140b576040515f805160206148778339815191528152602090f35b60405162461bcd60e51b815260206004820152603860248201527f555550535570677261646561626c653a206d757374206e6f742062652063616c60448201527f6c6564207468726f7567682064656c656761746563616c6c00000000000000006064820152608490fd5b346103e75760203660031901126103e7576020600435611495816107fa565b6040517f00000000000000000000000000000000000000000000000000000000000000006001600160a01b039081169216919091148152f35b346103e7576003196020368201126103e757600435906001600160401b0382116103e7576101209082360301126103e7576115476004549161152760ff8460081c1615809481956115ca575b81156115aa575b50612a12565b8261153a600160ff196004541617600455565b611591575b6004016130a0565b61154d57005b61155d61ff001960045416600455565b604051600181527f7f26b83ff96e1f2b6a682f133852f6798a09c465da95921460cefb38474024989080602081015b0390a1005b6115a561010061ff00196004541617600455565b61153f565b303b159150816115bc575b505f611521565b6001915060ff16145f6115b5565b600160ff821610915061151a565b346103e75760203660031901126103e75760206104126004356115fa816107fa565b613ee1565b346103e7575f3660031901126103e7576040515f60065461161f8161062b565b808452906020906001908181169081156107d0575060011461164b576107868561077a818703826106b2565b60065f90815293505f805160206148978339815191525b83851061167e5750505050810160200161077a8261078661076a565b8054868601840152938201938101611662565b346103e75760203660031901126103e7576004356116ae816107fa565b60018060a01b03165f52600b602052602060ff60405f2054166040519015158152f35b346103e7576116df3661044c565b92906116ef6104ba6104b4613367565b6001600160a01b03811680156105d55733036105d55761170d6133c4565b61171630613fa0565b3b1561181a575b8385036105c3575f5b84811061172f57005b806117a56117436105316001948a8861254b565b6001600160a01b0385165f9081526001602052604090206117869061177161176c868c8c61254b565b61329b565b63ffffffff60e01b165f5260205260405f2090565b80546001600160a01b0319166001600160a01b03909216919091179055565b7f2c722487e90aca38ec1b074c3403210bd2bfb769b4da7f12f7bf0b9e37517c186117d461176c83898961254b565b6117e2610531848b8961254b565b604080516001600160a01b0380891682526001600160e01b03199094166020820152929091169082015280606081010390a101611726565b61182330613fef565b61171d565b60206003198201126103e757600435906001600160401b0382116103e757806023830112156103e75781602461072a9360040135910161084d565b346103e75761187136611828565b611879614362565b61188281613bff565b156119c05781516001600160401b038111610692576118ab816118a660055461062b565b612aaa565b602080601f831160011461192c5750916118ff8261191c937f74321da206c1b9fa34367f7ece59ca49371dcd13820b9a5c3767ae1ecceed51a955f91611921575b508160011b915f199060031b1c19161790565b6005555b6040516001600160a01b03909116939091829182610719565b0390a2005b90508601515f6118ec565b60055f5290601f1983165f80516020614857833981519152925f905b8282106119a8575050927f74321da206c1b9fa34367f7ece59ca49371dcd13820b9a5c3767ae1ecceed51a94926001928261191c9610611990575b5050811b01600555611903565b8701515f1960f88460031b161c191690555f80611983565b80600185968294968b01518155019501930190611948565b604051633632b98960e21b8152600490fd5b346103e7575f3660031901126103e7576020610c336104b4613367565b346103e7575f3660031901126103e7576040515f600854611a0f8161062b565b808452906020906001908181169081156107d05750600114611a3b576107868561077a818703826106b2565b60085f90815293507ff3f7a9fe364faab93b216da50a3214154f22a0a2b415b23a84c8169e8b636ee35b838510611a815750505050810160200161077a8261078661076a565b8054868601840152938201938101611a65565b801515036103e757565b346103e75760203660031901126103e757600435611abb81611a94565b611ac3614362565b90611acd82613ee1565b15611b1a5760207fa48b25a14599514510fcdca0f35ff4cd42847f5e61698a238f4ee01e2d1c2c6a9115159260ff19600c541660ff851617600c5560405193845260018060a01b031692a2005b604051633cebab8560e21b8152600490fd5b346103e75760203660031901126103e7576020610412600435611b4e816107fa565b6132a5565b346103e7575f3660031901126103e75760205f546040519042108152f35b346103e75760203660031901126103e757600435611b8e816107fa565b611b96614362565b90611ba082613bff565b156119c057611bad61410b565b60018060a01b0380911691825f52600b60205260405f2060ff198154169055167fdd1e1c7c82ab1f3ed1b1656e8200309ebf9f682a74ce7737d3bfde87a7fecb085f80a3005b346103e7575f3660031901126103e7576040517f00000000000000000000000000000000000000000000000000000000000000006001600160a01b03168152602090f35b346103e7575f3660031901126103e757611c4f61410b565b60ff600c541615611cec57611c62614362565b6001600160a01b0381165f908152600a602052604090205460ff16611cda576001600160a01b0381165f908152600a60205260409020611caa905b805460ff19166001179055565b6001600160a01b0316307fc0b9de905219d7679d6f05d6061fa6ef557a687d2c44c314b58bb793f5dba4945f80a3005b60405163211bad0f60e11b8152600490fd5b604051636dc9375d60e11b8152600490fd5b346103e75760603660031901126103e757600435611d1b816107fa565b6044356001600160401b0381116103e75761078691611d446110e861135793369060040161094e565b9060243590614134565b6001600160401b0381116106925760051b60200190565b9080601f830112156103e7576020908235611d7f81611d4e565b93611d8d60405195866106b2565b81855260208086019260051b8201019283116103e757602001905b828210611db6575050505090565b81358152908301908301611da8565b346103e75760a03660031901126103e757611de16004356107fa565b611dec6024356107fa565b6001600160401b036044358181116103e757611e0c903690600401611d65565b506064358181116103e757611e25903690600401611d65565b506084359081116103e757611e3e903690600401610883565b50610786611e4a6132ef565b6040516001600160e01b031990911681529081906020820190565b346103e7575f3660031901126103e7576040517f00000000000000000000000000000000000000000000000000000000000000006001600160a01b03168152602090f35b346103e7575f3660031901126103e7576020600354604051908152f35b346103e7575f3660031901126103e75760205f54604051908152f35b346103e7575f3660031901126103e757604051631aab3f0d60e11b81523060048201525f60248201526020816044817f00000000000000000000000000000000000000000000000000000000000000006001600160a01b03165afa8015611f89575f90611f55575b604051908152602090f35b506020813d602011611f81575b81611f6f602093836106b2565b810103126103e7576107869051611f4a565b3d9150611f62565b6125a7565b346103e75760203660031901126103e7576004356104ba611fc2611fb0613367565b6001600160a01b0394929091906140c3565b1680156105d55733036105d557611fd842613316565b811161201f5761158c7fa7b24c66dd3269a292a60b3facdbb8f3e7557d1e19e64d99e0d6ee7250be63ad9161200b6133c4565b805f55604051918291829190602083019252565b6040516301814f7d60e31b8152600490fd5b346103e75761203f36611828565b612047614362565b61205081613ee1565b15611b1a5781516001600160401b038111610692576120798161207460065461062b565b612b04565b602080601f83116001146120e85750916120cc8261191c937f37cc8c6ced0cbc4d440fcfa810a2f09f40b8f0127c3656103edf26b3d93e0ec1955f9161192157508160011b915f199060031b1c19161790565b6006556040516001600160a01b03909116939091829182610719565b60065f5290601f1983165f80516020614897833981519152925f905b828210612164575050927f37cc8c6ced0cbc4d440fcfa810a2f09f40b8f0127c3656103edf26b3d93e0ec194926001928261191c961061214c575b5050811b01600655611903565b8701515f1960f88460031b161c191690555f8061213f565b80600185968294968b01518155019501930190612104565b346103e75760203660031901126103e757600435612199816107fa565b6121a1614362565b906121ab82613ee1565b15611b1a576121b861410b565b60018060a01b0380911691825f52600a60205260405f20600160ff19825416179055167fc0b9de905219d7679d6f05d6061fa6ef557a687d2c44c314b58bb793f5dba4945f80a3005b346103e75760403660031901126103e7576020600435612220816107fa565b61225f60243561222f816103d5565b6001600160a01b039283165f9081526001855260408082206001600160e01b031990931682526020929092522090565b5416604051908152f35b346103e75760203660031901126103e757600435612286816107fa565b61228e614362565b9061229882613ee1565b15611b1a576122a561410b565b60018060a01b0380911691825f52600a60205260405f2060ff198154169055167f8a44d725ac751003f7f644f7ce70382fa06f348023717d057b7aa5c8778770d25f80a3005b346103e75760203660031901126103e757600435612308816107fa565b612310614362565b9061231a82613ee1565b15611b1a5761232761410b565b60018060a01b0380911691825f52600b60205260405f2060ff1990600182825416179055600a602052600160405f2091825416179055167f06216f26a4a5b9c90aa5e1f990342de8fa80a0c447e3c6143fbaf0c7747edd715f80a3005b346103e75760a03660031901126103e7576123a06004356107fa565b6123ab6024356107fa565b6084356001600160401b0381116103e7576123ca903690600401610883565b506123d36135bc565b60405163f23a6e6160e01b8152602090f35b346103e7575f3660031901126103e75760206123ff61415c565b604051908152f35b346103e7575f3660031901126103e7576060612421613367565b604080519384526001600160a01b03909216602084015290820152f35b6001600160e01b0319908116635194544760e01b81149081156124f2575b506124ec576124ad612488916104ba612473613367565b6001600160a01b0396879490939092906140c3565b165f52600160205260405f20905f351663ffffffff60e01b165f5260205260405f2090565b5416806124b957505f90565b5f8091604051806124ca813661332c565b03915afa6124d6613338565b90156124e457602081519101f35b602081519101fd5b50600190565b636faff5f160e01b81149150811561250c575b505f61245c565b630271189760e51b811491508115612526575b505f612505565b6301ffc9a760e01b1490505f61251f565b634e487b7160e01b5f52603260045260245ffd5b919081101561255b5760051b0190565b612537565b3561072a81611a94565b3561072a816107fa565b9061257f9291613710565b612587575f90565b630b135d3f60e11b90565b908160209103126103e7575161072a81611a94565b6040513d5f823e3d90fd5b6001600160a01b036125c2613858565b1680156126365760405163071f0a6b60e31b81523060048201526001600160a01b03909216602483015260209082908180604481015b03915afa908115611f89575f9161260d575090565b61072a915060203d60201161262f575b61262781836106b2565b810190612592565b503d61261d565b50505f90565b919081101561255b576060020190565b908160209103126103e7575161072a816107fa565b95949091929394612670614362565b915f915b80831061269f5750505061100a61268a91613944565b6105d55761072a9461269a6133c4565b613ae6565b9091926126ad84838561263c565b906126ba6020830161256a565b61270d6040840135824686357f00000000000000000000000000000000000000000000000000000000000000007f00000000000000000000000000000000000000000000000000000000000000006138bd565b92813b1561278557833b6127c8575b604080516331a9108f60e11b815291013560048201529190602090839060249082906001600160a01b03165afa5f9281612797575b5061276857604051631052dd2560e21b8152600490fd5b6001600160a01b0390811691160361278557926001019190612674565b604051631052dd2560e21b8152600490fd5b6127ba91935060203d6020116127c1575b6127b281836106b2565b81019061264c565b915f612751565b503d6127a8565b604051632938b58d60e21b815260049060208183816001600160a01b038a165afa908115611f89575f91612811575b50612802575061271c565b604051636315bfbb60e01b8152fd5b61282a915060203d60201161262f5761262781836106b2565b5f6127f7565b1561283757565b60405162461bcd60e51b815260206004820152602c60248201527f46756e6374696f6e206d7573742062652063616c6c6564207468726f7567682060448201526b19195b1959d85d1958d85b1b60a21b6064820152608490fd5b1561289857565b60405162461bcd60e51b815260206004820152602c60248201527f46756e6374696f6e206d7573742062652063616c6c6564207468726f7567682060448201526b6163746976652070726f787960a01b6064820152608490fd5b604051906128ff82610677565b5f8252565b6040519060a082018281106001600160401b03821117610692576040526080808352366020840137565b9061293882611d4e565b61294560405191826106b2565b8281528092612956601f1991611d4e565b01905f5b82811061296657505050565b80606060208093850101520161295a565b919081101561255b5760051b81013590607e19813603018212156103e7570190565b903590601e19813603018212156103e757018035906001600160401b0382116103e7576020019181360383136103e757565b3561072a81610add565b805182101561255b5760209160051b010190565b906129f9906129ff93369161084d565b50613e87565b612a07575f90565b630291f19360e51b90565b15612a1957565b60405162461bcd60e51b815260206004820152602e60248201527f496e697469616c697a61626c653a20636f6e747261637420697320616c72656160448201526d191e481a5b9a5d1a585b1a5e995960921b6064820152608490fd5b903590601e19813603018212156103e757018035906001600160401b0382116103e757602001918160051b360383136103e757565b601f8111612ab6575050565b60055f525f80516020614857833981519152906020601f840160051c83019310612afa575b601f0160051c01905b818110612aef575050565b5f8155600101612ae4565b9091508190612adb565b601f8111612b10575050565b60065f525f80516020614897833981519152906020601f840160051c83019310612b54575b601f0160051c01905b818110612b49575050565b5f8155600101612b3e565b9091508190612b35565b601f8111612b6a575050565b60075f527fa66cc928b5edb82af9bd49922954155ab7b0942694bea4ce44661d9a8736c688906020601f840160051c83019310612bc1575b601f0160051c01905b818110612bb6575050565b5f8155600101612bab565b9091508190612ba2565b601f8111612bd7575050565b60085f527ff3f7a9fe364faab93b216da50a3214154f22a0a2b415b23a84c8169e8b636ee3906020601f840160051c83019310612c2e575b601f0160051c01905b818110612c23575050565b5f8155600101612c18565b9091508190612c0f565b601f8111612c44575050565b60095f527f6e1540171b6c0c960b71a7020d9f60077f6af931a8bbf590da0223dacf75c7af906020601f840160051c83019310612c9b575b601f0160051c01905b818110612c90575050565b5f8155600101612c85565b9091508190612c7c565b91906001600160401b03811161069257612cc4816118a660055461062b565b5f601f8211600114612d02578190612cf293945f92612cf7575b50508160011b915f199060031b1c19161790565b600555565b013590505f80612cde565b60055f52601f198216935f80516020614857833981519152915f5b868110612d545750836001959610612d3b575b505050811b01600555565b01355f19600384901b60f8161c191690555f8080612d30565b90926020600181928686013581550194019101612d1d565b91906001600160401b03811161069257612d8b8161207460065461062b565b5f601f8211600114612dbd578190612db893945f92612cf75750508160011b915f199060031b1c19161790565b600655565b60065f52601f198216935f80516020614897833981519152915f5b868110612e0f5750836001959610612df6575b505050811b01600655565b01355f19600384901b60f8161c191690555f8080612deb565b90926020600181928686013581550194019101612dd8565b91906001600160401b03811161069257612e4b81612e4660075461062b565b612b5e565b5f601f8211600114612e7d578190612e7893945f92612cf75750508160011b915f199060031b1c19161790565b600755565b60075f52601f198216937fa66cc928b5edb82af9bd49922954155ab7b0942694bea4ce44661d9a8736c688915f5b868110612ee25750836001959610612ec9575b505050811b01600755565b01355f19600384901b60f8161c191690555f8080612ebe565b90926020600181928686013581550194019101612eab565b91906001600160401b03811161069257612f1e81612f1960085461062b565b612bcb565b5f601f8211600114612f50578190612f4b93945f92612cf75750508160011b915f199060031b1c19161790565b600855565b60085f52601f198216937ff3f7a9fe364faab93b216da50a3214154f22a0a2b415b23a84c8169e8b636ee3915f5b868110612fb55750836001959610612f9c575b505050811b01600855565b01355f19600384901b60f8161c191690555f8080612f91565b90926020600181928686013581550194019101612f7e565b91906001600160401b03811161069257612ff181612fec60095461062b565b612c38565b5f601f821160011461302357819061301e93945f92612cf75750508160011b915f199060031b1c19161790565b600955565b60095f52601f198216937f6e1540171b6c0c960b71a7020d9f60077f6af931a8bbf590da0223dacf75c7af915f5b868110613088575083600195961061306f575b505050811b01600955565b01355f19600384901b60f8161c191690555f8080613064565b90926020600181928686013581550194019101613051565b9060e082019160326130b28483612a75565b90501161328957610100810160146130ca8284612a75565b905011613277576131066130dd8361256a565b6004805462010000600160b01b03191660109290921b62010000600160b01b0316919091179055565b61311c6131166020840184612999565b90612ca5565b61313261312c6040840184612999565b90612d6c565b6131486131426060840184612999565b90612e27565b61315e6131586080840184612999565b90612efa565b61317461316e60a0840184612999565b90612fcd565b61319561318360c08401612560565b60ff8019600c54169115151617600c55565b6131ad6001600160a01b036131a8613858565b161590565b6131b8575b50509050565b6131df611c9d6131c6614362565b6001600160a01b03165f908152600b6020526040902090565b5f5b6131eb8584612a75565b9050811015613233578061322d611c9d61321461053160019561320e8b8a612a75565b9061254b565b6001600160a01b03165f908152600a6020526040902090565b016131e1565b5092505f5b6132428483612a75565b905081101561326b5780613265611c9d6131c661053160019561320e8a89612a75565b01613238565b50509050805f806131b2565b604051636055dca160e01b8152600490fd5b604051636bd3434560e11b8152600490fd5b3561072a816103d5565b6001600160a01b036132b5613858565b1680156126365760405163b2acf41d60e01b81523060048201526001600160a01b03909216602483015260209082908180604481016125f8565b6132f76135bc565b63bc197c8160e01b90565b634e487b7160e01b5f52601160045260245ffd5b906301e13380820180921161332757565b613302565b90815f8237015f815290565b3d15613362573d9061334982610832565b9161335760405193846106b2565b82523d5f602084013e565b606090565b60405190608082018281106001600160401b038211176106925760405260608252602082016060604d82303c6060838051810103126103e757519060606040840151936133b3856107fa565b015191926001600160a01b03169190565b5f54421061342257600354608061341a6133dc61476b565b92908360405194859260208401978852604080850152816060850152848401375f838284010152601f801991011681010360608101845201826106b2565b519020600355565b604051636315bfbb60e01b8152600490fd5b61344b61343f613858565b6001600160a01b031690565b906001600160a01b03821615613599576040516311e3579360e31b81523060048201526001600160a01b038216602482015290602090818380604481015b0381875afa928315611f89575f9361357a575b50821561351b575b82156134b2575b5050905090565b60405163f582bceb60e01b81523060048201526001600160a01b0391909116602482015290929091508290829060449082905afa918215611f89575f926134fe575b5050805f806134ab565b6135149250803d1061262f5761262781836106b2565b5f806134f4565b604051630e70978b60e21b81523060048201526001600160a01b03821660248201529092508181604481875afa908115611f89575f9161355d575b50916134a4565b6135749150823d841161262f5761262781836106b2565b5f613556565b613592919350823d841161262f5761262781836106b2565b915f61349c565b6001600160a01b03165f908152600a6020526040902061072a91505b5460ff1690565b6136056135e96135d06104ba6104b4613367565b6001600160a01b03165f90815260016020526040902090565b5f80356001600160e01b03191681526020919091526040902090565b546001600160a01b0381166136175750565b5f809161362330613fa0565b908260405161366760488260208101956001600160601b0319809160601b16875236866034840137368201903360601b1660348201520360288101845201826106b2565b51925af16124d6613338565b906040101561255b5760400190565b906020116103e75790602090565b906040116103e75760200190602090565b90929192836020116103e75783116103e75760200191601f190190565b909392938483116103e75784116103e7578101920390565b3590602081106136e4575090565b5f199060200360031b1b1690565b600511156136fc57565b634e487b7160e01b5f52602160045260245ffd5b909160ff6137386137326137248487613673565b356001600160f81b03191690565b60f81c90565b1615613771576137539261374d91369161084d565b90614331565b61375c816136f2565b61376c5761072a906129f96128f2565b505f90565b9061378b61343f61343f6137858587613682565b906136d6565b916137946128f2565b506137a161100a84613e87565b806137d8575b6137d0576110f08185816137c46137856137ca9661072a9a613690565b916136be565b916142b6565b505050505f90565b506001600160a01b0383163014156137a7565b6137f661343f613858565b906001600160a01b03821615613838576040516326ba248f60e21b81523060048201526001600160a01b03821660248201529060209081838060448101613489565b6001600160a01b03165f908152600b6020526040902061072a91506135b5565b613860613367565b506001600160a01b03169050801561376c5760206004916040519283809263bdecffeb60e01b82525afa5f918161389c575b5061072a57505f90565b6138b691925060203d6020116127c1576127b281836106b2565b905f613892565b91906055959360e2956040519560b787015260018060a01b0316609786015260778501528160578501526e5af43d82803e903d91602b57fd5bf360378501526028840152733d60ad80600a3d3981f3363d3d373d3d3d363d73601484015260b7835260d7830190816040528351602085012061011785015260f7840152520160ff81532090565b6001600160a01b038181167f000000000000000000000000000000000000000000000000000000000000000082168114613abb57613980613367565b904683036139fc575b613992926140c3565b82811682146139f3576139a4906141bb565b918216146139ec576001600160a01b03165f9081526002602052604090206139df916135b5919060018060a01b03165f5260205260405f2090565b6139e7575f90565b600190565b5050600190565b50505050600190565b613a2d613a07614362565b6001600160a01b0390811673111100000000000000000000000000000000111019011690565b85163014613a91576040516333932be560e11b81526001600160a01b03871660048201526020816024817f00000000000000000000000000000000000000000000000000000000000000008a165afa908115611f89575f91613a9c575b5015613989575b505050505050600190565b613ab5915060203d60201161262f5761262781836106b2565b5f613a8a565b505050600190565b909280926014946001600160601b03199060601b1683528483013701015f815290565b9092919360ff16908115613be65760018214613b95575060028114613b7857600314613b1e57604051631cc6a69960e11b8152600490fd5b8261072a92613b418380613b3b613785613b4997613b6a9a613682565b946136a1565b929091613c7b565b604051928391602083016014916001600160601b03199060601b1681520190565b03601f1981018352826106b2565b5061072a91613b8f613b6a94613b4993369161084d565b90613e6d565b61072a9493929150613bd390613bc5613bad30613fa0565b93843b15613bd8575b60405196879360208501613ac3565b03601f1981018552846106b2565b614134565b613be130613fef565b613bb6565b9291613bf991509361072a94369161084d565b91614134565b6001600160a01b03613c0f613858565b168015613c495760405163f582bceb60e01b81523060048201526001600160a01b03909216602483015260209082908180604481016125f8565b5061072a905f604051613c5b81610677565b52613e87565b6001600160a01b03613c7230613fa0565b1633036105d557565b91613c889193369161084d565b9060208251920190f5906001600160a01b03821615613ca357565b60405163a28c247360e01b8152600490fd5b604051631506fd4d60e01b81526001600160a01b039091166004820152602081806024810103817f00000000000000000000000000000000000000000000000000000000000000006001600160a01b03165afa908115611f89575f91613d42575b5015613d3057613d2a61100a611005614362565b6105d557565b60405163340aafcd60e11b8152600490fd5b613d5b915060203d60201161262f5761262781836106b2565b5f613d16565b908160209103126103e7575190565b15613d7757565b60405162461bcd60e51b815260206004820152602960248201527f45524331393637557067726164653a20756e737570706f727465642070726f786044820152681a58589b195555525160ba1b6064820152608490fd5b60809060208152602e60208201527f45524331393637557067726164653a206e657720696d706c656d656e7461746960408201526d6f6e206973206e6f74205555505360901b60608201520190565b613e60917f19457468657265756d205369676e6564204d6573736167653a0a3332000000005f52601c52613e5a603c5f2091610140810190612999565b91613710565b613e6957600190565b5f90565b60208251920190f0906001600160a01b03821615613ca357565b613e926104b4613367565b6001600160a01b038281169180821683146139f357613eb0906141bb565b168091146139ec575f9081526002602090815260408083206001600160a01b0390941683529290522060ff90541690565b613eec61343f613858565b906001600160a01b03821615613f6557604051630e70978b60e21b81523060048201526001600160a01b0382166024820152906020908183604481875afa928315611f89575f93613f46575b5082156134b2575050905090565b613f5e919350823d841161262f5761262781836106b2565b915f613f38565b6001600160a01b0381165f908152600b60205260409020909150613f88906135b5565b908115613f93575090565b61072a91506129f96128f2565b600b613fad60559261454e565b602081519101206040519060408201527f97f795a08410e77dc9dbbaba3915f17c601e45642518dd578bd440d8775bfee460208201523081520160ff81532090565b613ff89061454e565b80511561407f5780516001600160a01b03917f97f795a08410e77dc9dbbaba3915f17c601e45642518dd578bd440d8775bfee491906020015ff5161561403a57565b60405162461bcd60e51b815260206004820152601960248201527f437265617465323a204661696c6564206f6e206465706c6f79000000000000006044820152606490fd5b606460405162461bcd60e51b815260206004820152602060248201527f437265617465323a2062797465636f6465206c656e677468206973207a65726f6044820152fd5b460361263657803b15612636576040516331a9108f60e11b81526004810192909252602090829060249082906001600160a01b03165afa5f918161389c575061072a57505f90565b6001600160a01b0361411b613858565b1661412257565b60405163afbbf25160e01b8152600490fd5b915f928392602083519301915af19061414b613338565b911561415357565b50602081519101fd5b6001600160a01b0361416c614625565b16801561376c5760206024916040519283809263a1d4b07f60e01b82523060048301525afa908115611f89575f916141a2575090565b61072a915060203d602011610d8a57610d7b81836106b2565b907f0000000000000000000000000000000000000000000000000000000000000000917f00000000000000000000000000000000000000000000000000000000000000005b61420b818584614668565b156142b15760408051637e062a3560e11b815292606091908290859060049082906001600160a01b03165afa938415611f89575f915f935f96614261575b5050509261425a9161420b946140c3565b9150614200565b92509250809450813d83116142aa575b61427b81836106b2565b810103126103e7578261425a9161420b94519060208301519261429d846107fa565b0151909190948193614249565b503d614271565b509150565b5f91929082916040516142ed81613b6a6020820194630b135d3f60e11b998a875260248401526040604484015260648301906106f4565b51915afa906142fa613338565b82614323575b8261430a57505090565b61431f91925060208082518301019101613d61565b1490565b915060208251101591614300565b9060418151145f146143595761049291602082015190606060408401519301515f1a906146f0565b50505f90600290565b337f00000000000000000000000000000000000000000000000000000000000000006001600160a01b031614806143a9575b156143a55736601319013560601c90565b3390565b506014361015614394565b906143be826144bf565b6001600160a01b0382167fbc7cd75a20ee27fd9adebab32041f755214dbc6bffa90cc0225b39da2e5c2d3b5f80a2805115801590614466575b6143ff575050565b614463915f806040519361441285610697565b602785527f416464726573733a206c6f772d6c6576656c2064656c65676174652063616c6c6020860152660819985a5b195960ca1b6040860152602081519101845af461445d613338565b916147c5565b50565b5060016143f7565b90614478826144bf565b6001600160a01b0382167fbc7cd75a20ee27fd9adebab32041f755214dbc6bffa90cc0225b39da2e5c2d3b5f80a28051158015906144b8576143ff575050565b505f6143f7565b803b156144f3575f8051602061487783398151915280546001600160a01b0319166001600160a01b03909216919091179055565b60405162461bcd60e51b815260206004820152602d60248201527f455243313936373a206e657720696d706c656d656e746174696f6e206973206e60448201526c1bdd08184818dbdb9d1c9858dd609a1b6064820152608490fd5b6040908151828101908082106001600160401b03831117610692578361072a936034936145f49652600e8352614616602084016d604380600d600039806000f3fe7360901b81528351906145a182610697565b602e825260208201947f3314601d573d3dfd5b363d3d373d3d6014360360143d5160601c5af43d60008086526d3e80603e573d6000fd5b3d6000f360901b818401525198899651809260208901906106d3565b8501926001600160601b03199060601b166020840152518093868401906106d3565b010360148101845201826106b2565b61462d613367565b506001600160a01b03169050801561376c576020600491604051928380926320136bb160e11b82525afa5f918161389c575061072a57505f90565b9160ad833b036146e9576014600a600c853c5f5190813b156137d0576001600160a01b03928316828416036137d05761469f612904565b60208101916080602d84883c6080828051810103126103e7576146e39361343f93516040840151918760806060870151966146d9886107fa565b01519516936138bd565b91161490565b5050505f90565b7f7fffffffffffffffffffffffffffffff5d576e7357a4501ddfe92f46681b20a08411614760576020935f9360ff60809460405194855216868401526040830152606082015282805260015afa15611f89575f516001600160a01b0381161561475857905f90565b505f90600190565b505050505f90600390565b337f00000000000000000000000000000000000000000000000000000000000000006001600160a01b031614806147ba575b156147b457601319360190368211613327575f9190565b5f903690565b50601436101561479d565b9192901561482757508151156147d9575090565b3b156147e25790565b60405162461bcd60e51b815260206004820152601d60248201527f416464726573733a2063616c6c20746f206e6f6e2d636f6e74726163740000006044820152606490fd5b82519091501561483a5750805190602001fd5b60405162461bcd60e51b8152908190610d49906004830161071956fe036b6384b5eca791c62761152d0c79bb0604c104a5fb6f4eb0703f3154bb3db0360894a13ba1a3210667c828492db98dca3e2076cc3735a920a3ca505d382bbcf652222313e28459528d920b65115c16c04f3efc82aaedc97be59f3f377c0d3fa164736f6c6343000819000a","linkReferences":{}},"methodIdentifiers":{"ASSESSMENT_RESOLVER()":"3a208f95","WORK_APPROVAL_RESOLVER()":"bcc5cf88","addGardenOperator(address)":"eed9df74","addGardener(address)":"eaff6dc9","bannerImage()":"94def29d","communityToken()":"29aa1617","description()":"7284e416","entryPoint()":"b0d691fe","erc6551Registry()":"056d5afe","execute(address,uint256,bytes,uint8)":"51945447","executeBatch((address,uint256,bytes,uint8)[])":"43629a73","executeNested(address,uint256,bytes,uint8,(bytes32,address,uint256)[])":"1fb1ecf0","extcall(address,uint256,bytes)":"b709467c","extcreate(uint256,bytes)":"45a24e3e","extcreate2(uint256,bytes32,bytes)":"34715fb1","extsload(bytes32)":"1e2eaeaf","gapProjectUID()":"f7fc57b0","gardenOperators(address)":"7597bc7c","gardeners(address)":"1f6e45e3","getGAPProjectUID()":"f89b9b93","getNonce()":"d087d288","initialize((address,string,string,string,string,string,bool,address[],address[]))":"59ec3801","isCommunity(address)":"993fa20b","isEvaluator(address)":"1b561cf9","isFunder(address)":"1ea48870","isGardener(address)":"0959f6a8","isLocked()":"a4e2d634","isOperator(address)":"6d70f7ae","isOwner(address)":"2f54bf6e","isTrustedForwarder(address)":"572b6c05","isValidSignature(bytes32,bytes)":"1626ba7e","isValidSigner(address,bytes)":"523e3260","joinGarden()":"b10006a6","location()":"516f279e","lock(uint256)":"dd467064","lockedUntil()":"ce0617ec","metadata()":"392f37e9","name()":"06fdde03","onERC1155BatchReceived(address,address,uint256[],uint256[],bytes)":"bc197c81","onERC1155Received(address,address,uint256,uint256,bytes)":"f23a6e61","onERC721Received(address,address,uint256,bytes)":"150b7a02","openJoining()":"291d0548","overrides(address,bytes4)":"ee9c6054","owner()":"8da5cb5b","permissions(address,address)":"1f9838b5","proxiableUUID()":"52d1902d","removeGardenOperator(address)":"adbce85e","removeGardener(address)":"eeb97057","setOpenJoining(bool)":"98b7a25a","setOverrides(bytes4[],address[])":"7a8f7356","setPermissions(address[],bool[])":"039721b1","state()":"c19d93fb","supportsInterface(bytes4)":"01ffc9a7","token()":"fc0c546a","updateDescription(string)":"e735b48a","updateName(string)":"84da92a7","upgradeTo(address)":"3659cfe6","upgradeToAndCall(address,bytes)":"4f1ef286","validateUserOp((address,uint256,bytes,bytes,uint256,uint256,uint256,uint256,uint256,bytes,bytes),bytes32,uint256)":"3a871cdd"},"id":119}