{"abi":[{"type":"constructor","inputs":[{"name":"erc4337EntryPoint","type":"address","internalType":"address"},{"name":"multicallForwarder","type":"address","internalType":"address"},{"name":"erc6551Registry","type":"address","internalType":"address"},{"name":"guardian","type":"address","internalType":"address"},{"name":"workApprovalResolver","type":"address","internalType":"address"},{"name":"assessmentResolver","type":"address","internalType":"address"}],"stateMutability":"nonpayable"},{"type":"fallback","stateMutability":"payable"},{"type":"receive","stateMutability":"payable"},{"type":"function","name":"ASSESSMENT_RESOLVER","inputs":[],"outputs":[{"name":"","type":"address","internalType":"address"}],"stateMutability":"view"},{"type":"function","name":"MAX_NAME_LENGTH","inputs":[],"outputs":[{"name":"","type":"uint256","internalType":"uint256"}],"stateMutability":"view"},{"type":"function","name":"WORK_APPROVAL_RESOLVER","inputs":[],"outputs":[{"name":"","type":"address","internalType":"address"}],"stateMutability":"view"},{"type":"function","name":"bannerImage","inputs":[],"outputs":[{"name":"","type":"string","internalType":"string"}],"stateMutability":"view"},{"type":"function","name":"communityToken","inputs":[],"outputs":[{"name":"","type":"address","internalType":"address"}],"stateMutability":"view"},{"type":"function","name":"description","inputs":[],"outputs":[{"name":"","type":"string","internalType":"string"}],"stateMutability":"view"},{"type":"function","name":"entryPoint","inputs":[],"outputs":[{"name":"","type":"address","internalType":"contract IEntryPoint"}],"stateMutability":"view"},{"type":"function","name":"erc6551Registry","inputs":[],"outputs":[{"name":"","type":"address","internalType":"address"}],"stateMutability":"view"},{"type":"function","name":"execute","inputs":[{"name":"to","type":"address","internalType":"address"},{"name":"value","type":"uint256","internalType":"uint256"},{"name":"data","type":"bytes","internalType":"bytes"},{"name":"operation","type":"uint8","internalType":"uint8"}],"outputs":[{"name":"","type":"bytes","internalType":"bytes"}],"stateMutability":"payable"},{"type":"function","name":"executeAutoStake","inputs":[{"name":"goodsToken_","type":"address","internalType":"address"},{"name":"community","type":"address","internalType":"address"},{"name":"stakeAmount","type":"uint256","internalType":"uint256"},{"name":"member","type":"address","internalType":"address"}],"outputs":[],"stateMutability":"nonpayable"},{"type":"function","name":"executeBatch","inputs":[{"name":"operations","type":"tuple[]","internalType":"struct BatchExecutor.Operation[]","components":[{"name":"to","type":"address","internalType":"address"},{"name":"value","type":"uint256","internalType":"uint256"},{"name":"data","type":"bytes","internalType":"bytes"},{"name":"operation","type":"uint8","internalType":"uint8"}]}],"outputs":[{"name":"","type":"bytes[]","internalType":"bytes[]"}],"stateMutability":"payable"},{"type":"function","name":"executeNested","inputs":[{"name":"to","type":"address","internalType":"address"},{"name":"value","type":"uint256","internalType":"uint256"},{"name":"data","type":"bytes","internalType":"bytes"},{"name":"operation","type":"uint8","internalType":"uint8"},{"name":"proof","type":"tuple[]","internalType":"struct NestedAccountExecutor.ERC6551AccountInfo[]","components":[{"name":"salt","type":"bytes32","internalType":"bytes32"},{"name":"tokenContract","type":"address","internalType":"address"},{"name":"tokenId","type":"uint256","internalType":"uint256"}]}],"outputs":[{"name":"","type":"bytes","internalType":"bytes"}],"stateMutability":"payable"},{"type":"function","name":"extcall","inputs":[{"name":"to","type":"address","internalType":"address"},{"name":"value","type":"uint256","internalType":"uint256"},{"name":"data","type":"bytes","internalType":"bytes"}],"outputs":[{"name":"result","type":"bytes","internalType":"bytes"}],"stateMutability":"nonpayable"},{"type":"function","name":"extcreate","inputs":[{"name":"value","type":"uint256","internalType":"uint256"},{"name":"bytecode","type":"bytes","internalType":"bytes"}],"outputs":[{"name":"","type":"address","internalType":"address"}],"stateMutability":"nonpayable"},{"type":"function","name":"extcreate2","inputs":[{"name":"value","type":"uint256","internalType":"uint256"},{"name":"salt","type":"bytes32","internalType":"bytes32"},{"name":"bytecode","type":"bytes","internalType":"bytes"}],"outputs":[{"name":"","type":"address","internalType":"address"}],"stateMutability":"nonpayable"},{"type":"function","name":"extsload","inputs":[{"name":"slot","type":"bytes32","internalType":"bytes32"}],"outputs":[{"name":"value","type":"bytes32","internalType":"bytes32"}],"stateMutability":"view"},{"type":"function","name":"gapProjectUID","inputs":[],"outputs":[{"name":"","type":"bytes32","internalType":"bytes32"}],"stateMutability":"view"},{"type":"function","name":"gardenMemberCount","inputs":[],"outputs":[{"name":"","type":"uint256","internalType":"uint256"}],"stateMutability":"view"},{"type":"function","name":"getGAPProjectUID","inputs":[],"outputs":[{"name":"","type":"bytes32","internalType":"bytes32"}],"stateMutability":"view"},{"type":"function","name":"getNonce","inputs":[],"outputs":[{"name":"","type":"uint256","internalType":"uint256"}],"stateMutability":"view"},{"type":"function","name":"initialize","inputs":[{"name":"params","type":"tuple","internalType":"struct IGardenAccount.InitParams","components":[{"name":"communityToken","type":"address","internalType":"address"},{"name":"name","type":"string","internalType":"string"},{"name":"slug","type":"string","internalType":"string"},{"name":"description","type":"string","internalType":"string"},{"name":"location","type":"string","internalType":"string"},{"name":"bannerImage","type":"string","internalType":"string"},{"name":"metadata","type":"string","internalType":"string"},{"name":"openJoining","type":"bool","internalType":"bool"}]}],"outputs":[],"stateMutability":"nonpayable"},{"type":"function","name":"isCommunity","inputs":[{"name":"account","type":"address","internalType":"address"}],"outputs":[{"name":"","type":"bool","internalType":"bool"}],"stateMutability":"view"},{"type":"function","name":"isEvaluator","inputs":[{"name":"account","type":"address","internalType":"address"}],"outputs":[{"name":"","type":"bool","internalType":"bool"}],"stateMutability":"view"},{"type":"function","name":"isFunder","inputs":[{"name":"account","type":"address","internalType":"address"}],"outputs":[{"name":"","type":"bool","internalType":"bool"}],"stateMutability":"view"},{"type":"function","name":"isGardener","inputs":[{"name":"account","type":"address","internalType":"address"}],"outputs":[{"name":"","type":"bool","internalType":"bool"}],"stateMutability":"view"},{"type":"function","name":"isLocked","inputs":[],"outputs":[{"name":"","type":"bool","internalType":"bool"}],"stateMutability":"view"},{"type":"function","name":"isOperator","inputs":[{"name":"account","type":"address","internalType":"address"}],"outputs":[{"name":"","type":"bool","internalType":"bool"}],"stateMutability":"view"},{"type":"function","name":"isOwner","inputs":[{"name":"account","type":"address","internalType":"address"}],"outputs":[{"name":"","type":"bool","internalType":"bool"}],"stateMutability":"view"},{"type":"function","name":"isTrustedForwarder","inputs":[{"name":"forwarder","type":"address","internalType":"address"}],"outputs":[{"name":"","type":"bool","internalType":"bool"}],"stateMutability":"view"},{"type":"function","name":"isValidSignature","inputs":[{"name":"hash","type":"bytes32","internalType":"bytes32"},{"name":"signature","type":"bytes","internalType":"bytes"}],"outputs":[{"name":"magicValue","type":"bytes4","internalType":"bytes4"}],"stateMutability":"view"},{"type":"function","name":"isValidSigner","inputs":[{"name":"signer","type":"address","internalType":"address"},{"name":"data","type":"bytes","internalType":"bytes"}],"outputs":[{"name":"magicValue","type":"bytes4","internalType":"bytes4"}],"stateMutability":"view"},{"type":"function","name":"joinGarden","inputs":[],"outputs":[],"stateMutability":"nonpayable"},{"type":"function","name":"location","inputs":[],"outputs":[{"name":"","type":"string","internalType":"string"}],"stateMutability":"view"},{"type":"function","name":"lock","inputs":[{"name":"_lockedUntil","type":"uint256","internalType":"uint256"}],"outputs":[],"stateMutability":"nonpayable"},{"type":"function","name":"lockedUntil","inputs":[],"outputs":[{"name":"","type":"uint256","internalType":"uint256"}],"stateMutability":"view"},{"type":"function","name":"maxGardeners","inputs":[],"outputs":[{"name":"","type":"uint256","internalType":"uint256"}],"stateMutability":"view"},{"type":"function","name":"metadata","inputs":[],"outputs":[{"name":"","type":"string","internalType":"string"}],"stateMutability":"view"},{"type":"function","name":"name","inputs":[],"outputs":[{"name":"","type":"string","internalType":"string"}],"stateMutability":"view"},{"type":"function","name":"onERC1155BatchReceived","inputs":[{"name":"","type":"address","internalType":"address"},{"name":"","type":"address","internalType":"address"},{"name":"","type":"uint256[]","internalType":"uint256[]"},{"name":"","type":"uint256[]","internalType":"uint256[]"},{"name":"","type":"bytes","internalType":"bytes"}],"outputs":[{"name":"","type":"bytes4","internalType":"bytes4"}],"stateMutability":"nonpayable"},{"type":"function","name":"onERC1155Received","inputs":[{"name":"","type":"address","internalType":"address"},{"name":"","type":"address","internalType":"address"},{"name":"","type":"uint256","internalType":"uint256"},{"name":"","type":"uint256","internalType":"uint256"},{"name":"","type":"bytes","internalType":"bytes"}],"outputs":[{"name":"","type":"bytes4","internalType":"bytes4"}],"stateMutability":"nonpayable"},{"type":"function","name":"onERC721Received","inputs":[{"name":"","type":"address","internalType":"address"},{"name":"","type":"address","internalType":"address"},{"name":"tokenId","type":"uint256","internalType":"uint256"},{"name":"","type":"bytes","internalType":"bytes"}],"outputs":[{"name":"","type":"bytes4","internalType":"bytes4"}],"stateMutability":"nonpayable"},{"type":"function","name":"openJoining","inputs":[],"outputs":[{"name":"","type":"bool","internalType":"bool"}],"stateMutability":"view"},{"type":"function","name":"overrides","inputs":[{"name":"","type":"address","internalType":"address"},{"name":"","type":"bytes4","internalType":"bytes4"}],"outputs":[{"name":"","type":"address","internalType":"address"}],"stateMutability":"view"},{"type":"function","name":"owner","inputs":[],"outputs":[{"name":"","type":"address","internalType":"address"}],"stateMutability":"view"},{"type":"function","name":"permissions","inputs":[{"name":"","type":"address","internalType":"address"},{"name":"","type":"address","internalType":"address"}],"outputs":[{"name":"","type":"bool","internalType":"bool"}],"stateMutability":"view"},{"type":"function","name":"proxiableUUID","inputs":[],"outputs":[{"name":"","type":"bytes32","internalType":"bytes32"}],"stateMutability":"view"},{"type":"function","name":"setMaxGardeners","inputs":[{"name":"_max","type":"uint256","internalType":"uint256"}],"outputs":[],"stateMutability":"nonpayable"},{"type":"function","name":"setOpenJoining","inputs":[{"name":"_openJoining","type":"bool","internalType":"bool"}],"outputs":[],"stateMutability":"nonpayable"},{"type":"function","name":"setOverrides","inputs":[{"name":"selectors","type":"bytes4[]","internalType":"bytes4[]"},{"name":"implementations","type":"address[]","internalType":"address[]"}],"outputs":[],"stateMutability":"nonpayable"},{"type":"function","name":"setPermissions","inputs":[{"name":"callers","type":"address[]","internalType":"address[]"},{"name":"_permissions","type":"bool[]","internalType":"bool[]"}],"outputs":[],"stateMutability":"nonpayable"},{"type":"function","name":"slug","inputs":[],"outputs":[{"name":"","type":"string","internalType":"string"}],"stateMutability":"view"},{"type":"function","name":"state","inputs":[],"outputs":[{"name":"","type":"uint256","internalType":"uint256"}],"stateMutability":"view"},{"type":"function","name":"supportsInterface","inputs":[{"name":"interfaceId","type":"bytes4","internalType":"bytes4"}],"outputs":[{"name":"","type":"bool","internalType":"bool"}],"stateMutability":"view"},{"type":"function","name":"token","inputs":[],"outputs":[{"name":"chainId","type":"uint256","internalType":"uint256"},{"name":"tokenContract","type":"address","internalType":"address"},{"name":"tokenId","type":"uint256","internalType":"uint256"}],"stateMutability":"view"},{"type":"function","name":"updateBannerImage","inputs":[{"name":"_bannerImage","type":"string","internalType":"string"}],"outputs":[],"stateMutability":"nonpayable"},{"type":"function","name":"updateDescription","inputs":[{"name":"_description","type":"string","internalType":"string"}],"outputs":[],"stateMutability":"nonpayable"},{"type":"function","name":"updateLocation","inputs":[{"name":"_location","type":"string","internalType":"string"}],"outputs":[],"stateMutability":"nonpayable"},{"type":"function","name":"updateMetadata","inputs":[{"name":"_metadata","type":"string","internalType":"string"}],"outputs":[],"stateMutability":"nonpayable"},{"type":"function","name":"updateName","inputs":[{"name":"_name","type":"string","internalType":"string"}],"outputs":[],"stateMutability":"nonpayable"},{"type":"function","name":"upgradeTo","inputs":[{"name":"newImplementation","type":"address","internalType":"address"}],"outputs":[],"stateMutability":"nonpayable"},{"type":"function","name":"upgradeToAndCall","inputs":[{"name":"newImplementation","type":"address","internalType":"address"},{"name":"data","type":"bytes","internalType":"bytes"}],"outputs":[],"stateMutability":"payable"},{"type":"function","name":"validateUserOp","inputs":[{"name":"userOp","type":"tuple","internalType":"struct UserOperation","components":[{"name":"sender","type":"address","internalType":"address"},{"name":"nonce","type":"uint256","internalType":"uint256"},{"name":"initCode","type":"bytes","internalType":"bytes"},{"name":"callData","type":"bytes","internalType":"bytes"},{"name":"callGasLimit","type":"uint256","internalType":"uint256"},{"name":"verificationGasLimit","type":"uint256","internalType":"uint256"},{"name":"preVerificationGas","type":"uint256","internalType":"uint256"},{"name":"maxFeePerGas","type":"uint256","internalType":"uint256"},{"name":"maxPriorityFeePerGas","type":"uint256","internalType":"uint256"},{"name":"paymasterAndData","type":"bytes","internalType":"bytes"},{"name":"signature","type":"bytes","internalType":"bytes"}]},{"name":"userOpHash","type":"bytes32","internalType":"bytes32"},{"name":"missingAccountFunds","type":"uint256","internalType":"uint256"}],"outputs":[{"name":"validationData","type":"uint256","internalType":"uint256"}],"stateMutability":"nonpayable"},{"type":"event","name":"AdminChanged","inputs":[{"name":"previousAdmin","type":"address","indexed":false,"internalType":"address"},{"name":"newAdmin","type":"address","indexed":false,"internalType":"address"}],"anonymous":false},{"type":"event","name":"BannerImageUpdated","inputs":[{"name":"updater","type":"address","indexed":true,"internalType":"address"},{"name":"newBannerImage","type":"string","indexed":false,"internalType":"string"}],"anonymous":false},{"type":"event","name":"BeaconUpgraded","inputs":[{"name":"beacon","type":"address","indexed":true,"internalType":"address"}],"anonymous":false},{"type":"event","name":"CommunityTokenUpdated","inputs":[{"name":"updater","type":"address","indexed":true,"internalType":"address"},{"name":"newToken","type":"address","indexed":false,"internalType":"address"}],"anonymous":false},{"type":"event","name":"DescriptionUpdated","inputs":[{"name":"updater","type":"address","indexed":true,"internalType":"address"},{"name":"newDescription","type":"string","indexed":false,"internalType":"string"}],"anonymous":false},{"type":"event","name":"Initialized","inputs":[{"name":"version","type":"uint8","indexed":false,"internalType":"uint8"}],"anonymous":false},{"type":"event","name":"LocationUpdated","inputs":[{"name":"updater","type":"address","indexed":true,"internalType":"address"},{"name":"newLocation","type":"string","indexed":false,"internalType":"string"}],"anonymous":false},{"type":"event","name":"LockUpdated","inputs":[{"name":"lockedUntil","type":"uint256","indexed":false,"internalType":"uint256"}],"anonymous":false},{"type":"event","name":"MemberAutoRegistered","inputs":[{"name":"member","type":"address","indexed":true,"internalType":"address"},{"name":"community","type":"address","indexed":true,"internalType":"address"}],"anonymous":false},{"type":"event","name":"MetadataUpdated","inputs":[{"name":"updater","type":"address","indexed":true,"internalType":"address"},{"name":"newMetadata","type":"string","indexed":false,"internalType":"string"}],"anonymous":false},{"type":"event","name":"NameUpdated","inputs":[{"name":"updater","type":"address","indexed":true,"internalType":"address"},{"name":"newName","type":"string","indexed":false,"internalType":"string"}],"anonymous":false},{"type":"event","name":"OpenJoiningUpdated","inputs":[{"name":"updater","type":"address","indexed":true,"internalType":"address"},{"name":"openJoining","type":"bool","indexed":false,"internalType":"bool"}],"anonymous":false},{"type":"event","name":"OverrideUpdated","inputs":[{"name":"owner","type":"address","indexed":false,"internalType":"address"},{"name":"selector","type":"bytes4","indexed":false,"internalType":"bytes4"},{"name":"implementation","type":"address","indexed":false,"internalType":"address"}],"anonymous":false},{"type":"event","name":"PermissionUpdated","inputs":[{"name":"owner","type":"address","indexed":false,"internalType":"address"},{"name":"caller","type":"address","indexed":false,"internalType":"address"},{"name":"hasPermission","type":"bool","indexed":false,"internalType":"bool"}],"anonymous":false},{"type":"event","name":"Upgraded","inputs":[{"name":"implementation","type":"address","indexed":true,"internalType":"address"}],"anonymous":false},{"type":"error","name":"AccountLocked","inputs":[]},{"type":"error","name":"AlreadyGardener","inputs":[]},{"type":"error","name":"ContractCreationFailed","inputs":[]},{"type":"error","name":"ExceedsMaxLockTime","inputs":[]},{"type":"error","name":"GardenFull","inputs":[]},{"type":"error","name":"HatsModuleNotAvailable","inputs":[]},{"type":"error","name":"InvalidAccountProof","inputs":[]},{"type":"error","name":"InvalidERC6551Registry","inputs":[]},{"type":"error","name":"InvalidEntryPoint","inputs":[]},{"type":"error","name":"InvalidImplementation","inputs":[]},{"type":"error","name":"InvalidInput","inputs":[]},{"type":"error","name":"InvalidInvite","inputs":[]},{"type":"error","name":"InvalidMulticallForwarder","inputs":[]},{"type":"error","name":"InvalidOperation","inputs":[]},{"type":"error","name":"NameTooLong","inputs":[]},{"type":"error","name":"NotAuthorized","inputs":[]},{"type":"error","name":"NotGardenOperator","inputs":[]},{"type":"error","name":"NotGardenOwner","inputs":[]},{"type":"error","name":"OwnershipCycle","inputs":[]}],"bytecode":{"object":"0x6101806040523060a08190526101205234801561001a575f5ffd5b50604051615686380380615686833981016040819052610039916101e0565b858585858383838382828181876001600160a01b03811661006d57604051632039d3c960e01b815260040160405180910390fd5b6001600160a01b039081166080528116610099576040516246a29560e81b815260040160405180910390fd5b6001600160a01b0390811660c05290811660e05282166100cc5760405163754c753360e11b815260040160405180910390fd5b50506001600160a01b039081166101005289811661014052881661016052506100fb9550506101069350505050565b505050505050610250565b600454610100900460ff16156101725760405162461bcd60e51b815260206004820152602760248201527f496e697469616c697a61626c653a20636f6e747261637420697320696e697469604482015266616c697a696e6760c81b606482015260840160405180910390fd5b60045460ff908116146101c3576004805460ff191660ff9081179091556040519081527f7f26b83ff96e1f2b6a682f133852f6798a09c465da95921460cefb38474024989060200160405180910390a15b565b80516001600160a01b03811681146101db575f5ffd5b919050565b5f5f5f5f5f5f60c087890312156101f5575f5ffd5b6101fe876101c5565b955061020c602088016101c5565b945061021a604088016101c5565b9350610228606088016101c5565b9250610236608088016101c5565b915061024460a088016101c5565b90509295509295509295565b60805160a05160c05160e0516101005161012051610140516101605161538e6102f85f395f61069101525f6109d701525f81816114de0152818161151e015281816117b6015281816117f601526119b101525f8181612a230152612e1c01525f611a5801525f818161042b015281816112a0015261381d01525f81816112c101526137fc01525f8181610931015281816120e00152818161296e0152613044015261538e5ff3fe6080604052600436106103b0575f3560e01c80636beb7959116101e6578063b709467c1161010c578063dd4670641161009f578063f23a6e611161006e578063f23a6e6114610ae6578063f7fc57b014610b05578063f89b9b9314610b05578063fc0c546a14610b19576103bf565b8063dd46706414610a4a578063df341c4a14610a69578063e735b48a14610a88578063ee9c605414610aa7576103bf565b8063c19d93fb116100db578063c19d93fb146109f9578063ce0617ec14610a0d578063d087d28814610a21578063d7962d0914610a35576103bf565b8063b709467c14610969578063ba176bbc14610988578063bc197c81146109a7578063bcc5cf88146109c6576103bf565b8063918b5be111610184578063993fa20b11610153578063993fa20b146108ef578063a4e2d6341461090e578063b0d691fe14610923578063b10006a614610955576103bf565b8063918b5be11461087e578063932354c11461089d57806394def29d146108bc57806398b7a25a146108d0576103bf565b80637a8f7356116101c05780637a8f73561461081857806384da92a71461083757806386074985146108565780638da5cb5b1461086a576103bf565b80636beb7959146107d15780636d70f7ae146107e55780637284e41614610804576103bf565b80632f54bf6e116102d657806345a24e3e1161026957806352094e551161023857806352094e5514610760578063523e32601461077f57806352d1902d1461079e578063572b6c05146107b2576103bf565b806345a24e3e146107075780634f1ef28614610726578063516f279e14610739578063519454471461074d576103bf565b80633a208f95116102a55780633a208f95146106805780633a871cdd146106b357806341c6c428146106d257806343629a73146106e7576103bf565b80632f54bf6e1461060f57806334715fb11461062e5780633659cfe61461064d578063392f37e91461066c576103bf565b80631626ba7e1161034e5780631f9838b51161031d5780631f9838b5146105855780631fb1ecf0146105be578063291d0548146105d157806329aa1617146105ea576103bf565b80631626ba7e146104fc5780631b561cf91461051b5780631e2eaeaf1461053a5780631ea4887014610566576103bf565b806306fdde031161038a57806306fdde03146104655780630959f6a8146104865780630bc4241b146104a5578063150b7a02146104c4576103bf565b806301ffc9a7146103c7578063039721b1146103fb578063056d5afe1461041a576103bf565b366103bf576103bd610b50565b005b6103bd610b50565b3480156103d2575f5ffd5b506103e66103e1366004614427565b610c4e565b60405190151581526020015b60405180910390f35b348015610406575f5ffd5b506103bd610415366004614480565b610c7a565b348015610425575f5ffd5b5061044d7f000000000000000000000000000000000000000000000000000000000000000081565b6040516001600160a01b0390911681526020016103f2565b348015610470575f5ffd5b50610479610e58565b6040516103f29190614518565b348015610491575f5ffd5b506103e66104a036600461453e565b610ee4565b3480156104b0575f5ffd5b506103bd6104bf366004614559565b610ef4565b3480156104cf575f5ffd5b506104e36104de36600461464a565b611133565b6040516001600160e01b031990911681526020016103f2565b348015610507575f5ffd5b506104e36105163660046146ee565b6111a4565b348015610526575f5ffd5b506103e661053536600461453e565b6111cd565b348015610545575f5ffd5b50610558610554366004614735565b5490565b6040519081526020016103f2565b348015610571575f5ffd5b506103e661058036600461453e565b6111d7565b348015610590575f5ffd5b506103e661059f36600461474c565b600260209081525f928352604080842090915290825290205460ff1681565b6104796105cc366004614793565b61124c565b3480156105dc575f5ffd5b50600b546103e69060ff1681565b3480156105f5575f5ffd5b5060045461044d906201000090046001600160a01b031681565b34801561061a575f5ffd5b506103e661062936600461453e565b6114ac565b348015610639575f5ffd5b5061044d61064836600461485e565b6114b6565b348015610658575f5ffd5b506103bd61066736600461453e565b6114d4565b348015610677575f5ffd5b506104796115b1565b34801561068b575f5ffd5b5061044d7f000000000000000000000000000000000000000000000000000000000000000081565b3480156106be575f5ffd5b506105586106cd3660046148a0565b6115be565b3480156106dd575f5ffd5b50610558600d5481565b6106fa6106f53660046148ee565b6115dc565b6040516103f2919061492c565b348015610712575f5ffd5b5061044d6107213660046146ee565b611764565b6103bd61073436600461498f565b6117ac565b348015610744575f5ffd5b50610479611877565b61047961075b3660046149db565b611884565b34801561076b575f5ffd5b506103bd61077a366004614a46565b6118cd565b34801561078a575f5ffd5b506104e3610799366004614a8a565b611952565b3480156107a9575f5ffd5b506105586119a5565b3480156107bd575f5ffd5b506103e66107cc36600461453e565b611a56565b3480156107dc575f5ffd5b50610479611a88565b3480156107f0575f5ffd5b506103e66107ff36600461453e565b611a95565b34801561080f575f5ffd5b50610479611a9f565b348015610823575f5ffd5b506103bd610832366004614480565b611aac565b348015610842575f5ffd5b506103bd610851366004614a46565b611cca565b348015610861575f5ffd5b50610558604881565b348015610875575f5ffd5b5061044d611d67565b348015610889575f5ffd5b506103bd610898366004614a46565b611d8c565b3480156108a8575f5ffd5b506103bd6108b7366004614a46565b611e01565b3480156108c7575f5ffd5b50610479611e76565b3480156108db575f5ffd5b506103bd6108ea366004614ace565b611e83565b3480156108fa575f5ffd5b506103e661090936600461453e565b611efd565b348015610919575f5ffd5b505f5442106103e6565b34801561092e575f5ffd5b507f000000000000000000000000000000000000000000000000000000000000000061044d565b348015610960575f5ffd5b506103bd611f33565b348015610974575f5ffd5b50610479610983366004614ae9565b61204b565b348015610993575f5ffd5b506103bd6109a2366004614735565b612095565b3480156109b2575f5ffd5b506104e36109c1366004614b9d565b6120c2565b3480156109d1575f5ffd5b5061044d7f000000000000000000000000000000000000000000000000000000000000000081565b348015610a04575f5ffd5b50600354610558565b348015610a18575f5ffd5b506105585f5481565b348015610a2c575f5ffd5b506105586120dd565b348015610a40575f5ffd5b50610558600c5481565b348015610a55575f5ffd5b506103bd610a64366004614735565b612172565b348015610a74575f5ffd5b506103bd610a83366004614c4d565b612255565b348015610a93575f5ffd5b506103bd610aa2366004614a46565b6122f5565b348015610ab2575f5ffd5b5061044d610ac1366004614c9d565b600160209081525f92835260408084209091529082529020546001600160a01b031681565b348015610af1575f5ffd5b506104e3610b00366004614cd0565b61236a565b348015610b10575f5ffd5b50610558612385565b348015610b24575f5ffd5b50610b2d61238e565b604080519384526001600160a01b039092166020840152908201526060016103f2565b5f5f5f610b5b6123a4565b9250925092505f610b6d8484846123b0565b6001600160a01b038082165f9081526001602090815260408083206001600160e01b03198435168452909152902054919250168015610c47575f610bb0306123cb565b90505f5f826001600160a01b0316845f3633604051602001610bd59493929190614d27565b60408051601f1981840301815290829052610bef91614d7b565b5f604051808303815f865af19150503d805f8114610c28576040519150601f19603f3d011682016040523d82523d5f602084013e610c2d565b606091505b509150915081610c3f57805160208201fd5b805160208201f35b5050505050565b5f5f610c5983612405565b90508015610c6a5750600192915050565b610c72612429565b505f92915050565b5f5f5f610c856123a4565b9250925092505f610c978484846123b0565b90506001600160a01b038116610cc05760405163ea8e4eb560e01b815260040160405180910390fd5b336001600160a01b03821614610ce95760405163ea8e4eb560e01b815260040160405180910390fd5b610cf16124d3565b86858114610d125760405163b4fa3fb360e01b815260040160405180910390fd5b5f5b81811015610e4c57878782818110610d2e57610d2e614d86565b9050602002016020810190610d439190614ace565b6001600160a01b0384165f908152600260205260408120908c8c85818110610d6d57610d6d614d86565b9050602002016020810190610d82919061453e565b6001600160a01b0316815260208101919091526040015f20805460ff19169115159190911790557f394777a58092892d136a90c4bb7e4350c72ac50fba6a0208128677f36527dcf5838b8b84818110610ddd57610ddd614d86565b9050602002016020810190610df2919061453e565b8a8a85818110610e0457610e04614d86565b9050602002016020810190610e199190614ace565b604080516001600160a01b03948516815293909216602084015215159082015260600160405180910390a1600101610d14565b50505050505050505050565b60058054610e6590614d9a565b80601f0160208091040260200160405190810160405280929190818152602001828054610e9190614d9a565b8015610edc5780601f10610eb357610100808354040283529160200191610edc565b820191905f5260205f20905b815481529060010190602001808311610ebf57829003601f168201915b505050505081565b5f610eee826124ff565b92915050565b600454610100900460ff1615808015610f145750600454600160ff909116105b80610f2e5750303b158015610f2e575060045460ff166001145b610f965760405162461bcd60e51b815260206004820152602e60248201527f496e697469616c697a61626c653a20636f6e747261637420697320616c72656160448201526d191e481a5b9a5d1a585b1a5e995960921b60648201526084015b60405180910390fd5b6004805460ff191660011790558015610fb9576004805461ff0019166101001790555b6048610fc86020840184614dd2565b90501115610fe95760405163680b6caf60e01b815260040160405180910390fd5b610ff6602083018361453e565b600480546001600160a01b0392909216620100000262010000600160b01b031990921691909117905561102c6020830183614dd2565b60059161103a919083614e58565b506110486040830183614dd2565b600691611056919083614e58565b506110646060830183614dd2565b600791611072919083614e58565b506110806080830183614dd2565b60089161108e919083614e58565b5061109c60a0830183614dd2565b6009916110aa919083614e58565b506110b860c0830183614dd2565b600a916110c6919083614e58565b506110d8610100830160e08401614ace565b600b805460ff1916911515919091179055801561112f576004805461ff0019169055604051600181527f7f26b83ff96e1f2b6a682f133852f6798a09c465da95921460cefb38474024989060200160405180910390a15b5050565b5f5f5f5f61113f6123a4565b91945092509050336001600160a01b03831614801561115d57508086145b801561116857504683145b156111865760405163b79e3f3f60e01b815260040160405180910390fd5b61118e610b50565b50630a85bd0160e11b925050505b949350505050565b5f6111b084848461265f565b156111c35750630b135d3f60e11b6111c6565b505f5b9392505050565b5f610eee826127df565b5f6111e061281a565b6001600160a01b03166338f8535830846040518363ffffffff1660e01b815260040161120d929190614f11565b602060405180830381865afa158015611228573d5f5f3e3d5ffd5b505050506040513d601f19601f82011682018060405250810190610eee9190614f2b565b6060815f6112586128d9565b9050365f5b838110156114615786868281811061127757611277614d86565b90506060020191505f826020016020810190611293919061453e565b905060408301355f6112ea7f00000000000000000000000000000000000000000000000000000000000000007f000000000000000000000000000000000000000000000000000000000000000087354687876128e2565b9050826001600160a01b03163b5f0361131657604051631052dd2560e21b815260040160405180910390fd5b6001600160a01b0381163b156113a457806001600160a01b031663a4e2d6346040518163ffffffff1660e01b8152600401602060405180830381865afa158015611362573d5f5f3e3d5ffd5b505050506040513d601f19601f820116820180604052508101906113869190614f2b565b156113a457604051636315bfbb60e01b815260040160405180910390fd5b6040516331a9108f60e11b8152600481018390526001600160a01b03841690636352211e90602401602060405180830381865afa925050508015611405575060408051601f3d908101601f1916820190925261140291810190614f46565b60015b61142257604051631052dd2560e21b815260040160405180910390fd5b866001600160a01b0316816001600160a01b03161461145457604051631052dd2560e21b815260040160405180910390fd5b509450505060010161125d565b5061146b8261296b565b6114885760405163ea8e4eb560e01b815260040160405180910390fd5b6114906124d3565b61149d8b8b8b8b8b612b4a565b9b9a5050505050505050505050565b5f610eee82612d1f565b5f6114bf612d55565b6114cb85858585612d8f565b95945050505050565b6001600160a01b037f000000000000000000000000000000000000000000000000000000000000000016300361151c5760405162461bcd60e51b8152600401610f8d90614f61565b7f00000000000000000000000000000000000000000000000000000000000000006001600160a01b03166115645f51602061533b5f395f51905f52546001600160a01b031690565b6001600160a01b03161461158a5760405162461bcd60e51b8152600401610f8d90614fad565b61159381612dfd565b604080515f808252602082019092526115ae91839190612eca565b50565b600a8054610e6590614d9a565b5f6115c7613039565b6115d184846130b1565b90506111c6826130e7565b60606115ee6115e96128d9565b61296b565b61160b5760405163ea8e4eb560e01b815260040160405180910390fd5b6116136124d3565b815f816001600160401b0381111561162d5761162d614590565b60405190808252806020026020018201604052801561166057816020015b606081526020019060019003908161164b5790505b5090505f5b8281101561175b5761173686868381811061168257611682614d86565b90506020028101906116949190614ff9565b6116a290602081019061453e565b8787848181106116b4576116b4614d86565b90506020028101906116c69190614ff9565b602001358888858181106116dc576116dc614d86565b90506020028101906116ee9190614ff9565b6116fc906040810190614dd2565b8a8a8781811061170e5761170e614d86565b90506020028101906117209190614ff9565b611731906080810190606001615017565b612b4a565b82828151811061174857611748614d86565b6020908102919091010152600101611665565b50949350505050565b5f61176d612d55565b61119c8484848080601f0160208091040260200160405190810160405280939291908181526020018383808284375f9201919091525061313092505050565b6001600160a01b037f00000000000000000000000000000000000000000000000000000000000000001630036117f45760405162461bcd60e51b8152600401610f8d90614f61565b7f00000000000000000000000000000000000000000000000000000000000000006001600160a01b031661183c5f51602061533b5f395f51905f52546001600160a01b031690565b6001600160a01b0316146118625760405162461bcd60e51b8152600401610f8d90614fad565b61186b82612dfd565b61112f82826001612eca565b60088054610e6590614d9a565b60606118916115e96128d9565b6118ae5760405163ea8e4eb560e01b815260040160405180910390fd5b6118b66124d3565b6118c38686868686612b4a565b9695505050505050565b6118dd6118d86128d9565b61316c565b6118fa57604051633cebab8560e21b815260040160405180910390fd5b60096119068282615030565b5061190f6128d9565b6001600160a01b03167f7f0cd4337b583a09080a4036ee4935d1069f38152ad2f0750588bb752c66916d826040516119479190614518565b60405180910390a250565b5f6119928484848080601f0160208091040260200160405190810160405280939291908181526020018383808284375f920191909152506131a792505050565b156111c35750630291f19360e51b6111c6565b5f306001600160a01b037f00000000000000000000000000000000000000000000000000000000000000001614611a445760405162461bcd60e51b815260206004820152603860248201527f555550535570677261646561626c653a206d757374206e6f742062652063616c60448201527f6c6564207468726f7567682064656c656761746563616c6c00000000000000006064820152608401610f8d565b505f51602061533b5f395f51905f5290565b7f00000000000000000000000000000000000000000000000000000000000000006001600160a01b0390811691161490565b60068054610e6590614d9a565b5f610eee8261316c565b60078054610e6590614d9a565b5f5f5f611ab76123a4565b9250925092505f611ac98484846123b0565b90506001600160a01b038116611af25760405163ea8e4eb560e01b815260040160405180910390fd5b336001600160a01b03821614611b1b5760405163ea8e4eb560e01b815260040160405180910390fd5b611b236124d3565b5f611b2d306123cb565b9050806001600160a01b03163b5f03611b4957611b4930613250565b87868114611b6a5760405163b4fa3fb360e01b815260040160405180910390fd5b5f5b81811015611cbd57888882818110611b8657611b86614d86565b9050602002016020810190611b9b919061453e565b6001600160a01b0385165f908152600160205260408120908d8d85818110611bc557611bc5614d86565b9050602002016020810190611bda9190614427565b6001600160e01b031916815260208101919091526040015f2080546001600160a01b0319166001600160a01b03929092169190911790557f2c722487e90aca38ec1b074c3403210bd2bfb769b4da7f12f7bf0b9e37517c18848c8c84818110611c4557611c45614d86565b9050602002016020810190611c5a9190614427565b8b8b85818110611c6c57611c6c614d86565b9050602002016020810190611c81919061453e565b604080516001600160a01b0394851681526001600160e01b031993909316602084015292168183015290519081900360600190a1600101611b6c565b5050505050505050505050565b611cda611cd56128d9565b612d1f565b611cf757604051633632b98960e21b815260040160405180910390fd5b604881511115611d1a5760405163680b6caf60e01b815260040160405180910390fd5b6005611d268282615030565b50611d2f6128d9565b6001600160a01b03167f74321da206c1b9fa34367f7ece59ca49371dcd13820b9a5c3767ae1ecceed51a826040516119479190614518565b5f5f5f5f611d736123a4565b925092509250611d84838383613283565b935050505090565b611d976118d86128d9565b611db457604051633cebab8560e21b815260040160405180910390fd5b600a611dc08282615030565b50611dc96128d9565b6001600160a01b03167f2013570c343af8ab14a9778150e381a0fda34ed6368127a95fd5e7210cbec5bf826040516119479190614518565b611e0c6118d86128d9565b611e2957604051633cebab8560e21b815260040160405180910390fd5b6008611e358282615030565b50611e3e6128d9565b6001600160a01b03167f23146a23bca92967799f9c14b4995bb19ca27a6331c8a66f695bc25252815024826040516119479190614518565b60098054610e6590614d9a565b611e8e6118d86128d9565b611eab57604051633cebab8560e21b815260040160405180910390fd5b600b805460ff1916821515179055611ec16128d9565b6001600160a01b03167fa48b25a14599514510fcdca0f35ff4cd42847f5e61698a238f4ee01e2d1c2c6a82604051611947911515815260200190565b5f611f0661281a565b6001600160a01b031663b2acf41d30846040518363ffffffff1660e01b815260040161120d929190614f11565b600b5460ff16611f5657604051636dc9375d60e11b815260040160405180910390fd5b611f66611f616128d9565b6124ff565b15611f845760405163211bad0f60e11b815260040160405180910390fd5b5f611f8d61281a565b90505f600c54118015611fa45750600c54600d5410155b15611fc2576040516302332e7760e21b815260040160405180910390fd5b806001600160a01b0316633868e7e530611fda6128d9565b5f6040518463ffffffff1660e01b8152600401611ff9939291906150fe565b5f604051808303815f87803b158015612010575f5ffd5b505af1158015612022573d5f5f3e3d5ffd5b5050600d8054925090505f61203683615154565b91905055506115ae6120466128d9565b61331d565b6060612055612d55565b6114cb858585858080601f0160208091040260200160405190810160405280939291908181526020018383808284375f920191909152506135e492505050565b6120a06118d86128d9565b6120bd57604051633cebab8560e21b815260040160405180910390fd5b600c55565b5f6120cb610b50565b5063bc197c8160e01b95945050505050565b5f7f0000000000000000000000000000000000000000000000000000000000000000604051631aab3f0d60e11b81523060048201525f60248201526001600160a01b0391909116906335567e1a90604401602060405180830381865afa158015612149573d5f5f3e3d5ffd5b505050506040513d601f19601f8201168201806040525081019061216d919061516c565b905090565b5f5f5f61217d6123a4565b9250925092505f61218f8484846123b0565b90506001600160a01b0381166121b85760405163ea8e4eb560e01b815260040160405180910390fd5b336001600160a01b038216146121e15760405163ea8e4eb560e01b815260040160405180910390fd5b6121ef426301e13380615183565b85111561220f576040516301814f7d60e31b815260040160405180910390fd5b6122176124d3565b5f8590556040518581527fa7b24c66dd3269a292a60b3facdbb8f3e7557d1e19e64d99e0d6ee7250be63ad9060200160405180910390a15050505050565b33301415806122675750600e5460ff16155b1561228557604051633632b98960e21b815260040160405180910390fd5b6122996001600160a01b0385168484613659565b60405163799556e160e11b81526001600160a01b03828116600483015284169063f32aadc2906024015f604051808303815f87803b1580156122d9575f5ffd5b505af11580156122eb573d5f5f3e3d5ffd5b5050505050505050565b6123006118d86128d9565b61231d57604051633cebab8560e21b815260040160405180910390fd5b60076123298282615030565b506123326128d9565b6001600160a01b03167f37cc8c6ced0cbc4d440fcfa810a2f09f40b8f0127c3656103edf26b3d93e0ec1826040516119479190614518565b5f612373610b50565b5063f23a6e6160e01b95945050505050565b5f61216d613712565b5f5f5f6123996123a4565b925092509250909192565b5f5f5f6123993061379f565b5f5f6123bd858585613283565b90506114cb818686866137f3565b5f610eee7f97f795a08410e77dc9dbbaba3915f17c601e45642518dd578bd440d8775bfee46123f9846138bf565b8051906020012061392a565b5f6001600160e01b03198216635194544760e01b1480610eee5750610eee82613936565b5f5f5f6124346123a4565b9250925092505f6124468484846123b0565b6001600160a01b038082165f9081526001602090815260408083206001600160e01b03198435168452909152902054919250168015610c47575f5f826001600160a01b03165f3660405161249b929190615196565b5f60405180830381855afa9150503d805f8114610c28576040519150601f19603f3d011682016040523d82523d5f602084013e610c2d565b5f544210156124f557604051636315bfbb60e01b815260040160405180910390fd5b6124fd61395a565b565b5f5f61250961281a565b6040516311e3579360e31b81529091506001600160a01b03821690638f1abc989061253a9030908790600401614f11565b602060405180830381865afa158015612555573d5f5f3e3d5ffd5b505050506040513d601f19601f820116820180604052508101906125799190614f2b565b806125ec5750604051630e70978b60e21b81526001600160a01b038216906339c25e2c906125ad9030908790600401614f11565b602060405180830381865afa1580156125c8573d5f5f3e3d5ffd5b505050506040513d601f19601f820116820180604052508101906125ec9190614f2b565b806111c6575060405163f582bceb60e01b81526001600160a01b0382169063f582bceb906126209030908790600401614f11565b602060405180830381865afa15801561263b573d5f5f3e3d5ffd5b505050506040513d601f19601f820116820180604052508101906111c69190614f2b565b5f5f8383604081811061267457612674614d86565b919091013560f81c91505f90508181036127545761269560205f86886151a5565b61269e916151cc565b5f1c90506126ba8160405180602001604052805f8152506131a7565b1580156126d057506001600160a01b0381163014155b156126df575f925050506111c6565b365f86866126f16040602083856151a5565b6126fa916151cc565b6127059282906151a5565b91509150612749838984848080601f0160208091040260200160405190810160405280939291908181526020018383808284375f9201919091525061399492505050565b9450505050506111c6565b5f6127948787878080601f0160208091040260200160405190810160405280939291908181526020018383808284375f92019190915250613a7b92505050565b90925090505f8160048111156127ac576127ac6150ea565b146127bc575f93505050506111c6565b6127d48260405180602001604052805f8152506131a7565b979650505050505050565b5f5f6127e961281a565b6040516326ba248f60e21b81529091506001600160a01b03821690639ae8923c9061253a9030908790600401614f11565b5f5f61282461238e565b509150506001600160a01b03811661284f5760405163a9ec899b60e01b815260040160405180910390fd5b5f816001600160a01b031663b4a9c6076040518163ffffffff1660e01b8152600401602060405180830381865afa15801561288c573d5f5f3e3d5ffd5b505050506040513d601f19601f820116820180604052508101906128b09190614f46565b90506001600160a01b038116610eee5760405163a9ec899b60e01b815260040160405180910390fd5b5f61216d613abd565b6040805160b78082018490526001600160a01b038516609783015260778201869052605782018790526e5af43d82803e903d91602b57fd5bf3603783015260288201889052733d60ad80600a3d3981f3363d3d373d3d3d363d736014830152815260d7810190915280516020909101205f9061295f86828a613aeb565b98975050505050505050565b5f7f00000000000000000000000000000000000000000000000000000000000000006001600160a01b0316826001600160a01b0316036129ad57506001919050565b5f5f5f6129b86123a4565b925092509250468314612a9c57306129eb6129d16128d9565b731111000000000000000000000000000000001110190190565b6001600160a01b031603612a0457506001949350505050565b6040516333932be560e11b81526001600160a01b0386811660048301527f0000000000000000000000000000000000000000000000000000000000000000169063672657ca90602401602060405180830381865afa158015612a68573d5f5f3e3d5ffd5b505050506040513d601f19601f82011682018060405250810190612a8c9190614f2b565b15612a9c57506001949350505050565b5f612aa8848484613283565b9050806001600160a01b0316866001600160a01b031603612acf5750600195945050505050565b5f612adc828686866137f3565b9050806001600160a01b0316876001600160a01b031603612b04575060019695505050505050565b6001600160a01b038082165f908152600260209081526040808320938b168352929052205460ff1615612b3e575060019695505050505050565b505f9695505050505050565b606060ff8216612b9b57612b94868686868080601f0160208091040260200160405190810160405280939291908181526020018383808284375f920191909152506135e492505050565b90506114cb565b5f1960ff831601612c02575f612bb0306123cb565b9050806001600160a01b03163b5f03612bcc57612bcc30613250565b612bfa8187898888604051602001612be6939291906151e9565b6040516020818303038152906040526135e4565b9150506114cb565b60011960ff831601612c8657612c4d8585858080601f0160208091040260200160405190810160405280939291908181526020018383808284375f9201919091525061313092505050565b604051602001612c70919060609190911b6001600160601b031916815260140190565b60405160208183030381529060405290506114cb565b60021960ff831601612d06575f612ca060208286886151a5565b612ca9916151cc565b9050365f612cba866020818a6151a5565b91509150612cca88848484612d8f565b604051602001612ced919060609190911b6001600160601b031916815260140190565b60405160208183030381529060405293505050506114cb565b604051631cc6a69960e11b815260040160405180910390fd5b5f612d2861281a565b6001600160a01b031663f582bceb30846040518363ffffffff1660e01b815260040161120d929190614f11565b612d5e306123cb565b6001600160a01b0316336001600160a01b0316146124fd5760405163ea8e4eb560e01b815260040160405180910390fd5b5f5f83838080601f0160208091040260200160405190810160405280939291908181526020018383808284375f9201919091525050825192935087929150506020830188f591506001600160a01b03821661175b5760405163a28c247360e01b815260040160405180910390fd5b604051631506fd4d60e01b81526001600160a01b0382811660048301527f00000000000000000000000000000000000000000000000000000000000000001690631506fd4d90602401602060405180830381865afa158015612e61573d5f5f3e3d5ffd5b505050506040513d601f19601f82011682018060405250810190612e859190614f2b565b612ea25760405163340aafcd60e11b815260040160405180910390fd5b612ead6115e96128d9565b6115ae5760405163ea8e4eb560e01b815260040160405180910390fd5b7f4910fdfa16fed3260ed0e7147f7cc6da11a60208b5b9406d12a635614ffd91435460ff1615612f0257612efd83613b14565b505050565b826001600160a01b03166352d1902d6040518163ffffffff1660e01b8152600401602060405180830381865afa925050508015612f5c575060408051601f3d908101601f19168201909252612f599181019061516c565b60015b612fbf5760405162461bcd60e51b815260206004820152602e60248201527f45524331393637557067726164653a206e657720696d706c656d656e7461746960448201526d6f6e206973206e6f74205555505360901b6064820152608401610f8d565b5f51602061533b5f395f51905f52811461302d5760405162461bcd60e51b815260206004820152602960248201527f45524331393637557067726164653a20756e737570706f727465642070726f786044820152681a58589b195555525160ba1b6064820152608401610f8d565b50612efd838383613baf565b336001600160a01b037f000000000000000000000000000000000000000000000000000000000000000016146124fd5760405162461bcd60e51b815260206004820152601c60248201527f6163636f756e743a206e6f742066726f6d20456e747279506f696e74000000006044820152606401610f8d565b5f6130d26130bf8484613bd3565b6130cd610140860186614dd2565b61265f565b156130de57505f610eee565b50600192915050565b80156115ae576040515f9033905f1990849084818181858888f193505050503d805f8114610c47576040519150601f19603f3d011682016040523d82523d5f602084013e610c47565b80515f9082906020820185f091506001600160a01b0382166131655760405163a28c247360e01b815260040160405180910390fd5b5092915050565b5f5f61317661281a565b604051630e70978b60e21b81529091506001600160a01b038216906339c25e2c906125ad9030908790600401614f11565b5f5f5f5f6131b36123a4565b9250925092505f6131c5848484613283565b9050806001600160a01b0316876001600160a01b0316036131ed576001945050505050610eee565b5f6131fa828686866137f3565b9050806001600160a01b0316886001600160a01b03160361322357600195505050505050610eee565b6001600160a01b038082165f908152600260209081526040808320938c168352929052205460ff1661295f565b61112f5f7f97f795a08410e77dc9dbbaba3915f17c601e45642518dd578bd440d8775bfee461327e846138bf565b613c06565b5f46841461329257505f6111c6565b826001600160a01b03163b5f036132aa57505f6111c6565b6040516331a9108f60e11b8152600481018390526001600160a01b03841690636352211e90602401602060405180830381865afa92505050801561330b575060408051601f3d908101601f1916820190925261330891810190614f46565b60015b61331657505f6111c6565b90506111c6565b5f613326613d08565b90506001600160a01b03811661333a575050565b604051631d973c7360e21b81523060048201525f906001600160a01b0383169063765cf1cc90602401602060405180830381865afa15801561337e573d5f5f3e3d5ffd5b505050506040513d601f19601f820116820180604052508101906133a29190614f46565b90506001600160a01b0381166133b757505050565b5f826001600160a01b0316634bf3ba3f6040518163ffffffff1660e01b8152600401602060405180830381865afa1580156133f4573d5f5f3e3d5ffd5b505050506040513d601f19601f82011682018060405250810190613418919061516c565b9050805f036134275750505050565b5f836001600160a01b0316639b67b4b66040518163ffffffff1660e01b8152600401602060405180830381865afa158015613464573d5f5f3e3d5ffd5b505050506040513d601f19601f820116820180604052508101906134889190614f46565b90506001600160a01b03811661349f575050505050565b6040516370a0823160e01b81523060048201525f906001600160a01b038316906370a0823190602401602060405180830381865afa1580156134e3573d5f5f3e3d5ffd5b505050506040513d601f19601f82011682018060405250810190613507919061516c565b90508281101561351957505050505050565b600e805460ff19166001179055604051636f9a0e2560e11b81526001600160a01b03838116600483015285811660248301526044820185905287166064820152309063df341c4a906084015f604051808303815f87803b15801561357b575f5ffd5b505af192505050801561358c575060015b156135d257836001600160a01b0316866001600160a01b03167f80e20f0983f621b9f0480903a18b77ebc5a265c2d824ebe6b98dde91e811521f60405160405180910390a35b5050600e805460ff1916905550505050565b60605f846001600160a01b031684846040516136009190614d7b565b5f6040518083038185875af1925050503d805f811461363a576040519150601f19603f3d011682016040523d82523d5f602084013e61363f565b606091505b50925090508061365157815160208301fd5b509392505050565b604080516001600160a01b038416602482015260448082018490528251808303909101815260649091019091526020810180516001600160e01b031663095ea7b360e01b1790526136aa8482613d90565b61370c57604080516001600160a01b03851660248201525f6044808301919091528251808303909101815260649091019091526020810180516001600160e01b031663095ea7b360e01b179052613702908590613e2d565b61370c8482613e2d565b50505050565b5f5f61371c613f00565b90506001600160a01b03811661373357505f919050565b60405163a1d4b07f60e01b81523060048201526001600160a01b0382169063a1d4b07f90602401602060405180830381865afa158015613775573d5f5f3e3d5ffd5b505050506040513d601f19601f82011682018060405250810190613799919061516c565b91505090565b604080516060808252608082019092525f91829182918291906020820181803683370190505090506060604d60208301873c808060200190518101906137e5919061520f565b935093509350509193909250565b5f845b613841817f00000000000000000000000000000000000000000000000000000000000000007f0000000000000000000000000000000000000000000000000000000000000000613f7a565b156114cb57806001600160a01b031663fc0c546a6040518163ffffffff1660e01b8152600401606060405180830381865afa158015613882573d5f5f3e3d5ffd5b505050506040513d601f19601f820116820180604052508101906138a6919061520f565b919650945092506138b8858585613283565b90506137f6565b60606040518060400160405280600e81526020016d604380600d600039806000f3fe7360901b815250826040518060600160405280602e815260200161530d602e913960405160200161391493929190615247565b6040516020818303038152906040529050919050565b5f6111c6838330613aeb565b5f6001600160e01b03198216636faff5f160e01b1480610eee5750610eee82614021565b600354613965614055565b6040516020016139779392919061526f565b60408051601f198184030181529190528051602090910120600355565b5f5f5f856001600160a01b0316631626ba7e60e01b86866040516024016139bc9291906152a4565b60408051601f198184030181529181526020820180516001600160e01b03166001600160e01b03199094169390931790925290516139fa9190614d7b565b5f60405180830381855afa9150503d805f8114613a32576040519150601f19603f3d011682016040523d82523d5f602084013e613a37565b606091505b5091509150818015613a4b57506020815110155b80156118c357508051630b135d3f60e11b90613a70908301602090810190840161516c565b149695505050505050565b5f5f8251604103613aaf576020830151604084015160608501515f1a613aa387828585614067565b94509450505050613ab6565b505f905060025b9250929050565b5f613ac733611a56565b8015613ad4575060143610155b15613ae6575060131936013560601c90565b503390565b5f604051836040820152846020820152828152600b8101905060ff815360559020949350505050565b6001600160a01b0381163b613b815760405162461bcd60e51b815260206004820152602d60248201527f455243313936373a206e657720696d706c656d656e746174696f6e206973206e60448201526c1bdd08184818dbdb9d1c9858dd609a1b6064820152608401610f8d565b5f51602061533b5f395f51905f5280546001600160a01b0319166001600160a01b0392909216919091179055565b613bb883614124565b5f82511180613bc45750805b15612efd5761370c8383614163565b7f19457468657265756d205369676e6564204d6573736167653a0a3332000000005f908152601c829052603c81206111c6565b5f83471015613c575760405162461bcd60e51b815260206004820152601d60248201527f437265617465323a20696e73756666696369656e742062616c616e63650000006044820152606401610f8d565b81515f03613ca75760405162461bcd60e51b815260206004820181905260248201527f437265617465323a2062797465636f6465206c656e677468206973207a65726f6044820152606401610f8d565b8282516020840186f590506001600160a01b0381166111c65760405162461bcd60e51b815260206004820152601960248201527f437265617465323a204661696c6564206f6e206465706c6f79000000000000006044820152606401610f8d565b5f5f613d1261238e565b509150506001600160a01b038116613d2b575f91505090565b806001600160a01b03166372a0d6ad6040518163ffffffff1660e01b8152600401602060405180830381865afa925050508015613d85575060408051601f3d908101601f19168201909252613d8291810190614f46565b60015b610eee575f91505090565b5f5f5f846001600160a01b031684604051613dab9190614d7b565b5f604051808303815f865af19150503d805f8114613de4576040519150601f19603f3d011682016040523d82523d5f602084013e613de9565b606091505b5091509150818015613e13575080511580613e13575080806020019051810190613e139190614f2b565b80156114cb5750505050506001600160a01b03163b151590565b5f613e81826040518060400160405280602081526020017f5361666545524332303a206c6f772d6c6576656c2063616c6c206661696c6564815250856001600160a01b03166141889092919063ffffffff16565b905080515f1480613ea1575080806020019051810190613ea19190614f2b565b612efd5760405162461bcd60e51b815260206004820152602a60248201527f5361666545524332303a204552433230206f7065726174696f6e20646964206e6044820152691bdd081cdd58d8d9595960b21b6064820152608401610f8d565b5f5f613f0a61238e565b509150506001600160a01b038116613f23575f91505090565b806001600160a01b0316634026d7626040518163ffffffff1660e01b8152600401602060405180830381865afa925050508015613d85575060408051601f3d908101601f19168201909252613d8291810190614f46565b5f836001600160a01b03163b60ad14613f9457505f6111c6565b5f613f9e85614196565b9050806001600160a01b03163b5f03613fba575f9150506111c6565b836001600160a01b0316816001600160a01b031614613fdc575f9150506111c6565b5f5f5f5f613fe9896141a6565b9350935093509350613fff8786868686866128e2565b6001600160a01b0316896001600160a01b031614955050505050509392505050565b5f6001600160e01b03198216630271189760e51b1480610eee57506301ffc9a760e01b6001600160e01b0319831614610eee565b365f61405f6141fd565b915091509091565b5f807f7fffffffffffffffffffffffffffffff5d576e7357a4501ddfe92f46681b20a083111561409c57505f9050600361411b565b604080515f8082526020820180845289905260ff881692820192909252606081018690526080810185905260019060a0016020604051602081039080840390855afa1580156140ed573d5f5f3e3d5ffd5b5050604051601f1901519150506001600160a01b038116614115575f6001925092505061411b565b91505f90505b94509492505050565b61412d81613b14565b6040516001600160a01b038216907fbc7cd75a20ee27fd9adebab32041f755214dbc6bffa90cc0225b39da2e5c2d3b905f90a250565b60606111c6838360405180606001604052806027815260200161535b6027913961423c565b606061119c84845f856142a6565b5f6014600a600c843c50505f5190565b60408051608080825260a082019092525f9182918291829182916020820181803683370190505090506080602d60208301883c808060200190518101906141ed91906152bc565b9450945094509450509193509193565b365f61420833611a56565b8015614215575060143610155b15614235575f80366142286014826152f9565b9261405f939291906151a5565b5f3661405f565b60605f5f856001600160a01b0316856040516142589190614d7b565b5f60405180830381855af49150503d805f8114614290576040519150601f19603f3d011682016040523d82523d5f602084013e614295565b606091505b50915091506118c38683838761436e565b6060824710156143075760405162461bcd60e51b815260206004820152602660248201527f416464726573733a20696e73756666696369656e742062616c616e636520666f6044820152651c8818d85b1b60d21b6064820152608401610f8d565b5f5f866001600160a01b031685876040516143229190614d7b565b5f6040518083038185875af1925050503d805f811461435c576040519150601f19603f3d011682016040523d82523d5f602084013e614361565b606091505b50915091506127d4878383875b606083156143dc5782515f036143d5576001600160a01b0385163b6143d55760405162461bcd60e51b815260206004820152601d60248201527f416464726573733a2063616c6c20746f206e6f6e2d636f6e74726163740000006044820152606401610f8d565b508161119c565b61119c83838151156143f15781518083602001fd5b8060405162461bcd60e51b8152600401610f8d9190614518565b80356001600160e01b031981168114614422575f5ffd5b919050565b5f60208284031215614437575f5ffd5b6111c68261440b565b5f5f83601f840112614450575f5ffd5b5081356001600160401b03811115614466575f5ffd5b6020830191508360208260051b8501011115613ab6575f5ffd5b5f5f5f5f60408587031215614493575f5ffd5b84356001600160401b038111156144a8575f5ffd5b6144b487828801614440565b90955093505060208501356001600160401b038111156144d2575f5ffd5b6144de87828801614440565b95989497509550505050565b5f81518084528060208401602086015e5f602082860101526020601f19601f83011685010191505092915050565b602081525f6111c660208301846144ea565b6001600160a01b03811681146115ae575f5ffd5b5f6020828403121561454e575f5ffd5b81356111c68161452a565b5f60208284031215614569575f5ffd5b81356001600160401b0381111561457e575f5ffd5b820161010081850312156111c6575f5ffd5b634e487b7160e01b5f52604160045260245ffd5b604051601f8201601f191681016001600160401b03811182821017156145cc576145cc614590565b604052919050565b5f5f6001600160401b038411156145ed576145ed614590565b50601f8301601f1916602001614602816145a4565b915050828152838383011115614616575f5ffd5b828260208301375f602084830101529392505050565b5f82601f83011261463b575f5ffd5b6111c6838335602085016145d4565b5f5f5f5f6080858703121561465d575f5ffd5b84356146688161452a565b935060208501356146788161452a565b92506040850135915060608501356001600160401b03811115614699575f5ffd5b6146a58782880161462c565b91505092959194509250565b5f5f83601f8401126146c1575f5ffd5b5081356001600160401b038111156146d7575f5ffd5b602083019150836020828501011115613ab6575f5ffd5b5f5f5f60408486031215614700575f5ffd5b8335925060208401356001600160401b0381111561471c575f5ffd5b614728868287016146b1565b9497909650939450505050565b5f60208284031215614745575f5ffd5b5035919050565b5f5f6040838503121561475d575f5ffd5b82356147688161452a565b915060208301356147788161452a565b809150509250929050565b803560ff81168114614422575f5ffd5b5f5f5f5f5f5f5f60a0888a0312156147a9575f5ffd5b87356147b48161452a565b96506020880135955060408801356001600160401b038111156147d5575f5ffd5b6147e18a828b016146b1565b90965094506147f4905060608901614783565b925060808801356001600160401b0381111561480e575f5ffd5b8801601f81018a1361481e575f5ffd5b80356001600160401b03811115614833575f5ffd5b8a6020606083028401011115614847575f5ffd5b602082019350809250505092959891949750929550565b5f5f5f5f60608587031215614871575f5ffd5b843593506020850135925060408501356001600160401b03811115614894575f5ffd5b6144de878288016146b1565b5f5f5f606084860312156148b2575f5ffd5b83356001600160401b038111156148c7575f5ffd5b840161016081870312156148d9575f5ffd5b95602085013595506040909401359392505050565b5f5f602083850312156148ff575f5ffd5b82356001600160401b03811115614914575f5ffd5b61492085828601614440565b90969095509350505050565b5f602082016020835280845180835260408501915060408160051b8601019250602086015f5b8281101561498357603f1987860301845261496e8583516144ea565b94506020938401939190910190600101614952565b50929695505050505050565b5f5f604083850312156149a0575f5ffd5b82356149ab8161452a565b915060208301356001600160401b038111156149c5575f5ffd5b6149d18582860161462c565b9150509250929050565b5f5f5f5f5f608086880312156149ef575f5ffd5b85356149fa8161452a565b94506020860135935060408601356001600160401b03811115614a1b575f5ffd5b614a27888289016146b1565b9094509250614a3a905060608701614783565b90509295509295909350565b5f60208284031215614a56575f5ffd5b81356001600160401b03811115614a6b575f5ffd5b8201601f81018413614a7b575f5ffd5b61119c848235602084016145d4565b5f5f5f60408486031215614a9c575f5ffd5b8335614aa78161452a565b925060208401356001600160401b0381111561471c575f5ffd5b80151581146115ae575f5ffd5b5f60208284031215614ade575f5ffd5b81356111c681614ac1565b5f5f5f5f60608587031215614afc575f5ffd5b8435614b078161452a565b93506020850135925060408501356001600160401b03811115614894575f5ffd5b5f82601f830112614b37575f5ffd5b81356001600160401b03811115614b5057614b50614590565b8060051b614b60602082016145a4565b91825260208185018101929081019086841115614b7b575f5ffd5b6020860192505b838310156118c3578235825260209283019290910190614b82565b5f5f5f5f5f60a08688031215614bb1575f5ffd5b8535614bbc8161452a565b94506020860135614bcc8161452a565b935060408601356001600160401b03811115614be6575f5ffd5b614bf288828901614b28565b93505060608601356001600160401b03811115614c0d575f5ffd5b614c1988828901614b28565b92505060808601356001600160401b03811115614c34575f5ffd5b614c408882890161462c565b9150509295509295909350565b5f5f5f5f60808587031215614c60575f5ffd5b8435614c6b8161452a565b93506020850135614c7b8161452a565b9250604085013591506060850135614c928161452a565b939692955090935050565b5f5f60408385031215614cae575f5ffd5b8235614cb98161452a565b9150614cc76020840161440b565b90509250929050565b5f5f5f5f5f60a08688031215614ce4575f5ffd5b8535614cef8161452a565b94506020860135614cff8161452a565b9350604086013592506060860135915060808601356001600160401b03811115614c34575f5ffd5b6001600160601b03198560601b1681528284601483013760609190911b6001600160601b0319166014919092019081019190915260280192915050565b5f81518060208401855e5f93019283525090919050565b5f6111c68284614d64565b634e487b7160e01b5f52603260045260245ffd5b600181811c90821680614dae57607f821691505b602082108103614dcc57634e487b7160e01b5f52602260045260245ffd5b50919050565b5f5f8335601e19843603018112614de7575f5ffd5b8301803591506001600160401b03821115614e00575f5ffd5b602001915036819003821315613ab6575f5ffd5b601f821115612efd57805f5260205f20601f840160051c81016020851015614e395750805b601f840160051c820191505b81811015610c47575f8155600101614e45565b6001600160401b03831115614e6f57614e6f614590565b614e8383614e7d8354614d9a565b83614e14565b5f601f841160018114614eb4575f8515614e9d5750838201355b5f19600387901b1c1916600186901b178355610c47565b5f83815260208120601f198716915b82811015614ee35786850135825560209485019460019092019101614ec3565b5086821015614eff575f1960f88860031b161c19848701351681555b505060018560011b0183555050505050565b6001600160a01b0392831681529116602082015260400190565b5f60208284031215614f3b575f5ffd5b81516111c681614ac1565b5f60208284031215614f56575f5ffd5b81516111c68161452a565b6020808252602c908201527f46756e6374696f6e206d7573742062652063616c6c6564207468726f7567682060408201526b19195b1959d85d1958d85b1b60a21b606082015260800190565b6020808252602c908201527f46756e6374696f6e206d7573742062652063616c6c6564207468726f7567682060408201526b6163746976652070726f787960a01b606082015260800190565b5f8235607e1983360301811261500d575f5ffd5b9190910192915050565b5f60208284031215615027575f5ffd5b6111c682614783565b81516001600160401b0381111561504957615049614590565b61505d816150578454614d9a565b84614e14565b6020601f82116001811461508f575f83156150785750848201515b5f19600385901b1c1916600184901b178455610c47565b5f84815260208120601f198516915b828110156150be578785015182556020948501946001909201910161509e565b50848210156150db57868401515f19600387901b60f8161c191681555b50505050600190811b01905550565b634e487b7160e01b5f52602160045260245ffd5b6001600160a01b03848116825283166020820152606081016006831061513257634e487b7160e01b5f52602160045260245ffd5b826040830152949350505050565b634e487b7160e01b5f52601160045260245ffd5b5f6001820161516557615165615140565b5060010190565b5f6020828403121561517c575f5ffd5b5051919050565b80820180821115610eee57610eee615140565b818382375f9101908152919050565b5f5f858511156151b3575f5ffd5b838611156151bf575f5ffd5b5050820193919092039150565b80356020831015610eee575f19602084900360031b1b1692915050565b6001600160601b03198460601b168152818360148301375f910160140190815292915050565b5f5f5f60608486031215615221575f5ffd5b835160208501519093506152348161452a565b6040949094015192959394509192915050565b5f6152528286614d64565b6001600160601b03198560601b1681526118c36014820185614d64565b83815260406020820152816040820152818360608301375f818301606090810191909152601f909201601f1916010192915050565b828152604060208201525f61119c60408301846144ea565b5f5f5f5f608085870312156152cf575f5ffd5b84516020860151604087015191955093506152e98161452a565b6060959095015193969295505050565b81810381811115610eee57610eee61514056fe3314601d573d3dfd5b363d3d373d3d6014360360143d5160601c5af43d6000803e80603e573d6000fd5b3d6000f3360894a13ba1a3210667c828492db98dca3e2076cc3735a920a3ca505d382bbc416464726573733a206c6f772d6c6576656c2064656c65676174652063616c6c206661696c6564a164736f6c634300081c000a","linkReferences":{}},"methodIdentifiers":{"ASSESSMENT_RESOLVER()":"3a208f95","MAX_NAME_LENGTH()":"86074985","WORK_APPROVAL_RESOLVER()":"bcc5cf88","bannerImage()":"94def29d","communityToken()":"29aa1617","description()":"7284e416","entryPoint()":"b0d691fe","erc6551Registry()":"056d5afe","execute(address,uint256,bytes,uint8)":"51945447","executeAutoStake(address,address,uint256,address)":"df341c4a","executeBatch((address,uint256,bytes,uint8)[])":"43629a73","executeNested(address,uint256,bytes,uint8,(bytes32,address,uint256)[])":"1fb1ecf0","extcall(address,uint256,bytes)":"b709467c","extcreate(uint256,bytes)":"45a24e3e","extcreate2(uint256,bytes32,bytes)":"34715fb1","extsload(bytes32)":"1e2eaeaf","gapProjectUID()":"f7fc57b0","gardenMemberCount()":"41c6c428","getGAPProjectUID()":"f89b9b93","getNonce()":"d087d288","initialize((address,string,string,string,string,string,string,bool))":"0bc4241b","isCommunity(address)":"993fa20b","isEvaluator(address)":"1b561cf9","isFunder(address)":"1ea48870","isGardener(address)":"0959f6a8","isLocked()":"a4e2d634","isOperator(address)":"6d70f7ae","isOwner(address)":"2f54bf6e","isTrustedForwarder(address)":"572b6c05","isValidSignature(bytes32,bytes)":"1626ba7e","isValidSigner(address,bytes)":"523e3260","joinGarden()":"b10006a6","location()":"516f279e","lock(uint256)":"dd467064","lockedUntil()":"ce0617ec","maxGardeners()":"d7962d09","metadata()":"392f37e9","name()":"06fdde03","onERC1155BatchReceived(address,address,uint256[],uint256[],bytes)":"bc197c81","onERC1155Received(address,address,uint256,uint256,bytes)":"f23a6e61","onERC721Received(address,address,uint256,bytes)":"150b7a02","openJoining()":"291d0548","overrides(address,bytes4)":"ee9c6054","owner()":"8da5cb5b","permissions(address,address)":"1f9838b5","proxiableUUID()":"52d1902d","setMaxGardeners(uint256)":"ba176bbc","setOpenJoining(bool)":"98b7a25a","setOverrides(bytes4[],address[])":"7a8f7356","setPermissions(address[],bool[])":"039721b1","slug()":"6beb7959","state()":"c19d93fb","supportsInterface(bytes4)":"01ffc9a7","token()":"fc0c546a","updateBannerImage(string)":"52094e55","updateDescription(string)":"e735b48a","updateLocation(string)":"932354c1","updateMetadata(string)":"918b5be1","updateName(string)":"84da92a7","upgradeTo(address)":"3659cfe6","upgradeToAndCall(address,bytes)":"4f1ef286","validateUserOp((address,uint256,bytes,bytes,uint256,uint256,uint256,uint256,uint256,bytes,bytes),bytes32,uint256)":"3a871cdd"},"id":136}