{"abi":[{"type":"constructor","inputs":[{"name":"gardenAccountImplementation","type":"address","internalType":"address"}],"stateMutability":"nonpayable"},{"type":"function","name":"approve","inputs":[{"name":"to","type":"address","internalType":"address"},{"name":"tokenId","type":"uint256","internalType":"uint256"}],"outputs":[],"stateMutability":"nonpayable"},{"type":"function","name":"balanceOf","inputs":[{"name":"owner","type":"address","internalType":"address"}],"outputs":[{"name":"","type":"uint256","internalType":"uint256"}],"stateMutability":"view"},{"type":"function","name":"batchMintGardens","inputs":[{"name":"configs","type":"tuple[]","internalType":"struct GardenToken.GardenConfig[]","components":[{"name":"communityToken","type":"address","internalType":"address"},{"name":"name","type":"string","internalType":"string"},{"name":"description","type":"string","internalType":"string"},{"name":"location","type":"string","internalType":"string"},{"name":"bannerImage","type":"string","internalType":"string"},{"name":"metadata","type":"string","internalType":"string"},{"name":"openJoining","type":"bool","internalType":"bool"},{"name":"gardeners","type":"address[]","internalType":"address[]"},{"name":"gardenOperators","type":"address[]","internalType":"address[]"}]}],"outputs":[{"name":"gardenAccounts","type":"address[]","internalType":"address[]"}],"stateMutability":"nonpayable"},{"type":"function","name":"deploymentRegistry","inputs":[],"outputs":[{"name":"","type":"address","internalType":"address"}],"stateMutability":"view"},{"type":"function","name":"getApproved","inputs":[{"name":"tokenId","type":"uint256","internalType":"uint256"}],"outputs":[{"name":"","type":"address","internalType":"address"}],"stateMutability":"view"},{"type":"function","name":"initialize","inputs":[{"name":"_multisig","type":"address","internalType":"address"},{"name":"_deploymentRegistry","type":"address","internalType":"address"}],"outputs":[],"stateMutability":"nonpayable"},{"type":"function","name":"isApprovedForAll","inputs":[{"name":"owner","type":"address","internalType":"address"},{"name":"operator","type":"address","internalType":"address"}],"outputs":[{"name":"","type":"bool","internalType":"bool"}],"stateMutability":"view"},{"type":"function","name":"mintGarden","inputs":[{"name":"config","type":"tuple","internalType":"struct GardenToken.GardenConfig","components":[{"name":"communityToken","type":"address","internalType":"address"},{"name":"name","type":"string","internalType":"string"},{"name":"description","type":"string","internalType":"string"},{"name":"location","type":"string","internalType":"string"},{"name":"bannerImage","type":"string","internalType":"string"},{"name":"metadata","type":"string","internalType":"string"},{"name":"openJoining","type":"bool","internalType":"bool"},{"name":"gardeners","type":"address[]","internalType":"address[]"},{"name":"gardenOperators","type":"address[]","internalType":"address[]"}]}],"outputs":[{"name":"","type":"address","internalType":"address"}],"stateMutability":"nonpayable"},{"type":"function","name":"name","inputs":[],"outputs":[{"name":"","type":"string","internalType":"string"}],"stateMutability":"view"},{"type":"function","name":"owner","inputs":[],"outputs":[{"name":"","type":"address","internalType":"address"}],"stateMutability":"view"},{"type":"function","name":"ownerOf","inputs":[{"name":"tokenId","type":"uint256","internalType":"uint256"}],"outputs":[{"name":"","type":"address","internalType":"address"}],"stateMutability":"view"},{"type":"function","name":"proxiableUUID","inputs":[],"outputs":[{"name":"","type":"bytes32","internalType":"bytes32"}],"stateMutability":"view"},{"type":"function","name":"renounceOwnership","inputs":[],"outputs":[],"stateMutability":"nonpayable"},{"type":"function","name":"safeTransferFrom","inputs":[{"name":"from","type":"address","internalType":"address"},{"name":"to","type":"address","internalType":"address"},{"name":"tokenId","type":"uint256","internalType":"uint256"}],"outputs":[],"stateMutability":"nonpayable"},{"type":"function","name":"safeTransferFrom","inputs":[{"name":"from","type":"address","internalType":"address"},{"name":"to","type":"address","internalType":"address"},{"name":"tokenId","type":"uint256","internalType":"uint256"},{"name":"data","type":"bytes","internalType":"bytes"}],"outputs":[],"stateMutability":"nonpayable"},{"type":"function","name":"setApprovalForAll","inputs":[{"name":"operator","type":"address","internalType":"address"},{"name":"approved","type":"bool","internalType":"bool"}],"outputs":[],"stateMutability":"nonpayable"},{"type":"function","name":"setDeploymentRegistry","inputs":[{"name":"_deploymentRegistry","type":"address","internalType":"address"}],"outputs":[],"stateMutability":"nonpayable"},{"type":"function","name":"supportsInterface","inputs":[{"name":"interfaceId","type":"bytes4","internalType":"bytes4"}],"outputs":[{"name":"","type":"bool","internalType":"bool"}],"stateMutability":"view"},{"type":"function","name":"symbol","inputs":[],"outputs":[{"name":"","type":"string","internalType":"string"}],"stateMutability":"view"},{"type":"function","name":"tokenURI","inputs":[{"name":"tokenId","type":"uint256","internalType":"uint256"}],"outputs":[{"name":"","type":"string","internalType":"string"}],"stateMutability":"view"},{"type":"function","name":"transferFrom","inputs":[{"name":"from","type":"address","internalType":"address"},{"name":"to","type":"address","internalType":"address"},{"name":"tokenId","type":"uint256","internalType":"uint256"}],"outputs":[],"stateMutability":"nonpayable"},{"type":"function","name":"transferOwnership","inputs":[{"name":"newOwner","type":"address","internalType":"address"}],"outputs":[],"stateMutability":"nonpayable"},{"type":"function","name":"upgradeTo","inputs":[{"name":"newImplementation","type":"address","internalType":"address"}],"outputs":[],"stateMutability":"nonpayable"},{"type":"function","name":"upgradeToAndCall","inputs":[{"name":"newImplementation","type":"address","internalType":"address"},{"name":"data","type":"bytes","internalType":"bytes"}],"outputs":[],"stateMutability":"payable"},{"type":"event","name":"AdminChanged","inputs":[{"name":"previousAdmin","type":"address","indexed":false,"internalType":"address"},{"name":"newAdmin","type":"address","indexed":false,"internalType":"address"}],"anonymous":false},{"type":"event","name":"Approval","inputs":[{"name":"owner","type":"address","indexed":true,"internalType":"address"},{"name":"approved","type":"address","indexed":true,"internalType":"address"},{"name":"tokenId","type":"uint256","indexed":true,"internalType":"uint256"}],"anonymous":false},{"type":"event","name":"ApprovalForAll","inputs":[{"name":"owner","type":"address","indexed":true,"internalType":"address"},{"name":"operator","type":"address","indexed":true,"internalType":"address"},{"name":"approved","type":"bool","indexed":false,"internalType":"bool"}],"anonymous":false},{"type":"event","name":"BatchGardensMinted","inputs":[{"name":"startTokenId","type":"uint256","indexed":true,"internalType":"uint256"},{"name":"endTokenId","type":"uint256","indexed":true,"internalType":"uint256"},{"name":"minter","type":"address","indexed":true,"internalType":"address"},{"name":"count","type":"uint256","indexed":false,"internalType":"uint256"}],"anonymous":false},{"type":"event","name":"BeaconUpgraded","inputs":[{"name":"beacon","type":"address","indexed":true,"internalType":"address"}],"anonymous":false},{"type":"event","name":"GardenMinted","inputs":[{"name":"tokenId","type":"uint256","indexed":true,"internalType":"uint256"},{"name":"account","type":"address","indexed":true,"internalType":"address"},{"name":"name","type":"string","indexed":false,"internalType":"string"},{"name":"description","type":"string","indexed":false,"internalType":"string"},{"name":"location","type":"string","indexed":false,"internalType":"string"},{"name":"bannerImage","type":"string","indexed":false,"internalType":"string"},{"name":"openJoining","type":"bool","indexed":false,"internalType":"bool"},{"name":"gardeners","type":"address[]","indexed":false,"internalType":"address[]"},{"name":"operators","type":"address[]","indexed":false,"internalType":"address[]"}],"anonymous":false},{"type":"event","name":"Initialized","inputs":[{"name":"version","type":"uint8","indexed":false,"internalType":"uint8"}],"anonymous":false},{"type":"event","name":"OwnershipTransferred","inputs":[{"name":"previousOwner","type":"address","indexed":true,"internalType":"address"},{"name":"newOwner","type":"address","indexed":true,"internalType":"address"}],"anonymous":false},{"type":"event","name":"Transfer","inputs":[{"name":"from","type":"address","indexed":true,"internalType":"address"},{"name":"to","type":"address","indexed":true,"internalType":"address"},{"name":"tokenId","type":"uint256","indexed":true,"internalType":"uint256"}],"anonymous":false},{"type":"event","name":"Upgraded","inputs":[{"name":"implementation","type":"address","indexed":true,"internalType":"address"}],"anonymous":false},{"type":"error","name":"CommunityTokenNotContract","inputs":[]},{"type":"error","name":"DeploymentRegistryNotConfigured","inputs":[]},{"type":"error","name":"InvalidBatchSize","inputs":[]},{"type":"error","name":"InvalidCommunityToken","inputs":[]},{"type":"error","name":"InvalidERC20Token","inputs":[]},{"type":"error","name":"TooManyGardeners","inputs":[]},{"type":"error","name":"TooManyOperators","inputs":[]},{"type":"error","name":"UnauthorizedMinter","inputs":[]}],"bytecode":{"object":"0x60c03461013357601f612c6138819003918201601f19168301916001600160401b038311848410176101375780849260209460405283398101031261013357516001600160a01b0381168103610133573060805260a0525f5460ff8160081c166100de5760ff808216036100a4575b604051612b15908161014c8239608051818181610fe9015281816110d20152611750015260a0518181816103250152610b3e0152f35b60ff90811916175f557f7f26b83ff96e1f2b6a682f133852f6798a09c465da95921460cefb3847402498602060405160ff8152a15f61006e565b60405162461bcd60e51b815260206004820152602760248201527f496e697469616c697a61626c653a20636f6e747261637420697320696e697469604482015266616c697a696e6760c81b6064820152608490fd5b5f80fd5b634e487b7160e01b5f52604160045260245ffdfe610140806040526004361015610013575f80fd5b5f3560e01c90816301ffc9a714611b675750806306fdde0314611adc578063081812fc14611abe578063095ea7b31461194a57806314902ad31461190757806323b872dd146118e35780633659cfe61461172b57806342842e0e146116f9578063485cc955146113135780634f1ef2861461109457806352d1902d14610fd757806360a3c73f14610a6a5780636352211e14610a3a57806370a08231146109a5578063715018a61461094a5780638da5cb5b1461092257806395d89b4114610862578063a22cb46514610798578063b88d4fde14610724578063bf645f26146102a0578063c663109214610278578063c87b56dd1461020a578063e985e9c5146101b85763f2fde38b14610125575f80fd5b346101b45760203660031901126101b45761013e611c10565b6101466122f0565b6001600160a01b038116156101605761015e90612578565b005b60405162461bcd60e51b815260206004820152602660248201527f4f776e61626c653a206e6577206f776e657220697320746865207a65726f206160448201526564647265737360d01b6064820152608490fd5b5f80fd5b346101b45760403660031901126101b4576101d1611c10565b6101d9611c26565b9060018060a01b038091165f52606a60205260405f2091165f52602052602060ff60405f2054166040519015158152f35b346101b45760203660031901126101b4576004355f90815260676020526040902054610240906001600160a01b03161515612287565b5f60405161024d81611cb4565b5261027460405161025d81611cb4565b5f8152604051918291602083526020830190611bd2565b0390f35b346101b4575f3660031901126101b45760ca546040516001600160a01b039091168152602090f35b346101b4576003196020368201126101b4576001600160401b03600435116101b45761012090600435360301126101b4576097546001600160a01b0316330361067d575b6102fa6102f5600435600401611fb8565b6125c0565b60c9545f198114610669576001810160c955610316813361265e565b604051630918575160e11b81527f00000000000000000000000000000000000000000000000000000000000000006001600160a01b031660048201523060248201526044810182905260208160648173__$22345123dcf5f39d8c23eeef107f852197$__5af4801561062d575f608052610638575b5061039e60048035602481019101612044565b9060e05290600435604401600435600401906103b991612044565b6103cb60048035606481019101612044565b9092906103e060048035608481019101612044565b9091906103f160c460043501612076565b906104046004803560e481019101611fcc565b92909161041a6004803561010481019101611fcc565b9690956040519a8b9a8b9a600160a01b60019003608051169f60e05161043f9d6120e6565b037f14bc337f206da7f70397d9e85710d8cfc832cef49209b70d37be108a159794f291a36104706004803501611fb8565b61048260048035602481019101612044565b60c05261049760048035604481019101612044565b906104aa60048035606481019101612044565b906104bd60048035608481019101612044565b906104d06004803560a481019101612044565b92909360043560c4016104e290612076565b956104f56004803560e481019101611fcc565b989099600435610104016004356004019061050f91611fcc565b9c909d60405160a05260a05161052490611c85565b600160a01b600190031660a051523660c05161053f92611d41565b60a05160200152369061055192611d41565b60a05160400152369061056392611d41565b60a05160600152369061057592611d41565b60a05160800152369061058792611d41565b60a05160a00152151560a05160c0015236906105a292612161565b60a05160e0015236906105b492612161565b60a05161010001526080516001600160a01b03163b156101b4576040516359ec380160e01b81525f81806105ed60a051600483016121b7565b03818360018060a01b03608051165af1801561062d5761061e575b6040516080516001600160a01b03168152602090f35b61062790611ca1565b80610608565b6040513d5f823e3d90fd5b6106599060203d602011610662575b6106518183611d05565b810190612025565b6080528161038b565b503d610647565b634e487b7160e01b5f52601160045260245ffd5b60ca546001600160a01b031680156107125760206024916040519283809262a743f760e61b82523360048301525afa5f91816106e1575b506106cb5760405163955c501b60e01b8152600490fd5b6102e45760405163955c501b60e01b8152600490fd5b61070491925060203d60201161070b575b6106fc8183611d05565b810190611f69565b90826106b4565b503d6106f2565b604051631db3a6cb60e11b8152600490fd5b346101b45760803660031901126101b45761073d611c10565b610745611c26565b90606435906044356001600160401b0383116101b45761015e93610770610793943690600401611d77565b9261078361077e8433612348565b611e45565b61078e83838361240c565b61298f565b6127c1565b346101b45760403660031901126101b4576107b1611c10565b602435908115158092036101b4576001600160a01b03169033821461082157335f52606a60205260405f20825f5260205260405f2060ff1981541660ff83161790556040519081527f17307eab39ab6107e8899845ad3d59bd9653f200f220920489ca2b5937696c3160203392a3005b60405162461bcd60e51b815260206004820152601960248201527822a9219b99189d1030b8383937bb32903a379031b0b63632b960391b6044820152606490fd5b346101b4575f3660031901126101b4576040516066545f8261088383611dd1565b91828252602093600190856001821691825f146109025750506001146108c5575b506108b192500383611d05565b610274604051928284938452830190611bd2565b84915060665f52815f20905f915b8583106108ea5750506108b19350820101856108a4565b805483890185015287945086939092019181016108d3565b60ff1916858201526108b195151560051b85010192508791506108a49050565b346101b4575f3660031901126101b4576097546040516001600160a01b039091168152602090f35b346101b4575f3660031901126101b4576109626122f0565b609780546001600160a01b031981169091555f906001600160a01b03167f8be0079c531659141344cd1fd0a4f28419497f9722a3daafe3b4186f6b6457e08280a3005b346101b45760203660031901126101b4576001600160a01b036109c6611c10565b1680156109e3575f526068602052602060405f2054604051908152f35b60405162461bcd60e51b815260206004820152602960248201527f4552433732313a2061646472657373207a65726f206973206e6f7420612076616044820152683634b21037bbb732b960b91b6064820152608490fd5b346101b45760203660031901126101b4576020610a586004356122ce565b6040516001600160a01b039091168152f35b346101b45760203660031901126101b4576001600160401b036004358181116101b457366023820112156101b45780600401359182116101b45760249160248201600592602436918460051b0101116101b4576097546001600160a01b03163303610f52575b81158015610f48575b610f36575f5b828110610eb15750610af082612001565b92610afe6040519485611d05565b828452601f19610b0d84612001565b0136602086013760c95494610b228487612018565b60c9555f73__$22345123dcf5f39d8c23eeef107f852197$__937f0000000000000000000000000000000000000000000000000000000000000000915b868110610bbb5788888860c9545f19810190811161066957610274936040519283527fce282076a1439bd4b653b5657c2ab7abea5a48b4572799f57582e79e357b59f760203394a4604051918291602083526020830190611d95565b610bc5818a612018565b610bd0828985611f81565b610bda823361265e565b604051630918575160e11b81526001600160a01b038616600482015230602482015260448101839052916020836064818c5af492831561062d575f93610e90575b50610c296020830183612044565b90610120529060408301610c3d9084612044565b9085610c4c6060870187612044565b90610c5a6080890189612044565b90610c6760c08b01612076565b610c7460e08c018c611fcc565b939092610c856101008e018e611fcc565b9790966040519b8c9b8c9b600160a01b60019003169f61012051610ca89d6120e6565b037f14bc337f206da7f70397d9e85710d8cfc832cef49209b70d37be108a159794f291a3610cd581611fb8565b90610ce36020820182612044565b9190610cf26040830183612044565b90610d006060850185612044565b90610d0e6080870187612044565b9091610d1d60a0890189612044565b94909560c08a01610d2d90612076565b97610d3b60e08c018c611fcc565b9a909b6101008101610d4c91611fcc565b9d909e6040516101005261010051610d6390611c85565b600160a01b600190031661010051523690610d7d92611d41565b61010051602001523690610d9092611d41565b61010051604001523690610da392611d41565b61010051606001523690610db692611d41565b61010051608001523690610dc992611d41565b6101005160a0015215156101005160c001523690610de692612161565b6101005160e001523690610df992612161565b610100805101526001600160a01b0381163b156101b4576040516359ec380160e01b81525f8180610e3061010051600483016121b7565b0381836001600160a01b0387165af1801561062d57610e81575b508851821015610e6e576001600160a01b031681861b890160200152600101610b5f565b84634e487b7160e01b5f5260326004525ffd5b610e8a90611ca1565b8a610e4a565b610eaa91935060203d602011610662576106518183611d05565b918c610c1b565b610ec76102f5610ec2838686611f81565b611fb8565b610edf610ed5828585611f81565b60e0810190611fcc565b90506064809111610f2457610f03610ef8838686611f81565b610100810190611fcc565b905011610f1257600101610adf565b604051636055dca160e01b8152600490fd5b604051636bd3434560e11b8152600490fd5b604051637862e95960e01b8152600490fd5b50600a8211610ad9565b60ca546001600160a01b031680156107125760206024916040519283809262a743f760e61b82523360048301525afa5f9181610fb6575b50610fa05760405163955c501b60e01b8152600490fd5b610ad05760405163955c501b60e01b8152600490fd5b610fd091925060203d60201161070b576106fc8183611d05565b9086610f89565b346101b4575f3660031901126101b4577f00000000000000000000000000000000000000000000000000000000000000006001600160a01b0316300361102e5760206040515f80516020612ae98339815191528152f35b60405162461bcd60e51b815260206004820152603860248201527f555550535570677261646561626c653a206d757374206e6f742062652063616c6044820152771b1959081d1a1c9bdd59da0819195b1959d85d1958d85b1b60421b6064820152608490fd5b60403660031901126101b4576110a8611c10565b6024356001600160401b0381116101b4576110c7903690600401611d77565b906001600160a01b037f000000000000000000000000000000000000000000000000000000000000000081169061110030831415611ea7565b61111c5f80516020612ae9833981519152928284541614611f08565b6111246122f0565b7f4910fdfa16fed3260ed0e7147f7cc6da11a60208b5b9406d12a635614ffd91435460ff161561115a57505061015e91506127e5565b6040516352d1902d60e01b81526020939291831691908481600481865afa5f91816112e4575b506111e15760405162461bcd60e51b815260048101869052602e60248201527f45524331393637557067726164653a206e657720696d706c656d656e7461746960448201526d6f6e206973206e6f74205555505360901b6064820152608490fd5b0361128d576111ef826127e5565b7fbc7cd75a20ee27fd9adebab32041f755214dbc6bffa90cc0225b39da2e5c2d3b5f80a2825115801590611285575b61122457005b5f8061015e946040519461123786611ccf565b602786527f416464726573733a206c6f772d6c6576656c2064656c65676174652063616c6c81870152660819985a5b195960ca1b604087015281519101845af461127f612874565b91612a4f565b50600161121e565b60405162461bcd60e51b815260048101849052602960248201527f45524331393637557067726164653a20756e737570706f727465642070726f786044820152681a58589b195555525160ba1b6064820152608490fd5b9091508581813d831161130c575b6112fc8183611d05565b810103126101b457519087611180565b503d6112f2565b346101b45760403660031901126101b45761132c611c10565b611334611c26565b905f549160ff8360081c1615908180926116ec575b80156116d5575b1561167957600193828560ff198316175f55611668575b506040519261137584611cea565b601284526020937123b932b2b71023b7b7b2399023b0b93232b760711b85820152604051906113a382611cea565b600382526247474760e81b868301526113cb60ff5f5460081c166113c681612518565b612518565b8051916001600160401b039283811161159957806113ea606554611dd1565b93601f94858111611619575b5089908583116001146115b8575f926115ad575b50505f19600383901b1c191690891b176065555b805192831161159957611432606654611dd1565b828111611555575b50869183116001146114ef5761148a9392915f91836114e4575b50505f19600383901b1c191690871b176066555b61147c60ff5f5460081c166113c681612518565b61148533612578565b612578565b60ca80546001600160a01b0319166001600160a01b03929092169190911790556114b057005b7f7f26b83ff96e1f2b6a682f133852f6798a09c465da95921460cefb38474024989161ff00195f54165f55604051908152a1005b015190508880611454565b92918791601f1982169060665f52885f20915f5b8a82821061153f575050958361148a9710611527575b505050811b01606655611468565b01515f1960f88460031b161c19169055888080611519565b8389015185558c96909401939283019201611503565b60665f52875f208380860160051c8201928a8710611590575b0160051c019089905b82811061158557505061143a565b5f8155018990611577565b9250819261156e565b634e487b7160e01b5f52604160045260245ffd5b015190508a8061140a565b908b9350601f1983169160655f528b5f20925f5b8d82821061160357505084116115eb575b505050811b0160655561141e565b01515f1960f88460031b161c191690558a80806115dd565b8385015186558f979095019493840193016115cc565b90915060655f52895f208580850160051c8201928c861061165f575b918d91869594930160051c01915b8281106116515750506113f6565b5f81558594508d9101611643565b92508192611635565b61ffff1916610101175f5584611367565b60405162461bcd60e51b815260206004820152602e60248201527f496e697469616c697a61626c653a20636f6e747261637420697320616c72656160448201526d191e481a5b9a5d1a585b1a5e995960921b6064820152608490fd5b50303b1580156113505750600160ff851614611350565b50600160ff851610611349565b346101b45761015e61079361170d36611c50565b906040519261171b84611cb4565b5f845261078361077e8433612348565b346101b4576020806003193601126101b457611745611c10565b6001600160a01b03917f0000000000000000000000000000000000000000000000000000000000000000831661177d30821415611ea7565b6117995f80516020612ae9833981519152918583541614611f08565b6117a16122f0565b604051936117ae85611cb4565b5f85527f4910fdfa16fed3260ed0e7147f7cc6da11a60208b5b9406d12a635614ffd91435460ff16156117e85750505061015e91506127e5565b83929316906040516352d1902d60e01b81528481600481865afa5f91816118b4575b5061186b5760405162461bcd60e51b815260048101869052602e60248201527f45524331393637557067726164653a206e657720696d706c656d656e7461746960448201526d6f6e206973206e6f74205555505360901b6064820152608490fd5b0361128d57611879826127e5565b7fbc7cd75a20ee27fd9adebab32041f755214dbc6bffa90cc0225b39da2e5c2d3b5f80a28251158015906118ad5761122457005b505f61121e565b9091508581813d83116118dc575b6118cc8183611d05565b810103126101b45751908761180a565b503d6118c2565b346101b45761015e6118f436611c50565b9161190261077e8433612348565b61240c565b346101b45760203660031901126101b457611920611c10565b6119286122f0565b60ca80546001600160a01b0319166001600160a01b0392909216919091179055005b346101b45760403660031901126101b457611963611c10565b602435906001600160a01b03808061197a856122ce565b16921691808314611a6f57803314908115611a4e575b50156119e3575f83815260696020526040902080546001600160a01b031916831790556119bc836122ce565b167f8c5be1e5ebec7d5bd14f71427d1e84f3dd0314c0f7b2291e5b200ac8c7c3b9255f80a4005b60405162461bcd60e51b815260206004820152603d60248201527f4552433732313a20617070726f76652063616c6c6572206973206e6f7420746f60448201527f6b656e206f776e6572206f7220617070726f76656420666f7220616c6c0000006064820152608490fd5b90505f52606a60205260405f20335f5260205260ff60405f20541684611990565b60405162461bcd60e51b815260206004820152602160248201527f4552433732313a20617070726f76616c20746f2063757272656e74206f776e656044820152603960f91b6064820152608490fd5b346101b45760203660031901126101b4576020610a58600435611e09565b346101b4575f3660031901126101b4576040516065545f82611afd83611dd1565b91828252602093600190856001821691825f14610902575050600114611b2a57506108b192500383611d05565b84915060655f52815f20905f915b858310611b4f5750506108b19350820101856108a4565b80548389018501528794508693909201918101611b38565b346101b45760203660031901126101b4576004359063ffffffff60e01b82168092036101b4576020916380ac58cd60e01b8114908115611bc1575b8115611bb0575b5015158152f35b6301ffc9a760e01b14905083611ba9565b635b5e139f60e01b81149150611ba2565b91908251928382525f5b848110611bfc575050825f602080949584010152601f8019910116010190565b602081830181015184830182015201611bdc565b600435906001600160a01b03821682036101b457565b602435906001600160a01b03821682036101b457565b35906001600160a01b03821682036101b457565b60609060031901126101b4576001600160a01b039060043582811681036101b4579160243590811681036101b4579060443590565b61012081019081106001600160401b0382111761159957604052565b6001600160401b03811161159957604052565b602081019081106001600160401b0382111761159957604052565b606081019081106001600160401b0382111761159957604052565b604081019081106001600160401b0382111761159957604052565b90601f801991011681019081106001600160401b0382111761159957604052565b6001600160401b03811161159957601f01601f191660200190565b929192611d4d82611d26565b91611d5b6040519384611d05565b8294818452818301116101b4578281602093845f960137010152565b9080601f830112156101b457816020611d9293359101611d41565b90565b9081518082526020808093019301915f5b828110611db4575050505090565b83516001600160a01b031685529381019392810192600101611da6565b90600182811c92168015611dff575b6020831014611deb57565b634e487b7160e01b5f52602260045260245ffd5b91607f1691611de0565b5f81815260676020526040902054611e2b906001600160a01b03161515612287565b5f908152606960205260409020546001600160a01b031690565b15611e4c57565b60405162461bcd60e51b815260206004820152602d60248201527f4552433732313a2063616c6c6572206973206e6f7420746f6b656e206f776e6560448201526c1c881bdc88185c1c1c9bdd9959609a1b6064820152608490fd5b15611eae57565b60405162461bcd60e51b815260206004820152602c60248201527f46756e6374696f6e206d7573742062652063616c6c6564207468726f7567682060448201526b19195b1959d85d1958d85b1b60a21b6064820152608490fd5b15611f0f57565b60405162461bcd60e51b815260206004820152602c60248201527f46756e6374696f6e206d7573742062652063616c6c6564207468726f7567682060448201526b6163746976652070726f787960a01b6064820152608490fd5b908160209103126101b4575180151581036101b45790565b9190811015611fa45760051b8101359061011e19813603018212156101b4570190565b634e487b7160e01b5f52603260045260245ffd5b356001600160a01b03811681036101b45790565b903590601e19813603018212156101b457018035906001600160401b0382116101b457602001918160051b360383136101b457565b6001600160401b0381116115995760051b60200190565b9190820180921161066957565b908160209103126101b457516001600160a01b03811681036101b45790565b903590601e19813603018212156101b457018035906001600160401b0382116101b4576020019181360383136101b457565b3580151581036101b45790565b908060209392818452848401375f828201840152601f01601f1916010190565b9190808252602080920192915f5b8281106120bf575050505090565b909192938280600192838060a01b036120d789611c3c565b168152019501939291016120b1565b9b99956121228d611d929f9d99966121539c9b9661211461213e9a966121309860e0865260e0860191612083565b926020818503910152612083565b8d810360408f015291612083565b918a830360608c0152612083565b921515608088015286830360a08801526120a3565b9260c08185039101526120a3565b929161216c82612001565b9161217a6040519384611d05565b829481845260208094019160051b81019283116101b457905b8282106121a05750505050565b8380916121ac84611c3c565b815201910190612193565b602080825282516001600160a01b03168183015282015161012060408301819052611d92939290916121ee90610140830190611bd2565b9161225061223c612228612214604088015196601f199788888303016060890152611bd2565b606088015187878303016080880152611bd2565b6080870151868683030160a0870152611bd2565b60a0860151858583030160c0860152611bd2565b60c0850151151560e084015261227760e08601519161010092868683030184870152611d95565b9401519282850301910152611d95565b1561228e57565b60405162461bcd60e51b8152602060048201526018602482015277115490cdcc8c4e881a5b9d985b1a59081d1bdad95b88125160421b6044820152606490fd5b5f908152606760205260409020546001600160a01b0316611d92811515612287565b6097546001600160a01b0316330361230457565b606460405162461bcd60e51b815260206004820152602060248201527f4f776e61626c653a2063616c6c6572206973206e6f7420746865206f776e65726044820152fd5b906001600160a01b03808061235c846122ce565b1693169183831493841561238f575b508315612379575b50505090565b61238591929350611e09565b16145f8080612373565b9093505f52606a60205260405f20825f5260205260ff60405f205416925f61236b565b156123b957565b60405162461bcd60e51b815260206004820152602560248201527f4552433732313a207472616e736665722066726f6d20696e636f72726563742060448201526437bbb732b960d91b6064820152608490fd5b906124349161241a846122ce565b6001600160a01b03939184169284929091831684146123b2565b169182156124c757816124519161244a866122ce565b16146123b2565b825f52606960205260405f2060018060a01b031990818154169055815f52606860205260405f205f198154019055825f5260405f2060018154019055835f5260676020528260405f20918254161790557fddf252ad1be2c89b69c2b068fc378daa952ba7f163c4a11628f55a4df523b3ef5f80a4565b60405162461bcd60e51b8152602060048201526024808201527f4552433732313a207472616e7366657220746f20746865207a65726f206164646044820152637265737360e01b6064820152608490fd5b1561251f57565b60405162461bcd60e51b815260206004820152602b60248201527f496e697469616c697a61626c653a20636f6e7472616374206973206e6f74206960448201526a6e697469616c697a696e6760a81b6064820152608490fd5b609780546001600160a01b039283166001600160a01b0319821681179092559091167f8be0079c531659141344cd1fd0a4f28419497f9722a3daafe3b4186f6b6457e05f80a3565b6001600160a01b03811690811561264c573b1561263a576020600491604051928380926318160ddd60e01b82525afa908161260f575b5061260d576040516326412d8960e21b8152600490fd5b565b602090813d8311612633575b6126258183611d05565b810103126101b4575f6125f6565b503d61261b565b60405163d0acc0d360e01b8152600490fd5b604051631a747e4f60e31b8152600490fd5b9060405161266b81611cb4565b5f81526001600160a01b03831691821561272a5761260d9381610793946126ae6126a8835f52606760205260018060a01b0360405f205416151590565b15612a03565b5f828152606760205260409020546126d0906001600160a01b031615156126a8565b5f818152606860209081526040808320805460010190558483526067909152812080546001600160a01b031916831790557fddf252ad1be2c89b69c2b068fc378daa952ba7f163c4a11628f55a4df523b3ef8180a46128a3565b606460405162461bcd60e51b815260206004820152602060248201527f4552433732313a206d696e7420746f20746865207a65726f20616464726573736044820152fd5b60809060208152603260208201527f4552433732313a207472616e7366657220746f206e6f6e20455243373231526560408201527131b2b4bb32b91034b6b83632b6b2b73a32b960711b60608201520190565b156127c857565b60405162461bcd60e51b8152806127e16004820161276e565b0390fd5b803b15612819575f80516020612ae983398151915280546001600160a01b0319166001600160a01b03909216919091179055565b60405162461bcd60e51b815260206004820152602d60248201527f455243313936373a206e657720696d706c656d656e746174696f6e206973206e60448201526c1bdd08184818dbdb9d1c9858dd609a1b6064820152608490fd5b3d1561289e573d9061288582611d26565b916128936040519384611d05565b82523d5f602084013e565b606090565b909190803b15612987576128ec6020915f93604051948580948193630a85bd0160e11b998a84523360048501528460248501526044840152608060648401526084830190611bd2565b03926001600160a01b03165af15f9181612942575b506129345761290e612874565b8051908161292f5760405162461bcd60e51b8152806127e16004820161276e565b602001fd5b6001600160e01b0319161490565b9091506020813d60201161297f575b8161295e60209383611d05565b810103126101b457516001600160e01b0319811681036101b457905f612901565b3d9150612951565b505050600190565b92909190823b156129fa576129e1926020925f60018060a01b0360405180978196829584630a85bd0160e11b9c8d86523360048701521660248501526044840152608060648401526084830190611bd2565b0393165af15f918161294257506129345761290e612874565b50505050600190565b15612a0a57565b60405162461bcd60e51b815260206004820152601c60248201527f4552433732313a20746f6b656e20616c7265616479206d696e746564000000006044820152606490fd5b91929015612ab15750815115612a63575090565b3b15612a6c5790565b60405162461bcd60e51b815260206004820152601d60248201527f416464726573733a2063616c6c20746f206e6f6e2d636f6e74726163740000006044820152606490fd5b825190915015612ac45750805190602001fd5b60405162461bcd60e51b8152602060048201529081906127e1906024830190611bd256fe360894a13ba1a3210667c828492db98dca3e2076cc3735a920a3ca505d382bbca164736f6c6343000819000a","linkReferences":{"src/lib/TBA.sol":{"TBALib":[{"start":1203,"length":20},{"start":3188,"length":20}]}}},"methodIdentifiers":{"approve(address,uint256)":"095ea7b3","balanceOf(address)":"70a08231","batchMintGardens((address,string,string,string,string,string,bool,address[],address[])[])":"60a3c73f","deploymentRegistry()":"c6631092","getApproved(uint256)":"081812fc","initialize(address,address)":"485cc955","isApprovedForAll(address,address)":"e985e9c5","mintGarden((address,string,string,string,string,string,bool,address[],address[]))":"bf645f26","name()":"06fdde03","owner()":"8da5cb5b","ownerOf(uint256)":"6352211e","proxiableUUID()":"52d1902d","renounceOwnership()":"715018a6","safeTransferFrom(address,address,uint256)":"42842e0e","safeTransferFrom(address,address,uint256,bytes)":"b88d4fde","setApprovalForAll(address,bool)":"a22cb465","setDeploymentRegistry(address)":"14902ad3","supportsInterface(bytes4)":"01ffc9a7","symbol()":"95d89b41","tokenURI(uint256)":"c87b56dd","transferFrom(address,address,uint256)":"23b872dd","transferOwnership(address)":"f2fde38b","upgradeTo(address)":"3659cfe6","upgradeToAndCall(address,bytes)":"4f1ef286"},"id":154}