{"abi":[{"type":"constructor","inputs":[{"name":"gardenAccountImplementation","type":"address","internalType":"address"}],"stateMutability":"nonpayable"},{"type":"function","name":"approve","inputs":[{"name":"to","type":"address","internalType":"address"},{"name":"tokenId","type":"uint256","internalType":"uint256"}],"outputs":[],"stateMutability":"nonpayable"},{"type":"function","name":"balanceOf","inputs":[{"name":"owner","type":"address","internalType":"address"}],"outputs":[{"name":"","type":"uint256","internalType":"uint256"}],"stateMutability":"view"},{"type":"function","name":"batchMintGardens","inputs":[{"name":"configs","type":"tuple[]","internalType":"struct GardenToken.GardenConfig[]","components":[{"name":"communityToken","type":"address","internalType":"address"},{"name":"name","type":"string","internalType":"string"},{"name":"description","type":"string","internalType":"string"},{"name":"location","type":"string","internalType":"string"},{"name":"bannerImage","type":"string","internalType":"string"},{"name":"metadata","type":"string","internalType":"string"},{"name":"openJoining","type":"bool","internalType":"bool"}]}],"outputs":[{"name":"gardenAccounts","type":"address[]","internalType":"address[]"}],"stateMutability":"nonpayable"},{"type":"function","name":"deploymentRegistry","inputs":[],"outputs":[{"name":"","type":"address","internalType":"address"}],"stateMutability":"view"},{"type":"function","name":"getApproved","inputs":[{"name":"tokenId","type":"uint256","internalType":"uint256"}],"outputs":[{"name":"","type":"address","internalType":"address"}],"stateMutability":"view"},{"type":"function","name":"hatsModule","inputs":[],"outputs":[{"name":"","type":"address","internalType":"contract IHatsModule"}],"stateMutability":"view"},{"type":"function","name":"initialize","inputs":[{"name":"_multisig","type":"address","internalType":"address"},{"name":"_deploymentRegistry","type":"address","internalType":"address"}],"outputs":[],"stateMutability":"nonpayable"},{"type":"function","name":"isApprovedForAll","inputs":[{"name":"owner","type":"address","internalType":"address"},{"name":"operator","type":"address","internalType":"address"}],"outputs":[{"name":"","type":"bool","internalType":"bool"}],"stateMutability":"view"},{"type":"function","name":"karmaGAPModule","inputs":[],"outputs":[{"name":"","type":"address","internalType":"contract IKarmaGAPModule"}],"stateMutability":"view"},{"type":"function","name":"mintGarden","inputs":[{"name":"config","type":"tuple","internalType":"struct GardenToken.GardenConfig","components":[{"name":"communityToken","type":"address","internalType":"address"},{"name":"name","type":"string","internalType":"string"},{"name":"description","type":"string","internalType":"string"},{"name":"location","type":"string","internalType":"string"},{"name":"bannerImage","type":"string","internalType":"string"},{"name":"metadata","type":"string","internalType":"string"},{"name":"openJoining","type":"bool","internalType":"bool"}]}],"outputs":[{"name":"","type":"address","internalType":"address"}],"stateMutability":"nonpayable"},{"type":"function","name":"name","inputs":[],"outputs":[{"name":"","type":"string","internalType":"string"}],"stateMutability":"view"},{"type":"function","name":"octantModule","inputs":[],"outputs":[{"name":"","type":"address","internalType":"contract OctantModule"}],"stateMutability":"view"},{"type":"function","name":"owner","inputs":[],"outputs":[{"name":"","type":"address","internalType":"address"}],"stateMutability":"view"},{"type":"function","name":"ownerOf","inputs":[{"name":"tokenId","type":"uint256","internalType":"uint256"}],"outputs":[{"name":"","type":"address","internalType":"address"}],"stateMutability":"view"},{"type":"function","name":"proxiableUUID","inputs":[],"outputs":[{"name":"","type":"bytes32","internalType":"bytes32"}],"stateMutability":"view"},{"type":"function","name":"renounceOwnership","inputs":[],"outputs":[],"stateMutability":"nonpayable"},{"type":"function","name":"safeTransferFrom","inputs":[{"name":"from","type":"address","internalType":"address"},{"name":"to","type":"address","internalType":"address"},{"name":"tokenId","type":"uint256","internalType":"uint256"}],"outputs":[],"stateMutability":"nonpayable"},{"type":"function","name":"safeTransferFrom","inputs":[{"name":"from","type":"address","internalType":"address"},{"name":"to","type":"address","internalType":"address"},{"name":"tokenId","type":"uint256","internalType":"uint256"},{"name":"data","type":"bytes","internalType":"bytes"}],"outputs":[],"stateMutability":"nonpayable"},{"type":"function","name":"setApprovalForAll","inputs":[{"name":"operator","type":"address","internalType":"address"},{"name":"approved","type":"bool","internalType":"bool"}],"outputs":[],"stateMutability":"nonpayable"},{"type":"function","name":"setDeploymentRegistry","inputs":[{"name":"_deploymentRegistry","type":"address","internalType":"address"}],"outputs":[],"stateMutability":"nonpayable"},{"type":"function","name":"setHatsModule","inputs":[{"name":"_hatsModule","type":"address","internalType":"address"}],"outputs":[],"stateMutability":"nonpayable"},{"type":"function","name":"setKarmaGAPModule","inputs":[{"name":"_karmaGAPModule","type":"address","internalType":"address"}],"outputs":[],"stateMutability":"nonpayable"},{"type":"function","name":"setOctantModule","inputs":[{"name":"_octantModule","type":"address","internalType":"address"}],"outputs":[],"stateMutability":"nonpayable"},{"type":"function","name":"supportsInterface","inputs":[{"name":"interfaceId","type":"bytes4","internalType":"bytes4"}],"outputs":[{"name":"","type":"bool","internalType":"bool"}],"stateMutability":"view"},{"type":"function","name":"symbol","inputs":[],"outputs":[{"name":"","type":"string","internalType":"string"}],"stateMutability":"view"},{"type":"function","name":"tokenURI","inputs":[{"name":"tokenId","type":"uint256","internalType":"uint256"}],"outputs":[{"name":"","type":"string","internalType":"string"}],"stateMutability":"view"},{"type":"function","name":"transferFrom","inputs":[{"name":"from","type":"address","internalType":"address"},{"name":"to","type":"address","internalType":"address"},{"name":"tokenId","type":"uint256","internalType":"uint256"}],"outputs":[],"stateMutability":"nonpayable"},{"type":"function","name":"transferOwnership","inputs":[{"name":"newOwner","type":"address","internalType":"address"}],"outputs":[],"stateMutability":"nonpayable"},{"type":"function","name":"upgradeTo","inputs":[{"name":"newImplementation","type":"address","internalType":"address"}],"outputs":[],"stateMutability":"nonpayable"},{"type":"function","name":"upgradeToAndCall","inputs":[{"name":"newImplementation","type":"address","internalType":"address"},{"name":"data","type":"bytes","internalType":"bytes"}],"outputs":[],"stateMutability":"payable"},{"type":"event","name":"AdminChanged","inputs":[{"name":"previousAdmin","type":"address","indexed":false,"internalType":"address"},{"name":"newAdmin","type":"address","indexed":false,"internalType":"address"}],"anonymous":false},{"type":"event","name":"Approval","inputs":[{"name":"owner","type":"address","indexed":true,"internalType":"address"},{"name":"approved","type":"address","indexed":true,"internalType":"address"},{"name":"tokenId","type":"uint256","indexed":true,"internalType":"uint256"}],"anonymous":false},{"type":"event","name":"ApprovalForAll","inputs":[{"name":"owner","type":"address","indexed":true,"internalType":"address"},{"name":"operator","type":"address","indexed":true,"internalType":"address"},{"name":"approved","type":"bool","indexed":false,"internalType":"bool"}],"anonymous":false},{"type":"event","name":"BatchGardensMinted","inputs":[{"name":"startTokenId","type":"uint256","indexed":true,"internalType":"uint256"},{"name":"endTokenId","type":"uint256","indexed":true,"internalType":"uint256"},{"name":"minter","type":"address","indexed":true,"internalType":"address"},{"name":"count","type":"uint256","indexed":false,"internalType":"uint256"}],"anonymous":false},{"type":"event","name":"BeaconUpgraded","inputs":[{"name":"beacon","type":"address","indexed":true,"internalType":"address"}],"anonymous":false},{"type":"event","name":"GardenMinted","inputs":[{"name":"tokenId","type":"uint256","indexed":true,"internalType":"uint256"},{"name":"account","type":"address","indexed":true,"internalType":"address"},{"name":"name","type":"string","indexed":false,"internalType":"string"},{"name":"description","type":"string","indexed":false,"internalType":"string"},{"name":"location","type":"string","indexed":false,"internalType":"string"},{"name":"bannerImage","type":"string","indexed":false,"internalType":"string"},{"name":"openJoining","type":"bool","indexed":false,"internalType":"bool"}],"anonymous":false},{"type":"event","name":"HatsModuleUpdated","inputs":[{"name":"oldModule","type":"address","indexed":true,"internalType":"address"},{"name":"newModule","type":"address","indexed":true,"internalType":"address"}],"anonymous":false},{"type":"event","name":"Initialized","inputs":[{"name":"version","type":"uint8","indexed":false,"internalType":"uint8"}],"anonymous":false},{"type":"event","name":"KarmaGAPModuleUpdated","inputs":[{"name":"oldModule","type":"address","indexed":true,"internalType":"address"},{"name":"newModule","type":"address","indexed":true,"internalType":"address"}],"anonymous":false},{"type":"event","name":"OctantModuleUpdated","inputs":[{"name":"oldModule","type":"address","indexed":true,"internalType":"address"},{"name":"newModule","type":"address","indexed":true,"internalType":"address"}],"anonymous":false},{"type":"event","name":"OwnershipTransferred","inputs":[{"name":"previousOwner","type":"address","indexed":true,"internalType":"address"},{"name":"newOwner","type":"address","indexed":true,"internalType":"address"}],"anonymous":false},{"type":"event","name":"Transfer","inputs":[{"name":"from","type":"address","indexed":true,"internalType":"address"},{"name":"to","type":"address","indexed":true,"internalType":"address"},{"name":"tokenId","type":"uint256","indexed":true,"internalType":"uint256"}],"anonymous":false},{"type":"event","name":"Upgraded","inputs":[{"name":"implementation","type":"address","indexed":true,"internalType":"address"}],"anonymous":false},{"type":"error","name":"CommunityTokenNotContract","inputs":[]},{"type":"error","name":"DeploymentRegistryNotConfigured","inputs":[]},{"type":"error","name":"HatsModuleNotSet","inputs":[]},{"type":"error","name":"InvalidBatchSize","inputs":[]},{"type":"error","name":"InvalidCommunityToken","inputs":[]},{"type":"error","name":"InvalidERC20Token","inputs":[]},{"type":"error","name":"UnauthorizedMinter","inputs":[]}],"bytecode":{"object":"0x60c03461013357601f612e8c38819003918201601f19168301916001600160401b038311848410176101375780849260209460405283398101031261013357516001600160a01b0381168103610133573060805260a0525f5460ff8160081c166100de5760ff808216036100a4575b604051612d40908161014c8239608051818181610755015281816108430152610fc5015260a05181818161123501526116570152f35b60ff90811916175f557f7f26b83ff96e1f2b6a682f133852f6798a09c465da95921460cefb3847402498602060405160ff8152a15f61006e565b60405162461bcd60e51b815260206004820152602760248201527f496e697469616c697a61626c653a20636f6e747261637420697320696e697469604482015266616c697a696e6760c81b6064820152608490fd5b5f80fd5b634e487b7160e01b5f52604160045260245ffdfe6080806040526004361015610012575f80fd5b5f3560e01c90816301ffc9a714611ac35750806306fdde0314611a1a578063081812fc146119fc578063095ea7b314611888578063134bb761146114af57806314902ad31461146c5780631744d5ad146111a457806323b872dd14611180578063266f8652146111585780633659cfe614610fa05780634026d76214610f7857806342842e0e14610f46578063485cc95514610aed5780634c52844614610a845780634f1ef2861461080557806352d1902d146107435780636352211e1461071357806370a082311461067e578063715018a6146106235780638da5cb5b146105fb57806395d89b411461051d578063a22cb4651461044f578063adcb9221146103e6578063b4a9c607146103be578063b88d4fde1461034a578063c663109214610322578063c87b56dd146102b4578063d9e4aaee1461024b578063e985e9c5146101f95763f2fde38b14610166575f80fd5b346101f55760203660031901126101f55761017f611b6c565b6101876126c6565b6001600160a01b038116156101a15761019f90612951565b005b60405162461bcd60e51b815260206004820152602660248201527f4f776e61626c653a206e6577206f776e657220697320746865207a65726f206160448201526564647265737360d01b6064820152608490fd5b5f80fd5b346101f55760403660031901126101f557610212611b6c565b61021a611b82565b9060018060a01b038091165f52606a60205260405f2091165f52602052602060ff60405f2054166040519015158152f35b346101f55760203660031901126101f557610264611b6c565b61026c6126c6565b60cc80546001600160a01b039283166001600160a01b0319821681179092559091167fdbf2e72ed7bd92ccbb36e552bb0c1a8df6df7e6a54ab7ddc78720975e93fc88e5f80a3005b346101f55760203660031901126101f5576004355f908152606760205260409020546102ea906001600160a01b03161515611f97565b5f6040516102f781611be0565b5261031e60405161030781611be0565b5f8152604051918291602083526020830190611b2e565b0390f35b346101f5575f3660031901126101f55760ca546040516001600160a01b039091168152602090f35b346101f55760803660031901126101f557610363611b6c565b61036b611b82565b90606435906044356001600160401b0383116101f55761019f936103966103b9943690600401611ca3565b926103a96103a4843361271e565b611e73565b6103b48383836127e2565b612bba565b6129ec565b346101f5575f3660031901126101f55760cb546040516001600160a01b039091168152602090f35b346101f55760203660031901126101f5576103ff611b6c565b6104076126c6565b60cb80546001600160a01b039283166001600160a01b0319821681179092559091167fc8fef5c294d0999b744f1c0123bb9e98e3e739de8245692fde6df4f4625efc505f80a3005b346101f55760403660031901126101f557610468611b6c565b602435908115158092036101f5576001600160a01b0316903382146104d857335f52606a60205260405f20825f5260205260405f2060ff1981541660ff83161790556040519081527f17307eab39ab6107e8899845ad3d59bd9653f200f220920489ca2b5937696c3160203392a3005b60405162461bcd60e51b815260206004820152601960248201527f4552433732313a20617070726f766520746f2063616c6c6572000000000000006044820152606490fd5b346101f5575f3660031901126101f5576040516066545f8261053e83611cc1565b91828252602093600190856001821691825f146105db575050600114610580575b5061056c92500383611c31565b61031e604051928284938452830190611b2e565b84915060665f527f46501879b8ca8525e8c2fd519e2fbfcfa2ebea26501294aa02cbfcfb12e94354905f915b8583106105c357505061056c93508201018561055f565b805483890185015287945086939092019181016105ac565b60ff19168582015261056c95151560051b850101925087915061055f9050565b346101f5575f3660031901126101f5576097546040516001600160a01b039091168152602090f35b346101f5575f3660031901126101f55761063b6126c6565b609780546001600160a01b031981169091555f906001600160a01b03167f8be0079c531659141344cd1fd0a4f28419497f9722a3daafe3b4186f6b6457e08280a3005b346101f55760203660031901126101f5576001600160a01b0361069f611b6c565b1680156106bc575f526068602052602060405f2054604051908152f35b60405162461bcd60e51b815260206004820152602960248201527f4552433732313a2061646472657373207a65726f206973206e6f7420612076616044820152683634b21037bbb732b960b91b6064820152608490fd5b346101f55760203660031901126101f5576020610731600435611fe3565b6040516001600160a01b039091168152f35b346101f5575f3660031901126101f5577f00000000000000000000000000000000000000000000000000000000000000006001600160a01b0316300361079a5760206040515f80516020612d148339815191528152f35b60405162461bcd60e51b815260206004820152603860248201527f555550535570677261646561626c653a206d757374206e6f742062652063616c60448201527f6c6564207468726f7567682064656c656761746563616c6c00000000000000006064820152608490fd5b60403660031901126101f557610819611b6c565b6024356001600160401b0381116101f557610838903690600401611ca3565b906001600160a01b037f000000000000000000000000000000000000000000000000000000000000000081169061087130831415611ed5565b61088d5f80516020612d14833981519152928284541614611f36565b6108956126c6565b7f4910fdfa16fed3260ed0e7147f7cc6da11a60208b5b9406d12a635614ffd91435460ff16156108cb57505061019f9150612a10565b6040516352d1902d60e01b81526020939291831691908481600481865afa5f9181610a55575b506109525760405162461bcd60e51b815260048101869052602e60248201527f45524331393637557067726164653a206e657720696d706c656d656e7461746960448201526d6f6e206973206e6f74205555505360901b6064820152608490fd5b036109fe5761096082612a10565b7fbc7cd75a20ee27fd9adebab32041f755214dbc6bffa90cc0225b39da2e5c2d3b5f80a28251158015906109f6575b61099557005b5f8061019f94604051946109a886611bfb565b602786527f416464726573733a206c6f772d6c6576656c2064656c65676174652063616c6c81870152660819985a5b195960ca1b604087015281519101845af46109f0612a9f565b91612c7a565b50600161098f565b60405162461bcd60e51b815260048101849052602960248201527f45524331393637557067726164653a20756e737570706f727465642070726f786044820152681a58589b195555525160ba1b6064820152608490fd5b9091508581813d8311610a7d575b610a6d8183611c31565b810103126101f5575190876108f1565b503d610a63565b346101f55760203660031901126101f557610a9d611b6c565b610aa56126c6565b60cd80546001600160a01b039283166001600160a01b0319821681179092559091167f8240dda544eb8ec4199e2248ad32f0b0962089fa82835994e8291bd75b5a663a5f80a3005b346101f55760403660031901126101f557610b06611b6c565b610b0e611b82565b905f549160ff8360081c161590818092610f39575b8015610f22575b15610ec657600193828560ff198316175f55610eb5575b5060405192610b4f84611c16565b601284526020937123b932b2b71023b7b7b2399023b0b93232b760711b8582015260405190610b7d82611c16565b600382526247474760e81b86830152610ba560ff5f5460081c16610ba0816128f1565b6128f1565b8051916001600160401b0392838111610daa5780610bc4606554611cc1565b93601f94858111610e48575b508990858311600114610dc9575f92610dbe575b50505f19600383901b1c191690891b176065555b8051928311610daa57610c0c606654611cc1565b828111610d48575b5086918311600114610cc457610c649392915f9183610cb9575b50505f19600383901b1c191690871b176066555b610c5660ff5f5460081c16610ba0816128f1565b610c5f33612951565b612951565b60018060a01b03166001600160601b0360a01b60ca54161760ca55610c8557005b7f7f26b83ff96e1f2b6a682f133852f6798a09c465da95921460cefb38474024989161ff00195f54165f55604051908152a1005b015190508880610c2e565b92918791601f1982169060665f527f46501879b8ca8525e8c2fd519e2fbfcfa2ebea26501294aa02cbfcfb12e94354915f5b8a828210610d325750509583610c649710610d1a575b505050811b01606655610c42565b01515f1960f88460031b161c19169055888080610d0c565b8389015185558c96909401939283019201610cf6565b60665f527f46501879b8ca8525e8c2fd519e2fbfcfa2ebea26501294aa02cbfcfb12e943548380860160051c8201928a8710610da1575b0160051c019089905b828110610d96575050610c14565b5f8155018990610d88565b92508192610d7f565b634e487b7160e01b5f52604160045260245ffd5b015190508a80610be4565b908b9350601f1983169160655f527f8ff97419363ffd7000167f130ef7168fbea05faf9251824ca5043f113cc6a7c7925f5b8d828210610e325750508411610e1a575b505050811b01606555610bf8565b01515f1960f88460031b161c191690558a8080610e0c565b8385015186558f97909501949384019301610dfb565b90915060655f527f8ff97419363ffd7000167f130ef7168fbea05faf9251824ca5043f113cc6a7c78580850160051c8201928c8610610eac575b918d91869594930160051c01915b828110610e9e575050610bd0565b5f81558594508d9101610e90565b92508192610e82565b61ffff1916610101175f5584610b41565b60405162461bcd60e51b815260206004820152602e60248201527f496e697469616c697a61626c653a20636f6e747261637420697320616c72656160448201526d191e481a5b9a5d1a585b1a5e995960921b6064820152608490fd5b50303b158015610b2a5750600160ff851614610b2a565b50600160ff851610610b23565b346101f55761019f6103b9610f5a36611b98565b9060405192610f6884611be0565b5f84526103a96103a4843361271e565b346101f5575f3660031901126101f55760cc546040516001600160a01b039091168152602090f35b346101f5576020806003193601126101f557610fba611b6c565b6001600160a01b03917f00000000000000000000000000000000000000000000000000000000000000008316610ff230821415611ed5565b61100e5f80516020612d14833981519152918583541614611f36565b6110166126c6565b6040519361102385611be0565b5f85527f4910fdfa16fed3260ed0e7147f7cc6da11a60208b5b9406d12a635614ffd91435460ff161561105d5750505061019f9150612a10565b83929316906040516352d1902d60e01b81528481600481865afa5f9181611129575b506110e05760405162461bcd60e51b815260048101869052602e60248201527f45524331393637557067726164653a206e657720696d706c656d656e7461746960448201526d6f6e206973206e6f74205555505360901b6064820152608490fd5b036109fe576110ee82612a10565b7fbc7cd75a20ee27fd9adebab32041f755214dbc6bffa90cc0225b39da2e5c2d3b5f80a28251158015906111225761099557005b505f61098f565b9091508581813d8311611151575b6111418183611c31565b810103126101f55751908761107f565b503d611137565b346101f5575f3660031901126101f55760cd546040516001600160a01b039091168152602090f35b346101f55761019f61119136611b98565b9161119f6103a4843361271e565b6127e2565b346101f557602060031981813601126101f557600435906001600160401b0382116101f55760e0826004019183360301126101f5576097546001600160a01b0390811633036113cf575b6111ff6111fa83611d6f565b612005565b8060cb5416156113bd5760c954925f1984146113a9576001840160c95561122684336120a3565b604051630918575160e11b81527f00000000000000000000000000000000000000000000000000000000000000006001600160a01b031660048201523060248201526044810185905291858360648173__$22345123dcf5f39d8c23eeef107f852197$__5af492831561139e575f93611335575b509060c4947fd9622e038d73e9b439c5fda047b4a8ec1f5e41816b766fcdd534c56fc907042761132561132d9695946112d66024860188611dbb565b9290916112e6604488018a611dbb565b9b909761130a8b6113136112fd6064850183611dbb565b9390926084860190611dbb565b95909401611ded565b948c169e8f9b604051998a998a611e1a565b0390a36121b4565b604051908152f35b939250908584813d8311611397575b61134e8183611c31565b810103126101f55760c4947fd9622e038d73e9b439c5fda047b4a8ec1f5e41816b766fcdd534c56fc907042761132561138961132d97611da7565b95965050509491909161129a565b503d611344565b6040513d5f823e3d90fd5b634e487b7160e01b5f52601160045260245ffd5b60405163127629f760e31b8152600490fd5b8060ca5416801561145a57846024916040519283809262a743f760e61b82523360048301525afa5f918161142b575b506114155760405163955c501b60e01b8152600490fd5b6111ee5760405163955c501b60e01b8152600490fd5b61144c919250863d8811611453575b6114448183611c31565b810190611d35565b90866113fe565b503d61143a565b604051631db3a6cb60e11b8152600490fd5b346101f55760203660031901126101f557611485611b6c565b61148d6126c6565b60ca80546001600160a01b0319166001600160a01b0392909216919091179055005b346101f55760203660031901126101f5576004356001600160401b038082116101f557366023830112156101f5578160040135116101f557366024826004013560051b830101116101f5576097546001600160a01b03163303611803575b80600401351580156117f5575b6117e3575f5b816004013581106117bd575060cb546001600160a01b0316156113bd5761154a8160040135611d83565b906115586040519283611c31565b600481013580835261156990611d83565b601f190136602084013760c954611584826004013582611d9a565b60c9555f5b82600401358110611621575060c9545f198101919082116113a957604051926004013583527fce282076a1439bd4b653b5657c2ab7abea5a48b4572799f57582e79e357b59f760203394a46040518091602082016020835281518091526020604084019201905f5b8181106115ff575050500390f35b82516001600160a01b03168452859450602093840193909201916001016115f1565b61162b8183611d9a565b9061163e81856004013560248701611d4d565b61164883336120a3565b604051630918575160e11b81527f00000000000000000000000000000000000000000000000000000000000000006001600160a01b03166004820152306024820152604481018490529060208260648173__$22345123dcf5f39d8c23eeef107f852197$__5af491821561139e575f92611781575b506116cb6020820182611dbb565b90946116da6040840184611dbb565b926116e86060860186611dbb565b9098906116f86080880188611dbb565b9061170560c08a01611ded565b92600160a01b600190038b169c8d99604051988998611724988a611e1a565b037fd9622e038d73e9b439c5fda047b4a8ec1f5e41816b766fcdd534c56fc907042791a3611751916121b4565b845181101561176d5760019160208260051b8701015201611589565b634e487b7160e01b5f52603260045260245ffd5b9091506020813d6020116117b5575b8161179d60209383611c31565b810103126101f5576117ae90611da7565b90876116bd565b3d9150611790565b806117dd6111fa6117d8600194866004013560248801611d4d565b611d6f565b01611520565b604051637862e95960e01b8152600490fd5b50600a81600401351161151a565b60ca546001600160a01b0316801561145a5760206024916040519283809262a743f760e61b82523360048301525afa5f9181611867575b506118515760405163955c501b60e01b8152600490fd5b61150d5760405163955c501b60e01b8152600490fd5b61188191925060203d602011611453576114448183611c31565b908361183a565b346101f55760403660031901126101f5576118a1611b6c565b602435906001600160a01b0380806118b885611fe3565b169216918083146119ad5780331490811561198c575b5015611921575f83815260696020526040902080546001600160a01b031916831790556118fa83611fe3565b167f8c5be1e5ebec7d5bd14f71427d1e84f3dd0314c0f7b2291e5b200ac8c7c3b9255f80a4005b60405162461bcd60e51b815260206004820152603d60248201527f4552433732313a20617070726f76652063616c6c6572206973206e6f7420746f60448201527f6b656e206f776e6572206f7220617070726f76656420666f7220616c6c0000006064820152608490fd5b90505f52606a60205260405f20335f5260205260ff60405f205416846118ce565b60405162461bcd60e51b815260206004820152602160248201527f4552433732313a20617070726f76616c20746f2063757272656e74206f776e656044820152603960f91b6064820152608490fd5b346101f55760203660031901126101f5576020610731600435611cf9565b346101f5575f3660031901126101f5576040516065545f82611a3b83611cc1565b91828252602093600190856001821691825f146105db575050600114611a68575061056c92500383611c31565b84915060655f527f8ff97419363ffd7000167f130ef7168fbea05faf9251824ca5043f113cc6a7c7905f915b858310611aab57505061056c93508201018561055f565b80548389018501528794508693909201918101611a94565b346101f55760203660031901126101f5576004359063ffffffff60e01b82168092036101f5576020916380ac58cd60e01b8114908115611b1d575b8115611b0c575b5015158152f35b6301ffc9a760e01b14905083611b05565b635b5e139f60e01b81149150611afe565b91908251928382525f5b848110611b58575050825f602080949584010152601f8019910116010190565b602081830181015184830182015201611b38565b600435906001600160a01b03821682036101f557565b602435906001600160a01b03821682036101f557565b60609060031901126101f5576001600160a01b039060043582811681036101f5579160243590811681036101f5579060443590565b6001600160401b038111610daa57604052565b602081019081106001600160401b03821117610daa57604052565b606081019081106001600160401b03821117610daa57604052565b604081019081106001600160401b03821117610daa57604052565b90601f801991011681019081106001600160401b03821117610daa57604052565b6001600160401b038111610daa57601f01601f191660200190565b929192611c7982611c52565b91611c876040519384611c31565b8294818452818301116101f5578281602093845f960137010152565b9080601f830112156101f557816020611cbe93359101611c6d565b90565b90600182811c92168015611cef575b6020831014611cdb57565b634e487b7160e01b5f52602260045260245ffd5b91607f1691611cd0565b5f81815260676020526040902054611d1b906001600160a01b03161515611f97565b5f908152606960205260409020546001600160a01b031690565b908160209103126101f5575180151581036101f55790565b919081101561176d5760051b8101359060de19813603018212156101f5570190565b356001600160a01b03811681036101f55790565b6001600160401b038111610daa5760051b60200190565b919082018092116113a957565b51906001600160a01b03821682036101f557565b903590601e19813603018212156101f557018035906001600160401b0382116101f5576020019181360383136101f557565b3580151581036101f55790565b908060209392818452848401375f828201840152601f01601f1916010190565b9793611e5d93611e4f91611e41611e6b999460809b99969d9e9d60a08e8181520191611dfa565b918b830360208d0152611dfa565b9188830360408a0152611dfa565b918583036060870152611dfa565b931515910152565b15611e7a57565b60405162461bcd60e51b815260206004820152602d60248201527f4552433732313a2063616c6c6572206973206e6f7420746f6b656e206f776e6560448201526c1c881bdc88185c1c1c9bdd9959609a1b6064820152608490fd5b15611edc57565b60405162461bcd60e51b815260206004820152602c60248201527f46756e6374696f6e206d7573742062652063616c6c6564207468726f7567682060448201526b19195b1959d85d1958d85b1b60a21b6064820152608490fd5b15611f3d57565b60405162461bcd60e51b815260206004820152602c60248201527f46756e6374696f6e206d7573742062652063616c6c6564207468726f7567682060448201526b6163746976652070726f787960a01b6064820152608490fd5b15611f9e57565b60405162461bcd60e51b815260206004820152601860248201527f4552433732313a20696e76616c696420746f6b656e20494400000000000000006044820152606490fd5b5f908152606760205260409020546001600160a01b0316611cbe811515611f97565b6001600160a01b038116908115612091573b1561207f576020600491604051928380926318160ddd60e01b82525afa9081612054575b50612052576040516326412d8960e21b8152600490fd5b565b602090813d8311612078575b61206a8183611c31565b810103126101f5575f61203b565b503d612060565b60405163d0acc0d360e01b8152600490fd5b604051631a747e4f60e31b8152600490fd5b906040516120b081611be0565b5f81526001600160a01b0383169182156121705761205293816103b9946120f36120ed835f52606760205260018060a01b0360405f205416151590565b15612c2e565b5f82815260676020526040902054612115906001600160a01b031615156120ed565b805f52606860205260405f2060018154019055815f52606760205260405f20816001600160601b0360a01b8254161790555f7fddf252ad1be2c89b69c2b068fc378daa952ba7f163c4a11628f55a4df523b3ef8180a4612ace565b606460405162461bcd60e51b815260206004820152602060248201527f4552433732313a206d696e7420746f20746865207a65726f20616464726573736044820152fd5b91909160cb545f91602085019160206122116121d08589611dbb565b93905f6121dc8b611d6f565b6040516360fac62560e01b81526001600160a01b03891660048201526060602482015296879586948593926064850191611dfa565b6001600160a01b0391821660448401529190910393165af1801561139e5761269b575b5060cb546001600160a01b0316803b156101f557604051633868e7e560e01b81526001600160a01b038316600482015233602482015260036044820152905f908290606490829084905af1801561139e57612688575b5060cc546001600160a01b031680612597575b5060cd546001600160a01b031694856124a9575b60c0939495506122ca6122c382611d6f565b9382611dbb565b90936122d96040840184611dbb565b93906122e86060830183611dbb565b9290936122f86080830183611dbb565b9961231261230960a0860186611dbb565b9d909501611ded565b96604051988960e08101106001600160401b0360e08c011117610daa576123979661235b6123799461236a938d6123889960e0820160405260018060a01b031690523691611c6d565b9b60208c019c8d523691611c6d565b9660408a019788523691611c6d565b99606088019a8b523691611c6d565b9860808601998a523691611c6d565b60a0840190815291151560c08401908152916001600160a01b0386163b156124a55760405163e13ff8dd60e01b81526020600482015293516001600160a01b03166024850152935160e060448501529296889688969587958995879590949093909161240890610104880190611b2e565b9351602319948588820301606489015261242191611b2e565b9051908487820301608488015261243791611b2e565b905190838682030160a487015261244d91611b2e565b9051918482030160c485015261246291611b2e565b9051151560e483015203926001600160a01b03165af1801561249a57612486575050565b6124908291611bcd565b6124975750565b80fd5b6040513d84823e3d90fd5b8880fd5b836124f3966124b88584611dbb565b604080516343d2636360e11b81526001600160a01b03881660048201526024810191909152998a939284928692849290916044840191611dfa565b03925af1156122b1573d8085883e61250b8188611c31565b860195602081880312612593578051906001600160401b03821161258f57019580601f88011215612593578651966020806125458a611d83565b6125526040519182611c31565b8a8152019860051b82010191821161258f57602001965b8188106125775750506122b1565b602080916125848a611da7565b815201970196612569565b8580fd5b8480fd5b6125a18387611dbb565b91906125b06040890189611dbb565b9093906125c060608b018b611dbb565b91906125cf60808d018d611dbb565b604051638ae4d28160e01b81526001600160a01b038b16600482015233602482015260c06044820152988997889793969294936126119160c48a019190611dfa565b60031995868983030160648a015261262892611dfa565b908487830301608488015261263c92611dfa565b918483030160a485015261264f92611dfa565b0381875a94602095f11561229d57602090813d8311612681575b6126738183611c31565b810103126101f5575f61229d565b503d612669565b612693919350611bcd565b5f915f61228a565b602090813d83116126bf575b6126b18183611c31565b810103126101f5575f612234565b503d6126a7565b6097546001600160a01b031633036126da57565b606460405162461bcd60e51b815260206004820152602060248201527f4f776e61626c653a2063616c6c6572206973206e6f7420746865206f776e65726044820152fd5b906001600160a01b03808061273284611fe3565b16931691838314938415612765575b50831561274f575b50505090565b61275b91929350611cf9565b16145f8080612749565b9093505f52606a60205260405f20825f5260205260ff60405f205416925f612741565b1561278f57565b60405162461bcd60e51b815260206004820152602560248201527f4552433732313a207472616e736665722066726f6d20696e636f72726563742060448201526437bbb732b960d91b6064820152608490fd5b9061280a916127f084611fe3565b6001600160a01b0393918416928492909183168414612788565b169182156128a057816128279161282086611fe3565b1614612788565b825f52606960205260405f206001600160601b0360a01b90818154169055815f52606860205260405f205f198154019055825f5260405f2060018154019055835f5260676020528260405f20918254161790557fddf252ad1be2c89b69c2b068fc378daa952ba7f163c4a11628f55a4df523b3ef5f80a4565b60405162461bcd60e51b8152602060048201526024808201527f4552433732313a207472616e7366657220746f20746865207a65726f206164646044820152637265737360e01b6064820152608490fd5b156128f857565b60405162461bcd60e51b815260206004820152602b60248201527f496e697469616c697a61626c653a20636f6e7472616374206973206e6f74206960448201526a6e697469616c697a696e6760a81b6064820152608490fd5b609780546001600160a01b039283166001600160a01b0319821681179092559091167f8be0079c531659141344cd1fd0a4f28419497f9722a3daafe3b4186f6b6457e05f80a3565b60809060208152603260208201527f4552433732313a207472616e7366657220746f206e6f6e20455243373231526560408201527131b2b4bb32b91034b6b83632b6b2b73a32b960711b60608201520190565b156129f357565b60405162461bcd60e51b815280612a0c60048201612999565b0390fd5b803b15612a44575f80516020612d1483398151915280546001600160a01b0319166001600160a01b03909216919091179055565b60405162461bcd60e51b815260206004820152602d60248201527f455243313936373a206e657720696d706c656d656e746174696f6e206973206e60448201526c1bdd08184818dbdb9d1c9858dd609a1b6064820152608490fd5b3d15612ac9573d90612ab082611c52565b91612abe6040519384611c31565b82523d5f602084013e565b606090565b909190803b15612bb257612b176020915f93604051948580948193630a85bd0160e11b998a84523360048501528460248501526044840152608060648401526084830190611b2e565b03926001600160a01b03165af15f9181612b6d575b50612b5f57612b39612a9f565b80519081612b5a5760405162461bcd60e51b815280612a0c60048201612999565b602001fd5b6001600160e01b0319161490565b9091506020813d602011612baa575b81612b8960209383611c31565b810103126101f557516001600160e01b0319811681036101f557905f612b2c565b3d9150612b7c565b505050600190565b92909190823b15612c2557612c0c926020925f60018060a01b0360405180978196829584630a85bd0160e11b9c8d86523360048701521660248501526044840152608060648401526084830190611b2e565b0393165af15f9181612b6d5750612b5f57612b39612a9f565b50505050600190565b15612c3557565b60405162461bcd60e51b815260206004820152601c60248201527f4552433732313a20746f6b656e20616c7265616479206d696e746564000000006044820152606490fd5b91929015612cdc5750815115612c8e575090565b3b15612c975790565b60405162461bcd60e51b815260206004820152601d60248201527f416464726573733a2063616c6c20746f206e6f6e2d636f6e74726163740000006044820152606490fd5b825190915015612cef5750805190602001fd5b60405162461bcd60e51b815260206004820152908190612a0c906024830190611b2e56fe360894a13ba1a3210667c828492db98dca3e2076cc3735a920a3ca505d382bbca164736f6c6343000819000a","linkReferences":{"src/lib/TBA.sol":{"TBALib":[{"start":5059,"length":20},{"start":6118,"length":20}]}}},"methodIdentifiers":{"approve(address,uint256)":"095ea7b3","balanceOf(address)":"70a08231","batchMintGardens((address,string,string,string,string,string,bool)[])":"134bb761","deploymentRegistry()":"c6631092","getApproved(uint256)":"081812fc","hatsModule()":"b4a9c607","initialize(address,address)":"485cc955","isApprovedForAll(address,address)":"e985e9c5","karmaGAPModule()":"4026d762","mintGarden((address,string,string,string,string,string,bool))":"1744d5ad","name()":"06fdde03","octantModule()":"266f8652","owner()":"8da5cb5b","ownerOf(uint256)":"6352211e","proxiableUUID()":"52d1902d","renounceOwnership()":"715018a6","safeTransferFrom(address,address,uint256)":"42842e0e","safeTransferFrom(address,address,uint256,bytes)":"b88d4fde","setApprovalForAll(address,bool)":"a22cb465","setDeploymentRegistry(address)":"14902ad3","setHatsModule(address)":"adcb9221","setKarmaGAPModule(address)":"d9e4aaee","setOctantModule(address)":"4c528446","supportsInterface(bytes4)":"01ffc9a7","symbol()":"95d89b41","tokenURI(uint256)":"c87b56dd","transferFrom(address,address,uint256)":"23b872dd","transferOwnership(address)":"f2fde38b","upgradeTo(address)":"3659cfe6","upgradeToAndCall(address,bytes)":"4f1ef286"},"id":162}