{"abi":[{"type":"constructor","inputs":[{"name":"gardenAccountImplementation","type":"address","internalType":"address"}],"stateMutability":"nonpayable"},{"type":"function","name":"actionRegistry","inputs":[],"outputs":[{"name":"","type":"address","internalType":"contract ActionRegistry"}],"stateMutability":"view"},{"type":"function","name":"approve","inputs":[{"name":"to","type":"address","internalType":"address"},{"name":"tokenId","type":"uint256","internalType":"uint256"}],"outputs":[],"stateMutability":"nonpayable"},{"type":"function","name":"balanceOf","inputs":[{"name":"owner","type":"address","internalType":"address"}],"outputs":[{"name":"","type":"uint256","internalType":"uint256"}],"stateMutability":"view"},{"type":"function","name":"batchMintGardens","inputs":[{"name":"configs","type":"tuple[]","internalType":"struct GardenToken.GardenConfig[]","components":[{"name":"name","type":"string","internalType":"string"},{"name":"slug","type":"string","internalType":"string"},{"name":"description","type":"string","internalType":"string"},{"name":"location","type":"string","internalType":"string"},{"name":"bannerImage","type":"string","internalType":"string"},{"name":"metadata","type":"string","internalType":"string"},{"name":"openJoining","type":"bool","internalType":"bool"},{"name":"weightScheme","type":"uint8","internalType":"enum IGardensModule.WeightScheme"},{"name":"domainMask","type":"uint8","internalType":"uint8"}]}],"outputs":[{"name":"gardenAccounts","type":"address[]","internalType":"address[]"}],"stateMutability":"payable"},{"type":"function","name":"claimENSRefund","inputs":[],"outputs":[],"stateMutability":"nonpayable"},{"type":"function","name":"communityToken","inputs":[],"outputs":[{"name":"","type":"address","internalType":"address"}],"stateMutability":"view"},{"type":"function","name":"cookieJarModule","inputs":[],"outputs":[{"name":"","type":"address","internalType":"contract ICookieJarModule"}],"stateMutability":"view"},{"type":"function","name":"deploymentRegistry","inputs":[],"outputs":[{"name":"","type":"address","internalType":"address"}],"stateMutability":"view"},{"type":"function","name":"ensModule","inputs":[],"outputs":[{"name":"","type":"address","internalType":"contract IGreenGoodsENS"}],"stateMutability":"view"},{"type":"function","name":"failedENSRefunds","inputs":[{"name":"minter","type":"address","internalType":"address"}],"outputs":[{"name":"amount","type":"uint256","internalType":"uint256"}],"stateMutability":"view"},{"type":"function","name":"gardensModule","inputs":[],"outputs":[{"name":"","type":"address","internalType":"contract IGardensModule"}],"stateMutability":"view"},{"type":"function","name":"getApproved","inputs":[{"name":"tokenId","type":"uint256","internalType":"uint256"}],"outputs":[{"name":"","type":"address","internalType":"address"}],"stateMutability":"view"},{"type":"function","name":"hatsModule","inputs":[],"outputs":[{"name":"","type":"address","internalType":"contract IHatsModule"}],"stateMutability":"view"},{"type":"function","name":"initialize","inputs":[{"name":"_multisig","type":"address","internalType":"address"},{"name":"_deploymentRegistry","type":"address","internalType":"address"}],"outputs":[],"stateMutability":"nonpayable"},{"type":"function","name":"isApprovedForAll","inputs":[{"name":"owner","type":"address","internalType":"address"},{"name":"operator","type":"address","internalType":"address"}],"outputs":[{"name":"","type":"bool","internalType":"bool"}],"stateMutability":"view"},{"type":"function","name":"karmaGAPModule","inputs":[],"outputs":[{"name":"","type":"address","internalType":"contract IKarmaGAPModule"}],"stateMutability":"view"},{"type":"function","name":"mintGarden","inputs":[{"name":"config","type":"tuple","internalType":"struct GardenToken.GardenConfig","components":[{"name":"name","type":"string","internalType":"string"},{"name":"slug","type":"string","internalType":"string"},{"name":"description","type":"string","internalType":"string"},{"name":"location","type":"string","internalType":"string"},{"name":"bannerImage","type":"string","internalType":"string"},{"name":"metadata","type":"string","internalType":"string"},{"name":"openJoining","type":"bool","internalType":"bool"},{"name":"weightScheme","type":"uint8","internalType":"enum IGardensModule.WeightScheme"},{"name":"domainMask","type":"uint8","internalType":"uint8"}]}],"outputs":[{"name":"","type":"address","internalType":"address"}],"stateMutability":"payable"},{"type":"function","name":"name","inputs":[],"outputs":[{"name":"","type":"string","internalType":"string"}],"stateMutability":"view"},{"type":"function","name":"octantModule","inputs":[],"outputs":[{"name":"","type":"address","internalType":"contract OctantModule"}],"stateMutability":"view"},{"type":"function","name":"owner","inputs":[],"outputs":[{"name":"","type":"address","internalType":"address"}],"stateMutability":"view"},{"type":"function","name":"ownerOf","inputs":[{"name":"tokenId","type":"uint256","internalType":"uint256"}],"outputs":[{"name":"","type":"address","internalType":"address"}],"stateMutability":"view"},{"type":"function","name":"proxiableUUID","inputs":[],"outputs":[{"name":"","type":"bytes32","internalType":"bytes32"}],"stateMutability":"view"},{"type":"function","name":"renounceOwnership","inputs":[],"outputs":[],"stateMutability":"nonpayable"},{"type":"function","name":"safeTransferFrom","inputs":[{"name":"from","type":"address","internalType":"address"},{"name":"to","type":"address","internalType":"address"},{"name":"tokenId","type":"uint256","internalType":"uint256"}],"outputs":[],"stateMutability":"nonpayable"},{"type":"function","name":"safeTransferFrom","inputs":[{"name":"from","type":"address","internalType":"address"},{"name":"to","type":"address","internalType":"address"},{"name":"tokenId","type":"uint256","internalType":"uint256"},{"name":"data","type":"bytes","internalType":"bytes"}],"outputs":[],"stateMutability":"nonpayable"},{"type":"function","name":"setActionRegistry","inputs":[{"name":"_actionRegistry","type":"address","internalType":"address"}],"outputs":[],"stateMutability":"nonpayable"},{"type":"function","name":"setApprovalForAll","inputs":[{"name":"operator","type":"address","internalType":"address"},{"name":"approved","type":"bool","internalType":"bool"}],"outputs":[],"stateMutability":"nonpayable"},{"type":"function","name":"setCommunityToken","inputs":[{"name":"_communityToken","type":"address","internalType":"address"}],"outputs":[],"stateMutability":"nonpayable"},{"type":"function","name":"setCookieJarModule","inputs":[{"name":"_cookieJarModule","type":"address","internalType":"address"}],"outputs":[],"stateMutability":"nonpayable"},{"type":"function","name":"setDeployment","inputs":[{"name":"_deploymentRegistry","type":"address","internalType":"address"}],"outputs":[],"stateMutability":"nonpayable"},{"type":"function","name":"setENSModule","inputs":[{"name":"_ensModule","type":"address","internalType":"address"}],"outputs":[],"stateMutability":"nonpayable"},{"type":"function","name":"setGardensModule","inputs":[{"name":"_gardensModule","type":"address","internalType":"address"}],"outputs":[],"stateMutability":"nonpayable"},{"type":"function","name":"setHatsModule","inputs":[{"name":"_hatsModule","type":"address","internalType":"address"}],"outputs":[],"stateMutability":"nonpayable"},{"type":"function","name":"setKarmaGAPModule","inputs":[{"name":"_karmaGAPModule","type":"address","internalType":"address"}],"outputs":[],"stateMutability":"nonpayable"},{"type":"function","name":"setOctantModule","inputs":[{"name":"_octantModule","type":"address","internalType":"address"}],"outputs":[],"stateMutability":"nonpayable"},{"type":"function","name":"setTransferRestriction","inputs":[{"name":"_restriction","type":"uint8","internalType":"enum GardenToken.TransferRestriction"}],"outputs":[],"stateMutability":"nonpayable"},{"type":"function","name":"supportsInterface","inputs":[{"name":"interfaceId","type":"bytes4","internalType":"bytes4"}],"outputs":[{"name":"","type":"bool","internalType":"bool"}],"stateMutability":"view"},{"type":"function","name":"symbol","inputs":[],"outputs":[{"name":"","type":"string","internalType":"string"}],"stateMutability":"view"},{"type":"function","name":"tokenURI","inputs":[{"name":"tokenId","type":"uint256","internalType":"uint256"}],"outputs":[{"name":"","type":"string","internalType":"string"}],"stateMutability":"view"},{"type":"function","name":"totalPendingENSRefunds","inputs":[],"outputs":[{"name":"","type":"uint256","internalType":"uint256"}],"stateMutability":"view"},{"type":"function","name":"transferFrom","inputs":[{"name":"from","type":"address","internalType":"address"},{"name":"to","type":"address","internalType":"address"},{"name":"tokenId","type":"uint256","internalType":"uint256"}],"outputs":[],"stateMutability":"nonpayable"},{"type":"function","name":"transferOwnership","inputs":[{"name":"newOwner","type":"address","internalType":"address"}],"outputs":[],"stateMutability":"nonpayable"},{"type":"function","name":"transferRestriction","inputs":[],"outputs":[{"name":"","type":"uint8","internalType":"enum GardenToken.TransferRestriction"}],"stateMutability":"view"},{"type":"function","name":"upgradeTo","inputs":[{"name":"newImplementation","type":"address","internalType":"address"}],"outputs":[],"stateMutability":"nonpayable"},{"type":"function","name":"upgradeToAndCall","inputs":[{"name":"newImplementation","type":"address","internalType":"address"},{"name":"data","type":"bytes","internalType":"bytes"}],"outputs":[],"stateMutability":"payable"},{"type":"event","name":"ActionRegistryUpdated","inputs":[{"name":"oldRegistry","type":"address","indexed":true,"internalType":"address"},{"name":"newRegistry","type":"address","indexed":true,"internalType":"address"}],"anonymous":false},{"type":"event","name":"AdminChanged","inputs":[{"name":"previousAdmin","type":"address","indexed":false,"internalType":"address"},{"name":"newAdmin","type":"address","indexed":false,"internalType":"address"}],"anonymous":false},{"type":"event","name":"Approval","inputs":[{"name":"owner","type":"address","indexed":true,"internalType":"address"},{"name":"approved","type":"address","indexed":true,"internalType":"address"},{"name":"tokenId","type":"uint256","indexed":true,"internalType":"uint256"}],"anonymous":false},{"type":"event","name":"ApprovalForAll","inputs":[{"name":"owner","type":"address","indexed":true,"internalType":"address"},{"name":"operator","type":"address","indexed":true,"internalType":"address"},{"name":"approved","type":"bool","indexed":false,"internalType":"bool"}],"anonymous":false},{"type":"event","name":"BatchGardensMinted","inputs":[{"name":"startTokenId","type":"uint256","indexed":true,"internalType":"uint256"},{"name":"endTokenId","type":"uint256","indexed":true,"internalType":"uint256"},{"name":"minter","type":"address","indexed":true,"internalType":"address"},{"name":"count","type":"uint256","indexed":false,"internalType":"uint256"}],"anonymous":false},{"type":"event","name":"BeaconUpgraded","inputs":[{"name":"beacon","type":"address","indexed":true,"internalType":"address"}],"anonymous":false},{"type":"event","name":"CommunityTokenUpdated","inputs":[{"name":"oldToken","type":"address","indexed":true,"internalType":"address"},{"name":"newToken","type":"address","indexed":true,"internalType":"address"}],"anonymous":false},{"type":"event","name":"CookieJarModuleUpdated","inputs":[{"name":"oldModule","type":"address","indexed":true,"internalType":"address"},{"name":"newModule","type":"address","indexed":true,"internalType":"address"}],"anonymous":false},{"type":"event","name":"ENSModuleUpdated","inputs":[{"name":"oldModule","type":"address","indexed":true,"internalType":"address"},{"name":"newModule","type":"address","indexed":true,"internalType":"address"}],"anonymous":false},{"type":"event","name":"ENSRegistrationRefundClaimed","inputs":[{"name":"minter","type":"address","indexed":true,"internalType":"address"},{"name":"amount","type":"uint256","indexed":false,"internalType":"uint256"}],"anonymous":false},{"type":"event","name":"ENSRegistrationRefundQueued","inputs":[{"name":"minter","type":"address","indexed":true,"internalType":"address"},{"name":"amount","type":"uint256","indexed":false,"internalType":"uint256"}],"anonymous":false},{"type":"event","name":"GardenMinted","inputs":[{"name":"tokenId","type":"uint256","indexed":true,"internalType":"uint256"},{"name":"account","type":"address","indexed":true,"internalType":"address"},{"name":"name","type":"string","indexed":false,"internalType":"string"},{"name":"description","type":"string","indexed":false,"internalType":"string"},{"name":"location","type":"string","indexed":false,"internalType":"string"},{"name":"bannerImage","type":"string","indexed":false,"internalType":"string"},{"name":"openJoining","type":"bool","indexed":false,"internalType":"bool"}],"anonymous":false},{"type":"event","name":"GardensModuleUpdated","inputs":[{"name":"oldModule","type":"address","indexed":true,"internalType":"address"},{"name":"newModule","type":"address","indexed":true,"internalType":"address"}],"anonymous":false},{"type":"event","name":"HatsModuleUpdated","inputs":[{"name":"oldModule","type":"address","indexed":true,"internalType":"address"},{"name":"newModule","type":"address","indexed":true,"internalType":"address"}],"anonymous":false},{"type":"event","name":"Initialized","inputs":[{"name":"version","type":"uint8","indexed":false,"internalType":"uint8"}],"anonymous":false},{"type":"event","name":"KarmaGAPModuleUpdated","inputs":[{"name":"oldModule","type":"address","indexed":true,"internalType":"address"},{"name":"newModule","type":"address","indexed":true,"internalType":"address"}],"anonymous":false},{"type":"event","name":"OctantModuleUpdated","inputs":[{"name":"oldModule","type":"address","indexed":true,"internalType":"address"},{"name":"newModule","type":"address","indexed":true,"internalType":"address"}],"anonymous":false},{"type":"event","name":"OwnershipTransferred","inputs":[{"name":"previousOwner","type":"address","indexed":true,"internalType":"address"},{"name":"newOwner","type":"address","indexed":true,"internalType":"address"}],"anonymous":false},{"type":"event","name":"Transfer","inputs":[{"name":"from","type":"address","indexed":true,"internalType":"address"},{"name":"to","type":"address","indexed":true,"internalType":"address"},{"name":"tokenId","type":"uint256","indexed":true,"internalType":"uint256"}],"anonymous":false},{"type":"event","name":"Upgraded","inputs":[{"name":"implementation","type":"address","indexed":true,"internalType":"address"}],"anonymous":false},{"type":"error","name":"CommunityTokenNotConfigured","inputs":[]},{"type":"error","name":"CommunityTokenNotContract","inputs":[]},{"type":"error","name":"DeploymentNotConfigured","inputs":[]},{"type":"error","name":"ENSRefundTransferFailed","inputs":[]},{"type":"error","name":"HatsModuleNotSet","inputs":[]},{"type":"error","name":"InvalidBatchSize","inputs":[]},{"type":"error","name":"InvalidCommunityToken","inputs":[]},{"type":"error","name":"InvalidERC20Token","inputs":[]},{"type":"error","name":"NoENSRefundAvailable","inputs":[]},{"type":"error","name":"TransfersLocked","inputs":[]},{"type":"error","name":"TransfersRestricted","inputs":[]},{"type":"error","name":"UnauthorizedMinter","inputs":[]}],"bytecode":{"object":"0x60c03461013357601f6136ac38819003918201601f19168301916001600160401b038311848410176101375780849260209460405283398101031261013357516001600160a01b0381168103610133573060805260a0525f5460ff8160081c166100de5760ff808216036100a4575b604051613560908161014c8239608051818181610d8401528181610ed00152611628015260a05181818161042801526119ab0152f35b60ff90811916175f557f7f26b83ff96e1f2b6a682f133852f6798a09c465da95921460cefb3847402498602060405160ff8152a15f61006e565b60405162461bcd60e51b815260206004820152602760248201527f496e697469616c697a61626c653a20636f6e747261637420697320696e697469604482015266616c697a696e6760c81b6064820152608490fd5b5f80fd5b634e487b7160e01b5f52604160045260245ffdfe6080806040526004361015610012575f80fd5b5f905f3560e01c90816301ffc9a714611f8e5750806306fdde0314611efc578063077fe4c914611e59578063081812fc14611e3b578063095ea7b314611cb5578063117ad57a14611c7557806315f2efcc146118ba578063191d77191461189257806323b872dd1461186e578063266f86521461184657806329aa16171461181e5780633659cfe61461160a5780633b30eb72146115d25780634026d762146115aa57806342842e0e14611576578063461d338c1461154d578063485cc9551461113c5780634c528446146110d35780634f1ef28614610e98578063516b87d914610e2f57806352d1902d14610d7257806357c6e6a414610d095780636352211e14610cd95780636c16ad3514610c9657806370a0823114610c01578063715018a614610bb957806372a0d6ad14610b9157806383930c2314610b745780638c15e6a414610a7b5780638da5cb5b14610a5357806395d89b4114610988578063a22cb465146108be578063adcb922114610855578063b4a9c6071461082d578063b88d4fde146107b7578063ba06c1761461074e578063c663109214610726578063c87b56dd146106c2578063d25d465214610699578063d9e4aaee1461062e578063dc0c385b1461038c578063e4e3967814610363578063e7efdb26146102f8578063e985e9c5146102a05763f2fde38b1461020d575f80fd5b3461029d57602036600319011261029d57610226612038565b61022e61246c565b6001600160a01b038116156102495761024690612f46565b80f35b60405162461bcd60e51b815260206004820152602660248201527f4f776e61626c653a206e6577206f776e657220697320746865207a65726f206160448201526564647265737360d01b6064820152608490fd5b80fd5b503461029d57604036600319011261029d5760406102bc612038565b916102c561204e565b9260018060a01b03168152606a602052209060018060a01b03165f52602052602060ff60405f2054166040519015158152f35b503461029d57602036600319011261029d57610312612038565b61031a61246c565b60ce80546001600160a01b039283166001600160a01b0319821681179092559091167f1c2f4d6765fbc35ee83d1598538969716facf03e15ae9183c5f99259aeb5d3318380a380f35b503461029d578060031936011261029d5760cf546040516001600160a01b039091168152602090f35b50602036600319011261029d57600435906001600160401b03821161029d578160040191610120600319823603011261062a576097546001600160a01b0316330361058c575b60d2546001600160a01b03161561057d5760cb546001600160a01b03161561056e5760c9545f19811461055a576001810160c95561041081336124c4565b604051630918575160e11b81526020818061045085307f00000000000000000000000000000000000000000000000000000000000000006004850161222b565b038173__$22345123dcf5f39d8c23eeef107f852197$__5af493841561054e578094610500575b60206104f06104f8888888885f5160206134745f395f51905f5261049b858061224d565b906104a9604486018861224d565b99909560c46104bb606483018b61224d565b6104d76104ce8d6084879597019061224d565b9490930161227f565b9360018060a01b038c169e8f9b604051998a998a6122ac565b0390a361259e565b604051908152f35b909193506020823d602011610546575b8161051d602093836120bc565b8101031261029d5750926104f0926104f89261053a602096612217565b94509281929550610477565b3d9150610510565b604051903d90823e3d90fd5b634e487b7160e01b83526011600452602483fd5b63127629f760e31b8252600482fd5b6309203be560e11b8252600482fd5b60ca546001600160a01b0316801561061b5760206024916040519283809262a743f760e61b82523360048301525afa8391816105ea575b506105d75763955c501b60e01b8352600483fd5b6103d25763955c501b60e01b8252600482fd5b61060d91925060203d602011610614575b61060581836120bc565b8101906121db565b905f6105c3565b503d6105fb565b63045824e160e51b8352600483fd5b5080fd5b503461029d57602036600319011261029d57610648612038565b61065061246c565b60cc80546001600160a01b039283166001600160a01b0319821681179092559091167fdbf2e72ed7bd92ccbb36e552bb0c1a8df6df7e6a54ab7ddc78720975e93fc88e8380a380f35b503461029d578060031936011261029d5760d0546040516001600160a01b039091168152602090f35b34610722576020366003190112610722576106e66106e1600435612ff2565b612403565b5f6040516106f56020826120bc565b5261071e6040516107076020826120bc565b5f8152604051918291602083526020830190611ff9565b0390f35b5f80fd5b34610722575f3660031901126107225760ca546040516001600160a01b039091168152602090f35b3461072257602036600319011261072257610767612038565b61076f61246c565b60cf80546001600160a01b039283166001600160a01b0319821681179092559091167fe871cbdaca3c1bd8efb9eaa48b0acffb2a54d6baac7c7b976a366265838723da5f80a3005b34610722576080366003190112610722576107d0612038565b6107d861204e565b90606435906044356001600160401b0383116107225761082b93610803610826943690600401612130565b926108166108118433612d09565b612305565b610821838383612dd8565b613297565b612fce565b005b34610722575f3660031901126107225760cb546040516001600160a01b039091168152602090f35b346107225760203660031901126107225761086e612038565b61087661246c565b60cb80546001600160a01b039283166001600160a01b0319821681179092559091167fc8fef5c294d0999b744f1c0123bb9e98e3e739de8245692fde6df4f4625efc505f80a3005b34610722576040366003190112610722576108d7612038565b60243590811515809203610722576001600160a01b03169033821461094757335f52606a60205260405f20825f5260205260405f2060ff1981541660ff83161790556040519081527f17307eab39ab6107e8899845ad3d59bd9653f200f220920489ca2b5937696c3160203392a3005b60405162461bcd60e51b815260206004820152601960248201527822a9219b99189d1030b8383937bb32903a379031b0b63632b960391b6044820152606490fd5b34610722575f366003190112610722576040515f6066546109a88161214e565b8084529060018116908115610a2f57506001146109e4575b61071e836109d0818503826120bc565b604051918291602083526020830190611ff9565b60665f9081525f5160206133d45f395f51905f52939250905b808210610a15575090915081016020016109d06109c0565b9192600181602092548385880101520191019092916109fd565b60ff191660208086019190915291151560051b840190910191506109d090506109c0565b34610722575f366003190112610722576097546040516001600160a01b039091168152602090f35b3461072257602036600319011261072257610a94612038565b610a9c61246c565b6001600160a01b038116908115610b65573b15610b56576040516318160ddd60e01b8152602081600481855afa9081610b27575b50610ae4576326412d8960e21b5f5260045ffd5b60d280546001600160a01b0319811683179091556001600160a01b03167f1b5431099f08d34c1b67c3baba09da48c205d66021df446f824be5c7f86be7d55f80a3005b6020813d602011610b4e575b81610b40602093836120bc565b810103126107225751610ad0565b3d9150610b33565b63d0acc0d360e01b5f5260045ffd5b631a747e4f60e31b5f5260045ffd5b34610722575f36600319011261072257602060d454604051908152f35b34610722575f3660031901126107225760ce546040516001600160a01b039091168152602090f35b34610722575f36600319011261072257610bd161246c565b609780546001600160a01b031981169091555f906001600160a01b03165f5160206134945f395f51905f528280a3005b34610722576020366003190112610722576001600160a01b03610c22612038565b168015610c3f575f526068602052602060405f2054604051908152f35b60405162461bcd60e51b815260206004820152602960248201527f4552433732313a2061646472657373207a65726f206973206e6f7420612076616044820152683634b21037bbb732b960b91b6064820152608490fd5b3461072257602036600319011261072257610caf612038565b610cb761246c565b60ca80546001600160a01b0319166001600160a01b0392909216919091179055005b34610722576020366003190112610722576020610cf760043561244a565b6040516001600160a01b039091168152f35b3461072257602036600319011261072257610d22612038565b610d2a61246c565b60d180546001600160a01b039283166001600160a01b0319821681179092559091167fb36c04cd47dc5ac0f031b7a815757f7883731343f2d3aa6dbd5c33cf369c8e165f80a3005b34610722575f366003190112610722577f00000000000000000000000000000000000000000000000000000000000000006001600160a01b03163003610dc95760206040515f5160206134545f395f51905f528152f35b60405162461bcd60e51b815260206004820152603860248201527f555550535570677261646561626c653a206d757374206e6f742062652063616c6044820152771b1959081d1a1c9bdd59da0819195b1959d85d1958d85b1b60421b6064820152608490fd5b3461072257602036600319011261072257610e48612038565b610e5061246c565b60d080546001600160a01b039283166001600160a01b0319821681179092559091167fb7f52c4862981bdf3d41a29cd9077644f7f34833735f8e427c70decedaa006af5f80a3005b604036600319011261072257610eac612038565b6024356001600160401b03811161072257610ecb903690600401612130565b610f227f00000000000000000000000000000000000000000000000000000000000000006001600160a01b0316610f0430821415612367565b5f5160206134545f395f51905f52546001600160a01b0316146123b5565b610f2a61246c565b5f5160206134145f395f51905f525460ff1615610f4b575061082b90613117565b6040516352d1902d60e01b81526001600160a01b03831690602081600481855afa5f918161109f575b50610fc25760405162461bcd60e51b815260206004820152602e60248201525f5160206135345f395f51905f5260448201526d6f6e206973206e6f74205555505360901b6064820152608490fd5b5f5160206134545f395f51905f520361105b57610fde83613117565b5f5160206134b45f395f51905f525f80a2805115801590611053575b61100057005b61082b915f80604051936110156060866120bc565b602785525f5160206135145f395f51905f526020860152660819985a5b195960ca1b6040860152602081519101845af461104d612186565b9161333a565b506001610ffa565b60405162461bcd60e51b815260206004820152602960248201525f5160206134f45f395f51905f526044820152681a58589b195555525160ba1b6064820152608490fd5b9091506020813d6020116110cb575b816110bb602093836120bc565b8101031261072257519085610f74565b3d91506110ae565b34610722576020366003190112610722576110ec612038565b6110f461246c565b60cd80546001600160a01b039283166001600160a01b0319821681179092559091167f8240dda544eb8ec4199e2248ad32f0b0962089fa82835994e8291bd75b5a663a5f80a3005b3461072257604036600319011261072257611155612038565b61115d61204e565b5f549060ff8260081c161591828093611540575b8015611529575b156114cd5760ff1981166001175f55826114bc575b50604092835161119d85826120bc565b601281527123b932b2b71023b7b7b2399023b0b93232b760711b60208201528451906111c986836120bc565b600382526247474760e81b60208301526111f260ff5f5460081c166111ed81612ee6565b612ee6565b8051906001600160401b0382116113dc57819061121060655461214e565b601f8111611461575b50602090601f83116001146113fb575f926113f0575b50508160011b915f199060031b1c1916176065555b8051906001600160401b0382116113dc5761126060665461214e565b601f811161138c575b50602090601f8311600114611323576112bd9392915f9183611318575b50508160011b915f199060031b1c1916176066555b6112af60ff5f5460081c166111ed81612ee6565b6112b833612f46565b612f46565b60ca80546001600160a01b0319166001600160a01b03929092169190911790556112e357005b60207f7f26b83ff96e1f2b6a682f133852f6798a09c465da95921460cefb38474024989161ff00195f54165f555160018152a1005b015190508780611286565b90601f1983169160665f52815f20925f5b81811061137457509160019391856112bd9796941061135c575b505050811b0160665561129b565b01515f1960f88460031b161c1916905587808061134e565b92936020600181928786015181550195019301611334565b60665f525f5160206133d45f395f51905f52601f840160051c810191602085106113d2575b601f0160051c01905b8181106113c75750611269565b5f81556001016113ba565b90915081906113b1565b634e487b7160e01b5f52604160045260245ffd5b01519050878061122f565b60655f9081528281209350601f198516905b8181106114495750908460019594939210611431575b505050811b01606555611244565b01515f1960f88460031b161c19169055878080611423565b9293602060018192878601518155019501930161140d565b60655f529091505f5160206133f45f395f51905f52601f840160051c810191602085106114b2575b90601f859493920160051c01905b8181106114a45750611219565b5f8155849350600101611497565b9091508190611489565b61ffff1916610101175f558361118d565b60405162461bcd60e51b815260206004820152602e60248201527f496e697469616c697a61626c653a20636f6e747261637420697320616c72656160448201526d191e481a5b9a5d1a585b1a5e995960921b6064820152608490fd5b50303b1580156111785750600160ff821614611178565b50600160ff821610611171565b34610722575f36600319011261072257602060ff60d55416604051906115728161209e565b8152f35b346107225761082b61082661158a36612064565b906040519261159a6020856120bc565b5f84526108166108118433612d09565b34610722575f3660031901126107225760cc546040516001600160a01b039091168152602090f35b34610722576020366003190112610722576001600160a01b036115f3612038565b165f5260d3602052602060405f2054604051908152f35b3461072257602036600319011261072257611623612038565b61165c7f00000000000000000000000000000000000000000000000000000000000000006001600160a01b0316610f0430821415612367565b61166461246c565b60405190602061167481846120bc565b5f8352808301601f1982013682375f5160206134145f395f51905f525460ff16156116a557505061082b9150613117565b6040516352d1902d60e01b81529192916001600160a01b038316908481600481855afa5f91816117ef575b5061171e5760405162461bcd60e51b815260048101869052602e60248201525f5160206135345f395f51905f5260448201526d6f6e206973206e6f74205555505360901b6064820152608490fd5b5f5160206134545f395f51905f52036117ab5761173a83613117565b5f5160206134b45f395f51905f525f80a28351158015906117a4575b61175c57005b5f809161082b955f5160206135145f395f51905f52604051966117806060896120bc565b60278852870152660819985a5b195960ca1b60408701525190845af461104d612186565b505f611756565b60405162461bcd60e51b815260048101859052602960248201525f5160206134f45f395f51905f526044820152681a58589b195555525160ba1b6064820152608490fd5b9091508581813d8311611817575b61180781836120bc565b81010312610722575190876116d0565b503d6117fd565b34610722575f3660031901126107225760d2546040516001600160a01b039091168152602090f35b34610722575f3660031901126107225760cd546040516001600160a01b039091168152602090f35b346107225761082b61187f36612064565b9161188d6108118433612d09565b612dd8565b34610722575f3660031901126107225760d1546040516001600160a01b039091168152602090f35b6020366003190112610722576004356001600160401b0381116107225736602382011215610722576004810135906001600160401b038211610722573660248360051b83010111610722576097546001600160a01b03163303611be7575b81158015611bdd575b611bce5760d2546001600160a01b031615611bbf5760cb546001600160a01b031615611bb05790611951816121f3565b9161195f60405193846120bc565b81835261196b826121f3565b602084019390601f190136853760c95491611986848461220a565b60c9553681900361014219019473__$22345123dcf5f39d8c23eeef107f852197$__937f0000000000000000000000000000000000000000000000000000000000000000915f5b87811015611b0f576119df818461220a565b908060051b91602483880101358b81121561072257870190611a2c6024830191611a0981336124c4565b6020818d8b604051809681948293630918575160e11b845230906004850161222b565b03915af4918215611b04575f92611ac0575b50906104f09383925f5160206134745f395f51905f52611a6185611a949761224d565b90611a6f606486018861224d565b99909560e4611a81608483018b61224d565b6104d76104ce8d60a4879597019061224d565b8751821015611aac57602060019389010152016119cd565b634e487b7160e01b5f52603260045260245ffd5b9291506020833d8211611afc575b81611adb602093836120bc565b81010312610722576104f093611af3611a9494612217565b92935093611a3e565b3d9150611ace565b6040513d5f823e3d90fd5b5086859260c954905f198201918211611b9c576040949394519283527fce282076a1439bd4b653b5657c2ab7abea5a48b4572799f57582e79e357b59f760203394a4604051918291602083019060208452518091526040830191905f5b818110611b7a575050500390f35b82516001600160a01b0316845285945060209384019390920191600101611b6c565b634e487b7160e01b5f52601160045260245ffd5b63127629f760e31b5f5260045ffd5b6309203be560e11b5f5260045ffd5b637862e95960e01b5f5260045ffd5b50600a8211611921565b60ca546001600160a01b03168015611c665760206024916040519283809262a743f760e61b82523360048301525afa5f9181611c45575b50611c325763955c501b60e01b5f5260045ffd5b6119185763955c501b60e01b5f5260045ffd5b611c5f91925060203d6020116106145761060581836120bc565b9084611c1e565b63045824e160e51b5f5260045ffd5b3461072257602036600319011261072257600435600381101561072257611c9a61246c565b611ca38161209e565b60ff801960d5541691161760d5555f80f35b3461072257604036600319011261072257611cce612038565b602435906001600160a01b03611ce38361244a565b6001600160a01b039092169116818114611dec57803314908115611dc8575b5015611d5d575f82815260696020526040902080546001600160a01b031916821790556001600160a01b03611d368361244a565b167f8c5be1e5ebec7d5bd14f71427d1e84f3dd0314c0f7b2291e5b200ac8c7c3b9255f80a4005b60405162461bcd60e51b815260206004820152603d60248201527f4552433732313a20617070726f76652063616c6c6572206973206e6f7420746f60448201527f6b656e206f776e6572206f7220617070726f76656420666f7220616c6c0000006064820152608490fd5b5f908152606a6020908152604080832033845290915290205460ff16905083611d02565b60405162461bcd60e51b815260206004820152602160248201527f4552433732313a20617070726f76616c20746f2063757272656e74206f776e656044820152603960f91b6064820152608490fd5b34610722576020366003190112610722576020610cf76004356121b5565b34610722575f36600319011261072257335f5260d360205260405f20548015611eed57335f5260d36020525f604081205560d454818103908111611b9c5760d4555f80808084335af1611eaa612186565b5015611ede576040519081527feaae3580fc1599b690a022f523f9929eab9fa49f77d801604a0e983f7cc28c3760203392a2005b631900993960e31b5f5260045ffd5b63266ce5cb60e11b5f5260045ffd5b34610722575f366003190112610722576040515f606554611f1c8161214e565b8084529060018116908115610a2f5750600114611f435761071e836109d0818503826120bc565b60655f9081525f5160206133f45f395f51905f52939250905b808210611f74575090915081016020016109d06109c0565b919260018160209254838588010152019101909291611f5c565b34610722576020366003190112610722576004359063ffffffff60e01b8216809203610722576020916380ac58cd60e01b8114908115611fe8575b8115611fd7575b5015158152f35b6301ffc9a760e01b14905083611fd0565b635b5e139f60e01b81149150611fc9565b91908251928382525f5b848110612023575050825f602080949584010152601f8019910116010190565b80602080928401015182828601015201612003565b600435906001600160a01b038216820361072257565b602435906001600160a01b038216820361072257565b6060906003190112610722576004356001600160a01b038116810361072257906024356001600160a01b0381168103610722579060443590565b600311156120a857565b634e487b7160e01b5f52602160045260245ffd5b601f909101601f19168101906001600160401b038211908210176113dc57604052565b6001600160401b0381116113dc57601f01601f191660200190565b929192612106826120df565b9161211460405193846120bc565b829481845281830111610722578281602093845f960137010152565b9080601f830112156107225781602061214b933591016120fa565b90565b90600182811c9216801561217c575b602083101461216857565b634e487b7160e01b5f52602260045260245ffd5b91607f169161215d565b3d156121b0573d90612197826120df565b916121a560405193846120bc565b82523d5f602084013e565b606090565b6121c16106e182612ff2565b5f908152606960205260409020546001600160a01b031690565b90816020910312610722575180151581036107225790565b6001600160401b0381116113dc5760051b60200190565b91908201809211611b9c57565b51906001600160a01b038216820361072257565b6001600160a01b03918216815291166020820152604081019190915260600190565b903590601e198136030182121561072257018035906001600160401b0382116107225760200191813603831361072257565b3580151581036107225790565b908060209392818452848401375f828201840152601f01601f1916010190565b97936122ef936122e1916122d36122fd999460809b99969d9e9d60a08e818152019161228c565b918b830360208d015261228c565b9188830360408a015261228c565b91858303606087015261228c565b931515910152565b1561230c57565b60405162461bcd60e51b815260206004820152602d60248201527f4552433732313a2063616c6c6572206973206e6f7420746f6b656e206f776e6560448201526c1c881bdc88185c1c1c9bdd9959609a1b6064820152608490fd5b1561236e57565b60405162461bcd60e51b815260206004820152602c60248201525f5160206134345f395f51905f5260448201526b19195b1959d85d1958d85b1b60a21b6064820152608490fd5b156123bc57565b60405162461bcd60e51b815260206004820152602c60248201525f5160206134345f395f51905f5260448201526b6163746976652070726f787960a01b6064820152608490fd5b1561240a57565b60405162461bcd60e51b8152602060048201526018602482015277115490cdcc8c4e881a5b9d985b1a59081d1bdad95b88125160421b6044820152606490fd5b5f908152606760205260409020546001600160a01b031661214b811515612403565b6097546001600160a01b0316330361248057565b606460405162461bcd60e51b815260206004820152602060248201527f4f776e61626c653a2063616c6c6572206973206e6f7420746865206f776e65726044820152fd5b604051919060206124d581856120bc565b5f84526001600160a01b03821690811561255b57918380926067612559979561250961250361082699612ff2565b156132ef565b61251561250385612ff2565b5f838152606882526040808220805460010190558582529290915290812080546001600160a01b031916831790555f5160206134d45f395f51905f528180a46131a7565b565b6064906040519062461bcd60e51b825280600483015260248201527f4552433732313a206d696e7420746f20746865207a65726f20616464726573736044820152fd5b60cb5492915f9160206125f96125b4848061224d565b60d2546040516360fac62560e01b81526001600160a01b0396871660048201819052606060248301529a90968795919486945f9486949316929160648501919061228c565b604483019190915203926001600160a01b03165af18015611b0457612cda575b5060cb546001600160a01b0316803b15610722575f8091606460405180948193633868e7e560e01b83528a6004840152336024840152600360448401525af18015611b0457612cc5575b5060cc546001600160a01b031680612bda575b5060cd546001600160a01b03168281612b77575b505060ce546001600160a01b031680612aea575b5060d05482906001600160a01b031680612aa1575b5050610100810160ff6126c582613098565b16151580612a8d575b612a24575b5060d1546001600160a01b031680151580612a0d575b61292b575b5060d2546001600160a01b0316612705828061224d565b95909160c0612717602086018661224d565b919095612727604082018261224d565b969097612737606084018461224d565b999091612747608086018661224d565b97909461276361275a60a089018961224d565b9990980161227f565b9f6040519a6101008c018c811060018060401b03821117612915576127f598956127d79560208f9e9d9c9a968f906127c8976127e69c976127ad936127b9986040525236916120fa565b9f019e8f5236916120fa565b9d60408c019e8f5236916120fa565b9c60608a019d8e5236916120fa565b956080880196875236916120fa565b9260a0860193845236916120fa565b9160c0840192835260e084019a15158b52853b1561291157604051630bc4241b60e01b81526020600482015293516001600160a01b03166024850152935161010060448501529899979892978997899788968a96889694959391929061286090610124890190611ff9565b90518782036023190160648901526128789190611ff9565b90518682036023190160848801526128909190611ff9565b90518582036023190160a48701526128a89190611ff9565b90518482036023190160c48601526128c09190611ff9565b90518382036023190160e48501526128d89190611ff9565b9051151561010483015203925af18015612906576128f4575050565b6128ff8280926120bc565b61029d5750565b6040513d84823e3d90fd5b8880fd5b5050634e487b7160e01b8f52604160045260248ffd5b612938602083018361224d565b8291923b15612a095761296d928592839260405180968194829363640ebb9560e01b845260406004850152604484019161228c565b8b6024830152039134905af191826129f0575b50506129eb5734612992575b5f6126ee565b33825260d3602052604082206129a934825461220a565b90556129b73460d45461220a565b60d4556040513481527fa3e6a8143b6c196b4feb3553d44f77ed575f89d679d7a410b07eb4aeaf973e1660203392a261298c565b61298c565b816129fa916120bc565b612a0557825f612980565b8280fd5b8480fd5b50612a1b602083018361224d565b905015156126e9565b60cf546001600160a01b031690612a3a90613098565b813b15612a8957908360ff60448294836040519586948593628a782f60e81b85528d60048601521660248401525af1612a74575b506126d3565b81612a7e916120bc565b61062a57815f612a6e565b8380fd5b5060cf546001600160a01b031615156126ce565b8190602460405180948193634450925160e01b83528a60048401525af1612aca575b82906126b3565b612ae5903d8085833e612add81836120bc565b810190613073565b612ac3565b60e08201356003811015612a895783916044839260405194859384926324e2cb2b60e11b84528b6004850152612b1f8161209e565b60248401525af11561269e573d8084833e612b3a81836120bc565b810190604081830312612a8957612b5081612217565b506020810151906001600160401b038211612a0957612b7092910161300e565b505f61269e565b612bb391612b85848061224d565b836040939293518096819582946343d2636360e11b84528d600485015260406024850152604484019161228c565b03925af1612bc2575b8261268a565b612bd5903d8085833e612add81836120bc565b612bbc565b612be4828061224d565b90919086612bf5604086018661224d565b90612c03606088018861224d565b612c1060808a018a61224d565b939094604051998a988998638ae4d28160e01b8a5260048a01523360248a01526044890160c0905260c4890190612c469261228c565b90600319888303016064890152612c5c9261228c565b90600319868303016084870152612c729261228c565b906003198483030160a4850152612c889261228c565b0381865a94602095f115612676576020813d602011612cbd575b81612caf602093836120bc565b810103126107225751612676565b3d9150612ca2565b612cd29192505f906120bc565b5f905f612663565b6020813d602011612d01575b81612cf3602093836120bc565b810103126107225751612619565b3d9150612ce6565b906001600160a01b03612d1b8261244a565b6001600160a01b0390931692168281149291908315612d5b575b508215612d4157505090565b9091506001600160a01b0390612d56906121b5565b161490565b9092505f52606a60205260405f20815f5260205260ff60405f205416915f612d35565b15612d8557565b60405162461bcd60e51b815260206004820152602560248201527f4552433732313a207472616e736665722066726f6d20696e636f72726563742060448201526437bbb732b960d91b6064820152608490fd5b90612de28361244a565b6001600160a01b038381169291612dfb91168314612d7e565b6001600160a01b0316918215612e9557612e14906130a6565b612e30816001600160a01b03612e298661244a565b1614612d7e565b5f83815260696020908152604080832080546001600160a01b03199081169091558484526068835281842080545f1901905585845281842080546001019055868452606790925282208054909116841790555f5160206134d45f395f51905f529080a4565b60405162461bcd60e51b8152602060048201526024808201527f4552433732313a207472616e7366657220746f20746865207a65726f206164646044820152637265737360e01b6064820152608490fd5b15612eed57565b60405162461bcd60e51b815260206004820152602b60248201527f496e697469616c697a61626c653a20636f6e7472616374206973206e6f74206960448201526a6e697469616c697a696e6760a81b6064820152608490fd5b609780546001600160a01b039283166001600160a01b0319821681179092559091165f5160206134945f395f51905f525f80a3565b60809060208152603260208201527f4552433732313a207472616e7366657220746f206e6f6e20455243373231526560408201527131b2b4bb32b91034b6b83632b6b2b73a32b960711b60608201520190565b15612fd557565b60405162461bcd60e51b815280612fee60048201612f7b565b0390fd5b5f908152606760205260409020546001600160a01b0316151590565b9080601f83011215610722578151613025816121f3565b9261303360405194856120bc565b81845260208085019260051b82010192831161072257602001905b82821061305b5750505090565b6020809161306884612217565b81520191019061304e565b906020828203126107225781516001600160401b0381116107225761214b920161300e565b3560ff811681036107225790565b6001600160a01b0316156125595760ff60d554166130c38161209e565b60028114613108576001906130d78161209e565b14806130f3575b6130e457565b637be07bbd60e11b5f5260045ffd5b506097546001600160a01b03163314156130de565b6336e278fd60e21b5f5260045ffd5b803b1561314c575f5160206134545f395f51905f5280546001600160a01b0319166001600160a01b0392909216919091179055565b60405162461bcd60e51b815260206004820152602d60248201527f455243313936373a206e657720696d706c656d656e746174696f6e206973206e60448201526c1bdd08184818dbdb9d1c9858dd609a1b6064820152608490fd5b91823b1561328f576131ec926020925f604051809681958294630a85bd0160e11b84523360048501528460248501526044840152608060648401526084830190611ff9565b03926001600160a01b03165af15f918161324a575b506132345761320e612186565b8051908161322f5760405162461bcd60e51b815280612fee60048201612f7b565b602001fd5b6001600160e01b031916630a85bd0160e11b1490565b9091506020813d602011613287575b81613266602093836120bc565b8101031261072257516001600160e01b03198116810361072257905f613201565b3d9150613259565b505050600190565b919290803b156132e6576131ec935f60209460405196879586948593630a85bd0160e11b855233600486015260018060a01b031660248501526044840152608060648401526084830190611ff9565b50505050600190565b156132f657565b60405162461bcd60e51b815260206004820152601c60248201527b115490cdcc8c4e881d1bdad95b88185b1c9958591e481b5a5b9d195960221b6044820152606490fd5b9192901561339c575081511561334e575090565b3b156133575790565b60405162461bcd60e51b815260206004820152601d60248201527f416464726573733a2063616c6c20746f206e6f6e2d636f6e74726163740000006044820152606490fd5b8251909150156133af5750805190602001fd5b60405162461bcd60e51b815260206004820152908190612fee906024830190611ff956fe46501879b8ca8525e8c2fd519e2fbfcfa2ebea26501294aa02cbfcfb12e943548ff97419363ffd7000167f130ef7168fbea05faf9251824ca5043f113cc6a7c74910fdfa16fed3260ed0e7147f7cc6da11a60208b5b9406d12a635614ffd914346756e6374696f6e206d7573742062652063616c6c6564207468726f75676820360894a13ba1a3210667c828492db98dca3e2076cc3735a920a3ca505d382bbcd9622e038d73e9b439c5fda047b4a8ec1f5e41816b766fcdd534c56fc90704278be0079c531659141344cd1fd0a4f28419497f9722a3daafe3b4186f6b6457e0bc7cd75a20ee27fd9adebab32041f755214dbc6bffa90cc0225b39da2e5c2d3bddf252ad1be2c89b69c2b068fc378daa952ba7f163c4a11628f55a4df523b3ef45524331393637557067726164653a20756e737570706f727465642070726f78416464726573733a206c6f772d6c6576656c2064656c65676174652063616c6c45524331393637557067726164653a206e657720696d706c656d656e74617469a164736f6c634300081c000a","linkReferences":{"src/lib/TBA.sol":{"TBALib":[{"start":1440,"length":20},{"start":6881,"length":20}]}}},"methodIdentifiers":{"actionRegistry()":"e4e39678","approve(address,uint256)":"095ea7b3","balanceOf(address)":"70a08231","batchMintGardens((string,string,string,string,string,string,bool,uint8,uint8)[])":"15f2efcc","claimENSRefund()":"077fe4c9","communityToken()":"29aa1617","cookieJarModule()":"d25d4652","deploymentRegistry()":"c6631092","ensModule()":"191d7719","failedENSRefunds(address)":"3b30eb72","gardensModule()":"72a0d6ad","getApproved(uint256)":"081812fc","hatsModule()":"b4a9c607","initialize(address,address)":"485cc955","isApprovedForAll(address,address)":"e985e9c5","karmaGAPModule()":"4026d762","mintGarden((string,string,string,string,string,string,bool,uint8,uint8))":"dc0c385b","name()":"06fdde03","octantModule()":"266f8652","owner()":"8da5cb5b","ownerOf(uint256)":"6352211e","proxiableUUID()":"52d1902d","renounceOwnership()":"715018a6","safeTransferFrom(address,address,uint256)":"42842e0e","safeTransferFrom(address,address,uint256,bytes)":"b88d4fde","setActionRegistry(address)":"ba06c176","setApprovalForAll(address,bool)":"a22cb465","setCommunityToken(address)":"8c15e6a4","setCookieJarModule(address)":"516b87d9","setDeployment(address)":"6c16ad35","setENSModule(address)":"57c6e6a4","setGardensModule(address)":"e7efdb26","setHatsModule(address)":"adcb9221","setKarmaGAPModule(address)":"d9e4aaee","setOctantModule(address)":"4c528446","setTransferRestriction(uint8)":"117ad57a","supportsInterface(bytes4)":"01ffc9a7","symbol()":"95d89b41","tokenURI(uint256)":"c87b56dd","totalPendingENSRefunds()":"83930c23","transferFrom(address,address,uint256)":"23b872dd","transferOwnership(address)":"f2fde38b","transferRestriction()":"461d338c","upgradeTo(address)":"3659cfe6","upgradeToAndCall(address,bytes)":"4f1ef286"},"id":197}