{"abi":[{"type":"constructor","inputs":[{"name":"gardenAccountImplementation","type":"address","internalType":"address"}],"stateMutability":"nonpayable"},{"type":"function","name":"actionRegistry","inputs":[],"outputs":[{"name":"","type":"address","internalType":"contract ActionRegistry"}],"stateMutability":"view"},{"type":"function","name":"approve","inputs":[{"name":"to","type":"address","internalType":"address"},{"name":"tokenId","type":"uint256","internalType":"uint256"}],"outputs":[],"stateMutability":"nonpayable"},{"type":"function","name":"balanceOf","inputs":[{"name":"owner","type":"address","internalType":"address"}],"outputs":[{"name":"","type":"uint256","internalType":"uint256"}],"stateMutability":"view"},{"type":"function","name":"batchMintGardens","inputs":[{"name":"configs","type":"tuple[]","internalType":"struct GardenToken.GardenConfig[]","components":[{"name":"name","type":"string","internalType":"string"},{"name":"slug","type":"string","internalType":"string"},{"name":"description","type":"string","internalType":"string"},{"name":"location","type":"string","internalType":"string"},{"name":"bannerImage","type":"string","internalType":"string"},{"name":"metadata","type":"string","internalType":"string"},{"name":"openJoining","type":"bool","internalType":"bool"},{"name":"weightScheme","type":"uint8","internalType":"enum IGardensModule.WeightScheme"},{"name":"domainMask","type":"uint8","internalType":"uint8"},{"name":"gardeners","type":"address[]","internalType":"address[]"},{"name":"operators","type":"address[]","internalType":"address[]"}]}],"outputs":[{"name":"gardenAccounts","type":"address[]","internalType":"address[]"}],"stateMutability":"payable"},{"type":"function","name":"claimENSRefund","inputs":[],"outputs":[],"stateMutability":"nonpayable"},{"type":"function","name":"communityToken","inputs":[],"outputs":[{"name":"","type":"address","internalType":"address"}],"stateMutability":"view"},{"type":"function","name":"cookieJarModule","inputs":[],"outputs":[{"name":"","type":"address","internalType":"contract ICookieJarModule"}],"stateMutability":"view"},{"type":"function","name":"deploymentRegistry","inputs":[],"outputs":[{"name":"","type":"address","internalType":"address"}],"stateMutability":"view"},{"type":"function","name":"ensModule","inputs":[],"outputs":[{"name":"","type":"address","internalType":"contract IGreenGoodsENS"}],"stateMutability":"view"},{"type":"function","name":"failedENSRefunds","inputs":[{"name":"minter","type":"address","internalType":"address"}],"outputs":[{"name":"amount","type":"uint256","internalType":"uint256"}],"stateMutability":"view"},{"type":"function","name":"gardensModule","inputs":[],"outputs":[{"name":"","type":"address","internalType":"contract IGardensModule"}],"stateMutability":"view"},{"type":"function","name":"getApproved","inputs":[{"name":"tokenId","type":"uint256","internalType":"uint256"}],"outputs":[{"name":"","type":"address","internalType":"address"}],"stateMutability":"view"},{"type":"function","name":"hatsModule","inputs":[],"outputs":[{"name":"","type":"address","internalType":"contract IHatsModule"}],"stateMutability":"view"},{"type":"function","name":"initialize","inputs":[{"name":"_multisig","type":"address","internalType":"address"},{"name":"_deploymentRegistry","type":"address","internalType":"address"}],"outputs":[],"stateMutability":"nonpayable"},{"type":"function","name":"isApprovedForAll","inputs":[{"name":"owner","type":"address","internalType":"address"},{"name":"operator","type":"address","internalType":"address"}],"outputs":[{"name":"","type":"bool","internalType":"bool"}],"stateMutability":"view"},{"type":"function","name":"karmaGAPModule","inputs":[],"outputs":[{"name":"","type":"address","internalType":"contract IKarmaGAPModule"}],"stateMutability":"view"},{"type":"function","name":"mintGarden","inputs":[{"name":"config","type":"tuple","internalType":"struct GardenToken.GardenConfig","components":[{"name":"name","type":"string","internalType":"string"},{"name":"slug","type":"string","internalType":"string"},{"name":"description","type":"string","internalType":"string"},{"name":"location","type":"string","internalType":"string"},{"name":"bannerImage","type":"string","internalType":"string"},{"name":"metadata","type":"string","internalType":"string"},{"name":"openJoining","type":"bool","internalType":"bool"},{"name":"weightScheme","type":"uint8","internalType":"enum IGardensModule.WeightScheme"},{"name":"domainMask","type":"uint8","internalType":"uint8"},{"name":"gardeners","type":"address[]","internalType":"address[]"},{"name":"operators","type":"address[]","internalType":"address[]"}]}],"outputs":[{"name":"","type":"address","internalType":"address"}],"stateMutability":"payable"},{"type":"function","name":"name","inputs":[],"outputs":[{"name":"","type":"string","internalType":"string"}],"stateMutability":"view"},{"type":"function","name":"octantModule","inputs":[],"outputs":[{"name":"","type":"address","internalType":"contract OctantModule"}],"stateMutability":"view"},{"type":"function","name":"openMinting","inputs":[],"outputs":[{"name":"","type":"bool","internalType":"bool"}],"stateMutability":"view"},{"type":"function","name":"owner","inputs":[],"outputs":[{"name":"","type":"address","internalType":"address"}],"stateMutability":"view"},{"type":"function","name":"ownerOf","inputs":[{"name":"tokenId","type":"uint256","internalType":"uint256"}],"outputs":[{"name":"","type":"address","internalType":"address"}],"stateMutability":"view"},{"type":"function","name":"proxiableUUID","inputs":[],"outputs":[{"name":"","type":"bytes32","internalType":"bytes32"}],"stateMutability":"view"},{"type":"function","name":"renounceOwnership","inputs":[],"outputs":[],"stateMutability":"nonpayable"},{"type":"function","name":"safeTransferFrom","inputs":[{"name":"from","type":"address","internalType":"address"},{"name":"to","type":"address","internalType":"address"},{"name":"tokenId","type":"uint256","internalType":"uint256"}],"outputs":[],"stateMutability":"nonpayable"},{"type":"function","name":"safeTransferFrom","inputs":[{"name":"from","type":"address","internalType":"address"},{"name":"to","type":"address","internalType":"address"},{"name":"tokenId","type":"uint256","internalType":"uint256"},{"name":"data","type":"bytes","internalType":"bytes"}],"outputs":[],"stateMutability":"nonpayable"},{"type":"function","name":"setActionRegistry","inputs":[{"name":"_actionRegistry","type":"address","internalType":"address"}],"outputs":[],"stateMutability":"nonpayable"},{"type":"function","name":"setApprovalForAll","inputs":[{"name":"operator","type":"address","internalType":"address"},{"name":"approved","type":"bool","internalType":"bool"}],"outputs":[],"stateMutability":"nonpayable"},{"type":"function","name":"setCommunityToken","inputs":[{"name":"_communityToken","type":"address","internalType":"address"}],"outputs":[],"stateMutability":"nonpayable"},{"type":"function","name":"setCookieJarModule","inputs":[{"name":"_cookieJarModule","type":"address","internalType":"address"}],"outputs":[],"stateMutability":"nonpayable"},{"type":"function","name":"setDeployment","inputs":[{"name":"_deploymentRegistry","type":"address","internalType":"address"}],"outputs":[],"stateMutability":"nonpayable"},{"type":"function","name":"setENSModule","inputs":[{"name":"_ensModule","type":"address","internalType":"address"}],"outputs":[],"stateMutability":"nonpayable"},{"type":"function","name":"setGardensModule","inputs":[{"name":"_gardensModule","type":"address","internalType":"address"}],"outputs":[],"stateMutability":"nonpayable"},{"type":"function","name":"setHatsModule","inputs":[{"name":"_hatsModule","type":"address","internalType":"address"}],"outputs":[],"stateMutability":"nonpayable"},{"type":"function","name":"setKarmaGAPModule","inputs":[{"name":"_karmaGAPModule","type":"address","internalType":"address"}],"outputs":[],"stateMutability":"nonpayable"},{"type":"function","name":"setOctantModule","inputs":[{"name":"_octantModule","type":"address","internalType":"address"}],"outputs":[],"stateMutability":"nonpayable"},{"type":"function","name":"setOpenMinting","inputs":[{"name":"_open","type":"bool","internalType":"bool"}],"outputs":[],"stateMutability":"nonpayable"},{"type":"function","name":"setTransferRestriction","inputs":[{"name":"_restriction","type":"uint8","internalType":"enum GardenToken.TransferRestriction"}],"outputs":[],"stateMutability":"nonpayable"},{"type":"function","name":"supportsInterface","inputs":[{"name":"interfaceId","type":"bytes4","internalType":"bytes4"}],"outputs":[{"name":"","type":"bool","internalType":"bool"}],"stateMutability":"view"},{"type":"function","name":"symbol","inputs":[],"outputs":[{"name":"","type":"string","internalType":"string"}],"stateMutability":"view"},{"type":"function","name":"tokenURI","inputs":[{"name":"tokenId","type":"uint256","internalType":"uint256"}],"outputs":[{"name":"","type":"string","internalType":"string"}],"stateMutability":"view"},{"type":"function","name":"totalPendingENSRefunds","inputs":[],"outputs":[{"name":"","type":"uint256","internalType":"uint256"}],"stateMutability":"view"},{"type":"function","name":"transferFrom","inputs":[{"name":"from","type":"address","internalType":"address"},{"name":"to","type":"address","internalType":"address"},{"name":"tokenId","type":"uint256","internalType":"uint256"}],"outputs":[],"stateMutability":"nonpayable"},{"type":"function","name":"transferOwnership","inputs":[{"name":"newOwner","type":"address","internalType":"address"}],"outputs":[],"stateMutability":"nonpayable"},{"type":"function","name":"transferRestriction","inputs":[],"outputs":[{"name":"","type":"uint8","internalType":"enum GardenToken.TransferRestriction"}],"stateMutability":"view"},{"type":"function","name":"upgradeTo","inputs":[{"name":"newImplementation","type":"address","internalType":"address"}],"outputs":[],"stateMutability":"nonpayable"},{"type":"function","name":"upgradeToAndCall","inputs":[{"name":"newImplementation","type":"address","internalType":"address"},{"name":"data","type":"bytes","internalType":"bytes"}],"outputs":[],"stateMutability":"payable"},{"type":"event","name":"ActionRegistryUpdated","inputs":[{"name":"oldRegistry","type":"address","indexed":true,"internalType":"address"},{"name":"newRegistry","type":"address","indexed":true,"internalType":"address"}],"anonymous":false},{"type":"event","name":"AdminChanged","inputs":[{"name":"previousAdmin","type":"address","indexed":false,"internalType":"address"},{"name":"newAdmin","type":"address","indexed":false,"internalType":"address"}],"anonymous":false},{"type":"event","name":"Approval","inputs":[{"name":"owner","type":"address","indexed":true,"internalType":"address"},{"name":"approved","type":"address","indexed":true,"internalType":"address"},{"name":"tokenId","type":"uint256","indexed":true,"internalType":"uint256"}],"anonymous":false},{"type":"event","name":"ApprovalForAll","inputs":[{"name":"owner","type":"address","indexed":true,"internalType":"address"},{"name":"operator","type":"address","indexed":true,"internalType":"address"},{"name":"approved","type":"bool","indexed":false,"internalType":"bool"}],"anonymous":false},{"type":"event","name":"BatchGardensMinted","inputs":[{"name":"startTokenId","type":"uint256","indexed":true,"internalType":"uint256"},{"name":"endTokenId","type":"uint256","indexed":true,"internalType":"uint256"},{"name":"minter","type":"address","indexed":true,"internalType":"address"},{"name":"count","type":"uint256","indexed":false,"internalType":"uint256"}],"anonymous":false},{"type":"event","name":"BeaconUpgraded","inputs":[{"name":"beacon","type":"address","indexed":true,"internalType":"address"}],"anonymous":false},{"type":"event","name":"CommunityTokenUpdated","inputs":[{"name":"oldToken","type":"address","indexed":true,"internalType":"address"},{"name":"newToken","type":"address","indexed":true,"internalType":"address"}],"anonymous":false},{"type":"event","name":"CookieJarModuleUpdated","inputs":[{"name":"oldModule","type":"address","indexed":true,"internalType":"address"},{"name":"newModule","type":"address","indexed":true,"internalType":"address"}],"anonymous":false},{"type":"event","name":"ENSModuleUpdated","inputs":[{"name":"oldModule","type":"address","indexed":true,"internalType":"address"},{"name":"newModule","type":"address","indexed":true,"internalType":"address"}],"anonymous":false},{"type":"event","name":"ENSRegistrationRefundClaimed","inputs":[{"name":"minter","type":"address","indexed":true,"internalType":"address"},{"name":"amount","type":"uint256","indexed":false,"internalType":"uint256"}],"anonymous":false},{"type":"event","name":"ENSRegistrationRefundQueued","inputs":[{"name":"minter","type":"address","indexed":true,"internalType":"address"},{"name":"amount","type":"uint256","indexed":false,"internalType":"uint256"}],"anonymous":false},{"type":"event","name":"GardenMinted","inputs":[{"name":"tokenId","type":"uint256","indexed":true,"internalType":"uint256"},{"name":"account","type":"address","indexed":true,"internalType":"address"},{"name":"name","type":"string","indexed":false,"internalType":"string"},{"name":"description","type":"string","indexed":false,"internalType":"string"},{"name":"location","type":"string","indexed":false,"internalType":"string"},{"name":"bannerImage","type":"string","indexed":false,"internalType":"string"},{"name":"openJoining","type":"bool","indexed":false,"internalType":"bool"}],"anonymous":false},{"type":"event","name":"GardensModuleUpdated","inputs":[{"name":"oldModule","type":"address","indexed":true,"internalType":"address"},{"name":"newModule","type":"address","indexed":true,"internalType":"address"}],"anonymous":false},{"type":"event","name":"HatsModuleUpdated","inputs":[{"name":"oldModule","type":"address","indexed":true,"internalType":"address"},{"name":"newModule","type":"address","indexed":true,"internalType":"address"}],"anonymous":false},{"type":"event","name":"Initialized","inputs":[{"name":"version","type":"uint8","indexed":false,"internalType":"uint8"}],"anonymous":false},{"type":"event","name":"KarmaGAPModuleUpdated","inputs":[{"name":"oldModule","type":"address","indexed":true,"internalType":"address"},{"name":"newModule","type":"address","indexed":true,"internalType":"address"}],"anonymous":false},{"type":"event","name":"OctantModuleUpdated","inputs":[{"name":"oldModule","type":"address","indexed":true,"internalType":"address"},{"name":"newModule","type":"address","indexed":true,"internalType":"address"}],"anonymous":false},{"type":"event","name":"OpenMintingUpdated","inputs":[{"name":"open","type":"bool","indexed":true,"internalType":"bool"}],"anonymous":false},{"type":"event","name":"OwnershipTransferred","inputs":[{"name":"previousOwner","type":"address","indexed":true,"internalType":"address"},{"name":"newOwner","type":"address","indexed":true,"internalType":"address"}],"anonymous":false},{"type":"event","name":"Transfer","inputs":[{"name":"from","type":"address","indexed":true,"internalType":"address"},{"name":"to","type":"address","indexed":true,"internalType":"address"},{"name":"tokenId","type":"uint256","indexed":true,"internalType":"uint256"}],"anonymous":false},{"type":"event","name":"Upgraded","inputs":[{"name":"implementation","type":"address","indexed":true,"internalType":"address"}],"anonymous":false},{"type":"error","name":"CommunityTokenNotConfigured","inputs":[]},{"type":"error","name":"CommunityTokenNotContract","inputs":[]},{"type":"error","name":"DeploymentNotConfigured","inputs":[]},{"type":"error","name":"ENSRefundTransferFailed","inputs":[]},{"type":"error","name":"HatsModuleNotSet","inputs":[]},{"type":"error","name":"InvalidBatchSize","inputs":[]},{"type":"error","name":"InvalidCommunityToken","inputs":[]},{"type":"error","name":"InvalidERC20Token","inputs":[]},{"type":"error","name":"NoENSRefundAvailable","inputs":[]},{"type":"error","name":"TransfersLocked","inputs":[]},{"type":"error","name":"TransfersRestricted","inputs":[]},{"type":"error","name":"UnauthorizedMinter","inputs":[]}],"bytecode":{"object":"0x60c03461013357601f61399338819003918201601f19168301916001600160401b038311848410176101375780849260209460405283398101031261013357516001600160a01b0381168103610133573060805260a0525f5460ff8160081c166100de5760ff808216036100a4575b604051613847908161014c8239608051818181610ebb0152818161100c0152611803015260a0518181816102ff0152611b520152f35b60ff90811916175f557f7f26b83ff96e1f2b6a682f133852f6798a09c465da95921460cefb3847402498602060405160ff8152a15f61006e565b60405162461bcd60e51b815260206004820152602760248201527f496e697469616c697a61626c653a20636f6e747261637420697320696e697469604482015266616c697a696e6760c81b6064820152608490fd5b5f80fd5b634e487b7160e01b5f52604160045260245ffdfe6080806040526004361015610012575f80fd5b5f905f3560e01c90816301ffc9a71461207d5750806306fdde0314611feb578063077fe4c914611f48578063081812fc14611f2a578063095ea7b314611da45780630ccba3e914611d43578063117ad57a14611d03578063191d771914611cdb578063197a818814611acc57806323b872dd14611aa8578063266f865214611a8057806329aa161714611a585780633659cfe6146117e55780633b30eb72146117ad5780634026d7621461178557806342842e0e14611751578063461d338c14611728578063485cc955146112d75780634c5284461461126e5780634f1ef28614610fd4578063516b87d914610f6b57806352d1902d14610ea957806357c6e6a414610e405780636352211e14610e105780636ba9fd3814610deb5780636c16ad3514610da857806370a0823114610d13578063715018a614610cb857806372a0d6ad14610c9057806383930c2314610c735780638c15e6a414610b7a5780638da5cb5b14610b5257806395d89b4114610a87578063a22cb465146109b9578063adcb922114610950578063b4a9c60714610928578063b88d4fde146108b2578063ba06c17614610849578063c663109214610821578063c87b56dd146107ab578063d25d465214610782578063d9e4aaee14610717578063e4e39678146106ee578063e7efdb2614610683578063e985e9c51461062b578063f2fde38b1461059a5763f4633b3f14610223575f80fd5b602036600319011261059757600435906001600160401b0382116105975736602383011215610597578160040135906001600160401b038211610597573660248360051b850101116105975761027761259d565b8115801561058d575b61057e5760d2546001600160a01b03161561056f5760cb546001600160a01b031615610560576102af82612521565b6102bc6040519182612190565b8281526102c883612521565b602082019290601f190136843760c954926102e38585612538565b60c9558173__$22345123dcf5f39d8c23eeef107f852197$__947f0000000000000000000000000000000000000000000000000000000000000000926101821989360301925b888110156104bf5761033b8184612538565b8160051b6024818d010135868112156104bb578a6103a2918e01936020816024870193610368823361266b565b604051630918575160e11b81526001600160a01b038e16600482015230602482015260448101929092529094859190829081906064820190565b03915af49283156104b0578b93610471575b506103bf82806122d7565b91906103ce60648801856122d7565b9390916103de60848a01876122d7565b90996103ed60a48201896122d7565b9160e4016103fa90612309565b92600160a01b600190038b169c8d99604051988998610419988a612336565b037fd9622e038d73e9b439c5fda047b4a8ec1f5e41816b766fcdd534c56fc907042791a36104469161277f565b885183101561045d57880160200152600101610329565b634e487b7160e01b88526032600452602488fd5b9092506020813d82116104a8575b8161048c60209383612190565b810103126104a45761049d906122c3565b915f6103b4565b8a80fd5b3d915061047f565b6040513d8d823e3d90fd5b8880fd5b508588869360c954905f19820191821161054c576040949394519283527fce282076a1439bd4b653b5657c2ab7abea5a48b4572799f57582e79e357b59f760203394a4604051928392602084019060208552518091526040840192915b81811061052a575050500390f35b82516001600160a01b031684528594506020938401939092019160010161051c565b634e487b7160e01b86526011600452602486fd5b63127629f760e31b8152600490fd5b6309203be560e11b8152600490fd5b637862e95960e01b8152600490fd5b50600a8211610280565b80fd5b5034610597576020366003190112610597576105b461210c565b6105bc612545565b6001600160a01b038116156105d7576105d4906132e1565b80f35b60405162461bcd60e51b815260206004820152602660248201527f4f776e61626c653a206e6577206f776e657220697320746865207a65726f206160448201526564647265737360d01b6064820152608490fd5b503461059757604036600319011261059757604061064761210c565b91610650612122565b9260018060a01b03168152606a602052209060018060a01b03165f52602052602060ff60405f2054166040519015158152f35b50346105975760203660031901126105975761069d61210c565b6106a5612545565b60ce80546001600160a01b039283166001600160a01b0319821681179092559091167f1c2f4d6765fbc35ee83d1598538969716facf03e15ae9183c5f99259aeb5d3318380a380f35b503461059757806003193601126105975760cf546040516001600160a01b039091168152602090f35b50346105975760203660031901126105975761073161210c565b610739612545565b60cc80546001600160a01b039283166001600160a01b0319821681179092559091167fdbf2e72ed7bd92ccbb36e552bb0c1a8df6df7e6a54ab7ddc78720975e93fc88e8380a380f35b503461059757806003193601126105975760d0546040516001600160a01b039091168152602090f35b3461081d57602036600319011261081d576004355f908152606760205260409020546107e1906001600160a01b031615156124b3565b5f6040516107f0602082612190565b52610819604051610802602082612190565b5f81526040519182916020835260208301906120e8565b0390f35b5f80fd5b3461081d575f36600319011261081d5760ca546040516001600160a01b039091168152602090f35b3461081d57602036600319011261081d5761086261210c565b61086a612545565b60cf80546001600160a01b039283166001600160a01b0319821681179092559091167fe871cbdaca3c1bd8efb9eaa48b0acffb2a54d6baac7c7b976a366265838723da5f80a3005b3461081d57608036600319011261081d576108cb61210c565b6108d3612122565b90606435906044356001600160401b03831161081d57610926936108fe610921943690600401612202565b9261091161090c8433613083565b61238f565b61091c838383613152565b61369d565b61337c565b005b3461081d575f36600319011261081d5760cb546040516001600160a01b039091168152602090f35b3461081d57602036600319011261081d5761096961210c565b610971612545565b60cb80546001600160a01b039283166001600160a01b0319821681179092559091167fc8fef5c294d0999b744f1c0123bb9e98e3e739de8245692fde6df4f4625efc505f80a3005b3461081d57604036600319011261081d576109d261210c565b6024359081151580920361081d576001600160a01b031690338214610a4257335f52606a60205260405f20825f5260205260405f2060ff1981541660ff83161790556040519081527f17307eab39ab6107e8899845ad3d59bd9653f200f220920489ca2b5937696c3160203392a3005b60405162461bcd60e51b815260206004820152601960248201527f4552433732313a20617070726f766520746f2063616c6c6572000000000000006044820152606490fd5b3461081d575f36600319011261081d576040515f606654610aa781612220565b8084529060018116908115610b2e5750600114610ae3575b61081983610acf81850382612190565b6040519182916020835260208301906120e8565b91905060665f525f5160206137db5f395f51905f52915f905b808210610b1457509091508101602001610acf610abf565b919260018160209254838588010152019101909291610afc565b60ff191660208086019190915291151560051b84019091019150610acf9050610abf565b3461081d575f36600319011261081d576097546040516001600160a01b039091168152602090f35b3461081d57602036600319011261081d57610b9361210c565b610b9b612545565b6001600160a01b038116908115610c64573b15610c55576040516318160ddd60e01b8152602081600481855afa9081610c26575b50610be3576326412d8960e21b5f5260045ffd5b60d280546001600160a01b0319811683179091556001600160a01b03167f1b5431099f08d34c1b67c3baba09da48c205d66021df446f824be5c7f86be7d55f80a3005b6020813d602011610c4d575b81610c3f60209383612190565b8101031261081d5751610bcf565b3d9150610c32565b63d0acc0d360e01b5f5260045ffd5b631a747e4f60e31b5f5260045ffd5b3461081d575f36600319011261081d57602060d454604051908152f35b3461081d575f36600319011261081d5760ce546040516001600160a01b039091168152602090f35b3461081d575f36600319011261081d57610cd0612545565b609780546001600160a01b031981169091555f906001600160a01b03167f8be0079c531659141344cd1fd0a4f28419497f9722a3daafe3b4186f6b6457e08280a3005b3461081d57602036600319011261081d576001600160a01b03610d3461210c565b168015610d51575f526068602052602060405f2054604051908152f35b60405162461bcd60e51b815260206004820152602960248201527f4552433732313a2061646472657373207a65726f206973206e6f7420612076616044820152683634b21037bbb732b960b91b6064820152608490fd5b3461081d57602036600319011261081d57610dc161210c565b610dc9612545565b60ca80546001600160a01b0319166001600160a01b0392909216919091179055005b3461081d575f36600319011261081d57602060ff60d55460081c166040519015158152f35b3461081d57602036600319011261081d576020610e2e6004356124ff565b6040516001600160a01b039091168152f35b3461081d57602036600319011261081d57610e5961210c565b610e61612545565b60d180546001600160a01b039283166001600160a01b0319821681179092559091167fb36c04cd47dc5ac0f031b7a815757f7883731343f2d3aa6dbd5c33cf369c8e165f80a3005b3461081d575f36600319011261081d577f00000000000000000000000000000000000000000000000000000000000000006001600160a01b03163003610f005760206040515f51602061381b5f395f51905f528152f35b60405162461bcd60e51b815260206004820152603860248201527f555550535570677261646561626c653a206d757374206e6f742062652063616c60448201527f6c6564207468726f7567682064656c656761746563616c6c00000000000000006064820152608490fd5b3461081d57602036600319011261081d57610f8461210c565b610f8c612545565b60d080546001600160a01b039283166001600160a01b0319821681179092559091167fb7f52c4862981bdf3d41a29cd9077644f7f34833735f8e427c70decedaa006af5f80a3005b604036600319011261081d57610fe861210c565b6024356001600160401b03811161081d57611007903690600401612202565b61105e7f00000000000000000000000000000000000000000000000000000000000000006001600160a01b0316611040308214156123f1565b5f51602061381b5f395f51905f52546001600160a01b031614612452565b611066612545565b7f4910fdfa16fed3260ed0e7147f7cc6da11a60208b5b9406d12a635614ffd91435460ff161561109a575061092690613516565b6040516352d1902d60e01b81526001600160a01b03831690602081600481855afa5f918161123a575b506111245760405162461bcd60e51b815260206004820152602e60248201527f45524331393637557067726164653a206e657720696d706c656d656e7461746960448201526d6f6e206973206e6f74205555505360901b6064820152608490fd5b5f51602061381b5f395f51905f52036111e35761114083613516565b7fbc7cd75a20ee27fd9adebab32041f755214dbc6bffa90cc0225b39da2e5c2d3b5f80a28051158015906111db575b61117557005b610926915f806040519361118a606086612190565b602785527f416464726573733a206c6f772d6c6576656c2064656c65676174652063616c6c6020860152660819985a5b195960ca1b6040860152602081519101845af46111d5612258565b91613741565b50600161116f565b60405162461bcd60e51b815260206004820152602960248201527f45524331393637557067726164653a20756e737570706f727465642070726f786044820152681a58589b195555525160ba1b6064820152608490fd5b9091506020813d602011611266575b8161125660209383612190565b8101031261081d575190856110c3565b3d9150611249565b3461081d57602036600319011261081d5761128761210c565b61128f612545565b60cd80546001600160a01b039283166001600160a01b0319821681179092559091167f8240dda544eb8ec4199e2248ad32f0b0962089fa82835994e8291bd75b5a663a5f80a3005b3461081d57604036600319011261081d576112f061210c565b6112f8612122565b5f549060ff8260081c16159182809361171b575b8015611704575b156116a85760ff1981166001175f5582611697575b5060409283516113388582612190565b601281527123b932b2b71023b7b7b2399023b0b93232b760711b60208201528451906113648683612190565b600382526247474760e81b602083015261138d60ff5f5460081c1661138881613281565b613281565b8051906001600160401b0382116115955781906113ab606554612220565b601f8111611625575b50602090601f83116001146115b4575f926115a9575b50508160011b915f199060031b1c1916176065555b8051906001600160401b038211611595576113fb606654612220565b601f811161152d575b50602090601f83116001146114b9576114589392915f91836114ae575b50508160011b915f199060031b1c1916176066555b61144a60ff5f5460081c1661138881613281565b611453336132e1565b6132e1565b60018060a01b03166001600160601b0360a01b60ca54161760ca5561147957005b60207f7f26b83ff96e1f2b6a682f133852f6798a09c465da95921460cefb38474024989161ff00195f54165f555160018152a1005b015190508780611421565b90601f1983169160665f525f5160206137db5f395f51905f52925f5b8181106115155750916001939185611458979694106114fd575b505050811b01606655611436565b01515f1960f88460031b161c191690558780806114ef565b929360206001819287860151815501950193016114d5565b60665f52601f830160051c5f5160206137db5f395f51905f52019060208410611580575b601f0160051c5f5160206137db5f395f51905f5201905b8181106115755750611404565b5f8155600101611568565b5f5160206137db5f395f51905f529150611551565b634e487b7160e01b5f52604160045260245ffd5b0151905087806113ca565b60655f9081525f5160206137fb5f395f51905f529350601f198516905b81811061160d57509084600195949392106115f5575b505050811b016065556113df565b01515f1960f88460031b161c191690558780806115e7565b929360206001819287860151815501950193016115d1565b90915060655f52601f830160051c5f5160206137fb5f395f51905f52019060208410611682575b90601f8493920160051c5f5160206137fb5f395f51905f5201905b81811061167457506113b4565b5f8155849350600101611667565b5f5160206137fb5f395f51905f52915061164c565b61ffff1916610101175f5583611328565b60405162461bcd60e51b815260206004820152602e60248201527f496e697469616c697a61626c653a20636f6e747261637420697320616c72656160448201526d191e481a5b9a5d1a585b1a5e995960921b6064820152608490fd5b50303b1580156113135750600160ff821614611313565b50600160ff82161061130c565b3461081d575f36600319011261081d57602060ff60d554166040519061174d81612172565b8152f35b3461081d5761092661092161176536612138565b9060405192611775602085612190565b5f845261091161090c8433613083565b3461081d575f36600319011261081d5760cc546040516001600160a01b039091168152602090f35b3461081d57602036600319011261081d576001600160a01b036117ce61210c565b165f5260d3602052602060405f2054604051908152f35b3461081d57602036600319011261081d576117fe61210c565b6118377f00000000000000000000000000000000000000000000000000000000000000006001600160a01b0316611040308214156123f1565b61183f612545565b60405190602061184f8184612190565b5f8352808301601f1982013682377f4910fdfa16fed3260ed0e7147f7cc6da11a60208b5b9406d12a635614ffd91435460ff16156118935750506109269150613516565b6040516352d1902d60e01b81529192916001600160a01b038316908481600481855afa5f9181611a29575b5061191f5760405162461bcd60e51b815260048101869052602e60248201527f45524331393637557067726164653a206e657720696d706c656d656e7461746960448201526d6f6e206973206e6f74205555505360901b6064820152608490fd5b5f51602061381b5f395f51905f52036119d25761193b83613516565b7fbc7cd75a20ee27fd9adebab32041f755214dbc6bffa90cc0225b39da2e5c2d3b5f80a28351158015906119cb575b61197057005b5f8091610926957f416464726573733a206c6f772d6c6576656c2064656c65676174652063616c6c604051966119a7606089612190565b60278852870152660819985a5b195960ca1b60408701525190845af46111d5612258565b505f61196a565b60405162461bcd60e51b815260048101859052602960248201527f45524331393637557067726164653a20756e737570706f727465642070726f786044820152681a58589b195555525160ba1b6064820152608490fd5b9091508581813d8311611a51575b611a418183612190565b8101031261081d575190876118be565b503d611a37565b3461081d575f36600319011261081d5760d2546040516001600160a01b039091168152602090f35b3461081d575f36600319011261081d5760cd546040516001600160a01b039091168152602090f35b3461081d57610926611ab936612138565b91611ac761090c8433613083565b613152565b602036600319011261081d576004356001600160401b03811161081d5780600401610160600319833603011261081d57611b0461259d565b60d2546001600160a01b031615611ccc5760cb546001600160a01b031615611cbd5760c954915f198314611ca9576001830160c955611b43833361266b565b604051630918575160e11b81527f00000000000000000000000000000000000000000000000000000000000000006001600160a01b03166004820152306024820152604481018490529060208260648173__$22345123dcf5f39d8c23eeef107f852197$__5af4918215611c9e575f92611c54575b6020611c44611c4c8686868a7fd9622e038d73e9b439c5fda047b4a8ec1f5e41816b766fcdd534c56fc9070427611bef85806122d7565b90611bfd60448601886122d7565b99909560c4611c0f606483018b6122d7565b611c2b611c228d608487959701906122d7565b94909301612309565b9360018060a01b038c169e8f9b604051998a998a612336565b0390a361277f565b604051908152f35b9150916020823d602011611c96575b81611c7060209383612190565b8101031261081d57602093611c4493611c8b611c4c946122c3565b935091935093611bb8565b3d9150611c63565b6040513d5f823e3d90fd5b634e487b7160e01b5f52601160045260245ffd5b63127629f760e31b5f5260045ffd5b6309203be560e11b5f5260045ffd5b3461081d575f36600319011261081d5760d1546040516001600160a01b039091168152602090f35b3461081d57602036600319011261081d57600435600381101561081d57611d28612545565b611d3181612172565b60ff801960d5541691161760d5555f80f35b3461081d57602036600319011261081d5760043580151580910361081d57611d69612545565b60d55461ff008260081b169061ff0019161760d5557f594bd7613534861bdf97b68886c7af18a901d53a08b63934eee4c9624e546b575f80a2005b3461081d57604036600319011261081d57611dbd61210c565b602435906001600160a01b03611dd2836124ff565b6001600160a01b039092169116818114611edb57803314908115611eb7575b5015611e4c575f82815260696020526040902080546001600160a01b031916821790556001600160a01b03611e25836124ff565b167f8c5be1e5ebec7d5bd14f71427d1e84f3dd0314c0f7b2291e5b200ac8c7c3b9255f80a4005b60405162461bcd60e51b815260206004820152603d60248201527f4552433732313a20617070726f76652063616c6c6572206973206e6f7420746f60448201527f6b656e206f776e6572206f7220617070726f76656420666f7220616c6c0000006064820152608490fd5b5f908152606a6020908152604080832033845290915290205460ff16905083611df1565b60405162461bcd60e51b815260206004820152602160248201527f4552433732313a20617070726f76616c20746f2063757272656e74206f776e656044820152603960f91b6064820152608490fd5b3461081d57602036600319011261081d576020610e2e600435612287565b3461081d575f36600319011261081d57335f5260d360205260405f20548015611fdc57335f5260d36020525f604081205560d454818103908111611ca95760d4555f80808084335af1611f99612258565b5015611fcd576040519081527feaae3580fc1599b690a022f523f9929eab9fa49f77d801604a0e983f7cc28c3760203392a2005b631900993960e31b5f5260045ffd5b63266ce5cb60e11b5f5260045ffd5b3461081d575f36600319011261081d576040515f60655461200b81612220565b8084529060018116908115610b2e57506001146120325761081983610acf81850382612190565b91905060655f525f5160206137fb5f395f51905f52915f905b80821061206357509091508101602001610acf610abf565b91926001816020925483858801015201910190929161204b565b3461081d57602036600319011261081d576004359063ffffffff60e01b821680920361081d576020916380ac58cd60e01b81149081156120d7575b81156120c6575b5015158152f35b6301ffc9a760e01b149050836120bf565b635b5e139f60e01b811491506120b8565b805180835260209291819084018484015e5f828201840152601f01601f1916010190565b600435906001600160a01b038216820361081d57565b602435906001600160a01b038216820361081d57565b606090600319011261081d576004356001600160a01b038116810361081d57906024356001600160a01b038116810361081d579060443590565b6003111561217c57565b634e487b7160e01b5f52602160045260245ffd5b90601f801991011681019081106001600160401b0382111761159557604052565b6001600160401b03811161159557601f01601f191660200190565b9291926121d8826121b1565b916121e66040519384612190565b82948184528183011161081d578281602093845f960137010152565b9080601f8301121561081d5781602061221d933591016121cc565b90565b90600182811c9216801561224e575b602083101461223a57565b634e487b7160e01b5f52602260045260245ffd5b91607f169161222f565b3d15612282573d90612269826121b1565b916122776040519384612190565b82523d5f602084013e565b606090565b5f818152606760205260409020546122a9906001600160a01b031615156124b3565b5f908152606960205260409020546001600160a01b031690565b51906001600160a01b038216820361081d57565b903590601e198136030182121561081d57018035906001600160401b03821161081d5760200191813603831361081d57565b35801515810361081d5790565b908060209392818452848401375f828201840152601f01601f1916010190565b97936123799361236b9161235d612387999460809b99969d9e9d60a08e8181520191612316565b918b830360208d0152612316565b9188830360408a0152612316565b918583036060870152612316565b931515910152565b1561239657565b60405162461bcd60e51b815260206004820152602d60248201527f4552433732313a2063616c6c6572206973206e6f7420746f6b656e206f776e6560448201526c1c881bdc88185c1c1c9bdd9959609a1b6064820152608490fd5b156123f857565b60405162461bcd60e51b815260206004820152602c60248201527f46756e6374696f6e206d7573742062652063616c6c6564207468726f7567682060448201526b19195b1959d85d1958d85b1b60a21b6064820152608490fd5b1561245957565b60405162461bcd60e51b815260206004820152602c60248201527f46756e6374696f6e206d7573742062652063616c6c6564207468726f7567682060448201526b6163746976652070726f787960a01b6064820152608490fd5b156124ba57565b60405162461bcd60e51b815260206004820152601860248201527f4552433732313a20696e76616c696420746f6b656e20494400000000000000006044820152606490fd5b5f908152606760205260409020546001600160a01b031661221d8115156124b3565b6001600160401b0381116115955760051b60200190565b91908201809211611ca957565b6097546001600160a01b0316330361255957565b606460405162461bcd60e51b815260206004820152602060248201527f4f776e61626c653a2063616c6c6572206973206e6f7420746865206f776e65726044820152fd5b60ff60d55460081c16612669576097546001600160a01b031633146126695760ca546001600160a01b0316801561265a5760206024916040519283809262a743f760e61b82523360048301525afa5f918161261d575b506126075763955c501b60e01b5f5260045ffd5b1561260e57565b63955c501b60e01b5f5260045ffd5b9091506020813d602011612652575b8161263960209383612190565b8101031261081d5751801515810361081d57905f6125f3565b3d915061262c565b63045824e160e51b5f5260045ffd5b565b6040519190602061267c8185612190565b5f84526001600160a01b03821690811561273c5791838092606761266997956126c46126be610921995f52606760205260018060a01b0360405f205416151590565b156136f5565b5f848152606760205260409020546126e6906001600160a01b031615156126be565b825f526068815260405f2060018154019055835f525260405f20816001600160601b0360a01b8254161790555f7fddf252ad1be2c89b69c2b068fc378daa952ba7f163c4a11628f55a4df523b3ef8180a46135ad565b6064906040519062461bcd60e51b825280600483015260248201527f4552433732313a206d696e7420746f20746865207a65726f20616464726573736044820152fd5b919060cb545f9360206127da61279585806122d7565b60d2546040516360fac62560e01b81526001600160a01b0396871660048201819052606060248301529790968795919486945f94869493169291606485019190612316565b604483019190915203926001600160a01b03165af18015611c9e57613054575b5060cb546001600160a01b0316803b1561081d575f8091606460405180948193633868e7e560e01b8352876004840152336024840152600360448401525af18015611c9e5761303f575b506101208201845b61285682856133a0565b9050811015612920578061288461287f61287085886133a0565b6001600160a01b0394916133d5565b6133f9565b16612892575b60010161284c565b60cb5486906001600160a01b03166128b761287f846128b1878a6133a0565b906133d5565b813b1561291c57604051633868e7e560e01b8152600481018790526001600160a01b039091166024820152604481018390529082908290606490829084905af1612903575b505061288a565b8161290d91612190565b61291857855f6128fc565b8580fd5b8280fd5b50506101408201845b61293382856133a0565b90508110156129db578061294d61287f61287085886133a0565b1661295b575b600101612929565b60cb5486906001600160a01b031661297a61287f846128b1878a6133a0565b813b1561291c57604051633868e7e560e01b8152600481018790526001600160a01b039091166024820152600260448201529082908290606490829084905af16129c6575b5050612953565b816129d091612190565b61291857855f6129bf565b505060cc54909391906001600160a01b031680612f54575b5060cd546001600160a01b03168281612ef1575b505060ce546001600160a01b031680612e64575b5060d05482906001600160a01b031680612e1b575b5050610100810160ff612a4282613497565b16151580612e07575b612d9a575b5060d1546001600160a01b031680151580612d83575b612ca5575b5060d2546001600160a01b0316612a8282806122d7565b95909160c0612a9460208601866122d7565b919095612aa460408201826122d7565b969097612ab460608401846122d7565b999091612ac460808601866122d7565b979094612ae0612ad760a08901896122d7565b99909801612309565b9f6040519a6101008c018c81106001600160401b03821117612c8f57612b739895612b559560208f9e9d9c9a968f90612b4697612b649c97612b2b93612b37986040525236916121cc565b9f019e8f5236916121cc565b9d60408c019e8f5236916121cc565b9c60608a019d8e5236916121cc565b956080880196875236916121cc565b9260a0860193845236916121cc565b9160c0840192835260e084019a15158b52853b156104bb57604051630bc4241b60e01b81526020600482015293516001600160a01b03166024850152935161010060448501529899979892978997899788968a968896949593919290612bde906101248901906120e8565b9051878203602319016064890152612bf691906120e8565b9051868203602319016084880152612c0e91906120e8565b90518582036023190160a4870152612c2691906120e8565b90518482036023190160c4860152612c3e91906120e8565b90518382036023190160e4850152612c5691906120e8565b9051151561010483015203925af18015612c8457612c72575050565b612c7d828092612190565b6105975750565b6040513d84823e3d90fd5b5050634e487b7160e01b8f52604160045260248ffd5b612cb260208301836122d7565b8291923b15612d7f57612ce7928592839260405180968194829363640ebb9560e01b8452604060048501526044840191612316565b8b6024830152039134905af19182612d6a575b5050612d655734612d0c575b5f612a6b565b33825260d360205260408220612d23348254612538565b9055612d313460d454612538565b60d4556040513481527fa3e6a8143b6c196b4feb3553d44f77ed575f89d679d7a410b07eb4aeaf973e1660203392a2612d06565b612d06565b81612d7491612190565b61291c57825f612cfa565b8480fd5b50612d9160208301836122d7565b90501515612a66565b60cf546001600160a01b031690612db090613497565b813b15612e0357908360ff60448294836040519586948593628a782f60e81b85528d60048601521660248401525af1612dea575b50612a50565b81612df491612190565b612dff57815f612de4565b5080fd5b8380fd5b5060cf546001600160a01b03161515612a4b565b8190602460405180948193634450925160e01b83528a60048401525af1612e44575b8290612a30565b612e5f903d8085833e612e578183612190565b810190613472565b612e3d565b60e08201356003811015612e035783916044839260405194859384926324e2cb2b60e11b84528b6004850152612e9981612172565b60248401525af115612a1b573d8084833e612eb48183612190565b810190604081830312612e0357612eca816122c3565b506020810151906001600160401b038211612d7f57612eea92910161340d565b505f612a1b565b612f2d91612eff84806122d7565b836040939293518096819582946343d2636360e11b84528d6004850152604060248501526044840191612316565b03925af1612f3c575b82612a07565b612f4f903d8085833e612e578183612190565b612f36565b612f5e82806122d7565b90919086612f6f60408601866122d7565b90612f7d60608801886122d7565b612f8a60808a018a6122d7565b939094604051998a988998638ae4d28160e01b8a5260048a01523360248a01526044890160c0905260c4890190612fc092612316565b90600319888303016064890152612fd692612316565b90600319868303016084870152612fec92612316565b906003198483030160a485015261300292612316565b0381865a94602095f1156129f3576020813d602011613037575b8161302960209383612190565b8101031261081d57516129f3565b3d915061301c565b61304c9194505f90612190565b5f925f612844565b6020813d60201161307b575b8161306d60209383612190565b8101031261081d57516127fa565b3d9150613060565b906001600160a01b03613095826124ff565b6001600160a01b03909316921682811492919083156130d5575b5082156130bb57505090565b9091506001600160a01b03906130d090612287565b161490565b9092505f52606a60205260405f20815f5260205260ff60405f205416915f6130af565b156130ff57565b60405162461bcd60e51b815260206004820152602560248201527f4552433732313a207472616e736665722066726f6d20696e636f72726563742060448201526437bbb732b960d91b6064820152608490fd5b9061315c836124ff565b6001600160a01b038381169291613175911683146130f8565b6001600160a01b03169182156132305761318e906134a5565b6131aa816001600160a01b036131a3866124ff565b16146130f8565b825f52606960205260405f206001600160601b0360a01b8154169055805f52606860205260405f205f198154019055815f52606860205260405f2060018154019055825f52606760205260405f20826001600160601b0360a01b8254161790557fddf252ad1be2c89b69c2b068fc378daa952ba7f163c4a11628f55a4df523b3ef5f80a4565b60405162461bcd60e51b8152602060048201526024808201527f4552433732313a207472616e7366657220746f20746865207a65726f206164646044820152637265737360e01b6064820152608490fd5b1561328857565b60405162461bcd60e51b815260206004820152602b60248201527f496e697469616c697a61626c653a20636f6e7472616374206973206e6f74206960448201526a6e697469616c697a696e6760a81b6064820152608490fd5b609780546001600160a01b039283166001600160a01b0319821681179092559091167f8be0079c531659141344cd1fd0a4f28419497f9722a3daafe3b4186f6b6457e05f80a3565b60809060208152603260208201527f4552433732313a207472616e7366657220746f206e6f6e20455243373231526560408201527131b2b4bb32b91034b6b83632b6b2b73a32b960711b60608201520190565b1561338357565b60405162461bcd60e51b81528061339c60048201613329565b0390fd5b903590601e198136030182121561081d57018035906001600160401b03821161081d57602001918160051b3603831361081d57565b91908110156133e55760051b0190565b634e487b7160e01b5f52603260045260245ffd5b356001600160a01b038116810361081d5790565b9080601f8301121561081d57815161342481612521565b926134326040519485612190565b81845260208085019260051b82010192831161081d57602001905b82821061345a5750505090565b60208091613467846122c3565b81520191019061344d565b9060208282031261081d5781516001600160401b03811161081d5761221d920161340d565b3560ff8116810361081d5790565b6001600160a01b0316156126695760ff60d554166134c281612172565b60028114613507576001906134d681612172565b14806134f2575b6134e357565b637be07bbd60e11b5f5260045ffd5b506097546001600160a01b03163314156134dd565b6336e278fd60e21b5f5260045ffd5b803b156135525760018060a01b03166001600160601b0360a01b5f51602061381b5f395f51905f525416175f51602061381b5f395f51905f5255565b60405162461bcd60e51b815260206004820152602d60248201527f455243313936373a206e657720696d706c656d656e746174696f6e206973206e60448201526c1bdd08184818dbdb9d1c9858dd609a1b6064820152608490fd5b91823b15613695576135f2926020925f604051809681958294630a85bd0160e11b845233600485015284602485015260448401526080606484015260848301906120e8565b03926001600160a01b03165af15f9181613650575b5061363a57613614612258565b805190816136355760405162461bcd60e51b81528061339c60048201613329565b602001fd5b6001600160e01b031916630a85bd0160e11b1490565b9091506020813d60201161368d575b8161366c60209383612190565b8101031261081d57516001600160e01b03198116810361081d57905f613607565b3d915061365f565b505050600190565b919290803b156136ec576135f2935f60209460405196879586948593630a85bd0160e11b855233600486015260018060a01b0316602485015260448401526080606484015260848301906120e8565b50505050600190565b156136fc57565b60405162461bcd60e51b815260206004820152601c60248201527f4552433732313a20746f6b656e20616c7265616479206d696e746564000000006044820152606490fd5b919290156137a35750815115613755575090565b3b1561375e5790565b60405162461bcd60e51b815260206004820152601d60248201527f416464726573733a2063616c6c20746f206e6f6e2d636f6e74726163740000006044820152606490fd5b8251909150156137b65750805190602001fd5b60405162461bcd60e51b81526020600482015290819061339c9060248301906120e856fe46501879b8ca8525e8c2fd519e2fbfcfa2ebea26501294aa02cbfcfb12e943548ff97419363ffd7000167f130ef7168fbea05faf9251824ca5043f113cc6a7c7360894a13ba1a3210667c828492db98dca3e2076cc3735a920a3ca505d382bbca164736f6c634300081c000a","linkReferences":{"src/lib/TBA.sol":{"TBALib":[{"start":1077,"length":20},{"start":7393,"length":20}]}}},"methodIdentifiers":{"actionRegistry()":"e4e39678","approve(address,uint256)":"095ea7b3","balanceOf(address)":"70a08231","batchMintGardens((string,string,string,string,string,string,bool,uint8,uint8,address[],address[])[])":"f4633b3f","claimENSRefund()":"077fe4c9","communityToken()":"29aa1617","cookieJarModule()":"d25d4652","deploymentRegistry()":"c6631092","ensModule()":"191d7719","failedENSRefunds(address)":"3b30eb72","gardensModule()":"72a0d6ad","getApproved(uint256)":"081812fc","hatsModule()":"b4a9c607","initialize(address,address)":"485cc955","isApprovedForAll(address,address)":"e985e9c5","karmaGAPModule()":"4026d762","mintGarden((string,string,string,string,string,string,bool,uint8,uint8,address[],address[]))":"197a8188","name()":"06fdde03","octantModule()":"266f8652","openMinting()":"6ba9fd38","owner()":"8da5cb5b","ownerOf(uint256)":"6352211e","proxiableUUID()":"52d1902d","renounceOwnership()":"715018a6","safeTransferFrom(address,address,uint256)":"42842e0e","safeTransferFrom(address,address,uint256,bytes)":"b88d4fde","setActionRegistry(address)":"ba06c176","setApprovalForAll(address,bool)":"a22cb465","setCommunityToken(address)":"8c15e6a4","setCookieJarModule(address)":"516b87d9","setDeployment(address)":"6c16ad35","setENSModule(address)":"57c6e6a4","setGardensModule(address)":"e7efdb26","setHatsModule(address)":"adcb9221","setKarmaGAPModule(address)":"d9e4aaee","setOctantModule(address)":"4c528446","setOpenMinting(bool)":"0ccba3e9","setTransferRestriction(uint8)":"117ad57a","supportsInterface(bytes4)":"01ffc9a7","symbol()":"95d89b41","tokenURI(uint256)":"c87b56dd","totalPendingENSRefunds()":"83930c23","transferFrom(address,address,uint256)":"23b872dd","transferOwnership(address)":"f2fde38b","transferRestriction()":"461d338c","upgradeTo(address)":"3659cfe6","upgradeToAndCall(address,bytes)":"4f1ef286"},"id":62}