{"abi":[{"type":"constructor","inputs":[{"name":"gardenAccountImplementation","type":"address","internalType":"address"}],"stateMutability":"nonpayable"},{"type":"function","name":"approve","inputs":[{"name":"to","type":"address","internalType":"address"},{"name":"tokenId","type":"uint256","internalType":"uint256"}],"outputs":[],"stateMutability":"nonpayable"},{"type":"function","name":"balanceOf","inputs":[{"name":"owner","type":"address","internalType":"address"}],"outputs":[{"name":"","type":"uint256","internalType":"uint256"}],"stateMutability":"view"},{"type":"function","name":"batchMintGardens","inputs":[{"name":"configs","type":"tuple[]","internalType":"struct GardenToken.GardenConfig[]","components":[{"name":"communityToken","type":"address","internalType":"address"},{"name":"name","type":"string","internalType":"string"},{"name":"description","type":"string","internalType":"string"},{"name":"location","type":"string","internalType":"string"},{"name":"bannerImage","type":"string","internalType":"string"},{"name":"metadata","type":"string","internalType":"string"},{"name":"openJoining","type":"bool","internalType":"bool"},{"name":"gardeners","type":"address[]","internalType":"address[]"},{"name":"gardenOperators","type":"address[]","internalType":"address[]"}]}],"outputs":[{"name":"gardenAccounts","type":"address[]","internalType":"address[]"}],"stateMutability":"nonpayable"},{"type":"function","name":"deploymentRegistry","inputs":[],"outputs":[{"name":"","type":"address","internalType":"address"}],"stateMutability":"view"},{"type":"function","name":"getApproved","inputs":[{"name":"tokenId","type":"uint256","internalType":"uint256"}],"outputs":[{"name":"","type":"address","internalType":"address"}],"stateMutability":"view"},{"type":"function","name":"initialize","inputs":[{"name":"_multisig","type":"address","internalType":"address"},{"name":"_deploymentRegistry","type":"address","internalType":"address"}],"outputs":[],"stateMutability":"nonpayable"},{"type":"function","name":"isApprovedForAll","inputs":[{"name":"owner","type":"address","internalType":"address"},{"name":"operator","type":"address","internalType":"address"}],"outputs":[{"name":"","type":"bool","internalType":"bool"}],"stateMutability":"view"},{"type":"function","name":"mintGarden","inputs":[{"name":"config","type":"tuple","internalType":"struct GardenToken.GardenConfig","components":[{"name":"communityToken","type":"address","internalType":"address"},{"name":"name","type":"string","internalType":"string"},{"name":"description","type":"string","internalType":"string"},{"name":"location","type":"string","internalType":"string"},{"name":"bannerImage","type":"string","internalType":"string"},{"name":"metadata","type":"string","internalType":"string"},{"name":"openJoining","type":"bool","internalType":"bool"},{"name":"gardeners","type":"address[]","internalType":"address[]"},{"name":"gardenOperators","type":"address[]","internalType":"address[]"}]}],"outputs":[{"name":"","type":"address","internalType":"address"}],"stateMutability":"nonpayable"},{"type":"function","name":"name","inputs":[],"outputs":[{"name":"","type":"string","internalType":"string"}],"stateMutability":"view"},{"type":"function","name":"owner","inputs":[],"outputs":[{"name":"","type":"address","internalType":"address"}],"stateMutability":"view"},{"type":"function","name":"ownerOf","inputs":[{"name":"tokenId","type":"uint256","internalType":"uint256"}],"outputs":[{"name":"","type":"address","internalType":"address"}],"stateMutability":"view"},{"type":"function","name":"proxiableUUID","inputs":[],"outputs":[{"name":"","type":"bytes32","internalType":"bytes32"}],"stateMutability":"view"},{"type":"function","name":"renounceOwnership","inputs":[],"outputs":[],"stateMutability":"nonpayable"},{"type":"function","name":"safeTransferFrom","inputs":[{"name":"from","type":"address","internalType":"address"},{"name":"to","type":"address","internalType":"address"},{"name":"tokenId","type":"uint256","internalType":"uint256"}],"outputs":[],"stateMutability":"nonpayable"},{"type":"function","name":"safeTransferFrom","inputs":[{"name":"from","type":"address","internalType":"address"},{"name":"to","type":"address","internalType":"address"},{"name":"tokenId","type":"uint256","internalType":"uint256"},{"name":"data","type":"bytes","internalType":"bytes"}],"outputs":[],"stateMutability":"nonpayable"},{"type":"function","name":"setApprovalForAll","inputs":[{"name":"operator","type":"address","internalType":"address"},{"name":"approved","type":"bool","internalType":"bool"}],"outputs":[],"stateMutability":"nonpayable"},{"type":"function","name":"setDeploymentRegistry","inputs":[{"name":"_deploymentRegistry","type":"address","internalType":"address"}],"outputs":[],"stateMutability":"nonpayable"},{"type":"function","name":"supportsInterface","inputs":[{"name":"interfaceId","type":"bytes4","internalType":"bytes4"}],"outputs":[{"name":"","type":"bool","internalType":"bool"}],"stateMutability":"view"},{"type":"function","name":"symbol","inputs":[],"outputs":[{"name":"","type":"string","internalType":"string"}],"stateMutability":"view"},{"type":"function","name":"tokenURI","inputs":[{"name":"tokenId","type":"uint256","internalType":"uint256"}],"outputs":[{"name":"","type":"string","internalType":"string"}],"stateMutability":"view"},{"type":"function","name":"transferFrom","inputs":[{"name":"from","type":"address","internalType":"address"},{"name":"to","type":"address","internalType":"address"},{"name":"tokenId","type":"uint256","internalType":"uint256"}],"outputs":[],"stateMutability":"nonpayable"},{"type":"function","name":"transferOwnership","inputs":[{"name":"newOwner","type":"address","internalType":"address"}],"outputs":[],"stateMutability":"nonpayable"},{"type":"function","name":"upgradeTo","inputs":[{"name":"newImplementation","type":"address","internalType":"address"}],"outputs":[],"stateMutability":"nonpayable"},{"type":"function","name":"upgradeToAndCall","inputs":[{"name":"newImplementation","type":"address","internalType":"address"},{"name":"data","type":"bytes","internalType":"bytes"}],"outputs":[],"stateMutability":"payable"},{"type":"event","name":"AdminChanged","inputs":[{"name":"previousAdmin","type":"address","indexed":false,"internalType":"address"},{"name":"newAdmin","type":"address","indexed":false,"internalType":"address"}],"anonymous":false},{"type":"event","name":"Approval","inputs":[{"name":"owner","type":"address","indexed":true,"internalType":"address"},{"name":"approved","type":"address","indexed":true,"internalType":"address"},{"name":"tokenId","type":"uint256","indexed":true,"internalType":"uint256"}],"anonymous":false},{"type":"event","name":"ApprovalForAll","inputs":[{"name":"owner","type":"address","indexed":true,"internalType":"address"},{"name":"operator","type":"address","indexed":true,"internalType":"address"},{"name":"approved","type":"bool","indexed":false,"internalType":"bool"}],"anonymous":false},{"type":"event","name":"BatchGardensMinted","inputs":[{"name":"startTokenId","type":"uint256","indexed":true,"internalType":"uint256"},{"name":"endTokenId","type":"uint256","indexed":true,"internalType":"uint256"},{"name":"minter","type":"address","indexed":true,"internalType":"address"},{"name":"count","type":"uint256","indexed":false,"internalType":"uint256"}],"anonymous":false},{"type":"event","name":"BeaconUpgraded","inputs":[{"name":"beacon","type":"address","indexed":true,"internalType":"address"}],"anonymous":false},{"type":"event","name":"GardenMinted","inputs":[{"name":"tokenId","type":"uint256","indexed":true,"internalType":"uint256"},{"name":"account","type":"address","indexed":true,"internalType":"address"},{"name":"name","type":"string","indexed":false,"internalType":"string"},{"name":"description","type":"string","indexed":false,"internalType":"string"},{"name":"location","type":"string","indexed":false,"internalType":"string"},{"name":"bannerImage","type":"string","indexed":false,"internalType":"string"},{"name":"openJoining","type":"bool","indexed":false,"internalType":"bool"},{"name":"gardeners","type":"address[]","indexed":false,"internalType":"address[]"},{"name":"operators","type":"address[]","indexed":false,"internalType":"address[]"}],"anonymous":false},{"type":"event","name":"Initialized","inputs":[{"name":"version","type":"uint8","indexed":false,"internalType":"uint8"}],"anonymous":false},{"type":"event","name":"OwnershipTransferred","inputs":[{"name":"previousOwner","type":"address","indexed":true,"internalType":"address"},{"name":"newOwner","type":"address","indexed":true,"internalType":"address"}],"anonymous":false},{"type":"event","name":"Transfer","inputs":[{"name":"from","type":"address","indexed":true,"internalType":"address"},{"name":"to","type":"address","indexed":true,"internalType":"address"},{"name":"tokenId","type":"uint256","indexed":true,"internalType":"uint256"}],"anonymous":false},{"type":"event","name":"Upgraded","inputs":[{"name":"implementation","type":"address","indexed":true,"internalType":"address"}],"anonymous":false},{"type":"error","name":"CommunityTokenNotContract","inputs":[]},{"type":"error","name":"DeploymentRegistryNotConfigured","inputs":[]},{"type":"error","name":"InvalidBatchSize","inputs":[]},{"type":"error","name":"InvalidCommunityToken","inputs":[]},{"type":"error","name":"InvalidERC20Token","inputs":[]},{"type":"error","name":"TooManyGardeners","inputs":[]},{"type":"error","name":"TooManyOperators","inputs":[]},{"type":"error","name":"UnauthorizedMinter","inputs":[]}],"bytecode":{"object":"0x60c03461013357601f612c0a38819003918201601f19168301916001600160401b038311848410176101375780849260209460405283398101031261013357516001600160a01b0381168103610133573060805260a0525f5460ff8160081c166100de5760ff808216036100a4575b604051612abe908161014c8239608051818181610f840152818161106d01526116b2015260a05181818161031c0152610af90152f35b60ff90811916175f557f7f26b83ff96e1f2b6a682f133852f6798a09c465da95921460cefb3847402498602060405160ff8152a15f61006e565b60405162461bcd60e51b815260206004820152602760248201527f496e697469616c697a61626c653a20636f6e747261637420697320696e697469604482015266616c697a696e6760c81b6064820152608490fd5b5f80fd5b634e487b7160e01b5f52604160045260245ffdfe610140806040526004361015610013575f80fd5b5f3560e01c90816301ffc9a714611a905750806306fdde0314611a05578063081812fc146119e7578063095ea7b31461187357806314902ad31461183057806323b872dd1461180c5780633659cfe61461168d57806342842e0e1461165b578063485cc955146112755780634f1ef2861461102f57806352d1902d14610f7257806360a3c73f14610a255780636352211e146109f557806370a0823114610960578063715018a6146109185780638da5cb5b146108f057806395d89b4114610830578063a22cb46514610766578063b88d4fde146106f2578063bf645f261461028e578063c663109214610266578063c87b56dd1461020a578063e985e9c5146101b85763f2fde38b14610125575f80fd5b346101b45760203660031901126101b45761013e611b39565b610146612201565b6001600160a01b038116156101605761015e90612476565b005b60405162461bcd60e51b815260206004820152602660248201527f4f776e61626c653a206e6577206f776e657220697320746865207a65726f206160448201526564647265737360d01b6064820152608490fd5b5f80fd5b346101b45760403660031901126101b4576101d1611b39565b6101d9611b4f565b9060018060a01b038091165f52606a60205260405f2091165f52602052602060ff60405f2054166040519015158152f35b346101b45760203660031901126101b45761022e610229600435612693565b612198565b5f60405161023b81611bdd565b5261026260405161024b81611bdd565b5f8152604051918291602083526020830190611afb565b0390f35b346101b4575f3660031901126101b45760ca546040516001600160a01b039091168152602090f35b346101b4576003196020368201126101b4576001600160401b03600435116101b45761012090600435360301126101b4576097546001600160a01b0316330361064b575b6102e86102e3600435600401611ea7565b6124ab565b60c9545f198114610637576001810160c9556103048133612549565b604051630918575160e11b81526020818061034485307f000000000000000000000000000000000000000000000000000000000000000060048501611f33565b038173__$22345123dcf5f39d8c23eeef107f852197$__5af480156105fb575f608052610606575b5061037f60048035602481019101611f55565b9060e052906004356044016004356004019061039a91611f55565b6103ac60048035606481019101611f55565b9092906103c160048035608481019101611f55565b9091906103d260c460043501611f87565b906103e56004803560e481019101611ebb565b9290916103fb6004803561010481019101611ebb565b9690956040519a8b9a8b9a600160a01b60019003608051169f60e0516104209d611ff7565b035f805160206129f283398151915291a361043e6004803501611ea7565b61045060048035602481019101611f55565b60c05261046560048035604481019101611f55565b9061047860048035606481019101611f55565b9061048b60048035608481019101611f55565b9061049e6004803560a481019101611f55565b92909360043560c4016104b090611f87565b956104c36004803560e481019101611ebb565b98909960043561010401600435600401906104dd91611ebb565b9c909d60405160a05260a0516104f290611bae565b600160a01b600190031660a051523660c05161050d92611c6c565b60a05160200152369061051f92611c6c565b60a05160400152369061053192611c6c565b60a05160600152369061054392611c6c565b60a05160800152369061055592611c6c565b60a05160a00152151560a05160c00152369061057092612072565b60a05160e00152369061058292612072565b60a05161010001526080516001600160a01b03163b156101b4576040516359ec380160e01b81525f81806105bb60a051600483016120c8565b03818360018060a01b03608051165af180156105fb576105ec575b6040516080516001600160a01b03168152602090f35b6105f590611bca565b806105d6565b6040513d5f823e3d90fd5b6106279060203d602011610630575b61061f8183611c2e565b810190611f14565b6080528161036c565b503d610615565b634e487b7160e01b5f52601160045260245ffd5b60ca546001600160a01b031680156106e05760206024916040519283809262a743f760e61b82523360048301525afa5f91816106af575b506106995760405163955c501b60e01b8152600490fd5b6102d25760405163955c501b60e01b8152600490fd5b6106d291925060203d6020116106d9575b6106ca8183611c2e565b810190611e58565b9082610682565b503d6106c0565b604051631db3a6cb60e11b8152600490fd5b346101b45760803660031901126101b45761070b611b39565b610713611b4f565b90606435906044356001600160401b0383116101b45761015e9361073e610761943690600401611ca2565b9261075161074c8433612259565b611d5a565b61075c83838361231d565b612859565b61266f565b346101b45760403660031901126101b45761077f611b39565b602435908115158092036101b4576001600160a01b0316903382146107ef57335f52606a60205260405f20825f5260205260405f2060ff1981541660ff83161790556040519081527f17307eab39ab6107e8899845ad3d59bd9653f200f220920489ca2b5937696c3160203392a3005b60405162461bcd60e51b815260206004820152601960248201527822a9219b99189d1030b8383937bb32903a379031b0b63632b960391b6044820152606490fd5b346101b4575f3660031901126101b4576040516066545f8261085183611cfc565b91828252602093600190856001821691825f146108d0575050600114610893575b5061087f92500383611c2e565b610262604051928284938452830190611afb565b84915060665f52815f20905f915b8583106108b857505061087f935082010185610872565b805483890185015287945086939092019181016108a1565b60ff19168582015261087f95151560051b85010192508791506108729050565b346101b4575f3660031901126101b4576097546040516001600160a01b039091168152602090f35b346101b4575f3660031901126101b457610930612201565b609780546001600160a01b031981169091555f906001600160a01b03165f80516020612a328339815191528280a3005b346101b45760203660031901126101b4576001600160a01b03610981611b39565b16801561099e575f526068602052602060405f2054604051908152f35b60405162461bcd60e51b815260206004820152602960248201527f4552433732313a2061646472657373207a65726f206973206e6f7420612076616044820152683634b21037bbb732b960b91b6064820152608490fd5b346101b45760203660031901126101b4576020610a136004356121df565b6040516001600160a01b039091168152f35b346101b45760203660031901126101b4576001600160401b036004358181116101b457366023820112156101b45780600401359182116101b45760249160248201600592602436918460051b0101116101b4576097546001600160a01b03163303610eed575b81158015610ee3575b610ed1575f5b828110610e4c5750610aab82611ef0565b92610ab96040519485611c2e565b828452601f19610ac884611ef0565b0136602086013760c95494610add8487611f07565b60c9555f73__$22345123dcf5f39d8c23eeef107f852197$__937f0000000000000000000000000000000000000000000000000000000000000000915b868110610b765788888860c9545f19810190811161063757610262936040519283527fce282076a1439bd4b653b5657c2ab7abea5a48b4572799f57582e79e357b59f760203394a4604051918291602083526020830190611cc0565b610b80818a611f07565b610b8b828985611e70565b610b958233612549565b604051630918575160e11b81529160208380610bb684308b60048501611f33565b03818c5af49283156105fb575f93610e2b575b50610bd76020830183611f55565b90610120529060408301610beb9084611f55565b9085610bfa6060870187611f55565b90610c086080890189611f55565b90610c1560c08b01611f87565b610c2260e08c018c611ebb565b939092610c336101008e018e611ebb565b9790966040519b8c9b8c9b600160a01b60019003169f61012051610c569d611ff7565b035f805160206129f283398151915291a3610c7081611ea7565b90610c7e6020820182611f55565b9190610c8d6040830183611f55565b90610c9b6060850185611f55565b90610ca96080870187611f55565b9091610cb860a0890189611f55565b94909560c08a01610cc890611f87565b97610cd660e08c018c611ebb565b9a909b6101008101610ce791611ebb565b9d909e6040516101005261010051610cfe90611bae565b600160a01b600190031661010051523690610d1892611c6c565b61010051602001523690610d2b92611c6c565b61010051604001523690610d3e92611c6c565b61010051606001523690610d5192611c6c565b61010051608001523690610d6492611c6c565b6101005160a0015215156101005160c001523690610d8192612072565b6101005160e001523690610d9492612072565b610100805101526001600160a01b0381163b156101b4576040516359ec380160e01b81525f8180610dcb61010051600483016120c8565b0381836001600160a01b0387165af180156105fb57610e1c575b508851821015610e09576001600160a01b031681861b890160200152600101610b1a565b84634e487b7160e01b5f5260326004525ffd5b610e2590611bca565b8a610de5565b610e4591935060203d6020116106305761061f8183611c2e565b918c610bc9565b610e626102e3610e5d838686611e70565b611ea7565b610e7a610e70828585611e70565b60e0810190611ebb565b90506064809111610ebf57610e9e610e93838686611e70565b610100810190611ebb565b905011610ead57600101610a9a565b604051636055dca160e01b8152600490fd5b604051636bd3434560e11b8152600490fd5b604051637862e95960e01b8152600490fd5b50600a8211610a94565b60ca546001600160a01b031680156106e05760206024916040519283809262a743f760e61b82523360048301525afa5f9181610f51575b50610f3b5760405163955c501b60e01b8152600490fd5b610a8b5760405163955c501b60e01b8152600490fd5b610f6b91925060203d6020116106d9576106ca8183611c2e565b9086610f24565b346101b4575f3660031901126101b4577f00000000000000000000000000000000000000000000000000000000000000006001600160a01b03163003610fc95760206040515f80516020612a128339815191528152f35b60405162461bcd60e51b815260206004820152603860248201527f555550535570677261646561626c653a206d757374206e6f742062652063616c6044820152771b1959081d1a1c9bdd59da0819195b1959d85d1958d85b1b60421b6064820152608490fd5b60403660031901126101b457611043611b39565b6024356001600160401b0381116101b457611062903690600401611ca2565b906001600160a01b037f000000000000000000000000000000000000000000000000000000000000000081169061109b30831415611dbc565b6110b75f80516020612a12833981519152928284541614611e0a565b6110bf612201565b5f805160206129b28339815191525460ff16156110e257505061015e91506126af565b6040516352d1902d60e01b81526020939291831691908481600481865afa5f9181611246575b506111565760405162461bcd60e51b815260048101869052602e60248201525f80516020612a9283398151915260448201526d6f6e206973206e6f74205555505360901b6064820152608490fd5b036111ef57611164826126af565b5f80516020612a528339815191525f80a28251158015906111e7575b61118657005b5f8061015e946040519461119986611bf8565b602786527f416464726573733a206c6f772d6c6576656c2064656c65676174652063616c6c81870152660819985a5b195960ca1b604087015281519101845af46111e161273e565b91612918565b506001611180565b60405162461bcd60e51b815260048101849052602960248201527f45524331393637557067726164653a20756e737570706f727465642070726f786044820152681a58589b195555525160ba1b6064820152608490fd5b9091508581813d831161126e575b61125e8183611c2e565b810103126101b457519087611108565b503d611254565b346101b45760403660031901126101b45761128e611b39565b611296611b4f565b905f549160ff8360081c16159081809261164e575b8015611637575b156115db57600193828560ff198316175f556115ca575b50604051926112d784611c13565b601284526020937123b932b2b71023b7b7b2399023b0b93232b760711b858201526040519061130582611c13565b600382526247474760e81b8683015261132d60ff5f5460081c1661132881612416565b612416565b80516001600160401b0392908381116114fb578061134c606554611cfc565b93601f9485811161157b575b50899085831160011461151a575f9261150f575b50505f19600383901b1c191690891b176065555b80519283116114fb57611394606654611cfc565b8281116114b7575b5086918311600114611451576113ec9392915f9183611446575b50505f19600383901b1c191690871b176066555b6113de60ff5f5460081c1661132881612416565b6113e733612476565b612476565b60ca80546001600160a01b0319166001600160a01b039290921691909117905561141257005b7f7f26b83ff96e1f2b6a682f133852f6798a09c465da95921460cefb38474024989161ff00195f54165f55604051908152a1005b0151905088806113b6565b92918791601f1982169060665f52885f20915f5b8a8282106114a157505095836113ec9710611489575b505050811b016066556113ca565b01515f1960f88460031b161c1916905588808061147b565b8389015185558c96909401939283019201611465565b60665f52875f208380860160051c8201928a87106114f2575b0160051c019089905b8281106114e757505061139c565b5f81550189906114d9565b925081926114d0565b634e487b7160e01b5f52604160045260245ffd5b015190508a8061136c565b908b9350601f1983169160655f528b5f20925f5b8d828210611565575050841161154d575b505050811b01606555611380565b01515f1960f88460031b161c191690558a808061153f565b8385015186558f9790950194938401930161152e565b90915060655f52895f208580850160051c8201928c86106115c1575b918d91869594930160051c01915b8281106115b3575050611358565b5f81558594508d91016115a5565b92508192611597565b61ffff1916610101175f55846112c9565b60405162461bcd60e51b815260206004820152602e60248201527f496e697469616c697a61626c653a20636f6e747261637420697320616c72656160448201526d191e481a5b9a5d1a585b1a5e995960921b6064820152608490fd5b50303b1580156112b25750600160ff8516146112b2565b50600160ff8516106112ab565b346101b45761015e61076161166f36611b79565b906040519261167d84611bdd565b5f845261075161074c8433612259565b346101b4576020806003193601126101b4576116a7611b39565b6001600160a01b03917f000000000000000000000000000000000000000000000000000000000000000083166116df30821415611dbc565b6116fb5f80516020612a12833981519152918583541614611e0a565b611703612201565b6040519361171085611bdd565b5f85525f805160206129b28339815191525460ff16156117375750505061015e91506126af565b83929316906040516352d1902d60e01b81528481600481865afa5f91816117dd575b506117a75760405162461bcd60e51b815260048101869052602e60248201525f80516020612a9283398151915260448201526d6f6e206973206e6f74205555505360901b6064820152608490fd5b036111ef576117b5826126af565b5f80516020612a528339815191525f80a28251158015906117d65761118657005b505f611180565b9091508581813d8311611805575b6117f58183611c2e565b810103126101b457519087611759565b503d6117eb565b346101b45761015e61181d36611b79565b9161182b61074c8433612259565b61231d565b346101b45760203660031901126101b457611849611b39565b611851612201565b60ca80546001600160a01b0319166001600160a01b0392909216919091179055005b346101b45760403660031901126101b45761188c611b39565b602435906001600160a01b0380806118a3856121df565b1692169180831461199857803314908115611977575b501561190c575f83815260696020526040902080546001600160a01b031916831790556118e5836121df565b167f8c5be1e5ebec7d5bd14f71427d1e84f3dd0314c0f7b2291e5b200ac8c7c3b9255f80a4005b60405162461bcd60e51b815260206004820152603d60248201527f4552433732313a20617070726f76652063616c6c6572206973206e6f7420746f60448201527f6b656e206f776e6572206f7220617070726f76656420666f7220616c6c0000006064820152608490fd5b90505f52606a60205260405f20335f5260205260ff60405f205416846118b9565b60405162461bcd60e51b815260206004820152602160248201527f4552433732313a20617070726f76616c20746f2063757272656e74206f776e656044820152603960f91b6064820152608490fd5b346101b45760203660031901126101b4576020610a13600435611d34565b346101b4575f3660031901126101b4576040516065545f82611a2683611cfc565b91828252602093600190856001821691825f146108d0575050600114611a53575061087f92500383611c2e565b84915060655f52815f20905f915b858310611a7857505061087f935082010185610872565b80548389018501528794508693909201918101611a61565b346101b45760203660031901126101b4576004359063ffffffff60e01b82168092036101b4576020916380ac58cd60e01b8114908115611aea575b8115611ad9575b5015158152f35b6301ffc9a760e01b14905083611ad2565b635b5e139f60e01b81149150611acb565b91908251928382525f5b848110611b25575050825f602080949584010152601f8019910116010190565b602081830181015184830182015201611b05565b600435906001600160a01b03821682036101b457565b602435906001600160a01b03821682036101b457565b35906001600160a01b03821682036101b457565b60609060031901126101b4576001600160a01b039060043582811681036101b4579160243590811681036101b4579060443590565b61012081019081106001600160401b038211176114fb57604052565b6001600160401b0381116114fb57604052565b602081019081106001600160401b038211176114fb57604052565b606081019081106001600160401b038211176114fb57604052565b604081019081106001600160401b038211176114fb57604052565b601f909101601f19168101906001600160401b038211908210176114fb57604052565b6001600160401b0381116114fb57601f01601f191660200190565b929192611c7882611c51565b91611c866040519384611c2e565b8294818452818301116101b4578281602093845f960137010152565b9080601f830112156101b457816020611cbd93359101611c6c565b90565b9081518082526020808093019301915f5b828110611cdf575050505090565b83516001600160a01b031685529381019392810192600101611cd1565b90600182811c92168015611d2a575b6020831014611d1657565b634e487b7160e01b5f52602260045260245ffd5b91607f1691611d0b565b611d4061022982612693565b5f908152606960205260409020546001600160a01b031690565b15611d6157565b60405162461bcd60e51b815260206004820152602d60248201527f4552433732313a2063616c6c6572206973206e6f7420746f6b656e206f776e6560448201526c1c881bdc88185c1c1c9bdd9959609a1b6064820152608490fd5b15611dc357565b60405162461bcd60e51b815260206004820152602c60248201525f805160206129d283398151915260448201526b19195b1959d85d1958d85b1b60a21b6064820152608490fd5b15611e1157565b60405162461bcd60e51b815260206004820152602c60248201525f805160206129d283398151915260448201526b6163746976652070726f787960a01b6064820152608490fd5b908160209103126101b4575180151581036101b45790565b9190811015611e935760051b8101359061011e19813603018212156101b4570190565b634e487b7160e01b5f52603260045260245ffd5b356001600160a01b03811681036101b45790565b903590601e19813603018212156101b457018035906001600160401b0382116101b457602001918160051b360383136101b457565b6001600160401b0381116114fb5760051b60200190565b9190820180921161063757565b908160209103126101b457516001600160a01b03811681036101b45790565b6001600160a01b03918216815291166020820152604081019190915260600190565b903590601e19813603018212156101b457018035906001600160401b0382116101b4576020019181360383136101b457565b3580151581036101b45790565b908060209392818452848401375f828201840152601f01601f1916010190565b9190808252602080920192915f5b828110611fd0575050505090565b909192938280600192838060a01b03611fe889611b65565b16815201950193929101611fc2565b9b99956120338d611cbd9f9d99966120649c9b9661202561204f9a966120419860e0865260e0860191611f94565b926020818503910152611f94565b8d810360408f015291611f94565b918a830360608c0152611f94565b921515608088015286830360a0880152611fb4565b9260c0818503910152611fb4565b929161207d82611ef0565b9161208b6040519384611c2e565b829481845260208094019160051b81019283116101b457905b8282106120b15750505050565b8380916120bd84611b65565b8152019101906120a4565b602080825282516001600160a01b03168183015282015161012060408301819052611cbd939290916120ff90610140830190611afb565b9161216161214d612139612125604088015196601f199788888303016060890152611afb565b606088015187878303016080880152611afb565b6080870151868683030160a0870152611afb565b60a0860151858583030160c0860152611afb565b60c0850151151560e084015261218860e08601519161010092868683030184870152611cc0565b9401519282850301910152611cc0565b1561219f57565b60405162461bcd60e51b8152602060048201526018602482015277115490cdcc8c4e881a5b9d985b1a59081d1bdad95b88125160421b6044820152606490fd5b5f908152606760205260409020546001600160a01b0316611cbd811515612198565b6097546001600160a01b0316330361221557565b606460405162461bcd60e51b815260206004820152602060248201527f4f776e61626c653a2063616c6c6572206973206e6f7420746865206f776e65726044820152fd5b906001600160a01b03808061226d846121df565b169316918383149384156122a0575b50831561228a575b50505090565b61229691929350611d34565b16145f8080612284565b9093505f52606a60205260405f20825f5260205260ff60405f205416925f61227c565b156122ca57565b60405162461bcd60e51b815260206004820152602560248201527f4552433732313a207472616e736665722066726f6d20696e636f72726563742060448201526437bbb732b960d91b6064820152608490fd5b906123459161232b846121df565b6001600160a01b03939184169284929091831684146122c3565b169182156123c557816123629161235b866121df565b16146122c3565b825f52606960205260405f2060018060a01b031990818154169055815f52606860205260405f205f198154019055825f5260405f2060018154019055835f5260676020528260405f20918254161790555f80516020612a728339815191525f80a4565b60405162461bcd60e51b8152602060048201526024808201527f4552433732313a207472616e7366657220746f20746865207a65726f206164646044820152637265737360e01b6064820152608490fd5b1561241d57565b60405162461bcd60e51b815260206004820152602b60248201527f496e697469616c697a61626c653a20636f6e7472616374206973206e6f74206960448201526a6e697469616c697a696e6760a81b6064820152608490fd5b609780546001600160a01b039283166001600160a01b0319821681179092559091165f80516020612a328339815191525f80a3565b6001600160a01b038116908115612537573b15612525576020600491604051928380926318160ddd60e01b82525afa90816124fa575b506124f8576040516326412d8960e21b8152600490fd5b565b602090813d831161251e575b6125108183611c2e565b810103126101b4575f6124e1565b503d612506565b60405163d0acc0d360e01b8152600490fd5b604051631a747e4f60e31b8152600490fd5b9060405161255681611bdd565b5f81526001600160a01b0383169182156125d8576124f893816107619461258561257f83612693565b156128cd565b61259161257f83612693565b5f818152606860209081526040808320805460010190558483526067909152812080546001600160a01b031916831790555f80516020612a728339815191528180a461276d565b606460405162461bcd60e51b815260206004820152602060248201527f4552433732313a206d696e7420746f20746865207a65726f20616464726573736044820152fd5b60809060208152603260208201527f4552433732313a207472616e7366657220746f206e6f6e20455243373231526560408201527131b2b4bb32b91034b6b83632b6b2b73a32b960711b60608201520190565b1561267657565b60405162461bcd60e51b81528061268f6004820161261c565b0390fd5b5f908152606760205260409020546001600160a01b0316151590565b803b156126e3575f80516020612a1283398151915280546001600160a01b0319166001600160a01b03909216919091179055565b60405162461bcd60e51b815260206004820152602d60248201527f455243313936373a206e657720696d706c656d656e746174696f6e206973206e60448201526c1bdd08184818dbdb9d1c9858dd609a1b6064820152608490fd5b3d15612768573d9061274f82611c51565b9161275d6040519384611c2e565b82523d5f602084013e565b606090565b909190803b15612851576127b66020915f93604051948580948193630a85bd0160e11b998a84523360048501528460248501526044840152608060648401526084830190611afb565b03926001600160a01b03165af15f918161280c575b506127fe576127d861273e565b805190816127f95760405162461bcd60e51b81528061268f6004820161261c565b602001fd5b6001600160e01b0319161490565b9091506020813d602011612849575b8161282860209383611c2e565b810103126101b457516001600160e01b0319811681036101b457905f6127cb565b3d915061281b565b505050600190565b92909190823b156128c4576128ab926020925f60018060a01b0360405180978196829584630a85bd0160e11b9c8d86523360048701521660248501526044840152608060648401526084830190611afb565b0393165af15f918161280c57506127fe576127d861273e565b50505050600190565b156128d457565b60405162461bcd60e51b815260206004820152601c60248201527b115490cdcc8c4e881d1bdad95b88185b1c9958591e481b5a5b9d195960221b6044820152606490fd5b9192901561297a575081511561292c575090565b3b156129355790565b60405162461bcd60e51b815260206004820152601d60248201527f416464726573733a2063616c6c20746f206e6f6e2d636f6e74726163740000006044820152606490fd5b82519091501561298d5750805190602001fd5b60405162461bcd60e51b81526020600482015290819061268f906024830190611afb56fe4910fdfa16fed3260ed0e7147f7cc6da11a60208b5b9406d12a635614ffd914346756e6374696f6e206d7573742062652063616c6c6564207468726f7567682014bc337f206da7f70397d9e85710d8cfc832cef49209b70d37be108a159794f2360894a13ba1a3210667c828492db98dca3e2076cc3735a920a3ca505d382bbc8be0079c531659141344cd1fd0a4f28419497f9722a3daafe3b4186f6b6457e0bc7cd75a20ee27fd9adebab32041f755214dbc6bffa90cc0225b39da2e5c2d3bddf252ad1be2c89b69c2b068fc378daa952ba7f163c4a11628f55a4df523b3ef45524331393637557067726164653a206e657720696d706c656d656e74617469a164736f6c6343000819000a","linkReferences":{"src/lib/TBA.sol":{"TBALib":[{"start":1172,"length":20},{"start":3119,"length":20}]}}},"methodIdentifiers":{"approve(address,uint256)":"095ea7b3","balanceOf(address)":"70a08231","batchMintGardens((address,string,string,string,string,string,bool,address[],address[])[])":"60a3c73f","deploymentRegistry()":"c6631092","getApproved(uint256)":"081812fc","initialize(address,address)":"485cc955","isApprovedForAll(address,address)":"e985e9c5","mintGarden((address,string,string,string,string,string,bool,address[],address[]))":"bf645f26","name()":"06fdde03","owner()":"8da5cb5b","ownerOf(uint256)":"6352211e","proxiableUUID()":"52d1902d","renounceOwnership()":"715018a6","safeTransferFrom(address,address,uint256)":"42842e0e","safeTransferFrom(address,address,uint256,bytes)":"b88d4fde","setApprovalForAll(address,bool)":"a22cb465","setDeploymentRegistry(address)":"14902ad3","supportsInterface(bytes4)":"01ffc9a7","symbol()":"95d89b41","tokenURI(uint256)":"c87b56dd","transferFrom(address,address,uint256)":"23b872dd","transferOwnership(address)":"f2fde38b","upgradeTo(address)":"3659cfe6","upgradeToAndCall(address,bytes)":"4f1ef286"},"id":144}