{"abi":[{"type":"constructor","inputs":[{"name":"erc4337EntryPoint","type":"address","internalType":"address"},{"name":"multicallForwarder","type":"address","internalType":"address"},{"name":"erc6551Registry","type":"address","internalType":"address"},{"name":"guardian","type":"address","internalType":"address"},{"name":"workApprovalResolver","type":"address","internalType":"address"},{"name":"assessmentResolver","type":"address","internalType":"address"}],"stateMutability":"nonpayable"},{"type":"fallback","stateMutability":"payable"},{"type":"receive","stateMutability":"payable"},{"type":"function","name":"ASSESSMENT_RESOLVER","inputs":[],"outputs":[{"name":"","type":"address","internalType":"address"}],"stateMutability":"view"},{"type":"function","name":"WORK_APPROVAL_RESOLVER","inputs":[],"outputs":[{"name":"","type":"address","internalType":"address"}],"stateMutability":"view"},{"type":"function","name":"bannerImage","inputs":[],"outputs":[{"name":"","type":"string","internalType":"string"}],"stateMutability":"view"},{"type":"function","name":"communityToken","inputs":[],"outputs":[{"name":"","type":"address","internalType":"address"}],"stateMutability":"view"},{"type":"function","name":"description","inputs":[],"outputs":[{"name":"","type":"string","internalType":"string"}],"stateMutability":"view"},{"type":"function","name":"entryPoint","inputs":[],"outputs":[{"name":"","type":"address","internalType":"contract IEntryPoint"}],"stateMutability":"view"},{"type":"function","name":"erc6551Registry","inputs":[],"outputs":[{"name":"","type":"address","internalType":"address"}],"stateMutability":"view"},{"type":"function","name":"execute","inputs":[{"name":"to","type":"address","internalType":"address"},{"name":"value","type":"uint256","internalType":"uint256"},{"name":"data","type":"bytes","internalType":"bytes"},{"name":"operation","type":"uint8","internalType":"uint8"}],"outputs":[{"name":"","type":"bytes","internalType":"bytes"}],"stateMutability":"payable"},{"type":"function","name":"executeAutoStake","inputs":[{"name":"goodsToken_","type":"address","internalType":"address"},{"name":"community","type":"address","internalType":"address"},{"name":"stakeAmount","type":"uint256","internalType":"uint256"},{"name":"member","type":"address","internalType":"address"}],"outputs":[],"stateMutability":"nonpayable"},{"type":"function","name":"executeBatch","inputs":[{"name":"operations","type":"tuple[]","internalType":"struct BatchExecutor.Operation[]","components":[{"name":"to","type":"address","internalType":"address"},{"name":"value","type":"uint256","internalType":"uint256"},{"name":"data","type":"bytes","internalType":"bytes"},{"name":"operation","type":"uint8","internalType":"uint8"}]}],"outputs":[{"name":"","type":"bytes[]","internalType":"bytes[]"}],"stateMutability":"payable"},{"type":"function","name":"executeNested","inputs":[{"name":"to","type":"address","internalType":"address"},{"name":"value","type":"uint256","internalType":"uint256"},{"name":"data","type":"bytes","internalType":"bytes"},{"name":"operation","type":"uint8","internalType":"uint8"},{"name":"proof","type":"tuple[]","internalType":"struct NestedAccountExecutor.ERC6551AccountInfo[]","components":[{"name":"salt","type":"bytes32","internalType":"bytes32"},{"name":"tokenContract","type":"address","internalType":"address"},{"name":"tokenId","type":"uint256","internalType":"uint256"}]}],"outputs":[{"name":"","type":"bytes","internalType":"bytes"}],"stateMutability":"payable"},{"type":"function","name":"extcall","inputs":[{"name":"to","type":"address","internalType":"address"},{"name":"value","type":"uint256","internalType":"uint256"},{"name":"data","type":"bytes","internalType":"bytes"}],"outputs":[{"name":"result","type":"bytes","internalType":"bytes"}],"stateMutability":"nonpayable"},{"type":"function","name":"extcreate","inputs":[{"name":"value","type":"uint256","internalType":"uint256"},{"name":"bytecode","type":"bytes","internalType":"bytes"}],"outputs":[{"name":"","type":"address","internalType":"address"}],"stateMutability":"nonpayable"},{"type":"function","name":"extcreate2","inputs":[{"name":"value","type":"uint256","internalType":"uint256"},{"name":"salt","type":"bytes32","internalType":"bytes32"},{"name":"bytecode","type":"bytes","internalType":"bytes"}],"outputs":[{"name":"","type":"address","internalType":"address"}],"stateMutability":"nonpayable"},{"type":"function","name":"extsload","inputs":[{"name":"slot","type":"bytes32","internalType":"bytes32"}],"outputs":[{"name":"value","type":"bytes32","internalType":"bytes32"}],"stateMutability":"view"},{"type":"function","name":"gapProjectUID","inputs":[],"outputs":[{"name":"","type":"bytes32","internalType":"bytes32"}],"stateMutability":"view"},{"type":"function","name":"gardenMemberCount","inputs":[],"outputs":[{"name":"","type":"uint256","internalType":"uint256"}],"stateMutability":"view"},{"type":"function","name":"getGAPProjectUID","inputs":[],"outputs":[{"name":"","type":"bytes32","internalType":"bytes32"}],"stateMutability":"view"},{"type":"function","name":"getNonce","inputs":[],"outputs":[{"name":"","type":"uint256","internalType":"uint256"}],"stateMutability":"view"},{"type":"function","name":"initialize","inputs":[{"name":"params","type":"tuple","internalType":"struct IGardenAccount.InitParams","components":[{"name":"communityToken","type":"address","internalType":"address"},{"name":"name","type":"string","internalType":"string"},{"name":"slug","type":"string","internalType":"string"},{"name":"description","type":"string","internalType":"string"},{"name":"location","type":"string","internalType":"string"},{"name":"bannerImage","type":"string","internalType":"string"},{"name":"metadata","type":"string","internalType":"string"},{"name":"openJoining","type":"bool","internalType":"bool"}]}],"outputs":[],"stateMutability":"nonpayable"},{"type":"function","name":"isCommunity","inputs":[{"name":"account","type":"address","internalType":"address"}],"outputs":[{"name":"","type":"bool","internalType":"bool"}],"stateMutability":"view"},{"type":"function","name":"isEvaluator","inputs":[{"name":"account","type":"address","internalType":"address"}],"outputs":[{"name":"","type":"bool","internalType":"bool"}],"stateMutability":"view"},{"type":"function","name":"isFunder","inputs":[{"name":"account","type":"address","internalType":"address"}],"outputs":[{"name":"","type":"bool","internalType":"bool"}],"stateMutability":"view"},{"type":"function","name":"isGardener","inputs":[{"name":"account","type":"address","internalType":"address"}],"outputs":[{"name":"","type":"bool","internalType":"bool"}],"stateMutability":"view"},{"type":"function","name":"isLocked","inputs":[],"outputs":[{"name":"","type":"bool","internalType":"bool"}],"stateMutability":"view"},{"type":"function","name":"isOperator","inputs":[{"name":"account","type":"address","internalType":"address"}],"outputs":[{"name":"","type":"bool","internalType":"bool"}],"stateMutability":"view"},{"type":"function","name":"isOwner","inputs":[{"name":"account","type":"address","internalType":"address"}],"outputs":[{"name":"","type":"bool","internalType":"bool"}],"stateMutability":"view"},{"type":"function","name":"isTrustedForwarder","inputs":[{"name":"forwarder","type":"address","internalType":"address"}],"outputs":[{"name":"","type":"bool","internalType":"bool"}],"stateMutability":"view"},{"type":"function","name":"isValidSignature","inputs":[{"name":"hash","type":"bytes32","internalType":"bytes32"},{"name":"signature","type":"bytes","internalType":"bytes"}],"outputs":[{"name":"magicValue","type":"bytes4","internalType":"bytes4"}],"stateMutability":"view"},{"type":"function","name":"isValidSigner","inputs":[{"name":"signer","type":"address","internalType":"address"},{"name":"data","type":"bytes","internalType":"bytes"}],"outputs":[{"name":"magicValue","type":"bytes4","internalType":"bytes4"}],"stateMutability":"view"},{"type":"function","name":"joinGarden","inputs":[],"outputs":[],"stateMutability":"nonpayable"},{"type":"function","name":"location","inputs":[],"outputs":[{"name":"","type":"string","internalType":"string"}],"stateMutability":"view"},{"type":"function","name":"lock","inputs":[{"name":"_lockedUntil","type":"uint256","internalType":"uint256"}],"outputs":[],"stateMutability":"nonpayable"},{"type":"function","name":"lockedUntil","inputs":[],"outputs":[{"name":"","type":"uint256","internalType":"uint256"}],"stateMutability":"view"},{"type":"function","name":"maxGardeners","inputs":[],"outputs":[{"name":"","type":"uint256","internalType":"uint256"}],"stateMutability":"view"},{"type":"function","name":"metadata","inputs":[],"outputs":[{"name":"","type":"string","internalType":"string"}],"stateMutability":"view"},{"type":"function","name":"name","inputs":[],"outputs":[{"name":"","type":"string","internalType":"string"}],"stateMutability":"view"},{"type":"function","name":"onERC1155BatchReceived","inputs":[{"name":"","type":"address","internalType":"address"},{"name":"","type":"address","internalType":"address"},{"name":"","type":"uint256[]","internalType":"uint256[]"},{"name":"","type":"uint256[]","internalType":"uint256[]"},{"name":"","type":"bytes","internalType":"bytes"}],"outputs":[{"name":"","type":"bytes4","internalType":"bytes4"}],"stateMutability":"nonpayable"},{"type":"function","name":"onERC1155Received","inputs":[{"name":"","type":"address","internalType":"address"},{"name":"","type":"address","internalType":"address"},{"name":"","type":"uint256","internalType":"uint256"},{"name":"","type":"uint256","internalType":"uint256"},{"name":"","type":"bytes","internalType":"bytes"}],"outputs":[{"name":"","type":"bytes4","internalType":"bytes4"}],"stateMutability":"nonpayable"},{"type":"function","name":"onERC721Received","inputs":[{"name":"","type":"address","internalType":"address"},{"name":"","type":"address","internalType":"address"},{"name":"tokenId","type":"uint256","internalType":"uint256"},{"name":"","type":"bytes","internalType":"bytes"}],"outputs":[{"name":"","type":"bytes4","internalType":"bytes4"}],"stateMutability":"nonpayable"},{"type":"function","name":"openJoining","inputs":[],"outputs":[{"name":"","type":"bool","internalType":"bool"}],"stateMutability":"view"},{"type":"function","name":"overrides","inputs":[{"name":"","type":"address","internalType":"address"},{"name":"","type":"bytes4","internalType":"bytes4"}],"outputs":[{"name":"","type":"address","internalType":"address"}],"stateMutability":"view"},{"type":"function","name":"owner","inputs":[],"outputs":[{"name":"","type":"address","internalType":"address"}],"stateMutability":"view"},{"type":"function","name":"permissions","inputs":[{"name":"","type":"address","internalType":"address"},{"name":"","type":"address","internalType":"address"}],"outputs":[{"name":"","type":"bool","internalType":"bool"}],"stateMutability":"view"},{"type":"function","name":"proxiableUUID","inputs":[],"outputs":[{"name":"","type":"bytes32","internalType":"bytes32"}],"stateMutability":"view"},{"type":"function","name":"setMaxGardeners","inputs":[{"name":"_max","type":"uint256","internalType":"uint256"}],"outputs":[],"stateMutability":"nonpayable"},{"type":"function","name":"setOpenJoining","inputs":[{"name":"_openJoining","type":"bool","internalType":"bool"}],"outputs":[],"stateMutability":"nonpayable"},{"type":"function","name":"setOverrides","inputs":[{"name":"selectors","type":"bytes4[]","internalType":"bytes4[]"},{"name":"implementations","type":"address[]","internalType":"address[]"}],"outputs":[],"stateMutability":"nonpayable"},{"type":"function","name":"setPermissions","inputs":[{"name":"callers","type":"address[]","internalType":"address[]"},{"name":"_permissions","type":"bool[]","internalType":"bool[]"}],"outputs":[],"stateMutability":"nonpayable"},{"type":"function","name":"slug","inputs":[],"outputs":[{"name":"","type":"string","internalType":"string"}],"stateMutability":"view"},{"type":"function","name":"state","inputs":[],"outputs":[{"name":"","type":"uint256","internalType":"uint256"}],"stateMutability":"view"},{"type":"function","name":"supportsInterface","inputs":[{"name":"interfaceId","type":"bytes4","internalType":"bytes4"}],"outputs":[{"name":"","type":"bool","internalType":"bool"}],"stateMutability":"view"},{"type":"function","name":"token","inputs":[],"outputs":[{"name":"chainId","type":"uint256","internalType":"uint256"},{"name":"tokenContract","type":"address","internalType":"address"},{"name":"tokenId","type":"uint256","internalType":"uint256"}],"stateMutability":"view"},{"type":"function","name":"updateBannerImage","inputs":[{"name":"_bannerImage","type":"string","internalType":"string"}],"outputs":[],"stateMutability":"nonpayable"},{"type":"function","name":"updateDescription","inputs":[{"name":"_description","type":"string","internalType":"string"}],"outputs":[],"stateMutability":"nonpayable"},{"type":"function","name":"updateLocation","inputs":[{"name":"_location","type":"string","internalType":"string"}],"outputs":[],"stateMutability":"nonpayable"},{"type":"function","name":"updateMetadata","inputs":[{"name":"_metadata","type":"string","internalType":"string"}],"outputs":[],"stateMutability":"nonpayable"},{"type":"function","name":"updateName","inputs":[{"name":"_name","type":"string","internalType":"string"}],"outputs":[],"stateMutability":"nonpayable"},{"type":"function","name":"upgradeTo","inputs":[{"name":"newImplementation","type":"address","internalType":"address"}],"outputs":[],"stateMutability":"nonpayable"},{"type":"function","name":"upgradeToAndCall","inputs":[{"name":"newImplementation","type":"address","internalType":"address"},{"name":"data","type":"bytes","internalType":"bytes"}],"outputs":[],"stateMutability":"payable"},{"type":"function","name":"validateUserOp","inputs":[{"name":"userOp","type":"tuple","internalType":"struct UserOperation","components":[{"name":"sender","type":"address","internalType":"address"},{"name":"nonce","type":"uint256","internalType":"uint256"},{"name":"initCode","type":"bytes","internalType":"bytes"},{"name":"callData","type":"bytes","internalType":"bytes"},{"name":"callGasLimit","type":"uint256","internalType":"uint256"},{"name":"verificationGasLimit","type":"uint256","internalType":"uint256"},{"name":"preVerificationGas","type":"uint256","internalType":"uint256"},{"name":"maxFeePerGas","type":"uint256","internalType":"uint256"},{"name":"maxPriorityFeePerGas","type":"uint256","internalType":"uint256"},{"name":"paymasterAndData","type":"bytes","internalType":"bytes"},{"name":"signature","type":"bytes","internalType":"bytes"}]},{"name":"userOpHash","type":"bytes32","internalType":"bytes32"},{"name":"missingAccountFunds","type":"uint256","internalType":"uint256"}],"outputs":[{"name":"validationData","type":"uint256","internalType":"uint256"}],"stateMutability":"nonpayable"},{"type":"event","name":"AdminChanged","inputs":[{"name":"previousAdmin","type":"address","indexed":false,"internalType":"address"},{"name":"newAdmin","type":"address","indexed":false,"internalType":"address"}],"anonymous":false},{"type":"event","name":"BannerImageUpdated","inputs":[{"name":"updater","type":"address","indexed":true,"internalType":"address"},{"name":"newBannerImage","type":"string","indexed":false,"internalType":"string"}],"anonymous":false},{"type":"event","name":"BeaconUpgraded","inputs":[{"name":"beacon","type":"address","indexed":true,"internalType":"address"}],"anonymous":false},{"type":"event","name":"CommunityTokenUpdated","inputs":[{"name":"updater","type":"address","indexed":true,"internalType":"address"},{"name":"newToken","type":"address","indexed":false,"internalType":"address"}],"anonymous":false},{"type":"event","name":"DescriptionUpdated","inputs":[{"name":"updater","type":"address","indexed":true,"internalType":"address"},{"name":"newDescription","type":"string","indexed":false,"internalType":"string"}],"anonymous":false},{"type":"event","name":"Initialized","inputs":[{"name":"version","type":"uint8","indexed":false,"internalType":"uint8"}],"anonymous":false},{"type":"event","name":"LocationUpdated","inputs":[{"name":"updater","type":"address","indexed":true,"internalType":"address"},{"name":"newLocation","type":"string","indexed":false,"internalType":"string"}],"anonymous":false},{"type":"event","name":"LockUpdated","inputs":[{"name":"lockedUntil","type":"uint256","indexed":false,"internalType":"uint256"}],"anonymous":false},{"type":"event","name":"MemberAutoRegistered","inputs":[{"name":"member","type":"address","indexed":true,"internalType":"address"},{"name":"community","type":"address","indexed":true,"internalType":"address"}],"anonymous":false},{"type":"event","name":"MetadataUpdated","inputs":[{"name":"updater","type":"address","indexed":true,"internalType":"address"},{"name":"newMetadata","type":"string","indexed":false,"internalType":"string"}],"anonymous":false},{"type":"event","name":"NameUpdated","inputs":[{"name":"updater","type":"address","indexed":true,"internalType":"address"},{"name":"newName","type":"string","indexed":false,"internalType":"string"}],"anonymous":false},{"type":"event","name":"OpenJoiningUpdated","inputs":[{"name":"updater","type":"address","indexed":true,"internalType":"address"},{"name":"openJoining","type":"bool","indexed":false,"internalType":"bool"}],"anonymous":false},{"type":"event","name":"OverrideUpdated","inputs":[{"name":"owner","type":"address","indexed":false,"internalType":"address"},{"name":"selector","type":"bytes4","indexed":false,"internalType":"bytes4"},{"name":"implementation","type":"address","indexed":false,"internalType":"address"}],"anonymous":false},{"type":"event","name":"PermissionUpdated","inputs":[{"name":"owner","type":"address","indexed":false,"internalType":"address"},{"name":"caller","type":"address","indexed":false,"internalType":"address"},{"name":"hasPermission","type":"bool","indexed":false,"internalType":"bool"}],"anonymous":false},{"type":"event","name":"Upgraded","inputs":[{"name":"implementation","type":"address","indexed":true,"internalType":"address"}],"anonymous":false},{"type":"error","name":"AccountLocked","inputs":[]},{"type":"error","name":"AlreadyGardener","inputs":[]},{"type":"error","name":"ContractCreationFailed","inputs":[]},{"type":"error","name":"ExceedsMaxLockTime","inputs":[]},{"type":"error","name":"GardenFull","inputs":[]},{"type":"error","name":"HatsModuleNotAvailable","inputs":[]},{"type":"error","name":"InvalidAccountProof","inputs":[]},{"type":"error","name":"InvalidERC6551Registry","inputs":[]},{"type":"error","name":"InvalidEntryPoint","inputs":[]},{"type":"error","name":"InvalidImplementation","inputs":[]},{"type":"error","name":"InvalidInput","inputs":[]},{"type":"error","name":"InvalidInvite","inputs":[]},{"type":"error","name":"InvalidMulticallForwarder","inputs":[]},{"type":"error","name":"InvalidOperation","inputs":[]},{"type":"error","name":"NotAuthorized","inputs":[]},{"type":"error","name":"NotGardenOperator","inputs":[]},{"type":"error","name":"NotGardenOwner","inputs":[]},{"type":"error","name":"OwnershipCycle","inputs":[]}],"bytecode":{"object":"0x6101803461025b57601f614fbc38819003918201601f19168301916001600160401b0383118484101761025f5780849260c09460405283398101031261025b5761004881610273565b9061005560208201610273565b61006160408301610273565b9061006e60608401610273565b9161008760a061008060808701610273565b9501610273565b946001600160a01b0316801561024c576080523060a0526001600160a01b0381161561023e5760c05260e08190526001600160a01b03161561022f576001600160a01b03166101005230610120526101405261016052600454600881901c60ff166101da5760ff8082160361019f575b604051614d34908161028882396080518181816110c101528181611ff6015281816123850152613a5a015260a05181818161319501526144bd015260c05181818161061c0152818161317301526144df015260e05181818161183c015281816146660152614a5f015261010051818181613b4d0152613d7f015261012051818181610f2801528181611393015261176c015261014051816122ec015261016051816110570152f35b60ff90811916176004557f7f26b83ff96e1f2b6a682f133852f6798a09c465da95921460cefb3847402498602060405160ff8152a15f6100f7565b60405162461bcd60e51b815260206004820152602760248201527f496e697469616c697a61626c653a20636f6e747261637420697320696e697469604482015266616c697a696e6760c81b6064820152608490fd5b63754c753360e11b5f5260045ffd5b6246a29560e81b5f5260045ffd5b632039d3c960e01b5f5260045ffd5b5f80fd5b634e487b7160e01b5f52604160045260245ffd5b51906001600160a01b038216820361025b5756fe60806040526004361015610026575b361561001e5761001c61374a565b005b61001c61374a565b5f3560e01c806301ffc9a7146103f0578063039721b1146103eb578063056d5afe146103e657806306fdde03146103e15780630959f6a8146103dc5780630bc4241b146103d7578063150b7a02146103d25780631626ba7e146103cd5780631b561cf9146103c85780631e2eaeaf146103c35780631ea48870146103be5780631f9838b5146103b95780631fb1ecf0146103b4578063291d0548146103af57806329aa1617146103aa5780632f54bf6e146103a557806334715fb1146103a05780633659cfe61461039b578063392f37e9146103965780633a208f95146103915780633a871cdd1461038c57806341c6c4281461038757806343629a731461038257806345a24e3e1461037d5780634f1ef28614610378578063516f279e14610373578063519454471461036e57806352094e5514610369578063523e32601461036457806352d1902d1461035f578063572b6c051461035a5780636beb7959146103555780636d70f7ae146103505780637284e4161461034b5780637a8f73561461034657806384da92a7146103415780638da5cb5b1461033c578063918b5be114610337578063932354c11461033257806394def29d1461032d57806398b7a25a14610328578063993fa20b14610323578063a4e2d6341461031e578063b0d691fe14610319578063b10006a614610314578063b709467c1461030f578063ba176bbc1461030a578063bc197c8114610305578063bcc5cf8814610300578063c19d93fb146102fb578063ce0617ec146102f6578063d087d288146102f1578063d7962d09146102ec578063dd467064146102e7578063df341c4a146102e2578063e735b48a146102dd578063ee9c6054146102d8578063f23a6e61146102d3578063f7fc57b0146102ce578063f89b9b93146102ce5763fc0c546a0361000e576127dd565b6127bb565b61275a565b612702565b6125d8565b6124b6565b61240c565b6123ef565b612354565b612338565b61231b565b6122d7565b61222a565b61218d565b61213c565b612025565b611fe1565b611fc3565b611f74565b611ef8565b611e5c565b611d48565b611c34565b611c17565b611af4565b6119bb565b611929565b611902565b611870565b611818565b61175a565b611712565b6115dd565b611521565b61148f565b611357565b611306565b6111f0565b611174565b611086565b611042565b610fb0565b610f06565b610ea8565b610e81565b610e55565b610e33565b610d9a565b610d38565b610c5b565b610c3c565b610ac8565b610a76565b61099b565b610818565b6107f1565b610719565b610607565b6104bc565b61040b565b6001600160e01b031981160361040757565b5f80fd5b3461040757602036600319011261040757602061043260043561042d816103f5565b612814565b6040519015158152f35b9181601f84011215610407578235916001600160401b038311610407576020808501948460051b01011161040757565b6040600319820112610407576004356001600160401b03811161040757816104969160040161043c565b90929091602435906001600160401b038211610407576104b89160040161043c565b9091565b34610407576104ca3661046c565b92906104e56104e06104da613533565b9161417c565b6144ba565b6001600160a01b03811680156105db5733036105db57610503613594565b8385036105cc575f5b84811061051557005b8061056461052e6105296001948a8861290c565b612921565b61055361053a86610cf1565b61054d610548868c8c61290c565b61292b565b90610d23565b9060ff801983541691151516179055565b7f394777a58092892d136a90c4bb7e4350c72ac50fba6a0208128677f36527dcf561059361054883898961290c565b6105a1610529848b8961290c565b604080516001600160a01b03888116825293909316602084015290151590820152606090a10161050c565b63b4fa3fb360e01b5f5260045ffd5b63ea8e4eb560e01b5f5260045ffd5b5f91031261040757565b6001600160a01b03909116815260200190565b34610407575f366003190112610407576040517f00000000000000000000000000000000000000000000000000000000000000006001600160a01b03168152602090f35b90600182811c92168015610679575b602083101461066557565b634e487b7160e01b5f52602260045260245ffd5b91607f169161065a565b634e487b7160e01b5f52604160045260245ffd5b601f909101601f19168101906001600160401b038211908210176106ba57604052565b610683565b5f5b8381106106d05750505f910152565b81810151838201526020016106c1565b906020916106f9815180928185528580860191016106bf565b601f01601f1916010190565b9060206107169281815201906106e0565b90565b34610407575f366003190112610407576040515f6005546107398161064b565b80845290600181169081156107bc5750600114610771575b61076d8361076181850382610697565b60405191829182610705565b0390f35b60055f9081525f516020614b685f395f51905f52939250905b8082106107a257509091508101602001610761610751565b91926001816020925483858801015201910190929161078a565b60ff191660208086019190915291151560051b840190910191506107619050610751565b6001600160a01b0381160361040757565b34610407576020366003190112610407576020610432600435610813816107e0565b6135f3565b34610407576020366003190112610407576004356001600160401b0381116104075761010060031982360301126104075761089e6004549161087e6108686108648560ff9060081c1690565b1590565b80948195610921575b8115610901575b50612935565b82610891600160ff196004541617600455565b6108e8575b600401612f50565b6108a457005b6108b461ff001960045416600455565b604051600181527f7f26b83ff96e1f2b6a682f133852f6798a09c465da95921460cefb38474024989080602081015b0390a1005b6108fc61010061ff00196004541617600455565b610896565b303b15915081610913575b505f610878565b60ff1660011490505f61090c565b600160ff8216109150610871565b6001600160401b0381116106ba57601f01601f191660200190565b9291926109568261092f565b916109646040519384610697565b829481845281830111610407578281602093845f960137010152565b9080601f83011215610407578160206107169335910161094a565b34610407576080366003190112610407576109b76004356107e0565b6109c26024356107e0565b6044356064356001600160401b038111610407576109e4903690600401610980565b506109ed613533565b9060018060a01b031633149283610a3f575b505081610a35575b50610a2657610a1461374a565b604051630a85bd0160e11b8152602090f35b63b79e3f3f60e01b5f5260045ffd5b905046145f610a07565b1491505f806109ff565b9181601f84011215610407578235916001600160401b038311610407576020838186019501011161040757565b34610407576040366003190112610407576004356024356001600160401b03811161040757602091610aaf610ab5923690600401610a49565b916130e3565b6040516001600160e01b03199091168152f35b3461040757602036600319011261040757600435610ae5816107e0565b610afc610af0613940565b6001600160a01b031690565b6040516326ba248f60e21b8152909160208280610b1d843060048401613116565b0381865afa918215610bbb575f92610c1b575b508115610bc0575b8115610b4c575b6040518215158152602090f35b60209150610b7092604051808095819463f582bceb60e01b83523060048401613116565b03915afa8015610bbb5761076d915f91610b8c575b505f610b3f565b610bae915060203d602011610bb4575b610ba68183610697565b810190613101565b5f610b85565b503d610b9c565b613130565b604051630e70978b60e21b815290915060208180610be2853060048401613116565b0381865afa908115610bbb575f91610bfc575b5090610b38565b610c15915060203d602011610bb457610ba68183610697565b5f610bf5565b610c3591925060203d602011610bb457610ba68183610697565b905f610b30565b3461040757602036600319011261040757602060043554604051908152f35b3461040757602036600319011261040757610caa6020600435610c7d816107e0565b6001600160a01b03610c8d613940565b16604051808095819463071f0a6b60e31b83523060048401613116565b03915afa8015610bbb5761076d915f91610cd2575b5060405190151581529081906020820190565b610ceb915060203d602011610bb457610ba68183610697565b5f610cbf565b6001600160a01b03165f90815260026020526040902090565b6001600160a01b03165f90815260016020526040902090565b9060018060a01b03165f5260205260405f2090565b3461040757604036600319011261040757602060ff610d83600435610d5c816107e0565b60243590610d69826107e0565b6001600160a01b03165f9081526002855260409020610d23565b54166040519015158152f35b60ff81160361040757565b60a036600319011261040757600435610db2816107e0565b602435906044356001600160401b03811161040757610dd5903690600401610a49565b91606435610de281610d8f565b608435936001600160401b0385116104075736602386011215610407576004850135936001600160401b0385116104075736602460608702880101116104075761076d966024610761970194613160565b34610407575f36600319011261040757602060ff600b54166040519015158152f35b34610407575f3660031901126104075760045460405160109190911c6001600160a01b03168152602090f35b34610407576020366003190112610407576020610432600435610ea3816107e0565b613cd6565b34610407576060366003190112610407576004356044356024356001600160401b03821161040757602092610ee4610ef4933690600401610a49565b929091610eef613d0a565b613d24565b6040516001600160a01b039091168152f35b3461040757602036600319011261040757600435610f23816107e0565b610f7a7f00000000000000000000000000000000000000000000000000000000000000006001600160a01b0316610f5c30821415613328565b5f516020614c885f395f51905f52546001600160a01b031614613376565b610f8381613d5b565b60405161001c91610f95602083610697565b5f8252601f19610fa45f61092f565b01366020840137613eac565b34610407575f366003190112610407576040515f600a54610fd08161064b565b80845290600181169081156107bc5750600114610ff75761076d8361076181850382610697565b600a5f9081525f516020614c285f395f51905f52939250905b80821061102857509091508101602001610761610751565b919260018160209254838588010152019101909291611010565b34610407575f366003190112610407576040517f00000000000000000000000000000000000000000000000000000000000000006001600160a01b03168152602090f35b34610407576060366003190112610407576004356001600160401b0381116104075761016060031982360301126104075760243590604435907f00000000000000000000000000000000000000000000000000000000000000006001600160a01b031633036111305761076d926110ff91600401613f58565b9080611117575b506040519081529081906020820190565b5f80808093338219f150611129613504565b505f611106565b60405162461bcd60e51b815260206004820152601c60248201527b1858d8dbdd5b9d0e881b9bdd08199c9bdb48115b9d1c9e541bda5b9d60221b6044820152606490fd5b34610407575f366003190112610407576020600d54604051908152f35b602081016020825282518091526040820191602060408360051b8301019401925f915b8383106111c357505050505090565b90919293946020806111e1600193603f1986820301875289516106e0565b970193019301919392906111b4565b6020366003190112610407576004356001600160401b0381116104075761121b90369060040161043c565b61122b611226614663565b613a4c565b156105db57611238613594565b611241816121b6565b9161124f6040519384610697565b818352601f1961125e836121b6565b015f5b8181106112f55750505f5b828110611281576040518061076d8682611191565b806112d961129561054860019487876133fa565b60206112a28488886133fa565b01356112bc6112b28589896133fa565b6040810190612998565b916112d360606112cd888c8c6133fa565b0161341c565b93613bd9565b6112e38287613426565b526112ee8186613426565b500161126c565b806060602080938801015201611261565b34610407576040366003190112610407576004356024356001600160401b03811161040757602091611351611342610ef4933690600401610a49565b61134a613d0a565b369161094a565b90613fa7565b60403660031901126104075760043561136f816107e0565b6024356001600160401b0381116104075761138e903690600401610980565b6113c77f00000000000000000000000000000000000000000000000000000000000000006001600160a01b0316610f5c30821415613328565b6113d082613d5b565b5f516020614ba85f395f51905f525460ff16156113f1575061001c90614773565b6040516352d1902d60e01b8152906020826004816001600160a01b0387165afa5f928161145e575b5061143b5760405162461bcd60e51b81528061143760048201613e5d565b0390fd5b61001c926114595f516020614c885f395f51905f5260019414613dff565b6146b5565b61148191935060203d602011611488575b6114798183610697565b8101906134a2565b915f611419565b503d61146f565b34610407575f366003190112610407576040515f6008546114af8161064b565b80845290600181169081156107bc57506001146114d65761076d8361076181850382610697565b60085f9081525f516020614cc85f395f51905f52939250905b80821061150757509091508101602001610761610751565b9192600181602092548385880101520191019092916114ef565b608036600319011261040757600435611539816107e0565b602435906044356001600160401b0381116104075761155c903690600401610a49565b6064359161156983610d8f565b611574611226614663565b156105db5761076d9461158e94611589613594565b613bd9565b6040519182916020835260208301906106e0565b602060031982011261040757600435906001600160401b0382116104075780602383011215610407578160246107169360040135910161094a565b34610407576115eb366115a2565b6115f3614663565b6115fc81613fc1565b156117035781516001600160401b0381116106ba576116258161162060095461064b565b6129ca565b6020601f8211600114611684579161165782611674935f516020614c085f395f51905f52955f91611679575b50612ba9565b6009555b6040516001600160a01b03909116939091829182610705565b0390a2005b90508601515f611651565b60095f52601f198216905f516020614ce85f395f51905f52915f5b8181106116eb5750925f516020614c085f395f51905f5294926001928261167496106116d3575b5050811b0160095561165b565b8701515f1960f88460031b161c191690555f806116c6565b9192602060018192868a01518155019401920161169f565b633cebab8560e21b5f5260045ffd5b346104075760403660031901126104075760043561172f816107e0565b6024356001600160401b03811161040757602091611754610ab5923690600401610a49565b9161343a565b34610407575f366003190112610407577f00000000000000000000000000000000000000000000000000000000000000006001600160a01b031630036117b2576040515f516020614c885f395f51905f528152602090f35b60405162461bcd60e51b815260206004820152603860248201527f555550535570677261646561626c653a206d757374206e6f742062652063616c6044820152771b1959081d1a1c9bdd59da0819195b1959d85d1958d85b1b60421b6064820152608490fd5b34610407576020366003190112610407576020600435611837816107e0565b6040517f00000000000000000000000000000000000000000000000000000000000000006001600160a01b039081169216919091148152f35b34610407575f366003190112610407576040515f6006546118908161064b565b80845290600181169081156107bc57506001146118b75761076d8361076181850382610697565b60065f9081525f516020614d085f395f51905f52939250905b8082106118e857509091508101602001610761610751565b9192600181602092548385880101520191019092916118d0565b34610407576020366003190112610407576020610432600435611924816107e0565b613fc1565b34610407575f366003190112610407576040515f6007546119498161064b565b80845290600181169081156107bc57506001146119705761076d8361076181850382610697565b60075f9081525f516020614c485f395f51905f52939250905b8082106119a157509091508101602001610761610751565b919260018160209254838588010152019101909291611989565b34610407576119c93661046c565b92906119d96104e06104da613533565b6001600160a01b03811680156105db5733036105db576119f7613594565b611a0030614083565b3b15611ae6575b8385036105cc575f5b848110611a1957005b80611a71611a2d6105486001948a8861290c565b611a52611a3986610d0a565b611a4c611a47868c8c61290c565b613463565b906126ec565b80546001600160a01b0319166001600160a01b03909216919091179055565b7f2c722487e90aca38ec1b074c3403210bd2bfb769b4da7f12f7bf0b9e37517c18611aa0611a4783898961290c565b611aae610548848b8961290c565b604080516001600160a01b0380891682526001600160e01b03199094166020820152929091169082015280606081010390a101611a10565b611aef306140bf565b611a07565b3461040757611b02366115a2565b611b0a614663565b611b1381613cd6565b15611c085781516001600160401b0381116106ba57611b3c81611b3760055461064b565b612a1a565b6020601f8211600114611b895791611b6d82611674935f516020614b885f395f51905f52955f916116795750612ba9565b6005556040516001600160a01b03909116939091829182610705565b60055f52601f198216905f516020614b685f395f51905f52915f5b818110611bf05750925f516020614b885f395f51905f529492600192826116749610611bd8575b5050811b0160055561165b565b8701515f1960f88460031b161c191690555f80611bcb565b9192602060018192868a015181550194019201611ba4565b633632b98960e21b5f5260045ffd5b34610407575f366003190112610407576020610ef46104da613533565b3461040757611c42366115a2565b611c4a614663565b611c5381613fc1565b156117035781516001600160401b0381116106ba57611c7c81611c77600a5461064b565b612a6a565b6020601f8211600114611cc95791611cad82611674935f516020614ca85f395f51905f52955f916116795750612ba9565b600a556040516001600160a01b03909116939091829182610705565b600a5f52601f198216905f516020614c285f395f51905f52915f5b818110611d305750925f516020614ca85f395f51905f529492600192826116749610611d18575b5050811b01600a5561165b565b8701515f1960f88460031b161c191690555f80611d0b565b9192602060018192868a015181550194019201611ce4565b3461040757611d56366115a2565b611d5e614663565b611d6781613fc1565b156117035781516001600160401b0381116106ba57611d9081611d8b60085461064b565b612aba565b6020601f8211600114611ddd5791611dc182611674935f516020614bc85f395f51905f52955f916116795750612ba9565b6008556040516001600160a01b03909116939091829182610705565b60085f52601f198216905f516020614cc85f395f51905f52915f5b818110611e445750925f516020614bc85f395f51905f529492600192826116749610611e2c575b5050811b0160085561165b565b8701515f1960f88460031b161c191690555f80611e1f565b9192602060018192868a015181550194019201611df8565b34610407575f366003190112610407576040515f600954611e7c8161064b565b80845290600181169081156107bc5750600114611ea35761076d8361076181850382610697565b60095f9081525f516020614ce85f395f51905f52939250905b808210611ed457509091508101602001610761610751565b919260018160209254838588010152019101909291611ebc565b8015150361040757565b3461040757602036600319011261040757600435611f1581611eee565b611f1d614663565b90611f2782613fc1565b156117035760207fa48b25a14599514510fcdca0f35ff4cd42847f5e61698a238f4ee01e2d1c2c6a9115159260ff19600b541660ff851617600b5560405193845260018060a01b031692a2005b3461040757602036600319011261040757610caa6020600435611f96816107e0565b6001600160a01b03611fa6613940565b16604051808095819463b2acf41d60e01b83523060048401613116565b34610407575f3660031901126104075760205f546040519042108152f35b34610407575f366003190112610407576040517f00000000000000000000000000000000000000000000000000000000000000006001600160a01b03168152602090f35b34610407575f36600319011261040757612044610864600b5460ff1690565b61212d57612050614663565b612059816135f3565b61211e57612065613940565b600c548015159081612111575b50612102576001600160a01b031690813b1561040757604051633868e7e560e01b81523060048201526001600160a01b03821660248201525f6044820181905290928390606490829084905af1918215610bbb5761001c926120e8575b506120e36120de600d54613481565b600d55565b6141ec565b806120f65f6120fc93610697565b806105ea565b5f6120cf565b6302332e7760e21b5f5260045ffd5b9050600d5410155f612072565b63211bad0f60e11b5f5260045ffd5b636dc9375d60e11b5f5260045ffd5b3461040757606036600319011261040757600435612159816107e0565b60243590604435906001600160401b0382116104075761076d9261218761134261158e943690600401610a49565b91614433565b34610407576020366003190112610407576004356121ac611924614663565b1561170357600c55005b6001600160401b0381116106ba5760051b60200190565b9080601f830112156104075781356121e4816121b6565b926121f26040519485610697565b81845260208085019260051b82010192831161040757602001905b82821061221a5750505090565b813581526020918201910161220d565b346104075760a0366003190112610407576122466004356107e0565b6122516024356107e0565b6044356001600160401b038111610407576122709036906004016121cd565b506064356001600160401b038111610407576122909036906004016121cd565b506084356001600160401b038111610407576122b0903690600401610980565b5061076d6122bc61348f565b6040516001600160e01b031990911681529081906020820190565b34610407575f366003190112610407576040517f00000000000000000000000000000000000000000000000000000000000000006001600160a01b03168152602090f35b34610407575f366003190112610407576020600354604051908152f35b34610407575f3660031901126104075760205f54604051908152f35b34610407575f36600319011261040757604051631aab3f0d60e11b81523060048201525f60248201526020816044817f00000000000000000000000000000000000000000000000000000000000000006001600160a01b03165afa8015610bbb5761076d915f916123d057506040519081529081906020820190565b6123e9915060203d602011611488576114798183610697565b5f611106565b34610407575f366003190112610407576020600c54604051908152f35b34610407576020366003190112610407576004356104e061244061242e613533565b6001600160a01b03949290919061417c565b1680156105db5733036105db576301e1338042018042116124b15781116124a2576108e37fa7b24c66dd3269a292a60b3facdbb8f3e7557d1e19e64d99e0d6ee7250be63ad9161248e613594565b805f55604051918291829190602083019252565b6301814f7d60e31b5f5260045ffd5b61346d565b34610407576080366003190112610407576004356124d3816107e0565b6024356124df816107e0565b5f602061253b60443594606435956124f6876107e0565b303314806125c1575b612508906134b1565b60405163095ea7b360e01b81526001600160a01b0387166004820152602481019190915293849283919082906044820190565b03926001600160a01b03165af18015610bbb576125a4575b506001600160a01b0316803b156104075760405163799556e160e11b8152905f90829081838161258688600483016105f4565b03925af18015610bbb5761259657005b806120f65f61001c93610697565b6125bc9060203d602011610bb457610ba68183610697565b612553565b506125086125d1600e5460ff1690565b90506124ff565b34610407576125e6366115a2565b6125ee614663565b6125f781613fc1565b156117035781516001600160401b0381116106ba576126208161261b60075461064b565b612b0a565b6020601f821160011461266d579161265182611674935f516020614b485f395f51905f52955f916116795750612ba9565b6007556040516001600160a01b03909116939091829182610705565b60075f52601f198216905f516020614c485f395f51905f52915f5b8181106126d45750925f516020614b485f395f51905f5294926001928261167496106126bc575b5050811b0160075561165b565b8701515f1960f88460031b161c191690555f806126af565b9192602060018192868a015181550194019201612688565b9063ffffffff60e01b165f5260205260405f2090565b34610407576040366003190112610407576020600435612721816107e0565b6024359061272e826103f5565b6001600160a01b039081165f90815260018452604090209091612750916126ec565b5416604051908152f35b346104075760a0366003190112610407576127766004356107e0565b6127816024356107e0565b6084356001600160401b038111610407576127a0903690600401610980565b506127a961374a565b60405163f23a6e6160e01b8152602090f35b34610407575f3660031901126104075760206127d561445b565b604051908152f35b34610407575f3660031901126104075760606127f7613533565b604080519384526001600160a01b03909216602084015290820152f35b63ffffffff60e01b16635194544760e01b81149081156128b3575b506128ae576104e061284261242e613533565b165f9081526001602052604081206001600160a01b039161286f9190356001600160e01b031916906126ec565b54168061287b57505f90565b5f80916040518061288c81366134f8565b03915afa612898613504565b90156128a657602081519101f35b602081519101fd5b600190565b636faff5f160e01b8114915081156128cd575b505f61282f565b630271189760e51b8114915081156128e7575b505f6128c6565b6301ffc9a760e01b1490505f6128e0565b634e487b7160e01b5f52603260045260245ffd5b919081101561291c5760051b0190565b6128f8565b3561071681611eee565b35610716816107e0565b1561293c57565b60405162461bcd60e51b815260206004820152602e60248201527f496e697469616c697a61626c653a20636f6e747261637420697320616c72656160448201526d191e481a5b9a5d1a585b1a5e995960921b6064820152608490fd5b903590601e198136030182121561040757018035906001600160401b0382116104075760200191813603831361040757565b601f81116129d6575050565b60095f5260205f20906020601f840160051c83019310612a10575b601f0160051c01905b818110612a05575050565b5f81556001016129fa565b90915081906129f1565b601f8111612a26575050565b60055f5260205f20906020601f840160051c83019310612a60575b601f0160051c01905b818110612a55575050565b5f8155600101612a4a565b9091508190612a41565b601f8111612a76575050565b600a5f5260205f20906020601f840160051c83019310612ab0575b601f0160051c01905b818110612aa5575050565b5f8155600101612a9a565b9091508190612a91565b601f8111612ac6575050565b60085f5260205f20906020601f840160051c83019310612b00575b601f0160051c01905b818110612af5575050565b5f8155600101612aea565b9091508190612ae1565b601f8111612b16575050565b60075f5260205f20906020601f840160051c83019310612b50575b601f0160051c01905b818110612b45575050565b5f8155600101612b3a565b9091508190612b31565b601f8211612b6757505050565b5f5260205f20906020601f840160051c83019310612b9f575b601f0160051c01905b818110612b94575050565b5f8155600101612b89565b9091508190612b80565b8160011b915f199060031b1c19161790565b91906001600160401b0381116106ba57612be181612bda60065461064b565b6006612b5a565b5f601f8211600114612c12578190612c0293945f92612c07575b5050612ba9565b600655565b013590505f80612bfb565b60065f52601f198216935f516020614d085f395f51905f52915f5b868110612c645750836001959610612c4b575b505050811b01600655565b01355f19600384901b60f8161c191690555f8080612c40565b90926020600181928686013581550194019101612c2d565b91906001600160401b0381116106ba57612ca281612c9b60075461064b565b6007612b5a565b5f601f8211600114612cc7578190612cc293945f92612c07575050612ba9565b600755565b60075f52601f198216935f516020614c485f395f51905f52915f5b868110612d195750836001959610612d00575b505050811b01600755565b01355f19600384901b60f8161c191690555f8080612cf5565b90926020600181928686013581550194019101612ce2565b91906001600160401b0381116106ba57612d5781612d5060085461064b565b6008612b5a565b5f601f8211600114612d7c578190612d7793945f92612c07575050612ba9565b600855565b60085f52601f198216935f516020614cc85f395f51905f52915f5b868110612dce5750836001959610612db5575b505050811b01600855565b01355f19600384901b60f8161c191690555f8080612daa565b90926020600181928686013581550194019101612d97565b91906001600160401b0381116106ba57612e0c81612e0560095461064b565b6009612b5a565b5f601f8211600114612e31578190612e2c93945f92612c07575050612ba9565b600955565b60095f52601f198216935f516020614ce85f395f51905f52915f5b868110612e835750836001959610612e6a575b505050811b01600955565b01355f19600384901b60f8161c191690555f8080612e5f565b90926020600181928686013581550194019101612e4c565b91906001600160401b0381116106ba57612ec181612eba600a5461064b565b600a612b5a565b5f601f8211600114612ee6578190612ee193945f92612c07575050612ba9565b600a55565b600a5f52601f198216935f516020614c285f395f51905f52915f5b868110612f385750836001959610612f1f575b505050811b01600a55565b01355f19600384901b60f8161c191690555f8080612f14565b90926020600181928686013581550194019101612f01565b8035612f5b816107e0565b6004805462010000600160b01b03191660109290921b62010000600160b01b0316919091179055612f8f6020820182612998565b906001600160401b0382116106ba57612fb482612fad60055461064b565b6005612b5a565b5f90601f831160011461306a5792612fde836130569460e094613068975f92612c07575050612ba9565b6005555b612ff8612ff26040830183612998565b90612bbb565b61300e6130086060830183612998565b90612c7c565b61302461301e6080830183612998565b90612d31565b61303a61303460a0830183612998565b90612de6565b61305061304a60c0830183612998565b90612e9b565b01612921565b60ff8019600b54169115151617600b55565b565b60055f52601f198316915f516020614b685f395f51905f52925f5b8181106130cb57509360e09361306896936001938361305698106130b2575b505050811b01600555612fe2565b01355f19600384901b60f8161c191690555f80806130a4565b91936020600181928787013581550195019201613085565b906130ee9291613865565b6130f6575f90565b630b135d3f60e11b90565b90816020910312610407575161071681611eee565b6001600160a01b0391821681529116602082015260400190565b6040513d5f823e3d90fd5b919081101561291c576060020190565b908160209103126104075751610716816107e0565b95909192939461316e614663565b915f917f0000000000000000000000000000000000000000000000000000000000000000917f0000000000000000000000000000000000000000000000000000000000000000905b8085106131de5750505050506108646131ce91613a4c565b6105db5761071694611589613594565b9091929394613214906131f287848761313b565b906131ff6020830161292b565b9283926040810135938491354690898c6139c1565b92803b1561328857833b6132c7575b6040516331a9108f60e11b81526004810193909352602090839060249082906001600160a01b03165afa5f9281613297575b5061326957631052dd2560e21b5f5260045ffd5b6001600160a01b039081169116036132885794600101939291906131b6565b631052dd2560e21b5f5260045ffd5b6132b991935060203d81116132c0575b6132b18183610697565b81019061314b565b915f613255565b503d6132a7565b604051632938b58d60e21b81526020816004816001600160a01b0389165afa908115610bbb575f9161330a575b5015613223575b636315bfbb60e01b5f5260045ffd5b613322915060203d8111610bb457610ba68183610697565b5f6132f4565b1561332f57565b60405162461bcd60e51b815260206004820152602c60248201525f516020614c685f395f51905f5260448201526b19195b1959d85d1958d85b1b60a21b6064820152608490fd5b1561337d57565b60405162461bcd60e51b815260206004820152602c60248201525f516020614c685f395f51905f5260448201526b6163746976652070726f787960a01b6064820152608490fd5b604051906133d3602083610697565b5f8252565b60405160a091906133e98382610697565b6080815291601f1901366020840137565b919081101561291c5760051b81013590607e1981360301821215610407570190565b3561071681610d8f565b805182101561291c5760209160051b010190565b9061344a9061345093369161094a565b5061402d565b613458575f90565b630291f19360e51b90565b35610716816103f5565b634e487b7160e01b5f52601160045260245ffd5b5f1981146124b15760010190565b61349761374a565b63bc197c8160e01b90565b90816020910312610407575190565b156134b857565b60405162461bcd60e51b81526020600482015260186024820152774f6e6c7920696e7465726e616c206175746f2d7374616b6560401b6044820152606490fd5b90815f8237015f815290565b3d1561352e573d906135158261092f565b916135236040519384610697565b82523d5f602084013e565b606090565b60405190613542608083610697565b60608252613550606061092f565b6020830190601f19013682376060604d82303c6060838051810103126104075751906060604084015193613583856107e0565b015191926001600160a01b03169190565b5f5442106132fb5760035460806135eb6135ac614a5c565b92908360405194859260208401978852604080850152816060850152848401375f838284010152601f801991011681010301601f198101835282610697565b519020600355565b6135fe610af0613940565b6040516311e3579360e31b815291906020838061361f853060048401613116565b0381845afa928315610bbb575f936136f3575b508215613698575b821561364557505090565b61366a925090602091604051808095819463f582bceb60e01b83523060048401613116565b03915afa908115610bbb575f9161367f575090565b610716915060203d602011610bb457610ba68183610697565b604051630e70978b60e21b8152909250602081806136ba853060048401613116565b0381865afa908115610bbb575f916136d4575b509161363a565b6136ed915060203d602011610bb457610ba68183610697565b5f6136cd565b61370d91935060203d602011610bb457610ba68183610697565b915f613632565b60609190911b6001600160601b03191681526028929190815f6014830137019060018060601b03199060601b1660148201520190565b61377561376361375e6104e06104da613533565b610d0a565b5f356001600160e01b031916906126ec565b546001600160a01b0316806137875750565b5f809161379330614083565b90826040516137bc816137ae60208201953390369088613714565b03601f198101835282610697565b51925af1612898613504565b906040101561291c5760400190565b906020116104075790602090565b906040116104075760200190602090565b90929192836020116104075783116104075760200191601f190190565b90939293848311610407578411610407578101920390565b359060208110613839575090565b5f199060200360031b1b1690565b6005111561385157565b634e487b7160e01b5f52602160045260245ffd5b909160ff61388d61388761387984876137c8565b356001600160f81b03191690565b60f81c90565b16156138c6576138a8926138a291369161094a565b90614632565b6138b181613847565b6138c1576107169061344a6133c4565b505f90565b906138e0610af0610af06138da85876137d7565b9061382b565b916138e96133c4565b506138f66108648461402d565b8061392d575b6139255761134a8185816139196138da61391f966107169a6137e5565b91613813565b916145b2565b505050505f90565b506001600160a01b0383163014156138fc565b613948613533565b506001600160a01b0316905080156139935760206004916040519283809263b4a9c60760e01b82525afa908115610bbb575f916139a2575b506001600160a01b038116156139935790565b63a9ec899b60e01b5f5260045ffd5b6139bb915060203d6020116132c0576132b18183610697565b5f613980565b91929060559591600b956040519360b785015260018060a01b0316609784015260778301528360578301526e5af43d82803e903d91602b57fd5bf360378301526028820152733d60ad80600a3d3981f3363d3d373d3d3d363d73601482015260b7815260d781016040526020815191012091604051926040840152602083015281520160ff81532090565b6001600160a01b03818116907f0000000000000000000000000000000000000000000000000000000000000000168114613ae757613a88613533565b90468303613af6575b613a9a9261417c565b6001600160a01b0381168214613aee57613ab3906144ba565b906001600160a01b03821614613ae757613adf91613ad3613ad892610cf1565b610d23565b5460ff1690565b6128ae575f90565b5050600190565b505050600190565b613b1c613b01614663565b6001600160a01b0390811661111061111160901b0119011690565b6001600160a01b03163014613b8c576040516333932be560e11b815260208180613b4989600483016105f4565b03817f00000000000000000000000000000000000000000000000000000000000000006001600160a01b03165afa908115610bbb575f91613b96575b5015613a91575b5050505050600190565b613baf915060203d602011610bb457610ba68183610697565b5f613b85565b60609190911b6001600160601b03191681526014929182908483013701015f815290565b9092919360ff16908115613cc35760018214613c72575060028114613c5b57600314613c0e57631cc6a69960e11b5f5260045ffd5b8261071692613c318380613c2b6138da613c39976137ae9a6137d7565b946137f6565b929091613d24565b6040519283916020830160609190911b6001600160601b031916815260140190565b50610716916113516137ae94613c3993369161094a565b6107169493929150613cb090613ca2613c8a30614083565b93843b15613cb5575b60405196879360208501613bb5565b03601f198101855284610697565b614433565b613cbe306140bf565b613c93565b929161218791509361071694369161094a565b61366a906020906001600160a01b03613ced613940565b16604051808095819463f582bceb60e01b83523060048401613116565b6001600160a01b03613d1b30614083565b1633036105db57565b91613d319193369161094a565b9060208251920190f5906001600160a01b03821615613d4c57565b63a28c247360e01b5f5260045ffd5b6020613d7b9160405180938192631506fd4d60e01b8352600483016105f4565b03817f00000000000000000000000000000000000000000000000000000000000000006001600160a01b03165afa908115610bbb575f91613de0575b5015613dd157613dcb610864611226614663565b6105db57565b63340aafcd60e11b5f5260045ffd5b613df9915060203d602011610bb457610ba68183610697565b5f613db7565b15613e0657565b60405162461bcd60e51b815260206004820152602960248201527f45524331393637557067726164653a20756e737570706f727465642070726f786044820152681a58589b195555525160ba1b6064820152608490fd5b60809060208152602e60208201527f45524331393637557067726164653a206e657720696d706c656d656e7461746960408201526d6f6e206973206e6f74205555505360901b60608201520190565b90613ec55f516020614ba85f395f51905f525460ff1690565b15613ed4575061306890614773565b6040516352d1902d60e01b8152906020826004816001600160a01b0387165afa5f9281613f37575b50613f1a5760405162461bcd60e51b81528061143760048201613e5d565b613068926114595f516020614c885f395f51905f525f9414613dff565b613f5191935060203d602011611488576114798183610697565b915f613efc565b613f9a917b0ca2ba3432b932bab69029b4b3b732b21026b2b9b9b0b3b29d05199960211b5f52601c52613f94603c5f2091610140810190612998565b91613865565b613fa357600190565b5f90565b60208251920190f0906001600160a01b03821615613d4c57565b613fcc610af0613940565b604051630e70978b60e21b8152919060208380613fed853060048401613116565b0381845afa928315610bbb575f9361400c575b50821561364557505090565b61402691935060203d602011610bb457610ba68183610697565b915f614000565b6140386104da613533565b6001600160a01b03828116919081168214613aee576001600160a01b039061405f906144ba565b16809114613ae75760ff9161407e915f52600260205260405f20610d23565b541690565b600b614090605592614803565b602081519101206040519060408201525f516020614be85f395f51905f5260208201523081520160ff81532090565b6140c890614803565b8051156141385780516001600160a01b03915f516020614be85f395f51905f5291906020015ff516156140f757565b60405162461bcd60e51b8152602060048201526019602482015278437265617465323a204661696c6564206f6e206465706c6f7960381b6044820152606490fd5b606460405162461bcd60e51b815260206004820152602060248201527f437265617465323a2062797465636f6465206c656e677468206973207a65726f6044820152fd5b46036141e657803b156141e6576040516331a9108f60e11b81526004810192909252602090829060249082906001600160a01b03165afa5f91816141c5575b5061071657505f90565b6141df91925060203d6020116132c0576132b18183610697565b905f6141bb565b50505f90565b6141f7610af06148cd565b906001600160a01b0382161561442f57604051631d973c7360e21b8152916020838061422630600483016105f4565b0381845afa928315610bbb575f9361440e575b506001600160a01b03831692831561440857604051634bf3ba3f60e01b815291602083600481845afa928315610bbb575f936143e7575b5082156143a257602060049160405192838092634db3da5b60e11b82525afa908115610bbb575f916143c8575b506001600160a01b03169081156143a2576040516370a0823160e01b8152602081806142cc30600483016105f4565b0381865afa8015610bbb5784915f916143a9575b50106143a2576142f8600160ff19600e541617600e55565b303b1561040757604051636f9a0e2560e11b81526001600160a01b03928316600482015290821660248201526044810192909252821660648201525f8160848183305af1908161438e575b5061435a575b505061306860ff19600e5416600e55565b6001600160a01b03167f80e20f0983f621b9f0480903a18b77ebc5a265c2d824ebe6b98dde91e811521f5f80a35f80614349565b806120f65f61439c93610697565b5f614343565b5050505050565b6143c2915060203d602011611488576114798183610697565b5f6142e0565b6143e1915060203d6020116132c0576132b18183610697565b5f61429d565b61440191935060203d602011611488576114798183610697565b915f614270565b50505050565b61442891935060203d6020116132c0576132b18183610697565b915f614239565b5050565b915f928392602083519301915af19061444a613504565b911561445257565b50602081519101fd5b6001600160a01b0361446b614910565b1680156138c15760206024916040519283809263a1d4b07f60e01b82523060048301525afa908115610bbb575f916144a1575090565b610716915060203d602011611488576114798183610697565b907f0000000000000000000000000000000000000000000000000000000000000000917f0000000000000000000000000000000000000000000000000000000000000000905b61450b828583614953565b156145ad57604051637e062a3560e11b81529190606090839060049082906001600160a01b03165afa918215610bbb575f5f915f9461455c575b50926145549161450b9461417c565b909150614500565b935050506060823d82116145a5575b8161457860609383610697565b810103126104075761455461450b928051604060208301519261459a846107e0565b015194509091614545565b3d915061456b565b925050565b5f92916137ae6145e885946040519283916020830195630b135d3f60e11b875260248401526040604484015260648301906106e0565b51915afa6145f4613504565b81614624575b81614603575090565b9050614620630b135d3f60e11b91602080825183010191016134a2565b1490565b9050602081511015906145fa565b9060418151145f1461465a576104b891602082015190606060408401519301515f1a906149eb565b50505f90600290565b337f00000000000000000000000000000000000000000000000000000000000000006001600160a01b031614806146aa575b156146a65736601319013560601c90565b3390565b506014361015614695565b916146bf83614773565b6001600160a01b0383167fbc7cd75a20ee27fd9adebab32041f755214dbc6bffa90cc0225b39da2e5c2d3b5f80a28151159081159161476b575b50614702575050565b614768915f8060405193614717606086610697565b602785527f416464726573733a206c6f772d6c6576656c2064656c65676174652063616c6c6020860152660819985a5b195960ca1b6040860152602081519101845af4614762613504565b91614ab6565b50565b90505f6146f9565b803b156147a8575f516020614c885f395f51905f5280546001600160a01b0319166001600160a01b0392909216919091179055565b60405162461bcd60e51b815260206004820152602d60248201527f455243313936373a206e657720696d706c656d656e746174696f6e206973206e60448201526c1bdd08184818dbdb9d1c9858dd609a1b6064820152608490fd5b610716601461489b926020604080519261481d8285610697565b600e84526d604380600d600039806000f3fe7360901b83850190815282516148bc9161484a606083610697565b602e8252858201947f3314601d573d3dfd5b363d3d373d3d6014360360143d5160601c5af43d60008086526d3e80603e573d6000fd5b3d6000f360901b8184015251998a97518092888a01906106bf565b86019260018060601b03199060601b168584015251809360348401906106bf565b01010301601f198101835282610697565b6148d5613533565b506001600160a01b0316905080156138c1576020600491604051928380926372a0d6ad60e01b82525afa5f91816141c5575061071657505f90565b614918613533565b506001600160a01b0316905080156138c1576020600491604051928380926320136bb160e11b82525afa5f91816141c5575061071657505f90565b9160ad833b036149e4576014600a600c853c5f5191823b15613925576001600160a01b03908116908316036149e45761498a6133d8565b60208101916080602d84873c608082805181010312610407576149d593610af0935160408401519160806060860151956149c3876107e0565b0151946001600160a01b0316936139c1565b6001600160a01b039091161490565b5050505f90565b6fa2a8918ca85bafe22016d0b997e4df60600160ff1b038411614a51576020935f9360ff60809460405194855216868401526040830152606082015282805260015afa15610bbb575f516001600160a01b03811615614a4957905f90565b505f90600190565b505050505f90600390565b337f00000000000000000000000000000000000000000000000000000000000000006001600160a01b03161480614aab575b15614aa5576013193601903682116124b1575f9190565b5f903690565b506014361015614a8e565b91929015614b185750815115614aca575090565b3b15614ad35790565b60405162461bcd60e51b815260206004820152601d60248201527f416464726573733a2063616c6c20746f206e6f6e2d636f6e74726163740000006044820152606490fd5b825190915015614b2b5750805190602001fd5b60405162461bcd60e51b8152908190611437906004830161070556fe37cc8c6ced0cbc4d440fcfa810a2f09f40b8f0127c3656103edf26b3d93e0ec1036b6384b5eca791c62761152d0c79bb0604c104a5fb6f4eb0703f3154bb3db074321da206c1b9fa34367f7ece59ca49371dcd13820b9a5c3767ae1ecceed51a4910fdfa16fed3260ed0e7147f7cc6da11a60208b5b9406d12a635614ffd914323146a23bca92967799f9c14b4995bb19ca27a6331c8a66f695bc2525281502497f795a08410e77dc9dbbaba3915f17c601e45642518dd578bd440d8775bfee47f0cd4337b583a09080a4036ee4935d1069f38152ad2f0750588bb752c66916dc65a7bb8d6351c1cf70c95a316cc6a92839c986682d98bc35f958f4883f9d2a8a66cc928b5edb82af9bd49922954155ab7b0942694bea4ce44661d9a8736c68846756e6374696f6e206d7573742062652063616c6c6564207468726f75676820360894a13ba1a3210667c828492db98dca3e2076cc3735a920a3ca505d382bbc2013570c343af8ab14a9778150e381a0fda34ed6368127a95fd5e7210cbec5bff3f7a9fe364faab93b216da50a3214154f22a0a2b415b23a84c8169e8b636ee36e1540171b6c0c960b71a7020d9f60077f6af931a8bbf590da0223dacf75c7aff652222313e28459528d920b65115c16c04f3efc82aaedc97be59f3f377c0d3fa164736f6c634300081c000a","linkReferences":{}},"methodIdentifiers":{"ASSESSMENT_RESOLVER()":"3a208f95","WORK_APPROVAL_RESOLVER()":"bcc5cf88","bannerImage()":"94def29d","communityToken()":"29aa1617","description()":"7284e416","entryPoint()":"b0d691fe","erc6551Registry()":"056d5afe","execute(address,uint256,bytes,uint8)":"51945447","executeAutoStake(address,address,uint256,address)":"df341c4a","executeBatch((address,uint256,bytes,uint8)[])":"43629a73","executeNested(address,uint256,bytes,uint8,(bytes32,address,uint256)[])":"1fb1ecf0","extcall(address,uint256,bytes)":"b709467c","extcreate(uint256,bytes)":"45a24e3e","extcreate2(uint256,bytes32,bytes)":"34715fb1","extsload(bytes32)":"1e2eaeaf","gapProjectUID()":"f7fc57b0","gardenMemberCount()":"41c6c428","getGAPProjectUID()":"f89b9b93","getNonce()":"d087d288","initialize((address,string,string,string,string,string,string,bool))":"0bc4241b","isCommunity(address)":"993fa20b","isEvaluator(address)":"1b561cf9","isFunder(address)":"1ea48870","isGardener(address)":"0959f6a8","isLocked()":"a4e2d634","isOperator(address)":"6d70f7ae","isOwner(address)":"2f54bf6e","isTrustedForwarder(address)":"572b6c05","isValidSignature(bytes32,bytes)":"1626ba7e","isValidSigner(address,bytes)":"523e3260","joinGarden()":"b10006a6","location()":"516f279e","lock(uint256)":"dd467064","lockedUntil()":"ce0617ec","maxGardeners()":"d7962d09","metadata()":"392f37e9","name()":"06fdde03","onERC1155BatchReceived(address,address,uint256[],uint256[],bytes)":"bc197c81","onERC1155Received(address,address,uint256,uint256,bytes)":"f23a6e61","onERC721Received(address,address,uint256,bytes)":"150b7a02","openJoining()":"291d0548","overrides(address,bytes4)":"ee9c6054","owner()":"8da5cb5b","permissions(address,address)":"1f9838b5","proxiableUUID()":"52d1902d","setMaxGardeners(uint256)":"ba176bbc","setOpenJoining(bool)":"98b7a25a","setOverrides(bytes4[],address[])":"7a8f7356","setPermissions(address[],bool[])":"039721b1","slug()":"6beb7959","state()":"c19d93fb","supportsInterface(bytes4)":"01ffc9a7","token()":"fc0c546a","updateBannerImage(string)":"52094e55","updateDescription(string)":"e735b48a","updateLocation(string)":"932354c1","updateMetadata(string)":"918b5be1","updateName(string)":"84da92a7","upgradeTo(address)":"3659cfe6","upgradeToAndCall(address,bytes)":"4f1ef286","validateUserOp((address,uint256,bytes,bytes,uint256,uint256,uint256,uint256,uint256,bytes,bytes),bytes32,uint256)":"3a871cdd"},"id":126}