{"abi":[{"type":"constructor","inputs":[{"name":"gardenAccountImplementation","type":"address","internalType":"address"}],"stateMutability":"nonpayable"},{"type":"function","name":"approve","inputs":[{"name":"to","type":"address","internalType":"address"},{"name":"tokenId","type":"uint256","internalType":"uint256"}],"outputs":[],"stateMutability":"nonpayable"},{"type":"function","name":"balanceOf","inputs":[{"name":"owner","type":"address","internalType":"address"}],"outputs":[{"name":"","type":"uint256","internalType":"uint256"}],"stateMutability":"view"},{"type":"function","name":"batchMintGardens","inputs":[{"name":"configs","type":"tuple[]","internalType":"struct GardenToken.GardenConfig[]","components":[{"name":"communityToken","type":"address","internalType":"address"},{"name":"name","type":"string","internalType":"string"},{"name":"description","type":"string","internalType":"string"},{"name":"location","type":"string","internalType":"string"},{"name":"bannerImage","type":"string","internalType":"string"},{"name":"metadata","type":"string","internalType":"string"},{"name":"openJoining","type":"bool","internalType":"bool"},{"name":"weightScheme","type":"uint8","internalType":"enum IGardensModule.WeightScheme"}]}],"outputs":[{"name":"gardenAccounts","type":"address[]","internalType":"address[]"}],"stateMutability":"nonpayable"},{"type":"function","name":"deploymentRegistry","inputs":[],"outputs":[{"name":"","type":"address","internalType":"address"}],"stateMutability":"view"},{"type":"function","name":"gardensModule","inputs":[],"outputs":[{"name":"","type":"address","internalType":"contract IGardensModule"}],"stateMutability":"view"},{"type":"function","name":"getApproved","inputs":[{"name":"tokenId","type":"uint256","internalType":"uint256"}],"outputs":[{"name":"","type":"address","internalType":"address"}],"stateMutability":"view"},{"type":"function","name":"hatsModule","inputs":[],"outputs":[{"name":"","type":"address","internalType":"contract IHatsModule"}],"stateMutability":"view"},{"type":"function","name":"initialize","inputs":[{"name":"_multisig","type":"address","internalType":"address"},{"name":"_deploymentRegistry","type":"address","internalType":"address"}],"outputs":[],"stateMutability":"nonpayable"},{"type":"function","name":"isApprovedForAll","inputs":[{"name":"owner","type":"address","internalType":"address"},{"name":"operator","type":"address","internalType":"address"}],"outputs":[{"name":"","type":"bool","internalType":"bool"}],"stateMutability":"view"},{"type":"function","name":"karmaGAPModule","inputs":[],"outputs":[{"name":"","type":"address","internalType":"contract IKarmaGAPModule"}],"stateMutability":"view"},{"type":"function","name":"mintGarden","inputs":[{"name":"config","type":"tuple","internalType":"struct GardenToken.GardenConfig","components":[{"name":"communityToken","type":"address","internalType":"address"},{"name":"name","type":"string","internalType":"string"},{"name":"description","type":"string","internalType":"string"},{"name":"location","type":"string","internalType":"string"},{"name":"bannerImage","type":"string","internalType":"string"},{"name":"metadata","type":"string","internalType":"string"},{"name":"openJoining","type":"bool","internalType":"bool"},{"name":"weightScheme","type":"uint8","internalType":"enum IGardensModule.WeightScheme"}]}],"outputs":[{"name":"","type":"address","internalType":"address"}],"stateMutability":"nonpayable"},{"type":"function","name":"name","inputs":[],"outputs":[{"name":"","type":"string","internalType":"string"}],"stateMutability":"view"},{"type":"function","name":"octantModule","inputs":[],"outputs":[{"name":"","type":"address","internalType":"contract OctantModule"}],"stateMutability":"view"},{"type":"function","name":"owner","inputs":[],"outputs":[{"name":"","type":"address","internalType":"address"}],"stateMutability":"view"},{"type":"function","name":"ownerOf","inputs":[{"name":"tokenId","type":"uint256","internalType":"uint256"}],"outputs":[{"name":"","type":"address","internalType":"address"}],"stateMutability":"view"},{"type":"function","name":"proxiableUUID","inputs":[],"outputs":[{"name":"","type":"bytes32","internalType":"bytes32"}],"stateMutability":"view"},{"type":"function","name":"renounceOwnership","inputs":[],"outputs":[],"stateMutability":"nonpayable"},{"type":"function","name":"safeTransferFrom","inputs":[{"name":"from","type":"address","internalType":"address"},{"name":"to","type":"address","internalType":"address"},{"name":"tokenId","type":"uint256","internalType":"uint256"}],"outputs":[],"stateMutability":"nonpayable"},{"type":"function","name":"safeTransferFrom","inputs":[{"name":"from","type":"address","internalType":"address"},{"name":"to","type":"address","internalType":"address"},{"name":"tokenId","type":"uint256","internalType":"uint256"},{"name":"data","type":"bytes","internalType":"bytes"}],"outputs":[],"stateMutability":"nonpayable"},{"type":"function","name":"setApprovalForAll","inputs":[{"name":"operator","type":"address","internalType":"address"},{"name":"approved","type":"bool","internalType":"bool"}],"outputs":[],"stateMutability":"nonpayable"},{"type":"function","name":"setDeploymentRegistry","inputs":[{"name":"_deploymentRegistry","type":"address","internalType":"address"}],"outputs":[],"stateMutability":"nonpayable"},{"type":"function","name":"setGardensModule","inputs":[{"name":"_gardensModule","type":"address","internalType":"address"}],"outputs":[],"stateMutability":"nonpayable"},{"type":"function","name":"setHatsModule","inputs":[{"name":"_hatsModule","type":"address","internalType":"address"}],"outputs":[],"stateMutability":"nonpayable"},{"type":"function","name":"setKarmaGAPModule","inputs":[{"name":"_karmaGAPModule","type":"address","internalType":"address"}],"outputs":[],"stateMutability":"nonpayable"},{"type":"function","name":"setOctantModule","inputs":[{"name":"_octantModule","type":"address","internalType":"address"}],"outputs":[],"stateMutability":"nonpayable"},{"type":"function","name":"supportsInterface","inputs":[{"name":"interfaceId","type":"bytes4","internalType":"bytes4"}],"outputs":[{"name":"","type":"bool","internalType":"bool"}],"stateMutability":"view"},{"type":"function","name":"symbol","inputs":[],"outputs":[{"name":"","type":"string","internalType":"string"}],"stateMutability":"view"},{"type":"function","name":"tokenURI","inputs":[{"name":"tokenId","type":"uint256","internalType":"uint256"}],"outputs":[{"name":"","type":"string","internalType":"string"}],"stateMutability":"view"},{"type":"function","name":"transferFrom","inputs":[{"name":"from","type":"address","internalType":"address"},{"name":"to","type":"address","internalType":"address"},{"name":"tokenId","type":"uint256","internalType":"uint256"}],"outputs":[],"stateMutability":"nonpayable"},{"type":"function","name":"transferOwnership","inputs":[{"name":"newOwner","type":"address","internalType":"address"}],"outputs":[],"stateMutability":"nonpayable"},{"type":"function","name":"upgradeTo","inputs":[{"name":"newImplementation","type":"address","internalType":"address"}],"outputs":[],"stateMutability":"nonpayable"},{"type":"function","name":"upgradeToAndCall","inputs":[{"name":"newImplementation","type":"address","internalType":"address"},{"name":"data","type":"bytes","internalType":"bytes"}],"outputs":[],"stateMutability":"payable"},{"type":"event","name":"AdminChanged","inputs":[{"name":"previousAdmin","type":"address","indexed":false,"internalType":"address"},{"name":"newAdmin","type":"address","indexed":false,"internalType":"address"}],"anonymous":false},{"type":"event","name":"Approval","inputs":[{"name":"owner","type":"address","indexed":true,"internalType":"address"},{"name":"approved","type":"address","indexed":true,"internalType":"address"},{"name":"tokenId","type":"uint256","indexed":true,"internalType":"uint256"}],"anonymous":false},{"type":"event","name":"ApprovalForAll","inputs":[{"name":"owner","type":"address","indexed":true,"internalType":"address"},{"name":"operator","type":"address","indexed":true,"internalType":"address"},{"name":"approved","type":"bool","indexed":false,"internalType":"bool"}],"anonymous":false},{"type":"event","name":"BatchGardensMinted","inputs":[{"name":"startTokenId","type":"uint256","indexed":true,"internalType":"uint256"},{"name":"endTokenId","type":"uint256","indexed":true,"internalType":"uint256"},{"name":"minter","type":"address","indexed":true,"internalType":"address"},{"name":"count","type":"uint256","indexed":false,"internalType":"uint256"}],"anonymous":false},{"type":"event","name":"BeaconUpgraded","inputs":[{"name":"beacon","type":"address","indexed":true,"internalType":"address"}],"anonymous":false},{"type":"event","name":"GardenMinted","inputs":[{"name":"tokenId","type":"uint256","indexed":true,"internalType":"uint256"},{"name":"account","type":"address","indexed":true,"internalType":"address"},{"name":"name","type":"string","indexed":false,"internalType":"string"},{"name":"description","type":"string","indexed":false,"internalType":"string"},{"name":"location","type":"string","indexed":false,"internalType":"string"},{"name":"bannerImage","type":"string","indexed":false,"internalType":"string"},{"name":"openJoining","type":"bool","indexed":false,"internalType":"bool"}],"anonymous":false},{"type":"event","name":"GardensModuleUpdated","inputs":[{"name":"oldModule","type":"address","indexed":true,"internalType":"address"},{"name":"newModule","type":"address","indexed":true,"internalType":"address"}],"anonymous":false},{"type":"event","name":"HatsModuleUpdated","inputs":[{"name":"oldModule","type":"address","indexed":true,"internalType":"address"},{"name":"newModule","type":"address","indexed":true,"internalType":"address"}],"anonymous":false},{"type":"event","name":"Initialized","inputs":[{"name":"version","type":"uint8","indexed":false,"internalType":"uint8"}],"anonymous":false},{"type":"event","name":"KarmaGAPModuleUpdated","inputs":[{"name":"oldModule","type":"address","indexed":true,"internalType":"address"},{"name":"newModule","type":"address","indexed":true,"internalType":"address"}],"anonymous":false},{"type":"event","name":"OctantModuleUpdated","inputs":[{"name":"oldModule","type":"address","indexed":true,"internalType":"address"},{"name":"newModule","type":"address","indexed":true,"internalType":"address"}],"anonymous":false},{"type":"event","name":"OwnershipTransferred","inputs":[{"name":"previousOwner","type":"address","indexed":true,"internalType":"address"},{"name":"newOwner","type":"address","indexed":true,"internalType":"address"}],"anonymous":false},{"type":"event","name":"Transfer","inputs":[{"name":"from","type":"address","indexed":true,"internalType":"address"},{"name":"to","type":"address","indexed":true,"internalType":"address"},{"name":"tokenId","type":"uint256","indexed":true,"internalType":"uint256"}],"anonymous":false},{"type":"event","name":"Upgraded","inputs":[{"name":"implementation","type":"address","indexed":true,"internalType":"address"}],"anonymous":false},{"type":"error","name":"CommunityTokenNotContract","inputs":[]},{"type":"error","name":"DeploymentRegistryNotConfigured","inputs":[]},{"type":"error","name":"HatsModuleNotSet","inputs":[]},{"type":"error","name":"InvalidBatchSize","inputs":[]},{"type":"error","name":"InvalidCommunityToken","inputs":[]},{"type":"error","name":"InvalidERC20Token","inputs":[]},{"type":"error","name":"UnauthorizedMinter","inputs":[]}],"bytecode":{"object":"0x60c03461013357601f612fe038819003918201601f19168301916001600160401b038311848410176101375780849260209460405283398101031261013357516001600160a01b0381168103610133573060805260a0525f5460ff8160081c166100de5760ff808216036100a4575b604051612e94908161014c82396080518181816107fc015281816108ea015261106c015260a05181818161129101526116700152f35b60ff90811916175f557f7f26b83ff96e1f2b6a682f133852f6798a09c465da95921460cefb3847402498602060405160ff8152a15f61006e565b60405162461bcd60e51b815260206004820152602760248201527f496e697469616c697a61626c653a20636f6e747261637420697320696e697469604482015266616c697a696e6760c81b6064820152608490fd5b5f80fd5b634e487b7160e01b5f52604160045260245ffdfe6080806040526004361015610012575f80fd5b5f3560e01c90816301ffc9a714611b6b5750806306fdde0314611ac2578063081812fc14611aa4578063095ea7b31461193057806314902ad3146118ed57806323b872dd146118c9578063266f8652146118a1578063280f42f5146114c85780632b9a6839146111ff5780633659cfe6146110475780634026d7621461101f57806342842e0e14610fed578063485cc95514610b945780634c52844614610b2b5780634f1ef286146108ac57806352d1902d146107ea5780636352211e146107ba57806370a0823114610725578063715018a6146106ca57806372a0d6ad146106a25780638da5cb5b1461067a57806395d89b411461059c578063a22cb465146104ce578063adcb922114610465578063b4a9c6071461043d578063b88d4fde146103c9578063c6631092146103a1578063c87b56dd14610333578063d9e4aaee146102ca578063e7efdb2614610261578063e985e9c51461020f5763f2fde38b1461017c575f80fd5b3461020b57602036600319011261020b57610195611c14565b61019d6120ad565b6001600160a01b038116156101b7576101b590612aa5565b005b60405162461bcd60e51b815260206004820152602660248201527f4f776e61626c653a206e6577206f776e657220697320746865207a65726f206160448201526564647265737360d01b6064820152608490fd5b5f80fd5b3461020b57604036600319011261020b57610228611c14565b610230611c2a565b9060018060a01b038091165f52606a60205260405f2091165f52602052602060ff60405f2054166040519015158152f35b3461020b57602036600319011261020b5761027a611c14565b6102826120ad565b60ce80546001600160a01b039283166001600160a01b0319821681179092559091167f1c2f4d6765fbc35ee83d1598538969716facf03e15ae9183c5f99259aeb5d3315f80a3005b3461020b57602036600319011261020b576102e3611c14565b6102eb6120ad565b60cc80546001600160a01b039283166001600160a01b0319821681179092559091167fdbf2e72ed7bd92ccbb36e552bb0c1a8df6df7e6a54ab7ddc78720975e93fc88e5f80a3005b3461020b57602036600319011261020b576004355f90815260676020526040902054610369906001600160a01b0316151561203f565b5f60405161037681611c88565b5261039d60405161038681611c88565b5f8152604051918291602083526020830190611bd6565b0390f35b3461020b575f36600319011261020b5760ca546040516001600160a01b039091168152602090f35b3461020b57608036600319011261020b576103e2611c14565b6103ea611c2a565b90606435906044356001600160401b03831161020b576101b593610415610438943690600401611d4b565b926104286104238433612105565b611ddd565b6104338383836121c9565b612d0e565b612b40565b3461020b575f36600319011261020b5760cb546040516001600160a01b039091168152602090f35b3461020b57602036600319011261020b5761047e611c14565b6104866120ad565b60cb80546001600160a01b039283166001600160a01b0319821681179092559091167fc8fef5c294d0999b744f1c0123bb9e98e3e739de8245692fde6df4f4625efc505f80a3005b3461020b57604036600319011261020b576104e7611c14565b6024359081151580920361020b576001600160a01b03169033821461055757335f52606a60205260405f20825f5260205260405f2060ff1981541660ff83161790556040519081527f17307eab39ab6107e8899845ad3d59bd9653f200f220920489ca2b5937696c3160203392a3005b60405162461bcd60e51b815260206004820152601960248201527f4552433732313a20617070726f766520746f2063616c6c6572000000000000006044820152606490fd5b3461020b575f36600319011261020b576040516066545f826105bd83611d69565b91828252602093600190856001821691825f1461065a5750506001146105ff575b506105eb92500383611cd9565b61039d604051928284938452830190611bd6565b84915060665f527f46501879b8ca8525e8c2fd519e2fbfcfa2ebea26501294aa02cbfcfb12e94354905f915b8583106106425750506105eb9350820101856105de565b8054838901850152879450869390920191810161062b565b60ff1916858201526105eb95151560051b85010192508791506105de9050565b3461020b575f36600319011261020b576097546040516001600160a01b039091168152602090f35b3461020b575f36600319011261020b5760ce546040516001600160a01b039091168152602090f35b3461020b575f36600319011261020b576106e26120ad565b609780546001600160a01b031981169091555f906001600160a01b03167f8be0079c531659141344cd1fd0a4f28419497f9722a3daafe3b4186f6b6457e08280a3005b3461020b57602036600319011261020b576001600160a01b03610746611c14565b168015610763575f526068602052602060405f2054604051908152f35b60405162461bcd60e51b815260206004820152602960248201527f4552433732313a2061646472657373207a65726f206973206e6f7420612076616044820152683634b21037bbb732b960b91b6064820152608490fd5b3461020b57602036600319011261020b5760206107d860043561208b565b6040516001600160a01b039091168152f35b3461020b575f36600319011261020b577f00000000000000000000000000000000000000000000000000000000000000006001600160a01b031630036108415760206040515f80516020612e688339815191528152f35b60405162461bcd60e51b815260206004820152603860248201527f555550535570677261646561626c653a206d757374206e6f742062652063616c60448201527f6c6564207468726f7567682064656c656761746563616c6c00000000000000006064820152608490fd5b604036600319011261020b576108c0611c14565b6024356001600160401b03811161020b576108df903690600401611d4b565b906001600160a01b037f000000000000000000000000000000000000000000000000000000000000000081169061091830831415611f7d565b6109345f80516020612e68833981519152928284541614611fde565b61093c6120ad565b7f4910fdfa16fed3260ed0e7147f7cc6da11a60208b5b9406d12a635614ffd91435460ff16156109725750506101b59150612b64565b6040516352d1902d60e01b81526020939291831691908481600481865afa5f9181610afc575b506109f95760405162461bcd60e51b815260048101869052602e60248201527f45524331393637557067726164653a206e657720696d706c656d656e7461746960448201526d6f6e206973206e6f74205555505360901b6064820152608490fd5b03610aa557610a0782612b64565b7fbc7cd75a20ee27fd9adebab32041f755214dbc6bffa90cc0225b39da2e5c2d3b5f80a2825115801590610a9d575b610a3c57005b5f806101b59460405194610a4f86611ca3565b602786527f416464726573733a206c6f772d6c6576656c2064656c65676174652063616c6c81870152660819985a5b195960ca1b604087015281519101845af4610a97612bf3565b91612dce565b506001610a36565b60405162461bcd60e51b815260048101849052602960248201527f45524331393637557067726164653a20756e737570706f727465642070726f786044820152681a58589b195555525160ba1b6064820152608490fd5b9091508581813d8311610b24575b610b148183611cd9565b8101031261020b57519087610998565b503d610b0a565b3461020b57602036600319011261020b57610b44611c14565b610b4c6120ad565b60cd80546001600160a01b039283166001600160a01b0319821681179092559091167f8240dda544eb8ec4199e2248ad32f0b0962089fa82835994e8291bd75b5a663a5f80a3005b3461020b57604036600319011261020b57610bad611c14565b610bb5611c2a565b905f549160ff8360081c161590818092610fe0575b8015610fc9575b15610f6d57600193828560ff198316175f55610f5c575b5060405192610bf684611cbe565b601284526020937123b932b2b71023b7b7b2399023b0b93232b760711b8582015260405190610c2482611cbe565b600382526247474760e81b86830152610c4c60ff5f5460081c16610c4781612a45565b612a45565b8051916001600160401b0392838111610e515780610c6b606554611d69565b93601f94858111610eef575b508990858311600114610e70575f92610e65575b50505f19600383901b1c191690891b176065555b8051928311610e5157610cb3606654611d69565b828111610def575b5086918311600114610d6b57610d0b9392915f9183610d60575b50505f19600383901b1c191690871b176066555b610cfd60ff5f5460081c16610c4781612a45565b610d0633612aa5565b612aa5565b60018060a01b03166001600160601b0360a01b60ca54161760ca55610d2c57005b7f7f26b83ff96e1f2b6a682f133852f6798a09c465da95921460cefb38474024989161ff00195f54165f55604051908152a1005b015190508880610cd5565b92918791601f1982169060665f527f46501879b8ca8525e8c2fd519e2fbfcfa2ebea26501294aa02cbfcfb12e94354915f5b8a828210610dd95750509583610d0b9710610dc1575b505050811b01606655610ce9565b01515f1960f88460031b161c19169055888080610db3565b8389015185558c96909401939283019201610d9d565b60665f527f46501879b8ca8525e8c2fd519e2fbfcfa2ebea26501294aa02cbfcfb12e943548380860160051c8201928a8710610e48575b0160051c019089905b828110610e3d575050610cbb565b5f8155018990610e2f565b92508192610e26565b634e487b7160e01b5f52604160045260245ffd5b015190508a80610c8b565b908b9350601f1983169160655f527f8ff97419363ffd7000167f130ef7168fbea05faf9251824ca5043f113cc6a7c7925f5b8d828210610ed95750508411610ec1575b505050811b01606555610c9f565b01515f1960f88460031b161c191690558a8080610eb3565b8385015186558f97909501949384019301610ea2565b90915060655f527f8ff97419363ffd7000167f130ef7168fbea05faf9251824ca5043f113cc6a7c78580850160051c8201928c8610610f53575b918d91869594930160051c01915b828110610f45575050610c77565b5f81558594508d9101610f37565b92508192610f29565b61ffff1916610101175f5584610be8565b60405162461bcd60e51b815260206004820152602e60248201527f496e697469616c697a61626c653a20636f6e747261637420697320616c72656160448201526d191e481a5b9a5d1a585b1a5e995960921b6064820152608490fd5b50303b158015610bd15750600160ff851614610bd1565b50600160ff851610610bca565b3461020b576101b561043861100136611c40565b906040519261100f84611c88565b5f84526104286104238433612105565b3461020b575f36600319011261020b5760cc546040516001600160a01b039091168152602090f35b3461020b5760208060031936011261020b57611061611c14565b6001600160a01b03917f0000000000000000000000000000000000000000000000000000000000000000831661109930821415611f7d565b6110b55f80516020612e68833981519152918583541614611fde565b6110bd6120ad565b604051936110ca85611c88565b5f85527f4910fdfa16fed3260ed0e7147f7cc6da11a60208b5b9406d12a635614ffd91435460ff1615611104575050506101b59150612b64565b83929316906040516352d1902d60e01b81528481600481865afa5f91816111d0575b506111875760405162461bcd60e51b815260048101869052602e60248201527f45524331393637557067726164653a206e657720696d706c656d656e7461746960448201526d6f6e206973206e6f74205555505360901b6064820152608490fd5b03610aa55761119582612b64565b7fbc7cd75a20ee27fd9adebab32041f755214dbc6bffa90cc0225b39da2e5c2d3b5f80a28251158015906111c957610a3c57005b505f610a36565b9091508581813d83116111f8575b6111e88183611cd9565b8101031261020b57519087611126565b503d6111de565b3461020b576020600319818136011261020b57600435906001600160401b03821161020b576101008260040191833603011261020b576097546001600160a01b03908116330361142b575b61125b61125683611e79565b6122d8565b8060cb5416156114195760c954925f198414611405576001840160c9556112828433612376565b604051630918575160e11b81527f00000000000000000000000000000000000000000000000000000000000000006001600160a01b031660048201523060248201526044810185905291858360648173__$22345123dcf5f39d8c23eeef107f852197$__5af49283156113fa575f93611391575b509060c4947fd9622e038d73e9b439c5fda047b4a8ec1f5e41816b766fcdd534c56fc90704276113816113899695946113326024860188611ec5565b929091611342604488018a611ec5565b9b90976113668b61136f6113596064850183611ec5565b9390926084860190611ec5565b95909401611ef7565b948c169e8f9b604051998a998a611f24565b0390a36124f0565b604051908152f35b939250908584813d83116113f3575b6113aa8183611cd9565b8101031261020b5760c4947fd9622e038d73e9b439c5fda047b4a8ec1f5e41816b766fcdd534c56fc90704276113816113e561138997611eb1565b9596505050949190916112f6565b503d6113a0565b6040513d5f823e3d90fd5b634e487b7160e01b5f52601160045260245ffd5b60405163127629f760e31b8152600490fd5b8060ca541680156114b657846024916040519283809262a743f760e61b82523360048301525afa5f9181611487575b506114715760405163955c501b60e01b8152600490fd5b61124a5760405163955c501b60e01b8152600490fd5b6114a8919250863d88116114af575b6114a08183611cd9565b810190611e3f565b908661145a565b503d611496565b604051631db3a6cb60e11b8152600490fd5b3461020b57602036600319011261020b576004356001600160401b0380821161020b573660238301121561020b5781600401351161020b57366024826004013560051b8301011161020b576097546001600160a01b0316330361181c575b806004013515801561180e575b6117fc575f5b816004013581106117d6575060cb546001600160a01b031615611419576115638160040135611e8d565b906115716040519283611cd9565b600481013580835261158290611e8d565b601f190136602084013760c95461159d826004013582611ea4565b60c9555f5b8260040135811061163a575060c9545f1981019190821161140557604051926004013583527fce282076a1439bd4b653b5657c2ab7abea5a48b4572799f57582e79e357b59f760203394a46040518091602082016020835281518091526020604084019201905f5b818110611618575050500390f35b82516001600160a01b031684528594506020938401939092019160010161160a565b6116448183611ea4565b9061165781856004013560248701611e57565b6116618333612376565b604051630918575160e11b81527f00000000000000000000000000000000000000000000000000000000000000006001600160a01b03166004820152306024820152604481018490529060208260648173__$22345123dcf5f39d8c23eeef107f852197$__5af49182156113fa575f9261179a575b506116e46020820182611ec5565b90946116f36040840184611ec5565b926117016060860186611ec5565b9098906117116080880188611ec5565b9061171e60c08a01611ef7565b92600160a01b600190038b169c8d9960405198899861173d988a611f24565b037fd9622e038d73e9b439c5fda047b4a8ec1f5e41816b766fcdd534c56fc907042791a361176a916124f0565b84518110156117865760019160208260051b87010152016115a2565b634e487b7160e01b5f52603260045260245ffd5b9091506020813d6020116117ce575b816117b660209383611cd9565b8101031261020b576117c790611eb1565b90876116d6565b3d91506117a9565b806117f66112566117f1600194866004013560248801611e57565b611e79565b01611539565b604051637862e95960e01b8152600490fd5b50600a816004013511611533565b60ca546001600160a01b031680156114b65760206024916040519283809262a743f760e61b82523360048301525afa5f9181611880575b5061186a5760405163955c501b60e01b8152600490fd5b6115265760405163955c501b60e01b8152600490fd5b61189a91925060203d6020116114af576114a08183611cd9565b9083611853565b3461020b575f36600319011261020b5760cd546040516001600160a01b039091168152602090f35b3461020b576101b56118da36611c40565b916118e86104238433612105565b6121c9565b3461020b57602036600319011261020b57611906611c14565b61190e6120ad565b60ca80546001600160a01b0319166001600160a01b0392909216919091179055005b3461020b57604036600319011261020b57611949611c14565b602435906001600160a01b0380806119608561208b565b16921691808314611a5557803314908115611a34575b50156119c9575f83815260696020526040902080546001600160a01b031916831790556119a28361208b565b167f8c5be1e5ebec7d5bd14f71427d1e84f3dd0314c0f7b2291e5b200ac8c7c3b9255f80a4005b60405162461bcd60e51b815260206004820152603d60248201527f4552433732313a20617070726f76652063616c6c6572206973206e6f7420746f60448201527f6b656e206f776e6572206f7220617070726f76656420666f7220616c6c0000006064820152608490fd5b90505f52606a60205260405f20335f5260205260ff60405f20541684611976565b60405162461bcd60e51b815260206004820152602160248201527f4552433732313a20617070726f76616c20746f2063757272656e74206f776e656044820152603960f91b6064820152608490fd5b3461020b57602036600319011261020b5760206107d8600435611da1565b3461020b575f36600319011261020b576040516065545f82611ae383611d69565b91828252602093600190856001821691825f1461065a575050600114611b1057506105eb92500383611cd9565b84915060655f527f8ff97419363ffd7000167f130ef7168fbea05faf9251824ca5043f113cc6a7c7905f915b858310611b535750506105eb9350820101856105de565b80548389018501528794508693909201918101611b3c565b3461020b57602036600319011261020b576004359063ffffffff60e01b821680920361020b576020916380ac58cd60e01b8114908115611bc5575b8115611bb4575b5015158152f35b6301ffc9a760e01b14905083611bad565b635b5e139f60e01b81149150611ba6565b91908251928382525f5b848110611c00575050825f602080949584010152601f8019910116010190565b602081830181015184830182015201611be0565b600435906001600160a01b038216820361020b57565b602435906001600160a01b038216820361020b57565b606090600319011261020b576001600160a01b0390600435828116810361020b5791602435908116810361020b579060443590565b6001600160401b038111610e5157604052565b602081019081106001600160401b03821117610e5157604052565b606081019081106001600160401b03821117610e5157604052565b604081019081106001600160401b03821117610e5157604052565b90601f801991011681019081106001600160401b03821117610e5157604052565b6001600160401b038111610e5157601f01601f191660200190565b929192611d2182611cfa565b91611d2f6040519384611cd9565b82948184528183011161020b578281602093845f960137010152565b9080601f8301121561020b57816020611d6693359101611d15565b90565b90600182811c92168015611d97575b6020831014611d8357565b634e487b7160e01b5f52602260045260245ffd5b91607f1691611d78565b5f81815260676020526040902054611dc3906001600160a01b0316151561203f565b5f908152606960205260409020546001600160a01b031690565b15611de457565b60405162461bcd60e51b815260206004820152602d60248201527f4552433732313a2063616c6c6572206973206e6f7420746f6b656e206f776e6560448201526c1c881bdc88185c1c1c9bdd9959609a1b6064820152608490fd5b9081602091031261020b5751801515810361020b5790565b91908110156117865760051b8101359060fe198136030182121561020b570190565b356001600160a01b038116810361020b5790565b6001600160401b038111610e515760051b60200190565b9190820180921161140557565b51906001600160a01b038216820361020b57565b903590601e198136030182121561020b57018035906001600160401b03821161020b5760200191813603831361020b57565b35801515810361020b5790565b908060209392818452848401375f828201840152601f01601f1916010190565b9793611f6793611f5991611f4b611f75999460809b99969d9e9d60a08e8181520191611f04565b918b830360208d0152611f04565b9188830360408a0152611f04565b918583036060870152611f04565b931515910152565b15611f8457565b60405162461bcd60e51b815260206004820152602c60248201527f46756e6374696f6e206d7573742062652063616c6c6564207468726f7567682060448201526b19195b1959d85d1958d85b1b60a21b6064820152608490fd5b15611fe557565b60405162461bcd60e51b815260206004820152602c60248201527f46756e6374696f6e206d7573742062652063616c6c6564207468726f7567682060448201526b6163746976652070726f787960a01b6064820152608490fd5b1561204657565b60405162461bcd60e51b815260206004820152601860248201527f4552433732313a20696e76616c696420746f6b656e20494400000000000000006044820152606490fd5b5f908152606760205260409020546001600160a01b0316611d6681151561203f565b6097546001600160a01b031633036120c157565b606460405162461bcd60e51b815260206004820152602060248201527f4f776e61626c653a2063616c6c6572206973206e6f7420746865206f776e65726044820152fd5b906001600160a01b0380806121198461208b565b1693169183831493841561214c575b508315612136575b50505090565b61214291929350611da1565b16145f8080612130565b9093505f52606a60205260405f20825f5260205260ff60405f205416925f612128565b1561217657565b60405162461bcd60e51b815260206004820152602560248201527f4552433732313a207472616e736665722066726f6d20696e636f72726563742060448201526437bbb732b960d91b6064820152608490fd5b906121f1916121d78461208b565b6001600160a01b039391841692849290918316841461216f565b16918215612287578161220e916122078661208b565b161461216f565b825f52606960205260405f206001600160601b0360a01b90818154169055815f52606860205260405f205f198154019055825f5260405f2060018154019055835f5260676020528260405f20918254161790557fddf252ad1be2c89b69c2b068fc378daa952ba7f163c4a11628f55a4df523b3ef5f80a4565b60405162461bcd60e51b8152602060048201526024808201527f4552433732313a207472616e7366657220746f20746865207a65726f206164646044820152637265737360e01b6064820152608490fd5b6001600160a01b038116908115612364573b15612352576020600491604051928380926318160ddd60e01b82525afa9081612327575b50612325576040516326412d8960e21b8152600490fd5b565b602090813d831161234b575b61233d8183611cd9565b8101031261020b575f61230e565b503d612333565b60405163d0acc0d360e01b8152600490fd5b604051631a747e4f60e31b8152600490fd5b9060405161238381611c88565b5f81526001600160a01b038316918215612443576123259381610438946123c66123c0835f52606760205260018060a01b0360405f205416151590565b15612d82565b5f828152606760205260409020546123e8906001600160a01b031615156123c0565b805f52606860205260405f2060018154019055815f52606760205260405f20816001600160601b0360a01b8254161790555f7fddf252ad1be2c89b69c2b068fc378daa952ba7f163c4a11628f55a4df523b3ef8180a4612c22565b606460405162461bcd60e51b815260206004820152602060248201527f4552433732313a206d696e7420746f20746865207a65726f20616464726573736044820152fd5b9080601f8301121561020b578151906020916124a281611e8d565b936124b06040519586611cd9565b81855260208086019260051b82010192831161020b57602001905b8282106124d9575050505090565b8380916124e584611eb1565b8152019101906124cb565b60cb54905f926020810192602061254b61250a8685611ec5565b93905f61251687611e79565b6040516360fac62560e01b81526001600160a01b038a1660048201526060602482015296879586948593926064850191611f04565b6001600160a01b0391821660448401529190910393165af180156113fa57612a1a575b5060cb546001600160a01b0316803b1561020b57604051633868e7e560e01b81526001600160a01b038416600482015233602482015260036044820152905f908290606490829084905af180156113fa57612a07575b5060cc546001600160a01b031680612916575b5060cd546001600160a01b0316848161287f575b505060ce546001600160a01b0316806127e6575b5061261361260c82611e79565b9382611ec5565b93909160c06126256040830183611ec5565b9390966126356060850185611ec5565b916126436080870187611ec5565b92909361265f61265660a08a018a611ec5565b98909901611ef7565b996040519c8d6001600160401b0360e0828181011092011117610e51576126d89a8e60206126aa6126b4956126c0996126cc9d60e0860160405260018060a01b031685523691611d15565b9101523691611d15565b60408d01523691611d15565b60608a01523691611d15565b60808701523691611d15565b60a0840152151560c08301526001600160a01b0381163b156127e25782918291604051809481809463e13ff8dd60e01b82526020600483015260018060a01b03815116602483015260c061279e61273f602084015160e06044870152610104860190611bd6565b61278961277561276160408701519360231994858a83030160648b0152611bd6565b6060870151848983030160848a0152611bd6565b6080860151838883030160a4890152611bd6565b9060a0850151908683030160c4870152611bd6565b910151151560e483015203926001600160a01b03165af180156127d7576127c3575050565b6127cd8291611c75565b6127d45750565b80fd5b6040513d84823e3d90fd5b8280fd5b60e0820135600381101561287b576040516324e2cb2b60e11b81526001600160a01b038516600482015260248101919091529085908290604490829084905af1156125ff573d8086833e61283a8183611cd9565b81019060408183031261287b5761285081611eb1565b506020810151906001600160401b03821161287757612870929101612487565b505f6125ff565b8680fd5b8580fd5b6128c89161288d8685611ec5565b604080516343d2636360e11b81526001600160a01b038916600482015260248101919091529485939284928692849290916044840191611f04565b03925af16128d7575b846125eb565b3d8086833e6128e68183611cd9565b81019060208183031261287b578051906001600160401b0382116128775761290f929101612487565b505f6128d1565b6129208483611ec5565b919061292f6040850185611ec5565b90939061293f6060870187611ec5565b919061294e6080890189611ec5565b604051638ae4d28160e01b81526001600160a01b038c16600482015233602482015260c06044820152988997889793969294936129909160c48a019190611f04565b60031995868983030160648a01526129a792611f04565b90848783030160848801526129bb92611f04565b918483030160a48501526129ce92611f04565b0381885a94602095f1156125d757602090813d8311612a00575b6129f28183611cd9565b8101031261020b575f6125d7565b503d6129e8565b612a12919450611c75565b5f925f6125c4565b602090813d8311612a3e575b612a308183611cd9565b8101031261020b575f61256e565b503d612a26565b15612a4c57565b60405162461bcd60e51b815260206004820152602b60248201527f496e697469616c697a61626c653a20636f6e7472616374206973206e6f74206960448201526a6e697469616c697a696e6760a81b6064820152608490fd5b609780546001600160a01b039283166001600160a01b0319821681179092559091167f8be0079c531659141344cd1fd0a4f28419497f9722a3daafe3b4186f6b6457e05f80a3565b60809060208152603260208201527f4552433732313a207472616e7366657220746f206e6f6e20455243373231526560408201527131b2b4bb32b91034b6b83632b6b2b73a32b960711b60608201520190565b15612b4757565b60405162461bcd60e51b815280612b6060048201612aed565b0390fd5b803b15612b98575f80516020612e6883398151915280546001600160a01b0319166001600160a01b03909216919091179055565b60405162461bcd60e51b815260206004820152602d60248201527f455243313936373a206e657720696d706c656d656e746174696f6e206973206e60448201526c1bdd08184818dbdb9d1c9858dd609a1b6064820152608490fd5b3d15612c1d573d90612c0482611cfa565b91612c126040519384611cd9565b82523d5f602084013e565b606090565b909190803b15612d0657612c6b6020915f93604051948580948193630a85bd0160e11b998a84523360048501528460248501526044840152608060648401526084830190611bd6565b03926001600160a01b03165af15f9181612cc1575b50612cb357612c8d612bf3565b80519081612cae5760405162461bcd60e51b815280612b6060048201612aed565b602001fd5b6001600160e01b0319161490565b9091506020813d602011612cfe575b81612cdd60209383611cd9565b8101031261020b57516001600160e01b03198116810361020b57905f612c80565b3d9150612cd0565b505050600190565b92909190823b15612d7957612d60926020925f60018060a01b0360405180978196829584630a85bd0160e11b9c8d86523360048701521660248501526044840152608060648401526084830190611bd6565b0393165af15f9181612cc15750612cb357612c8d612bf3565b50505050600190565b15612d8957565b60405162461bcd60e51b815260206004820152601c60248201527f4552433732313a20746f6b656e20616c7265616479206d696e746564000000006044820152606490fd5b91929015612e305750815115612de2575090565b3b15612deb5790565b60405162461bcd60e51b815260206004820152601d60248201527f416464726573733a2063616c6c20746f206e6f6e2d636f6e74726163740000006044820152606490fd5b825190915015612e435750805190602001fd5b60405162461bcd60e51b815260206004820152908190612b60906024830190611bd656fe360894a13ba1a3210667c828492db98dca3e2076cc3735a920a3ca505d382bbca164736f6c6343000819000a","linkReferences":{"src/lib/TBA.sol":{"TBALib":[{"start":5151,"length":20},{"start":6143,"length":20}]}}},"methodIdentifiers":{"approve(address,uint256)":"095ea7b3","balanceOf(address)":"70a08231","batchMintGardens((address,string,string,string,string,string,bool,uint8)[])":"280f42f5","deploymentRegistry()":"c6631092","gardensModule()":"72a0d6ad","getApproved(uint256)":"081812fc","hatsModule()":"b4a9c607","initialize(address,address)":"485cc955","isApprovedForAll(address,address)":"e985e9c5","karmaGAPModule()":"4026d762","mintGarden((address,string,string,string,string,string,bool,uint8))":"2b9a6839","name()":"06fdde03","octantModule()":"266f8652","owner()":"8da5cb5b","ownerOf(uint256)":"6352211e","proxiableUUID()":"52d1902d","renounceOwnership()":"715018a6","safeTransferFrom(address,address,uint256)":"42842e0e","safeTransferFrom(address,address,uint256,bytes)":"b88d4fde","setApprovalForAll(address,bool)":"a22cb465","setDeploymentRegistry(address)":"14902ad3","setGardensModule(address)":"e7efdb26","setHatsModule(address)":"adcb9221","setKarmaGAPModule(address)":"d9e4aaee","setOctantModule(address)":"4c528446","supportsInterface(bytes4)":"01ffc9a7","symbol()":"95d89b41","tokenURI(uint256)":"c87b56dd","transferFrom(address,address,uint256)":"23b872dd","transferOwnership(address)":"f2fde38b","upgradeTo(address)":"3659cfe6","upgradeToAndCall(address,bytes)":"4f1ef286"},"id":173}