{"abi":[{"type":"constructor","inputs":[{"name":"erc4337EntryPoint","type":"address","internalType":"address"},{"name":"multicallForwarder","type":"address","internalType":"address"},{"name":"erc6551Registry","type":"address","internalType":"address"},{"name":"guardian","type":"address","internalType":"address"},{"name":"workApprovalResolver","type":"address","internalType":"address"},{"name":"assessmentResolver","type":"address","internalType":"address"}],"stateMutability":"nonpayable"},{"type":"fallback","stateMutability":"payable"},{"type":"receive","stateMutability":"payable"},{"type":"function","name":"ASSESSMENT_RESOLVER","inputs":[],"outputs":[{"name":"","type":"address","internalType":"address"}],"stateMutability":"view"},{"type":"function","name":"WORK_APPROVAL_RESOLVER","inputs":[],"outputs":[{"name":"","type":"address","internalType":"address"}],"stateMutability":"view"},{"type":"function","name":"addGardenOperator","inputs":[{"name":"operator","type":"address","internalType":"address"}],"outputs":[],"stateMutability":"nonpayable"},{"type":"function","name":"addGardener","inputs":[{"name":"gardener","type":"address","internalType":"address"}],"outputs":[],"stateMutability":"nonpayable"},{"type":"function","name":"bannerImage","inputs":[],"outputs":[{"name":"","type":"string","internalType":"string"}],"stateMutability":"view"},{"type":"function","name":"communityToken","inputs":[],"outputs":[{"name":"","type":"address","internalType":"address"}],"stateMutability":"view"},{"type":"function","name":"createProjectImpact","inputs":[{"name":"workTitle","type":"string","internalType":"string"},{"name":"impactDescription","type":"string","internalType":"string"},{"name":"proofIPFS","type":"string","internalType":"string"}],"outputs":[{"name":"","type":"bytes32","internalType":"bytes32"}],"stateMutability":"nonpayable"},{"type":"function","name":"createProjectMilestone","inputs":[{"name":"milestoneTitle","type":"string","internalType":"string"},{"name":"milestoneDescription","type":"string","internalType":"string"},{"name":"","type":"string","internalType":"string"}],"outputs":[{"name":"","type":"bytes32","internalType":"bytes32"}],"stateMutability":"nonpayable"},{"type":"function","name":"description","inputs":[],"outputs":[{"name":"","type":"string","internalType":"string"}],"stateMutability":"view"},{"type":"function","name":"entryPoint","inputs":[],"outputs":[{"name":"","type":"address","internalType":"contract IEntryPoint"}],"stateMutability":"view"},{"type":"function","name":"erc6551Registry","inputs":[],"outputs":[{"name":"","type":"address","internalType":"address"}],"stateMutability":"view"},{"type":"function","name":"execute","inputs":[{"name":"to","type":"address","internalType":"address"},{"name":"value","type":"uint256","internalType":"uint256"},{"name":"data","type":"bytes","internalType":"bytes"},{"name":"operation","type":"uint8","internalType":"uint8"}],"outputs":[{"name":"","type":"bytes","internalType":"bytes"}],"stateMutability":"payable"},{"type":"function","name":"executeBatch","inputs":[{"name":"operations","type":"tuple[]","internalType":"struct BatchExecutor.Operation[]","components":[{"name":"to","type":"address","internalType":"address"},{"name":"value","type":"uint256","internalType":"uint256"},{"name":"data","type":"bytes","internalType":"bytes"},{"name":"operation","type":"uint8","internalType":"uint8"}]}],"outputs":[{"name":"","type":"bytes[]","internalType":"bytes[]"}],"stateMutability":"payable"},{"type":"function","name":"executeNested","inputs":[{"name":"to","type":"address","internalType":"address"},{"name":"value","type":"uint256","internalType":"uint256"},{"name":"data","type":"bytes","internalType":"bytes"},{"name":"operation","type":"uint8","internalType":"uint8"},{"name":"proof","type":"tuple[]","internalType":"struct NestedAccountExecutor.ERC6551AccountInfo[]","components":[{"name":"salt","type":"bytes32","internalType":"bytes32"},{"name":"tokenContract","type":"address","internalType":"address"},{"name":"tokenId","type":"uint256","internalType":"uint256"}]}],"outputs":[{"name":"","type":"bytes","internalType":"bytes"}],"stateMutability":"payable"},{"type":"function","name":"extcall","inputs":[{"name":"to","type":"address","internalType":"address"},{"name":"value","type":"uint256","internalType":"uint256"},{"name":"data","type":"bytes","internalType":"bytes"}],"outputs":[{"name":"result","type":"bytes","internalType":"bytes"}],"stateMutability":"nonpayable"},{"type":"function","name":"extcreate","inputs":[{"name":"value","type":"uint256","internalType":"uint256"},{"name":"bytecode","type":"bytes","internalType":"bytes"}],"outputs":[{"name":"","type":"address","internalType":"address"}],"stateMutability":"nonpayable"},{"type":"function","name":"extcreate2","inputs":[{"name":"value","type":"uint256","internalType":"uint256"},{"name":"salt","type":"bytes32","internalType":"bytes32"},{"name":"bytecode","type":"bytes","internalType":"bytes"}],"outputs":[{"name":"","type":"address","internalType":"address"}],"stateMutability":"nonpayable"},{"type":"function","name":"extsload","inputs":[{"name":"slot","type":"bytes32","internalType":"bytes32"}],"outputs":[{"name":"value","type":"bytes32","internalType":"bytes32"}],"stateMutability":"view"},{"type":"function","name":"gapProjectUID","inputs":[],"outputs":[{"name":"","type":"bytes32","internalType":"bytes32"}],"stateMutability":"view"},{"type":"function","name":"gardenOperators","inputs":[{"name":"operator","type":"address","internalType":"address"}],"outputs":[{"name":"isOperator","type":"bool","internalType":"bool"}],"stateMutability":"view"},{"type":"function","name":"gardeners","inputs":[{"name":"gardener","type":"address","internalType":"address"}],"outputs":[{"name":"isGardener","type":"bool","internalType":"bool"}],"stateMutability":"view"},{"type":"function","name":"getGAPProjectUID","inputs":[],"outputs":[{"name":"","type":"bytes32","internalType":"bytes32"}],"stateMutability":"view"},{"type":"function","name":"getNonce","inputs":[],"outputs":[{"name":"","type":"uint256","internalType":"uint256"}],"stateMutability":"view"},{"type":"function","name":"initialize","inputs":[{"name":"_communityToken","type":"address","internalType":"address"},{"name":"_name","type":"string","internalType":"string"},{"name":"_description","type":"string","internalType":"string"},{"name":"_location","type":"string","internalType":"string"},{"name":"_bannerImage","type":"string","internalType":"string"},{"name":"_gardeners","type":"address[]","internalType":"address[]"},{"name":"_gardenOperators","type":"address[]","internalType":"address[]"}],"outputs":[],"stateMutability":"nonpayable"},{"type":"function","name":"isLocked","inputs":[],"outputs":[{"name":"","type":"bool","internalType":"bool"}],"stateMutability":"view"},{"type":"function","name":"isTrustedForwarder","inputs":[{"name":"forwarder","type":"address","internalType":"address"}],"outputs":[{"name":"","type":"bool","internalType":"bool"}],"stateMutability":"view"},{"type":"function","name":"isValidSignature","inputs":[{"name":"hash","type":"bytes32","internalType":"bytes32"},{"name":"signature","type":"bytes","internalType":"bytes"}],"outputs":[{"name":"magicValue","type":"bytes4","internalType":"bytes4"}],"stateMutability":"view"},{"type":"function","name":"isValidSigner","inputs":[{"name":"signer","type":"address","internalType":"address"},{"name":"data","type":"bytes","internalType":"bytes"}],"outputs":[{"name":"magicValue","type":"bytes4","internalType":"bytes4"}],"stateMutability":"view"},{"type":"function","name":"joinGarden","inputs":[],"outputs":[],"stateMutability":"nonpayable"},{"type":"function","name":"location","inputs":[],"outputs":[{"name":"","type":"string","internalType":"string"}],"stateMutability":"view"},{"type":"function","name":"lock","inputs":[{"name":"_lockedUntil","type":"uint256","internalType":"uint256"}],"outputs":[],"stateMutability":"nonpayable"},{"type":"function","name":"lockedUntil","inputs":[],"outputs":[{"name":"","type":"uint256","internalType":"uint256"}],"stateMutability":"view"},{"type":"function","name":"name","inputs":[],"outputs":[{"name":"","type":"string","internalType":"string"}],"stateMutability":"view"},{"type":"function","name":"onERC1155BatchReceived","inputs":[{"name":"","type":"address","internalType":"address"},{"name":"","type":"address","internalType":"address"},{"name":"","type":"uint256[]","internalType":"uint256[]"},{"name":"","type":"uint256[]","internalType":"uint256[]"},{"name":"","type":"bytes","internalType":"bytes"}],"outputs":[{"name":"","type":"bytes4","internalType":"bytes4"}],"stateMutability":"nonpayable"},{"type":"function","name":"onERC1155Received","inputs":[{"name":"","type":"address","internalType":"address"},{"name":"","type":"address","internalType":"address"},{"name":"","type":"uint256","internalType":"uint256"},{"name":"","type":"uint256","internalType":"uint256"},{"name":"","type":"bytes","internalType":"bytes"}],"outputs":[{"name":"","type":"bytes4","internalType":"bytes4"}],"stateMutability":"nonpayable"},{"type":"function","name":"onERC721Received","inputs":[{"name":"","type":"address","internalType":"address"},{"name":"","type":"address","internalType":"address"},{"name":"tokenId","type":"uint256","internalType":"uint256"},{"name":"","type":"bytes","internalType":"bytes"}],"outputs":[{"name":"","type":"bytes4","internalType":"bytes4"}],"stateMutability":"nonpayable"},{"type":"function","name":"openJoining","inputs":[],"outputs":[{"name":"","type":"bool","internalType":"bool"}],"stateMutability":"view"},{"type":"function","name":"overrides","inputs":[{"name":"","type":"address","internalType":"address"},{"name":"","type":"bytes4","internalType":"bytes4"}],"outputs":[{"name":"","type":"address","internalType":"address"}],"stateMutability":"view"},{"type":"function","name":"owner","inputs":[],"outputs":[{"name":"","type":"address","internalType":"address"}],"stateMutability":"view"},{"type":"function","name":"permissions","inputs":[{"name":"","type":"address","internalType":"address"},{"name":"","type":"address","internalType":"address"}],"outputs":[{"name":"","type":"bool","internalType":"bool"}],"stateMutability":"view"},{"type":"function","name":"proxiableUUID","inputs":[],"outputs":[{"name":"","type":"bytes32","internalType":"bytes32"}],"stateMutability":"view"},{"type":"function","name":"removeGardenOperator","inputs":[{"name":"operator","type":"address","internalType":"address"}],"outputs":[],"stateMutability":"nonpayable"},{"type":"function","name":"removeGardener","inputs":[{"name":"gardener","type":"address","internalType":"address"}],"outputs":[],"stateMutability":"nonpayable"},{"type":"function","name":"setOverrides","inputs":[{"name":"selectors","type":"bytes4[]","internalType":"bytes4[]"},{"name":"implementations","type":"address[]","internalType":"address[]"}],"outputs":[],"stateMutability":"nonpayable"},{"type":"function","name":"setPermissions","inputs":[{"name":"callers","type":"address[]","internalType":"address[]"},{"name":"_permissions","type":"bool[]","internalType":"bool[]"}],"outputs":[],"stateMutability":"nonpayable"},{"type":"function","name":"state","inputs":[],"outputs":[{"name":"","type":"uint256","internalType":"uint256"}],"stateMutability":"view"},{"type":"function","name":"supportsInterface","inputs":[{"name":"interfaceId","type":"bytes4","internalType":"bytes4"}],"outputs":[{"name":"","type":"bool","internalType":"bool"}],"stateMutability":"view"},{"type":"function","name":"token","inputs":[],"outputs":[{"name":"chainId","type":"uint256","internalType":"uint256"},{"name":"tokenContract","type":"address","internalType":"address"},{"name":"tokenId","type":"uint256","internalType":"uint256"}],"stateMutability":"view"},{"type":"function","name":"transferGAPProjectOwnership","inputs":[{"name":"newOwner","type":"address","internalType":"address"}],"outputs":[],"stateMutability":"nonpayable"},{"type":"function","name":"updateDescription","inputs":[{"name":"_description","type":"string","internalType":"string"}],"outputs":[],"stateMutability":"nonpayable"},{"type":"function","name":"updateName","inputs":[{"name":"_name","type":"string","internalType":"string"}],"outputs":[],"stateMutability":"nonpayable"},{"type":"function","name":"upgradeTo","inputs":[{"name":"newImplementation","type":"address","internalType":"address"}],"outputs":[],"stateMutability":"nonpayable"},{"type":"function","name":"upgradeToAndCall","inputs":[{"name":"newImplementation","type":"address","internalType":"address"},{"name":"data","type":"bytes","internalType":"bytes"}],"outputs":[],"stateMutability":"payable"},{"type":"function","name":"validateUserOp","inputs":[{"name":"userOp","type":"tuple","internalType":"struct UserOperation","components":[{"name":"sender","type":"address","internalType":"address"},{"name":"nonce","type":"uint256","internalType":"uint256"},{"name":"initCode","type":"bytes","internalType":"bytes"},{"name":"callData","type":"bytes","internalType":"bytes"},{"name":"callGasLimit","type":"uint256","internalType":"uint256"},{"name":"verificationGasLimit","type":"uint256","internalType":"uint256"},{"name":"preVerificationGas","type":"uint256","internalType":"uint256"},{"name":"maxFeePerGas","type":"uint256","internalType":"uint256"},{"name":"maxPriorityFeePerGas","type":"uint256","internalType":"uint256"},{"name":"paymasterAndData","type":"bytes","internalType":"bytes"},{"name":"signature","type":"bytes","internalType":"bytes"}]},{"name":"userOpHash","type":"bytes32","internalType":"bytes32"},{"name":"missingAccountFunds","type":"uint256","internalType":"uint256"}],"outputs":[{"name":"validationData","type":"uint256","internalType":"uint256"}],"stateMutability":"nonpayable"},{"type":"event","name":"AdminChanged","inputs":[{"name":"previousAdmin","type":"address","indexed":false,"internalType":"address"},{"name":"newAdmin","type":"address","indexed":false,"internalType":"address"}],"anonymous":false},{"type":"event","name":"BeaconUpgraded","inputs":[{"name":"beacon","type":"address","indexed":true,"internalType":"address"}],"anonymous":false},{"type":"event","name":"DescriptionUpdated","inputs":[{"name":"updater","type":"address","indexed":true,"internalType":"address"},{"name":"newDescription","type":"string","indexed":false,"internalType":"string"}],"anonymous":false},{"type":"event","name":"GAPProjectCreated","inputs":[{"name":"projectUID","type":"bytes32","indexed":true,"internalType":"bytes32"},{"name":"gardenAddress","type":"address","indexed":true,"internalType":"address"},{"name":"projectName","type":"string","indexed":false,"internalType":"string"}],"anonymous":false},{"type":"event","name":"GardenOperatorAdded","inputs":[{"name":"updater","type":"address","indexed":true,"internalType":"address"},{"name":"operator","type":"address","indexed":true,"internalType":"address"}],"anonymous":false},{"type":"event","name":"GardenOperatorRemoved","inputs":[{"name":"updater","type":"address","indexed":true,"internalType":"address"},{"name":"operator","type":"address","indexed":true,"internalType":"address"}],"anonymous":false},{"type":"event","name":"GardenerAdded","inputs":[{"name":"updater","type":"address","indexed":true,"internalType":"address"},{"name":"gardener","type":"address","indexed":true,"internalType":"address"}],"anonymous":false},{"type":"event","name":"GardenerRemoved","inputs":[{"name":"updater","type":"address","indexed":true,"internalType":"address"},{"name":"gardener","type":"address","indexed":true,"internalType":"address"}],"anonymous":false},{"type":"event","name":"Initialized","inputs":[{"name":"version","type":"uint8","indexed":false,"internalType":"uint8"}],"anonymous":false},{"type":"event","name":"LockUpdated","inputs":[{"name":"lockedUntil","type":"uint256","indexed":false,"internalType":"uint256"}],"anonymous":false},{"type":"event","name":"NameUpdated","inputs":[{"name":"updater","type":"address","indexed":true,"internalType":"address"},{"name":"newName","type":"string","indexed":false,"internalType":"string"}],"anonymous":false},{"type":"event","name":"OverrideUpdated","inputs":[{"name":"owner","type":"address","indexed":false,"internalType":"address"},{"name":"selector","type":"bytes4","indexed":false,"internalType":"bytes4"},{"name":"implementation","type":"address","indexed":false,"internalType":"address"}],"anonymous":false},{"type":"event","name":"PermissionUpdated","inputs":[{"name":"owner","type":"address","indexed":false,"internalType":"address"},{"name":"caller","type":"address","indexed":false,"internalType":"address"},{"name":"hasPermission","type":"bool","indexed":false,"internalType":"bool"}],"anonymous":false},{"type":"event","name":"Upgraded","inputs":[{"name":"implementation","type":"address","indexed":true,"internalType":"address"}],"anonymous":false},{"type":"error","name":"AccountLocked","inputs":[]},{"type":"error","name":"AlreadyGardener","inputs":[]},{"type":"error","name":"ContractCreationFailed","inputs":[]},{"type":"error","name":"ExceedsMaxLockTime","inputs":[]},{"type":"error","name":"GAPImpactCreationFailed","inputs":[]},{"type":"error","name":"GAPMilestoneCreationFailed","inputs":[]},{"type":"error","name":"GAPNotSupportedOnChain","inputs":[]},{"type":"error","name":"GAPOwnershipTransferFailed","inputs":[]},{"type":"error","name":"GAPProjectNotInitialized","inputs":[]},{"type":"error","name":"InvalidAccountProof","inputs":[]},{"type":"error","name":"InvalidERC6551Registry","inputs":[]},{"type":"error","name":"InvalidEntryPoint","inputs":[]},{"type":"error","name":"InvalidGAPOwner","inputs":[]},{"type":"error","name":"InvalidImplementation","inputs":[]},{"type":"error","name":"InvalidInput","inputs":[]},{"type":"error","name":"InvalidInvite","inputs":[]},{"type":"error","name":"InvalidMulticallForwarder","inputs":[]},{"type":"error","name":"InvalidOperation","inputs":[]},{"type":"error","name":"KarmaGAPNotSupported","inputs":[]},{"type":"error","name":"NotAuthorized","inputs":[]},{"type":"error","name":"NotAuthorizedCaller","inputs":[]},{"type":"error","name":"NotGardenOperator","inputs":[]},{"type":"error","name":"NotGardenOwner","inputs":[]},{"type":"error","name":"OwnershipCycle","inputs":[]},{"type":"error","name":"TooManyGardeners","inputs":[]},{"type":"error","name":"TooManyOperators","inputs":[]}],"bytecode":{"object":"0x6101803461025657601f616bd838819003918201601f1916830191906001600160401b0383118484101761025a578160c092859260409586528339810103126102565761004b8261026e565b6100576020840161026e565b9261006383820161026e565b916100706060830161026e565b9461008960a06100826080860161026e565b940161026e565b936001600160a01b039283168015610245576080523060a052828116156102355760c05260e081905281161561022457610100941684526101209230845261014091825261016092835260045460ff8160081c166101d05760ff80821603610196575b5051926169559485610283863960805185818161118101528181611ea00152818161224d01526143ac015260a051858181612b0d0152615625015260c0518581816105f601528181612b2e0152615647015260e05185818161180c015281816157e801526165980152518481816144e30152614753015251838181610dd0015281816114cf0152611722015251828181612033015261219e015251818181610f770152611a7c0152f35b60ff90811916176004557f7f26b83ff96e1f2b6a682f133852f6798a09c465da95921460cefb38474024986020825160ff8152a15f6100ec565b815162461bcd60e51b815260206004820152602760248201527f496e697469616c697a61626c653a20636f6e747261637420697320696e697469604482015266616c697a696e6760c81b6064820152608490fd5b835163754c753360e11b8152600490fd5b85516246a29560e81b8152600490fd5b8651632039d3c960e01b8152600490fd5b5f80fd5b634e487b7160e01b5f52604160045260245ffd5b51906001600160a01b03821682036102565756fe60806040526004361015610026575b361561001e5761001c6140de565b005b61001c6140de565b5f3560e01c806301ffc9a714610380578063039721b11461037b578063056d5afe1461037657806306fdde0314610371578063150b7a021461036c5780631626ba7e146103675780631e2eaeaf146103625780631f6e45e31461035d5780631f9838b5146103585780631fb1ecf014610353578063291d05481461034e57806329aa16171461034957806334715fb1146103445780633659cfe61461033f5780633a208f951461033a5780633a25bc32146103355780633a871cdd1461033057806343629a731461032b57806345a24e3e1461032657806347f5fddd146103215780634f1ef2861461031c578063516f279e146103175780635194544714610312578063523e32601461030d57806352d1902d14610308578063572b6c05146103035780637284e416146102fe5780637597bc7c146102f95780637a8f7356146102f457806381eec6bb146102ef57806384da92a7146102ea5780638da5cb5b146102e557806394def29d146102e0578063a4e2d634146102db578063adbce85e146102d6578063b0d691fe146102d1578063b10006a6146102cc578063b709467c146102c7578063b900ace8146102c2578063bc197c81146102bd578063bcc5cf88146102b8578063c19d93fb146102b3578063ce0617ec146102ae578063d087d288146102a9578063dd467064146102a4578063e735b48a1461029f578063eaff6dc91461029a578063ee9c605414610295578063eeb9705714610290578063eed9df741461028b578063f23a6e6114610286578063f7fc57b014610281578063f89b9b93146102815763fc0c546a0361000e57612868565b61284b565b6127d1565b6126e1565b612632565b6125ce565b61251c565b612376565b6122c0565b6121fb565b6121df565b6121c2565b61217f565b6120de565b61200b565b611fba565b611ec4565b611e81565b611dd3565b611db5565b611ce5565b611cc8565b611b1d565b611a55565b61188f565b61184e565b611833565b6117dd565b611708565b6116bf565b61164e565b611633565b61148a565b6113c5565b611375565b611292565b611142565b610f9b565b610f58565b610da7565b610d4c565b610d23565b610d01565b610c67565b610bf6565b610bb5565b610b96565b610b45565b610a35565b61094a565b6105d7565b610448565b61039b565b6001600160e01b031981160361039757565b5f80fd5b346103975760203660031901126103975760206103c26004356103bd81610385565b6128a0565b6040519015158152f35b9181601f840112156103975782359167ffffffffffffffff8311610397576020808501948460051b01011161039757565b60406003198201126103975767ffffffffffffffff91600435838111610397578261042a916004016103cc565b9390939260243591821161039757610444916004016103cc565b9091565b3461039757610456366103fd565b929061047161046c610466614020565b91615269565b615622565b6001600160a01b03811680156105a35733036105a35761048f61407e565b838503610579575f5b8481106104a157005b806105116104ba6104b56001948a88612a10565b612a2f565b6105006104d8866001600160a01b03165f52600260205260405f2090565b6104eb6104e6868c8c612a10565b612a39565b6001600160a01b03165f5260205260405f2090565b9060ff801983541691151516179055565b7f394777a58092892d136a90c4bb7e4350c72ac50fba6a0208128677f36527dcf56105406104e6838989612a10565b61054e6104b5848b89612a10565b604080516001600160a01b03888116825293909316602084015290151590820152606090a101610498565b60046040517fb4fa3fb3000000000000000000000000000000000000000000000000000000008152fd5b60046040517fea8e4eb5000000000000000000000000000000000000000000000000000000008152fd5b5f91031261039757565b34610397575f3660031901126103975760206040516001600160a01b037f0000000000000000000000000000000000000000000000000000000000000000168152f35b90600182811c92168015610648575b602083101461063457565b634e487b7160e01b5f52602260045260245ffd5b91607f1691610629565b634e487b7160e01b5f52604160045260245ffd5b67ffffffffffffffff811161067a57604052565b610652565b6040810190811067ffffffffffffffff82111761067a57604052565b6020810190811067ffffffffffffffff82111761067a57604052565b6060810190811067ffffffffffffffff82111761067a57604052565b90601f8019910116810190811067ffffffffffffffff82111761067a57604052565b604051905f82600554916107088361061a565b808352926020906001908181169081156107945750600114610735575b5050610733925003836106d3565b565b91509260055f527f036b6384b5eca791c62761152d0c79bb0604c104a5fb6f4eb0703f3154bb3db0935f925b82841061077c57506107339450505081016020015f80610725565b85548885018301529485019487945092810192610761565b9150506020925061073394915060ff191682840152151560051b8201015f80610725565b604051905f82600754916107cb8361061a565b8083529260209060019081811690811561079457506001146107f5575050610733925003836106d3565b91509260075f527fa66cc928b5edb82af9bd49922954155ab7b0942694bea4ce44661d9a8736c688935f925b82841061083c57506107339450505081016020015f80610725565b85548885018301529485019487945092810192610821565b604051905f82600654916108678361061a565b808352926020906001908181169081156107945750600114610891575050610733925003836106d3565b91509260065f527ff652222313e28459528d920b65115c16c04f3efc82aaedc97be59f3f377c0d3f935f925b8284106108d857506107339450505081016020015f80610725565b855488850183015294850194879450928101926108bd565b5f5b8381106109015750505f910152565b81810151838201526020016108f2565b9060209161092a815180928185528580860191016108f0565b601f01601f1916010190565b906020610947928181520190610911565b90565b34610397575f366003190112610397576109796109656106f5565b604051918291602083526020830190610911565b0390f35b6001600160a01b0381160361039757565b600435906107338261097d565b6040519060c0820182811067ffffffffffffffff82111761067a57604052565b604051906107338261067f565b67ffffffffffffffff811161067a57601f01601f191660200190565b9291926109f0826109c8565b916109fe60405193846106d3565b829481845281830111610397578281602093845f960137010152565b9080601f8301121561039757816020610947933591016109e4565b3461039757608036600319011261039757610a5160043561097d565b610a5c60243561097d565b60643567ffffffffffffffff811161039757610a7c903690600401610a1a565b506001600160a01b03610a8d614020565b921633149182610b0b575b5081610b01575b50610ad757610aac6140de565b6040517f150b7a02000000000000000000000000000000000000000000000000000000008152602090f35b60046040517fb79e3f3f000000000000000000000000000000000000000000000000000000008152fd5b905046145f610a9f565b6044351491505f610a98565b9181601f840112156103975782359167ffffffffffffffff8311610397576020838186019501011161039757565b346103975760403660031901126103975760243567ffffffffffffffff811161039757610b84610b7b6020923690600401610b17565b90600435612a43565b6001600160e01b031960405191168152f35b3461039757602036600319011261039757602060043554604051908152f35b34610397576020366003190112610397576001600160a01b03600435610bda8161097d565b165f526009602052602060ff60405f2054166040519015158152f35b3461039757604036600319011261039757602060ff610c50600435610c1a8161097d565b6001600160a01b0360243591610c2f8361097d565b165f526002845260405f20906001600160a01b03165f5260205260405f2090565b54166040519015158152f35b60ff81160361039757565b60a036600319011261039757600435610c7f8161097d565b67ffffffffffffffff60443581811161039757610ca0903690600401610b17565b919092606435610caf81610c5c565b60843593838511610397573660238601121561039757846004013593841161039757366024606086028701011161039757610979956024610cf596019360243590612aa6565b60405191829182610936565b34610397575f36600319011261039757602060ff600b54166040519015158152f35b34610397575f3660031901126103975760206001600160a01b0360045460101c16604051908152f35b346103975760603660031901126103975760443567ffffffffffffffff811161039757610d96610d826020923690600401610b17565b90610d8b61469d565b6024356004356146b7565b6001600160a01b0360405191168152f35b3461039757602036600319011261039757600435610dc48161097d565b6001600160a01b0390817f00000000000000000000000000000000000000000000000000000000000000001691610dfd83301415612c9c565b610e2c7f360894a13ba1a3210667c828492db98dca3e2076cc3735a920a3ca505d382bbc938285541614612d0d565b610e3582614709565b60405190610e428261069b565b5f82527f4910fdfa16fed3260ed0e7147f7cc6da11a60208b5b9406d12a635614ffd91435460ff1615610e7b57505061001c915061594e565b6020600491604094939451928380926352d1902d60e01b825286165afa5f9181610f27575b50610f145760405162461bcd60e51b815260206004820152602e60248201527f45524331393637557067726164653a206e657720696d706c656d656e7461746960448201527f6f6e206973206e6f7420555550530000000000000000000000000000000000006064820152608490fd5b0390fd5b61001c93610f2291146147e6565b6158fd565b610f4a91925060203d602011610f51575b610f4281836106d3565b8101906138f3565b905f610ea0565b503d610f38565b34610397575f3660031901126103975760206040516001600160a01b037f0000000000000000000000000000000000000000000000000000000000000000168152f35b346103975760203660031901126103975760048035610fb98161097d565b610fc16157de565b906040915f8351610fd18161069b565b52610fdb81614857565b159081611122575b5061111457600c54801561110557611000610ffc6148b5565b1590565b6110f6576001600160a01b038216156110ce5761102d61102161102161493a565b6001600160a01b031690565b91823b156103975783517fa544d7470000000000000000000000000000000000000000000000000000000081528581019283526001600160a01b039091166020830152915f9183919082908490829060400103925af190816110b5575b5061001c57517fd89e7495000000000000000000000000000000000000000000000000000000008152fd5b806110c26110c892610666565b806105cd565b5f61108a565b5050517f45e4f565000000000000000000000000000000000000000000000000000000008152fd5b5050516384352a0160e01b8152fd5b5050516304f102a360e01b8152fd5b5051633cebab8560e21b8152fd5b6001600160a01b039150165f52600a60205260ff825f205416155f610fe3565b3461039757600319606036820112610397576004359067ffffffffffffffff821161039757610160908236030112610397576044356001600160a01b037f00000000000000000000000000000000000000000000000000000000000000001633036111eb576111ba610979926024359060040161499e565b90806111d2575b506040519081529081906020820190565b5f80808093338219f1506111e4613ff1565b505f6111c1565b606460405162461bcd60e51b815260206004820152601c60248201527f6163636f756e743a206e6f742066726f6d20456e747279506f696e74000000006044820152fd5b6020808201906020835283518092526040830192602060408460051b8301019501935f915b8483106112645750505050505090565b9091929394958480611282600193603f198682030187528a51610911565b9801930193019194939290611254565b6020806003193601126103975760043567ffffffffffffffff8111610397576112bf9036906004016103cc565b916112d3610ffc6112ce6157de565b61439e565b6105a3576112df61407e565b6112e883612ded565b925f5b8181106113005760405180610979878261122f565b806113596113146104e66001948689612e36565b848787611322868484612e36565b0135611353606061134d8861134561133b828989612e36565b6040810190612e58565b979096612e36565b01612e8b565b93614575565b6113638288612e95565b5261136e8187612e95565b50016112eb565b346103975760403660031901126103975760243567ffffffffffffffff811161039757610d966113bd6113ae6020933690600401610b17565b6113b661469d565b36916109e4565b6004356149ee565b346103975760e0366003190112610397576113de61098e565b6024359067ffffffffffffffff908183116103975761140260049336908501610b17565b90926044358181116103975761141b9036908701610b17565b90606435838111610397576114339036908901610b17565b906084358581116103975761144b9036908b01610b17565b94909360a435878111610397576114659036908d016103cc565b98909760c4359081116103975761001c9c611482913691016103cc565b9b909a612ea9565b6040366003190112610397576004356114a28161097d565b60243567ffffffffffffffff8111610397576114c2903690600401610a1a565b906001600160a01b0391827f000000000000000000000000000000000000000000000000000000000000000016926114fc84301415612c9c565b61152b7f360894a13ba1a3210667c828492db98dca3e2076cc3735a920a3ca505d382bbc948286541614612d0d565b61153483614709565b7f4910fdfa16fed3260ed0e7147f7cc6da11a60208b5b9406d12a635614ffd91435460ff161561156a57505061001c915061594e565b6020600491604094939451928380926352d1902d60e01b825286165afa5f9181611612575b506115ff5760405162461bcd60e51b815260206004820152602e60248201527f45524331393637557067726164653a206e657720696d706c656d656e7461746960448201527f6f6e206973206e6f7420555550530000000000000000000000000000000000006064820152608490fd5b61001c9361160d91146147e6565b615830565b61162c91925060203d602011610f5157610f4281836106d3565b905f61158f565b34610397575f366003190112610397576109796109656107b8565b6080366003190112610397576004356116668161097d565b60443567ffffffffffffffff811161039757611686903690600401610b17565b6064929192359061169682610c5c565b6116a16112ce6157de565b156105a35761097993610965936116b661407e565b60243590614575565b34610397576040366003190112610397576004356116dc8161097d565b60243567ffffffffffffffff811161039757602091611702610b84923690600401610b17565b91613890565b34610397575f366003190112610397576001600160a01b037f0000000000000000000000000000000000000000000000000000000000000000163003611773576040517f360894a13ba1a3210667c828492db98dca3e2076cc3735a920a3ca505d382bbc8152602090f35b608460405162461bcd60e51b815260206004820152603860248201527f555550535570677261646561626c653a206d757374206e6f742062652063616c60448201527f6c6564207468726f7567682064656c656761746563616c6c00000000000000006064820152fd5b346103975760203660031901126103975760206004356117fc8161097d565b6001600160a01b039060405191807f0000000000000000000000000000000000000000000000000000000000000000169116148152f35b34610397575f36600319011261039757610979610965610854565b34610397576020366003190112610397576001600160a01b036004356118738161097d565b165f52600a602052602060ff60405f2054166040519015158152f35b346103975761189d366103fd565b92906118ad61046c610466614020565b6001600160a01b03811680156105a35733036105a3576118cb61407e565b6118d430614ece565b3b156119e5575b838503610579575f5b8481106118ed57005b806119706119016104e66001948a88612a10565b61194861191f866001600160a01b03165f52600160205260405f2090565b61193261192d868c8c612a10565b6138d2565b6001600160e01b0319165f5260205260405f2090565b906001600160a01b031673ffffffffffffffffffffffffffffffffffffffff19825416179055565b7f2c722487e90aca38ec1b074c3403210bd2bfb769b4da7f12f7bf0b9e37517c1861199f61192d838989612a10565b6119ad6104e6848b89612a10565b604080516001600160a01b0380891682526001600160e01b03199094166020820152929091169082015280606081010390a1016118e4565b6119ee30614f1d565b6118db565b9060606003198301126103975767ffffffffffffffff6004358181116103975783611a2091600401610b17565b939093926024358381116103975782611a3b91600401610b17565b939093926044359182116103975761044491600401610b17565b3461039757611a63366119f3565b505090611a719392936157de565b6001600160a01b03807f000000000000000000000000000000000000000000000000000000000000000016911603611ab757602093611aaf9361397a565b604051908152f35b60046040517f7046c88d000000000000000000000000000000000000000000000000000000008152fd5b6020600319820112610397576004359067ffffffffffffffff8211610397578060238301121561039757816024610947936004013591016109e4565b3461039757611b2b36611ae1565b611b336157de565b5f604051611b408161069b565b52611b4a81614857565b15611c9e57815167ffffffffffffffff811161067a57611b7481611b6f60055461061a565b612fee565b602080601f8311600114611bf2575091611bcd826001600160a01b03937f74321da206c1b9fa34367f7ece59ca49371dcd13820b9a5c3767ae1ecceed51a955f91611be7575b508160011b915f199060031b1c19161790565b6005555b611be2604051928392169482610936565b0390a2005b90508601515f611bba565b60055f5290601f1983167f036b6384b5eca791c62761152d0c79bb0604c104a5fb6f4eb0703f3154bb3db0925f905b828210611c86575050927f74321da206c1b9fa34367f7ece59ca49371dcd13820b9a5c3767ae1ecceed51a9492600192826001600160a01b039610611c6e575b5050811b01600555611bd1565b8701515f1960f88460031b161c191690555f80611c61565b80600185968294968b01518155019501930190611c21565b60046040517fd8cae624000000000000000000000000000000000000000000000000000000008152fd5b34610397575f366003190112610397576020610d96610466614020565b34610397575f366003190112610397576040515f600854611d058161061a565b80845290602090600190818116908115611d8b5750600114611d32575b61097985610cf5818703826106d3565b60085f90815293507ff3f7a9fe364faab93b216da50a3214154f22a0a2b415b23a84c8169e8b636ee35b838510611d7857505050508101602001610cf582610979611d22565b8054868601840152938201938101611d5c565b86955061097996935060209250610cf594915060ff191682840152151560051b8201019293611d22565b34610397575f3660031901126103975760205f546040519042108152f35b3461039757602036600319011261039757600435611df08161097d565b611df86157de565b5f604051611e058161069b565b52611e0f81614857565b15611c9e576001600160a01b0380831691825f52600a60205260405f2060ff198154169055167fdd1e1c7c82ab1f3ed1b1656e8200309ebf9f682a74ce7737d3bfde87a7fecb085f80a3611e616148b5565b80611e76575b611e6d57005b61001c906152d9565b50600c541515611e67565b34610397575f3660031901126103975760206040516001600160a01b037f0000000000000000000000000000000000000000000000000000000000000000168152f35b34610397575f3660031901126103975760ff600b541615611f9057611ee76157de565b60ff611f04826001600160a01b03165f52600960205260405f2090565b5416611f665780611f3e611f316001600160a01b03936001600160a01b03165f52600960205260405f2090565b805460ff19166001179055565b16307fc0b9de905219d7679d6f05d6061fa6ef557a687d2c44c314b58bb793f5dba4945f80a3005b60046040517f42375a1e000000000000000000000000000000000000000000000000000000008152fd5b60046040517fdb926eba000000000000000000000000000000000000000000000000000000008152fd5b3461039757606036600319011261039757600435611fd78161097d565b60443567ffffffffffffffff811161039757610979916120016113ae610965933690600401610b17565b9060243590615345565b3461039757612019366119f3565b926120289594959291926157de565b6001600160a01b03807f000000000000000000000000000000000000000000000000000000000000000016911603611ab757602095611aaf95613b90565b67ffffffffffffffff811161067a5760051b60200190565b9080601f8301121561039757602090823561209881612066565b936120a660405195866106d3565b81855260208086019260051b82010192831161039757602001905b8282106120cf575050505090565b813581529083019083016120c1565b346103975760a0366003190112610397576120fa60043561097d565b61210560243561097d565b67ffffffffffffffff6044358181116103975761212690369060040161207e565b506064358181116103975761213f90369060040161207e565b5060843590811161039757612158903690600401610a1a565b50610979612164613f48565b6040516001600160e01b031990911681529081906020820190565b34610397575f3660031901126103975760206040516001600160a01b037f0000000000000000000000000000000000000000000000000000000000000000168152f35b34610397575f366003190112610397576020600354604051908152f35b34610397575f3660031901126103975760205f54604051908152f35b34610397575f366003190112610397576040517f35567e1a0000000000000000000000000000000000000000000000000000000081523060048201525f60248201526020816044816001600160a01b037f0000000000000000000000000000000000000000000000000000000000000000165afa80156122bb575f90612287575b604051908152602090f35b506020813d6020116122b3575b816122a1602093836106d3565b8101031261039757610979905161227c565b3d9150612294565b612a86565b34610397576020366003190112610397576004356001600160a01b036122ea61046c610466614020565b1680156105a35733036105a35761230042613f88565b811161234c576123477fa7b24c66dd3269a292a60b3facdbb8f3e7557d1e19e64d99e0d6ee7250be63ad9161233361407e565b805f55604051918291829190602083019252565b0390a1005b60046040517f0c0a7be8000000000000000000000000000000000000000000000000000000008152fd5b346103975761238436611ae1565b61238c6157de565b5f6040516123998161069b565b526123a381614857565b15806124fc575b6124eb57815167ffffffffffffffff811161067a576123d3816123ce60065461061a565b61305b565b602080601f831160011461243f57509161242b826001600160a01b03937f37cc8c6ced0cbc4d440fcfa810a2f09f40b8f0127c3656103edf26b3d93e0ec1955f91611be757508160011b915f199060031b1c19161790565b600655611be2604051928392169482610936565b60065f5290601f1983167ff652222313e28459528d920b65115c16c04f3efc82aaedc97be59f3f377c0d3f925f905b8282106124d3575050927f37cc8c6ced0cbc4d440fcfa810a2f09f40b8f0127c3656103edf26b3d93e0ec19492600192826001600160a01b0396106124bb575b5050811b01600655611bd1565b8701515f1960f88460031b161c191690555f806124ae565b80600185968294968b0151815501950193019061246e565b6004604051633cebab8560e21b8152fd5b506001600160a01b0381165f52600a60205260ff60405f205416156123aa565b34610397576020366003190112610397576004356125398161097d565b6125416157de565b905f60405161254f8161069b565b5261255982614857565b15806125ae575b6124eb576001600160a01b0380911691825f52600960205260405f20600160ff19825416179055167fc0b9de905219d7679d6f05d6061fa6ef557a687d2c44c314b58bb793f5dba4945f80a3005b506001600160a01b0382165f52600a60205260ff60405f20541615612560565b346103975760403660031901126103975760206004356125ed8161097d565b6126286024356125fc81610385565b6001600160a01b038093165f526001845260405f20906001600160e01b0319165f5260205260405f2090565b5416604051908152f35b346103975760203660031901126103975760043561264f8161097d565b6126576157de565b905f6040516126658161069b565b5261266f82614857565b15806126c1575b6124eb576001600160a01b0380911691825f52600960205260405f2060ff198154169055167f8a44d725ac751003f7f644f7ce70382fa06f348023717d057b7aa5c8778770d25f80a3005b506001600160a01b0382165f52600a60205260ff60405f20541615612676565b34610397576020366003190112610397576004356126fe8161097d565b6127066157de565b5f6040516127138161069b565b5261271d81614857565b15806127b1575b6124eb576001600160a01b0380831691825f52600a60205260405f20600160ff19825416179055600960205261276460405f20600160ff19825416179055565b167f06216f26a4a5b9c90aa5e1f990342de8fa80a0c447e3c6143fbaf0c7747edd715f80a36127916148b5565b806127a6575b61279d57005b61001c90614e05565b50600c541515612797565b506001600160a01b0381165f52600a60205260ff60405f20541615612724565b346103975760a0366003190112610397576127ed60043561097d565b6127f860243561097d565b60843567ffffffffffffffff811161039757612818903690600401610a1a565b506128216140de565b60206040517ff23a6e61000000000000000000000000000000000000000000000000000000008152f35b34610397575f366003190112610397576020600c54604051908152f35b34610397575f3660031901126103975760606001600160a01b0361288a614020565b9192906040519384521660208301526040820152f35b6001600160e01b03198091167f5194544700000000000000000000000000000000000000000000000000000000811490811561296c575b50612966576129276129019161046c6128ee614020565b6001600160a01b03969293918794615269565b165f52600160205260405f20905f35166001600160e01b0319165f5260205260405f2090565b54168061293357505f90565b5f8091604051806129448136613fe5565b03915afa612950613ff1565b901561295e57602081519101f35b602081519101fd5b50600190565b7f6faff5f10000000000000000000000000000000000000000000000000000000081149150811561299f575b505f6128d7565b7f4e2312e0000000000000000000000000000000000000000000000000000000008114915081156129d2575b505f612998565b7f01ffc9a7000000000000000000000000000000000000000000000000000000009150145f6129cb565b634e487b7160e01b5f52603260045260245ffd5b9190811015612a205760051b0190565b6129fc565b8015150361039757565b3561094781612a25565b356109478161097d565b90612a4e929161423b565b612a56575f90565b630b135d3f60e11b90565b9190811015612a20576060020190565b90816020910312610397575161094781612a25565b6040513d5f823e3d90fd5b9081602091031261039757516109478161097d565b95949091929394612ab56157de565b915f915b808310612ae457505050610ffc612acf9161439e565b6105a35761094794612adf61407e565b614575565b909192612af2848385612a61565b90612aff60208301612a39565b612b526040840135824686357f00000000000000000000000000000000000000000000000000000000000000007f0000000000000000000000000000000000000000000000000000000000000000614316565b92813b15612bc957833b612c0b575b604080516331a9108f60e11b815291013560048201529190602090839060249082906001600160a01b03165afa5f9281612bda575b50612bac576004604051631052dd2560e21b8152fd5b6001600160a01b03809116911603612bc957926001019190612ab9565b6004604051631052dd2560e21b8152fd5b612bfd91935060203d602011612c04575b612bf581836106d3565b810190612a91565b915f612b96565b503d612beb565b6040517fa4e2d63400000000000000000000000000000000000000000000000000000000815260049060208183816001600160a01b038a165afa9081156122bb575f91612c6d575b50612c5e5750612b61565b604051636315bfbb60e01b8152fd5b612c8f915060203d602011612c95575b612c8781836106d3565b810190612a71565b5f612c53565b503d612c7d565b15612ca357565b608460405162461bcd60e51b815260206004820152602c60248201527f46756e6374696f6e206d7573742062652063616c6c6564207468726f7567682060448201527f64656c656761746563616c6c00000000000000000000000000000000000000006064820152fd5b15612d1457565b608460405162461bcd60e51b815260206004820152602c60248201527f46756e6374696f6e206d7573742062652063616c6c6564207468726f7567682060448201527f6163746976652070726f787900000000000000000000000000000000000000006064820152fd5b60405190612d8b8261069b565b5f8252565b6040519060a0820182811067ffffffffffffffff82111761067a576040526080808352366020840137565b90612dc5826109c8565b612dd260405191826106d3565b8281528092612de3601f19916109c8565b0190602036910137565b90612df782612066565b612e0460405191826106d3565b8281528092612e15601f1991612066565b01905f5b828110612e2557505050565b806060602080938501015201612e19565b9190811015612a205760051b81013590607e1981360301821215610397570190565b903590601e1981360301821215610397570180359067ffffffffffffffff82116103975760200191813603831361039757565b3561094781610c5c565b8051821015612a205760209160051b010190565b9a98969492909160ff9c9a989694926004549d8e60081c1615809e819f612fe0575b8115612fc0575b5015612f5657612ef89c8e612eef600160ff196004541617600455565b612f3d57613525565b612efe57565b612f0e61ff001960045416600455565b604051600181527f7f26b83ff96e1f2b6a682f133852f6798a09c465da95921460cefb384740249890602090a1565b612f5161010061ff00196004541617600455565b613525565b608460405162461bcd60e51b815260206004820152602e60248201527f496e697469616c697a61626c653a20636f6e747261637420697320616c72656160448201527f647920696e697469616c697a65640000000000000000000000000000000000006064820152fd5b303b15915081612fd2575b505f612ed2565b6001915060ff16145f612fcb565b600160ff8216109150612ecb565b601f8111612ffa575050565b60055f527f036b6384b5eca791c62761152d0c79bb0604c104a5fb6f4eb0703f3154bb3db0906020601f840160051c83019310613051575b601f0160051c01905b818110613046575050565b5f815560010161303b565b9091508190613032565b601f8111613067575050565b60065f527ff652222313e28459528d920b65115c16c04f3efc82aaedc97be59f3f377c0d3f906020601f840160051c830193106130be575b601f0160051c01905b8181106130b3575050565b5f81556001016130a8565b909150819061309f565b601f81116130d4575050565b60075f527fa66cc928b5edb82af9bd49922954155ab7b0942694bea4ce44661d9a8736c688906020601f840160051c8301931061312b575b601f0160051c01905b818110613120575050565b5f8155600101613115565b909150819061310c565b601f8111613141575050565b60085f527ff3f7a9fe364faab93b216da50a3214154f22a0a2b415b23a84c8169e8b636ee3906020601f840160051c83019310613198575b601f0160051c01905b81811061318d575050565b5f8155600101613182565b9091508190613179565b919067ffffffffffffffff811161067a576131c281611b6f60055461061a565b5f601f82116001146132005781906131f093945f926131f5575b50508160011b915f199060031b1c19161790565b600555565b013590505f806131dc565b60055f52601f198216937f036b6384b5eca791c62761152d0c79bb0604c104a5fb6f4eb0703f3154bb3db0915f5b868110613265575083600195961061324c575b505050811b01600555565b01355f19600384901b60f8161c191690555f8080613241565b9092602060018192868601358155019401910161322e565b919067ffffffffffffffff811161067a5761329d816123ce60065461061a565b5f601f82116001146132cf5781906132ca93945f926131f55750508160011b915f199060031b1c19161790565b600655565b60065f52601f198216937ff652222313e28459528d920b65115c16c04f3efc82aaedc97be59f3f377c0d3f915f5b868110613334575083600195961061331b575b505050811b01600655565b01355f19600384901b60f8161c191690555f8080613310565b909260206001819286860135815501940191016132fd565b919067ffffffffffffffff811161067a576133718161336c60075461061a565b6130c8565b5f601f82116001146133a357819061339e93945f926131f55750508160011b915f199060031b1c19161790565b600755565b60075f52601f198216937fa66cc928b5edb82af9bd49922954155ab7b0942694bea4ce44661d9a8736c688915f5b86811061340857508360019596106133ef575b505050811b01600755565b01355f19600384901b60f8161c191690555f80806133e4565b909260206001819286860135815501940191016133d1565b919067ffffffffffffffff811161067a576134458161344060085461061a565b613135565b5f601f821160011461347757819061347293945f926131f55750508160011b915f199060031b1c19161790565b600855565b60085f52601f198216937ff3f7a9fe364faab93b216da50a3214154f22a0a2b415b23a84c8169e8b636ee3915f5b8681106134dc57508360019596106134c3575b505050811b01600855565b01355f19600384901b60f8161c191690555f80806134b8565b909260206001819286860135815501940191016134a5565b908060209392818452848401375f828201840152601f01601f1916010190565b9160206109479381815201916134f4565b909b9998979295969194939660328a116138665760148b1161383c576135b89060019d9896999a979561359f6135bd9695947fffffffffffffffffffff0000000000000000000000000000000000000000ffff75ffffffffffffffffffffffffffffffffffffffff00006004549260101b16911617600455565b6135a98b8b6131a2565b6135b3888861327d565b61334c565b613420565b6135c5614020565b969150506135e28a8b971460ff8019600b54169115151617600b55565b6135ea6157de565b96613609611f31896001600160a01b03165f52600960205260405f2090565b613627611f31896001600160a01b03165f52600a60205260405f2090565b5f946001600160a01b0389169788965b8281106137c357509150505f5b898b81831061374d5750505050927f74321da206c1b9fa34367f7ece59ca49371dcd13820b9a5c3767ae1ecceed51a7f37cc8c6ced0cbc4d440fcfa810a2f09f40b8f0127c3656103edf26b3d93e0ec19482966136a660405192839283613514565b0390a26136b860405192839283613514565b0390a280807fc0b9de905219d7679d6f05d6061fa6ef557a687d2c44c314b58bb793f5dba4945f80a3807f06216f26a4a5b9c90aa5e1f990342de8fa80a0c447e3c6143fbaf0c7747edd715f80a361370e6148b5565b613719575b50505050565b61372a90613725614ac5565b614e05565b5f5b8181101561371357806137476137256104e687948688612a10565b0161372c565b828094959799969850828261378c611f316137756104e661379199611021996104e699612a10565b6001600160a01b03165f52600a60205260405f2090565b612a10565b877f06216f26a4a5b9c90aa5e1f990342de8fa80a0c447e3c6143fbaf0c7747edd715f80a30191898694929593613644565b9091929395979496506137f7611f316137e06104e6848789612a10565b6001600160a01b03165f52600960205260405f2090565b6138086110216104e6838688612a10565b897fc0b9de905219d7679d6f05d6061fa6ef557a687d2c44c314b58bb793f5dba4945f80a301908b88969497959392613637565b60046040517f6055dca1000000000000000000000000000000000000000000000000000000008152fd5b60046040517fd7a6868a000000000000000000000000000000000000000000000000000000008152fd5b906138a0906138a69336916109e4565b50614857565b6138ae575f90565b7f523e32600000000000000000000000000000000000000000000000000000000090565b3561094781610385565b906138ef602092828151948592016108f0565b0190565b90816020910312610397575190565b906020908183528051828401520151906040808201526001600160a01b03825116606082015267ffffffffffffffff60208301511660808201526040820151151560a0820152606082015160c082015261010060a0613971608085015160c060e0860152610120850190610911565b93015191015290565b91929092600c54928315613b7f57613993610ffc6148b5565b613b6e5761399f61493a565b6001600160a01b03169436906139b4926109e4565b6139bd9061500e565b9136906139c9926109e4565b6139d29061500e565b91604051908160209485948583016139f290600190607b60f81b81520190565b68113a34ba3632911d1160b91b8152600901613a0d916138dc565b61088b60f21b815260020167113a32bc3a111d1160c11b8152600801613a32916138dc565b61088b60f21b81526002017f2274797065223a2270726f6a6563742d6d696c6573746f6e65220000000000008152601a01607d60f81b815260010103601f19908181018452613a8190846106d3565b604051809385820190613a9391610936565b039081018352613aa390836106d3565b613aab6150ff565b91613ab461099b565b308152918483015f9052604083015f90526060830152608082015260a081015f9052613ade6109bb565b91825282820152604051938480809363f17325e760e01b82526004820190613b0591613902565b03916001600160a01b03165a905f91f19182915f93613b4f575b50506109475760046040517fe80dd52b000000000000000000000000000000000000000000000000000000008152fd5b613b66929350803d10610f5157610f4281836106d3565b905f80613b1f565b60046040516384352a0160e01b8152fd5b60046040516304f102a360e01b8152fd5b9493929190600c54918215613b7f57613baa610ffc6148b5565b613b6e57613bb661493a565b6001600160a01b031696613bc9426153fa565b923690613bd5926109e4565b613bde9061500e565b94613bea3686846109e4565b613bf39061500e565b963690613bff926109e4565b613c089061500e565b933690613c14926109e4565b613c1d9061500e565b6040519384926020978897888601613c3d90600190607b60f81b81520190565b68113a34ba3632911d1160b91b8152600901613c58916138dc565b61088b60f21b815260020167113a32bc3a111d1160c11b8152600801613c7d916138dc565b61088b60f21b81526002017f22737461727444617465223a22000000000000000000000000000000000000008152600d01613cb890826138dc565b61088b60f21b81526002017f22656e6444617465223a220000000000000000000000000000000000000000008152600b01613cf2916138dc565b61088b60f21b81526002017f226772616e7473223a5b5d2c00000000000000000000000000000000000000008152600c017f22696e64696361746f7273223a5b5d2c0000000000000000000000000000000081526010017f2264656c6976657261626c6573223a5b7b00000000000000000000000000000081526011017f226e616d65223a22576f726b2045766964656e6365222c00000000000000000081526017017f2270726f6f66223a22697066733a2f2f000000000000000000000000000000008152601001613dc4916138dc565b61088b60f21b81526002017f226465736372697074696f6e223a2200000000000000000000000000000000008152600f01613dfe916138dc565b601160f91b81527f7d5d2c000000000000000000000000000000000000000000000000000000000060018201527f2274797065223a2270726f6a6563742d757064617465220000000000000000006004820152607d60f81b601b8201520360031981018352601f1990613e7490601c01846106d3565b604051809385820190613e8691610936565b039081018352613e9690836106d3565b613e9e6150ff565b91613ea761099b565b308152918483015f9052604083015f90526060830152608082015260a081015f9052613ed16109bb565b91825282820152604051938480809363f17325e760e01b82526004820190613ef891613902565b03916001600160a01b03165a905f91f19182915f93613f29575b50506109475760046040516317c3402f60e01b8152fd5b613f40929350803d10610f5157610f4281836106d3565b905f80613f12565b613f506140de565b7fbc197c810000000000000000000000000000000000000000000000000000000090565b634e487b7160e01b5f52601160045260245ffd5b906301e133808201809211613f9957565b613f74565b90620afa6c8201809211613f9957565b9060028201809211613f9957565b9060018201809211613f9957565b9060038201809211613f9957565b91908201809211613f9957565b90815f8237015f815290565b3d1561401b573d90614002826109c8565b9161401060405193846106d3565b82523d5f602084013e565b606090565b604051906080820182811067ffffffffffffffff82111761067a5760405260608252602082016060604d82303c6060838051810103126103975751906001600160a01b0360606040850151946140758661097d565b01519293169190565b5f5442106140cd576003546140c561409461658e565b6140b76040939293519384926020840196875260408085015260608401916134f4565b03601f1981018352826106d3565b519020600355565b6004604051636315bfbb60e01b8152fd5b61412b6141096140f261046c610466614020565b6001600160a01b03165f52600160205260405f2090565b6001600160e01b03195f35166001600160e01b0319165f5260205260405f2090565b546001600160a01b03811661413d5750565b5f809161414930614ece565b908260405161419260488260208101956bffffffffffffffffffffffff19809160601b16875236866034840137368201903360601b1660348201520360288101845201826106d3565b51925af1612950613ff1565b9060401015612a205760400190565b906020116103975790602090565b906040116103975760200190602090565b90929192836020116103975783116103975760200191601f190190565b90939293848311610397578411610397578101920390565b35906020811061420f575090565b5f199060200360031b1b1690565b6005111561422757565b634e487b7160e01b5f52602160045260245ffd5b909160ff61426361425d61424f848761419e565b356001600160f81b03191690565b60f81c90565b161561429c5761427e926142789136916109e4565b906157ad565b6142878161421d565b61429757610947906138a0612d7e565b505f90565b906142b66110216110216142b085876141ad565b90614201565b916142bf612d7e565b506142cc610ffc84614857565b80614303575b6142fb576113b68185816142ef6142b06142f5966109479a6141bb565b916141e9565b91615732565b505050505f90565b50306001600160a01b03841614156142d2565b9190605595936001600160a01b0360e2966040519660b788015216609786015260778501528160578501526e5af43d82803e903d91602b57fd5bf360378501526028840152733d60ad80600a3d3981f3363d3d373d3d3d363d73601484015260b7835260d7830190816040528351602085012061011785015260f7840152520160ff81532090565b6001600160a01b03808216817f0000000000000000000000000000000000000000000000000000000000000000168114614545576143da614020565b90468303614462575b6143ec92615269565b8281168214614459576143fe90615622565b91821614614452576144459161442861443e926001600160a01b03165f52600260205260405f2090565b906001600160a01b03165f5260205260405f2090565b5460ff1690565b61444d575f90565b600190565b5050600190565b50505050600190565b61449e61446d6157de565b7fffffffffffffffffffffffffeeeeffffffffffffffffffffffffffffffffeeef6001600160a01b03809216011690565b8516301461451b576040517f672657ca0000000000000000000000000000000000000000000000000000000081526001600160a01b03871660048201526020816024817f00000000000000000000000000000000000000000000000000000000000000008a165afa9081156122bb575f91614526575b50156143e3575b505050505050600190565b61453f915060203d602011612c9557612c8781836106d3565b5f614514565b505050600190565b909280926014946bffffffffffffffffffffffff199060601b1683528483013701015f815290565b9092919360ff169081156146845760018214614633575060028114614616576003146145c55760046040517f398d4d32000000000000000000000000000000000000000000000000000000008152fd5b82610947926145e883806145e26142b06145f0976140b79a6141ad565b946141cc565b9290916146b7565b604051928391602083016014916bffffffffffffffffffffffff199060601b1681520190565b506109479161462d6140b7946145f09336916109e4565b906149ee565b61094794939291506146719061466361464b30614ece565b93843b15614676575b6040519687936020850161454d565b03601f1981018552846106d3565b615345565b61467f30614f1d565b614654565b92916146979150936109479436916109e4565b91615345565b6001600160a01b036146ae30614ece565b1633036105a357565b916146c4919336916109e4565b9060208251920190f5906001600160a01b038216156146df57565b60046040517fa28c2473000000000000000000000000000000000000000000000000000000008152fd5b6040517f1506fd4d0000000000000000000000000000000000000000000000000000000081526001600160a01b039091166004820152602081806024810103816001600160a01b037f0000000000000000000000000000000000000000000000000000000000000000165afa9081156122bb575f916147c7575b501561479d57614797610ffc6112ce6157de565b6105a357565b60046040517f68155f9a000000000000000000000000000000000000000000000000000000008152fd5b6147e0915060203d602011612c9557612c8781836106d3565b5f614783565b156147ed57565b608460405162461bcd60e51b815260206004820152602960248201527f45524331393637557067726164653a20756e737570706f727465642070726f7860448201527f6961626c655555494400000000000000000000000000000000000000000000006064820152fd5b614862610466614020565b6001600160a01b038083169181811683146144595761488090615622565b168091146144525760ff916148b0915f52600260205260405f20906001600160a01b03165f5260205260405f2090565b541690565b600a4614801561492e575b8015614923575b8015614917575b801561490b575b8015614900575b80156148f5575b80156148ec5790565b50610530461490565b5061053146146148e3565b5061a4ec46146148dc565b5062014a3446146148d5565b5062aa36a746146148ce565b5061a4b146146148c7565b5062aa37dc46146148c0565b61a4b146146149865761a4ec461461496e5762014a344603615a0857734ca7230fb6b78875bdd1b1e4f665b7b7f189123990565b738791ac8c099314bb1d1514d76de13a1e8027595090565b736dc1d6b864e8bef815806f9e4677123496e1202690565b6149e1917f19457468657265756d205369676e6564204d6573736167653a0a3332000000005f52601c526149db603c5f2091610140810190612e58565b9161423b565b6149ea57600190565b5f90565b60208251920190f0906001600160a01b038216156146df57565b60208082526005545f92614a1b8261061a565b9182602083015260406001916001811690815f14614aa25750600114614a44575b505050505090565b60055f908152949695509192917f036b6384b5eca791c62761152d0c79bb0604c104a5fb6f4eb0703f3154bb3db05b838610614a8f5750505050604092935001015f80808080614a3c565b8054858701830152948701948201614a73565b9395505050506040935060ff191683830152151560051b01015f80808080614a3c565b614ad061102161493a565b9060409081519260206001600160a01b0385614af3838201906001602083019252565b0392614b07601f19948581018952886106d3565b614b0f615a32565b96614b1861099b565b308152905f828601526001888301525f606083015260808201525f60a0820152614b406109bb565b97885283880152169184519063f17325e760e01b93848352838380614b6960049b8c8301613902565b03815f855af15f9381614d5d575b50614b8b578787516317c3402f60e01b8152fd5b614b9483600c55565b614c23848851614bbb81614baf848201906001602083019252565b038681018352826106d3565b614bc3615b9c565b90614bcc6157de565b90614be7614bd861099b565b6001600160a01b039093168352565b5f8285015260018c83015287606083015260808201525f60a0820152614c0b6109bb565b918252828201528951809381928a83528d8301613902565b03815f865af19081614d40575b50614c4d578787614c405f600c55565b516317c3402f60e01b8152fd5b614ccd948493614c7b614c6f94614c62615d92565b8b51968791898301610936565b039081018652856106d3565b614c836150ff565b93614c8c61099b565b308152915f8388015260018b840152606083015260808201525f60a0820152614cb36109bb565b938452848401525f885180978195829483528c8301613902565b03925af19182614d22575b5050614ce85750614c405f600c55565b9150600c549051907f03d364024f6102dfc5e23f488f1e462c8e58afc717a21875496e0adc2132d1b4309280614d1d81614a08565b0390a3565b81614d3892903d10610f5157610f4281836106d3565b505f80614cd8565b614d5690863d8811610f5157610f4281836106d3565b505f614c30565b614d75919450853d8711610f5157610f4281836106d3565b925f614b77565b5f9060033d11614d8857565b905060045f803e5f5160e01c90565b5f60443d1061094757604051600319913d83016004833e815167ffffffffffffffff918282113d602484011117614df457818401948551938411614dfc573d85010160208487010111614df45750610947929101602001906106d3565b949350505050565b50949350505050565b600c548015614eca57614e1c61102161102161493a565b91823b15610397576040517fdbf7117700000000000000000000000000000000000000000000000000000000815260048101929092526001600160a01b03166024820152905f908290818381604481015b03925af19081614eb7575b50610733576001614e87614d7c565b6308c379a014614ea3575b614e9857565b614ea0613ff1565b50565b614eab614d97565b15614e9257505f614e92565b806110c2614ec492610666565b5f614e78565b5050565b600b614edb6055926162bf565b602081519101206040519060408201527f97f795a08410e77dc9dbbaba3915f17c601e45642518dd578bd440d8775bfee460208201523081520160ff81532090565b614f26906162bf565b805115614fab577f97f795a08410e77dc9dbbaba3915f17c601e45642518dd578bd440d8775bfee48160206001600160a01b03935191015ff51615614f6757565b606460405162461bcd60e51b815260206004820152601960248201527f437265617465323a204661696c6564206f6e206465706c6f79000000000000006044820152fd5b606460405162461bcd60e51b815260206004820152602060248201527f437265617465323a2062797465636f6465206c656e677468206973207a65726f6044820152fd5b908151811015612a20570160200190565b5f198114613f995760010190565b905f805b835181101561506d57601160f91b61504b61503e6150308488614fef565b516001600160f81b03191690565b6001600160f81b03191690565b14615059575b600101615012565b90615065600191615000565b919050615051565b508015614ea057615082615087918451613fd8565b612dbb565b5f925f5b81518110156150f85780601160f91b6150ac61503e61503060019587614fef565b146150dd575b6150bf6150308285614fef565b956150d66150cc82615000565b975f1a9186614fef565b530161508b565b605c6150f26150eb88615000565b9786614fef565b536150b2565b5090925050565b600a46146152455762aa37dc46146152215761a4b146146151fd5762aa36a746146151d95762014a3446146151b55761a4ec461461519157610531461461516d576105304603615a08577f76f38d22f88a0df52a8ff0763e1c0af912b0822e758be2e0c9cded91aef71d2290565b7f1b4365b92aa47de3f67cdfb53127518381c1e66e0d9e0f8a15bbfa725095096790565b7f9895e82115987d8e3e02b35ced92e6a0509293890333f58f50ec291b34853dac90565b7f9b06f811608d135f913c18295486693fe626f35e213a7d132be87b1f952e508c90565b7f2c270e35bfcdc4d611f0e9d3d2ab6924ec6c673505abc22a1dd07e19b67211af90565b7f16bfe4783b7a9c743c401222c56a07ecb77ed42afc84b61ff1f62f5936c0b9d790565b7fd193e75f420a69910f98fa79cacdfd9d0dcbf5933edce8f8bde9a10bd204d99690565b7f70a3f615f738fc6a4f56100692ada93d947c028b840940d97af7e7d6f0fa057790565b46036152d357803b156152d3576040516331a9108f60e11b81526004810192909252602090829060249082906001600160a01b03165afa5f91816152b2575b5061094757505f90565b6152cc91925060203d602011612c0457612bf581836106d3565b905f6152a8565b50505f90565b600c548015614eca576152f061102161102161493a565b91823b15610397576040517fb069390c00000000000000000000000000000000000000000000000000000000815260048101929092526001600160a01b03166024820152905f90829081838160448101614e6d565b915f928392602083519301915af19061535c613ff1565b911561536457565b50602081519101fd5b600819810191908211613f9957565b5f19810191908211613f9957565b91908203918211613f9957565b9062023ab191828102928184041490151715613f9957565b9061019091828102928184041490151715613f9957565b9061016d9180830292830403613f9957565b9081600502916005830403613f9957565b9081609902916099830403613f9957565b620151809061540a828204613f9e565b61549261542662023ab183049261542084615397565b9061538a565b61542061547161546b61546561545d6154516154466105b488048861538a565b618eac880490613fd8565b62023ab087049061538a565b61016d900490565b956153af565b85613fd8565b93606461548a615480836153c6565b8360021c90613fd8565b91049061538a565b926154d06154cb6154b46154ad6154a8886153d8565b613fae565b6099900490565b956154206154c46154a8896153e9565b6005900490565b613fbc565b93600a811015615613576154e390613fca565b925b6002841115615603575b06610e10916154fd906163b7565b9261550790616425565b9361551190616425565b9161551d818304616425565b908206603c900461552d90616425565b91603c900661553b90616425565b926040519586956020870161554f916138dc565b602d60f81b8152600101615562916138dc565b602d60f81b8152600101615575916138dc565b7f540000000000000000000000000000000000000000000000000000000000000081526001016155a4916138dc565b601d60f91b81526001016155b7916138dc565b601d60f91b81526001016155ca916138dc565b7f2e3030305a00000000000000000000000000000000000000000000000000000081526005015b03601f198101825261094790826106d3565b9161560d90613fbc565b916154ef565b61561c9061536d565b926154e5565b907f0000000000000000000000000000000000000000000000000000000000000000917f00000000000000000000000000000000000000000000000000000000000000005b61567281858461648b565b1561572d576001600160a01b0360408051937ffc0c546a000000000000000000000000000000000000000000000000000000008552846004816060958694165afa9384156122bb575f915f935f966156dd575b505050926156d69161567294615269565b9150615667565b92509250809450813d8311615726575b6156f781836106d3565b8101031261039757826156d6916156729451906020830151926157198461097d565b01519091909481936156c5565b503d6156ed565b509150565b5f9192908291604051615769816140b76020820194630b135d3f60e11b998a87526024840152604060448401526064830190610911565b51915afa90615776613ff1565b8261579f575b8261578657505090565b61579b919250602080825183010191016138f3565b1490565b91506020825110159161577c565b9060418151145f146157d55761044491602082015190606060408401519301515f1a90616513565b50505f90600290565b6001600160a01b037f000000000000000000000000000000000000000000000000000000000000000016331480615825575b156158215736601319013560601c90565b3390565b506014361015615810565b9061583a8261594e565b6001600160a01b0382167fbc7cd75a20ee27fd9adebab32041f755214dbc6bffa90cc0225b39da2e5c2d3b5f80a28051158015906158f5575b61587b575050565b614ea0915f806040519361588e856106b7565b602785527f416464726573733a206c6f772d6c6576656c2064656c65676174652063616c6c60208601527f206661696c6564000000000000000000000000000000000000000000000000006040860152602081519101845af46158ef613ff1565b916168b8565b506001615873565b906159078261594e565b6001600160a01b0382167fbc7cd75a20ee27fd9adebab32041f755214dbc6bffa90cc0225b39da2e5c2d3b5f80a28051158015906159475761587b575050565b505f615873565b803b1561599e576001600160a01b037f360894a13ba1a3210667c828492db98dca3e2076cc3735a920a3ca505d382bbc911673ffffffffffffffffffffffffffffffffffffffff19825416179055565b608460405162461bcd60e51b815260206004820152602d60248201527f455243313936373a206e657720696d706c656d656e746174696f6e206973206e60448201527f6f74206120636f6e7472616374000000000000000000000000000000000000006064820152fd5b60046040517f3cb9b437000000000000000000000000000000000000000000000000000000008152fd5b600a4614615b785762aa37dc4614615b545761a4b14614615b305762aa36a74614615b0c5762014a344614615ae85761a4ec4614615ac4576105314614615aa0576105304603615a08577f9de9294fbb62391b393332a33bfc28b4e0e728dd094aee4bda3955df62f8401a90565b7ff6b89107f8096220051240b89a48abb66e0a23e529c914953b80f5a2bc5ea44c90565b7ff3f753b41e04d1052b5a5ec7624d1dfdb6c2da288a985120e477ddbcac07102290565b7f5ddd6b7a11406771308431ca9bd146cc717848b74b52993a532dc1aad0ccc83f90565b7fec77990a252b54b17673955c774b9712766de5eecb22ca5aa2c440e0e93257fb90565b7fac2a06e955a7e25e6729efe1a6532237e3435b21ccd3dc827ae3c94e624d25b390565b7ff9bbd118dd100459a7d093403af21c6e7f847fd7f331b7a4e6bfb94a1366bd7690565b7f5b873b6e7a16207b526dde366e8164e95bcda2f009272306519667c5e94d219190565b600a4614615ce25762aa37dc4614615cbe5761a4b14614615c9a5762aa36a74614615c765762014a344614615c525761a4ec4614615c2e576105314614615c0a576105304603615a08577f222fa508c0cdb5954905dd30611a940f6402da2b3c49ce0c88d33e22f72121e790565b7fb7278b94cea2b9f1a8fdd1c4bb52ed66906516a0ff9d59d0f80daffcf147ea5d90565b7fb4186a2401f40a4c78768941ef9140e1fbe5fe595053a65d44f31d6df180b71290565b7f857398d86e2d31bec5af882b950ee7b00d1fefefba2432737ab28b68ee041eb890565b7fdd87b3500457931252424f4439365534ba72a367503a8805ff3482353fb9030190565b7f5f430aec9d04f0dcb3729775c5dfe10752e436469a7607f8c64ae44ef996e47790565b7f611f9655188f372e27dce116a803fa9081ca3e2907986368d54fcad538ca385390565b7f7fbb8a65924d8ad2ae12356e04b1418043e8361ba3b1b6c917de2e23df3ec81c90565b6008545f9291615d158261061a565b91600190818116908115615d7f5750600114615d3057505050565b909192935060085f527ff3f7a9fe364faab93b216da50a3214154f22a0a2b415b23a84c8169e8b636ee3905f915b848310615d6c575050500190565b8181602092548587015201920191615d5e565b60ff191683525050811515909102019150565b615d9d60085461061a565b156162b257604051615e08816140b7615e03602083016027907f68747470733a2f2f677265656e676f6f64732e6d7970696e6174612e636c6f7581527f642f697066732f0000000000000000000000000000000000000000000000000060208201520190565b615d06565b615e106106f5565b615e199061500e565b615e21610854565b615e2a9061500e565b91615e33610854565b615e3c9061500e565b90615e45610854565b615e4e9061500e565b90615e57610854565b615e609061500e565b615e686107b8565b615e719061500e565b91615e7b9061500e565b92615e846106f5565b615e8d906165fa565b615e969061500e565b604051607b60f81b60208201529788979196916021890168113a34ba3632911d1160b91b8152600901615ec8916138dc565b61088b60f21b81526002017f226465736372697074696f6e223a2200000000000000000000000000000000008152600f01615f02916138dc565b61088b60f21b81526002017f2270726f626c656d223a220000000000000000000000000000000000000000008152600b01615f3c916138dc565b61088b60f21b81526002017f22736f6c7574696f6e223a2200000000000000000000000000000000000000008152600c01615f76916138dc565b61088b60f21b81526002017f226d697373696f6e53756d6d617279223a2200000000000000000000000000008152601201615fb0916138dc565b61088b60f21b81526002017f226c6f636174696f6e4f66496d70616374223a220000000000000000000000008152601401615fea916138dc565b61088b60f21b81526002017f22696d61676555524c223a2200000000000000000000000000000000000000008152600c01616024916138dc565b61088b60f21b81526002017f226c696e6b73223a5b000000000000000000000000000000000000000000000081526009017f7b2274797065223a2274776974746572222c2275726c223a22227d2c000000008152601c017f7b2274797065223a22676974687562222c2275726c223a22227d2c00000000008152601b017f7b2274797065223a22646973636f7264222c2275726c223a22227d2c000000008152601c017f7b2274797065223a2277656273697465222c2275726c223a22227d2c000000008152601c017f7b2274797065223a226c696e6b6564696e222c2275726c223a22227d2c0000008152601d017f7b2274797065223a2270697463684465636b222c2275726c223a22227d2c00008152601e017f7b2274797065223a2264656d6f566964656f222c2275726c223a22227d2c00008152601e017f7b2274797065223a22666172636173746572222c2275726c223a22227d0000008152601d017f5d2c00000000000000000000000000000000000000000000000000000000000081526002017f22736c7567223a2200000000000000000000000000000000000000000000000081526008016161da916138dc565b61088b60f21b81526002017f22627573696e6573734d6f64656c223a22222c0000000000000000000000000081526013017f227374616765496e223a22222c000000000000000000000000000000000000008152600d017f227261697365644d6f6e6579223a22222c00000000000000000000000000000081526011017f2270617468546f54616b65223a22222c0000000000000000000000000000000081526010017f2274797065223a2270726f6a6563742d64657461696c732200000000000000008152601801607d60f81b81526001016155f1565b6162ba612d7e565b615e08565b610947603461637592604051906162d58261067f565b600e825260208201907f604380600d600039806000f3fe73000000000000000000000000000000000000825261639c604051616310816106b7565b602e815260208101937f3314601d573d3dfd5b363d3d373d3d6014360360143d5160601c5af43d60008085527f3e80603e573d6000fd5b3d6000f3000000000000000000000000000000000000604083015260405198899651809260208901906108f0565b8501926bffffffffffffffffffffffff199060601b166020840152518093868401906108f0565b010360148101845201826106d3565b8015613f99575f190190565b604051906163c48261067f565b6004825260203681840137600490815b6163dd57505090565b600a6030918181068301809311613f99575f198401848111613f99576164166001600160f81b031961641e9560f81b165f1a9187614fef565b5304916163ab565b90816163d4565b604051906164328261067f565b6002825260203681840137600290815b61644b57505090565b600a6030918181068301809311613f99575f198401848111613f99576164166001600160f81b03196164849560f81b165f1a9187614fef565b9081616442565b9160ad833b0361650c576014600a600c853c5f5190813b156142fb576001600160a01b03809316838316036142fb576164c2612d90565b60208101916080602d84883c608082805181010312610397576165069361102193516040840151918760806060870151966164fc8861097d565b0151951693614316565b91161490565b5050505f90565b7f7fffffffffffffffffffffffffffffff5d576e7357a4501ddfe92f46681b20a08411616583576020935f9360ff60809460405194855216868401526040830152606082015282805260015afa156122bb575f516001600160a01b0381161561657b57905f90565b505f90600190565b505050505f90600390565b6001600160a01b037f0000000000000000000000000000000000000000000000000000000000000000163314806165dd575b156165d757601319360190368211613f99575f9190565b5f903690565b5060143610156165c0565b60ff60209116019060ff8211613f9957565b906166058251612dbb565b915f905f5b8151811015616832576166206150308284614fef565b6001600160f81b03198082167f410000000000000000000000000000000000000000000000000000000000000081101580616808575b1561669e5750509061667f61666f60019360f81c6165e8565b60f81b6001600160f81b03191690565b9361669661668c82615000565b955f1a9188614fef565b535b0161660a565b7f6100000000000000000000000000000000000000000000000000000000000000819693961015806167de575b156166e957505090816166e361668c60019492615000565b53616698565b7f3000000000000000000000000000000000000000000000000000000000000000811015806167b4575b1561672b57505090816166e361668c60019492615000565b6001939295507f20000000000000000000000000000000000000000000000000000000000000001461675e575b50616698565b841515908161678f575b50616774575b5f616758565b602d61678961678286615000565b9588614fef565b5361676e565b602d60f81b91506167ab6150306167a58861537c565b8a614fef565b1614155f616768565b507f3900000000000000000000000000000000000000000000000000000000000000811115616713565b507f7a000000000000000000000000000000000000000000000000000000000000008111156166cb565b507f5a00000000000000000000000000000000000000000000000000000000000000811115616656565b50508015158061688d575b61687f575b61684b81612dbb565b905f5b81811061685c575090925050565b8061686c61503060019388614fef565b5f1a6168788286614fef565b530161684e565b616888906163ab565b616842565b50602d60f81b6001600160f81b03196168b16150306168ab8561537c565b87614fef565b161461683d565b9192901561691957508151156168cc575090565b3b156168d55790565b606460405162461bcd60e51b815260206004820152601d60248201527f416464726573733a2063616c6c20746f206e6f6e2d636f6e74726163740000006044820152fd5b82519091501561692c5750805190602001fd5b610f109060405191829162461bcd60e51b83526004830161093656fea164736f6c6343000819000a","linkReferences":{}},"methodIdentifiers":{"ASSESSMENT_RESOLVER()":"3a208f95","WORK_APPROVAL_RESOLVER()":"bcc5cf88","addGardenOperator(address)":"eed9df74","addGardener(address)":"eaff6dc9","bannerImage()":"94def29d","communityToken()":"29aa1617","createProjectImpact(string,string,string)":"b900ace8","createProjectMilestone(string,string,string)":"81eec6bb","description()":"7284e416","entryPoint()":"b0d691fe","erc6551Registry()":"056d5afe","execute(address,uint256,bytes,uint8)":"51945447","executeBatch((address,uint256,bytes,uint8)[])":"43629a73","executeNested(address,uint256,bytes,uint8,(bytes32,address,uint256)[])":"1fb1ecf0","extcall(address,uint256,bytes)":"b709467c","extcreate(uint256,bytes)":"45a24e3e","extcreate2(uint256,bytes32,bytes)":"34715fb1","extsload(bytes32)":"1e2eaeaf","gapProjectUID()":"f7fc57b0","gardenOperators(address)":"7597bc7c","gardeners(address)":"1f6e45e3","getGAPProjectUID()":"f89b9b93","getNonce()":"d087d288","initialize(address,string,string,string,string,address[],address[])":"47f5fddd","isLocked()":"a4e2d634","isTrustedForwarder(address)":"572b6c05","isValidSignature(bytes32,bytes)":"1626ba7e","isValidSigner(address,bytes)":"523e3260","joinGarden()":"b10006a6","location()":"516f279e","lock(uint256)":"dd467064","lockedUntil()":"ce0617ec","name()":"06fdde03","onERC1155BatchReceived(address,address,uint256[],uint256[],bytes)":"bc197c81","onERC1155Received(address,address,uint256,uint256,bytes)":"f23a6e61","onERC721Received(address,address,uint256,bytes)":"150b7a02","openJoining()":"291d0548","overrides(address,bytes4)":"ee9c6054","owner()":"8da5cb5b","permissions(address,address)":"1f9838b5","proxiableUUID()":"52d1902d","removeGardenOperator(address)":"adbce85e","removeGardener(address)":"eeb97057","setOverrides(bytes4[],address[])":"7a8f7356","setPermissions(address[],bool[])":"039721b1","state()":"c19d93fb","supportsInterface(bytes4)":"01ffc9a7","token()":"fc0c546a","transferGAPProjectOwnership(address)":"3a25bc32","updateDescription(string)":"e735b48a","updateName(string)":"84da92a7","upgradeTo(address)":"3659cfe6","upgradeToAndCall(address,bytes)":"4f1ef286","validateUserOp((address,uint256,bytes,bytes,uint256,uint256,uint256,uint256,uint256,bytes,bytes),bytes32,uint256)":"3a871cdd"},"id":123}