{"abi":[{"type":"constructor","inputs":[{"name":"erc4337EntryPoint","type":"address","internalType":"address"},{"name":"multicallForwarder","type":"address","internalType":"address"},{"name":"erc6551Registry","type":"address","internalType":"address"},{"name":"guardian","type":"address","internalType":"address"},{"name":"workApprovalResolver","type":"address","internalType":"address"},{"name":"assessmentResolver","type":"address","internalType":"address"}],"stateMutability":"nonpayable"},{"type":"fallback","stateMutability":"payable"},{"type":"receive","stateMutability":"payable"},{"type":"function","name":"ASSESSMENT_RESOLVER","inputs":[],"outputs":[{"name":"","type":"address","internalType":"address"}],"stateMutability":"view"},{"type":"function","name":"WORK_APPROVAL_RESOLVER","inputs":[],"outputs":[{"name":"","type":"address","internalType":"address"}],"stateMutability":"view"},{"type":"function","name":"addGardenOperator","inputs":[{"name":"operator","type":"address","internalType":"address"}],"outputs":[],"stateMutability":"nonpayable"},{"type":"function","name":"addGardener","inputs":[{"name":"gardener","type":"address","internalType":"address"}],"outputs":[],"stateMutability":"nonpayable"},{"type":"function","name":"bannerImage","inputs":[],"outputs":[{"name":"","type":"string","internalType":"string"}],"stateMutability":"view"},{"type":"function","name":"communityToken","inputs":[],"outputs":[{"name":"","type":"address","internalType":"address"}],"stateMutability":"view"},{"type":"function","name":"createProjectImpact","inputs":[{"name":"workTitle","type":"string","internalType":"string"},{"name":"impactDescription","type":"string","internalType":"string"},{"name":"proofIPFS","type":"string","internalType":"string"},{"name":"workUID","type":"bytes32","internalType":"bytes32"}],"outputs":[{"name":"","type":"bytes32","internalType":"bytes32"}],"stateMutability":"nonpayable"},{"type":"function","name":"createProjectMilestone","inputs":[{"name":"milestoneTitle","type":"string","internalType":"string"},{"name":"milestoneDescription","type":"string","internalType":"string"},{"name":"milestoneMeta","type":"string","internalType":"string"}],"outputs":[{"name":"","type":"bytes32","internalType":"bytes32"}],"stateMutability":"nonpayable"},{"type":"function","name":"description","inputs":[],"outputs":[{"name":"","type":"string","internalType":"string"}],"stateMutability":"view"},{"type":"function","name":"entryPoint","inputs":[],"outputs":[{"name":"","type":"address","internalType":"contract IEntryPoint"}],"stateMutability":"view"},{"type":"function","name":"erc6551Registry","inputs":[],"outputs":[{"name":"","type":"address","internalType":"address"}],"stateMutability":"view"},{"type":"function","name":"execute","inputs":[{"name":"to","type":"address","internalType":"address"},{"name":"value","type":"uint256","internalType":"uint256"},{"name":"data","type":"bytes","internalType":"bytes"},{"name":"operation","type":"uint8","internalType":"uint8"}],"outputs":[{"name":"","type":"bytes","internalType":"bytes"}],"stateMutability":"payable"},{"type":"function","name":"executeBatch","inputs":[{"name":"operations","type":"tuple[]","internalType":"struct BatchExecutor.Operation[]","components":[{"name":"to","type":"address","internalType":"address"},{"name":"value","type":"uint256","internalType":"uint256"},{"name":"data","type":"bytes","internalType":"bytes"},{"name":"operation","type":"uint8","internalType":"uint8"}]}],"outputs":[{"name":"","type":"bytes[]","internalType":"bytes[]"}],"stateMutability":"payable"},{"type":"function","name":"executeNested","inputs":[{"name":"to","type":"address","internalType":"address"},{"name":"value","type":"uint256","internalType":"uint256"},{"name":"data","type":"bytes","internalType":"bytes"},{"name":"operation","type":"uint8","internalType":"uint8"},{"name":"proof","type":"tuple[]","internalType":"struct NestedAccountExecutor.ERC6551AccountInfo[]","components":[{"name":"salt","type":"bytes32","internalType":"bytes32"},{"name":"tokenContract","type":"address","internalType":"address"},{"name":"tokenId","type":"uint256","internalType":"uint256"}]}],"outputs":[{"name":"","type":"bytes","internalType":"bytes"}],"stateMutability":"payable"},{"type":"function","name":"extcall","inputs":[{"name":"to","type":"address","internalType":"address"},{"name":"value","type":"uint256","internalType":"uint256"},{"name":"data","type":"bytes","internalType":"bytes"}],"outputs":[{"name":"result","type":"bytes","internalType":"bytes"}],"stateMutability":"nonpayable"},{"type":"function","name":"extcreate","inputs":[{"name":"value","type":"uint256","internalType":"uint256"},{"name":"bytecode","type":"bytes","internalType":"bytes"}],"outputs":[{"name":"","type":"address","internalType":"address"}],"stateMutability":"nonpayable"},{"type":"function","name":"extcreate2","inputs":[{"name":"value","type":"uint256","internalType":"uint256"},{"name":"salt","type":"bytes32","internalType":"bytes32"},{"name":"bytecode","type":"bytes","internalType":"bytes"}],"outputs":[{"name":"","type":"address","internalType":"address"}],"stateMutability":"nonpayable"},{"type":"function","name":"extsload","inputs":[{"name":"slot","type":"bytes32","internalType":"bytes32"}],"outputs":[{"name":"value","type":"bytes32","internalType":"bytes32"}],"stateMutability":"view"},{"type":"function","name":"gapProjectUID","inputs":[],"outputs":[{"name":"","type":"bytes32","internalType":"bytes32"}],"stateMutability":"view"},{"type":"function","name":"gardenOperators","inputs":[{"name":"operator","type":"address","internalType":"address"}],"outputs":[{"name":"isOperator","type":"bool","internalType":"bool"}],"stateMutability":"view"},{"type":"function","name":"gardeners","inputs":[{"name":"gardener","type":"address","internalType":"address"}],"outputs":[{"name":"isGardener","type":"bool","internalType":"bool"}],"stateMutability":"view"},{"type":"function","name":"getGAPProjectUID","inputs":[],"outputs":[{"name":"","type":"bytes32","internalType":"bytes32"}],"stateMutability":"view"},{"type":"function","name":"getNonce","inputs":[],"outputs":[{"name":"","type":"uint256","internalType":"uint256"}],"stateMutability":"view"},{"type":"function","name":"initialize","inputs":[{"name":"params","type":"tuple","internalType":"struct GardenAccount.InitParams","components":[{"name":"communityToken","type":"address","internalType":"address"},{"name":"name","type":"string","internalType":"string"},{"name":"description","type":"string","internalType":"string"},{"name":"location","type":"string","internalType":"string"},{"name":"bannerImage","type":"string","internalType":"string"},{"name":"metadata","type":"string","internalType":"string"},{"name":"openJoining","type":"bool","internalType":"bool"},{"name":"gardeners","type":"address[]","internalType":"address[]"},{"name":"gardenOperators","type":"address[]","internalType":"address[]"}]}],"outputs":[],"stateMutability":"nonpayable"},{"type":"function","name":"isLocked","inputs":[],"outputs":[{"name":"","type":"bool","internalType":"bool"}],"stateMutability":"view"},{"type":"function","name":"isTrustedForwarder","inputs":[{"name":"forwarder","type":"address","internalType":"address"}],"outputs":[{"name":"","type":"bool","internalType":"bool"}],"stateMutability":"view"},{"type":"function","name":"isValidSignature","inputs":[{"name":"hash","type":"bytes32","internalType":"bytes32"},{"name":"signature","type":"bytes","internalType":"bytes"}],"outputs":[{"name":"magicValue","type":"bytes4","internalType":"bytes4"}],"stateMutability":"view"},{"type":"function","name":"isValidSigner","inputs":[{"name":"signer","type":"address","internalType":"address"},{"name":"data","type":"bytes","internalType":"bytes"}],"outputs":[{"name":"magicValue","type":"bytes4","internalType":"bytes4"}],"stateMutability":"view"},{"type":"function","name":"joinGarden","inputs":[],"outputs":[],"stateMutability":"nonpayable"},{"type":"function","name":"location","inputs":[],"outputs":[{"name":"","type":"string","internalType":"string"}],"stateMutability":"view"},{"type":"function","name":"lock","inputs":[{"name":"_lockedUntil","type":"uint256","internalType":"uint256"}],"outputs":[],"stateMutability":"nonpayable"},{"type":"function","name":"lockedUntil","inputs":[],"outputs":[{"name":"","type":"uint256","internalType":"uint256"}],"stateMutability":"view"},{"type":"function","name":"metadata","inputs":[],"outputs":[{"name":"","type":"string","internalType":"string"}],"stateMutability":"view"},{"type":"function","name":"name","inputs":[],"outputs":[{"name":"","type":"string","internalType":"string"}],"stateMutability":"view"},{"type":"function","name":"onERC1155BatchReceived","inputs":[{"name":"","type":"address","internalType":"address"},{"name":"","type":"address","internalType":"address"},{"name":"","type":"uint256[]","internalType":"uint256[]"},{"name":"","type":"uint256[]","internalType":"uint256[]"},{"name":"","type":"bytes","internalType":"bytes"}],"outputs":[{"name":"","type":"bytes4","internalType":"bytes4"}],"stateMutability":"nonpayable"},{"type":"function","name":"onERC1155Received","inputs":[{"name":"","type":"address","internalType":"address"},{"name":"","type":"address","internalType":"address"},{"name":"","type":"uint256","internalType":"uint256"},{"name":"","type":"uint256","internalType":"uint256"},{"name":"","type":"bytes","internalType":"bytes"}],"outputs":[{"name":"","type":"bytes4","internalType":"bytes4"}],"stateMutability":"nonpayable"},{"type":"function","name":"onERC721Received","inputs":[{"name":"","type":"address","internalType":"address"},{"name":"","type":"address","internalType":"address"},{"name":"tokenId","type":"uint256","internalType":"uint256"},{"name":"","type":"bytes","internalType":"bytes"}],"outputs":[{"name":"","type":"bytes4","internalType":"bytes4"}],"stateMutability":"nonpayable"},{"type":"function","name":"openJoining","inputs":[],"outputs":[{"name":"","type":"bool","internalType":"bool"}],"stateMutability":"view"},{"type":"function","name":"overrides","inputs":[{"name":"","type":"address","internalType":"address"},{"name":"","type":"bytes4","internalType":"bytes4"}],"outputs":[{"name":"","type":"address","internalType":"address"}],"stateMutability":"view"},{"type":"function","name":"owner","inputs":[],"outputs":[{"name":"","type":"address","internalType":"address"}],"stateMutability":"view"},{"type":"function","name":"permissions","inputs":[{"name":"","type":"address","internalType":"address"},{"name":"","type":"address","internalType":"address"}],"outputs":[{"name":"","type":"bool","internalType":"bool"}],"stateMutability":"view"},{"type":"function","name":"proxiableUUID","inputs":[],"outputs":[{"name":"","type":"bytes32","internalType":"bytes32"}],"stateMutability":"view"},{"type":"function","name":"removeGardenOperator","inputs":[{"name":"operator","type":"address","internalType":"address"}],"outputs":[],"stateMutability":"nonpayable"},{"type":"function","name":"removeGardener","inputs":[{"name":"gardener","type":"address","internalType":"address"}],"outputs":[],"stateMutability":"nonpayable"},{"type":"function","name":"setOpenJoining","inputs":[{"name":"_openJoining","type":"bool","internalType":"bool"}],"outputs":[],"stateMutability":"nonpayable"},{"type":"function","name":"setOverrides","inputs":[{"name":"selectors","type":"bytes4[]","internalType":"bytes4[]"},{"name":"implementations","type":"address[]","internalType":"address[]"}],"outputs":[],"stateMutability":"nonpayable"},{"type":"function","name":"setPermissions","inputs":[{"name":"callers","type":"address[]","internalType":"address[]"},{"name":"_permissions","type":"bool[]","internalType":"bool[]"}],"outputs":[],"stateMutability":"nonpayable"},{"type":"function","name":"state","inputs":[],"outputs":[{"name":"","type":"uint256","internalType":"uint256"}],"stateMutability":"view"},{"type":"function","name":"supportsInterface","inputs":[{"name":"interfaceId","type":"bytes4","internalType":"bytes4"}],"outputs":[{"name":"","type":"bool","internalType":"bool"}],"stateMutability":"view"},{"type":"function","name":"token","inputs":[],"outputs":[{"name":"chainId","type":"uint256","internalType":"uint256"},{"name":"tokenContract","type":"address","internalType":"address"},{"name":"tokenId","type":"uint256","internalType":"uint256"}],"stateMutability":"view"},{"type":"function","name":"updateDescription","inputs":[{"name":"_description","type":"string","internalType":"string"}],"outputs":[],"stateMutability":"nonpayable"},{"type":"function","name":"updateName","inputs":[{"name":"_name","type":"string","internalType":"string"}],"outputs":[],"stateMutability":"nonpayable"},{"type":"function","name":"upgradeTo","inputs":[{"name":"newImplementation","type":"address","internalType":"address"}],"outputs":[],"stateMutability":"nonpayable"},{"type":"function","name":"upgradeToAndCall","inputs":[{"name":"newImplementation","type":"address","internalType":"address"},{"name":"data","type":"bytes","internalType":"bytes"}],"outputs":[],"stateMutability":"payable"},{"type":"function","name":"validateUserOp","inputs":[{"name":"userOp","type":"tuple","internalType":"struct UserOperation","components":[{"name":"sender","type":"address","internalType":"address"},{"name":"nonce","type":"uint256","internalType":"uint256"},{"name":"initCode","type":"bytes","internalType":"bytes"},{"name":"callData","type":"bytes","internalType":"bytes"},{"name":"callGasLimit","type":"uint256","internalType":"uint256"},{"name":"verificationGasLimit","type":"uint256","internalType":"uint256"},{"name":"preVerificationGas","type":"uint256","internalType":"uint256"},{"name":"maxFeePerGas","type":"uint256","internalType":"uint256"},{"name":"maxPriorityFeePerGas","type":"uint256","internalType":"uint256"},{"name":"paymasterAndData","type":"bytes","internalType":"bytes"},{"name":"signature","type":"bytes","internalType":"bytes"}]},{"name":"userOpHash","type":"bytes32","internalType":"bytes32"},{"name":"missingAccountFunds","type":"uint256","internalType":"uint256"}],"outputs":[{"name":"validationData","type":"uint256","internalType":"uint256"}],"stateMutability":"nonpayable"},{"type":"event","name":"AdminChanged","inputs":[{"name":"previousAdmin","type":"address","indexed":false,"internalType":"address"},{"name":"newAdmin","type":"address","indexed":false,"internalType":"address"}],"anonymous":false},{"type":"event","name":"BannerImageUpdated","inputs":[{"name":"updater","type":"address","indexed":true,"internalType":"address"},{"name":"newBannerImage","type":"string","indexed":false,"internalType":"string"}],"anonymous":false},{"type":"event","name":"BeaconUpgraded","inputs":[{"name":"beacon","type":"address","indexed":true,"internalType":"address"}],"anonymous":false},{"type":"event","name":"CommunityTokenUpdated","inputs":[{"name":"updater","type":"address","indexed":true,"internalType":"address"},{"name":"newToken","type":"address","indexed":false,"internalType":"address"}],"anonymous":false},{"type":"event","name":"DescriptionUpdated","inputs":[{"name":"updater","type":"address","indexed":true,"internalType":"address"},{"name":"newDescription","type":"string","indexed":false,"internalType":"string"}],"anonymous":false},{"type":"event","name":"GAPProjectCreated","inputs":[{"name":"projectUID","type":"bytes32","indexed":true,"internalType":"bytes32"},{"name":"gardenAddress","type":"address","indexed":true,"internalType":"address"},{"name":"projectName","type":"string","indexed":false,"internalType":"string"}],"anonymous":false},{"type":"event","name":"GardenOperatorAdded","inputs":[{"name":"updater","type":"address","indexed":true,"internalType":"address"},{"name":"operator","type":"address","indexed":true,"internalType":"address"}],"anonymous":false},{"type":"event","name":"GardenOperatorRemoved","inputs":[{"name":"updater","type":"address","indexed":true,"internalType":"address"},{"name":"operator","type":"address","indexed":true,"internalType":"address"}],"anonymous":false},{"type":"event","name":"GardenerAdded","inputs":[{"name":"updater","type":"address","indexed":true,"internalType":"address"},{"name":"gardener","type":"address","indexed":true,"internalType":"address"}],"anonymous":false},{"type":"event","name":"GardenerRemoved","inputs":[{"name":"updater","type":"address","indexed":true,"internalType":"address"},{"name":"gardener","type":"address","indexed":true,"internalType":"address"}],"anonymous":false},{"type":"event","name":"Initialized","inputs":[{"name":"version","type":"uint8","indexed":false,"internalType":"uint8"}],"anonymous":false},{"type":"event","name":"LocationUpdated","inputs":[{"name":"updater","type":"address","indexed":true,"internalType":"address"},{"name":"newLocation","type":"string","indexed":false,"internalType":"string"}],"anonymous":false},{"type":"event","name":"LockUpdated","inputs":[{"name":"lockedUntil","type":"uint256","indexed":false,"internalType":"uint256"}],"anonymous":false},{"type":"event","name":"MetadataUpdated","inputs":[{"name":"updater","type":"address","indexed":true,"internalType":"address"},{"name":"newMetadata","type":"string","indexed":false,"internalType":"string"}],"anonymous":false},{"type":"event","name":"NameUpdated","inputs":[{"name":"updater","type":"address","indexed":true,"internalType":"address"},{"name":"newName","type":"string","indexed":false,"internalType":"string"}],"anonymous":false},{"type":"event","name":"OpenJoiningUpdated","inputs":[{"name":"updater","type":"address","indexed":true,"internalType":"address"},{"name":"openJoining","type":"bool","indexed":false,"internalType":"bool"}],"anonymous":false},{"type":"event","name":"OverrideUpdated","inputs":[{"name":"owner","type":"address","indexed":false,"internalType":"address"},{"name":"selector","type":"bytes4","indexed":false,"internalType":"bytes4"},{"name":"implementation","type":"address","indexed":false,"internalType":"address"}],"anonymous":false},{"type":"event","name":"PermissionUpdated","inputs":[{"name":"owner","type":"address","indexed":false,"internalType":"address"},{"name":"caller","type":"address","indexed":false,"internalType":"address"},{"name":"hasPermission","type":"bool","indexed":false,"internalType":"bool"}],"anonymous":false},{"type":"event","name":"Upgraded","inputs":[{"name":"implementation","type":"address","indexed":true,"internalType":"address"}],"anonymous":false},{"type":"error","name":"AccountLocked","inputs":[]},{"type":"error","name":"AlreadyGardener","inputs":[]},{"type":"error","name":"ContractCreationFailed","inputs":[]},{"type":"error","name":"ExceedsMaxLockTime","inputs":[]},{"type":"error","name":"GAPImpactCreationFailed","inputs":[]},{"type":"error","name":"GAPMilestoneCreationFailed","inputs":[]},{"type":"error","name":"GAPNotSupportedOnChain","inputs":[]},{"type":"error","name":"GAPProjectNotInitialized","inputs":[]},{"type":"error","name":"InvalidAccountProof","inputs":[]},{"type":"error","name":"InvalidERC6551Registry","inputs":[]},{"type":"error","name":"InvalidEntryPoint","inputs":[]},{"type":"error","name":"InvalidImplementation","inputs":[]},{"type":"error","name":"InvalidInput","inputs":[]},{"type":"error","name":"InvalidInvite","inputs":[]},{"type":"error","name":"InvalidMulticallForwarder","inputs":[]},{"type":"error","name":"InvalidOperation","inputs":[]},{"type":"error","name":"KarmaGAPNotSupported","inputs":[]},{"type":"error","name":"NotAuthorized","inputs":[]},{"type":"error","name":"NotAuthorizedCaller","inputs":[]},{"type":"error","name":"NotGardenOperator","inputs":[]},{"type":"error","name":"NotGardenOwner","inputs":[]},{"type":"error","name":"OwnershipCycle","inputs":[]},{"type":"error","name":"TooManyGardeners","inputs":[]},{"type":"error","name":"TooManyOperators","inputs":[]}],"bytecode":{"object":"0x6101803461025657601f61609938819003918201601f1916830191906001600160401b0383118484101761025a578160c092859260409586528339810103126102565761004b8261026e565b6100576020840161026e565b9261006383820161026e565b916100706060830161026e565b9461008960a06100826080860161026e565b940161026e565b936001600160a01b039283168015610245576080523060a052828116156102355760c05260e081905281161561022457610100941684526101209230845261014091825261016092835260045460ff8160081c166101d05760ff80821603610196575b505192615e1694856102838639608051858181610f3901528181611cfb01528181611ffe0152613b2a015260a0518581816128210152614dcf015260c0518581816105bc015281816128420152614df1015260e05185818161148001528181614f760152615ce1015251848181613c2e0152613e43015251838181610cf0015281816111c901526113b00152518281816116350152611f65015251818181610ed401526118ba0152f35b60ff90811916176004557f7f26b83ff96e1f2b6a682f133852f6798a09c465da95921460cefb38474024986020825160ff8152a15f6100ec565b815162461bcd60e51b815260206004820152602760248201527f496e697469616c697a61626c653a20636f6e747261637420697320696e697469604482015266616c697a696e6760c81b6064820152608490fd5b835163754c753360e11b8152600490fd5b85516246a29560e81b8152600490fd5b8651632039d3c960e01b8152600490fd5b5f80fd5b634e487b7160e01b5f52604160045260245ffd5b51906001600160a01b03821682036102565756fe60806040526004361015610026575b361561001e5761001c613867565b005b61001c613867565b5f3560e01c806301ffc9a714610390578063039721b11461038b578063056d5afe1461038657806306fdde0314610381578063150b7a021461037c5780631626ba7e146103775780631e2eaeaf146103725780631f6e45e31461036d5780631f9838b5146103685780631fb1ecf014610363578063291d05481461035e57806329aa16171461035957806334715fb1146103545780633659cfe61461034f578063392f37e91461034a5780633a208f95146103455780633a871cdd1461034057806343629a731461033b57806345a24e3e146103365780634f1ef28614610331578063516f279e1461032c5780635194544714610327578063523e32601461032257806352d1902d1461031d578063572b6c051461031857806359ec3801146103135780635bcf5dce1461030e5780637284e416146103095780637597bc7c146103045780637a8f7356146102ff57806381eec6bb146102fa57806384da92a7146102f55780638da5cb5b146102f057806394def29d146102eb57806398b7a25a146102e6578063a4e2d634146102e1578063adbce85e146102dc578063b0d691fe146102d7578063b10006a6146102d2578063b709467c146102cd578063bc197c81146102c8578063bcc5cf88146102c3578063c19d93fb146102be578063ce0617ec146102b9578063d087d288146102b4578063dd467064146102af578063e735b48a146102aa578063eaff6dc9146102a5578063ee9c6054146102a0578063eeb970571461029b578063eed9df7414610296578063f23a6e6114610291578063f7fc57b01461028c578063f89b9b931461028c5763fc0c546a0361000e576125ea565b6125cd565b61256c565b61247b565b6123cb565b612363565b6122b0565b61211c565b612079565b611fcd565b611fb1565b611f94565b611f50565b611eb0565b611de9565b611d2a565b611ce6565b611c39565b611c1b565b611b57565b611ac4565b611aa7565b61192a565b611842565b6116eb565b6116ab565b611690565b6115be565b6114b4565b61145c565b61139e565b611356565b6112e6565b6112cb565b611188565b611139565b611053565b610f03565b610ebf565b610e15565b610cc9565b610c6e565b610c42565b610c20565b610b87565b610b18565b610ad8565b610ab9565b610a68565b61098b565b6108af565b6105a7565b610456565b6103ab565b6001600160e01b03198116036103a757565b5f80fd5b346103a75760203660031901126103a75760206103d26004356103cd81610395565b612621565b6040519015158152f35b9181601f840112156103a7578235916001600160401b0383116103a7576020808501948460051b0101116103a757565b60406003198201126103a7576001600160401b03916004358381116103a75782610438916004016103dc565b939093926024359182116103a757610452916004016103dc565b9091565b346103a7576104643661040c565b929061047f61047a61047461379a565b91614cde565b614dcc565b6001600160a01b03811680156105955733036105955761049d6137f7565b838503610583575f5b8481106104af57005b8061051b6104c86104c36001948a8861272e565b612743565b6001600160a01b0385165f90815260026020526040902061050a906104f66104f1868c8c61272e565b61274d565b60018060a01b03165f5260205260405f2090565b9060ff801983541691151516179055565b7f394777a58092892d136a90c4bb7e4350c72ac50fba6a0208128677f36527dcf561054a6104f183898961272e565b6105586104c3848b8961272e565b604080516001600160a01b03888116825293909316602084015290151590820152606090a1016104a6565b60405163b4fa3fb360e01b8152600490fd5b60405163ea8e4eb560e01b8152600490fd5b346103a7575f3660031901126103a7576040517f00000000000000000000000000000000000000000000000000000000000000006001600160a01b03168152602090f35b90600182811c92168015610619575b602083101461060557565b634e487b7160e01b5f52602260045260245ffd5b91607f16916105fa565b634e487b7160e01b5f52604160045260245ffd5b6001600160401b03811161064a57604052565b610623565b604081019081106001600160401b0382111761064a57604052565b602081019081106001600160401b0382111761064a57604052565b606081019081106001600160401b0382111761064a57604052565b90601f801991011681019081106001600160401b0382111761064a57604052565b604051905f82600554916106d4836105eb565b80835260209360019081811690811561073f5750600114610700575b50506106fe925003836106a0565b565b9093915060055f52815f20935f915b8183106107275750506106fe93508201015f806106f0565b8554888401850152948501948794509183019161070f565b9150506106fe94925060ff191682840152151560051b8201015f806106f0565b604051905f8260075491610772836105eb565b80835260209360019081811690811561073f575060011461079b5750506106fe925003836106a0565b9093915060075f52815f20935f915b8183106107c25750506106fe93508201015f806106f0565b855488840185015294850194879450918301916107aa565b604051905f82600654916107ed836105eb565b80835260209360019081811690811561073f57506001146108165750506106fe925003836106a0565b9093915060065f52815f20935f915b81831061083d5750506106fe93508201015f806106f0565b85548884018501529485019487945091830191610825565b5f5b8381106108665750505f910152565b8181015183820152602001610857565b9060209161088f81518092818552858086019101610855565b601f01601f1916010190565b9060206108ac928181520190610876565b90565b346103a7575f3660031901126103a7576108de6108ca6106c1565b604051918291602083526020830190610876565b0390f35b6001600160a01b038116036103a757565b6040519060c082018281106001600160401b0382111761064a57604052565b604051906106fe8261064f565b6001600160401b03811161064a57601f01601f191660200190565b9291926109468261091f565b9161095460405193846106a0565b8294818452818301116103a7578281602093845f960137010152565b9080601f830112156103a7578160206108ac9335910161093a565b346103a75760803660031901126103a7576109a76004356108e2565b6109b26024356108e2565b6064356001600160401b0381116103a7576109d1903690600401610970565b506109da61379a565b919060018060a01b031633149182610a2f575b5081610a25575b50610a1357610a01613867565b604051630a85bd0160e11b8152602090f35b60405163b79e3f3f60e01b8152600490fd5b905046145f6109f4565b6044351491505f6109ed565b9181601f840112156103a7578235916001600160401b0383116103a757602083818601950101116103a757565b346103a75760403660031901126103a7576024356001600160401b0381116103a757610aa6610a9d6020923690600401610a3b565b90600435612757565b6040516001600160e01b03199091168152f35b346103a75760203660031901126103a757602060043554604051908152f35b346103a75760203660031901126103a757600435610af5816108e2565b60018060a01b03165f52600a602052602060ff60405f2054166040519015158152f35b346103a75760403660031901126103a757602060ff610b70600435610b3c816108e2565b60243590610b49826108e2565b60018060a01b03165f526002845260405f209060018060a01b03165f5260205260405f2090565b54166040519015158152f35b60ff8116036103a757565b60a03660031901126103a757600435610b9f816108e2565b6001600160401b036044358181116103a757610bbf903690600401610a3b565b919092606435610bce81610b7c565b608435938385116103a757366023860112156103a75784600401359384116103a75736602460608602870101116103a7576108de956024610c14960193602435906127ba565b6040519182918261089b565b346103a7575f3660031901126103a757602060ff600c54166040519015158152f35b346103a7575f3660031901126103a75760045460405160109190911c6001600160a01b03168152602090f35b346103a75760603660031901126103a7576044356001600160401b0381116103a757610cb7610ca36020923690600401610a3b565b90610cac613dc6565b602435600435613de0565b6040516001600160a01b039091168152f35b346103a75760203660031901126103a757600435610ce6816108e2565b6001600160a01b037f000000000000000000000000000000000000000000000000000000000000000081169190610d1f30841415612999565b610d3b5f80516020615dea8339815191529382855416146129fa565b610d4482613e1a565b60405190610d518261066a565b5f82527f4910fdfa16fed3260ed0e7147f7cc6da11a60208b5b9406d12a635614ffd91435460ff1615610d8a57505061001c91506150cd565b6020600491604094939451928380926352d1902d60e01b825286165afa5f9181610de4575b50610dd15760405162461bcd60e51b815280610dcd60048201613f24565b0390fd5b61001c93610ddf9114613ec6565b61507c565b610e0791925060203d602011610e0e575b610dff81836106a0565b810190613316565b905f610daf565b503d610df5565b346103a7575f3660031901126103a7576040515f90600954610e36816105eb565b808352602091600190818116908115610e9f5750600114610e62575b6108de84610c14818803826106a0565b91935060095f52835f20915f925b828410610e8c57505050816108de93610c149282010193610e52565b8054858501870152928501928101610e70565b60ff1916858501525050151560051b8201019150610c14816108de610e52565b346103a7575f3660031901126103a7576040517f00000000000000000000000000000000000000000000000000000000000000006001600160a01b03168152602090f35b346103a7576003196060368201126103a757600435906001600160401b0382116103a7576101609082360301126103a7576044357f00000000000000000000000000000000000000000000000000000000000000006001600160a01b03163303610fab57610f7a6108de9260243590600401613f73565b9080610f92575b506040519081529081906020820190565b5f80808093338219f150610fa461376b565b505f610f81565b60405162461bcd60e51b815260206004820152601c60248201527f6163636f756e743a206e6f742066726f6d20456e747279506f696e74000000006044820152606490fd5b6020808201906020835283518092526040830192602060408460051b8301019501935f915b8483106110255750505050505090565b9091929394958480611043600193603f198682030187528a51610876565b9801930193019194939290611015565b6020806003193601126103a7576004356001600160401b0381116103a75761107f9036906004016103dc565b9161109761109361108e614f73565b613b1d565b1590565b610595576110a36137f7565b6110ac83612ac9565b925f5b8181106110c457604051806108de8782610ff0565b8061111d6110d86104f16001948689612b12565b8487876110e6868484612b12565b01356111176060611111886111096110ff828989612b12565b6040810190612b34565b979096612b12565b01612b66565b93613cbb565b6111278288612b70565b526111328187612b70565b50016110af565b346103a75760403660031901126103a7576024356001600160401b0381116103a757610cb76111806111716020933690600401610a3b565b611179613dc6565b369161093a565b600435613fc3565b60403660031901126103a7576004356111a0816108e2565b6024356001600160401b0381116103a7576111bf903690600401610970565b6001600160a01b037f000000000000000000000000000000000000000000000000000000000000000081169291906111f930851415612999565b6112155f80516020615dea8339815191529482865416146129fa565b61121e83613e1a565b7f4910fdfa16fed3260ed0e7147f7cc6da11a60208b5b9406d12a635614ffd91435460ff161561125457505061001c91506150cd565b6020600491604094939451928380926352d1902d60e01b825286165afa5f91816112aa575b506112975760405162461bcd60e51b815280610dcd60048201613f24565b61001c936112a59114613ec6565b614fc5565b6112c491925060203d602011610e0e57610dff81836106a0565b905f611279565b346103a7575f3660031901126103a7576108de6108ca61075f565b60803660031901126103a7576004356112fe816108e2565b6044356001600160401b0381116103a75761131d903690600401610a3b565b6064929192359061132d82610b7c565b61133861108e614f73565b15610595576108de936108ca9361134d6137f7565b60243590613cbb565b346103a75760403660031901126103a757600435611373816108e2565b6024356001600160401b0381116103a757602091611398610aa6923690600401610a3b565b91612b84565b346103a7575f3660031901126103a7577f00000000000000000000000000000000000000000000000000000000000000006001600160a01b031630036113f6576040515f80516020615dea8339815191528152602090f35b60405162461bcd60e51b815260206004820152603860248201527f555550535570677261646561626c653a206d757374206e6f742062652063616c6044820152771b1959081d1a1c9bdd59da0819195b1959d85d1958d85b1b60421b6064820152608490fd5b346103a75760203660031901126103a757602060043561147b816108e2565b6040517f00000000000000000000000000000000000000000000000000000000000000006001600160a01b039081169216919091148152f35b346103a7576003196020368201126103a757600435906001600160401b0382116103a7576101209082360301126103a75761152d6004549161150d60ff8460081c1615809481956115b0575b8115611590575b50612bad565b82611520600160ff196004541617600455565b611577575b6004016130c0565b61153357005b61154361ff001960045416600455565b604051600181527f7f26b83ff96e1f2b6a682f133852f6798a09c465da95921460cefb38474024989080602081015b0390a1005b61158b61010061ff00196004541617600455565b611525565b303b159150816115a2575b505f611507565b6001915060ff16145f61159b565b600160ff8216109150611500565b346103a75760803660031901126103a7576001600160401b036004358181116103a7576115ef903690600401610a3b565b906024358381116103a757611608903690600401610a3b565b90936044359081116103a757611622903690600401610a3b565b9161162b614f73565b6001600160a01b037f0000000000000000000000000000000000000000000000000000000000000000811691160361167e576108de9561166e956064359561339b565b6040519081529081906020820190565b604051637046c88d60e01b8152600490fd5b346103a7575f3660031901126103a7576108de6108ca6107da565b346103a75760203660031901126103a7576004356116c8816108e2565b60018060a01b03165f52600b602052602060ff60405f2054166040519015158152f35b346103a7576116f93661040c565b929061170961047a61047461379a565b6001600160a01b0381168015610595573303610595576117276137f7565b61173030614aac565b3b15611834575b838503610583575f5b84811061174957005b806117bf61175d6104f16001948a8861272e565b6001600160a01b0385165f9081526001602052604090206117a09061178b611786868c8c61272e565b6134cf565b63ffffffff60e01b165f5260205260405f2090565b80546001600160a01b0319166001600160a01b03909216919091179055565b7f2c722487e90aca38ec1b074c3403210bd2bfb769b4da7f12f7bf0b9e37517c186117ee61178683898961272e565b6117fc6104f1848b8961272e565b604080516001600160a01b0380891682526001600160e01b03199094166020820152929091169082015280606081010390a101611740565b61183d30614afb565b611737565b346103a75760603660031901126103a7576001600160401b036004358181116103a757611873903690600401610a3b565b916024358181116103a75761188c903690600401610a3b565b916044359081116103a7576118a5903690600401610a3b565b9290916118b0614f73565b6001600160a01b037f0000000000000000000000000000000000000000000000000000000000000000811691160361167e576108de9561166e95613509565b60206003198201126103a757600435906001600160401b0382116103a757806023830112156103a7578160246108ac9360040135910161093a565b346103a757611938366118ef565b611940614f73565b5f60405161194d8161066a565b5261195781613fdd565b15611a955781516001600160401b03811161064a576119808161197b6005546105eb565b612c45565b602080601f8311600114611a015750916119d4826119f1937f74321da206c1b9fa34367f7ece59ca49371dcd13820b9a5c3767ae1ecceed51a955f916119f6575b508160011b915f199060031b1c19161790565b6005555b6040516001600160a01b0390911693909182918261089b565b0390a2005b90508601515f6119c1565b60055f5290601f1983165f80516020615dca833981519152925f905b828210611a7d575050927f74321da206c1b9fa34367f7ece59ca49371dcd13820b9a5c3767ae1ecceed51a9492600192826119f19610611a65575b5050811b016005556119d8565b8701515f1960f88460031b161c191690555f80611a58565b80600185968294968b01518155019501930190611a1d565b604051633632b98960e21b8152600490fd5b346103a7575f3660031901126103a7576020610cb761047461379a565b346103a7575f3660031901126103a7576040515f90600854611ae5816105eb565b808352602091600190818116908115610e9f5750600114611b10576108de84610c14818803826106a0565b91935060085f52835f20915f925b828410611b3a57505050816108de93610c149282010193610e52565b8054858501870152928501928101611b1e565b801515036103a757565b346103a75760203660031901126103a757600435611b7481611b4d565b611b7c614f73565b905f604051611b8a8161066a565b52611b9482613fdd565b1580611bf9575b611be75760207fa48b25a14599514510fcdca0f35ff4cd42847f5e61698a238f4ee01e2d1c2c6a9115159260ff19600c541660ff851617600c5560405193845260018060a01b031692a2005b604051633cebab8560e21b8152600490fd5b506001600160a01b0382165f908152600b602052604090205460ff1615611b9b565b346103a7575f3660031901126103a75760205f546040519042108152f35b346103a75760203660031901126103a757600435611c56816108e2565b611c5e614f73565b5f604051611c6b8161066a565b52611c7581613fdd565b15611a955760018060a01b0380831691825f52600b60205260405f2060ff198154169055167fdd1e1c7c82ab1f3ed1b1656e8200309ebf9f682a74ce7737d3bfde87a7fecb085f80a3611cc6614037565b80611cdb575b611cd257005b61001c90614d4e565b50600d541515611ccc565b346103a7575f3660031901126103a7576040517f00000000000000000000000000000000000000000000000000000000000000006001600160a01b03168152602090f35b346103a7575f3660031901126103a75760ff600c541615611dd757611d4d614f73565b6001600160a01b0381165f908152600a602052604090205460ff16611dc5576001600160a01b0381165f908152600a60205260409020611d95905b805460ff19166001179055565b6001600160a01b0316307fc0b9de905219d7679d6f05d6061fa6ef557a687d2c44c314b58bb793f5dba4945f80a3005b60405163211bad0f60e11b8152600490fd5b604051636dc9375d60e11b8152600490fd5b346103a75760603660031901126103a757600435611e06816108e2565b6044356001600160401b0381116103a7576108de91611e2f6111716108ca933690600401610a3b565b9060243590614da4565b6001600160401b03811161064a5760051b60200190565b9080601f830112156103a7576020908235611e6a81611e39565b93611e7860405195866106a0565b81855260208086019260051b8201019283116103a757602001905b828210611ea1575050505090565b81358152908301908301611e93565b346103a75760a03660031901126103a757611ecc6004356108e2565b611ed76024356108e2565b6001600160401b036044358181116103a757611ef7903690600401611e50565b506064358181116103a757611f10903690600401611e50565b506084359081116103a757611f29903690600401610970565b506108de611f356136d9565b6040516001600160e01b031990911681529081906020820190565b346103a7575f3660031901126103a7576040517f00000000000000000000000000000000000000000000000000000000000000006001600160a01b03168152602090f35b346103a7575f3660031901126103a7576020600354604051908152f35b346103a7575f3660031901126103a75760205f54604051908152f35b346103a7575f3660031901126103a757604051631aab3f0d60e11b81523060048201525f60248201526020816044817f00000000000000000000000000000000000000000000000000000000000000006001600160a01b03165afa8015612074575f90612040575b604051908152602090f35b506020813d60201161206c575b8161205a602093836106a0565b810103126103a7576108de9051612035565b3d915061204d565b61279a565b346103a75760203660031901126103a75760043561047a6120ad61209b61379a565b6001600160a01b039492909190614cde565b168015610595573303610595576120c342613700565b811161210a576115727fa7b24c66dd3269a292a60b3facdbb8f3e7557d1e19e64d99e0d6ee7250be63ad916120f66137f7565b805f55604051918291829190602083019252565b6040516301814f7d60e31b8152600490fd5b346103a75761212a366118ef565b612132614f73565b5f60405161213f8161066a565b5261214981613fdd565b158061228e575b611be75781516001600160401b03811161064a57612178816121736006546105eb565b612c95565b602080601f83116001146121e75750916121cb826119f1937f37cc8c6ced0cbc4d440fcfa810a2f09f40b8f0127c3656103edf26b3d93e0ec1955f916119f657508160011b915f199060031b1c19161790565b6006556040516001600160a01b0390911693909182918261089b565b60065f5290601f1983167ff652222313e28459528d920b65115c16c04f3efc82aaedc97be59f3f377c0d3f925f905b828210612276575050927f37cc8c6ced0cbc4d440fcfa810a2f09f40b8f0127c3656103edf26b3d93e0ec19492600192826119f1961061225e575b5050811b016006556119d8565b8701515f1960f88460031b161c191690555f80612251565b80600185968294968b01518155019501930190612216565b506001600160a01b0381165f908152600b602052604090205460ff1615612150565b346103a75760203660031901126103a7576004356122cd816108e2565b6122d5614f73565b905f6040516122e38161066a565b526122ed82613fdd565b1580612341575b611be75760018060a01b0380911691825f52600a60205260405f20600160ff19825416179055167fc0b9de905219d7679d6f05d6061fa6ef557a687d2c44c314b58bb793f5dba4945f80a3005b506001600160a01b0382165f908152600b602052604090205460ff16156122f4565b346103a75760403660031901126103a7576020600435612382816108e2565b6123c160243561239181610395565b6001600160a01b039283165f9081526001855260408082206001600160e01b031990931682526020929092522090565b5416604051908152f35b346103a75760203660031901126103a7576004356123e8816108e2565b6123f0614f73565b905f6040516123fe8161066a565b5261240882613fdd565b1580612459575b611be75760018060a01b0380911691825f52600a60205260405f2060ff198154169055167f8a44d725ac751003f7f644f7ce70382fa06f348023717d057b7aa5c8778770d25f80a3005b506001600160a01b0382165f908152600b602052604090205460ff161561240f565b346103a75760203660031901126103a757600435612498816108e2565b6124a0614f73565b5f6040516124ad8161066a565b526124b781613fdd565b158061254a575b611be75760018060a01b0380831691825f52600b60205260405f20600160ff19825416179055600a6020526124fd60405f20600160ff19825416179055565b167f06216f26a4a5b9c90aa5e1f990342de8fa80a0c447e3c6143fbaf0c7747edd715f80a361252a614037565b8061253f575b61253657005b61001c90614413565b50600d541515612530565b506001600160a01b0381165f908152600b602052604090205460ff16156124be565b346103a75760a03660031901126103a7576125886004356108e2565b6125936024356108e2565b6084356001600160401b0381116103a7576125b2903690600401610970565b506125bb613867565b60405163f23a6e6160e01b8152602090f35b346103a7575f3660031901126103a7576020600d54604051908152f35b346103a7575f3660031901126103a757606061260461379a565b604080519384526001600160a01b03909216602084015290820152f35b6001600160e01b0319908116635194544760e01b81149081156126d5575b506126cf5761269061266b9161047a61265661379a565b6001600160a01b039687949093909290614cde565b165f52600160205260405f20905f351663ffffffff60e01b165f5260205260405f2090565b54168061269c57505f90565b5f8091604051806126ad81366134f0565b03915afa6126b961376b565b90156126c757602081519101f35b602081519101fd5b50600190565b636faff5f160e01b8114915081156126ef575b505f61263f565b630271189760e51b811491508115612709575b505f6126e8565b6301ffc9a760e01b1490505f612702565b634e487b7160e01b5f52603260045260245ffd5b919081101561273e5760051b0190565b61271a565b356108ac81611b4d565b356108ac816108e2565b9061276292916139bb565b61276a575f90565b630b135d3f60e11b90565b919081101561273e576060020190565b908160209103126103a757516108ac81611b4d565b6040513d5f823e3d90fd5b908160209103126103a757516108ac816108e2565b959490919293946127c9614f73565b915f915b8083106127f8575050506110936127e391613b1d565b610595576108ac946127f36137f7565b613cbb565b909192612806848385612775565b906128136020830161274d565b6128666040840135824686357f00000000000000000000000000000000000000000000000000000000000000007f0000000000000000000000000000000000000000000000000000000000000000613a96565b92813b156128de57833b612921575b604080516331a9108f60e11b815291013560048201529190602090839060249082906001600160a01b03165afa5f92816128f0575b506128c157604051631052dd2560e21b8152600490fd5b6001600160a01b039081169116036128de579260010191906127cd565b604051631052dd2560e21b8152600490fd5b61291391935060203d60201161291a575b61290b81836106a0565b8101906127a5565b915f6128aa565b503d612901565b604051632938b58d60e21b815260049060208183816001600160a01b038a165afa908115612074575f9161296a575b5061295b5750612875565b604051636315bfbb60e01b8152fd5b61298c915060203d602011612992575b61298481836106a0565b810190612785565b5f612950565b503d61297a565b156129a057565b60405162461bcd60e51b815260206004820152602c60248201527f46756e6374696f6e206d7573742062652063616c6c6564207468726f7567682060448201526b19195b1959d85d1958d85b1b60a21b6064820152608490fd5b15612a0157565b60405162461bcd60e51b815260206004820152602c60248201527f46756e6374696f6e206d7573742062652063616c6c6564207468726f7567682060448201526b6163746976652070726f787960a01b6064820152608490fd5b60405190612a688261066a565b5f8252565b6040519060a082018281106001600160401b0382111761064a576040526080808352366020840137565b90612aa18261091f565b612aae60405191826106a0565b8281528092612abf601f199161091f565b0190602036910137565b90612ad382611e39565b612ae060405191826106a0565b8281528092612af1601f1991611e39565b01905f5b828110612b0157505050565b806060602080938501015201612af5565b919081101561273e5760051b81013590607e19813603018212156103a7570190565b903590601e19813603018212156103a757018035906001600160401b0382116103a7576020019181360383136103a757565b356108ac81610b7c565b805182101561273e5760209160051b010190565b90612b9490612b9a93369161093a565b50613fdd565b612ba2575f90565b630291f19360e51b90565b15612bb457565b60405162461bcd60e51b815260206004820152602e60248201527f496e697469616c697a61626c653a20636f6e747261637420697320616c72656160448201526d191e481a5b9a5d1a585b1a5e995960921b6064820152608490fd5b903590601e19813603018212156103a757018035906001600160401b0382116103a757602001918160051b360383136103a757565b601f8111612c51575050565b60055f5260205f20906020601f840160051c83019310612c8b575b601f0160051c01905b818110612c80575050565b5f8155600101612c75565b9091508190612c6c565b601f8111612ca1575050565b60065f5260205f20906020601f840160051c83019310612cdb575b601f0160051c01905b818110612cd0575050565b5f8155600101612cc5565b9091508190612cbc565b601f8111612cf1575050565b60075f5260205f20906020601f840160051c83019310612d2b575b601f0160051c01905b818110612d20575050565b5f8155600101612d15565b9091508190612d0c565b601f8111612d41575050565b60085f5260205f20906020601f840160051c83019310612d7b575b601f0160051c01905b818110612d70575050565b5f8155600101612d65565b9091508190612d5c565b91906001600160401b03811161064a57612da48161197b6005546105eb565b5f601f8211600114612de2578190612dd293945f92612dd7575b50508160011b915f199060031b1c19161790565b600555565b013590505f80612dbe565b60055f52601f198216935f80516020615dca833981519152915f5b868110612e345750836001959610612e1b575b505050811b01600555565b01355f19600384901b60f8161c191690555f8080612e10565b90926020600181928686013581550194019101612dfd565b91906001600160401b03811161064a57612e6b816121736006546105eb565b5f601f8211600114612e9d578190612e9893945f92612dd75750508160011b915f199060031b1c19161790565b600655565b60065f52601f198216937ff652222313e28459528d920b65115c16c04f3efc82aaedc97be59f3f377c0d3f915f5b868110612f025750836001959610612ee9575b505050811b01600655565b01355f19600384901b60f8161c191690555f8080612ede565b90926020600181928686013581550194019101612ecb565b91906001600160401b03811161064a57612f3e81612f396007546105eb565b612ce5565b5f601f8211600114612f70578190612f6b93945f92612dd75750508160011b915f199060031b1c19161790565b600755565b60075f52601f198216937fa66cc928b5edb82af9bd49922954155ab7b0942694bea4ce44661d9a8736c688915f5b868110612fd55750836001959610612fbc575b505050811b01600755565b01355f19600384901b60f8161c191690555f8080612fb1565b90926020600181928686013581550194019101612f9e565b91906001600160401b03811161064a576130118161300c6008546105eb565b612d35565b5f601f821160011461304357819061303e93945f92612dd75750508160011b915f199060031b1c19161790565b600855565b60085f52601f198216937ff3f7a9fe364faab93b216da50a3214154f22a0a2b415b23a84c8169e8b636ee3915f5b8681106130a8575083600195961061308f575b505050811b01600855565b01355f19600384901b60f8161c191690555f8080613084565b90926020600181928686013581550194019101613071565b9060e082019160326130d28483612c10565b90501161330457610100810160146130ea8284612c10565b9050116132f2576131266130fd8361274d565b6004805462010000600160b01b03191660109290921b62010000600160b01b0316919091179055565b61313c6131366020840184612b34565b90612d85565b61315261314c6040840184612b34565b90612e4c565b6131686131626060840184612b34565b90612f1a565b61317e6131786080840184612b34565b90612fed565b61319f61318d60c08401612743565b60ff8019600c54169115151617600c55565b6131a7614f73565b6001600160a01b0381165f908152600a602052604090206131c790611d88565b6001600160a01b0381165f908152600b602052604090206131e790611d88565b5f5b6131f38685612c10565b905081101561323b5780613235611d8861321c6104f16001956132168c8b612c10565b9061272e565b6001600160a01b03165f908152600a6020526040902090565b016131e9565b50929093505f5b61324c8584612c10565b905081101561328e5780613288611d8861326f6104f16001956132168b8a612c10565b6001600160a01b03165f908152600b6020526040902090565b01613242565b5091613298614037565b6132a3575b50509050565b6132b4906132af614166565b614413565b5f5b6132c08483612c10565b90508110156132e657806132e06132af6104f16001946132168988612c10565b016132b6565b50509050805f8061329d565b604051636055dca160e01b8152600490fd5b604051636bd3434560e11b8152600490fd5b908160209103126103a7575190565b9060209081835280518284015201519060408082015260018060a01b0382511660608201526001600160401b0360208301511660808201526040820151151560a0820152606082015160c082015261010060a0613392608085015160c060e0860152610120850190610876565b93015191015290565b909195939495600d549485156134bd576133b6611093614037565b6134ab575f9761340697613466966133f1946133e26133d66133d661447d565b6001600160a01b031690565b976133eb6144e1565b9761464b565b9360405161341481602098899889830161089b565b03601f1981018352826106a0565b61341c6108f3565b308152918887840152886040840152606083015260808201528660a0820152613443610912565b9182528482015260405195868094819363f17325e760e01b835260048301613325565b03925af19182915f9361348c575b50506108ac576040516317c3402f60e01b8152600490fd5b6134a3929350803d10610e0e57610dff81836106a0565b905f80613474565b6040516384352a0160e01b8152600490fd5b6040516304f102a360e01b8152600490fd5b356108ac81610395565b906134ec60209282815194859201610855565b0190565b90815f8237015f815290565b908092918237015f815290565b9493919091600d549182156134bd57613523611093614037565b6134ab5761352f61447d565b6001600160a01b0316966135416144e1565b94369061354d9261093a565b61355690614bea565b9436906135629261093a565b61356b90614bea565b94604051918291602097889788850161359590600a90693d913a34ba3632911d1160b11b81520190565b61359e916134d9565b691116113a32bc3a111d1160b11b8152600a016135ba916134d9565b7f222c2274797065223a2270726f6a6563742d6d696c6573746f6e65222c2264618152633a30911d60e11b6020820152602401906135f7926134fc565b607d60f81b815260010103601f1990818101835261361590836106a0565b6040518092868201906136279161089b565b03908101825261363790826106a0565b61363f6108f3565b308152918483015f9052604083015f90526060830152608082015260a081015f9052613669610912565b9182528282015260405163f17325e760e01b8152938491829081906136919060048301613325565b03915a905f91f19182915f936136ba575b50506108ac5760405163e80dd52b60e01b8152600490fd5b6136d1929350803d10610e0e57610dff81836106a0565b905f806136a2565b6136e1613867565b63bc197c8160e01b90565b634e487b7160e01b5f52601160045260245ffd5b906301e13380820180921161371157565b6136ec565b90620afa6c820180921161371157565b906002820180921161371157565b906001820180921161371157565b906003820180921161371157565b603001908160301161371157565b9190820180921161371157565b3d15613795573d9061377c8261091f565b9161378a60405193846106a0565b82523d5f602084013e565b606090565b60405190608082018281106001600160401b0382111761064a5760405260608252602082016060604d82303c6060838051810103126103a757519060606040840151936137e6856108e2565b015191926001600160a01b03169190565b5f54421061385557600354608061384d61380f615cde565b92908360405194859260208401978852604080850152816060850152848401375f838284010152601f801991011681010360608101845201826106a0565b519020600355565b604051636315bfbb60e01b8152600490fd5b6138b061389461387b61047a61047461379a565b6001600160a01b03165f90815260016020526040902090565b5f80356001600160e01b03191681526020919091526040902090565b546001600160a01b0381166138c25750565b5f80916138ce30614aac565b908260405161391260488260208101956001600160601b0319809160601b16875236866034840137368201903360601b1660348201520360288101845201826106a0565b51925af16126b961376b565b906040101561273e5760400190565b906020116103a75790602090565b906040116103a75760200190602090565b90929192836020116103a75783116103a75760200191601f190190565b909392938483116103a75784116103a7578101920390565b35906020811061398f575090565b5f199060200360031b1b1690565b600511156139a757565b634e487b7160e01b5f52602160045260245ffd5b909160ff6139e36139dd6139cf848761391e565b356001600160f81b03191690565b60f81c90565b1615613a1c576139fe926139f891369161093a565b90614f42565b613a078161399d565b613a17576108ac90612b94612a5b565b505f90565b90613a366133d66133d6613a30858761392d565b90613981565b91613a3f612a5b565b50613a4c61109384613fdd565b80613a83575b613a7b57611179818581613a6f613a30613a75966108ac9a61393b565b91613969565b91614ec7565b505050505f90565b506001600160a01b038316301415613a52565b91906055959360e2956040519560b787015260018060a01b0316609786015260778501528160578501526e5af43d82803e903d91602b57fd5bf360378501526028840152733d60ad80600a3d3981f3363d3d373d3d3d363d73601484015260b7835260d7830190816040528351602085012061011785015260f7840152520160ff81532090565b6001600160a01b038181167f000000000000000000000000000000000000000000000000000000000000000082168114613c9057613b5961379a565b90468303613bdc575b613b6b92614cde565b8281168214613bd357613b7d90614dcc565b91821614613bcc576001600160a01b03165f908152600260205260409020613bbf91613bb8919060018060a01b03165f5260205260405f2090565b5460ff1690565b613bc7575f90565b600190565b5050600190565b50505050600190565b613c02613be7614f73565b6001600160a01b0390811661111061111160901b0119011690565b85163014613c66576040516333932be560e11b81526001600160a01b03871660048201526020816024817f00000000000000000000000000000000000000000000000000000000000000008a165afa908115612074575f91613c71575b5015613b62575b505050505050600190565b613c8a915060203d6020116129925761298481836106a0565b5f613c5f565b505050600190565b909280926014946001600160601b03199060601b1683528483013701015f815290565b9092919360ff16908115613dad5760018214613d5c575060028114613d3f57600314613cf357604051631cc6a69960e11b8152600490fd5b826108ac92613d168380613d10613a30613d1e976134069a61392d565b9461394c565b929091613de0565b604051928391602083016014916001600160601b03199060601b1681520190565b506108ac91613d5661340694613d1e93369161093a565b90613fc3565b6108ac9493929150613d9a90613d8c613d7430614aac565b93843b15613d9f575b60405196879360208501613c98565b03601f1981018552846106a0565b614da4565b613da830614afb565b613d7d565b9291613dc09150936108ac94369161093a565b91614da4565b6001600160a01b03613dd730614aac565b16330361059557565b91613ded9193369161093a565b9060208251920190f5906001600160a01b03821615613e0857565b60405163a28c247360e01b8152600490fd5b604051631506fd4d60e01b81526001600160a01b039091166004820152602081806024810103817f00000000000000000000000000000000000000000000000000000000000000006001600160a01b03165afa908115612074575f91613ea7575b5015613e9557613e8f61109361108e614f73565b61059557565b60405163340aafcd60e11b8152600490fd5b613ec0915060203d6020116129925761298481836106a0565b5f613e7b565b15613ecd57565b60405162461bcd60e51b815260206004820152602960248201527f45524331393637557067726164653a20756e737570706f727465642070726f786044820152681a58589b195555525160ba1b6064820152608490fd5b60809060208152602e60208201527f45524331393637557067726164653a206e657720696d706c656d656e7461746960408201526d6f6e206973206e6f74205555505360901b60608201520190565b613fb6917f19457468657265756d205369676e6564204d6573736167653a0a3332000000005f52601c52613fb0603c5f2091610140810190612b34565b916139bb565b613fbf57600190565b5f90565b60208251920190f0906001600160a01b03821615613e0857565b613fe861047461379a565b6001600160a01b03828116918082168314613bd35761400690614dcc565b16809114613bcc575f9081526002602090815260408083206001600160a01b0390941683529290522060ff90541690565b600a461480156140b0575b80156140a5575b8015614099575b801561408d575b8015614082575b8015614077575b801561406e5790565b50610530461490565b506105314614614065565b5061a4ec461461405e565b5062014a344614614057565b5062aa36a74614614050565b5061a4b14614614049565b5062aa37dc4614614042565b60208082526005545f926140cf826105eb565b9182602083015260406001916001811690815f1461414357506001146140f8575b505050505090565b60055f908152949695509192915f80516020615dca8339815191525b8386106141305750505050604092935001015f808080806140f0565b8054858701830152948701948201614114565b9395505050506040935060ff191683830152151560051b01015f808080806140f0565b6141746133d66133d661447d565b61417c61515c565b91604091825160209080614197838201906001602083019252565b03906141ab601f19928381018352826106a0565b6141b36108f3565b308152905f828501526001878301525f606083015260808201525f60a08201526141db610912565b9687528287015284519063f17325e760e01b9384835283838061420260049b8c8301613325565b03815f855af15f93816143f4575b506142255786516317c3402f60e01b81528890fd5b61422e83600d55565b6142bb8461423a6152c6565b614242614f73565b8a5161426581614259868201906001602083019252565b038881018352826106a0565b61427f6142706108f3565b6001600160a01b039093168352565b5f8285015260018c83015287606083015260808201525f60a08201526142a3610912565b918252828201528951809381928a83528d8301613325565b03815f865af190816143d7575b506142e55787876142d85f600d55565b516317c3402f60e01b8152fd5b61436494849361430f61431b6142f96144e1565b956143026154a1565b8c519384918a830161089b565b039081018352826106a0565b6143236108f3565b308152915f8388015260018b840152606083015260808201525f60a082015261434a610912565b938452848401525f885180978195829483528c8301613325565b03925af191826143b9575b505061437f57506142d85f600d55565b9150600d549051907f03d364024f6102dfc5e23f488f1e462c8e58afc717a21875496e0adc2132d1b43092806143b4816140bc565b0390a3565b816143cf92903d10610e0e57610dff81836106a0565b505f8061436f565b6143ed90863d8811610e0e57610dff81836106a0565b505f6142c8565b61440c919450853d8711610e0e57610dff81836106a0565b925f614210565b600d548015614479576001600160a01b0361442c61447d565b1691823b156103a75760405163dbf7117760e01b815260048101929092526001600160a01b03166024820152905f908290818381604481015b03925af16144705750565b6106fe90610637565b5050565b61a4b146146144c95761a4ec46146144b15762014a34460361563057734ca7230fb6b78875bdd1b1e4f665b7b7f189123990565b738791ac8c099314bb1d1514d76de13a1e8027595090565b736dc1d6b864e8bef815806f9e4677123496e1202690565b600a46146146275762aa37dc46146146035761a4b146146145df5762aa36a746146145bb5762014a3446146145975761a4ec461461457357610531461461454f576105304603615630577f76f38d22f88a0df52a8ff0763e1c0af912b0822e758be2e0c9cded91aef71d2290565b7f1b4365b92aa47de3f67cdfb53127518381c1e66e0d9e0f8a15bbfa725095096790565b7f9895e82115987d8e3e02b35ced92e6a0509293890333f58f50ec291b34853dac90565b7f9b06f811608d135f913c18295486693fe626f35e213a7d132be87b1f952e508c90565b7f2c270e35bfcdc4d611f0e9d3d2ab6924ec6c673505abc22a1dd07e19b67211af90565b7f16bfe4783b7a9c743c401222c56a07ecb77ed42afc84b61ff1f62f5936c0b9d790565b7fd193e75f420a69910f98fa79cacdfd9d0dcbf5933edce8f8bde9a10bd204d99690565b7f70a3f615f738fc6a4f56100692ada93d947c028b840940d97af7e7d6f0fa057790565b92959190949561465961379a565b93915050620151809461466d864204613716565b956146f661468a62023ab18904986146848a61566c565b9061565f565b6146846146d56146cf6146c96146c16146b56146aa6105b488048861565f565b618eac88049061375e565b62023ab087049061565f565b61016d900490565b9b615684565b8b61375e565b9960646146ee6146e48361569b565b8360021c9061375e565b91049061565f565b9661473461472f61471861471161470c8c6156ad565b613726565b6099900490565b9961468461472861470c8d6156be565b6005900490565b613734565b97600a811015614a9d5761474790613742565b915b6002831115614a8d575b4206610e109161476290615c08565b9261476c90615c77565b9861477690615c77565b91614782818304615c77565b908206603c900461479290615c77565b91603c90066147a090615c77565b926040519a8b95602087016147b4916134d9565b602d60f81b81526001016147c7916134d9565b602d60f81b81526001016147da916134d9565b601560fa1b81526001016147ed916134d9565b601d60f91b8152600101614800916134d9565b601d60f91b8152600101614813916134d9565b64171818182d60d91b81526005010397601f1998898101885261483690886106a0565b36906148419261093a565b61484a90614bea565b9561485636848461093a565b61485f90614bea565b98369061486b9261093a565b61487490614bea565b9136906148809261093a565b61488990614bea565b90614893466156e5565b9261489d906156e5565b936148a790615788565b604051693d913a34ba3632911d1160b11b6020820152988997919691602a89016148d0916134d9565b691116113a32bc3a111d1160b11b8152600a016148ec916134d9565b6e11161139ba30b93a2230ba32911d1160891b8152600f0161490e90826134d9565b6c11161132b7322230ba32911d1160991b8152600d0161492d916134d9565b7f222c2264656c6976657261626c6573223a5b7b226e616d65223a22576f726b2081527f45766964656e6365222c2270726f6f66223a22697066733a2f2f0000000000006020820152603a01614982916134d9565b701116113232b9b1b934b83a34b7b7111d1160791b81526011016149a5916134d9565b7f227d5d2c226c696e6b73223a5b7b2274797065223a226f74686572222c22757281527f6c223a2268747470733a2f2f677265656e676f6f64732e6d652f67617264656e6020820152602f60f81b6040820152604101614a04916134d9565b602f60f81b8152600101614a17916134d9565b6705eeedee4d65e60f60c31b8152600801614a31916134d9565b7f222c226c6162656c223a225669657720696e20477265656e20476f6f6473227d81527f5d2c2274797065223a2270726f6a6563742d757064617465227d0000000000006020820152603a010390810182526108ac90826106a0565b90614a9790613734565b90614753565b614aa690615642565b91614749565b600b614ab960559261583d565b602081519101206040519060408201527f97f795a08410e77dc9dbbaba3915f17c601e45642518dd578bd440d8775bfee460208201523081520160ff81532090565b614b049061583d565b805115614b875780516001600160a01b03917f97f795a08410e77dc9dbbaba3915f17c601e45642518dd578bd440d8775bfee491906020015ff51615614b4657565b60405162461bcd60e51b8152602060048201526019602482015278437265617465323a204661696c6564206f6e206465706c6f7960381b6044820152606490fd5b606460405162461bcd60e51b815260206004820152602060248201527f437265617465323a2062797465636f6465206c656e677468206973207a65726f6044820152fd5b90815181101561273e570160200190565b5f1981146137115760010190565b905f805b8351811015614c4957601160f91b614c27614c1a614c0c8488614bcb565b516001600160f81b03191690565b6001600160f81b03191690565b14614c35575b600101614bee565b90614c41600191614bdc565b919050614c2d565b508015614cdb57614c5e614c6391845161375e565b612a97565b5f925f5b8151811015614cd457600190601160f91b614c88614c1a614c0c8487614bcb565b14614cb9575b614c9b614c0c8285614bcb565b95614cb2614ca882614bdc565b975f1a9186614bcb565b5301614c67565b605c614cce614cc788614bdc565b9786614bcb565b53614c8e565b5090925050565b50565b4603614d4857803b15614d48576040516331a9108f60e11b81526004810192909252602090829060249082906001600160a01b03165afa5f9181614d27575b506108ac57505f90565b614d4191925060203d60201161291a5761290b81836106a0565b905f614d1d565b50505f90565b600d548015614479576001600160a01b03614d6761447d565b1691823b156103a757604051632c1a4e4360e21b815260048101929092526001600160a01b03166024820152905f90829081838160448101614465565b915f928392602083519301915af190614dbb61376b565b9115614dc357565b50602081519101fd5b907f0000000000000000000000000000000000000000000000000000000000000000917f00000000000000000000000000000000000000000000000000000000000000005b614e1c818584615906565b15614ec25760408051637e062a3560e11b815292606091908290859060049082906001600160a01b03165afa938415612074575f915f935f96614e72575b50505092614e6b91614e1c94614cde565b9150614e11565b92509250809450813d8311614ebb575b614e8c81836106a0565b810103126103a75782614e6b91614e1c945190602083015192614eae846108e2565b0151909190948193614e5a565b503d614e82565b509150565b5f9192908291604051614efe816134066020820194630b135d3f60e11b998a87526024840152604060448401526064830190610876565b51915afa90614f0b61376b565b82614f34575b82614f1b57505090565b614f3091925060208082518301019101613316565b1490565b915060208251101591614f11565b9060418151145f14614f6a5761045291602082015190606060408401519301515f1a9061598e565b50505f90600290565b337f00000000000000000000000000000000000000000000000000000000000000006001600160a01b03161480614fba575b15614fb65736601319013560601c90565b3390565b506014361015614fa5565b90614fcf826150cd565b6001600160a01b0382167fbc7cd75a20ee27fd9adebab32041f755214dbc6bffa90cc0225b39da2e5c2d3b5f80a2805115801590615074575b615010575050565b614cdb915f806040519361502385610685565b602785527f416464726573733a206c6f772d6c6576656c2064656c65676174652063616c6c6020860152660819985a5b195960ca1b6040860152602081519101845af461506e61376b565b91615d38565b506001615008565b90615086826150cd565b6001600160a01b0382167fbc7cd75a20ee27fd9adebab32041f755214dbc6bffa90cc0225b39da2e5c2d3b5f80a28051158015906150c657615010575050565b505f615008565b803b15615101575f80516020615dea83398151915280546001600160a01b0319166001600160a01b03909216919091179055565b60405162461bcd60e51b815260206004820152602d60248201527f455243313936373a206e657720696d706c656d656e746174696f6e206973206e60448201526c1bdd08184818dbdb9d1c9858dd609a1b6064820152608490fd5b600a46146152a25762aa37dc461461527e5761a4b1461461525a5762aa36a746146152365762014a3446146152125761a4ec46146151ee5761053146146151ca576105304603615630577f9de9294fbb62391b393332a33bfc28b4e0e728dd094aee4bda3955df62f8401a90565b7ff6b89107f8096220051240b89a48abb66e0a23e529c914953b80f5a2bc5ea44c90565b7ff3f753b41e04d1052b5a5ec7624d1dfdb6c2da288a985120e477ddbcac07102290565b7f5ddd6b7a11406771308431ca9bd146cc717848b74b52993a532dc1aad0ccc83f90565b7fec77990a252b54b17673955c774b9712766de5eecb22ca5aa2c440e0e93257fb90565b7fac2a06e955a7e25e6729efe1a6532237e3435b21ccd3dc827ae3c94e624d25b390565b7ff9bbd118dd100459a7d093403af21c6e7f847fd7f331b7a4e6bfb94a1366bd7690565b7f5b873b6e7a16207b526dde366e8164e95bcda2f009272306519667c5e94d219190565b600a461461540c5762aa37dc46146153e85761a4b146146153c45762aa36a746146153a05762014a34461461537c5761a4ec4614615358576105314614615334576105304603615630577f222fa508c0cdb5954905dd30611a940f6402da2b3c49ce0c88d33e22f72121e790565b7fb7278b94cea2b9f1a8fdd1c4bb52ed66906516a0ff9d59d0f80daffcf147ea5d90565b7fb4186a2401f40a4c78768941ef9140e1fbe5fe595053a65d44f31d6df180b71290565b7f857398d86e2d31bec5af882b950ee7b00d1fefefba2432737ab28b68ee041eb890565b7fdd87b3500457931252424f4439365534ba72a367503a8805ff3482353fb9030190565b7f5f430aec9d04f0dcb3729775c5dfe10752e436469a7607f8c64ae44ef996e47790565b7f611f9655188f372e27dce116a803fa9081ca3e2907986368d54fcad538ca385390565b7f7fbb8a65924d8ad2ae12356e04b1418043e8361ba3b1b6c917de2e23df3ec81c90565b6008545f929161543f826105eb565b9160019081811690811561548e575060011461545a57505050565b909192935060085f5260209060205f20905f915b85831061547d57505050500190565b80548584015291830191810161546e565b60ff191683525050811515909102019150565b6154ac6008546105eb565b15615623576040517568747470733a2f2f7733732e6c696e6b2f697066732f60501b60208201526154e38161340660368201615430565b6154eb6106c1565b6154f490614bea565b6154fc6107da565b61550590614bea565b9161550e61075f565b61551790614bea565b9061552190614bea565b6155296106c1565b61553290615a1d565b61553b90614bea565b604051693d913a34ba3632911d1160b11b6020820152948594919391602a8601615564916134d9565b701116113232b9b1b934b83a34b7b7111d1160791b8152601101615587916134d9565b751116113637b1b0ba34b7b727b324b6b830b1ba111d1160511b81526016016155af916134d9565b6d11161134b6b0b3b2aaa926111d1160911b8152600e016155cf916134d9565b6911161139b63ab3911d1160b11b8152600a016155eb916134d9565b7f222c2274797065223a2270726f6a6563742d64657461696c73227d00000000008152601b0103601f19810182526108ac90826106a0565b61562b612a5b565b6154e3565b604051633cb9b43760e01b8152600490fd5b60081981019190821161371157565b5f1981019190821161371157565b9190820391821161371157565b9062023ab19182810292818404149015171561371157565b906101909182810292818404149015171561371157565b9061016d918083029283040361371157565b908160050291600583040361371157565b908160990291609983040361371157565b908160011b918083046002149015171561371157565b801561576a57805f81805b61575257506156fe81612a97565b925b61570957505090565b61571290615651565b90600a9061573d61572d615727848406613750565b60ff1690565b60f81b6001600160f81b03191690565b5f1a6157498486614bcb565b53049081615700565b915061575f600a91614bdc565b9104808392916156f0565b506040516157778161064f565b60018152600360fc1b602082015290565b6040519061579582610685565b604082526020906040366020850137604051906157b18261064f565b601082526f181899199a1a9b1b9c1cb0b131b232b360811b60208301525f5b8381106157de575050505090565b8061581d614c0c846001941a600f906157ff614c0c838360041c168a614bcb565b61581561580b876156cf565b915f1a918c614bcb565b531686614bcb565b61583661582c61472f846156cf565b915f1a9188614bcb565b53016157d0565b6108ac60346158d592604051906158538261064f565b600e825260208201906d604380600d600039806000f3fe7360901b82526158f760405161587f81610685565b602e815260208101937f3314601d573d3dfd5b363d3d373d3d6014360360143d5160601c5af43d60008085526d3e80603e573d6000fd5b3d6000f360901b60408301526040519889965180926020890190610855565b8501926001600160601b03199060601b16602084015251809386840190610855565b010360148101845201826106a0565b9160ad833b03615987576014600a600c853c5f5190813b15613a7b576001600160a01b0392831682841603613a7b5761593d612a6d565b60208101916080602d84883c6080828051810103126103a757615981936133d69351604084015191876080606087015196615977886108e2565b0151951693613a96565b91161490565b5050505f90565b6fa2a8918ca85bafe22016d0b997e4df60600160ff1b0384116159f4576020935f9360ff60809460405194855216868401526040830152606082015282805260015afa15612074575f516001600160a01b038116156159ec57905f90565b505f90600190565b505050505f90600390565b60ff60209116019060ff821161371157565b8015613711575f190190565b90615a288251612a97565b915f905f5b8151811015615b8257615a43614c0c8284614bcb565b6001600160f81b0319818116604160f81b81101580615b74575b15615a9557505090615a7661572d60019360f81c6159ff565b93615a8d615a8382614bdc565b955f1a9188614bcb565b535b01615a2d565b919491606160f81b81101580615b66575b15615ac45750509081615abe615a8360019492614bdc565b53615a8f565b600360fc1b81101580615b58575b15615aea5750509081615abe615a8360019492614bdc565b91945060019291600160fd1b14615b02575b50615a8f565b8415159081615b33575b50615b18575b5f615afc565b602d615b2d615b2686614bdc565b9588614bcb565b53615b12565b602d60f81b9150615b4f614c0c615b4988615651565b8a614bcb565b1614155f615b0c565b50603960f81b811115615ad2565b50603d60f91b811115615aa6565b50602d60f91b811115615a5d565b505080151580615bdd575b615bcf575b615b9b81612a97565b905f5b818110615bac575090925050565b80615bbc614c0c60019388614bcb565b5f1a615bc88286614bcb565b5301615b9e565b615bd890615a11565b615b92565b50602d60f81b6001600160f81b0319615c01614c0c615bfb85615651565b87614bcb565b1614615b8d565b60405190615c158261064f565b6004825260203681840137600490815b615c2e57505090565b600a6030918181068301809311613711575f19840184811161371157615c709360f81b6001600160f81b0319165f1a90615c689087614bcb565b530491615a11565b9081615c25565b60405190615c848261064f565b6002825260203681840137600290815b615c9d57505090565b600a6030918181068301809311613711575f19840184811161371157615cd79360f81b6001600160f81b0319165f1a90615c689087614bcb565b9081615c94565b337f00000000000000000000000000000000000000000000000000000000000000006001600160a01b03161480615d2d575b15615d2757601319360190368211613711575f9190565b5f903690565b506014361015615d10565b91929015615d9a5750815115615d4c575090565b3b15615d555790565b60405162461bcd60e51b815260206004820152601d60248201527f416464726573733a2063616c6c20746f206e6f6e2d636f6e74726163740000006044820152606490fd5b825190915015615dad5750805190602001fd5b60405162461bcd60e51b8152908190610dcd906004830161089b56fe036b6384b5eca791c62761152d0c79bb0604c104a5fb6f4eb0703f3154bb3db0360894a13ba1a3210667c828492db98dca3e2076cc3735a920a3ca505d382bbca164736f6c6343000819000a","linkReferences":{}},"methodIdentifiers":{"ASSESSMENT_RESOLVER()":"3a208f95","WORK_APPROVAL_RESOLVER()":"bcc5cf88","addGardenOperator(address)":"eed9df74","addGardener(address)":"eaff6dc9","bannerImage()":"94def29d","communityToken()":"29aa1617","createProjectImpact(string,string,string,bytes32)":"5bcf5dce","createProjectMilestone(string,string,string)":"81eec6bb","description()":"7284e416","entryPoint()":"b0d691fe","erc6551Registry()":"056d5afe","execute(address,uint256,bytes,uint8)":"51945447","executeBatch((address,uint256,bytes,uint8)[])":"43629a73","executeNested(address,uint256,bytes,uint8,(bytes32,address,uint256)[])":"1fb1ecf0","extcall(address,uint256,bytes)":"b709467c","extcreate(uint256,bytes)":"45a24e3e","extcreate2(uint256,bytes32,bytes)":"34715fb1","extsload(bytes32)":"1e2eaeaf","gapProjectUID()":"f7fc57b0","gardenOperators(address)":"7597bc7c","gardeners(address)":"1f6e45e3","getGAPProjectUID()":"f89b9b93","getNonce()":"d087d288","initialize((address,string,string,string,string,string,bool,address[],address[]))":"59ec3801","isLocked()":"a4e2d634","isTrustedForwarder(address)":"572b6c05","isValidSignature(bytes32,bytes)":"1626ba7e","isValidSigner(address,bytes)":"523e3260","joinGarden()":"b10006a6","location()":"516f279e","lock(uint256)":"dd467064","lockedUntil()":"ce0617ec","metadata()":"392f37e9","name()":"06fdde03","onERC1155BatchReceived(address,address,uint256[],uint256[],bytes)":"bc197c81","onERC1155Received(address,address,uint256,uint256,bytes)":"f23a6e61","onERC721Received(address,address,uint256,bytes)":"150b7a02","openJoining()":"291d0548","overrides(address,bytes4)":"ee9c6054","owner()":"8da5cb5b","permissions(address,address)":"1f9838b5","proxiableUUID()":"52d1902d","removeGardenOperator(address)":"adbce85e","removeGardener(address)":"eeb97057","setOpenJoining(bool)":"98b7a25a","setOverrides(bytes4[],address[])":"7a8f7356","setPermissions(address[],bool[])":"039721b1","state()":"c19d93fb","supportsInterface(bytes4)":"01ffc9a7","token()":"fc0c546a","updateDescription(string)":"e735b48a","updateName(string)":"84da92a7","upgradeTo(address)":"3659cfe6","upgradeToAndCall(address,bytes)":"4f1ef286","validateUserOp((address,uint256,bytes,bytes,uint256,uint256,uint256,uint256,uint256,bytes,bytes),bytes32,uint256)":"3a871cdd"},"id":134}