{"abi":[{"type":"constructor","inputs":[{"name":"gardenAccountImplementation","type":"address","internalType":"address"}],"stateMutability":"nonpayable"},{"type":"function","name":"actionRegistry","inputs":[],"outputs":[{"name":"","type":"address","internalType":"contract ActionRegistry"}],"stateMutability":"view"},{"type":"function","name":"approve","inputs":[{"name":"to","type":"address","internalType":"address"},{"name":"tokenId","type":"uint256","internalType":"uint256"}],"outputs":[],"stateMutability":"nonpayable"},{"type":"function","name":"balanceOf","inputs":[{"name":"owner","type":"address","internalType":"address"}],"outputs":[{"name":"","type":"uint256","internalType":"uint256"}],"stateMutability":"view"},{"type":"function","name":"batchMintGardens","inputs":[{"name":"configs","type":"tuple[]","internalType":"struct GardenToken.GardenConfig[]","components":[{"name":"name","type":"string","internalType":"string"},{"name":"slug","type":"string","internalType":"string"},{"name":"description","type":"string","internalType":"string"},{"name":"location","type":"string","internalType":"string"},{"name":"bannerImage","type":"string","internalType":"string"},{"name":"metadata","type":"string","internalType":"string"},{"name":"openJoining","type":"bool","internalType":"bool"},{"name":"weightScheme","type":"uint8","internalType":"enum IGardensModule.WeightScheme"},{"name":"domainMask","type":"uint8","internalType":"uint8"}]}],"outputs":[{"name":"gardenAccounts","type":"address[]","internalType":"address[]"}],"stateMutability":"payable"},{"type":"function","name":"claimENSRefund","inputs":[],"outputs":[],"stateMutability":"nonpayable"},{"type":"function","name":"communityToken","inputs":[],"outputs":[{"name":"","type":"address","internalType":"address"}],"stateMutability":"view"},{"type":"function","name":"cookieJarModule","inputs":[],"outputs":[{"name":"","type":"address","internalType":"contract ICookieJarModule"}],"stateMutability":"view"},{"type":"function","name":"deploymentRegistry","inputs":[],"outputs":[{"name":"","type":"address","internalType":"address"}],"stateMutability":"view"},{"type":"function","name":"ensModule","inputs":[],"outputs":[{"name":"","type":"address","internalType":"contract IGreenGoodsENS"}],"stateMutability":"view"},{"type":"function","name":"failedENSRefunds","inputs":[{"name":"minter","type":"address","internalType":"address"}],"outputs":[{"name":"amount","type":"uint256","internalType":"uint256"}],"stateMutability":"view"},{"type":"function","name":"gardensModule","inputs":[],"outputs":[{"name":"","type":"address","internalType":"contract IGardensModule"}],"stateMutability":"view"},{"type":"function","name":"getApproved","inputs":[{"name":"tokenId","type":"uint256","internalType":"uint256"}],"outputs":[{"name":"","type":"address","internalType":"address"}],"stateMutability":"view"},{"type":"function","name":"hatsModule","inputs":[],"outputs":[{"name":"","type":"address","internalType":"contract IHatsModule"}],"stateMutability":"view"},{"type":"function","name":"initialize","inputs":[{"name":"_multisig","type":"address","internalType":"address"},{"name":"_deploymentRegistry","type":"address","internalType":"address"}],"outputs":[],"stateMutability":"nonpayable"},{"type":"function","name":"isApprovedForAll","inputs":[{"name":"owner","type":"address","internalType":"address"},{"name":"operator","type":"address","internalType":"address"}],"outputs":[{"name":"","type":"bool","internalType":"bool"}],"stateMutability":"view"},{"type":"function","name":"karmaGAPModule","inputs":[],"outputs":[{"name":"","type":"address","internalType":"contract IKarmaGAPModule"}],"stateMutability":"view"},{"type":"function","name":"mintGarden","inputs":[{"name":"config","type":"tuple","internalType":"struct GardenToken.GardenConfig","components":[{"name":"name","type":"string","internalType":"string"},{"name":"slug","type":"string","internalType":"string"},{"name":"description","type":"string","internalType":"string"},{"name":"location","type":"string","internalType":"string"},{"name":"bannerImage","type":"string","internalType":"string"},{"name":"metadata","type":"string","internalType":"string"},{"name":"openJoining","type":"bool","internalType":"bool"},{"name":"weightScheme","type":"uint8","internalType":"enum IGardensModule.WeightScheme"},{"name":"domainMask","type":"uint8","internalType":"uint8"}]}],"outputs":[{"name":"","type":"address","internalType":"address"}],"stateMutability":"payable"},{"type":"function","name":"name","inputs":[],"outputs":[{"name":"","type":"string","internalType":"string"}],"stateMutability":"view"},{"type":"function","name":"octantModule","inputs":[],"outputs":[{"name":"","type":"address","internalType":"contract OctantModule"}],"stateMutability":"view"},{"type":"function","name":"owner","inputs":[],"outputs":[{"name":"","type":"address","internalType":"address"}],"stateMutability":"view"},{"type":"function","name":"ownerOf","inputs":[{"name":"tokenId","type":"uint256","internalType":"uint256"}],"outputs":[{"name":"","type":"address","internalType":"address"}],"stateMutability":"view"},{"type":"function","name":"proxiableUUID","inputs":[],"outputs":[{"name":"","type":"bytes32","internalType":"bytes32"}],"stateMutability":"view"},{"type":"function","name":"renounceOwnership","inputs":[],"outputs":[],"stateMutability":"nonpayable"},{"type":"function","name":"safeTransferFrom","inputs":[{"name":"from","type":"address","internalType":"address"},{"name":"to","type":"address","internalType":"address"},{"name":"tokenId","type":"uint256","internalType":"uint256"}],"outputs":[],"stateMutability":"nonpayable"},{"type":"function","name":"safeTransferFrom","inputs":[{"name":"from","type":"address","internalType":"address"},{"name":"to","type":"address","internalType":"address"},{"name":"tokenId","type":"uint256","internalType":"uint256"},{"name":"data","type":"bytes","internalType":"bytes"}],"outputs":[],"stateMutability":"nonpayable"},{"type":"function","name":"setActionRegistry","inputs":[{"name":"_actionRegistry","type":"address","internalType":"address"}],"outputs":[],"stateMutability":"nonpayable"},{"type":"function","name":"setApprovalForAll","inputs":[{"name":"operator","type":"address","internalType":"address"},{"name":"approved","type":"bool","internalType":"bool"}],"outputs":[],"stateMutability":"nonpayable"},{"type":"function","name":"setCommunityToken","inputs":[{"name":"_communityToken","type":"address","internalType":"address"}],"outputs":[],"stateMutability":"nonpayable"},{"type":"function","name":"setCookieJarModule","inputs":[{"name":"_cookieJarModule","type":"address","internalType":"address"}],"outputs":[],"stateMutability":"nonpayable"},{"type":"function","name":"setDeployment","inputs":[{"name":"_deploymentRegistry","type":"address","internalType":"address"}],"outputs":[],"stateMutability":"nonpayable"},{"type":"function","name":"setENSModule","inputs":[{"name":"_ensModule","type":"address","internalType":"address"}],"outputs":[],"stateMutability":"nonpayable"},{"type":"function","name":"setGardensModule","inputs":[{"name":"_gardensModule","type":"address","internalType":"address"}],"outputs":[],"stateMutability":"nonpayable"},{"type":"function","name":"setHatsModule","inputs":[{"name":"_hatsModule","type":"address","internalType":"address"}],"outputs":[],"stateMutability":"nonpayable"},{"type":"function","name":"setKarmaGAPModule","inputs":[{"name":"_karmaGAPModule","type":"address","internalType":"address"}],"outputs":[],"stateMutability":"nonpayable"},{"type":"function","name":"setOctantModule","inputs":[{"name":"_octantModule","type":"address","internalType":"address"}],"outputs":[],"stateMutability":"nonpayable"},{"type":"function","name":"setTransferRestriction","inputs":[{"name":"_restriction","type":"uint8","internalType":"enum GardenToken.TransferRestriction"}],"outputs":[],"stateMutability":"nonpayable"},{"type":"function","name":"supportsInterface","inputs":[{"name":"interfaceId","type":"bytes4","internalType":"bytes4"}],"outputs":[{"name":"","type":"bool","internalType":"bool"}],"stateMutability":"view"},{"type":"function","name":"symbol","inputs":[],"outputs":[{"name":"","type":"string","internalType":"string"}],"stateMutability":"view"},{"type":"function","name":"tokenURI","inputs":[{"name":"tokenId","type":"uint256","internalType":"uint256"}],"outputs":[{"name":"","type":"string","internalType":"string"}],"stateMutability":"view"},{"type":"function","name":"totalPendingENSRefunds","inputs":[],"outputs":[{"name":"","type":"uint256","internalType":"uint256"}],"stateMutability":"view"},{"type":"function","name":"transferFrom","inputs":[{"name":"from","type":"address","internalType":"address"},{"name":"to","type":"address","internalType":"address"},{"name":"tokenId","type":"uint256","internalType":"uint256"}],"outputs":[],"stateMutability":"nonpayable"},{"type":"function","name":"transferOwnership","inputs":[{"name":"newOwner","type":"address","internalType":"address"}],"outputs":[],"stateMutability":"nonpayable"},{"type":"function","name":"transferRestriction","inputs":[],"outputs":[{"name":"","type":"uint8","internalType":"enum GardenToken.TransferRestriction"}],"stateMutability":"view"},{"type":"function","name":"upgradeTo","inputs":[{"name":"newImplementation","type":"address","internalType":"address"}],"outputs":[],"stateMutability":"nonpayable"},{"type":"function","name":"upgradeToAndCall","inputs":[{"name":"newImplementation","type":"address","internalType":"address"},{"name":"data","type":"bytes","internalType":"bytes"}],"outputs":[],"stateMutability":"payable"},{"type":"event","name":"ActionRegistryUpdated","inputs":[{"name":"oldRegistry","type":"address","indexed":true,"internalType":"address"},{"name":"newRegistry","type":"address","indexed":true,"internalType":"address"}],"anonymous":false},{"type":"event","name":"AdminChanged","inputs":[{"name":"previousAdmin","type":"address","indexed":false,"internalType":"address"},{"name":"newAdmin","type":"address","indexed":false,"internalType":"address"}],"anonymous":false},{"type":"event","name":"Approval","inputs":[{"name":"owner","type":"address","indexed":true,"internalType":"address"},{"name":"approved","type":"address","indexed":true,"internalType":"address"},{"name":"tokenId","type":"uint256","indexed":true,"internalType":"uint256"}],"anonymous":false},{"type":"event","name":"ApprovalForAll","inputs":[{"name":"owner","type":"address","indexed":true,"internalType":"address"},{"name":"operator","type":"address","indexed":true,"internalType":"address"},{"name":"approved","type":"bool","indexed":false,"internalType":"bool"}],"anonymous":false},{"type":"event","name":"BatchGardensMinted","inputs":[{"name":"startTokenId","type":"uint256","indexed":true,"internalType":"uint256"},{"name":"endTokenId","type":"uint256","indexed":true,"internalType":"uint256"},{"name":"minter","type":"address","indexed":true,"internalType":"address"},{"name":"count","type":"uint256","indexed":false,"internalType":"uint256"}],"anonymous":false},{"type":"event","name":"BeaconUpgraded","inputs":[{"name":"beacon","type":"address","indexed":true,"internalType":"address"}],"anonymous":false},{"type":"event","name":"CommunityTokenUpdated","inputs":[{"name":"oldToken","type":"address","indexed":true,"internalType":"address"},{"name":"newToken","type":"address","indexed":true,"internalType":"address"}],"anonymous":false},{"type":"event","name":"CookieJarModuleUpdated","inputs":[{"name":"oldModule","type":"address","indexed":true,"internalType":"address"},{"name":"newModule","type":"address","indexed":true,"internalType":"address"}],"anonymous":false},{"type":"event","name":"ENSModuleUpdated","inputs":[{"name":"oldModule","type":"address","indexed":true,"internalType":"address"},{"name":"newModule","type":"address","indexed":true,"internalType":"address"}],"anonymous":false},{"type":"event","name":"ENSRegistrationRefundClaimed","inputs":[{"name":"minter","type":"address","indexed":true,"internalType":"address"},{"name":"amount","type":"uint256","indexed":false,"internalType":"uint256"}],"anonymous":false},{"type":"event","name":"ENSRegistrationRefundQueued","inputs":[{"name":"minter","type":"address","indexed":true,"internalType":"address"},{"name":"amount","type":"uint256","indexed":false,"internalType":"uint256"}],"anonymous":false},{"type":"event","name":"GardenMinted","inputs":[{"name":"tokenId","type":"uint256","indexed":true,"internalType":"uint256"},{"name":"account","type":"address","indexed":true,"internalType":"address"},{"name":"name","type":"string","indexed":false,"internalType":"string"},{"name":"description","type":"string","indexed":false,"internalType":"string"},{"name":"location","type":"string","indexed":false,"internalType":"string"},{"name":"bannerImage","type":"string","indexed":false,"internalType":"string"},{"name":"openJoining","type":"bool","indexed":false,"internalType":"bool"}],"anonymous":false},{"type":"event","name":"GardensModuleUpdated","inputs":[{"name":"oldModule","type":"address","indexed":true,"internalType":"address"},{"name":"newModule","type":"address","indexed":true,"internalType":"address"}],"anonymous":false},{"type":"event","name":"HatsModuleUpdated","inputs":[{"name":"oldModule","type":"address","indexed":true,"internalType":"address"},{"name":"newModule","type":"address","indexed":true,"internalType":"address"}],"anonymous":false},{"type":"event","name":"Initialized","inputs":[{"name":"version","type":"uint8","indexed":false,"internalType":"uint8"}],"anonymous":false},{"type":"event","name":"KarmaGAPModuleUpdated","inputs":[{"name":"oldModule","type":"address","indexed":true,"internalType":"address"},{"name":"newModule","type":"address","indexed":true,"internalType":"address"}],"anonymous":false},{"type":"event","name":"OctantModuleUpdated","inputs":[{"name":"oldModule","type":"address","indexed":true,"internalType":"address"},{"name":"newModule","type":"address","indexed":true,"internalType":"address"}],"anonymous":false},{"type":"event","name":"OwnershipTransferred","inputs":[{"name":"previousOwner","type":"address","indexed":true,"internalType":"address"},{"name":"newOwner","type":"address","indexed":true,"internalType":"address"}],"anonymous":false},{"type":"event","name":"Transfer","inputs":[{"name":"from","type":"address","indexed":true,"internalType":"address"},{"name":"to","type":"address","indexed":true,"internalType":"address"},{"name":"tokenId","type":"uint256","indexed":true,"internalType":"uint256"}],"anonymous":false},{"type":"event","name":"Upgraded","inputs":[{"name":"implementation","type":"address","indexed":true,"internalType":"address"}],"anonymous":false},{"type":"error","name":"CommunityTokenNotConfigured","inputs":[]},{"type":"error","name":"CommunityTokenNotContract","inputs":[]},{"type":"error","name":"DeploymentNotConfigured","inputs":[]},{"type":"error","name":"ENSRefundTransferFailed","inputs":[]},{"type":"error","name":"HatsModuleNotSet","inputs":[]},{"type":"error","name":"InvalidBatchSize","inputs":[]},{"type":"error","name":"InvalidCommunityToken","inputs":[]},{"type":"error","name":"InvalidERC20Token","inputs":[]},{"type":"error","name":"NoENSRefundAvailable","inputs":[]},{"type":"error","name":"TransfersLocked","inputs":[]},{"type":"error","name":"TransfersRestricted","inputs":[]},{"type":"error","name":"UnauthorizedMinter","inputs":[]}],"bytecode":{"object":"0x60c03461013357601f61378638819003918201601f19168301916001600160401b038311848410176101375780849260209460405283398101031261013357516001600160a01b0381168103610133573060805260a0525f5460ff8160081c166100de5760ff808216036100a4575b60405161363a908161014c8239608051818181610dcd01528181610f1e0152611715015260a05181818161041f0152611af70152f35b60ff90811916175f557f7f26b83ff96e1f2b6a682f133852f6798a09c465da95921460cefb3847402498602060405160ff8152a15f61006e565b60405162461bcd60e51b815260206004820152602760248201527f496e697469616c697a61626c653a20636f6e747261637420697320696e697469604482015266616c697a696e6760c81b6064820152608490fd5b5f80fd5b634e487b7160e01b5f52604160045260245ffdfe6080806040526004361015610012575f80fd5b5f905f3560e01c90816301ffc9a7146121065750806306fdde0314612074578063077fe4c914611fd1578063081812fc14611fb3578063095ea7b314611e2d578063117ad57a14611ded57806315f2efcc14611a06578063191d7719146119de57806323b872dd146119ba578063266f86521461199257806329aa16171461196a5780633659cfe6146116f75780633b30eb72146116bf5780634026d7621461169757806342842e0e14611663578063461d338c1461163a578063485cc955146111e95780634c528446146111805780634f1ef28614610ee6578063516b87d914610e7d57806352d1902d14610dbb57806357c6e6a414610d525780636352211e14610d225780636c16ad3514610cdf57806370a0823114610c4a578063715018a614610bef57806372a0d6ad14610bc757806383930c2314610baa5780638c15e6a414610ab15780638da5cb5b14610a8957806395d89b41146109be578063a22cb465146108f0578063adcb922114610887578063b4a9c6071461085f578063b88d4fde146107e9578063ba06c17614610780578063c663109214610758578063c87b56dd146106e2578063d25d4652146106b9578063d9e4aaee1461064e578063dc0c385b1461038c578063e4e3967814610363578063e7efdb26146102f8578063e985e9c5146102a05763f2fde38b1461020d575f80fd5b3461029d57602036600319011261029d57610226612195565b61022e6125e6565b6001600160a01b038116156102495761024690613141565b80f35b60405162461bcd60e51b815260206004820152602660248201527f4f776e61626c653a206e6577206f776e657220697320746865207a65726f206160448201526564647265737360d01b6064820152608490fd5b80fd5b503461029d57604036600319011261029d5760406102bc612195565b916102c56121ab565b9260018060a01b03168152606a602052209060018060a01b03165f52602052602060ff60405f2054166040519015158152f35b503461029d57602036600319011261029d57610312612195565b61031a6125e6565b60ce80546001600160a01b039283166001600160a01b0319821681179092559091167f1c2f4d6765fbc35ee83d1598538969716facf03e15ae9183c5f99259aeb5d3318380a380f35b503461029d578060031936011261029d5760cf546040516001600160a01b039091168152602090f35b50602036600319011261029d57600435906001600160401b03821161029d578160040191610120600319823603011261064a576097546001600160a01b031633036105ac575b60d2546001600160a01b03161561059d5760cb546001600160a01b03161561058e5760c9545f19811461057a576001810160c955610410813361263e565b604051630918575160e11b81527f00000000000000000000000000000000000000000000000000000000000000006001600160a01b031660048201523060248201526044810182905260208160648173__$22345123dcf5f39d8c23eeef107f852197$__5af493841561056e578094610520575b6020610510610518888888887fd9622e038d73e9b439c5fda047b4a8ec1f5e41816b766fcdd534c56fc90704276104bb858061239c565b906104c9604486018861239c565b99909560c46104db606483018b61239c565b6104f76104ee8d6084879597019061239c565b949093016123ce565b9360018060a01b038c169e8f9b604051998a998a6123fb565b0390a3612754565b604051908152f35b909193506020823d602011610566575b8161053d60209383612219565b8101031261029d575092610510926105189261055a602096612388565b94509281929550610484565b3d9150610530565b604051903d90823e3d90fd5b634e487b7160e01b83526011600452602483fd5b63127629f760e31b8252600482fd5b6309203be560e11b8252600482fd5b60ca546001600160a01b0316801561063b5760206024916040519283809262a743f760e61b82523360048301525afa83918161060a575b506105f75763955c501b60e01b8352600483fd5b6103d25763955c501b60e01b8252600482fd5b61062d91925060203d602011610634575b6106258183612219565b81019061234c565b905f6105e3565b503d61061b565b63045824e160e51b8352600483fd5b5080fd5b503461029d57602036600319011261029d57610668612195565b6106706125e6565b60cc80546001600160a01b039283166001600160a01b0319821681179092559091167fdbf2e72ed7bd92ccbb36e552bb0c1a8df6df7e6a54ab7ddc78720975e93fc88e8380a380f35b503461029d578060031936011261029d5760d0546040516001600160a01b039091168152602090f35b34610754576020366003190112610754576004355f90815260676020526040902054610718906001600160a01b03161515612578565b5f604051610727602082612219565b52610750604051610739602082612219565b5f8152604051918291602083526020830190612171565b0390f35b5f80fd5b34610754575f3660031901126107545760ca546040516001600160a01b039091168152602090f35b3461075457602036600319011261075457610799612195565b6107a16125e6565b60cf80546001600160a01b039283166001600160a01b0319821681179092559091167fe871cbdaca3c1bd8efb9eaa48b0acffb2a54d6baac7c7b976a366265838723da5f80a3005b3461075457608036600319011261075457610802612195565b61080a6121ab565b90606435906044356001600160401b0383116107545761085d9361083561085894369060040161228b565b926108486108438433612ee3565b612454565b610853838383612fb2565b613490565b6131dc565b005b34610754575f3660031901126107545760cb546040516001600160a01b039091168152602090f35b34610754576020366003190112610754576108a0612195565b6108a86125e6565b60cb80546001600160a01b039283166001600160a01b0319821681179092559091167fc8fef5c294d0999b744f1c0123bb9e98e3e739de8245692fde6df4f4625efc505f80a3005b3461075457604036600319011261075457610909612195565b60243590811515809203610754576001600160a01b03169033821461097957335f52606a60205260405f20825f5260205260405f2060ff1981541660ff83161790556040519081527f17307eab39ab6107e8899845ad3d59bd9653f200f220920489ca2b5937696c3160203392a3005b60405162461bcd60e51b815260206004820152601960248201527f4552433732313a20617070726f766520746f2063616c6c6572000000000000006044820152606490fd5b34610754575f366003190112610754576040515f6066546109de816122a9565b8084529060018116908115610a655750600114610a1a575b61075083610a0681850382612219565b604051918291602083526020830190612171565b91905060665f525f5160206135ce5f395f51905f52915f905b808210610a4b57509091508101602001610a066109f6565b919260018160209254838588010152019101909291610a33565b60ff191660208086019190915291151560051b84019091019150610a0690506109f6565b34610754575f366003190112610754576097546040516001600160a01b039091168152602090f35b3461075457602036600319011261075457610aca612195565b610ad26125e6565b6001600160a01b038116908115610b9b573b15610b8c576040516318160ddd60e01b8152602081600481855afa9081610b5d575b50610b1a576326412d8960e21b5f5260045ffd5b60d280546001600160a01b0319811683179091556001600160a01b03167f1b5431099f08d34c1b67c3baba09da48c205d66021df446f824be5c7f86be7d55f80a3005b6020813d602011610b84575b81610b7660209383612219565b810103126107545751610b06565b3d9150610b69565b63d0acc0d360e01b5f5260045ffd5b631a747e4f60e31b5f5260045ffd5b34610754575f36600319011261075457602060d454604051908152f35b34610754575f3660031901126107545760ce546040516001600160a01b039091168152602090f35b34610754575f36600319011261075457610c076125e6565b609780546001600160a01b031981169091555f906001600160a01b03167f8be0079c531659141344cd1fd0a4f28419497f9722a3daafe3b4186f6b6457e08280a3005b34610754576020366003190112610754576001600160a01b03610c6b612195565b168015610c88575f526068602052602060405f2054604051908152f35b60405162461bcd60e51b815260206004820152602960248201527f4552433732313a2061646472657373207a65726f206973206e6f7420612076616044820152683634b21037bbb732b960b91b6064820152608490fd5b3461075457602036600319011261075457610cf8612195565b610d006125e6565b60ca80546001600160a01b0319166001600160a01b0392909216919091179055005b34610754576020366003190112610754576020610d406004356125c4565b6040516001600160a01b039091168152f35b3461075457602036600319011261075457610d6b612195565b610d736125e6565b60d180546001600160a01b039283166001600160a01b0319821681179092559091167fb36c04cd47dc5ac0f031b7a815757f7883731343f2d3aa6dbd5c33cf369c8e165f80a3005b34610754575f366003190112610754577f00000000000000000000000000000000000000000000000000000000000000006001600160a01b03163003610e125760206040515f51602061360e5f395f51905f528152f35b60405162461bcd60e51b815260206004820152603860248201527f555550535570677261646561626c653a206d757374206e6f742062652063616c60448201527f6c6564207468726f7567682064656c656761746563616c6c00000000000000006064820152608490fd5b3461075457602036600319011261075457610e96612195565b610e9e6125e6565b60d080546001600160a01b039283166001600160a01b0319821681179092559091167fb7f52c4862981bdf3d41a29cd9077644f7f34833735f8e427c70decedaa006af5f80a3005b604036600319011261075457610efa612195565b6024356001600160401b03811161075457610f1990369060040161228b565b610f707f00000000000000000000000000000000000000000000000000000000000000006001600160a01b0316610f52308214156124b6565b5f51602061360e5f395f51905f52546001600160a01b031614612517565b610f786125e6565b7f4910fdfa16fed3260ed0e7147f7cc6da11a60208b5b9406d12a635614ffd91435460ff1615610fac575061085d90613309565b6040516352d1902d60e01b81526001600160a01b03831690602081600481855afa5f918161114c575b506110365760405162461bcd60e51b815260206004820152602e60248201527f45524331393637557067726164653a206e657720696d706c656d656e7461746960448201526d6f6e206973206e6f74205555505360901b6064820152608490fd5b5f51602061360e5f395f51905f52036110f55761105283613309565b7fbc7cd75a20ee27fd9adebab32041f755214dbc6bffa90cc0225b39da2e5c2d3b5f80a28051158015906110ed575b61108757005b61085d915f806040519361109c606086612219565b602785527f416464726573733a206c6f772d6c6576656c2064656c65676174652063616c6c6020860152660819985a5b195960ca1b6040860152602081519101845af46110e76122e1565b91613534565b506001611081565b60405162461bcd60e51b815260206004820152602960248201527f45524331393637557067726164653a20756e737570706f727465642070726f786044820152681a58589b195555525160ba1b6064820152608490fd5b9091506020813d602011611178575b8161116860209383612219565b8101031261075457519085610fd5565b3d915061115b565b3461075457602036600319011261075457611199612195565b6111a16125e6565b60cd80546001600160a01b039283166001600160a01b0319821681179092559091167f8240dda544eb8ec4199e2248ad32f0b0962089fa82835994e8291bd75b5a663a5f80a3005b3461075457604036600319011261075457611202612195565b61120a6121ab565b5f549060ff8260081c16159182809361162d575b8015611616575b156115ba5760ff1981166001175f55826115a9575b50604092835161124a8582612219565b601281527123b932b2b71023b7b7b2399023b0b93232b760711b60208201528451906112768683612219565b600382526247474760e81b602083015261129f60ff5f5460081c1661129a816130e1565b6130e1565b8051906001600160401b0382116114a75781906112bd6065546122a9565b601f8111611537575b50602090601f83116001146114c6575f926114bb575b50508160011b915f199060031b1c1916176065555b8051906001600160401b0382116114a75761130d6066546122a9565b601f811161143f575b50602090601f83116001146113cb5761136a9392915f91836113c0575b50508160011b915f199060031b1c1916176066555b61135c60ff5f5460081c1661129a816130e1565b61136533613141565b613141565b60018060a01b03166001600160601b0360a01b60ca54161760ca5561138b57005b60207f7f26b83ff96e1f2b6a682f133852f6798a09c465da95921460cefb38474024989161ff00195f54165f555160018152a1005b015190508780611333565b90601f1983169160665f525f5160206135ce5f395f51905f52925f5b818110611427575091600193918561136a9796941061140f575b505050811b01606655611348565b01515f1960f88460031b161c19169055878080611401565b929360206001819287860151815501950193016113e7565b60665f52601f830160051c5f5160206135ce5f395f51905f52019060208410611492575b601f0160051c5f5160206135ce5f395f51905f5201905b8181106114875750611316565b5f815560010161147a565b5f5160206135ce5f395f51905f529150611463565b634e487b7160e01b5f52604160045260245ffd5b0151905087806112dc565b60655f9081525f5160206135ee5f395f51905f529350601f198516905b81811061151f5750908460019594939210611507575b505050811b016065556112f1565b01515f1960f88460031b161c191690558780806114f9565b929360206001819287860151815501950193016114e3565b90915060655f52601f830160051c5f5160206135ee5f395f51905f52019060208410611594575b90601f8493920160051c5f5160206135ee5f395f51905f5201905b81811061158657506112c6565b5f8155849350600101611579565b5f5160206135ee5f395f51905f52915061155e565b61ffff1916610101175f558361123a565b60405162461bcd60e51b815260206004820152602e60248201527f496e697469616c697a61626c653a20636f6e747261637420697320616c72656160448201526d191e481a5b9a5d1a585b1a5e995960921b6064820152608490fd5b50303b1580156112255750600160ff821614611225565b50600160ff82161061121e565b34610754575f36600319011261075457602060ff60d554166040519061165f816121fb565b8152f35b346107545761085d610858611677366121c1565b9060405192611687602085612219565b5f84526108486108438433612ee3565b34610754575f3660031901126107545760cc546040516001600160a01b039091168152602090f35b34610754576020366003190112610754576001600160a01b036116e0612195565b165f5260d3602052602060405f2054604051908152f35b3461075457602036600319011261075457611710612195565b6117497f00000000000000000000000000000000000000000000000000000000000000006001600160a01b0316610f52308214156124b6565b6117516125e6565b6040519060206117618184612219565b5f8352808301601f1982013682377f4910fdfa16fed3260ed0e7147f7cc6da11a60208b5b9406d12a635614ffd91435460ff16156117a557505061085d9150613309565b6040516352d1902d60e01b81529192916001600160a01b038316908481600481855afa5f918161193b575b506118315760405162461bcd60e51b815260048101869052602e60248201527f45524331393637557067726164653a206e657720696d706c656d656e7461746960448201526d6f6e206973206e6f74205555505360901b6064820152608490fd5b5f51602061360e5f395f51905f52036118e45761184d83613309565b7fbc7cd75a20ee27fd9adebab32041f755214dbc6bffa90cc0225b39da2e5c2d3b5f80a28351158015906118dd575b61188257005b5f809161085d957f416464726573733a206c6f772d6c6576656c2064656c65676174652063616c6c604051966118b9606089612219565b60278852870152660819985a5b195960ca1b60408701525190845af46110e76122e1565b505f61187c565b60405162461bcd60e51b815260048101859052602960248201527f45524331393637557067726164653a20756e737570706f727465642070726f786044820152681a58589b195555525160ba1b6064820152608490fd5b9091508581813d8311611963575b6119538183612219565b81010312610754575190876117d0565b503d611949565b34610754575f3660031901126107545760d2546040516001600160a01b039091168152602090f35b34610754575f3660031901126107545760cd546040516001600160a01b039091168152602090f35b346107545761085d6119cb366121c1565b916119d96108438433612ee3565b612fb2565b34610754575f3660031901126107545760d1546040516001600160a01b039091168152602090f35b6020366003190112610754576004356001600160401b0381116107545736602382011215610754578060040135906001600160401b038211610754573660248360051b83010111610754576097546001600160a01b03163303611d5f575b81158015611d55575b611d465760d2546001600160a01b031615611d375760cb546001600160a01b031615611d285790611a9d81612364565b91611aab6040519384612219565b818352611ab782612364565b602084019390601f190136853760c95491611ad2848461237b565b60c9553681900361014219019473__$22345123dcf5f39d8c23eeef107f852197$__937f0000000000000000000000000000000000000000000000000000000000000000915f5b87811015611c8757611b2b818461237b565b908060051b91602483880101358b81121561075457870190611b916024830191611b55813361263e565b604051630918575160e11b81526001600160a01b038a166004820152306024820152604481018290529160209083908e90829081906064820190565b03915af4918215611c7c575f92611c38575b50906105109383927fd9622e038d73e9b439c5fda047b4a8ec1f5e41816b766fcdd534c56fc9070427611bd985611c0c9761239c565b90611be7606486018861239c565b99909560e4611bf9608483018b61239c565b6104f76104ee8d60a4879597019061239c565b8751821015611c245760206001938901015201611b19565b634e487b7160e01b5f52603260045260245ffd5b9291506020833d8211611c74575b81611c5360209383612219565b810103126107545761051093611c6b611c0c94612388565b92935093611ba3565b3d9150611c46565b6040513d5f823e3d90fd5b5086859260c954905f198201918211611d14576040949394519283527fce282076a1439bd4b653b5657c2ab7abea5a48b4572799f57582e79e357b59f760203394a4604051918291602083019060208452518091526040830191905f5b818110611cf2575050500390f35b82516001600160a01b0316845285945060209384019390920191600101611ce4565b634e487b7160e01b5f52601160045260245ffd5b63127629f760e31b5f5260045ffd5b6309203be560e11b5f5260045ffd5b637862e95960e01b5f5260045ffd5b50600a8211611a6d565b60ca546001600160a01b03168015611dde5760206024916040519283809262a743f760e61b82523360048301525afa5f9181611dbd575b50611daa5763955c501b60e01b5f5260045ffd5b611a645763955c501b60e01b5f5260045ffd5b611dd791925060203d602011610634576106258183612219565b9084611d96565b63045824e160e51b5f5260045ffd5b3461075457602036600319011261075457600435600381101561075457611e126125e6565b611e1b816121fb565b60ff801960d5541691161760d5555f80f35b3461075457604036600319011261075457611e46612195565b602435906001600160a01b03611e5b836125c4565b6001600160a01b039092169116818114611f6457803314908115611f40575b5015611ed5575f82815260696020526040902080546001600160a01b031916821790556001600160a01b03611eae836125c4565b167f8c5be1e5ebec7d5bd14f71427d1e84f3dd0314c0f7b2291e5b200ac8c7c3b9255f80a4005b60405162461bcd60e51b815260206004820152603d60248201527f4552433732313a20617070726f76652063616c6c6572206973206e6f7420746f60448201527f6b656e206f776e6572206f7220617070726f76656420666f7220616c6c0000006064820152608490fd5b5f908152606a6020908152604080832033845290915290205460ff16905083611e7a565b60405162461bcd60e51b815260206004820152602160248201527f4552433732313a20617070726f76616c20746f2063757272656e74206f776e656044820152603960f91b6064820152608490fd5b34610754576020366003190112610754576020610d40600435612310565b34610754575f36600319011261075457335f5260d360205260405f2054801561206557335f5260d36020525f604081205560d454818103908111611d145760d4555f80808084335af16120226122e1565b5015612056576040519081527feaae3580fc1599b690a022f523f9929eab9fa49f77d801604a0e983f7cc28c3760203392a2005b631900993960e31b5f5260045ffd5b63266ce5cb60e11b5f5260045ffd5b34610754575f366003190112610754576040515f606554612094816122a9565b8084529060018116908115610a6557506001146120bb5761075083610a0681850382612219565b91905060655f525f5160206135ee5f395f51905f52915f905b8082106120ec57509091508101602001610a066109f6565b9192600181602092548385880101520191019092916120d4565b34610754576020366003190112610754576004359063ffffffff60e01b8216809203610754576020916380ac58cd60e01b8114908115612160575b811561214f575b5015158152f35b6301ffc9a760e01b14905083612148565b635b5e139f60e01b81149150612141565b805180835260209291819084018484015e5f828201840152601f01601f1916010190565b600435906001600160a01b038216820361075457565b602435906001600160a01b038216820361075457565b6060906003190112610754576004356001600160a01b038116810361075457906024356001600160a01b0381168103610754579060443590565b6003111561220557565b634e487b7160e01b5f52602160045260245ffd5b90601f801991011681019081106001600160401b038211176114a757604052565b6001600160401b0381116114a757601f01601f191660200190565b9291926122618261223a565b9161226f6040519384612219565b829481845281830111610754578281602093845f960137010152565b9080601f83011215610754578160206122a693359101612255565b90565b90600182811c921680156122d7575b60208310146122c357565b634e487b7160e01b5f52602260045260245ffd5b91607f16916122b8565b3d1561230b573d906122f28261223a565b916123006040519384612219565b82523d5f602084013e565b606090565b5f81815260676020526040902054612332906001600160a01b03161515612578565b5f908152606960205260409020546001600160a01b031690565b90816020910312610754575180151581036107545790565b6001600160401b0381116114a75760051b60200190565b91908201809211611d1457565b51906001600160a01b038216820361075457565b903590601e198136030182121561075457018035906001600160401b0382116107545760200191813603831361075457565b3580151581036107545790565b908060209392818452848401375f828201840152601f01601f1916010190565b979361243e936124309161242261244c999460809b99969d9e9d60a08e81815201916123db565b918b830360208d01526123db565b9188830360408a01526123db565b9185830360608701526123db565b931515910152565b1561245b57565b60405162461bcd60e51b815260206004820152602d60248201527f4552433732313a2063616c6c6572206973206e6f7420746f6b656e206f776e6560448201526c1c881bdc88185c1c1c9bdd9959609a1b6064820152608490fd5b156124bd57565b60405162461bcd60e51b815260206004820152602c60248201527f46756e6374696f6e206d7573742062652063616c6c6564207468726f7567682060448201526b19195b1959d85d1958d85b1b60a21b6064820152608490fd5b1561251e57565b60405162461bcd60e51b815260206004820152602c60248201527f46756e6374696f6e206d7573742062652063616c6c6564207468726f7567682060448201526b6163746976652070726f787960a01b6064820152608490fd5b1561257f57565b60405162461bcd60e51b815260206004820152601860248201527f4552433732313a20696e76616c696420746f6b656e20494400000000000000006044820152606490fd5b5f908152606760205260409020546001600160a01b03166122a6811515612578565b6097546001600160a01b031633036125fa57565b606460405162461bcd60e51b815260206004820152602060248201527f4f776e61626c653a2063616c6c6572206973206e6f7420746865206f776e65726044820152fd5b6040519190602061264f8185612219565b5f84526001600160a01b0382169081156127115791838092606761270f9795612697612691610858995f52606760205260018060a01b0360405f205416151590565b156134e8565b5f848152606760205260409020546126b9906001600160a01b03161515612691565b825f526068815260405f2060018154019055835f525260405f20816001600160601b0360a01b8254161790555f7fddf252ad1be2c89b69c2b068fc378daa952ba7f163c4a11628f55a4df523b3ef8180a46133a0565b565b6064906040519062461bcd60e51b825280600483015260248201527f4552433732313a206d696e7420746f20746865207a65726f20616464726573736044820152fd5b60cb5492915f9160206127af61276a848061239c565b60d2546040516360fac62560e01b81526001600160a01b0396871660048201819052606060248301529a90968795919486945f948694931692916064850191906123db565b604483019190915203926001600160a01b03165af18015611c7c57612eb4575b5060cb546001600160a01b0316803b15610754575f8091606460405180948193633868e7e560e01b83528a6004840152336024840152600360448401525af18015611c7c57612e9f575b5060cc546001600160a01b031680612db4575b5060cd546001600160a01b03168281612d51575b505060ce546001600160a01b031680612ca1575b5060d05482906001600160a01b031680612c58575b5050610100810160ff61287b8261328a565b16151580612c44575b612bdb575b5060d1546001600160a01b031680151580612bc4575b612ae2575b5060d2546001600160a01b03166128bb828061239c565b95909160c06128cd602086018661239c565b9190956128dd604082018261239c565b9690976128ed606084018461239c565b9990916128fd608086018661239c565b97909461291961291060a089018961239c565b999098016123ce565b9f6040519a6101008c018c81106001600160401b03821117612acc576129ac989561298e9560208f9e9d9c9a968f9061297f9761299d9c976129649361297098604052523691612255565b9f019e8f523691612255565b9d60408c019e8f523691612255565b9c60608a019d8e523691612255565b95608088019687523691612255565b9260a086019384523691612255565b9160c0840192835260e084019a15158b52853b15612ac857604051630bc4241b60e01b81526020600482015293516001600160a01b03166024850152935161010060448501529899979892978997899788968a968896949593919290612a1790610124890190612171565b9051878203602319016064890152612a2f9190612171565b9051868203602319016084880152612a479190612171565b90518582036023190160a4870152612a5f9190612171565b90518482036023190160c4860152612a779190612171565b90518382036023190160e4850152612a8f9190612171565b9051151561010483015203925af18015612abd57612aab575050565b612ab6828092612219565b61029d5750565b6040513d84823e3d90fd5b8880fd5b5050634e487b7160e01b8f52604160045260248ffd5b612aef602083018361239c565b8291923b15612bc057612b24928592839260405180968194829363640ebb9560e01b84526040600485015260448401916123db565b8b6024830152039134905af19182612ba7575b5050612ba25734612b49575b5f6128a4565b33825260d360205260408220612b6034825461237b565b9055612b6e3460d45461237b565b60d4556040513481527fa3e6a8143b6c196b4feb3553d44f77ed575f89d679d7a410b07eb4aeaf973e1660203392a2612b43565b612b43565b81612bb191612219565b612bbc57825f612b37565b8280fd5b8480fd5b50612bd2602083018361239c565b9050151561289f565b60cf546001600160a01b031690612bf19061328a565b813b15612c4057908360ff60448294836040519586948593628a782f60e81b85528d60048601521660248401525af1612c2b575b50612889565b81612c3591612219565b61064a57815f612c25565b8380fd5b5060cf546001600160a01b03161515612884565b8190602460405180948193634450925160e01b83528a60048401525af1612c81575b8290612869565b612c9c903d8085833e612c948183612219565b810190613265565b612c7a565b60e0820135906003821015612c40578390612cbc848061239c565b9190938389612cfc604051978896879586946314a4e12160e21b86526004860152612ce6816121fb565b60248501526060604485015260648401916123db565b03925af115612854573d8084833e612d148183612219565b810190604081830312612c4057612d2a81612388565b506020810151906001600160401b038211612bc057612d4a929101613200565b505f612854565b612d8d91612d5f848061239c565b836040939293518096819582946343d2636360e11b84528d60048501526040602485015260448401916123db565b03925af1612d9c575b82612840565b612daf903d8085833e612c948183612219565b612d96565b612dbe828061239c565b90919086612dcf604086018661239c565b90612ddd606088018861239c565b612dea60808a018a61239c565b939094604051998a988998638ae4d28160e01b8a5260048a01523360248a01526044890160c0905260c4890190612e20926123db565b90600319888303016064890152612e36926123db565b90600319868303016084870152612e4c926123db565b906003198483030160a4850152612e62926123db565b0381865a94602095f11561282c576020813d602011612e97575b81612e8960209383612219565b81010312610754575161282c565b3d9150612e7c565b612eac9192505f90612219565b5f905f612819565b6020813d602011612edb575b81612ecd60209383612219565b8101031261075457516127cf565b3d9150612ec0565b906001600160a01b03612ef5826125c4565b6001600160a01b0390931692168281149291908315612f35575b508215612f1b57505090565b9091506001600160a01b0390612f3090612310565b161490565b9092505f52606a60205260405f20815f5260205260ff60405f205416915f612f0f565b15612f5f57565b60405162461bcd60e51b815260206004820152602560248201527f4552433732313a207472616e736665722066726f6d20696e636f72726563742060448201526437bbb732b960d91b6064820152608490fd5b90612fbc836125c4565b6001600160a01b038381169291612fd591168314612f58565b6001600160a01b031691821561309057612fee90613298565b61300a816001600160a01b03613003866125c4565b1614612f58565b825f52606960205260405f206001600160601b0360a01b8154169055805f52606860205260405f205f198154019055815f52606860205260405f2060018154019055825f52606760205260405f20826001600160601b0360a01b8254161790557fddf252ad1be2c89b69c2b068fc378daa952ba7f163c4a11628f55a4df523b3ef5f80a4565b60405162461bcd60e51b8152602060048201526024808201527f4552433732313a207472616e7366657220746f20746865207a65726f206164646044820152637265737360e01b6064820152608490fd5b156130e857565b60405162461bcd60e51b815260206004820152602b60248201527f496e697469616c697a61626c653a20636f6e7472616374206973206e6f74206960448201526a6e697469616c697a696e6760a81b6064820152608490fd5b609780546001600160a01b039283166001600160a01b0319821681179092559091167f8be0079c531659141344cd1fd0a4f28419497f9722a3daafe3b4186f6b6457e05f80a3565b60809060208152603260208201527f4552433732313a207472616e7366657220746f206e6f6e20455243373231526560408201527131b2b4bb32b91034b6b83632b6b2b73a32b960711b60608201520190565b156131e357565b60405162461bcd60e51b8152806131fc60048201613189565b0390fd5b9080601f8301121561075457815161321781612364565b926132256040519485612219565b81845260208085019260051b82010192831161075457602001905b82821061324d5750505090565b6020809161325a84612388565b815201910190613240565b906020828203126107545781516001600160401b038111610754576122a69201613200565b3560ff811681036107545790565b6001600160a01b03161561270f5760ff60d554166132b5816121fb565b600281146132fa576001906132c9816121fb565b14806132e5575b6132d657565b637be07bbd60e11b5f5260045ffd5b506097546001600160a01b03163314156132d0565b6336e278fd60e21b5f5260045ffd5b803b156133455760018060a01b03166001600160601b0360a01b5f51602061360e5f395f51905f525416175f51602061360e5f395f51905f5255565b60405162461bcd60e51b815260206004820152602d60248201527f455243313936373a206e657720696d706c656d656e746174696f6e206973206e60448201526c1bdd08184818dbdb9d1c9858dd609a1b6064820152608490fd5b91823b15613488576133e5926020925f604051809681958294630a85bd0160e11b84523360048501528460248501526044840152608060648401526084830190612171565b03926001600160a01b03165af15f9181613443575b5061342d576134076122e1565b805190816134285760405162461bcd60e51b8152806131fc60048201613189565b602001fd5b6001600160e01b031916630a85bd0160e11b1490565b9091506020813d602011613480575b8161345f60209383612219565b8101031261075457516001600160e01b03198116810361075457905f6133fa565b3d9150613452565b505050600190565b919290803b156134df576133e5935f60209460405196879586948593630a85bd0160e11b855233600486015260018060a01b031660248501526044840152608060648401526084830190612171565b50505050600190565b156134ef57565b60405162461bcd60e51b815260206004820152601c60248201527f4552433732313a20746f6b656e20616c7265616479206d696e746564000000006044820152606490fd5b919290156135965750815115613548575090565b3b156135515790565b60405162461bcd60e51b815260206004820152601d60248201527f416464726573733a2063616c6c20746f206e6f6e2d636f6e74726163740000006044820152606490fd5b8251909150156135a95750805190602001fd5b60405162461bcd60e51b8152602060048201529081906131fc90602483019061217156fe46501879b8ca8525e8c2fd519e2fbfcfa2ebea26501294aa02cbfcfb12e943548ff97419363ffd7000167f130ef7168fbea05faf9251824ca5043f113cc6a7c7360894a13ba1a3210667c828492db98dca3e2076cc3735a920a3ca505d382bbca164736f6c634300081c000a","linkReferences":{"src/lib/TBA.sol":{"TBALib":[{"start":1453,"length":20},{"start":7213,"length":20}]}}},"methodIdentifiers":{"actionRegistry()":"e4e39678","approve(address,uint256)":"095ea7b3","balanceOf(address)":"70a08231","batchMintGardens((string,string,string,string,string,string,bool,uint8,uint8)[])":"15f2efcc","claimENSRefund()":"077fe4c9","communityToken()":"29aa1617","cookieJarModule()":"d25d4652","deploymentRegistry()":"c6631092","ensModule()":"191d7719","failedENSRefunds(address)":"3b30eb72","gardensModule()":"72a0d6ad","getApproved(uint256)":"081812fc","hatsModule()":"b4a9c607","initialize(address,address)":"485cc955","isApprovedForAll(address,address)":"e985e9c5","karmaGAPModule()":"4026d762","mintGarden((string,string,string,string,string,string,bool,uint8,uint8))":"dc0c385b","name()":"06fdde03","octantModule()":"266f8652","owner()":"8da5cb5b","ownerOf(uint256)":"6352211e","proxiableUUID()":"52d1902d","renounceOwnership()":"715018a6","safeTransferFrom(address,address,uint256)":"42842e0e","safeTransferFrom(address,address,uint256,bytes)":"b88d4fde","setActionRegistry(address)":"ba06c176","setApprovalForAll(address,bool)":"a22cb465","setCommunityToken(address)":"8c15e6a4","setCookieJarModule(address)":"516b87d9","setDeployment(address)":"6c16ad35","setENSModule(address)":"57c6e6a4","setGardensModule(address)":"e7efdb26","setHatsModule(address)":"adcb9221","setKarmaGAPModule(address)":"d9e4aaee","setOctantModule(address)":"4c528446","setTransferRestriction(uint8)":"117ad57a","supportsInterface(bytes4)":"01ffc9a7","symbol()":"95d89b41","tokenURI(uint256)":"c87b56dd","totalPendingENSRefunds()":"83930c23","transferFrom(address,address,uint256)":"23b872dd","transferOwnership(address)":"f2fde38b","transferRestriction()":"461d338c","upgradeTo(address)":"3659cfe6","upgradeToAndCall(address,bytes)":"4f1ef286"},"id":170}