{"abi":[{"type":"constructor","inputs":[{"name":"erc4337EntryPoint","type":"address","internalType":"address"},{"name":"multicallForwarder","type":"address","internalType":"address"},{"name":"erc6551Registry","type":"address","internalType":"address"},{"name":"guardian","type":"address","internalType":"address"},{"name":"workApprovalResolver","type":"address","internalType":"address"},{"name":"assessmentResolver","type":"address","internalType":"address"}],"stateMutability":"nonpayable"},{"type":"fallback","stateMutability":"payable"},{"type":"receive","stateMutability":"payable"},{"type":"function","name":"ASSESSMENT_RESOLVER","inputs":[],"outputs":[{"name":"","type":"address","internalType":"address"}],"stateMutability":"view"},{"type":"function","name":"WORK_APPROVAL_RESOLVER","inputs":[],"outputs":[{"name":"","type":"address","internalType":"address"}],"stateMutability":"view"},{"type":"function","name":"addGardenOperator","inputs":[{"name":"operator","type":"address","internalType":"address"}],"outputs":[],"stateMutability":"nonpayable"},{"type":"function","name":"addGardener","inputs":[{"name":"gardener","type":"address","internalType":"address"}],"outputs":[],"stateMutability":"nonpayable"},{"type":"function","name":"bannerImage","inputs":[],"outputs":[{"name":"","type":"string","internalType":"string"}],"stateMutability":"view"},{"type":"function","name":"communityToken","inputs":[],"outputs":[{"name":"","type":"address","internalType":"address"}],"stateMutability":"view"},{"type":"function","name":"createProjectImpact","inputs":[{"name":"workTitle","type":"string","internalType":"string"},{"name":"impactDescription","type":"string","internalType":"string"},{"name":"proofIPFS","type":"string","internalType":"string"}],"outputs":[{"name":"","type":"bytes32","internalType":"bytes32"}],"stateMutability":"nonpayable"},{"type":"function","name":"createProjectMilestone","inputs":[{"name":"milestoneTitle","type":"string","internalType":"string"},{"name":"milestoneDescription","type":"string","internalType":"string"},{"name":"","type":"string","internalType":"string"}],"outputs":[{"name":"","type":"bytes32","internalType":"bytes32"}],"stateMutability":"nonpayable"},{"type":"function","name":"description","inputs":[],"outputs":[{"name":"","type":"string","internalType":"string"}],"stateMutability":"view"},{"type":"function","name":"entryPoint","inputs":[],"outputs":[{"name":"","type":"address","internalType":"contract IEntryPoint"}],"stateMutability":"view"},{"type":"function","name":"erc6551Registry","inputs":[],"outputs":[{"name":"","type":"address","internalType":"address"}],"stateMutability":"view"},{"type":"function","name":"execute","inputs":[{"name":"to","type":"address","internalType":"address"},{"name":"value","type":"uint256","internalType":"uint256"},{"name":"data","type":"bytes","internalType":"bytes"},{"name":"operation","type":"uint8","internalType":"uint8"}],"outputs":[{"name":"","type":"bytes","internalType":"bytes"}],"stateMutability":"payable"},{"type":"function","name":"executeBatch","inputs":[{"name":"operations","type":"tuple[]","internalType":"struct BatchExecutor.Operation[]","components":[{"name":"to","type":"address","internalType":"address"},{"name":"value","type":"uint256","internalType":"uint256"},{"name":"data","type":"bytes","internalType":"bytes"},{"name":"operation","type":"uint8","internalType":"uint8"}]}],"outputs":[{"name":"","type":"bytes[]","internalType":"bytes[]"}],"stateMutability":"payable"},{"type":"function","name":"executeNested","inputs":[{"name":"to","type":"address","internalType":"address"},{"name":"value","type":"uint256","internalType":"uint256"},{"name":"data","type":"bytes","internalType":"bytes"},{"name":"operation","type":"uint8","internalType":"uint8"},{"name":"proof","type":"tuple[]","internalType":"struct NestedAccountExecutor.ERC6551AccountInfo[]","components":[{"name":"salt","type":"bytes32","internalType":"bytes32"},{"name":"tokenContract","type":"address","internalType":"address"},{"name":"tokenId","type":"uint256","internalType":"uint256"}]}],"outputs":[{"name":"","type":"bytes","internalType":"bytes"}],"stateMutability":"payable"},{"type":"function","name":"extcall","inputs":[{"name":"to","type":"address","internalType":"address"},{"name":"value","type":"uint256","internalType":"uint256"},{"name":"data","type":"bytes","internalType":"bytes"}],"outputs":[{"name":"result","type":"bytes","internalType":"bytes"}],"stateMutability":"nonpayable"},{"type":"function","name":"extcreate","inputs":[{"name":"value","type":"uint256","internalType":"uint256"},{"name":"bytecode","type":"bytes","internalType":"bytes"}],"outputs":[{"name":"","type":"address","internalType":"address"}],"stateMutability":"nonpayable"},{"type":"function","name":"extcreate2","inputs":[{"name":"value","type":"uint256","internalType":"uint256"},{"name":"salt","type":"bytes32","internalType":"bytes32"},{"name":"bytecode","type":"bytes","internalType":"bytes"}],"outputs":[{"name":"","type":"address","internalType":"address"}],"stateMutability":"nonpayable"},{"type":"function","name":"extsload","inputs":[{"name":"slot","type":"bytes32","internalType":"bytes32"}],"outputs":[{"name":"value","type":"bytes32","internalType":"bytes32"}],"stateMutability":"view"},{"type":"function","name":"gapProjectUID","inputs":[],"outputs":[{"name":"","type":"bytes32","internalType":"bytes32"}],"stateMutability":"view"},{"type":"function","name":"gardenOperators","inputs":[{"name":"operator","type":"address","internalType":"address"}],"outputs":[{"name":"isOperator","type":"bool","internalType":"bool"}],"stateMutability":"view"},{"type":"function","name":"gardeners","inputs":[{"name":"gardener","type":"address","internalType":"address"}],"outputs":[{"name":"isGardener","type":"bool","internalType":"bool"}],"stateMutability":"view"},{"type":"function","name":"getGAPProjectUID","inputs":[],"outputs":[{"name":"","type":"bytes32","internalType":"bytes32"}],"stateMutability":"view"},{"type":"function","name":"getNonce","inputs":[],"outputs":[{"name":"","type":"uint256","internalType":"uint256"}],"stateMutability":"view"},{"type":"function","name":"initialize","inputs":[{"name":"_communityToken","type":"address","internalType":"address"},{"name":"_name","type":"string","internalType":"string"},{"name":"_description","type":"string","internalType":"string"},{"name":"_location","type":"string","internalType":"string"},{"name":"_bannerImage","type":"string","internalType":"string"},{"name":"_gardeners","type":"address[]","internalType":"address[]"},{"name":"_gardenOperators","type":"address[]","internalType":"address[]"}],"outputs":[],"stateMutability":"nonpayable"},{"type":"function","name":"isLocked","inputs":[],"outputs":[{"name":"","type":"bool","internalType":"bool"}],"stateMutability":"view"},{"type":"function","name":"isTrustedForwarder","inputs":[{"name":"forwarder","type":"address","internalType":"address"}],"outputs":[{"name":"","type":"bool","internalType":"bool"}],"stateMutability":"view"},{"type":"function","name":"isValidSignature","inputs":[{"name":"hash","type":"bytes32","internalType":"bytes32"},{"name":"signature","type":"bytes","internalType":"bytes"}],"outputs":[{"name":"magicValue","type":"bytes4","internalType":"bytes4"}],"stateMutability":"view"},{"type":"function","name":"isValidSigner","inputs":[{"name":"signer","type":"address","internalType":"address"},{"name":"data","type":"bytes","internalType":"bytes"}],"outputs":[{"name":"magicValue","type":"bytes4","internalType":"bytes4"}],"stateMutability":"view"},{"type":"function","name":"joinGarden","inputs":[],"outputs":[],"stateMutability":"nonpayable"},{"type":"function","name":"location","inputs":[],"outputs":[{"name":"","type":"string","internalType":"string"}],"stateMutability":"view"},{"type":"function","name":"lock","inputs":[{"name":"_lockedUntil","type":"uint256","internalType":"uint256"}],"outputs":[],"stateMutability":"nonpayable"},{"type":"function","name":"lockedUntil","inputs":[],"outputs":[{"name":"","type":"uint256","internalType":"uint256"}],"stateMutability":"view"},{"type":"function","name":"name","inputs":[],"outputs":[{"name":"","type":"string","internalType":"string"}],"stateMutability":"view"},{"type":"function","name":"onERC1155BatchReceived","inputs":[{"name":"","type":"address","internalType":"address"},{"name":"","type":"address","internalType":"address"},{"name":"","type":"uint256[]","internalType":"uint256[]"},{"name":"","type":"uint256[]","internalType":"uint256[]"},{"name":"","type":"bytes","internalType":"bytes"}],"outputs":[{"name":"","type":"bytes4","internalType":"bytes4"}],"stateMutability":"nonpayable"},{"type":"function","name":"onERC1155Received","inputs":[{"name":"","type":"address","internalType":"address"},{"name":"","type":"address","internalType":"address"},{"name":"","type":"uint256","internalType":"uint256"},{"name":"","type":"uint256","internalType":"uint256"},{"name":"","type":"bytes","internalType":"bytes"}],"outputs":[{"name":"","type":"bytes4","internalType":"bytes4"}],"stateMutability":"nonpayable"},{"type":"function","name":"onERC721Received","inputs":[{"name":"","type":"address","internalType":"address"},{"name":"","type":"address","internalType":"address"},{"name":"tokenId","type":"uint256","internalType":"uint256"},{"name":"","type":"bytes","internalType":"bytes"}],"outputs":[{"name":"","type":"bytes4","internalType":"bytes4"}],"stateMutability":"nonpayable"},{"type":"function","name":"openJoining","inputs":[],"outputs":[{"name":"","type":"bool","internalType":"bool"}],"stateMutability":"view"},{"type":"function","name":"overrides","inputs":[{"name":"","type":"address","internalType":"address"},{"name":"","type":"bytes4","internalType":"bytes4"}],"outputs":[{"name":"","type":"address","internalType":"address"}],"stateMutability":"view"},{"type":"function","name":"owner","inputs":[],"outputs":[{"name":"","type":"address","internalType":"address"}],"stateMutability":"view"},{"type":"function","name":"permissions","inputs":[{"name":"","type":"address","internalType":"address"},{"name":"","type":"address","internalType":"address"}],"outputs":[{"name":"","type":"bool","internalType":"bool"}],"stateMutability":"view"},{"type":"function","name":"proxiableUUID","inputs":[],"outputs":[{"name":"","type":"bytes32","internalType":"bytes32"}],"stateMutability":"view"},{"type":"function","name":"removeGardenOperator","inputs":[{"name":"operator","type":"address","internalType":"address"}],"outputs":[],"stateMutability":"nonpayable"},{"type":"function","name":"removeGardener","inputs":[{"name":"gardener","type":"address","internalType":"address"}],"outputs":[],"stateMutability":"nonpayable"},{"type":"function","name":"setOpenJoining","inputs":[{"name":"_openJoining","type":"bool","internalType":"bool"}],"outputs":[],"stateMutability":"nonpayable"},{"type":"function","name":"setOverrides","inputs":[{"name":"selectors","type":"bytes4[]","internalType":"bytes4[]"},{"name":"implementations","type":"address[]","internalType":"address[]"}],"outputs":[],"stateMutability":"nonpayable"},{"type":"function","name":"setPermissions","inputs":[{"name":"callers","type":"address[]","internalType":"address[]"},{"name":"_permissions","type":"bool[]","internalType":"bool[]"}],"outputs":[],"stateMutability":"nonpayable"},{"type":"function","name":"state","inputs":[],"outputs":[{"name":"","type":"uint256","internalType":"uint256"}],"stateMutability":"view"},{"type":"function","name":"supportsInterface","inputs":[{"name":"interfaceId","type":"bytes4","internalType":"bytes4"}],"outputs":[{"name":"","type":"bool","internalType":"bool"}],"stateMutability":"view"},{"type":"function","name":"token","inputs":[],"outputs":[{"name":"chainId","type":"uint256","internalType":"uint256"},{"name":"tokenContract","type":"address","internalType":"address"},{"name":"tokenId","type":"uint256","internalType":"uint256"}],"stateMutability":"view"},{"type":"function","name":"transferGAPProjectOwnership","inputs":[{"name":"newOwner","type":"address","internalType":"address"}],"outputs":[],"stateMutability":"nonpayable"},{"type":"function","name":"updateDescription","inputs":[{"name":"_description","type":"string","internalType":"string"}],"outputs":[],"stateMutability":"nonpayable"},{"type":"function","name":"updateName","inputs":[{"name":"_name","type":"string","internalType":"string"}],"outputs":[],"stateMutability":"nonpayable"},{"type":"function","name":"upgradeTo","inputs":[{"name":"newImplementation","type":"address","internalType":"address"}],"outputs":[],"stateMutability":"nonpayable"},{"type":"function","name":"upgradeToAndCall","inputs":[{"name":"newImplementation","type":"address","internalType":"address"},{"name":"data","type":"bytes","internalType":"bytes"}],"outputs":[],"stateMutability":"payable"},{"type":"function","name":"validateUserOp","inputs":[{"name":"userOp","type":"tuple","internalType":"struct UserOperation","components":[{"name":"sender","type":"address","internalType":"address"},{"name":"nonce","type":"uint256","internalType":"uint256"},{"name":"initCode","type":"bytes","internalType":"bytes"},{"name":"callData","type":"bytes","internalType":"bytes"},{"name":"callGasLimit","type":"uint256","internalType":"uint256"},{"name":"verificationGasLimit","type":"uint256","internalType":"uint256"},{"name":"preVerificationGas","type":"uint256","internalType":"uint256"},{"name":"maxFeePerGas","type":"uint256","internalType":"uint256"},{"name":"maxPriorityFeePerGas","type":"uint256","internalType":"uint256"},{"name":"paymasterAndData","type":"bytes","internalType":"bytes"},{"name":"signature","type":"bytes","internalType":"bytes"}]},{"name":"userOpHash","type":"bytes32","internalType":"bytes32"},{"name":"missingAccountFunds","type":"uint256","internalType":"uint256"}],"outputs":[{"name":"validationData","type":"uint256","internalType":"uint256"}],"stateMutability":"nonpayable"},{"type":"event","name":"AdminChanged","inputs":[{"name":"previousAdmin","type":"address","indexed":false,"internalType":"address"},{"name":"newAdmin","type":"address","indexed":false,"internalType":"address"}],"anonymous":false},{"type":"event","name":"BeaconUpgraded","inputs":[{"name":"beacon","type":"address","indexed":true,"internalType":"address"}],"anonymous":false},{"type":"event","name":"DescriptionUpdated","inputs":[{"name":"updater","type":"address","indexed":true,"internalType":"address"},{"name":"newDescription","type":"string","indexed":false,"internalType":"string"}],"anonymous":false},{"type":"event","name":"GAPProjectCreated","inputs":[{"name":"projectUID","type":"bytes32","indexed":true,"internalType":"bytes32"},{"name":"gardenAddress","type":"address","indexed":true,"internalType":"address"},{"name":"projectName","type":"string","indexed":false,"internalType":"string"}],"anonymous":false},{"type":"event","name":"GardenOperatorAdded","inputs":[{"name":"updater","type":"address","indexed":true,"internalType":"address"},{"name":"operator","type":"address","indexed":true,"internalType":"address"}],"anonymous":false},{"type":"event","name":"GardenOperatorRemoved","inputs":[{"name":"updater","type":"address","indexed":true,"internalType":"address"},{"name":"operator","type":"address","indexed":true,"internalType":"address"}],"anonymous":false},{"type":"event","name":"GardenerAdded","inputs":[{"name":"updater","type":"address","indexed":true,"internalType":"address"},{"name":"gardener","type":"address","indexed":true,"internalType":"address"}],"anonymous":false},{"type":"event","name":"GardenerRemoved","inputs":[{"name":"updater","type":"address","indexed":true,"internalType":"address"},{"name":"gardener","type":"address","indexed":true,"internalType":"address"}],"anonymous":false},{"type":"event","name":"Initialized","inputs":[{"name":"version","type":"uint8","indexed":false,"internalType":"uint8"}],"anonymous":false},{"type":"event","name":"LockUpdated","inputs":[{"name":"lockedUntil","type":"uint256","indexed":false,"internalType":"uint256"}],"anonymous":false},{"type":"event","name":"NameUpdated","inputs":[{"name":"updater","type":"address","indexed":true,"internalType":"address"},{"name":"newName","type":"string","indexed":false,"internalType":"string"}],"anonymous":false},{"type":"event","name":"OverrideUpdated","inputs":[{"name":"owner","type":"address","indexed":false,"internalType":"address"},{"name":"selector","type":"bytes4","indexed":false,"internalType":"bytes4"},{"name":"implementation","type":"address","indexed":false,"internalType":"address"}],"anonymous":false},{"type":"event","name":"PermissionUpdated","inputs":[{"name":"owner","type":"address","indexed":false,"internalType":"address"},{"name":"caller","type":"address","indexed":false,"internalType":"address"},{"name":"hasPermission","type":"bool","indexed":false,"internalType":"bool"}],"anonymous":false},{"type":"event","name":"Upgraded","inputs":[{"name":"implementation","type":"address","indexed":true,"internalType":"address"}],"anonymous":false},{"type":"error","name":"AccountLocked","inputs":[]},{"type":"error","name":"AlreadyGardener","inputs":[]},{"type":"error","name":"ContractCreationFailed","inputs":[]},{"type":"error","name":"ExceedsMaxLockTime","inputs":[]},{"type":"error","name":"GAPImpactCreationFailed","inputs":[]},{"type":"error","name":"GAPMilestoneCreationFailed","inputs":[]},{"type":"error","name":"GAPNotSupportedOnChain","inputs":[]},{"type":"error","name":"GAPOwnershipTransferFailed","inputs":[]},{"type":"error","name":"GAPProjectNotInitialized","inputs":[]},{"type":"error","name":"InvalidAccountProof","inputs":[]},{"type":"error","name":"InvalidERC6551Registry","inputs":[]},{"type":"error","name":"InvalidEntryPoint","inputs":[]},{"type":"error","name":"InvalidGAPOwner","inputs":[]},{"type":"error","name":"InvalidImplementation","inputs":[]},{"type":"error","name":"InvalidInput","inputs":[]},{"type":"error","name":"InvalidInvite","inputs":[]},{"type":"error","name":"InvalidMulticallForwarder","inputs":[]},{"type":"error","name":"InvalidOperation","inputs":[]},{"type":"error","name":"KarmaGAPNotSupported","inputs":[]},{"type":"error","name":"NotAuthorized","inputs":[]},{"type":"error","name":"NotAuthorizedCaller","inputs":[]},{"type":"error","name":"NotGardenOperator","inputs":[]},{"type":"error","name":"NotGardenOwner","inputs":[]},{"type":"error","name":"OwnershipCycle","inputs":[]},{"type":"error","name":"TooManyGardeners","inputs":[]},{"type":"error","name":"TooManyOperators","inputs":[]}],"bytecode":{"object":"0x6101803461025657601f616c6638819003918201601f1916830191906001600160401b0383118484101761025a578160c092859260409586528339810103126102565761004b8261026e565b6100576020840161026e565b9261006383820161026e565b916100706060830161026e565b9461008960a06100826080860161026e565b940161026e565b936001600160a01b039283168015610245576080523060a052828116156102355760c05260e081905281161561022457610100941684526101209230845261014091825261016092835260045460ff8160081c166101d05760ff80821603610196575b5051926169e39485610283863960805185818161119101528181611f49015281816122f6015261443a015260a051858181612b9b01526156b3015260c05185818161060601528181612bbc01526156d5015260e05185818161181c01528181615876015261662601525184818161457101526147e1015251838181610de0015281816114df01526117320152518281816120dc0152612247015251818181610f870152611a8c0152f35b60ff90811916176004557f7f26b83ff96e1f2b6a682f133852f6798a09c465da95921460cefb38474024986020825160ff8152a15f6100ec565b815162461bcd60e51b815260206004820152602760248201527f496e697469616c697a61626c653a20636f6e747261637420697320696e697469604482015266616c697a696e6760c81b6064820152608490fd5b835163754c753360e11b8152600490fd5b85516246a29560e81b8152600490fd5b8651632039d3c960e01b8152600490fd5b5f80fd5b634e487b7160e01b5f52604160045260245ffd5b51906001600160a01b03821682036102565756fe60806040526004361015610026575b361561001e5761001c61416c565b005b61001c61416c565b5f3560e01c806301ffc9a714610390578063039721b11461038b578063056d5afe1461038657806306fdde0314610381578063150b7a021461037c5780631626ba7e146103775780631e2eaeaf146103725780631f6e45e31461036d5780631f9838b5146103685780631fb1ecf014610363578063291d05481461035e57806329aa16171461035957806334715fb1146103545780633659cfe61461034f5780633a208f951461034a5780633a25bc32146103455780633a871cdd1461034057806343629a731461033b57806345a24e3e1461033657806347f5fddd146103315780634f1ef2861461032c578063516f279e146103275780635194544714610322578063523e32601461031d57806352d1902d14610318578063572b6c05146103135780637284e4161461030e5780637597bc7c146103095780637a8f73561461030457806381eec6bb146102ff57806384da92a7146102fa5780638da5cb5b146102f557806394def29d146102f057806398b7a25a146102eb578063a4e2d634146102e6578063adbce85e146102e1578063b0d691fe146102dc578063b10006a6146102d7578063b709467c146102d2578063b900ace8146102cd578063bc197c81146102c8578063bcc5cf88146102c3578063c19d93fb146102be578063ce0617ec146102b9578063d087d288146102b4578063dd467064146102af578063e735b48a146102aa578063eaff6dc9146102a5578063ee9c6054146102a0578063eeb970571461029b578063eed9df7414610296578063f23a6e6114610291578063f7fc57b01461028c578063f89b9b931461028c5763fc0c546a0361000e57612900565b6128e3565b612869565b612779565b6126ca565b612666565b6125b4565b61241f565b612369565b6122a4565b612288565b61226b565b612228565b612187565b6120b4565b612063565b611f6d565b611f2a565b611e7c565b611e5e565b611dcf565b611cf5565b611cd8565b611b2d565b611a65565b61189f565b61185e565b611843565b6117ed565b611718565b6116cf565b61165e565b611643565b61149a565b6113d5565b611385565b6112a2565b611152565b610fab565b610f68565b610db7565b610d5c565b610d33565b610d11565b610c77565b610c06565b610bc5565b610ba6565b610b55565b610a45565b61095a565b6105e7565b610458565b6103ab565b6001600160e01b03198116036103a757565b5f80fd5b346103a75760203660031901126103a75760206103d26004356103cd81610395565b612938565b6040519015158152f35b9181601f840112156103a75782359167ffffffffffffffff83116103a7576020808501948460051b0101116103a757565b60406003198201126103a75767ffffffffffffffff916004358381116103a7578261043a916004016103dc565b939093926024359182116103a757610454916004016103dc565b9091565b346103a7576104663661040d565b929061048161047c6104766140ae565b916152f7565b6156b0565b6001600160a01b03811680156105b35733036105b35761049f61410c565b838503610589575f5b8481106104b157005b806105216104ca6104c56001948a88612aa8565b612abd565b6105106104e8866001600160a01b03165f52600260205260405f2090565b6104fb6104f6868c8c612aa8565b612ac7565b6001600160a01b03165f5260205260405f2090565b9060ff801983541691151516179055565b7f394777a58092892d136a90c4bb7e4350c72ac50fba6a0208128677f36527dcf56105506104f6838989612aa8565b61055e6104c5848b89612aa8565b604080516001600160a01b03888116825293909316602084015290151590820152606090a1016104a8565b60046040517fb4fa3fb3000000000000000000000000000000000000000000000000000000008152fd5b60046040517fea8e4eb5000000000000000000000000000000000000000000000000000000008152fd5b5f9103126103a757565b346103a7575f3660031901126103a75760206040516001600160a01b037f0000000000000000000000000000000000000000000000000000000000000000168152f35b90600182811c92168015610658575b602083101461064457565b634e487b7160e01b5f52602260045260245ffd5b91607f1691610639565b634e487b7160e01b5f52604160045260245ffd5b67ffffffffffffffff811161068a57604052565b610662565b6040810190811067ffffffffffffffff82111761068a57604052565b6020810190811067ffffffffffffffff82111761068a57604052565b6060810190811067ffffffffffffffff82111761068a57604052565b90601f8019910116810190811067ffffffffffffffff82111761068a57604052565b604051905f82600554916107188361062a565b808352926020906001908181169081156107a45750600114610745575b5050610743925003836106e3565b565b91509260055f527f036b6384b5eca791c62761152d0c79bb0604c104a5fb6f4eb0703f3154bb3db0935f925b82841061078c57506107439450505081016020015f80610735565b85548885018301529485019487945092810192610771565b9150506020925061074394915060ff191682840152151560051b8201015f80610735565b604051905f82600754916107db8361062a565b808352926020906001908181169081156107a45750600114610805575050610743925003836106e3565b91509260075f527fa66cc928b5edb82af9bd49922954155ab7b0942694bea4ce44661d9a8736c688935f925b82841061084c57506107439450505081016020015f80610735565b85548885018301529485019487945092810192610831565b604051905f82600654916108778361062a565b808352926020906001908181169081156107a457506001146108a1575050610743925003836106e3565b91509260065f527ff652222313e28459528d920b65115c16c04f3efc82aaedc97be59f3f377c0d3f935f925b8284106108e857506107439450505081016020015f80610735565b855488850183015294850194879450928101926108cd565b5f5b8381106109115750505f910152565b8181015183820152602001610902565b9060209161093a81518092818552858086019101610900565b601f01601f1916010190565b906020610957928181520190610921565b90565b346103a7575f3660031901126103a757610989610975610705565b604051918291602083526020830190610921565b0390f35b6001600160a01b038116036103a757565b600435906107438261098d565b6040519060c0820182811067ffffffffffffffff82111761068a57604052565b604051906107438261068f565b67ffffffffffffffff811161068a57601f01601f191660200190565b929192610a00826109d8565b91610a0e60405193846106e3565b8294818452818301116103a7578281602093845f960137010152565b9080601f830112156103a757816020610957933591016109f4565b346103a75760803660031901126103a757610a6160043561098d565b610a6c60243561098d565b60643567ffffffffffffffff81116103a757610a8c903690600401610a2a565b506001600160a01b03610a9d6140ae565b921633149182610b1b575b5081610b11575b50610ae757610abc61416c565b6040517f150b7a02000000000000000000000000000000000000000000000000000000008152602090f35b60046040517fb79e3f3f000000000000000000000000000000000000000000000000000000008152fd5b905046145f610aaf565b6044351491505f610aa8565b9181601f840112156103a75782359167ffffffffffffffff83116103a757602083818601950101116103a757565b346103a75760403660031901126103a75760243567ffffffffffffffff81116103a757610b94610b8b6020923690600401610b27565b90600435612ad1565b6001600160e01b031960405191168152f35b346103a75760203660031901126103a757602060043554604051908152f35b346103a75760203660031901126103a7576001600160a01b03600435610bea8161098d565b165f526009602052602060ff60405f2054166040519015158152f35b346103a75760403660031901126103a757602060ff610c60600435610c2a8161098d565b6001600160a01b0360243591610c3f8361098d565b165f526002845260405f20906001600160a01b03165f5260205260405f2090565b54166040519015158152f35b60ff8116036103a757565b60a03660031901126103a757600435610c8f8161098d565b67ffffffffffffffff6044358181116103a757610cb0903690600401610b27565b919092606435610cbf81610c6c565b608435938385116103a757366023860112156103a75784600401359384116103a75736602460608602870101116103a757610989956024610d0596019360243590612b34565b60405191829182610946565b346103a7575f3660031901126103a757602060ff600b54166040519015158152f35b346103a7575f3660031901126103a75760206001600160a01b0360045460101c16604051908152f35b346103a75760603660031901126103a75760443567ffffffffffffffff81116103a757610da6610d926020923690600401610b27565b90610d9b61472b565b602435600435614745565b6001600160a01b0360405191168152f35b346103a75760203660031901126103a757600435610dd48161098d565b6001600160a01b0390817f00000000000000000000000000000000000000000000000000000000000000001691610e0d83301415612d2a565b610e3c7f360894a13ba1a3210667c828492db98dca3e2076cc3735a920a3ca505d382bbc938285541614612d9b565b610e4582614797565b60405190610e52826106ab565b5f82527f4910fdfa16fed3260ed0e7147f7cc6da11a60208b5b9406d12a635614ffd91435460ff1615610e8b57505061001c91506159dc565b6020600491604094939451928380926352d1902d60e01b825286165afa5f9181610f37575b50610f245760405162461bcd60e51b815260206004820152602e60248201527f45524331393637557067726164653a206e657720696d706c656d656e7461746960448201527f6f6e206973206e6f7420555550530000000000000000000000000000000000006064820152608490fd5b0390fd5b61001c93610f329114614874565b61598b565b610f5a91925060203d602011610f61575b610f5281836106e3565b810190613981565b905f610eb0565b503d610f48565b346103a7575f3660031901126103a75760206040516001600160a01b037f0000000000000000000000000000000000000000000000000000000000000000168152f35b346103a75760203660031901126103a75760048035610fc98161098d565b610fd161586c565b906040915f8351610fe1816106ab565b52610feb816148e5565b159081611132575b5061112457600c5480156111155761101061100c614943565b1590565b611106576001600160a01b038216156110de5761103d6110316110316149c8565b6001600160a01b031690565b91823b156103a75783517fa544d7470000000000000000000000000000000000000000000000000000000081528581019283526001600160a01b039091166020830152915f9183919082908490829060400103925af190816110c5575b5061001c57517fd89e7495000000000000000000000000000000000000000000000000000000008152fd5b806110d26110d892610676565b806105dd565b5f61109a565b5050517f45e4f565000000000000000000000000000000000000000000000000000000008152fd5b5050516384352a0160e01b8152fd5b5050516304f102a360e01b8152fd5b5051633cebab8560e21b8152fd5b6001600160a01b039150165f52600a60205260ff825f205416155f610ff3565b346103a7576003196060368201126103a7576004359067ffffffffffffffff82116103a7576101609082360301126103a7576044356001600160a01b037f00000000000000000000000000000000000000000000000000000000000000001633036111fb576111ca6109899260243590600401614a2c565b90806111e2575b506040519081529081906020820190565b5f80808093338219f1506111f461407f565b505f6111d1565b606460405162461bcd60e51b815260206004820152601c60248201527f6163636f756e743a206e6f742066726f6d20456e747279506f696e74000000006044820152fd5b6020808201906020835283518092526040830192602060408460051b8301019501935f915b8483106112745750505050505090565b9091929394958480611292600193603f198682030187528a51610921565b9801930193019194939290611264565b6020806003193601126103a75760043567ffffffffffffffff81116103a7576112cf9036906004016103dc565b916112e361100c6112de61586c565b61442c565b6105b3576112ef61410c565b6112f883612e7b565b925f5b8181106113105760405180610989878261123f565b806113696113246104f66001948689612ec4565b848787611332868484612ec4565b0135611363606061135d8861135561134b828989612ec4565b6040810190612ee6565b979096612ec4565b01612f19565b93614603565b6113738288612f23565b5261137e8187612f23565b50016112fb565b346103a75760403660031901126103a75760243567ffffffffffffffff81116103a757610da66113cd6113be6020933690600401610b27565b6113c661472b565b36916109f4565b600435614a7c565b346103a75760e03660031901126103a7576113ee61099e565b6024359067ffffffffffffffff908183116103a75761141260049336908501610b27565b90926044358181116103a75761142b9036908701610b27565b906064358381116103a7576114439036908901610b27565b906084358581116103a75761145b9036908b01610b27565b94909360a4358781116103a7576114759036908d016103dc565b98909760c4359081116103a75761001c9c611492913691016103dc565b9b909a612f37565b60403660031901126103a7576004356114b28161098d565b60243567ffffffffffffffff81116103a7576114d2903690600401610a2a565b906001600160a01b0391827f0000000000000000000000000000000000000000000000000000000000000000169261150c84301415612d2a565b61153b7f360894a13ba1a3210667c828492db98dca3e2076cc3735a920a3ca505d382bbc948286541614612d9b565b61154483614797565b7f4910fdfa16fed3260ed0e7147f7cc6da11a60208b5b9406d12a635614ffd91435460ff161561157a57505061001c91506159dc565b6020600491604094939451928380926352d1902d60e01b825286165afa5f9181611622575b5061160f5760405162461bcd60e51b815260206004820152602e60248201527f45524331393637557067726164653a206e657720696d706c656d656e7461746960448201527f6f6e206973206e6f7420555550530000000000000000000000000000000000006064820152608490fd5b61001c9361161d9114614874565b6158be565b61163c91925060203d602011610f6157610f5281836106e3565b905f61159f565b346103a7575f3660031901126103a7576109896109756107c8565b60803660031901126103a7576004356116768161098d565b60443567ffffffffffffffff81116103a757611696903690600401610b27565b606492919235906116a682610c6c565b6116b16112de61586c565b156105b35761098993610975936116c661410c565b60243590614603565b346103a75760403660031901126103a7576004356116ec8161098d565b60243567ffffffffffffffff81116103a757602091611712610b94923690600401610b27565b9161391e565b346103a7575f3660031901126103a7576001600160a01b037f0000000000000000000000000000000000000000000000000000000000000000163003611783576040517f360894a13ba1a3210667c828492db98dca3e2076cc3735a920a3ca505d382bbc8152602090f35b608460405162461bcd60e51b815260206004820152603860248201527f555550535570677261646561626c653a206d757374206e6f742062652063616c60448201527f6c6564207468726f7567682064656c656761746563616c6c00000000000000006064820152fd5b346103a75760203660031901126103a757602060043561180c8161098d565b6001600160a01b039060405191807f0000000000000000000000000000000000000000000000000000000000000000169116148152f35b346103a7575f3660031901126103a757610989610975610864565b346103a75760203660031901126103a7576001600160a01b036004356118838161098d565b165f52600a602052602060ff60405f2054166040519015158152f35b346103a7576118ad3661040d565b92906118bd61047c6104766140ae565b6001600160a01b03811680156105b35733036105b3576118db61410c565b6118e430614f5c565b3b156119f5575b838503610589575f5b8481106118fd57005b806119806119116104f66001948a88612aa8565b61195861192f866001600160a01b03165f52600160205260405f2090565b61194261193d868c8c612aa8565b613960565b6001600160e01b0319165f5260205260405f2090565b906001600160a01b031673ffffffffffffffffffffffffffffffffffffffff19825416179055565b7f2c722487e90aca38ec1b074c3403210bd2bfb769b4da7f12f7bf0b9e37517c186119af61193d838989612aa8565b6119bd6104f6848b89612aa8565b604080516001600160a01b0380891682526001600160e01b03199094166020820152929091169082015280606081010390a1016118f4565b6119fe30614fab565b6118eb565b9060606003198301126103a75767ffffffffffffffff6004358181116103a75783611a3091600401610b27565b939093926024358381116103a75782611a4b91600401610b27565b939093926044359182116103a75761045491600401610b27565b346103a757611a7336611a03565b505090611a8193929361586c565b6001600160a01b03807f000000000000000000000000000000000000000000000000000000000000000016911603611ac757602093611abf93613a08565b604051908152f35b60046040517f7046c88d000000000000000000000000000000000000000000000000000000008152fd5b60206003198201126103a7576004359067ffffffffffffffff82116103a757806023830112156103a757816024610957936004013591016109f4565b346103a757611b3b36611af1565b611b4361586c565b5f604051611b50816106ab565b52611b5a816148e5565b15611cae57815167ffffffffffffffff811161068a57611b8481611b7f60055461062a565b61307c565b602080601f8311600114611c02575091611bdd826001600160a01b03937f74321da206c1b9fa34367f7ece59ca49371dcd13820b9a5c3767ae1ecceed51a955f91611bf7575b508160011b915f199060031b1c19161790565b6005555b611bf2604051928392169482610946565b0390a2005b90508601515f611bca565b60055f5290601f1983167f036b6384b5eca791c62761152d0c79bb0604c104a5fb6f4eb0703f3154bb3db0925f905b828210611c96575050927f74321da206c1b9fa34367f7ece59ca49371dcd13820b9a5c3767ae1ecceed51a9492600192826001600160a01b039610611c7e575b5050811b01600555611be1565b8701515f1960f88460031b161c191690555f80611c71565b80600185968294968b01518155019501930190611c31565b60046040517fd8cae624000000000000000000000000000000000000000000000000000000008152fd5b346103a7575f3660031901126103a7576020610da66104766140ae565b346103a7575f3660031901126103a7576040515f600854611d158161062a565b80845290602090600190818116908115611d9b5750600114611d42575b61098985610d05818703826106e3565b60085f90815293507ff3f7a9fe364faab93b216da50a3214154f22a0a2b415b23a84c8169e8b636ee35b838510611d8857505050508101602001610d0582610989611d32565b8054868601840152938201938101611d6c565b86955061098996935060209250610d0594915060ff191682840152151560051b8201019293611d32565b801515036103a757565b346103a75760203660031901126103a757600435611dec81611dc5565b611df461586c565b5f604051611e01816106ab565b52611e0b816148e5565b159081611e3d575b50611e2c5760ff8019600b54169115151617600b555f80f35b6004604051633cebab8560e21b8152fd5b6001600160a01b039150165f52600a60205260ff60405f205416155f611e13565b346103a7575f3660031901126103a75760205f546040519042108152f35b346103a75760203660031901126103a757600435611e998161098d565b611ea161586c565b5f604051611eae816106ab565b52611eb8816148e5565b15611cae576001600160a01b0380831691825f52600a60205260405f2060ff198154169055167fdd1e1c7c82ab1f3ed1b1656e8200309ebf9f682a74ce7737d3bfde87a7fecb085f80a3611f0a614943565b80611f1f575b611f1657005b61001c90615367565b50600c541515611f10565b346103a7575f3660031901126103a75760206040516001600160a01b037f0000000000000000000000000000000000000000000000000000000000000000168152f35b346103a7575f3660031901126103a75760ff600b54161561203957611f9061586c565b60ff611fad826001600160a01b03165f52600960205260405f2090565b541661200f5780611fe7611fda6001600160a01b03936001600160a01b03165f52600960205260405f2090565b805460ff19166001179055565b16307fc0b9de905219d7679d6f05d6061fa6ef557a687d2c44c314b58bb793f5dba4945f80a3005b60046040517f42375a1e000000000000000000000000000000000000000000000000000000008152fd5b60046040517fdb926eba000000000000000000000000000000000000000000000000000000008152fd5b346103a75760603660031901126103a7576004356120808161098d565b60443567ffffffffffffffff81116103a757610989916120aa6113be610975933690600401610b27565b90602435906153d3565b346103a7576120c236611a03565b926120d195949592919261586c565b6001600160a01b03807f000000000000000000000000000000000000000000000000000000000000000016911603611ac757602095611abf95613c1e565b67ffffffffffffffff811161068a5760051b60200190565b9080601f830112156103a75760209082356121418161210f565b9361214f60405195866106e3565b81855260208086019260051b8201019283116103a757602001905b828210612178575050505090565b8135815290830190830161216a565b346103a75760a03660031901126103a7576121a360043561098d565b6121ae60243561098d565b67ffffffffffffffff6044358181116103a7576121cf903690600401612127565b506064358181116103a7576121e8903690600401612127565b506084359081116103a757612201903690600401610a2a565b5061098961220d613fd6565b6040516001600160e01b031990911681529081906020820190565b346103a7575f3660031901126103a75760206040516001600160a01b037f0000000000000000000000000000000000000000000000000000000000000000168152f35b346103a7575f3660031901126103a7576020600354604051908152f35b346103a7575f3660031901126103a75760205f54604051908152f35b346103a7575f3660031901126103a7576040517f35567e1a0000000000000000000000000000000000000000000000000000000081523060048201525f60248201526020816044816001600160a01b037f0000000000000000000000000000000000000000000000000000000000000000165afa8015612364575f90612330575b604051908152602090f35b506020813d60201161235c575b8161234a602093836106e3565b810103126103a7576109899051612325565b3d915061233d565b612b14565b346103a75760203660031901126103a7576004356001600160a01b0361239361047c6104766140ae565b1680156105b35733036105b3576123a942614016565b81116123f5576123f07fa7b24c66dd3269a292a60b3facdbb8f3e7557d1e19e64d99e0d6ee7250be63ad916123dc61410c565b805f55604051918291829190602083019252565b0390a1005b60046040517f0c0a7be8000000000000000000000000000000000000000000000000000000008152fd5b346103a75761242d36611af1565b61243561586c565b5f604051612442816106ab565b5261244c816148e5565b1580612594575b611e2c57815167ffffffffffffffff811161068a5761247c8161247760065461062a565b6130e9565b602080601f83116001146124e85750916124d4826001600160a01b03937f37cc8c6ced0cbc4d440fcfa810a2f09f40b8f0127c3656103edf26b3d93e0ec1955f91611bf757508160011b915f199060031b1c19161790565b600655611bf2604051928392169482610946565b60065f5290601f1983167ff652222313e28459528d920b65115c16c04f3efc82aaedc97be59f3f377c0d3f925f905b82821061257c575050927f37cc8c6ced0cbc4d440fcfa810a2f09f40b8f0127c3656103edf26b3d93e0ec19492600192826001600160a01b039610612564575b5050811b01600655611be1565b8701515f1960f88460031b161c191690555f80612557565b80600185968294968b01518155019501930190612517565b506001600160a01b0381165f52600a60205260ff60405f20541615612453565b346103a75760203660031901126103a7576004356125d18161098d565b6125d961586c565b905f6040516125e7816106ab565b526125f1826148e5565b1580612646575b611e2c576001600160a01b0380911691825f52600960205260405f20600160ff19825416179055167fc0b9de905219d7679d6f05d6061fa6ef557a687d2c44c314b58bb793f5dba4945f80a3005b506001600160a01b0382165f52600a60205260ff60405f205416156125f8565b346103a75760403660031901126103a75760206004356126858161098d565b6126c060243561269481610395565b6001600160a01b038093165f526001845260405f20906001600160e01b0319165f5260205260405f2090565b5416604051908152f35b346103a75760203660031901126103a7576004356126e78161098d565b6126ef61586c565b905f6040516126fd816106ab565b52612707826148e5565b1580612759575b611e2c576001600160a01b0380911691825f52600960205260405f2060ff198154169055167f8a44d725ac751003f7f644f7ce70382fa06f348023717d057b7aa5c8778770d25f80a3005b506001600160a01b0382165f52600a60205260ff60405f2054161561270e565b346103a75760203660031901126103a7576004356127968161098d565b61279e61586c565b5f6040516127ab816106ab565b526127b5816148e5565b1580612849575b611e2c576001600160a01b0380831691825f52600a60205260405f20600160ff1982541617905560096020526127fc60405f20600160ff19825416179055565b167f06216f26a4a5b9c90aa5e1f990342de8fa80a0c447e3c6143fbaf0c7747edd715f80a3612829614943565b8061283e575b61283557005b61001c90614e93565b50600c54151561282f565b506001600160a01b0381165f52600a60205260ff60405f205416156127bc565b346103a75760a03660031901126103a75761288560043561098d565b61289060243561098d565b60843567ffffffffffffffff81116103a7576128b0903690600401610a2a565b506128b961416c565b60206040517ff23a6e61000000000000000000000000000000000000000000000000000000008152f35b346103a7575f3660031901126103a7576020600c54604051908152f35b346103a7575f3660031901126103a75760606001600160a01b036129226140ae565b9192906040519384521660208301526040820152f35b6001600160e01b03198091167f51945447000000000000000000000000000000000000000000000000000000008114908115612a04575b506129fe576129bf6129999161047c6129866140ae565b6001600160a01b039692939187946152f7565b165f52600160205260405f20905f35166001600160e01b0319165f5260205260405f2090565b5416806129cb57505f90565b5f8091604051806129dc8136614073565b03915afa6129e861407f565b90156129f657602081519101f35b602081519101fd5b50600190565b7f6faff5f100000000000000000000000000000000000000000000000000000000811491508115612a37575b505f61296f565b7f4e2312e000000000000000000000000000000000000000000000000000000000811491508115612a6a575b505f612a30565b7f01ffc9a7000000000000000000000000000000000000000000000000000000009150145f612a63565b634e487b7160e01b5f52603260045260245ffd5b9190811015612ab85760051b0190565b612a94565b3561095781611dc5565b356109578161098d565b90612adc92916142c9565b612ae4575f90565b630b135d3f60e11b90565b9190811015612ab8576060020190565b908160209103126103a7575161095781611dc5565b6040513d5f823e3d90fd5b908160209103126103a757516109578161098d565b95949091929394612b4361586c565b915f915b808310612b725750505061100c612b5d9161442c565b6105b35761095794612b6d61410c565b614603565b909192612b80848385612aef565b90612b8d60208301612ac7565b612be06040840135824686357f00000000000000000000000000000000000000000000000000000000000000007f00000000000000000000000000000000000000000000000000000000000000006143a4565b92813b15612c5757833b612c99575b604080516331a9108f60e11b815291013560048201529190602090839060249082906001600160a01b03165afa5f9281612c68575b50612c3a576004604051631052dd2560e21b8152fd5b6001600160a01b03809116911603612c5757926001019190612b47565b6004604051631052dd2560e21b8152fd5b612c8b91935060203d602011612c92575b612c8381836106e3565b810190612b1f565b915f612c24565b503d612c79565b6040517fa4e2d63400000000000000000000000000000000000000000000000000000000815260049060208183816001600160a01b038a165afa908115612364575f91612cfb575b50612cec5750612bef565b604051636315bfbb60e01b8152fd5b612d1d915060203d602011612d23575b612d1581836106e3565b810190612aff565b5f612ce1565b503d612d0b565b15612d3157565b608460405162461bcd60e51b815260206004820152602c60248201527f46756e6374696f6e206d7573742062652063616c6c6564207468726f7567682060448201527f64656c656761746563616c6c00000000000000000000000000000000000000006064820152fd5b15612da257565b608460405162461bcd60e51b815260206004820152602c60248201527f46756e6374696f6e206d7573742062652063616c6c6564207468726f7567682060448201527f6163746976652070726f787900000000000000000000000000000000000000006064820152fd5b60405190612e19826106ab565b5f8252565b6040519060a0820182811067ffffffffffffffff82111761068a576040526080808352366020840137565b90612e53826109d8565b612e6060405191826106e3565b8281528092612e71601f19916109d8565b0190602036910137565b90612e858261210f565b612e9260405191826106e3565b8281528092612ea3601f199161210f565b01905f5b828110612eb357505050565b806060602080938501015201612ea7565b9190811015612ab85760051b81013590607e19813603018212156103a7570190565b903590601e19813603018212156103a7570180359067ffffffffffffffff82116103a7576020019181360383136103a757565b3561095781610c6c565b8051821015612ab85760209160051b010190565b9a98969492909160ff9c9a989694926004549d8e60081c1615809e819f61306e575b811561304e575b5015612fe457612f869c8e612f7d600160ff196004541617600455565b612fcb576135b3565b612f8c57565b612f9c61ff001960045416600455565b604051600181527f7f26b83ff96e1f2b6a682f133852f6798a09c465da95921460cefb384740249890602090a1565b612fdf61010061ff00196004541617600455565b6135b3565b608460405162461bcd60e51b815260206004820152602e60248201527f496e697469616c697a61626c653a20636f6e747261637420697320616c72656160448201527f647920696e697469616c697a65640000000000000000000000000000000000006064820152fd5b303b15915081613060575b505f612f60565b6001915060ff16145f613059565b600160ff8216109150612f59565b601f8111613088575050565b60055f527f036b6384b5eca791c62761152d0c79bb0604c104a5fb6f4eb0703f3154bb3db0906020601f840160051c830193106130df575b601f0160051c01905b8181106130d4575050565b5f81556001016130c9565b90915081906130c0565b601f81116130f5575050565b60065f527ff652222313e28459528d920b65115c16c04f3efc82aaedc97be59f3f377c0d3f906020601f840160051c8301931061314c575b601f0160051c01905b818110613141575050565b5f8155600101613136565b909150819061312d565b601f8111613162575050565b60075f527fa66cc928b5edb82af9bd49922954155ab7b0942694bea4ce44661d9a8736c688906020601f840160051c830193106131b9575b601f0160051c01905b8181106131ae575050565b5f81556001016131a3565b909150819061319a565b601f81116131cf575050565b60085f527ff3f7a9fe364faab93b216da50a3214154f22a0a2b415b23a84c8169e8b636ee3906020601f840160051c83019310613226575b601f0160051c01905b81811061321b575050565b5f8155600101613210565b9091508190613207565b919067ffffffffffffffff811161068a5761325081611b7f60055461062a565b5f601f821160011461328e57819061327e93945f92613283575b50508160011b915f199060031b1c19161790565b600555565b013590505f8061326a565b60055f52601f198216937f036b6384b5eca791c62761152d0c79bb0604c104a5fb6f4eb0703f3154bb3db0915f5b8681106132f357508360019596106132da575b505050811b01600555565b01355f19600384901b60f8161c191690555f80806132cf565b909260206001819286860135815501940191016132bc565b919067ffffffffffffffff811161068a5761332b8161247760065461062a565b5f601f821160011461335d57819061335893945f926132835750508160011b915f199060031b1c19161790565b600655565b60065f52601f198216937ff652222313e28459528d920b65115c16c04f3efc82aaedc97be59f3f377c0d3f915f5b8681106133c257508360019596106133a9575b505050811b01600655565b01355f19600384901b60f8161c191690555f808061339e565b9092602060018192868601358155019401910161338b565b919067ffffffffffffffff811161068a576133ff816133fa60075461062a565b613156565b5f601f821160011461343157819061342c93945f926132835750508160011b915f199060031b1c19161790565b600755565b60075f52601f198216937fa66cc928b5edb82af9bd49922954155ab7b0942694bea4ce44661d9a8736c688915f5b868110613496575083600195961061347d575b505050811b01600755565b01355f19600384901b60f8161c191690555f8080613472565b9092602060018192868601358155019401910161345f565b919067ffffffffffffffff811161068a576134d3816134ce60085461062a565b6131c3565b5f601f821160011461350557819061350093945f926132835750508160011b915f199060031b1c19161790565b600855565b60085f52601f198216937ff3f7a9fe364faab93b216da50a3214154f22a0a2b415b23a84c8169e8b636ee3915f5b86811061356a5750836001959610613551575b505050811b01600855565b01355f19600384901b60f8161c191690555f8080613546565b90926020600181928686013581550194019101613533565b908060209392818452848401375f828201840152601f01601f1916010190565b916020610957938181520191613582565b909b9998979295969194939660328a116138f45760148b116138ca576136469060019d9896999a979561362d61364b9695947fffffffffffffffffffff0000000000000000000000000000000000000000ffff75ffffffffffffffffffffffffffffffffffffffff00006004549260101b16911617600455565b6136378b8b613230565b613641888861330b565b6133da565b6134ae565b6136536140ae565b969150506136708a8b971460ff8019600b54169115151617600b55565b61367861586c565b96613697611fda896001600160a01b03165f52600960205260405f2090565b6136b5611fda896001600160a01b03165f52600a60205260405f2090565b5f946001600160a01b0389169788965b82811061385157509150505f5b898b8183106137db5750505050927f74321da206c1b9fa34367f7ece59ca49371dcd13820b9a5c3767ae1ecceed51a7f37cc8c6ced0cbc4d440fcfa810a2f09f40b8f0127c3656103edf26b3d93e0ec1948296613734604051928392836135a2565b0390a2613746604051928392836135a2565b0390a280807fc0b9de905219d7679d6f05d6061fa6ef557a687d2c44c314b58bb793f5dba4945f80a3807f06216f26a4a5b9c90aa5e1f990342de8fa80a0c447e3c6143fbaf0c7747edd715f80a361379c614943565b6137a7575b50505050565b6137b8906137b3614b53565b614e93565b5f5b818110156137a157806137d56137b36104f687948688612aa8565b016137ba565b828094959799969850828261381a611fda6138036104f661381f99611031996104f699612aa8565b6001600160a01b03165f52600a60205260405f2090565b612aa8565b877f06216f26a4a5b9c90aa5e1f990342de8fa80a0c447e3c6143fbaf0c7747edd715f80a301918986949295936136d2565b909192939597949650613885611fda61386e6104f6848789612aa8565b6001600160a01b03165f52600960205260405f2090565b6138966110316104f6838688612aa8565b897fc0b9de905219d7679d6f05d6061fa6ef557a687d2c44c314b58bb793f5dba4945f80a301908b889694979593926136c5565b60046040517f6055dca1000000000000000000000000000000000000000000000000000000008152fd5b60046040517fd7a6868a000000000000000000000000000000000000000000000000000000008152fd5b9061392e906139349336916109f4565b506148e5565b61393c575f90565b7f523e32600000000000000000000000000000000000000000000000000000000090565b3561095781610395565b9061397d60209282815194859201610900565b0190565b908160209103126103a7575190565b906020908183528051828401520151906040808201526001600160a01b03825116606082015267ffffffffffffffff60208301511660808201526040820151151560a0820152606082015160c082015261010060a06139ff608085015160c060e0860152610120850190610921565b93015191015290565b91929092600c54928315613c0d57613a2161100c614943565b613bfc57613a2d6149c8565b6001600160a01b0316943690613a42926109f4565b613a4b9061509c565b913690613a57926109f4565b613a609061509c565b9160405190816020948594858301613a8090600190607b60f81b81520190565b68113a34ba3632911d1160b91b8152600901613a9b9161396a565b61088b60f21b815260020167113a32bc3a111d1160c11b8152600801613ac09161396a565b61088b60f21b81526002017f2274797065223a2270726f6a6563742d6d696c6573746f6e65220000000000008152601a01607d60f81b815260010103601f19908181018452613b0f90846106e3565b604051809385820190613b2191610946565b039081018352613b3190836106e3565b613b3961518d565b91613b426109ab565b308152918483015f9052604083015f90526060830152608082015260a081015f9052613b6c6109cb565b91825282820152604051938480809363f17325e760e01b82526004820190613b9391613990565b03916001600160a01b03165a905f91f19182915f93613bdd575b50506109575760046040517fe80dd52b000000000000000000000000000000000000000000000000000000008152fd5b613bf4929350803d10610f6157610f5281836106e3565b905f80613bad565b60046040516384352a0160e01b8152fd5b60046040516304f102a360e01b8152fd5b9493929190600c54918215613c0d57613c3861100c614943565b613bfc57613c446149c8565b6001600160a01b031696613c5742615488565b923690613c63926109f4565b613c6c9061509c565b94613c783686846109f4565b613c819061509c565b963690613c8d926109f4565b613c969061509c565b933690613ca2926109f4565b613cab9061509c565b6040519384926020978897888601613ccb90600190607b60f81b81520190565b68113a34ba3632911d1160b91b8152600901613ce69161396a565b61088b60f21b815260020167113a32bc3a111d1160c11b8152600801613d0b9161396a565b61088b60f21b81526002017f22737461727444617465223a22000000000000000000000000000000000000008152600d01613d46908261396a565b61088b60f21b81526002017f22656e6444617465223a220000000000000000000000000000000000000000008152600b01613d809161396a565b61088b60f21b81526002017f226772616e7473223a5b5d2c00000000000000000000000000000000000000008152600c017f22696e64696361746f7273223a5b5d2c0000000000000000000000000000000081526010017f2264656c6976657261626c6573223a5b7b00000000000000000000000000000081526011017f226e616d65223a22576f726b2045766964656e6365222c00000000000000000081526017017f2270726f6f66223a22697066733a2f2f000000000000000000000000000000008152601001613e529161396a565b61088b60f21b81526002017f226465736372697074696f6e223a2200000000000000000000000000000000008152600f01613e8c9161396a565b601160f91b81527f7d5d2c000000000000000000000000000000000000000000000000000000000060018201527f2274797065223a2270726f6a6563742d757064617465220000000000000000006004820152607d60f81b601b8201520360031981018352601f1990613f0290601c01846106e3565b604051809385820190613f1491610946565b039081018352613f2490836106e3565b613f2c61518d565b91613f356109ab565b308152918483015f9052604083015f90526060830152608082015260a081015f9052613f5f6109cb565b91825282820152604051938480809363f17325e760e01b82526004820190613f8691613990565b03916001600160a01b03165a905f91f19182915f93613fb7575b50506109575760046040516317c3402f60e01b8152fd5b613fce929350803d10610f6157610f5281836106e3565b905f80613fa0565b613fde61416c565b7fbc197c810000000000000000000000000000000000000000000000000000000090565b634e487b7160e01b5f52601160045260245ffd5b906301e13380820180921161402757565b614002565b90620afa6c820180921161402757565b906002820180921161402757565b906001820180921161402757565b906003820180921161402757565b9190820180921161402757565b90815f8237015f815290565b3d156140a9573d90614090826109d8565b9161409e60405193846106e3565b82523d5f602084013e565b606090565b604051906080820182811067ffffffffffffffff82111761068a5760405260608252602082016060604d82303c6060838051810103126103a75751906001600160a01b0360606040850151946141038661098d565b01519293169190565b5f54421061415b5760035461415361412261661c565b614145604093929351938492602084019687526040808501526060840191613582565b03601f1981018352826106e3565b519020600355565b6004604051636315bfbb60e01b8152fd5b6141b961419761418061047c6104766140ae565b6001600160a01b03165f52600160205260405f2090565b6001600160e01b03195f35166001600160e01b0319165f5260205260405f2090565b546001600160a01b0381166141cb5750565b5f80916141d730614f5c565b908260405161422060488260208101956bffffffffffffffffffffffff19809160601b16875236866034840137368201903360601b1660348201520360288101845201826106e3565b51925af16129e861407f565b9060401015612ab85760400190565b906020116103a75790602090565b906040116103a75760200190602090565b90929192836020116103a75783116103a75760200191601f190190565b909392938483116103a75784116103a7578101920390565b35906020811061429d575090565b5f199060200360031b1b1690565b600511156142b557565b634e487b7160e01b5f52602160045260245ffd5b909160ff6142f16142eb6142dd848761422c565b356001600160f81b03191690565b60f81c90565b161561432a5761430c926143069136916109f4565b9061583b565b614315816142ab565b614325576109579061392e612e0c565b505f90565b9061434461103161103161433e858761423b565b9061428f565b9161434d612e0c565b5061435a61100c846148e5565b80614391575b614389576113c681858161437d61433e614383966109579a614249565b91614277565b916157c0565b505050505f90565b50306001600160a01b0384161415614360565b9190605595936001600160a01b0360e2966040519660b788015216609786015260778501528160578501526e5af43d82803e903d91602b57fd5bf360378501526028840152733d60ad80600a3d3981f3363d3d373d3d3d363d73601484015260b7835260d7830190816040528351602085012061011785015260f7840152520160ff81532090565b6001600160a01b03808216817f00000000000000000000000000000000000000000000000000000000000000001681146145d3576144686140ae565b904683036144f0575b61447a926152f7565b82811682146144e75761448c906156b0565b918216146144e0576144d3916144b66144cc926001600160a01b03165f52600260205260405f2090565b906001600160a01b03165f5260205260405f2090565b5460ff1690565b6144db575f90565b600190565b5050600190565b50505050600190565b61452c6144fb61586c565b7fffffffffffffffffffffffffeeeeffffffffffffffffffffffffffffffffeeef6001600160a01b03809216011690565b851630146145a9576040517f672657ca0000000000000000000000000000000000000000000000000000000081526001600160a01b03871660048201526020816024817f00000000000000000000000000000000000000000000000000000000000000008a165afa908115612364575f916145b4575b5015614471575b505050505050600190565b6145cd915060203d602011612d2357612d1581836106e3565b5f6145a2565b505050600190565b909280926014946bffffffffffffffffffffffff199060601b1683528483013701015f815290565b9092919360ff1690811561471257600182146146c15750600281146146a4576003146146535760046040517f398d4d32000000000000000000000000000000000000000000000000000000008152fd5b8261095792614676838061467061433e61467e976141459a61423b565b9461425a565b929091614745565b604051928391602083016014916bffffffffffffffffffffffff199060601b1681520190565b50610957916146bb6141459461467e9336916109f4565b90614a7c565b61095794939291506146ff906146f16146d930614f5c565b93843b15614704575b604051968793602085016145db565b03601f1981018552846106e3565b6153d3565b61470d30614fab565b6146e2565b92916147259150936109579436916109f4565b916153d3565b6001600160a01b0361473c30614f5c565b1633036105b357565b91614752919336916109f4565b9060208251920190f5906001600160a01b0382161561476d57565b60046040517fa28c2473000000000000000000000000000000000000000000000000000000008152fd5b6040517f1506fd4d0000000000000000000000000000000000000000000000000000000081526001600160a01b039091166004820152602081806024810103816001600160a01b037f0000000000000000000000000000000000000000000000000000000000000000165afa908115612364575f91614855575b501561482b5761482561100c6112de61586c565b6105b357565b60046040517f68155f9a000000000000000000000000000000000000000000000000000000008152fd5b61486e915060203d602011612d2357612d1581836106e3565b5f614811565b1561487b57565b608460405162461bcd60e51b815260206004820152602960248201527f45524331393637557067726164653a20756e737570706f727465642070726f7860448201527f6961626c655555494400000000000000000000000000000000000000000000006064820152fd5b6148f06104766140ae565b6001600160a01b038083169181811683146144e75761490e906156b0565b168091146144e05760ff9161493e915f52600260205260405f20906001600160a01b03165f5260205260405f2090565b541690565b600a461480156149bc575b80156149b1575b80156149a5575b8015614999575b801561498e575b8015614983575b801561497a5790565b50610530461490565b506105314614614971565b5061a4ec461461496a565b5062014a344614614963565b5062aa36a7461461495c565b5061a4b14614614955565b5062aa37dc461461494e565b61a4b14614614a145761a4ec46146149fc5762014a344603615a9657734ca7230fb6b78875bdd1b1e4f665b7b7f189123990565b738791ac8c099314bb1d1514d76de13a1e8027595090565b736dc1d6b864e8bef815806f9e4677123496e1202690565b614a6f917f19457468657265756d205369676e6564204d6573736167653a0a3332000000005f52601c52614a69603c5f2091610140810190612ee6565b916142c9565b614a7857600190565b5f90565b60208251920190f0906001600160a01b0382161561476d57565b60208082526005545f92614aa98261062a565b9182602083015260406001916001811690815f14614b305750600114614ad2575b505050505090565b60055f908152949695509192917f036b6384b5eca791c62761152d0c79bb0604c104a5fb6f4eb0703f3154bb3db05b838610614b1d5750505050604092935001015f80808080614aca565b8054858701830152948701948201614b01565b9395505050506040935060ff191683830152151560051b01015f80808080614aca565b614b5e6110316149c8565b9060409081519260206001600160a01b0385614b81838201906001602083019252565b0392614b95601f19948581018952886106e3565b614b9d615ac0565b96614ba66109ab565b308152905f828601526001888301525f606083015260808201525f60a0820152614bce6109cb565b97885283880152169184519063f17325e760e01b93848352838380614bf760049b8c8301613990565b03815f855af15f9381614deb575b50614c19578787516317c3402f60e01b8152fd5b614c2283600c55565b614cb1848851614c4981614c3d848201906001602083019252565b038681018352826106e3565b614c51615c2a565b90614c5a61586c565b90614c75614c666109ab565b6001600160a01b039093168352565b5f8285015260018c83015287606083015260808201525f60a0820152614c996109cb565b918252828201528951809381928a83528d8301613990565b03815f865af19081614dce575b50614cdb578787614cce5f600c55565b516317c3402f60e01b8152fd5b614d5b948493614d09614cfd94614cf0615e20565b8b51968791898301610946565b039081018652856106e3565b614d1161518d565b93614d1a6109ab565b308152915f8388015260018b840152606083015260808201525f60a0820152614d416109cb565b938452848401525f885180978195829483528c8301613990565b03925af19182614db0575b5050614d765750614cce5f600c55565b9150600c549051907f03d364024f6102dfc5e23f488f1e462c8e58afc717a21875496e0adc2132d1b4309280614dab81614a96565b0390a3565b81614dc692903d10610f6157610f5281836106e3565b505f80614d66565b614de490863d8811610f6157610f5281836106e3565b505f614cbe565b614e03919450853d8711610f6157610f5281836106e3565b925f614c05565b5f9060033d11614e1657565b905060045f803e5f5160e01c90565b5f60443d1061095757604051600319913d83016004833e815167ffffffffffffffff918282113d602484011117614e8257818401948551938411614e8a573d85010160208487010111614e825750610957929101602001906106e3565b949350505050565b50949350505050565b600c548015614f5857614eaa6110316110316149c8565b91823b156103a7576040517fdbf7117700000000000000000000000000000000000000000000000000000000815260048101929092526001600160a01b03166024820152905f908290818381604481015b03925af19081614f45575b50610743576001614f15614e0a565b6308c379a014614f31575b614f2657565b614f2e61407f565b50565b614f39614e25565b15614f2057505f614f20565b806110d2614f5292610676565b5f614f06565b5050565b600b614f6960559261634d565b602081519101206040519060408201527f97f795a08410e77dc9dbbaba3915f17c601e45642518dd578bd440d8775bfee460208201523081520160ff81532090565b614fb49061634d565b805115615039577f97f795a08410e77dc9dbbaba3915f17c601e45642518dd578bd440d8775bfee48160206001600160a01b03935191015ff51615614ff557565b606460405162461bcd60e51b815260206004820152601960248201527f437265617465323a204661696c6564206f6e206465706c6f79000000000000006044820152fd5b606460405162461bcd60e51b815260206004820152602060248201527f437265617465323a2062797465636f6465206c656e677468206973207a65726f6044820152fd5b908151811015612ab8570160200190565b5f1981146140275760010190565b905f805b83518110156150fb57601160f91b6150d96150cc6150be848861507d565b516001600160f81b03191690565b6001600160f81b03191690565b146150e7575b6001016150a0565b906150f360019161508e565b9190506150df565b508015614f2e57615110615115918451614066565b612e49565b5f925f5b81518110156151865780601160f91b61513a6150cc6150be6001958761507d565b1461516b575b61514d6150be828561507d565b9561516461515a8261508e565b975f1a918661507d565b5301615119565b605c6151806151798861508e565b978661507d565b53615140565b5090925050565b600a46146152d35762aa37dc46146152af5761a4b1461461528b5762aa36a746146152675762014a3446146152435761a4ec461461521f5761053146146151fb576105304603615a96577f76f38d22f88a0df52a8ff0763e1c0af912b0822e758be2e0c9cded91aef71d2290565b7f1b4365b92aa47de3f67cdfb53127518381c1e66e0d9e0f8a15bbfa725095096790565b7f9895e82115987d8e3e02b35ced92e6a0509293890333f58f50ec291b34853dac90565b7f9b06f811608d135f913c18295486693fe626f35e213a7d132be87b1f952e508c90565b7f2c270e35bfcdc4d611f0e9d3d2ab6924ec6c673505abc22a1dd07e19b67211af90565b7f16bfe4783b7a9c743c401222c56a07ecb77ed42afc84b61ff1f62f5936c0b9d790565b7fd193e75f420a69910f98fa79cacdfd9d0dcbf5933edce8f8bde9a10bd204d99690565b7f70a3f615f738fc6a4f56100692ada93d947c028b840940d97af7e7d6f0fa057790565b460361536157803b15615361576040516331a9108f60e11b81526004810192909252602090829060249082906001600160a01b03165afa5f9181615340575b5061095757505f90565b61535a91925060203d602011612c9257612c8381836106e3565b905f615336565b50505f90565b600c548015614f585761537e6110316110316149c8565b91823b156103a7576040517fb069390c00000000000000000000000000000000000000000000000000000000815260048101929092526001600160a01b03166024820152905f90829081838160448101614efb565b915f928392602083519301915af1906153ea61407f565b91156153f257565b50602081519101fd5b60081981019190821161402757565b5f1981019190821161402757565b9190820391821161402757565b9062023ab19182810292818404149015171561402757565b906101909182810292818404149015171561402757565b9061016d918083029283040361402757565b908160050291600583040361402757565b908160990291609983040361402757565b620151809061549882820461402c565b6155206154b462023ab18304926154ae84615425565b90615418565b6154ae6154ff6154f96154f36154eb6154df6154d46105b4880488615418565b618eac880490614066565b62023ab0870490615418565b61016d900490565b9561543d565b85614066565b93606461551861550e83615454565b8360021c90614066565b910490615418565b9261555e61555961554261553b61553688615466565b61403c565b6099900490565b956154ae61555261553689615477565b6005900490565b61404a565b93600a8110156156a15761557190614058565b925b6002841115615691575b06610e109161558b90616445565b92615595906164b3565b9361559f906164b3565b916155ab8183046164b3565b908206603c90046155bb906164b3565b91603c90066155c9906164b3565b92604051958695602087016155dd9161396a565b602d60f81b81526001016155f09161396a565b602d60f81b81526001016156039161396a565b7f540000000000000000000000000000000000000000000000000000000000000081526001016156329161396a565b601d60f91b81526001016156459161396a565b601d60f91b81526001016156589161396a565b7f2e3030305a00000000000000000000000000000000000000000000000000000081526005015b03601f198101825261095790826106e3565b9161569b9061404a565b9161557d565b6156aa906153fb565b92615573565b907f0000000000000000000000000000000000000000000000000000000000000000917f00000000000000000000000000000000000000000000000000000000000000005b615700818584616519565b156157bb576001600160a01b0360408051937ffc0c546a000000000000000000000000000000000000000000000000000000008552846004816060958694165afa938415612364575f915f935f9661576b575b5050509261576491615700946152f7565b91506156f5565b92509250809450813d83116157b4575b61578581836106e3565b810103126103a75782615764916157009451906020830151926157a78461098d565b0151909190948193615753565b503d61577b565b509150565b5f91929082916040516157f7816141456020820194630b135d3f60e11b998a87526024840152604060448401526064830190610921565b51915afa9061580461407f565b8261582d575b8261581457505090565b61582991925060208082518301019101613981565b1490565b91506020825110159161580a565b9060418151145f146158635761045491602082015190606060408401519301515f1a906165a1565b50505f90600290565b6001600160a01b037f0000000000000000000000000000000000000000000000000000000000000000163314806158b3575b156158af5736601319013560601c90565b3390565b50601436101561589e565b906158c8826159dc565b6001600160a01b0382167fbc7cd75a20ee27fd9adebab32041f755214dbc6bffa90cc0225b39da2e5c2d3b5f80a2805115801590615983575b615909575050565b614f2e915f806040519361591c856106c7565b602785527f416464726573733a206c6f772d6c6576656c2064656c65676174652063616c6c60208601527f206661696c6564000000000000000000000000000000000000000000000000006040860152602081519101845af461597d61407f565b91616946565b506001615901565b90615995826159dc565b6001600160a01b0382167fbc7cd75a20ee27fd9adebab32041f755214dbc6bffa90cc0225b39da2e5c2d3b5f80a28051158015906159d557615909575050565b505f615901565b803b15615a2c576001600160a01b037f360894a13ba1a3210667c828492db98dca3e2076cc3735a920a3ca505d382bbc911673ffffffffffffffffffffffffffffffffffffffff19825416179055565b608460405162461bcd60e51b815260206004820152602d60248201527f455243313936373a206e657720696d706c656d656e746174696f6e206973206e60448201527f6f74206120636f6e7472616374000000000000000000000000000000000000006064820152fd5b60046040517f3cb9b437000000000000000000000000000000000000000000000000000000008152fd5b600a4614615c065762aa37dc4614615be25761a4b14614615bbe5762aa36a74614615b9a5762014a344614615b765761a4ec4614615b52576105314614615b2e576105304603615a96577f9de9294fbb62391b393332a33bfc28b4e0e728dd094aee4bda3955df62f8401a90565b7ff6b89107f8096220051240b89a48abb66e0a23e529c914953b80f5a2bc5ea44c90565b7ff3f753b41e04d1052b5a5ec7624d1dfdb6c2da288a985120e477ddbcac07102290565b7f5ddd6b7a11406771308431ca9bd146cc717848b74b52993a532dc1aad0ccc83f90565b7fec77990a252b54b17673955c774b9712766de5eecb22ca5aa2c440e0e93257fb90565b7fac2a06e955a7e25e6729efe1a6532237e3435b21ccd3dc827ae3c94e624d25b390565b7ff9bbd118dd100459a7d093403af21c6e7f847fd7f331b7a4e6bfb94a1366bd7690565b7f5b873b6e7a16207b526dde366e8164e95bcda2f009272306519667c5e94d219190565b600a4614615d705762aa37dc4614615d4c5761a4b14614615d285762aa36a74614615d045762014a344614615ce05761a4ec4614615cbc576105314614615c98576105304603615a96577f222fa508c0cdb5954905dd30611a940f6402da2b3c49ce0c88d33e22f72121e790565b7fb7278b94cea2b9f1a8fdd1c4bb52ed66906516a0ff9d59d0f80daffcf147ea5d90565b7fb4186a2401f40a4c78768941ef9140e1fbe5fe595053a65d44f31d6df180b71290565b7f857398d86e2d31bec5af882b950ee7b00d1fefefba2432737ab28b68ee041eb890565b7fdd87b3500457931252424f4439365534ba72a367503a8805ff3482353fb9030190565b7f5f430aec9d04f0dcb3729775c5dfe10752e436469a7607f8c64ae44ef996e47790565b7f611f9655188f372e27dce116a803fa9081ca3e2907986368d54fcad538ca385390565b7f7fbb8a65924d8ad2ae12356e04b1418043e8361ba3b1b6c917de2e23df3ec81c90565b6008545f9291615da38261062a565b91600190818116908115615e0d5750600114615dbe57505050565b909192935060085f527ff3f7a9fe364faab93b216da50a3214154f22a0a2b415b23a84c8169e8b636ee3905f915b848310615dfa575050500190565b8181602092548587015201920191615dec565b60ff191683525050811515909102019150565b615e2b60085461062a565b1561634057604051615e9681614145615e91602083016027907f68747470733a2f2f677265656e676f6f64732e6d7970696e6174612e636c6f7581527f642f697066732f0000000000000000000000000000000000000000000000000060208201520190565b615d94565b615e9e610705565b615ea79061509c565b615eaf610864565b615eb89061509c565b91615ec1610864565b615eca9061509c565b90615ed3610864565b615edc9061509c565b90615ee5610864565b615eee9061509c565b615ef66107c8565b615eff9061509c565b91615f099061509c565b92615f12610705565b615f1b90616688565b615f249061509c565b604051607b60f81b60208201529788979196916021890168113a34ba3632911d1160b91b8152600901615f569161396a565b61088b60f21b81526002017f226465736372697074696f6e223a2200000000000000000000000000000000008152600f01615f909161396a565b61088b60f21b81526002017f2270726f626c656d223a220000000000000000000000000000000000000000008152600b01615fca9161396a565b61088b60f21b81526002017f22736f6c7574696f6e223a2200000000000000000000000000000000000000008152600c016160049161396a565b61088b60f21b81526002017f226d697373696f6e53756d6d617279223a220000000000000000000000000000815260120161603e9161396a565b61088b60f21b81526002017f226c6f636174696f6e4f66496d70616374223a2200000000000000000000000081526014016160789161396a565b61088b60f21b81526002017f22696d61676555524c223a2200000000000000000000000000000000000000008152600c016160b29161396a565b61088b60f21b81526002017f226c696e6b73223a5b000000000000000000000000000000000000000000000081526009017f7b2274797065223a2274776974746572222c2275726c223a22227d2c000000008152601c017f7b2274797065223a22676974687562222c2275726c223a22227d2c00000000008152601b017f7b2274797065223a22646973636f7264222c2275726c223a22227d2c000000008152601c017f7b2274797065223a2277656273697465222c2275726c223a22227d2c000000008152601c017f7b2274797065223a226c696e6b6564696e222c2275726c223a22227d2c0000008152601d017f7b2274797065223a2270697463684465636b222c2275726c223a22227d2c00008152601e017f7b2274797065223a2264656d6f566964656f222c2275726c223a22227d2c00008152601e017f7b2274797065223a22666172636173746572222c2275726c223a22227d0000008152601d017f5d2c00000000000000000000000000000000000000000000000000000000000081526002017f22736c7567223a2200000000000000000000000000000000000000000000000081526008016162689161396a565b61088b60f21b81526002017f22627573696e6573734d6f64656c223a22222c0000000000000000000000000081526013017f227374616765496e223a22222c000000000000000000000000000000000000008152600d017f227261697365644d6f6e6579223a22222c00000000000000000000000000000081526011017f2270617468546f54616b65223a22222c0000000000000000000000000000000081526010017f2274797065223a2270726f6a6563742d64657461696c732200000000000000008152601801607d60f81b815260010161567f565b616348612e0c565b615e96565b610957603461640392604051906163638261068f565b600e825260208201907f604380600d600039806000f3fe73000000000000000000000000000000000000825261642a60405161639e816106c7565b602e815260208101937f3314601d573d3dfd5b363d3d373d3d6014360360143d5160601c5af43d60008085527f3e80603e573d6000fd5b3d6000f300000000000000000000000000000000000060408301526040519889965180926020890190610900565b8501926bffffffffffffffffffffffff199060601b16602084015251809386840190610900565b010360148101845201826106e3565b8015614027575f190190565b604051906164528261068f565b6004825260203681840137600490815b61646b57505090565b600a6030918181068301809311614027575f198401848111614027576164a46001600160f81b03196164ac9560f81b165f1a918761507d565b530491616439565b9081616462565b604051906164c08261068f565b6002825260203681840137600290815b6164d957505090565b600a6030918181068301809311614027575f198401848111614027576164a46001600160f81b03196165129560f81b165f1a918761507d565b90816164d0565b9160ad833b0361659a576014600a600c853c5f5190813b15614389576001600160a01b038093168383160361438957616550612e1e565b60208101916080602d84883c6080828051810103126103a75761659493611031935160408401519187608060608701519661658a8861098d565b01519516936143a4565b91161490565b5050505f90565b7f7fffffffffffffffffffffffffffffff5d576e7357a4501ddfe92f46681b20a08411616611576020935f9360ff60809460405194855216868401526040830152606082015282805260015afa15612364575f516001600160a01b0381161561660957905f90565b505f90600190565b505050505f90600390565b6001600160a01b037f00000000000000000000000000000000000000000000000000000000000000001633148061666b575b1561666557601319360190368211614027575f9190565b5f903690565b50601436101561664e565b60ff60209116019060ff821161402757565b906166938251612e49565b915f905f5b81518110156168c0576166ae6150be828461507d565b6001600160f81b03198082167f410000000000000000000000000000000000000000000000000000000000000081101580616896575b1561672c5750509061670d6166fd60019360f81c616676565b60f81b6001600160f81b03191690565b9361672461671a8261508e565b955f1a918861507d565b535b01616698565b7f61000000000000000000000000000000000000000000000000000000000000008196939610158061686c575b15616777575050908161677161671a6001949261508e565b53616726565b7f300000000000000000000000000000000000000000000000000000000000000081101580616842575b156167b9575050908161677161671a6001949261508e565b6001939295507f2000000000000000000000000000000000000000000000000000000000000000146167ec575b50616726565b841515908161681d575b50616802575b5f6167e6565b602d6168176168108661508e565b958861507d565b536167fc565b602d60f81b91506168396150be6168338861540a565b8a61507d565b1614155f6167f6565b507f39000000000000000000000000000000000000000000000000000000000000008111156167a1565b507f7a00000000000000000000000000000000000000000000000000000000000000811115616759565b507f5a000000000000000000000000000000000000000000000000000000000000008111156166e4565b50508015158061691b575b61690d575b6168d981612e49565b905f5b8181106168ea575090925050565b806168fa6150be6001938861507d565b5f1a616906828661507d565b53016168dc565b61691690616439565b6168d0565b50602d60f81b6001600160f81b031961693f6150be6169398561540a565b8761507d565b16146168cb565b919290156169a7575081511561695a575090565b3b156169635790565b606460405162461bcd60e51b815260206004820152601d60248201527f416464726573733a2063616c6c20746f206e6f6e2d636f6e74726163740000006044820152fd5b8251909150156169ba5750805190602001fd5b610f209060405191829162461bcd60e51b83526004830161094656fea164736f6c6343000819000a","linkReferences":{}},"methodIdentifiers":{"ASSESSMENT_RESOLVER()":"3a208f95","WORK_APPROVAL_RESOLVER()":"bcc5cf88","addGardenOperator(address)":"eed9df74","addGardener(address)":"eaff6dc9","bannerImage()":"94def29d","communityToken()":"29aa1617","createProjectImpact(string,string,string)":"b900ace8","createProjectMilestone(string,string,string)":"81eec6bb","description()":"7284e416","entryPoint()":"b0d691fe","erc6551Registry()":"056d5afe","execute(address,uint256,bytes,uint8)":"51945447","executeBatch((address,uint256,bytes,uint8)[])":"43629a73","executeNested(address,uint256,bytes,uint8,(bytes32,address,uint256)[])":"1fb1ecf0","extcall(address,uint256,bytes)":"b709467c","extcreate(uint256,bytes)":"45a24e3e","extcreate2(uint256,bytes32,bytes)":"34715fb1","extsload(bytes32)":"1e2eaeaf","gapProjectUID()":"f7fc57b0","gardenOperators(address)":"7597bc7c","gardeners(address)":"1f6e45e3","getGAPProjectUID()":"f89b9b93","getNonce()":"d087d288","initialize(address,string,string,string,string,address[],address[])":"47f5fddd","isLocked()":"a4e2d634","isTrustedForwarder(address)":"572b6c05","isValidSignature(bytes32,bytes)":"1626ba7e","isValidSigner(address,bytes)":"523e3260","joinGarden()":"b10006a6","location()":"516f279e","lock(uint256)":"dd467064","lockedUntil()":"ce0617ec","name()":"06fdde03","onERC1155BatchReceived(address,address,uint256[],uint256[],bytes)":"bc197c81","onERC1155Received(address,address,uint256,uint256,bytes)":"f23a6e61","onERC721Received(address,address,uint256,bytes)":"150b7a02","openJoining()":"291d0548","overrides(address,bytes4)":"ee9c6054","owner()":"8da5cb5b","permissions(address,address)":"1f9838b5","proxiableUUID()":"52d1902d","removeGardenOperator(address)":"adbce85e","removeGardener(address)":"eeb97057","setOpenJoining(bool)":"98b7a25a","setOverrides(bytes4[],address[])":"7a8f7356","setPermissions(address[],bool[])":"039721b1","state()":"c19d93fb","supportsInterface(bytes4)":"01ffc9a7","token()":"fc0c546a","transferGAPProjectOwnership(address)":"3a25bc32","updateDescription(string)":"e735b48a","updateName(string)":"84da92a7","upgradeTo(address)":"3659cfe6","upgradeToAndCall(address,bytes)":"4f1ef286","validateUserOp((address,uint256,bytes,bytes,uint256,uint256,uint256,uint256,uint256,bytes,bytes),bytes32,uint256)":"3a871cdd"},"id":114}