{"abi":[{"type":"constructor","inputs":[{"name":"erc4337EntryPoint","type":"address","internalType":"address"},{"name":"multicallForwarder","type":"address","internalType":"address"},{"name":"erc6551Registry","type":"address","internalType":"address"},{"name":"guardian","type":"address","internalType":"address"},{"name":"workApprovalResolver","type":"address","internalType":"address"},{"name":"assessmentResolver","type":"address","internalType":"address"}],"stateMutability":"nonpayable"},{"type":"fallback","stateMutability":"payable"},{"type":"receive","stateMutability":"payable"},{"type":"function","name":"ASSESSMENT_RESOLVER","inputs":[],"outputs":[{"name":"","type":"address","internalType":"address"}],"stateMutability":"view"},{"type":"function","name":"MAX_NAME_LENGTH","inputs":[],"outputs":[{"name":"","type":"uint256","internalType":"uint256"}],"stateMutability":"view"},{"type":"function","name":"WORK_APPROVAL_RESOLVER","inputs":[],"outputs":[{"name":"","type":"address","internalType":"address"}],"stateMutability":"view"},{"type":"function","name":"bannerImage","inputs":[],"outputs":[{"name":"","type":"string","internalType":"string"}],"stateMutability":"view"},{"type":"function","name":"communityToken","inputs":[],"outputs":[{"name":"","type":"address","internalType":"address"}],"stateMutability":"view"},{"type":"function","name":"description","inputs":[],"outputs":[{"name":"","type":"string","internalType":"string"}],"stateMutability":"view"},{"type":"function","name":"entryPoint","inputs":[],"outputs":[{"name":"","type":"address","internalType":"contract IEntryPoint"}],"stateMutability":"view"},{"type":"function","name":"erc6551Registry","inputs":[],"outputs":[{"name":"","type":"address","internalType":"address"}],"stateMutability":"view"},{"type":"function","name":"execute","inputs":[{"name":"to","type":"address","internalType":"address"},{"name":"value","type":"uint256","internalType":"uint256"},{"name":"data","type":"bytes","internalType":"bytes"},{"name":"operation","type":"uint8","internalType":"uint8"}],"outputs":[{"name":"","type":"bytes","internalType":"bytes"}],"stateMutability":"payable"},{"type":"function","name":"executeAutoStake","inputs":[{"name":"goodsToken_","type":"address","internalType":"address"},{"name":"community","type":"address","internalType":"address"},{"name":"stakeAmount","type":"uint256","internalType":"uint256"},{"name":"member","type":"address","internalType":"address"}],"outputs":[],"stateMutability":"nonpayable"},{"type":"function","name":"executeBatch","inputs":[{"name":"operations","type":"tuple[]","internalType":"struct BatchExecutor.Operation[]","components":[{"name":"to","type":"address","internalType":"address"},{"name":"value","type":"uint256","internalType":"uint256"},{"name":"data","type":"bytes","internalType":"bytes"},{"name":"operation","type":"uint8","internalType":"uint8"}]}],"outputs":[{"name":"","type":"bytes[]","internalType":"bytes[]"}],"stateMutability":"payable"},{"type":"function","name":"executeNested","inputs":[{"name":"to","type":"address","internalType":"address"},{"name":"value","type":"uint256","internalType":"uint256"},{"name":"data","type":"bytes","internalType":"bytes"},{"name":"operation","type":"uint8","internalType":"uint8"},{"name":"proof","type":"tuple[]","internalType":"struct NestedAccountExecutor.ERC6551AccountInfo[]","components":[{"name":"salt","type":"bytes32","internalType":"bytes32"},{"name":"tokenContract","type":"address","internalType":"address"},{"name":"tokenId","type":"uint256","internalType":"uint256"}]}],"outputs":[{"name":"","type":"bytes","internalType":"bytes"}],"stateMutability":"payable"},{"type":"function","name":"extcall","inputs":[{"name":"to","type":"address","internalType":"address"},{"name":"value","type":"uint256","internalType":"uint256"},{"name":"data","type":"bytes","internalType":"bytes"}],"outputs":[{"name":"result","type":"bytes","internalType":"bytes"}],"stateMutability":"nonpayable"},{"type":"function","name":"extcreate","inputs":[{"name":"value","type":"uint256","internalType":"uint256"},{"name":"bytecode","type":"bytes","internalType":"bytes"}],"outputs":[{"name":"","type":"address","internalType":"address"}],"stateMutability":"nonpayable"},{"type":"function","name":"extcreate2","inputs":[{"name":"value","type":"uint256","internalType":"uint256"},{"name":"salt","type":"bytes32","internalType":"bytes32"},{"name":"bytecode","type":"bytes","internalType":"bytes"}],"outputs":[{"name":"","type":"address","internalType":"address"}],"stateMutability":"nonpayable"},{"type":"function","name":"extsload","inputs":[{"name":"slot","type":"bytes32","internalType":"bytes32"}],"outputs":[{"name":"value","type":"bytes32","internalType":"bytes32"}],"stateMutability":"view"},{"type":"function","name":"gapProjectUID","inputs":[],"outputs":[{"name":"","type":"bytes32","internalType":"bytes32"}],"stateMutability":"view"},{"type":"function","name":"gardenMemberCount","inputs":[],"outputs":[{"name":"","type":"uint256","internalType":"uint256"}],"stateMutability":"view"},{"type":"function","name":"getGAPProjectUID","inputs":[],"outputs":[{"name":"","type":"bytes32","internalType":"bytes32"}],"stateMutability":"view"},{"type":"function","name":"getNonce","inputs":[],"outputs":[{"name":"","type":"uint256","internalType":"uint256"}],"stateMutability":"view"},{"type":"function","name":"initialize","inputs":[{"name":"params","type":"tuple","internalType":"struct IGardenAccount.InitParams","components":[{"name":"communityToken","type":"address","internalType":"address"},{"name":"name","type":"string","internalType":"string"},{"name":"slug","type":"string","internalType":"string"},{"name":"description","type":"string","internalType":"string"},{"name":"location","type":"string","internalType":"string"},{"name":"bannerImage","type":"string","internalType":"string"},{"name":"metadata","type":"string","internalType":"string"},{"name":"openJoining","type":"bool","internalType":"bool"}]}],"outputs":[],"stateMutability":"nonpayable"},{"type":"function","name":"isCommunity","inputs":[{"name":"account","type":"address","internalType":"address"}],"outputs":[{"name":"","type":"bool","internalType":"bool"}],"stateMutability":"view"},{"type":"function","name":"isEvaluator","inputs":[{"name":"account","type":"address","internalType":"address"}],"outputs":[{"name":"","type":"bool","internalType":"bool"}],"stateMutability":"view"},{"type":"function","name":"isFunder","inputs":[{"name":"account","type":"address","internalType":"address"}],"outputs":[{"name":"","type":"bool","internalType":"bool"}],"stateMutability":"view"},{"type":"function","name":"isGardener","inputs":[{"name":"account","type":"address","internalType":"address"}],"outputs":[{"name":"","type":"bool","internalType":"bool"}],"stateMutability":"view"},{"type":"function","name":"isLocked","inputs":[],"outputs":[{"name":"","type":"bool","internalType":"bool"}],"stateMutability":"view"},{"type":"function","name":"isOperator","inputs":[{"name":"account","type":"address","internalType":"address"}],"outputs":[{"name":"","type":"bool","internalType":"bool"}],"stateMutability":"view"},{"type":"function","name":"isOwner","inputs":[{"name":"account","type":"address","internalType":"address"}],"outputs":[{"name":"","type":"bool","internalType":"bool"}],"stateMutability":"view"},{"type":"function","name":"isTrustedForwarder","inputs":[{"name":"forwarder","type":"address","internalType":"address"}],"outputs":[{"name":"","type":"bool","internalType":"bool"}],"stateMutability":"view"},{"type":"function","name":"isValidSignature","inputs":[{"name":"hash","type":"bytes32","internalType":"bytes32"},{"name":"signature","type":"bytes","internalType":"bytes"}],"outputs":[{"name":"magicValue","type":"bytes4","internalType":"bytes4"}],"stateMutability":"view"},{"type":"function","name":"isValidSigner","inputs":[{"name":"signer","type":"address","internalType":"address"},{"name":"data","type":"bytes","internalType":"bytes"}],"outputs":[{"name":"magicValue","type":"bytes4","internalType":"bytes4"}],"stateMutability":"view"},{"type":"function","name":"joinGarden","inputs":[],"outputs":[],"stateMutability":"nonpayable"},{"type":"function","name":"location","inputs":[],"outputs":[{"name":"","type":"string","internalType":"string"}],"stateMutability":"view"},{"type":"function","name":"lock","inputs":[{"name":"_lockedUntil","type":"uint256","internalType":"uint256"}],"outputs":[],"stateMutability":"nonpayable"},{"type":"function","name":"lockedUntil","inputs":[],"outputs":[{"name":"","type":"uint256","internalType":"uint256"}],"stateMutability":"view"},{"type":"function","name":"maxGardeners","inputs":[],"outputs":[{"name":"","type":"uint256","internalType":"uint256"}],"stateMutability":"view"},{"type":"function","name":"metadata","inputs":[],"outputs":[{"name":"","type":"string","internalType":"string"}],"stateMutability":"view"},{"type":"function","name":"name","inputs":[],"outputs":[{"name":"","type":"string","internalType":"string"}],"stateMutability":"view"},{"type":"function","name":"onERC1155BatchReceived","inputs":[{"name":"","type":"address","internalType":"address"},{"name":"","type":"address","internalType":"address"},{"name":"","type":"uint256[]","internalType":"uint256[]"},{"name":"","type":"uint256[]","internalType":"uint256[]"},{"name":"","type":"bytes","internalType":"bytes"}],"outputs":[{"name":"","type":"bytes4","internalType":"bytes4"}],"stateMutability":"nonpayable"},{"type":"function","name":"onERC1155Received","inputs":[{"name":"","type":"address","internalType":"address"},{"name":"","type":"address","internalType":"address"},{"name":"","type":"uint256","internalType":"uint256"},{"name":"","type":"uint256","internalType":"uint256"},{"name":"","type":"bytes","internalType":"bytes"}],"outputs":[{"name":"","type":"bytes4","internalType":"bytes4"}],"stateMutability":"nonpayable"},{"type":"function","name":"onERC721Received","inputs":[{"name":"","type":"address","internalType":"address"},{"name":"","type":"address","internalType":"address"},{"name":"tokenId","type":"uint256","internalType":"uint256"},{"name":"","type":"bytes","internalType":"bytes"}],"outputs":[{"name":"","type":"bytes4","internalType":"bytes4"}],"stateMutability":"nonpayable"},{"type":"function","name":"openJoining","inputs":[],"outputs":[{"name":"","type":"bool","internalType":"bool"}],"stateMutability":"view"},{"type":"function","name":"overrides","inputs":[{"name":"","type":"address","internalType":"address"},{"name":"","type":"bytes4","internalType":"bytes4"}],"outputs":[{"name":"","type":"address","internalType":"address"}],"stateMutability":"view"},{"type":"function","name":"owner","inputs":[],"outputs":[{"name":"","type":"address","internalType":"address"}],"stateMutability":"view"},{"type":"function","name":"permissions","inputs":[{"name":"","type":"address","internalType":"address"},{"name":"","type":"address","internalType":"address"}],"outputs":[{"name":"","type":"bool","internalType":"bool"}],"stateMutability":"view"},{"type":"function","name":"proxiableUUID","inputs":[],"outputs":[{"name":"","type":"bytes32","internalType":"bytes32"}],"stateMutability":"view"},{"type":"function","name":"setMaxGardeners","inputs":[{"name":"_max","type":"uint256","internalType":"uint256"}],"outputs":[],"stateMutability":"nonpayable"},{"type":"function","name":"setOpenJoining","inputs":[{"name":"_openJoining","type":"bool","internalType":"bool"}],"outputs":[],"stateMutability":"nonpayable"},{"type":"function","name":"setOverrides","inputs":[{"name":"selectors","type":"bytes4[]","internalType":"bytes4[]"},{"name":"implementations","type":"address[]","internalType":"address[]"}],"outputs":[],"stateMutability":"nonpayable"},{"type":"function","name":"setPermissions","inputs":[{"name":"callers","type":"address[]","internalType":"address[]"},{"name":"_permissions","type":"bool[]","internalType":"bool[]"}],"outputs":[],"stateMutability":"nonpayable"},{"type":"function","name":"slug","inputs":[],"outputs":[{"name":"","type":"string","internalType":"string"}],"stateMutability":"view"},{"type":"function","name":"state","inputs":[],"outputs":[{"name":"","type":"uint256","internalType":"uint256"}],"stateMutability":"view"},{"type":"function","name":"supportsInterface","inputs":[{"name":"interfaceId","type":"bytes4","internalType":"bytes4"}],"outputs":[{"name":"","type":"bool","internalType":"bool"}],"stateMutability":"view"},{"type":"function","name":"token","inputs":[],"outputs":[{"name":"chainId","type":"uint256","internalType":"uint256"},{"name":"tokenContract","type":"address","internalType":"address"},{"name":"tokenId","type":"uint256","internalType":"uint256"}],"stateMutability":"view"},{"type":"function","name":"updateBannerImage","inputs":[{"name":"_bannerImage","type":"string","internalType":"string"}],"outputs":[],"stateMutability":"nonpayable"},{"type":"function","name":"updateDescription","inputs":[{"name":"_description","type":"string","internalType":"string"}],"outputs":[],"stateMutability":"nonpayable"},{"type":"function","name":"updateLocation","inputs":[{"name":"_location","type":"string","internalType":"string"}],"outputs":[],"stateMutability":"nonpayable"},{"type":"function","name":"updateMetadata","inputs":[{"name":"_metadata","type":"string","internalType":"string"}],"outputs":[],"stateMutability":"nonpayable"},{"type":"function","name":"updateName","inputs":[{"name":"_name","type":"string","internalType":"string"}],"outputs":[],"stateMutability":"nonpayable"},{"type":"function","name":"upgradeTo","inputs":[{"name":"newImplementation","type":"address","internalType":"address"}],"outputs":[],"stateMutability":"nonpayable"},{"type":"function","name":"upgradeToAndCall","inputs":[{"name":"newImplementation","type":"address","internalType":"address"},{"name":"data","type":"bytes","internalType":"bytes"}],"outputs":[],"stateMutability":"payable"},{"type":"function","name":"validateUserOp","inputs":[{"name":"userOp","type":"tuple","internalType":"struct UserOperation","components":[{"name":"sender","type":"address","internalType":"address"},{"name":"nonce","type":"uint256","internalType":"uint256"},{"name":"initCode","type":"bytes","internalType":"bytes"},{"name":"callData","type":"bytes","internalType":"bytes"},{"name":"callGasLimit","type":"uint256","internalType":"uint256"},{"name":"verificationGasLimit","type":"uint256","internalType":"uint256"},{"name":"preVerificationGas","type":"uint256","internalType":"uint256"},{"name":"maxFeePerGas","type":"uint256","internalType":"uint256"},{"name":"maxPriorityFeePerGas","type":"uint256","internalType":"uint256"},{"name":"paymasterAndData","type":"bytes","internalType":"bytes"},{"name":"signature","type":"bytes","internalType":"bytes"}]},{"name":"userOpHash","type":"bytes32","internalType":"bytes32"},{"name":"missingAccountFunds","type":"uint256","internalType":"uint256"}],"outputs":[{"name":"validationData","type":"uint256","internalType":"uint256"}],"stateMutability":"nonpayable"},{"type":"event","name":"AdminChanged","inputs":[{"name":"previousAdmin","type":"address","indexed":false,"internalType":"address"},{"name":"newAdmin","type":"address","indexed":false,"internalType":"address"}],"anonymous":false},{"type":"event","name":"BannerImageUpdated","inputs":[{"name":"updater","type":"address","indexed":true,"internalType":"address"},{"name":"newBannerImage","type":"string","indexed":false,"internalType":"string"}],"anonymous":false},{"type":"event","name":"BeaconUpgraded","inputs":[{"name":"beacon","type":"address","indexed":true,"internalType":"address"}],"anonymous":false},{"type":"event","name":"CommunityTokenUpdated","inputs":[{"name":"updater","type":"address","indexed":true,"internalType":"address"},{"name":"newToken","type":"address","indexed":false,"internalType":"address"}],"anonymous":false},{"type":"event","name":"DescriptionUpdated","inputs":[{"name":"updater","type":"address","indexed":true,"internalType":"address"},{"name":"newDescription","type":"string","indexed":false,"internalType":"string"}],"anonymous":false},{"type":"event","name":"Initialized","inputs":[{"name":"version","type":"uint8","indexed":false,"internalType":"uint8"}],"anonymous":false},{"type":"event","name":"LocationUpdated","inputs":[{"name":"updater","type":"address","indexed":true,"internalType":"address"},{"name":"newLocation","type":"string","indexed":false,"internalType":"string"}],"anonymous":false},{"type":"event","name":"LockUpdated","inputs":[{"name":"lockedUntil","type":"uint256","indexed":false,"internalType":"uint256"}],"anonymous":false},{"type":"event","name":"MemberAutoRegistered","inputs":[{"name":"member","type":"address","indexed":true,"internalType":"address"},{"name":"community","type":"address","indexed":true,"internalType":"address"}],"anonymous":false},{"type":"event","name":"MetadataUpdated","inputs":[{"name":"updater","type":"address","indexed":true,"internalType":"address"},{"name":"newMetadata","type":"string","indexed":false,"internalType":"string"}],"anonymous":false},{"type":"event","name":"NameUpdated","inputs":[{"name":"updater","type":"address","indexed":true,"internalType":"address"},{"name":"newName","type":"string","indexed":false,"internalType":"string"}],"anonymous":false},{"type":"event","name":"OpenJoiningUpdated","inputs":[{"name":"updater","type":"address","indexed":true,"internalType":"address"},{"name":"openJoining","type":"bool","indexed":false,"internalType":"bool"}],"anonymous":false},{"type":"event","name":"OverrideUpdated","inputs":[{"name":"owner","type":"address","indexed":false,"internalType":"address"},{"name":"selector","type":"bytes4","indexed":false,"internalType":"bytes4"},{"name":"implementation","type":"address","indexed":false,"internalType":"address"}],"anonymous":false},{"type":"event","name":"PermissionUpdated","inputs":[{"name":"owner","type":"address","indexed":false,"internalType":"address"},{"name":"caller","type":"address","indexed":false,"internalType":"address"},{"name":"hasPermission","type":"bool","indexed":false,"internalType":"bool"}],"anonymous":false},{"type":"event","name":"Upgraded","inputs":[{"name":"implementation","type":"address","indexed":true,"internalType":"address"}],"anonymous":false},{"type":"error","name":"AccountLocked","inputs":[]},{"type":"error","name":"AlreadyGardener","inputs":[]},{"type":"error","name":"ContractCreationFailed","inputs":[]},{"type":"error","name":"ExceedsMaxLockTime","inputs":[]},{"type":"error","name":"GardenFull","inputs":[]},{"type":"error","name":"HatsModuleNotAvailable","inputs":[]},{"type":"error","name":"InvalidAccountProof","inputs":[]},{"type":"error","name":"InvalidERC6551Registry","inputs":[]},{"type":"error","name":"InvalidEntryPoint","inputs":[]},{"type":"error","name":"InvalidImplementation","inputs":[]},{"type":"error","name":"InvalidInput","inputs":[]},{"type":"error","name":"InvalidInvite","inputs":[]},{"type":"error","name":"InvalidMulticallForwarder","inputs":[]},{"type":"error","name":"InvalidOperation","inputs":[]},{"type":"error","name":"NameTooLong","inputs":[]},{"type":"error","name":"NotAuthorized","inputs":[]},{"type":"error","name":"NotGardenOperator","inputs":[]},{"type":"error","name":"NotGardenOwner","inputs":[]},{"type":"error","name":"OwnershipCycle","inputs":[]}],"bytecode":{"object":"0x6101806040523060a08190526101205234801561001a575f5ffd5b506040516153e53803806153e5833981016040819052610039916101e0565b858585858383838382828181876001600160a01b03811661006d57604051632039d3c960e01b815260040160405180910390fd5b6001600160a01b039081166080528116610099576040516246a29560e81b815260040160405180910390fd5b6001600160a01b0390811660c05290811660e05282166100cc5760405163754c753360e11b815260040160405180910390fd5b50506001600160a01b039081166101005289811661014052881661016052506100fb9550506101069350505050565b505050505050610250565b600454610100900460ff16156101725760405162461bcd60e51b815260206004820152602760248201527f496e697469616c697a61626c653a20636f6e747261637420697320696e697469604482015266616c697a696e6760c81b606482015260840160405180910390fd5b60045460ff908116146101c3576004805460ff191660ff9081179091556040519081527f7f26b83ff96e1f2b6a682f133852f6798a09c465da95921460cefb38474024989060200160405180910390a15b565b80516001600160a01b03811681146101db575f5ffd5b919050565b5f5f5f5f5f5f60c087890312156101f5575f5ffd5b6101fe876101c5565b955061020c602088016101c5565b945061021a604088016101c5565b9350610228606088016101c5565b9250610236608088016101c5565b915061024460a088016101c5565b90509295509295509295565b60805160a05160c05160e051610100516101205161014051610160516150ed6102f85f395f61069101525f6109d701525f81816114de0152818161151e015281816117b6015281816117f601526119b101525f8181612a800152612e7901525f611a5801525f818161042b015281816112a001526137c101525f81816112c101526137a001525f8181610931015281816120e0015281816129cb01526130a101526150ed5ff3fe6080604052600436106103b0575f3560e01c80636beb7959116101e6578063b709467c1161010c578063dd4670641161009f578063f23a6e611161006e578063f23a6e6114610ae6578063f7fc57b014610b05578063f89b9b9314610b05578063fc0c546a14610b19576103bf565b8063dd46706414610a4a578063df341c4a14610a69578063e735b48a14610a88578063ee9c605414610aa7576103bf565b8063c19d93fb116100db578063c19d93fb146109f9578063ce0617ec14610a0d578063d087d28814610a21578063d7962d0914610a35576103bf565b8063b709467c14610969578063ba176bbc14610988578063bc197c81146109a7578063bcc5cf88146109c6576103bf565b8063918b5be111610184578063993fa20b11610153578063993fa20b146108ef578063a4e2d6341461090e578063b0d691fe14610923578063b10006a614610955576103bf565b8063918b5be11461087e578063932354c11461089d57806394def29d146108bc57806398b7a25a146108d0576103bf565b80637a8f7356116101c05780637a8f73561461081857806384da92a71461083757806386074985146108565780638da5cb5b1461086a576103bf565b80636beb7959146107d15780636d70f7ae146107e55780637284e41614610804576103bf565b80632f54bf6e116102d657806345a24e3e1161026957806352094e551161023857806352094e5514610760578063523e32601461077f57806352d1902d1461079e578063572b6c05146107b2576103bf565b806345a24e3e146107075780634f1ef28614610726578063516f279e14610739578063519454471461074d576103bf565b80633a208f95116102a55780633a208f95146106805780633a871cdd146106b357806341c6c428146106d257806343629a73146106e7576103bf565b80632f54bf6e1461060f57806334715fb11461062e5780633659cfe61461064d578063392f37e91461066c576103bf565b80631626ba7e1161034e5780631f9838b51161031d5780631f9838b5146105855780631fb1ecf0146105be578063291d0548146105d157806329aa1617146105ea576103bf565b80631626ba7e146104fc5780631b561cf91461051b5780631e2eaeaf1461053a5780631ea4887014610566576103bf565b806306fdde031161038a57806306fdde03146104655780630959f6a8146104865780630bc4241b146104a5578063150b7a02146104c4576103bf565b806301ffc9a7146103c7578063039721b1146103fb578063056d5afe1461041a576103bf565b366103bf576103bd610b50565b005b6103bd610b50565b3480156103d2575f5ffd5b506103e66103e1366004614186565b610c4e565b60405190151581526020015b60405180910390f35b348015610406575f5ffd5b506103bd6104153660046141df565b610c7a565b348015610425575f5ffd5b5061044d7f000000000000000000000000000000000000000000000000000000000000000081565b6040516001600160a01b0390911681526020016103f2565b348015610470575f5ffd5b50610479610e58565b6040516103f29190614277565b348015610491575f5ffd5b506103e66104a036600461429d565b610ee4565b3480156104b0575f5ffd5b506103bd6104bf3660046142b8565b610ef4565b3480156104cf575f5ffd5b506104e36104de3660046143a9565b611133565b6040516001600160e01b031990911681526020016103f2565b348015610507575f5ffd5b506104e361051636600461444d565b6111a4565b348015610526575f5ffd5b506103e661053536600461429d565b6111cd565b348015610545575f5ffd5b50610558610554366004614494565b5490565b6040519081526020016103f2565b348015610571575f5ffd5b506103e661058036600461429d565b6111d7565b348015610590575f5ffd5b506103e661059f3660046144ab565b600260209081525f928352604080842090915290825290205460ff1681565b6104796105cc3660046144f2565b61124c565b3480156105dc575f5ffd5b50600b546103e69060ff1681565b3480156105f5575f5ffd5b5060045461044d906201000090046001600160a01b031681565b34801561061a575f5ffd5b506103e661062936600461429d565b6114ac565b348015610639575f5ffd5b5061044d6106483660046145bd565b6114b6565b348015610658575f5ffd5b506103bd61066736600461429d565b6114d4565b348015610677575f5ffd5b506104796115b1565b34801561068b575f5ffd5b5061044d7f000000000000000000000000000000000000000000000000000000000000000081565b3480156106be575f5ffd5b506105586106cd3660046145ff565b6115be565b3480156106dd575f5ffd5b50610558600d5481565b6106fa6106f536600461464d565b6115dc565b6040516103f2919061468b565b348015610712575f5ffd5b5061044d61072136600461444d565b611764565b6103bd6107343660046146ee565b6117ac565b348015610744575f5ffd5b50610479611877565b61047961075b36600461473a565b611884565b34801561076b575f5ffd5b506103bd61077a3660046147a5565b6118cd565b34801561078a575f5ffd5b506104e36107993660046147e9565b611952565b3480156107a9575f5ffd5b506105586119a5565b3480156107bd575f5ffd5b506103e66107cc36600461429d565b611a56565b3480156107dc575f5ffd5b50610479611a88565b3480156107f0575f5ffd5b506103e66107ff36600461429d565b611a95565b34801561080f575f5ffd5b50610479611a9f565b348015610823575f5ffd5b506103bd6108323660046141df565b611aac565b348015610842575f5ffd5b506103bd6108513660046147a5565b611cca565b348015610861575f5ffd5b50610558604881565b348015610875575f5ffd5b5061044d611d67565b348015610889575f5ffd5b506103bd6108983660046147a5565b611d8c565b3480156108a8575f5ffd5b506103bd6108b73660046147a5565b611e01565b3480156108c7575f5ffd5b50610479611e76565b3480156108db575f5ffd5b506103bd6108ea36600461482d565b611e83565b3480156108fa575f5ffd5b506103e661090936600461429d565b611efd565b348015610919575f5ffd5b505f5442106103e6565b34801561092e575f5ffd5b507f000000000000000000000000000000000000000000000000000000000000000061044d565b348015610960575f5ffd5b506103bd611f33565b348015610974575f5ffd5b50610479610983366004614848565b61204b565b348015610993575f5ffd5b506103bd6109a2366004614494565b612095565b3480156109b2575f5ffd5b506104e36109c13660046148fc565b6120c2565b3480156109d1575f5ffd5b5061044d7f000000000000000000000000000000000000000000000000000000000000000081565b348015610a04575f5ffd5b50600354610558565b348015610a18575f5ffd5b506105585f5481565b348015610a2c575f5ffd5b506105586120dd565b348015610a40575f5ffd5b50610558600c5481565b348015610a55575f5ffd5b506103bd610a64366004614494565b612172565b348015610a74575f5ffd5b506103bd610a833660046149ac565b612255565b348015610a93575f5ffd5b506103bd610aa23660046147a5565b612352565b348015610ab2575f5ffd5b5061044d610ac13660046149fc565b600160209081525f92835260408084209091529082529020546001600160a01b031681565b348015610af1575f5ffd5b506104e3610b00366004614a2f565b6123c7565b348015610b10575f5ffd5b506105586123e2565b348015610b24575f5ffd5b50610b2d6123eb565b604080519384526001600160a01b039092166020840152908201526060016103f2565b5f5f5f610b5b612401565b9250925092505f610b6d84848461240d565b6001600160a01b038082165f9081526001602090815260408083206001600160e01b03198435168452909152902054919250168015610c47575f610bb030612428565b90505f5f826001600160a01b0316845f3633604051602001610bd59493929190614a86565b60408051601f1981840301815290829052610bef91614ada565b5f604051808303815f865af19150503d805f8114610c28576040519150601f19603f3d011682016040523d82523d5f602084013e610c2d565b606091505b509150915081610c3f57805160208201fd5b805160208201f35b5050505050565b5f5f610c5983612462565b90508015610c6a5750600192915050565b610c72612486565b505f92915050565b5f5f5f610c85612401565b9250925092505f610c9784848461240d565b90506001600160a01b038116610cc05760405163ea8e4eb560e01b815260040160405180910390fd5b336001600160a01b03821614610ce95760405163ea8e4eb560e01b815260040160405180910390fd5b610cf1612530565b86858114610d125760405163b4fa3fb360e01b815260040160405180910390fd5b5f5b81811015610e4c57878782818110610d2e57610d2e614ae5565b9050602002016020810190610d43919061482d565b6001600160a01b0384165f908152600260205260408120908c8c85818110610d6d57610d6d614ae5565b9050602002016020810190610d82919061429d565b6001600160a01b0316815260208101919091526040015f20805460ff19169115159190911790557f394777a58092892d136a90c4bb7e4350c72ac50fba6a0208128677f36527dcf5838b8b84818110610ddd57610ddd614ae5565b9050602002016020810190610df2919061429d565b8a8a85818110610e0457610e04614ae5565b9050602002016020810190610e19919061482d565b604080516001600160a01b03948516815293909216602084015215159082015260600160405180910390a1600101610d14565b50505050505050505050565b60058054610e6590614af9565b80601f0160208091040260200160405190810160405280929190818152602001828054610e9190614af9565b8015610edc5780601f10610eb357610100808354040283529160200191610edc565b820191905f5260205f20905b815481529060010190602001808311610ebf57829003601f168201915b505050505081565b5f610eee8261255c565b92915050565b600454610100900460ff1615808015610f145750600454600160ff909116105b80610f2e5750303b158015610f2e575060045460ff166001145b610f965760405162461bcd60e51b815260206004820152602e60248201527f496e697469616c697a61626c653a20636f6e747261637420697320616c72656160448201526d191e481a5b9a5d1a585b1a5e995960921b60648201526084015b60405180910390fd5b6004805460ff191660011790558015610fb9576004805461ff0019166101001790555b6048610fc86020840184614b31565b90501115610fe95760405163680b6caf60e01b815260040160405180910390fd5b610ff6602083018361429d565b600480546001600160a01b0392909216620100000262010000600160b01b031990921691909117905561102c6020830183614b31565b60059161103a919083614bb7565b506110486040830183614b31565b600691611056919083614bb7565b506110646060830183614b31565b600791611072919083614bb7565b506110806080830183614b31565b60089161108e919083614bb7565b5061109c60a0830183614b31565b6009916110aa919083614bb7565b506110b860c0830183614b31565b600a916110c6919083614bb7565b506110d8610100830160e0840161482d565b600b805460ff1916911515919091179055801561112f576004805461ff0019169055604051600181527f7f26b83ff96e1f2b6a682f133852f6798a09c465da95921460cefb38474024989060200160405180910390a15b5050565b5f5f5f5f61113f612401565b91945092509050336001600160a01b03831614801561115d57508086145b801561116857504683145b156111865760405163b79e3f3f60e01b815260040160405180910390fd5b61118e610b50565b50630a85bd0160e11b925050505b949350505050565b5f6111b08484846126bc565b156111c35750630b135d3f60e11b6111c6565b505f5b9392505050565b5f610eee8261283c565b5f6111e0612877565b6001600160a01b03166338f8535830846040518363ffffffff1660e01b815260040161120d929190614c70565b602060405180830381865afa158015611228573d5f5f3e3d5ffd5b505050506040513d601f19601f82011682018060405250810190610eee9190614c8a565b6060815f611258612936565b9050365f5b838110156114615786868281811061127757611277614ae5565b90506060020191505f826020016020810190611293919061429d565b905060408301355f6112ea7f00000000000000000000000000000000000000000000000000000000000000007f0000000000000000000000000000000000000000000000000000000000000000873546878761293f565b9050826001600160a01b03163b5f0361131657604051631052dd2560e21b815260040160405180910390fd5b6001600160a01b0381163b156113a457806001600160a01b031663a4e2d6346040518163ffffffff1660e01b8152600401602060405180830381865afa158015611362573d5f5f3e3d5ffd5b505050506040513d601f19601f820116820180604052508101906113869190614c8a565b156113a457604051636315bfbb60e01b815260040160405180910390fd5b6040516331a9108f60e11b8152600481018390526001600160a01b03841690636352211e90602401602060405180830381865afa925050508015611405575060408051601f3d908101601f1916820190925261140291810190614ca5565b60015b61142257604051631052dd2560e21b815260040160405180910390fd5b866001600160a01b0316816001600160a01b03161461145457604051631052dd2560e21b815260040160405180910390fd5b509450505060010161125d565b5061146b826129c8565b6114885760405163ea8e4eb560e01b815260040160405180910390fd5b611490612530565b61149d8b8b8b8b8b612ba7565b9b9a5050505050505050505050565b5f610eee82612d7c565b5f6114bf612db2565b6114cb85858585612dec565b95945050505050565b6001600160a01b037f000000000000000000000000000000000000000000000000000000000000000016300361151c5760405162461bcd60e51b8152600401610f8d90614cc0565b7f00000000000000000000000000000000000000000000000000000000000000006001600160a01b03166115645f51602061509a5f395f51905f52546001600160a01b031690565b6001600160a01b03161461158a5760405162461bcd60e51b8152600401610f8d90614d0c565b61159381612e5a565b604080515f808252602082019092526115ae91839190612f27565b50565b600a8054610e6590614af9565b5f6115c7613096565b6115d1848461310e565b90506111c682613144565b60606115ee6115e9612936565b6129c8565b61160b5760405163ea8e4eb560e01b815260040160405180910390fd5b611613612530565b815f816001600160401b0381111561162d5761162d6142ef565b60405190808252806020026020018201604052801561166057816020015b606081526020019060019003908161164b5790505b5090505f5b8281101561175b5761173686868381811061168257611682614ae5565b90506020028101906116949190614d58565b6116a290602081019061429d565b8787848181106116b4576116b4614ae5565b90506020028101906116c69190614d58565b602001358888858181106116dc576116dc614ae5565b90506020028101906116ee9190614d58565b6116fc906040810190614b31565b8a8a8781811061170e5761170e614ae5565b90506020028101906117209190614d58565b611731906080810190606001614d76565b612ba7565b82828151811061174857611748614ae5565b6020908102919091010152600101611665565b50949350505050565b5f61176d612db2565b61119c8484848080601f0160208091040260200160405190810160405280939291908181526020018383808284375f9201919091525061318d92505050565b6001600160a01b037f00000000000000000000000000000000000000000000000000000000000000001630036117f45760405162461bcd60e51b8152600401610f8d90614cc0565b7f00000000000000000000000000000000000000000000000000000000000000006001600160a01b031661183c5f51602061509a5f395f51905f52546001600160a01b031690565b6001600160a01b0316146118625760405162461bcd60e51b8152600401610f8d90614d0c565b61186b82612e5a565b61112f82826001612f27565b60088054610e6590614af9565b60606118916115e9612936565b6118ae5760405163ea8e4eb560e01b815260040160405180910390fd5b6118b6612530565b6118c38686868686612ba7565b9695505050505050565b6118dd6118d8612936565b6131c9565b6118fa57604051633cebab8560e21b815260040160405180910390fd5b60096119068282614d8f565b5061190f612936565b6001600160a01b03167f7f0cd4337b583a09080a4036ee4935d1069f38152ad2f0750588bb752c66916d826040516119479190614277565b60405180910390a250565b5f6119928484848080601f0160208091040260200160405190810160405280939291908181526020018383808284375f9201919091525061320492505050565b156111c35750630291f19360e51b6111c6565b5f306001600160a01b037f00000000000000000000000000000000000000000000000000000000000000001614611a445760405162461bcd60e51b815260206004820152603860248201527f555550535570677261646561626c653a206d757374206e6f742062652063616c60448201527f6c6564207468726f7567682064656c656761746563616c6c00000000000000006064820152608401610f8d565b505f51602061509a5f395f51905f5290565b7f00000000000000000000000000000000000000000000000000000000000000006001600160a01b0390811691161490565b60068054610e6590614af9565b5f610eee826131c9565b60078054610e6590614af9565b5f5f5f611ab7612401565b9250925092505f611ac984848461240d565b90506001600160a01b038116611af25760405163ea8e4eb560e01b815260040160405180910390fd5b336001600160a01b03821614611b1b5760405163ea8e4eb560e01b815260040160405180910390fd5b611b23612530565b5f611b2d30612428565b9050806001600160a01b03163b5f03611b4957611b49306132ad565b87868114611b6a5760405163b4fa3fb360e01b815260040160405180910390fd5b5f5b81811015611cbd57888882818110611b8657611b86614ae5565b9050602002016020810190611b9b919061429d565b6001600160a01b0385165f908152600160205260408120908d8d85818110611bc557611bc5614ae5565b9050602002016020810190611bda9190614186565b6001600160e01b031916815260208101919091526040015f2080546001600160a01b0319166001600160a01b03929092169190911790557f2c722487e90aca38ec1b074c3403210bd2bfb769b4da7f12f7bf0b9e37517c18848c8c84818110611c4557611c45614ae5565b9050602002016020810190611c5a9190614186565b8b8b85818110611c6c57611c6c614ae5565b9050602002016020810190611c81919061429d565b604080516001600160a01b0394851681526001600160e01b031993909316602084015292168183015290519081900360600190a1600101611b6c565b5050505050505050505050565b611cda611cd5612936565b612d7c565b611cf757604051633632b98960e21b815260040160405180910390fd5b604881511115611d1a5760405163680b6caf60e01b815260040160405180910390fd5b6005611d268282614d8f565b50611d2f612936565b6001600160a01b03167f74321da206c1b9fa34367f7ece59ca49371dcd13820b9a5c3767ae1ecceed51a826040516119479190614277565b5f5f5f5f611d73612401565b925092509250611d848383836132e0565b935050505090565b611d976118d8612936565b611db457604051633cebab8560e21b815260040160405180910390fd5b600a611dc08282614d8f565b50611dc9612936565b6001600160a01b03167f2013570c343af8ab14a9778150e381a0fda34ed6368127a95fd5e7210cbec5bf826040516119479190614277565b611e0c6118d8612936565b611e2957604051633cebab8560e21b815260040160405180910390fd5b6008611e358282614d8f565b50611e3e612936565b6001600160a01b03167f23146a23bca92967799f9c14b4995bb19ca27a6331c8a66f695bc25252815024826040516119479190614277565b60098054610e6590614af9565b611e8e6118d8612936565b611eab57604051633cebab8560e21b815260040160405180910390fd5b600b805460ff1916821515179055611ec1612936565b6001600160a01b03167fa48b25a14599514510fcdca0f35ff4cd42847f5e61698a238f4ee01e2d1c2c6a82604051611947911515815260200190565b5f611f06612877565b6001600160a01b031663b2acf41d30846040518363ffffffff1660e01b815260040161120d929190614c70565b600b5460ff16611f5657604051636dc9375d60e11b815260040160405180910390fd5b611f66611f61612936565b61255c565b15611f845760405163211bad0f60e11b815260040160405180910390fd5b5f611f8d612877565b90505f600c54118015611fa45750600c54600d5410155b15611fc2576040516302332e7760e21b815260040160405180910390fd5b806001600160a01b0316633868e7e530611fda612936565b5f6040518463ffffffff1660e01b8152600401611ff993929190614e5d565b5f604051808303815f87803b158015612010575f5ffd5b505af1158015612022573d5f5f3e3d5ffd5b5050600d8054925090505f61203683614eb3565b91905055506115ae612046612936565b61337a565b6060612055612db2565b6114cb858585858080601f0160208091040260200160405190810160405280939291908181526020018383808284375f9201919091525061364192505050565b6120a06118d8612936565b6120bd57604051633cebab8560e21b815260040160405180910390fd5b600c55565b5f6120cb610b50565b5063bc197c8160e01b95945050505050565b5f7f0000000000000000000000000000000000000000000000000000000000000000604051631aab3f0d60e11b81523060048201525f60248201526001600160a01b0391909116906335567e1a90604401602060405180830381865afa158015612149573d5f5f3e3d5ffd5b505050506040513d601f19601f8201168201806040525081019061216d9190614ecb565b905090565b5f5f5f61217d612401565b9250925092505f61218f84848461240d565b90506001600160a01b0381166121b85760405163ea8e4eb560e01b815260040160405180910390fd5b336001600160a01b038216146121e15760405163ea8e4eb560e01b815260040160405180910390fd5b6121ef426301e13380614ee2565b85111561220f576040516301814f7d60e31b815260040160405180910390fd5b612217612530565b5f8590556040518581527fa7b24c66dd3269a292a60b3facdbb8f3e7557d1e19e64d99e0d6ee7250be63ad9060200160405180910390a15050505050565b33301415806122675750600e5460ff16155b1561228557604051633632b98960e21b815260040160405180910390fd5b60405163095ea7b360e01b81526001600160a01b0384811660048301526024820184905285169063095ea7b3906044016020604051808303815f875af11580156122d1573d5f5f3e3d5ffd5b505050506040513d601f19601f820116820180604052508101906122f59190614c8a565b5060405163799556e160e11b81526001600160a01b03828116600483015284169063f32aadc2906024015f604051808303815f87803b158015612336575f5ffd5b505af1158015612348573d5f5f3e3d5ffd5b5050505050505050565b61235d6118d8612936565b61237a57604051633cebab8560e21b815260040160405180910390fd5b60076123868282614d8f565b5061238f612936565b6001600160a01b03167f37cc8c6ced0cbc4d440fcfa810a2f09f40b8f0127c3656103edf26b3d93e0ec1826040516119479190614277565b5f6123d0610b50565b5063f23a6e6160e01b95945050505050565b5f61216d6136b6565b5f5f5f6123f6612401565b925092509250909192565b5f5f5f6123f630613743565b5f5f61241a8585856132e0565b90506114cb81868686613797565b5f610eee7f97f795a08410e77dc9dbbaba3915f17c601e45642518dd578bd440d8775bfee461245684613863565b805190602001206138ce565b5f6001600160e01b03198216635194544760e01b1480610eee5750610eee826138da565b5f5f5f612491612401565b9250925092505f6124a384848461240d565b6001600160a01b038082165f9081526001602090815260408083206001600160e01b03198435168452909152902054919250168015610c47575f5f826001600160a01b03165f366040516124f8929190614ef5565b5f60405180830381855afa9150503d805f8114610c28576040519150601f19603f3d011682016040523d82523d5f602084013e610c2d565b5f5442101561255257604051636315bfbb60e01b815260040160405180910390fd5b61255a6138fe565b565b5f5f612566612877565b6040516311e3579360e31b81529091506001600160a01b03821690638f1abc98906125979030908790600401614c70565b602060405180830381865afa1580156125b2573d5f5f3e3d5ffd5b505050506040513d601f19601f820116820180604052508101906125d69190614c8a565b806126495750604051630e70978b60e21b81526001600160a01b038216906339c25e2c9061260a9030908790600401614c70565b602060405180830381865afa158015612625573d5f5f3e3d5ffd5b505050506040513d601f19601f820116820180604052508101906126499190614c8a565b806111c6575060405163f582bceb60e01b81526001600160a01b0382169063f582bceb9061267d9030908790600401614c70565b602060405180830381865afa158015612698573d5f5f3e3d5ffd5b505050506040513d601f19601f820116820180604052508101906111c69190614c8a565b5f5f838360408181106126d1576126d1614ae5565b919091013560f81c91505f90508181036127b1576126f260205f8688614f04565b6126fb91614f2b565b5f1c90506127178160405180602001604052805f815250613204565b15801561272d57506001600160a01b0381163014155b1561273c575f925050506111c6565b365f868661274e604060208385614f04565b61275791614f2b565b612762928290614f04565b915091506127a6838984848080601f0160208091040260200160405190810160405280939291908181526020018383808284375f9201919091525061393892505050565b9450505050506111c6565b5f6127f18787878080601f0160208091040260200160405190810160405280939291908181526020018383808284375f92019190915250613a1f92505050565b90925090505f81600481111561280957612809614e49565b14612819575f93505050506111c6565b6128318260405180602001604052805f815250613204565b979650505050505050565b5f5f612846612877565b6040516326ba248f60e21b81529091506001600160a01b03821690639ae8923c906125979030908790600401614c70565b5f5f6128816123eb565b509150506001600160a01b0381166128ac5760405163a9ec899b60e01b815260040160405180910390fd5b5f816001600160a01b031663b4a9c6076040518163ffffffff1660e01b8152600401602060405180830381865afa1580156128e9573d5f5f3e3d5ffd5b505050506040513d601f19601f8201168201806040525081019061290d9190614ca5565b90506001600160a01b038116610eee5760405163a9ec899b60e01b815260040160405180910390fd5b5f61216d613a61565b6040805160b78082018490526001600160a01b038516609783015260778201869052605782018790526e5af43d82803e903d91602b57fd5bf3603783015260288201889052733d60ad80600a3d3981f3363d3d373d3d3d363d736014830152815260d7810190915280516020909101205f906129bc86828a613a8f565b98975050505050505050565b5f7f00000000000000000000000000000000000000000000000000000000000000006001600160a01b0316826001600160a01b031603612a0a57506001919050565b5f5f5f612a15612401565b925092509250468314612af95730612a48612a2e612936565b731111000000000000000000000000000000001110190190565b6001600160a01b031603612a6157506001949350505050565b6040516333932be560e11b81526001600160a01b0386811660048301527f0000000000000000000000000000000000000000000000000000000000000000169063672657ca90602401602060405180830381865afa158015612ac5573d5f5f3e3d5ffd5b505050506040513d601f19601f82011682018060405250810190612ae99190614c8a565b15612af957506001949350505050565b5f612b058484846132e0565b9050806001600160a01b0316866001600160a01b031603612b2c5750600195945050505050565b5f612b3982868686613797565b9050806001600160a01b0316876001600160a01b031603612b61575060019695505050505050565b6001600160a01b038082165f908152600260209081526040808320938b168352929052205460ff1615612b9b575060019695505050505050565b505f9695505050505050565b606060ff8216612bf857612bf1868686868080601f0160208091040260200160405190810160405280939291908181526020018383808284375f9201919091525061364192505050565b90506114cb565b5f1960ff831601612c5f575f612c0d30612428565b9050806001600160a01b03163b5f03612c2957612c29306132ad565b612c578187898888604051602001612c4393929190614f48565b604051602081830303815290604052613641565b9150506114cb565b60011960ff831601612ce357612caa8585858080601f0160208091040260200160405190810160405280939291908181526020018383808284375f9201919091525061318d92505050565b604051602001612ccd919060609190911b6001600160601b031916815260140190565b60405160208183030381529060405290506114cb565b60021960ff831601612d63575f612cfd6020828688614f04565b612d0691614f2b565b9050365f612d17866020818a614f04565b91509150612d2788848484612dec565b604051602001612d4a919060609190911b6001600160601b031916815260140190565b60405160208183030381529060405293505050506114cb565b604051631cc6a69960e11b815260040160405180910390fd5b5f612d85612877565b6001600160a01b031663f582bceb30846040518363ffffffff1660e01b815260040161120d929190614c70565b612dbb30612428565b6001600160a01b0316336001600160a01b03161461255a5760405163ea8e4eb560e01b815260040160405180910390fd5b5f5f83838080601f0160208091040260200160405190810160405280939291908181526020018383808284375f9201919091525050825192935087929150506020830188f591506001600160a01b03821661175b5760405163a28c247360e01b815260040160405180910390fd5b604051631506fd4d60e01b81526001600160a01b0382811660048301527f00000000000000000000000000000000000000000000000000000000000000001690631506fd4d90602401602060405180830381865afa158015612ebe573d5f5f3e3d5ffd5b505050506040513d601f19601f82011682018060405250810190612ee29190614c8a565b612eff5760405163340aafcd60e11b815260040160405180910390fd5b612f0a6115e9612936565b6115ae5760405163ea8e4eb560e01b815260040160405180910390fd5b7f4910fdfa16fed3260ed0e7147f7cc6da11a60208b5b9406d12a635614ffd91435460ff1615612f5f57612f5a83613ab8565b505050565b826001600160a01b03166352d1902d6040518163ffffffff1660e01b8152600401602060405180830381865afa925050508015612fb9575060408051601f3d908101601f19168201909252612fb691810190614ecb565b60015b61301c5760405162461bcd60e51b815260206004820152602e60248201527f45524331393637557067726164653a206e657720696d706c656d656e7461746960448201526d6f6e206973206e6f74205555505360901b6064820152608401610f8d565b5f51602061509a5f395f51905f52811461308a5760405162461bcd60e51b815260206004820152602960248201527f45524331393637557067726164653a20756e737570706f727465642070726f786044820152681a58589b195555525160ba1b6064820152608401610f8d565b50612f5a838383613b53565b336001600160a01b037f0000000000000000000000000000000000000000000000000000000000000000161461255a5760405162461bcd60e51b815260206004820152601c60248201527f6163636f756e743a206e6f742066726f6d20456e747279506f696e74000000006044820152606401610f8d565b5f61312f61311c8484613b7d565b61312a610140860186614b31565b6126bc565b1561313b57505f610eee565b50600192915050565b80156115ae576040515f9033905f1990849084818181858888f193505050503d805f8114610c47576040519150601f19603f3d011682016040523d82523d5f602084013e610c47565b80515f9082906020820185f091506001600160a01b0382166131c25760405163a28c247360e01b815260040160405180910390fd5b5092915050565b5f5f6131d3612877565b604051630e70978b60e21b81529091506001600160a01b038216906339c25e2c9061260a9030908790600401614c70565b5f5f5f5f613210612401565b9250925092505f6132228484846132e0565b9050806001600160a01b0316876001600160a01b03160361324a576001945050505050610eee565b5f61325782868686613797565b9050806001600160a01b0316886001600160a01b03160361328057600195505050505050610eee565b6001600160a01b038082165f908152600260209081526040808320938c168352929052205460ff166129bc565b61112f5f7f97f795a08410e77dc9dbbaba3915f17c601e45642518dd578bd440d8775bfee46132db84613863565b613bb0565b5f4684146132ef57505f6111c6565b826001600160a01b03163b5f0361330757505f6111c6565b6040516331a9108f60e11b8152600481018390526001600160a01b03841690636352211e90602401602060405180830381865afa925050508015613368575060408051601f3d908101601f1916820190925261336591810190614ca5565b60015b61337357505f6111c6565b90506111c6565b5f613383613cb2565b90506001600160a01b038116613397575050565b604051631d973c7360e21b81523060048201525f906001600160a01b0383169063765cf1cc90602401602060405180830381865afa1580156133db573d5f5f3e3d5ffd5b505050506040513d601f19601f820116820180604052508101906133ff9190614ca5565b90506001600160a01b03811661341457505050565b5f826001600160a01b0316634bf3ba3f6040518163ffffffff1660e01b8152600401602060405180830381865afa158015613451573d5f5f3e3d5ffd5b505050506040513d601f19601f820116820180604052508101906134759190614ecb565b9050805f036134845750505050565b5f836001600160a01b0316639b67b4b66040518163ffffffff1660e01b8152600401602060405180830381865afa1580156134c1573d5f5f3e3d5ffd5b505050506040513d601f19601f820116820180604052508101906134e59190614ca5565b90506001600160a01b0381166134fc575050505050565b6040516370a0823160e01b81523060048201525f906001600160a01b038316906370a0823190602401602060405180830381865afa158015613540573d5f5f3e3d5ffd5b505050506040513d601f19601f820116820180604052508101906135649190614ecb565b90508281101561357657505050505050565b600e805460ff19166001179055604051636f9a0e2560e11b81526001600160a01b03838116600483015285811660248301526044820185905287166064820152309063df341c4a906084015f604051808303815f87803b1580156135d8575f5ffd5b505af19250505080156135e9575060015b1561362f57836001600160a01b0316866001600160a01b03167f80e20f0983f621b9f0480903a18b77ebc5a265c2d824ebe6b98dde91e811521f60405160405180910390a35b5050600e805460ff1916905550505050565b60605f846001600160a01b0316848460405161365d9190614ada565b5f6040518083038185875af1925050503d805f8114613697576040519150601f19603f3d011682016040523d82523d5f602084013e61369c565b606091505b5092509050806136ae57815160208301fd5b509392505050565b5f5f6136c0613d3a565b90506001600160a01b0381166136d757505f919050565b60405163a1d4b07f60e01b81523060048201526001600160a01b0382169063a1d4b07f90602401602060405180830381865afa158015613719573d5f5f3e3d5ffd5b505050506040513d601f19601f8201168201806040525081019061373d9190614ecb565b91505090565b604080516060808252608082019092525f91829182918291906020820181803683370190505090506060604d60208301873c808060200190518101906137899190614f6e565b935093509350509193909250565b5f845b6137e5817f00000000000000000000000000000000000000000000000000000000000000007f0000000000000000000000000000000000000000000000000000000000000000613db4565b156114cb57806001600160a01b031663fc0c546a6040518163ffffffff1660e01b8152600401606060405180830381865afa158015613826573d5f5f3e3d5ffd5b505050506040513d601f19601f8201168201806040525081019061384a9190614f6e565b9196509450925061385c8585856132e0565b905061379a565b60606040518060400160405280600e81526020016d604380600d600039806000f3fe7360901b815250826040518060600160405280602e815260200161506c602e91396040516020016138b893929190614fa6565b6040516020818303038152906040529050919050565b5f6111c6838330613a8f565b5f6001600160e01b03198216636faff5f160e01b1480610eee5750610eee82613e5b565b600354613909613e8f565b60405160200161391b93929190614fce565b60408051601f198184030181529190528051602090910120600355565b5f5f5f856001600160a01b0316631626ba7e60e01b8686604051602401613960929190615003565b60408051601f198184030181529181526020820180516001600160e01b03166001600160e01b031990941693909317909252905161399e9190614ada565b5f60405180830381855afa9150503d805f81146139d6576040519150601f19603f3d011682016040523d82523d5f602084013e6139db565b606091505b50915091508180156139ef57506020815110155b80156118c357508051630b135d3f60e11b90613a149083016020908101908401614ecb565b149695505050505050565b5f5f8251604103613a53576020830151604084015160608501515f1a613a4787828585613ea1565b94509450505050613a5a565b505f905060025b9250929050565b5f613a6b33611a56565b8015613a78575060143610155b15613a8a575060131936013560601c90565b503390565b5f604051836040820152846020820152828152600b8101905060ff815360559020949350505050565b6001600160a01b0381163b613b255760405162461bcd60e51b815260206004820152602d60248201527f455243313936373a206e657720696d706c656d656e746174696f6e206973206e60448201526c1bdd08184818dbdb9d1c9858dd609a1b6064820152608401610f8d565b5f51602061509a5f395f51905f5280546001600160a01b0319166001600160a01b0392909216919091179055565b613b5c83613f5e565b5f82511180613b685750805b15612f5a57613b778383613f9d565b50505050565b7f19457468657265756d205369676e6564204d6573736167653a0a3332000000005f908152601c829052603c81206111c6565b5f83471015613c015760405162461bcd60e51b815260206004820152601d60248201527f437265617465323a20696e73756666696369656e742062616c616e63650000006044820152606401610f8d565b81515f03613c515760405162461bcd60e51b815260206004820181905260248201527f437265617465323a2062797465636f6465206c656e677468206973207a65726f6044820152606401610f8d565b8282516020840186f590506001600160a01b0381166111c65760405162461bcd60e51b815260206004820152601960248201527f437265617465323a204661696c6564206f6e206465706c6f79000000000000006044820152606401610f8d565b5f5f613cbc6123eb565b509150506001600160a01b038116613cd5575f91505090565b806001600160a01b03166372a0d6ad6040518163ffffffff1660e01b8152600401602060405180830381865afa925050508015613d2f575060408051601f3d908101601f19168201909252613d2c91810190614ca5565b60015b610eee575f91505090565b5f5f613d446123eb565b509150506001600160a01b038116613d5d575f91505090565b806001600160a01b0316634026d7626040518163ffffffff1660e01b8152600401602060405180830381865afa925050508015613d2f575060408051601f3d908101601f19168201909252613d2c91810190614ca5565b5f836001600160a01b03163b60ad14613dce57505f6111c6565b5f613dd885613fc2565b9050806001600160a01b03163b5f03613df4575f9150506111c6565b836001600160a01b0316816001600160a01b031614613e16575f9150506111c6565b5f5f5f5f613e2389613fd2565b9350935093509350613e3987868686868661293f565b6001600160a01b0316896001600160a01b031614955050505050509392505050565b5f6001600160e01b03198216630271189760e51b1480610eee57506301ffc9a760e01b6001600160e01b0319831614610eee565b365f613e99614029565b915091509091565b5f807f7fffffffffffffffffffffffffffffff5d576e7357a4501ddfe92f46681b20a0831115613ed657505f90506003613f55565b604080515f8082526020820180845289905260ff881692820192909252606081018690526080810185905260019060a0016020604051602081039080840390855afa158015613f27573d5f5f3e3d5ffd5b5050604051601f1901519150506001600160a01b038116613f4f575f60019250925050613f55565b91505f90505b94509492505050565b613f6781613ab8565b6040516001600160a01b038216907fbc7cd75a20ee27fd9adebab32041f755214dbc6bffa90cc0225b39da2e5c2d3b905f90a250565b60606111c683836040518060600160405280602781526020016150ba60279139614068565b5f6014600a600c843c50505f5190565b60408051608080825260a082019092525f9182918291829182916020820181803683370190505090506080602d60208301883c80806020019051810190614019919061501b565b9450945094509450509193509193565b365f61403433611a56565b8015614041575060143610155b15614061575f8036614054601482615058565b92613e9993929190614f04565b5f36613e99565b60605f5f856001600160a01b0316856040516140849190614ada565b5f60405180830381855af49150503d805f81146140bc576040519150601f19603f3d011682016040523d82523d5f602084013e6140c1565b606091505b50915091506118c3868383876060831561413b5782515f03614134576001600160a01b0385163b6141345760405162461bcd60e51b815260206004820152601d60248201527f416464726573733a2063616c6c20746f206e6f6e2d636f6e74726163740000006044820152606401610f8d565b508161119c565b61119c83838151156141505781518083602001fd5b8060405162461bcd60e51b8152600401610f8d9190614277565b80356001600160e01b031981168114614181575f5ffd5b919050565b5f60208284031215614196575f5ffd5b6111c68261416a565b5f5f83601f8401126141af575f5ffd5b5081356001600160401b038111156141c5575f5ffd5b6020830191508360208260051b8501011115613a5a575f5ffd5b5f5f5f5f604085870312156141f2575f5ffd5b84356001600160401b03811115614207575f5ffd5b6142138782880161419f565b90955093505060208501356001600160401b03811115614231575f5ffd5b61423d8782880161419f565b95989497509550505050565b5f81518084528060208401602086015e5f602082860101526020601f19601f83011685010191505092915050565b602081525f6111c66020830184614249565b6001600160a01b03811681146115ae575f5ffd5b5f602082840312156142ad575f5ffd5b81356111c681614289565b5f602082840312156142c8575f5ffd5b81356001600160401b038111156142dd575f5ffd5b820161010081850312156111c6575f5ffd5b634e487b7160e01b5f52604160045260245ffd5b604051601f8201601f191681016001600160401b038111828210171561432b5761432b6142ef565b604052919050565b5f5f6001600160401b0384111561434c5761434c6142ef565b50601f8301601f191660200161436181614303565b915050828152838383011115614375575f5ffd5b828260208301375f602084830101529392505050565b5f82601f83011261439a575f5ffd5b6111c683833560208501614333565b5f5f5f5f608085870312156143bc575f5ffd5b84356143c781614289565b935060208501356143d781614289565b92506040850135915060608501356001600160401b038111156143f8575f5ffd5b6144048782880161438b565b91505092959194509250565b5f5f83601f840112614420575f5ffd5b5081356001600160401b03811115614436575f5ffd5b602083019150836020828501011115613a5a575f5ffd5b5f5f5f6040848603121561445f575f5ffd5b8335925060208401356001600160401b0381111561447b575f5ffd5b61448786828701614410565b9497909650939450505050565b5f602082840312156144a4575f5ffd5b5035919050565b5f5f604083850312156144bc575f5ffd5b82356144c781614289565b915060208301356144d781614289565b809150509250929050565b803560ff81168114614181575f5ffd5b5f5f5f5f5f5f5f60a0888a031215614508575f5ffd5b873561451381614289565b96506020880135955060408801356001600160401b03811115614534575f5ffd5b6145408a828b01614410565b90965094506145539050606089016144e2565b925060808801356001600160401b0381111561456d575f5ffd5b8801601f81018a1361457d575f5ffd5b80356001600160401b03811115614592575f5ffd5b8a60206060830284010111156145a6575f5ffd5b602082019350809250505092959891949750929550565b5f5f5f5f606085870312156145d0575f5ffd5b843593506020850135925060408501356001600160401b038111156145f3575f5ffd5b61423d87828801614410565b5f5f5f60608486031215614611575f5ffd5b83356001600160401b03811115614626575f5ffd5b84016101608187031215614638575f5ffd5b95602085013595506040909401359392505050565b5f5f6020838503121561465e575f5ffd5b82356001600160401b03811115614673575f5ffd5b61467f8582860161419f565b90969095509350505050565b5f602082016020835280845180835260408501915060408160051b8601019250602086015f5b828110156146e257603f198786030184526146cd858351614249565b945060209384019391909101906001016146b1565b50929695505050505050565b5f5f604083850312156146ff575f5ffd5b823561470a81614289565b915060208301356001600160401b03811115614724575f5ffd5b6147308582860161438b565b9150509250929050565b5f5f5f5f5f6080868803121561474e575f5ffd5b853561475981614289565b94506020860135935060408601356001600160401b0381111561477a575f5ffd5b61478688828901614410565b90945092506147999050606087016144e2565b90509295509295909350565b5f602082840312156147b5575f5ffd5b81356001600160401b038111156147ca575f5ffd5b8201601f810184136147da575f5ffd5b61119c84823560208401614333565b5f5f5f604084860312156147fb575f5ffd5b833561480681614289565b925060208401356001600160401b0381111561447b575f5ffd5b80151581146115ae575f5ffd5b5f6020828403121561483d575f5ffd5b81356111c681614820565b5f5f5f5f6060858703121561485b575f5ffd5b843561486681614289565b93506020850135925060408501356001600160401b038111156145f3575f5ffd5b5f82601f830112614896575f5ffd5b81356001600160401b038111156148af576148af6142ef565b8060051b6148bf60208201614303565b918252602081850181019290810190868411156148da575f5ffd5b6020860192505b838310156118c35782358252602092830192909101906148e1565b5f5f5f5f5f60a08688031215614910575f5ffd5b853561491b81614289565b9450602086013561492b81614289565b935060408601356001600160401b03811115614945575f5ffd5b61495188828901614887565b93505060608601356001600160401b0381111561496c575f5ffd5b61497888828901614887565b92505060808601356001600160401b03811115614993575f5ffd5b61499f8882890161438b565b9150509295509295909350565b5f5f5f5f608085870312156149bf575f5ffd5b84356149ca81614289565b935060208501356149da81614289565b92506040850135915060608501356149f181614289565b939692955090935050565b5f5f60408385031215614a0d575f5ffd5b8235614a1881614289565b9150614a266020840161416a565b90509250929050565b5f5f5f5f5f60a08688031215614a43575f5ffd5b8535614a4e81614289565b94506020860135614a5e81614289565b9350604086013592506060860135915060808601356001600160401b03811115614993575f5ffd5b6001600160601b03198560601b1681528284601483013760609190911b6001600160601b0319166014919092019081019190915260280192915050565b5f81518060208401855e5f93019283525090919050565b5f6111c68284614ac3565b634e487b7160e01b5f52603260045260245ffd5b600181811c90821680614b0d57607f821691505b602082108103614b2b57634e487b7160e01b5f52602260045260245ffd5b50919050565b5f5f8335601e19843603018112614b46575f5ffd5b8301803591506001600160401b03821115614b5f575f5ffd5b602001915036819003821315613a5a575f5ffd5b601f821115612f5a57805f5260205f20601f840160051c81016020851015614b985750805b601f840160051c820191505b81811015610c47575f8155600101614ba4565b6001600160401b03831115614bce57614bce6142ef565b614be283614bdc8354614af9565b83614b73565b5f601f841160018114614c13575f8515614bfc5750838201355b5f19600387901b1c1916600186901b178355610c47565b5f83815260208120601f198716915b82811015614c425786850135825560209485019460019092019101614c22565b5086821015614c5e575f1960f88860031b161c19848701351681555b505060018560011b0183555050505050565b6001600160a01b0392831681529116602082015260400190565b5f60208284031215614c9a575f5ffd5b81516111c681614820565b5f60208284031215614cb5575f5ffd5b81516111c681614289565b6020808252602c908201527f46756e6374696f6e206d7573742062652063616c6c6564207468726f7567682060408201526b19195b1959d85d1958d85b1b60a21b606082015260800190565b6020808252602c908201527f46756e6374696f6e206d7573742062652063616c6c6564207468726f7567682060408201526b6163746976652070726f787960a01b606082015260800190565b5f8235607e19833603018112614d6c575f5ffd5b9190910192915050565b5f60208284031215614d86575f5ffd5b6111c6826144e2565b81516001600160401b03811115614da857614da86142ef565b614dbc81614db68454614af9565b84614b73565b6020601f821160018114614dee575f8315614dd75750848201515b5f19600385901b1c1916600184901b178455610c47565b5f84815260208120601f198516915b82811015614e1d5787850151825560209485019460019092019101614dfd565b5084821015614e3a57868401515f19600387901b60f8161c191681555b50505050600190811b01905550565b634e487b7160e01b5f52602160045260245ffd5b6001600160a01b038481168252831660208201526060810160068310614e9157634e487b7160e01b5f52602160045260245ffd5b826040830152949350505050565b634e487b7160e01b5f52601160045260245ffd5b5f60018201614ec457614ec4614e9f565b5060010190565b5f60208284031215614edb575f5ffd5b5051919050565b80820180821115610eee57610eee614e9f565b818382375f9101908152919050565b5f5f85851115614f12575f5ffd5b83861115614f1e575f5ffd5b5050820193919092039150565b80356020831015610eee575f19602084900360031b1b1692915050565b6001600160601b03198460601b168152818360148301375f910160140190815292915050565b5f5f5f60608486031215614f80575f5ffd5b83516020850151909350614f9381614289565b6040949094015192959394509192915050565b5f614fb18286614ac3565b6001600160601b03198560601b1681526118c36014820185614ac3565b83815260406020820152816040820152818360608301375f818301606090810191909152601f909201601f1916010192915050565b828152604060208201525f61119c6040830184614249565b5f5f5f5f6080858703121561502e575f5ffd5b845160208601516040870151919550935061504881614289565b6060959095015193969295505050565b81810381811115610eee57610eee614e9f56fe3314601d573d3dfd5b363d3d373d3d6014360360143d5160601c5af43d6000803e80603e573d6000fd5b3d6000f3360894a13ba1a3210667c828492db98dca3e2076cc3735a920a3ca505d382bbc416464726573733a206c6f772d6c6576656c2064656c65676174652063616c6c206661696c6564a164736f6c634300081c000a","linkReferences":{}},"methodIdentifiers":{"ASSESSMENT_RESOLVER()":"3a208f95","MAX_NAME_LENGTH()":"86074985","WORK_APPROVAL_RESOLVER()":"bcc5cf88","bannerImage()":"94def29d","communityToken()":"29aa1617","description()":"7284e416","entryPoint()":"b0d691fe","erc6551Registry()":"056d5afe","execute(address,uint256,bytes,uint8)":"51945447","executeAutoStake(address,address,uint256,address)":"df341c4a","executeBatch((address,uint256,bytes,uint8)[])":"43629a73","executeNested(address,uint256,bytes,uint8,(bytes32,address,uint256)[])":"1fb1ecf0","extcall(address,uint256,bytes)":"b709467c","extcreate(uint256,bytes)":"45a24e3e","extcreate2(uint256,bytes32,bytes)":"34715fb1","extsload(bytes32)":"1e2eaeaf","gapProjectUID()":"f7fc57b0","gardenMemberCount()":"41c6c428","getGAPProjectUID()":"f89b9b93","getNonce()":"d087d288","initialize((address,string,string,string,string,string,string,bool))":"0bc4241b","isCommunity(address)":"993fa20b","isEvaluator(address)":"1b561cf9","isFunder(address)":"1ea48870","isGardener(address)":"0959f6a8","isLocked()":"a4e2d634","isOperator(address)":"6d70f7ae","isOwner(address)":"2f54bf6e","isTrustedForwarder(address)":"572b6c05","isValidSignature(bytes32,bytes)":"1626ba7e","isValidSigner(address,bytes)":"523e3260","joinGarden()":"b10006a6","location()":"516f279e","lock(uint256)":"dd467064","lockedUntil()":"ce0617ec","maxGardeners()":"d7962d09","metadata()":"392f37e9","name()":"06fdde03","onERC1155BatchReceived(address,address,uint256[],uint256[],bytes)":"bc197c81","onERC1155Received(address,address,uint256,uint256,bytes)":"f23a6e61","onERC721Received(address,address,uint256,bytes)":"150b7a02","openJoining()":"291d0548","overrides(address,bytes4)":"ee9c6054","owner()":"8da5cb5b","permissions(address,address)":"1f9838b5","proxiableUUID()":"52d1902d","setMaxGardeners(uint256)":"ba176bbc","setOpenJoining(bool)":"98b7a25a","setOverrides(bytes4[],address[])":"7a8f7356","setPermissions(address[],bool[])":"039721b1","slug()":"6beb7959","state()":"c19d93fb","supportsInterface(bytes4)":"01ffc9a7","token()":"fc0c546a","updateBannerImage(string)":"52094e55","updateDescription(string)":"e735b48a","updateLocation(string)":"932354c1","updateMetadata(string)":"918b5be1","updateName(string)":"84da92a7","upgradeTo(address)":"3659cfe6","upgradeToAndCall(address,bytes)":"4f1ef286","validateUserOp((address,uint256,bytes,bytes,uint256,uint256,uint256,uint256,uint256,bytes,bytes),bytes32,uint256)":"3a871cdd"},"id":58}