{"abi":[{"type":"constructor","inputs":[{"name":"erc4337EntryPoint","type":"address","internalType":"address"},{"name":"multicallForwarder","type":"address","internalType":"address"},{"name":"erc6551Registry","type":"address","internalType":"address"},{"name":"guardian","type":"address","internalType":"address"},{"name":"workApprovalResolver","type":"address","internalType":"address"},{"name":"assessmentResolver","type":"address","internalType":"address"}],"stateMutability":"nonpayable"},{"type":"fallback","stateMutability":"payable"},{"type":"receive","stateMutability":"payable"},{"type":"function","name":"ASSESSMENT_RESOLVER","inputs":[],"outputs":[{"name":"","type":"address","internalType":"address"}],"stateMutability":"view"},{"type":"function","name":"MAX_NAME_LENGTH","inputs":[],"outputs":[{"name":"","type":"uint256","internalType":"uint256"}],"stateMutability":"view"},{"type":"function","name":"WORK_APPROVAL_RESOLVER","inputs":[],"outputs":[{"name":"","type":"address","internalType":"address"}],"stateMutability":"view"},{"type":"function","name":"attemptCommunityMembership","inputs":[],"outputs":[],"stateMutability":"nonpayable"},{"type":"function","name":"bannerImage","inputs":[],"outputs":[{"name":"","type":"string","internalType":"string"}],"stateMutability":"view"},{"type":"function","name":"communityToken","inputs":[],"outputs":[{"name":"","type":"address","internalType":"address"}],"stateMutability":"view"},{"type":"function","name":"description","inputs":[],"outputs":[{"name":"","type":"string","internalType":"string"}],"stateMutability":"view"},{"type":"function","name":"entryPoint","inputs":[],"outputs":[{"name":"","type":"address","internalType":"contract IEntryPoint"}],"stateMutability":"view"},{"type":"function","name":"erc6551Registry","inputs":[],"outputs":[{"name":"","type":"address","internalType":"address"}],"stateMutability":"view"},{"type":"function","name":"execute","inputs":[{"name":"to","type":"address","internalType":"address"},{"name":"value","type":"uint256","internalType":"uint256"},{"name":"data","type":"bytes","internalType":"bytes"},{"name":"operation","type":"uint8","internalType":"uint8"}],"outputs":[{"name":"","type":"bytes","internalType":"bytes"}],"stateMutability":"payable"},{"type":"function","name":"executeAutoStake","inputs":[{"name":"goodsToken_","type":"address","internalType":"address"},{"name":"community","type":"address","internalType":"address"},{"name":"stakeAmount","type":"uint256","internalType":"uint256"},{"name":"member","type":"address","internalType":"address"}],"outputs":[],"stateMutability":"nonpayable"},{"type":"function","name":"executeBatch","inputs":[{"name":"operations","type":"tuple[]","internalType":"struct BatchExecutor.Operation[]","components":[{"name":"to","type":"address","internalType":"address"},{"name":"value","type":"uint256","internalType":"uint256"},{"name":"data","type":"bytes","internalType":"bytes"},{"name":"operation","type":"uint8","internalType":"uint8"}]}],"outputs":[{"name":"","type":"bytes[]","internalType":"bytes[]"}],"stateMutability":"payable"},{"type":"function","name":"executeGardenSelfStake","inputs":[{"name":"goodsToken_","type":"address","internalType":"address"},{"name":"community","type":"address","internalType":"address"},{"name":"stakeAmount","type":"uint256","internalType":"uint256"}],"outputs":[],"stateMutability":"nonpayable"},{"type":"function","name":"executeNested","inputs":[{"name":"to","type":"address","internalType":"address"},{"name":"value","type":"uint256","internalType":"uint256"},{"name":"data","type":"bytes","internalType":"bytes"},{"name":"operation","type":"uint8","internalType":"uint8"},{"name":"proof","type":"tuple[]","internalType":"struct NestedAccountExecutor.ERC6551AccountInfo[]","components":[{"name":"salt","type":"bytes32","internalType":"bytes32"},{"name":"tokenContract","type":"address","internalType":"address"},{"name":"tokenId","type":"uint256","internalType":"uint256"}]}],"outputs":[{"name":"","type":"bytes","internalType":"bytes"}],"stateMutability":"payable"},{"type":"function","name":"extcall","inputs":[{"name":"to","type":"address","internalType":"address"},{"name":"value","type":"uint256","internalType":"uint256"},{"name":"data","type":"bytes","internalType":"bytes"}],"outputs":[{"name":"result","type":"bytes","internalType":"bytes"}],"stateMutability":"nonpayable"},{"type":"function","name":"extcreate","inputs":[{"name":"value","type":"uint256","internalType":"uint256"},{"name":"bytecode","type":"bytes","internalType":"bytes"}],"outputs":[{"name":"","type":"address","internalType":"address"}],"stateMutability":"nonpayable"},{"type":"function","name":"extcreate2","inputs":[{"name":"value","type":"uint256","internalType":"uint256"},{"name":"salt","type":"bytes32","internalType":"bytes32"},{"name":"bytecode","type":"bytes","internalType":"bytes"}],"outputs":[{"name":"","type":"address","internalType":"address"}],"stateMutability":"nonpayable"},{"type":"function","name":"extsload","inputs":[{"name":"slot","type":"bytes32","internalType":"bytes32"}],"outputs":[{"name":"value","type":"bytes32","internalType":"bytes32"}],"stateMutability":"view"},{"type":"function","name":"gapProjectUID","inputs":[],"outputs":[{"name":"","type":"bytes32","internalType":"bytes32"}],"stateMutability":"view"},{"type":"function","name":"gardenMemberCount","inputs":[],"outputs":[{"name":"","type":"uint256","internalType":"uint256"}],"stateMutability":"view"},{"type":"function","name":"getGAPProjectUID","inputs":[],"outputs":[{"name":"","type":"bytes32","internalType":"bytes32"}],"stateMutability":"view"},{"type":"function","name":"getNonce","inputs":[],"outputs":[{"name":"","type":"uint256","internalType":"uint256"}],"stateMutability":"view"},{"type":"function","name":"initialize","inputs":[{"name":"params","type":"tuple","internalType":"struct IGardenAccount.InitParams","components":[{"name":"communityToken","type":"address","internalType":"address"},{"name":"name","type":"string","internalType":"string"},{"name":"slug","type":"string","internalType":"string"},{"name":"description","type":"string","internalType":"string"},{"name":"location","type":"string","internalType":"string"},{"name":"bannerImage","type":"string","internalType":"string"},{"name":"metadata","type":"string","internalType":"string"},{"name":"openJoining","type":"bool","internalType":"bool"}]}],"outputs":[],"stateMutability":"nonpayable"},{"type":"function","name":"isCommunity","inputs":[{"name":"account","type":"address","internalType":"address"}],"outputs":[{"name":"","type":"bool","internalType":"bool"}],"stateMutability":"view"},{"type":"function","name":"isEvaluator","inputs":[{"name":"account","type":"address","internalType":"address"}],"outputs":[{"name":"","type":"bool","internalType":"bool"}],"stateMutability":"view"},{"type":"function","name":"isFunder","inputs":[{"name":"account","type":"address","internalType":"address"}],"outputs":[{"name":"","type":"bool","internalType":"bool"}],"stateMutability":"view"},{"type":"function","name":"isGardener","inputs":[{"name":"account","type":"address","internalType":"address"}],"outputs":[{"name":"","type":"bool","internalType":"bool"}],"stateMutability":"view"},{"type":"function","name":"isLocked","inputs":[],"outputs":[{"name":"","type":"bool","internalType":"bool"}],"stateMutability":"view"},{"type":"function","name":"isOperator","inputs":[{"name":"account","type":"address","internalType":"address"}],"outputs":[{"name":"","type":"bool","internalType":"bool"}],"stateMutability":"view"},{"type":"function","name":"isOwner","inputs":[{"name":"account","type":"address","internalType":"address"}],"outputs":[{"name":"","type":"bool","internalType":"bool"}],"stateMutability":"view"},{"type":"function","name":"isTrustedForwarder","inputs":[{"name":"forwarder","type":"address","internalType":"address"}],"outputs":[{"name":"","type":"bool","internalType":"bool"}],"stateMutability":"view"},{"type":"function","name":"isValidSignature","inputs":[{"name":"hash","type":"bytes32","internalType":"bytes32"},{"name":"signature","type":"bytes","internalType":"bytes"}],"outputs":[{"name":"magicValue","type":"bytes4","internalType":"bytes4"}],"stateMutability":"view"},{"type":"function","name":"isValidSigner","inputs":[{"name":"signer","type":"address","internalType":"address"},{"name":"data","type":"bytes","internalType":"bytes"}],"outputs":[{"name":"magicValue","type":"bytes4","internalType":"bytes4"}],"stateMutability":"view"},{"type":"function","name":"joinGarden","inputs":[],"outputs":[],"stateMutability":"nonpayable"},{"type":"function","name":"location","inputs":[],"outputs":[{"name":"","type":"string","internalType":"string"}],"stateMutability":"view"},{"type":"function","name":"lock","inputs":[{"name":"_lockedUntil","type":"uint256","internalType":"uint256"}],"outputs":[],"stateMutability":"nonpayable"},{"type":"function","name":"lockedUntil","inputs":[],"outputs":[{"name":"","type":"uint256","internalType":"uint256"}],"stateMutability":"view"},{"type":"function","name":"maxGardeners","inputs":[],"outputs":[{"name":"","type":"uint256","internalType":"uint256"}],"stateMutability":"view"},{"type":"function","name":"metadata","inputs":[],"outputs":[{"name":"","type":"string","internalType":"string"}],"stateMutability":"view"},{"type":"function","name":"name","inputs":[],"outputs":[{"name":"","type":"string","internalType":"string"}],"stateMutability":"view"},{"type":"function","name":"onERC1155BatchReceived","inputs":[{"name":"","type":"address","internalType":"address"},{"name":"","type":"address","internalType":"address"},{"name":"","type":"uint256[]","internalType":"uint256[]"},{"name":"","type":"uint256[]","internalType":"uint256[]"},{"name":"","type":"bytes","internalType":"bytes"}],"outputs":[{"name":"","type":"bytes4","internalType":"bytes4"}],"stateMutability":"nonpayable"},{"type":"function","name":"onERC1155Received","inputs":[{"name":"","type":"address","internalType":"address"},{"name":"","type":"address","internalType":"address"},{"name":"","type":"uint256","internalType":"uint256"},{"name":"","type":"uint256","internalType":"uint256"},{"name":"","type":"bytes","internalType":"bytes"}],"outputs":[{"name":"","type":"bytes4","internalType":"bytes4"}],"stateMutability":"nonpayable"},{"type":"function","name":"onERC721Received","inputs":[{"name":"","type":"address","internalType":"address"},{"name":"","type":"address","internalType":"address"},{"name":"tokenId","type":"uint256","internalType":"uint256"},{"name":"","type":"bytes","internalType":"bytes"}],"outputs":[{"name":"","type":"bytes4","internalType":"bytes4"}],"stateMutability":"nonpayable"},{"type":"function","name":"openJoining","inputs":[],"outputs":[{"name":"","type":"bool","internalType":"bool"}],"stateMutability":"view"},{"type":"function","name":"overrides","inputs":[{"name":"","type":"address","internalType":"address"},{"name":"","type":"bytes4","internalType":"bytes4"}],"outputs":[{"name":"","type":"address","internalType":"address"}],"stateMutability":"view"},{"type":"function","name":"owner","inputs":[],"outputs":[{"name":"","type":"address","internalType":"address"}],"stateMutability":"view"},{"type":"function","name":"permissions","inputs":[{"name":"","type":"address","internalType":"address"},{"name":"","type":"address","internalType":"address"}],"outputs":[{"name":"","type":"bool","internalType":"bool"}],"stateMutability":"view"},{"type":"function","name":"proxiableUUID","inputs":[],"outputs":[{"name":"","type":"bytes32","internalType":"bytes32"}],"stateMutability":"view"},{"type":"function","name":"setMaxGardeners","inputs":[{"name":"_max","type":"uint256","internalType":"uint256"}],"outputs":[],"stateMutability":"nonpayable"},{"type":"function","name":"setOpenJoining","inputs":[{"name":"_openJoining","type":"bool","internalType":"bool"}],"outputs":[],"stateMutability":"nonpayable"},{"type":"function","name":"setOverrides","inputs":[{"name":"selectors","type":"bytes4[]","internalType":"bytes4[]"},{"name":"implementations","type":"address[]","internalType":"address[]"}],"outputs":[],"stateMutability":"nonpayable"},{"type":"function","name":"setPermissions","inputs":[{"name":"callers","type":"address[]","internalType":"address[]"},{"name":"_permissions","type":"bool[]","internalType":"bool[]"}],"outputs":[],"stateMutability":"nonpayable"},{"type":"function","name":"slug","inputs":[],"outputs":[{"name":"","type":"string","internalType":"string"}],"stateMutability":"view"},{"type":"function","name":"state","inputs":[],"outputs":[{"name":"","type":"uint256","internalType":"uint256"}],"stateMutability":"view"},{"type":"function","name":"supportsInterface","inputs":[{"name":"interfaceId","type":"bytes4","internalType":"bytes4"}],"outputs":[{"name":"","type":"bool","internalType":"bool"}],"stateMutability":"view"},{"type":"function","name":"token","inputs":[],"outputs":[{"name":"chainId","type":"uint256","internalType":"uint256"},{"name":"tokenContract","type":"address","internalType":"address"},{"name":"tokenId","type":"uint256","internalType":"uint256"}],"stateMutability":"view"},{"type":"function","name":"updateBannerImage","inputs":[{"name":"_bannerImage","type":"string","internalType":"string"}],"outputs":[],"stateMutability":"nonpayable"},{"type":"function","name":"updateDescription","inputs":[{"name":"_description","type":"string","internalType":"string"}],"outputs":[],"stateMutability":"nonpayable"},{"type":"function","name":"updateLocation","inputs":[{"name":"_location","type":"string","internalType":"string"}],"outputs":[],"stateMutability":"nonpayable"},{"type":"function","name":"updateMetadata","inputs":[{"name":"_metadata","type":"string","internalType":"string"}],"outputs":[],"stateMutability":"nonpayable"},{"type":"function","name":"updateName","inputs":[{"name":"_name","type":"string","internalType":"string"}],"outputs":[],"stateMutability":"nonpayable"},{"type":"function","name":"upgradeTo","inputs":[{"name":"newImplementation","type":"address","internalType":"address"}],"outputs":[],"stateMutability":"nonpayable"},{"type":"function","name":"upgradeToAndCall","inputs":[{"name":"newImplementation","type":"address","internalType":"address"},{"name":"data","type":"bytes","internalType":"bytes"}],"outputs":[],"stateMutability":"payable"},{"type":"function","name":"validateUserOp","inputs":[{"name":"userOp","type":"tuple","internalType":"struct UserOperation","components":[{"name":"sender","type":"address","internalType":"address"},{"name":"nonce","type":"uint256","internalType":"uint256"},{"name":"initCode","type":"bytes","internalType":"bytes"},{"name":"callData","type":"bytes","internalType":"bytes"},{"name":"callGasLimit","type":"uint256","internalType":"uint256"},{"name":"verificationGasLimit","type":"uint256","internalType":"uint256"},{"name":"preVerificationGas","type":"uint256","internalType":"uint256"},{"name":"maxFeePerGas","type":"uint256","internalType":"uint256"},{"name":"maxPriorityFeePerGas","type":"uint256","internalType":"uint256"},{"name":"paymasterAndData","type":"bytes","internalType":"bytes"},{"name":"signature","type":"bytes","internalType":"bytes"}]},{"name":"userOpHash","type":"bytes32","internalType":"bytes32"},{"name":"missingAccountFunds","type":"uint256","internalType":"uint256"}],"outputs":[{"name":"validationData","type":"uint256","internalType":"uint256"}],"stateMutability":"nonpayable"},{"type":"event","name":"AdminChanged","inputs":[{"name":"previousAdmin","type":"address","indexed":false,"internalType":"address"},{"name":"newAdmin","type":"address","indexed":false,"internalType":"address"}],"anonymous":false},{"type":"event","name":"BannerImageUpdated","inputs":[{"name":"updater","type":"address","indexed":true,"internalType":"address"},{"name":"newBannerImage","type":"string","indexed":false,"internalType":"string"}],"anonymous":false},{"type":"event","name":"BeaconUpgraded","inputs":[{"name":"beacon","type":"address","indexed":true,"internalType":"address"}],"anonymous":false},{"type":"event","name":"CommunityTokenUpdated","inputs":[{"name":"updater","type":"address","indexed":true,"internalType":"address"},{"name":"newToken","type":"address","indexed":false,"internalType":"address"}],"anonymous":false},{"type":"event","name":"DescriptionUpdated","inputs":[{"name":"updater","type":"address","indexed":true,"internalType":"address"},{"name":"newDescription","type":"string","indexed":false,"internalType":"string"}],"anonymous":false},{"type":"event","name":"Initialized","inputs":[{"name":"version","type":"uint8","indexed":false,"internalType":"uint8"}],"anonymous":false},{"type":"event","name":"LocationUpdated","inputs":[{"name":"updater","type":"address","indexed":true,"internalType":"address"},{"name":"newLocation","type":"string","indexed":false,"internalType":"string"}],"anonymous":false},{"type":"event","name":"LockUpdated","inputs":[{"name":"lockedUntil","type":"uint256","indexed":false,"internalType":"uint256"}],"anonymous":false},{"type":"event","name":"MemberAutoRegistered","inputs":[{"name":"member","type":"address","indexed":true,"internalType":"address"},{"name":"community","type":"address","indexed":true,"internalType":"address"}],"anonymous":false},{"type":"event","name":"MetadataUpdated","inputs":[{"name":"updater","type":"address","indexed":true,"internalType":"address"},{"name":"newMetadata","type":"string","indexed":false,"internalType":"string"}],"anonymous":false},{"type":"event","name":"NameUpdated","inputs":[{"name":"updater","type":"address","indexed":true,"internalType":"address"},{"name":"newName","type":"string","indexed":false,"internalType":"string"}],"anonymous":false},{"type":"event","name":"OpenJoiningUpdated","inputs":[{"name":"updater","type":"address","indexed":true,"internalType":"address"},{"name":"openJoining","type":"bool","indexed":false,"internalType":"bool"}],"anonymous":false},{"type":"event","name":"OverrideUpdated","inputs":[{"name":"owner","type":"address","indexed":false,"internalType":"address"},{"name":"selector","type":"bytes4","indexed":false,"internalType":"bytes4"},{"name":"implementation","type":"address","indexed":false,"internalType":"address"}],"anonymous":false},{"type":"event","name":"PermissionUpdated","inputs":[{"name":"owner","type":"address","indexed":false,"internalType":"address"},{"name":"caller","type":"address","indexed":false,"internalType":"address"},{"name":"hasPermission","type":"bool","indexed":false,"internalType":"bool"}],"anonymous":false},{"type":"event","name":"Upgraded","inputs":[{"name":"implementation","type":"address","indexed":true,"internalType":"address"}],"anonymous":false},{"type":"error","name":"AccountLocked","inputs":[]},{"type":"error","name":"AlreadyGardener","inputs":[]},{"type":"error","name":"ContractCreationFailed","inputs":[]},{"type":"error","name":"ExceedsMaxLockTime","inputs":[]},{"type":"error","name":"GardenFull","inputs":[]},{"type":"error","name":"HatsModuleNotAvailable","inputs":[]},{"type":"error","name":"InvalidAccountProof","inputs":[]},{"type":"error","name":"InvalidERC6551Registry","inputs":[]},{"type":"error","name":"InvalidEntryPoint","inputs":[]},{"type":"error","name":"InvalidImplementation","inputs":[]},{"type":"error","name":"InvalidInput","inputs":[]},{"type":"error","name":"InvalidInvite","inputs":[]},{"type":"error","name":"InvalidMulticallForwarder","inputs":[]},{"type":"error","name":"InvalidOperation","inputs":[]},{"type":"error","name":"NameTooLong","inputs":[]},{"type":"error","name":"NotAuthorized","inputs":[]},{"type":"error","name":"NotGardenOperator","inputs":[]},{"type":"error","name":"NotGardenOwner","inputs":[]},{"type":"error","name":"NotGardensModule","inputs":[]},{"type":"error","name":"OwnershipCycle","inputs":[]}],"bytecode":{"object":"0x6101806040523060a08190526101205234801561001a575f5ffd5b50604051615a8c380380615a8c833981016040819052610039916101e0565b858585858383838382828181876001600160a01b03811661006d57604051632039d3c960e01b815260040160405180910390fd5b6001600160a01b039081166080528116610099576040516246a29560e81b815260040160405180910390fd5b6001600160a01b0390811660c05290811660e05282166100cc5760405163754c753360e11b815260040160405180910390fd5b50506001600160a01b039081166101005289811661014052881661016052506100fb9550506101069350505050565b505050505050610250565b600454610100900460ff16156101725760405162461bcd60e51b815260206004820152602760248201527f496e697469616c697a61626c653a20636f6e747261637420697320696e697469604482015266616c697a696e6760c81b606482015260840160405180910390fd5b60045460ff908116146101c3576004805460ff191660ff9081179091556040519081527f7f26b83ff96e1f2b6a682f133852f6798a09c465da95921460cefb38474024989060200160405180910390a15b565b80516001600160a01b03811681146101db575f5ffd5b919050565b5f5f5f5f5f5f60c087890312156101f5575f5ffd5b6101fe876101c5565b955061020c602088016101c5565b945061021a604088016101c5565b9350610228606088016101c5565b9250610236608088016101c5565b915061024460a088016101c5565b90509295509295509295565b60805160a05160c05160e051610100516101205161014051610160516157946102f85f395f6106a701525f610a2001525f818161152701528181611567015281816117ff0152818161183f01526119fa01525f8181612df001526131e901525f611aa101525f8181610441015281816112e90152613c6d01525f818161130a0152613c4c01525f818161097a015281816124ad01528181612d3b015261340c01526157945ff3fe6080604052600436106103c6575f3560e01c80636beb7959116101f1578063b709467c1161010c578063dd4670641161009f578063f23a6e611161006e578063f23a6e6114610b2f578063f7fc57b014610b4e578063f89b9b9314610b4e578063fc0c546a14610b62576103d5565b8063dd46706414610a93578063df341c4a14610ab2578063e735b48a14610ad1578063ee9c605414610af0576103d5565b8063c19d93fb116100db578063c19d93fb14610a42578063ce0617ec14610a56578063d087d28814610a6a578063d7962d0914610a7e576103d5565b8063b709467c146109b2578063ba176bbc146109d1578063bc197c81146109f0578063bcc5cf8814610a0f576103d5565b8063918b5be111610184578063993fa20b11610153578063993fa20b14610938578063a4e2d63414610957578063b0d691fe1461096c578063b10006a61461099e576103d5565b8063918b5be1146108c7578063932354c1146108e657806394def29d1461090557806398b7a25a14610919576103d5565b80637f0b9b42116101c05780637f0b9b421461086c57806384da92a714610880578063860749851461089f5780638da5cb5b146108b3576103d5565b80636beb7959146108065780636d70f7ae1461081a5780637284e416146108395780637a8f73561461084d576103d5565b806334715fb1116102e15780634f1ef28611610274578063523e326011610243578063523e32601461079557806352d1902d146107b4578063572b6c05146107c85780636710c13a146107e7576103d5565b80634f1ef2861461073c578063516f279e1461074f578063519454471461076357806352094e5514610776576103d5565b80633a871cdd116102b05780633a871cdd146106c957806341c6c428146106e857806343629a73146106fd57806345a24e3e1461071d576103d5565b806334715fb1146106445780633659cfe614610663578063392f37e9146106825780633a208f9514610696576103d5565b80631b561cf9116103595780631fb1ecf0116103285780631fb1ecf0146105d4578063291d0548146105e757806329aa1617146106005780632f54bf6e14610625576103d5565b80631b561cf9146105315780631e2eaeaf146105505780631ea488701461057c5780631f9838b51461059b576103d5565b80630959f6a8116103955780630959f6a81461049c5780630bc4241b146104bb578063150b7a02146104da5780631626ba7e14610512576103d5565b806301ffc9a7146103dd578063039721b114610411578063056d5afe1461043057806306fdde031461047b576103d5565b366103d5576103d3610b99565b005b6103d3610b99565b3480156103e8575f5ffd5b506103fc6103f73660046147ef565b610c97565b60405190151581526020015b60405180910390f35b34801561041c575f5ffd5b506103d361042b366004614848565b610cc3565b34801561043b575f5ffd5b506104637f000000000000000000000000000000000000000000000000000000000000000081565b6040516001600160a01b039091168152602001610408565b348015610486575f5ffd5b5061048f610ea1565b60405161040891906148e0565b3480156104a7575f5ffd5b506103fc6104b6366004614906565b610f2d565b3480156104c6575f5ffd5b506103d36104d5366004614921565b610f3d565b3480156104e5575f5ffd5b506104f96104f4366004614a12565b61117c565b6040516001600160e01b03199091168152602001610408565b34801561051d575f5ffd5b506104f961052c366004614ab6565b6111ed565b34801561053c575f5ffd5b506103fc61054b366004614906565b611216565b34801561055b575f5ffd5b5061056e61056a366004614afd565b5490565b604051908152602001610408565b348015610587575f5ffd5b506103fc610596366004614906565b611220565b3480156105a6575f5ffd5b506103fc6105b5366004614b14565b600260209081525f928352604080842090915290825290205460ff1681565b61048f6105e2366004614b5b565b611295565b3480156105f2575f5ffd5b50600b546103fc9060ff1681565b34801561060b575f5ffd5b50600454610463906201000090046001600160a01b031681565b348015610630575f5ffd5b506103fc61063f366004614906565b6114f5565b34801561064f575f5ffd5b5061046361065e366004614c26565b6114ff565b34801561066e575f5ffd5b506103d361067d366004614906565b61151d565b34801561068d575f5ffd5b5061048f6115fa565b3480156106a1575f5ffd5b506104637f000000000000000000000000000000000000000000000000000000000000000081565b3480156106d4575f5ffd5b5061056e6106e3366004614c68565b611607565b3480156106f3575f5ffd5b5061056e600d5481565b61071061070b366004614cb6565b611625565b6040516104089190614cf4565b348015610728575f5ffd5b50610463610737366004614ab6565b6117ad565b6103d361074a366004614d57565b6117f5565b34801561075a575f5ffd5b5061048f6118c0565b61048f610771366004614da3565b6118cd565b348015610781575f5ffd5b506103d3610790366004614e0e565b611916565b3480156107a0575f5ffd5b506104f96107af366004614e52565b61199b565b3480156107bf575f5ffd5b5061056e6119ee565b3480156107d3575f5ffd5b506103fc6107e2366004614906565b611a9f565b3480156107f2575f5ffd5b506103d3610801366004614e89565b611ad1565b348015610811575f5ffd5b5061048f611bcf565b348015610825575f5ffd5b506103fc610834366004614906565b611bdc565b348015610844575f5ffd5b5061048f611be6565b348015610858575f5ffd5b506103d3610867366004614848565b611bf3565b348015610877575f5ffd5b506103d3611e11565b34801561088b575f5ffd5b506103d361089a366004614e0e565b612097565b3480156108aa575f5ffd5b5061056e604881565b3480156108be575f5ffd5b50610463612134565b3480156108d2575f5ffd5b506103d36108e1366004614e0e565b612159565b3480156108f1575f5ffd5b506103d3610900366004614e0e565b6121ce565b348015610910575f5ffd5b5061048f612243565b348015610924575f5ffd5b506103d3610933366004614ed4565b612250565b348015610943575f5ffd5b506103fc610952366004614906565b6122ca565b348015610962575f5ffd5b505f5442106103fc565b348015610977575f5ffd5b507f0000000000000000000000000000000000000000000000000000000000000000610463565b3480156109a9575f5ffd5b506103d3612300565b3480156109bd575f5ffd5b5061048f6109cc366004614eef565b612418565b3480156109dc575f5ffd5b506103d36109eb366004614afd565b612462565b3480156109fb575f5ffd5b506104f9610a0a366004614fa3565b61248f565b348015610a1a575f5ffd5b506104637f000000000000000000000000000000000000000000000000000000000000000081565b348015610a4d575f5ffd5b5060035461056e565b348015610a61575f5ffd5b5061056e5f5481565b348015610a75575f5ffd5b5061056e6124aa565b348015610a89575f5ffd5b5061056e600c5481565b348015610a9e575f5ffd5b506103d3610aad366004614afd565b61253f565b348015610abd575f5ffd5b506103d3610acc366004615053565b612622565b348015610adc575f5ffd5b506103d3610aeb366004614e0e565b6126c2565b348015610afb575f5ffd5b50610463610b0a3660046150a3565b600160209081525f92835260408084209091529082529020546001600160a01b031681565b348015610b3a575f5ffd5b506104f9610b493660046150d6565b612737565b348015610b59575f5ffd5b5061056e612752565b348015610b6d575f5ffd5b50610b7661275b565b604080519384526001600160a01b03909216602084015290820152606001610408565b5f5f5f610ba4612771565b9250925092505f610bb684848461277d565b6001600160a01b038082165f9081526001602090815260408083206001600160e01b03198435168452909152902054919250168015610c90575f610bf930612798565b90505f5f826001600160a01b0316845f3633604051602001610c1e949392919061512d565b60408051601f1981840301815290829052610c3891615181565b5f604051808303815f865af19150503d805f8114610c71576040519150601f19603f3d011682016040523d82523d5f602084013e610c76565b606091505b509150915081610c8857805160208201fd5b805160208201f35b5050505050565b5f5f610ca2836127d2565b90508015610cb35750600192915050565b610cbb6127f6565b505f92915050565b5f5f5f610cce612771565b9250925092505f610ce084848461277d565b90506001600160a01b038116610d095760405163ea8e4eb560e01b815260040160405180910390fd5b336001600160a01b03821614610d325760405163ea8e4eb560e01b815260040160405180910390fd5b610d3a6128a0565b86858114610d5b5760405163b4fa3fb360e01b815260040160405180910390fd5b5f5b81811015610e9557878782818110610d7757610d7761518c565b9050602002016020810190610d8c9190614ed4565b6001600160a01b0384165f908152600260205260408120908c8c85818110610db657610db661518c565b9050602002016020810190610dcb9190614906565b6001600160a01b0316815260208101919091526040015f20805460ff19169115159190911790557f394777a58092892d136a90c4bb7e4350c72ac50fba6a0208128677f36527dcf5838b8b84818110610e2657610e2661518c565b9050602002016020810190610e3b9190614906565b8a8a85818110610e4d57610e4d61518c565b9050602002016020810190610e629190614ed4565b604080516001600160a01b03948516815293909216602084015215159082015260600160405180910390a1600101610d5d565b50505050505050505050565b60058054610eae906151a0565b80601f0160208091040260200160405190810160405280929190818152602001828054610eda906151a0565b8015610f255780601f10610efc57610100808354040283529160200191610f25565b820191905f5260205f20905b815481529060010190602001808311610f0857829003601f168201915b505050505081565b5f610f37826128cc565b92915050565b600454610100900460ff1615808015610f5d5750600454600160ff909116105b80610f775750303b158015610f77575060045460ff166001145b610fdf5760405162461bcd60e51b815260206004820152602e60248201527f496e697469616c697a61626c653a20636f6e747261637420697320616c72656160448201526d191e481a5b9a5d1a585b1a5e995960921b60648201526084015b60405180910390fd5b6004805460ff191660011790558015611002576004805461ff0019166101001790555b604861101160208401846151d8565b905011156110325760405163680b6caf60e01b815260040160405180910390fd5b61103f6020830183614906565b600480546001600160a01b0392909216620100000262010000600160b01b031990921691909117905561107560208301836151d8565b60059161108391908361525e565b5061109160408301836151d8565b60069161109f91908361525e565b506110ad60608301836151d8565b6007916110bb91908361525e565b506110c960808301836151d8565b6008916110d791908361525e565b506110e560a08301836151d8565b6009916110f391908361525e565b5061110160c08301836151d8565b600a9161110f91908361525e565b50611121610100830160e08401614ed4565b600b805460ff19169115159190911790558015611178576004805461ff0019169055604051600181527f7f26b83ff96e1f2b6a682f133852f6798a09c465da95921460cefb38474024989060200160405180910390a15b5050565b5f5f5f5f611188612771565b91945092509050336001600160a01b0383161480156111a657508086145b80156111b157504683145b156111cf5760405163b79e3f3f60e01b815260040160405180910390fd5b6111d7610b99565b50630a85bd0160e11b925050505b949350505050565b5f6111f9848484612a2c565b1561120c5750630b135d3f60e11b61120f565b505f5b9392505050565b5f610f3782612bac565b5f611229612be7565b6001600160a01b03166338f8535830846040518363ffffffff1660e01b8152600401611256929190615317565b602060405180830381865afa158015611271573d5f5f3e3d5ffd5b505050506040513d601f19601f82011682018060405250810190610f379190615331565b6060815f6112a1612ca6565b9050365f5b838110156114aa578686828181106112c0576112c061518c565b90506060020191505f8260200160208101906112dc9190614906565b905060408301355f6113337f00000000000000000000000000000000000000000000000000000000000000007f00000000000000000000000000000000000000000000000000000000000000008735468787612caf565b9050826001600160a01b03163b5f0361135f57604051631052dd2560e21b815260040160405180910390fd5b6001600160a01b0381163b156113ed57806001600160a01b031663a4e2d6346040518163ffffffff1660e01b8152600401602060405180830381865afa1580156113ab573d5f5f3e3d5ffd5b505050506040513d601f19601f820116820180604052508101906113cf9190615331565b156113ed57604051636315bfbb60e01b815260040160405180910390fd5b6040516331a9108f60e11b8152600481018390526001600160a01b03841690636352211e90602401602060405180830381865afa92505050801561144e575060408051601f3d908101601f1916820190925261144b9181019061534c565b60015b61146b57604051631052dd2560e21b815260040160405180910390fd5b866001600160a01b0316816001600160a01b03161461149d57604051631052dd2560e21b815260040160405180910390fd5b50945050506001016112a6565b506114b482612d38565b6114d15760405163ea8e4eb560e01b815260040160405180910390fd5b6114d96128a0565b6114e68b8b8b8b8b612f17565b9b9a5050505050505050505050565b5f610f37826130ec565b5f611508613122565b6115148585858561315c565b95945050505050565b6001600160a01b037f00000000000000000000000000000000000000000000000000000000000000001630036115655760405162461bcd60e51b8152600401610fd690615367565b7f00000000000000000000000000000000000000000000000000000000000000006001600160a01b03166115ad5f5160206157415f395f51905f52546001600160a01b031690565b6001600160a01b0316146115d35760405162461bcd60e51b8152600401610fd6906153b3565b6115dc816131ca565b604080515f808252602082019092526115f791839190613297565b50565b600a8054610eae906151a0565b5f611610613401565b61161a8484613479565b905061120f826134af565b6060611637611632612ca6565b612d38565b6116545760405163ea8e4eb560e01b815260040160405180910390fd5b61165c6128a0565b815f816001600160401b0381111561167657611676614958565b6040519080825280602002602001820160405280156116a957816020015b60608152602001906001900390816116945790505b5090505f5b828110156117a45761177f8686838181106116cb576116cb61518c565b90506020028101906116dd91906153ff565b6116eb906020810190614906565b8787848181106116fd576116fd61518c565b905060200281019061170f91906153ff565b602001358888858181106117255761172561518c565b905060200281019061173791906153ff565b6117459060408101906151d8565b8a8a878181106117575761175761518c565b905060200281019061176991906153ff565b61177a90608081019060600161541d565b612f17565b8282815181106117915761179161518c565b60209081029190910101526001016116ae565b50949350505050565b5f6117b6613122565b6111e58484848080601f0160208091040260200160405190810160405280939291908181526020018383808284375f920191909152506134f892505050565b6001600160a01b037f000000000000000000000000000000000000000000000000000000000000000016300361183d5760405162461bcd60e51b8152600401610fd690615367565b7f00000000000000000000000000000000000000000000000000000000000000006001600160a01b03166118855f5160206157415f395f51905f52546001600160a01b031690565b6001600160a01b0316146118ab5760405162461bcd60e51b8152600401610fd6906153b3565b6118b4826131ca565b61117882826001613297565b60088054610eae906151a0565b60606118da611632612ca6565b6118f75760405163ea8e4eb560e01b815260040160405180910390fd5b6118ff6128a0565b61190c8686868686612f17565b9695505050505050565b611926611921612ca6565b613534565b61194357604051633cebab8560e21b815260040160405180910390fd5b600961194f8282615436565b50611958612ca6565b6001600160a01b03167f7f0cd4337b583a09080a4036ee4935d1069f38152ad2f0750588bb752c66916d8260405161199091906148e0565b60405180910390a250565b5f6119db8484848080601f0160208091040260200160405190810160405280939291908181526020018383808284375f9201919091525061356f92505050565b1561120c5750630291f19360e51b61120f565b5f306001600160a01b037f00000000000000000000000000000000000000000000000000000000000000001614611a8d5760405162461bcd60e51b815260206004820152603860248201527f555550535570677261646561626c653a206d757374206e6f742062652063616c60448201527f6c6564207468726f7567682064656c656761746563616c6c00000000000000006064820152608401610fd6565b505f5160206157415f395f51905f5290565b7f00000000000000000000000000000000000000000000000000000000000000006001600160a01b0390811691161490565b3330141580611ae35750600e5460ff16155b15611b0157604051633632b98960e21b815260040160405180910390fd5b611b156001600160a01b0384168383613618565b604051634d0fa37160e11b8152602060048201525f60248201526001600160a01b03831690639a1f46e2906044015f604051808303815f87803b158015611b5a575f5ffd5b505af1925050508015611b6b575060015b15611b76575b505050565b60405163799556e160e11b81523060048201526001600160a01b0383169063f32aadc2906024015f604051808303815f87803b158015611bb4575f5ffd5b505af1158015611bc6573d5f5f3e3d5ffd5b50505050505050565b60068054610eae906151a0565b5f610f3782613534565b60078054610eae906151a0565b5f5f5f611bfe612771565b9250925092505f611c1084848461277d565b90506001600160a01b038116611c395760405163ea8e4eb560e01b815260040160405180910390fd5b336001600160a01b03821614611c625760405163ea8e4eb560e01b815260040160405180910390fd5b611c6a6128a0565b5f611c7430612798565b9050806001600160a01b03163b5f03611c9057611c90306136d1565b87868114611cb15760405163b4fa3fb360e01b815260040160405180910390fd5b5f5b81811015611e0457888882818110611ccd57611ccd61518c565b9050602002016020810190611ce29190614906565b6001600160a01b0385165f908152600160205260408120908d8d85818110611d0c57611d0c61518c565b9050602002016020810190611d2191906147ef565b6001600160e01b031916815260208101919091526040015f2080546001600160a01b0319166001600160a01b03929092169190911790557f2c722487e90aca38ec1b074c3403210bd2bfb769b4da7f12f7bf0b9e37517c18848c8c84818110611d8c57611d8c61518c565b9050602002016020810190611da191906147ef565b8b8b85818110611db357611db361518c565b9050602002016020810190611dc89190614906565b604080516001600160a01b0394851681526001600160e01b031993909316602084015292168183015290519081900360600190a1600101611cb3565b5050505050505050505050565b5f611e1a613704565b9050336001600160a01b03821614611e4557604051631e3f70bf60e31b815260040160405180910390fd5b604051631d973c7360e21b81523060048201525f906001600160a01b0383169063765cf1cc90602401602060405180830381865afa158015611e89573d5f5f3e3d5ffd5b505050506040513d601f19601f82011682018060405250810190611ead919061534c565b90506001600160a01b038116611ec1575050565b5f826001600160a01b0316634bf3ba3f6040518163ffffffff1660e01b8152600401602060405180830381865afa158015611efe573d5f5f3e3d5ffd5b505050506040513d601f19601f82011682018060405250810190611f2291906154f0565b9050805f03611f3057505050565b5f836001600160a01b0316639b67b4b66040518163ffffffff1660e01b8152600401602060405180830381865afa158015611f6d573d5f5f3e3d5ffd5b505050506040513d601f19601f82011682018060405250810190611f91919061534c565b90506001600160a01b038116611fa75750505050565b6040516370a0823160e01b815230600482015282906001600160a01b038316906370a0823190602401602060405180830381865afa158015611feb573d5f5f3e3d5ffd5b505050506040513d601f19601f8201168201806040525081019061200f91906154f0565b101561201b5750505050565b600e805460ff19166001179055604051633388609d60e11b81526001600160a01b03828116600483015284166024820152604481018390523090636710c13a906064015f604051808303815f87803b158015612075575f5ffd5b505af1925050508015612086575060015b505050600e805460ff191690555050565b6120a76120a2612ca6565b6130ec565b6120c457604051633632b98960e21b815260040160405180910390fd5b6048815111156120e75760405163680b6caf60e01b815260040160405180910390fd5b60056120f38282615436565b506120fc612ca6565b6001600160a01b03167f74321da206c1b9fa34367f7ece59ca49371dcd13820b9a5c3767ae1ecceed51a8260405161199091906148e0565b5f5f5f5f612140612771565b92509250925061215183838361378c565b935050505090565b612164611921612ca6565b61218157604051633cebab8560e21b815260040160405180910390fd5b600a61218d8282615436565b50612196612ca6565b6001600160a01b03167f2013570c343af8ab14a9778150e381a0fda34ed6368127a95fd5e7210cbec5bf8260405161199091906148e0565b6121d9611921612ca6565b6121f657604051633cebab8560e21b815260040160405180910390fd5b60086122028282615436565b5061220b612ca6565b6001600160a01b03167f23146a23bca92967799f9c14b4995bb19ca27a6331c8a66f695bc252528150248260405161199091906148e0565b60098054610eae906151a0565b61225b611921612ca6565b61227857604051633cebab8560e21b815260040160405180910390fd5b600b805460ff191682151517905561228e612ca6565b6001600160a01b03167fa48b25a14599514510fcdca0f35ff4cd42847f5e61698a238f4ee01e2d1c2c6a82604051611990911515815260200190565b5f6122d3612be7565b6001600160a01b031663b2acf41d30846040518363ffffffff1660e01b8152600401611256929190615317565b600b5460ff1661232357604051636dc9375d60e11b815260040160405180910390fd5b61233361232e612ca6565b6128cc565b156123515760405163211bad0f60e11b815260040160405180910390fd5b5f61235a612be7565b90505f600c541180156123715750600c54600d5410155b1561238f576040516302332e7760e21b815260040160405180910390fd5b806001600160a01b0316633868e7e5306123a7612ca6565b5f6040518463ffffffff1660e01b81526004016123c69392919061551b565b5f604051808303815f87803b1580156123dd575f5ffd5b505af11580156123ef573d5f5f3e3d5ffd5b5050600d8054925090505f61240383615571565b91905055506115f7612413612ca6565b613826565b6060612422613122565b611514858585858080601f0160208091040260200160405190810160405280939291908181526020018383808284375f92019190915250613aed92505050565b61246d611921612ca6565b61248a57604051633cebab8560e21b815260040160405180910390fd5b600c55565b5f612498610b99565b5063bc197c8160e01b95945050505050565b5f7f0000000000000000000000000000000000000000000000000000000000000000604051631aab3f0d60e11b81523060048201525f60248201526001600160a01b0391909116906335567e1a90604401602060405180830381865afa158015612516573d5f5f3e3d5ffd5b505050506040513d601f19601f8201168201806040525081019061253a91906154f0565b905090565b5f5f5f61254a612771565b9250925092505f61255c84848461277d565b90506001600160a01b0381166125855760405163ea8e4eb560e01b815260040160405180910390fd5b336001600160a01b038216146125ae5760405163ea8e4eb560e01b815260040160405180910390fd5b6125bc426301e13380615589565b8511156125dc576040516301814f7d60e31b815260040160405180910390fd5b6125e46128a0565b5f8590556040518581527fa7b24c66dd3269a292a60b3facdbb8f3e7557d1e19e64d99e0d6ee7250be63ad9060200160405180910390a15050505050565b33301415806126345750600e5460ff16155b1561265257604051633632b98960e21b815260040160405180910390fd5b6126666001600160a01b0385168484613618565b60405163799556e160e11b81526001600160a01b03828116600483015284169063f32aadc2906024015f604051808303815f87803b1580156126a6575f5ffd5b505af11580156126b8573d5f5f3e3d5ffd5b5050505050505050565b6126cd611921612ca6565b6126ea57604051633cebab8560e21b815260040160405180910390fd5b60076126f68282615436565b506126ff612ca6565b6001600160a01b03167f37cc8c6ced0cbc4d440fcfa810a2f09f40b8f0127c3656103edf26b3d93e0ec18260405161199091906148e0565b5f612740610b99565b5063f23a6e6160e01b95945050505050565b5f61253a613b62565b5f5f5f612766612771565b925092509250909192565b5f5f5f61276630613bef565b5f5f61278a85858561378c565b905061151481868686613c43565b5f610f377f97f795a08410e77dc9dbbaba3915f17c601e45642518dd578bd440d8775bfee46127c684613d0f565b80519060200120613d7a565b5f6001600160e01b03198216635194544760e01b1480610f375750610f3782613d86565b5f5f5f612801612771565b9250925092505f61281384848461277d565b6001600160a01b038082165f9081526001602090815260408083206001600160e01b03198435168452909152902054919250168015610c90575f5f826001600160a01b03165f3660405161286892919061559c565b5f60405180830381855afa9150503d805f8114610c71576040519150601f19603f3d011682016040523d82523d5f602084013e610c76565b5f544210156128c257604051636315bfbb60e01b815260040160405180910390fd5b6128ca613daa565b565b5f5f6128d6612be7565b6040516311e3579360e31b81529091506001600160a01b03821690638f1abc98906129079030908790600401615317565b602060405180830381865afa158015612922573d5f5f3e3d5ffd5b505050506040513d601f19601f820116820180604052508101906129469190615331565b806129b95750604051630e70978b60e21b81526001600160a01b038216906339c25e2c9061297a9030908790600401615317565b602060405180830381865afa158015612995573d5f5f3e3d5ffd5b505050506040513d601f19601f820116820180604052508101906129b99190615331565b8061120f575060405163f582bceb60e01b81526001600160a01b0382169063f582bceb906129ed9030908790600401615317565b602060405180830381865afa158015612a08573d5f5f3e3d5ffd5b505050506040513d601f19601f8201168201806040525081019061120f9190615331565b5f5f83836040818110612a4157612a4161518c565b919091013560f81c91505f9050818103612b2157612a6260205f86886155ab565b612a6b916155d2565b5f1c9050612a878160405180602001604052805f81525061356f565b158015612a9d57506001600160a01b0381163014155b15612aac575f9250505061120f565b365f8686612abe6040602083856155ab565b612ac7916155d2565b612ad29282906155ab565b91509150612b16838984848080601f0160208091040260200160405190810160405280939291908181526020018383808284375f92019190915250613de492505050565b94505050505061120f565b5f612b618787878080601f0160208091040260200160405190810160405280939291908181526020018383808284375f92019190915250613ecb92505050565b90925090505f816004811115612b7957612b79615507565b14612b89575f935050505061120f565b612ba18260405180602001604052805f81525061356f565b979650505050505050565b5f5f612bb6612be7565b6040516326ba248f60e21b81529091506001600160a01b03821690639ae8923c906129079030908790600401615317565b5f5f612bf161275b565b509150506001600160a01b038116612c1c5760405163a9ec899b60e01b815260040160405180910390fd5b5f816001600160a01b031663b4a9c6076040518163ffffffff1660e01b8152600401602060405180830381865afa158015612c59573d5f5f3e3d5ffd5b505050506040513d601f19601f82011682018060405250810190612c7d919061534c565b90506001600160a01b038116610f375760405163a9ec899b60e01b815260040160405180910390fd5b5f61253a613f0d565b6040805160b78082018490526001600160a01b038516609783015260778201869052605782018790526e5af43d82803e903d91602b57fd5bf3603783015260288201889052733d60ad80600a3d3981f3363d3d373d3d3d363d736014830152815260d7810190915280516020909101205f90612d2c86828a613f3b565b98975050505050505050565b5f7f00000000000000000000000000000000000000000000000000000000000000006001600160a01b0316826001600160a01b031603612d7a57506001919050565b5f5f5f612d85612771565b925092509250468314612e695730612db8612d9e612ca6565b731111000000000000000000000000000000001110190190565b6001600160a01b031603612dd157506001949350505050565b6040516333932be560e11b81526001600160a01b0386811660048301527f0000000000000000000000000000000000000000000000000000000000000000169063672657ca90602401602060405180830381865afa158015612e35573d5f5f3e3d5ffd5b505050506040513d601f19601f82011682018060405250810190612e599190615331565b15612e6957506001949350505050565b5f612e7584848461378c565b9050806001600160a01b0316866001600160a01b031603612e9c5750600195945050505050565b5f612ea982868686613c43565b9050806001600160a01b0316876001600160a01b031603612ed1575060019695505050505050565b6001600160a01b038082165f908152600260209081526040808320938b168352929052205460ff1615612f0b575060019695505050505050565b505f9695505050505050565b606060ff8216612f6857612f61868686868080601f0160208091040260200160405190810160405280939291908181526020018383808284375f92019190915250613aed92505050565b9050611514565b5f1960ff831601612fcf575f612f7d30612798565b9050806001600160a01b03163b5f03612f9957612f99306136d1565b612fc78187898888604051602001612fb3939291906155ef565b604051602081830303815290604052613aed565b915050611514565b60011960ff8316016130535761301a8585858080601f0160208091040260200160405190810160405280939291908181526020018383808284375f920191909152506134f892505050565b60405160200161303d919060609190911b6001600160601b031916815260140190565b6040516020818303038152906040529050611514565b60021960ff8316016130d3575f61306d60208286886155ab565b613076916155d2565b9050365f613087866020818a6155ab565b915091506130978884848461315c565b6040516020016130ba919060609190911b6001600160601b031916815260140190565b6040516020818303038152906040529350505050611514565b604051631cc6a69960e11b815260040160405180910390fd5b5f6130f5612be7565b6001600160a01b031663f582bceb30846040518363ffffffff1660e01b8152600401611256929190615317565b61312b30612798565b6001600160a01b0316336001600160a01b0316146128ca5760405163ea8e4eb560e01b815260040160405180910390fd5b5f5f83838080601f0160208091040260200160405190810160405280939291908181526020018383808284375f9201919091525050825192935087929150506020830188f591506001600160a01b0382166117a45760405163a28c247360e01b815260040160405180910390fd5b604051631506fd4d60e01b81526001600160a01b0382811660048301527f00000000000000000000000000000000000000000000000000000000000000001690631506fd4d90602401602060405180830381865afa15801561322e573d5f5f3e3d5ffd5b505050506040513d601f19601f820116820180604052508101906132529190615331565b61326f5760405163340aafcd60e11b815260040160405180910390fd5b61327a611632612ca6565b6115f75760405163ea8e4eb560e01b815260040160405180910390fd5b7f4910fdfa16fed3260ed0e7147f7cc6da11a60208b5b9406d12a635614ffd91435460ff16156132ca57611b7183613f64565b826001600160a01b03166352d1902d6040518163ffffffff1660e01b8152600401602060405180830381865afa925050508015613324575060408051601f3d908101601f19168201909252613321918101906154f0565b60015b6133875760405162461bcd60e51b815260206004820152602e60248201527f45524331393637557067726164653a206e657720696d706c656d656e7461746960448201526d6f6e206973206e6f74205555505360901b6064820152608401610fd6565b5f5160206157415f395f51905f5281146133f55760405162461bcd60e51b815260206004820152602960248201527f45524331393637557067726164653a20756e737570706f727465642070726f786044820152681a58589b195555525160ba1b6064820152608401610fd6565b50611b71838383613fff565b336001600160a01b037f000000000000000000000000000000000000000000000000000000000000000016146128ca5760405162461bcd60e51b815260206004820152601c60248201527f6163636f756e743a206e6f742066726f6d20456e747279506f696e74000000006044820152606401610fd6565b5f61349a6134878484614023565b6134956101408601866151d8565b612a2c565b156134a657505f610f37565b50600192915050565b80156115f7576040515f9033905f1990849084818181858888f193505050503d805f8114610c90576040519150601f19603f3d011682016040523d82523d5f602084013e610c90565b80515f9082906020820185f091506001600160a01b03821661352d5760405163a28c247360e01b815260040160405180910390fd5b5092915050565b5f5f61353e612be7565b604051630e70978b60e21b81529091506001600160a01b038216906339c25e2c9061297a9030908790600401615317565b5f5f5f5f61357b612771565b9250925092505f61358d84848461378c565b9050806001600160a01b0316876001600160a01b0316036135b5576001945050505050610f37565b5f6135c282868686613c43565b9050806001600160a01b0316886001600160a01b0316036135eb57600195505050505050610f37565b6001600160a01b038082165f908152600260209081526040808320938c168352929052205460ff16612d2c565b604080516001600160a01b038416602482015260448082018490528251808303909101815260649091019091526020810180516001600160e01b031663095ea7b360e01b1790526136698482614056565b6136cb57604080516001600160a01b03851660248201525f6044808301919091528251808303909101815260649091019091526020810180516001600160e01b031663095ea7b360e01b1790526136c19085906140f3565b6136cb84826140f3565b50505050565b6111785f7f97f795a08410e77dc9dbbaba3915f17c601e45642518dd578bd440d8775bfee46136ff84613d0f565b6141c6565b5f5f61370e61275b565b509150506001600160a01b038116613727575f91505090565b806001600160a01b03166372a0d6ad6040518163ffffffff1660e01b8152600401602060405180830381865afa925050508015613781575060408051601f3d908101601f1916820190925261377e9181019061534c565b60015b610f37575f91505090565b5f46841461379b57505f61120f565b826001600160a01b03163b5f036137b357505f61120f565b6040516331a9108f60e11b8152600481018390526001600160a01b03841690636352211e90602401602060405180830381865afa925050508015613814575060408051601f3d908101601f191682019092526138119181019061534c565b60015b61381f57505f61120f565b905061120f565b5f61382f613704565b90506001600160a01b038116613843575050565b604051631d973c7360e21b81523060048201525f906001600160a01b0383169063765cf1cc90602401602060405180830381865afa158015613887573d5f5f3e3d5ffd5b505050506040513d601f19601f820116820180604052508101906138ab919061534c565b90506001600160a01b0381166138c057505050565b5f826001600160a01b0316634bf3ba3f6040518163ffffffff1660e01b8152600401602060405180830381865afa1580156138fd573d5f5f3e3d5ffd5b505050506040513d601f19601f8201168201806040525081019061392191906154f0565b9050805f036139305750505050565b5f836001600160a01b0316639b67b4b66040518163ffffffff1660e01b8152600401602060405180830381865afa15801561396d573d5f5f3e3d5ffd5b505050506040513d601f19601f82011682018060405250810190613991919061534c565b90506001600160a01b0381166139a8575050505050565b6040516370a0823160e01b81523060048201525f906001600160a01b038316906370a0823190602401602060405180830381865afa1580156139ec573d5f5f3e3d5ffd5b505050506040513d601f19601f82011682018060405250810190613a1091906154f0565b905082811015613a2257505050505050565b600e805460ff19166001179055604051636f9a0e2560e11b81526001600160a01b03838116600483015285811660248301526044820185905287166064820152309063df341c4a906084015f604051808303815f87803b158015613a84575f5ffd5b505af1925050508015613a95575060015b15613adb57836001600160a01b0316866001600160a01b03167f80e20f0983f621b9f0480903a18b77ebc5a265c2d824ebe6b98dde91e811521f60405160405180910390a35b5050600e805460ff1916905550505050565b60605f846001600160a01b03168484604051613b099190615181565b5f6040518083038185875af1925050503d805f8114613b43576040519150601f19603f3d011682016040523d82523d5f602084013e613b48565b606091505b509250905080613b5a57815160208301fd5b509392505050565b5f5f613b6c6142c8565b90506001600160a01b038116613b8357505f919050565b60405163a1d4b07f60e01b81523060048201526001600160a01b0382169063a1d4b07f90602401602060405180830381865afa158015613bc5573d5f5f3e3d5ffd5b505050506040513d601f19601f82011682018060405250810190613be991906154f0565b91505090565b604080516060808252608082019092525f91829182918291906020820181803683370190505090506060604d60208301873c80806020019051810190613c359190615615565b935093509350509193909250565b5f845b613c91817f00000000000000000000000000000000000000000000000000000000000000007f0000000000000000000000000000000000000000000000000000000000000000614342565b1561151457806001600160a01b031663fc0c546a6040518163ffffffff1660e01b8152600401606060405180830381865afa158015613cd2573d5f5f3e3d5ffd5b505050506040513d601f19601f82011682018060405250810190613cf69190615615565b91965094509250613d0885858561378c565b9050613c46565b60606040518060400160405280600e81526020016d604380600d600039806000f3fe7360901b815250826040518060600160405280602e8152602001615713602e9139604051602001613d649392919061564d565b6040516020818303038152906040529050919050565b5f61120f838330613f3b565b5f6001600160e01b03198216636faff5f160e01b1480610f375750610f37826143e9565b600354613db561441d565b604051602001613dc793929190615675565b60408051601f198184030181529190528051602090910120600355565b5f5f5f856001600160a01b0316631626ba7e60e01b8686604051602401613e0c9291906156aa565b60408051601f198184030181529181526020820180516001600160e01b03166001600160e01b0319909416939093179092529051613e4a9190615181565b5f60405180830381855afa9150503d805f8114613e82576040519150601f19603f3d011682016040523d82523d5f602084013e613e87565b606091505b5091509150818015613e9b57506020815110155b801561190c57508051630b135d3f60e11b90613ec090830160209081019084016154f0565b149695505050505050565b5f5f8251604103613eff576020830151604084015160608501515f1a613ef38782858561442f565b94509450505050613f06565b505f905060025b9250929050565b5f613f1733611a9f565b8015613f24575060143610155b15613f36575060131936013560601c90565b503390565b5f604051836040820152846020820152828152600b8101905060ff815360559020949350505050565b6001600160a01b0381163b613fd15760405162461bcd60e51b815260206004820152602d60248201527f455243313936373a206e657720696d706c656d656e746174696f6e206973206e60448201526c1bdd08184818dbdb9d1c9858dd609a1b6064820152608401610fd6565b5f5160206157415f395f51905f5280546001600160a01b0319166001600160a01b0392909216919091179055565b614008836144ec565b5f825111806140145750805b15611b71576136cb838361452b565b7f19457468657265756d205369676e6564204d6573736167653a0a3332000000005f908152601c829052603c812061120f565b5f5f5f846001600160a01b0316846040516140719190615181565b5f604051808303815f865af19150503d805f81146140aa576040519150601f19603f3d011682016040523d82523d5f602084013e6140af565b606091505b50915091508180156140d95750805115806140d95750808060200190518101906140d99190615331565b80156115145750505050506001600160a01b03163b151590565b5f614147826040518060400160405280602081526020017f5361666545524332303a206c6f772d6c6576656c2063616c6c206661696c6564815250856001600160a01b03166145509092919063ffffffff16565b905080515f14806141675750808060200190518101906141679190615331565b611b715760405162461bcd60e51b815260206004820152602a60248201527f5361666545524332303a204552433230206f7065726174696f6e20646964206e6044820152691bdd081cdd58d8d9595960b21b6064820152608401610fd6565b5f834710156142175760405162461bcd60e51b815260206004820152601d60248201527f437265617465323a20696e73756666696369656e742062616c616e63650000006044820152606401610fd6565b81515f036142675760405162461bcd60e51b815260206004820181905260248201527f437265617465323a2062797465636f6465206c656e677468206973207a65726f6044820152606401610fd6565b8282516020840186f590506001600160a01b03811661120f5760405162461bcd60e51b815260206004820152601960248201527f437265617465323a204661696c6564206f6e206465706c6f79000000000000006044820152606401610fd6565b5f5f6142d261275b565b509150506001600160a01b0381166142eb575f91505090565b806001600160a01b0316634026d7626040518163ffffffff1660e01b8152600401602060405180830381865afa925050508015613781575060408051601f3d908101601f1916820190925261377e9181019061534c565b5f836001600160a01b03163b60ad1461435c57505f61120f565b5f6143668561455e565b9050806001600160a01b03163b5f03614382575f91505061120f565b836001600160a01b0316816001600160a01b0316146143a4575f91505061120f565b5f5f5f5f6143b18961456e565b93509350935093506143c7878686868686612caf565b6001600160a01b0316896001600160a01b031614955050505050509392505050565b5f6001600160e01b03198216630271189760e51b1480610f3757506301ffc9a760e01b6001600160e01b0319831614610f37565b365f6144276145c5565b915091509091565b5f807f7fffffffffffffffffffffffffffffff5d576e7357a4501ddfe92f46681b20a083111561446457505f905060036144e3565b604080515f8082526020820180845289905260ff881692820192909252606081018690526080810185905260019060a0016020604051602081039080840390855afa1580156144b5573d5f5f3e3d5ffd5b5050604051601f1901519150506001600160a01b0381166144dd575f600192509250506144e3565b91505f90505b94509492505050565b6144f581613f64565b6040516001600160a01b038216907fbc7cd75a20ee27fd9adebab32041f755214dbc6bffa90cc0225b39da2e5c2d3b905f90a250565b606061120f838360405180606001604052806027815260200161576160279139614604565b60606111e584845f8561466e565b5f6014600a600c843c50505f5190565b60408051608080825260a082019092525f9182918291829182916020820181803683370190505090506080602d60208301883c808060200190518101906145b591906156c2565b9450945094509450509193509193565b365f6145d033611a9f565b80156145dd575060143610155b156145fd575f80366145f06014826156ff565b92614427939291906155ab565b5f36614427565b60605f5f856001600160a01b0316856040516146209190615181565b5f60405180830381855af49150503d805f8114614658576040519150601f19603f3d011682016040523d82523d5f602084013e61465d565b606091505b509150915061190c86838387614736565b6060824710156146cf5760405162461bcd60e51b815260206004820152602660248201527f416464726573733a20696e73756666696369656e742062616c616e636520666f6044820152651c8818d85b1b60d21b6064820152608401610fd6565b5f5f866001600160a01b031685876040516146ea9190615181565b5f6040518083038185875af1925050503d805f8114614724576040519150601f19603f3d011682016040523d82523d5f602084013e614729565b606091505b5091509150612ba1878383875b606083156147a45782515f0361479d576001600160a01b0385163b61479d5760405162461bcd60e51b815260206004820152601d60248201527f416464726573733a2063616c6c20746f206e6f6e2d636f6e74726163740000006044820152606401610fd6565b50816111e5565b6111e583838151156147b95781518083602001fd5b8060405162461bcd60e51b8152600401610fd691906148e0565b80356001600160e01b0319811681146147ea575f5ffd5b919050565b5f602082840312156147ff575f5ffd5b61120f826147d3565b5f5f83601f840112614818575f5ffd5b5081356001600160401b0381111561482e575f5ffd5b6020830191508360208260051b8501011115613f06575f5ffd5b5f5f5f5f6040858703121561485b575f5ffd5b84356001600160401b03811115614870575f5ffd5b61487c87828801614808565b90955093505060208501356001600160401b0381111561489a575f5ffd5b6148a687828801614808565b95989497509550505050565b5f81518084528060208401602086015e5f602082860101526020601f19601f83011685010191505092915050565b602081525f61120f60208301846148b2565b6001600160a01b03811681146115f7575f5ffd5b5f60208284031215614916575f5ffd5b813561120f816148f2565b5f60208284031215614931575f5ffd5b81356001600160401b03811115614946575f5ffd5b8201610100818503121561120f575f5ffd5b634e487b7160e01b5f52604160045260245ffd5b604051601f8201601f191681016001600160401b038111828210171561499457614994614958565b604052919050565b5f5f6001600160401b038411156149b5576149b5614958565b50601f8301601f19166020016149ca8161496c565b9150508281528383830111156149de575f5ffd5b828260208301375f602084830101529392505050565b5f82601f830112614a03575f5ffd5b61120f8383356020850161499c565b5f5f5f5f60808587031215614a25575f5ffd5b8435614a30816148f2565b93506020850135614a40816148f2565b92506040850135915060608501356001600160401b03811115614a61575f5ffd5b614a6d878288016149f4565b91505092959194509250565b5f5f83601f840112614a89575f5ffd5b5081356001600160401b03811115614a9f575f5ffd5b602083019150836020828501011115613f06575f5ffd5b5f5f5f60408486031215614ac8575f5ffd5b8335925060208401356001600160401b03811115614ae4575f5ffd5b614af086828701614a79565b9497909650939450505050565b5f60208284031215614b0d575f5ffd5b5035919050565b5f5f60408385031215614b25575f5ffd5b8235614b30816148f2565b91506020830135614b40816148f2565b809150509250929050565b803560ff811681146147ea575f5ffd5b5f5f5f5f5f5f5f60a0888a031215614b71575f5ffd5b8735614b7c816148f2565b96506020880135955060408801356001600160401b03811115614b9d575f5ffd5b614ba98a828b01614a79565b9096509450614bbc905060608901614b4b565b925060808801356001600160401b03811115614bd6575f5ffd5b8801601f81018a13614be6575f5ffd5b80356001600160401b03811115614bfb575f5ffd5b8a6020606083028401011115614c0f575f5ffd5b602082019350809250505092959891949750929550565b5f5f5f5f60608587031215614c39575f5ffd5b843593506020850135925060408501356001600160401b03811115614c5c575f5ffd5b6148a687828801614a79565b5f5f5f60608486031215614c7a575f5ffd5b83356001600160401b03811115614c8f575f5ffd5b84016101608187031215614ca1575f5ffd5b95602085013595506040909401359392505050565b5f5f60208385031215614cc7575f5ffd5b82356001600160401b03811115614cdc575f5ffd5b614ce885828601614808565b90969095509350505050565b5f602082016020835280845180835260408501915060408160051b8601019250602086015f5b82811015614d4b57603f19878603018452614d368583516148b2565b94506020938401939190910190600101614d1a565b50929695505050505050565b5f5f60408385031215614d68575f5ffd5b8235614d73816148f2565b915060208301356001600160401b03811115614d8d575f5ffd5b614d99858286016149f4565b9150509250929050565b5f5f5f5f5f60808688031215614db7575f5ffd5b8535614dc2816148f2565b94506020860135935060408601356001600160401b03811115614de3575f5ffd5b614def88828901614a79565b9094509250614e02905060608701614b4b565b90509295509295909350565b5f60208284031215614e1e575f5ffd5b81356001600160401b03811115614e33575f5ffd5b8201601f81018413614e43575f5ffd5b6111e58482356020840161499c565b5f5f5f60408486031215614e64575f5ffd5b8335614e6f816148f2565b925060208401356001600160401b03811115614ae4575f5ffd5b5f5f5f60608486031215614e9b575f5ffd5b8335614ea6816148f2565b92506020840135614eb6816148f2565b929592945050506040919091013590565b80151581146115f7575f5ffd5b5f60208284031215614ee4575f5ffd5b813561120f81614ec7565b5f5f5f5f60608587031215614f02575f5ffd5b8435614f0d816148f2565b93506020850135925060408501356001600160401b03811115614c5c575f5ffd5b5f82601f830112614f3d575f5ffd5b81356001600160401b03811115614f5657614f56614958565b8060051b614f666020820161496c565b91825260208185018101929081019086841115614f81575f5ffd5b6020860192505b8383101561190c578235825260209283019290910190614f88565b5f5f5f5f5f60a08688031215614fb7575f5ffd5b8535614fc2816148f2565b94506020860135614fd2816148f2565b935060408601356001600160401b03811115614fec575f5ffd5b614ff888828901614f2e565b93505060608601356001600160401b03811115615013575f5ffd5b61501f88828901614f2e565b92505060808601356001600160401b0381111561503a575f5ffd5b615046888289016149f4565b9150509295509295909350565b5f5f5f5f60808587031215615066575f5ffd5b8435615071816148f2565b93506020850135615081816148f2565b9250604085013591506060850135615098816148f2565b939692955090935050565b5f5f604083850312156150b4575f5ffd5b82356150bf816148f2565b91506150cd602084016147d3565b90509250929050565b5f5f5f5f5f60a086880312156150ea575f5ffd5b85356150f5816148f2565b94506020860135615105816148f2565b9350604086013592506060860135915060808601356001600160401b0381111561503a575f5ffd5b6001600160601b03198560601b1681528284601483013760609190911b6001600160601b0319166014919092019081019190915260280192915050565b5f81518060208401855e5f93019283525090919050565b5f61120f828461516a565b634e487b7160e01b5f52603260045260245ffd5b600181811c908216806151b457607f821691505b6020821081036151d257634e487b7160e01b5f52602260045260245ffd5b50919050565b5f5f8335601e198436030181126151ed575f5ffd5b8301803591506001600160401b03821115615206575f5ffd5b602001915036819003821315613f06575f5ffd5b601f821115611b7157805f5260205f20601f840160051c8101602085101561523f5750805b601f840160051c820191505b81811015610c90575f815560010161524b565b6001600160401b0383111561527557615275614958565b6152898361528383546151a0565b8361521a565b5f601f8411600181146152ba575f85156152a35750838201355b5f19600387901b1c1916600186901b178355610c90565b5f83815260208120601f198716915b828110156152e957868501358255602094850194600190920191016152c9565b5086821015615305575f1960f88860031b161c19848701351681555b505060018560011b0183555050505050565b6001600160a01b0392831681529116602082015260400190565b5f60208284031215615341575f5ffd5b815161120f81614ec7565b5f6020828403121561535c575f5ffd5b815161120f816148f2565b6020808252602c908201527f46756e6374696f6e206d7573742062652063616c6c6564207468726f7567682060408201526b19195b1959d85d1958d85b1b60a21b606082015260800190565b6020808252602c908201527f46756e6374696f6e206d7573742062652063616c6c6564207468726f7567682060408201526b6163746976652070726f787960a01b606082015260800190565b5f8235607e19833603018112615413575f5ffd5b9190910192915050565b5f6020828403121561542d575f5ffd5b61120f82614b4b565b81516001600160401b0381111561544f5761544f614958565b6154638161545d84546151a0565b8461521a565b6020601f821160018114615495575f831561547e5750848201515b5f19600385901b1c1916600184901b178455610c90565b5f84815260208120601f198516915b828110156154c457878501518255602094850194600190920191016154a4565b50848210156154e157868401515f19600387901b60f8161c191681555b50505050600190811b01905550565b5f60208284031215615500575f5ffd5b5051919050565b634e487b7160e01b5f52602160045260245ffd5b6001600160a01b03848116825283166020820152606081016006831061554f57634e487b7160e01b5f52602160045260245ffd5b826040830152949350505050565b634e487b7160e01b5f52601160045260245ffd5b5f600182016155825761558261555d565b5060010190565b80820180821115610f3757610f3761555d565b818382375f9101908152919050565b5f5f858511156155b9575f5ffd5b838611156155c5575f5ffd5b5050820193919092039150565b80356020831015610f37575f19602084900360031b1b1692915050565b6001600160601b03198460601b168152818360148301375f910160140190815292915050565b5f5f5f60608486031215615627575f5ffd5b8351602085015190935061563a816148f2565b6040949094015192959394509192915050565b5f615658828661516a565b6001600160601b03198560601b16815261190c601482018561516a565b83815260406020820152816040820152818360608301375f818301606090810191909152601f909201601f1916010192915050565b828152604060208201525f6111e560408301846148b2565b5f5f5f5f608085870312156156d5575f5ffd5b84516020860151604087015191955093506156ef816148f2565b6060959095015193969295505050565b81810381811115610f3757610f3761555d56fe3314601d573d3dfd5b363d3d373d3d6014360360143d5160601c5af43d6000803e80603e573d6000fd5b3d6000f3360894a13ba1a3210667c828492db98dca3e2076cc3735a920a3ca505d382bbc416464726573733a206c6f772d6c6576656c2064656c65676174652063616c6c206661696c6564a164736f6c634300081c000a","linkReferences":{}},"methodIdentifiers":{"ASSESSMENT_RESOLVER()":"3a208f95","MAX_NAME_LENGTH()":"86074985","WORK_APPROVAL_RESOLVER()":"bcc5cf88","attemptCommunityMembership()":"7f0b9b42","bannerImage()":"94def29d","communityToken()":"29aa1617","description()":"7284e416","entryPoint()":"b0d691fe","erc6551Registry()":"056d5afe","execute(address,uint256,bytes,uint8)":"51945447","executeAutoStake(address,address,uint256,address)":"df341c4a","executeBatch((address,uint256,bytes,uint8)[])":"43629a73","executeGardenSelfStake(address,address,uint256)":"6710c13a","executeNested(address,uint256,bytes,uint8,(bytes32,address,uint256)[])":"1fb1ecf0","extcall(address,uint256,bytes)":"b709467c","extcreate(uint256,bytes)":"45a24e3e","extcreate2(uint256,bytes32,bytes)":"34715fb1","extsload(bytes32)":"1e2eaeaf","gapProjectUID()":"f7fc57b0","gardenMemberCount()":"41c6c428","getGAPProjectUID()":"f89b9b93","getNonce()":"d087d288","initialize((address,string,string,string,string,string,string,bool))":"0bc4241b","isCommunity(address)":"993fa20b","isEvaluator(address)":"1b561cf9","isFunder(address)":"1ea48870","isGardener(address)":"0959f6a8","isLocked()":"a4e2d634","isOperator(address)":"6d70f7ae","isOwner(address)":"2f54bf6e","isTrustedForwarder(address)":"572b6c05","isValidSignature(bytes32,bytes)":"1626ba7e","isValidSigner(address,bytes)":"523e3260","joinGarden()":"b10006a6","location()":"516f279e","lock(uint256)":"dd467064","lockedUntil()":"ce0617ec","maxGardeners()":"d7962d09","metadata()":"392f37e9","name()":"06fdde03","onERC1155BatchReceived(address,address,uint256[],uint256[],bytes)":"bc197c81","onERC1155Received(address,address,uint256,uint256,bytes)":"f23a6e61","onERC721Received(address,address,uint256,bytes)":"150b7a02","openJoining()":"291d0548","overrides(address,bytes4)":"ee9c6054","owner()":"8da5cb5b","permissions(address,address)":"1f9838b5","proxiableUUID()":"52d1902d","setMaxGardeners(uint256)":"ba176bbc","setOpenJoining(bool)":"98b7a25a","setOverrides(bytes4[],address[])":"7a8f7356","setPermissions(address[],bool[])":"039721b1","slug()":"6beb7959","state()":"c19d93fb","supportsInterface(bytes4)":"01ffc9a7","token()":"fc0c546a","updateBannerImage(string)":"52094e55","updateDescription(string)":"e735b48a","updateLocation(string)":"932354c1","updateMetadata(string)":"918b5be1","updateName(string)":"84da92a7","upgradeTo(address)":"3659cfe6","upgradeToAndCall(address,bytes)":"4f1ef286","validateUserOp((address,uint256,bytes,bytes,uint256,uint256,uint256,uint256,uint256,bytes,bytes),bytes32,uint256)":"3a871cdd"},"id":138}