{"abi":[{"type":"constructor","inputs":[{"name":"gardenAccountImplementation","type":"address","internalType":"address"}],"stateMutability":"nonpayable"},{"type":"function","name":"actionRegistry","inputs":[],"outputs":[{"name":"","type":"address","internalType":"contract ActionRegistry"}],"stateMutability":"view"},{"type":"function","name":"approve","inputs":[{"name":"to","type":"address","internalType":"address"},{"name":"tokenId","type":"uint256","internalType":"uint256"}],"outputs":[],"stateMutability":"nonpayable"},{"type":"function","name":"balanceOf","inputs":[{"name":"owner","type":"address","internalType":"address"}],"outputs":[{"name":"","type":"uint256","internalType":"uint256"}],"stateMutability":"view"},{"type":"function","name":"batchMintGardens","inputs":[{"name":"configs","type":"tuple[]","internalType":"struct GardenToken.GardenConfig[]","components":[{"name":"communityToken","type":"address","internalType":"address"},{"name":"name","type":"string","internalType":"string"},{"name":"slug","type":"string","internalType":"string"},{"name":"description","type":"string","internalType":"string"},{"name":"location","type":"string","internalType":"string"},{"name":"bannerImage","type":"string","internalType":"string"},{"name":"metadata","type":"string","internalType":"string"},{"name":"openJoining","type":"bool","internalType":"bool"},{"name":"weightScheme","type":"uint8","internalType":"enum IGardensModule.WeightScheme"},{"name":"domainMask","type":"uint8","internalType":"uint8"}]}],"outputs":[{"name":"gardenAccounts","type":"address[]","internalType":"address[]"}],"stateMutability":"payable"},{"type":"function","name":"claimENSRefund","inputs":[],"outputs":[],"stateMutability":"nonpayable"},{"type":"function","name":"cookieJarModule","inputs":[],"outputs":[{"name":"","type":"address","internalType":"contract ICookieJarModule"}],"stateMutability":"view"},{"type":"function","name":"deploymentRegistry","inputs":[],"outputs":[{"name":"","type":"address","internalType":"address"}],"stateMutability":"view"},{"type":"function","name":"ensModule","inputs":[],"outputs":[{"name":"","type":"address","internalType":"contract IGreenGoodsENS"}],"stateMutability":"view"},{"type":"function","name":"failedENSRefunds","inputs":[{"name":"minter","type":"address","internalType":"address"}],"outputs":[{"name":"amount","type":"uint256","internalType":"uint256"}],"stateMutability":"view"},{"type":"function","name":"gardensModule","inputs":[],"outputs":[{"name":"","type":"address","internalType":"contract IGardensModule"}],"stateMutability":"view"},{"type":"function","name":"getApproved","inputs":[{"name":"tokenId","type":"uint256","internalType":"uint256"}],"outputs":[{"name":"","type":"address","internalType":"address"}],"stateMutability":"view"},{"type":"function","name":"hatsModule","inputs":[],"outputs":[{"name":"","type":"address","internalType":"contract IHatsModule"}],"stateMutability":"view"},{"type":"function","name":"initialize","inputs":[{"name":"_multisig","type":"address","internalType":"address"},{"name":"_deploymentRegistry","type":"address","internalType":"address"}],"outputs":[],"stateMutability":"nonpayable"},{"type":"function","name":"isApprovedForAll","inputs":[{"name":"owner","type":"address","internalType":"address"},{"name":"operator","type":"address","internalType":"address"}],"outputs":[{"name":"","type":"bool","internalType":"bool"}],"stateMutability":"view"},{"type":"function","name":"karmaGAPModule","inputs":[],"outputs":[{"name":"","type":"address","internalType":"contract IKarmaGAPModule"}],"stateMutability":"view"},{"type":"function","name":"mintGarden","inputs":[{"name":"config","type":"tuple","internalType":"struct GardenToken.GardenConfig","components":[{"name":"communityToken","type":"address","internalType":"address"},{"name":"name","type":"string","internalType":"string"},{"name":"slug","type":"string","internalType":"string"},{"name":"description","type":"string","internalType":"string"},{"name":"location","type":"string","internalType":"string"},{"name":"bannerImage","type":"string","internalType":"string"},{"name":"metadata","type":"string","internalType":"string"},{"name":"openJoining","type":"bool","internalType":"bool"},{"name":"weightScheme","type":"uint8","internalType":"enum IGardensModule.WeightScheme"},{"name":"domainMask","type":"uint8","internalType":"uint8"}]}],"outputs":[{"name":"","type":"address","internalType":"address"}],"stateMutability":"payable"},{"type":"function","name":"name","inputs":[],"outputs":[{"name":"","type":"string","internalType":"string"}],"stateMutability":"view"},{"type":"function","name":"octantModule","inputs":[],"outputs":[{"name":"","type":"address","internalType":"contract OctantModule"}],"stateMutability":"view"},{"type":"function","name":"owner","inputs":[],"outputs":[{"name":"","type":"address","internalType":"address"}],"stateMutability":"view"},{"type":"function","name":"ownerOf","inputs":[{"name":"tokenId","type":"uint256","internalType":"uint256"}],"outputs":[{"name":"","type":"address","internalType":"address"}],"stateMutability":"view"},{"type":"function","name":"proxiableUUID","inputs":[],"outputs":[{"name":"","type":"bytes32","internalType":"bytes32"}],"stateMutability":"view"},{"type":"function","name":"renounceOwnership","inputs":[],"outputs":[],"stateMutability":"nonpayable"},{"type":"function","name":"safeTransferFrom","inputs":[{"name":"from","type":"address","internalType":"address"},{"name":"to","type":"address","internalType":"address"},{"name":"tokenId","type":"uint256","internalType":"uint256"}],"outputs":[],"stateMutability":"nonpayable"},{"type":"function","name":"safeTransferFrom","inputs":[{"name":"from","type":"address","internalType":"address"},{"name":"to","type":"address","internalType":"address"},{"name":"tokenId","type":"uint256","internalType":"uint256"},{"name":"data","type":"bytes","internalType":"bytes"}],"outputs":[],"stateMutability":"nonpayable"},{"type":"function","name":"setActionRegistry","inputs":[{"name":"_actionRegistry","type":"address","internalType":"address"}],"outputs":[],"stateMutability":"nonpayable"},{"type":"function","name":"setApprovalForAll","inputs":[{"name":"operator","type":"address","internalType":"address"},{"name":"approved","type":"bool","internalType":"bool"}],"outputs":[],"stateMutability":"nonpayable"},{"type":"function","name":"setCookieJarModule","inputs":[{"name":"_cookieJarModule","type":"address","internalType":"address"}],"outputs":[],"stateMutability":"nonpayable"},{"type":"function","name":"setDeployment","inputs":[{"name":"_deploymentRegistry","type":"address","internalType":"address"}],"outputs":[],"stateMutability":"nonpayable"},{"type":"function","name":"setENSModule","inputs":[{"name":"_ensModule","type":"address","internalType":"address"}],"outputs":[],"stateMutability":"nonpayable"},{"type":"function","name":"setGardensModule","inputs":[{"name":"_gardensModule","type":"address","internalType":"address"}],"outputs":[],"stateMutability":"nonpayable"},{"type":"function","name":"setHatsModule","inputs":[{"name":"_hatsModule","type":"address","internalType":"address"}],"outputs":[],"stateMutability":"nonpayable"},{"type":"function","name":"setKarmaGAPModule","inputs":[{"name":"_karmaGAPModule","type":"address","internalType":"address"}],"outputs":[],"stateMutability":"nonpayable"},{"type":"function","name":"setOctantModule","inputs":[{"name":"_octantModule","type":"address","internalType":"address"}],"outputs":[],"stateMutability":"nonpayable"},{"type":"function","name":"setTransferRestriction","inputs":[{"name":"_restriction","type":"uint8","internalType":"enum GardenToken.TransferRestriction"}],"outputs":[],"stateMutability":"nonpayable"},{"type":"function","name":"supportsInterface","inputs":[{"name":"interfaceId","type":"bytes4","internalType":"bytes4"}],"outputs":[{"name":"","type":"bool","internalType":"bool"}],"stateMutability":"view"},{"type":"function","name":"symbol","inputs":[],"outputs":[{"name":"","type":"string","internalType":"string"}],"stateMutability":"view"},{"type":"function","name":"tokenURI","inputs":[{"name":"tokenId","type":"uint256","internalType":"uint256"}],"outputs":[{"name":"","type":"string","internalType":"string"}],"stateMutability":"view"},{"type":"function","name":"totalPendingENSRefunds","inputs":[],"outputs":[{"name":"","type":"uint256","internalType":"uint256"}],"stateMutability":"view"},{"type":"function","name":"transferFrom","inputs":[{"name":"from","type":"address","internalType":"address"},{"name":"to","type":"address","internalType":"address"},{"name":"tokenId","type":"uint256","internalType":"uint256"}],"outputs":[],"stateMutability":"nonpayable"},{"type":"function","name":"transferOwnership","inputs":[{"name":"newOwner","type":"address","internalType":"address"}],"outputs":[],"stateMutability":"nonpayable"},{"type":"function","name":"transferRestriction","inputs":[],"outputs":[{"name":"","type":"uint8","internalType":"enum GardenToken.TransferRestriction"}],"stateMutability":"view"},{"type":"function","name":"upgradeTo","inputs":[{"name":"newImplementation","type":"address","internalType":"address"}],"outputs":[],"stateMutability":"nonpayable"},{"type":"function","name":"upgradeToAndCall","inputs":[{"name":"newImplementation","type":"address","internalType":"address"},{"name":"data","type":"bytes","internalType":"bytes"}],"outputs":[],"stateMutability":"payable"},{"type":"event","name":"ActionRegistryUpdated","inputs":[{"name":"oldRegistry","type":"address","indexed":true,"internalType":"address"},{"name":"newRegistry","type":"address","indexed":true,"internalType":"address"}],"anonymous":false},{"type":"event","name":"AdminChanged","inputs":[{"name":"previousAdmin","type":"address","indexed":false,"internalType":"address"},{"name":"newAdmin","type":"address","indexed":false,"internalType":"address"}],"anonymous":false},{"type":"event","name":"Approval","inputs":[{"name":"owner","type":"address","indexed":true,"internalType":"address"},{"name":"approved","type":"address","indexed":true,"internalType":"address"},{"name":"tokenId","type":"uint256","indexed":true,"internalType":"uint256"}],"anonymous":false},{"type":"event","name":"ApprovalForAll","inputs":[{"name":"owner","type":"address","indexed":true,"internalType":"address"},{"name":"operator","type":"address","indexed":true,"internalType":"address"},{"name":"approved","type":"bool","indexed":false,"internalType":"bool"}],"anonymous":false},{"type":"event","name":"BatchGardensMinted","inputs":[{"name":"startTokenId","type":"uint256","indexed":true,"internalType":"uint256"},{"name":"endTokenId","type":"uint256","indexed":true,"internalType":"uint256"},{"name":"minter","type":"address","indexed":true,"internalType":"address"},{"name":"count","type":"uint256","indexed":false,"internalType":"uint256"}],"anonymous":false},{"type":"event","name":"BeaconUpgraded","inputs":[{"name":"beacon","type":"address","indexed":true,"internalType":"address"}],"anonymous":false},{"type":"event","name":"CookieJarModuleUpdated","inputs":[{"name":"oldModule","type":"address","indexed":true,"internalType":"address"},{"name":"newModule","type":"address","indexed":true,"internalType":"address"}],"anonymous":false},{"type":"event","name":"ENSModuleUpdated","inputs":[{"name":"oldModule","type":"address","indexed":true,"internalType":"address"},{"name":"newModule","type":"address","indexed":true,"internalType":"address"}],"anonymous":false},{"type":"event","name":"ENSRegistrationRefundClaimed","inputs":[{"name":"minter","type":"address","indexed":true,"internalType":"address"},{"name":"amount","type":"uint256","indexed":false,"internalType":"uint256"}],"anonymous":false},{"type":"event","name":"ENSRegistrationRefundQueued","inputs":[{"name":"minter","type":"address","indexed":true,"internalType":"address"},{"name":"amount","type":"uint256","indexed":false,"internalType":"uint256"}],"anonymous":false},{"type":"event","name":"GardenMinted","inputs":[{"name":"tokenId","type":"uint256","indexed":true,"internalType":"uint256"},{"name":"account","type":"address","indexed":true,"internalType":"address"},{"name":"name","type":"string","indexed":false,"internalType":"string"},{"name":"description","type":"string","indexed":false,"internalType":"string"},{"name":"location","type":"string","indexed":false,"internalType":"string"},{"name":"bannerImage","type":"string","indexed":false,"internalType":"string"},{"name":"openJoining","type":"bool","indexed":false,"internalType":"bool"}],"anonymous":false},{"type":"event","name":"GardensModuleUpdated","inputs":[{"name":"oldModule","type":"address","indexed":true,"internalType":"address"},{"name":"newModule","type":"address","indexed":true,"internalType":"address"}],"anonymous":false},{"type":"event","name":"HatsModuleUpdated","inputs":[{"name":"oldModule","type":"address","indexed":true,"internalType":"address"},{"name":"newModule","type":"address","indexed":true,"internalType":"address"}],"anonymous":false},{"type":"event","name":"Initialized","inputs":[{"name":"version","type":"uint8","indexed":false,"internalType":"uint8"}],"anonymous":false},{"type":"event","name":"KarmaGAPModuleUpdated","inputs":[{"name":"oldModule","type":"address","indexed":true,"internalType":"address"},{"name":"newModule","type":"address","indexed":true,"internalType":"address"}],"anonymous":false},{"type":"event","name":"OctantModuleUpdated","inputs":[{"name":"oldModule","type":"address","indexed":true,"internalType":"address"},{"name":"newModule","type":"address","indexed":true,"internalType":"address"}],"anonymous":false},{"type":"event","name":"OwnershipTransferred","inputs":[{"name":"previousOwner","type":"address","indexed":true,"internalType":"address"},{"name":"newOwner","type":"address","indexed":true,"internalType":"address"}],"anonymous":false},{"type":"event","name":"Transfer","inputs":[{"name":"from","type":"address","indexed":true,"internalType":"address"},{"name":"to","type":"address","indexed":true,"internalType":"address"},{"name":"tokenId","type":"uint256","indexed":true,"internalType":"uint256"}],"anonymous":false},{"type":"event","name":"Upgraded","inputs":[{"name":"implementation","type":"address","indexed":true,"internalType":"address"}],"anonymous":false},{"type":"error","name":"CommunityTokenNotContract","inputs":[]},{"type":"error","name":"DeploymentNotConfigured","inputs":[]},{"type":"error","name":"ENSRefundTransferFailed","inputs":[]},{"type":"error","name":"HatsModuleNotSet","inputs":[]},{"type":"error","name":"InvalidBatchSize","inputs":[]},{"type":"error","name":"InvalidCommunityToken","inputs":[]},{"type":"error","name":"InvalidERC20Token","inputs":[]},{"type":"error","name":"NoENSRefundAvailable","inputs":[]},{"type":"error","name":"TransfersLocked","inputs":[]},{"type":"error","name":"TransfersRestricted","inputs":[]},{"type":"error","name":"UnauthorizedMinter","inputs":[]}],"bytecode":{"object":"0x60c03461013357601f61366f38819003918201601f19168301916001600160401b038311848410176101375780849260209460405283398101031261013357516001600160a01b0381168103610133573060805260a0525f5460ff8160081c166100de5760ff808216036100a4575b604051613523908161014c82396080518181816110150152818161116101526118b9015260a05181818161029201526106f10152f35b60ff90811916175f557f7f26b83ff96e1f2b6a682f133852f6798a09c465da95921460cefb3847402498602060405160ff8152a15f61006e565b60405162461bcd60e51b815260206004820152602760248201527f496e697469616c697a61626c653a20636f6e747261637420697320696e697469604482015266616c697a696e6760c81b6064820152608490fd5b5f80fd5b634e487b7160e01b5f52604160045260245ffdfe6080806040526004361015610012575f80fd5b5f905f3560e01c90816301ffc9a714611e505750806306fdde0314611dbe578063077fe4c914611d07578063081812fc14611ce9578063095ea7b314611b63578063117ad57a14611b23578063191d771914611afb57806323b872dd14611ad7578063266f865214611aaf5780633659cfe61461189b5780633b30eb72146118635780634026d7621461183b57806342842e0e14611807578063461d338c146117de578063485cc955146113cd5780634c528446146113645780634f1ef28614611129578063516b87d9146110c057806352d1902d1461100357806357c6e6a414610f9a5780636352211e14610f6a5780636c16ad3514610f2757806370a0823114610e92578063715018a614610e4a57806372a0d6ad14610e2257806383930c2314610e055780638da5cb5b14610ddd57806395d89b4114610d12578063a22cb46514610c48578063adcb922114610bdf578063b4a9c60714610bb7578063b88d4fde14610b41578063ba06c17614610ad8578063c663109214610ab0578063c87b56dd14610a4c578063d25d465214610a23578063d9e4aaee146109b8578063e4ccb5511461060c578063e4e39678146105e3578063e7efdb2614610578578063e985e9c514610520578063f2fde38b1461048f5763f66b1486146101f7575f80fd5b60203660031901126103b357600435906001600160401b0382116103b3578160040191610140600319823603011261048b576097546001600160a01b031633036103ed575b61024d61024884612253565b6126ba565b60cb546001600160a01b0316156103de5760c9545f1981146103ca576001810160c95561027a8133612753565b604051630918575160e11b8152602081806102ba85307f00000000000000000000000000000000000000000000000000000000000000006004850161229f565b038173__$22345123dcf5f39d8c23eeef107f852197$__5af49384156103be57809461036d575b602061035d610365888888885f5160206134375f395f51905f5261030860248401866122c1565b9061031660648601886122c1565b99909560e4610328608483018b6122c1565b61034461033b8d60a487959701906122c1565b949093016122f3565b9360018060a01b038c169e8f9b604051998a998a612320565b0390a36128c3565b604051908152f35b909193506020823d6020116103b6575b8161038a60209383611f7e565b810103126103b357509261035d92610365926103a760209661228b565b945092819295506102e1565b80fd5b3d915061037d565b604051903d90823e3d90fd5b634e487b7160e01b83526011600452602483fd5b63127629f760e31b8252600482fd5b60ca546001600160a01b0316801561047c5760206024916040519283809262a743f760e61b82523360048301525afa83918161044b575b506104385763955c501b60e01b8352600483fd5b61023c5763955c501b60e01b8252600482fd5b61046e91925060203d602011610475575b6104668183611f7e565b810190612204565b905f610424565b503d61045c565b63045824e160e51b8352600483fd5b5080fd5b50346103b35760203660031901126103b3576104a9611efa565b6104b1612379565b6001600160a01b038116156104cc576104c99061260e565b80f35b60405162461bcd60e51b815260206004820152602660248201527f4f776e61626c653a206e6577206f776e657220697320746865207a65726f206160448201526564647265737360d01b6064820152608490fd5b50346103b35760403660031901126103b357604061053c611efa565b91610545611f10565b9260018060a01b03168152606a602052209060018060a01b03165f52602052602060ff60405f2054166040519015158152f35b50346103b35760203660031901126103b357610592611efa565b61059a612379565b60ce80546001600160a01b039283166001600160a01b0319821681179092559091167f1c2f4d6765fbc35ee83d1598538969716facf03e15ae9183c5f99259aeb5d3318380a380f35b50346103b357806003193601126103b35760cf546040516001600160a01b039091168152602090f35b5060203660031901126103b3576004356001600160401b03811161048b573660238201121561048b5760048101356001600160401b0381116109b4576024820191602436918360051b0101116109b4576097546001600160a01b03163303610926575b8015801561091c575b61090d57825b8181106108ee575060cb546001600160a01b0316156108df576106a081612267565b906106ae6040519283611f7e565b8082526106ba81612267565b602083019390601f190136853760c954906106d5838361227e565b60c9558573__$22345123dcf5f39d8c23eeef107f852197$__917f0000000000000000000000000000000000000000000000000000000000000000915b8581106107b9575050505060c954905f1982019182116107a5576040949394519283527fce282076a1439bd4b653b5657c2ab7abea5a48b4572799f57582e79e357b59f760203394a4604051928392602084019060208552518091526040840192915b818110610783575050500390f35b82516001600160a01b0316845285945060209384019390920191600101610775565b634e487b7160e01b86526011600452602486fd5b6107c3818661227e565b6107ce82888561221c565b6107d88233612753565b604051630918575160e11b815290602082806107f986308b6004850161229f565b03818a5af480156108d4578c90610896575b610866925061081d60208301836122c1565b945f5160206134375f395f51905f5261083960608601866122c1565b97909361035d61084c60808901896122c1565b61085960a08b018b6122c1565b9161034460e08d016122f3565b875182101561088257600582901b880160200152600101610712565b634e487b7160e01b8a52603260045260248afd5b506020823d82116108cc575b816108af60209383611f7e565b810103126108c8576108c36108669261228b565b61080b565b8b80fd5b3d91506108a2565b6040513d8e823e3d90fd5b63127629f760e31b8352600483fd5b80610907610248610902600194868861221c565b612253565b0161067e565b637862e95960e01b8352600483fd5b50600a8111610678565b60ca546001600160a01b031680156109a55760206024916040519283809262a743f760e61b82523360048301525afa849181610984575b506109715763955c501b60e01b8452600484fd5b61066f5763955c501b60e01b8352600483fd5b61099e91925060203d602011610475576104668183611f7e565b905f61095d565b63045824e160e51b8452600484fd5b8280fd5b50346103b35760203660031901126103b3576109d2611efa565b6109da612379565b60cc80546001600160a01b039283166001600160a01b0319821681179092559091167fdbf2e72ed7bd92ccbb36e552bb0c1a8df6df7e6a54ab7ddc78720975e93fc88e8380a380f35b50346103b357806003193601126103b35760d0546040516001600160a01b039091168152602090f35b34610aac576020366003190112610aac57610a70610a6b60043561304d565b61219b565b5f604051610a7f602082611f7e565b52610aa8604051610a91602082611f7e565b5f8152604051918291602083526020830190611ebb565b0390f35b5f80fd5b34610aac575f366003190112610aac5760ca546040516001600160a01b039091168152602090f35b34610aac576020366003190112610aac57610af1611efa565b610af9612379565b60cf80546001600160a01b039283166001600160a01b0319821681179092559091167fe871cbdaca3c1bd8efb9eaa48b0acffb2a54d6baac7c7b976a366265838723da5f80a3005b34610aac576080366003190112610aac57610b5a611efa565b610b62611f10565b90606435906044356001600160401b038311610aac57610bb593610b8d610bb0943690600401611ff2565b92610ba0610b9b84336123d1565b61209d565b610bab8383836124a0565b61325a565b612696565b005b34610aac575f366003190112610aac5760cb546040516001600160a01b039091168152602090f35b34610aac576020366003190112610aac57610bf8611efa565b610c00612379565b60cb80546001600160a01b039283166001600160a01b0319821681179092559091167fc8fef5c294d0999b744f1c0123bb9e98e3e739de8245692fde6df4f4625efc505f80a3005b34610aac576040366003190112610aac57610c61611efa565b60243590811515809203610aac576001600160a01b031690338214610cd157335f52606a60205260405f20825f5260205260405f2060ff1981541660ff83161790556040519081527f17307eab39ab6107e8899845ad3d59bd9653f200f220920489ca2b5937696c3160203392a3005b60405162461bcd60e51b815260206004820152601960248201527822a9219b99189d1030b8383937bb32903a379031b0b63632b960391b6044820152606490fd5b34610aac575f366003190112610aac576040515f606654610d3281612010565b8084529060018116908115610db95750600114610d6e575b610aa883610d5a81850382611f7e565b604051918291602083526020830190611ebb565b60665f9081525f5160206133975f395f51905f52939250905b808210610d9f57509091508101602001610d5a610d4a565b919260018160209254838588010152019101909291610d87565b60ff191660208086019190915291151560051b84019091019150610d5a9050610d4a565b34610aac575f366003190112610aac576097546040516001600160a01b039091168152602090f35b34610aac575f366003190112610aac57602060d354604051908152f35b34610aac575f366003190112610aac5760ce546040516001600160a01b039091168152602090f35b34610aac575f366003190112610aac57610e62612379565b609780546001600160a01b031981169091555f906001600160a01b03165f5160206134575f395f51905f528280a3005b34610aac576020366003190112610aac576001600160a01b03610eb3611efa565b168015610ed0575f526068602052602060405f2054604051908152f35b60405162461bcd60e51b815260206004820152602960248201527f4552433732313a2061646472657373207a65726f206973206e6f7420612076616044820152683634b21037bbb732b960b91b6064820152608490fd5b34610aac576020366003190112610aac57610f40611efa565b610f48612379565b60ca80546001600160a01b0319166001600160a01b0392909216919091179055005b34610aac576020366003190112610aac576020610f886004356121e2565b6040516001600160a01b039091168152f35b34610aac576020366003190112610aac57610fb3611efa565b610fbb612379565b60d180546001600160a01b039283166001600160a01b0319821681179092559091167fb36c04cd47dc5ac0f031b7a815757f7883731343f2d3aa6dbd5c33cf369c8e165f80a3005b34610aac575f366003190112610aac577f00000000000000000000000000000000000000000000000000000000000000006001600160a01b0316300361105a5760206040515f5160206134175f395f51905f528152f35b60405162461bcd60e51b815260206004820152603860248201527f555550535570677261646561626c653a206d757374206e6f742062652063616c6044820152771b1959081d1a1c9bdd59da0819195b1959d85d1958d85b1b60421b6064820152608490fd5b34610aac576020366003190112610aac576110d9611efa565b6110e1612379565b60d080546001600160a01b039283166001600160a01b0319821681179092559091167fb7f52c4862981bdf3d41a29cd9077644f7f34833735f8e427c70decedaa006af5f80a3005b6040366003190112610aac5761113d611efa565b6024356001600160401b038111610aac5761115c903690600401611ff2565b6111b37f00000000000000000000000000000000000000000000000000000000000000006001600160a01b0316611195308214156120ff565b5f5160206134175f395f51905f52546001600160a01b03161461214d565b6111bb612379565b5f5160206133d75f395f51905f525460ff16156111dc5750610bb5906130da565b6040516352d1902d60e01b81526001600160a01b03831690602081600481855afa5f9181611330575b506112535760405162461bcd60e51b815260206004820152602e60248201525f5160206134f75f395f51905f5260448201526d6f6e206973206e6f74205555505360901b6064820152608490fd5b5f5160206134175f395f51905f52036112ec5761126f836130da565b5f5160206134775f395f51905f525f80a28051158015906112e4575b61129157005b610bb5915f80604051936112a6606086611f7e565b602785525f5160206134d75f395f51905f526020860152660819985a5b195960ca1b6040860152602081519101845af46112de612048565b916132fd565b50600161128b565b60405162461bcd60e51b815260206004820152602960248201525f5160206134b75f395f51905f526044820152681a58589b195555525160ba1b6064820152608490fd5b9091506020813d60201161135c575b8161134c60209383611f7e565b81010312610aac57519085611205565b3d915061133f565b34610aac576020366003190112610aac5761137d611efa565b611385612379565b60cd80546001600160a01b039283166001600160a01b0319821681179092559091167f8240dda544eb8ec4199e2248ad32f0b0962089fa82835994e8291bd75b5a663a5f80a3005b34610aac576040366003190112610aac576113e6611efa565b6113ee611f10565b5f549060ff8260081c1615918280936117d1575b80156117ba575b1561175e5760ff1981166001175f558261174d575b50604092835161142e8582611f7e565b601281527123b932b2b71023b7b7b2399023b0b93232b760711b602082015284519061145a8683611f7e565b600382526247474760e81b602083015261148360ff5f5460081c1661147e816125ae565b6125ae565b8051906001600160401b03821161166d5781906114a1606554612010565b601f81116116f2575b50602090601f831160011461168c575f92611681575b50508160011b915f199060031b1c1916176065555b8051906001600160401b03821161166d576114f1606654612010565b601f811161161d575b50602090601f83116001146115b45761154e9392915f91836115a9575b50508160011b915f199060031b1c1916176066555b61154060ff5f5460081c1661147e816125ae565b6115493361260e565b61260e565b60ca80546001600160a01b0319166001600160a01b039290921691909117905561157457005b60207f7f26b83ff96e1f2b6a682f133852f6798a09c465da95921460cefb38474024989161ff00195f54165f555160018152a1005b015190508780611517565b90601f1983169160665f52815f20925f5b818110611605575091600193918561154e979694106115ed575b505050811b0160665561152c565b01515f1960f88460031b161c191690558780806115df565b929360206001819287860151815501950193016115c5565b60665f525f5160206133975f395f51905f52601f840160051c81019160208510611663575b601f0160051c01905b81811061165857506114fa565b5f815560010161164b565b9091508190611642565b634e487b7160e01b5f52604160045260245ffd5b0151905087806114c0565b60655f9081528281209350601f198516905b8181106116da57509084600195949392106116c2575b505050811b016065556114d5565b01515f1960f88460031b161c191690558780806116b4565b9293602060018192878601518155019501930161169e565b60655f529091505f5160206133b75f395f51905f52601f840160051c81019160208510611743575b90601f859493920160051c01905b81811061173557506114aa565b5f8155849350600101611728565b909150819061171a565b61ffff1916610101175f558361141e565b60405162461bcd60e51b815260206004820152602e60248201527f496e697469616c697a61626c653a20636f6e747261637420697320616c72656160448201526d191e481a5b9a5d1a585b1a5e995960921b6064820152608490fd5b50303b1580156114095750600160ff821614611409565b50600160ff821610611402565b34610aac575f366003190112610aac57602060ff60d454166040519061180381611f60565b8152f35b34610aac57610bb5610bb061181b36611f26565b906040519261182b602085611f7e565b5f8452610ba0610b9b84336123d1565b34610aac575f366003190112610aac5760cc546040516001600160a01b039091168152602090f35b34610aac576020366003190112610aac576001600160a01b03611884611efa565b165f5260d2602052602060405f2054604051908152f35b34610aac576020366003190112610aac576118b4611efa565b6118ed7f00000000000000000000000000000000000000000000000000000000000000006001600160a01b0316611195308214156120ff565b6118f5612379565b6040519060206119058184611f7e565b5f8352808301601f1982013682375f5160206133d75f395f51905f525460ff1615611936575050610bb591506130da565b6040516352d1902d60e01b81529192916001600160a01b038316908481600481855afa5f9181611a80575b506119af5760405162461bcd60e51b815260048101869052602e60248201525f5160206134f75f395f51905f5260448201526d6f6e206973206e6f74205555505360901b6064820152608490fd5b5f5160206134175f395f51905f5203611a3c576119cb836130da565b5f5160206134775f395f51905f525f80a2835115801590611a35575b6119ed57005b5f8091610bb5955f5160206134d75f395f51905f5260405196611a11606089611f7e565b60278852870152660819985a5b195960ca1b60408701525190845af46112de612048565b505f6119e7565b60405162461bcd60e51b815260048101859052602960248201525f5160206134b75f395f51905f526044820152681a58589b195555525160ba1b6064820152608490fd5b9091508581813d8311611aa8575b611a988183611f7e565b81010312610aac57519087611961565b503d611a8e565b34610aac575f366003190112610aac5760cd546040516001600160a01b039091168152602090f35b34610aac57610bb5611ae836611f26565b91611af6610b9b84336123d1565b6124a0565b34610aac575f366003190112610aac5760d1546040516001600160a01b039091168152602090f35b34610aac576020366003190112610aac576004356003811015610aac57611b48612379565b611b5181611f60565b60ff801960d4541691161760d4555f80f35b34610aac576040366003190112610aac57611b7c611efa565b602435906001600160a01b03611b91836121e2565b6001600160a01b039092169116818114611c9a57803314908115611c76575b5015611c0b575f82815260696020526040902080546001600160a01b031916821790556001600160a01b03611be4836121e2565b167f8c5be1e5ebec7d5bd14f71427d1e84f3dd0314c0f7b2291e5b200ac8c7c3b9255f80a4005b60405162461bcd60e51b815260206004820152603d60248201527f4552433732313a20617070726f76652063616c6c6572206973206e6f7420746f60448201527f6b656e206f776e6572206f7220617070726f76656420666f7220616c6c0000006064820152608490fd5b5f908152606a6020908152604080832033845290915290205460ff16905083611bb0565b60405162461bcd60e51b815260206004820152602160248201527f4552433732313a20617070726f76616c20746f2063757272656e74206f776e656044820152603960f91b6064820152608490fd5b34610aac576020366003190112610aac576020610f88600435612077565b34610aac575f366003190112610aac57335f5260d260205260405f20548015611daf57335f5260d26020525f604081205560d354818103908111611d9b5760d3555f80808084335af1611d58612048565b5015611d8c576040519081527feaae3580fc1599b690a022f523f9929eab9fa49f77d801604a0e983f7cc28c3760203392a2005b631900993960e31b5f5260045ffd5b634e487b7160e01b5f52601160045260245ffd5b63266ce5cb60e11b5f5260045ffd5b34610aac575f366003190112610aac576040515f606554611dde81612010565b8084529060018116908115610db95750600114611e0557610aa883610d5a81850382611f7e565b60655f9081525f5160206133b75f395f51905f52939250905b808210611e3657509091508101602001610d5a610d4a565b919260018160209254838588010152019101909291611e1e565b34610aac576020366003190112610aac576004359063ffffffff60e01b8216809203610aac576020916380ac58cd60e01b8114908115611eaa575b8115611e99575b5015158152f35b6301ffc9a760e01b14905083611e92565b635b5e139f60e01b81149150611e8b565b91908251928382525f5b848110611ee5575050825f602080949584010152601f8019910116010190565b80602080928401015182828601015201611ec5565b600435906001600160a01b0382168203610aac57565b602435906001600160a01b0382168203610aac57565b6060906003190112610aac576004356001600160a01b0381168103610aac57906024356001600160a01b0381168103610aac579060443590565b60031115611f6a57565b634e487b7160e01b5f52602160045260245ffd5b601f909101601f19168101906001600160401b0382119082101761166d57604052565b6001600160401b03811161166d57601f01601f191660200190565b929192611fc882611fa1565b91611fd66040519384611f7e565b829481845281830111610aac578281602093845f960137010152565b9080601f83011215610aac5781602061200d93359101611fbc565b90565b90600182811c9216801561203e575b602083101461202a57565b634e487b7160e01b5f52602260045260245ffd5b91607f169161201f565b3d15612072573d9061205982611fa1565b916120676040519384611f7e565b82523d5f602084013e565b606090565b612083610a6b8261304d565b5f908152606960205260409020546001600160a01b031690565b156120a457565b60405162461bcd60e51b815260206004820152602d60248201527f4552433732313a2063616c6c6572206973206e6f7420746f6b656e206f776e6560448201526c1c881bdc88185c1c1c9bdd9959609a1b6064820152608490fd5b1561210657565b60405162461bcd60e51b815260206004820152602c60248201525f5160206133f75f395f51905f5260448201526b19195b1959d85d1958d85b1b60a21b6064820152608490fd5b1561215457565b60405162461bcd60e51b815260206004820152602c60248201525f5160206133f75f395f51905f5260448201526b6163746976652070726f787960a01b6064820152608490fd5b156121a257565b60405162461bcd60e51b8152602060048201526018602482015277115490cdcc8c4e881a5b9d985b1a59081d1bdad95b88125160421b6044820152606490fd5b5f908152606760205260409020546001600160a01b031661200d81151561219b565b90816020910312610aac57518015158103610aac5790565b919081101561223f5760051b8101359061013e1981360301821215610aac570190565b634e487b7160e01b5f52603260045260245ffd5b356001600160a01b0381168103610aac5790565b6001600160401b03811161166d5760051b60200190565b91908201809211611d9b57565b51906001600160a01b0382168203610aac57565b6001600160a01b03918216815291166020820152604081019190915260600190565b903590601e1981360301821215610aac57018035906001600160401b038211610aac57602001918136038313610aac57565b358015158103610aac5790565b908060209392818452848401375f828201840152601f01601f1916010190565b97936123639361235591612347612371999460809b99969d9e9d60a08e8181520191612300565b918b830360208d0152612300565b9188830360408a0152612300565b918583036060870152612300565b931515910152565b6097546001600160a01b0316330361238d57565b606460405162461bcd60e51b815260206004820152602060248201527f4f776e61626c653a2063616c6c6572206973206e6f7420746865206f776e65726044820152fd5b906001600160a01b036123e3826121e2565b6001600160a01b0390931692168281149291908315612423575b50821561240957505090565b9091506001600160a01b039061241e90612077565b161490565b9092505f52606a60205260405f20815f5260205260ff60405f205416915f6123fd565b1561244d57565b60405162461bcd60e51b815260206004820152602560248201527f4552433732313a207472616e736665722066726f6d20696e636f72726563742060448201526437bbb732b960d91b6064820152608490fd5b906124aa836121e2565b6001600160a01b0383811692916124c391168314612446565b6001600160a01b031691821561255d576124dc90613069565b6124f8816001600160a01b036124f1866121e2565b1614612446565b5f83815260696020908152604080832080546001600160a01b03199081169091558484526068835281842080545f1901905585845281842080546001019055868452606790925282208054909116841790555f5160206134975f395f51905f529080a4565b60405162461bcd60e51b8152602060048201526024808201527f4552433732313a207472616e7366657220746f20746865207a65726f206164646044820152637265737360e01b6064820152608490fd5b156125b557565b60405162461bcd60e51b815260206004820152602b60248201527f496e697469616c697a61626c653a20636f6e7472616374206973206e6f74206960448201526a6e697469616c697a696e6760a81b6064820152608490fd5b609780546001600160a01b039283166001600160a01b0319821681179092559091165f5160206134575f395f51905f525f80a3565b60809060208152603260208201527f4552433732313a207472616e7366657220746f206e6f6e20455243373231526560408201527131b2b4bb32b91034b6b83632b6b2b73a32b960711b60608201520190565b1561269d57565b60405162461bcd60e51b8152806126b660048201612643565b0390fd5b6001600160a01b038116908115612744573b15612735576020600491604051928380926318160ddd60e01b82525afa9081612706575b50612704576326412d8960e21b5f5260045ffd5b565b6020813d60201161272d575b8161271f60209383611f7e565b81010312610aac57516126f0565b3d9150612712565b63d0acc0d360e01b5f5260045ffd5b631a747e4f60e31b5f5260045ffd5b604051919060206127648185611f7e565b5f84526001600160a01b0382169081156127e8579183809260676127049795612798612792610bb09961304d565b156132b2565b6127a46127928561304d565b5f838152606882526040808220805460010190558582529290915290812080546001600160a01b031916831790555f5160206134975f395f51905f528180a461316a565b6064906040519062461bcd60e51b825280600483015260248201527f4552433732313a206d696e7420746f20746865207a65726f20616464726573736044820152fd5b9080601f83011215610aac57815161284281612267565b926128506040519485611f7e565b81845260208085019260051b820101928311610aac57602001905b8282106128785750505090565b602080916128858461228b565b81520191019061286b565b90602082820312610aac5781516001600160401b038111610aac5761200d920161282b565b3560ff81168103610aac5790565b60cb5492915f91602080830191906129226128de84866122c1565b98905f6128ea88612253565b6040516360fac62560e01b81526001600160a01b0390971660048801819052606060248901529b879586948593926064850191612300565b6001600160a01b0391821660448401529190910393165af180156130135761301e575b5060cb546001600160a01b0316803b15610aac575f8091606460405180948193633868e7e560e01b83528b6004840152336024840152600360448401525af1801561301357612ffe575b5060cc546001600160a01b031680612f13575b5060cd546001600160a01b03168381612eaf575b505060ce546001600160a01b031680612e21575b5060d05483906001600160a01b031680612dd8575b5050610120820160ff6129f1826128b5565b16151580612dc4575b612d5a575b5060d1546001600160a01b031680151580612d43575b612c61575b50612a2e612a2783612253565b91836122c1565b95909160e0612a4060408601866122c1565b919095612a5060608201826122c1565b969097612a6060808401846122c1565b999091612a7060a08601866122c1565b979094612a8c612a8360c08901896122c1565b999098016122f3565b9f6040519a6101008c018c811060018060401b03821117612c4b576040526001600160a01b03168b528a999897612b2b979096612b1c969195612b0d959194612afe94612aef9391602091612ae391369190611fbc565b9f019e8f523691611fbc565b9d60408c019e8f523691611fbc565b9c60608a019d8e523691611fbc565b95608088019687523691611fbc565b9260a086019384523691611fbc565b9160c0840192835260e084019a15158b52853b15612c4757604051630bc4241b60e01b81526020600482015293516001600160a01b03166024850152935161010060448501529899979892978997899788968a968896949593919290612b9690610124890190611ebb565b9051878203602319016064890152612bae9190611ebb565b9051868203602319016084880152612bc69190611ebb565b90518582036023190160a4870152612bde9190611ebb565b90518482036023190160c4860152612bf69190611ebb565b90518382036023190160e4850152612c0e9190611ebb565b9051151561010483015203925af18015612c3c57612c2a575050565b612c35828092611f7e565b6103b35750565b6040513d84823e3d90fd5b8880fd5b5050634e487b7160e01b8f52604160045260248ffd5b612c6e60408401846122c1565b8291923b15612d3f57612ca3928692839260405180968194829363640ebb9560e01b8452604060048501526044840191612300565b8c6024830152039134905af19182612d26575b5050612d215734612cc8575b5f612a1a565b33835260d260205260408320612cdf34825461227e565b9055612ced3460d35461227e565b60d3556040513481527fa3e6a8143b6c196b4feb3553d44f77ed575f89d679d7a410b07eb4aeaf973e1660203392a2612cc2565b612cc2565b81612d3091611f7e565b612d3b57835f612cb6565b8380fd5b8580fd5b50612d5160408401846122c1565b90501515612a15565b60cf546001600160a01b031690612d70906128b5565b90803b15612dc0578480926044898360ff956040519687958694628a782f60e81b865260048601521660248401525af1612dab575b506129ff565b81612db591611f7e565b6109b457825f612da5565b8480fd5b5060cf546001600160a01b031615156129fa565b8190602460405180948193634450925160e01b83528b60048401525af1612e01575b83906129df565b612e1c903d8086833e612e148183611f7e565b810190612890565b612dfa565b6101008301356003811015612dc05784916044839260405194859384926324e2cb2b60e11b84528c6004850152612e5781611f60565b60248401525af1156129ca573d8085833e612e728183611f7e565b810190604081830312612dc057612e888161228b565b506020810151906001600160401b038211612d3f57612ea892910161282b565b505f6129ca565b612eec91612ebd84866122c1565b838a604094939451968795869485936343d2636360e11b85526004850152604060248501526044840191612300565b03925af1612efb575b836129b6565b612f0e903d8086833e612e148183611f7e565b612ef5565b612f1d82846122c1565b90919087612f2e60608701876122c1565b90612f3c60808901896122c1565b612f4960a08b018b6122c1565b939094604051998a988998638ae4d28160e01b8a5260048a01523360248a01526044890160c0905260c4890190612f7f92612300565b90600319888303016064890152612f9592612300565b90600319868303016084870152612fab92612300565b906003198483030160a4850152612fc192612300565b0381875a94602095f1156129a2576020813d602011612ff6575b81612fe860209383611f7e565b81010312610aac57516129a2565b3d9150612fdb565b61300b9193505f90611f7e565b5f915f61298f565b6040513d5f823e3d90fd5b6020813d602011613045575b8161303760209383611f7e565b81010312610aac5751612945565b3d915061302a565b5f908152606760205260409020546001600160a01b0316151590565b6001600160a01b0316156127045760ff60d4541661308681611f60565b600281146130cb5760019061309a81611f60565b14806130b6575b6130a757565b637be07bbd60e11b5f5260045ffd5b506097546001600160a01b03163314156130a1565b6336e278fd60e21b5f5260045ffd5b803b1561310f575f5160206134175f395f51905f5280546001600160a01b0319166001600160a01b0392909216919091179055565b60405162461bcd60e51b815260206004820152602d60248201527f455243313936373a206e657720696d706c656d656e746174696f6e206973206e60448201526c1bdd08184818dbdb9d1c9858dd609a1b6064820152608490fd5b91823b15613252576131af926020925f604051809681958294630a85bd0160e11b84523360048501528460248501526044840152608060648401526084830190611ebb565b03926001600160a01b03165af15f918161320d575b506131f7576131d1612048565b805190816131f25760405162461bcd60e51b8152806126b660048201612643565b602001fd5b6001600160e01b031916630a85bd0160e11b1490565b9091506020813d60201161324a575b8161322960209383611f7e565b81010312610aac57516001600160e01b031981168103610aac57905f6131c4565b3d915061321c565b505050600190565b919290803b156132a9576131af935f60209460405196879586948593630a85bd0160e11b855233600486015260018060a01b031660248501526044840152608060648401526084830190611ebb565b50505050600190565b156132b957565b60405162461bcd60e51b815260206004820152601c60248201527b115490cdcc8c4e881d1bdad95b88185b1c9958591e481b5a5b9d195960221b6044820152606490fd5b9192901561335f5750815115613311575090565b3b1561331a5790565b60405162461bcd60e51b815260206004820152601d60248201527f416464726573733a2063616c6c20746f206e6f6e2d636f6e74726163740000006044820152606490fd5b8251909150156133725750805190602001fd5b60405162461bcd60e51b8152602060048201529081906126b6906024830190611ebb56fe46501879b8ca8525e8c2fd519e2fbfcfa2ebea26501294aa02cbfcfb12e943548ff97419363ffd7000167f130ef7168fbea05faf9251824ca5043f113cc6a7c74910fdfa16fed3260ed0e7147f7cc6da11a60208b5b9406d12a635614ffd914346756e6374696f6e206d7573742062652063616c6c6564207468726f75676820360894a13ba1a3210667c828492db98dca3e2076cc3735a920a3ca505d382bbcd9622e038d73e9b439c5fda047b4a8ec1f5e41816b766fcdd534c56fc90704278be0079c531659141344cd1fd0a4f28419497f9722a3daafe3b4186f6b6457e0bc7cd75a20ee27fd9adebab32041f755214dbc6bffa90cc0225b39da2e5c2d3bddf252ad1be2c89b69c2b068fc378daa952ba7f163c4a11628f55a4df523b3ef45524331393637557067726164653a20756e737570706f727465642070726f78416464726573733a206c6f772d6c6576656c2064656c65676174652063616c6c45524331393637557067726164653a206e657720696d706c656d656e74617469a164736f6c634300081c000a","linkReferences":{"src/lib/TBA.sol":{"TBALib":[{"start":1034,"length":20},{"start":2087,"length":20}]}}},"methodIdentifiers":{"actionRegistry()":"e4e39678","approve(address,uint256)":"095ea7b3","balanceOf(address)":"70a08231","batchMintGardens((address,string,string,string,string,string,string,bool,uint8,uint8)[])":"e4ccb551","claimENSRefund()":"077fe4c9","cookieJarModule()":"d25d4652","deploymentRegistry()":"c6631092","ensModule()":"191d7719","failedENSRefunds(address)":"3b30eb72","gardensModule()":"72a0d6ad","getApproved(uint256)":"081812fc","hatsModule()":"b4a9c607","initialize(address,address)":"485cc955","isApprovedForAll(address,address)":"e985e9c5","karmaGAPModule()":"4026d762","mintGarden((address,string,string,string,string,string,string,bool,uint8,uint8))":"f66b1486","name()":"06fdde03","octantModule()":"266f8652","owner()":"8da5cb5b","ownerOf(uint256)":"6352211e","proxiableUUID()":"52d1902d","renounceOwnership()":"715018a6","safeTransferFrom(address,address,uint256)":"42842e0e","safeTransferFrom(address,address,uint256,bytes)":"b88d4fde","setActionRegistry(address)":"ba06c176","setApprovalForAll(address,bool)":"a22cb465","setCookieJarModule(address)":"516b87d9","setDeployment(address)":"6c16ad35","setENSModule(address)":"57c6e6a4","setGardensModule(address)":"e7efdb26","setHatsModule(address)":"adcb9221","setKarmaGAPModule(address)":"d9e4aaee","setOctantModule(address)":"4c528446","setTransferRestriction(uint8)":"117ad57a","supportsInterface(bytes4)":"01ffc9a7","symbol()":"95d89b41","tokenURI(uint256)":"c87b56dd","totalPendingENSRefunds()":"83930c23","transferFrom(address,address,uint256)":"23b872dd","transferOwnership(address)":"f2fde38b","transferRestriction()":"461d338c","upgradeTo(address)":"3659cfe6","upgradeToAndCall(address,bytes)":"4f1ef286"},"id":191}