{"abi":[{"type":"constructor","inputs":[{"name":"erc4337EntryPoint","type":"address","internalType":"address"},{"name":"multicallForwarder","type":"address","internalType":"address"},{"name":"erc6551Registry","type":"address","internalType":"address"},{"name":"guardian","type":"address","internalType":"address"},{"name":"workApprovalResolver","type":"address","internalType":"address"},{"name":"assessmentResolver","type":"address","internalType":"address"}],"stateMutability":"nonpayable"},{"type":"fallback","stateMutability":"payable"},{"type":"receive","stateMutability":"payable"},{"type":"function","name":"ASSESSMENT_RESOLVER","inputs":[],"outputs":[{"name":"","type":"address","internalType":"address"}],"stateMutability":"view"},{"type":"function","name":"WORK_APPROVAL_RESOLVER","inputs":[],"outputs":[{"name":"","type":"address","internalType":"address"}],"stateMutability":"view"},{"type":"function","name":"bannerImage","inputs":[],"outputs":[{"name":"","type":"string","internalType":"string"}],"stateMutability":"view"},{"type":"function","name":"communityToken","inputs":[],"outputs":[{"name":"","type":"address","internalType":"address"}],"stateMutability":"view"},{"type":"function","name":"description","inputs":[],"outputs":[{"name":"","type":"string","internalType":"string"}],"stateMutability":"view"},{"type":"function","name":"entryPoint","inputs":[],"outputs":[{"name":"","type":"address","internalType":"contract IEntryPoint"}],"stateMutability":"view"},{"type":"function","name":"erc6551Registry","inputs":[],"outputs":[{"name":"","type":"address","internalType":"address"}],"stateMutability":"view"},{"type":"function","name":"execute","inputs":[{"name":"to","type":"address","internalType":"address"},{"name":"value","type":"uint256","internalType":"uint256"},{"name":"data","type":"bytes","internalType":"bytes"},{"name":"operation","type":"uint8","internalType":"uint8"}],"outputs":[{"name":"","type":"bytes","internalType":"bytes"}],"stateMutability":"payable"},{"type":"function","name":"executeBatch","inputs":[{"name":"operations","type":"tuple[]","internalType":"struct BatchExecutor.Operation[]","components":[{"name":"to","type":"address","internalType":"address"},{"name":"value","type":"uint256","internalType":"uint256"},{"name":"data","type":"bytes","internalType":"bytes"},{"name":"operation","type":"uint8","internalType":"uint8"}]}],"outputs":[{"name":"","type":"bytes[]","internalType":"bytes[]"}],"stateMutability":"payable"},{"type":"function","name":"executeNested","inputs":[{"name":"to","type":"address","internalType":"address"},{"name":"value","type":"uint256","internalType":"uint256"},{"name":"data","type":"bytes","internalType":"bytes"},{"name":"operation","type":"uint8","internalType":"uint8"},{"name":"proof","type":"tuple[]","internalType":"struct NestedAccountExecutor.ERC6551AccountInfo[]","components":[{"name":"salt","type":"bytes32","internalType":"bytes32"},{"name":"tokenContract","type":"address","internalType":"address"},{"name":"tokenId","type":"uint256","internalType":"uint256"}]}],"outputs":[{"name":"","type":"bytes","internalType":"bytes"}],"stateMutability":"payable"},{"type":"function","name":"extcall","inputs":[{"name":"to","type":"address","internalType":"address"},{"name":"value","type":"uint256","internalType":"uint256"},{"name":"data","type":"bytes","internalType":"bytes"}],"outputs":[{"name":"result","type":"bytes","internalType":"bytes"}],"stateMutability":"nonpayable"},{"type":"function","name":"extcreate","inputs":[{"name":"value","type":"uint256","internalType":"uint256"},{"name":"bytecode","type":"bytes","internalType":"bytes"}],"outputs":[{"name":"","type":"address","internalType":"address"}],"stateMutability":"nonpayable"},{"type":"function","name":"extcreate2","inputs":[{"name":"value","type":"uint256","internalType":"uint256"},{"name":"salt","type":"bytes32","internalType":"bytes32"},{"name":"bytecode","type":"bytes","internalType":"bytes"}],"outputs":[{"name":"","type":"address","internalType":"address"}],"stateMutability":"nonpayable"},{"type":"function","name":"extsload","inputs":[{"name":"slot","type":"bytes32","internalType":"bytes32"}],"outputs":[{"name":"value","type":"bytes32","internalType":"bytes32"}],"stateMutability":"view"},{"type":"function","name":"gapProjectUID","inputs":[],"outputs":[{"name":"","type":"bytes32","internalType":"bytes32"}],"stateMutability":"view"},{"type":"function","name":"getGAPProjectUID","inputs":[],"outputs":[{"name":"","type":"bytes32","internalType":"bytes32"}],"stateMutability":"view"},{"type":"function","name":"getNonce","inputs":[],"outputs":[{"name":"","type":"uint256","internalType":"uint256"}],"stateMutability":"view"},{"type":"function","name":"initialize","inputs":[{"name":"params","type":"tuple","internalType":"struct IGardenAccount.InitParams","components":[{"name":"communityToken","type":"address","internalType":"address"},{"name":"name","type":"string","internalType":"string"},{"name":"description","type":"string","internalType":"string"},{"name":"location","type":"string","internalType":"string"},{"name":"bannerImage","type":"string","internalType":"string"},{"name":"metadata","type":"string","internalType":"string"},{"name":"openJoining","type":"bool","internalType":"bool"}]}],"outputs":[],"stateMutability":"nonpayable"},{"type":"function","name":"isCommunity","inputs":[{"name":"account","type":"address","internalType":"address"}],"outputs":[{"name":"","type":"bool","internalType":"bool"}],"stateMutability":"view"},{"type":"function","name":"isEvaluator","inputs":[{"name":"account","type":"address","internalType":"address"}],"outputs":[{"name":"","type":"bool","internalType":"bool"}],"stateMutability":"view"},{"type":"function","name":"isFunder","inputs":[{"name":"account","type":"address","internalType":"address"}],"outputs":[{"name":"","type":"bool","internalType":"bool"}],"stateMutability":"view"},{"type":"function","name":"isGardener","inputs":[{"name":"account","type":"address","internalType":"address"}],"outputs":[{"name":"","type":"bool","internalType":"bool"}],"stateMutability":"view"},{"type":"function","name":"isLocked","inputs":[],"outputs":[{"name":"","type":"bool","internalType":"bool"}],"stateMutability":"view"},{"type":"function","name":"isOperator","inputs":[{"name":"account","type":"address","internalType":"address"}],"outputs":[{"name":"","type":"bool","internalType":"bool"}],"stateMutability":"view"},{"type":"function","name":"isOwner","inputs":[{"name":"account","type":"address","internalType":"address"}],"outputs":[{"name":"","type":"bool","internalType":"bool"}],"stateMutability":"view"},{"type":"function","name":"isTrustedForwarder","inputs":[{"name":"forwarder","type":"address","internalType":"address"}],"outputs":[{"name":"","type":"bool","internalType":"bool"}],"stateMutability":"view"},{"type":"function","name":"isValidSignature","inputs":[{"name":"hash","type":"bytes32","internalType":"bytes32"},{"name":"signature","type":"bytes","internalType":"bytes"}],"outputs":[{"name":"magicValue","type":"bytes4","internalType":"bytes4"}],"stateMutability":"view"},{"type":"function","name":"isValidSigner","inputs":[{"name":"signer","type":"address","internalType":"address"},{"name":"data","type":"bytes","internalType":"bytes"}],"outputs":[{"name":"magicValue","type":"bytes4","internalType":"bytes4"}],"stateMutability":"view"},{"type":"function","name":"joinGarden","inputs":[],"outputs":[],"stateMutability":"nonpayable"},{"type":"function","name":"location","inputs":[],"outputs":[{"name":"","type":"string","internalType":"string"}],"stateMutability":"view"},{"type":"function","name":"lock","inputs":[{"name":"_lockedUntil","type":"uint256","internalType":"uint256"}],"outputs":[],"stateMutability":"nonpayable"},{"type":"function","name":"lockedUntil","inputs":[],"outputs":[{"name":"","type":"uint256","internalType":"uint256"}],"stateMutability":"view"},{"type":"function","name":"metadata","inputs":[],"outputs":[{"name":"","type":"string","internalType":"string"}],"stateMutability":"view"},{"type":"function","name":"name","inputs":[],"outputs":[{"name":"","type":"string","internalType":"string"}],"stateMutability":"view"},{"type":"function","name":"onERC1155BatchReceived","inputs":[{"name":"","type":"address","internalType":"address"},{"name":"","type":"address","internalType":"address"},{"name":"","type":"uint256[]","internalType":"uint256[]"},{"name":"","type":"uint256[]","internalType":"uint256[]"},{"name":"","type":"bytes","internalType":"bytes"}],"outputs":[{"name":"","type":"bytes4","internalType":"bytes4"}],"stateMutability":"nonpayable"},{"type":"function","name":"onERC1155Received","inputs":[{"name":"","type":"address","internalType":"address"},{"name":"","type":"address","internalType":"address"},{"name":"","type":"uint256","internalType":"uint256"},{"name":"","type":"uint256","internalType":"uint256"},{"name":"","type":"bytes","internalType":"bytes"}],"outputs":[{"name":"","type":"bytes4","internalType":"bytes4"}],"stateMutability":"nonpayable"},{"type":"function","name":"onERC721Received","inputs":[{"name":"","type":"address","internalType":"address"},{"name":"","type":"address","internalType":"address"},{"name":"tokenId","type":"uint256","internalType":"uint256"},{"name":"","type":"bytes","internalType":"bytes"}],"outputs":[{"name":"","type":"bytes4","internalType":"bytes4"}],"stateMutability":"nonpayable"},{"type":"function","name":"openJoining","inputs":[],"outputs":[{"name":"","type":"bool","internalType":"bool"}],"stateMutability":"view"},{"type":"function","name":"overrides","inputs":[{"name":"","type":"address","internalType":"address"},{"name":"","type":"bytes4","internalType":"bytes4"}],"outputs":[{"name":"","type":"address","internalType":"address"}],"stateMutability":"view"},{"type":"function","name":"owner","inputs":[],"outputs":[{"name":"","type":"address","internalType":"address"}],"stateMutability":"view"},{"type":"function","name":"permissions","inputs":[{"name":"","type":"address","internalType":"address"},{"name":"","type":"address","internalType":"address"}],"outputs":[{"name":"","type":"bool","internalType":"bool"}],"stateMutability":"view"},{"type":"function","name":"proxiableUUID","inputs":[],"outputs":[{"name":"","type":"bytes32","internalType":"bytes32"}],"stateMutability":"view"},{"type":"function","name":"setOpenJoining","inputs":[{"name":"_openJoining","type":"bool","internalType":"bool"}],"outputs":[],"stateMutability":"nonpayable"},{"type":"function","name":"setOverrides","inputs":[{"name":"selectors","type":"bytes4[]","internalType":"bytes4[]"},{"name":"implementations","type":"address[]","internalType":"address[]"}],"outputs":[],"stateMutability":"nonpayable"},{"type":"function","name":"setPermissions","inputs":[{"name":"callers","type":"address[]","internalType":"address[]"},{"name":"_permissions","type":"bool[]","internalType":"bool[]"}],"outputs":[],"stateMutability":"nonpayable"},{"type":"function","name":"state","inputs":[],"outputs":[{"name":"","type":"uint256","internalType":"uint256"}],"stateMutability":"view"},{"type":"function","name":"supportsInterface","inputs":[{"name":"interfaceId","type":"bytes4","internalType":"bytes4"}],"outputs":[{"name":"","type":"bool","internalType":"bool"}],"stateMutability":"view"},{"type":"function","name":"token","inputs":[],"outputs":[{"name":"chainId","type":"uint256","internalType":"uint256"},{"name":"tokenContract","type":"address","internalType":"address"},{"name":"tokenId","type":"uint256","internalType":"uint256"}],"stateMutability":"view"},{"type":"function","name":"updateDescription","inputs":[{"name":"_description","type":"string","internalType":"string"}],"outputs":[],"stateMutability":"nonpayable"},{"type":"function","name":"updateName","inputs":[{"name":"_name","type":"string","internalType":"string"}],"outputs":[],"stateMutability":"nonpayable"},{"type":"function","name":"upgradeTo","inputs":[{"name":"newImplementation","type":"address","internalType":"address"}],"outputs":[],"stateMutability":"nonpayable"},{"type":"function","name":"upgradeToAndCall","inputs":[{"name":"newImplementation","type":"address","internalType":"address"},{"name":"data","type":"bytes","internalType":"bytes"}],"outputs":[],"stateMutability":"payable"},{"type":"function","name":"validateUserOp","inputs":[{"name":"userOp","type":"tuple","internalType":"struct UserOperation","components":[{"name":"sender","type":"address","internalType":"address"},{"name":"nonce","type":"uint256","internalType":"uint256"},{"name":"initCode","type":"bytes","internalType":"bytes"},{"name":"callData","type":"bytes","internalType":"bytes"},{"name":"callGasLimit","type":"uint256","internalType":"uint256"},{"name":"verificationGasLimit","type":"uint256","internalType":"uint256"},{"name":"preVerificationGas","type":"uint256","internalType":"uint256"},{"name":"maxFeePerGas","type":"uint256","internalType":"uint256"},{"name":"maxPriorityFeePerGas","type":"uint256","internalType":"uint256"},{"name":"paymasterAndData","type":"bytes","internalType":"bytes"},{"name":"signature","type":"bytes","internalType":"bytes"}]},{"name":"userOpHash","type":"bytes32","internalType":"bytes32"},{"name":"missingAccountFunds","type":"uint256","internalType":"uint256"}],"outputs":[{"name":"validationData","type":"uint256","internalType":"uint256"}],"stateMutability":"nonpayable"},{"type":"event","name":"AdminChanged","inputs":[{"name":"previousAdmin","type":"address","indexed":false,"internalType":"address"},{"name":"newAdmin","type":"address","indexed":false,"internalType":"address"}],"anonymous":false},{"type":"event","name":"BannerImageUpdated","inputs":[{"name":"updater","type":"address","indexed":true,"internalType":"address"},{"name":"newBannerImage","type":"string","indexed":false,"internalType":"string"}],"anonymous":false},{"type":"event","name":"BeaconUpgraded","inputs":[{"name":"beacon","type":"address","indexed":true,"internalType":"address"}],"anonymous":false},{"type":"event","name":"CommunityTokenUpdated","inputs":[{"name":"updater","type":"address","indexed":true,"internalType":"address"},{"name":"newToken","type":"address","indexed":false,"internalType":"address"}],"anonymous":false},{"type":"event","name":"DescriptionUpdated","inputs":[{"name":"updater","type":"address","indexed":true,"internalType":"address"},{"name":"newDescription","type":"string","indexed":false,"internalType":"string"}],"anonymous":false},{"type":"event","name":"Initialized","inputs":[{"name":"version","type":"uint8","indexed":false,"internalType":"uint8"}],"anonymous":false},{"type":"event","name":"LocationUpdated","inputs":[{"name":"updater","type":"address","indexed":true,"internalType":"address"},{"name":"newLocation","type":"string","indexed":false,"internalType":"string"}],"anonymous":false},{"type":"event","name":"LockUpdated","inputs":[{"name":"lockedUntil","type":"uint256","indexed":false,"internalType":"uint256"}],"anonymous":false},{"type":"event","name":"MetadataUpdated","inputs":[{"name":"updater","type":"address","indexed":true,"internalType":"address"},{"name":"newMetadata","type":"string","indexed":false,"internalType":"string"}],"anonymous":false},{"type":"event","name":"NameUpdated","inputs":[{"name":"updater","type":"address","indexed":true,"internalType":"address"},{"name":"newName","type":"string","indexed":false,"internalType":"string"}],"anonymous":false},{"type":"event","name":"OpenJoiningUpdated","inputs":[{"name":"updater","type":"address","indexed":true,"internalType":"address"},{"name":"openJoining","type":"bool","indexed":false,"internalType":"bool"}],"anonymous":false},{"type":"event","name":"OverrideUpdated","inputs":[{"name":"owner","type":"address","indexed":false,"internalType":"address"},{"name":"selector","type":"bytes4","indexed":false,"internalType":"bytes4"},{"name":"implementation","type":"address","indexed":false,"internalType":"address"}],"anonymous":false},{"type":"event","name":"PermissionUpdated","inputs":[{"name":"owner","type":"address","indexed":false,"internalType":"address"},{"name":"caller","type":"address","indexed":false,"internalType":"address"},{"name":"hasPermission","type":"bool","indexed":false,"internalType":"bool"}],"anonymous":false},{"type":"event","name":"Upgraded","inputs":[{"name":"implementation","type":"address","indexed":true,"internalType":"address"}],"anonymous":false},{"type":"error","name":"AccountLocked","inputs":[]},{"type":"error","name":"AlreadyGardener","inputs":[]},{"type":"error","name":"ContractCreationFailed","inputs":[]},{"type":"error","name":"ExceedsMaxLockTime","inputs":[]},{"type":"error","name":"HatsModuleNotAvailable","inputs":[]},{"type":"error","name":"InvalidAccountProof","inputs":[]},{"type":"error","name":"InvalidERC6551Registry","inputs":[]},{"type":"error","name":"InvalidEntryPoint","inputs":[]},{"type":"error","name":"InvalidImplementation","inputs":[]},{"type":"error","name":"InvalidInput","inputs":[]},{"type":"error","name":"InvalidInvite","inputs":[]},{"type":"error","name":"InvalidMulticallForwarder","inputs":[]},{"type":"error","name":"InvalidOperation","inputs":[]},{"type":"error","name":"NotAuthorized","inputs":[]},{"type":"error","name":"NotGardenOperator","inputs":[]},{"type":"error","name":"NotGardenOwner","inputs":[]},{"type":"error","name":"OwnershipCycle","inputs":[]}],"bytecode":{"object":"0x6101803461024857601f61473938819003918201601f1916830191906001600160401b0383118484101761024c578160c092859260409586528339810103126102485761004b82610260565b61005760208401610260565b92610063838201610260565b9161007060608301610260565b9461008960a061008260808601610260565b9401610260565b936001600160a01b039283168015610237576080523060a052828116156102275760c05260e081905281161561021657610100941684526101209230845261014091825261016092835260045460ff8160081c166101c25760ff80821603610188575b5051926144c49485610275863960805185818161105401528181611c2201528181611f7d0152613512015260a0518581816126100152613dbf015260c0518581816105a6015281816126310152613de1015260e05185818161163e01528181613f66015261436f01525184818161362101526138c0015251838181610e10015281816112e4015261156901525182611ee401525181610fef0152f35b60ff90811916176004557f7f26b83ff96e1f2b6a682f133852f6798a09c465da95921460cefb38474024986020825160ff8152a15f6100ec565b815162461bcd60e51b815260206004820152602760248201527f496e697469616c697a61626c653a20636f6e747261637420697320696e697469604482015266616c697a696e6760c81b6064820152608490fd5b835163754c753360e11b8152600490fd5b85516246a29560e81b8152600490fd5b8651632039d3c960e01b8152600490fd5b5f80fd5b634e487b7160e01b5f52604160045260245ffd5b51906001600160a01b03821682036102485756fe60806040526004361015610026575b361561001e5761001c6131cf565b005b61001c6131cf565b5f3560e01c806301ffc9a714610370578063039721b11461036b578063056d5afe1461036657806306fdde03146103615780630959f6a81461035c578063150b7a02146103575780631626ba7e146103525780631b561cf91461034d5780631e2eaeaf146103485780631ea48870146103435780631f9838b51461033e5780631fb1ecf014610339578063291d05481461033457806329aa16171461032f5780632f54bf6e1461032a57806334715fb1146103255780633659cfe614610320578063392f37e91461031b5780633a208f95146103165780633a871cdd1461031157806343629a731461030c57806345a24e3e146103075780634f1ef28614610302578063516f279e146102fd57806351945447146102f8578063523e3260146102f357806352d1902d146102ee578063572b6c05146102e95780636d70f7ae146102e45780637284e416146102df5780637a8f7356146102da57806384da92a7146102d55780638da5cb5b146102d057806394def29d146102cb57806398b7a25a146102c6578063993fa20b146102c1578063a4e2d634146102bc578063b0d691fe146102b7578063b10006a6146102b2578063b709467c146102ad578063bc197c81146102a8578063bcc5cf88146102a3578063c19d93fb1461029e578063ce0617ec14610299578063d087d28814610294578063dd4670641461028f578063e13ff8dd1461028a578063e735b48a14610285578063ee9c605414610280578063f23a6e611461027b578063f7fc57b014610276578063f89b9b93146102765763fc0c546a0361000e576123d9565b6123b7565b612356565b6122ee565b6121a3565b61209b565b611ff3565b611f4c565b611f30565b611f13565b611ecf565b611e2f565b611d68565b611c51565b611c0d565b611bef565b611b86565b611af8565b611a49565b611a2c565b6118bd565b61172b565b611699565b611672565b61161a565b611557565b61150f565b61148b565b6113e6565b6112a3565b611254565b61116e565b61101e565b610fda565b610f35565b610de9565b610d8e565b610d67565b610d3b565b610d19565b610c8c565b610c1d565b610b6d565b610b4e565b610af3565b610aa2565b6109c5565b6107c8565b6106ea565b610591565b610436565b61038b565b6001600160e01b031981160361038757565b5f80fd5b346103875760203660031901126103875760206103b26004356103ad81610375565b612410565b6040519015158152f35b9181601f84011215610387578235916001600160401b038311610387576020808501948460051b01011161038757565b6040600319820112610387576001600160401b03916004358381116103875782610418916004016103bc565b9390939260243591821161038757610432916004016103bc565b9091565b3461038757610444366103ec565b929061045f61045a610454613102565b91613cc5565b613dbc565b6001600160a01b03811680156105755733036105755761047d61315f565b838503610563575f5b84811061048f57005b806104fb6104a86104a36001948a8861251d565b612532565b6001600160a01b0385165f9081526002602052604090206104ea906104d66104d1868c8c61251d565b61253c565b60018060a01b03165f5260205260405f2090565b9060ff801983541691151516179055565b7f394777a58092892d136a90c4bb7e4350c72ac50fba6a0208128677f36527dcf561052a6104d183898961251d565b6105386104a3848b8961251d565b604080516001600160a01b03888116825293909316602084015290151590820152606090a101610486565b60405163b4fa3fb360e01b8152600490fd5b60405163ea8e4eb560e01b8152600490fd5b5f91031261038757565b34610387575f366003190112610387576040517f00000000000000000000000000000000000000000000000000000000000000006001600160a01b03168152602090f35b90600182811c92168015610603575b60208310146105ef57565b634e487b7160e01b5f52602260045260245ffd5b91607f16916105e4565b634e487b7160e01b5f52604160045260245ffd5b6001600160401b03811161063457604052565b61060d565b602081019081106001600160401b0382111761063457604052565b606081019081106001600160401b0382111761063457604052565b90601f801991011681019081106001600160401b0382111761063457604052565b5f5b8381106106a15750505f910152565b8181015183820152602001610692565b906020916106ca81518092818552858086019101610690565b601f01601f1916010190565b9060206106e79281815201906106b1565b90565b34610387575f366003190112610387576040515f60055461070a816105d5565b8084529060209060019081811690811561078d5750600114610747575b610743856107378187038261066f565b604051918291826106d6565b0390f35b60055f90815293505f805160206144588339815191525b83851061077a5750505050810160200161073782610743610727565b805486860184015293820193810161075e565b8695506107439693506020925061073794915060ff191682840152151560051b8201019293610727565b6001600160a01b0381160361038757565b3461038757602080600319360112610387576004356107e6816107b7565b6107fd6107f16133fe565b6001600160a01b031690565b6040516311e3579360e31b81523060048201526001600160a01b038316602482015290929091818380604481015b0381875afa9283156108d6575f9361093a575b5082156108db575b821561085a575b6040518315158152602090f35b60405163f582bceb60e01b81523060048201526001600160a01b0391909116602482015290929091508290829060449082905afa9081156108d657610743925f926108a9575b50505f8061084d565b6108c89250803d106108cf575b6108c0818361066f565b810190612564565b5f806108a0565b503d6108b6565b612579565b604051630e70978b60e21b81523060048201526001600160a01b03821660248201529092508181604481875afa9081156108d6575f9161091d575b5091610846565b6109349150823d84116108cf576108c0818361066f565b5f610916565b610952919350823d84116108cf576108c0818361066f565b915f61083e565b6001600160401b03811161063457601f01601f191660200190565b92919261098082610959565b9161098e604051938461066f565b829481845281830111610387578281602093845f960137010152565b9080601f83011215610387578160206106e793359101610974565b34610387576080366003190112610387576109e16004356107b7565b6109ec6024356107b7565b6064356001600160401b03811161038757610a0b9036906004016109aa565b50610a14613102565b919060018060a01b031633149182610a69575b5081610a5f575b50610a4d57610a3b6131cf565b604051630a85bd0160e11b8152602090f35b60405163b79e3f3f60e01b8152600490fd5b905046145f610a2e565b6044351491505f610a27565b9181601f84011215610387578235916001600160401b038311610387576020838186019501011161038757565b34610387576040366003190112610387576024356001600160401b03811161038757610ae0610ad76020923690600401610a75565b90600435612546565b6040516001600160e01b03199091168152f35b346103875760208060031936011261038757600435610b11816107b7565b610b1c6107f16133fe565b6040516326ba248f60e21b81523060048201526001600160a01b0383166024820152909290918183806044810161082b565b3461038757602036600319011261038757602060043554604051908152f35b3461038757602036600319011261038757610bd66020600435610b8f816107b7565b6001600160a01b03610b9f6133fe565b60405163071f0a6b60e31b81523060048201526001600160a01b039093166024840152919384929190911690829081906044820190565b03915afa80156108d657610743915f91610bfe575b5060405190151581529081906020820190565b610c17915060203d6020116108cf576108c0818361066f565b5f610beb565b3461038757604036600319011261038757602060ff610c75600435610c41816107b7565b60243590610c4e826107b7565b60018060a01b03165f526002845260405f209060018060a01b03165f5260205260405f2090565b54166040519015158152f35b60ff81160361038757565b60a036600319011261038757600435610ca4816107b7565b6001600160401b0360443581811161038757610cc4903690600401610a75565b919092606435610cd381610c81565b60843593838511610387573660238601121561038757846004013593841161038757366024606086028701011161038757610743956024610737960193602435906125a9565b34610387575f36600319011261038757602060ff600c54166040519015158152f35b34610387575f3660031901126103875760045460405160109190911c6001600160a01b03168152602090f35b346103875760203660031901126103875760206103b2600435610d89816107b7565b6137c7565b34610387576060366003190112610387576044356001600160401b03811161038757610dd7610dc36020923690600401610a75565b90610dcc613843565b60243560043561385d565b6040516001600160a01b039091168152f35b3461038757602036600319011261038757600435610e06816107b7565b6001600160a01b037f000000000000000000000000000000000000000000000000000000000000000081169190610e3f30841415612778565b610e5b5f805160206144788339815191529382855416146127d9565b610e6482613897565b60405190610e7182610639565b5f82527f4910fdfa16fed3260ed0e7147f7cc6da11a60208b5b9406d12a635614ffd91435460ff1615610eaa57505061001c91506140c0565b6020600491604094939451928380926352d1902d60e01b825286165afa5f9181610f04575b50610ef15760405162461bcd60e51b815280610eed600482016139b0565b0390fd5b61001c93610eff9114613952565b61406f565b610f2791925060203d602011610f2e575b610f1f818361066f565b810190613943565b905f610ecf565b503d610f15565b34610387575f366003190112610387576040515f600954610f55816105d5565b8084529060209060019081811690811561078d5750600114610f8157610743856107378187038261066f565b60095f90815293507f6e1540171b6c0c960b71a7020d9f60077f6af931a8bbf590da0223dacf75c7af5b838510610fc75750505050810160200161073782610743610727565b8054868601840152938201938101610fab565b34610387575f366003190112610387576040517f00000000000000000000000000000000000000000000000000000000000000006001600160a01b03168152602090f35b346103875760031960603682011261038757600435906001600160401b03821161038757610160908236030112610387576044357f00000000000000000000000000000000000000000000000000000000000000006001600160a01b031633036110c65761109561074392602435906004016139ff565b90806110ad575b506040519081529081906020820190565b5f80808093338219f1506110bf6130d3565b505f61109c565b60405162461bcd60e51b815260206004820152601c60248201527f6163636f756e743a206e6f742066726f6d20456e747279506f696e74000000006044820152606490fd5b6020808201906020835283518092526040830192602060408460051b8301019501935f915b8483106111405750505050505090565b909192939495848061115e600193603f198682030187528a516106b1565b9801930193019194939290611130565b602080600319360112610387576004356001600160401b0381116103875761119a9036906004016103bc565b916111b26111ae6111a9613f63565b613505565b1590565b610575576111be61315f565b6111c783612876565b925f5b8181106111df5760405180610743878261110b565b806112386111f36104d160019486896128bf565b8487876112018684846128bf565b0135611232606061122c8861122461121a8289896128bf565b60408101906128e1565b9790966128bf565b01612913565b936136ae565b611242828861291d565b5261124d818761291d565b50016111ca565b34610387576040366003190112610387576024356001600160401b03811161038757610dd761129b61128c6020933690600401610a75565b611294613843565b3691610974565b600435613a4f565b6040366003190112610387576004356112bb816107b7565b6024356001600160401b038111610387576112da9036906004016109aa565b6001600160a01b037f0000000000000000000000000000000000000000000000000000000000000000811692919061131430851415612778565b6113305f805160206144788339815191529482865416146127d9565b61133983613897565b7f4910fdfa16fed3260ed0e7147f7cc6da11a60208b5b9406d12a635614ffd91435460ff161561136f57505061001c91506140c0565b6020600491604094939451928380926352d1902d60e01b825286165afa5f91816113c5575b506113b25760405162461bcd60e51b815280610eed600482016139b0565b61001c936113c09114613952565b613fb5565b6113df91925060203d602011610f2e57610f1f818361066f565b905f611394565b34610387575f366003190112610387576040515f600754611406816105d5565b8084529060209060019081811690811561078d575060011461143257610743856107378187038261066f565b60075f90815293507fa66cc928b5edb82af9bd49922954155ab7b0942694bea4ce44661d9a8736c6885b8385106114785750505050810160200161073782610743610727565b805486860184015293820193810161145c565b6080366003190112610387576004356114a3816107b7565b6044356001600160401b038111610387576114c2903690600401610a75565b606492919235906114d282610c81565b6114dd6111a9613f63565b1561057557610743936114fb936114f261315f565b602435906136ae565b6040519182916020835260208301906106b1565b346103875760403660031901126103875760043561152c816107b7565b6024356001600160401b03811161038757602091611551610ae0923690600401610a75565b91612931565b34610387575f366003190112610387577f00000000000000000000000000000000000000000000000000000000000000006001600160a01b031630036115af576040515f805160206144788339815191528152602090f35b60405162461bcd60e51b815260206004820152603860248201527f555550535570677261646561626c653a206d757374206e6f742062652063616c60448201527f6c6564207468726f7567682064656c656761746563616c6c00000000000000006064820152608490fd5b34610387576020366003190112610387576020600435611639816107b7565b6040517f00000000000000000000000000000000000000000000000000000000000000006001600160a01b039081169216919091148152f35b346103875760203660031901126103875760206103b2600435611694816107b7565b613ac3565b34610387575f366003190112610387576040515f6006546116b9816105d5565b8084529060209060019081811690811561078d57506001146116e557610743856107378187038261066f565b60065f90815293505f805160206144988339815191525b8385106117185750505050810160200161073782610743610727565b80548686018401529382019381016116fc565b3461038757611739366103ec565b929061174961045a610454613102565b6001600160a01b03811680156105755733036105755761176761315f565b61177030613ba2565b3b15611874575b838503610563575f5b84811061178957005b806117ff61179d6104d16001948a8861251d565b6001600160a01b0385165f9081526001602052604090206117e0906117cb6117c6868c8c61251d565b61295a565b63ffffffff60e01b165f5260205260405f2090565b80546001600160a01b0319166001600160a01b03909216919091179055565b7f2c722487e90aca38ec1b074c3403210bd2bfb769b4da7f12f7bf0b9e37517c1861182e6117c683898961251d565b61183c6104d1848b8961251d565b604080516001600160a01b0380891682526001600160e01b03199094166020820152929091169082015280606081010390a101611780565b61187d30613bf1565b611777565b602060031982011261038757600435906001600160401b0382116103875780602383011215610387578160246106e793600401359101610974565b34610387576118cb36611882565b6118d3613f63565b6118dc816137c7565b15611a1a5781516001600160401b03811161063457611905816119006005546105d5565b612964565b602080601f831160011461198657509161195982611976937f74321da206c1b9fa34367f7ece59ca49371dcd13820b9a5c3767ae1ecceed51a955f9161197b575b508160011b915f199060031b1c19161790565b6005555b6040516001600160a01b039091169390918291826106d6565b0390a2005b90508601515f611946565b60055f5290601f1983165f80516020614458833981519152925f905b828210611a02575050927f74321da206c1b9fa34367f7ece59ca49371dcd13820b9a5c3767ae1ecceed51a94926001928261197696106119ea575b5050811b0160055561195d565b8701515f1960f88460031b161c191690555f806119dd565b80600185968294968b015181550195019301906119a2565b604051633632b98960e21b8152600490fd5b34610387575f366003190112610387576020610dd7610454613102565b34610387575f366003190112610387576040515f600854611a69816105d5565b8084529060209060019081811690811561078d5750600114611a9557610743856107378187038261066f565b60085f90815293507ff3f7a9fe364faab93b216da50a3214154f22a0a2b415b23a84c8169e8b636ee35b838510611adb5750505050810160200161073782610743610727565b8054868601840152938201938101611abf565b8015150361038757565b3461038757602036600319011261038757600435611b1581611aee565b611b1d613f63565b90611b2782613ac3565b15611b745760207fa48b25a14599514510fcdca0f35ff4cd42847f5e61698a238f4ee01e2d1c2c6a9115159260ff19600c541660ff851617600c5560405193845260018060a01b031692a2005b604051633cebab8560e21b8152600490fd5b3461038757602036600319011261038757610bd66020600435611ba8816107b7565b6001600160a01b03611bb86133fe565b60405163b2acf41d60e01b81523060048201526001600160a01b039093166024840152919384929190911690829081906044820190565b34610387575f3660031901126103875760205f546040519042108152f35b34610387575f366003190112610387576040517f00000000000000000000000000000000000000000000000000000000000000006001600160a01b03168152602090f35b34610387575f36600319011261038757611c706111ae600c5460ff1690565b611d5657611c7f6107f16133fe565b611c87613f63565b6040516311e3579360e31b81523060048201526001600160a01b0382166024820152909190602081604481855afa9081156108d6575f91611d37575b50611d2557803b1561038757604051633868e7e560e01b81523060048201526001600160a01b03831660248201525f6044820181905290918290606490829084905af180156108d657611d1257005b80611d1f61001c92610621565b80610587565b60405163211bad0f60e11b8152600490fd5b611d50915060203d6020116108cf576108c0818361066f565b5f611cc3565b604051636dc9375d60e11b8152600490fd5b3461038757606036600319011261038757600435611d85816107b7565b6044356001600160401b0381116103875761074391611dae61128c6114fb933690600401610a75565b9060243590613d35565b6001600160401b0381116106345760051b60200190565b9080601f83011215610387576020908235611de981611db8565b93611df7604051958661066f565b81855260208086019260051b82010192831161038757602001905b828210611e20575050505090565b81358152908301908301611e12565b346103875760a036600319011261038757611e4b6004356107b7565b611e566024356107b7565b6001600160401b0360443581811161038757611e76903690600401611dcf565b5060643581811161038757611e8f903690600401611dcf565b5060843590811161038757611ea89036906004016109aa565b50610743611eb4612b5f565b6040516001600160e01b031990911681529081906020820190565b34610387575f366003190112610387576040517f00000000000000000000000000000000000000000000000000000000000000006001600160a01b03168152602090f35b34610387575f366003190112610387576020600354604051908152f35b34610387575f3660031901126103875760205f54604051908152f35b34610387575f36600319011261038757604051631aab3f0d60e11b81523060048201525f60248201526020816044817f00000000000000000000000000000000000000000000000000000000000000006001600160a01b03165afa80156108d6575f90611fbf575b604051908152602090f35b506020813d602011611feb575b81611fd96020938361066f565b81010312610387576107439051611fb4565b3d9150611fcc565b346103875760203660031901126103875760043561045a612027612015613102565b6001600160a01b039492909190613cc5565b1680156105755733036105755761203d42612b86565b8111612089576120847fa7b24c66dd3269a292a60b3facdbb8f3e7557d1e19e64d99e0d6ee7250be63ad9161207061315f565b805f55604051918291829190602083019252565b0390a1005b6040516301814f7d60e31b8152600490fd5b346103875760031960203682011261038757600435906001600160401b0382116103875760e090823603011261038757612113600454916120f360ff8460081c161580948195612195575b8115612175575b50612b9c565b82612106600160ff196004541617600455565b61215c575b600401612f3f565b61211957005b61212961ff001960045416600455565b604051600181527f7f26b83ff96e1f2b6a682f133852f6798a09c465da95921460cefb3847402498908060208101612084565b61217061010061ff00196004541617600455565b61210b565b303b15915081612187575b505f6120ed565b6001915060ff16145f612180565b600160ff82161091506120e6565b34610387576121b136611882565b6121b9613f63565b6121c281613ac3565b15611b745781516001600160401b038111610634576121eb816121e66006546105d5565b6129be565b602080601f831160011461225a57509161223e82611976937f37cc8c6ced0cbc4d440fcfa810a2f09f40b8f0127c3656103edf26b3d93e0ec1955f9161197b57508160011b915f199060031b1c19161790565b6006556040516001600160a01b039091169390918291826106d6565b60065f5290601f1983165f80516020614498833981519152925f905b8282106122d6575050927f37cc8c6ced0cbc4d440fcfa810a2f09f40b8f0127c3656103edf26b3d93e0ec194926001928261197696106122be575b5050811b0160065561195d565b8701515f1960f88460031b161c191690555f806122b1565b80600185968294968b01518155019501930190612276565b3461038757604036600319011261038757602060043561230d816107b7565b61234c60243561231c81610375565b6001600160a01b039283165f9081526001855260408082206001600160e01b031990931682526020929092522090565b5416604051908152f35b346103875760a0366003190112610387576123726004356107b7565b61237d6024356107b7565b6084356001600160401b0381116103875761239c9036906004016109aa565b506123a56131cf565b60405163f23a6e6160e01b8152602090f35b34610387575f3660031901126103875760206123d1613d5d565b604051908152f35b34610387575f3660031901126103875760606123f3613102565b604080519384526001600160a01b03909216602084015290820152f35b6001600160e01b0319908116635194544760e01b81149081156124c4575b506124be5761247f61245a9161045a612445613102565b6001600160a01b039687949093909290613cc5565b165f52600160205260405f20905f351663ffffffff60e01b165f5260205260405f2090565b54168061248b57505f90565b5f80916040518061249c81366130c7565b03915afa6124a86130d3565b90156124b657602081519101f35b602081519101fd5b50600190565b636faff5f160e01b8114915081156124de575b505f61242e565b630271189760e51b8114915081156124f8575b505f6124d7565b6301ffc9a760e01b1490505f6124f1565b634e487b7160e01b5f52603260045260245ffd5b919081101561252d5760051b0190565b612509565b356106e781611aee565b356106e7816107b7565b906125519291613323565b612559575f90565b630b135d3f60e11b90565b9081602091031261038757516106e781611aee565b6040513d5f823e3d90fd5b919081101561252d576060020190565b9081602091031261038757516106e7816107b7565b959490919293946125b8613f63565b915f915b8083106125e7575050506111ae6125d291613505565b610575576106e7946125e261315f565b6136ae565b9091926125f5848385612584565b906126026020830161253c565b6126556040840135824686357f00000000000000000000000000000000000000000000000000000000000000007f000000000000000000000000000000000000000000000000000000000000000061347e565b92813b156126cd57833b612710575b604080516331a9108f60e11b815291013560048201529190602090839060249082906001600160a01b03165afa5f92816126df575b506126b057604051631052dd2560e21b8152600490fd5b6001600160a01b039081169116036126cd579260010191906125bc565b604051631052dd2560e21b8152600490fd5b61270291935060203d602011612709575b6126fa818361066f565b810190612594565b915f612699565b503d6126f0565b604051632938b58d60e21b815260049060208183816001600160a01b038a165afa9081156108d6575f91612759575b5061274a5750612664565b604051636315bfbb60e01b8152fd5b612772915060203d6020116108cf576108c0818361066f565b5f61273f565b1561277f57565b60405162461bcd60e51b815260206004820152602c60248201527f46756e6374696f6e206d7573742062652063616c6c6564207468726f7567682060448201526b19195b1959d85d1958d85b1b60a21b6064820152608490fd5b156127e057565b60405162461bcd60e51b815260206004820152602c60248201527f46756e6374696f6e206d7573742062652063616c6c6564207468726f7567682060448201526b6163746976652070726f787960a01b6064820152608490fd5b6040519061284782610639565b5f8252565b6040519060a082018281106001600160401b03821117610634576040526080808352366020840137565b9061288082611db8565b61288d604051918261066f565b828152809261289e601f1991611db8565b01905f5b8281106128ae57505050565b8060606020809385010152016128a2565b919081101561252d5760051b81013590607e1981360301821215610387570190565b903590601e198136030182121561038757018035906001600160401b0382116103875760200191813603831361038757565b356106e781610c81565b805182101561252d5760209160051b010190565b9061294190612947933691610974565b50613a69565b61294f575f90565b630291f19360e51b90565b356106e781610375565b601f8111612970575050565b60055f525f80516020614458833981519152906020601f840160051c830193106129b4575b601f0160051c01905b8181106129a9575050565b5f815560010161299e565b9091508190612995565b601f81116129ca575050565b60065f525f80516020614498833981519152906020601f840160051c83019310612a0e575b601f0160051c01905b818110612a03575050565b5f81556001016129f8565b90915081906129ef565b601f8111612a24575050565b60075f527fa66cc928b5edb82af9bd49922954155ab7b0942694bea4ce44661d9a8736c688906020601f840160051c83019310612a7b575b601f0160051c01905b818110612a70575050565b5f8155600101612a65565b9091508190612a5c565b601f8111612a91575050565b60085f527ff3f7a9fe364faab93b216da50a3214154f22a0a2b415b23a84c8169e8b636ee3906020601f840160051c83019310612ae8575b601f0160051c01905b818110612add575050565b5f8155600101612ad2565b9091508190612ac9565b601f8111612afe575050565b60095f527f6e1540171b6c0c960b71a7020d9f60077f6af931a8bbf590da0223dacf75c7af906020601f840160051c83019310612b55575b601f0160051c01905b818110612b4a575050565b5f8155600101612b3f565b9091508190612b36565b612b676131cf565b63bc197c8160e01b90565b634e487b7160e01b5f52601160045260245ffd5b906301e133808201809211612b9757565b612b72565b15612ba357565b60405162461bcd60e51b815260206004820152602e60248201527f496e697469616c697a61626c653a20636f6e747261637420697320616c72656160448201526d191e481a5b9a5d1a585b1a5e995960921b6064820152608490fd5b91906001600160401b03811161063457612c1e816121e66006546105d5565b5f601f8211600114612c5c578190612c4c93945f92612c51575b50508160011b915f199060031b1c19161790565b600655565b013590505f80612c38565b60065f52601f198216935f80516020614498833981519152915f5b868110612cae5750836001959610612c95575b505050811b01600655565b01355f19600384901b60f8161c191690555f8080612c8a565b90926020600181928686013581550194019101612c77565b91906001600160401b03811161063457612cea81612ce56007546105d5565b612a18565b5f601f8211600114612d1c578190612d1793945f92612c515750508160011b915f199060031b1c19161790565b600755565b60075f52601f198216937fa66cc928b5edb82af9bd49922954155ab7b0942694bea4ce44661d9a8736c688915f5b868110612d815750836001959610612d68575b505050811b01600755565b01355f19600384901b60f8161c191690555f8080612d5d565b90926020600181928686013581550194019101612d4a565b91906001600160401b03811161063457612dbd81612db86008546105d5565b612a85565b5f601f8211600114612def578190612dea93945f92612c515750508160011b915f199060031b1c19161790565b600855565b60085f52601f198216937ff3f7a9fe364faab93b216da50a3214154f22a0a2b415b23a84c8169e8b636ee3915f5b868110612e545750836001959610612e3b575b505050811b01600855565b01355f19600384901b60f8161c191690555f8080612e30565b90926020600181928686013581550194019101612e1d565b91906001600160401b03811161063457612e9081612e8b6009546105d5565b612af2565b5f601f8211600114612ec2578190612ebd93945f92612c515750508160011b915f199060031b1c19161790565b600955565b60095f52601f198216937f6e1540171b6c0c960b71a7020d9f60077f6af931a8bbf590da0223dacf75c7af915f5b868110612f275750836001959610612f0e575b505050811b01600955565b01355f19600384901b60f8161c191690555f8080612f03565b90926020600181928686013581550194019101612ef0565b8035612f4a816107b7565b6004805462010000600160b01b03191660109290921b62010000600160b01b03169190911790556020612f7f828201836128e1565b91906001600160401b03831161063457612f9e836119006005546105d5565b5f91601f841160011461304c575092612fd6836130389460c09461304a975f92612c515750508160011b915f199060031b1c19161790565b6005555b612ff0612fea60408301836128e1565b90612bff565b61300661300060608301836128e1565b90612cc6565b61301c61301660808301836128e1565b90612d99565b61303261302c60a08301836128e1565b90612e6c565b01612532565b60ff8019600c54169115151617600c55565b565b60055f5291601f1984165f80516020614458833981519152935f905b8282106130af5750509360c09361304a9693600193836130389810613096575b505050811b01600555612fda565b01355f19600384901b60f8161c191690555f8080613088565b80600185978294968801358155019601930190613068565b90815f8237015f815290565b3d156130fd573d906130e482610959565b916130f2604051938461066f565b82523d5f602084013e565b606090565b60405190608082018281106001600160401b038211176106345760405260608252602082016060604d82303c606083805181010312610387575190606060408401519361314e856107b7565b015191926001600160a01b03169190565b5f5442106131bd5760035460806131b561317761436c565b92908360405194859260208401978852604080850152816060850152848401375f838284010152601f8019910116810103606081018452018261066f565b519020600355565b604051636315bfbb60e01b8152600490fd5b6132186131fc6131e361045a610454613102565b6001600160a01b03165f90815260016020526040902090565b5f80356001600160e01b03191681526020919091526040902090565b546001600160a01b03811661322a5750565b5f809161323630613ba2565b908260405161327a60488260208101956001600160601b0319809160601b16875236866034840137368201903360601b16603482015203602881018452018261066f565b51925af16124a86130d3565b906040101561252d5760400190565b906020116103875790602090565b906040116103875760200190602090565b90929192836020116103875783116103875760200191601f190190565b90939293848311610387578411610387578101920390565b3590602081106132f7575090565b5f199060200360031b1b1690565b6005111561330f57565b634e487b7160e01b5f52602160045260245ffd5b909160ff61334b6133456133378487613286565b356001600160f81b03191690565b60f81c90565b16156133845761336692613360913691610974565b90613f32565b61336f81613305565b61337f576106e79061294161283a565b505f90565b9061339e6107f16107f16133988587613295565b906132e9565b916133a761283a565b506133b46111ae84613a69565b806133eb575b6133e3576112948185816133d76133986133dd966106e79a6132a3565b916132d1565b91613eb7565b505050505f90565b506001600160a01b0383163014156133ba565b613406613102565b506001600160a01b039081169150811561344b5760206004926040519384809263b4a9c60760e01b82525afa9182156108d6575f9261345d575b5081161561344b5790565b60405163a9ec899b60e01b8152600490fd5b61347791925060203d602011612709576126fa818361066f565b905f613440565b91906055959360e2956040519560b787015260018060a01b0316609786015260778501528160578501526e5af43d82803e903d91602b57fd5bf360378501526028840152733d60ad80600a3d3981f3363d3d373d3d3d363d73601484015260b7835260d7830190816040528351602085012061011785015260f7840152520160ff81532090565b6001600160a01b038181167f00000000000000000000000000000000000000000000000000000000000000008216811461368357613541613102565b904683036135c4575b61355392613cc5565b82811682146135bb5761356590613dbc565b918216146135b4576001600160a01b03165f9081526002602052604090206135a7916135a0919060018060a01b03165f5260205260405f2090565b5460ff1690565b6135af575f90565b600190565b5050600190565b50505050600190565b6135f56135cf613f63565b6001600160a01b0390811673111100000000000000000000000000000000111019011690565b85163014613659576040516333932be560e11b81526001600160a01b03871660048201526020816024817f00000000000000000000000000000000000000000000000000000000000000008a165afa9081156108d6575f91613664575b501561354a575b505050505050600190565b61367d915060203d6020116108cf576108c0818361066f565b5f613652565b505050600190565b909280926014946001600160601b03199060601b1683528483013701015f815290565b9092919360ff169081156137ae576001821461375d575060028114613740576003146136e657604051631cc6a69960e11b8152600490fd5b826106e7926137098380613703613398613711976137329a613295565b946132b4565b92909161385d565b604051928391602083016014916001600160601b03199060601b1681520190565b03601f19810183528261066f565b506106e79161375761373294613711933691610974565b90613a4f565b6106e7949392915061379b9061378d61377530613ba2565b93843b156137a0575b6040519687936020850161368b565b03601f19810185528461066f565b613d35565b6137a930613bf1565b61377e565b92916137c19150936106e7943691610974565b91613d35565b613815906020906001600160a01b036137de6133fe565b60405163f582bceb60e01b81523060048201526001600160a01b039093166024840152919384929190911690829081906044820190565b03915afa9081156108d6575f9161382a575090565b6106e7915060203d6020116108cf576108c0818361066f565b6001600160a01b0361385430613ba2565b16330361057557565b9161386a91933691610974565b9060208251920190f5906001600160a01b0382161561388557565b60405163a28c247360e01b8152600490fd5b604051631506fd4d60e01b81526001600160a01b039091166004820152602081806024810103817f00000000000000000000000000000000000000000000000000000000000000006001600160a01b03165afa9081156108d6575f91613924575b50156139125761390c6111ae6111a9613f63565b61057557565b60405163340aafcd60e11b8152600490fd5b61393d915060203d6020116108cf576108c0818361066f565b5f6138f8565b90816020910312610387575190565b1561395957565b60405162461bcd60e51b815260206004820152602960248201527f45524331393637557067726164653a20756e737570706f727465642070726f786044820152681a58589b195555525160ba1b6064820152608490fd5b60809060208152602e60208201527f45524331393637557067726164653a206e657720696d706c656d656e7461746960408201526d6f6e206973206e6f74205555505360901b60608201520190565b613a42917f19457468657265756d205369676e6564204d6573736167653a0a3332000000005f52601c52613a3c603c5f20916101408101906128e1565b91613323565b613a4b57600190565b5f90565b60208251920190f0906001600160a01b0382161561388557565b613a74610454613102565b6001600160a01b038281169180821683146135bb57613a9290613dbc565b168091146135b4575f9081526002602090815260408083206001600160a01b0390941683529290522060ff90541690565b613ace6107f16133fe565b604051630e70978b60e21b81523060048201526001600160a01b038316602482015290916020908183604481875afa9283156108d6575f93613b83575b508215613b1a575b5050905090565b60405163f582bceb60e01b81523060048201526001600160a01b0391909116602482015290929091508290829060449082905afa9182156108d6575f92613b66575b5050805f80613b13565b613b7c9250803d106108cf576108c0818361066f565b5f80613b5c565b613b9b919350823d84116108cf576108c0818361066f565b915f613b0b565b600b613baf60559261414f565b602081519101206040519060408201527f97f795a08410e77dc9dbbaba3915f17c601e45642518dd578bd440d8775bfee460208201523081520160ff81532090565b613bfa9061414f565b805115613c815780516001600160a01b03917f97f795a08410e77dc9dbbaba3915f17c601e45642518dd578bd440d8775bfee491906020015ff51615613c3c57565b60405162461bcd60e51b815260206004820152601960248201527f437265617465323a204661696c6564206f6e206465706c6f79000000000000006044820152606490fd5b606460405162461bcd60e51b815260206004820152602060248201527f437265617465323a2062797465636f6465206c656e677468206973207a65726f6044820152fd5b4603613d2f57803b15613d2f576040516331a9108f60e11b81526004810192909252602090829060249082906001600160a01b03165afa5f9181613d0e575b506106e757505f90565b613d2891925060203d602011612709576126fa818361066f565b905f613d04565b50505f90565b915f928392602083519301915af190613d4c6130d3565b9115613d5457565b50602081519101fd5b6001600160a01b03613d6d614226565b16801561337f5760206024916040519283809263a1d4b07f60e01b82523060048301525afa9081156108d6575f91613da3575090565b6106e7915060203d602011610f2e57610f1f818361066f565b907f0000000000000000000000000000000000000000000000000000000000000000917f00000000000000000000000000000000000000000000000000000000000000005b613e0c818584614269565b15613eb25760408051637e062a3560e11b815292606091908290859060049082906001600160a01b03165afa9384156108d6575f915f935f96613e62575b50505092613e5b91613e0c94613cc5565b9150613e01565b92509250809450813d8311613eab575b613e7c818361066f565b810103126103875782613e5b91613e0c945190602083015192613e9e846107b7565b0151909190948193613e4a565b503d613e72565b509150565b5f9192908291604051613eee816137326020820194630b135d3f60e11b998a875260248401526040604484015260648301906106b1565b51915afa90613efb6130d3565b82613f24575b82613f0b57505090565b613f2091925060208082518301019101613943565b1490565b915060208251101591613f01565b9060418151145f14613f5a5761043291602082015190606060408401519301515f1a906142f1565b50505f90600290565b337f00000000000000000000000000000000000000000000000000000000000000006001600160a01b03161480613faa575b15613fa65736601319013560601c90565b3390565b506014361015613f95565b90613fbf826140c0565b6001600160a01b0382167fbc7cd75a20ee27fd9adebab32041f755214dbc6bffa90cc0225b39da2e5c2d3b5f80a2805115801590614067575b614000575050565b614064915f806040519361401385610654565b602785527f416464726573733a206c6f772d6c6576656c2064656c65676174652063616c6c6020860152660819985a5b195960ca1b6040860152602081519101845af461405e6130d3565b916143c6565b50565b506001613ff8565b90614079826140c0565b6001600160a01b0382167fbc7cd75a20ee27fd9adebab32041f755214dbc6bffa90cc0225b39da2e5c2d3b5f80a28051158015906140b957614000575050565b505f613ff8565b803b156140f4575f8051602061447883398151915280546001600160a01b0319166001600160a01b03909216919091179055565b60405162461bcd60e51b815260206004820152602d60248201527f455243313936373a206e657720696d706c656d656e746174696f6e206973206e60448201526c1bdd08184818dbdb9d1c9858dd609a1b6064820152608490fd5b6040908151828101908082106001600160401b0383111761063457836106e7936034936141f59652600e8352614217602084016d604380600d600039806000f3fe7360901b81528351906141a282610654565b602e825260208201947f3314601d573d3dfd5b363d3d373d3d6014360360143d5160601c5af43d60008086526d3e80603e573d6000fd5b3d6000f360901b81840152519889965180926020890190610690565b8501926001600160601b03199060601b16602084015251809386840190610690565b0103601481018452018261066f565b61422e613102565b506001600160a01b03169050801561337f576020600491604051928380926320136bb160e11b82525afa5f9181613d0e57506106e757505f90565b9160ad833b036142ea576014600a600c853c5f5190813b156133e3576001600160a01b03928316828416036133e3576142a061284c565b60208101916080602d84883c608082805181010312610387576142e4936107f193516040840151918760806060870151966142da886107b7565b015195169361347e565b91161490565b5050505f90565b7f7fffffffffffffffffffffffffffffff5d576e7357a4501ddfe92f46681b20a08411614361576020935f9360ff60809460405194855216868401526040830152606082015282805260015afa156108d6575f516001600160a01b0381161561435957905f90565b505f90600190565b505050505f90600390565b337f00000000000000000000000000000000000000000000000000000000000000006001600160a01b031614806143bb575b156143b557601319360190368211612b97575f9190565b5f903690565b50601436101561439e565b9192901561442857508151156143da575090565b3b156143e35790565b60405162461bcd60e51b815260206004820152601d60248201527f416464726573733a2063616c6c20746f206e6f6e2d636f6e74726163740000006044820152606490fd5b82519091501561443b5750805190602001fd5b60405162461bcd60e51b8152908190610eed90600483016106d656fe036b6384b5eca791c62761152d0c79bb0604c104a5fb6f4eb0703f3154bb3db0360894a13ba1a3210667c828492db98dca3e2076cc3735a920a3ca505d382bbcf652222313e28459528d920b65115c16c04f3efc82aaedc97be59f3f377c0d3fa164736f6c6343000819000a","linkReferences":{}},"methodIdentifiers":{"ASSESSMENT_RESOLVER()":"3a208f95","WORK_APPROVAL_RESOLVER()":"bcc5cf88","bannerImage()":"94def29d","communityToken()":"29aa1617","description()":"7284e416","entryPoint()":"b0d691fe","erc6551Registry()":"056d5afe","execute(address,uint256,bytes,uint8)":"51945447","executeBatch((address,uint256,bytes,uint8)[])":"43629a73","executeNested(address,uint256,bytes,uint8,(bytes32,address,uint256)[])":"1fb1ecf0","extcall(address,uint256,bytes)":"b709467c","extcreate(uint256,bytes)":"45a24e3e","extcreate2(uint256,bytes32,bytes)":"34715fb1","extsload(bytes32)":"1e2eaeaf","gapProjectUID()":"f7fc57b0","getGAPProjectUID()":"f89b9b93","getNonce()":"d087d288","initialize((address,string,string,string,string,string,bool))":"e13ff8dd","isCommunity(address)":"993fa20b","isEvaluator(address)":"1b561cf9","isFunder(address)":"1ea48870","isGardener(address)":"0959f6a8","isLocked()":"a4e2d634","isOperator(address)":"6d70f7ae","isOwner(address)":"2f54bf6e","isTrustedForwarder(address)":"572b6c05","isValidSignature(bytes32,bytes)":"1626ba7e","isValidSigner(address,bytes)":"523e3260","joinGarden()":"b10006a6","location()":"516f279e","lock(uint256)":"dd467064","lockedUntil()":"ce0617ec","metadata()":"392f37e9","name()":"06fdde03","onERC1155BatchReceived(address,address,uint256[],uint256[],bytes)":"bc197c81","onERC1155Received(address,address,uint256,uint256,bytes)":"f23a6e61","onERC721Received(address,address,uint256,bytes)":"150b7a02","openJoining()":"291d0548","overrides(address,bytes4)":"ee9c6054","owner()":"8da5cb5b","permissions(address,address)":"1f9838b5","proxiableUUID()":"52d1902d","setOpenJoining(bool)":"98b7a25a","setOverrides(bytes4[],address[])":"7a8f7356","setPermissions(address[],bool[])":"039721b1","state()":"c19d93fb","supportsInterface(bytes4)":"01ffc9a7","token()":"fc0c546a","updateDescription(string)":"e735b48a","updateName(string)":"84da92a7","upgradeTo(address)":"3659cfe6","upgradeToAndCall(address,bytes)":"4f1ef286","validateUserOp((address,uint256,bytes,bytes,uint256,uint256,uint256,uint256,uint256,bytes,bytes),bytes32,uint256)":"3a871cdd"},"id":119}