{"abi":[{"type":"constructor","inputs":[{"name":"gardenAccountImplementation","type":"address","internalType":"address"}],"stateMutability":"nonpayable"},{"type":"function","name":"approve","inputs":[{"name":"to","type":"address","internalType":"address"},{"name":"tokenId","type":"uint256","internalType":"uint256"}],"outputs":[],"stateMutability":"nonpayable"},{"type":"function","name":"balanceOf","inputs":[{"name":"owner","type":"address","internalType":"address"}],"outputs":[{"name":"","type":"uint256","internalType":"uint256"}],"stateMutability":"view"},{"type":"function","name":"batchMintGardens","inputs":[{"name":"configs","type":"tuple[]","internalType":"struct GardenToken.GardenConfig[]","components":[{"name":"communityToken","type":"address","internalType":"address"},{"name":"name","type":"string","internalType":"string"},{"name":"description","type":"string","internalType":"string"},{"name":"location","type":"string","internalType":"string"},{"name":"bannerImage","type":"string","internalType":"string"},{"name":"gardeners","type":"address[]","internalType":"address[]"},{"name":"gardenOperators","type":"address[]","internalType":"address[]"}]}],"outputs":[{"name":"gardenAccounts","type":"address[]","internalType":"address[]"}],"stateMutability":"nonpayable"},{"type":"function","name":"deploymentRegistry","inputs":[],"outputs":[{"name":"","type":"address","internalType":"address"}],"stateMutability":"view"},{"type":"function","name":"getApproved","inputs":[{"name":"tokenId","type":"uint256","internalType":"uint256"}],"outputs":[{"name":"","type":"address","internalType":"address"}],"stateMutability":"view"},{"type":"function","name":"initialize","inputs":[{"name":"_multisig","type":"address","internalType":"address"},{"name":"_deploymentRegistry","type":"address","internalType":"address"}],"outputs":[],"stateMutability":"nonpayable"},{"type":"function","name":"isApprovedForAll","inputs":[{"name":"owner","type":"address","internalType":"address"},{"name":"operator","type":"address","internalType":"address"}],"outputs":[{"name":"","type":"bool","internalType":"bool"}],"stateMutability":"view"},{"type":"function","name":"mintGarden","inputs":[{"name":"communityToken","type":"address","internalType":"address"},{"name":"name","type":"string","internalType":"string"},{"name":"description","type":"string","internalType":"string"},{"name":"location","type":"string","internalType":"string"},{"name":"bannerImage","type":"string","internalType":"string"},{"name":"gardeners","type":"address[]","internalType":"address[]"},{"name":"gardenOperators","type":"address[]","internalType":"address[]"}],"outputs":[{"name":"","type":"address","internalType":"address"}],"stateMutability":"nonpayable"},{"type":"function","name":"name","inputs":[],"outputs":[{"name":"","type":"string","internalType":"string"}],"stateMutability":"view"},{"type":"function","name":"owner","inputs":[],"outputs":[{"name":"","type":"address","internalType":"address"}],"stateMutability":"view"},{"type":"function","name":"ownerOf","inputs":[{"name":"tokenId","type":"uint256","internalType":"uint256"}],"outputs":[{"name":"","type":"address","internalType":"address"}],"stateMutability":"view"},{"type":"function","name":"proxiableUUID","inputs":[],"outputs":[{"name":"","type":"bytes32","internalType":"bytes32"}],"stateMutability":"view"},{"type":"function","name":"renounceOwnership","inputs":[],"outputs":[],"stateMutability":"nonpayable"},{"type":"function","name":"safeTransferFrom","inputs":[{"name":"from","type":"address","internalType":"address"},{"name":"to","type":"address","internalType":"address"},{"name":"tokenId","type":"uint256","internalType":"uint256"}],"outputs":[],"stateMutability":"nonpayable"},{"type":"function","name":"safeTransferFrom","inputs":[{"name":"from","type":"address","internalType":"address"},{"name":"to","type":"address","internalType":"address"},{"name":"tokenId","type":"uint256","internalType":"uint256"},{"name":"data","type":"bytes","internalType":"bytes"}],"outputs":[],"stateMutability":"nonpayable"},{"type":"function","name":"setApprovalForAll","inputs":[{"name":"operator","type":"address","internalType":"address"},{"name":"approved","type":"bool","internalType":"bool"}],"outputs":[],"stateMutability":"nonpayable"},{"type":"function","name":"setDeploymentRegistry","inputs":[{"name":"_deploymentRegistry","type":"address","internalType":"address"}],"outputs":[],"stateMutability":"nonpayable"},{"type":"function","name":"supportsInterface","inputs":[{"name":"interfaceId","type":"bytes4","internalType":"bytes4"}],"outputs":[{"name":"","type":"bool","internalType":"bool"}],"stateMutability":"view"},{"type":"function","name":"symbol","inputs":[],"outputs":[{"name":"","type":"string","internalType":"string"}],"stateMutability":"view"},{"type":"function","name":"tokenURI","inputs":[{"name":"tokenId","type":"uint256","internalType":"uint256"}],"outputs":[{"name":"","type":"string","internalType":"string"}],"stateMutability":"view"},{"type":"function","name":"transferFrom","inputs":[{"name":"from","type":"address","internalType":"address"},{"name":"to","type":"address","internalType":"address"},{"name":"tokenId","type":"uint256","internalType":"uint256"}],"outputs":[],"stateMutability":"nonpayable"},{"type":"function","name":"transferOwnership","inputs":[{"name":"newOwner","type":"address","internalType":"address"}],"outputs":[],"stateMutability":"nonpayable"},{"type":"function","name":"upgradeTo","inputs":[{"name":"newImplementation","type":"address","internalType":"address"}],"outputs":[],"stateMutability":"nonpayable"},{"type":"function","name":"upgradeToAndCall","inputs":[{"name":"newImplementation","type":"address","internalType":"address"},{"name":"data","type":"bytes","internalType":"bytes"}],"outputs":[],"stateMutability":"payable"},{"type":"event","name":"AdminChanged","inputs":[{"name":"previousAdmin","type":"address","indexed":false,"internalType":"address"},{"name":"newAdmin","type":"address","indexed":false,"internalType":"address"}],"anonymous":false},{"type":"event","name":"Approval","inputs":[{"name":"owner","type":"address","indexed":true,"internalType":"address"},{"name":"approved","type":"address","indexed":true,"internalType":"address"},{"name":"tokenId","type":"uint256","indexed":true,"internalType":"uint256"}],"anonymous":false},{"type":"event","name":"ApprovalForAll","inputs":[{"name":"owner","type":"address","indexed":true,"internalType":"address"},{"name":"operator","type":"address","indexed":true,"internalType":"address"},{"name":"approved","type":"bool","indexed":false,"internalType":"bool"}],"anonymous":false},{"type":"event","name":"BatchGardensMinted","inputs":[{"name":"startTokenId","type":"uint256","indexed":true,"internalType":"uint256"},{"name":"endTokenId","type":"uint256","indexed":true,"internalType":"uint256"},{"name":"minter","type":"address","indexed":true,"internalType":"address"},{"name":"count","type":"uint256","indexed":false,"internalType":"uint256"}],"anonymous":false},{"type":"event","name":"BeaconUpgraded","inputs":[{"name":"beacon","type":"address","indexed":true,"internalType":"address"}],"anonymous":false},{"type":"event","name":"GardenMinted","inputs":[{"name":"tokenId","type":"uint256","indexed":true,"internalType":"uint256"},{"name":"account","type":"address","indexed":true,"internalType":"address"},{"name":"name","type":"string","indexed":false,"internalType":"string"},{"name":"description","type":"string","indexed":false,"internalType":"string"},{"name":"location","type":"string","indexed":false,"internalType":"string"},{"name":"bannerImage","type":"string","indexed":false,"internalType":"string"},{"name":"gardeners","type":"address[]","indexed":false,"internalType":"address[]"},{"name":"gardenOperators","type":"address[]","indexed":false,"internalType":"address[]"}],"anonymous":false},{"type":"event","name":"Initialized","inputs":[{"name":"version","type":"uint8","indexed":false,"internalType":"uint8"}],"anonymous":false},{"type":"event","name":"OwnershipTransferred","inputs":[{"name":"previousOwner","type":"address","indexed":true,"internalType":"address"},{"name":"newOwner","type":"address","indexed":true,"internalType":"address"}],"anonymous":false},{"type":"event","name":"Transfer","inputs":[{"name":"from","type":"address","indexed":true,"internalType":"address"},{"name":"to","type":"address","indexed":true,"internalType":"address"},{"name":"tokenId","type":"uint256","indexed":true,"internalType":"uint256"}],"anonymous":false},{"type":"event","name":"Upgraded","inputs":[{"name":"implementation","type":"address","indexed":true,"internalType":"address"}],"anonymous":false},{"type":"error","name":"CommunityTokenNotContract","inputs":[]},{"type":"error","name":"DeploymentRegistryNotConfigured","inputs":[]},{"type":"error","name":"InvalidBatchSize","inputs":[]},{"type":"error","name":"InvalidCommunityToken","inputs":[]},{"type":"error","name":"InvalidERC20Token","inputs":[]},{"type":"error","name":"TooManyGardeners","inputs":[]},{"type":"error","name":"TooManyOperators","inputs":[]},{"type":"error","name":"UnauthorizedMinter","inputs":[]}],"bytecode":{"object":"0x60c03461013357601f612d5138819003918201601f19168301916001600160401b038311848410176101375780849260209460405283398101031261013357516001600160a01b0381168103610133573060805260a0525f5460ff8160081c166100de5760ff808216036100a4575b604051612c05908161014c8239608051818181610eb901528181610fb3015261172c015260a05181818161029a0152610c5a0152f35b60ff90811916175f557f7f26b83ff96e1f2b6a682f133852f6798a09c465da95921460cefb3847402498602060405160ff8152a15f61006e565b60405162461bcd60e51b815260206004820152602760248201527f496e697469616c697a61626c653a20636f6e747261637420697320696e697469604482015266616c697a696e6760c81b6064820152608490fd5b5f80fd5b634e487b7160e01b5f52604160045260245ffdfe610220806040526004361015610013575f80fd5b5f3560e01c90816301ffc9a714611b965750806306fdde0314611aed578063081812fc14611acf578063095ea7b31461194257806314902ad31461190357806323b872dd146118df5780633659cfe61461170657806342842e0e146116d4578063485cc9551461123c5780634f1ef28614610f7357806352d1902d14610e9f5780636352211e14610e7057806364b6181d14610b2e57806370a0823114610a86578063715018a614610a2d5780638da5cb5b14610a0757806395d89b4114610929578063a22cb4651461085c578063b88d4fde146107e7578063c6631092146107c1578063c87b56dd14610750578063e985e9c5146106fd578063f2fde38b146106585763f3203ab814610125575f80fd5b346104825760203660031901126104825760043567ffffffffffffffff811161048257610156903690600401611e1e565b906001600160a01b0391826097541633036105a2575b80158015610598575b61056e575f5b8181106104b5575061018c81612283565b9161019a6040519384611d6c565b8183526101a682612283565b601f190136602085013760c954906101be838361229b565b60c9555f5b83811061026b57505060c9545f19810191908211610257576040949394519283527fce282076a1439bd4b653b5657c2ab7abea5a48b4572799f57582e79e357b59f760203394a4604051918291602083016020845282518091526020604085019301915f905b82821061023857505050500390f35b8351811685528695506020948501949093019260019190910190610229565b634e487b7160e01b5f52601160045260245ffd5b610275818461229b565b610280828685612217565b9061028b81336126ea565b604051630918575160e11b81527f00000000000000000000000000000000000000000000000000000000000000006001600160a01b031660048201523060248201526044810182905260208160648173__$22345123dcf5f39d8c23eeef107f852197$__5af4908115610477575f91610486575b5061030983612239565b61031660208501856122a8565b918b846103638861032a60408201826122a8565b9061033860608401846122a8565b9061034660808601866122a8565b94909361035660a088018861224d565b98909760c081019061224d565b9a9099163b15610482576040516347f5fddd60e01b81529c8d9c61038a9c60048f0161211f565b03818b841691815a5f948591f1801561047757610468575b5087518410156104545780898092168560051b8a0160200152602084016103c990856122a8565b946103d760408201826122a8565b916103e560608201826122a8565b6080839293016103f590836122a8565b9161040360a085018561224d565b95909460c081016104139161224d565b9890976040519c8d9c169e6104289b8d6121a3565b037fc21b2c6050c0567e4638e617eb78e585cd1e1436c6942b30cfb504ad91600e2c91a36001016101c3565b634e487b7160e01b5f52603260045260245ffd5b61047190611d04565b5f6103a2565b6040513d5f823e3d90fd5b5f80fd5b6104a8915060203d6020116104ae575b6104a08183611d6c565b810190612099565b5f6102ff565b503d610496565b6104d06104cb6104c6838587612217565b612239565b6125eb565b6104e86104de828486612217565b60a081019061224d565b905060648091116105445761050b610501838587612217565b60c081019061224d565b90501161051a5760010161017b565b60046040517f6055dca1000000000000000000000000000000000000000000000000000000008152fd5b60046040517fd7a6868a000000000000000000000000000000000000000000000000000000008152fd5b60046040517f7862e959000000000000000000000000000000000000000000000000000000008152fd5b50600a8111610175565b8260ca5416801561062e5760206024916040519283809262a743f760e61b82523360048301525afa5f91816105fd575b506105e857600460405163955c501b60e01b8152fd5b61016c57600460405163955c501b60e01b8152fd5b61062091925060203d602011610627575b6106188183611d6c565b810190612081565b905f6105d2565b503d61060e565b60046040517f3b674d96000000000000000000000000000000000000000000000000000000008152fd5b3461048257602036600319011261048257610671611ca3565b6106796122db565b6001600160a01b0381161561069357610691906125a4565b005b608460405162461bcd60e51b815260206004820152602660248201527f4f776e61626c653a206e6577206f776e657220697320746865207a65726f206160448201527f64647265737300000000000000000000000000000000000000000000000000006064820152fd5b3461048257604036600319011261048257610716611ca3565b61071e611cb9565b906001600160a01b038091165f52606a60205260405f2091165f52602052602060ff60405f2054166040519015158152f35b34610482576020366003190112610482576107896107846004355f5260676020526001600160a01b0360405f205416151590565b612013565b5f60405161079681611d18565b526107bd6040516107a681611d18565b5f8152604051918291602083526020830190611c65565b0390f35b34610482575f3660031901126104825760206001600160a01b0360ca5416604051908152f35b3461048257608036600319011261048257610800611ca3565b610808611cb9565b906064359060443567ffffffffffffffff83116104825761069193610834610857943690600401611daa565b926108476108428433612333565b611ec0565b61085283838361240e565b612ab9565b6127f9565b3461048257604036600319011261048257610875611ca3565b60243590811515809203610482576001600160a01b0316908133146108e557335f52606a60205260405f20825f5260205260405f2060ff1981541660ff83161790556040519081527f17307eab39ab6107e8899845ad3d59bd9653f200f220920489ca2b5937696c3160203392a3005b606460405162461bcd60e51b815260206004820152601960248201527f4552433732313a20617070726f766520746f2063616c6c6572000000000000006044820152fd5b34610482575f366003190112610482576040516066545f8261094a83611e4f565b91828252602093600190856001821691825f146109e757505060011461098c575b5061097892500383611d6c565b6107bd604051928284938452830190611c65565b84915060665f527f46501879b8ca8525e8c2fd519e2fbfcfa2ebea26501294aa02cbfcfb12e94354905f915b8583106109cf57505061097893508201018561096b565b805483890185015287945086939092019181016109b8565b60ff19168582015261097895151560051b850101925087915061096b9050565b34610482575f3660031901126104825760206001600160a01b0360975416604051908152f35b34610482575f36600319011261048257610a456122db565b5f6001600160a01b036097546001600160a01b03198116609755167f8be0079c531659141344cd1fd0a4f28419497f9722a3daafe3b4186f6b6457e08280a3005b34610482576020366003190112610482576001600160a01b03610aa7611ca3565b168015610ac4575f526068602052602060405f2054604051908152f35b608460405162461bcd60e51b815260206004820152602960248201527f4552433732313a2061646472657373207a65726f206973206e6f74206120766160448201527f6c6964206f776e657200000000000000000000000000000000000000000000006064820152fd5b346104825760e036600319011261048257610b47611ca3565b67ffffffffffffffff9060243582811161048257610b69903690600401611df0565b906101e0529160443581811161048257610b87903690600401611df0565b90610200529060643581811161048257610ba5903690600401611df0565b6101005260c05260843581811161048257610bc4903690600401611df0565b610140526101205260a43581811161048257610be4903690600401611e1e565b610180526101605260c43590811161048257610c04903690600401611e1e565b6101c0526101a0526001600160a01b03608052608051609754163303610df2575b610c2e826125eb565b60c954915f198314610257576001830160c955610c4b83336126ea565b604051630918575160e11b81527f00000000000000000000000000000000000000000000000000000000000000006001600160a01b031660048201523060248201526044810184905260208160648173__$22345123dcf5f39d8c23eeef107f852197$__5af48015610477575f60a052610dd1575b5060805160a051163b15610482575f9060405160e0526347f5fddd60e01b60e0515260e05190610d2b60e051916101c051906101a0519061018051906101605190610140519061012051908d8c610100519260c0519261020051916101e05190600460e0510161211f565b0360e0518360805160a051165af18015610477577fc21b2c6050c0567e4638e617eb78e585cd1e1436c6942b30cfb504ad91600e2c91610dae91610dc1575b60405191829160805160a05116966101c051916101a051916101805191610160519161014051916101205191610100519160c0519161020051906101e0518d6121a3565b0390a3602060405160805160a051168152f35b610dcc60e051611d04565b610d6a565b610de99060203d6020116104ae576104a08183611d6c565b60a05284610cc0565b60805160ca5416801561062e5760206024916040519283809262a743f760e61b82523360048301525afa5f9181610e4f575b50610e3a57600460405163955c501b60e01b8152fd5b610c2557600460405163955c501b60e01b8152fd5b610e6991925060203d602011610627576106188183611d6c565b9085610e24565b34610482576020366003190112610482576020610e8e60043561205e565b6001600160a01b0360405191168152f35b34610482575f366003190112610482576001600160a01b037f0000000000000000000000000000000000000000000000000000000000000000163003610f095760206040517f360894a13ba1a3210667c828492db98dca3e2076cc3735a920a3ca505d382bbc8152f35b608460405162461bcd60e51b815260206004820152603860248201527f555550535570677261646561626c653a206d757374206e6f742062652063616c60448201527f6c6564207468726f7567682064656c656761746563616c6c00000000000000006064820152fd5b604036600319011261048257610f87611ca3565b60243567ffffffffffffffff811161048257610fa7903690600401611daa565b906001600160a01b03807f00000000000000000000000000000000000000000000000000000000000000001690610fe082301415611f31565b61100f7f360894a13ba1a3210667c828492db98dca3e2076cc3735a920a3ca505d382bbc928284541614611fa2565b6110176122db565b7f4910fdfa16fed3260ed0e7147f7cc6da11a60208b5b9406d12a635614ffd91435460ff161561104d575050610691915061286f565b82919216604051926352d1902d60e01b84526020938481600481865afa5f918161120d575b506110e1576084856040519062461bcd60e51b82526004820152602e60248201527f45524331393637557067726164653a206e657720696d706c656d656e7461746960448201527f6f6e206973206e6f7420555550530000000000000000000000000000000000006064820152fd5b036111a3576110ef8261286f565b7fbc7cd75a20ee27fd9adebab32041f755214dbc6bffa90cc0225b39da2e5c2d3b5f80a282511580159061119b575b61112457005b5f80610691946040519461113786611d34565b602786527f416464726573733a206c6f772d6c6576656c2064656c65676174652063616c6c818701527f206661696c656400000000000000000000000000000000000000000000000000604087015281519101845af461119561291c565b91612b60565b50600161111e565b6084836040519062461bcd60e51b82526004820152602960248201527f45524331393637557067726164653a20756e737570706f727465642070726f7860448201527f6961626c655555494400000000000000000000000000000000000000000000006064820152fd5b9091508581813d8311611235575b6112258183611d6c565b8101031261048257519087611072565b503d61121b565b3461048257604036600319011261048257611255611ca3565b61125d611cb9565b905f549060ff8260081c16158080916116c7575b80156116b0575b1561164657600192818460ff198316175f55611635575b506040519361129d85611d50565b601285526020927f477265656e20476f6f64732047617264656e000000000000000000000000000084870152604051956112d687611d50565b600387527f47474700000000000000000000000000000000000000000000000000000000008588015261131860ff5f5460081c1661131381612533565b612533565b80519067ffffffffffffffff9182811161152a5780611338606554611e4f565b92601f938481116115c8575b508890848311600114611549575f9261153e575b50505f19600383901b1c191690881b176065555b875191821161152a57611380606654611e4f565b8181116114c8575b508590821160011461143b5790806113e493926001600160a01b03969798995f92611430575b50505f19600383901b1c191690881b176066555b6113d660ff5f5460081c1661131381612533565b6113df336125a4565b6125a4565b166001600160a01b031960ca54161760ca556113fc57005b7f7f26b83ff96e1f2b6a682f133852f6798a09c465da95921460cefb38474024989161ff00195f54165f55604051908152a1005b0151905089806113ae565b601f1982169060665f527f46501879b8ca8525e8c2fd519e2fbfcfa2ebea26501294aa02cbfcfb12e94354915f5b8181106114b35750918391899a6113e496956001600160a01b03999a9b951061149b575b505050811b016066556113c2565b01515f1960f88460031b161c1916905589808061148d565b8a830151845592890192918801918801611469565b60665f527f46501879b8ca8525e8c2fd519e2fbfcfa2ebea26501294aa02cbfcfb12e943548280850160051c820192898610611521575b0160051c019088905b828110611516575050611388565b5f8155018890611508565b925081926114ff565b634e487b7160e01b5f52604160045260245ffd5b015190508a80611358565b908a9350601f1983169160655f527f8ff97419363ffd7000167f130ef7168fbea05faf9251824ca5043f113cc6a7c7925f5b8c8282106115b2575050841161159a575b505050811b0160655561136c565b01515f1960f88460031b161c191690558a808061158c565b8385015186558e9790950194938401930161157b565b90915060655f527f8ff97419363ffd7000167f130ef7168fbea05faf9251824ca5043f113cc6a7c78480850160051c8201928b861061162c575b918c91869594930160051c01915b82811061161e575050611344565b5f81558594508c9101611610565b92508192611602565b61ffff1916610101175f558461128f565b608460405162461bcd60e51b815260206004820152602e60248201527f496e697469616c697a61626c653a20636f6e747261637420697320616c72656160448201527f647920696e697469616c697a65640000000000000000000000000000000000006064820152fd5b50303b1580156112785750600160ff841614611278565b50600160ff841610611271565b34610482576106916108576116e836611ccf565b90604051926116f684611d18565b5f84526108476108428433612333565b346104825760208060031936011261048257611720611ca3565b6001600160a01b0391827f00000000000000000000000000000000000000000000000000000000000000001661175881301415611f31565b6117877f360894a13ba1a3210667c828492db98dca3e2076cc3735a920a3ca505d382bbc918583541614611fa2565b61178f6122db565b6040519361179c85611d18565b5f85527f4910fdfa16fed3260ed0e7147f7cc6da11a60208b5b9406d12a635614ffd91435460ff16156117d657505050610691915061286f565b83929316906040516352d1902d60e01b81528481600481865afa5f91816118b0575b50611867576084856040519062461bcd60e51b82526004820152602e60248201527f45524331393637557067726164653a206e657720696d706c656d656e7461746960448201527f6f6e206973206e6f7420555550530000000000000000000000000000000000006064820152fd5b036111a3576118758261286f565b7fbc7cd75a20ee27fd9adebab32041f755214dbc6bffa90cc0225b39da2e5c2d3b5f80a28251158015906118a95761112457005b505f61111e565b9091508581813d83116118d8575b6118c88183611d6c565b81010312610482575190876117f8565b503d6118be565b34610482576106916118f036611ccf565b916118fe6108428433612333565b61240e565b34610482576020366003190112610482576001600160a01b03611924611ca3565b61192c6122db565b166001600160a01b031960ca54161760ca555f80f35b346104825760403660031901126104825761195b611ca3565b602435906001600160a01b0380806119728561205e565b16921691808314611a6557803314908115611a44575b50156119da57825f52606960205260405f20826001600160a01b03198254161790556119b38361205e565b167f8c5be1e5ebec7d5bd14f71427d1e84f3dd0314c0f7b2291e5b200ac8c7c3b9255f80a4005b608460405162461bcd60e51b815260206004820152603d60248201527f4552433732313a20617070726f76652063616c6c6572206973206e6f7420746f60448201527f6b656e206f776e6572206f7220617070726f76656420666f7220616c6c0000006064820152fd5b90505f52606a60205260405f20335f5260205260ff60405f20541684611988565b608460405162461bcd60e51b815260206004820152602160248201527f4552433732313a20617070726f76616c20746f2063757272656e74206f776e6560448201527f72000000000000000000000000000000000000000000000000000000000000006064820152fd5b34610482576020366003190112610482576020610e8e600435611e87565b34610482575f366003190112610482576040516065545f82611b0e83611e4f565b91828252602093600190856001821691825f146109e7575050600114611b3b575061097892500383611d6c565b84915060655f527f8ff97419363ffd7000167f130ef7168fbea05faf9251824ca5043f113cc6a7c7905f915b858310611b7e57505061097893508201018561096b565b80548389018501528794508693909201918101611b67565b3461048257602036600319011261048257600435907fffffffff00000000000000000000000000000000000000000000000000000000821680920361048257817f80ac58cd0000000000000000000000000000000000000000000000000000000060209314908115611c3b575b8115611c11575b5015158152f35b7f01ffc9a70000000000000000000000000000000000000000000000000000000091501483611c0a565b7f5b5e139f0000000000000000000000000000000000000000000000000000000081149150611c03565b91908251928382525f5b848110611c8f575050825f602080949584010152601f8019910116010190565b602081830181015184830182015201611c6f565b600435906001600160a01b038216820361048257565b602435906001600160a01b038216820361048257565b6060906003190112610482576001600160a01b0390600435828116810361048257916024359081168103610482579060443590565b67ffffffffffffffff811161152a57604052565b6020810190811067ffffffffffffffff82111761152a57604052565b6060810190811067ffffffffffffffff82111761152a57604052565b6040810190811067ffffffffffffffff82111761152a57604052565b90601f8019910116810190811067ffffffffffffffff82111761152a57604052565b67ffffffffffffffff811161152a57601f01601f191660200190565b81601f8201121561048257803590611dc182611d8e565b92611dcf6040519485611d6c565b8284526020838301011161048257815f926020809301838601378301015290565b9181601f840112156104825782359167ffffffffffffffff8311610482576020838186019501011161048257565b9181601f840112156104825782359167ffffffffffffffff8311610482576020808501948460051b01011161048257565b90600182811c92168015611e7d575b6020831014611e6957565b634e487b7160e01b5f52602260045260245ffd5b91607f1691611e5e565b611ea8610784825f5260676020526001600160a01b0360405f205416151590565b5f5260696020526001600160a01b0360405f20541690565b15611ec757565b608460405162461bcd60e51b815260206004820152602d60248201527f4552433732313a2063616c6c6572206973206e6f7420746f6b656e206f776e6560448201527f72206f7220617070726f766564000000000000000000000000000000000000006064820152fd5b15611f3857565b608460405162461bcd60e51b815260206004820152602c60248201527f46756e6374696f6e206d7573742062652063616c6c6564207468726f7567682060448201527f64656c656761746563616c6c00000000000000000000000000000000000000006064820152fd5b15611fa957565b608460405162461bcd60e51b815260206004820152602c60248201527f46756e6374696f6e206d7573742062652063616c6c6564207468726f7567682060448201527f6163746976652070726f787900000000000000000000000000000000000000006064820152fd5b1561201a57565b606460405162461bcd60e51b815260206004820152601860248201527f4552433732313a20696e76616c696420746f6b656e20494400000000000000006044820152fd5b5f5260676020526001600160a01b0360405f20541661207e811515612013565b90565b90816020910312610482575180151581036104825790565b9081602091031261048257516001600160a01b03811681036104825790565b908060209392818452848401375f828201840152601f01601f1916010190565b9190808252602080920192915f5b8281106120f4575050505090565b909192938435906001600160a01b0382168092036104825790815282019382019291906001016120e6565b9b9997948c61216b9161207e9f9d99939661215d6121879a96612179986121959f9a6001600160a01b0316865260e0602087015260e08601916120b8565b9260408185039101526120b8565b8c810360608e0152916120b8565b9189830360808b01526120b8565b9186830360a08801526120d8565b9260c08185039101526120d8565b9a989693956121df8c61207e9e9c986122099b966121d16121fb9a966121ed9860c0865260c08601916120b8565b9260208185039101526120b8565b8c810360408e0152916120b8565b9189830360608b01526120b8565b9186830360808801526120d8565b9260a08185039101526120d8565b91908110156104545760051b8101359060de1981360301821215610482570190565b356001600160a01b03811681036104825790565b903590601e1981360301821215610482570180359067ffffffffffffffff821161048257602001918160051b3603831361048257565b67ffffffffffffffff811161152a5760051b60200190565b9190820180921161025757565b903590601e1981360301821215610482570180359067ffffffffffffffff82116104825760200191813603831361048257565b6001600160a01b036097541633036122ef57565b606460405162461bcd60e51b815260206004820152602060248201527f4f776e61626c653a2063616c6c6572206973206e6f7420746865206f776e65726044820152fd5b906001600160a01b0380806123478461205e565b1693169183831493841561237a575b508315612364575b50505090565b61237091929350611e87565b16145f808061235e565b9093505f52606a60205260405f20825f5260205260ff60405f205416925f612356565b156123a457565b608460405162461bcd60e51b815260206004820152602560248201527f4552433732313a207472616e736665722066726f6d20696e636f72726563742060448201527f6f776e65720000000000000000000000000000000000000000000000000000006064820152fd5b906124369161241c8461205e565b916001600160a01b0393849384809416948591161461239d565b169182156124ca57816124539161244c8661205e565b161461239d565b825f52606960205260405f206001600160a01b031990818154169055815f52606860205260405f205f198154019055825f5260405f2060018154019055835f5260676020528260405f20918254161790557fddf252ad1be2c89b69c2b068fc378daa952ba7f163c4a11628f55a4df523b3ef5f80a4565b608460405162461bcd60e51b8152602060048201526024808201527f4552433732313a207472616e7366657220746f20746865207a65726f2061646460448201527f72657373000000000000000000000000000000000000000000000000000000006064820152fd5b1561253a57565b608460405162461bcd60e51b815260206004820152602b60248201527f496e697469616c697a61626c653a20636f6e7472616374206973206e6f74206960448201527f6e697469616c697a696e670000000000000000000000000000000000000000006064820152fd5b609754906001600160a01b0380911691826001600160a01b0319821617609755167f8be0079c531659141344cd1fd0a4f28419497f9722a3daafe3b4186f6b6457e05f80a3565b6001600160a01b0381169081156126c0573b15612696576020600491604051928380927f18160ddd0000000000000000000000000000000000000000000000000000000082525afa908161266b575b506126695760046040517f9904b624000000000000000000000000000000000000000000000000000000008152fd5b565b602090813d831161268f575b6126818183611d6c565b81010312610482575f61263a565b503d612677565b60046040517fd0acc0d3000000000000000000000000000000000000000000000000000000008152fd5b60046040517fd3a3f278000000000000000000000000000000000000000000000000000000008152fd5b906040516126f781611d18565b5f81526001600160a01b0383169182156127b55761266993816108579461273b612735835f5260676020526001600160a01b0360405f205416151590565b15612b15565b61275c612735835f5260676020526001600160a01b0360405f205416151590565b805f52606860205260405f2060018154019055815f52606760205260405f20816001600160a01b03198254161790555f7fddf252ad1be2c89b69c2b068fc378daa952ba7f163c4a11628f55a4df523b3ef8180a461294b565b606460405162461bcd60e51b815260206004820152602060248201527f4552433732313a206d696e7420746f20746865207a65726f20616464726573736044820152fd5b1561280057565b60405162461bcd60e51b815260206004820152603260248201527f4552433732313a207472616e7366657220746f206e6f6e20455243373231526560448201527f63656976657220696d706c656d656e74657200000000000000000000000000006064820152608490fd5b0390fd5b803b156128b2576001600160a01b037f360894a13ba1a3210667c828492db98dca3e2076cc3735a920a3ca505d382bbc91166001600160a01b0319825416179055565b608460405162461bcd60e51b815260206004820152602d60248201527f455243313936373a206e657720696d706c656d656e746174696f6e206973206e60448201527f6f74206120636f6e7472616374000000000000000000000000000000000000006064820152fd5b3d15612946573d9061292d82611d8e565b9161293b6040519384611d6c565b82523d5f602084013e565b606090565b909190803b15612ab15761299c6020916001600160a01b03935f604051958680958194630a85bd0160e11b9a8b84523360048501528560248501526044840152608060648401526084830190611c65565b0393165af15f9181612a54575b50612a2e576129b661291c565b80519081612a295760405162461bcd60e51b815260206004820152603260248201527f4552433732313a207472616e7366657220746f206e6f6e20455243373231526560448201527f63656976657220696d706c656d656e74657200000000000000000000000000006064820152608490fd5b602001fd5b7fffffffff00000000000000000000000000000000000000000000000000000000161490565b9091506020813d602011612aa9575b81612a7060209383611d6c565b8101031261048257517fffffffff000000000000000000000000000000000000000000000000000000008116810361048257905f6129a9565b3d9150612a63565b505050600190565b92909190823b15612b0c5761299c926020925f6001600160a01b0360405180978196829584630a85bd0160e11b9c8d86523360048701521660248501526044840152608060648401526084830190611c65565b50505050600190565b15612b1c57565b606460405162461bcd60e51b815260206004820152601c60248201527f4552433732313a20746f6b656e20616c7265616479206d696e746564000000006044820152fd5b91929015612bc15750815115612b74575090565b3b15612b7d5790565b606460405162461bcd60e51b815260206004820152601d60248201527f416464726573733a2063616c6c20746f206e6f6e2d636f6e74726163740000006044820152fd5b825190915015612bd45750805190602001fd5b61286b9060405191829162461bcd60e51b8352602060048401526024830190611c6556fea164736f6c6343000819000a","linkReferences":{"src/lib/TBA.sol":{"TBALib":[{"start":1064,"length":20},{"start":3560,"length":20}]}}},"methodIdentifiers":{"approve(address,uint256)":"095ea7b3","balanceOf(address)":"70a08231","batchMintGardens((address,string,string,string,string,address[],address[])[])":"f3203ab8","deploymentRegistry()":"c6631092","getApproved(uint256)":"081812fc","initialize(address,address)":"485cc955","isApprovedForAll(address,address)":"e985e9c5","mintGarden(address,string,string,string,string,address[],address[])":"64b6181d","name()":"06fdde03","owner()":"8da5cb5b","ownerOf(uint256)":"6352211e","proxiableUUID()":"52d1902d","renounceOwnership()":"715018a6","safeTransferFrom(address,address,uint256)":"42842e0e","safeTransferFrom(address,address,uint256,bytes)":"b88d4fde","setApprovalForAll(address,bool)":"a22cb465","setDeploymentRegistry(address)":"14902ad3","supportsInterface(bytes4)":"01ffc9a7","symbol()":"95d89b41","tokenURI(uint256)":"c87b56dd","transferFrom(address,address,uint256)":"23b872dd","transferOwnership(address)":"f2fde38b","upgradeTo(address)":"3659cfe6","upgradeToAndCall(address,bytes)":"4f1ef286"},"id":143}