{"abi":[{"type":"constructor","inputs":[{"name":"erc4337EntryPoint","type":"address","internalType":"address"},{"name":"multicallForwarder","type":"address","internalType":"address"},{"name":"erc6551Registry","type":"address","internalType":"address"},{"name":"guardian","type":"address","internalType":"address"},{"name":"workApprovalResolver","type":"address","internalType":"address"},{"name":"assessmentResolver","type":"address","internalType":"address"}],"stateMutability":"nonpayable"},{"type":"fallback","stateMutability":"payable"},{"type":"receive","stateMutability":"payable"},{"type":"function","name":"ASSESSMENT_RESOLVER","inputs":[],"outputs":[{"name":"","type":"address","internalType":"address"}],"stateMutability":"view"},{"type":"function","name":"WORK_APPROVAL_RESOLVER","inputs":[],"outputs":[{"name":"","type":"address","internalType":"address"}],"stateMutability":"view"},{"type":"function","name":"addGardenOperator","inputs":[{"name":"operator","type":"address","internalType":"address"}],"outputs":[],"stateMutability":"nonpayable"},{"type":"function","name":"addGardener","inputs":[{"name":"gardener","type":"address","internalType":"address"}],"outputs":[],"stateMutability":"nonpayable"},{"type":"function","name":"bannerImage","inputs":[],"outputs":[{"name":"","type":"string","internalType":"string"}],"stateMutability":"view"},{"type":"function","name":"communityToken","inputs":[],"outputs":[{"name":"","type":"address","internalType":"address"}],"stateMutability":"view"},{"type":"function","name":"createProjectImpact","inputs":[{"name":"workTitle","type":"string","internalType":"string"},{"name":"impactDescription","type":"string","internalType":"string"},{"name":"proofIPFS","type":"string","internalType":"string"},{"name":"workUID","type":"bytes32","internalType":"bytes32"}],"outputs":[{"name":"","type":"bytes32","internalType":"bytes32"}],"stateMutability":"nonpayable"},{"type":"function","name":"createProjectMilestone","inputs":[{"name":"milestoneTitle","type":"string","internalType":"string"},{"name":"milestoneDescription","type":"string","internalType":"string"},{"name":"milestoneMeta","type":"string","internalType":"string"}],"outputs":[{"name":"","type":"bytes32","internalType":"bytes32"}],"stateMutability":"nonpayable"},{"type":"function","name":"description","inputs":[],"outputs":[{"name":"","type":"string","internalType":"string"}],"stateMutability":"view"},{"type":"function","name":"entryPoint","inputs":[],"outputs":[{"name":"","type":"address","internalType":"contract IEntryPoint"}],"stateMutability":"view"},{"type":"function","name":"erc6551Registry","inputs":[],"outputs":[{"name":"","type":"address","internalType":"address"}],"stateMutability":"view"},{"type":"function","name":"execute","inputs":[{"name":"to","type":"address","internalType":"address"},{"name":"value","type":"uint256","internalType":"uint256"},{"name":"data","type":"bytes","internalType":"bytes"},{"name":"operation","type":"uint8","internalType":"uint8"}],"outputs":[{"name":"","type":"bytes","internalType":"bytes"}],"stateMutability":"payable"},{"type":"function","name":"executeBatch","inputs":[{"name":"operations","type":"tuple[]","internalType":"struct BatchExecutor.Operation[]","components":[{"name":"to","type":"address","internalType":"address"},{"name":"value","type":"uint256","internalType":"uint256"},{"name":"data","type":"bytes","internalType":"bytes"},{"name":"operation","type":"uint8","internalType":"uint8"}]}],"outputs":[{"name":"","type":"bytes[]","internalType":"bytes[]"}],"stateMutability":"payable"},{"type":"function","name":"executeNested","inputs":[{"name":"to","type":"address","internalType":"address"},{"name":"value","type":"uint256","internalType":"uint256"},{"name":"data","type":"bytes","internalType":"bytes"},{"name":"operation","type":"uint8","internalType":"uint8"},{"name":"proof","type":"tuple[]","internalType":"struct NestedAccountExecutor.ERC6551AccountInfo[]","components":[{"name":"salt","type":"bytes32","internalType":"bytes32"},{"name":"tokenContract","type":"address","internalType":"address"},{"name":"tokenId","type":"uint256","internalType":"uint256"}]}],"outputs":[{"name":"","type":"bytes","internalType":"bytes"}],"stateMutability":"payable"},{"type":"function","name":"extcall","inputs":[{"name":"to","type":"address","internalType":"address"},{"name":"value","type":"uint256","internalType":"uint256"},{"name":"data","type":"bytes","internalType":"bytes"}],"outputs":[{"name":"result","type":"bytes","internalType":"bytes"}],"stateMutability":"nonpayable"},{"type":"function","name":"extcreate","inputs":[{"name":"value","type":"uint256","internalType":"uint256"},{"name":"bytecode","type":"bytes","internalType":"bytes"}],"outputs":[{"name":"","type":"address","internalType":"address"}],"stateMutability":"nonpayable"},{"type":"function","name":"extcreate2","inputs":[{"name":"value","type":"uint256","internalType":"uint256"},{"name":"salt","type":"bytes32","internalType":"bytes32"},{"name":"bytecode","type":"bytes","internalType":"bytes"}],"outputs":[{"name":"","type":"address","internalType":"address"}],"stateMutability":"nonpayable"},{"type":"function","name":"extsload","inputs":[{"name":"slot","type":"bytes32","internalType":"bytes32"}],"outputs":[{"name":"value","type":"bytes32","internalType":"bytes32"}],"stateMutability":"view"},{"type":"function","name":"gapProjectUID","inputs":[],"outputs":[{"name":"","type":"bytes32","internalType":"bytes32"}],"stateMutability":"view"},{"type":"function","name":"gardenOperators","inputs":[{"name":"operator","type":"address","internalType":"address"}],"outputs":[{"name":"isOperator","type":"bool","internalType":"bool"}],"stateMutability":"view"},{"type":"function","name":"gardeners","inputs":[{"name":"gardener","type":"address","internalType":"address"}],"outputs":[{"name":"isGardener","type":"bool","internalType":"bool"}],"stateMutability":"view"},{"type":"function","name":"getGAPProjectUID","inputs":[],"outputs":[{"name":"","type":"bytes32","internalType":"bytes32"}],"stateMutability":"view"},{"type":"function","name":"getNonce","inputs":[],"outputs":[{"name":"","type":"uint256","internalType":"uint256"}],"stateMutability":"view"},{"type":"function","name":"initialize","inputs":[{"name":"params","type":"tuple","internalType":"struct GardenAccount.InitParams","components":[{"name":"communityToken","type":"address","internalType":"address"},{"name":"name","type":"string","internalType":"string"},{"name":"description","type":"string","internalType":"string"},{"name":"location","type":"string","internalType":"string"},{"name":"bannerImage","type":"string","internalType":"string"},{"name":"metadata","type":"string","internalType":"string"},{"name":"gardeners","type":"address[]","internalType":"address[]"},{"name":"gardenOperators","type":"address[]","internalType":"address[]"}]}],"outputs":[],"stateMutability":"nonpayable"},{"type":"function","name":"isLocked","inputs":[],"outputs":[{"name":"","type":"bool","internalType":"bool"}],"stateMutability":"view"},{"type":"function","name":"isTrustedForwarder","inputs":[{"name":"forwarder","type":"address","internalType":"address"}],"outputs":[{"name":"","type":"bool","internalType":"bool"}],"stateMutability":"view"},{"type":"function","name":"isValidSignature","inputs":[{"name":"hash","type":"bytes32","internalType":"bytes32"},{"name":"signature","type":"bytes","internalType":"bytes"}],"outputs":[{"name":"magicValue","type":"bytes4","internalType":"bytes4"}],"stateMutability":"view"},{"type":"function","name":"isValidSigner","inputs":[{"name":"signer","type":"address","internalType":"address"},{"name":"data","type":"bytes","internalType":"bytes"}],"outputs":[{"name":"magicValue","type":"bytes4","internalType":"bytes4"}],"stateMutability":"view"},{"type":"function","name":"joinGarden","inputs":[],"outputs":[],"stateMutability":"nonpayable"},{"type":"function","name":"location","inputs":[],"outputs":[{"name":"","type":"string","internalType":"string"}],"stateMutability":"view"},{"type":"function","name":"lock","inputs":[{"name":"_lockedUntil","type":"uint256","internalType":"uint256"}],"outputs":[],"stateMutability":"nonpayable"},{"type":"function","name":"lockedUntil","inputs":[],"outputs":[{"name":"","type":"uint256","internalType":"uint256"}],"stateMutability":"view"},{"type":"function","name":"metadata","inputs":[],"outputs":[{"name":"","type":"string","internalType":"string"}],"stateMutability":"view"},{"type":"function","name":"name","inputs":[],"outputs":[{"name":"","type":"string","internalType":"string"}],"stateMutability":"view"},{"type":"function","name":"onERC1155BatchReceived","inputs":[{"name":"","type":"address","internalType":"address"},{"name":"","type":"address","internalType":"address"},{"name":"","type":"uint256[]","internalType":"uint256[]"},{"name":"","type":"uint256[]","internalType":"uint256[]"},{"name":"","type":"bytes","internalType":"bytes"}],"outputs":[{"name":"","type":"bytes4","internalType":"bytes4"}],"stateMutability":"nonpayable"},{"type":"function","name":"onERC1155Received","inputs":[{"name":"","type":"address","internalType":"address"},{"name":"","type":"address","internalType":"address"},{"name":"","type":"uint256","internalType":"uint256"},{"name":"","type":"uint256","internalType":"uint256"},{"name":"","type":"bytes","internalType":"bytes"}],"outputs":[{"name":"","type":"bytes4","internalType":"bytes4"}],"stateMutability":"nonpayable"},{"type":"function","name":"onERC721Received","inputs":[{"name":"","type":"address","internalType":"address"},{"name":"","type":"address","internalType":"address"},{"name":"tokenId","type":"uint256","internalType":"uint256"},{"name":"","type":"bytes","internalType":"bytes"}],"outputs":[{"name":"","type":"bytes4","internalType":"bytes4"}],"stateMutability":"nonpayable"},{"type":"function","name":"openJoining","inputs":[],"outputs":[{"name":"","type":"bool","internalType":"bool"}],"stateMutability":"view"},{"type":"function","name":"overrides","inputs":[{"name":"","type":"address","internalType":"address"},{"name":"","type":"bytes4","internalType":"bytes4"}],"outputs":[{"name":"","type":"address","internalType":"address"}],"stateMutability":"view"},{"type":"function","name":"owner","inputs":[],"outputs":[{"name":"","type":"address","internalType":"address"}],"stateMutability":"view"},{"type":"function","name":"permissions","inputs":[{"name":"","type":"address","internalType":"address"},{"name":"","type":"address","internalType":"address"}],"outputs":[{"name":"","type":"bool","internalType":"bool"}],"stateMutability":"view"},{"type":"function","name":"proxiableUUID","inputs":[],"outputs":[{"name":"","type":"bytes32","internalType":"bytes32"}],"stateMutability":"view"},{"type":"function","name":"removeGardenOperator","inputs":[{"name":"operator","type":"address","internalType":"address"}],"outputs":[],"stateMutability":"nonpayable"},{"type":"function","name":"removeGardener","inputs":[{"name":"gardener","type":"address","internalType":"address"}],"outputs":[],"stateMutability":"nonpayable"},{"type":"function","name":"setOpenJoining","inputs":[{"name":"_openJoining","type":"bool","internalType":"bool"}],"outputs":[],"stateMutability":"nonpayable"},{"type":"function","name":"setOverrides","inputs":[{"name":"selectors","type":"bytes4[]","internalType":"bytes4[]"},{"name":"implementations","type":"address[]","internalType":"address[]"}],"outputs":[],"stateMutability":"nonpayable"},{"type":"function","name":"setPermissions","inputs":[{"name":"callers","type":"address[]","internalType":"address[]"},{"name":"_permissions","type":"bool[]","internalType":"bool[]"}],"outputs":[],"stateMutability":"nonpayable"},{"type":"function","name":"state","inputs":[],"outputs":[{"name":"","type":"uint256","internalType":"uint256"}],"stateMutability":"view"},{"type":"function","name":"supportsInterface","inputs":[{"name":"interfaceId","type":"bytes4","internalType":"bytes4"}],"outputs":[{"name":"","type":"bool","internalType":"bool"}],"stateMutability":"view"},{"type":"function","name":"token","inputs":[],"outputs":[{"name":"chainId","type":"uint256","internalType":"uint256"},{"name":"tokenContract","type":"address","internalType":"address"},{"name":"tokenId","type":"uint256","internalType":"uint256"}],"stateMutability":"view"},{"type":"function","name":"transferGAPProjectOwnership","inputs":[{"name":"newOwner","type":"address","internalType":"address"}],"outputs":[],"stateMutability":"nonpayable"},{"type":"function","name":"updateBannerImage","inputs":[{"name":"_bannerImage","type":"string","internalType":"string"}],"outputs":[],"stateMutability":"nonpayable"},{"type":"function","name":"updateCommunityToken","inputs":[{"name":"_communityToken","type":"address","internalType":"address"}],"outputs":[],"stateMutability":"nonpayable"},{"type":"function","name":"updateDescription","inputs":[{"name":"_description","type":"string","internalType":"string"}],"outputs":[],"stateMutability":"nonpayable"},{"type":"function","name":"updateLocation","inputs":[{"name":"_location","type":"string","internalType":"string"}],"outputs":[],"stateMutability":"nonpayable"},{"type":"function","name":"updateMetadata","inputs":[{"name":"_metadata","type":"string","internalType":"string"}],"outputs":[],"stateMutability":"nonpayable"},{"type":"function","name":"updateName","inputs":[{"name":"_name","type":"string","internalType":"string"}],"outputs":[],"stateMutability":"nonpayable"},{"type":"function","name":"upgradeTo","inputs":[{"name":"newImplementation","type":"address","internalType":"address"}],"outputs":[],"stateMutability":"nonpayable"},{"type":"function","name":"upgradeToAndCall","inputs":[{"name":"newImplementation","type":"address","internalType":"address"},{"name":"data","type":"bytes","internalType":"bytes"}],"outputs":[],"stateMutability":"payable"},{"type":"function","name":"validateUserOp","inputs":[{"name":"userOp","type":"tuple","internalType":"struct UserOperation","components":[{"name":"sender","type":"address","internalType":"address"},{"name":"nonce","type":"uint256","internalType":"uint256"},{"name":"initCode","type":"bytes","internalType":"bytes"},{"name":"callData","type":"bytes","internalType":"bytes"},{"name":"callGasLimit","type":"uint256","internalType":"uint256"},{"name":"verificationGasLimit","type":"uint256","internalType":"uint256"},{"name":"preVerificationGas","type":"uint256","internalType":"uint256"},{"name":"maxFeePerGas","type":"uint256","internalType":"uint256"},{"name":"maxPriorityFeePerGas","type":"uint256","internalType":"uint256"},{"name":"paymasterAndData","type":"bytes","internalType":"bytes"},{"name":"signature","type":"bytes","internalType":"bytes"}]},{"name":"userOpHash","type":"bytes32","internalType":"bytes32"},{"name":"missingAccountFunds","type":"uint256","internalType":"uint256"}],"outputs":[{"name":"validationData","type":"uint256","internalType":"uint256"}],"stateMutability":"nonpayable"},{"type":"event","name":"AdminChanged","inputs":[{"name":"previousAdmin","type":"address","indexed":false,"internalType":"address"},{"name":"newAdmin","type":"address","indexed":false,"internalType":"address"}],"anonymous":false},{"type":"event","name":"BannerImageUpdated","inputs":[{"name":"updater","type":"address","indexed":true,"internalType":"address"},{"name":"newBannerImage","type":"string","indexed":false,"internalType":"string"}],"anonymous":false},{"type":"event","name":"BeaconUpgraded","inputs":[{"name":"beacon","type":"address","indexed":true,"internalType":"address"}],"anonymous":false},{"type":"event","name":"CommunityTokenUpdated","inputs":[{"name":"updater","type":"address","indexed":true,"internalType":"address"},{"name":"newToken","type":"address","indexed":false,"internalType":"address"}],"anonymous":false},{"type":"event","name":"DescriptionUpdated","inputs":[{"name":"updater","type":"address","indexed":true,"internalType":"address"},{"name":"newDescription","type":"string","indexed":false,"internalType":"string"}],"anonymous":false},{"type":"event","name":"GAPProjectCreated","inputs":[{"name":"projectUID","type":"bytes32","indexed":true,"internalType":"bytes32"},{"name":"gardenAddress","type":"address","indexed":true,"internalType":"address"},{"name":"projectName","type":"string","indexed":false,"internalType":"string"}],"anonymous":false},{"type":"event","name":"GardenOperatorAdded","inputs":[{"name":"updater","type":"address","indexed":true,"internalType":"address"},{"name":"operator","type":"address","indexed":true,"internalType":"address"}],"anonymous":false},{"type":"event","name":"GardenOperatorRemoved","inputs":[{"name":"updater","type":"address","indexed":true,"internalType":"address"},{"name":"operator","type":"address","indexed":true,"internalType":"address"}],"anonymous":false},{"type":"event","name":"GardenerAdded","inputs":[{"name":"updater","type":"address","indexed":true,"internalType":"address"},{"name":"gardener","type":"address","indexed":true,"internalType":"address"}],"anonymous":false},{"type":"event","name":"GardenerRemoved","inputs":[{"name":"updater","type":"address","indexed":true,"internalType":"address"},{"name":"gardener","type":"address","indexed":true,"internalType":"address"}],"anonymous":false},{"type":"event","name":"Initialized","inputs":[{"name":"version","type":"uint8","indexed":false,"internalType":"uint8"}],"anonymous":false},{"type":"event","name":"LocationUpdated","inputs":[{"name":"updater","type":"address","indexed":true,"internalType":"address"},{"name":"newLocation","type":"string","indexed":false,"internalType":"string"}],"anonymous":false},{"type":"event","name":"LockUpdated","inputs":[{"name":"lockedUntil","type":"uint256","indexed":false,"internalType":"uint256"}],"anonymous":false},{"type":"event","name":"MetadataUpdated","inputs":[{"name":"updater","type":"address","indexed":true,"internalType":"address"},{"name":"newMetadata","type":"string","indexed":false,"internalType":"string"}],"anonymous":false},{"type":"event","name":"NameUpdated","inputs":[{"name":"updater","type":"address","indexed":true,"internalType":"address"},{"name":"newName","type":"string","indexed":false,"internalType":"string"}],"anonymous":false},{"type":"event","name":"OverrideUpdated","inputs":[{"name":"owner","type":"address","indexed":false,"internalType":"address"},{"name":"selector","type":"bytes4","indexed":false,"internalType":"bytes4"},{"name":"implementation","type":"address","indexed":false,"internalType":"address"}],"anonymous":false},{"type":"event","name":"PermissionUpdated","inputs":[{"name":"owner","type":"address","indexed":false,"internalType":"address"},{"name":"caller","type":"address","indexed":false,"internalType":"address"},{"name":"hasPermission","type":"bool","indexed":false,"internalType":"bool"}],"anonymous":false},{"type":"event","name":"Upgraded","inputs":[{"name":"implementation","type":"address","indexed":true,"internalType":"address"}],"anonymous":false},{"type":"error","name":"AccountLocked","inputs":[]},{"type":"error","name":"AlreadyGardener","inputs":[]},{"type":"error","name":"ContractCreationFailed","inputs":[]},{"type":"error","name":"ExceedsMaxLockTime","inputs":[]},{"type":"error","name":"GAPImpactCreationFailed","inputs":[]},{"type":"error","name":"GAPMilestoneCreationFailed","inputs":[]},{"type":"error","name":"GAPNotSupportedOnChain","inputs":[]},{"type":"error","name":"GAPOwnershipTransferFailed","inputs":[]},{"type":"error","name":"GAPProjectNotInitialized","inputs":[]},{"type":"error","name":"InvalidAccountProof","inputs":[]},{"type":"error","name":"InvalidERC6551Registry","inputs":[]},{"type":"error","name":"InvalidEntryPoint","inputs":[]},{"type":"error","name":"InvalidGAPOwner","inputs":[]},{"type":"error","name":"InvalidImplementation","inputs":[]},{"type":"error","name":"InvalidInput","inputs":[]},{"type":"error","name":"InvalidInvite","inputs":[]},{"type":"error","name":"InvalidMulticallForwarder","inputs":[]},{"type":"error","name":"InvalidOperation","inputs":[]},{"type":"error","name":"KarmaGAPNotSupported","inputs":[]},{"type":"error","name":"NotAuthorized","inputs":[]},{"type":"error","name":"NotAuthorizedCaller","inputs":[]},{"type":"error","name":"NotGardenOperator","inputs":[]},{"type":"error","name":"NotGardenOwner","inputs":[]},{"type":"error","name":"OwnershipCycle","inputs":[]},{"type":"error","name":"TooManyGardeners","inputs":[]},{"type":"error","name":"TooManyOperators","inputs":[]}],"bytecode":{"object":"0x6101803461025657601f616ecb38819003918201601f1916830191906001600160401b0383118484101761025a578160c092859260409586528339810103126102565761004b8261026e565b6100576020840161026e565b9261006383820161026e565b916100706060830161026e565b9461008960a06100826080860161026e565b940161026e565b936001600160a01b039283168015610245576080523060a052828116156102355760c05260e081905281161561022457610100941684526101209230845261014091825261016092835260045460ff8160081c166101d05760ff80821603610196575b505192616c4894856102838639608051858181611136015281816122f2015281816125bc0152614290015260a051858181612d6b01526156d1015260c05185818161061801528181612d8c01526156f3015260e0518581816119c80152818161587801526167360152518481816143750152614586015251838181610dba0152818161158901526118f8015251828181611a730152612523015251818181610f8b0152611cda0152f35b60ff90811916176004557f7f26b83ff96e1f2b6a682f133852f6798a09c465da95921460cefb38474024986020825160ff8152a15f6100ec565b815162461bcd60e51b815260206004820152602760248201527f496e697469616c697a61626c653a20636f6e747261637420697320696e697469604482015266616c697a696e6760c81b6064820152608490fd5b835163754c753360e11b8152600490fd5b85516246a29560e81b8152600490fd5b8651632039d3c960e01b8152600490fd5b5f80fd5b634e487b7160e01b5f52604160045260245ffd5b51906001600160a01b03821682036102565756fe60806040526004361015610026575b361561001e5761001c613fec565b005b61001c613fec565b5f3560e01c806301ffc9a7146103e0578063039721b1146103db578063056d5afe146103d657806306fdde03146103d1578063150b7a02146103cc5780631626ba7e146103c75780631e2eaeaf146103c25780631f6e45e3146103bd5780631f9838b5146103b85780631fb1ecf0146103b3578063291d0548146103ae57806329aa1617146103a957806334715fb1146103a45780633659cfe61461039f578063392f37e91461039a5780633a208f95146103955780633a25bc32146103905780633a871cdd1461038b57806343629a731461038657806345a24e3e1461038157806347ed89471461037c5780634b511903146103775780634f1ef28614610372578063516f279e1461036d578063519454471461036857806352094e5514610363578063523e32601461035e57806352d1902d14610359578063572b6c05146103545780635bcf5dce1461034f5780637284e4161461034a5780637597bc7c146103455780637a8f73561461034057806381eec6bb1461033b57806384da92a7146103365780638da5cb5b14610331578063918b5be11461032c578063932354c11461032757806394def29d1461032257806398b7a25a1461031d578063a4e2d63414610318578063adbce85e14610313578063b0d691fe1461030e578063b10006a614610309578063b709467c14610304578063bc197c81146102ff578063bcc5cf88146102fa578063c19d93fb146102f5578063ce0617ec146102f0578063d087d288146102eb578063dd467064146102e6578063e735b48a146102e1578063eaff6dc9146102dc578063ee9c6054146102d7578063eeb97057146102d2578063eed9df74146102cd578063f23a6e61146102c8578063f7fc57b0146102c3578063f89b9b93146102c35763fc0c546a0361000e57612b36565b612b19565b612ab8565b6129e2565b612932565b6128de565b612828565b6126da565b612637565b61258b565b61256f565b612552565b61250e565b61246e565b6123a7565b612321565b6122dd565b612230565b612212565b612193565b612100565b611fb2565b611e64565b611e47565b611d0f565b611c62565b611b29565b611ae9565b611ace565b6119fc565b6119a4565b6118e6565b61189e565b61173e565b611693565b611678565b611548565b61148a565b611380565b611331565b61124f565b611100565b610fba565b610f76565b610ecc565b610d93565b610d38565b610d0c565b610cea565b610c51565b610bef565b610baf565b610b17565b610ac6565b6109e9565b61090d565b610603565b6104a6565b6103fb565b6001600160e01b03198116036103f757565b5f80fd5b346103f75760203660031901126103f757602061042260043561041d816103e5565b612b6d565b6040519015158152f35b9181601f840112156103f7578235916001600160401b0383116103f7576020808501948460051b0101116103f757565b60406003198201126103f7576001600160401b03916004358381116103f757826104889160040161042c565b939093926024359182116103f7576104a29160040161042c565b9091565b346103f7576104b43661045c565b92906104cf6104ca6104c4613f2e565b916155f4565b6156ce565b6001600160a01b03811680156105c85733036105c8576104ed613f8b565b8385036105b6575f5b8481106104ff57005b8061054e6105186105136001948a88612c6b565b612c80565b61053d61052486610b36565b610537610532868c8c612c6b565b612c8a565b90610b9a565b9060ff801983541691151516179055565b7f394777a58092892d136a90c4bb7e4350c72ac50fba6a0208128677f36527dcf561057d610532838989612c6b565b61058b610513848b89612c6b565b604080516001600160a01b03888116825293909316602084015290151590820152606090a1016104f6565b60405163b4fa3fb360e01b8152600490fd5b60405163ea8e4eb560e01b8152600490fd5b5f9103126103f757565b6001600160a01b031690565b6001600160a01b03909116815260200190565b346103f7575f3660031901126103f7576040517f00000000000000000000000000000000000000000000000000000000000000006001600160a01b03168152602090f35b90600182811c92168015610675575b602083101461066157565b634e487b7160e01b5f52602260045260245ffd5b91607f1691610656565b634e487b7160e01b5f52604160045260245ffd5b6001600160401b0381116106a657604052565b61067f565b604081019081106001600160401b038211176106a657604052565b602081019081106001600160401b038211176106a657604052565b606081019081106001600160401b038211176106a657604052565b601f909101601f19168101906001600160401b038211908210176106a657604052565b604051905f826005549161073283610647565b80835260209360019081811690811561079d575060011461075e575b505061075c925003836106fc565b565b9093915060055f52815f20935f915b81831061078557505061075c93508201015f8061074e565b8554888401850152948501948794509183019161076d565b91505061075c94925060ff191682840152151560051b8201015f8061074e565b604051905f82600754916107d083610647565b80835260209360019081811690811561079d57506001146107f957505061075c925003836106fc565b9093915060075f52815f20935f915b81831061082057505061075c93508201015f8061074e565b85548884018501529485019487945091830191610808565b604051905f826006549161084b83610647565b80835260209360019081811690811561079d575060011461087457505061075c925003836106fc565b9093915060065f52815f20935f915b81831061089b57505061075c93508201015f8061074e565b85548884018501529485019487945091830191610883565b5f5b8381106108c45750505f910152565b81810151838201526020016108b5565b906020916108ed815180928185528580860191016108b3565b601f01601f1916010190565b90602061090a9281815201906108d4565b90565b346103f7575f3660031901126103f75761093c61092861071f565b6040519182916020835260208301906108d4565b0390f35b6001600160a01b038116036103f757565b6040519060c082016001600160401b038111838210176106a657604052565b6040519061075c826106ab565b6001600160401b0381116106a657601f01601f191660200190565b9291926109a48261097d565b916109b260405193846106fc565b8294818452818301116103f7578281602093845f960137010152565b9080601f830112156103f75781602061090a93359101610998565b346103f75760803660031901126103f757610a05600435610940565b610a10602435610940565b6064356001600160401b0381116103f757610a2f9036906004016109ce565b50610a38613f2e565b919060018060a01b031633149182610a8d575b5081610a83575b50610a7157610a5f613fec565b604051630a85bd0160e11b8152602090f35b60405163b79e3f3f60e01b8152600490fd5b905046145f610a52565b6044351491505f610a4b565b9181601f840112156103f7578235916001600160401b0383116103f757602083818601950101116103f757565b346103f75760403660031901126103f7576024356001600160401b0381116103f757610b04610afb6020923690600401610a99565b90600435612ca1565b6040516001600160e01b03199091168152f35b346103f75760203660031901126103f757602060043554604051908152f35b6001600160a01b03165f90815260026020526040902090565b6001600160a01b03165f90815260016020526040902090565b6001600160a01b03165f908152600a6020526040902090565b6001600160a01b03165f908152600b6020526040902090565b9060018060a01b03165f5260205260405f2090565b346103f75760203660031901126103f757600435610bcc81610940565b60018060a01b03165f52600a602052602060ff60405f2054166040519015158152f35b346103f75760403660031901126103f757602060ff610c3a600435610c1381610940565b60243590610c2082610940565b6001600160a01b03165f9081526002855260409020610b9a565b54166040519015158152f35b60ff8116036103f757565b60a03660031901126103f757600435610c6981610940565b6001600160401b036044358181116103f757610c89903690600401610a99565b919092606435610c9881610c46565b608435938385116103f757366023860112156103f75784600401359384116103f75736602460608602870101116103f75761093c956024610cde96019360243590612d04565b604051918291826108f9565b346103f7575f3660031901126103f757602060ff600c54166040519015158152f35b346103f7575f3660031901126103f75760045460405160109190911c6001600160a01b03168152602090f35b346103f75760603660031901126103f7576044356001600160401b0381116103f757610d81610d6d6020923690600401610a99565b90610d7661450e565b602435600435614528565b6040516001600160a01b039091168152f35b346103f75760203660031901126103f757600435610db081610940565b6001600160a01b037f000000000000000000000000000000000000000000000000000000000000000081169190610de930841415612ee3565b610e055f80516020616b3c833981519152938285541614612f31565b610e0e82614562565b60405190610e1b826106c6565b5f82525f80516020616a7c8339815191525460ff1615610e4157505061001c91506159a9565b6020600491604094939451928380926352d1902d60e01b825286165afa5f9181610e9b575b50610e885760405162461bcd60e51b815280610e8460048201614667565b0390fd5b61001c93610e969114614609565b61596b565b610ebe91925060203d602011610ec5575b610eb681836106fc565b810190613a26565b905f610e66565b503d610eac565b346103f7575f3660031901126103f7576040515f90600954610eed81610647565b808352602091600190818116908115610f565750600114610f19575b61093c84610cde818803826106fc565b91935060095f52835f20915f925b828410610f43575050508161093c93610cde9282010193610f09565b8054858501870152928501928101610f27565b60ff1916858501525050151560051b8201019150610cde8161093c610f09565b346103f7575f3660031901126103f7576040517f00000000000000000000000000000000000000000000000000000000000000006001600160a01b03168152602090f35b346103f75760203660031901126103f75760048035610fd881610940565b610fe0615875565b906040915f8351610ff0816106c6565b52610ffa816146b6565b1590816110df575b506110d157600d5480156110c25761101f61101b614703565b1590565b6110b3576001600160a01b038216156110a457611045611040611040614788565b6105e4565b91823b156103f75761106e925f9283865180968195829463a544d74760e01b84528b8401612fed565b03925af1908161108b575b5061001c575163d89e749560e01b8152fd5b8061109861109e92610693565b806105da565b5f611079565b5050516345e4f56560e01b8152fd5b5050516384352a0160e01b8152fd5b5050516304f102a360e01b8152fd5b5051633cebab8560e21b8152fd5b6001600160a01b03165f908152600b6020528381205460ff16159150611002565b346103f7576003196060368201126103f757600435906001600160401b0382116103f7576101609082360301126103f7576044357f00000000000000000000000000000000000000000000000000000000000000006001600160a01b031633036111a85761117761093c92602435906004016147ec565b908061118f575b506040519081529081906020820190565b5f80808093338219f1506111a1613eff565b505f61117e565b60405162461bcd60e51b815260206004820152601c60248201527b1858d8dbdd5b9d0e881b9bdd08199c9bdb48115b9d1c9e541bda5b9d60221b6044820152606490fd5b6020808201906020835283518092526040830192602060408460051b8301019501935f915b8483106112215750505050505090565b909192939495848061123f600193603f198682030187528a516108d4565b9801930193019194939290611211565b6020806003193601126103f7576004356001600160401b0381116103f75761127b90369060040161042c565b9161128f61101b61128a615875565b614283565b6105c85761129b613f8b565b6112a483613006565b925f5b8181106112bc576040518061093c87826111ec565b806113156112d0610532600194868961304f565b8487876112de86848461304f565b013561130f6060611309886113016112f782898961304f565b6040810190613071565b97909661304f565b016130a3565b93614402565b61131f82886130ad565b5261132a81876130ad565b50016112a7565b346103f75760403660031901126103f7576024356001600160401b0381116103f757610d816113786113696020933690600401610a99565b61137161450e565b3691610998565b60043561483b565b346103f7576003196020368201126103f757600435906001600160401b0382116103f7576101009082360301126103f7576113f9600454916113d960ff8460081c16158094819561147c575b811561145c575b506130c1565b826113ec600160ff196004541617600455565b611443575b6004016136c7565b6113ff57005b61140f61ff001960045416600455565b604051600181527f7f26b83ff96e1f2b6a682f133852f6798a09c465da95921460cefb38474024989080602081015b0390a1005b61145761010061ff00196004541617600455565b6113f1565b303b1591508161146e575b505f6113d3565b6001915060ff16145f611467565b600160ff82161091506113cc565b346103f75760203660031901126103f7576004356114a781610940565b6114af615875565b5f6040516114bc816106c6565b526114c6816146b6565b1580611526575b6115145760207f1b5431099f08d34c1b67c3baba09da48c205d66021df446f824be5c7f86be7d5916114fe84613159565b6040516001600160a01b039485168152931692a2005b604051633cebab8560e21b8152600490fd5b506001600160a01b0381165f908152600b602052604090205460ff16156114cd565b60403660031901126103f75760043561156081610940565b6024356001600160401b0381116103f75761157f9036906004016109ce565b6001600160a01b037f000000000000000000000000000000000000000000000000000000000000000081169291906115b930851415612ee3565b6115d55f80516020616b3c833981519152948286541614612f31565b6115de83614562565b5f80516020616a7c8339815191525460ff161561160157505061001c91506159a9565b6020600491604094939451928380926352d1902d60e01b825286165afa5f9181611657575b506116445760405162461bcd60e51b815280610e8460048201614667565b61001c936116529114614609565b6158c7565b61167191925060203d602011610ec557610eb681836106fc565b905f611626565b346103f7575f3660031901126103f75761093c6109286107bd565b60803660031901126103f7576004356116ab81610940565b6044356001600160401b0381116103f7576116ca903690600401610a99565b606492919235906116da82610c46565b6116e561128a615875565b156105c85761093c93610928936116fa613f8b565b60243590614402565b60206003198201126103f757600435906001600160401b0382116103f757806023830112156103f75781602461090a93600401359101610998565b346103f75761174c36611703565b611754615875565b5f604051611761816106c6565b5261176b816146b6565b158061187c575b6115145781516001600160401b0381116106a65761179a81611795600854610647565b613182565b602080601f83116001146117fb5750916117ce826117eb935f80516020616adc833981519152955f916117f0575b50613312565b6008555b6040516001600160a01b039091169390918291826108f9565b0390a2005b90508601515f6117c8565b60085f5290601f1983165f80516020616bbc833981519152925f905b828210611864575050925f80516020616adc8339815191529492600192826117eb961061184c575b5050811b016008556117d2565b8701515f1960f88460031b161c191690555f8061183f565b80600185968294968b01518155019501930190611817565b506001600160a01b0381165f908152600b602052604090205460ff1615611772565b346103f75760403660031901126103f7576004356118bb81610940565b6024356001600160401b0381116103f7576020916118e0610b04923690600401610a99565b916139d7565b346103f7575f3660031901126103f7577f00000000000000000000000000000000000000000000000000000000000000006001600160a01b0316300361193e576040515f80516020616b3c8339815191528152602090f35b60405162461bcd60e51b815260206004820152603860248201527f555550535570677261646561626c653a206d757374206e6f742062652063616c6044820152771b1959081d1a1c9bdd59da0819195b1959d85d1958d85b1b60421b6064820152608490fd5b346103f75760203660031901126103f75760206004356119c381610940565b6040517f00000000000000000000000000000000000000000000000000000000000000006001600160a01b039081169216919091148152f35b346103f75760803660031901126103f7576001600160401b036004358181116103f757611a2d903690600401610a99565b906024358381116103f757611a46903690600401610a99565b90936044359081116103f757611a60903690600401610a99565b91611a69615875565b6001600160a01b037f00000000000000000000000000000000000000000000000000000000000000008116911603611abc5761093c95611aac9560643595613aaa565b6040519081529081906020820190565b604051637046c88d60e01b8152600490fd5b346103f7575f3660031901126103f75761093c610928610838565b346103f75760203660031901126103f757600435611b0681610940565b60018060a01b03165f52600b602052602060ff60405f2054166040519015158152f35b346103f757611b373661045c565b9290611b476104ca6104c4613f2e565b6001600160a01b03811680156105c85733036105c857611b65613f8b565b611b6e306153eb565b3b15611c54575b8385036105b6575f5b848110611b8757005b80611bdf611b9b6105326001948a88612c6b565b611bc0611ba786610b4f565b611bba611bb5868c8c612c6b565b613c1b565b906128c8565b80546001600160a01b0319166001600160a01b03909216919091179055565b7f2c722487e90aca38ec1b074c3403210bd2bfb769b4da7f12f7bf0b9e37517c18611c0e611bb5838989612c6b565b611c1c610532848b89612c6b565b604080516001600160a01b0380891682526001600160e01b03199094166020820152929091169082015280606081010390a101611b7e565b611c5d30615427565b611b75565b346103f75760603660031901126103f7576001600160401b036004358181116103f757611c93903690600401610a99565b916024358181116103f757611cac903690600401610a99565b916044359081116103f757611cc5903690600401610a99565b929091611cd0615875565b6001600160a01b037f00000000000000000000000000000000000000000000000000000000000000008116911603611abc5761093c95611aac95613c8f565b346103f757611d1d36611703565b611d25615875565b5f604051611d32816106c6565b52611d3c816146b6565b15611e355781516001600160401b0381116106a657611d6581611d60600554610647565b6131d2565b602080601f8311600114611db4575091611d98826117eb935f80516020616a5c833981519152955f916117f05750613312565b6005556040516001600160a01b039091169390918291826108f9565b60055f5290601f1983165f80516020616a3c833981519152925f905b828210611e1d575050925f80516020616a5c8339815191529492600192826117eb9610611e05575b5050811b016005556117d2565b8701515f1960f88460031b161c191690555f80611df8565b80600185968294968b01518155019501930190611dd0565b604051633632b98960e21b8152600490fd5b346103f7575f3660031901126103f7576020610d816104c4613f2e565b346103f757611e7236611703565b611e7a615875565b5f604051611e87816106c6565b52611e91816146b6565b1580611f90575b6115145781516001600160401b0381116106a657611ec081611ebb600954610647565b613222565b602080601f8311600114611f0f575091611ef3826117eb935f80516020616b5c833981519152955f916117f05750613312565b6009556040516001600160a01b039091169390918291826108f9565b60095f5290601f1983165f80516020616bdc833981519152925f905b828210611f78575050925f80516020616b5c8339815191529492600192826117eb9610611f60575b5050811b016009556117d2565b8701515f1960f88460031b161c191690555f80611f53565b80600185968294968b01518155019501930190611f2b565b506001600160a01b0381165f908152600b602052604090205460ff1615611e98565b346103f757611fc036611703565b611fc8615875565b5f604051611fd5816106c6565b52611fdf816146b6565b15806120de575b6115145781516001600160401b0381116106a65761200e81612009600754610647565b613272565b602080601f831160011461205d575091612041826117eb935f80516020616a9c833981519152955f916117f05750613312565b6007556040516001600160a01b039091169390918291826108f9565b60075f5290601f1983165f80516020616afc833981519152925f905b8282106120c6575050925f80516020616a9c8339815191529492600192826117eb96106120ae575b5050811b016007556117d2565b8701515f1960f88460031b161c191690555f806120a1565b80600185968294968b01518155019501930190612079565b506001600160a01b0381165f908152600b602052604090205460ff1615611fe6565b346103f7575f3660031901126103f7576040515f9060085461212181610647565b808352602091600190818116908115610f56575060011461214c5761093c84610cde818803826106fc565b91935060085f52835f20915f925b828410612176575050508161093c93610cde9282010193610f09565b805485850187015292850192810161215a565b801515036103f757565b346103f75760203660031901126103f7576004356121b081612189565b6121b8615875565b5f6040516121c5816106c6565b526121cf816146b6565b1590816121f0575b506115145760ff8019600c54169115151617600c555f80f35b6001600160a01b03165f908152600b602052604081205460ff161591506121d7565b346103f7575f3660031901126103f75760205f546040519042108152f35b346103f75760203660031901126103f75760043561224d81610940565b612255615875565b5f604051612262816106c6565b5261226c816146b6565b15611e355760018060a01b0380831691825f52600b60205260405f2060ff198154169055167fdd1e1c7c82ab1f3ed1b1656e8200309ebf9f682a74ce7737d3bfde87a7fecb085f80a36122bd614703565b806122d2575b6122c957005b61001c90615664565b50600d5415156122c3565b346103f7575f3660031901126103f7576040517f00000000000000000000000000000000000000000000000000000000000000006001600160a01b03168152602090f35b346103f7575f3660031901126103f75760ff600c54161561239557612344615875565b60ff61234f82610b68565b54166123835761236661236182610b68565b612c94565b6001600160a01b0316305f80516020616b7c8339815191525f80a3005b60405163211bad0f60e11b8152600490fd5b604051636dc9375d60e11b8152600490fd5b346103f75760603660031901126103f7576004356123c481610940565b6044356001600160401b0381116103f75761093c916123ed611369610928933690600401610a99565b90602435906156a6565b6001600160401b0381116106a65760051b60200190565b9080601f830112156103f7576020908235612428816123f7565b9361243660405195866106fc565b81855260208086019260051b8201019283116103f757602001905b82821061245f575050505090565b81358152908301908301612451565b346103f75760a03660031901126103f75761248a600435610940565b612495602435610940565b6001600160401b036044358181116103f7576124b590369060040161240e565b506064358181116103f7576124ce90369060040161240e565b506084359081116103f7576124e79036906004016109ce565b5061093c6124f3613e6d565b6040516001600160e01b031990911681529081906020820190565b346103f7575f3660031901126103f7576040517f00000000000000000000000000000000000000000000000000000000000000006001600160a01b03168152602090f35b346103f7575f3660031901126103f7576020600354604051908152f35b346103f7575f3660031901126103f75760205f54604051908152f35b346103f7575f3660031901126103f757604051631aab3f0d60e11b81523060048201525f60248201526020816044817f00000000000000000000000000000000000000000000000000000000000000006001600160a01b03165afa8015612632575f906125fe575b604051908152602090f35b506020813d60201161262a575b81612618602093836106fc565b810103126103f75761093c90516125f3565b3d915061260b565b612ce4565b346103f75760203660031901126103f7576004356104ca61266b612659613f2e565b6001600160a01b0394929091906155f4565b1680156105c85733036105c85761268142613e94565b81116126c85761143e7fa7b24c66dd3269a292a60b3facdbb8f3e7557d1e19e64d99e0d6ee7250be63ad916126b4613f8b565b805f55604051918291829190602083019252565b6040516301814f7d60e31b8152600490fd5b346103f7576126e836611703565b6126f0615875565b5f6040516126fd816106c6565b52612707816146b6565b1580612806575b6115145781516001600160401b0381116106a65761273681612731600654610647565b6132c2565b602080601f8311600114612785575091612769826117eb935f80516020616a1c833981519152955f916117f05750613312565b6006556040516001600160a01b039091169390918291826108f9565b60065f5290601f1983165f80516020616bfc833981519152925f905b8282106127ee575050925f80516020616a1c8339815191529492600192826117eb96106127d6575b5050811b016006556117d2565b8701515f1960f88460031b161c191690555f806127c9565b80600185968294968b015181550195019301906127a1565b506001600160a01b0381165f908152600b602052604090205460ff161561270e565b346103f75760203660031901126103f75760043561284581610940565b61284d615875565b905f60405161285b816106c6565b52612865826146b6565b15806128a6575b6115145760018060a01b0380911691825f52600a60205260405f20600160ff19825416179055165f80516020616b7c8339815191525f80a3005b506001600160a01b0382165f908152600b602052604090205460ff161561286c565b9063ffffffff60e01b165f5260205260405f2090565b346103f75760403660031901126103f75760206004356128fd81610940565b61292860243561290c816103e5565b6001600160a01b039283165f90815260018552604090206128c8565b5416604051908152f35b346103f75760203660031901126103f75760043561294f81610940565b612957615875565b905f604051612965816106c6565b5261296f826146b6565b15806129c0575b6115145760018060a01b0380911691825f52600a60205260405f2060ff198154169055167f8a44d725ac751003f7f644f7ce70382fa06f348023717d057b7aa5c8778770d25f80a3005b506001600160a01b0382165f908152600b602052604090205460ff1615612976565b346103f75760203660031901126103f7576004356129ff81610940565b612a07615875565b5f604051612a14816106c6565b52612a1e816146b6565b1580612a96575b6115145760018060a01b0380831691825f52600b60205260405f20600160ff19825416179055600a602052612a5c60405f20612c94565b165f80516020616c1c8339815191525f80a3612a76614703565b80612a8b575b612a8257005b61001c90614c44565b50600d541515612a7c565b506001600160a01b0381165f908152600b602052604090205460ff1615612a25565b346103f75760a03660031901126103f757612ad4600435610940565b612adf602435610940565b6084356001600160401b0381116103f757612afe9036906004016109ce565b50612b07613fec565b60405163f23a6e6160e01b8152602090f35b346103f7575f3660031901126103f7576020600d54604051908152f35b346103f7575f3660031901126103f7576060612b50613f2e565b604080519384526001600160a01b03909216602084015290820152f35b6001600160e01b0319908116635194544760e01b8114908115612c12575b50612c0c57612bcd612bb7916104ca612ba2613f2e565b6001600160a01b0396879490939092906155f4565b165f52600160205260405f20905f3516906128c8565b541680612bd957505f90565b5f809160405180612bea8136613c69565b03915afa612bf6613eff565b9015612c0457602081519101f35b602081519101fd5b50600190565b636faff5f160e01b811491508115612c2c575b505f612b8b565b630271189760e51b811491508115612c46575b505f612c25565b6301ffc9a760e01b1490505f612c3f565b634e487b7160e01b5f52603260045260245ffd5b9190811015612c7b5760051b0190565b612c57565b3561090a81612189565b3561090a81610940565b805460ff19166001179055565b90612cac9291614121565b612cb4575f90565b630b135d3f60e11b90565b9190811015612c7b576060020190565b908160209103126103f7575161090a81612189565b6040513d5f823e3d90fd5b908160209103126103f7575161090a81610940565b95949091929394612d13615875565b915f915b808310612d425750505061101b612d2d91614283565b6105c85761090a94612d3d613f8b565b614402565b909192612d50848385612cbf565b90612d5d60208301612c8a565b612db06040840135824686357f00000000000000000000000000000000000000000000000000000000000000007f00000000000000000000000000000000000000000000000000000000000000006141fc565b92813b15612e2857833b612e6b575b604080516331a9108f60e11b815291013560048201529190602090839060249082906001600160a01b03165afa5f9281612e3a575b50612e0b57604051631052dd2560e21b8152600490fd5b6001600160a01b03908116911603612e2857926001019190612d17565b604051631052dd2560e21b8152600490fd5b612e5d91935060203d602011612e64575b612e5581836106fc565b810190612cef565b915f612df4565b503d612e4b565b604051632938b58d60e21b815260049060208183816001600160a01b038a165afa908115612632575f91612eb4575b50612ea55750612dbf565b604051636315bfbb60e01b8152fd5b612ed6915060203d602011612edc575b612ece81836106fc565b810190612ccf565b5f612e9a565b503d612ec4565b15612eea57565b60405162461bcd60e51b815260206004820152602c60248201525f80516020616b1c83398151915260448201526b19195b1959d85d1958d85b1b60a21b6064820152608490fd5b15612f3857565b60405162461bcd60e51b815260206004820152602c60248201525f80516020616b1c83398151915260448201526b6163746976652070726f787960a01b6064820152608490fd5b60405190612f8c826106c6565b5f8252565b6040519060a082016001600160401b038111838210176106a6576040526080808352366020840137565b90612fc58261097d565b612fd260405191826106fc565b8281528092612fe3601f199161097d565b0190602036910137565b9081526001600160a01b03909116602082015260400190565b90613010826123f7565b61301d60405191826106fc565b828152809261302e601f19916123f7565b01905f5b82811061303e57505050565b806060602080938501015201613032565b9190811015612c7b5760051b81013590607e19813603018212156103f7570190565b903590601e19813603018212156103f757018035906001600160401b0382116103f7576020019181360383136103f757565b3561090a81610c46565b8051821015612c7b5760209160051b010190565b156130c857565b60405162461bcd60e51b815260206004820152602e60248201527f496e697469616c697a61626c653a20636f6e747261637420697320616c72656160448201526d191e481a5b9a5d1a585b1a5e995960921b6064820152608490fd5b903590601e19813603018212156103f757018035906001600160401b0382116103f757602001918160051b360383136103f757565b6004805462010000600160b01b03191660109290921b62010000600160b01b0316919091179055565b601f811161318e575050565b60085f5260205f20906020601f840160051c830193106131c8575b601f0160051c01905b8181106131bd575050565b5f81556001016131b2565b90915081906131a9565b601f81116131de575050565b60055f5260205f20906020601f840160051c83019310613218575b601f0160051c01905b81811061320d575050565b5f8155600101613202565b90915081906131f9565b601f811161322e575050565b60095f5260205f20906020601f840160051c83019310613268575b601f0160051c01905b81811061325d575050565b5f8155600101613252565b9091508190613249565b601f811161327e575050565b60075f5260205f20906020601f840160051c830193106132b8575b601f0160051c01905b8181106132ad575050565b5f81556001016132a2565b9091508190613299565b601f81116132ce575050565b60065f5260205f20906020601f840160051c83019310613308575b601f0160051c01905b8181106132fd575050565b5f81556001016132f2565b90915081906132e9565b8160011b915f199060031b1c19161790565b91906001600160401b0381116106a65761334381611d60600554610647565b5f601f821160011461337457819061336493945f92613369575b5050613312565b600555565b013590505f8061335d565b60055f52601f198216935f80516020616a3c833981519152915f5b8681106133c657508360019596106133ad575b505050811b01600555565b01355f19600384901b60f8161c191690555f80806133a2565b9092602060018192868601358155019401910161338f565b91906001600160401b0381116106a6576133fd81612731600654610647565b5f601f821160011461342257819061341d93945f92613369575050613312565b600655565b60065f52601f198216935f80516020616bfc833981519152915f5b868110613474575083600195961061345b575b505050811b01600655565b01355f19600384901b60f8161c191690555f8080613450565b9092602060018192868601358155019401910161343d565b91906001600160401b0381116106a6576134ab81612009600754610647565b5f601f82116001146134d05781906134cb93945f92613369575050613312565b600755565b60075f52601f198216935f80516020616afc833981519152915f5b8681106135225750836001959610613509575b505050811b01600755565b01355f19600384901b60f8161c191690555f80806134fe565b909260206001819286860135815501940191016134eb565b91906001600160401b0381116106a65761355981611795600854610647565b5f601f821160011461357e57819061357993945f92613369575050613312565b600855565b60085f52601f198216935f80516020616bbc833981519152915f5b8681106135d057508360019596106135b7575b505050811b01600855565b01355f19600384901b60f8161c191690555f80806135ac565b90926020600181928686013581550194019101613599565b91906001600160401b0381116106a65761360781611ebb600954610647565b5f601f821160011461362c57819061362793945f92613369575050613312565b600955565b60095f52601f198216935f80516020616bdc833981519152915f5b86811061367e5750836001959610613665575b505050811b01600955565b01355f19600384901b60f8161c191690555f808061365a565b90926020600181928686013581550194019101613647565b908060209392818452848401375f828201840152601f01601f1916010190565b91602061090a938181520191613696565b60c0810160326136d78284613124565b9050116139c55760e0820160146136ee8285613124565b9050116139b3578261370a6137056137a095612c8a565b613159565b602081019261372261371c8584613071565b90613324565b604082016137396137338285613071565b906133de565b61374f6137496060850185613071565b9061348c565b61376561375f6080850185613071565b9061353a565b61377b61377560a0850185613071565b906135e8565b613783613f2e565b929150506001968780931460ff8019600c54169115151617600c55565b6137a8615875565b956137b561236188610b68565b6137c161236188610b81565b6001600160a01b03871693849390865f835b61393c575b505050805f905b6138cb575b50505f80516020616a1c83398151915291835f80516020616a5c83398151915261381161382a9489613071565b90613821604051928392836136b6565b0390a285613071565b9061383a604051928392836136b6565b0390a280805f80516020616b7c8339815191525f80a3805f80516020616c1c8339815191525f80a361386a614703565b613875575b50505050565b61388784936138826148ff565b614c44565b5f925b1561386f576138998282613124565b90508310156138c65783836138bf61388261053284976138b98888613124565b90612c6b565b019261388a565b61386f565b909192936138d98888613124565b90508210156139335750806139016123616138fc61053286956138b98d8d613124565b610b81565b613915611040610532836138b98c8c613124565b865f80516020616c1c8339815191525f80a3019084939291816137df565b939291906137e4565b9091929394955061394d8383613124565b90508110156139a75761397361236161396e610532846138b9888a98613124565b610b68565b613987611040610532836138b9878d613124565b875f80516020616b7c8339815191525f80a30190868392879695946137d3565b508086959493926137d8565b604051636055dca160e01b8152600490fd5b604051636bd3434560e11b8152600490fd5b906139e7906139ed933691610998565b506146b6565b6139f5575f90565b630291f19360e51b90565b90613a13602092828151948592016108b3565b0190565b6001600160a01b039091169052565b908160209103126103f7575190565b9060209081835280518284015201519060408082015260018060a01b03825116606082015260018060401b0360208301511660808201526040820151151560a0820152606082015160c082015261010060a0613aa1608085015160c060e08601526101208501906108d4565b93015191015290565b9193959295949094600d54908115613c0957613ac761101b614703565b613bf757613b19613aff613ba996613b3b95613b47948c613af95f9e8d613b139f613af3611040614788565b9d614ce7565b9b615001565b60405191829160209a8b9a8b850190613a00565b90613a00565b0390613b2d601f19928381018352826106fc565b6040519485918983016108f9565b039081018452836106fc565b613b4f615281565b91613b58610951565b91613b633084613a17565b8887840152886040840152606083015260808201528660a0820152613b86610970565b9182528482015260405195868094819363f17325e760e01b835260048301613a35565b03926001600160a01b03165af19182915f93613bd8575b505061090a576040516317c3402f60e01b8152600490fd5b613bef929350803d10610ec557610eb681836106fc565b905f80613bc0565b6040516384352a0160e01b8152600490fd5b6040516304f102a360e01b8152600490fd5b3561090a816103e5565b607b60f81b815260010190565b68113a34ba3632911d1160b91b815260090190565b61088b60f21b815260020190565b67113a32bc3a111d1160c11b815260080190565b90815f8237015f815290565b908092918237015f815290565b607d60f81b815260010190565b90949391600d54918215613c0957613ca861101b614703565b613bf757613cb4614788565b613cbd906105e4565b963690613cc992610998565b613cd290615503565b933690613cde92610998565b613ce790615503565b936040519283916020968796878501613cff90613c25565b613d0890613c32565b613d1191613a00565b613d1a90613c47565b613d2390613c55565b613d2c91613a00565b613d3590613c47565b7a089d1e5c19488e889c1c9bda9958dd0b5b5a5b195cdd1bdb99488b602a1b8152601b0166113230ba30911d60c91b815260070190613d7392613c75565b613d7c90613c82565b03601f19908181018452613d9090846106fc565b604051809385820190613da2916108f9565b039081018352613db290836106fc565b613dba615281565b91613dc3610951565b91613dce3084613a17565b8483015f9052604083015f90526060830152608082015260a081015f9052613df4610970565b9182528282015260405163f17325e760e01b815293849182908190613e1c9060048301613a35565b03916001600160a01b03165a905f91f19182915f93613e4e575b505061090a5760405163e80dd52b60e01b8152600490fd5b613e65929350803d10610ec557610eb681836106fc565b905f80613e36565b613e75613fec565b63bc197c8160e01b90565b634e487b7160e01b5f52601160045260245ffd5b906301e133808201809211613ea557565b613e80565b90620afa6c8201809211613ea557565b9060028201809211613ea557565b9060018201809211613ea557565b9060038201809211613ea557565b6030019081603011613ea557565b91908201809211613ea557565b3d15613f29573d90613f108261097d565b91613f1e60405193846106fc565b82523d5f602084013e565b606090565b60405190608082016001600160401b038111838210176106a65760405260608252602082016060604d82303c6060838051810103126103f75751906060604084015193613f7a85610940565b015191926001600160a01b03169190565b5f544210613fda57600354613fd2613fa1616733565b613fc4604093929351938492602084019687526040808501526060840191613696565b03601f1981018352826106fc565b519020600355565b604051636315bfbb60e01b8152600490fd5b6140176140056140006104ca6104c4613f2e565b610b4f565b5f356001600160e01b031916906128c8565b546001600160a01b0381166140295750565b5f8091614035306153eb565b9082604051614078604882602081019560018060601b0319809160601b16875236866034840137368201903360601b1660348201520360288101845201826106fc565b51925af1612bf6613eff565b9060401015612c7b5760400190565b906020116103f75790602090565b906040116103f75760200190602090565b90929192836020116103f75783116103f75760200191601f190190565b909392938483116103f75784116103f7578101920390565b3590602081106140f5575090565b5f199060200360031b1b1690565b6005111561410d57565b634e487b7160e01b5f52602160045260245ffd5b909160ff6141496141436141358487614084565b356001600160f81b03191690565b60f81c90565b1615614182576141649261415e913691610998565b90615844565b61416d81614103565b61417d5761090a906139e7612f7f565b505f90565b9061419c6110406110406141968587614093565b906140e7565b916141a5612f7f565b506141b261101b846146b6565b806141e9575b6141e1576113718185816141d56141966141db9661090a9a6140a1565b916140cf565b916157c9565b505050505f90565b506001600160a01b0383163014156141b8565b91906055959360e2956040519560b787015260018060a01b0316609786015260778501528160578501526e5af43d82803e903d91602b57fd5bf360378501526028840152733d60ad80600a3d3981f3363d3d373d3d3d363d73601484015260b7835260d7830190816040528351602085012061011785015260f7840152520160ff81532090565b6001600160a01b038181167f0000000000000000000000000000000000000000000000000000000000000000821681146143d6576142bf613f2e565b90468303614324575b6142d1926155f4565b828116821461431b576142e3906156ce565b9182161461431457614307916142fb61430092610b36565b610b9a565b5460ff1690565b61430f575f90565b600190565b5050600190565b50505050600190565b61434a61432f615875565b6001600160a01b0390811661111061111160901b0119011690565b851630146143ac576040516333932be560e11b8152602081806143708a600483016105f0565b0381897f0000000000000000000000000000000000000000000000000000000000000000165afa908115612632575f916143b7575b50156142c8575b505050505050600190565b6143d0915060203d602011612edc57612ece81836106fc565b5f6143a5565b505050600190565b60609190911b6001600160601b03191681526014929182908483013701015f815290565b9092919360ff169081156144f557600182146144a45750600281146144875760031461443a57604051631cc6a69960e11b8152600490fd5b8261090a9261445d838061445761419661446597613fc49a614093565b946140b2565b929091614528565b6040519283916020830160609190911b6001600160601b031916815260140190565b5061090a9161449e613fc494614465933691610998565b9061483b565b61090a94939291506144e2906144d46144bc306153eb565b93843b156144e7575b604051968793602085016143de565b03601f1981018552846106fc565b6156a6565b6144f030615427565b6144c5565b929161450891509361090a943691610998565b916156a6565b6001600160a01b0361451f306153eb565b1633036105c857565b9161453591933691610998565b9060208251920190f5906001600160a01b0382161561455057565b60405163a28c247360e01b8152600490fd5b60206145829160405180938192631506fd4d60e01b8352600483016105f0565b03817f00000000000000000000000000000000000000000000000000000000000000006001600160a01b03165afa908115612632575f916145ea575b50156145d8576145d261101b61128a615875565b6105c857565b60405163340aafcd60e11b8152600490fd5b614603915060203d602011612edc57612ece81836106fc565b5f6145be565b1561461057565b60405162461bcd60e51b815260206004820152602960248201527f45524331393637557067726164653a20756e737570706f727465642070726f786044820152681a58589b195555525160ba1b6064820152608490fd5b60809060208152602e60208201527f45524331393637557067726164653a206e657720696d706c656d656e7461746960408201526d6f6e206973206e6f74205555505360901b60608201520190565b6146c16104c4613f2e565b6001600160a01b0382811691808216831461431b576146df906156ce565b168091146143145760ff916146fe915f52600260205260405f20610b9a565b541690565b600a4614801561477c575b8015614771575b8015614765575b8015614759575b801561474e575b8015614743575b801561473a5790565b50610530461490565b506105314614614731565b5061a4ec461461472a565b5062014a344614614723565b5062aa36a7461461471c565b5061a4b14614614715565b5062aa37dc461461470e565b61a4b146146147d45761a4ec46146147bc5762014a344603615a3857734ca7230fb6b78875bdd1b1e4f665b7b7f189123990565b738791ac8c099314bb1d1514d76de13a1e8027595090565b736dc1d6b864e8bef815806f9e4677123496e1202690565b61482e917b0ca2ba3432b932bab69029b4b3b732b21026b2b9b9b0b3b29d05199960211b5f52601c52614828603c5f2091610140810190613071565b91614121565b61483757600190565b5f90565b60208251920190f0906001600160a01b0382161561455057565b60208082526005545f9261486882610647565b9182602083015260406001916001811690815f146148dc5750600114614891575b505050505090565b60055f908152949695509192915f80516020616a3c8339815191525b8386106148c95750505050604092935001015f80808080614889565b80548587018301529487019482016148ad565b9395505050506040935060ff191683830152151560051b01015f80808080614889565b61490a611040614788565b90604090815192602084614925828201906001602083019252565b0391614939601f19938481018852876106fc565b614941615a4a565b9561494a610951565b906149553083613a17565b5f828501526001878301525f606083015260808201525f60a0820152614979610970565b9687528287015260018060a01b03169184519063f17325e760e01b938483528383806149a960049b8c8301613a35565b03815f855af15f9381614b9d575b506149cc5786516317c3402f60e01b81528890fd5b6149d583600d55565b614a5c8488516149fc816149f0848201906001602083019252565b038681018352826106fc565b614a04615bb4565b90614a0d615875565b90614a20614a19610951565b9283613a17565b5f8285015260018c83015287606083015260808201525f60a0820152614a44610970565b918252828201528951809381928a83528d8301613a35565b03815f865af19081614b80575b50614a86578787614a795f600d55565b516317c3402f60e01b8152fd5b614b0d948493614ab4614aa894614a9b615d1e565b8b519687918983016108f9565b039081018652856106fc565b614abc615281565b93614ac5610951565b91614ad03084613a17565b5f8388015260018b840152606083015260808201525f60a0820152614af3610970565b938452848401525f885180978195829483528c8301613a35565b03925af19182614b62575b5050614b285750614a795f600d55565b9150600d549051907f03d364024f6102dfc5e23f488f1e462c8e58afc717a21875496e0adc2132d1b4309280614b5d81614855565b0390a3565b81614b7892903d10610ec557610eb681836106fc565b505f80614b18565b614b9690863d8811610ec557610eb681836106fc565b505f614a69565b614bb5919450853d8711610ec557610eb681836106fc565b925f6149b7565b5f9060033d11614bc857565b905060045f803e5f5160e01c90565b5f60443d1061090a57604051600319913d83016004833e81516001600160401b03918282113d602484011117614c3357818401948551938411614c3b573d85010160208487010111614c33575061090a929101602001906106fc565b949350505050565b50949350505050565b600d548015614ce357614c5b611040611040614788565b91823b156103f757614c86925f928360405180968195829463dbf7117760e01b845260048401612fed565b03925af19081614cd0575b5061075c576001614ca0614bbc565b6308c379a014614cbc575b614cb157565b614cb9613eff565b50565b614cc4614bd7565b15614cab57505f614cab565b80611098614cdd92610693565b5f614c91565b5050565b9290916201518093614cfa854204613eaa565b94614d83614d1762023ab1880497614d1189615e71565b90615e64565b614d11614d62614d5c614d56614d4e614d42614d376105b4880488615e64565b618eac880490613ef2565b62023ab0870490615e64565b61016d900490565b9a615e89565b8a613ef2565b986064614d7b614d7183615ea0565b8360021c90613ef2565b910490615e64565b95614dc1614dbc614da5614d9e614d998b615eb2565b613eba565b6099900490565b98614d11614db5614d998c615ec3565b6005900490565b613ec8565b96600a811015614fcf57614dd490613ed6565b915b6002831115614fbf575b4206610e1091614def90616505565b92614df990616574565b97614e0390616574565b91614e0f818304616574565b908206603c9004614e1f90616574565b91603c9006614e2d90616574565b92604051998a9560208701614e4191613a00565b614e4a90615eea565b614e5391613a00565b614e5c90615eea565b614e6591613a00565b601560fa1b8152600101614e7891613a00565b614e8190615ef7565b614e8a91613a00565b614e9390615ef7565b614e9c91613a00565b64171818182d60d91b81526005010393601f19948581018752614ebf90876106fc565b3690614eca92610998565b614ed390615503565b913690614edf92610998565b614ee890615503565b9260405193849260208401614efc90613c25565b614f0590613c32565b614f0e91613a00565b614f1790613c47565b614f2090613c55565b614f2991613a00565b614f3290613c47565b6c1139ba30b93a2230ba32911d1160991b8152600d01614f529082613a00565b614f5b90613c47565b6a1132b7322230ba32911d1160a91b8152600b01614f7891613a00565b614f8190613c47565b6b0899dc985b9d1cc88e96d74b60a21b8152600c016f089a5b991a58d85d1bdc9cc88e96d74b60821b815260100103908101825261090a90826106fc565b90614fc990613ec8565b90614de0565b614fd890615e47565b91614dd6565b763d913a3cb832911d1137ba3432b91116113ab936111d1160491b815260170190565b919092369061500f92610998565b61501890615503565b91369061502492610998565b61502d90615503565b91615036613f2e565b9291505046615044906165db565b9161504e906165db565b916150588261667e565b604051938492602084017f68747470733a2f2f677265656e676f6f64732e6d652f67617264656e2f000000905280519081603d8601916020019161509b926108b3565b8301603d8101602f60f81b905281519182603e830191602001916150be926108b3565b01603e81016705eeedee4d65e60f60c31b9052815191826046830191602001916150e7926108b3565b01036026810183526046016150fc90836106fc565b61510590616091565b604051702264656c6976657261626c6573223a5b7b60781b60208201529384939192916031850176089b985b59488e8895dbdc9ac8115d9a59195b98d9488b604a1b81526017016f2270726f6f66223a22697066733a2f2f60801b815260100161516e91613a00565b61517790613c47565b6e113232b9b1b934b83a34b7b7111d1160891b8152600f0161519891613a00565b601160f91b8152600101621f574b60ea1b815260030168226c696e6b73223a5b60b81b81526009016151c990614fde565b6151d291613a00565b7f222c226c6162656c223a225669657720696e20477265656e20476f6f6473227d8152600b60fa1b602082015260210161520b90614fde565b61521491613a00565b7f222c226c6162656c223a22576f726b204174746573746174696f6e227d0000008152601d0161174b60f21b815260020176113a3cb832911d11383937b532b1ba16bab83230ba329160491b81526017015b61526f90613c82565b03601f198101825261090a90826106fc565b600a46146153c75762aa37dc46146153a35761a4b1461461537f5762aa36a7461461535b5762014a3446146153375761a4ec46146153135761053146146152ef576105304603615a38577f76f38d22f88a0df52a8ff0763e1c0af912b0822e758be2e0c9cded91aef71d2290565b7f1b4365b92aa47de3f67cdfb53127518381c1e66e0d9e0f8a15bbfa725095096790565b7f9895e82115987d8e3e02b35ced92e6a0509293890333f58f50ec291b34853dac90565b7f9b06f811608d135f913c18295486693fe626f35e213a7d132be87b1f952e508c90565b7f2c270e35bfcdc4d611f0e9d3d2ab6924ec6c673505abc22a1dd07e19b67211af90565b7f16bfe4783b7a9c743c401222c56a07ecb77ed42afc84b61ff1f62f5936c0b9d790565b7fd193e75f420a69910f98fa79cacdfd9d0dcbf5933edce8f8bde9a10bd204d99690565b7f70a3f615f738fc6a4f56100692ada93d947c028b840940d97af7e7d6f0fa057790565b600b6153f860559261611b565b602081519101206040519060408201525f80516020616abc83398151915260208201523081520160ff81532090565b6154309061611b565b8051156154a05780516001600160a01b03915f80516020616abc83398151915291906020015ff5161561545f57565b60405162461bcd60e51b8152602060048201526019602482015278437265617465323a204661696c6564206f6e206465706c6f7960381b6044820152606490fd5b606460405162461bcd60e51b815260206004820152602060248201527f437265617465323a2062797465636f6465206c656e677468206973207a65726f6044820152fd5b908151811015612c7b570160200190565b5f198114613ea55760010190565b905f805b835181101561556257601160f91b61554061553361552584886154e4565b516001600160f81b03191690565b6001600160f81b03191690565b1461554e575b600101615507565b9061555a6001916154f5565b919050615546565b508015614cb95761557761557c918451613ef2565b612fbb565b5f925f5b81518110156155ed57600190601160f91b6155a161553361552584876154e4565b146155d2575b6155b461552582856154e4565b956155cb6155c1826154f5565b975f1a91866154e4565b5301615580565b605c6155e76155e0886154f5565b97866154e4565b536155a7565b5090925050565b460361565e57803b1561565e576040516331a9108f60e11b81526004810192909252602090829060249082906001600160a01b03165afa5f918161563d575b5061090a57505f90565b61565791925060203d602011612e6457612e5581836106fc565b905f615633565b50505f90565b600d548015614ce35761567b611040611040614788565b91823b156103f757614c86925f9283604051809681958294632c1a4e4360e21b845260048401612fed565b915f928392602083519301915af1906156bd613eff565b91156156c557565b50602081519101fd5b907f0000000000000000000000000000000000000000000000000000000000000000917f00000000000000000000000000000000000000000000000000000000000000005b61571e8185846161e8565b156157c45760408051637e062a3560e11b815292606091908290859060049082906001600160a01b03165afa938415612632575f915f935f96615774575b5050509261576d9161571e946155f4565b9150615713565b92509250809450813d83116157bd575b61578e81836106fc565b810103126103f7578261576d9161571e9451906020830151926157b084610940565b015190919094819361575c565b503d615784565b509150565b5f919290829160405161580081613fc46020820194630b135d3f60e11b998a875260248401526040604484015260648301906108d4565b51915afa9061580d613eff565b82615836575b8261581d57505090565b61583291925060208082518301019101613a26565b1490565b915060208251101591615813565b9060418151145f1461586c576104a291602082015190606060408401519301515f1a90616270565b50505f90600290565b337f00000000000000000000000000000000000000000000000000000000000000006001600160a01b031614806158bc575b156158b85736601319013560601c90565b3390565b5060143610156158a7565b906158d1826159a9565b6001600160a01b0382165f80516020616b9c8339815191525f80a2805115801590615963575b6158ff575050565b614cb9915f8060405193615912856106e1565b602785527f416464726573733a206c6f772d6c6576656c2064656c65676174652063616c6c6020860152660819985a5b195960ca1b6040860152602081519101845af461595d613eff565b9161678d565b5060016158f7565b90615975826159a9565b6001600160a01b0382165f80516020616b9c8339815191525f80a28051158015906159a2576158ff575050565b505f6158f7565b803b156159dd575f80516020616b3c83398151915280546001600160a01b0319166001600160a01b03909216919091179055565b60405162461bcd60e51b815260206004820152602d60248201527f455243313936373a206e657720696d706c656d656e746174696f6e206973206e60448201526c1bdd08184818dbdb9d1c9858dd609a1b6064820152608490fd5b604051633cb9b43760e01b8152600490fd5b600a4614615b905762aa37dc4614615b6c5761a4b14614615b485762aa36a74614615b245762014a344614615b005761a4ec4614615adc576105314614615ab8576105304603615a38577f9de9294fbb62391b393332a33bfc28b4e0e728dd094aee4bda3955df62f8401a90565b7ff6b89107f8096220051240b89a48abb66e0a23e529c914953b80f5a2bc5ea44c90565b7ff3f753b41e04d1052b5a5ec7624d1dfdb6c2da288a985120e477ddbcac07102290565b7f5ddd6b7a11406771308431ca9bd146cc717848b74b52993a532dc1aad0ccc83f90565b7fec77990a252b54b17673955c774b9712766de5eecb22ca5aa2c440e0e93257fb90565b7fac2a06e955a7e25e6729efe1a6532237e3435b21ccd3dc827ae3c94e624d25b390565b7ff9bbd118dd100459a7d093403af21c6e7f847fd7f331b7a4e6bfb94a1366bd7690565b7f5b873b6e7a16207b526dde366e8164e95bcda2f009272306519667c5e94d219190565b600a4614615cfa5762aa37dc4614615cd65761a4b14614615cb25762aa36a74614615c8e5762014a344614615c6a5761a4ec4614615c46576105314614615c22576105304603615a38577f222fa508c0cdb5954905dd30611a940f6402da2b3c49ce0c88d33e22f72121e790565b7fb7278b94cea2b9f1a8fdd1c4bb52ed66906516a0ff9d59d0f80daffcf147ea5d90565b7fb4186a2401f40a4c78768941ef9140e1fbe5fe595053a65d44f31d6df180b71290565b7f857398d86e2d31bec5af882b950ee7b00d1fefefba2432737ab28b68ee041eb890565b7fdd87b3500457931252424f4439365534ba72a367503a8805ff3482353fb9030190565b7f5f430aec9d04f0dcb3729775c5dfe10752e436469a7607f8c64ae44ef996e47790565b7f611f9655188f372e27dce116a803fa9081ca3e2907986368d54fcad538ca385390565b7f7fbb8a65924d8ad2ae12356e04b1418043e8361ba3b1b6c917de2e23df3ec81c90565b613b1361090a603b615d36615d3161071f565b615503565b615e0c615dec615dd2615db9615db4615d50615d31610838565b604051978897607b60f81b60208a015268113a34ba3632911d1160b91b60218a0152615d86815180926020602a8d0191016108b3565b61088b60f21b602a918a01918201526e113232b9b1b934b83a34b7b7111d1160891b602c8201520190613a00565b613c47565b6c089c1c9bd89b195b488e88888b609a1b8152600d0190565b6d089cdbdb1d5d1a5bdb888e88888b60921b8152600e0190565b73089b5a5cdcda5bdb94dd5b5b585c9e488e88888b60621b815260140190565b0390615e20601f19928381018352826106fc565b615e3b615e2b616352565b6040519586936020850190613a00565b039081018352826106fc565b600819810191908211613ea557565b5f19810191908211613ea557565b91908203918211613ea557565b9062023ab191828102928184041490151715613ea557565b9061019091828102928184041490151715613ea557565b9061016d9180830292830403613ea557565b9081600502916005830403613ea557565b9081609902916099830403613ea557565b908160011b9180830460021490151715613ea557565b602d60f81b815260010190565b601d60f91b815260010190565b60405190615f11826106e1565b60278252660ecd2caee5e60f60cb1b6040837f68747470733a2f2f6561737363616e2e6f72672f6174746573746174696f6e2f60208201520152565b60405190615f5a826106e1565b603082526f0cae6e8c2e8d2dedc5eecd2caee5e60f60831b6040837f68747470733a2f2f617262697472756d2e6561737363616e2e6f72672f61747460208201520152565b60405190615fac826106e1565b602c82526b0e8d2dedc5eecd2caee5e60f60a31b6040837f68747470733a2f2f63656c6f2e6561737363616e2e6f72672f6174746573746160208201520152565b60405190615ffa826106e1565b603482527305ec2e8e8cae6e8c2e8d2dedc5eecd2caee5e60f60631b6040837f68747470733a2f2f626173652d7365706f6c69612e6561737363616e2e6f726760208201520152565b60405190616050826106e1565b602c82526b0e8d2dedc5eecd2caee5e60f60a31b6040837f68747470733a2f2f626173652e6561737363616e2e6f72672f6174746573746160208201520152565b61090a613b139161210546145f146160c757613fc46160b76160b1616043565b9261667e565b6040519485936020850190613a00565b4662014a34036160df57613fc46160b76160b1615fed565b4661a4ec036160f657613fc46160b76160b1615f9f565b4661a4b10361610d57613fc46160b76160b1615f4d565b613fc46160b76160b1615f04565b61090a60346161b39260405190616131826106ab565b600e825260208201906d604380600d600039806000f3fe7360901b82526161d960405161615d816106e1565b602e815260208101937f3314601d573d3dfd5b363d3d373d3d6014360360143d5160601c5af43d60008085526d3e80603e573d6000fd5b3d6000f360901b604083015260405198899651809260208901906108b3565b60609390931b6001600160601b03191660209386019384015251928390868401906108b3565b010360148101845201826106fc565b9160ad833b03616269576014600a600c853c5f5190813b156141e1576001600160a01b03928316828416036141e15761621f612f91565b60208101916080602d84883c6080828051810103126103f75761626393611040935160408401519187608060608701519661625988610940565b01519516936141fc565b91161490565b5050505f90565b6fa2a8918ca85bafe22016d0b997e4df60600160ff1b0384116162d6576020935f9360ff60809460405194855216868401526040830152606082015282805260015afa15612632575f516001600160a01b038116156162ce57905f90565b505f90600190565b505050505f90600390565b6008545f92916162f082610647565b9160019081811690811561633f575060011461630b57505050565b909192935060085f5260209060205f20905f915b85831061632e57505050500190565b80548584015291830191810161631f565b60ff191683525050811515909102019150565b61635d600854610647565b156164ec576040517568747470733a2f2f7733732e6c696e6b2f697066732f60501b602082015261639481613fc4603682016162e1565b61639c6107bd565b6163a590615503565b906163af90615503565b906163b861071f565b6163c190616830565b6163ca90615503565b60405173113637b1b0ba34b7b727b324b6b830b1ba111d1160611b6020820152928392603484016163fa91613a00565b61640390613c47565b6b1134b6b0b3b2aaa926111d1160a11b8152600c0161642191613a00565b61642a90613c47565b6a089b1a5b9adcc88e96d74b60aa1b8152600b01671139b63ab3911d1160c11b815260080161645891613a00565b61646190613c47565b7208989d5cda5b995cdcd35bd9195b088e88888b606a1b81526013016c089cdd1859d9525b888e88888b609a1b8152600d0170089c985a5cd959135bdb995e488e88888b607a1b81526011016f089c185d1a151bd5185ad9488e88888b60821b815260100177113a3cb832911d11383937b532b1ba16b232ba30b4b6399160411b8152601801615266565b6164f4612f7f565b616394565b8015613ea5575f190190565b60405190616512826106ab565b6004825260203681840137600490815b61652b57505090565b600a6030918181068301809311613ea5575f198401848111613ea55761656d9360f81b6001600160f81b0319165f1a9061656590876154e4565b5304916164f9565b9081616522565b60405190616581826106ab565b6002825260203681840137600290815b61659a57505090565b600a6030918181068301809311613ea5575f198401848111613ea5576165d49360f81b6001600160f81b0319165f1a9061656590876154e4565b9081616591565b801561666057805f81805b61664857506165f481612fbb565b925b6165ff57505090565b61660890615e56565b90600a9061663361662361661d848406613ee4565b60ff1690565b60f81b6001600160f81b03191690565b5f1a61663f84866154e4565b530490816165f6565b9150616655600a916154f5565b9104808392916165e6565b5060405161666d816106ab565b60018152600360fc1b602082015290565b6040519061668b826106e1565b604082526020906040366020850137604051906166a7826106ab565b601082526f181899199a1a9b1b9c1cb0b131b232b360811b60208301525f5b8381106166d4575050505090565b80616713615525846001941a600f906166f5615525838360041c168a6154e4565b61670b61670187615ed4565b915f1a918c6154e4565b5316866154e4565b61672c616722614dbc84615ed4565b915f1a91886154e4565b53016166c6565b337f00000000000000000000000000000000000000000000000000000000000000006001600160a01b03161480616782575b1561677c57601319360190368211613ea5575f9190565b5f903690565b506014361015616765565b919290156167ef57508151156167a1575090565b3b156167aa5790565b60405162461bcd60e51b815260206004820152601d60248201527f416464726573733a2063616c6c20746f206e6f6e2d636f6e74726163740000006044820152606490fd5b8251909150156168025750805190602001fd5b60405162461bcd60e51b8152908190610e8490600483016108f9565b60ff60209116019060ff8211613ea557565b9061683b8251612fbb565b915f905f5b81518110156169955761685661552582846154e4565b6001600160f81b0319818116604160f81b81101580616987575b156168a85750509061688961662360019360f81c61681e565b936168a0616896826154f5565b955f1a91886154e4565b535b01616840565b919491606160f81b81101580616979575b156168d757505090816168d1616896600194926154f5565b536168a2565b600360fc1b8110158061696b575b156168fd57505090816168d1616896600194926154f5565b91945060019291600160fd1b14616915575b506168a2565b8415159081616946575b5061692b575b5f61690f565b602d616940616939866154f5565b95886154e4565b53616925565b602d60f81b915061696261552561695c88615e56565b8a6154e4565b1614155f61691f565b50603960f81b8111156168e5565b50603d60f91b8111156168b9565b50602d60f91b811115616870565b5050801515806169f0575b6169e2575b6169ae81612fbb565b905f5b8181106169bf575090925050565b806169cf615525600193886154e4565b5f1a6169db82866154e4565b53016169b1565b6169eb906164f9565b6169a5565b50602d60f81b6001600160f81b0319616a14615525616a0e85615e56565b876154e4565b16146169a056fe37cc8c6ced0cbc4d440fcfa810a2f09f40b8f0127c3656103edf26b3d93e0ec1036b6384b5eca791c62761152d0c79bb0604c104a5fb6f4eb0703f3154bb3db074321da206c1b9fa34367f7ece59ca49371dcd13820b9a5c3767ae1ecceed51a4910fdfa16fed3260ed0e7147f7cc6da11a60208b5b9406d12a635614ffd914323146a23bca92967799f9c14b4995bb19ca27a6331c8a66f695bc2525281502497f795a08410e77dc9dbbaba3915f17c601e45642518dd578bd440d8775bfee47f0cd4337b583a09080a4036ee4935d1069f38152ad2f0750588bb752c66916da66cc928b5edb82af9bd49922954155ab7b0942694bea4ce44661d9a8736c68846756e6374696f6e206d7573742062652063616c6c6564207468726f75676820360894a13ba1a3210667c828492db98dca3e2076cc3735a920a3ca505d382bbc2013570c343af8ab14a9778150e381a0fda34ed6368127a95fd5e7210cbec5bfc0b9de905219d7679d6f05d6061fa6ef557a687d2c44c314b58bb793f5dba494bc7cd75a20ee27fd9adebab32041f755214dbc6bffa90cc0225b39da2e5c2d3bf3f7a9fe364faab93b216da50a3214154f22a0a2b415b23a84c8169e8b636ee36e1540171b6c0c960b71a7020d9f60077f6af931a8bbf590da0223dacf75c7aff652222313e28459528d920b65115c16c04f3efc82aaedc97be59f3f377c0d3f06216f26a4a5b9c90aa5e1f990342de8fa80a0c447e3c6143fbaf0c7747edd71a164736f6c6343000819000a","linkReferences":{}},"methodIdentifiers":{"ASSESSMENT_RESOLVER()":"3a208f95","WORK_APPROVAL_RESOLVER()":"bcc5cf88","addGardenOperator(address)":"eed9df74","addGardener(address)":"eaff6dc9","bannerImage()":"94def29d","communityToken()":"29aa1617","createProjectImpact(string,string,string,bytes32)":"5bcf5dce","createProjectMilestone(string,string,string)":"81eec6bb","description()":"7284e416","entryPoint()":"b0d691fe","erc6551Registry()":"056d5afe","execute(address,uint256,bytes,uint8)":"51945447","executeBatch((address,uint256,bytes,uint8)[])":"43629a73","executeNested(address,uint256,bytes,uint8,(bytes32,address,uint256)[])":"1fb1ecf0","extcall(address,uint256,bytes)":"b709467c","extcreate(uint256,bytes)":"45a24e3e","extcreate2(uint256,bytes32,bytes)":"34715fb1","extsload(bytes32)":"1e2eaeaf","gapProjectUID()":"f7fc57b0","gardenOperators(address)":"7597bc7c","gardeners(address)":"1f6e45e3","getGAPProjectUID()":"f89b9b93","getNonce()":"d087d288","initialize((address,string,string,string,string,string,address[],address[]))":"47ed8947","isLocked()":"a4e2d634","isTrustedForwarder(address)":"572b6c05","isValidSignature(bytes32,bytes)":"1626ba7e","isValidSigner(address,bytes)":"523e3260","joinGarden()":"b10006a6","location()":"516f279e","lock(uint256)":"dd467064","lockedUntil()":"ce0617ec","metadata()":"392f37e9","name()":"06fdde03","onERC1155BatchReceived(address,address,uint256[],uint256[],bytes)":"bc197c81","onERC1155Received(address,address,uint256,uint256,bytes)":"f23a6e61","onERC721Received(address,address,uint256,bytes)":"150b7a02","openJoining()":"291d0548","overrides(address,bytes4)":"ee9c6054","owner()":"8da5cb5b","permissions(address,address)":"1f9838b5","proxiableUUID()":"52d1902d","removeGardenOperator(address)":"adbce85e","removeGardener(address)":"eeb97057","setOpenJoining(bool)":"98b7a25a","setOverrides(bytes4[],address[])":"7a8f7356","setPermissions(address[],bool[])":"039721b1","state()":"c19d93fb","supportsInterface(bytes4)":"01ffc9a7","token()":"fc0c546a","transferGAPProjectOwnership(address)":"3a25bc32","updateBannerImage(string)":"52094e55","updateCommunityToken(address)":"4b511903","updateDescription(string)":"e735b48a","updateLocation(string)":"932354c1","updateMetadata(string)":"918b5be1","updateName(string)":"84da92a7","upgradeTo(address)":"3659cfe6","upgradeToAndCall(address,bytes)":"4f1ef286","validateUserOp((address,uint256,bytes,bytes,uint256,uint256,uint256,uint256,uint256,bytes,bytes),bytes32,uint256)":"3a871cdd"},"id":129}