{"abi":[{"type":"constructor","inputs":[{"name":"gardenAccountImplementation","type":"address","internalType":"address"}],"stateMutability":"nonpayable"},{"type":"function","name":"approve","inputs":[{"name":"to","type":"address","internalType":"address"},{"name":"tokenId","type":"uint256","internalType":"uint256"}],"outputs":[],"stateMutability":"nonpayable"},{"type":"function","name":"balanceOf","inputs":[{"name":"owner","type":"address","internalType":"address"}],"outputs":[{"name":"","type":"uint256","internalType":"uint256"}],"stateMutability":"view"},{"type":"function","name":"batchMintGardens","inputs":[{"name":"configs","type":"tuple[]","internalType":"struct GardenToken.GardenConfig[]","components":[{"name":"communityToken","type":"address","internalType":"address"},{"name":"name","type":"string","internalType":"string"},{"name":"description","type":"string","internalType":"string"},{"name":"location","type":"string","internalType":"string"},{"name":"bannerImage","type":"string","internalType":"string"},{"name":"metadata","type":"string","internalType":"string"},{"name":"openJoining","type":"bool","internalType":"bool"},{"name":"gardeners","type":"address[]","internalType":"address[]"},{"name":"gardenOperators","type":"address[]","internalType":"address[]"}]}],"outputs":[{"name":"gardenAccounts","type":"address[]","internalType":"address[]"}],"stateMutability":"nonpayable"},{"type":"function","name":"deploymentRegistry","inputs":[],"outputs":[{"name":"","type":"address","internalType":"address"}],"stateMutability":"view"},{"type":"function","name":"gardenHatsModule","inputs":[],"outputs":[{"name":"","type":"address","internalType":"contract IHats"}],"stateMutability":"view"},{"type":"function","name":"getApproved","inputs":[{"name":"tokenId","type":"uint256","internalType":"uint256"}],"outputs":[{"name":"","type":"address","internalType":"address"}],"stateMutability":"view"},{"type":"function","name":"initialize","inputs":[{"name":"_multisig","type":"address","internalType":"address"},{"name":"_deploymentRegistry","type":"address","internalType":"address"}],"outputs":[],"stateMutability":"nonpayable"},{"type":"function","name":"isApprovedForAll","inputs":[{"name":"owner","type":"address","internalType":"address"},{"name":"operator","type":"address","internalType":"address"}],"outputs":[{"name":"","type":"bool","internalType":"bool"}],"stateMutability":"view"},{"type":"function","name":"karmaGAPModule","inputs":[],"outputs":[{"name":"","type":"address","internalType":"contract IKarmaGAPModule"}],"stateMutability":"view"},{"type":"function","name":"mintGarden","inputs":[{"name":"config","type":"tuple","internalType":"struct GardenToken.GardenConfig","components":[{"name":"communityToken","type":"address","internalType":"address"},{"name":"name","type":"string","internalType":"string"},{"name":"description","type":"string","internalType":"string"},{"name":"location","type":"string","internalType":"string"},{"name":"bannerImage","type":"string","internalType":"string"},{"name":"metadata","type":"string","internalType":"string"},{"name":"openJoining","type":"bool","internalType":"bool"},{"name":"gardeners","type":"address[]","internalType":"address[]"},{"name":"gardenOperators","type":"address[]","internalType":"address[]"}]}],"outputs":[{"name":"","type":"address","internalType":"address"}],"stateMutability":"nonpayable"},{"type":"function","name":"name","inputs":[],"outputs":[{"name":"","type":"string","internalType":"string"}],"stateMutability":"view"},{"type":"function","name":"owner","inputs":[],"outputs":[{"name":"","type":"address","internalType":"address"}],"stateMutability":"view"},{"type":"function","name":"ownerOf","inputs":[{"name":"tokenId","type":"uint256","internalType":"uint256"}],"outputs":[{"name":"","type":"address","internalType":"address"}],"stateMutability":"view"},{"type":"function","name":"proxiableUUID","inputs":[],"outputs":[{"name":"","type":"bytes32","internalType":"bytes32"}],"stateMutability":"view"},{"type":"function","name":"renounceOwnership","inputs":[],"outputs":[],"stateMutability":"nonpayable"},{"type":"function","name":"safeTransferFrom","inputs":[{"name":"from","type":"address","internalType":"address"},{"name":"to","type":"address","internalType":"address"},{"name":"tokenId","type":"uint256","internalType":"uint256"}],"outputs":[],"stateMutability":"nonpayable"},{"type":"function","name":"safeTransferFrom","inputs":[{"name":"from","type":"address","internalType":"address"},{"name":"to","type":"address","internalType":"address"},{"name":"tokenId","type":"uint256","internalType":"uint256"},{"name":"data","type":"bytes","internalType":"bytes"}],"outputs":[],"stateMutability":"nonpayable"},{"type":"function","name":"setApprovalForAll","inputs":[{"name":"operator","type":"address","internalType":"address"},{"name":"approved","type":"bool","internalType":"bool"}],"outputs":[],"stateMutability":"nonpayable"},{"type":"function","name":"setDeploymentRegistry","inputs":[{"name":"_deploymentRegistry","type":"address","internalType":"address"}],"outputs":[],"stateMutability":"nonpayable"},{"type":"function","name":"setGardenHatsModule","inputs":[{"name":"_gardenHatsModule","type":"address","internalType":"address"}],"outputs":[],"stateMutability":"nonpayable"},{"type":"function","name":"setKarmaGAPModule","inputs":[{"name":"_karmaGAPModule","type":"address","internalType":"address"}],"outputs":[],"stateMutability":"nonpayable"},{"type":"function","name":"supportsInterface","inputs":[{"name":"interfaceId","type":"bytes4","internalType":"bytes4"}],"outputs":[{"name":"","type":"bool","internalType":"bool"}],"stateMutability":"view"},{"type":"function","name":"symbol","inputs":[],"outputs":[{"name":"","type":"string","internalType":"string"}],"stateMutability":"view"},{"type":"function","name":"tokenURI","inputs":[{"name":"tokenId","type":"uint256","internalType":"uint256"}],"outputs":[{"name":"","type":"string","internalType":"string"}],"stateMutability":"view"},{"type":"function","name":"transferFrom","inputs":[{"name":"from","type":"address","internalType":"address"},{"name":"to","type":"address","internalType":"address"},{"name":"tokenId","type":"uint256","internalType":"uint256"}],"outputs":[],"stateMutability":"nonpayable"},{"type":"function","name":"transferOwnership","inputs":[{"name":"newOwner","type":"address","internalType":"address"}],"outputs":[],"stateMutability":"nonpayable"},{"type":"function","name":"upgradeTo","inputs":[{"name":"newImplementation","type":"address","internalType":"address"}],"outputs":[],"stateMutability":"nonpayable"},{"type":"function","name":"upgradeToAndCall","inputs":[{"name":"newImplementation","type":"address","internalType":"address"},{"name":"data","type":"bytes","internalType":"bytes"}],"outputs":[],"stateMutability":"payable"},{"type":"event","name":"AdminChanged","inputs":[{"name":"previousAdmin","type":"address","indexed":false,"internalType":"address"},{"name":"newAdmin","type":"address","indexed":false,"internalType":"address"}],"anonymous":false},{"type":"event","name":"Approval","inputs":[{"name":"owner","type":"address","indexed":true,"internalType":"address"},{"name":"approved","type":"address","indexed":true,"internalType":"address"},{"name":"tokenId","type":"uint256","indexed":true,"internalType":"uint256"}],"anonymous":false},{"type":"event","name":"ApprovalForAll","inputs":[{"name":"owner","type":"address","indexed":true,"internalType":"address"},{"name":"operator","type":"address","indexed":true,"internalType":"address"},{"name":"approved","type":"bool","indexed":false,"internalType":"bool"}],"anonymous":false},{"type":"event","name":"BatchGardensMinted","inputs":[{"name":"startTokenId","type":"uint256","indexed":true,"internalType":"uint256"},{"name":"endTokenId","type":"uint256","indexed":true,"internalType":"uint256"},{"name":"minter","type":"address","indexed":true,"internalType":"address"},{"name":"count","type":"uint256","indexed":false,"internalType":"uint256"}],"anonymous":false},{"type":"event","name":"BeaconUpgraded","inputs":[{"name":"beacon","type":"address","indexed":true,"internalType":"address"}],"anonymous":false},{"type":"event","name":"GardenGAPProjectCreated","inputs":[{"name":"garden","type":"address","indexed":true,"internalType":"address"},{"name":"projectUID","type":"bytes32","indexed":false,"internalType":"bytes32"}],"anonymous":false},{"type":"event","name":"GardenHatTreeCreated","inputs":[{"name":"garden","type":"address","indexed":true,"internalType":"address"},{"name":"rootHatId","type":"uint256","indexed":false,"internalType":"uint256"}],"anonymous":false},{"type":"event","name":"GardenHatsModuleUpdated","inputs":[{"name":"oldModule","type":"address","indexed":true,"internalType":"address"},{"name":"newModule","type":"address","indexed":true,"internalType":"address"}],"anonymous":false},{"type":"event","name":"GardenMinted","inputs":[{"name":"tokenId","type":"uint256","indexed":true,"internalType":"uint256"},{"name":"account","type":"address","indexed":true,"internalType":"address"},{"name":"name","type":"string","indexed":false,"internalType":"string"},{"name":"description","type":"string","indexed":false,"internalType":"string"},{"name":"location","type":"string","indexed":false,"internalType":"string"},{"name":"bannerImage","type":"string","indexed":false,"internalType":"string"},{"name":"openJoining","type":"bool","indexed":false,"internalType":"bool"},{"name":"gardeners","type":"address[]","indexed":false,"internalType":"address[]"},{"name":"operators","type":"address[]","indexed":false,"internalType":"address[]"}],"anonymous":false},{"type":"event","name":"Initialized","inputs":[{"name":"version","type":"uint8","indexed":false,"internalType":"uint8"}],"anonymous":false},{"type":"event","name":"KarmaGAPModuleUpdated","inputs":[{"name":"oldModule","type":"address","indexed":true,"internalType":"address"},{"name":"newModule","type":"address","indexed":true,"internalType":"address"}],"anonymous":false},{"type":"event","name":"OwnershipTransferred","inputs":[{"name":"previousOwner","type":"address","indexed":true,"internalType":"address"},{"name":"newOwner","type":"address","indexed":true,"internalType":"address"}],"anonymous":false},{"type":"event","name":"Transfer","inputs":[{"name":"from","type":"address","indexed":true,"internalType":"address"},{"name":"to","type":"address","indexed":true,"internalType":"address"},{"name":"tokenId","type":"uint256","indexed":true,"internalType":"uint256"}],"anonymous":false},{"type":"event","name":"Upgraded","inputs":[{"name":"implementation","type":"address","indexed":true,"internalType":"address"}],"anonymous":false},{"type":"error","name":"CommunityTokenNotContract","inputs":[]},{"type":"error","name":"DeploymentRegistryNotConfigured","inputs":[]},{"type":"error","name":"InvalidBatchSize","inputs":[]},{"type":"error","name":"InvalidCommunityToken","inputs":[]},{"type":"error","name":"InvalidERC20Token","inputs":[]},{"type":"error","name":"TooManyGardeners","inputs":[]},{"type":"error","name":"TooManyOperators","inputs":[]},{"type":"error","name":"UnauthorizedMinter","inputs":[]}],"bytecode":{"object":"0x60c03461013357601f61328d38819003918201601f19168301916001600160401b038311848410176101375780849260209460405283398101031261013357516001600160a01b0381168103610133573060805260a0525f5460ff8160081c166100de5760ff808216036100a4575b604051613141908161014c82396080518181816112da015281816113c80152611ae1015260a0518181816104230152610d620152f35b60ff90811916175f557f7f26b83ff96e1f2b6a682f133852f6798a09c465da95921460cefb3847402498602060405160ff8152a15f61006e565b60405162461bcd60e51b815260206004820152602760248201527f496e697469616c697a61626c653a20636f6e747261637420697320696e697469604482015266616c697a696e6760c81b6064820152608490fd5b5f80fd5b634e487b7160e01b5f52604160045260245ffdfe610100806040526004361015610013575f80fd5b5f3560e01c90816301ffc9a714611f165750806306fdde0314611e6d578063081812fc14611e4f578063095ea7b314611cdb57806314902ad314611c9857806323b872dd14611c745780633659cfe614611abc5780634026d76214611a9457806342842e0e14611a62578063485cc955146116095780634f1ef2861461138a57806352d1902d146112c857806360a3c73f14610c8f5780636352211e14610c7157806370a0823114610bdc578063715018a614610b815780638da5cb5b14610b5957806395d89b4114610a7b578063a22cb465146109ad578063b88d4fde14610939578063bdecffeb14610911578063bf645f261461039e578063c663109214610376578063c87b56dd14610308578063d76ad6dc1461029f578063d9e4aaee14610236578063e985e9c5146101e45763f2fde38b14610151575f80fd5b346101e05760203660031901126101e05761016a611fbf565b610172612690565b6001600160a01b0381161561018c5761018a9061291b565b005b60405162461bcd60e51b815260206004820152602660248201527f4f776e61626c653a206e6577206f776e657220697320746865207a65726f206160448201526564647265737360d01b6064820152608490fd5b5f80fd5b346101e05760403660031901126101e0576101fd611fbf565b610205611fd5565b9060018060a01b038091165f52606a60205260405f2091165f52602052602060ff60405f2054166040519015158152f35b346101e05760203660031901126101e05761024f611fbf565b610257612690565b60cc80546001600160a01b039283166001600160a01b0319821681179092559091167fdbf2e72ed7bd92ccbb36e552bb0c1a8df6df7e6a54ab7ddc78720975e93fc88e5f80a3005b346101e05760203660031901126101e0576102b8611fbf565b6102c0612690565b60cb80546001600160a01b039283166001600160a01b0319821681179092559091167f6a4b50f0f3259f0a7be63012b940111fd6e9b6c2ad0593db2bf5b0c4e3d45cc05f80a3005b346101e05760203660031901126101e0576004355f9081526067602052604090205461033e906001600160a01b03161515612622565b5f60405161034b81612063565b5261037260405161035b81612063565b5f8152604051918291602083526020830190611f81565b0390f35b346101e0575f3660031901126101e05760ca546040516001600160a01b039091168152602090f35b346101e0576003196020368201126101e0576001600160401b03600435116101e05761012090600435360301126101e0576097546001600160a01b0316330361086a575b6103f86103f3600435600401612353565b612963565b60c9545f198114610856576001810160c9556104148133612a01565b604051630918575160e11b81527f00000000000000000000000000000000000000000000000000000000000000006001600160a01b03166004820152306024820152604481018290529060208260648173__$22345123dcf5f39d8c23eeef107f852197$__5af491821561081a575f92610825575b5061049c600480356024810191016123df565b9060a05290600435604401600435600401906104b7916123df565b90846104cb600480356064810191016123df565b906104de600480356084810191016123df565b906104ed60c460043501612411565b6104ff6004803560e481019101612367565b9390926105156004803561010481019101612367565b9790966040519b8c9b8c9b600160a01b60019003169f60a0516105379d612481565b037f14bc337f206da7f70397d9e85710d8cfc832cef49209b70d37be108a159794f291a36105686004803501612353565b61057a600480356024810191016123df565b9061058d600480356044810191016123df565b906105a0600480356064810191016123df565b906105b3600480356084810191016123df565b6105c56004803560a4810191016123df565b93909460043560c4016105d790612411565b966105ea6004803560e481019101612367565b99909a600435610104016004356004019061060491612367565b9d909e60405160805260805161061990612034565b600160a01b6001900316608051523690610632926120f0565b608051602001523690610644926120f0565b608051604001523690610656926120f0565b608051606001523690610668926120f0565b60805160800152369061067a926120f0565b60805160a00152151560805160c001523690610695926124fc565b60805160e0015236906106a7926124fc565b60805161010001526001600160a01b0381163b156101e0576040516359ec380160e01b81525f81806106de60805160048301612552565b0381836001600160a01b0387165af1801561081a5761080b575b5061070e61010460043501600435600401612367565b1590506107ff5761072a61010460043501600435600401612367565b919091156107eb576107d9610740602093612353565b6107776107576024600435016004356004016123df565b9061076d61010460043501600435600401612367565b9290918588612b12565b61078b6024600435016004356004016123df565b6107a26044600494939435016004356004016123df565b6107b96064600494939435016004356004016123df565b9390926107d06084600435016004356004016123df565b9790968a612c74565b6040516001600160a01b039091168152f35b634e487b7160e01b5f52603260045260245ffd5b6020906107d933610740565b61081490612050565b816106f8565b6040513d5f823e3d90fd5b61084891925060203d60201161084f575b61084081836120b4565b8101906123c0565b9082610489565b503d610836565b634e487b7160e01b5f52601160045260245ffd5b60ca546001600160a01b031680156108ff5760206024916040519283809262a743f760e61b82523360048301525afa5f91816108ce575b506108b85760405163955c501b60e01b8152600490fd5b6103e25760405163955c501b60e01b8152600490fd5b6108f191925060203d6020116108f8575b6108e981836120b4565b810190612318565b90826108a1565b503d6108df565b604051631db3a6cb60e11b8152600490fd5b346101e0575f3660031901126101e05760cb546040516001600160a01b039091168152602090f35b346101e05760803660031901126101e057610952611fbf565b61095a611fd5565b90606435906044356001600160401b0383116101e05761018a936109856109a8943690600401612126565b9261099861099384336126e8565b6121f4565b6109a38383836127ac565b612fbb565b612ded565b346101e05760403660031901126101e0576109c6611fbf565b602435908115158092036101e0576001600160a01b031690338214610a3657335f52606a60205260405f20825f5260205260405f2060ff1981541660ff83161790556040519081527f17307eab39ab6107e8899845ad3d59bd9653f200f220920489ca2b5937696c3160203392a3005b60405162461bcd60e51b815260206004820152601960248201527f4552433732313a20617070726f766520746f2063616c6c6572000000000000006044820152606490fd5b346101e0575f3660031901126101e0576040516066545f82610a9c83612180565b91828252602093600190856001821691825f14610b39575050600114610ade575b50610aca925003836120b4565b610372604051928284938452830190611f81565b84915060665f527f46501879b8ca8525e8c2fd519e2fbfcfa2ebea26501294aa02cbfcfb12e94354905f915b858310610b21575050610aca935082010185610abd565b80548389018501528794508693909201918101610b0a565b60ff191685820152610aca95151560051b8501019250879150610abd9050565b346101e0575f3660031901126101e0576097546040516001600160a01b039091168152602090f35b346101e0575f3660031901126101e057610b99612690565b609780546001600160a01b031981169091555f906001600160a01b03167f8be0079c531659141344cd1fd0a4f28419497f9722a3daafe3b4186f6b6457e08280a3005b346101e05760203660031901126101e0576001600160a01b03610bfd611fbf565b168015610c1a575f526068602052602060405f2054604051908152f35b60405162461bcd60e51b815260206004820152602960248201527f4552433732313a2061646472657373207a65726f206973206e6f7420612076616044820152683634b21037bbb732b960b91b6064820152608490fd5b346101e05760203660031901126101e05760206107d960043561266e565b346101e05760203660031901126101e0576001600160401b036004358181116101e057366023820112156101e05780600401359182116101e057602491828201916005908436918460051b0101116101e0576097546001600160a01b03163303611244575b8115801561123a575b611228575f5b8281106111a35750610d148261239c565b92610d2260405194856120b4565b828452601f19610d318461239c565b0136602086013760c95491610d4684846123b3565b60c9555f73__$22345123dcf5f39d8c23eeef107f852197$__927f0000000000000000000000000000000000000000000000000000000000000000915b868110610df657505050505060c954905f198201918211610de35761037294506040519283527fce282076a1439bd4b653b5657c2ab7abea5a48b4572799f57582e79e357b59f760203394a4604051918291602083526020830190612144565b84634e487b7160e01b5f5260116004525ffd5b610e0081876123b3565b90610e0c818985612330565b610e168333612a01565b604051630918575160e11b81526001600160a01b038616600482015230602482015260448101849052926020846064818b5af493841561081a575f94611182575b50610e6560208301836123df565b9060e0529060408301610e7890846123df565b9086610e8760608701876123df565b90610e9560808901896123df565b90610ea260c08b01612411565b610eaf60e08c018c612367565b939092610ec06101008e018e612367565b9790966040519b8c9b8c9b600160a01b60019003169f60e051610ee29d612481565b037f14bc337f206da7f70397d9e85710d8cfc832cef49209b70d37be108a159794f291a3610f0f81612353565b81610f1d60208201826123df565b9190610f2c60408301836123df565b90610f3a60608501856123df565b90610f4860808701876123df565b9091610f5760a08901896123df565b94909560c08a01610f6790612411565b97610f7560e08c018c612367565b9a909b6101008101610f8691612367565b9d909e60405160c05260c051610f9b90612034565b600160a01b600190031660c051523690610fb4926120f0565b60c051602001523690610fc6926120f0565b60c051604001523690610fd8926120f0565b60c051606001523690610fea926120f0565b60c051608001523690610ffc926120f0565b60c05160a00152151560c05160c001523690611017926124fc565b60c05160e001523690611029926124fc565b60c05161010001526001600160a01b0383163b156101e0576040516359ec380160e01b81525f818061106060c05160048301612552565b0381836001600160a01b0389165af1801561081a57611173575b50611089610100820182612367565b1590506111695761109e610100820182612367565b91909115611156576110b261111e92612353565b6110db6110c260208401846123df565b906110d1610100860186612367565b929091858a612b12565b6111156110eb60208401846123df565b6110fa604086939601836123df565b9161110860608501856123df565b95909460808101906123df565b9790968b612c74565b8851811015611143576001600160a01b0390911681851b890160200152600101610d83565b89634e487b7160e01b5f5260326004525ffd5b8b634e487b7160e01b5f5260326004525ffd5b61111e90336110b2565b61117c90612050565b8b61107a565b61119c91945060203d60201161084f5761084081836120b4565b928c610e57565b6111b96103f36111b4838688612330565b612353565b6111d16111c7828587612330565b60e0810190612367565b90506064809111611216576111f56111ea838688612330565b610100810190612367565b90501161120457600101610d03565b604051636055dca160e01b8152600490fd5b604051636bd3434560e11b8152600490fd5b604051637862e95960e01b8152600490fd5b50600a8211610cfd565b60ca546001600160a01b031680156108ff57602085916040519283809262a743f760e61b82523360048301525afa5f91816112a7575b506112915760405163955c501b60e01b8152600490fd5b610cf45760405163955c501b60e01b8152600490fd5b6112c191925060203d6020116108f8576108e981836120b4565b908661127a565b346101e0575f3660031901126101e0577f00000000000000000000000000000000000000000000000000000000000000006001600160a01b0316300361131f5760206040515f805160206131158339815191528152f35b60405162461bcd60e51b815260206004820152603860248201527f555550535570677261646561626c653a206d757374206e6f742062652063616c60448201527f6c6564207468726f7567682064656c656761746563616c6c00000000000000006064820152608490fd5b60403660031901126101e05761139e611fbf565b6024356001600160401b0381116101e0576113bd903690600401612126565b906001600160a01b037f00000000000000000000000000000000000000000000000000000000000000008116906113f630831415612256565b6114125f805160206131158339815191529282845416146122b7565b61141a612690565b7f4910fdfa16fed3260ed0e7147f7cc6da11a60208b5b9406d12a635614ffd91435460ff161561145057505061018a9150612e11565b6040516352d1902d60e01b81526020939291831691908481600481865afa5f91816115da575b506114d75760405162461bcd60e51b815260048101869052602e60248201527f45524331393637557067726164653a206e657720696d706c656d656e7461746960448201526d6f6e206973206e6f74205555505360901b6064820152608490fd5b03611583576114e582612e11565b7fbc7cd75a20ee27fd9adebab32041f755214dbc6bffa90cc0225b39da2e5c2d3b5f80a282511580159061157b575b61151a57005b5f8061018a946040519461152d8661207e565b602786527f416464726573733a206c6f772d6c6576656c2064656c65676174652063616c6c81870152660819985a5b195960ca1b604087015281519101845af4611575612ea0565b9161307b565b506001611514565b60405162461bcd60e51b815260048101849052602960248201527f45524331393637557067726164653a20756e737570706f727465642070726f786044820152681a58589b195555525160ba1b6064820152608490fd5b9091508581813d8311611602575b6115f281836120b4565b810103126101e057519087611476565b503d6115e8565b346101e05760403660031901126101e057611622611fbf565b61162a611fd5565b905f549160ff8360081c161590818092611a55575b8015611a3e575b156119e257600193828560ff198316175f556119d1575b506040519261166b84612099565b601284526020937123b932b2b71023b7b7b2399023b0b93232b760711b858201526040519061169982612099565b600382526247474760e81b868301526116c160ff5f5460081c166116bc816128bb565b6128bb565b8051916001600160401b03928381116118c657806116e0606554612180565b93601f94858111611964575b5089908583116001146118e5575f926118da575b50505f19600383901b1c191690891b176065555b80519283116118c657611728606654612180565b828111611864575b50869183116001146117e0576117809392915f91836117d5575b50505f19600383901b1c191690871b176066555b61177260ff5f5460081c166116bc816128bb565b61177b3361291b565b61291b565b60018060a01b03166001600160601b0360a01b60ca54161760ca556117a157005b7f7f26b83ff96e1f2b6a682f133852f6798a09c465da95921460cefb38474024989161ff00195f54165f55604051908152a1005b01519050888061174a565b92918791601f1982169060665f527f46501879b8ca8525e8c2fd519e2fbfcfa2ebea26501294aa02cbfcfb12e94354915f5b8a82821061184e57505095836117809710611836575b505050811b0160665561175e565b01515f1960f88460031b161c19169055888080611828565b8389015185558c96909401939283019201611812565b60665f527f46501879b8ca8525e8c2fd519e2fbfcfa2ebea26501294aa02cbfcfb12e943548380860160051c8201928a87106118bd575b0160051c019089905b8281106118b2575050611730565b5f81550189906118a4565b9250819261189b565b634e487b7160e01b5f52604160045260245ffd5b015190508a80611700565b908b9350601f1983169160655f527f8ff97419363ffd7000167f130ef7168fbea05faf9251824ca5043f113cc6a7c7925f5b8d82821061194e5750508411611936575b505050811b01606555611714565b01515f1960f88460031b161c191690558a8080611928565b8385015186558f97909501949384019301611917565b90915060655f527f8ff97419363ffd7000167f130ef7168fbea05faf9251824ca5043f113cc6a7c78580850160051c8201928c86106119c8575b918d91869594930160051c01915b8281106119ba5750506116ec565b5f81558594508d91016119ac565b9250819261199e565b61ffff1916610101175f558461165d565b60405162461bcd60e51b815260206004820152602e60248201527f496e697469616c697a61626c653a20636f6e747261637420697320616c72656160448201526d191e481a5b9a5d1a585b1a5e995960921b6064820152608490fd5b50303b1580156116465750600160ff851614611646565b50600160ff85161061163f565b346101e05761018a6109a8611a7636611fff565b9060405192611a8484612063565b5f845261099861099384336126e8565b346101e0575f3660031901126101e05760cc546040516001600160a01b039091168152602090f35b346101e0576020806003193601126101e057611ad6611fbf565b6001600160a01b03917f00000000000000000000000000000000000000000000000000000000000000008316611b0e30821415612256565b611b2a5f805160206131158339815191529185835416146122b7565b611b32612690565b60405193611b3f85612063565b5f85527f4910fdfa16fed3260ed0e7147f7cc6da11a60208b5b9406d12a635614ffd91435460ff1615611b795750505061018a9150612e11565b83929316906040516352d1902d60e01b81528481600481865afa5f9181611c45575b50611bfc5760405162461bcd60e51b815260048101869052602e60248201527f45524331393637557067726164653a206e657720696d706c656d656e7461746960448201526d6f6e206973206e6f74205555505360901b6064820152608490fd5b0361158357611c0a82612e11565b7fbc7cd75a20ee27fd9adebab32041f755214dbc6bffa90cc0225b39da2e5c2d3b5f80a2825115801590611c3e5761151a57005b505f611514565b9091508581813d8311611c6d575b611c5d81836120b4565b810103126101e057519087611b9b565b503d611c53565b346101e05761018a611c8536611fff565b91611c9361099384336126e8565b6127ac565b346101e05760203660031901126101e057611cb1611fbf565b611cb9612690565b60ca80546001600160a01b0319166001600160a01b0392909216919091179055005b346101e05760403660031901126101e057611cf4611fbf565b602435906001600160a01b038080611d0b8561266e565b16921691808314611e0057803314908115611ddf575b5015611d74575f83815260696020526040902080546001600160a01b03191683179055611d4d8361266e565b167f8c5be1e5ebec7d5bd14f71427d1e84f3dd0314c0f7b2291e5b200ac8c7c3b9255f80a4005b60405162461bcd60e51b815260206004820152603d60248201527f4552433732313a20617070726f76652063616c6c6572206973206e6f7420746f60448201527f6b656e206f776e6572206f7220617070726f76656420666f7220616c6c0000006064820152608490fd5b90505f52606a60205260405f20335f5260205260ff60405f20541684611d21565b60405162461bcd60e51b815260206004820152602160248201527f4552433732313a20617070726f76616c20746f2063757272656e74206f776e656044820152603960f91b6064820152608490fd5b346101e05760203660031901126101e05760206107d96004356121b8565b346101e0575f3660031901126101e0576040516065545f82611e8e83612180565b91828252602093600190856001821691825f14610b39575050600114611ebb5750610aca925003836120b4565b84915060655f527f8ff97419363ffd7000167f130ef7168fbea05faf9251824ca5043f113cc6a7c7905f915b858310611efe575050610aca935082010185610abd565b80548389018501528794508693909201918101611ee7565b346101e05760203660031901126101e0576004359063ffffffff60e01b82168092036101e0576020916380ac58cd60e01b8114908115611f70575b8115611f5f575b5015158152f35b6301ffc9a760e01b14905083611f58565b635b5e139f60e01b81149150611f51565b91908251928382525f5b848110611fab575050825f602080949584010152601f8019910116010190565b602081830181015184830182015201611f8b565b600435906001600160a01b03821682036101e057565b602435906001600160a01b03821682036101e057565b35906001600160a01b03821682036101e057565b60609060031901126101e0576001600160a01b039060043582811681036101e0579160243590811681036101e0579060443590565b61012081019081106001600160401b038211176118c657604052565b6001600160401b0381116118c657604052565b602081019081106001600160401b038211176118c657604052565b606081019081106001600160401b038211176118c657604052565b604081019081106001600160401b038211176118c657604052565b90601f801991011681019081106001600160401b038211176118c657604052565b6001600160401b0381116118c657601f01601f191660200190565b9291926120fc826120d5565b9161210a60405193846120b4565b8294818452818301116101e0578281602093845f960137010152565b9080601f830112156101e057816020612141933591016120f0565b90565b9081518082526020808093019301915f5b828110612163575050505090565b83516001600160a01b031685529381019392810192600101612155565b90600182811c921680156121ae575b602083101461219a57565b634e487b7160e01b5f52602260045260245ffd5b91607f169161218f565b5f818152606760205260409020546121da906001600160a01b03161515612622565b5f908152606960205260409020546001600160a01b031690565b156121fb57565b60405162461bcd60e51b815260206004820152602d60248201527f4552433732313a2063616c6c6572206973206e6f7420746f6b656e206f776e6560448201526c1c881bdc88185c1c1c9bdd9959609a1b6064820152608490fd5b1561225d57565b60405162461bcd60e51b815260206004820152602c60248201527f46756e6374696f6e206d7573742062652063616c6c6564207468726f7567682060448201526b19195b1959d85d1958d85b1b60a21b6064820152608490fd5b156122be57565b60405162461bcd60e51b815260206004820152602c60248201527f46756e6374696f6e206d7573742062652063616c6c6564207468726f7567682060448201526b6163746976652070726f787960a01b6064820152608490fd5b908160209103126101e0575180151581036101e05790565b91908110156107eb5760051b8101359061011e19813603018212156101e0570190565b356001600160a01b03811681036101e05790565b903590601e19813603018212156101e057018035906001600160401b0382116101e057602001918160051b360383136101e057565b6001600160401b0381116118c65760051b60200190565b9190820180921161085657565b908160209103126101e057516001600160a01b03811681036101e05790565b903590601e19813603018212156101e057018035906001600160401b0382116101e0576020019181360383136101e057565b3580151581036101e05790565b908060209392818452848401375f828201840152601f01601f1916010190565b9190808252602080920192915f5b82811061245a575050505090565b909192938280600192838060a01b0361247289611feb565b1681520195019392910161244c565b9b99956124bd8d6121419f9d99966124ee9c9b966124af6124d99a966124cb9860e0865260e086019161241e565b92602081850391015261241e565b8d810360408f01529161241e565b918a830360608c015261241e565b921515608088015286830360a088015261243e565b9260c081850391015261243e565b92916125078261239c565b9161251560405193846120b4565b829481845260208094019160051b81019283116101e057905b82821061253b5750505050565b83809161254784611feb565b81520191019061252e565b602080825282516001600160a01b031681830152820151610120604083018190526121419392909161258990610140830190611f81565b916125eb6125d76125c36125af604088015196601f199788888303016060890152611f81565b606088015187878303016080880152611f81565b6080870151868683030160a0870152611f81565b60a0860151858583030160c0860152611f81565b60c0850151151560e084015261261260e08601519161010092868683030184870152612144565b9401519282850301910152612144565b1561262957565b60405162461bcd60e51b815260206004820152601860248201527f4552433732313a20696e76616c696420746f6b656e20494400000000000000006044820152606490fd5b5f908152606760205260409020546001600160a01b0316612141811515612622565b6097546001600160a01b031633036126a457565b606460405162461bcd60e51b815260206004820152602060248201527f4f776e61626c653a2063616c6c6572206973206e6f7420746865206f776e65726044820152fd5b906001600160a01b0380806126fc8461266e565b1693169183831493841561272f575b508315612719575b50505090565b612725919293506121b8565b16145f8080612713565b9093505f52606a60205260405f20825f5260205260ff60405f205416925f61270b565b1561275957565b60405162461bcd60e51b815260206004820152602560248201527f4552433732313a207472616e736665722066726f6d20696e636f72726563742060448201526437bbb732b960d91b6064820152608490fd5b906127d4916127ba8461266e565b6001600160a01b0393918416928492909183168414612752565b1691821561286a57816127f1916127ea8661266e565b1614612752565b825f52606960205260405f206001600160601b0360a01b90818154169055815f52606860205260405f205f198154019055825f5260405f2060018154019055835f5260676020528260405f20918254161790557fddf252ad1be2c89b69c2b068fc378daa952ba7f163c4a11628f55a4df523b3ef5f80a4565b60405162461bcd60e51b8152602060048201526024808201527f4552433732313a207472616e7366657220746f20746865207a65726f206164646044820152637265737360e01b6064820152608490fd5b156128c257565b60405162461bcd60e51b815260206004820152602b60248201527f496e697469616c697a61626c653a20636f6e7472616374206973206e6f74206960448201526a6e697469616c697a696e6760a81b6064820152608490fd5b609780546001600160a01b039283166001600160a01b0319821681179092559091167f8be0079c531659141344cd1fd0a4f28419497f9722a3daafe3b4186f6b6457e05f80a3565b6001600160a01b0381169081156129ef573b156129dd576020600491604051928380926318160ddd60e01b82525afa90816129b2575b506129b0576040516326412d8960e21b8152600490fd5b565b602090813d83116129d6575b6129c881836120b4565b810103126101e0575f612999565b503d6129be565b60405163d0acc0d360e01b8152600490fd5b604051631a747e4f60e31b8152600490fd5b90604051612a0e81612063565b5f81526001600160a01b038316918215612ace576129b093816109a894612a51612a4b835f52606760205260018060a01b0360405f205416151590565b1561302f565b5f82815260676020526040902054612a73906001600160a01b03161515612a4b565b805f52606860205260405f2060018154019055815f52606760205260405f20816001600160601b0360a01b8254161790555f7fddf252ad1be2c89b69c2b068fc378daa952ba7f163c4a11628f55a4df523b3ef8180a4612ecf565b606460405162461bcd60e51b815260206004820152602060248201527f4552433732313a206d696e7420746f20746865207a65726f20616464726573736044820152fd5b60cb80549096959293926001600160a01b0391821691908215612c6957604080516318b7826f60e21b815260049481808660649916998a60048301528760249c16602483015260449c60448301606090526064830190612b719261241e565b03815a6020945f91f15f9181612c35575b50612b95575b5050505050505050505050565b7f496708741b2035ceb251ee0f5cce0c35b9bab9b57f9664059bf3f71a07cd44b360208892604051908152a260019960015b8a8110612bd45750612b88565b8482541690612be78160051b8601612353565b823b156101e0578451633868e7e560e01b81528089018b9052908716818c01525f818d018190528e9382908b90829084905af1612c26575b5001612bc7565b612c2f90612050565b5f612c1f565b9091506020813d602011612c61575b81612c51602093836120b4565b810103126101e05751905f612b82565b3d9150612c44565b505050505050505050565b9492959098919697939760018060a01b03988960cc5416988915612d8c578a986040519b8c9a8b9a638ae4d28160e01b8c52169d8e60048c01521660248a01526044890160c0905260c4890190612cca9261241e565b60031995868983030160648a0152612ce19261241e565b9084878303016084880152612cf59261241e565b918483030160a4850152612d089261241e565b03815a6020945f91f15f9181612d58575b50612d22575050565b80612d2b575050565b60207f65c671e0a6c071aba0834b3a4936e209d1bce05f81c3722a68677c6cb75c208091604051908152a2565b9091506020813d602011612d84575b81612d74602093836120b4565b810103126101e05751905f612d19565b3d9150612d67565b505050505050505050505050565b60809060208152603260208201527f4552433732313a207472616e7366657220746f206e6f6e20455243373231526560408201527131b2b4bb32b91034b6b83632b6b2b73a32b960711b60608201520190565b15612df457565b60405162461bcd60e51b815280612e0d60048201612d9a565b0390fd5b803b15612e45575f8051602061311583398151915280546001600160a01b0319166001600160a01b03909216919091179055565b60405162461bcd60e51b815260206004820152602d60248201527f455243313936373a206e657720696d706c656d656e746174696f6e206973206e60448201526c1bdd08184818dbdb9d1c9858dd609a1b6064820152608490fd5b3d15612eca573d90612eb1826120d5565b91612ebf60405193846120b4565b82523d5f602084013e565b606090565b909190803b15612fb357612f186020915f93604051948580948193630a85bd0160e11b998a84523360048501528460248501526044840152608060648401526084830190611f81565b03926001600160a01b03165af15f9181612f6e575b50612f6057612f3a612ea0565b80519081612f5b5760405162461bcd60e51b815280612e0d60048201612d9a565b602001fd5b6001600160e01b0319161490565b9091506020813d602011612fab575b81612f8a602093836120b4565b810103126101e057516001600160e01b0319811681036101e057905f612f2d565b3d9150612f7d565b505050600190565b92909190823b156130265761300d926020925f60018060a01b0360405180978196829584630a85bd0160e11b9c8d86523360048701521660248501526044840152608060648401526084830190611f81565b0393165af15f9181612f6e5750612f6057612f3a612ea0565b50505050600190565b1561303657565b60405162461bcd60e51b815260206004820152601c60248201527f4552433732313a20746f6b656e20616c7265616479206d696e746564000000006044820152606490fd5b919290156130dd575081511561308f575090565b3b156130985790565b60405162461bcd60e51b815260206004820152601d60248201527f416464726573733a2063616c6c20746f206e6f6e2d636f6e74726163740000006044820152606490fd5b8251909150156130f05750805190602001fd5b60405162461bcd60e51b815260206004820152908190612e0d906024830190611f8156fe360894a13ba1a3210667c828492db98dca3e2076cc3735a920a3ca505d382bbca164736f6c6343000819000a","linkReferences":{"src/lib/TBA.sol":{"TBALib":[{"start":1458,"length":20},{"start":3736,"length":20}]}}},"methodIdentifiers":{"approve(address,uint256)":"095ea7b3","balanceOf(address)":"70a08231","batchMintGardens((address,string,string,string,string,string,bool,address[],address[])[])":"60a3c73f","deploymentRegistry()":"c6631092","gardenHatsModule()":"bdecffeb","getApproved(uint256)":"081812fc","initialize(address,address)":"485cc955","isApprovedForAll(address,address)":"e985e9c5","karmaGAPModule()":"4026d762","mintGarden((address,string,string,string,string,string,bool,address[],address[]))":"bf645f26","name()":"06fdde03","owner()":"8da5cb5b","ownerOf(uint256)":"6352211e","proxiableUUID()":"52d1902d","renounceOwnership()":"715018a6","safeTransferFrom(address,address,uint256)":"42842e0e","safeTransferFrom(address,address,uint256,bytes)":"b88d4fde","setApprovalForAll(address,bool)":"a22cb465","setDeploymentRegistry(address)":"14902ad3","setGardenHatsModule(address)":"d76ad6dc","setKarmaGAPModule(address)":"d9e4aaee","supportsInterface(bytes4)":"01ffc9a7","symbol()":"95d89b41","tokenURI(uint256)":"c87b56dd","transferFrom(address,address,uint256)":"23b872dd","transferOwnership(address)":"f2fde38b","upgradeTo(address)":"3659cfe6","upgradeToAndCall(address,bytes)":"4f1ef286"},"id":142}