{"abi":[{"type":"constructor","inputs":[{"name":"erc4337EntryPoint","type":"address","internalType":"address"},{"name":"multicallForwarder","type":"address","internalType":"address"},{"name":"erc6551Registry","type":"address","internalType":"address"},{"name":"guardian","type":"address","internalType":"address"},{"name":"workApprovalResolver","type":"address","internalType":"address"},{"name":"assessmentResolver","type":"address","internalType":"address"}],"stateMutability":"nonpayable"},{"type":"fallback","stateMutability":"payable"},{"type":"receive","stateMutability":"payable"},{"type":"function","name":"ASSESSMENT_RESOLVER","inputs":[],"outputs":[{"name":"","type":"address","internalType":"address"}],"stateMutability":"view"},{"type":"function","name":"WORK_APPROVAL_RESOLVER","inputs":[],"outputs":[{"name":"","type":"address","internalType":"address"}],"stateMutability":"view"},{"type":"function","name":"bannerImage","inputs":[],"outputs":[{"name":"","type":"string","internalType":"string"}],"stateMutability":"view"},{"type":"function","name":"communityToken","inputs":[],"outputs":[{"name":"","type":"address","internalType":"address"}],"stateMutability":"view"},{"type":"function","name":"description","inputs":[],"outputs":[{"name":"","type":"string","internalType":"string"}],"stateMutability":"view"},{"type":"function","name":"entryPoint","inputs":[],"outputs":[{"name":"","type":"address","internalType":"contract IEntryPoint"}],"stateMutability":"view"},{"type":"function","name":"erc6551Registry","inputs":[],"outputs":[{"name":"","type":"address","internalType":"address"}],"stateMutability":"view"},{"type":"function","name":"execute","inputs":[{"name":"to","type":"address","internalType":"address"},{"name":"value","type":"uint256","internalType":"uint256"},{"name":"data","type":"bytes","internalType":"bytes"},{"name":"operation","type":"uint8","internalType":"uint8"}],"outputs":[{"name":"","type":"bytes","internalType":"bytes"}],"stateMutability":"payable"},{"type":"function","name":"executeAutoStake","inputs":[{"name":"goodsToken_","type":"address","internalType":"address"},{"name":"community","type":"address","internalType":"address"},{"name":"stakeAmount","type":"uint256","internalType":"uint256"},{"name":"member","type":"address","internalType":"address"}],"outputs":[],"stateMutability":"nonpayable"},{"type":"function","name":"executeBatch","inputs":[{"name":"operations","type":"tuple[]","internalType":"struct BatchExecutor.Operation[]","components":[{"name":"to","type":"address","internalType":"address"},{"name":"value","type":"uint256","internalType":"uint256"},{"name":"data","type":"bytes","internalType":"bytes"},{"name":"operation","type":"uint8","internalType":"uint8"}]}],"outputs":[{"name":"","type":"bytes[]","internalType":"bytes[]"}],"stateMutability":"payable"},{"type":"function","name":"executeNested","inputs":[{"name":"to","type":"address","internalType":"address"},{"name":"value","type":"uint256","internalType":"uint256"},{"name":"data","type":"bytes","internalType":"bytes"},{"name":"operation","type":"uint8","internalType":"uint8"},{"name":"proof","type":"tuple[]","internalType":"struct NestedAccountExecutor.ERC6551AccountInfo[]","components":[{"name":"salt","type":"bytes32","internalType":"bytes32"},{"name":"tokenContract","type":"address","internalType":"address"},{"name":"tokenId","type":"uint256","internalType":"uint256"}]}],"outputs":[{"name":"","type":"bytes","internalType":"bytes"}],"stateMutability":"payable"},{"type":"function","name":"extcall","inputs":[{"name":"to","type":"address","internalType":"address"},{"name":"value","type":"uint256","internalType":"uint256"},{"name":"data","type":"bytes","internalType":"bytes"}],"outputs":[{"name":"result","type":"bytes","internalType":"bytes"}],"stateMutability":"nonpayable"},{"type":"function","name":"extcreate","inputs":[{"name":"value","type":"uint256","internalType":"uint256"},{"name":"bytecode","type":"bytes","internalType":"bytes"}],"outputs":[{"name":"","type":"address","internalType":"address"}],"stateMutability":"nonpayable"},{"type":"function","name":"extcreate2","inputs":[{"name":"value","type":"uint256","internalType":"uint256"},{"name":"salt","type":"bytes32","internalType":"bytes32"},{"name":"bytecode","type":"bytes","internalType":"bytes"}],"outputs":[{"name":"","type":"address","internalType":"address"}],"stateMutability":"nonpayable"},{"type":"function","name":"extsload","inputs":[{"name":"slot","type":"bytes32","internalType":"bytes32"}],"outputs":[{"name":"value","type":"bytes32","internalType":"bytes32"}],"stateMutability":"view"},{"type":"function","name":"gapProjectUID","inputs":[],"outputs":[{"name":"","type":"bytes32","internalType":"bytes32"}],"stateMutability":"view"},{"type":"function","name":"gardenMemberCount","inputs":[],"outputs":[{"name":"","type":"uint256","internalType":"uint256"}],"stateMutability":"view"},{"type":"function","name":"getGAPProjectUID","inputs":[],"outputs":[{"name":"","type":"bytes32","internalType":"bytes32"}],"stateMutability":"view"},{"type":"function","name":"getNonce","inputs":[],"outputs":[{"name":"","type":"uint256","internalType":"uint256"}],"stateMutability":"view"},{"type":"function","name":"initialize","inputs":[{"name":"params","type":"tuple","internalType":"struct IGardenAccount.InitParams","components":[{"name":"communityToken","type":"address","internalType":"address"},{"name":"name","type":"string","internalType":"string"},{"name":"description","type":"string","internalType":"string"},{"name":"location","type":"string","internalType":"string"},{"name":"bannerImage","type":"string","internalType":"string"},{"name":"metadata","type":"string","internalType":"string"},{"name":"openJoining","type":"bool","internalType":"bool"}]}],"outputs":[],"stateMutability":"nonpayable"},{"type":"function","name":"isCommunity","inputs":[{"name":"account","type":"address","internalType":"address"}],"outputs":[{"name":"","type":"bool","internalType":"bool"}],"stateMutability":"view"},{"type":"function","name":"isEvaluator","inputs":[{"name":"account","type":"address","internalType":"address"}],"outputs":[{"name":"","type":"bool","internalType":"bool"}],"stateMutability":"view"},{"type":"function","name":"isFunder","inputs":[{"name":"account","type":"address","internalType":"address"}],"outputs":[{"name":"","type":"bool","internalType":"bool"}],"stateMutability":"view"},{"type":"function","name":"isGardener","inputs":[{"name":"account","type":"address","internalType":"address"}],"outputs":[{"name":"","type":"bool","internalType":"bool"}],"stateMutability":"view"},{"type":"function","name":"isLocked","inputs":[],"outputs":[{"name":"","type":"bool","internalType":"bool"}],"stateMutability":"view"},{"type":"function","name":"isOperator","inputs":[{"name":"account","type":"address","internalType":"address"}],"outputs":[{"name":"","type":"bool","internalType":"bool"}],"stateMutability":"view"},{"type":"function","name":"isOwner","inputs":[{"name":"account","type":"address","internalType":"address"}],"outputs":[{"name":"","type":"bool","internalType":"bool"}],"stateMutability":"view"},{"type":"function","name":"isTrustedForwarder","inputs":[{"name":"forwarder","type":"address","internalType":"address"}],"outputs":[{"name":"","type":"bool","internalType":"bool"}],"stateMutability":"view"},{"type":"function","name":"isValidSignature","inputs":[{"name":"hash","type":"bytes32","internalType":"bytes32"},{"name":"signature","type":"bytes","internalType":"bytes"}],"outputs":[{"name":"magicValue","type":"bytes4","internalType":"bytes4"}],"stateMutability":"view"},{"type":"function","name":"isValidSigner","inputs":[{"name":"signer","type":"address","internalType":"address"},{"name":"data","type":"bytes","internalType":"bytes"}],"outputs":[{"name":"magicValue","type":"bytes4","internalType":"bytes4"}],"stateMutability":"view"},{"type":"function","name":"joinGarden","inputs":[],"outputs":[],"stateMutability":"nonpayable"},{"type":"function","name":"location","inputs":[],"outputs":[{"name":"","type":"string","internalType":"string"}],"stateMutability":"view"},{"type":"function","name":"lock","inputs":[{"name":"_lockedUntil","type":"uint256","internalType":"uint256"}],"outputs":[],"stateMutability":"nonpayable"},{"type":"function","name":"lockedUntil","inputs":[],"outputs":[{"name":"","type":"uint256","internalType":"uint256"}],"stateMutability":"view"},{"type":"function","name":"maxGardeners","inputs":[],"outputs":[{"name":"","type":"uint256","internalType":"uint256"}],"stateMutability":"view"},{"type":"function","name":"metadata","inputs":[],"outputs":[{"name":"","type":"string","internalType":"string"}],"stateMutability":"view"},{"type":"function","name":"name","inputs":[],"outputs":[{"name":"","type":"string","internalType":"string"}],"stateMutability":"view"},{"type":"function","name":"onERC1155BatchReceived","inputs":[{"name":"","type":"address","internalType":"address"},{"name":"","type":"address","internalType":"address"},{"name":"","type":"uint256[]","internalType":"uint256[]"},{"name":"","type":"uint256[]","internalType":"uint256[]"},{"name":"","type":"bytes","internalType":"bytes"}],"outputs":[{"name":"","type":"bytes4","internalType":"bytes4"}],"stateMutability":"nonpayable"},{"type":"function","name":"onERC1155Received","inputs":[{"name":"","type":"address","internalType":"address"},{"name":"","type":"address","internalType":"address"},{"name":"","type":"uint256","internalType":"uint256"},{"name":"","type":"uint256","internalType":"uint256"},{"name":"","type":"bytes","internalType":"bytes"}],"outputs":[{"name":"","type":"bytes4","internalType":"bytes4"}],"stateMutability":"nonpayable"},{"type":"function","name":"onERC721Received","inputs":[{"name":"","type":"address","internalType":"address"},{"name":"","type":"address","internalType":"address"},{"name":"tokenId","type":"uint256","internalType":"uint256"},{"name":"","type":"bytes","internalType":"bytes"}],"outputs":[{"name":"","type":"bytes4","internalType":"bytes4"}],"stateMutability":"nonpayable"},{"type":"function","name":"openJoining","inputs":[],"outputs":[{"name":"","type":"bool","internalType":"bool"}],"stateMutability":"view"},{"type":"function","name":"overrides","inputs":[{"name":"","type":"address","internalType":"address"},{"name":"","type":"bytes4","internalType":"bytes4"}],"outputs":[{"name":"","type":"address","internalType":"address"}],"stateMutability":"view"},{"type":"function","name":"owner","inputs":[],"outputs":[{"name":"","type":"address","internalType":"address"}],"stateMutability":"view"},{"type":"function","name":"permissions","inputs":[{"name":"","type":"address","internalType":"address"},{"name":"","type":"address","internalType":"address"}],"outputs":[{"name":"","type":"bool","internalType":"bool"}],"stateMutability":"view"},{"type":"function","name":"proxiableUUID","inputs":[],"outputs":[{"name":"","type":"bytes32","internalType":"bytes32"}],"stateMutability":"view"},{"type":"function","name":"setMaxGardeners","inputs":[{"name":"_max","type":"uint256","internalType":"uint256"}],"outputs":[],"stateMutability":"nonpayable"},{"type":"function","name":"setOpenJoining","inputs":[{"name":"_openJoining","type":"bool","internalType":"bool"}],"outputs":[],"stateMutability":"nonpayable"},{"type":"function","name":"setOverrides","inputs":[{"name":"selectors","type":"bytes4[]","internalType":"bytes4[]"},{"name":"implementations","type":"address[]","internalType":"address[]"}],"outputs":[],"stateMutability":"nonpayable"},{"type":"function","name":"setPermissions","inputs":[{"name":"callers","type":"address[]","internalType":"address[]"},{"name":"_permissions","type":"bool[]","internalType":"bool[]"}],"outputs":[],"stateMutability":"nonpayable"},{"type":"function","name":"state","inputs":[],"outputs":[{"name":"","type":"uint256","internalType":"uint256"}],"stateMutability":"view"},{"type":"function","name":"supportsInterface","inputs":[{"name":"interfaceId","type":"bytes4","internalType":"bytes4"}],"outputs":[{"name":"","type":"bool","internalType":"bool"}],"stateMutability":"view"},{"type":"function","name":"token","inputs":[],"outputs":[{"name":"chainId","type":"uint256","internalType":"uint256"},{"name":"tokenContract","type":"address","internalType":"address"},{"name":"tokenId","type":"uint256","internalType":"uint256"}],"stateMutability":"view"},{"type":"function","name":"updateBannerImage","inputs":[{"name":"_bannerImage","type":"string","internalType":"string"}],"outputs":[],"stateMutability":"nonpayable"},{"type":"function","name":"updateDescription","inputs":[{"name":"_description","type":"string","internalType":"string"}],"outputs":[],"stateMutability":"nonpayable"},{"type":"function","name":"updateLocation","inputs":[{"name":"_location","type":"string","internalType":"string"}],"outputs":[],"stateMutability":"nonpayable"},{"type":"function","name":"updateMetadata","inputs":[{"name":"_metadata","type":"string","internalType":"string"}],"outputs":[],"stateMutability":"nonpayable"},{"type":"function","name":"updateName","inputs":[{"name":"_name","type":"string","internalType":"string"}],"outputs":[],"stateMutability":"nonpayable"},{"type":"function","name":"upgradeTo","inputs":[{"name":"newImplementation","type":"address","internalType":"address"}],"outputs":[],"stateMutability":"nonpayable"},{"type":"function","name":"upgradeToAndCall","inputs":[{"name":"newImplementation","type":"address","internalType":"address"},{"name":"data","type":"bytes","internalType":"bytes"}],"outputs":[],"stateMutability":"payable"},{"type":"function","name":"validateUserOp","inputs":[{"name":"userOp","type":"tuple","internalType":"struct UserOperation","components":[{"name":"sender","type":"address","internalType":"address"},{"name":"nonce","type":"uint256","internalType":"uint256"},{"name":"initCode","type":"bytes","internalType":"bytes"},{"name":"callData","type":"bytes","internalType":"bytes"},{"name":"callGasLimit","type":"uint256","internalType":"uint256"},{"name":"verificationGasLimit","type":"uint256","internalType":"uint256"},{"name":"preVerificationGas","type":"uint256","internalType":"uint256"},{"name":"maxFeePerGas","type":"uint256","internalType":"uint256"},{"name":"maxPriorityFeePerGas","type":"uint256","internalType":"uint256"},{"name":"paymasterAndData","type":"bytes","internalType":"bytes"},{"name":"signature","type":"bytes","internalType":"bytes"}]},{"name":"userOpHash","type":"bytes32","internalType":"bytes32"},{"name":"missingAccountFunds","type":"uint256","internalType":"uint256"}],"outputs":[{"name":"validationData","type":"uint256","internalType":"uint256"}],"stateMutability":"nonpayable"},{"type":"event","name":"AdminChanged","inputs":[{"name":"previousAdmin","type":"address","indexed":false,"internalType":"address"},{"name":"newAdmin","type":"address","indexed":false,"internalType":"address"}],"anonymous":false},{"type":"event","name":"BannerImageUpdated","inputs":[{"name":"updater","type":"address","indexed":true,"internalType":"address"},{"name":"newBannerImage","type":"string","indexed":false,"internalType":"string"}],"anonymous":false},{"type":"event","name":"BeaconUpgraded","inputs":[{"name":"beacon","type":"address","indexed":true,"internalType":"address"}],"anonymous":false},{"type":"event","name":"CommunityTokenUpdated","inputs":[{"name":"updater","type":"address","indexed":true,"internalType":"address"},{"name":"newToken","type":"address","indexed":false,"internalType":"address"}],"anonymous":false},{"type":"event","name":"DescriptionUpdated","inputs":[{"name":"updater","type":"address","indexed":true,"internalType":"address"},{"name":"newDescription","type":"string","indexed":false,"internalType":"string"}],"anonymous":false},{"type":"event","name":"Initialized","inputs":[{"name":"version","type":"uint8","indexed":false,"internalType":"uint8"}],"anonymous":false},{"type":"event","name":"LocationUpdated","inputs":[{"name":"updater","type":"address","indexed":true,"internalType":"address"},{"name":"newLocation","type":"string","indexed":false,"internalType":"string"}],"anonymous":false},{"type":"event","name":"LockUpdated","inputs":[{"name":"lockedUntil","type":"uint256","indexed":false,"internalType":"uint256"}],"anonymous":false},{"type":"event","name":"MemberAutoRegistered","inputs":[{"name":"member","type":"address","indexed":true,"internalType":"address"},{"name":"community","type":"address","indexed":true,"internalType":"address"}],"anonymous":false},{"type":"event","name":"MetadataUpdated","inputs":[{"name":"updater","type":"address","indexed":true,"internalType":"address"},{"name":"newMetadata","type":"string","indexed":false,"internalType":"string"}],"anonymous":false},{"type":"event","name":"NameUpdated","inputs":[{"name":"updater","type":"address","indexed":true,"internalType":"address"},{"name":"newName","type":"string","indexed":false,"internalType":"string"}],"anonymous":false},{"type":"event","name":"OpenJoiningUpdated","inputs":[{"name":"updater","type":"address","indexed":true,"internalType":"address"},{"name":"openJoining","type":"bool","indexed":false,"internalType":"bool"}],"anonymous":false},{"type":"event","name":"OverrideUpdated","inputs":[{"name":"owner","type":"address","indexed":false,"internalType":"address"},{"name":"selector","type":"bytes4","indexed":false,"internalType":"bytes4"},{"name":"implementation","type":"address","indexed":false,"internalType":"address"}],"anonymous":false},{"type":"event","name":"PermissionUpdated","inputs":[{"name":"owner","type":"address","indexed":false,"internalType":"address"},{"name":"caller","type":"address","indexed":false,"internalType":"address"},{"name":"hasPermission","type":"bool","indexed":false,"internalType":"bool"}],"anonymous":false},{"type":"event","name":"Upgraded","inputs":[{"name":"implementation","type":"address","indexed":true,"internalType":"address"}],"anonymous":false},{"type":"error","name":"AccountLocked","inputs":[]},{"type":"error","name":"AlreadyGardener","inputs":[]},{"type":"error","name":"ContractCreationFailed","inputs":[]},{"type":"error","name":"ExceedsMaxLockTime","inputs":[]},{"type":"error","name":"GardenFull","inputs":[]},{"type":"error","name":"HatsModuleNotAvailable","inputs":[]},{"type":"error","name":"InvalidAccountProof","inputs":[]},{"type":"error","name":"InvalidERC6551Registry","inputs":[]},{"type":"error","name":"InvalidEntryPoint","inputs":[]},{"type":"error","name":"InvalidImplementation","inputs":[]},{"type":"error","name":"InvalidInput","inputs":[]},{"type":"error","name":"InvalidInvite","inputs":[]},{"type":"error","name":"InvalidMulticallForwarder","inputs":[]},{"type":"error","name":"InvalidOperation","inputs":[]},{"type":"error","name":"NotAuthorized","inputs":[]},{"type":"error","name":"NotGardenOperator","inputs":[]},{"type":"error","name":"NotGardenOwner","inputs":[]},{"type":"error","name":"OwnershipCycle","inputs":[]}],"bytecode":{"object":"0x6101803461025b57601f614e3238819003918201601f19168301916001600160401b0383118484101761025f5780849260c09460405283398101031261025b5761004881610273565b9061005560208201610273565b61006160408301610273565b9061006e60608401610273565b9161008760a061008060808701610273565b9501610273565b946001600160a01b0316801561024c576080523060a0526001600160a01b0381161561023e5760c05260e08190526001600160a01b03161561022f576001600160a01b03166101005230610120526101405261016052600454600881901c60ff166101da5760ff8082160361019f575b604051614baa90816102888239608051818181610f9a01528181611e3d015281816121d001526138f0015260a0518181816129480152614353015260c05181818161060c015281816129260152614375015260e051818181611715015281816144fc01526148f50152610100518181816139e30152613c15015261012051818181610e010152818161126c01526116450152610140518161213701526101605181610f300152f35b60ff90811916176004557f7f26b83ff96e1f2b6a682f133852f6798a09c465da95921460cefb3847402498602060405160ff8152a15f6100f7565b60405162461bcd60e51b815260206004820152602760248201527f496e697469616c697a61626c653a20636f6e747261637420697320696e697469604482015266616c697a696e6760c81b6064820152608490fd5b63754c753360e11b5f5260045ffd5b6246a29560e81b5f5260045ffd5b632039d3c960e01b5f5260045ffd5b5f80fd5b634e487b7160e01b5f52604160045260245ffd5b51906001600160a01b038216820361025b5756fe60806040526004361015610026575b361561001e5761001c6135e0565b005b61001c6135e0565b5f3560e01c806301ffc9a7146103e0578063039721b1146103db578063056d5afe146103d657806306fdde03146103d15780630959f6a8146103cc578063150b7a02146103c75780631626ba7e146103c25780631b561cf9146103bd5780631e2eaeaf146103b85780631ea48870146103b35780631f9838b5146103ae5780631fb1ecf0146103a9578063291d0548146103a457806329aa16171461039f5780632f54bf6e1461039a57806334715fb1146103955780633659cfe614610390578063392f37e91461038b5780633a208f95146103865780633a871cdd1461038157806341c6c4281461037c57806343629a731461037757806345a24e3e146103725780634f1ef2861461036d578063516f279e14610368578063519454471461036357806352094e551461035e578063523e32601461035957806352d1902d14610354578063572b6c051461034f5780636d70f7ae1461034a5780637284e416146103455780637a8f73561461034057806384da92a71461033b5780638da5cb5b14610336578063918b5be114610331578063932354c11461032c57806394def29d1461032757806398b7a25a14610322578063993fa20b1461031d578063a4e2d63414610318578063b0d691fe14610313578063b10006a61461030e578063b709467c14610309578063ba176bbc14610304578063bc197c81146102ff578063bcc5cf88146102fa578063c19d93fb146102f5578063ce0617ec146102f0578063d087d288146102eb578063d7962d09146102e6578063dd467064146102e1578063df341c4a146102dc578063e13ff8dd146102d7578063e735b48a146102d2578063ee9c6054146102cd578063f23a6e61146102c8578063f7fc57b0146102c3578063f89b9b93146102c35763fc0c546a0361000e5761273e565b61271c565b6126bb565b612663565b612539565b612428565b612306565b612257565b61223a565b61219f565b612183565b612166565b612122565b612075565b611fd8565b611f87565b611e6c565b611e28565b611e0a565b611dbb565b611d3f565b611ca3565b611b8f565b611a7b565b611a5e565b61193b565b611802565b611770565b611749565b6116f1565b611633565b6115eb565b6114b6565b6113fa565b611368565b611230565b6111df565b6110c9565b61104d565b610f5f565b610f1b565b610e89565b610ddf565b610d81565b610d5a565b610d2e565b610d0c565b610c73565b610c11565b610b34565b610b15565b6109a1565b61094f565b610874565b6107e1565b610709565b6105f7565b6104ac565b6103fb565b6001600160e01b03198116036103f757565b5f80fd5b346103f75760203660031901126103f757602061042260043561041d816103e5565b612775565b6040519015158152f35b9181601f840112156103f7578235916001600160401b0383116103f7576020808501948460051b0101116103f757565b60406003198201126103f7576004356001600160401b0381116103f757816104869160040161042c565b90929091602435906001600160401b0382116103f7576104a89160040161042c565b9091565b346103f7576104ba3661045c565b92906104d56104d06104ca6133c9565b91614012565b614350565b6001600160a01b03811680156105cb5733036105cb576104f361342a565b8385036105bc575f5b84811061050557005b8061055461051e6105196001948a8861286d565b612882565b61054361052a86610bca565b61053d610538868c8c61286d565b61288c565b90610bfc565b9060ff801983541691151516179055565b7f394777a58092892d136a90c4bb7e4350c72ac50fba6a0208128677f36527dcf561058361053883898961286d565b610591610519848b8961286d565b604080516001600160a01b03888116825293909316602084015290151590820152606090a1016104fc565b63b4fa3fb360e01b5f5260045ffd5b63ea8e4eb560e01b5f5260045ffd5b5f9103126103f757565b6001600160a01b03909116815260200190565b346103f7575f3660031901126103f7576040517f00000000000000000000000000000000000000000000000000000000000000006001600160a01b03168152602090f35b90600182811c92168015610669575b602083101461065557565b634e487b7160e01b5f52602260045260245ffd5b91607f169161064a565b634e487b7160e01b5f52604160045260245ffd5b601f909101601f19168101906001600160401b038211908210176106aa57604052565b610673565b5f5b8381106106c05750505f910152565b81810151838201526020016106b1565b906020916106e9815180928185528580860191016106af565b601f01601f1916010190565b9060206107069281815201906106d0565b90565b346103f7575f3660031901126103f7576040515f6005546107298161063b565b80845290600181169081156107ac5750600114610761575b61075d8361075181850382610687565b604051918291826106f5565b0390f35b60055f9081525f5160206149fe5f395f51905f52939250905b80821061079257509091508101602001610751610741565b91926001816020925483858801015201910190929161077a565b60ff191660208086019190915291151560051b840190910191506107519050610741565b6001600160a01b038116036103f757565b346103f75760203660031901126103f7576020610422600435610803816107d0565b613489565b6001600160401b0381116106aa57601f01601f191660200190565b92919261082f82610808565b9161083d6040519384610687565b8294818452818301116103f7578281602093845f960137010152565b9080601f830112156103f75781602061070693359101610823565b346103f75760803660031901126103f7576108906004356107d0565b61089b6024356107d0565b6044356064356001600160401b0381116103f7576108bd903690600401610859565b506108c66133c9565b9060018060a01b031633149283610918575b50508161090e575b506108ff576108ed6135e0565b604051630a85bd0160e11b8152602090f35b63b79e3f3f60e01b5f5260045ffd5b905046145f6108e0565b1491505f806108d8565b9181601f840112156103f7578235916001600160401b0383116103f757602083818601950101116103f757565b346103f75760403660031901126103f7576004356024356001600160401b0381116103f75760209161098861098e923690600401610922565b91612896565b6040516001600160e01b03199091168152f35b346103f75760203660031901126103f7576004356109be816107d0565b6109d56109c96137d6565b6001600160a01b031690565b6040516326ba248f60e21b81529091602082806109f68430600484016128c9565b0381865afa918215610a94575f92610af4575b508115610a99575b8115610a25575b6040518215158152602090f35b60209150610a4992604051808095819463f582bceb60e01b835230600484016128c9565b03915afa8015610a945761075d915f91610a65575b505f610a18565b610a87915060203d602011610a8d575b610a7f8183610687565b8101906128b4565b5f610a5e565b503d610a75565b6128e3565b604051630e70978b60e21b815290915060208180610abb8530600484016128c9565b0381865afa908115610a94575f91610ad5575b5090610a11565b610aee915060203d602011610a8d57610a7f8183610687565b5f610ace565b610b0e91925060203d602011610a8d57610a7f8183610687565b905f610a09565b346103f75760203660031901126103f757602060043554604051908152f35b346103f75760203660031901126103f757610b836020600435610b56816107d0565b6001600160a01b03610b666137d6565b16604051808095819463071f0a6b60e31b835230600484016128c9565b03915afa8015610a945761075d915f91610bab575b5060405190151581529081906020820190565b610bc4915060203d602011610a8d57610a7f8183610687565b5f610b98565b6001600160a01b03165f90815260026020526040902090565b6001600160a01b03165f90815260016020526040902090565b9060018060a01b03165f5260205260405f2090565b346103f75760403660031901126103f757602060ff610c5c600435610c35816107d0565b60243590610c42826107d0565b6001600160a01b03165f9081526002855260409020610bfc565b54166040519015158152f35b60ff8116036103f757565b60a03660031901126103f757600435610c8b816107d0565b602435906044356001600160401b0381116103f757610cae903690600401610922565b91606435610cbb81610c68565b608435936001600160401b0385116103f757366023860112156103f7576004850135936001600160401b0385116103f75736602460608702880101116103f75761075d966024610751970194612913565b346103f7575f3660031901126103f757602060ff600a54166040519015158152f35b346103f7575f3660031901126103f75760045460405160109190911c6001600160a01b03168152602090f35b346103f75760203660031901126103f7576020610422600435610d7c816107d0565b613b6c565b346103f75760603660031901126103f7576004356044356024356001600160401b0382116103f757602092610dbd610dcd933690600401610922565b929091610dc8613ba0565b613bba565b6040516001600160a01b039091168152f35b346103f75760203660031901126103f757600435610dfc816107d0565b610e537f00000000000000000000000000000000000000000000000000000000000000006001600160a01b0316610e3530821415612adb565b5f516020614afe5f395f51905f52546001600160a01b031614612b29565b610e5c81613bf1565b60405161001c91610e6e602083610687565b5f8252601f19610e7d5f610808565b01366020840137613d42565b346103f7575f3660031901126103f7576040515f600954610ea98161063b565b80845290600181169081156107ac5750600114610ed05761075d8361075181850382610687565b60095f9081525f516020614b5e5f395f51905f52939250905b808210610f0157509091508101602001610751610741565b919260018160209254838588010152019101909291610ee9565b346103f7575f3660031901126103f7576040517f00000000000000000000000000000000000000000000000000000000000000006001600160a01b03168152602090f35b346103f75760603660031901126103f7576004356001600160401b0381116103f75761016060031982360301126103f75760243590604435907f00000000000000000000000000000000000000000000000000000000000000006001600160a01b031633036110095761075d92610fd891600401613dee565b9080610ff0575b506040519081529081906020820190565b5f80808093338219f15061100261339a565b505f610fdf565b60405162461bcd60e51b815260206004820152601c60248201527b1858d8dbdd5b9d0e881b9bdd08199c9bdb48115b9d1c9e541bda5b9d60221b6044820152606490fd5b346103f7575f3660031901126103f7576020600c54604051908152f35b602081016020825282518091526040820191602060408360051b8301019401925f915b83831061109c57505050505090565b90919293946020806110ba600193603f1986820301875289516106d0565b9701930193019193929061108d565b60203660031901126103f7576004356001600160401b0381116103f7576110f490369060040161042c565b6111046110ff6144f9565b6138e2565b156105cb5761111161342a565b61111a81612001565b916111286040519384610687565b818352601f1961113783612001565b015f5b8181106111ce5750505f5b82811061115a576040518061075d868261106a565b806111b261116e6105386001948787612bad565b602061117b848888612bad565b013561119561118b858989612bad565b6040810190612bcf565b916111ac60606111a6888c8c612bad565b01612c01565b93613a6f565b6111bc8287612c0b565b526111c78186612c0b565b5001611145565b80606060208093880101520161113a565b346103f75760403660031901126103f7576004356024356001600160401b0381116103f75760209161122a61121b610dcd933690600401610922565b611223613ba0565b3691610823565b90613e3d565b60403660031901126103f757600435611248816107d0565b6024356001600160401b0381116103f757611267903690600401610859565b6112a07f00000000000000000000000000000000000000000000000000000000000000006001600160a01b0316610e3530821415612adb565b6112a982613bf1565b5f516020614a3e5f395f51905f525460ff16156112ca575061001c90614609565b6040516352d1902d60e01b8152906020826004816001600160a01b0387165afa5f9281611337575b506113145760405162461bcd60e51b81528061131060048201613cf3565b0390fd5b61001c926113325f516020614afe5f395f51905f5260019414613c95565b61454b565b61135a91935060203d602011611361575b6113528183610687565b810190612e78565b915f6112f2565b503d611348565b346103f7575f3660031901126103f7576040515f6007546113888161063b565b80845290600181169081156107ac57506001146113af5761075d8361075181850382610687565b60075f9081525f516020614abe5f395f51905f52939250905b8082106113e057509091508101602001610751610741565b9192600181602092548385880101520191019092916113c8565b60803660031901126103f757600435611412816107d0565b602435906044356001600160401b0381116103f757611435903690600401610922565b6064359161144283610c68565b61144d6110ff6144f9565b156105cb5761075d946114679461146261342a565b613a6f565b6040519182916020835260208301906106d0565b60206003198201126103f757600435906001600160401b0382116103f757806023830112156103f75781602461070693600401359101610823565b346103f7576114c43661147b565b6114cc6144f9565b6114d581613e57565b156115dc5781516001600160401b0381116106aa576114fe816114f960085461063b565b612c1f565b6020601f821160011461155d57916115308261154d935f516020614a9e5f395f51905f52955f91611552575b50612dfe565b6008555b6040516001600160a01b039091169390918291826106f5565b0390a2005b90508601515f61152a565b60085f52601f198216905f516020614b3e5f395f51905f52915f5b8181106115c45750925f516020614a9e5f395f51905f5294926001928261154d96106115ac575b5050811b01600855611534565b8701515f1960f88460031b161c191690555f8061159f565b9192602060018192868a015181550194019201611578565b633cebab8560e21b5f5260045ffd5b346103f75760403660031901126103f757600435611608816107d0565b6024356001600160401b0381116103f75760209161162d61098e923690600401610922565b91612e10565b346103f7575f3660031901126103f7577f00000000000000000000000000000000000000000000000000000000000000006001600160a01b0316300361168b576040515f516020614afe5f395f51905f528152602090f35b60405162461bcd60e51b815260206004820152603860248201527f555550535570677261646561626c653a206d757374206e6f742062652063616c6044820152771b1959081d1a1c9bdd59da0819195b1959d85d1958d85b1b60421b6064820152608490fd5b346103f75760203660031901126103f7576020600435611710816107d0565b6040517f00000000000000000000000000000000000000000000000000000000000000006001600160a01b039081169216919091148152f35b346103f75760203660031901126103f757602061042260043561176b816107d0565b613e57565b346103f7575f3660031901126103f7576040515f6006546117908161063b565b80845290600181169081156107ac57506001146117b75761075d8361075181850382610687565b60065f9081525f516020614b7e5f395f51905f52939250905b8082106117e857509091508101602001610751610741565b9192600181602092548385880101520191019092916117d0565b346103f7576118103661045c565b92906118206104d06104ca6133c9565b6001600160a01b03811680156105cb5733036105cb5761183e61342a565b61184730613f19565b3b1561192d575b8385036105bc575f5b84811061186057005b806118b86118746105386001948a8861286d565b61189961188086610be3565b61189361188e868c8c61286d565b612e39565b9061264d565b80546001600160a01b0319166001600160a01b03909216919091179055565b7f2c722487e90aca38ec1b074c3403210bd2bfb769b4da7f12f7bf0b9e37517c186118e761188e83898961286d565b6118f5610538848b8961286d565b604080516001600160a01b0380891682526001600160e01b03199094166020820152929091169082015280606081010390a101611857565b61193630613f55565b61184e565b346103f7576119493661147b565b6119516144f9565b61195a81613b6c565b15611a4f5781516001600160401b0381116106aa576119838161197e60055461063b565b612c6f565b6020601f82116001146119d057916119b48261154d935f516020614a1e5f395f51905f52955f916115525750612dfe565b6005556040516001600160a01b039091169390918291826106f5565b60055f52601f198216905f5160206149fe5f395f51905f52915f5b818110611a375750925f516020614a1e5f395f51905f5294926001928261154d9610611a1f575b5050811b01600555611534565b8701515f1960f88460031b161c191690555f80611a12565b9192602060018192868a0151815501940192016119eb565b633632b98960e21b5f5260045ffd5b346103f7575f3660031901126103f7576020610dcd6104ca6133c9565b346103f757611a893661147b565b611a916144f9565b611a9a81613e57565b156115dc5781516001600160401b0381116106aa57611ac381611abe60095461063b565b612cbf565b6020601f8211600114611b105791611af48261154d935f516020614b1e5f395f51905f52955f916115525750612dfe565b6009556040516001600160a01b039091169390918291826106f5565b60095f52601f198216905f516020614b5e5f395f51905f52915f5b818110611b775750925f516020614b1e5f395f51905f5294926001928261154d9610611b5f575b5050811b01600955611534565b8701515f1960f88460031b161c191690555f80611b52565b9192602060018192868a015181550194019201611b2b565b346103f757611b9d3661147b565b611ba56144f9565b611bae81613e57565b156115dc5781516001600160401b0381116106aa57611bd781611bd260075461063b565b612d0f565b6020601f8211600114611c245791611c088261154d935f516020614a5e5f395f51905f52955f916115525750612dfe565b6007556040516001600160a01b039091169390918291826106f5565b60075f52601f198216905f516020614abe5f395f51905f52915f5b818110611c8b5750925f516020614a5e5f395f51905f5294926001928261154d9610611c73575b5050811b01600755611534565b8701515f1960f88460031b161c191690555f80611c66565b9192602060018192868a015181550194019201611c3f565b346103f7575f3660031901126103f7576040515f600854611cc38161063b565b80845290600181169081156107ac5750600114611cea5761075d8361075181850382610687565b60085f9081525f516020614b3e5f395f51905f52939250905b808210611d1b57509091508101602001610751610741565b919260018160209254838588010152019101909291611d03565b801515036103f757565b346103f75760203660031901126103f757600435611d5c81611d35565b611d646144f9565b90611d6e82613e57565b156115dc5760207fa48b25a14599514510fcdca0f35ff4cd42847f5e61698a238f4ee01e2d1c2c6a9115159260ff19600a541660ff851617600a5560405193845260018060a01b031692a2005b346103f75760203660031901126103f757610b836020600435611ddd816107d0565b6001600160a01b03611ded6137d6565b16604051808095819463b2acf41d60e01b835230600484016128c9565b346103f7575f3660031901126103f75760205f546040519042108152f35b346103f7575f3660031901126103f7576040517f00000000000000000000000000000000000000000000000000000000000000006001600160a01b03168152602090f35b346103f7575f3660031901126103f757611e8f611e8b600a5460ff1690565b1590565b611f7857611e9b6144f9565b611ea481613489565b611f6957611eb06137d6565b600b548015159081611f5c575b50611f4d576001600160a01b031690813b156103f757604051633868e7e560e01b81523060048201526001600160a01b03821660248201525f6044820181905290928390606490829084905af1918215610a945761001c92611f33575b50611f2e611f29600c54612e57565b600c55565b614082565b80611f415f611f4793610687565b806105da565b5f611f1a565b6302332e7760e21b5f5260045ffd5b9050600c5410155f611ebd565b63211bad0f60e11b5f5260045ffd5b636dc9375d60e11b5f5260045ffd5b346103f75760603660031901126103f757600435611fa4816107d0565b60243590604435906001600160401b0382116103f75761075d92611fd261121b611467943690600401610922565b916142c9565b346103f75760203660031901126103f757600435611ff761176b6144f9565b156115dc57600b55005b6001600160401b0381116106aa5760051b60200190565b9080601f830112156103f757813561202f81612001565b9261203d6040519485610687565b81845260208085019260051b8201019283116103f757602001905b8282106120655750505090565b8135815260209182019101612058565b346103f75760a03660031901126103f7576120916004356107d0565b61209c6024356107d0565b6044356001600160401b0381116103f7576120bb903690600401612018565b506064356001600160401b0381116103f7576120db903690600401612018565b506084356001600160401b0381116103f7576120fb903690600401610859565b5061075d612107612e65565b6040516001600160e01b031990911681529081906020820190565b346103f7575f3660031901126103f7576040517f00000000000000000000000000000000000000000000000000000000000000006001600160a01b03168152602090f35b346103f7575f3660031901126103f7576020600354604051908152f35b346103f7575f3660031901126103f75760205f54604051908152f35b346103f7575f3660031901126103f757604051631aab3f0d60e11b81523060048201525f60248201526020816044817f00000000000000000000000000000000000000000000000000000000000000006001600160a01b03165afa8015610a945761075d915f9161221b57506040519081529081906020820190565b612234915060203d602011611361576113528183610687565b5f610fdf565b346103f7575f3660031901126103f7576020600b54604051908152f35b346103f75760203660031901126103f7576004356104d061228b6122796133c9565b6001600160a01b039492909190614012565b1680156105cb5733036105cb576301e1338042018042116123015781116122f2576122ed7fa7b24c66dd3269a292a60b3facdbb8f3e7557d1e19e64d99e0d6ee7250be63ad916122d961342a565b805f55604051918291829190602083019252565b0390a1005b6301814f7d60e31b5f5260045ffd5b612e43565b346103f75760803660031901126103f757600435612323816107d0565b60243561232f816107d0565b5f602061238b6044359460643595612346876107d0565b30331480612411575b61235890612e87565b60405163095ea7b360e01b81526001600160a01b0387166004820152602481019190915293849283919082906044820190565b03926001600160a01b03165af18015610a94576123f4575b506001600160a01b0316803b156103f75760405163799556e160e11b8152905f9082908183816123d688600483016105e4565b03925af18015610a94576123e657005b80611f415f61001c93610687565b61240c9060203d602011610a8d57610a7f8183610687565b6123a3565b50612358612421600d5460ff1690565b905061234f565b346103f75760203660031901126103f7576004356001600160401b0381116103f75760e060031982360301126103f7576124a960045491612489612473611e8b8560ff9060081c1690565b8094819561252b575b811561250b575b50612ece565b8261249c600160ff196004541617600455565b6124f2575b600401613211565b6124af57005b6124bf61ff001960045416600455565b604051600181527f7f26b83ff96e1f2b6a682f133852f6798a09c465da95921460cefb38474024989080602081016122ed565b61250661010061ff00196004541617600455565b6124a1565b303b1591508161251d575b505f612483565b60ff1660011490505f612516565b600160ff821610915061247c565b346103f7576125473661147b565b61254f6144f9565b61255881613e57565b156115dc5781516001600160401b0381116106aa576125818161257c60065461063b565b612d5f565b6020601f82116001146125ce57916125b28261154d935f5160206149de5f395f51905f52955f916115525750612dfe565b6006556040516001600160a01b039091169390918291826106f5565b60065f52601f198216905f516020614b7e5f395f51905f52915f5b8181106126355750925f5160206149de5f395f51905f5294926001928261154d961061261d575b5050811b01600655611534565b8701515f1960f88460031b161c191690555f80612610565b9192602060018192868a0151815501940192016125e9565b9063ffffffff60e01b165f5260205260405f2090565b346103f75760403660031901126103f7576020600435612682816107d0565b6024359061268f826103e5565b6001600160a01b039081165f908152600184526040902090916126b19161264d565b5416604051908152f35b346103f75760a03660031901126103f7576126d76004356107d0565b6126e26024356107d0565b6084356001600160401b0381116103f757612701903690600401610859565b5061270a6135e0565b60405163f23a6e6160e01b8152602090f35b346103f7575f3660031901126103f75760206127366142f1565b604051908152f35b346103f7575f3660031901126103f75760606127586133c9565b604080519384526001600160a01b03909216602084015290820152f35b63ffffffff60e01b16635194544760e01b8114908115612814575b5061280f576104d06127a36122796133c9565b165f9081526001602052604081206001600160a01b03916127d09190356001600160e01b0319169061264d565b5416806127dc57505f90565b5f8091604051806127ed813661338e565b03915afa6127f961339a565b901561280757602081519101f35b602081519101fd5b600190565b636faff5f160e01b81149150811561282e575b505f612790565b630271189760e51b811491508115612848575b505f612827565b6301ffc9a760e01b1490505f612841565b634e487b7160e01b5f52603260045260245ffd5b919081101561287d5760051b0190565b612859565b3561070681611d35565b35610706816107d0565b906128a192916136fb565b6128a9575f90565b630b135d3f60e11b90565b908160209103126103f7575161070681611d35565b6001600160a01b0391821681529116602082015260400190565b6040513d5f823e3d90fd5b919081101561287d576060020190565b908160209103126103f75751610706816107d0565b9590919293946129216144f9565b915f917f0000000000000000000000000000000000000000000000000000000000000000917f0000000000000000000000000000000000000000000000000000000000000000905b808510612991575050505050611e8b612981916138e2565b6105cb576107069461146261342a565b90919293946129c7906129a58784876128ee565b906129b26020830161288c565b9283926040810135938491354690898c613857565b92803b15612a3b57833b612a7a575b6040516331a9108f60e11b81526004810193909352602090839060249082906001600160a01b03165afa5f9281612a4a575b50612a1c57631052dd2560e21b5f5260045ffd5b6001600160a01b03908116911603612a3b579460010193929190612969565b631052dd2560e21b5f5260045ffd5b612a6c91935060203d8111612a73575b612a648183610687565b8101906128fe565b915f612a08565b503d612a5a565b604051632938b58d60e21b81526020816004816001600160a01b0389165afa908115610a94575f91612abd575b50156129d6575b636315bfbb60e01b5f5260045ffd5b612ad5915060203d8111610a8d57610a7f8183610687565b5f612aa7565b15612ae257565b60405162461bcd60e51b815260206004820152602c60248201525f516020614ade5f395f51905f5260448201526b19195b1959d85d1958d85b1b60a21b6064820152608490fd5b15612b3057565b60405162461bcd60e51b815260206004820152602c60248201525f516020614ade5f395f51905f5260448201526b6163746976652070726f787960a01b6064820152608490fd5b60405190612b86602083610687565b5f8252565b60405160a09190612b9c8382610687565b6080815291601f1901366020840137565b919081101561287d5760051b81013590607e19813603018212156103f7570190565b903590601e19813603018212156103f757018035906001600160401b0382116103f7576020019181360383136103f757565b3561070681610c68565b805182101561287d5760209160051b010190565b601f8111612c2b575050565b60085f5260205f20906020601f840160051c83019310612c65575b601f0160051c01905b818110612c5a575050565b5f8155600101612c4f565b9091508190612c46565b601f8111612c7b575050565b60055f5260205f20906020601f840160051c83019310612cb5575b601f0160051c01905b818110612caa575050565b5f8155600101612c9f565b9091508190612c96565b601f8111612ccb575050565b60095f5260205f20906020601f840160051c83019310612d05575b601f0160051c01905b818110612cfa575050565b5f8155600101612cef565b9091508190612ce6565b601f8111612d1b575050565b60075f5260205f20906020601f840160051c83019310612d55575b601f0160051c01905b818110612d4a575050565b5f8155600101612d3f565b9091508190612d36565b601f8111612d6b575050565b60065f5260205f20906020601f840160051c83019310612da5575b601f0160051c01905b818110612d9a575050565b5f8155600101612d8f565b9091508190612d86565b601f8211612dbc57505050565b5f5260205f20906020601f840160051c83019310612df4575b601f0160051c01905b818110612de9575050565b5f8155600101612dde565b9091508190612dd5565b8160011b915f199060031b1c19161790565b90612e2090612e26933691610823565b50613ec3565b612e2e575f90565b630291f19360e51b90565b35610706816103e5565b634e487b7160e01b5f52601160045260245ffd5b5f1981146123015760010190565b612e6d6135e0565b63bc197c8160e01b90565b908160209103126103f7575190565b15612e8e57565b60405162461bcd60e51b81526020600482015260186024820152774f6e6c7920696e7465726e616c206175746f2d7374616b6560401b6044820152606490fd5b15612ed557565b60405162461bcd60e51b815260206004820152602e60248201527f496e697469616c697a61626c653a20636f6e747261637420697320616c72656160448201526d191e481a5b9a5d1a585b1a5e995960921b6064820152608490fd5b91906001600160401b0381116106aa57612f5781612f5060065461063b565b6006612daf565b5f601f8211600114612f88578190612f7893945f92612f7d575b5050612dfe565b600655565b013590505f80612f71565b60065f52601f198216935f516020614b7e5f395f51905f52915f5b868110612fda5750836001959610612fc1575b505050811b01600655565b01355f19600384901b60f8161c191690555f8080612fb6565b90926020600181928686013581550194019101612fa3565b91906001600160401b0381116106aa576130188161301160075461063b565b6007612daf565b5f601f821160011461303d57819061303893945f92612f7d575050612dfe565b600755565b60075f52601f198216935f516020614abe5f395f51905f52915f5b86811061308f5750836001959610613076575b505050811b01600755565b01355f19600384901b60f8161c191690555f808061306b565b90926020600181928686013581550194019101613058565b91906001600160401b0381116106aa576130cd816130c660085461063b565b6008612daf565b5f601f82116001146130f25781906130ed93945f92612f7d575050612dfe565b600855565b60085f52601f198216935f516020614b3e5f395f51905f52915f5b868110613144575083600195961061312b575b505050811b01600855565b01355f19600384901b60f8161c191690555f8080613120565b9092602060018192868601358155019401910161310d565b91906001600160401b0381116106aa576131828161317b60095461063b565b6009612daf565b5f601f82116001146131a75781906131a293945f92612f7d575050612dfe565b600955565b60095f52601f198216935f516020614b5e5f395f51905f52915f5b8681106131f957508360019596106131e0575b505050811b01600955565b01355f19600384901b60f8161c191690555f80806131d5565b909260206001819286860135815501940191016131c2565b803561321c816107d0565b6004805462010000600160b01b03191660109290921b62010000600160b01b03169190911790556132506020820182612bcf565b906001600160401b0382116106aa576132758261326e60055461063b565b6005612daf565b5f90601f8311600114613315579261329f836133019460c094613313975f92612f7d575050612dfe565b6005555b6132b96132b36040830183612bcf565b90612f31565b6132cf6132c96060830183612bcf565b90612ff2565b6132e56132df6080830183612bcf565b906130a7565b6132fb6132f560a0830183612bcf565b9061315c565b01612882565b60ff8019600a54169115151617600a55565b565b60055f52601f198316915f5160206149fe5f395f51905f52925f5b81811061337657509360c093613313969360019383613301981061335d575b505050811b016005556132a3565b01355f19600384901b60f8161c191690555f808061334f565b91936020600181928787013581550195019201613330565b90815f8237015f815290565b3d156133c4573d906133ab82610808565b916133b96040519384610687565b82523d5f602084013e565b606090565b604051906133d8608083610687565b606082526133e66060610808565b6020830190601f19013682376060604d82303c6060838051810103126103f75751906060604084015193613419856107d0565b015191926001600160a01b03169190565b5f544210612aae5760035460806134816134426148f2565b92908360405194859260208401978852604080850152816060850152848401375f838284010152601f801991011681010301601f198101835282610687565b519020600355565b6134946109c96137d6565b6040516311e3579360e31b81529190602083806134b58530600484016128c9565b0381845afa928315610a94575f93613589575b50821561352e575b82156134db57505090565b613500925090602091604051808095819463f582bceb60e01b835230600484016128c9565b03915afa908115610a94575f91613515575090565b610706915060203d602011610a8d57610a7f8183610687565b604051630e70978b60e21b8152909250602081806135508530600484016128c9565b0381865afa908115610a94575f9161356a575b50916134d0565b613583915060203d602011610a8d57610a7f8183610687565b5f613563565b6135a391935060203d602011610a8d57610a7f8183610687565b915f6134c8565b60609190911b6001600160601b03191681526028929190815f6014830137019060018060601b03199060601b1660148201520190565b61360b6135f96135f46104d06104ca6133c9565b610be3565b5f356001600160e01b0319169061264d565b546001600160a01b03168061361d5750565b5f809161362930613f19565b908260405161365281613644602082019533903690886135aa565b03601f198101835282610687565b51925af16127f961339a565b906040101561287d5760400190565b906020116103f75790602090565b906040116103f75760200190602090565b90929192836020116103f75783116103f75760200191601f190190565b909392938483116103f75784116103f7578101920390565b3590602081106136cf575090565b5f199060200360031b1b1690565b600511156136e757565b634e487b7160e01b5f52602160045260245ffd5b909160ff61372361371d61370f848761365e565b356001600160f81b03191690565b60f81c90565b161561375c5761373e92613738913691610823565b906144c8565b613747816136dd565b6137575761070690612e20612b77565b505f90565b906137766109c96109c9613770858761366d565b906136c1565b9161377f612b77565b5061378c611e8b84613ec3565b806137c3575b6137bb576112238185816137af6137706137b5966107069a61367b565b916136a9565b91614448565b505050505f90565b506001600160a01b038316301415613792565b6137de6133c9565b506001600160a01b0316905080156138295760206004916040519283809263b4a9c60760e01b82525afa908115610a94575f91613838575b506001600160a01b038116156138295790565b63a9ec899b60e01b5f5260045ffd5b613851915060203d602011612a7357612a648183610687565b5f613816565b91929060559591600b956040519360b785015260018060a01b0316609784015260778301528360578301526e5af43d82803e903d91602b57fd5bf360378301526028820152733d60ad80600a3d3981f3363d3d373d3d3d363d73601482015260b7815260d781016040526020815191012091604051926040840152602083015281520160ff81532090565b6001600160a01b03818116907f000000000000000000000000000000000000000000000000000000000000000016811461397d5761391e6133c9565b9046830361398c575b61393092614012565b6001600160a01b03811682146139845761394990614350565b906001600160a01b0382161461397d576139759161396961396e92610bca565b610bfc565b5460ff1690565b61280f575f90565b5050600190565b505050600190565b6139b26139976144f9565b6001600160a01b0390811661111061111160901b0119011690565b6001600160a01b03163014613a22576040516333932be560e11b8152602081806139df89600483016105e4565b03817f00000000000000000000000000000000000000000000000000000000000000006001600160a01b03165afa908115610a94575f91613a2c575b5015613927575b5050505050600190565b613a45915060203d602011610a8d57610a7f8183610687565b5f613a1b565b60609190911b6001600160601b03191681526014929182908483013701015f815290565b9092919360ff16908115613b595760018214613b08575060028114613af157600314613aa457631cc6a69960e11b5f5260045ffd5b8261070692613ac78380613ac1613770613acf976136449a61366d565b9461368c565b929091613bba565b6040519283916020830160609190911b6001600160601b031916815260140190565b506107069161122a61364494613acf933691610823565b6107069493929150613b4690613b38613b2030613f19565b93843b15613b4b575b60405196879360208501613a4b565b03601f198101855284610687565b6142c9565b613b5430613f55565b613b29565b9291611fd2915093610706943691610823565b613500906020906001600160a01b03613b836137d6565b16604051808095819463f582bceb60e01b835230600484016128c9565b6001600160a01b03613bb130613f19565b1633036105cb57565b91613bc791933691610823565b9060208251920190f5906001600160a01b03821615613be257565b63a28c247360e01b5f5260045ffd5b6020613c119160405180938192631506fd4d60e01b8352600483016105e4565b03817f00000000000000000000000000000000000000000000000000000000000000006001600160a01b03165afa908115610a94575f91613c76575b5015613c6757613c61611e8b6110ff6144f9565b6105cb57565b63340aafcd60e11b5f5260045ffd5b613c8f915060203d602011610a8d57610a7f8183610687565b5f613c4d565b15613c9c57565b60405162461bcd60e51b815260206004820152602960248201527f45524331393637557067726164653a20756e737570706f727465642070726f786044820152681a58589b195555525160ba1b6064820152608490fd5b60809060208152602e60208201527f45524331393637557067726164653a206e657720696d706c656d656e7461746960408201526d6f6e206973206e6f74205555505360901b60608201520190565b90613d5b5f516020614a3e5f395f51905f525460ff1690565b15613d6a575061331390614609565b6040516352d1902d60e01b8152906020826004816001600160a01b0387165afa5f9281613dcd575b50613db05760405162461bcd60e51b81528061131060048201613cf3565b613313926113325f516020614afe5f395f51905f525f9414613c95565b613de791935060203d602011611361576113528183610687565b915f613d92565b613e30917b0ca2ba3432b932bab69029b4b3b732b21026b2b9b9b0b3b29d05199960211b5f52601c52613e2a603c5f2091610140810190612bcf565b916136fb565b613e3957600190565b5f90565b60208251920190f0906001600160a01b03821615613be257565b613e626109c96137d6565b604051630e70978b60e21b8152919060208380613e838530600484016128c9565b0381845afa928315610a94575f93613ea2575b5082156134db57505090565b613ebc91935060203d602011610a8d57610a7f8183610687565b915f613e96565b613ece6104ca6133c9565b6001600160a01b03828116919081168214613984576001600160a01b0390613ef590614350565b1680911461397d5760ff91613f14915f52600260205260405f20610bfc565b541690565b600b613f26605592614699565b602081519101206040519060408201525f516020614a7e5f395f51905f5260208201523081520160ff81532090565b613f5e90614699565b805115613fce5780516001600160a01b03915f516020614a7e5f395f51905f5291906020015ff51615613f8d57565b60405162461bcd60e51b8152602060048201526019602482015278437265617465323a204661696c6564206f6e206465706c6f7960381b6044820152606490fd5b606460405162461bcd60e51b815260206004820152602060248201527f437265617465323a2062797465636f6465206c656e677468206973207a65726f6044820152fd5b460361407c57803b1561407c576040516331a9108f60e11b81526004810192909252602090829060249082906001600160a01b03165afa5f918161405b575b5061070657505f90565b61407591925060203d602011612a7357612a648183610687565b905f614051565b50505f90565b61408d6109c9614763565b906001600160a01b038216156142c557604051631d973c7360e21b815291602083806140bc30600483016105e4565b0381845afa928315610a94575f936142a4575b506001600160a01b03831692831561429e57604051634bf3ba3f60e01b815291602083600481845afa928315610a94575f9361427d575b50821561423857602060049160405192838092634db3da5b60e11b82525afa908115610a94575f9161425e575b506001600160a01b0316908115614238576040516370a0823160e01b81526020818061416230600483016105e4565b0381865afa8015610a945784915f9161423f575b50106142385761418e600160ff19600d541617600d55565b303b156103f757604051636f9a0e2560e11b81526001600160a01b03928316600482015290821660248201526044810192909252821660648201525f8160848183305af19081614224575b506141f0575b505061331360ff19600d5416600d55565b6001600160a01b03167f80e20f0983f621b9f0480903a18b77ebc5a265c2d824ebe6b98dde91e811521f5f80a35f806141df565b80611f415f61423293610687565b5f6141d9565b5050505050565b614258915060203d602011611361576113528183610687565b5f614176565b614277915060203d602011612a7357612a648183610687565b5f614133565b61429791935060203d602011611361576113528183610687565b915f614106565b50505050565b6142be91935060203d602011612a7357612a648183610687565b915f6140cf565b5050565b915f928392602083519301915af1906142e061339a565b91156142e857565b50602081519101fd5b6001600160a01b036143016147a6565b1680156137575760206024916040519283809263a1d4b07f60e01b82523060048301525afa908115610a94575f91614337575090565b610706915060203d602011611361576113528183610687565b907f0000000000000000000000000000000000000000000000000000000000000000917f0000000000000000000000000000000000000000000000000000000000000000905b6143a18285836147e9565b1561444357604051637e062a3560e11b81529190606090839060049082906001600160a01b03165afa918215610a94575f5f915f946143f2575b50926143ea916143a194614012565b909150614396565b935050506060823d821161443b575b8161440e60609383610687565b810103126103f7576143ea6143a19280516040602083015192614430846107d0565b0151945090916143db565b3d9150614401565b925050565b5f929161364461447e85946040519283916020830195630b135d3f60e11b875260248401526040604484015260648301906106d0565b51915afa61448a61339a565b816144ba575b81614499575090565b90506144b6630b135d3f60e11b9160208082518301019101612e78565b1490565b905060208151101590614490565b9060418151145f146144f0576104a891602082015190606060408401519301515f1a90614881565b50505f90600290565b337f00000000000000000000000000000000000000000000000000000000000000006001600160a01b03161480614540575b1561453c5736601319013560601c90565b3390565b50601436101561452b565b9161455583614609565b6001600160a01b0383167fbc7cd75a20ee27fd9adebab32041f755214dbc6bffa90cc0225b39da2e5c2d3b5f80a281511590811591614601575b50614598575050565b6145fe915f80604051936145ad606086610687565b602785527f416464726573733a206c6f772d6c6576656c2064656c65676174652063616c6c6020860152660819985a5b195960ca1b6040860152602081519101845af46145f861339a565b9161494c565b50565b90505f61458f565b803b1561463e575f516020614afe5f395f51905f5280546001600160a01b0319166001600160a01b0392909216919091179055565b60405162461bcd60e51b815260206004820152602d60248201527f455243313936373a206e657720696d706c656d656e746174696f6e206973206e60448201526c1bdd08184818dbdb9d1c9858dd609a1b6064820152608490fd5b610706601461473192602060408051926146b38285610687565b600e84526d604380600d600039806000f3fe7360901b8385019081528251614752916146e0606083610687565b602e8252858201947f3314601d573d3dfd5b363d3d373d3d6014360360143d5160601c5af43d60008086526d3e80603e573d6000fd5b3d6000f360901b8184015251998a97518092888a01906106af565b86019260018060601b03199060601b168584015251809360348401906106af565b01010301601f198101835282610687565b61476b6133c9565b506001600160a01b031690508015613757576020600491604051928380926372a0d6ad60e01b82525afa5f918161405b575061070657505f90565b6147ae6133c9565b506001600160a01b031690508015613757576020600491604051928380926320136bb160e11b82525afa5f918161405b575061070657505f90565b9160ad833b0361487a576014600a600c853c5f5191823b156137bb576001600160a01b039081169083160361487a57614820612b8b565b60208101916080602d84873c6080828051810103126103f75761486b936109c993516040840151916080606086015195614859876107d0565b0151946001600160a01b031693613857565b6001600160a01b039091161490565b5050505f90565b6fa2a8918ca85bafe22016d0b997e4df60600160ff1b0384116148e7576020935f9360ff60809460405194855216868401526040830152606082015282805260015afa15610a94575f516001600160a01b038116156148df57905f90565b505f90600190565b505050505f90600390565b337f00000000000000000000000000000000000000000000000000000000000000006001600160a01b03161480614941575b1561493b57601319360190368211612301575f9190565b5f903690565b506014361015614924565b919290156149ae5750815115614960575090565b3b156149695790565b60405162461bcd60e51b815260206004820152601d60248201527f416464726573733a2063616c6c20746f206e6f6e2d636f6e74726163740000006044820152606490fd5b8251909150156149c15750805190602001fd5b60405162461bcd60e51b815290819061131090600483016106f556fe37cc8c6ced0cbc4d440fcfa810a2f09f40b8f0127c3656103edf26b3d93e0ec1036b6384b5eca791c62761152d0c79bb0604c104a5fb6f4eb0703f3154bb3db074321da206c1b9fa34367f7ece59ca49371dcd13820b9a5c3767ae1ecceed51a4910fdfa16fed3260ed0e7147f7cc6da11a60208b5b9406d12a635614ffd914323146a23bca92967799f9c14b4995bb19ca27a6331c8a66f695bc2525281502497f795a08410e77dc9dbbaba3915f17c601e45642518dd578bd440d8775bfee47f0cd4337b583a09080a4036ee4935d1069f38152ad2f0750588bb752c66916da66cc928b5edb82af9bd49922954155ab7b0942694bea4ce44661d9a8736c68846756e6374696f6e206d7573742062652063616c6c6564207468726f75676820360894a13ba1a3210667c828492db98dca3e2076cc3735a920a3ca505d382bbc2013570c343af8ab14a9778150e381a0fda34ed6368127a95fd5e7210cbec5bff3f7a9fe364faab93b216da50a3214154f22a0a2b415b23a84c8169e8b636ee36e1540171b6c0c960b71a7020d9f60077f6af931a8bbf590da0223dacf75c7aff652222313e28459528d920b65115c16c04f3efc82aaedc97be59f3f377c0d3fa164736f6c634300081c000a","linkReferences":{}},"methodIdentifiers":{"ASSESSMENT_RESOLVER()":"3a208f95","WORK_APPROVAL_RESOLVER()":"bcc5cf88","bannerImage()":"94def29d","communityToken()":"29aa1617","description()":"7284e416","entryPoint()":"b0d691fe","erc6551Registry()":"056d5afe","execute(address,uint256,bytes,uint8)":"51945447","executeAutoStake(address,address,uint256,address)":"df341c4a","executeBatch((address,uint256,bytes,uint8)[])":"43629a73","executeNested(address,uint256,bytes,uint8,(bytes32,address,uint256)[])":"1fb1ecf0","extcall(address,uint256,bytes)":"b709467c","extcreate(uint256,bytes)":"45a24e3e","extcreate2(uint256,bytes32,bytes)":"34715fb1","extsload(bytes32)":"1e2eaeaf","gapProjectUID()":"f7fc57b0","gardenMemberCount()":"41c6c428","getGAPProjectUID()":"f89b9b93","getNonce()":"d087d288","initialize((address,string,string,string,string,string,bool))":"e13ff8dd","isCommunity(address)":"993fa20b","isEvaluator(address)":"1b561cf9","isFunder(address)":"1ea48870","isGardener(address)":"0959f6a8","isLocked()":"a4e2d634","isOperator(address)":"6d70f7ae","isOwner(address)":"2f54bf6e","isTrustedForwarder(address)":"572b6c05","isValidSignature(bytes32,bytes)":"1626ba7e","isValidSigner(address,bytes)":"523e3260","joinGarden()":"b10006a6","location()":"516f279e","lock(uint256)":"dd467064","lockedUntil()":"ce0617ec","maxGardeners()":"d7962d09","metadata()":"392f37e9","name()":"06fdde03","onERC1155BatchReceived(address,address,uint256[],uint256[],bytes)":"bc197c81","onERC1155Received(address,address,uint256,uint256,bytes)":"f23a6e61","onERC721Received(address,address,uint256,bytes)":"150b7a02","openJoining()":"291d0548","overrides(address,bytes4)":"ee9c6054","owner()":"8da5cb5b","permissions(address,address)":"1f9838b5","proxiableUUID()":"52d1902d","setMaxGardeners(uint256)":"ba176bbc","setOpenJoining(bool)":"98b7a25a","setOverrides(bytes4[],address[])":"7a8f7356","setPermissions(address[],bool[])":"039721b1","state()":"c19d93fb","supportsInterface(bytes4)":"01ffc9a7","token()":"fc0c546a","updateBannerImage(string)":"52094e55","updateDescription(string)":"e735b48a","updateLocation(string)":"932354c1","updateMetadata(string)":"918b5be1","updateName(string)":"84da92a7","upgradeTo(address)":"3659cfe6","upgradeToAndCall(address,bytes)":"4f1ef286","validateUserOp((address,uint256,bytes,bytes,uint256,uint256,uint256,uint256,uint256,bytes,bytes),bytes32,uint256)":"3a871cdd"},"id":126}