{"abi":[{"type":"constructor","inputs":[{"name":"erc4337EntryPoint","type":"address","internalType":"address"},{"name":"multicallForwarder","type":"address","internalType":"address"},{"name":"erc6551Registry","type":"address","internalType":"address"},{"name":"guardian","type":"address","internalType":"address"}],"stateMutability":"nonpayable"},{"type":"fallback","stateMutability":"payable"},{"type":"receive","stateMutability":"payable"},{"type":"function","name":"bannerImage","inputs":[],"outputs":[{"name":"","type":"string","internalType":"string"}],"stateMutability":"view"},{"type":"function","name":"communityToken","inputs":[],"outputs":[{"name":"","type":"address","internalType":"address"}],"stateMutability":"view"},{"type":"function","name":"description","inputs":[],"outputs":[{"name":"","type":"string","internalType":"string"}],"stateMutability":"view"},{"type":"function","name":"entryPoint","inputs":[],"outputs":[{"name":"","type":"address","internalType":"contract IEntryPoint"}],"stateMutability":"view"},{"type":"function","name":"erc6551Registry","inputs":[],"outputs":[{"name":"","type":"address","internalType":"address"}],"stateMutability":"view"},{"type":"function","name":"execute","inputs":[{"name":"to","type":"address","internalType":"address"},{"name":"value","type":"uint256","internalType":"uint256"},{"name":"data","type":"bytes","internalType":"bytes"},{"name":"operation","type":"uint8","internalType":"uint8"}],"outputs":[{"name":"","type":"bytes","internalType":"bytes"}],"stateMutability":"payable"},{"type":"function","name":"executeBatch","inputs":[{"name":"operations","type":"tuple[]","internalType":"struct BatchExecutor.Operation[]","components":[{"name":"to","type":"address","internalType":"address"},{"name":"value","type":"uint256","internalType":"uint256"},{"name":"data","type":"bytes","internalType":"bytes"},{"name":"operation","type":"uint8","internalType":"uint8"}]}],"outputs":[{"name":"","type":"bytes[]","internalType":"bytes[]"}],"stateMutability":"payable"},{"type":"function","name":"executeNested","inputs":[{"name":"to","type":"address","internalType":"address"},{"name":"value","type":"uint256","internalType":"uint256"},{"name":"data","type":"bytes","internalType":"bytes"},{"name":"operation","type":"uint8","internalType":"uint8"},{"name":"proof","type":"tuple[]","internalType":"struct NestedAccountExecutor.ERC6551AccountInfo[]","components":[{"name":"salt","type":"bytes32","internalType":"bytes32"},{"name":"tokenContract","type":"address","internalType":"address"},{"name":"tokenId","type":"uint256","internalType":"uint256"}]}],"outputs":[{"name":"","type":"bytes","internalType":"bytes"}],"stateMutability":"payable"},{"type":"function","name":"extcall","inputs":[{"name":"to","type":"address","internalType":"address"},{"name":"value","type":"uint256","internalType":"uint256"},{"name":"data","type":"bytes","internalType":"bytes"}],"outputs":[{"name":"result","type":"bytes","internalType":"bytes"}],"stateMutability":"nonpayable"},{"type":"function","name":"extcreate","inputs":[{"name":"value","type":"uint256","internalType":"uint256"},{"name":"bytecode","type":"bytes","internalType":"bytes"}],"outputs":[{"name":"","type":"address","internalType":"address"}],"stateMutability":"nonpayable"},{"type":"function","name":"extcreate2","inputs":[{"name":"value","type":"uint256","internalType":"uint256"},{"name":"salt","type":"bytes32","internalType":"bytes32"},{"name":"bytecode","type":"bytes","internalType":"bytes"}],"outputs":[{"name":"","type":"address","internalType":"address"}],"stateMutability":"nonpayable"},{"type":"function","name":"extsload","inputs":[{"name":"slot","type":"bytes32","internalType":"bytes32"}],"outputs":[{"name":"value","type":"bytes32","internalType":"bytes32"}],"stateMutability":"view"},{"type":"function","name":"getNonce","inputs":[],"outputs":[{"name":"","type":"uint256","internalType":"uint256"}],"stateMutability":"view"},{"type":"function","name":"initialize","inputs":[{"name":"params","type":"tuple","internalType":"struct IGardenAccount.InitParams","components":[{"name":"communityToken","type":"address","internalType":"address"},{"name":"name","type":"string","internalType":"string"},{"name":"description","type":"string","internalType":"string"},{"name":"location","type":"string","internalType":"string"},{"name":"bannerImage","type":"string","internalType":"string"},{"name":"metadata","type":"string","internalType":"string"},{"name":"openJoining","type":"bool","internalType":"bool"},{"name":"gardeners","type":"address[]","internalType":"address[]"},{"name":"gardenOperators","type":"address[]","internalType":"address[]"}]}],"outputs":[],"stateMutability":"nonpayable"},{"type":"function","name":"isLocked","inputs":[],"outputs":[{"name":"","type":"bool","internalType":"bool"}],"stateMutability":"view"},{"type":"function","name":"isTrustedForwarder","inputs":[{"name":"forwarder","type":"address","internalType":"address"}],"outputs":[{"name":"","type":"bool","internalType":"bool"}],"stateMutability":"view"},{"type":"function","name":"isValidSignature","inputs":[{"name":"hash","type":"bytes32","internalType":"bytes32"},{"name":"signature","type":"bytes","internalType":"bytes"}],"outputs":[{"name":"magicValue","type":"bytes4","internalType":"bytes4"}],"stateMutability":"view"},{"type":"function","name":"isValidSigner","inputs":[{"name":"signer","type":"address","internalType":"address"},{"name":"data","type":"bytes","internalType":"bytes"}],"outputs":[{"name":"magicValue","type":"bytes4","internalType":"bytes4"}],"stateMutability":"view"},{"type":"function","name":"location","inputs":[],"outputs":[{"name":"","type":"string","internalType":"string"}],"stateMutability":"view"},{"type":"function","name":"lock","inputs":[{"name":"_lockedUntil","type":"uint256","internalType":"uint256"}],"outputs":[],"stateMutability":"nonpayable"},{"type":"function","name":"lockedUntil","inputs":[],"outputs":[{"name":"","type":"uint256","internalType":"uint256"}],"stateMutability":"view"},{"type":"function","name":"metadata","inputs":[],"outputs":[{"name":"","type":"string","internalType":"string"}],"stateMutability":"view"},{"type":"function","name":"name","inputs":[],"outputs":[{"name":"","type":"string","internalType":"string"}],"stateMutability":"view"},{"type":"function","name":"onERC1155BatchReceived","inputs":[{"name":"","type":"address","internalType":"address"},{"name":"","type":"address","internalType":"address"},{"name":"","type":"uint256[]","internalType":"uint256[]"},{"name":"","type":"uint256[]","internalType":"uint256[]"},{"name":"","type":"bytes","internalType":"bytes"}],"outputs":[{"name":"","type":"bytes4","internalType":"bytes4"}],"stateMutability":"nonpayable"},{"type":"function","name":"onERC1155Received","inputs":[{"name":"","type":"address","internalType":"address"},{"name":"","type":"address","internalType":"address"},{"name":"","type":"uint256","internalType":"uint256"},{"name":"","type":"uint256","internalType":"uint256"},{"name":"","type":"bytes","internalType":"bytes"}],"outputs":[{"name":"","type":"bytes4","internalType":"bytes4"}],"stateMutability":"nonpayable"},{"type":"function","name":"onERC721Received","inputs":[{"name":"","type":"address","internalType":"address"},{"name":"","type":"address","internalType":"address"},{"name":"tokenId","type":"uint256","internalType":"uint256"},{"name":"","type":"bytes","internalType":"bytes"}],"outputs":[{"name":"","type":"bytes4","internalType":"bytes4"}],"stateMutability":"nonpayable"},{"type":"function","name":"openJoining","inputs":[],"outputs":[{"name":"","type":"bool","internalType":"bool"}],"stateMutability":"view"},{"type":"function","name":"overrides","inputs":[{"name":"","type":"address","internalType":"address"},{"name":"","type":"bytes4","internalType":"bytes4"}],"outputs":[{"name":"","type":"address","internalType":"address"}],"stateMutability":"view"},{"type":"function","name":"owner","inputs":[],"outputs":[{"name":"","type":"address","internalType":"address"}],"stateMutability":"view"},{"type":"function","name":"permissions","inputs":[{"name":"","type":"address","internalType":"address"},{"name":"","type":"address","internalType":"address"}],"outputs":[{"name":"","type":"bool","internalType":"bool"}],"stateMutability":"view"},{"type":"function","name":"proxiableUUID","inputs":[],"outputs":[{"name":"","type":"bytes32","internalType":"bytes32"}],"stateMutability":"view"},{"type":"function","name":"setOpenJoining","inputs":[{"name":"_openJoining","type":"bool","internalType":"bool"}],"outputs":[],"stateMutability":"nonpayable"},{"type":"function","name":"setOverrides","inputs":[{"name":"selectors","type":"bytes4[]","internalType":"bytes4[]"},{"name":"implementations","type":"address[]","internalType":"address[]"}],"outputs":[],"stateMutability":"nonpayable"},{"type":"function","name":"setPermissions","inputs":[{"name":"callers","type":"address[]","internalType":"address[]"},{"name":"_permissions","type":"bool[]","internalType":"bool[]"}],"outputs":[],"stateMutability":"nonpayable"},{"type":"function","name":"state","inputs":[],"outputs":[{"name":"","type":"uint256","internalType":"uint256"}],"stateMutability":"view"},{"type":"function","name":"supportsInterface","inputs":[{"name":"interfaceId","type":"bytes4","internalType":"bytes4"}],"outputs":[{"name":"","type":"bool","internalType":"bool"}],"stateMutability":"view"},{"type":"function","name":"token","inputs":[],"outputs":[{"name":"chainId","type":"uint256","internalType":"uint256"},{"name":"tokenContract","type":"address","internalType":"address"},{"name":"tokenId","type":"uint256","internalType":"uint256"}],"stateMutability":"view"},{"type":"function","name":"updateBannerImage","inputs":[{"name":"_bannerImage","type":"string","internalType":"string"}],"outputs":[],"stateMutability":"nonpayable"},{"type":"function","name":"updateCommunityToken","inputs":[{"name":"_communityToken","type":"address","internalType":"address"}],"outputs":[],"stateMutability":"nonpayable"},{"type":"function","name":"updateDescription","inputs":[{"name":"_description","type":"string","internalType":"string"}],"outputs":[],"stateMutability":"nonpayable"},{"type":"function","name":"updateLocation","inputs":[{"name":"_location","type":"string","internalType":"string"}],"outputs":[],"stateMutability":"nonpayable"},{"type":"function","name":"updateMetadata","inputs":[{"name":"_metadata","type":"string","internalType":"string"}],"outputs":[],"stateMutability":"nonpayable"},{"type":"function","name":"updateName","inputs":[{"name":"_name","type":"string","internalType":"string"}],"outputs":[],"stateMutability":"nonpayable"},{"type":"function","name":"upgradeTo","inputs":[{"name":"newImplementation","type":"address","internalType":"address"}],"outputs":[],"stateMutability":"nonpayable"},{"type":"function","name":"upgradeToAndCall","inputs":[{"name":"newImplementation","type":"address","internalType":"address"},{"name":"data","type":"bytes","internalType":"bytes"}],"outputs":[],"stateMutability":"payable"},{"type":"function","name":"validateUserOp","inputs":[{"name":"userOp","type":"tuple","internalType":"struct UserOperation","components":[{"name":"sender","type":"address","internalType":"address"},{"name":"nonce","type":"uint256","internalType":"uint256"},{"name":"initCode","type":"bytes","internalType":"bytes"},{"name":"callData","type":"bytes","internalType":"bytes"},{"name":"callGasLimit","type":"uint256","internalType":"uint256"},{"name":"verificationGasLimit","type":"uint256","internalType":"uint256"},{"name":"preVerificationGas","type":"uint256","internalType":"uint256"},{"name":"maxFeePerGas","type":"uint256","internalType":"uint256"},{"name":"maxPriorityFeePerGas","type":"uint256","internalType":"uint256"},{"name":"paymasterAndData","type":"bytes","internalType":"bytes"},{"name":"signature","type":"bytes","internalType":"bytes"}]},{"name":"userOpHash","type":"bytes32","internalType":"bytes32"},{"name":"missingAccountFunds","type":"uint256","internalType":"uint256"}],"outputs":[{"name":"validationData","type":"uint256","internalType":"uint256"}],"stateMutability":"nonpayable"},{"type":"event","name":"AdminChanged","inputs":[{"name":"previousAdmin","type":"address","indexed":false,"internalType":"address"},{"name":"newAdmin","type":"address","indexed":false,"internalType":"address"}],"anonymous":false},{"type":"event","name":"BannerImageUpdated","inputs":[{"name":"updater","type":"address","indexed":true,"internalType":"address"},{"name":"newBannerImage","type":"string","indexed":false,"internalType":"string"}],"anonymous":false},{"type":"event","name":"BeaconUpgraded","inputs":[{"name":"beacon","type":"address","indexed":true,"internalType":"address"}],"anonymous":false},{"type":"event","name":"CommunityTokenUpdated","inputs":[{"name":"updater","type":"address","indexed":true,"internalType":"address"},{"name":"newToken","type":"address","indexed":false,"internalType":"address"}],"anonymous":false},{"type":"event","name":"DescriptionUpdated","inputs":[{"name":"updater","type":"address","indexed":true,"internalType":"address"},{"name":"newDescription","type":"string","indexed":false,"internalType":"string"}],"anonymous":false},{"type":"event","name":"Initialized","inputs":[{"name":"version","type":"uint8","indexed":false,"internalType":"uint8"}],"anonymous":false},{"type":"event","name":"LocationUpdated","inputs":[{"name":"updater","type":"address","indexed":true,"internalType":"address"},{"name":"newLocation","type":"string","indexed":false,"internalType":"string"}],"anonymous":false},{"type":"event","name":"LockUpdated","inputs":[{"name":"lockedUntil","type":"uint256","indexed":false,"internalType":"uint256"}],"anonymous":false},{"type":"event","name":"MetadataUpdated","inputs":[{"name":"updater","type":"address","indexed":true,"internalType":"address"},{"name":"newMetadata","type":"string","indexed":false,"internalType":"string"}],"anonymous":false},{"type":"event","name":"NameUpdated","inputs":[{"name":"updater","type":"address","indexed":true,"internalType":"address"},{"name":"newName","type":"string","indexed":false,"internalType":"string"}],"anonymous":false},{"type":"event","name":"OpenJoiningUpdated","inputs":[{"name":"updater","type":"address","indexed":true,"internalType":"address"},{"name":"openJoining","type":"bool","indexed":false,"internalType":"bool"}],"anonymous":false},{"type":"event","name":"OverrideUpdated","inputs":[{"name":"owner","type":"address","indexed":false,"internalType":"address"},{"name":"selector","type":"bytes4","indexed":false,"internalType":"bytes4"},{"name":"implementation","type":"address","indexed":false,"internalType":"address"}],"anonymous":false},{"type":"event","name":"PermissionUpdated","inputs":[{"name":"owner","type":"address","indexed":false,"internalType":"address"},{"name":"caller","type":"address","indexed":false,"internalType":"address"},{"name":"hasPermission","type":"bool","indexed":false,"internalType":"bool"}],"anonymous":false},{"type":"event","name":"Upgraded","inputs":[{"name":"implementation","type":"address","indexed":true,"internalType":"address"}],"anonymous":false},{"type":"error","name":"AccountLocked","inputs":[]},{"type":"error","name":"ContractCreationFailed","inputs":[]},{"type":"error","name":"ExceedsMaxLockTime","inputs":[]},{"type":"error","name":"InvalidAccountProof","inputs":[]},{"type":"error","name":"InvalidERC6551Registry","inputs":[]},{"type":"error","name":"InvalidEntryPoint","inputs":[]},{"type":"error","name":"InvalidImplementation","inputs":[]},{"type":"error","name":"InvalidInput","inputs":[]},{"type":"error","name":"InvalidMulticallForwarder","inputs":[]},{"type":"error","name":"InvalidOperation","inputs":[]},{"type":"error","name":"NotAuthorized","inputs":[]},{"type":"error","name":"NotGardenOwner","inputs":[]},{"type":"error","name":"OwnershipCycle","inputs":[]}],"bytecode":{"object":"0x6101403461021357601f61437738819003918201601f1916830191906001600160401b038311848410176102175781608092859260409586528339810103126102135761004b8261022b565b6100576020840161022b565b61006e606061006785870161022b565b950161022b565b936001600160a01b039283168015610202576080523060a052828116156101f25760c05260e08190528116156101e157610100921682526101209030825260045460ff8160081c1661018d5760ff80821603610153575b50519061413792836102408439608051838181610cb201528181611d8801528181611f880152613322015260a0518381816124ff0152613a15015260c051838181610531015281816125200152613a37015260e0518381816114e001528181613bbc0152613f820152518281816134310152613654015251818181610ac501528181610ff3015261140b0152f35b60ff90811916176004557f7f26b83ff96e1f2b6a682f133852f6798a09c465da95921460cefb38474024986020825160ff8152a15f6100c5565b815162461bcd60e51b815260206004820152602760248201527f496e697469616c697a61626c653a20636f6e747261637420697320696e697469604482015266616c697a696e6760c81b6064820152608490fd5b815163754c753360e11b8152600490fd5b83516246a29560e81b8152600490fd5b8451632039d3c960e01b8152600490fd5b5f80fd5b634e487b7160e01b5f52604160045260245ffd5b51906001600160a01b03821682036102135756fe60806040526004361015610026575b361561001e5761001c613053565b005b61001c613053565b5f3560e01c806301ffc9a714610305578063039721b114610300578063056d5afe146102fb57806306fdde03146102f6578063150b7a02146102f15780631626ba7e146102ec5780631e2eaeaf146102e75780631f9838b5146102e25780631fb1ecf0146102dd578063291d0548146102d857806329aa1617146102d357806334715fb1146102ce5780633659cfe6146102c9578063392f37e9146102c45780633a871cdd146102bf57806343629a73146102ba57806345a24e3e146102b55780634b511903146102b05780634f1ef286146102ab578063516f279e146102a657806351945447146102a157806352094e551461029c578063523e32601461029757806352d1902d14610292578063572b6c051461028d57806359ec3801146102885780637284e416146102835780637a8f73561461027e57806384da92a7146102795780638da5cb5b14610274578063918b5be11461026f578063932354c11461026a57806394def29d1461026557806398b7a25a14610260578063a4e2d6341461025b578063b0d691fe14610256578063b709467c14610251578063bc197c811461024c578063c19d93fb14610247578063ce0617ec14610242578063d087d2881461023d578063dd46706414610238578063e735b48a14610233578063ee9c60541461022e578063f23a6e61146102295763fc0c546a0361000e576122c8565b612267565b6121ff565b6120a6565b612003565b611f57565b611f3b565b611f1e565b611e7e565b611db7565b611d73565b611d55565b611ccb565b611c2f565b611ad6565b61197d565b611960565b611807565b6116b0565b61161e565b611514565b6114bc565b6113f9565b6113b1565b611246565b611187565b6110f5565b610fb2565b610f01565b610eb2565b610dcc565b610c7c565b610bea565b610a9e565b610a43565b610a17565b6109f5565b610968565b6108f9565b6108da565b610889565b6107ac565b610662565b61051c565b6103cb565b610320565b6001600160e01b031981160361031c57565b5f80fd5b3461031c57602036600319011261031c5760206103476004356103428161030a565b6122ff565b6040519015158152f35b9181601f8401121561031c578235916001600160401b03831161031c576020808501948460051b01011161031c57565b604060031982011261031c576001600160401b039160043583811161031c57826103ad91600401610351565b9390939260243591821161031c576103c791600401610351565b9091565b3461031c576103d936610381565b92906103f46103ef6103e9612f86565b9161397a565b613a12565b6001600160a01b038116801561050a57330361050a57610412612fe3565b8385036104f8575f5b84811061042457005b8061049061043d6104386001948a8861240c565b612421565b6001600160a01b0385165f90815260026020526040902061047f9061046b610466868c8c61240c565b61242b565b60018060a01b03165f5260205260405f2090565b9060ff801983541691151516179055565b7f394777a58092892d136a90c4bb7e4350c72ac50fba6a0208128677f36527dcf56104bf61046683898961240c565b6104cd610438848b8961240c565b604080516001600160a01b03888116825293909316602084015290151590820152606090a10161041b565b60405163b4fa3fb360e01b8152600490fd5b60405163ea8e4eb560e01b8152600490fd5b3461031c575f36600319011261031c576040517f00000000000000000000000000000000000000000000000000000000000000006001600160a01b03168152602090f35b90600182811c9216801561058e575b602083101461057a57565b634e487b7160e01b5f52602260045260245ffd5b91607f169161056f565b634e487b7160e01b5f52604160045260245ffd5b602081019081106001600160401b038211176105c757604052565b610598565b606081019081106001600160401b038211176105c757604052565b90601f801991011681019081106001600160401b038211176105c757604052565b5f5b8381106106195750505f910152565b818101518382015260200161060a565b9060209161064281518092818552858086019101610608565b601f01601f1916010190565b90602061065f928181520190610629565b90565b3461031c575f36600319011261031c576040515f60055461068281610560565b8084529060209060019081811690811561070557506001146106bf575b6106bb856106af818703826105e7565b6040519182918261064e565b0390f35b60055f90815293505f8051602061406b8339815191525b8385106106f2575050505081016020016106af826106bb61069f565b80548686018401529382019381016106d6565b8695506106bb969350602092506106af94915060ff191682840152151560051b820101929361069f565b6001600160a01b0381160361031c57565b6001600160401b0381116105c757601f01601f191660200190565b92919261076782610740565b9161077560405193846105e7565b82948184528183011161031c578281602093845f960137010152565b9080601f8301121561031c5781602061065f9335910161075b565b3461031c57608036600319011261031c576107c860043561072f565b6107d360243561072f565b6064356001600160401b03811161031c576107f2903690600401610791565b506107fb612f86565b919060018060a01b031633149182610850575b5081610846575b5061083457610822613053565b604051630a85bd0160e11b8152602090f35b60405163b79e3f3f60e01b8152600490fd5b905046145f610815565b6044351491505f61080e565b9181601f8401121561031c578235916001600160401b03831161031c576020838186019501011161031c57565b3461031c57604036600319011261031c576024356001600160401b03811161031c576108c76108be602092369060040161085c565b90600435612435565b6040516001600160e01b03199091168152f35b3461031c57602036600319011261031c57602060043554604051908152f35b3461031c57604036600319011261031c57602060ff61095160043561091d8161072f565b6024359061092a8261072f565b60018060a01b03165f526002845260405f209060018060a01b03165f5260205260405f2090565b54166040519015158152f35b60ff81160361031c57565b60a036600319011261031c576004356109808161072f565b6001600160401b0360443581811161031c576109a090369060040161085c565b9190926064356109af8161095d565b6084359383851161031c573660238601121561031c57846004013593841161031c57366024606086028701011161031c576106bb9560246106af96019360243590612498565b3461031c575f36600319011261031c57602060ff600a54166040519015158152f35b3461031c575f36600319011261031c5760045460405160109190911c6001600160a01b03168152602090f35b3461031c57606036600319011261031c576044356001600160401b03811161031c57610a8c610a78602092369060040161085c565b90610a816135d7565b6024356004356135f1565b6040516001600160a01b039091168152f35b3461031c57602036600319011261031c57600435610abb8161072f565b6001600160a01b037f000000000000000000000000000000000000000000000000000000000000000081169190610af430841415612677565b610b105f805160206140ab8339815191529382855416146126d8565b610b198261362b565b60405190610b26826105ac565b5f82527f4910fdfa16fed3260ed0e7147f7cc6da11a60208b5b9406d12a635614ffd91435460ff1615610b5f57505061001c9150613d16565b6020600491604094939451928380926352d1902d60e01b825286165afa5f9181610bb9575b50610ba65760405162461bcd60e51b815280610ba260048201613744565b0390fd5b61001c93610bb491146136e6565b613cc5565b610bdc91925060203d602011610be3575b610bd481836105e7565b8101906136d7565b905f610b84565b503d610bca565b3461031c575f36600319011261031c576040515f600954610c0a81610560565b808452906020906001908181169081156107055750600114610c36576106bb856106af818703826105e7565b60095f90815293505f805160206140eb8339815191525b838510610c69575050505081016020016106af826106bb61069f565b8054868601840152938201938101610c4d565b3461031c5760031960603682011261031c57600435906001600160401b03821161031c5761016090823603011261031c576044357f00000000000000000000000000000000000000000000000000000000000000006001600160a01b03163303610d2457610cf36106bb9260243590600401613793565b9080610d0b575b506040519081529081906020820190565b5f80808093338219f150610d1d612f57565b505f610cfa565b60405162461bcd60e51b815260206004820152601c60248201527f6163636f756e743a206e6f742066726f6d20456e747279506f696e74000000006044820152606490fd5b6020808201906020835283518092526040830192602060408460051b8301019501935f915b848310610d9e5750505050505090565b9091929394958480610dbc600193603f198682030187528a51610629565b9801930193019194939290610d8e565b60208060031936011261031c576004356001600160401b03811161031c57610df8903690600401610351565b91610e10610e0c610e07613bb9565b613315565b1590565b61050a57610e1c612fe3565b610e2583612775565b925f5b818110610e3d57604051806106bb8782610d69565b80610e96610e5161046660019486896127be565b848787610e5f8684846127be565b0135610e906060610e8a88610e82610e788289896127be565b60408101906127e0565b9790966127be565b01612812565b936134be565b610ea0828861281c565b52610eab818761281c565b5001610e28565b3461031c57604036600319011261031c576024356001600160401b03811161031c57610a8c610ef9610eea602093369060040161085c565b610ef26135d7565b369161075b565b6004356137e3565b3461031c57602036600319011261031c57600435610f1e8161072f565b610f26613bb9565b5f604051610f33816105ac565b52610f3d816137fd565b15610fa0576004805462010000600160b01b031916601084901b62010000600160b01b03161790557f1b5431099f08d34c1b67c3baba09da48c205d66021df446f824be5c7f86be7d5906020906040516001600160a01b039485168152931692a2005b604051633632b98960e21b8152600490fd5b604036600319011261031c57600435610fca8161072f565b6024356001600160401b03811161031c57610fe9903690600401610791565b6001600160a01b037f0000000000000000000000000000000000000000000000000000000000000000811692919061102330851415612677565b61103f5f805160206140ab8339815191529482865416146126d8565b6110488361362b565b7f4910fdfa16fed3260ed0e7147f7cc6da11a60208b5b9406d12a635614ffd91435460ff161561107e57505061001c9150613d16565b6020600491604094939451928380926352d1902d60e01b825286165afa5f91816110d4575b506110c15760405162461bcd60e51b815280610ba260048201613744565b61001c936110cf91146136e6565b613c0b565b6110ee91925060203d602011610be357610bd481836105e7565b905f6110a3565b3461031c575f36600319011261031c576040515f60075461111581610560565b808452906020906001908181169081156107055750600114611141576106bb856106af818703826105e7565b60075f90815293505f8051602061408b8339815191525b838510611174575050505081016020016106af826106bb61069f565b8054868601840152938201938101611158565b608036600319011261031c5760043561119f8161072f565b6044356001600160401b03811161031c576111be90369060040161085c565b606492919235906111ce8261095d565b6111d9610e07613bb9565b1561050a576106bb936111f7936111ee612fe3565b602435906134be565b604051918291602083526020830190610629565b602060031982011261031c57600435906001600160401b03821161031c578060238301121561031c5781602461065f9360040135910161075b565b3461031c576112543661120b565b61125c613bb9565b5f604051611269816105ac565b52611273816137fd565b15610fa05781516001600160401b0381116105c75761129c81611297600854610560565b612830565b602080601f831160011461131d5750916112f08261130d937f7f0cd4337b583a09080a4036ee4935d1069f38152ad2f0750588bb752c66916d955f91611312575b508160011b915f199060031b1c19161790565b6008555b6040516001600160a01b0390911693909182918261064e565b0390a2005b90508601515f6112dd565b60085f5290601f1983165f805160206140cb833981519152925f905b828210611399575050927f7f0cd4337b583a09080a4036ee4935d1069f38152ad2f0750588bb752c66916d94926001928261130d9610611381575b5050811b016008556112f4565b8701515f1960f88460031b161c191690555f80611374565b80600185968294968b01518155019501930190611339565b3461031c57604036600319011261031c576004356113ce8161072f565b6024356001600160401b03811161031c576020916113f36108c792369060040161085c565b916129f2565b3461031c575f36600319011261031c577f00000000000000000000000000000000000000000000000000000000000000006001600160a01b03163003611451576040515f805160206140ab8339815191528152602090f35b60405162461bcd60e51b815260206004820152603860248201527f555550535570677261646561626c653a206d757374206e6f742062652063616c60448201527f6c6564207468726f7567682064656c656761746563616c6c00000000000000006064820152608490fd5b3461031c57602036600319011261031c5760206004356114db8161072f565b6040517f00000000000000000000000000000000000000000000000000000000000000006001600160a01b039081169216919091148152f35b3461031c5760031960203682011261031c57600435906001600160401b03821161031c5761012090823603011261031c5761158d6004549161156d60ff8460081c161580948195611610575b81156115f0575b50612a1b565b82611580600160ff196004541617600455565b6115d7575b600401612d76565b61159357005b6115a361ff001960045416600455565b604051600181527f7f26b83ff96e1f2b6a682f133852f6798a09c465da95921460cefb38474024989080602081015b0390a1005b6115eb61010061ff00196004541617600455565b611585565b303b15915081611602575b505f611567565b6001915060ff16145f6115fb565b600160ff8216109150611560565b3461031c575f36600319011261031c576040515f60065461163e81610560565b80845290602090600190818116908115610705575060011461166a576106bb856106af818703826105e7565b60065f90815293505f8051602061410b8339815191525b83851061169d575050505081016020016106af826106bb61069f565b8054868601840152938201938101611681565b3461031c576116be36610381565b92906116ce6103ef6103e9612f86565b6001600160a01b038116801561050a57330361050a576116ec612fe3565b6116f530613857565b3b156117f9575b8385036104f8575f5b84811061170e57005b806117846117226104666001948a8861240c565b6001600160a01b0385165f9081526001602052604090206117659061175061174b868c8c61240c565b612f04565b63ffffffff60e01b165f5260205260405f2090565b80546001600160a01b0319166001600160a01b03909216919091179055565b7f2c722487e90aca38ec1b074c3403210bd2bfb769b4da7f12f7bf0b9e37517c186117b361174b83898961240c565b6117c1610466848b8961240c565b604080516001600160a01b0380891682526001600160e01b03199094166020820152929091169082015280606081010390a101611705565b611802306138a6565b6116fc565b3461031c576118153661120b565b61181d613bb9565b5f60405161182a816105ac565b52611834816137fd565b15610fa05781516001600160401b0381116105c75761185d81611858600554610560565b61288a565b602080601f83116001146118cc5750916118b08261130d937f74321da206c1b9fa34367f7ece59ca49371dcd13820b9a5c3767ae1ecceed51a955f9161131257508160011b915f199060031b1c19161790565b6005556040516001600160a01b0390911693909182918261064e565b60055f5290601f1983165f8051602061406b833981519152925f905b828210611948575050927f74321da206c1b9fa34367f7ece59ca49371dcd13820b9a5c3767ae1ecceed51a94926001928261130d9610611930575b5050811b016005556112f4565b8701515f1960f88460031b161c191690555f80611923565b80600185968294968b015181550195019301906118e8565b3461031c575f36600319011261031c576020610a8c6103e9612f86565b3461031c5761198b3661120b565b611993613bb9565b5f6040516119a0816105ac565b526119aa816137fd565b15610fa05781516001600160401b0381116105c7576119d3816119ce600954610560565b6128e4565b602080601f8311600114611a42575091611a268261130d937f2013570c343af8ab14a9778150e381a0fda34ed6368127a95fd5e7210cbec5bf955f9161131257508160011b915f199060031b1c19161790565b6009556040516001600160a01b0390911693909182918261064e565b60095f5290601f1983165f805160206140eb833981519152925f905b828210611abe575050927f2013570c343af8ab14a9778150e381a0fda34ed6368127a95fd5e7210cbec5bf94926001928261130d9610611aa6575b5050811b016009556112f4565b8701515f1960f88460031b161c191690555f80611a99565b80600185968294968b01518155019501930190611a5e565b3461031c57611ae43661120b565b611aec613bb9565b5f604051611af9816105ac565b52611b03816137fd565b15610fa05781516001600160401b0381116105c757611b2c81611b27600754610560565b61293e565b602080601f8311600114611b9b575091611b7f8261130d937f23146a23bca92967799f9c14b4995bb19ca27a6331c8a66f695bc25252815024955f9161131257508160011b915f199060031b1c19161790565b6007556040516001600160a01b0390911693909182918261064e565b60075f5290601f1983165f8051602061408b833981519152925f905b828210611c17575050927f23146a23bca92967799f9c14b4995bb19ca27a6331c8a66f695bc2525281502494926001928261130d9610611bff575b5050811b016007556112f4565b8701515f1960f88460031b161c191690555f80611bf2565b80600185968294968b01518155019501930190611bb7565b3461031c575f36600319011261031c576040515f600854611c4f81610560565b808452906020906001908181169081156107055750600114611c7b576106bb856106af818703826105e7565b60085f90815293505f805160206140cb8339815191525b838510611cae575050505081016020016106af826106bb61069f565b8054868601840152938201938101611c92565b8015150361031c57565b3461031c57602036600319011261031c57600435611ce881611cc1565b611cf0613bb9565b905f604051611cfe816105ac565b52611d08826137fd565b15610fa05760207fa48b25a14599514510fcdca0f35ff4cd42847f5e61698a238f4ee01e2d1c2c6a9115159260ff19600a541660ff851617600a5560405193845260018060a01b031692a2005b3461031c575f36600319011261031c5760205f546040519042108152f35b3461031c575f36600319011261031c576040517f00000000000000000000000000000000000000000000000000000000000000006001600160a01b03168152602090f35b3461031c57606036600319011261031c57600435611dd48161072f565b6044356001600160401b03811161031c576106bb91611dfd610eea6111f793369060040161085c565b90602435906139ea565b6001600160401b0381116105c75760051b60200190565b9080601f8301121561031c576020908235611e3881611e07565b93611e4660405195866105e7565b81855260208086019260051b82010192831161031c57602001905b828210611e6f575050505090565b81358152908301908301611e61565b3461031c5760a036600319011261031c57611e9a60043561072f565b611ea560243561072f565b6001600160401b0360443581811161031c57611ec5903690600401611e1e565b5060643581811161031c57611ede903690600401611e1e565b5060843590811161031c57611ef7903690600401610791565b506106bb611f03612f0e565b6040516001600160e01b031990911681529081906020820190565b3461031c575f36600319011261031c576020600354604051908152f35b3461031c575f36600319011261031c5760205f54604051908152f35b3461031c575f36600319011261031c57604051631aab3f0d60e11b81523060048201525f60248201526020816044817f00000000000000000000000000000000000000000000000000000000000000006001600160a01b03165afa8015611ffe575f90611fca575b604051908152602090f35b506020813d602011611ff6575b81611fe4602093836105e7565b8101031261031c576106bb9051611fbf565b3d9150611fd7565b612478565b3461031c57602036600319011261031c576004356103ef612037612025612f86565b6001600160a01b03949290919061397a565b16801561050a57330361050a5761204d42612f35565b8111612094576115d27fa7b24c66dd3269a292a60b3facdbb8f3e7557d1e19e64d99e0d6ee7250be63ad91612080612fe3565b805f55604051918291829190602083019252565b6040516301814f7d60e31b8152600490fd5b3461031c576120b43661120b565b6120bc613bb9565b5f6040516120c9816105ac565b526120d3816137fd565b15610fa05781516001600160401b0381116105c7576120fc816120f7600654610560565b612998565b602080601f831160011461216b57509161214f8261130d937f37cc8c6ced0cbc4d440fcfa810a2f09f40b8f0127c3656103edf26b3d93e0ec1955f9161131257508160011b915f199060031b1c19161790565b6006556040516001600160a01b0390911693909182918261064e565b60065f5290601f1983165f8051602061410b833981519152925f905b8282106121e7575050927f37cc8c6ced0cbc4d440fcfa810a2f09f40b8f0127c3656103edf26b3d93e0ec194926001928261130d96106121cf575b5050811b016006556112f4565b8701515f1960f88460031b161c191690555f806121c2565b80600185968294968b01518155019501930190612187565b3461031c57604036600319011261031c57602060043561221e8161072f565b61225d60243561222d8161030a565b6001600160a01b039283165f9081526001855260408082206001600160e01b031990931682526020929092522090565b5416604051908152f35b3461031c5760a036600319011261031c5761228360043561072f565b61228e60243561072f565b6084356001600160401b03811161031c576122ad903690600401610791565b506122b6613053565b60405163f23a6e6160e01b8152602090f35b3461031c575f36600319011261031c5760606122e2612f86565b604080519384526001600160a01b03909216602084015290820152f35b6001600160e01b0319908116635194544760e01b81149081156123b3575b506123ad5761236e612349916103ef612334612f86565b6001600160a01b03968794909390929061397a565b165f52600160205260405f20905f351663ffffffff60e01b165f5260205260405f2090565b54168061237a57505f90565b5f80916040518061238b8136612f4b565b03915afa612397612f57565b90156123a557602081519101f35b602081519101fd5b50600190565b636faff5f160e01b8114915081156123cd575b505f61231d565b630271189760e51b8114915081156123e7575b505f6123c6565b6301ffc9a760e01b1490505f6123e0565b634e487b7160e01b5f52603260045260245ffd5b919081101561241c5760051b0190565b6123f8565b3561065f81611cc1565b3561065f8161072f565b9061244092916131a7565b612448575f90565b630b135d3f60e11b90565b919081101561241c576060020190565b9081602091031261031c575161065f81611cc1565b6040513d5f823e3d90fd5b9081602091031261031c575161065f8161072f565b959490919293946124a7613bb9565b915f915b8083106124d657505050610e0c6124c191613315565b61050a5761065f946124d1612fe3565b6134be565b9091926124e4848385612453565b906124f16020830161242b565b6125446040840135824686357f00000000000000000000000000000000000000000000000000000000000000007f000000000000000000000000000000000000000000000000000000000000000061328e565b92813b156125bc57833b6125ff575b604080516331a9108f60e11b815291013560048201529190602090839060249082906001600160a01b03165afa5f92816125ce575b5061259f57604051631052dd2560e21b8152600490fd5b6001600160a01b039081169116036125bc579260010191906124ab565b604051631052dd2560e21b8152600490fd5b6125f191935060203d6020116125f8575b6125e981836105e7565b810190612483565b915f612588565b503d6125df565b604051632938b58d60e21b815260049060208183816001600160a01b038a165afa908115611ffe575f91612648575b506126395750612553565b604051636315bfbb60e01b8152fd5b61266a915060203d602011612670575b61266281836105e7565b810190612463565b5f61262e565b503d612658565b1561267e57565b60405162461bcd60e51b815260206004820152602c60248201527f46756e6374696f6e206d7573742062652063616c6c6564207468726f7567682060448201526b19195b1959d85d1958d85b1b60a21b6064820152608490fd5b156126df57565b60405162461bcd60e51b815260206004820152602c60248201527f46756e6374696f6e206d7573742062652063616c6c6564207468726f7567682060448201526b6163746976652070726f787960a01b6064820152608490fd5b60405190612746826105ac565b5f8252565b6040519060a082018281106001600160401b038211176105c7576040526080808352366020840137565b9061277f82611e07565b61278c60405191826105e7565b828152809261279d601f1991611e07565b01905f5b8281106127ad57505050565b8060606020809385010152016127a1565b919081101561241c5760051b81013590607e198136030182121561031c570190565b903590601e198136030182121561031c57018035906001600160401b03821161031c5760200191813603831361031c57565b3561065f8161095d565b805182101561241c5760209160051b010190565b601f811161283c575050565b60085f525f805160206140cb833981519152906020601f840160051c83019310612880575b601f0160051c01905b818110612875575050565b5f815560010161286a565b9091508190612861565b601f8111612896575050565b60055f525f8051602061406b833981519152906020601f840160051c830193106128da575b601f0160051c01905b8181106128cf575050565b5f81556001016128c4565b90915081906128bb565b601f81116128f0575050565b60095f525f805160206140eb833981519152906020601f840160051c83019310612934575b601f0160051c01905b818110612929575050565b5f815560010161291e565b9091508190612915565b601f811161294a575050565b60075f525f8051602061408b833981519152906020601f840160051c8301931061298e575b601f0160051c01905b818110612983575050565b5f8155600101612978565b909150819061296f565b601f81116129a4575050565b60065f525f8051602061410b833981519152906020601f840160051c830193106129e8575b601f0160051c01905b8181106129dd575050565b5f81556001016129d2565b90915081906129c9565b90612a0290612a0893369161075b565b506137fd565b612a10575f90565b630291f19360e51b90565b15612a2257565b60405162461bcd60e51b815260206004820152602e60248201527f496e697469616c697a61626c653a20636f6e747261637420697320616c72656160448201526d191e481a5b9a5d1a585b1a5e995960921b6064820152608490fd5b91906001600160401b0381116105c757612a9d816120f7600654610560565b5f601f8211600114612adb578190612acb93945f92612ad0575b50508160011b915f199060031b1c19161790565b600655565b013590505f80612ab7565b60065f52601f198216935f8051602061410b833981519152915f5b868110612b2d5750836001959610612b14575b505050811b01600655565b01355f19600384901b60f8161c191690555f8080612b09565b90926020600181928686013581550194019101612af6565b91906001600160401b0381116105c757612b6481611b27600754610560565b5f601f8211600114612b96578190612b9193945f92612ad05750508160011b915f199060031b1c19161790565b600755565b60075f52601f198216935f8051602061408b833981519152915f5b868110612be85750836001959610612bcf575b505050811b01600755565b01355f19600384901b60f8161c191690555f8080612bc4565b90926020600181928686013581550194019101612bb1565b91906001600160401b0381116105c757612c1f81611297600854610560565b5f601f8211600114612c51578190612c4c93945f92612ad05750508160011b915f199060031b1c19161790565b600855565b60085f52601f198216935f805160206140cb833981519152915f5b868110612ca35750836001959610612c8a575b505050811b01600855565b01355f19600384901b60f8161c191690555f8080612c7f565b90926020600181928686013581550194019101612c6c565b91906001600160401b0381116105c757612cda816119ce600954610560565b5f601f8211600114612d0c578190612d0793945f92612ad05750508160011b915f199060031b1c19161790565b600955565b60095f52601f198216935f805160206140eb833981519152915f5b868110612d5e5750836001959610612d45575b505050811b01600955565b01355f19600384901b60f8161c191690555f8080612d3a565b90926020600181928686013581550194019101612d27565b612dad8135612d848161072f565b6004805462010000600160b01b03191660109290921b62010000600160b01b0316919091179055565b6020612dbc60208301836127e0565b91906001600160401b0383116105c757612ddb83611858600554610560565b5f91601f8411600114612e89575092612e1383612e759460c094612e87975f92612ad05750508160011b915f199060031b1c19161790565b6005555b612e2d612e2760408301836127e0565b90612a7e565b612e43612e3d60608301836127e0565b90612b45565b612e59612e5360808301836127e0565b90612c00565b612e6f612e6960a08301836127e0565b90612cbb565b01612421565b60ff8019600a54169115151617600a55565b565b60055f5291601f1984165f8051602061406b833981519152935f905b828210612eec5750509360c093612e87969360019383612e759810612ed3575b505050811b01600555612e17565b01355f19600384901b60f8161c191690555f8080612ec5565b80600185978294968801358155019601930190612ea5565b3561065f8161030a565b612f16613053565b63bc197c8160e01b90565b634e487b7160e01b5f52601160045260245ffd5b906301e133808201809211612f4657565b612f21565b90815f8237015f815290565b3d15612f81573d90612f6882610740565b91612f7660405193846105e7565b82523d5f602084013e565b606090565b60405190608082018281106001600160401b038211176105c75760405260608252602082016060604d82303c60608380518101031261031c5751906060604084015193612fd28561072f565b015191926001600160a01b03169190565b5f544210613041576003546080613039612ffb613f7f565b92908360405194859260208401978852604080850152816060850152848401375f838284010152601f801991011681010360608101845201826105e7565b519020600355565b604051636315bfbb60e01b8152600490fd5b61309c6130806130676103ef6103e9612f86565b6001600160a01b03165f90815260016020526040902090565b5f80356001600160e01b03191681526020919091526040902090565b546001600160a01b0381166130ae5750565b5f80916130ba30613857565b90826040516130fe60488260208101956001600160601b0319809160601b16875236866034840137368201903360601b1660348201520360288101845201826105e7565b51925af1612397612f57565b906040101561241c5760400190565b9060201161031c5790602090565b9060401161031c5760200190602090565b909291928360201161031c57831161031c5760200191601f190190565b9093929384831161031c57841161031c578101920390565b35906020811061317b575090565b5f199060200360031b1b1690565b6005111561319357565b634e487b7160e01b5f52602160045260245ffd5b909160ff6131cf6131c96131bb848761310a565b356001600160f81b03191690565b60f81c90565b1615613208576131ea926131e491369161075b565b90613b88565b6131f381613189565b6132035761065f90612a02612739565b505f90565b9061322e61322261322261321c8587613119565b9061316d565b6001600160a01b031690565b91613237612739565b50613244610e0c846137fd565b8061327b575b61327357610ef281858161326761321c61326d9661065f9a613127565b91613155565b91613b0d565b505050505f90565b506001600160a01b03831630141561324a565b91906055959360e2956040519560b787015260018060a01b0316609786015260778501528160578501526e5af43d82803e903d91602b57fd5bf360378501526028840152733d60ad80600a3d3981f3363d3d373d3d3d363d73601484015260b7835260d7830190816040528351602085012061011785015260f7840152520160ff81532090565b6001600160a01b038181167f00000000000000000000000000000000000000000000000000000000000000008216811461349357613351612f86565b904683036133d4575b6133639261397a565b82811682146133cb5761337590613a12565b918216146133c4576001600160a01b03165f9081526002602052604090206133b7916133b0919060018060a01b03165f5260205260405f2090565b5460ff1690565b6133bf575f90565b600190565b5050600190565b50505050600190565b6134056133df613bb9565b6001600160a01b0390811673111100000000000000000000000000000000111019011690565b85163014613469576040516333932be560e11b81526001600160a01b03871660048201526020816024817f00000000000000000000000000000000000000000000000000000000000000008a165afa908115611ffe575f91613474575b501561335a575b505050505050600190565b61348d915060203d6020116126705761266281836105e7565b5f613462565b505050600190565b909280926014946001600160601b03199060601b1683528483013701015f815290565b9092919360ff169081156135be576001821461356d575060028114613550576003146134f657604051631cc6a69960e11b8152600490fd5b8261065f92613519838061351361321c613521976135429a613119565b94613138565b9290916135f1565b604051928391602083016014916001600160601b03199060601b1681520190565b03601f1981018352826105e7565b5061065f916135676135429461352193369161075b565b906137e3565b61065f94939291506135ab9061359d61358530613857565b93843b156135b0575b6040519687936020850161349b565b03601f1981018552846105e7565b6139ea565b6135b9306138a6565b61358e565b92916135d191509361065f94369161075b565b916139ea565b6001600160a01b036135e830613857565b16330361050a57565b916135fe9193369161075b565b9060208251920190f5906001600160a01b0382161561361957565b60405163a28c247360e01b8152600490fd5b604051631506fd4d60e01b81526001600160a01b039091166004820152602081806024810103817f00000000000000000000000000000000000000000000000000000000000000006001600160a01b03165afa908115611ffe575f916136b8575b50156136a6576136a0610e0c610e07613bb9565b61050a57565b60405163340aafcd60e11b8152600490fd5b6136d1915060203d6020116126705761266281836105e7565b5f61368c565b9081602091031261031c575190565b156136ed57565b60405162461bcd60e51b815260206004820152602960248201527f45524331393637557067726164653a20756e737570706f727465642070726f786044820152681a58589b195555525160ba1b6064820152608490fd5b60809060208152602e60208201527f45524331393637557067726164653a206e657720696d706c656d656e7461746960408201526d6f6e206973206e6f74205555505360901b60608201520190565b6137d6917f19457468657265756d205369676e6564204d6573736167653a0a3332000000005f52601c526137d0603c5f20916101408101906127e0565b916131a7565b6137df57600190565b5f90565b60208251920190f0906001600160a01b0382161561361957565b6138086103e9612f86565b6001600160a01b038281169180821683146133cb5761382690613a12565b168091146133c4575f9081526002602090815260408083206001600160a01b0390941683529290522060ff90541690565b600b613864605592613da5565b602081519101206040519060408201527f97f795a08410e77dc9dbbaba3915f17c601e45642518dd578bd440d8775bfee460208201523081520160ff81532090565b6138af90613da5565b8051156139365780516001600160a01b03917f97f795a08410e77dc9dbbaba3915f17c601e45642518dd578bd440d8775bfee491906020015ff516156138f157565b60405162461bcd60e51b815260206004820152601960248201527f437265617465323a204661696c6564206f6e206465706c6f79000000000000006044820152606490fd5b606460405162461bcd60e51b815260206004820152602060248201527f437265617465323a2062797465636f6465206c656e677468206973207a65726f6044820152fd5b46036139e457803b156139e4576040516331a9108f60e11b81526004810192909252602090829060249082906001600160a01b03165afa5f91816139c3575b5061065f57505f90565b6139dd91925060203d6020116125f8576125e981836105e7565b905f6139b9565b50505f90565b915f928392602083519301915af190613a01612f57565b9115613a0957565b50602081519101fd5b907f0000000000000000000000000000000000000000000000000000000000000000917f00000000000000000000000000000000000000000000000000000000000000005b613a62818584613e7c565b15613b085760408051637e062a3560e11b815292606091908290859060049082906001600160a01b03165afa938415611ffe575f915f935f96613ab8575b50505092613ab191613a629461397a565b9150613a57565b92509250809450813d8311613b01575b613ad281836105e7565b8101031261031c5782613ab191613a62945190602083015192613af48461072f565b0151909190948193613aa0565b503d613ac8565b509150565b5f9192908291604051613b44816135426020820194630b135d3f60e11b998a87526024840152604060448401526064830190610629565b51915afa90613b51612f57565b82613b7a575b82613b6157505090565b613b76919250602080825183010191016136d7565b1490565b915060208251101591613b57565b9060418151145f14613bb0576103c791602082015190606060408401519301515f1a90613f04565b50505f90600290565b337f00000000000000000000000000000000000000000000000000000000000000006001600160a01b03161480613c00575b15613bfc5736601319013560601c90565b3390565b506014361015613beb565b90613c1582613d16565b6001600160a01b0382167fbc7cd75a20ee27fd9adebab32041f755214dbc6bffa90cc0225b39da2e5c2d3b5f80a2805115801590613cbd575b613c56575050565b613cba915f8060405193613c69856105cc565b602785527f416464726573733a206c6f772d6c6576656c2064656c65676174652063616c6c6020860152660819985a5b195960ca1b6040860152602081519101845af4613cb4612f57565b91613fd9565b50565b506001613c4e565b90613ccf82613d16565b6001600160a01b0382167fbc7cd75a20ee27fd9adebab32041f755214dbc6bffa90cc0225b39da2e5c2d3b5f80a2805115801590613d0f57613c56575050565b505f613c4e565b803b15613d4a575f805160206140ab83398151915280546001600160a01b0319166001600160a01b03909216919091179055565b60405162461bcd60e51b815260206004820152602d60248201527f455243313936373a206e657720696d706c656d656e746174696f6e206973206e60448201526c1bdd08184818dbdb9d1c9858dd609a1b6064820152608490fd5b6040908151828101908082106001600160401b038311176105c7578361065f93603493613e4b9652600e8352613e6d602084016d604380600d600039806000f3fe7360901b8152835190613df8826105cc565b602e825260208201947f3314601d573d3dfd5b363d3d373d3d6014360360143d5160601c5af43d60008086526d3e80603e573d6000fd5b3d6000f360901b81840152519889965180926020890190610608565b8501926001600160601b03199060601b16602084015251809386840190610608565b010360148101845201826105e7565b9160ad833b03613efd576014600a600c853c5f5190813b15613273576001600160a01b039283168284160361327357613eb361274b565b60208101916080602d84883c60808280518101031261031c57613ef7936132229351604084015191876080606087015196613eed8861072f565b015195169361328e565b91161490565b5050505f90565b7f7fffffffffffffffffffffffffffffff5d576e7357a4501ddfe92f46681b20a08411613f74576020935f9360ff60809460405194855216868401526040830152606082015282805260015afa15611ffe575f516001600160a01b03811615613f6c57905f90565b505f90600190565b505050505f90600390565b337f00000000000000000000000000000000000000000000000000000000000000006001600160a01b03161480613fce575b15613fc857601319360190368211612f46575f9190565b5f903690565b506014361015613fb1565b9192901561403b5750815115613fed575090565b3b15613ff65790565b60405162461bcd60e51b815260206004820152601d60248201527f416464726573733a2063616c6c20746f206e6f6e2d636f6e74726163740000006044820152606490fd5b82519091501561404e5750805190602001fd5b60405162461bcd60e51b8152908190610ba2906004830161064e56fe036b6384b5eca791c62761152d0c79bb0604c104a5fb6f4eb0703f3154bb3db0a66cc928b5edb82af9bd49922954155ab7b0942694bea4ce44661d9a8736c688360894a13ba1a3210667c828492db98dca3e2076cc3735a920a3ca505d382bbcf3f7a9fe364faab93b216da50a3214154f22a0a2b415b23a84c8169e8b636ee36e1540171b6c0c960b71a7020d9f60077f6af931a8bbf590da0223dacf75c7aff652222313e28459528d920b65115c16c04f3efc82aaedc97be59f3f377c0d3fa164736f6c6343000819000a","linkReferences":{}},"methodIdentifiers":{"bannerImage()":"94def29d","communityToken()":"29aa1617","description()":"7284e416","entryPoint()":"b0d691fe","erc6551Registry()":"056d5afe","execute(address,uint256,bytes,uint8)":"51945447","executeBatch((address,uint256,bytes,uint8)[])":"43629a73","executeNested(address,uint256,bytes,uint8,(bytes32,address,uint256)[])":"1fb1ecf0","extcall(address,uint256,bytes)":"b709467c","extcreate(uint256,bytes)":"45a24e3e","extcreate2(uint256,bytes32,bytes)":"34715fb1","extsload(bytes32)":"1e2eaeaf","getNonce()":"d087d288","initialize((address,string,string,string,string,string,bool,address[],address[]))":"59ec3801","isLocked()":"a4e2d634","isTrustedForwarder(address)":"572b6c05","isValidSignature(bytes32,bytes)":"1626ba7e","isValidSigner(address,bytes)":"523e3260","location()":"516f279e","lock(uint256)":"dd467064","lockedUntil()":"ce0617ec","metadata()":"392f37e9","name()":"06fdde03","onERC1155BatchReceived(address,address,uint256[],uint256[],bytes)":"bc197c81","onERC1155Received(address,address,uint256,uint256,bytes)":"f23a6e61","onERC721Received(address,address,uint256,bytes)":"150b7a02","openJoining()":"291d0548","overrides(address,bytes4)":"ee9c6054","owner()":"8da5cb5b","permissions(address,address)":"1f9838b5","proxiableUUID()":"52d1902d","setOpenJoining(bool)":"98b7a25a","setOverrides(bytes4[],address[])":"7a8f7356","setPermissions(address[],bool[])":"039721b1","state()":"c19d93fb","supportsInterface(bytes4)":"01ffc9a7","token()":"fc0c546a","updateBannerImage(string)":"52094e55","updateCommunityToken(address)":"4b511903","updateDescription(string)":"e735b48a","updateLocation(string)":"932354c1","updateMetadata(string)":"918b5be1","updateName(string)":"84da92a7","upgradeTo(address)":"3659cfe6","upgradeToAndCall(address,bytes)":"4f1ef286","validateUserOp((address,uint256,bytes,bytes,uint256,uint256,uint256,uint256,uint256,bytes,bytes),bytes32,uint256)":"3a871cdd"},"id":116}