{"abi":[{"type":"constructor","inputs":[{"name":"erc4337EntryPoint","type":"address","internalType":"address"},{"name":"multicallForwarder","type":"address","internalType":"address"},{"name":"erc6551Registry","type":"address","internalType":"address"},{"name":"guardian","type":"address","internalType":"address"},{"name":"workApprovalResolver","type":"address","internalType":"address"},{"name":"assessmentResolver","type":"address","internalType":"address"}],"stateMutability":"nonpayable"},{"type":"fallback","stateMutability":"payable"},{"type":"receive","stateMutability":"payable"},{"type":"function","name":"ASSESSMENT_RESOLVER","inputs":[],"outputs":[{"name":"","type":"address","internalType":"address"}],"stateMutability":"view"},{"type":"function","name":"WORK_APPROVAL_RESOLVER","inputs":[],"outputs":[{"name":"","type":"address","internalType":"address"}],"stateMutability":"view"},{"type":"function","name":"addGardenOperator","inputs":[{"name":"operator","type":"address","internalType":"address"}],"outputs":[],"stateMutability":"nonpayable"},{"type":"function","name":"addGardener","inputs":[{"name":"gardener","type":"address","internalType":"address"}],"outputs":[],"stateMutability":"nonpayable"},{"type":"function","name":"bannerImage","inputs":[],"outputs":[{"name":"","type":"string","internalType":"string"}],"stateMutability":"view"},{"type":"function","name":"communityToken","inputs":[],"outputs":[{"name":"","type":"address","internalType":"address"}],"stateMutability":"view"},{"type":"function","name":"createProjectImpact","inputs":[{"name":"workTitle","type":"string","internalType":"string"},{"name":"impactDescription","type":"string","internalType":"string"},{"name":"proofIPFS","type":"string","internalType":"string"},{"name":"workUID","type":"bytes32","internalType":"bytes32"}],"outputs":[{"name":"","type":"bytes32","internalType":"bytes32"}],"stateMutability":"nonpayable"},{"type":"function","name":"createProjectMilestone","inputs":[{"name":"milestoneTitle","type":"string","internalType":"string"},{"name":"milestoneDescription","type":"string","internalType":"string"},{"name":"milestoneMeta","type":"string","internalType":"string"}],"outputs":[{"name":"","type":"bytes32","internalType":"bytes32"}],"stateMutability":"nonpayable"},{"type":"function","name":"description","inputs":[],"outputs":[{"name":"","type":"string","internalType":"string"}],"stateMutability":"view"},{"type":"function","name":"entryPoint","inputs":[],"outputs":[{"name":"","type":"address","internalType":"contract IEntryPoint"}],"stateMutability":"view"},{"type":"function","name":"erc6551Registry","inputs":[],"outputs":[{"name":"","type":"address","internalType":"address"}],"stateMutability":"view"},{"type":"function","name":"execute","inputs":[{"name":"to","type":"address","internalType":"address"},{"name":"value","type":"uint256","internalType":"uint256"},{"name":"data","type":"bytes","internalType":"bytes"},{"name":"operation","type":"uint8","internalType":"uint8"}],"outputs":[{"name":"","type":"bytes","internalType":"bytes"}],"stateMutability":"payable"},{"type":"function","name":"executeBatch","inputs":[{"name":"operations","type":"tuple[]","internalType":"struct BatchExecutor.Operation[]","components":[{"name":"to","type":"address","internalType":"address"},{"name":"value","type":"uint256","internalType":"uint256"},{"name":"data","type":"bytes","internalType":"bytes"},{"name":"operation","type":"uint8","internalType":"uint8"}]}],"outputs":[{"name":"","type":"bytes[]","internalType":"bytes[]"}],"stateMutability":"payable"},{"type":"function","name":"executeNested","inputs":[{"name":"to","type":"address","internalType":"address"},{"name":"value","type":"uint256","internalType":"uint256"},{"name":"data","type":"bytes","internalType":"bytes"},{"name":"operation","type":"uint8","internalType":"uint8"},{"name":"proof","type":"tuple[]","internalType":"struct NestedAccountExecutor.ERC6551AccountInfo[]","components":[{"name":"salt","type":"bytes32","internalType":"bytes32"},{"name":"tokenContract","type":"address","internalType":"address"},{"name":"tokenId","type":"uint256","internalType":"uint256"}]}],"outputs":[{"name":"","type":"bytes","internalType":"bytes"}],"stateMutability":"payable"},{"type":"function","name":"extcall","inputs":[{"name":"to","type":"address","internalType":"address"},{"name":"value","type":"uint256","internalType":"uint256"},{"name":"data","type":"bytes","internalType":"bytes"}],"outputs":[{"name":"result","type":"bytes","internalType":"bytes"}],"stateMutability":"nonpayable"},{"type":"function","name":"extcreate","inputs":[{"name":"value","type":"uint256","internalType":"uint256"},{"name":"bytecode","type":"bytes","internalType":"bytes"}],"outputs":[{"name":"","type":"address","internalType":"address"}],"stateMutability":"nonpayable"},{"type":"function","name":"extcreate2","inputs":[{"name":"value","type":"uint256","internalType":"uint256"},{"name":"salt","type":"bytes32","internalType":"bytes32"},{"name":"bytecode","type":"bytes","internalType":"bytes"}],"outputs":[{"name":"","type":"address","internalType":"address"}],"stateMutability":"nonpayable"},{"type":"function","name":"extsload","inputs":[{"name":"slot","type":"bytes32","internalType":"bytes32"}],"outputs":[{"name":"value","type":"bytes32","internalType":"bytes32"}],"stateMutability":"view"},{"type":"function","name":"gapProjectUID","inputs":[],"outputs":[{"name":"","type":"bytes32","internalType":"bytes32"}],"stateMutability":"view"},{"type":"function","name":"gardenOperators","inputs":[{"name":"operator","type":"address","internalType":"address"}],"outputs":[{"name":"isOperator","type":"bool","internalType":"bool"}],"stateMutability":"view"},{"type":"function","name":"gardeners","inputs":[{"name":"gardener","type":"address","internalType":"address"}],"outputs":[{"name":"isGardener","type":"bool","internalType":"bool"}],"stateMutability":"view"},{"type":"function","name":"getGAPProjectUID","inputs":[],"outputs":[{"name":"","type":"bytes32","internalType":"bytes32"}],"stateMutability":"view"},{"type":"function","name":"getNonce","inputs":[],"outputs":[{"name":"","type":"uint256","internalType":"uint256"}],"stateMutability":"view"},{"type":"function","name":"initialize","inputs":[{"name":"params","type":"tuple","internalType":"struct IGardenAccount.InitParams","components":[{"name":"communityToken","type":"address","internalType":"address"},{"name":"name","type":"string","internalType":"string"},{"name":"description","type":"string","internalType":"string"},{"name":"location","type":"string","internalType":"string"},{"name":"bannerImage","type":"string","internalType":"string"},{"name":"metadata","type":"string","internalType":"string"},{"name":"openJoining","type":"bool","internalType":"bool"},{"name":"gardeners","type":"address[]","internalType":"address[]"},{"name":"gardenOperators","type":"address[]","internalType":"address[]"}]}],"outputs":[],"stateMutability":"nonpayable"},{"type":"function","name":"isGardener","inputs":[{"name":"account","type":"address","internalType":"address"}],"outputs":[{"name":"","type":"bool","internalType":"bool"}],"stateMutability":"view"},{"type":"function","name":"isLocked","inputs":[],"outputs":[{"name":"","type":"bool","internalType":"bool"}],"stateMutability":"view"},{"type":"function","name":"isOperator","inputs":[{"name":"account","type":"address","internalType":"address"}],"outputs":[{"name":"","type":"bool","internalType":"bool"}],"stateMutability":"view"},{"type":"function","name":"isOwner","inputs":[{"name":"account","type":"address","internalType":"address"}],"outputs":[{"name":"","type":"bool","internalType":"bool"}],"stateMutability":"view"},{"type":"function","name":"isTrustedForwarder","inputs":[{"name":"forwarder","type":"address","internalType":"address"}],"outputs":[{"name":"","type":"bool","internalType":"bool"}],"stateMutability":"view"},{"type":"function","name":"isValidSignature","inputs":[{"name":"hash","type":"bytes32","internalType":"bytes32"},{"name":"signature","type":"bytes","internalType":"bytes"}],"outputs":[{"name":"magicValue","type":"bytes4","internalType":"bytes4"}],"stateMutability":"view"},{"type":"function","name":"isValidSigner","inputs":[{"name":"signer","type":"address","internalType":"address"},{"name":"data","type":"bytes","internalType":"bytes"}],"outputs":[{"name":"magicValue","type":"bytes4","internalType":"bytes4"}],"stateMutability":"view"},{"type":"function","name":"joinGarden","inputs":[],"outputs":[],"stateMutability":"nonpayable"},{"type":"function","name":"location","inputs":[],"outputs":[{"name":"","type":"string","internalType":"string"}],"stateMutability":"view"},{"type":"function","name":"lock","inputs":[{"name":"_lockedUntil","type":"uint256","internalType":"uint256"}],"outputs":[],"stateMutability":"nonpayable"},{"type":"function","name":"lockedUntil","inputs":[],"outputs":[{"name":"","type":"uint256","internalType":"uint256"}],"stateMutability":"view"},{"type":"function","name":"metadata","inputs":[],"outputs":[{"name":"","type":"string","internalType":"string"}],"stateMutability":"view"},{"type":"function","name":"name","inputs":[],"outputs":[{"name":"","type":"string","internalType":"string"}],"stateMutability":"view"},{"type":"function","name":"onERC1155BatchReceived","inputs":[{"name":"","type":"address","internalType":"address"},{"name":"","type":"address","internalType":"address"},{"name":"","type":"uint256[]","internalType":"uint256[]"},{"name":"","type":"uint256[]","internalType":"uint256[]"},{"name":"","type":"bytes","internalType":"bytes"}],"outputs":[{"name":"","type":"bytes4","internalType":"bytes4"}],"stateMutability":"nonpayable"},{"type":"function","name":"onERC1155Received","inputs":[{"name":"","type":"address","internalType":"address"},{"name":"","type":"address","internalType":"address"},{"name":"","type":"uint256","internalType":"uint256"},{"name":"","type":"uint256","internalType":"uint256"},{"name":"","type":"bytes","internalType":"bytes"}],"outputs":[{"name":"","type":"bytes4","internalType":"bytes4"}],"stateMutability":"nonpayable"},{"type":"function","name":"onERC721Received","inputs":[{"name":"","type":"address","internalType":"address"},{"name":"","type":"address","internalType":"address"},{"name":"tokenId","type":"uint256","internalType":"uint256"},{"name":"","type":"bytes","internalType":"bytes"}],"outputs":[{"name":"","type":"bytes4","internalType":"bytes4"}],"stateMutability":"nonpayable"},{"type":"function","name":"openJoining","inputs":[],"outputs":[{"name":"","type":"bool","internalType":"bool"}],"stateMutability":"view"},{"type":"function","name":"overrides","inputs":[{"name":"","type":"address","internalType":"address"},{"name":"","type":"bytes4","internalType":"bytes4"}],"outputs":[{"name":"","type":"address","internalType":"address"}],"stateMutability":"view"},{"type":"function","name":"owner","inputs":[],"outputs":[{"name":"","type":"address","internalType":"address"}],"stateMutability":"view"},{"type":"function","name":"permissions","inputs":[{"name":"","type":"address","internalType":"address"},{"name":"","type":"address","internalType":"address"}],"outputs":[{"name":"","type":"bool","internalType":"bool"}],"stateMutability":"view"},{"type":"function","name":"proxiableUUID","inputs":[],"outputs":[{"name":"","type":"bytes32","internalType":"bytes32"}],"stateMutability":"view"},{"type":"function","name":"removeGardenOperator","inputs":[{"name":"operator","type":"address","internalType":"address"}],"outputs":[],"stateMutability":"nonpayable"},{"type":"function","name":"removeGardener","inputs":[{"name":"gardener","type":"address","internalType":"address"}],"outputs":[],"stateMutability":"nonpayable"},{"type":"function","name":"setOpenJoining","inputs":[{"name":"_openJoining","type":"bool","internalType":"bool"}],"outputs":[],"stateMutability":"nonpayable"},{"type":"function","name":"setOverrides","inputs":[{"name":"selectors","type":"bytes4[]","internalType":"bytes4[]"},{"name":"implementations","type":"address[]","internalType":"address[]"}],"outputs":[],"stateMutability":"nonpayable"},{"type":"function","name":"setPermissions","inputs":[{"name":"callers","type":"address[]","internalType":"address[]"},{"name":"_permissions","type":"bool[]","internalType":"bool[]"}],"outputs":[],"stateMutability":"nonpayable"},{"type":"function","name":"state","inputs":[],"outputs":[{"name":"","type":"uint256","internalType":"uint256"}],"stateMutability":"view"},{"type":"function","name":"supportsInterface","inputs":[{"name":"interfaceId","type":"bytes4","internalType":"bytes4"}],"outputs":[{"name":"","type":"bool","internalType":"bool"}],"stateMutability":"view"},{"type":"function","name":"token","inputs":[],"outputs":[{"name":"chainId","type":"uint256","internalType":"uint256"},{"name":"tokenContract","type":"address","internalType":"address"},{"name":"tokenId","type":"uint256","internalType":"uint256"}],"stateMutability":"view"},{"type":"function","name":"updateDescription","inputs":[{"name":"_description","type":"string","internalType":"string"}],"outputs":[],"stateMutability":"nonpayable"},{"type":"function","name":"updateName","inputs":[{"name":"_name","type":"string","internalType":"string"}],"outputs":[],"stateMutability":"nonpayable"},{"type":"function","name":"upgradeTo","inputs":[{"name":"newImplementation","type":"address","internalType":"address"}],"outputs":[],"stateMutability":"nonpayable"},{"type":"function","name":"upgradeToAndCall","inputs":[{"name":"newImplementation","type":"address","internalType":"address"},{"name":"data","type":"bytes","internalType":"bytes"}],"outputs":[],"stateMutability":"payable"},{"type":"function","name":"validateUserOp","inputs":[{"name":"userOp","type":"tuple","internalType":"struct UserOperation","components":[{"name":"sender","type":"address","internalType":"address"},{"name":"nonce","type":"uint256","internalType":"uint256"},{"name":"initCode","type":"bytes","internalType":"bytes"},{"name":"callData","type":"bytes","internalType":"bytes"},{"name":"callGasLimit","type":"uint256","internalType":"uint256"},{"name":"verificationGasLimit","type":"uint256","internalType":"uint256"},{"name":"preVerificationGas","type":"uint256","internalType":"uint256"},{"name":"maxFeePerGas","type":"uint256","internalType":"uint256"},{"name":"maxPriorityFeePerGas","type":"uint256","internalType":"uint256"},{"name":"paymasterAndData","type":"bytes","internalType":"bytes"},{"name":"signature","type":"bytes","internalType":"bytes"}]},{"name":"userOpHash","type":"bytes32","internalType":"bytes32"},{"name":"missingAccountFunds","type":"uint256","internalType":"uint256"}],"outputs":[{"name":"validationData","type":"uint256","internalType":"uint256"}],"stateMutability":"nonpayable"},{"type":"event","name":"AdminChanged","inputs":[{"name":"previousAdmin","type":"address","indexed":false,"internalType":"address"},{"name":"newAdmin","type":"address","indexed":false,"internalType":"address"}],"anonymous":false},{"type":"event","name":"BannerImageUpdated","inputs":[{"name":"updater","type":"address","indexed":true,"internalType":"address"},{"name":"newBannerImage","type":"string","indexed":false,"internalType":"string"}],"anonymous":false},{"type":"event","name":"BeaconUpgraded","inputs":[{"name":"beacon","type":"address","indexed":true,"internalType":"address"}],"anonymous":false},{"type":"event","name":"CommunityTokenUpdated","inputs":[{"name":"updater","type":"address","indexed":true,"internalType":"address"},{"name":"newToken","type":"address","indexed":false,"internalType":"address"}],"anonymous":false},{"type":"event","name":"DescriptionUpdated","inputs":[{"name":"updater","type":"address","indexed":true,"internalType":"address"},{"name":"newDescription","type":"string","indexed":false,"internalType":"string"}],"anonymous":false},{"type":"event","name":"GAPProjectCreated","inputs":[{"name":"projectUID","type":"bytes32","indexed":true,"internalType":"bytes32"},{"name":"gardenAddress","type":"address","indexed":true,"internalType":"address"},{"name":"projectName","type":"string","indexed":false,"internalType":"string"}],"anonymous":false},{"type":"event","name":"GardenOperatorAdded","inputs":[{"name":"updater","type":"address","indexed":true,"internalType":"address"},{"name":"operator","type":"address","indexed":true,"internalType":"address"}],"anonymous":false},{"type":"event","name":"GardenOperatorRemoved","inputs":[{"name":"updater","type":"address","indexed":true,"internalType":"address"},{"name":"operator","type":"address","indexed":true,"internalType":"address"}],"anonymous":false},{"type":"event","name":"GardenerAdded","inputs":[{"name":"updater","type":"address","indexed":true,"internalType":"address"},{"name":"gardener","type":"address","indexed":true,"internalType":"address"}],"anonymous":false},{"type":"event","name":"GardenerRemoved","inputs":[{"name":"updater","type":"address","indexed":true,"internalType":"address"},{"name":"gardener","type":"address","indexed":true,"internalType":"address"}],"anonymous":false},{"type":"event","name":"Initialized","inputs":[{"name":"version","type":"uint8","indexed":false,"internalType":"uint8"}],"anonymous":false},{"type":"event","name":"LocationUpdated","inputs":[{"name":"updater","type":"address","indexed":true,"internalType":"address"},{"name":"newLocation","type":"string","indexed":false,"internalType":"string"}],"anonymous":false},{"type":"event","name":"LockUpdated","inputs":[{"name":"lockedUntil","type":"uint256","indexed":false,"internalType":"uint256"}],"anonymous":false},{"type":"event","name":"MetadataUpdated","inputs":[{"name":"updater","type":"address","indexed":true,"internalType":"address"},{"name":"newMetadata","type":"string","indexed":false,"internalType":"string"}],"anonymous":false},{"type":"event","name":"NameUpdated","inputs":[{"name":"updater","type":"address","indexed":true,"internalType":"address"},{"name":"newName","type":"string","indexed":false,"internalType":"string"}],"anonymous":false},{"type":"event","name":"OpenJoiningUpdated","inputs":[{"name":"updater","type":"address","indexed":true,"internalType":"address"},{"name":"openJoining","type":"bool","indexed":false,"internalType":"bool"}],"anonymous":false},{"type":"event","name":"OverrideUpdated","inputs":[{"name":"owner","type":"address","indexed":false,"internalType":"address"},{"name":"selector","type":"bytes4","indexed":false,"internalType":"bytes4"},{"name":"implementation","type":"address","indexed":false,"internalType":"address"}],"anonymous":false},{"type":"event","name":"PermissionUpdated","inputs":[{"name":"owner","type":"address","indexed":false,"internalType":"address"},{"name":"caller","type":"address","indexed":false,"internalType":"address"},{"name":"hasPermission","type":"bool","indexed":false,"internalType":"bool"}],"anonymous":false},{"type":"event","name":"Upgraded","inputs":[{"name":"implementation","type":"address","indexed":true,"internalType":"address"}],"anonymous":false},{"type":"error","name":"AccountLocked","inputs":[]},{"type":"error","name":"AlreadyGardener","inputs":[]},{"type":"error","name":"ContractCreationFailed","inputs":[]},{"type":"error","name":"ExceedsMaxLockTime","inputs":[]},{"type":"error","name":"GAPImpactCreationFailed","inputs":[]},{"type":"error","name":"GAPMilestoneCreationFailed","inputs":[]},{"type":"error","name":"GAPNotSupportedOnChain","inputs":[]},{"type":"error","name":"GAPProjectNotInitialized","inputs":[]},{"type":"error","name":"InvalidAccountProof","inputs":[]},{"type":"error","name":"InvalidERC6551Registry","inputs":[]},{"type":"error","name":"InvalidEntryPoint","inputs":[]},{"type":"error","name":"InvalidImplementation","inputs":[]},{"type":"error","name":"InvalidInput","inputs":[]},{"type":"error","name":"InvalidInvite","inputs":[]},{"type":"error","name":"InvalidMulticallForwarder","inputs":[]},{"type":"error","name":"InvalidOperation","inputs":[]},{"type":"error","name":"KarmaGAPNotSupported","inputs":[]},{"type":"error","name":"NotAuthorized","inputs":[]},{"type":"error","name":"NotAuthorizedCaller","inputs":[]},{"type":"error","name":"NotGardenOperator","inputs":[]},{"type":"error","name":"NotGardenOwner","inputs":[]},{"type":"error","name":"OwnershipCycle","inputs":[]},{"type":"error","name":"TooManyGardeners","inputs":[]},{"type":"error","name":"TooManyOperators","inputs":[]}],"bytecode":{"object":"0x6101803461025657601f61624d38819003918201601f1916830191906001600160401b0383118484101761025a578160c092859260409586528339810103126102565761004b8261026e565b6100576020840161026e565b9261006383820161026e565b916100706060830161026e565b9461008960a06100826080860161026e565b940161026e565b936001600160a01b039283168015610245576080523060a052828116156102355760c05260e081905281161561022457610100941684526101209230845261014091825261016092835260045460ff8160081c166101d05760ff80821603610196575b505192615fca94856102838639608051858181610ffb01528181611dcb015281816120ce0152613a85015260a0518581816128de0152614bee015260c0518581816105e2015281816128ff0152614c10015260e05185818161154701528181614d950152615e55015251848181613b940152613e03015251838181610d8c0152818161128b01526114720152518281816116fc0152612035015251818181610f9601526119810152f35b60ff90811916176004557f7f26b83ff96e1f2b6a682f133852f6798a09c465da95921460cefb38474024986020825160ff8152a15f6100ec565b815162461bcd60e51b815260206004820152602760248201527f496e697469616c697a61626c653a20636f6e747261637420697320696e697469604482015266616c697a696e6760c81b6064820152608490fd5b835163754c753360e11b8152600490fd5b85516246a29560e81b8152600490fd5b8651632039d3c960e01b8152600490fd5b5f80fd5b634e487b7160e01b5f52604160045260245ffd5b51906001600160a01b03821682036102565756fe60806040526004361015610026575b361561001e5761001c6137c2565b005b61001c6137c2565b5f3560e01c806301ffc9a7146103b6578063039721b1146103b1578063056d5afe146103ac57806306fdde03146103a75780630959f6a814610393578063150b7a02146103a25780631626ba7e1461039d5780631e2eaeaf146103985780631f6e45e3146103935780631f9838b51461038e5780631fb1ecf014610389578063291d05481461038457806329aa16171461037f5780632f54bf6e1461037a57806334715fb1146103755780633659cfe614610370578063392f37e91461036b5780633a208f95146103665780633a871cdd1461036157806343629a731461035c57806345a24e3e146103575780634f1ef28614610352578063516f279e1461034d5780635194544714610348578063523e32601461034357806352d1902d1461033e578063572b6c051461033957806359ec3801146103345780635bcf5dce1461032f5780636d70f7ae146103255780637284e4161461032a5780637597bc7c146103255780637a8f73561461032057806381eec6bb1461031b57806384da92a7146103165780638da5cb5b1461031157806394def29d1461030c57806398b7a25a14610307578063a4e2d63414610302578063adbce85e146102fd578063b0d691fe146102f8578063b10006a6146102f3578063b709467c146102ee578063bc197c81146102e9578063bcc5cf88146102e4578063c19d93fb146102df578063ce0617ec146102da578063d087d288146102d5578063dd467064146102d0578063e735b48a146102cb578063eaff6dc9146102c6578063ee9c6054146102c1578063eeb97057146102bc578063eed9df74146102b7578063f23a6e61146102b2578063f7fc57b0146102ad578063f89b9b93146102ad5763fc0c546a0361000e576126a7565b61268a565b612629565b612538565b612488565b612420565b61236d565b6121ec565b612149565b61209d565b612081565b612064565b612020565b611f80565b611eb9565b611dfa565b611db6565b611d09565b611ceb565b611c27565b611b8b565b611b6e565b6119f1565b611909565b6117b2565b611757565b611797565b611685565b61157b565b611523565b611460565b611418565b6113a8565b61138d565b61124a565b6111fb565b611115565b610fc5565b610f81565b610eb1565b610d65565b610d0a565b610cd5565b610ca9565b610c87565b610bee565b610b7f565b61095a565b610b60565b610b0f565b610a32565b610916565b6105cd565b61047c565b6103d1565b6001600160e01b03198116036103cd57565b5f80fd5b346103cd5760203660031901126103cd5760206103f86004356103f3816103bb565b6126de565b6040519015158152f35b9181601f840112156103cd578235916001600160401b0383116103cd576020808501948460051b0101116103cd57565b60406003198201126103cd576001600160401b03916004358381116103cd578261045e91600401610402565b939093926024359182116103cd5761047891600401610402565b9091565b346103cd5761048a36610432565b92906104a56104a061049a6136f5565b91614afd565b614beb565b6001600160a01b03811680156105bb5733036105bb576104c3613752565b8385036105a9575f5b8481106104d557005b806105416104ee6104e96001948a886127eb565b612800565b6001600160a01b0385165f9081526002602052604090206105309061051c610517868c8c6127eb565b61280a565b60018060a01b03165f5260205260405f2090565b9060ff801983541691151516179055565b7f394777a58092892d136a90c4bb7e4350c72ac50fba6a0208128677f36527dcf56105706105178389896127eb565b61057e6104e9848b896127eb565b604080516001600160a01b03888116825293909316602084015290151590820152606090a1016104cc565b60405163b4fa3fb360e01b8152600490fd5b60405163ea8e4eb560e01b8152600490fd5b346103cd575f3660031901126103cd576040517f00000000000000000000000000000000000000000000000000000000000000006001600160a01b03168152602090f35b90600182811c9216801561063f575b602083101461062b57565b634e487b7160e01b5f52602260045260245ffd5b91607f1691610620565b634e487b7160e01b5f52604160045260245ffd5b6001600160401b03811161067057604052565b610649565b604081019081106001600160401b0382111761067057604052565b602081019081106001600160401b0382111761067057604052565b606081019081106001600160401b0382111761067057604052565b90601f801991011681019081106001600160401b0382111761067057604052565b604051905f82600554916106fa83610611565b808352926020906001908181169081156107735750600114610727575b5050610725925003836106c6565b565b91509260055f525f80516020615f3e833981519152935f925b82841061075b57506107259450505081016020015f80610717565b85548885018301529485019487945092810192610740565b9150506020925061072594915060ff191682840152151560051b8201015f80610717565b604051905f82600754916107aa83610611565b8083529260209060019081811690811561077357506001146107d4575050610725925003836106c6565b91509260075f527fa66cc928b5edb82af9bd49922954155ab7b0942694bea4ce44661d9a8736c688935f925b82841061081b57506107259450505081016020015f80610717565b85548885018301529485019487945092810192610800565b604051905f826006549161084683610611565b808352926020906001908181169081156107735750600114610870575050610725925003836106c6565b91509260065f525f80516020615f9e833981519152935f925b8284106108a457506107259450505081016020015f80610717565b85548885018301529485019487945092810192610889565b5f5b8381106108cd5750505f910152565b81810151838201526020016108be565b906020916108f6815180928185528580860191016108bc565b601f01601f1916010190565b9060206109139281815201906108dd565b90565b346103cd575f3660031901126103cd576109456109316106e7565b6040519182916020835260208301906108dd565b0390f35b6001600160a01b038116036103cd57565b346103cd5760203660031901126103cd5760043561097781610949565b60018060a01b03165f52600a602052602060ff60405f2054166040519015158152f35b6040519060c082018281106001600160401b0382111761067057604052565b6040519061072582610675565b6001600160401b03811161067057601f01601f191660200190565b9291926109ed826109c6565b916109fb60405193846106c6565b8294818452818301116103cd578281602093845f960137010152565b9080601f830112156103cd57816020610913933591016109e1565b346103cd5760803660031901126103cd57610a4e600435610949565b610a59602435610949565b6064356001600160401b0381116103cd57610a78903690600401610a17565b50610a816136f5565b919060018060a01b031633149182610ad6575b5081610acc575b50610aba57610aa86137c2565b604051630a85bd0160e11b8152602090f35b60405163b79e3f3f60e01b8152600490fd5b905046145f610a9b565b6044351491505f610a94565b9181601f840112156103cd578235916001600160401b0383116103cd57602083818601950101116103cd57565b346103cd5760403660031901126103cd576024356001600160401b0381116103cd57610b4d610b446020923690600401610ae2565b90600435612814565b6040516001600160e01b03199091168152f35b346103cd5760203660031901126103cd57602060043554604051908152f35b346103cd5760403660031901126103cd57602060ff610bd7600435610ba381610949565b60243590610bb082610949565b60018060a01b03165f526002845260405f209060018060a01b03165f5260205260405f2090565b54166040519015158152f35b60ff8116036103cd57565b60a03660031901126103cd57600435610c0681610949565b6001600160401b036044358181116103cd57610c26903690600401610ae2565b919092606435610c3581610be3565b608435938385116103cd57366023860112156103cd5784600401359384116103cd5736602460608602870101116103cd57610945956024610c7b96019360243590612877565b60405191829182610902565b346103cd575f3660031901126103cd57602060ff600c54166040519015158152f35b346103cd575f3660031901126103cd5760045460405160109190911c6001600160a01b03168152602090f35b346103cd5760203660031901126103cd5760206103f8600435610cf781610949565b5f604051610d0481610690565b52613d2c565b346103cd5760603660031901126103cd576044356001600160401b0381116103cd57610d53610d3f6020923690600401610ae2565b90610d48613d86565b602435600435613da0565b6040516001600160a01b039091168152f35b346103cd5760203660031901126103cd57600435610d8281610949565b6001600160a01b037f000000000000000000000000000000000000000000000000000000000000000081169190610dbb30841415612a68565b610dd75f80516020615f5e833981519152938285541614612ac9565b610de082613dda565b60405190610ded82610690565b5f82527f4910fdfa16fed3260ed0e7147f7cc6da11a60208b5b9406d12a635614ffd91435460ff1615610e2657505061001c9150614eef565b6020600491604094939451928380926352d1902d60e01b825286165afa5f9181610e80575b50610e6d5760405162461bcd60e51b815280610e6960048201613ee4565b0390fd5b61001c93610e7b9114613e86565b614e9e565b610ea391925060203d602011610eaa575b610e9b81836106c6565b8101906133e2565b905f610e4b565b503d610e91565b346103cd575f3660031901126103cd576040515f600954610ed181610611565b80845290602090600190818116908115610f575750600114610efe575b61094585610c7b818703826106c6565b60095f90815293507f6e1540171b6c0c960b71a7020d9f60077f6af931a8bbf590da0223dacf75c7af5b838510610f4457505050508101602001610c7b82610945610eee565b8054868601840152938201938101610f28565b86955061094596935060209250610c7b94915060ff191682840152151560051b8201019293610eee565b346103cd575f3660031901126103cd576040517f00000000000000000000000000000000000000000000000000000000000000006001600160a01b03168152602090f35b346103cd576003196060368201126103cd57600435906001600160401b0382116103cd576101609082360301126103cd576044357f00000000000000000000000000000000000000000000000000000000000000006001600160a01b0316330361106d5761103c6109459260243590600401613f33565b9080611054575b506040519081529081906020820190565b5f80808093338219f1506110666136c6565b505f611043565b60405162461bcd60e51b815260206004820152601c60248201527f6163636f756e743a206e6f742066726f6d20456e747279506f696e74000000006044820152606490fd5b6020808201906020835283518092526040830192602060408460051b8301019501935f915b8483106110e75750505050505090565b9091929394958480611105600193603f198682030187528a516108dd565b98019301930191949392906110d7565b6020806003193601126103cd576004356001600160401b0381116103cd57611141903690600401610402565b91611159611155611150614d92565b613a78565b1590565b6105bb57611165613752565b61116e83612ba0565b925f5b818110611186576040518061094587826110b2565b806111df61119a6105176001948689612be9565b8487876111a8868484612be9565b01356111d960606111d3886111cb6111c1828989612be9565b6040810190612c0b565b979096612be9565b01612c3d565b93613c21565b6111e98288612c47565b526111f48187612c47565b5001611171565b346103cd5760403660031901126103cd576024356001600160401b0381116103cd57610d536112426112336020933690600401610ae2565b61123b613d86565b36916109e1565b600435613f83565b60403660031901126103cd5760043561126281610949565b6024356001600160401b0381116103cd57611281903690600401610a17565b6001600160a01b037f000000000000000000000000000000000000000000000000000000000000000081169291906112bb30851415612a68565b6112d75f80516020615f5e833981519152948286541614612ac9565b6112e083613dda565b7f4910fdfa16fed3260ed0e7147f7cc6da11a60208b5b9406d12a635614ffd91435460ff161561131657505061001c9150614eef565b6020600491604094939451928380926352d1902d60e01b825286165afa5f918161136c575b506113595760405162461bcd60e51b815280610e6960048201613ee4565b61001c936113679114613e86565b614de4565b61138691925060203d602011610eaa57610e9b81836106c6565b905f61133b565b346103cd575f3660031901126103cd57610945610931610797565b60803660031901126103cd576004356113c081610949565b6044356001600160401b0381116103cd576113df903690600401610ae2565b606492919235906113ef82610be3565b6113fa611150614d92565b156105bb57610945936109319361140f613752565b60243590613c21565b346103cd5760403660031901126103cd5760043561143581610949565b6024356001600160401b0381116103cd5760209161145a610b4d923690600401610ae2565b91612c5b565b346103cd575f3660031901126103cd577f00000000000000000000000000000000000000000000000000000000000000006001600160a01b031630036114b8576040515f80516020615f5e8339815191528152602090f35b60405162461bcd60e51b815260206004820152603860248201527f555550535570677261646561626c653a206d757374206e6f742062652063616c60448201527f6c6564207468726f7567682064656c656761746563616c6c00000000000000006064820152608490fd5b346103cd5760203660031901126103cd57602060043561154281610949565b6040517f00000000000000000000000000000000000000000000000000000000000000006001600160a01b039081169216919091148152f35b346103cd576003196020368201126103cd57600435906001600160401b0382116103cd576101209082360301126103cd576115f4600454916115d460ff8460081c161580948195611677575b8115611657575b50612c84565b826115e7600160ff196004541617600455565b61163e575b6004016131ac565b6115fa57005b61160a61ff001960045416600455565b604051600181527f7f26b83ff96e1f2b6a682f133852f6798a09c465da95921460cefb38474024989080602081015b0390a1005b61165261010061ff00196004541617600455565b6115ec565b303b15915081611669575b505f6115ce565b6001915060ff16145f611662565b600160ff82161091506115c7565b346103cd5760803660031901126103cd576001600160401b036004358181116103cd576116b6903690600401610ae2565b906024358381116103cd576116cf903690600401610ae2565b90936044359081116103cd576116e9903690600401610ae2565b916116f2614d92565b6001600160a01b037f0000000000000000000000000000000000000000000000000000000000000000811691160361174557610945956117359560643595613467565b6040519081529081906020820190565b604051637046c88d60e01b8152600490fd5b346103cd5760203660031901126103cd5760043561177481610949565b60018060a01b03165f52600b602052602060ff60405f2054166040519015158152f35b346103cd575f3660031901126103cd57610945610931610833565b346103cd576117c036610432565b92906117d06104a061049a6136f5565b6001600160a01b03811680156105bb5733036105bb576117ee613752565b6117f7306148c3565b3b156118fb575b8385036105a9575f5b84811061181057005b806118866118246105176001948a886127eb565b6001600160a01b0385165f9081526001602052604090206118679061185261184d868c8c6127eb565b61359b565b63ffffffff60e01b165f5260205260405f2090565b80546001600160a01b0319166001600160a01b03909216919091179055565b7f2c722487e90aca38ec1b074c3403210bd2bfb769b4da7f12f7bf0b9e37517c186118b561184d8389896127eb565b6118c3610517848b896127eb565b604080516001600160a01b0380891682526001600160e01b03199094166020820152929091169082015280606081010390a101611807565b61190430614912565b6117fe565b346103cd5760603660031901126103cd576001600160401b036004358181116103cd5761193a903690600401610ae2565b916024358181116103cd57611953903690600401610ae2565b916044359081116103cd5761196c903690600401610ae2565b929091611977614d92565b6001600160a01b037f000000000000000000000000000000000000000000000000000000000000000081169116036117455761094595611735956135a5565b60206003198201126103cd57600435906001600160401b0382116103cd57806023830112156103cd57816024610913936004013591016109e1565b346103cd576119ff366119b6565b611a07614d92565b5f604051611a1481610690565b52611a1e81613d2c565b15611b5c5781516001600160401b03811161067057611a4781611a42600554610611565b612d1c565b602080601f8311600114611ac8575091611a9b82611ab8937f74321da206c1b9fa34367f7ece59ca49371dcd13820b9a5c3767ae1ecceed51a955f91611abd575b508160011b915f199060031b1c19161790565b6005555b6040516001600160a01b03909116939091829182610902565b0390a2005b90508601515f611a88565b60055f5290601f1983165f80516020615f3e833981519152925f905b828210611b44575050927f74321da206c1b9fa34367f7ece59ca49371dcd13820b9a5c3767ae1ecceed51a949260019282611ab89610611b2c575b5050811b01600555611a9f565b8701515f1960f88460031b161c191690555f80611b1f565b80600185968294968b01518155019501930190611ae4565b604051633632b98960e21b8152600490fd5b346103cd575f3660031901126103cd576020610d5361049a6136f5565b346103cd575f3660031901126103cd576040515f600854611bab81610611565b80845290602090600190818116908115610f575750600114611bd75761094585610c7b818703826106c6565b60085f90815293505f80516020615f7e8339815191525b838510611c0a57505050508101602001610c7b82610945610eee565b8054868601840152938201938101611bee565b801515036103cd57565b346103cd5760203660031901126103cd57600435611c4481611c1d565b611c4c614d92565b905f604051611c5a81610690565b52611c6482613d2c565b1580611cc9575b611cb75760207fa48b25a14599514510fcdca0f35ff4cd42847f5e61698a238f4ee01e2d1c2c6a9115159260ff19600c541660ff851617600c5560405193845260018060a01b031692a2005b604051633cebab8560e21b8152600490fd5b506001600160a01b0382165f908152600b602052604090205460ff1615611c6b565b346103cd575f3660031901126103cd5760205f546040519042108152f35b346103cd5760203660031901126103cd57600435611d2681610949565b611d2e614d92565b5f604051611d3b81610690565b52611d4581613d2c565b15611b5c5760018060a01b0380831691825f52600b60205260405f2060ff198154169055167fdd1e1c7c82ab1f3ed1b1656e8200309ebf9f682a74ce7737d3bfde87a7fecb085f80a3611d96613f9d565b80611dab575b611da257005b61001c90614b6d565b50600d541515611d9c565b346103cd575f3660031901126103cd576040517f00000000000000000000000000000000000000000000000000000000000000006001600160a01b03168152602090f35b346103cd575f3660031901126103cd5760ff600c541615611ea757611e1d614d92565b6001600160a01b0381165f908152600a602052604090205460ff16611e95576001600160a01b0381165f908152600a60205260409020611e65905b805460ff19166001179055565b6001600160a01b0316307fc0b9de905219d7679d6f05d6061fa6ef557a687d2c44c314b58bb793f5dba4945f80a3005b60405163211bad0f60e11b8152600490fd5b604051636dc9375d60e11b8152600490fd5b346103cd5760603660031901126103cd57600435611ed681610949565b6044356001600160401b0381116103cd5761094591611eff611233610931933690600401610ae2565b9060243590614bc3565b6001600160401b0381116106705760051b60200190565b9080601f830112156103cd576020908235611f3a81611f09565b93611f4860405195866106c6565b81855260208086019260051b8201019283116103cd57602001905b828210611f71575050505090565b81358152908301908301611f63565b346103cd5760a03660031901126103cd57611f9c600435610949565b611fa7602435610949565b6001600160401b036044358181116103cd57611fc7903690600401611f20565b506064358181116103cd57611fe0903690600401611f20565b506084359081116103cd57611ff9903690600401610a17565b5061094561200561361b565b6040516001600160e01b031990911681529081906020820190565b346103cd575f3660031901126103cd576040517f00000000000000000000000000000000000000000000000000000000000000006001600160a01b03168152602090f35b346103cd575f3660031901126103cd576020600354604051908152f35b346103cd575f3660031901126103cd5760205f54604051908152f35b346103cd575f3660031901126103cd57604051631aab3f0d60e11b81523060048201525f60248201526020816044817f00000000000000000000000000000000000000000000000000000000000000006001600160a01b03165afa8015612144575f90612110575b604051908152602090f35b506020813d60201161213c575b8161212a602093836106c6565b810103126103cd576109459051612105565b3d915061211d565b612857565b346103cd5760203660031901126103cd576004356104a061217d61216b6136f5565b6001600160a01b039492909190614afd565b1680156105bb5733036105bb5761219342613642565b81116121da576116397fa7b24c66dd3269a292a60b3facdbb8f3e7557d1e19e64d99e0d6ee7250be63ad916121c6613752565b805f55604051918291829190602083019252565b6040516301814f7d60e31b8152600490fd5b346103cd576121fa366119b6565b612202614d92565b5f60405161220f81610690565b5261221981613d2c565b158061234b575b611cb75781516001600160401b0381116106705761224881612243600654610611565b612d76565b602080601f83116001146122b757509161229b82611ab8937f37cc8c6ced0cbc4d440fcfa810a2f09f40b8f0127c3656103edf26b3d93e0ec1955f91611abd57508160011b915f199060031b1c19161790565b6006556040516001600160a01b03909116939091829182610902565b60065f5290601f1983165f80516020615f9e833981519152925f905b828210612333575050927f37cc8c6ced0cbc4d440fcfa810a2f09f40b8f0127c3656103edf26b3d93e0ec1949260019282611ab8961061231b575b5050811b01600655611a9f565b8701515f1960f88460031b161c191690555f8061230e565b80600185968294968b015181550195019301906122d3565b506001600160a01b0381165f908152600b602052604090205460ff1615612220565b346103cd5760203660031901126103cd5760043561238a81610949565b612392614d92565b905f6040516123a081610690565b526123aa82613d2c565b15806123fe575b611cb75760018060a01b0380911691825f52600a60205260405f20600160ff19825416179055167fc0b9de905219d7679d6f05d6061fa6ef557a687d2c44c314b58bb793f5dba4945f80a3005b506001600160a01b0382165f908152600b602052604090205460ff16156123b1565b346103cd5760403660031901126103cd57602060043561243f81610949565b61247e60243561244e816103bb565b6001600160a01b039283165f9081526001855260408082206001600160e01b031990931682526020929092522090565b5416604051908152f35b346103cd5760203660031901126103cd576004356124a581610949565b6124ad614d92565b905f6040516124bb81610690565b526124c582613d2c565b1580612516575b611cb75760018060a01b0380911691825f52600a60205260405f2060ff198154169055167f8a44d725ac751003f7f644f7ce70382fa06f348023717d057b7aa5c8778770d25f80a3005b506001600160a01b0382165f908152600b602052604090205460ff16156124cc565b346103cd5760203660031901126103cd5760043561255581610949565b61255d614d92565b5f60405161256a81610690565b5261257481613d2c565b1580612607575b611cb75760018060a01b0380831691825f52600b60205260405f20600160ff19825416179055600a6020526125ba60405f20600160ff19825416179055565b167f06216f26a4a5b9c90aa5e1f990342de8fa80a0c447e3c6143fbaf0c7747edd715f80a36125e7613f9d565b806125fc575b6125f357005b61001c90614382565b50600d5415156125ed565b506001600160a01b0381165f908152600b602052604090205460ff161561257b565b346103cd5760a03660031901126103cd57612645600435610949565b612650602435610949565b6084356001600160401b0381116103cd5761266f903690600401610a17565b506126786137c2565b60405163f23a6e6160e01b8152602090f35b346103cd575f3660031901126103cd576020600d54604051908152f35b346103cd575f3660031901126103cd5760606126c16136f5565b604080519384526001600160a01b03909216602084015290820152f35b6001600160e01b0319908116635194544760e01b8114908115612792575b5061278c5761274d612728916104a06127136136f5565b6001600160a01b039687949093909290614afd565b165f52600160205260405f20905f351663ffffffff60e01b165f5260205260405f2090565b54168061275957505f90565b5f80916040518061276a81366136ad565b03915afa6127766136c6565b901561278457602081519101f35b602081519101fd5b50600190565b636faff5f160e01b8114915081156127ac575b505f6126fc565b630271189760e51b8114915081156127c6575b505f6127a5565b6301ffc9a760e01b1490505f6127bf565b634e487b7160e01b5f52603260045260245ffd5b91908110156127fb5760051b0190565b6127d7565b3561091381611c1d565b3561091381610949565b9061281f9291613916565b612827575f90565b630b135d3f60e11b90565b91908110156127fb576060020190565b908160209103126103cd575161091381611c1d565b6040513d5f823e3d90fd5b908160209103126103cd575161091381610949565b95949091929394612886614d92565b915f915b8083106128b5575050506111556128a091613a78565b6105bb57610913946128b0613752565b613c21565b9091926128c3848385612832565b906128d06020830161280a565b6129236040840135824686357f00000000000000000000000000000000000000000000000000000000000000007f00000000000000000000000000000000000000000000000000000000000000006139f1565b92813b1561299b57833b6129de575b604080516331a9108f60e11b815291013560048201529190602090839060249082906001600160a01b03165afa5f92816129ad575b5061297e57604051631052dd2560e21b8152600490fd5b6001600160a01b0390811691160361299b5792600101919061288a565b604051631052dd2560e21b8152600490fd5b6129d091935060203d6020116129d7575b6129c881836106c6565b810190612862565b915f612967565b503d6129be565b604051632938b58d60e21b815260049060208183816001600160a01b038a165afa908115612144575f91612a27575b50612a185750612932565b604051636315bfbb60e01b8152fd5b612a49915060203d602011612a4f575b612a4181836106c6565b810190612842565b5f612a0d565b503d612a37565b60405190612a6382610690565b5f8252565b15612a6f57565b60405162461bcd60e51b815260206004820152602c60248201527f46756e6374696f6e206d7573742062652063616c6c6564207468726f7567682060448201526b19195b1959d85d1958d85b1b60a21b6064820152608490fd5b15612ad057565b60405162461bcd60e51b815260206004820152602c60248201527f46756e6374696f6e206d7573742062652063616c6c6564207468726f7567682060448201526b6163746976652070726f787960a01b6064820152608490fd5b6040519060a082018281106001600160401b03821117610670576040526080808352366020840137565b60405190612b6182610675565b6002825260203681840137565b90612b78826109c6565b612b8560405191826106c6565b8281528092612b96601f19916109c6565b0190602036910137565b90612baa82611f09565b612bb760405191826106c6565b8281528092612bc8601f1991611f09565b01905f5b828110612bd857505050565b806060602080938501015201612bcc565b91908110156127fb5760051b81013590607e19813603018212156103cd570190565b903590601e19813603018212156103cd57018035906001600160401b0382116103cd576020019181360383136103cd57565b3561091381610be3565b80518210156127fb5760209160051b010190565b90612c6b90612c719336916109e1565b50613d2c565b612c79575f90565b630291f19360e51b90565b15612c8b57565b60405162461bcd60e51b815260206004820152602e60248201527f496e697469616c697a61626c653a20636f6e747261637420697320616c72656160448201526d191e481a5b9a5d1a585b1a5e995960921b6064820152608490fd5b903590601e19813603018212156103cd57018035906001600160401b0382116103cd57602001918160051b360383136103cd57565b601f8111612d28575050565b60055f525f80516020615f3e833981519152906020601f840160051c83019310612d6c575b601f0160051c01905b818110612d61575050565b5f8155600101612d56565b9091508190612d4d565b601f8111612d82575050565b60065f525f80516020615f9e833981519152906020601f840160051c83019310612dc6575b601f0160051c01905b818110612dbb575050565b5f8155600101612db0565b9091508190612da7565b601f8111612ddc575050565b60075f527fa66cc928b5edb82af9bd49922954155ab7b0942694bea4ce44661d9a8736c688906020601f840160051c83019310612e33575b601f0160051c01905b818110612e28575050565b5f8155600101612e1d565b9091508190612e14565b601f8111612e49575050565b60085f525f80516020615f7e833981519152906020601f840160051c83019310612e8d575b601f0160051c01905b818110612e82575050565b5f8155600101612e77565b9091508190612e6e565b91906001600160401b03811161067057612eb681611a42600554610611565b5f601f8211600114612ef4578190612ee493945f92612ee9575b50508160011b915f199060031b1c19161790565b600555565b013590505f80612ed0565b60055f52601f198216935f80516020615f3e833981519152915f5b868110612f465750836001959610612f2d575b505050811b01600555565b01355f19600384901b60f8161c191690555f8080612f22565b90926020600181928686013581550194019101612f0f565b91906001600160401b03811161067057612f7d81612243600654610611565b5f601f8211600114612faf578190612faa93945f92612ee95750508160011b915f199060031b1c19161790565b600655565b60065f52601f198216935f80516020615f9e833981519152915f5b8681106130015750836001959610612fe8575b505050811b01600655565b01355f19600384901b60f8161c191690555f8080612fdd565b90926020600181928686013581550194019101612fca565b91906001600160401b0381116106705761303d81613038600754610611565b612dd0565b5f601f821160011461306f57819061306a93945f92612ee95750508160011b915f199060031b1c19161790565b600755565b60075f52601f198216937fa66cc928b5edb82af9bd49922954155ab7b0942694bea4ce44661d9a8736c688915f5b8681106130d457508360019596106130bb575b505050811b01600755565b01355f19600384901b60f8161c191690555f80806130b0565b9092602060018192868601358155019401910161309d565b91906001600160401b038111610670576131108161310b600854610611565b612e3d565b5f601f821160011461314257819061313d93945f92612ee95750508160011b915f199060031b1c19161790565b600855565b60085f52601f198216935f80516020615f7e833981519152915f5b868110613194575083600195961061317b575b505050811b01600855565b01355f19600384901b60f8161c191690555f8080613170565b9092602060018192868601358155019401910161315d565b9060e082019160326131be8483612ce7565b9050116133d057610100810160146131d68284612ce7565b9050116133be576132126131e98361280a565b6004805462010000600160b01b03191660109290921b62010000600160b01b0316919091179055565b6132286132226020840184612c0b565b90612e97565b61323e6132386040840184612c0b565b90612f5e565b61325461324e6060840184612c0b565b90613019565b61326a6132646080840184612c0b565b906130ec565b61328b61327960c08401612800565b60ff8019600c54169115151617600c55565b613293614d92565b6001600160a01b0381165f908152600b602052604090206132b390611e58565b5f5b6132bf8685612ce7565b90508110156133075780613301611e586132e86105176001956132e28c8b612ce7565b906127eb565b6001600160a01b03165f908152600a6020526040902090565b016132b5565b50929093505f5b6133188584612ce7565b905081101561335a5780613354611e5861333b6105176001956132e28b8a612ce7565b6001600160a01b03165f908152600b6020526040902090565b0161330e565b5091613364613f9d565b61336f575b50509050565b6133809061337b6140cc565b614382565b5f5b61338c8483612ce7565b90508110156133b257806133ac61337b6105176001946132e28988612ce7565b01613382565b50509050805f80613369565b604051636055dca160e01b8152600490fd5b604051636bd3434560e11b8152600490fd5b908160209103126103cd575190565b9060209081835280518284015201519060408082015260018060a01b0382511660608201526001600160401b0360208301511660808201526040820151151560a0820152606082015160c082015261010060a061345e608085015160c060e08601526101208501906108dd565b93015191015290565b919495909295600d5494851561358957613482611155613f9d565b613577575f976134ae976135329661349996614403565b916040516134bc816020968796878301610902565b03601f1981018352826106c6565b6134c461099a565b308152918685840152866040840152606083015260808201528460a08201526134eb6146f5565b906134f46109b9565b9182528382015261351561350961350961485f565b6001600160a01b031690565b9060405195868094819363f17325e760e01b8352600483016133f1565b03925af19182915f93613558575b5050610913576040516317c3402f60e01b8152600490fd5b61356f929350803d10610eaa57610e9b81836106c6565b905f80613540565b6040516384352a0160e01b8152600490fd5b6040516304f102a360e01b8152600490fd5b35610913816103bb565b9091939294600d54938415613589576135bf611155613f9d565b613577575f966134ae966135d695613499956149e6565b03925af19182915f936135fc575b50506109135760405163e80dd52b60e01b8152600490fd5b613613929350803d10610eaa57610e9b81836106c6565b905f806135e4565b6136236137c2565b63bc197c8160e01b90565b634e487b7160e01b5f52601160045260245ffd5b906301e13380820180921161365357565b61362e565b90620afa6c820180921161365357565b906002820180921161365357565b906001820180921161365357565b906003820180921161365357565b603001908160301161365357565b9190820180921161365357565b90815f8237015f815290565b908092918237015f815290565b3d156136f0573d906136d7826109c6565b916136e560405193846106c6565b82523d5f602084013e565b606090565b60405190608082018281106001600160401b038211176106705760405260608252602082016060604d82303c6060838051810103126103cd575190606060408401519361374185610949565b015191926001600160a01b03169190565b5f5442106137b05760035460806137a861376a615e52565b92908360405194859260208401978852604080850152816060850152848401375f838284010152601f801991011681010360608101845201826106c6565b519020600355565b604051636315bfbb60e01b8152600490fd5b61380b6137ef6137d66104a061049a6136f5565b6001600160a01b03165f90815260016020526040902090565b5f80356001600160e01b03191681526020919091526040902090565b546001600160a01b03811661381d5750565b5f8091613829306148c3565b908260405161386d60488260208101956001600160601b0319809160601b16875236866034840137368201903360601b1660348201520360288101845201826106c6565b51925af16127766136c6565b90604010156127fb5760400190565b906020116103cd5790602090565b906040116103cd5760200190602090565b90929192836020116103cd5783116103cd5760200191601f190190565b909392938483116103cd5784116103cd578101920390565b3590602081106138ea575090565b5f199060200360031b1b1690565b6005111561390257565b634e487b7160e01b5f52602160045260245ffd5b909160ff61393e61393861392a8487613879565b356001600160f81b03191690565b60f81c90565b161561397757613959926139539136916109e1565b90614d61565b613962816138f8565b6139725761091390612c6b612a56565b505f90565b9061399161350961350961398b8587613888565b906138dc565b9161399a612a56565b506139a761115584613d2c565b806139de575b6139d65761123b8185816139ca61398b6139d0966109139a613896565b916138c4565b91614ce6565b505050505f90565b506001600160a01b0383163014156139ad565b91906055959360e2956040519560b787015260018060a01b0316609786015260778501528160578501526e5af43d82803e903d91602b57fd5bf360378501526028840152733d60ad80600a3d3981f3363d3d373d3d3d363d73601484015260b7835260d7830190816040528351602085012061011785015260f7840152520160ff81532090565b6001600160a01b038181167f000000000000000000000000000000000000000000000000000000000000000082168114613bf657613ab46136f5565b90468303613b37575b613ac692614afd565b8281168214613b2e57613ad890614beb565b91821614613b27576001600160a01b03165f908152600260205260409020613b1a91613b13919060018060a01b03165f5260205260405f2090565b5460ff1690565b613b22575f90565b600190565b5050600190565b50505050600190565b613b68613b42614d92565b6001600160a01b0390811673111100000000000000000000000000000000111019011690565b85163014613bcc576040516333932be560e11b81526001600160a01b03871660048201526020816024817f00000000000000000000000000000000000000000000000000000000000000008a165afa908115612144575f91613bd7575b5015613abd575b505050505050600190565b613bf0915060203d602011612a4f57612a4181836106c6565b5f613bc5565b505050600190565b909280926014946001600160601b03199060601b1683528483013701015f815290565b9092919360ff16908115613d135760018214613cc2575060028114613ca557600314613c5957604051631cc6a69960e11b8152600490fd5b8261091392613c7c8380613c7661398b613c84976134ae9a613888565b946138a7565b929091613da0565b604051928391602083016014916001600160601b03199060601b1681520190565b5061091391613cbc6134ae94613c849336916109e1565b90613f83565b6109139493929150613d0090613cf2613cda306148c3565b93843b15613d05575b60405196879360208501613bfe565b03601f1981018552846106c6565b614bc3565b613d0e30614912565b613ce3565b9291613d269150936109139436916109e1565b91614bc3565b613d3761049a6136f5565b6001600160a01b03828116918082168314613b2e57613d5590614beb565b16809114613b27575f9081526002602090815260408083206001600160a01b0390941683529290522060ff90541690565b6001600160a01b03613d97306148c3565b1633036105bb57565b91613dad919336916109e1565b9060208251920190f5906001600160a01b03821615613dc857565b60405163a28c247360e01b8152600490fd5b604051631506fd4d60e01b81526001600160a01b039091166004820152602081806024810103817f00000000000000000000000000000000000000000000000000000000000000006001600160a01b03165afa908115612144575f91613e67575b5015613e5557613e4f611155611150614d92565b6105bb57565b60405163340aafcd60e11b8152600490fd5b613e80915060203d602011612a4f57612a4181836106c6565b5f613e3b565b15613e8d57565b60405162461bcd60e51b815260206004820152602960248201527f45524331393637557067726164653a20756e737570706f727465642070726f786044820152681a58589b195555525160ba1b6064820152608490fd5b60809060208152602e60208201527f45524331393637557067726164653a206e657720696d706c656d656e7461746960408201526d6f6e206973206e6f74205555505360901b60608201520190565b613f76917f19457468657265756d205369676e6564204d6573736167653a0a3332000000005f52601c52613f70603c5f2091610140810190612c0b565b91613916565b613f7f57600190565b5f90565b60208251920190f0906001600160a01b03821615613dc857565b600a46148015614016575b801561400b575b8015613fff575b8015613ff3575b8015613fe8575b8015613fdd575b8015613fd45790565b50610530461490565b506105314614613fcb565b5061a4ec4614613fc4565b5062014a344614613fbd565b5062aa36a74614613fb6565b5061a4b14614613faf565b5062aa37dc4614613fa8565b60208082526005545f9261403582610611565b9182602083015260406001916001811690815f146140a9575060011461405e575b505050505090565b60055f908152949695509192915f80516020615f3e8339815191525b8386106140965750505050604092935001015f80808080614056565b805485870183015294870194820161407a565b9395505050506040935060ff191683830152151560051b01015f80808080614056565b6140d761350961485f565b906040908151926020846140f2828201906001602083019252565b0391614106601f19938481018852876106c6565b61410e61099a565b308152955f878401526001868801525f606088015260808701525f60a0870152614136614f7e565b9561413f6109b9565b9687528287015260018060a01b031690845163f17325e760e01b9081815282818061416e60049b8c83016133f1565b03815f885af15f9181614363575b506141915786516317c3402f60e01b81528890fd5b9361419b85600d55565b614229836141a7614d92565b89516141ca816141be858201906001602083019252565b038681018352826106c6565b6141e46141d561099a565b6001600160a01b039093168352565b5f8284015260018b83015288606083015260808201525f60a08201526142086150e8565b906142116109b9565b918252828201528951809381928783528d83016133f1565b03815f895af19081614346575b506142535787876142465f600d55565b516317c3402f60e01b8152fd5b6142d4938392614281614275936142686152cb565b8b51958691888301610902565b039081018552846106c6565b61428961099a565b308152925f8486015260018a85015287606085015260808401525f60a08401526142b16146f5565b926142ba6109b9565b938452848401525f895180978195829483528d83016133f1565b03925af19182614328575b50506142f05750506142465f600d55565b9190925051907f03d364024f6102dfc5e23f488f1e462c8e58afc717a21875496e0adc2132d1b430928061432381614022565b0390a3565b8161433e92903d10610eaa57610e9b81836106c6565b505f806142df565b61435c90853d8711610eaa57610e9b81836106c6565b505f614236565b61437b919250843d8611610eaa57610e9b81836106c6565b905f61417c565b600d5480156143e8576001600160a01b0361439b61485f565b1691823b156103cd5760405163dbf7117760e01b815260048101929092526001600160a01b03166024820152905f908290818381604481015b03925af16143df5750565b6107259061065d565b5050565b906143ff602092828151948592016108bc565b0190565b9190939592956144116136f5565b949150504261441f906154fe565b95369061442b926109e1565b61443490615703565b61443f3689856109e1565b61444890615703565b604051693d913a34ba3632911d1160b11b6020820152968792909190602a8401614471916143ec565b691116113a32bc3a111d1160b11b8152600a0161448d916143ec565b6e11161139ba30b93a2230ba32911d1160891b8152600f016144af90826143ec565b6c11161132b7322230ba32911d1160991b8152600d016144ce916143ec565b0395601f199687810187526144e390876106c6565b36906144ee926109e1565b6144f790615703565b953690614503926109e1565b61450c90615703565b946040519586916020830161456b90603a907f222c2264656c6976657261626c6573223a5b7b226e616d65223a22576f726b2081527f45766964656e6365222c2270726f6f66223a22697066733a2f2f00000000000060208201520190565b614574916143ec565b701116113232b9b1b934b83a34b7b7111d1160791b8152601101614597916143ec565b62227d5d60e81b81526003010384810186526145b390866106c6565b6145bc466157f4565b906145c6906157f4565b916145d090615897565b6040519283926020840161462e90603e907f2c226c696e6b73223a5b7b2274797065223a226f74686572222c2275726c223a81527f2268747470733a2f2f677265656e676f6f64732e6d652f67617264656e2f000060208201520190565b614637916143ec565b602f60f81b815260010161464a916143ec565b6705eeedee4d65e60f60c31b8152600801614664916143ec565b7f222c226c6162656c223a225669657720696e20477265656e20476f6f6473227d81527f5d2c2274797065223a2270726f6a6563742d757064617465227d0000000000006020820152603a010383810182526146c090826106c6565b604051938492602084016146d3916143ec565b6146dc916143ec565b6146e5916143ec565b03908101825261091390826106c6565b600a461461483b5762aa37dc46146148175761a4b146146147f35762aa36a746146147cf5762014a3446146147ab5761a4ec461461478757610531461461476357610530460361594c577f76f38d22f88a0df52a8ff0763e1c0af912b0822e758be2e0c9cded91aef71d2290565b7f1b4365b92aa47de3f67cdfb53127518381c1e66e0d9e0f8a15bbfa725095096790565b7f9895e82115987d8e3e02b35ced92e6a0509293890333f58f50ec291b34853dac90565b7f9b06f811608d135f913c18295486693fe626f35e213a7d132be87b1f952e508c90565b7f2c270e35bfcdc4d611f0e9d3d2ab6924ec6c673505abc22a1dd07e19b67211af90565b7f16bfe4783b7a9c743c401222c56a07ecb77ed42afc84b61ff1f62f5936c0b9d790565b7fd193e75f420a69910f98fa79cacdfd9d0dcbf5933edce8f8bde9a10bd204d99690565b7f70a3f615f738fc6a4f56100692ada93d947c028b840940d97af7e7d6f0fa057790565b61a4b146146148ab5761a4ec46146148935762014a34460361594c57734ca7230fb6b78875bdd1b1e4f665b7b7f189123990565b738791ac8c099314bb1d1514d76de13a1e8027595090565b736dc1d6b864e8bef815806f9e4677123496e1202690565b600b6148d060559261595e565b602081519101206040519060408201527f97f795a08410e77dc9dbbaba3915f17c601e45642518dd578bd440d8775bfee460208201523081520160ff81532090565b61491b9061595e565b8051156149a25780516001600160a01b03917f97f795a08410e77dc9dbbaba3915f17c601e45642518dd578bd440d8775bfee491906020015ff5161561495d57565b60405162461bcd60e51b815260206004820152601960248201527f437265617465323a204661696c6564206f6e206465706c6f79000000000000006044820152606490fd5b606460405162461bcd60e51b815260206004820152602060248201527f437265617465323a2062797465636f6465206c656e677468206973207a65726f6044820152fd5b61091394614ad896614ade614a6b614a11614a7e9897614a16614a11614ae498614af19a36916109e1565b615703565b9861123b6034604051809c693d913a34ba3632911d1160b11b6020830152614a48815180926020602a860191016108bc565b8101691116113a32bc3a111d1160b11b602a82015203601481018d52018b6106c6565b614ab460405198899260208401906143ec565b7f222c2274797065223a2270726f6a6563742d6d696c6573746f6e65222c2264618152633a30911d60e11b602082015260240190565b0396614ac8601f19988981018352826106c6565b604051998a9760208901906143ec565b906143ec565b916136b9565b607d60f81b815260010190565b039081018352826106c6565b4603614b6757803b15614b67576040516331a9108f60e11b81526004810192909252602090829060249082906001600160a01b03165afa5f9181614b46575b5061091357505f90565b614b6091925060203d6020116129d7576129c881836106c6565b905f614b3c565b50505f90565b600d5480156143e8576001600160a01b03614b8661485f565b1691823b156103cd57604051632c1a4e4360e21b815260048101929092526001600160a01b03166024820152905f908290818381604481016143d4565b915f928392602083519301915af190614bda6136c6565b9115614be257565b50602081519101fd5b907f0000000000000000000000000000000000000000000000000000000000000000917f00000000000000000000000000000000000000000000000000000000000000005b614c3b818584615a27565b15614ce15760408051637e062a3560e11b815292606091908290859060049082906001600160a01b03165afa938415612144575f915f935f96614c91575b50505092614c8a91614c3b94614afd565b9150614c30565b92509250809450813d8311614cda575b614cab81836106c6565b810103126103cd5782614c8a91614c3b945190602083015192614ccd84610949565b0151909190948193614c79565b503d614ca1565b509150565b5f9192908291604051614d1d816134ae6020820194630b135d3f60e11b998a875260248401526040604484015260648301906108dd565b51915afa90614d2a6136c6565b82614d53575b82614d3a57505090565b614d4f919250602080825183010191016133e2565b1490565b915060208251101591614d30565b9060418151145f14614d895761047891602082015190606060408401519301515f1a90615aaf565b50505f90600290565b337f00000000000000000000000000000000000000000000000000000000000000006001600160a01b03161480614dd9575b15614dd55736601319013560601c90565b3390565b506014361015614dc4565b90614dee82614eef565b6001600160a01b0382167fbc7cd75a20ee27fd9adebab32041f755214dbc6bffa90cc0225b39da2e5c2d3b5f80a2805115801590614e96575b614e2f575050565b614e93915f8060405193614e42856106ab565b602785527f416464726573733a206c6f772d6c6576656c2064656c65676174652063616c6c6020860152660819985a5b195960ca1b6040860152602081519101845af4614e8d6136c6565b91615eac565b50565b506001614e27565b90614ea882614eef565b6001600160a01b0382167fbc7cd75a20ee27fd9adebab32041f755214dbc6bffa90cc0225b39da2e5c2d3b5f80a2805115801590614ee857614e2f575050565b505f614e27565b803b15614f23575f80516020615f5e83398151915280546001600160a01b0319166001600160a01b03909216919091179055565b60405162461bcd60e51b815260206004820152602d60248201527f455243313936373a206e657720696d706c656d656e746174696f6e206973206e60448201526c1bdd08184818dbdb9d1c9858dd609a1b6064820152608490fd5b600a46146150c45762aa37dc46146150a05761a4b1461461507c5762aa36a746146150585762014a3446146150345761a4ec4614615010576105314614614fec57610530460361594c577f9de9294fbb62391b393332a33bfc28b4e0e728dd094aee4bda3955df62f8401a90565b7ff6b89107f8096220051240b89a48abb66e0a23e529c914953b80f5a2bc5ea44c90565b7ff3f753b41e04d1052b5a5ec7624d1dfdb6c2da288a985120e477ddbcac07102290565b7f5ddd6b7a11406771308431ca9bd146cc717848b74b52993a532dc1aad0ccc83f90565b7fec77990a252b54b17673955c774b9712766de5eecb22ca5aa2c440e0e93257fb90565b7fac2a06e955a7e25e6729efe1a6532237e3435b21ccd3dc827ae3c94e624d25b390565b7ff9bbd118dd100459a7d093403af21c6e7f847fd7f331b7a4e6bfb94a1366bd7690565b7f5b873b6e7a16207b526dde366e8164e95bcda2f009272306519667c5e94d219190565b600a461461522e5762aa37dc461461520a5761a4b146146151e65762aa36a746146151c25762014a34461461519e5761a4ec461461517a57610531461461515657610530460361594c577f222fa508c0cdb5954905dd30611a940f6402da2b3c49ce0c88d33e22f72121e790565b7fb7278b94cea2b9f1a8fdd1c4bb52ed66906516a0ff9d59d0f80daffcf147ea5d90565b7fb4186a2401f40a4c78768941ef9140e1fbe5fe595053a65d44f31d6df180b71290565b7f857398d86e2d31bec5af882b950ee7b00d1fefefba2432737ab28b68ee041eb890565b7fdd87b3500457931252424f4439365534ba72a367503a8805ff3482353fb9030190565b7f5f430aec9d04f0dcb3729775c5dfe10752e436469a7607f8c64ae44ef996e47790565b7f611f9655188f372e27dce116a803fa9081ca3e2907986368d54fcad538ca385390565b7f7fbb8a65924d8ad2ae12356e04b1418043e8361ba3b1b6c917de2e23df3ec81c90565b6008545f929161526182610611565b916001908181169081156152b8575060011461527c57505050565b909192935060085f525f80516020615f7e833981519152905f915b8483106152a5575050500190565b8181602092548587015201920191615297565b60ff191683525050811515909102019150565b6152d6600854610611565b1561544e576040517568747470733a2f2f7733732e6c696e6b2f697066732f60501b602082015261530d816134ae60368201615252565b6153156106e7565b61531e90615703565b615326610833565b61532f90615703565b91615338610797565b61534190615703565b9061534b90615703565b6153536106e7565b61535c90615b48565b61536590615703565b604051693d913a34ba3632911d1160b11b6020820152948594919391602a860161538e916143ec565b701116113232b9b1b934b83a34b7b7111d1160791b81526011016153b1916143ec565b751116113637b1b0ba34b7b727b324b6b830b1ba111d1160511b81526016016153d9916143ec565b6d11161134b6b0b3b2aaa926111d1160911b8152600e016153f9916143ec565b6911161139b63ab3911d1160b11b8152600a01615415916143ec565b7f222c2274797065223a2270726f6a6563742d64657461696c73227d00000000008152601b015b03601f198101825261091390826106c6565b615456612a56565b61530d565b60081981019190821161365357565b5f1981019190821161365357565b9190820391821161365357565b9062023ab19182810292818404149015171561365357565b906101909182810292818404149015171561365357565b9061016d918083029283040361365357565b908160050291600583040361365357565b908160990291609983040361365357565b908160011b918083046002149015171561365357565b620151809061550e828204613658565b61559661552a62023ab183049261552484615485565b90615478565b61552461557561556f61556961556161555561554a6105b4880488615478565b618eac8804906136a0565b62023ab0870490615478565b61016d900490565b9561549d565b856136a0565b93606461558e615584836154b4565b8360021c906136a0565b910490615478565b926155d46155cf6155b86155b16155ac886154c6565b613668565b6099900490565b956155246155c86155ac896154d7565b6005900490565b613676565b93600a8110156156d5576155e790613684565b925b60028411156156c5575b06610e109161560190615d33565b9261560b90615da2565b9361561590615da2565b91615621818304615dfa565b908206603c900461563190615dfa565b91603c900661563f90615dfa565b9260405195869560208701615653916143ec565b602d60f81b8152600101615666916143ec565b602d60f81b8152600101615679916143ec565b601560fa1b815260010161568c916143ec565b601d60f91b815260010161569f916143ec565b601d60f91b81526001016156b2916143ec565b64171818182d60d91b815260050161543c565b916156cf90613676565b916155f3565b6156de9061545b565b926155e9565b9081518110156127fb570160200190565b5f1981146136535760010190565b905f805b835181101561576257601160f91b61574061573361572584886156e4565b516001600160f81b03191690565b6001600160f81b03191690565b1461574e575b600101615707565b9061575a6001916156f5565b919050615746565b508015614e935761577761577c9184516136a0565b612b6e565b5f925f5b81518110156157ed57600190601160f91b6157a161573361572584876156e4565b146157d2575b6157b461572582856156e4565b956157cb6157c1826156f5565b975f1a91866156e4565b5301615780565b605c6157e76157e0886156f5565b97866156e4565b536157a7565b5090925050565b801561587957805f81805b615861575061580d81612b6e565b925b61581857505090565b6158219061546a565b90600a9061584c61583c615836848406613692565b60ff1690565b60f81b6001600160f81b03191690565b5f1a61585884866156e4565b5304908161580f565b915061586e600a916156f5565b9104808392916157ff565b5060405161588681610675565b60018152600360fc1b602082015290565b604051906158a4826106ab565b604082526020906040366020850137604051906158c082610675565b601082526f181899199a1a9b1b9c1cb0b131b232b360811b60208301525f5b8381106158ed575050505090565b8061592c615725846001941a600f9061590e615725838360041c168a6156e4565b61592461591a876154e8565b915f1a918c6156e4565b5316866156e4565b61594561593b6155cf846154e8565b915f1a91886156e4565b53016158df565b604051633cb9b43760e01b8152600490fd5b61091360346159f6926040519061597482610675565b600e825260208201906d604380600d600039806000f3fe7360901b8252615a186040516159a0816106ab565b602e815260208101937f3314601d573d3dfd5b363d3d373d3d6014360360143d5160601c5af43d60008085526d3e80603e573d6000fd5b3d6000f360901b604083015260405198899651809260208901906108bc565b8501926001600160601b03199060601b166020840152518093868401906108bc565b010360148101845201826106c6565b9160ad833b03615aa8576014600a600c853c5f5190813b156139d6576001600160a01b03928316828416036139d657615a5e612b2a565b60208101916080602d84883c6080828051810103126103cd57615aa2936135099351604084015191876080606087015196615a9888610949565b01519516936139f1565b91161490565b5050505f90565b7f7fffffffffffffffffffffffffffffff5d576e7357a4501ddfe92f46681b20a08411615b1f576020935f9360ff60809460405194855216868401526040830152606082015282805260015afa15612144575f516001600160a01b03811615615b1757905f90565b505f90600190565b505050505f90600390565b60ff60209116019060ff821161365357565b8015613653575f190190565b90615b538251612b6e565b915f905f5b8151811015615cad57615b6e61572582846156e4565b6001600160f81b0319818116604160f81b81101580615c9f575b15615bc057505090615ba161583c60019360f81c615b2a565b93615bb8615bae826156f5565b955f1a91886156e4565b535b01615b58565b919491606160f81b81101580615c91575b15615bef5750509081615be9615bae600194926156f5565b53615bba565b600360fc1b81101580615c83575b15615c155750509081615be9615bae600194926156f5565b91945060019291600160fd1b14615c2d575b50615bba565b8415159081615c5e575b50615c43575b5f615c27565b602d615c58615c51866156f5565b95886156e4565b53615c3d565b602d60f81b9150615c7a615725615c748861546a565b8a6156e4565b1614155f615c37565b50603960f81b811115615bfd565b50603d60f91b811115615bd1565b50602d60f91b811115615b88565b505080151580615d08575b615cfa575b615cc681612b6e565b905f5b818110615cd7575090925050565b80615ce7615725600193886156e4565b5f1a615cf382866156e4565b5301615cc9565b615d0390615b3c565b615cbd565b50602d60f81b6001600160f81b0319615d2c615725615d268561546a565b876156e4565b1614615cb8565b60405190615d4082610675565b6004825260203681840137600490815b615d5957505090565b600a6030918181068301809311613653575f19840184811161365357615d9b9360f81b6001600160f81b0319165f1a90615d9390876156e4565b530491615b3c565b9081615d50565b615daa612b54565b90600290815b615db957505090565b600a6030918181068301809311613653575f19840184811161365357615df39360f81b6001600160f81b0319165f1a90615d9390876156e4565b9081615db0565b615e02612b54565b90600290815b615e1157505090565b600a6030918181068301809311613653575f19840184811161365357615e4b9360f81b6001600160f81b0319165f1a90615d9390876156e4565b9081615e08565b337f00000000000000000000000000000000000000000000000000000000000000006001600160a01b03161480615ea1575b15615e9b57601319360190368211613653575f9190565b5f903690565b506014361015615e84565b91929015615f0e5750815115615ec0575090565b3b15615ec95790565b60405162461bcd60e51b815260206004820152601d60248201527f416464726573733a2063616c6c20746f206e6f6e2d636f6e74726163740000006044820152606490fd5b825190915015615f215750805190602001fd5b60405162461bcd60e51b8152908190610e69906004830161090256fe036b6384b5eca791c62761152d0c79bb0604c104a5fb6f4eb0703f3154bb3db0360894a13ba1a3210667c828492db98dca3e2076cc3735a920a3ca505d382bbcf3f7a9fe364faab93b216da50a3214154f22a0a2b415b23a84c8169e8b636ee3f652222313e28459528d920b65115c16c04f3efc82aaedc97be59f3f377c0d3fa164736f6c6343000819000a","linkReferences":{}},"methodIdentifiers":{"ASSESSMENT_RESOLVER()":"3a208f95","WORK_APPROVAL_RESOLVER()":"bcc5cf88","addGardenOperator(address)":"eed9df74","addGardener(address)":"eaff6dc9","bannerImage()":"94def29d","communityToken()":"29aa1617","createProjectImpact(string,string,string,bytes32)":"5bcf5dce","createProjectMilestone(string,string,string)":"81eec6bb","description()":"7284e416","entryPoint()":"b0d691fe","erc6551Registry()":"056d5afe","execute(address,uint256,bytes,uint8)":"51945447","executeBatch((address,uint256,bytes,uint8)[])":"43629a73","executeNested(address,uint256,bytes,uint8,(bytes32,address,uint256)[])":"1fb1ecf0","extcall(address,uint256,bytes)":"b709467c","extcreate(uint256,bytes)":"45a24e3e","extcreate2(uint256,bytes32,bytes)":"34715fb1","extsload(bytes32)":"1e2eaeaf","gapProjectUID()":"f7fc57b0","gardenOperators(address)":"7597bc7c","gardeners(address)":"1f6e45e3","getGAPProjectUID()":"f89b9b93","getNonce()":"d087d288","initialize((address,string,string,string,string,string,bool,address[],address[]))":"59ec3801","isGardener(address)":"0959f6a8","isLocked()":"a4e2d634","isOperator(address)":"6d70f7ae","isOwner(address)":"2f54bf6e","isTrustedForwarder(address)":"572b6c05","isValidSignature(bytes32,bytes)":"1626ba7e","isValidSigner(address,bytes)":"523e3260","joinGarden()":"b10006a6","location()":"516f279e","lock(uint256)":"dd467064","lockedUntil()":"ce0617ec","metadata()":"392f37e9","name()":"06fdde03","onERC1155BatchReceived(address,address,uint256[],uint256[],bytes)":"bc197c81","onERC1155Received(address,address,uint256,uint256,bytes)":"f23a6e61","onERC721Received(address,address,uint256,bytes)":"150b7a02","openJoining()":"291d0548","overrides(address,bytes4)":"ee9c6054","owner()":"8da5cb5b","permissions(address,address)":"1f9838b5","proxiableUUID()":"52d1902d","removeGardenOperator(address)":"adbce85e","removeGardener(address)":"eeb97057","setOpenJoining(bool)":"98b7a25a","setOverrides(bytes4[],address[])":"7a8f7356","setPermissions(address[],bool[])":"039721b1","state()":"c19d93fb","supportsInterface(bytes4)":"01ffc9a7","token()":"fc0c546a","updateDescription(string)":"e735b48a","updateName(string)":"84da92a7","upgradeTo(address)":"3659cfe6","upgradeToAndCall(address,bytes)":"4f1ef286","validateUserOp((address,uint256,bytes,bytes,uint256,uint256,uint256,uint256,uint256,bytes,bytes),bytes32,uint256)":"3a871cdd"},"id":117}