{"abi":[{"type":"constructor","inputs":[{"name":"erc4337EntryPoint","type":"address","internalType":"address"},{"name":"multicallForwarder","type":"address","internalType":"address"},{"name":"erc6551Registry","type":"address","internalType":"address"},{"name":"guardian","type":"address","internalType":"address"},{"name":"workApprovalResolver","type":"address","internalType":"address"},{"name":"assessmentResolver","type":"address","internalType":"address"}],"stateMutability":"nonpayable"},{"type":"fallback","stateMutability":"payable"},{"type":"receive","stateMutability":"payable"},{"type":"function","name":"ASSESSMENT_RESOLVER","inputs":[],"outputs":[{"name":"","type":"address","internalType":"address"}],"stateMutability":"view"},{"type":"function","name":"WORK_APPROVAL_RESOLVER","inputs":[],"outputs":[{"name":"","type":"address","internalType":"address"}],"stateMutability":"view"},{"type":"function","name":"addGardenOperator","inputs":[{"name":"operator","type":"address","internalType":"address"}],"outputs":[],"stateMutability":"nonpayable"},{"type":"function","name":"addGardener","inputs":[{"name":"gardener","type":"address","internalType":"address"}],"outputs":[],"stateMutability":"nonpayable"},{"type":"function","name":"bannerImage","inputs":[],"outputs":[{"name":"","type":"string","internalType":"string"}],"stateMutability":"view"},{"type":"function","name":"communityToken","inputs":[],"outputs":[{"name":"","type":"address","internalType":"address"}],"stateMutability":"view"},{"type":"function","name":"createProjectImpact","inputs":[{"name":"workTitle","type":"string","internalType":"string"},{"name":"impactDescription","type":"string","internalType":"string"},{"name":"proofIPFS","type":"string","internalType":"string"},{"name":"workUID","type":"bytes32","internalType":"bytes32"}],"outputs":[{"name":"","type":"bytes32","internalType":"bytes32"}],"stateMutability":"nonpayable"},{"type":"function","name":"createProjectMilestone","inputs":[{"name":"milestoneTitle","type":"string","internalType":"string"},{"name":"milestoneDescription","type":"string","internalType":"string"},{"name":"milestoneMeta","type":"string","internalType":"string"}],"outputs":[{"name":"","type":"bytes32","internalType":"bytes32"}],"stateMutability":"nonpayable"},{"type":"function","name":"description","inputs":[],"outputs":[{"name":"","type":"string","internalType":"string"}],"stateMutability":"view"},{"type":"function","name":"entryPoint","inputs":[],"outputs":[{"name":"","type":"address","internalType":"contract IEntryPoint"}],"stateMutability":"view"},{"type":"function","name":"erc6551Registry","inputs":[],"outputs":[{"name":"","type":"address","internalType":"address"}],"stateMutability":"view"},{"type":"function","name":"execute","inputs":[{"name":"to","type":"address","internalType":"address"},{"name":"value","type":"uint256","internalType":"uint256"},{"name":"data","type":"bytes","internalType":"bytes"},{"name":"operation","type":"uint8","internalType":"uint8"}],"outputs":[{"name":"","type":"bytes","internalType":"bytes"}],"stateMutability":"payable"},{"type":"function","name":"executeBatch","inputs":[{"name":"operations","type":"tuple[]","internalType":"struct BatchExecutor.Operation[]","components":[{"name":"to","type":"address","internalType":"address"},{"name":"value","type":"uint256","internalType":"uint256"},{"name":"data","type":"bytes","internalType":"bytes"},{"name":"operation","type":"uint8","internalType":"uint8"}]}],"outputs":[{"name":"","type":"bytes[]","internalType":"bytes[]"}],"stateMutability":"payable"},{"type":"function","name":"executeNested","inputs":[{"name":"to","type":"address","internalType":"address"},{"name":"value","type":"uint256","internalType":"uint256"},{"name":"data","type":"bytes","internalType":"bytes"},{"name":"operation","type":"uint8","internalType":"uint8"},{"name":"proof","type":"tuple[]","internalType":"struct NestedAccountExecutor.ERC6551AccountInfo[]","components":[{"name":"salt","type":"bytes32","internalType":"bytes32"},{"name":"tokenContract","type":"address","internalType":"address"},{"name":"tokenId","type":"uint256","internalType":"uint256"}]}],"outputs":[{"name":"","type":"bytes","internalType":"bytes"}],"stateMutability":"payable"},{"type":"function","name":"extcall","inputs":[{"name":"to","type":"address","internalType":"address"},{"name":"value","type":"uint256","internalType":"uint256"},{"name":"data","type":"bytes","internalType":"bytes"}],"outputs":[{"name":"result","type":"bytes","internalType":"bytes"}],"stateMutability":"nonpayable"},{"type":"function","name":"extcreate","inputs":[{"name":"value","type":"uint256","internalType":"uint256"},{"name":"bytecode","type":"bytes","internalType":"bytes"}],"outputs":[{"name":"","type":"address","internalType":"address"}],"stateMutability":"nonpayable"},{"type":"function","name":"extcreate2","inputs":[{"name":"value","type":"uint256","internalType":"uint256"},{"name":"salt","type":"bytes32","internalType":"bytes32"},{"name":"bytecode","type":"bytes","internalType":"bytes"}],"outputs":[{"name":"","type":"address","internalType":"address"}],"stateMutability":"nonpayable"},{"type":"function","name":"extsload","inputs":[{"name":"slot","type":"bytes32","internalType":"bytes32"}],"outputs":[{"name":"value","type":"bytes32","internalType":"bytes32"}],"stateMutability":"view"},{"type":"function","name":"gapProjectUID","inputs":[],"outputs":[{"name":"","type":"bytes32","internalType":"bytes32"}],"stateMutability":"view"},{"type":"function","name":"gardenOperators","inputs":[{"name":"operator","type":"address","internalType":"address"}],"outputs":[{"name":"isOperator","type":"bool","internalType":"bool"}],"stateMutability":"view"},{"type":"function","name":"gardeners","inputs":[{"name":"gardener","type":"address","internalType":"address"}],"outputs":[{"name":"isGardener","type":"bool","internalType":"bool"}],"stateMutability":"view"},{"type":"function","name":"getGAPProjectUID","inputs":[],"outputs":[{"name":"","type":"bytes32","internalType":"bytes32"}],"stateMutability":"view"},{"type":"function","name":"getNonce","inputs":[],"outputs":[{"name":"","type":"uint256","internalType":"uint256"}],"stateMutability":"view"},{"type":"function","name":"initialize","inputs":[{"name":"params","type":"tuple","internalType":"struct IGardenAccount.InitParams","components":[{"name":"communityToken","type":"address","internalType":"address"},{"name":"name","type":"string","internalType":"string"},{"name":"description","type":"string","internalType":"string"},{"name":"location","type":"string","internalType":"string"},{"name":"bannerImage","type":"string","internalType":"string"},{"name":"metadata","type":"string","internalType":"string"},{"name":"openJoining","type":"bool","internalType":"bool"},{"name":"gardeners","type":"address[]","internalType":"address[]"},{"name":"gardenOperators","type":"address[]","internalType":"address[]"}]}],"outputs":[],"stateMutability":"nonpayable"},{"type":"function","name":"isGardener","inputs":[{"name":"account","type":"address","internalType":"address"}],"outputs":[{"name":"","type":"bool","internalType":"bool"}],"stateMutability":"view"},{"type":"function","name":"isLocked","inputs":[],"outputs":[{"name":"","type":"bool","internalType":"bool"}],"stateMutability":"view"},{"type":"function","name":"isOperator","inputs":[{"name":"account","type":"address","internalType":"address"}],"outputs":[{"name":"","type":"bool","internalType":"bool"}],"stateMutability":"view"},{"type":"function","name":"isOwner","inputs":[{"name":"account","type":"address","internalType":"address"}],"outputs":[{"name":"","type":"bool","internalType":"bool"}],"stateMutability":"view"},{"type":"function","name":"isTrustedForwarder","inputs":[{"name":"forwarder","type":"address","internalType":"address"}],"outputs":[{"name":"","type":"bool","internalType":"bool"}],"stateMutability":"view"},{"type":"function","name":"isValidSignature","inputs":[{"name":"hash","type":"bytes32","internalType":"bytes32"},{"name":"signature","type":"bytes","internalType":"bytes"}],"outputs":[{"name":"magicValue","type":"bytes4","internalType":"bytes4"}],"stateMutability":"view"},{"type":"function","name":"isValidSigner","inputs":[{"name":"signer","type":"address","internalType":"address"},{"name":"data","type":"bytes","internalType":"bytes"}],"outputs":[{"name":"magicValue","type":"bytes4","internalType":"bytes4"}],"stateMutability":"view"},{"type":"function","name":"joinGarden","inputs":[],"outputs":[],"stateMutability":"nonpayable"},{"type":"function","name":"location","inputs":[],"outputs":[{"name":"","type":"string","internalType":"string"}],"stateMutability":"view"},{"type":"function","name":"lock","inputs":[{"name":"_lockedUntil","type":"uint256","internalType":"uint256"}],"outputs":[],"stateMutability":"nonpayable"},{"type":"function","name":"lockedUntil","inputs":[],"outputs":[{"name":"","type":"uint256","internalType":"uint256"}],"stateMutability":"view"},{"type":"function","name":"metadata","inputs":[],"outputs":[{"name":"","type":"string","internalType":"string"}],"stateMutability":"view"},{"type":"function","name":"name","inputs":[],"outputs":[{"name":"","type":"string","internalType":"string"}],"stateMutability":"view"},{"type":"function","name":"onERC1155BatchReceived","inputs":[{"name":"","type":"address","internalType":"address"},{"name":"","type":"address","internalType":"address"},{"name":"","type":"uint256[]","internalType":"uint256[]"},{"name":"","type":"uint256[]","internalType":"uint256[]"},{"name":"","type":"bytes","internalType":"bytes"}],"outputs":[{"name":"","type":"bytes4","internalType":"bytes4"}],"stateMutability":"nonpayable"},{"type":"function","name":"onERC1155Received","inputs":[{"name":"","type":"address","internalType":"address"},{"name":"","type":"address","internalType":"address"},{"name":"","type":"uint256","internalType":"uint256"},{"name":"","type":"uint256","internalType":"uint256"},{"name":"","type":"bytes","internalType":"bytes"}],"outputs":[{"name":"","type":"bytes4","internalType":"bytes4"}],"stateMutability":"nonpayable"},{"type":"function","name":"onERC721Received","inputs":[{"name":"","type":"address","internalType":"address"},{"name":"","type":"address","internalType":"address"},{"name":"tokenId","type":"uint256","internalType":"uint256"},{"name":"","type":"bytes","internalType":"bytes"}],"outputs":[{"name":"","type":"bytes4","internalType":"bytes4"}],"stateMutability":"nonpayable"},{"type":"function","name":"openJoining","inputs":[],"outputs":[{"name":"","type":"bool","internalType":"bool"}],"stateMutability":"view"},{"type":"function","name":"overrides","inputs":[{"name":"","type":"address","internalType":"address"},{"name":"","type":"bytes4","internalType":"bytes4"}],"outputs":[{"name":"","type":"address","internalType":"address"}],"stateMutability":"view"},{"type":"function","name":"owner","inputs":[],"outputs":[{"name":"","type":"address","internalType":"address"}],"stateMutability":"view"},{"type":"function","name":"permissions","inputs":[{"name":"","type":"address","internalType":"address"},{"name":"","type":"address","internalType":"address"}],"outputs":[{"name":"","type":"bool","internalType":"bool"}],"stateMutability":"view"},{"type":"function","name":"proxiableUUID","inputs":[],"outputs":[{"name":"","type":"bytes32","internalType":"bytes32"}],"stateMutability":"view"},{"type":"function","name":"removeGardenOperator","inputs":[{"name":"operator","type":"address","internalType":"address"}],"outputs":[],"stateMutability":"nonpayable"},{"type":"function","name":"removeGardener","inputs":[{"name":"gardener","type":"address","internalType":"address"}],"outputs":[],"stateMutability":"nonpayable"},{"type":"function","name":"setOpenJoining","inputs":[{"name":"_openJoining","type":"bool","internalType":"bool"}],"outputs":[],"stateMutability":"nonpayable"},{"type":"function","name":"setOverrides","inputs":[{"name":"selectors","type":"bytes4[]","internalType":"bytes4[]"},{"name":"implementations","type":"address[]","internalType":"address[]"}],"outputs":[],"stateMutability":"nonpayable"},{"type":"function","name":"setPermissions","inputs":[{"name":"callers","type":"address[]","internalType":"address[]"},{"name":"_permissions","type":"bool[]","internalType":"bool[]"}],"outputs":[],"stateMutability":"nonpayable"},{"type":"function","name":"state","inputs":[],"outputs":[{"name":"","type":"uint256","internalType":"uint256"}],"stateMutability":"view"},{"type":"function","name":"supportsInterface","inputs":[{"name":"interfaceId","type":"bytes4","internalType":"bytes4"}],"outputs":[{"name":"","type":"bool","internalType":"bool"}],"stateMutability":"view"},{"type":"function","name":"token","inputs":[],"outputs":[{"name":"chainId","type":"uint256","internalType":"uint256"},{"name":"tokenContract","type":"address","internalType":"address"},{"name":"tokenId","type":"uint256","internalType":"uint256"}],"stateMutability":"view"},{"type":"function","name":"updateDescription","inputs":[{"name":"_description","type":"string","internalType":"string"}],"outputs":[],"stateMutability":"nonpayable"},{"type":"function","name":"updateName","inputs":[{"name":"_name","type":"string","internalType":"string"}],"outputs":[],"stateMutability":"nonpayable"},{"type":"function","name":"upgradeTo","inputs":[{"name":"newImplementation","type":"address","internalType":"address"}],"outputs":[],"stateMutability":"nonpayable"},{"type":"function","name":"upgradeToAndCall","inputs":[{"name":"newImplementation","type":"address","internalType":"address"},{"name":"data","type":"bytes","internalType":"bytes"}],"outputs":[],"stateMutability":"payable"},{"type":"function","name":"validateUserOp","inputs":[{"name":"userOp","type":"tuple","internalType":"struct UserOperation","components":[{"name":"sender","type":"address","internalType":"address"},{"name":"nonce","type":"uint256","internalType":"uint256"},{"name":"initCode","type":"bytes","internalType":"bytes"},{"name":"callData","type":"bytes","internalType":"bytes"},{"name":"callGasLimit","type":"uint256","internalType":"uint256"},{"name":"verificationGasLimit","type":"uint256","internalType":"uint256"},{"name":"preVerificationGas","type":"uint256","internalType":"uint256"},{"name":"maxFeePerGas","type":"uint256","internalType":"uint256"},{"name":"maxPriorityFeePerGas","type":"uint256","internalType":"uint256"},{"name":"paymasterAndData","type":"bytes","internalType":"bytes"},{"name":"signature","type":"bytes","internalType":"bytes"}]},{"name":"userOpHash","type":"bytes32","internalType":"bytes32"},{"name":"missingAccountFunds","type":"uint256","internalType":"uint256"}],"outputs":[{"name":"validationData","type":"uint256","internalType":"uint256"}],"stateMutability":"nonpayable"},{"type":"event","name":"AdminChanged","inputs":[{"name":"previousAdmin","type":"address","indexed":false,"internalType":"address"},{"name":"newAdmin","type":"address","indexed":false,"internalType":"address"}],"anonymous":false},{"type":"event","name":"BannerImageUpdated","inputs":[{"name":"updater","type":"address","indexed":true,"internalType":"address"},{"name":"newBannerImage","type":"string","indexed":false,"internalType":"string"}],"anonymous":false},{"type":"event","name":"BeaconUpgraded","inputs":[{"name":"beacon","type":"address","indexed":true,"internalType":"address"}],"anonymous":false},{"type":"event","name":"CommunityTokenUpdated","inputs":[{"name":"updater","type":"address","indexed":true,"internalType":"address"},{"name":"newToken","type":"address","indexed":false,"internalType":"address"}],"anonymous":false},{"type":"event","name":"DescriptionUpdated","inputs":[{"name":"updater","type":"address","indexed":true,"internalType":"address"},{"name":"newDescription","type":"string","indexed":false,"internalType":"string"}],"anonymous":false},{"type":"event","name":"GAPProjectCreated","inputs":[{"name":"projectUID","type":"bytes32","indexed":true,"internalType":"bytes32"},{"name":"gardenAddress","type":"address","indexed":true,"internalType":"address"},{"name":"projectName","type":"string","indexed":false,"internalType":"string"}],"anonymous":false},{"type":"event","name":"GardenOperatorAdded","inputs":[{"name":"updater","type":"address","indexed":true,"internalType":"address"},{"name":"operator","type":"address","indexed":true,"internalType":"address"}],"anonymous":false},{"type":"event","name":"GardenOperatorRemoved","inputs":[{"name":"updater","type":"address","indexed":true,"internalType":"address"},{"name":"operator","type":"address","indexed":true,"internalType":"address"}],"anonymous":false},{"type":"event","name":"GardenerAdded","inputs":[{"name":"updater","type":"address","indexed":true,"internalType":"address"},{"name":"gardener","type":"address","indexed":true,"internalType":"address"}],"anonymous":false},{"type":"event","name":"GardenerRemoved","inputs":[{"name":"updater","type":"address","indexed":true,"internalType":"address"},{"name":"gardener","type":"address","indexed":true,"internalType":"address"}],"anonymous":false},{"type":"event","name":"Initialized","inputs":[{"name":"version","type":"uint8","indexed":false,"internalType":"uint8"}],"anonymous":false},{"type":"event","name":"LocationUpdated","inputs":[{"name":"updater","type":"address","indexed":true,"internalType":"address"},{"name":"newLocation","type":"string","indexed":false,"internalType":"string"}],"anonymous":false},{"type":"event","name":"LockUpdated","inputs":[{"name":"lockedUntil","type":"uint256","indexed":false,"internalType":"uint256"}],"anonymous":false},{"type":"event","name":"MetadataUpdated","inputs":[{"name":"updater","type":"address","indexed":true,"internalType":"address"},{"name":"newMetadata","type":"string","indexed":false,"internalType":"string"}],"anonymous":false},{"type":"event","name":"NameUpdated","inputs":[{"name":"updater","type":"address","indexed":true,"internalType":"address"},{"name":"newName","type":"string","indexed":false,"internalType":"string"}],"anonymous":false},{"type":"event","name":"OpenJoiningUpdated","inputs":[{"name":"updater","type":"address","indexed":true,"internalType":"address"},{"name":"openJoining","type":"bool","indexed":false,"internalType":"bool"}],"anonymous":false},{"type":"event","name":"OverrideUpdated","inputs":[{"name":"owner","type":"address","indexed":false,"internalType":"address"},{"name":"selector","type":"bytes4","indexed":false,"internalType":"bytes4"},{"name":"implementation","type":"address","indexed":false,"internalType":"address"}],"anonymous":false},{"type":"event","name":"PermissionUpdated","inputs":[{"name":"owner","type":"address","indexed":false,"internalType":"address"},{"name":"caller","type":"address","indexed":false,"internalType":"address"},{"name":"hasPermission","type":"bool","indexed":false,"internalType":"bool"}],"anonymous":false},{"type":"event","name":"Upgraded","inputs":[{"name":"implementation","type":"address","indexed":true,"internalType":"address"}],"anonymous":false},{"type":"error","name":"AccountLocked","inputs":[]},{"type":"error","name":"AlreadyGardener","inputs":[]},{"type":"error","name":"ContractCreationFailed","inputs":[]},{"type":"error","name":"ExceedsMaxLockTime","inputs":[]},{"type":"error","name":"GAPImpactCreationFailed","inputs":[]},{"type":"error","name":"GAPMilestoneCreationFailed","inputs":[]},{"type":"error","name":"GAPNotSupportedOnChain","inputs":[]},{"type":"error","name":"GAPProjectNotInitialized","inputs":[]},{"type":"error","name":"InvalidAccountProof","inputs":[]},{"type":"error","name":"InvalidERC6551Registry","inputs":[]},{"type":"error","name":"InvalidEntryPoint","inputs":[]},{"type":"error","name":"InvalidImplementation","inputs":[]},{"type":"error","name":"InvalidInput","inputs":[]},{"type":"error","name":"InvalidInvite","inputs":[]},{"type":"error","name":"InvalidMulticallForwarder","inputs":[]},{"type":"error","name":"InvalidOperation","inputs":[]},{"type":"error","name":"KarmaGAPNotSupported","inputs":[]},{"type":"error","name":"NotAuthorized","inputs":[]},{"type":"error","name":"NotAuthorizedCaller","inputs":[]},{"type":"error","name":"NotGardenOperator","inputs":[]},{"type":"error","name":"NotGardenOwner","inputs":[]},{"type":"error","name":"OwnershipCycle","inputs":[]},{"type":"error","name":"TooManyGardeners","inputs":[]},{"type":"error","name":"TooManyOperators","inputs":[]}],"bytecode":{"object":"0x6101803461025657601f61626138819003918201601f1916830191906001600160401b0383118484101761025a578160c092859260409586528339810103126102565761004b8261026e565b6100576020840161026e565b9261006383820161026e565b916100706060830161026e565b9461008960a06100826080860161026e565b940161026e565b936001600160a01b039283168015610245576080523060a052828116156102355760c05260e081905281161561022457610100941684526101209230845261014091825261016092835260045460ff8160081c166101d05760ff80821603610196575b505192615fde9485610283863960805185818161105e01528181611e42015281816121450152613ae2015260a0518581816129550152614c4b015260c0518581816105e2015281816129760152614c6d015260e0518581816115be01528181614df20152615e69015251848181613bf10152613e60015251838181610e1a015281816112ee01526114e901525182818161177301526120ac015251818181610ff901526119f80152f35b60ff90811916176004557f7f26b83ff96e1f2b6a682f133852f6798a09c465da95921460cefb38474024986020825160ff8152a15f6100ec565b815162461bcd60e51b815260206004820152602760248201527f496e697469616c697a61626c653a20636f6e747261637420697320696e697469604482015266616c697a696e6760c81b6064820152608490fd5b835163754c753360e11b8152600490fd5b85516246a29560e81b8152600490fd5b8651632039d3c960e01b8152600490fd5b5f80fd5b634e487b7160e01b5f52604160045260245ffd5b51906001600160a01b03821682036102565756fe60806040526004361015610026575b361561001e5761001c61381f565b005b61001c61381f565b5f3560e01c806301ffc9a7146103b6578063039721b1146103b1578063056d5afe146103ac57806306fdde03146103a75780630959f6a814610393578063150b7a02146103a25780631626ba7e1461039d5780631e2eaeaf146103985780631f6e45e3146103935780631f9838b51461038e5780631fb1ecf014610389578063291d05481461038457806329aa16171461037f5780632f54bf6e1461037a57806334715fb1146103755780633659cfe614610370578063392f37e91461036b5780633a208f95146103665780633a871cdd1461036157806343629a731461035c57806345a24e3e146103575780634f1ef28614610352578063516f279e1461034d5780635194544714610348578063523e32601461034357806352d1902d1461033e578063572b6c051461033957806359ec3801146103345780635bcf5dce1461032f5780636d70f7ae146103255780637284e4161461032a5780637597bc7c146103255780637a8f73561461032057806381eec6bb1461031b57806384da92a7146103165780638da5cb5b1461031157806394def29d1461030c57806398b7a25a14610307578063a4e2d63414610302578063adbce85e146102fd578063b0d691fe146102f8578063b10006a6146102f3578063b709467c146102ee578063bc197c81146102e9578063bcc5cf88146102e4578063c19d93fb146102df578063ce0617ec146102da578063d087d288146102d5578063dd467064146102d0578063e735b48a146102cb578063eaff6dc9146102c6578063ee9c6054146102c1578063eeb97057146102bc578063eed9df74146102b7578063f23a6e61146102b2578063f7fc57b0146102ad578063f89b9b93146102ad5763fc0c546a0361000e5761271e565b612701565b6126a0565b6125af565b6124ff565b612497565b6123e4565b612263565b6121c0565b612114565b6120f8565b6120db565b612097565b611ff7565b611f30565b611e71565b611e2d565b611d80565b611d62565b611c9e565b611c02565b611be5565b611a68565b611980565b611829565b6117ce565b61180e565b6116fc565b6115f2565b61159a565b6114d7565b61148f565b61141f565b6113f0565b6112ad565b61125e565b611178565b611028565b610fe4565b610f3f565b610df3565b610d98565b610d63565b610d37565b610d15565b610c88565b610c19565b6109f4565b610bfa565b610ba9565b610acc565b610916565b6105cd565b61047c565b6103d1565b6001600160e01b03198116036103cd57565b5f80fd5b346103cd5760203660031901126103cd5760206103f86004356103f3816103bb565b612755565b6040519015158152f35b9181601f840112156103cd578235916001600160401b0383116103cd576020808501948460051b0101116103cd57565b60406003198201126103cd576001600160401b03916004358381116103cd578261045e91600401610402565b939093926024359182116103cd5761047891600401610402565b9091565b346103cd5761048a36610432565b92906104a56104a061049a613752565b91614b5a565b614c48565b6001600160a01b03811680156105bb5733036105bb576104c36137af565b8385036105a9575f5b8481106104d557005b806105416104ee6104e96001948a88612862565b612877565b6001600160a01b0385165f9081526002602052604090206105309061051c610517868c8c612862565b612881565b60018060a01b03165f5260205260405f2090565b9060ff801983541691151516179055565b7f394777a58092892d136a90c4bb7e4350c72ac50fba6a0208128677f36527dcf5610570610517838989612862565b61057e6104e9848b89612862565b604080516001600160a01b03888116825293909316602084015290151590820152606090a1016104cc565b60405163b4fa3fb360e01b8152600490fd5b60405163ea8e4eb560e01b8152600490fd5b346103cd575f3660031901126103cd576040517f00000000000000000000000000000000000000000000000000000000000000006001600160a01b03168152602090f35b90600182811c9216801561063f575b602083101461062b57565b634e487b7160e01b5f52602260045260245ffd5b91607f1691610620565b634e487b7160e01b5f52604160045260245ffd5b6001600160401b03811161067057604052565b610649565b604081019081106001600160401b0382111761067057604052565b602081019081106001600160401b0382111761067057604052565b606081019081106001600160401b0382111761067057604052565b90601f801991011681019081106001600160401b0382111761067057604052565b604051905f82600754916106fa83610611565b808352926020906001908181169081156107865750600114610727575b5050610725925003836106c6565b565b91509260075f527fa66cc928b5edb82af9bd49922954155ab7b0942694bea4ce44661d9a8736c688935f925b82841061076e57506107259450505081016020015f80610717565b85548885018301529485019487945092810192610753565b9150506020925061072594915060ff191682840152151560051b8201015f80610717565b604051905f82600654916107bd83610611565b8083529260209060019081811690811561078657506001146107e7575050610725925003836106c6565b91509260065f525f80516020615fb2833981519152935f925b82841061081b57506107259450505081016020015f80610717565b85548885018301529485019487945092810192610800565b604051905f826005549161084683610611565b808352926020906001908181169081156107865750600114610870575050610725925003836106c6565b91509260055f525f80516020615f52833981519152935f925b8284106108a457506107259450505081016020015f80610717565b85548885018301529485019487945092810192610889565b5f5b8381106108cd5750505f910152565b81810151838201526020016108be565b906020916108f6815180928185528580860191016108bc565b601f01601f1916010190565b9060206109139281815201906108dd565b90565b346103cd575f3660031901126103cd576040515f60055461093681610611565b808452906020906001908181169081156109b95750600114610973575b61096f85610963818703826106c6565b60405191829182610902565b0390f35b60055f90815293505f80516020615f528339815191525b8385106109a6575050505081016020016109638261096f610953565b805486860184015293820193810161098a565b86955061096f9693506020925061096394915060ff191682840152151560051b8201019293610953565b6001600160a01b038116036103cd57565b346103cd5760203660031901126103cd57600435610a11816109e3565b60018060a01b03165f52600a602052602060ff60405f2054166040519015158152f35b6040519060c082018281106001600160401b0382111761067057604052565b6040519061072582610675565b6001600160401b03811161067057601f01601f191660200190565b929192610a8782610a60565b91610a9560405193846106c6565b8294818452818301116103cd578281602093845f960137010152565b9080601f830112156103cd5781602061091393359101610a7b565b346103cd5760803660031901126103cd57610ae86004356109e3565b610af36024356109e3565b6064356001600160401b0381116103cd57610b12903690600401610ab1565b50610b1b613752565b919060018060a01b031633149182610b70575b5081610b66575b50610b5457610b4261381f565b604051630a85bd0160e11b8152602090f35b60405163b79e3f3f60e01b8152600490fd5b905046145f610b35565b6044351491505f610b2e565b9181601f840112156103cd578235916001600160401b0383116103cd57602083818601950101116103cd57565b346103cd5760403660031901126103cd576024356001600160401b0381116103cd57610be7610bde6020923690600401610b7c565b9060043561288b565b6040516001600160e01b03199091168152f35b346103cd5760203660031901126103cd57602060043554604051908152f35b346103cd5760403660031901126103cd57602060ff610c71600435610c3d816109e3565b60243590610c4a826109e3565b60018060a01b03165f526002845260405f209060018060a01b03165f5260205260405f2090565b54166040519015158152f35b60ff8116036103cd57565b60a03660031901126103cd57600435610ca0816109e3565b6001600160401b036044358181116103cd57610cc0903690600401610b7c565b919092606435610ccf81610c7d565b608435938385116103cd57366023860112156103cd5784600401359384116103cd5736602460608602870101116103cd5761096f956024610963960193602435906128ee565b346103cd575f3660031901126103cd57602060ff600c54166040519015158152f35b346103cd575f3660031901126103cd5760045460405160109190911c6001600160a01b03168152602090f35b346103cd5760203660031901126103cd5760206103f8600435610d85816109e3565b5f604051610d9281610690565b52613d89565b346103cd5760603660031901126103cd576044356001600160401b0381116103cd57610de1610dcd6020923690600401610b7c565b90610dd6613de3565b602435600435613dfd565b6040516001600160a01b039091168152f35b346103cd5760203660031901126103cd57600435610e10816109e3565b6001600160a01b037f000000000000000000000000000000000000000000000000000000000000000081169190610e4930841415612adf565b610e655f80516020615f72833981519152938285541614612b40565b610e6e82613e37565b60405190610e7b82610690565b5f82527f4910fdfa16fed3260ed0e7147f7cc6da11a60208b5b9406d12a635614ffd91435460ff1615610eb457505061001c9150614f4c565b6020600491604094939451928380926352d1902d60e01b825286165afa5f9181610f0e575b50610efb5760405162461bcd60e51b815280610ef760048201613f41565b0390fd5b61001c93610f099114613ee3565b614efb565b610f3191925060203d602011610f38575b610f2981836106c6565b81019061343f565b905f610ed9565b503d610f1f565b346103cd575f3660031901126103cd576040515f600954610f5f81610611565b808452906020906001908181169081156109b95750600114610f8b5761096f85610963818703826106c6565b60095f90815293507f6e1540171b6c0c960b71a7020d9f60077f6af931a8bbf590da0223dacf75c7af5b838510610fd1575050505081016020016109638261096f610953565b8054868601840152938201938101610fb5565b346103cd575f3660031901126103cd576040517f00000000000000000000000000000000000000000000000000000000000000006001600160a01b03168152602090f35b346103cd576003196060368201126103cd57600435906001600160401b0382116103cd576101609082360301126103cd576044357f00000000000000000000000000000000000000000000000000000000000000006001600160a01b031633036110d05761109f61096f9260243590600401613f90565b90806110b7575b506040519081529081906020820190565b5f80808093338219f1506110c9613723565b505f6110a6565b60405162461bcd60e51b815260206004820152601c60248201527f6163636f756e743a206e6f742066726f6d20456e747279506f696e74000000006044820152606490fd5b6020808201906020835283518092526040830192602060408460051b8301019501935f915b84831061114a5750505050505090565b9091929394958480611168600193603f198682030187528a516108dd565b980193019301919493929061113a565b6020806003193601126103cd576004356001600160401b0381116103cd576111a4903690600401610402565b916111bc6111b86111b3614def565b613ad5565b1590565b6105bb576111c86137af565b6111d183612bfd565b925f5b8181106111e9576040518061096f8782611115565b806112426111fd6105176001948689612c46565b84878761120b868484612c46565b013561123c60606112368861122e611224828989612c46565b6040810190612c68565b979096612c46565b01612c9a565b93613c7e565b61124c8288612ca4565b526112578187612ca4565b50016111d4565b346103cd5760403660031901126103cd576024356001600160401b0381116103cd57610de16112a56112966020933690600401610b7c565b61129e613de3565b3691610a7b565b600435613fe0565b60403660031901126103cd576004356112c5816109e3565b6024356001600160401b0381116103cd576112e4903690600401610ab1565b6001600160a01b037f0000000000000000000000000000000000000000000000000000000000000000811692919061131e30851415612adf565b61133a5f80516020615f72833981519152948286541614612b40565b61134383613e37565b7f4910fdfa16fed3260ed0e7147f7cc6da11a60208b5b9406d12a635614ffd91435460ff161561137957505061001c9150614f4c565b6020600491604094939451928380926352d1902d60e01b825286165afa5f91816113cf575b506113bc5760405162461bcd60e51b815280610ef760048201613f41565b61001c936113ca9114613ee3565b614e41565b6113e991925060203d602011610f3857610f2981836106c6565b905f61139e565b346103cd575f3660031901126103cd5761096f61140b6106e7565b6040519182916020835260208301906108dd565b60803660031901126103cd57600435611437816109e3565b6044356001600160401b0381116103cd57611456903690600401610b7c565b6064929192359061146682610c7d565b6114716111b3614def565b156105bb5761096f9361140b936114866137af565b60243590613c7e565b346103cd5760403660031901126103cd576004356114ac816109e3565b6024356001600160401b0381116103cd576020916114d1610be7923690600401610b7c565b91612cb8565b346103cd575f3660031901126103cd577f00000000000000000000000000000000000000000000000000000000000000006001600160a01b0316300361152f576040515f80516020615f728339815191528152602090f35b60405162461bcd60e51b815260206004820152603860248201527f555550535570677261646561626c653a206d757374206e6f742062652063616c60448201527f6c6564207468726f7567682064656c656761746563616c6c00000000000000006064820152608490fd5b346103cd5760203660031901126103cd5760206004356115b9816109e3565b6040517f00000000000000000000000000000000000000000000000000000000000000006001600160a01b039081169216919091148152f35b346103cd576003196020368201126103cd57600435906001600160401b0382116103cd576101209082360301126103cd5761166b6004549161164b60ff8460081c1615809481956116ee575b81156116ce575b50612ce1565b8261165e600160ff196004541617600455565b6116b5575b600401613209565b61167157005b61168161ff001960045416600455565b604051600181527f7f26b83ff96e1f2b6a682f133852f6798a09c465da95921460cefb38474024989080602081015b0390a1005b6116c961010061ff00196004541617600455565b611663565b303b159150816116e0575b505f611645565b6001915060ff16145f6116d9565b600160ff821610915061163e565b346103cd5760803660031901126103cd576001600160401b036004358181116103cd5761172d903690600401610b7c565b906024358381116103cd57611746903690600401610b7c565b90936044359081116103cd57611760903690600401610b7c565b91611769614def565b6001600160a01b037f000000000000000000000000000000000000000000000000000000000000000081169116036117bc5761096f956117ac95606435956134c4565b6040519081529081906020820190565b604051637046c88d60e01b8152600490fd5b346103cd5760203660031901126103cd576004356117eb816109e3565b60018060a01b03165f52600b602052602060ff60405f2054166040519015158152f35b346103cd575f3660031901126103cd5761096f61140b6107aa565b346103cd5761183736610432565b92906118476104a061049a613752565b6001600160a01b03811680156105bb5733036105bb576118656137af565b61186e30614920565b3b15611972575b8385036105a9575f5b84811061188757005b806118fd61189b6105176001948a88612862565b6001600160a01b0385165f9081526001602052604090206118de906118c96118c4868c8c612862565b6135f8565b63ffffffff60e01b165f5260205260405f2090565b80546001600160a01b0319166001600160a01b03909216919091179055565b7f2c722487e90aca38ec1b074c3403210bd2bfb769b4da7f12f7bf0b9e37517c1861192c6118c4838989612862565b61193a610517848b89612862565b604080516001600160a01b0380891682526001600160e01b03199094166020820152929091169082015280606081010390a10161187e565b61197b3061496f565b611875565b346103cd5760603660031901126103cd576001600160401b036004358181116103cd576119b1903690600401610b7c565b916024358181116103cd576119ca903690600401610b7c565b916044359081116103cd576119e3903690600401610b7c565b9290916119ee614def565b6001600160a01b037f000000000000000000000000000000000000000000000000000000000000000081169116036117bc5761096f956117ac95613602565b60206003198201126103cd57600435906001600160401b0382116103cd57806023830112156103cd5781602461091393600401359101610a7b565b346103cd57611a7636611a2d565b611a7e614def565b5f604051611a8b81610690565b52611a9581613d89565b15611bd35781516001600160401b03811161067057611abe81611ab9600554610611565b612d79565b602080601f8311600114611b3f575091611b1282611b2f937f74321da206c1b9fa34367f7ece59ca49371dcd13820b9a5c3767ae1ecceed51a955f91611b34575b508160011b915f199060031b1c19161790565b6005555b6040516001600160a01b03909116939091829182610902565b0390a2005b90508601515f611aff565b60055f5290601f1983165f80516020615f52833981519152925f905b828210611bbb575050927f74321da206c1b9fa34367f7ece59ca49371dcd13820b9a5c3767ae1ecceed51a949260019282611b2f9610611ba3575b5050811b01600555611b16565b8701515f1960f88460031b161c191690555f80611b96565b80600185968294968b01518155019501930190611b5b565b604051633632b98960e21b8152600490fd5b346103cd575f3660031901126103cd576020610de161049a613752565b346103cd575f3660031901126103cd576040515f600854611c2281610611565b808452906020906001908181169081156109b95750600114611c4e5761096f85610963818703826106c6565b60085f90815293505f80516020615f928339815191525b838510611c81575050505081016020016109638261096f610953565b8054868601840152938201938101611c65565b801515036103cd57565b346103cd5760203660031901126103cd57600435611cbb81611c94565b611cc3614def565b905f604051611cd181610690565b52611cdb82613d89565b1580611d40575b611d2e5760207fa48b25a14599514510fcdca0f35ff4cd42847f5e61698a238f4ee01e2d1c2c6a9115159260ff19600c541660ff851617600c5560405193845260018060a01b031692a2005b604051633cebab8560e21b8152600490fd5b506001600160a01b0382165f908152600b602052604090205460ff1615611ce2565b346103cd575f3660031901126103cd5760205f546040519042108152f35b346103cd5760203660031901126103cd57600435611d9d816109e3565b611da5614def565b5f604051611db281610690565b52611dbc81613d89565b15611bd35760018060a01b0380831691825f52600b60205260405f2060ff198154169055167fdd1e1c7c82ab1f3ed1b1656e8200309ebf9f682a74ce7737d3bfde87a7fecb085f80a3611e0d613ffa565b80611e22575b611e1957005b61001c90614bca565b50600d541515611e13565b346103cd575f3660031901126103cd576040517f00000000000000000000000000000000000000000000000000000000000000006001600160a01b03168152602090f35b346103cd575f3660031901126103cd5760ff600c541615611f1e57611e94614def565b6001600160a01b0381165f908152600a602052604090205460ff16611f0c576001600160a01b0381165f908152600a60205260409020611edc905b805460ff19166001179055565b6001600160a01b0316307fc0b9de905219d7679d6f05d6061fa6ef557a687d2c44c314b58bb793f5dba4945f80a3005b60405163211bad0f60e11b8152600490fd5b604051636dc9375d60e11b8152600490fd5b346103cd5760603660031901126103cd57600435611f4d816109e3565b6044356001600160401b0381116103cd5761096f91611f7661129661140b933690600401610b7c565b9060243590614c20565b6001600160401b0381116106705760051b60200190565b9080601f830112156103cd576020908235611fb181611f80565b93611fbf60405195866106c6565b81855260208086019260051b8201019283116103cd57602001905b828210611fe8575050505090565b81358152908301908301611fda565b346103cd5760a03660031901126103cd576120136004356109e3565b61201e6024356109e3565b6001600160401b036044358181116103cd5761203e903690600401611f97565b506064358181116103cd57612057903690600401611f97565b506084359081116103cd57612070903690600401610ab1565b5061096f61207c613678565b6040516001600160e01b031990911681529081906020820190565b346103cd575f3660031901126103cd576040517f00000000000000000000000000000000000000000000000000000000000000006001600160a01b03168152602090f35b346103cd575f3660031901126103cd576020600354604051908152f35b346103cd575f3660031901126103cd5760205f54604051908152f35b346103cd575f3660031901126103cd57604051631aab3f0d60e11b81523060048201525f60248201526020816044817f00000000000000000000000000000000000000000000000000000000000000006001600160a01b03165afa80156121bb575f90612187575b604051908152602090f35b506020813d6020116121b3575b816121a1602093836106c6565b810103126103cd5761096f905161217c565b3d9150612194565b6128ce565b346103cd5760203660031901126103cd576004356104a06121f46121e2613752565b6001600160a01b039492909190614b5a565b1680156105bb5733036105bb5761220a4261369f565b8111612251576116b07fa7b24c66dd3269a292a60b3facdbb8f3e7557d1e19e64d99e0d6ee7250be63ad9161223d6137af565b805f55604051918291829190602083019252565b6040516301814f7d60e31b8152600490fd5b346103cd5761227136611a2d565b612279614def565b5f60405161228681610690565b5261229081613d89565b15806123c2575b611d2e5781516001600160401b038111610670576122bf816122ba600654610611565b612dd3565b602080601f831160011461232e57509161231282611b2f937f37cc8c6ced0cbc4d440fcfa810a2f09f40b8f0127c3656103edf26b3d93e0ec1955f91611b3457508160011b915f199060031b1c19161790565b6006556040516001600160a01b03909116939091829182610902565b60065f5290601f1983165f80516020615fb2833981519152925f905b8282106123aa575050927f37cc8c6ced0cbc4d440fcfa810a2f09f40b8f0127c3656103edf26b3d93e0ec1949260019282611b2f9610612392575b5050811b01600655611b16565b8701515f1960f88460031b161c191690555f80612385565b80600185968294968b0151815501950193019061234a565b506001600160a01b0381165f908152600b602052604090205460ff1615612297565b346103cd5760203660031901126103cd57600435612401816109e3565b612409614def565b905f60405161241781610690565b5261242182613d89565b1580612475575b611d2e5760018060a01b0380911691825f52600a60205260405f20600160ff19825416179055167fc0b9de905219d7679d6f05d6061fa6ef557a687d2c44c314b58bb793f5dba4945f80a3005b506001600160a01b0382165f908152600b602052604090205460ff1615612428565b346103cd5760403660031901126103cd5760206004356124b6816109e3565b6124f56024356124c5816103bb565b6001600160a01b039283165f9081526001855260408082206001600160e01b031990931682526020929092522090565b5416604051908152f35b346103cd5760203660031901126103cd5760043561251c816109e3565b612524614def565b905f60405161253281610690565b5261253c82613d89565b158061258d575b611d2e5760018060a01b0380911691825f52600a60205260405f2060ff198154169055167f8a44d725ac751003f7f644f7ce70382fa06f348023717d057b7aa5c8778770d25f80a3005b506001600160a01b0382165f908152600b602052604090205460ff1615612543565b346103cd5760203660031901126103cd576004356125cc816109e3565b6125d4614def565b5f6040516125e181610690565b526125eb81613d89565b158061267e575b611d2e5760018060a01b0380831691825f52600b60205260405f20600160ff19825416179055600a60205261263160405f20600160ff19825416179055565b167f06216f26a4a5b9c90aa5e1f990342de8fa80a0c447e3c6143fbaf0c7747edd715f80a361265e613ffa565b80612673575b61266a57005b61001c906143df565b50600d541515612664565b506001600160a01b0381165f908152600b602052604090205460ff16156125f2565b346103cd5760a03660031901126103cd576126bc6004356109e3565b6126c76024356109e3565b6084356001600160401b0381116103cd576126e6903690600401610ab1565b506126ef61381f565b60405163f23a6e6160e01b8152602090f35b346103cd575f3660031901126103cd576020600d54604051908152f35b346103cd575f3660031901126103cd576060612738613752565b604080519384526001600160a01b03909216602084015290820152f35b6001600160e01b0319908116635194544760e01b8114908115612809575b50612803576127c461279f916104a061278a613752565b6001600160a01b039687949093909290614b5a565b165f52600160205260405f20905f351663ffffffff60e01b165f5260205260405f2090565b5416806127d057505f90565b5f8091604051806127e1813661370a565b03915afa6127ed613723565b90156127fb57602081519101f35b602081519101fd5b50600190565b636faff5f160e01b811491508115612823575b505f612773565b630271189760e51b81149150811561283d575b505f61281c565b6301ffc9a760e01b1490505f612836565b634e487b7160e01b5f52603260045260245ffd5b91908110156128725760051b0190565b61284e565b3561091381611c94565b35610913816109e3565b906128969291613973565b61289e575f90565b630b135d3f60e11b90565b9190811015612872576060020190565b908160209103126103cd575161091381611c94565b6040513d5f823e3d90fd5b908160209103126103cd5751610913816109e3565b959490919293946128fd614def565b915f915b80831061292c575050506111b861291791613ad5565b6105bb57610913946129276137af565b613c7e565b90919261293a8483856128a9565b9061294760208301612881565b61299a6040840135824686357f00000000000000000000000000000000000000000000000000000000000000007f0000000000000000000000000000000000000000000000000000000000000000613a4e565b92813b15612a1257833b612a55575b604080516331a9108f60e11b815291013560048201529190602090839060249082906001600160a01b03165afa5f9281612a24575b506129f557604051631052dd2560e21b8152600490fd5b6001600160a01b03908116911603612a1257926001019190612901565b604051631052dd2560e21b8152600490fd5b612a4791935060203d602011612a4e575b612a3f81836106c6565b8101906128d9565b915f6129de565b503d612a35565b604051632938b58d60e21b815260049060208183816001600160a01b038a165afa9081156121bb575f91612a9e575b50612a8f57506129a9565b604051636315bfbb60e01b8152fd5b612ac0915060203d602011612ac6575b612ab881836106c6565b8101906128b9565b5f612a84565b503d612aae565b60405190612ada82610690565b5f8252565b15612ae657565b60405162461bcd60e51b815260206004820152602c60248201527f46756e6374696f6e206d7573742062652063616c6c6564207468726f7567682060448201526b19195b1959d85d1958d85b1b60a21b6064820152608490fd5b15612b4757565b60405162461bcd60e51b815260206004820152602c60248201527f46756e6374696f6e206d7573742062652063616c6c6564207468726f7567682060448201526b6163746976652070726f787960a01b6064820152608490fd5b6040519060a082018281106001600160401b03821117610670576040526080808352366020840137565b90612bd582610a60565b612be260405191826106c6565b8281528092612bf3601f1991610a60565b0190602036910137565b90612c0782611f80565b612c1460405191826106c6565b8281528092612c25601f1991611f80565b01905f5b828110612c3557505050565b806060602080938501015201612c29565b91908110156128725760051b81013590607e19813603018212156103cd570190565b903590601e19813603018212156103cd57018035906001600160401b0382116103cd576020019181360383136103cd57565b3561091381610c7d565b80518210156128725760209160051b010190565b90612cc890612cce933691610a7b565b50613d89565b612cd6575f90565b630291f19360e51b90565b15612ce857565b60405162461bcd60e51b815260206004820152602e60248201527f496e697469616c697a61626c653a20636f6e747261637420697320616c72656160448201526d191e481a5b9a5d1a585b1a5e995960921b6064820152608490fd5b903590601e19813603018212156103cd57018035906001600160401b0382116103cd57602001918160051b360383136103cd57565b601f8111612d85575050565b60055f525f80516020615f52833981519152906020601f840160051c83019310612dc9575b601f0160051c01905b818110612dbe575050565b5f8155600101612db3565b9091508190612daa565b601f8111612ddf575050565b60065f525f80516020615fb2833981519152906020601f840160051c83019310612e23575b601f0160051c01905b818110612e18575050565b5f8155600101612e0d565b9091508190612e04565b601f8111612e39575050565b60075f527fa66cc928b5edb82af9bd49922954155ab7b0942694bea4ce44661d9a8736c688906020601f840160051c83019310612e90575b601f0160051c01905b818110612e85575050565b5f8155600101612e7a565b9091508190612e71565b601f8111612ea6575050565b60085f525f80516020615f92833981519152906020601f840160051c83019310612eea575b601f0160051c01905b818110612edf575050565b5f8155600101612ed4565b9091508190612ecb565b91906001600160401b03811161067057612f1381611ab9600554610611565b5f601f8211600114612f51578190612f4193945f92612f46575b50508160011b915f199060031b1c19161790565b600555565b013590505f80612f2d565b60055f52601f198216935f80516020615f52833981519152915f5b868110612fa35750836001959610612f8a575b505050811b01600555565b01355f19600384901b60f8161c191690555f8080612f7f565b90926020600181928686013581550194019101612f6c565b91906001600160401b03811161067057612fda816122ba600654610611565b5f601f821160011461300c57819061300793945f92612f465750508160011b915f199060031b1c19161790565b600655565b60065f52601f198216935f80516020615fb2833981519152915f5b86811061305e5750836001959610613045575b505050811b01600655565b01355f19600384901b60f8161c191690555f808061303a565b90926020600181928686013581550194019101613027565b91906001600160401b0381116106705761309a81613095600754610611565b612e2d565b5f601f82116001146130cc5781906130c793945f92612f465750508160011b915f199060031b1c19161790565b600755565b60075f52601f198216937fa66cc928b5edb82af9bd49922954155ab7b0942694bea4ce44661d9a8736c688915f5b8681106131315750836001959610613118575b505050811b01600755565b01355f19600384901b60f8161c191690555f808061310d565b909260206001819286860135815501940191016130fa565b91906001600160401b0381116106705761316d81613168600854610611565b612e9a565b5f601f821160011461319f57819061319a93945f92612f465750508160011b915f199060031b1c19161790565b600855565b60085f52601f198216935f80516020615f92833981519152915f5b8681106131f157508360019596106131d8575b505050811b01600855565b01355f19600384901b60f8161c191690555f80806131cd565b909260206001819286860135815501940191016131ba565b9060e0820191603261321b8483612d44565b90501161342d57610100810160146132338284612d44565b90501161341b5761326f61324683612881565b6004805462010000600160b01b03191660109290921b62010000600160b01b0316919091179055565b61328561327f6020840184612c68565b90612ef4565b61329b6132956040840184612c68565b90612fbb565b6132b16132ab6060840184612c68565b90613076565b6132c76132c16080840184612c68565b90613149565b6132e86132d660c08401612877565b60ff8019600c54169115151617600c55565b6132f0614def565b6001600160a01b0381165f908152600b6020526040902061331090611ecf565b5f5b61331c8685612d44565b9050811015613364578061335e611ecf61334561051760019561333f8c8b612d44565b90612862565b6001600160a01b03165f908152600a6020526040902090565b01613312565b50929093505f5b6133758584612d44565b90508110156133b757806133b1611ecf61339861051760019561333f8b8a612d44565b6001600160a01b03165f908152600b6020526040902090565b0161336b565b50916133c1613ffa565b6133cc575b50509050565b6133dd906133d8614129565b6143df565b5f5b6133e98483612d44565b905081101561340f57806134096133d861051760019461333f8988612d44565b016133df565b50509050805f806133c6565b604051636055dca160e01b8152600490fd5b604051636bd3434560e11b8152600490fd5b908160209103126103cd575190565b9060209081835280518284015201519060408082015260018060a01b0382511660608201526001600160401b0360208301511660808201526040820151151560a0820152606082015160c082015261010060a06134bb608085015160c060e08601526101208501906108dd565b93015191015290565b919495909295600d549485156135e6576134df6111b8613ffa565b6135d4575f9761350b9761358f966134f696614460565b91604051613519816020968796878301610902565b03601f1981018352826106c6565b613521610a34565b308152918685840152866040840152606083015260808201528460a0820152613548614752565b90613551610a53565b918252838201526135726135666135666148bc565b6001600160a01b031690565b9060405195868094819363f17325e760e01b83526004830161344e565b03925af19182915f936135b5575b5050610913576040516317c3402f60e01b8152600490fd5b6135cc929350803d10610f3857610f2981836106c6565b905f8061359d565b6040516384352a0160e01b8152600490fd5b6040516304f102a360e01b8152600490fd5b35610913816103bb565b9091939294600d549384156135e65761361c6111b8613ffa565b6135d4575f9661350b96613633956134f695614a43565b03925af19182915f93613659575b50506109135760405163e80dd52b60e01b8152600490fd5b613670929350803d10610f3857610f2981836106c6565b905f80613641565b61368061381f565b63bc197c8160e01b90565b634e487b7160e01b5f52601160045260245ffd5b906301e1338082018092116136b057565b61368b565b90620afa6c82018092116136b057565b90600282018092116136b057565b90600182018092116136b057565b90600382018092116136b057565b60300190816030116136b057565b919082018092116136b057565b90815f8237015f815290565b908092918237015f815290565b3d1561374d573d9061373482610a60565b9161374260405193846106c6565b82523d5f602084013e565b606090565b60405190608082018281106001600160401b038211176106705760405260608252602082016060604d82303c6060838051810103126103cd575190606060408401519361379e856109e3565b015191926001600160a01b03169190565b5f54421061380d5760035460806138056137c7615e66565b92908360405194859260208401978852604080850152816060850152848401375f838284010152601f801991011681010360608101845201826106c6565b519020600355565b604051636315bfbb60e01b8152600490fd5b61386861384c6138336104a061049a613752565b6001600160a01b03165f90815260016020526040902090565b5f80356001600160e01b03191681526020919091526040902090565b546001600160a01b03811661387a5750565b5f809161388630614920565b90826040516138ca60488260208101956001600160601b0319809160601b16875236866034840137368201903360601b1660348201520360288101845201826106c6565b51925af16127ed613723565b90604010156128725760400190565b906020116103cd5790602090565b906040116103cd5760200190602090565b90929192836020116103cd5783116103cd5760200191601f190190565b909392938483116103cd5784116103cd578101920390565b359060208110613947575090565b5f199060200360031b1b1690565b6005111561395f57565b634e487b7160e01b5f52602160045260245ffd5b909160ff61399b61399561398784876138d6565b356001600160f81b03191690565b60f81c90565b16156139d4576139b6926139b0913691610a7b565b90614dbe565b6139bf81613955565b6139cf5761091390612cc8612acd565b505f90565b906139ee6135666135666139e885876138e5565b90613939565b916139f7612acd565b50613a046111b884613d89565b80613a3b575b613a335761129e818581613a276139e8613a2d966109139a6138f3565b91613921565b91614d43565b505050505f90565b506001600160a01b038316301415613a0a565b91906055959360e2956040519560b787015260018060a01b0316609786015260778501528160578501526e5af43d82803e903d91602b57fd5bf360378501526028840152733d60ad80600a3d3981f3363d3d373d3d3d363d73601484015260b7835260d7830190816040528351602085012061011785015260f7840152520160ff81532090565b6001600160a01b038181167f000000000000000000000000000000000000000000000000000000000000000082168114613c5357613b11613752565b90468303613b94575b613b2392614b5a565b8281168214613b8b57613b3590614c48565b91821614613b84576001600160a01b03165f908152600260205260409020613b7791613b70919060018060a01b03165f5260205260405f2090565b5460ff1690565b613b7f575f90565b600190565b5050600190565b50505050600190565b613bc5613b9f614def565b6001600160a01b0390811673111100000000000000000000000000000000111019011690565b85163014613c29576040516333932be560e11b81526001600160a01b03871660048201526020816024817f00000000000000000000000000000000000000000000000000000000000000008a165afa9081156121bb575f91613c34575b5015613b1a575b505050505050600190565b613c4d915060203d602011612ac657612ab881836106c6565b5f613c22565b505050600190565b909280926014946001600160601b03199060601b1683528483013701015f815290565b9092919360ff16908115613d705760018214613d1f575060028114613d0257600314613cb657604051631cc6a69960e11b8152600490fd5b8261091392613cd98380613cd36139e8613ce19761350b9a6138e5565b94613904565b929091613dfd565b604051928391602083016014916001600160601b03199060601b1681520190565b5061091391613d1961350b94613ce1933691610a7b565b90613fe0565b6109139493929150613d5d90613d4f613d3730614920565b93843b15613d62575b60405196879360208501613c5b565b03601f1981018552846106c6565b614c20565b613d6b3061496f565b613d40565b9291613d83915093610913943691610a7b565b91614c20565b613d9461049a613752565b6001600160a01b03828116918082168314613b8b57613db290614c48565b16809114613b84575f9081526002602090815260408083206001600160a01b0390941683529290522060ff90541690565b6001600160a01b03613df430614920565b1633036105bb57565b91613e0a91933691610a7b565b9060208251920190f5906001600160a01b03821615613e2557565b60405163a28c247360e01b8152600490fd5b604051631506fd4d60e01b81526001600160a01b039091166004820152602081806024810103817f00000000000000000000000000000000000000000000000000000000000000006001600160a01b03165afa9081156121bb575f91613ec4575b5015613eb257613eac6111b86111b3614def565b6105bb57565b60405163340aafcd60e11b8152600490fd5b613edd915060203d602011612ac657612ab881836106c6565b5f613e98565b15613eea57565b60405162461bcd60e51b815260206004820152602960248201527f45524331393637557067726164653a20756e737570706f727465642070726f786044820152681a58589b195555525160ba1b6064820152608490fd5b60809060208152602e60208201527f45524331393637557067726164653a206e657720696d706c656d656e7461746960408201526d6f6e206973206e6f74205555505360901b60608201520190565b613fd3917f19457468657265756d205369676e6564204d6573736167653a0a3332000000005f52601c52613fcd603c5f2091610140810190612c68565b91613973565b613fdc57600190565b5f90565b60208251920190f0906001600160a01b03821615613e2557565b600a46148015614073575b8015614068575b801561405c575b8015614050575b8015614045575b801561403a575b80156140315790565b50610530461490565b506105314614614028565b5061a4ec4614614021565b5062014a34461461401a565b5062aa36a74614614013565b5061a4b1461461400c565b5062aa37dc4614614005565b60208082526005545f9261409282610611565b9182602083015260406001916001811690815f1461410657506001146140bb575b505050505090565b60055f908152949695509192915f80516020615f528339815191525b8386106140f35750505050604092935001015f808080806140b3565b80548587018301529487019482016140d7565b9395505050506040935060ff191683830152151560051b01015f808080806140b3565b6141346135666148bc565b9060409081519260208461414f828201906001602083019252565b0391614163601f19938481018852876106c6565b61416b610a34565b308152955f878401526001868801525f606088015260808701525f60a0870152614193614fdb565b9561419c610a53565b9687528287015260018060a01b031690845163f17325e760e01b908181528281806141cb60049b8c830161344e565b03815f885af15f91816143c0575b506141ee5786516317c3402f60e01b81528890fd5b936141f885600d55565b61428683614204614def565b89516142278161421b858201906001602083019252565b038681018352826106c6565b614241614232610a34565b6001600160a01b039093168352565b5f8284015260018b83015288606083015260808201525f60a0820152614265615145565b9061426e610a53565b918252828201528951809381928783528d830161344e565b03815f895af190816143a3575b506142b05787876142a35f600d55565b516317c3402f60e01b8152fd5b6143319383926142de6142d2936142c5615328565b8b51958691888301610902565b039081018552846106c6565b6142e6610a34565b308152925f8486015260018a85015287606085015260808401525f60a084015261430e614752565b92614317610a53565b938452848401525f895180978195829483528d830161344e565b03925af19182614385575b505061434d5750506142a35f600d55565b9190925051907f03d364024f6102dfc5e23f488f1e462c8e58afc717a21875496e0adc2132d1b43092806143808161407f565b0390a3565b8161439b92903d10610f3857610f2981836106c6565b505f8061433c565b6143b990853d8711610f3857610f2981836106c6565b505f614293565b6143d8919250843d8611610f3857610f2981836106c6565b905f6141d9565b600d548015614445576001600160a01b036143f86148bc565b1691823b156103cd5760405163dbf7117760e01b815260048101929092526001600160a01b03166024820152905f908290818381604481015b03925af161443c5750565b6107259061065d565b5050565b9061445c602092828151948592016108bc565b0190565b91909395929561446e613752565b949150504261447c9061555b565b95369061448892610a7b565b61449190615760565b61449c368985610a7b565b6144a590615760565b604051693d913a34ba3632911d1160b11b6020820152968792909190602a84016144ce91614449565b691116113a32bc3a111d1160b11b8152600a016144ea91614449565b6e11161139ba30b93a2230ba32911d1160891b8152600f0161450c9082614449565b6c11161132b7322230ba32911d1160991b8152600d0161452b91614449565b0395601f1996878101875261454090876106c6565b369061454b92610a7b565b61455490615760565b95369061456092610a7b565b61456990615760565b94604051958691602083016145c890603a907f222c2264656c6976657261626c6573223a5b7b226e616d65223a22576f726b2081527f45766964656e6365222c2270726f6f66223a22697066733a2f2f00000000000060208201520190565b6145d191614449565b701116113232b9b1b934b83a34b7b7111d1160791b81526011016145f491614449565b62227d5d60e81b815260030103848101865261461090866106c6565b61461946615851565b9061462390615851565b9161462d906158f4565b6040519283926020840161468b90603e907f2c226c696e6b73223a5b7b2274797065223a226f74686572222c2275726c223a81527f2268747470733a2f2f677265656e676f6f64732e6d652f67617264656e2f000060208201520190565b61469491614449565b602f60f81b81526001016146a791614449565b6705eeedee4d65e60f60c31b81526008016146c191614449565b7f222c226c6162656c223a225669657720696e20477265656e20476f6f6473227d81527f5d2c2274797065223a2270726f6a6563742d757064617465227d0000000000006020820152603a0103838101825261471d90826106c6565b6040519384926020840161473091614449565b61473991614449565b61474291614449565b03908101825261091390826106c6565b600a46146148985762aa37dc46146148745761a4b146146148505762aa36a7461461482c5762014a3446146148085761a4ec46146147e45761053146146147c05761053046036159a9577f76f38d22f88a0df52a8ff0763e1c0af912b0822e758be2e0c9cded91aef71d2290565b7f1b4365b92aa47de3f67cdfb53127518381c1e66e0d9e0f8a15bbfa725095096790565b7f9895e82115987d8e3e02b35ced92e6a0509293890333f58f50ec291b34853dac90565b7f9b06f811608d135f913c18295486693fe626f35e213a7d132be87b1f952e508c90565b7f2c270e35bfcdc4d611f0e9d3d2ab6924ec6c673505abc22a1dd07e19b67211af90565b7f16bfe4783b7a9c743c401222c56a07ecb77ed42afc84b61ff1f62f5936c0b9d790565b7fd193e75f420a69910f98fa79cacdfd9d0dcbf5933edce8f8bde9a10bd204d99690565b7f70a3f615f738fc6a4f56100692ada93d947c028b840940d97af7e7d6f0fa057790565b61a4b146146149085761a4ec46146148f05762014a3446036159a957734ca7230fb6b78875bdd1b1e4f665b7b7f189123990565b738791ac8c099314bb1d1514d76de13a1e8027595090565b736dc1d6b864e8bef815806f9e4677123496e1202690565b600b61492d6055926159bb565b602081519101206040519060408201527f97f795a08410e77dc9dbbaba3915f17c601e45642518dd578bd440d8775bfee460208201523081520160ff81532090565b614978906159bb565b8051156149ff5780516001600160a01b03917f97f795a08410e77dc9dbbaba3915f17c601e45642518dd578bd440d8775bfee491906020015ff516156149ba57565b60405162461bcd60e51b815260206004820152601960248201527f437265617465323a204661696c6564206f6e206465706c6f79000000000000006044820152606490fd5b606460405162461bcd60e51b815260206004820152602060248201527f437265617465323a2062797465636f6465206c656e677468206973207a65726f6044820152fd5b61091394614b3596614b3b614ac8614a6e614adb9897614a73614a6e614b4198614b4e9a3691610a7b565b615760565b9861129e6034604051809c693d913a34ba3632911d1160b11b6020830152614aa5815180926020602a860191016108bc565b8101691116113a32bc3a111d1160b11b602a82015203601481018d52018b6106c6565b614b116040519889926020840190614449565b7f222c2274797065223a2270726f6a6563742d6d696c6573746f6e65222c2264618152633a30911d60e11b602082015260240190565b0396614b25601f19988981018352826106c6565b604051998a976020890190614449565b90614449565b91613716565b607d60f81b815260010190565b039081018352826106c6565b4603614bc457803b15614bc4576040516331a9108f60e11b81526004810192909252602090829060249082906001600160a01b03165afa5f9181614ba3575b5061091357505f90565b614bbd91925060203d602011612a4e57612a3f81836106c6565b905f614b99565b50505f90565b600d548015614445576001600160a01b03614be36148bc565b1691823b156103cd57604051632c1a4e4360e21b815260048101929092526001600160a01b03166024820152905f90829081838160448101614431565b915f928392602083519301915af190614c37613723565b9115614c3f57565b50602081519101fd5b907f0000000000000000000000000000000000000000000000000000000000000000917f00000000000000000000000000000000000000000000000000000000000000005b614c98818584615a84565b15614d3e5760408051637e062a3560e11b815292606091908290859060049082906001600160a01b03165afa9384156121bb575f915f935f96614cee575b50505092614ce791614c9894614b5a565b9150614c8d565b92509250809450813d8311614d37575b614d0881836106c6565b810103126103cd5782614ce791614c98945190602083015192614d2a846109e3565b0151909190948193614cd6565b503d614cfe565b509150565b5f9192908291604051614d7a8161350b6020820194630b135d3f60e11b998a875260248401526040604484015260648301906108dd565b51915afa90614d87613723565b82614db0575b82614d9757505090565b614dac9192506020808251830101910161343f565b1490565b915060208251101591614d8d565b9060418151145f14614de65761047891602082015190606060408401519301515f1a90615b0c565b50505f90600290565b337f00000000000000000000000000000000000000000000000000000000000000006001600160a01b03161480614e36575b15614e325736601319013560601c90565b3390565b506014361015614e21565b90614e4b82614f4c565b6001600160a01b0382167fbc7cd75a20ee27fd9adebab32041f755214dbc6bffa90cc0225b39da2e5c2d3b5f80a2805115801590614ef3575b614e8c575050565b614ef0915f8060405193614e9f856106ab565b602785527f416464726573733a206c6f772d6c6576656c2064656c65676174652063616c6c6020860152660819985a5b195960ca1b6040860152602081519101845af4614eea613723565b91615ec0565b50565b506001614e84565b90614f0582614f4c565b6001600160a01b0382167fbc7cd75a20ee27fd9adebab32041f755214dbc6bffa90cc0225b39da2e5c2d3b5f80a2805115801590614f4557614e8c575050565b505f614e84565b803b15614f80575f80516020615f7283398151915280546001600160a01b0319166001600160a01b03909216919091179055565b60405162461bcd60e51b815260206004820152602d60248201527f455243313936373a206e657720696d706c656d656e746174696f6e206973206e60448201526c1bdd08184818dbdb9d1c9858dd609a1b6064820152608490fd5b600a46146151215762aa37dc46146150fd5761a4b146146150d95762aa36a746146150b55762014a3446146150915761a4ec461461506d5761053146146150495761053046036159a9577f9de9294fbb62391b393332a33bfc28b4e0e728dd094aee4bda3955df62f8401a90565b7ff6b89107f8096220051240b89a48abb66e0a23e529c914953b80f5a2bc5ea44c90565b7ff3f753b41e04d1052b5a5ec7624d1dfdb6c2da288a985120e477ddbcac07102290565b7f5ddd6b7a11406771308431ca9bd146cc717848b74b52993a532dc1aad0ccc83f90565b7fec77990a252b54b17673955c774b9712766de5eecb22ca5aa2c440e0e93257fb90565b7fac2a06e955a7e25e6729efe1a6532237e3435b21ccd3dc827ae3c94e624d25b390565b7ff9bbd118dd100459a7d093403af21c6e7f847fd7f331b7a4e6bfb94a1366bd7690565b7f5b873b6e7a16207b526dde366e8164e95bcda2f009272306519667c5e94d219190565b600a461461528b5762aa37dc46146152675761a4b146146152435762aa36a7461461521f5762014a3446146151fb5761a4ec46146151d75761053146146151b35761053046036159a9577f222fa508c0cdb5954905dd30611a940f6402da2b3c49ce0c88d33e22f72121e790565b7fb7278b94cea2b9f1a8fdd1c4bb52ed66906516a0ff9d59d0f80daffcf147ea5d90565b7fb4186a2401f40a4c78768941ef9140e1fbe5fe595053a65d44f31d6df180b71290565b7f857398d86e2d31bec5af882b950ee7b00d1fefefba2432737ab28b68ee041eb890565b7fdd87b3500457931252424f4439365534ba72a367503a8805ff3482353fb9030190565b7f5f430aec9d04f0dcb3729775c5dfe10752e436469a7607f8c64ae44ef996e47790565b7f611f9655188f372e27dce116a803fa9081ca3e2907986368d54fcad538ca385390565b7f7fbb8a65924d8ad2ae12356e04b1418043e8361ba3b1b6c917de2e23df3ec81c90565b6008545f92916152be82610611565b9160019081811690811561531557506001146152d957505050565b909192935060085f525f80516020615f92833981519152905f915b848310615302575050500190565b81816020925485870152019201916152f4565b60ff191683525050811515909102019150565b615333600854610611565b156154ab576040517568747470733a2f2f7733732e6c696e6b2f697066732f60501b602082015261536a8161350b603682016152af565b615372610833565b61537b90615760565b6153836107aa565b61538c90615760565b916153956106e7565b61539e90615760565b906153a890615760565b6153b0610833565b6153b990615ba5565b6153c290615760565b604051693d913a34ba3632911d1160b11b6020820152948594919391602a86016153eb91614449565b701116113232b9b1b934b83a34b7b7111d1160791b815260110161540e91614449565b751116113637b1b0ba34b7b727b324b6b830b1ba111d1160511b815260160161543691614449565b6d11161134b6b0b3b2aaa926111d1160911b8152600e0161545691614449565b6911161139b63ab3911d1160b11b8152600a0161547291614449565b7f222c2274797065223a2270726f6a6563742d64657461696c73227d00000000008152601b015b03601f198101825261091390826106c6565b6154b3612acd565b61536a565b6008198101919082116136b057565b5f198101919082116136b057565b919082039182116136b057565b9062023ab1918281029281840414901517156136b057565b90610190918281029281840414901517156136b057565b9061016d91808302928304036136b057565b90816005029160058304036136b057565b90816099029160998304036136b057565b908160011b91808304600214901517156136b057565b620151809061556b8282046136b5565b6155f361558762023ab1830492615581846154e2565b906154d5565b6155816155d26155cc6155c66155be6155b26155a76105b48804886154d5565b618eac8804906136fd565b62023ab08704906154d5565b61016d900490565b956154fa565b856136fd565b9360646155eb6155e183615511565b8360021c906136fd565b9104906154d5565b9261563161562c61561561560e61560988615523565b6136c5565b6099900490565b9561558161562561560989615534565b6005900490565b6136d3565b93600a81101561573257615644906136e1565b925b6002841115615722575b06610e109161565e90615d90565b9261566890615dff565b9361567290615dff565b9161567e818304615dff565b908206603c900461568e90615dff565b91603c900661569c90615dff565b92604051958695602087016156b091614449565b602d60f81b81526001016156c391614449565b602d60f81b81526001016156d691614449565b601560fa1b81526001016156e991614449565b601d60f91b81526001016156fc91614449565b601d60f91b815260010161570f91614449565b64171818182d60d91b8152600501615499565b9161572c906136d3565b91615650565b61573b906154b8565b92615646565b908151811015612872570160200190565b5f1981146136b05760010190565b905f805b83518110156157bf57601160f91b61579d6157906157828488615741565b516001600160f81b03191690565b6001600160f81b03191690565b146157ab575b600101615764565b906157b7600191615752565b9190506157a3565b508015614ef0576157d46157d99184516136fd565b612bcb565b5f925f5b815181101561584a57600190601160f91b6157fe6157906157828487615741565b1461582f575b6158116157828285615741565b9561582861581e82615752565b975f1a9186615741565b53016157dd565b605c61584461583d88615752565b9786615741565b53615804565b5090925050565b80156158d657805f81805b6158be575061586a81612bcb565b925b61587557505090565b61587e906154c7565b90600a906158a96158996158938484066136ef565b60ff1690565b60f81b6001600160f81b03191690565b5f1a6158b58486615741565b5304908161586c565b91506158cb600a91615752565b91048083929161585c565b506040516158e381610675565b60018152600360fc1b602082015290565b60405190615901826106ab565b6040825260209060403660208501376040519061591d82610675565b601082526f181899199a1a9b1b9c1cb0b131b232b360811b60208301525f5b83811061594a575050505090565b80615989615782846001941a600f9061596b615782838360041c168a615741565b61598161597787615545565b915f1a918c615741565b531686615741565b6159a261599861562c84615545565b915f1a9188615741565b530161593c565b604051633cb9b43760e01b8152600490fd5b6109136034615a5392604051906159d182610675565b600e825260208201906d604380600d600039806000f3fe7360901b8252615a756040516159fd816106ab565b602e815260208101937f3314601d573d3dfd5b363d3d373d3d6014360360143d5160601c5af43d60008085526d3e80603e573d6000fd5b3d6000f360901b604083015260405198899651809260208901906108bc565b8501926001600160601b03199060601b166020840152518093868401906108bc565b010360148101845201826106c6565b9160ad833b03615b05576014600a600c853c5f5190813b15613a33576001600160a01b0392831682841603613a3357615abb612ba1565b60208101916080602d84883c6080828051810103126103cd57615aff936135669351604084015191876080606087015196615af5886109e3565b0151951693613a4e565b91161490565b5050505f90565b7f7fffffffffffffffffffffffffffffff5d576e7357a4501ddfe92f46681b20a08411615b7c576020935f9360ff60809460405194855216868401526040830152606082015282805260015afa156121bb575f516001600160a01b03811615615b7457905f90565b505f90600190565b505050505f90600390565b60ff60209116019060ff82116136b057565b80156136b0575f190190565b90615bb08251612bcb565b915f905f5b8151811015615d0a57615bcb6157828284615741565b6001600160f81b0319818116604160f81b81101580615cfc575b15615c1d57505090615bfe61589960019360f81c615b87565b93615c15615c0b82615752565b955f1a9188615741565b535b01615bb5565b919491606160f81b81101580615cee575b15615c4c5750509081615c46615c0b60019492615752565b53615c17565b600360fc1b81101580615ce0575b15615c725750509081615c46615c0b60019492615752565b91945060019291600160fd1b14615c8a575b50615c17565b8415159081615cbb575b50615ca0575b5f615c84565b602d615cb5615cae86615752565b9588615741565b53615c9a565b602d60f81b9150615cd7615782615cd1886154c7565b8a615741565b1614155f615c94565b50603960f81b811115615c5a565b50603d60f91b811115615c2e565b50602d60f91b811115615be5565b505080151580615d65575b615d57575b615d2381612bcb565b905f5b818110615d34575090925050565b80615d4461578260019388615741565b5f1a615d508286615741565b5301615d26565b615d6090615b99565b615d1a565b50602d60f81b6001600160f81b0319615d89615782615d83856154c7565b87615741565b1614615d15565b60405190615d9d82610675565b6004825260203681840137600490815b615db657505090565b600a60309181810683018093116136b0575f1984018481116136b057615df89360f81b6001600160f81b0319165f1a90615df09087615741565b530491615b99565b9081615dad565b60405190615e0c82610675565b6002825260203681840137600290815b615e2557505090565b600a60309181810683018093116136b0575f1984018481116136b057615e5f9360f81b6001600160f81b0319165f1a90615df09087615741565b9081615e1c565b337f00000000000000000000000000000000000000000000000000000000000000006001600160a01b03161480615eb5575b15615eaf576013193601903682116136b0575f9190565b5f903690565b506014361015615e98565b91929015615f225750815115615ed4575090565b3b15615edd5790565b60405162461bcd60e51b815260206004820152601d60248201527f416464726573733a2063616c6c20746f206e6f6e2d636f6e74726163740000006044820152606490fd5b825190915015615f355750805190602001fd5b60405162461bcd60e51b8152908190610ef7906004830161090256fe036b6384b5eca791c62761152d0c79bb0604c104a5fb6f4eb0703f3154bb3db0360894a13ba1a3210667c828492db98dca3e2076cc3735a920a3ca505d382bbcf3f7a9fe364faab93b216da50a3214154f22a0a2b415b23a84c8169e8b636ee3f652222313e28459528d920b65115c16c04f3efc82aaedc97be59f3f377c0d3fa164736f6c6343000819000a","linkReferences":{}},"methodIdentifiers":{"ASSESSMENT_RESOLVER()":"3a208f95","WORK_APPROVAL_RESOLVER()":"bcc5cf88","addGardenOperator(address)":"eed9df74","addGardener(address)":"eaff6dc9","bannerImage()":"94def29d","communityToken()":"29aa1617","createProjectImpact(string,string,string,bytes32)":"5bcf5dce","createProjectMilestone(string,string,string)":"81eec6bb","description()":"7284e416","entryPoint()":"b0d691fe","erc6551Registry()":"056d5afe","execute(address,uint256,bytes,uint8)":"51945447","executeBatch((address,uint256,bytes,uint8)[])":"43629a73","executeNested(address,uint256,bytes,uint8,(bytes32,address,uint256)[])":"1fb1ecf0","extcall(address,uint256,bytes)":"b709467c","extcreate(uint256,bytes)":"45a24e3e","extcreate2(uint256,bytes32,bytes)":"34715fb1","extsload(bytes32)":"1e2eaeaf","gapProjectUID()":"f7fc57b0","gardenOperators(address)":"7597bc7c","gardeners(address)":"1f6e45e3","getGAPProjectUID()":"f89b9b93","getNonce()":"d087d288","initialize((address,string,string,string,string,string,bool,address[],address[]))":"59ec3801","isGardener(address)":"0959f6a8","isLocked()":"a4e2d634","isOperator(address)":"6d70f7ae","isOwner(address)":"2f54bf6e","isTrustedForwarder(address)":"572b6c05","isValidSignature(bytes32,bytes)":"1626ba7e","isValidSigner(address,bytes)":"523e3260","joinGarden()":"b10006a6","location()":"516f279e","lock(uint256)":"dd467064","lockedUntil()":"ce0617ec","metadata()":"392f37e9","name()":"06fdde03","onERC1155BatchReceived(address,address,uint256[],uint256[],bytes)":"bc197c81","onERC1155Received(address,address,uint256,uint256,bytes)":"f23a6e61","onERC721Received(address,address,uint256,bytes)":"150b7a02","openJoining()":"291d0548","overrides(address,bytes4)":"ee9c6054","owner()":"8da5cb5b","permissions(address,address)":"1f9838b5","proxiableUUID()":"52d1902d","removeGardenOperator(address)":"adbce85e","removeGardener(address)":"eeb97057","setOpenJoining(bool)":"98b7a25a","setOverrides(bytes4[],address[])":"7a8f7356","setPermissions(address[],bool[])":"039721b1","state()":"c19d93fb","supportsInterface(bytes4)":"01ffc9a7","token()":"fc0c546a","updateDescription(string)":"e735b48a","updateName(string)":"84da92a7","upgradeTo(address)":"3659cfe6","upgradeToAndCall(address,bytes)":"4f1ef286","validateUserOp((address,uint256,bytes,bytes,uint256,uint256,uint256,uint256,uint256,bytes,bytes),bytes32,uint256)":"3a871cdd"},"id":117}