{"abi":[{"type":"constructor","inputs":[{"name":"erc4337EntryPoint","type":"address","internalType":"address"},{"name":"multicallForwarder","type":"address","internalType":"address"},{"name":"erc6551Registry","type":"address","internalType":"address"},{"name":"guardian","type":"address","internalType":"address"},{"name":"workApprovalResolver","type":"address","internalType":"address"},{"name":"assessmentResolver","type":"address","internalType":"address"}],"stateMutability":"nonpayable"},{"type":"fallback","stateMutability":"payable"},{"type":"receive","stateMutability":"payable"},{"type":"function","name":"ASSESSMENT_RESOLVER","inputs":[],"outputs":[{"name":"","type":"address","internalType":"address"}],"stateMutability":"view"},{"type":"function","name":"WORK_APPROVAL_RESOLVER","inputs":[],"outputs":[{"name":"","type":"address","internalType":"address"}],"stateMutability":"view"},{"type":"function","name":"addGardenOperator","inputs":[{"name":"operator","type":"address","internalType":"address"}],"outputs":[],"stateMutability":"nonpayable"},{"type":"function","name":"addGardener","inputs":[{"name":"gardener","type":"address","internalType":"address"}],"outputs":[],"stateMutability":"nonpayable"},{"type":"function","name":"bannerImage","inputs":[],"outputs":[{"name":"","type":"string","internalType":"string"}],"stateMutability":"view"},{"type":"function","name":"communityToken","inputs":[],"outputs":[{"name":"","type":"address","internalType":"address"}],"stateMutability":"view"},{"type":"function","name":"createProjectImpact","inputs":[{"name":"workTitle","type":"string","internalType":"string"},{"name":"impactDescription","type":"string","internalType":"string"},{"name":"proofIPFS","type":"string","internalType":"string"},{"name":"workUID","type":"bytes32","internalType":"bytes32"}],"outputs":[{"name":"","type":"bytes32","internalType":"bytes32"}],"stateMutability":"nonpayable"},{"type":"function","name":"createProjectMilestone","inputs":[{"name":"milestoneTitle","type":"string","internalType":"string"},{"name":"milestoneDescription","type":"string","internalType":"string"},{"name":"milestoneMeta","type":"string","internalType":"string"}],"outputs":[{"name":"","type":"bytes32","internalType":"bytes32"}],"stateMutability":"nonpayable"},{"type":"function","name":"description","inputs":[],"outputs":[{"name":"","type":"string","internalType":"string"}],"stateMutability":"view"},{"type":"function","name":"entryPoint","inputs":[],"outputs":[{"name":"","type":"address","internalType":"contract IEntryPoint"}],"stateMutability":"view"},{"type":"function","name":"erc6551Registry","inputs":[],"outputs":[{"name":"","type":"address","internalType":"address"}],"stateMutability":"view"},{"type":"function","name":"execute","inputs":[{"name":"to","type":"address","internalType":"address"},{"name":"value","type":"uint256","internalType":"uint256"},{"name":"data","type":"bytes","internalType":"bytes"},{"name":"operation","type":"uint8","internalType":"uint8"}],"outputs":[{"name":"","type":"bytes","internalType":"bytes"}],"stateMutability":"payable"},{"type":"function","name":"executeBatch","inputs":[{"name":"operations","type":"tuple[]","internalType":"struct BatchExecutor.Operation[]","components":[{"name":"to","type":"address","internalType":"address"},{"name":"value","type":"uint256","internalType":"uint256"},{"name":"data","type":"bytes","internalType":"bytes"},{"name":"operation","type":"uint8","internalType":"uint8"}]}],"outputs":[{"name":"","type":"bytes[]","internalType":"bytes[]"}],"stateMutability":"payable"},{"type":"function","name":"executeNested","inputs":[{"name":"to","type":"address","internalType":"address"},{"name":"value","type":"uint256","internalType":"uint256"},{"name":"data","type":"bytes","internalType":"bytes"},{"name":"operation","type":"uint8","internalType":"uint8"},{"name":"proof","type":"tuple[]","internalType":"struct NestedAccountExecutor.ERC6551AccountInfo[]","components":[{"name":"salt","type":"bytes32","internalType":"bytes32"},{"name":"tokenContract","type":"address","internalType":"address"},{"name":"tokenId","type":"uint256","internalType":"uint256"}]}],"outputs":[{"name":"","type":"bytes","internalType":"bytes"}],"stateMutability":"payable"},{"type":"function","name":"extcall","inputs":[{"name":"to","type":"address","internalType":"address"},{"name":"value","type":"uint256","internalType":"uint256"},{"name":"data","type":"bytes","internalType":"bytes"}],"outputs":[{"name":"result","type":"bytes","internalType":"bytes"}],"stateMutability":"nonpayable"},{"type":"function","name":"extcreate","inputs":[{"name":"value","type":"uint256","internalType":"uint256"},{"name":"bytecode","type":"bytes","internalType":"bytes"}],"outputs":[{"name":"","type":"address","internalType":"address"}],"stateMutability":"nonpayable"},{"type":"function","name":"extcreate2","inputs":[{"name":"value","type":"uint256","internalType":"uint256"},{"name":"salt","type":"bytes32","internalType":"bytes32"},{"name":"bytecode","type":"bytes","internalType":"bytes"}],"outputs":[{"name":"","type":"address","internalType":"address"}],"stateMutability":"nonpayable"},{"type":"function","name":"extsload","inputs":[{"name":"slot","type":"bytes32","internalType":"bytes32"}],"outputs":[{"name":"value","type":"bytes32","internalType":"bytes32"}],"stateMutability":"view"},{"type":"function","name":"gapProjectUID","inputs":[],"outputs":[{"name":"","type":"bytes32","internalType":"bytes32"}],"stateMutability":"view"},{"type":"function","name":"gardenOperators","inputs":[{"name":"operator","type":"address","internalType":"address"}],"outputs":[{"name":"isOperator","type":"bool","internalType":"bool"}],"stateMutability":"view"},{"type":"function","name":"gardeners","inputs":[{"name":"gardener","type":"address","internalType":"address"}],"outputs":[{"name":"isGardener","type":"bool","internalType":"bool"}],"stateMutability":"view"},{"type":"function","name":"getGAPProjectUID","inputs":[],"outputs":[{"name":"","type":"bytes32","internalType":"bytes32"}],"stateMutability":"view"},{"type":"function","name":"getNonce","inputs":[],"outputs":[{"name":"","type":"uint256","internalType":"uint256"}],"stateMutability":"view"},{"type":"function","name":"initialize","inputs":[{"name":"params","type":"tuple","internalType":"struct GardenAccount.InitParams","components":[{"name":"communityToken","type":"address","internalType":"address"},{"name":"name","type":"string","internalType":"string"},{"name":"description","type":"string","internalType":"string"},{"name":"location","type":"string","internalType":"string"},{"name":"bannerImage","type":"string","internalType":"string"},{"name":"metadata","type":"string","internalType":"string"},{"name":"openJoining","type":"bool","internalType":"bool"},{"name":"gardeners","type":"address[]","internalType":"address[]"},{"name":"gardenOperators","type":"address[]","internalType":"address[]"}]}],"outputs":[],"stateMutability":"nonpayable"},{"type":"function","name":"isLocked","inputs":[],"outputs":[{"name":"","type":"bool","internalType":"bool"}],"stateMutability":"view"},{"type":"function","name":"isTrustedForwarder","inputs":[{"name":"forwarder","type":"address","internalType":"address"}],"outputs":[{"name":"","type":"bool","internalType":"bool"}],"stateMutability":"view"},{"type":"function","name":"isValidSignature","inputs":[{"name":"hash","type":"bytes32","internalType":"bytes32"},{"name":"signature","type":"bytes","internalType":"bytes"}],"outputs":[{"name":"magicValue","type":"bytes4","internalType":"bytes4"}],"stateMutability":"view"},{"type":"function","name":"isValidSigner","inputs":[{"name":"signer","type":"address","internalType":"address"},{"name":"data","type":"bytes","internalType":"bytes"}],"outputs":[{"name":"magicValue","type":"bytes4","internalType":"bytes4"}],"stateMutability":"view"},{"type":"function","name":"joinGarden","inputs":[],"outputs":[],"stateMutability":"nonpayable"},{"type":"function","name":"location","inputs":[],"outputs":[{"name":"","type":"string","internalType":"string"}],"stateMutability":"view"},{"type":"function","name":"lock","inputs":[{"name":"_lockedUntil","type":"uint256","internalType":"uint256"}],"outputs":[],"stateMutability":"nonpayable"},{"type":"function","name":"lockedUntil","inputs":[],"outputs":[{"name":"","type":"uint256","internalType":"uint256"}],"stateMutability":"view"},{"type":"function","name":"metadata","inputs":[],"outputs":[{"name":"","type":"string","internalType":"string"}],"stateMutability":"view"},{"type":"function","name":"name","inputs":[],"outputs":[{"name":"","type":"string","internalType":"string"}],"stateMutability":"view"},{"type":"function","name":"onERC1155BatchReceived","inputs":[{"name":"","type":"address","internalType":"address"},{"name":"","type":"address","internalType":"address"},{"name":"","type":"uint256[]","internalType":"uint256[]"},{"name":"","type":"uint256[]","internalType":"uint256[]"},{"name":"","type":"bytes","internalType":"bytes"}],"outputs":[{"name":"","type":"bytes4","internalType":"bytes4"}],"stateMutability":"nonpayable"},{"type":"function","name":"onERC1155Received","inputs":[{"name":"","type":"address","internalType":"address"},{"name":"","type":"address","internalType":"address"},{"name":"","type":"uint256","internalType":"uint256"},{"name":"","type":"uint256","internalType":"uint256"},{"name":"","type":"bytes","internalType":"bytes"}],"outputs":[{"name":"","type":"bytes4","internalType":"bytes4"}],"stateMutability":"nonpayable"},{"type":"function","name":"onERC721Received","inputs":[{"name":"","type":"address","internalType":"address"},{"name":"","type":"address","internalType":"address"},{"name":"tokenId","type":"uint256","internalType":"uint256"},{"name":"","type":"bytes","internalType":"bytes"}],"outputs":[{"name":"","type":"bytes4","internalType":"bytes4"}],"stateMutability":"nonpayable"},{"type":"function","name":"openJoining","inputs":[],"outputs":[{"name":"","type":"bool","internalType":"bool"}],"stateMutability":"view"},{"type":"function","name":"overrides","inputs":[{"name":"","type":"address","internalType":"address"},{"name":"","type":"bytes4","internalType":"bytes4"}],"outputs":[{"name":"","type":"address","internalType":"address"}],"stateMutability":"view"},{"type":"function","name":"owner","inputs":[],"outputs":[{"name":"","type":"address","internalType":"address"}],"stateMutability":"view"},{"type":"function","name":"permissions","inputs":[{"name":"","type":"address","internalType":"address"},{"name":"","type":"address","internalType":"address"}],"outputs":[{"name":"","type":"bool","internalType":"bool"}],"stateMutability":"view"},{"type":"function","name":"proxiableUUID","inputs":[],"outputs":[{"name":"","type":"bytes32","internalType":"bytes32"}],"stateMutability":"view"},{"type":"function","name":"removeGardenOperator","inputs":[{"name":"operator","type":"address","internalType":"address"}],"outputs":[],"stateMutability":"nonpayable"},{"type":"function","name":"removeGardener","inputs":[{"name":"gardener","type":"address","internalType":"address"}],"outputs":[],"stateMutability":"nonpayable"},{"type":"function","name":"setOpenJoining","inputs":[{"name":"_openJoining","type":"bool","internalType":"bool"}],"outputs":[],"stateMutability":"nonpayable"},{"type":"function","name":"setOverrides","inputs":[{"name":"selectors","type":"bytes4[]","internalType":"bytes4[]"},{"name":"implementations","type":"address[]","internalType":"address[]"}],"outputs":[],"stateMutability":"nonpayable"},{"type":"function","name":"setPermissions","inputs":[{"name":"callers","type":"address[]","internalType":"address[]"},{"name":"_permissions","type":"bool[]","internalType":"bool[]"}],"outputs":[],"stateMutability":"nonpayable"},{"type":"function","name":"state","inputs":[],"outputs":[{"name":"","type":"uint256","internalType":"uint256"}],"stateMutability":"view"},{"type":"function","name":"supportsInterface","inputs":[{"name":"interfaceId","type":"bytes4","internalType":"bytes4"}],"outputs":[{"name":"","type":"bool","internalType":"bool"}],"stateMutability":"view"},{"type":"function","name":"token","inputs":[],"outputs":[{"name":"chainId","type":"uint256","internalType":"uint256"},{"name":"tokenContract","type":"address","internalType":"address"},{"name":"tokenId","type":"uint256","internalType":"uint256"}],"stateMutability":"view"},{"type":"function","name":"updateDescription","inputs":[{"name":"_description","type":"string","internalType":"string"}],"outputs":[],"stateMutability":"nonpayable"},{"type":"function","name":"updateName","inputs":[{"name":"_name","type":"string","internalType":"string"}],"outputs":[],"stateMutability":"nonpayable"},{"type":"function","name":"upgradeTo","inputs":[{"name":"newImplementation","type":"address","internalType":"address"}],"outputs":[],"stateMutability":"nonpayable"},{"type":"function","name":"upgradeToAndCall","inputs":[{"name":"newImplementation","type":"address","internalType":"address"},{"name":"data","type":"bytes","internalType":"bytes"}],"outputs":[],"stateMutability":"payable"},{"type":"function","name":"validateUserOp","inputs":[{"name":"userOp","type":"tuple","internalType":"struct UserOperation","components":[{"name":"sender","type":"address","internalType":"address"},{"name":"nonce","type":"uint256","internalType":"uint256"},{"name":"initCode","type":"bytes","internalType":"bytes"},{"name":"callData","type":"bytes","internalType":"bytes"},{"name":"callGasLimit","type":"uint256","internalType":"uint256"},{"name":"verificationGasLimit","type":"uint256","internalType":"uint256"},{"name":"preVerificationGas","type":"uint256","internalType":"uint256"},{"name":"maxFeePerGas","type":"uint256","internalType":"uint256"},{"name":"maxPriorityFeePerGas","type":"uint256","internalType":"uint256"},{"name":"paymasterAndData","type":"bytes","internalType":"bytes"},{"name":"signature","type":"bytes","internalType":"bytes"}]},{"name":"userOpHash","type":"bytes32","internalType":"bytes32"},{"name":"missingAccountFunds","type":"uint256","internalType":"uint256"}],"outputs":[{"name":"validationData","type":"uint256","internalType":"uint256"}],"stateMutability":"nonpayable"},{"type":"event","name":"AdminChanged","inputs":[{"name":"previousAdmin","type":"address","indexed":false,"internalType":"address"},{"name":"newAdmin","type":"address","indexed":false,"internalType":"address"}],"anonymous":false},{"type":"event","name":"BannerImageUpdated","inputs":[{"name":"updater","type":"address","indexed":true,"internalType":"address"},{"name":"newBannerImage","type":"string","indexed":false,"internalType":"string"}],"anonymous":false},{"type":"event","name":"BeaconUpgraded","inputs":[{"name":"beacon","type":"address","indexed":true,"internalType":"address"}],"anonymous":false},{"type":"event","name":"CommunityTokenUpdated","inputs":[{"name":"updater","type":"address","indexed":true,"internalType":"address"},{"name":"newToken","type":"address","indexed":false,"internalType":"address"}],"anonymous":false},{"type":"event","name":"DescriptionUpdated","inputs":[{"name":"updater","type":"address","indexed":true,"internalType":"address"},{"name":"newDescription","type":"string","indexed":false,"internalType":"string"}],"anonymous":false},{"type":"event","name":"GAPProjectCreated","inputs":[{"name":"projectUID","type":"bytes32","indexed":true,"internalType":"bytes32"},{"name":"gardenAddress","type":"address","indexed":true,"internalType":"address"},{"name":"projectName","type":"string","indexed":false,"internalType":"string"}],"anonymous":false},{"type":"event","name":"GardenOperatorAdded","inputs":[{"name":"updater","type":"address","indexed":true,"internalType":"address"},{"name":"operator","type":"address","indexed":true,"internalType":"address"}],"anonymous":false},{"type":"event","name":"GardenOperatorRemoved","inputs":[{"name":"updater","type":"address","indexed":true,"internalType":"address"},{"name":"operator","type":"address","indexed":true,"internalType":"address"}],"anonymous":false},{"type":"event","name":"GardenerAdded","inputs":[{"name":"updater","type":"address","indexed":true,"internalType":"address"},{"name":"gardener","type":"address","indexed":true,"internalType":"address"}],"anonymous":false},{"type":"event","name":"GardenerRemoved","inputs":[{"name":"updater","type":"address","indexed":true,"internalType":"address"},{"name":"gardener","type":"address","indexed":true,"internalType":"address"}],"anonymous":false},{"type":"event","name":"Initialized","inputs":[{"name":"version","type":"uint8","indexed":false,"internalType":"uint8"}],"anonymous":false},{"type":"event","name":"LocationUpdated","inputs":[{"name":"updater","type":"address","indexed":true,"internalType":"address"},{"name":"newLocation","type":"string","indexed":false,"internalType":"string"}],"anonymous":false},{"type":"event","name":"LockUpdated","inputs":[{"name":"lockedUntil","type":"uint256","indexed":false,"internalType":"uint256"}],"anonymous":false},{"type":"event","name":"MetadataUpdated","inputs":[{"name":"updater","type":"address","indexed":true,"internalType":"address"},{"name":"newMetadata","type":"string","indexed":false,"internalType":"string"}],"anonymous":false},{"type":"event","name":"NameUpdated","inputs":[{"name":"updater","type":"address","indexed":true,"internalType":"address"},{"name":"newName","type":"string","indexed":false,"internalType":"string"}],"anonymous":false},{"type":"event","name":"OpenJoiningUpdated","inputs":[{"name":"updater","type":"address","indexed":true,"internalType":"address"},{"name":"openJoining","type":"bool","indexed":false,"internalType":"bool"}],"anonymous":false},{"type":"event","name":"OverrideUpdated","inputs":[{"name":"owner","type":"address","indexed":false,"internalType":"address"},{"name":"selector","type":"bytes4","indexed":false,"internalType":"bytes4"},{"name":"implementation","type":"address","indexed":false,"internalType":"address"}],"anonymous":false},{"type":"event","name":"PermissionUpdated","inputs":[{"name":"owner","type":"address","indexed":false,"internalType":"address"},{"name":"caller","type":"address","indexed":false,"internalType":"address"},{"name":"hasPermission","type":"bool","indexed":false,"internalType":"bool"}],"anonymous":false},{"type":"event","name":"Upgraded","inputs":[{"name":"implementation","type":"address","indexed":true,"internalType":"address"}],"anonymous":false},{"type":"error","name":"AccountLocked","inputs":[]},{"type":"error","name":"AlreadyGardener","inputs":[]},{"type":"error","name":"ContractCreationFailed","inputs":[]},{"type":"error","name":"ExceedsMaxLockTime","inputs":[]},{"type":"error","name":"GAPImpactCreationFailed","inputs":[]},{"type":"error","name":"GAPMilestoneCreationFailed","inputs":[]},{"type":"error","name":"GAPNotSupportedOnChain","inputs":[]},{"type":"error","name":"GAPProjectNotInitialized","inputs":[]},{"type":"error","name":"InvalidAccountProof","inputs":[]},{"type":"error","name":"InvalidERC6551Registry","inputs":[]},{"type":"error","name":"InvalidEntryPoint","inputs":[]},{"type":"error","name":"InvalidImplementation","inputs":[]},{"type":"error","name":"InvalidInput","inputs":[]},{"type":"error","name":"InvalidInvite","inputs":[]},{"type":"error","name":"InvalidMulticallForwarder","inputs":[]},{"type":"error","name":"InvalidOperation","inputs":[]},{"type":"error","name":"KarmaGAPNotSupported","inputs":[]},{"type":"error","name":"NotAuthorized","inputs":[]},{"type":"error","name":"NotAuthorizedCaller","inputs":[]},{"type":"error","name":"NotGardenOperator","inputs":[]},{"type":"error","name":"NotGardenOwner","inputs":[]},{"type":"error","name":"OwnershipCycle","inputs":[]},{"type":"error","name":"TooManyGardeners","inputs":[]},{"type":"error","name":"TooManyOperators","inputs":[]}],"bytecode":{"object":"0x6101803461025657601f6160fc38819003918201601f1916830191906001600160401b0383118484101761025a578160c092859260409586528339810103126102565761004b8261026e565b6100576020840161026e565b9261006383820161026e565b916100706060830161026e565b9461008960a06100826080860161026e565b940161026e565b936001600160a01b039283168015610245576080523060a052828116156102355760c05260e081905281161561022457610100941684526101209230845261014091825261016092835260045460ff8160081c166101d05760ff80821603610196575b505192615e7994856102838639608051858181610f3901528181611cfb01528181611ffe0152613b44015260a0518581816128210152614de9015260c0518581816105bc015281816128420152614e0b015260e05185818161148001528181614f900152615d44015251848181613c480152613e5d015251838181610cf0015281816111c901526113b00152518281816116350152611f65015251818181610ed401526118ba0152f35b60ff90811916176004557f7f26b83ff96e1f2b6a682f133852f6798a09c465da95921460cefb38474024986020825160ff8152a15f6100ec565b815162461bcd60e51b815260206004820152602760248201527f496e697469616c697a61626c653a20636f6e747261637420697320696e697469604482015266616c697a696e6760c81b6064820152608490fd5b835163754c753360e11b8152600490fd5b85516246a29560e81b8152600490fd5b8651632039d3c960e01b8152600490fd5b5f80fd5b634e487b7160e01b5f52604160045260245ffd5b51906001600160a01b03821682036102565756fe60806040526004361015610026575b361561001e5761001c613881565b005b61001c613881565b5f3560e01c806301ffc9a714610390578063039721b11461038b578063056d5afe1461038657806306fdde0314610381578063150b7a021461037c5780631626ba7e146103775780631e2eaeaf146103725780631f6e45e31461036d5780631f9838b5146103685780631fb1ecf014610363578063291d05481461035e57806329aa16171461035957806334715fb1146103545780633659cfe61461034f578063392f37e91461034a5780633a208f95146103455780633a871cdd1461034057806343629a731461033b57806345a24e3e146103365780634f1ef28614610331578063516f279e1461032c5780635194544714610327578063523e32601461032257806352d1902d1461031d578063572b6c051461031857806359ec3801146103135780635bcf5dce1461030e5780637284e416146103095780637597bc7c146103045780637a8f7356146102ff57806381eec6bb146102fa57806384da92a7146102f55780638da5cb5b146102f057806394def29d146102eb57806398b7a25a146102e6578063a4e2d634146102e1578063adbce85e146102dc578063b0d691fe146102d7578063b10006a6146102d2578063b709467c146102cd578063bc197c81146102c8578063bcc5cf88146102c3578063c19d93fb146102be578063ce0617ec146102b9578063d087d288146102b4578063dd467064146102af578063e735b48a146102aa578063eaff6dc9146102a5578063ee9c6054146102a0578063eeb970571461029b578063eed9df7414610296578063f23a6e6114610291578063f7fc57b01461028c578063f89b9b931461028c5763fc0c546a0361000e576125ea565b6125cd565b61256c565b61247b565b6123cb565b612363565b6122b0565b61211c565b612079565b611fcd565b611fb1565b611f94565b611f50565b611eb0565b611de9565b611d2a565b611ce6565b611c39565b611c1b565b611b57565b611ac4565b611aa7565b61192a565b611842565b6116eb565b6116ab565b611690565b6115be565b6114b4565b61145c565b61139e565b611356565b6112e6565b6112cb565b611188565b611139565b611053565b610f03565b610ebf565b610e15565b610cc9565b610c6e565b610c42565b610c20565b610b87565b610b18565b610ad8565b610ab9565b610a68565b61098b565b6108af565b6105a7565b610456565b6103ab565b6001600160e01b03198116036103a757565b5f80fd5b346103a75760203660031901126103a75760206103d26004356103cd81610395565b612621565b6040519015158152f35b9181601f840112156103a7578235916001600160401b0383116103a7576020808501948460051b0101116103a757565b60406003198201126103a7576001600160401b03916004358381116103a75782610438916004016103dc565b939093926024359182116103a757610452916004016103dc565b9091565b346103a7576104643661040c565b929061047f61047a6104746137b4565b91614cf8565b614de6565b6001600160a01b03811680156105955733036105955761049d613811565b838503610583575f5b8481106104af57005b8061051b6104c86104c36001948a8861272e565b612743565b6001600160a01b0385165f90815260026020526040902061050a906104f66104f1868c8c61272e565b61274d565b60018060a01b03165f5260205260405f2090565b9060ff801983541691151516179055565b7f394777a58092892d136a90c4bb7e4350c72ac50fba6a0208128677f36527dcf561054a6104f183898961272e565b6105586104c3848b8961272e565b604080516001600160a01b03888116825293909316602084015290151590820152606090a1016104a6565b60405163b4fa3fb360e01b8152600490fd5b60405163ea8e4eb560e01b8152600490fd5b346103a7575f3660031901126103a7576040517f00000000000000000000000000000000000000000000000000000000000000006001600160a01b03168152602090f35b90600182811c92168015610619575b602083101461060557565b634e487b7160e01b5f52602260045260245ffd5b91607f16916105fa565b634e487b7160e01b5f52604160045260245ffd5b6001600160401b03811161064a57604052565b610623565b604081019081106001600160401b0382111761064a57604052565b602081019081106001600160401b0382111761064a57604052565b606081019081106001600160401b0382111761064a57604052565b90601f801991011681019081106001600160401b0382111761064a57604052565b604051905f82600554916106d4836105eb565b80835260209360019081811690811561073f5750600114610700575b50506106fe925003836106a0565b565b9093915060055f52815f20935f915b8183106107275750506106fe93508201015f806106f0565b8554888401850152948501948794509183019161070f565b9150506106fe94925060ff191682840152151560051b8201015f806106f0565b604051905f8260075491610772836105eb565b80835260209360019081811690811561073f575060011461079b5750506106fe925003836106a0565b9093915060075f52815f20935f915b8183106107c25750506106fe93508201015f806106f0565b855488840185015294850194879450918301916107aa565b604051905f82600654916107ed836105eb565b80835260209360019081811690811561073f57506001146108165750506106fe925003836106a0565b9093915060065f52815f20935f915b81831061083d5750506106fe93508201015f806106f0565b85548884018501529485019487945091830191610825565b5f5b8381106108665750505f910152565b8181015183820152602001610857565b9060209161088f81518092818552858086019101610855565b601f01601f1916010190565b9060206108ac928181520190610876565b90565b346103a7575f3660031901126103a7576108de6108ca6106c1565b604051918291602083526020830190610876565b0390f35b6001600160a01b038116036103a757565b6040519060c082018281106001600160401b0382111761064a57604052565b604051906106fe8261064f565b6001600160401b03811161064a57601f01601f191660200190565b9291926109468261091f565b9161095460405193846106a0565b8294818452818301116103a7578281602093845f960137010152565b9080601f830112156103a7578160206108ac9335910161093a565b346103a75760803660031901126103a7576109a76004356108e2565b6109b26024356108e2565b6064356001600160401b0381116103a7576109d1903690600401610970565b506109da6137b4565b919060018060a01b031633149182610a2f575b5081610a25575b50610a1357610a01613881565b604051630a85bd0160e11b8152602090f35b60405163b79e3f3f60e01b8152600490fd5b905046145f6109f4565b6044351491505f6109ed565b9181601f840112156103a7578235916001600160401b0383116103a757602083818601950101116103a757565b346103a75760403660031901126103a7576024356001600160401b0381116103a757610aa6610a9d6020923690600401610a3b565b90600435612757565b6040516001600160e01b03199091168152f35b346103a75760203660031901126103a757602060043554604051908152f35b346103a75760203660031901126103a757600435610af5816108e2565b60018060a01b03165f52600a602052602060ff60405f2054166040519015158152f35b346103a75760403660031901126103a757602060ff610b70600435610b3c816108e2565b60243590610b49826108e2565b60018060a01b03165f526002845260405f209060018060a01b03165f5260205260405f2090565b54166040519015158152f35b60ff8116036103a757565b60a03660031901126103a757600435610b9f816108e2565b6001600160401b036044358181116103a757610bbf903690600401610a3b565b919092606435610bce81610b7c565b608435938385116103a757366023860112156103a75784600401359384116103a75736602460608602870101116103a7576108de956024610c14960193602435906127ba565b6040519182918261089b565b346103a7575f3660031901126103a757602060ff600c54166040519015158152f35b346103a7575f3660031901126103a75760045460405160109190911c6001600160a01b03168152602090f35b346103a75760603660031901126103a7576044356001600160401b0381116103a757610cb7610ca36020923690600401610a3b565b90610cac613de0565b602435600435613dfa565b6040516001600160a01b039091168152f35b346103a75760203660031901126103a757600435610ce6816108e2565b6001600160a01b037f000000000000000000000000000000000000000000000000000000000000000081169190610d1f30841415612999565b610d3b5f80516020615e4d8339815191529382855416146129fa565b610d4482613e34565b60405190610d518261066a565b5f82527f4910fdfa16fed3260ed0e7147f7cc6da11a60208b5b9406d12a635614ffd91435460ff1615610d8a57505061001c91506150e7565b6020600491604094939451928380926352d1902d60e01b825286165afa5f9181610de4575b50610dd15760405162461bcd60e51b815280610dcd60048201613f3e565b0390fd5b61001c93610ddf9114613ee0565b615096565b610e0791925060203d602011610e0e575b610dff81836106a0565b810190613330565b905f610daf565b503d610df5565b346103a7575f3660031901126103a7576040515f90600954610e36816105eb565b808352602091600190818116908115610e9f5750600114610e62575b6108de84610c14818803826106a0565b91935060095f52835f20915f925b828410610e8c57505050816108de93610c149282010193610e52565b8054858501870152928501928101610e70565b60ff1916858501525050151560051b8201019150610c14816108de610e52565b346103a7575f3660031901126103a7576040517f00000000000000000000000000000000000000000000000000000000000000006001600160a01b03168152602090f35b346103a7576003196060368201126103a757600435906001600160401b0382116103a7576101609082360301126103a7576044357f00000000000000000000000000000000000000000000000000000000000000006001600160a01b03163303610fab57610f7a6108de9260243590600401613f8d565b9080610f92575b506040519081529081906020820190565b5f80808093338219f150610fa4613785565b505f610f81565b60405162461bcd60e51b815260206004820152601c60248201527f6163636f756e743a206e6f742066726f6d20456e747279506f696e74000000006044820152606490fd5b6020808201906020835283518092526040830192602060408460051b8301019501935f915b8483106110255750505050505090565b9091929394958480611043600193603f198682030187528a51610876565b9801930193019194939290611015565b6020806003193601126103a7576004356001600160401b0381116103a75761107f9036906004016103dc565b9161109761109361108e614f8d565b613b37565b1590565b610595576110a3613811565b6110ac83612ae3565b925f5b8181106110c457604051806108de8782610ff0565b8061111d6110d86104f16001948689612b2c565b8487876110e6868484612b2c565b01356111176060611111886111096110ff828989612b2c565b6040810190612b4e565b979096612b2c565b01612b80565b93613cd5565b6111278288612b8a565b526111328187612b8a565b50016110af565b346103a75760403660031901126103a7576024356001600160401b0381116103a757610cb76111806111716020933690600401610a3b565b611179613de0565b369161093a565b600435613fdd565b60403660031901126103a7576004356111a0816108e2565b6024356001600160401b0381116103a7576111bf903690600401610970565b6001600160a01b037f000000000000000000000000000000000000000000000000000000000000000081169291906111f930851415612999565b6112155f80516020615e4d8339815191529482865416146129fa565b61121e83613e34565b7f4910fdfa16fed3260ed0e7147f7cc6da11a60208b5b9406d12a635614ffd91435460ff161561125457505061001c91506150e7565b6020600491604094939451928380926352d1902d60e01b825286165afa5f91816112aa575b506112975760405162461bcd60e51b815280610dcd60048201613f3e565b61001c936112a59114613ee0565b614fdf565b6112c491925060203d602011610e0e57610dff81836106a0565b905f611279565b346103a7575f3660031901126103a7576108de6108ca61075f565b60803660031901126103a7576004356112fe816108e2565b6044356001600160401b0381116103a75761131d903690600401610a3b565b6064929192359061132d82610b7c565b61133861108e614f8d565b15610595576108de936108ca9361134d613811565b60243590613cd5565b346103a75760403660031901126103a757600435611373816108e2565b6024356001600160401b0381116103a757602091611398610aa6923690600401610a3b565b91612b9e565b346103a7575f3660031901126103a7577f00000000000000000000000000000000000000000000000000000000000000006001600160a01b031630036113f6576040515f80516020615e4d8339815191528152602090f35b60405162461bcd60e51b815260206004820152603860248201527f555550535570677261646561626c653a206d757374206e6f742062652063616c6044820152771b1959081d1a1c9bdd59da0819195b1959d85d1958d85b1b60421b6064820152608490fd5b346103a75760203660031901126103a757602060043561147b816108e2565b6040517f00000000000000000000000000000000000000000000000000000000000000006001600160a01b039081169216919091148152f35b346103a7576003196020368201126103a757600435906001600160401b0382116103a7576101209082360301126103a75761152d6004549161150d60ff8460081c1615809481956115b0575b8115611590575b50612bc7565b82611520600160ff196004541617600455565b611577575b6004016130da565b61153357005b61154361ff001960045416600455565b604051600181527f7f26b83ff96e1f2b6a682f133852f6798a09c465da95921460cefb38474024989080602081015b0390a1005b61158b61010061ff00196004541617600455565b611525565b303b159150816115a2575b505f611507565b6001915060ff16145f61159b565b600160ff8216109150611500565b346103a75760803660031901126103a7576001600160401b036004358181116103a7576115ef903690600401610a3b565b906024358381116103a757611608903690600401610a3b565b90936044359081116103a757611622903690600401610a3b565b9161162b614f8d565b6001600160a01b037f0000000000000000000000000000000000000000000000000000000000000000811691160361167e576108de9561166e95606435956133b5565b6040519081529081906020820190565b604051637046c88d60e01b8152600490fd5b346103a7575f3660031901126103a7576108de6108ca6107da565b346103a75760203660031901126103a7576004356116c8816108e2565b60018060a01b03165f52600b602052602060ff60405f2054166040519015158152f35b346103a7576116f93661040c565b929061170961047a6104746137b4565b6001600160a01b038116801561059557330361059557611727613811565b61173030614ac6565b3b15611834575b838503610583575f5b84811061174957005b806117bf61175d6104f16001948a8861272e565b6001600160a01b0385165f9081526001602052604090206117a09061178b611786868c8c61272e565b6134e9565b63ffffffff60e01b165f5260205260405f2090565b80546001600160a01b0319166001600160a01b03909216919091179055565b7f2c722487e90aca38ec1b074c3403210bd2bfb769b4da7f12f7bf0b9e37517c186117ee61178683898961272e565b6117fc6104f1848b8961272e565b604080516001600160a01b0380891682526001600160e01b03199094166020820152929091169082015280606081010390a101611740565b61183d30614b15565b611737565b346103a75760603660031901126103a7576001600160401b036004358181116103a757611873903690600401610a3b565b916024358181116103a75761188c903690600401610a3b565b916044359081116103a7576118a5903690600401610a3b565b9290916118b0614f8d565b6001600160a01b037f0000000000000000000000000000000000000000000000000000000000000000811691160361167e576108de9561166e95613523565b60206003198201126103a757600435906001600160401b0382116103a757806023830112156103a7578160246108ac9360040135910161093a565b346103a757611938366118ef565b611940614f8d565b5f60405161194d8161066a565b5261195781613ff7565b15611a955781516001600160401b03811161064a576119808161197b6005546105eb565b612c5f565b602080601f8311600114611a015750916119d4826119f1937f74321da206c1b9fa34367f7ece59ca49371dcd13820b9a5c3767ae1ecceed51a955f916119f6575b508160011b915f199060031b1c19161790565b6005555b6040516001600160a01b0390911693909182918261089b565b0390a2005b90508601515f6119c1565b60055f5290601f1983165f80516020615e2d833981519152925f905b828210611a7d575050927f74321da206c1b9fa34367f7ece59ca49371dcd13820b9a5c3767ae1ecceed51a9492600192826119f19610611a65575b5050811b016005556119d8565b8701515f1960f88460031b161c191690555f80611a58565b80600185968294968b01518155019501930190611a1d565b604051633632b98960e21b8152600490fd5b346103a7575f3660031901126103a7576020610cb76104746137b4565b346103a7575f3660031901126103a7576040515f90600854611ae5816105eb565b808352602091600190818116908115610e9f5750600114611b10576108de84610c14818803826106a0565b91935060085f52835f20915f925b828410611b3a57505050816108de93610c149282010193610e52565b8054858501870152928501928101611b1e565b801515036103a757565b346103a75760203660031901126103a757600435611b7481611b4d565b611b7c614f8d565b905f604051611b8a8161066a565b52611b9482613ff7565b1580611bf9575b611be75760207fa48b25a14599514510fcdca0f35ff4cd42847f5e61698a238f4ee01e2d1c2c6a9115159260ff19600c541660ff851617600c5560405193845260018060a01b031692a2005b604051633cebab8560e21b8152600490fd5b506001600160a01b0382165f908152600b602052604090205460ff1615611b9b565b346103a7575f3660031901126103a75760205f546040519042108152f35b346103a75760203660031901126103a757600435611c56816108e2565b611c5e614f8d565b5f604051611c6b8161066a565b52611c7581613ff7565b15611a955760018060a01b0380831691825f52600b60205260405f2060ff198154169055167fdd1e1c7c82ab1f3ed1b1656e8200309ebf9f682a74ce7737d3bfde87a7fecb085f80a3611cc6614051565b80611cdb575b611cd257005b61001c90614d68565b50600d541515611ccc565b346103a7575f3660031901126103a7576040517f00000000000000000000000000000000000000000000000000000000000000006001600160a01b03168152602090f35b346103a7575f3660031901126103a75760ff600c541615611dd757611d4d614f8d565b6001600160a01b0381165f908152600a602052604090205460ff16611dc5576001600160a01b0381165f908152600a60205260409020611d95905b805460ff19166001179055565b6001600160a01b0316307fc0b9de905219d7679d6f05d6061fa6ef557a687d2c44c314b58bb793f5dba4945f80a3005b60405163211bad0f60e11b8152600490fd5b604051636dc9375d60e11b8152600490fd5b346103a75760603660031901126103a757600435611e06816108e2565b6044356001600160401b0381116103a7576108de91611e2f6111716108ca933690600401610a3b565b9060243590614dbe565b6001600160401b03811161064a5760051b60200190565b9080601f830112156103a7576020908235611e6a81611e39565b93611e7860405195866106a0565b81855260208086019260051b8201019283116103a757602001905b828210611ea1575050505090565b81358152908301908301611e93565b346103a75760a03660031901126103a757611ecc6004356108e2565b611ed76024356108e2565b6001600160401b036044358181116103a757611ef7903690600401611e50565b506064358181116103a757611f10903690600401611e50565b506084359081116103a757611f29903690600401610970565b506108de611f356136f3565b6040516001600160e01b031990911681529081906020820190565b346103a7575f3660031901126103a7576040517f00000000000000000000000000000000000000000000000000000000000000006001600160a01b03168152602090f35b346103a7575f3660031901126103a7576020600354604051908152f35b346103a7575f3660031901126103a75760205f54604051908152f35b346103a7575f3660031901126103a757604051631aab3f0d60e11b81523060048201525f60248201526020816044817f00000000000000000000000000000000000000000000000000000000000000006001600160a01b03165afa8015612074575f90612040575b604051908152602090f35b506020813d60201161206c575b8161205a602093836106a0565b810103126103a7576108de9051612035565b3d915061204d565b61279a565b346103a75760203660031901126103a75760043561047a6120ad61209b6137b4565b6001600160a01b039492909190614cf8565b168015610595573303610595576120c34261371a565b811161210a576115727fa7b24c66dd3269a292a60b3facdbb8f3e7557d1e19e64d99e0d6ee7250be63ad916120f6613811565b805f55604051918291829190602083019252565b6040516301814f7d60e31b8152600490fd5b346103a75761212a366118ef565b612132614f8d565b5f60405161213f8161066a565b5261214981613ff7565b158061228e575b611be75781516001600160401b03811161064a57612178816121736006546105eb565b612caf565b602080601f83116001146121e75750916121cb826119f1937f37cc8c6ced0cbc4d440fcfa810a2f09f40b8f0127c3656103edf26b3d93e0ec1955f916119f657508160011b915f199060031b1c19161790565b6006556040516001600160a01b0390911693909182918261089b565b60065f5290601f1983167ff652222313e28459528d920b65115c16c04f3efc82aaedc97be59f3f377c0d3f925f905b828210612276575050927f37cc8c6ced0cbc4d440fcfa810a2f09f40b8f0127c3656103edf26b3d93e0ec19492600192826119f1961061225e575b5050811b016006556119d8565b8701515f1960f88460031b161c191690555f80612251565b80600185968294968b01518155019501930190612216565b506001600160a01b0381165f908152600b602052604090205460ff1615612150565b346103a75760203660031901126103a7576004356122cd816108e2565b6122d5614f8d565b905f6040516122e38161066a565b526122ed82613ff7565b1580612341575b611be75760018060a01b0380911691825f52600a60205260405f20600160ff19825416179055167fc0b9de905219d7679d6f05d6061fa6ef557a687d2c44c314b58bb793f5dba4945f80a3005b506001600160a01b0382165f908152600b602052604090205460ff16156122f4565b346103a75760403660031901126103a7576020600435612382816108e2565b6123c160243561239181610395565b6001600160a01b039283165f9081526001855260408082206001600160e01b031990931682526020929092522090565b5416604051908152f35b346103a75760203660031901126103a7576004356123e8816108e2565b6123f0614f8d565b905f6040516123fe8161066a565b5261240882613ff7565b1580612459575b611be75760018060a01b0380911691825f52600a60205260405f2060ff198154169055167f8a44d725ac751003f7f644f7ce70382fa06f348023717d057b7aa5c8778770d25f80a3005b506001600160a01b0382165f908152600b602052604090205460ff161561240f565b346103a75760203660031901126103a757600435612498816108e2565b6124a0614f8d565b5f6040516124ad8161066a565b526124b781613ff7565b158061254a575b611be75760018060a01b0380831691825f52600b60205260405f20600160ff19825416179055600a6020526124fd60405f20600160ff19825416179055565b167f06216f26a4a5b9c90aa5e1f990342de8fa80a0c447e3c6143fbaf0c7747edd715f80a361252a614051565b8061253f575b61253657005b61001c9061442d565b50600d541515612530565b506001600160a01b0381165f908152600b602052604090205460ff16156124be565b346103a75760a03660031901126103a7576125886004356108e2565b6125936024356108e2565b6084356001600160401b0381116103a7576125b2903690600401610970565b506125bb613881565b60405163f23a6e6160e01b8152602090f35b346103a7575f3660031901126103a7576020600d54604051908152f35b346103a7575f3660031901126103a75760606126046137b4565b604080519384526001600160a01b03909216602084015290820152f35b6001600160e01b0319908116635194544760e01b81149081156126d5575b506126cf5761269061266b9161047a6126566137b4565b6001600160a01b039687949093909290614cf8565b165f52600160205260405f20905f351663ffffffff60e01b165f5260205260405f2090565b54168061269c57505f90565b5f8091604051806126ad813661350a565b03915afa6126b9613785565b90156126c757602081519101f35b602081519101fd5b50600190565b636faff5f160e01b8114915081156126ef575b505f61263f565b630271189760e51b811491508115612709575b505f6126e8565b6301ffc9a760e01b1490505f612702565b634e487b7160e01b5f52603260045260245ffd5b919081101561273e5760051b0190565b61271a565b356108ac81611b4d565b356108ac816108e2565b9061276292916139d5565b61276a575f90565b630b135d3f60e11b90565b919081101561273e576060020190565b908160209103126103a757516108ac81611b4d565b6040513d5f823e3d90fd5b908160209103126103a757516108ac816108e2565b959490919293946127c9614f8d565b915f915b8083106127f8575050506110936127e391613b37565b610595576108ac946127f3613811565b613cd5565b909192612806848385612775565b906128136020830161274d565b6128666040840135824686357f00000000000000000000000000000000000000000000000000000000000000007f0000000000000000000000000000000000000000000000000000000000000000613ab0565b92813b156128de57833b612921575b604080516331a9108f60e11b815291013560048201529190602090839060249082906001600160a01b03165afa5f92816128f0575b506128c157604051631052dd2560e21b8152600490fd5b6001600160a01b039081169116036128de579260010191906127cd565b604051631052dd2560e21b8152600490fd5b61291391935060203d60201161291a575b61290b81836106a0565b8101906127a5565b915f6128aa565b503d612901565b604051632938b58d60e21b815260049060208183816001600160a01b038a165afa908115612074575f9161296a575b5061295b5750612875565b604051636315bfbb60e01b8152fd5b61298c915060203d602011612992575b61298481836106a0565b810190612785565b5f612950565b503d61297a565b156129a057565b60405162461bcd60e51b815260206004820152602c60248201527f46756e6374696f6e206d7573742062652063616c6c6564207468726f7567682060448201526b19195b1959d85d1958d85b1b60a21b6064820152608490fd5b15612a0157565b60405162461bcd60e51b815260206004820152602c60248201527f46756e6374696f6e206d7573742062652063616c6c6564207468726f7567682060448201526b6163746976652070726f787960a01b6064820152608490fd5b60405190612a688261066a565b5f8252565b6040519060a082018281106001600160401b0382111761064a576040526080808352366020840137565b60405190612aa48261064f565b6002825260203681840137565b90612abb8261091f565b612ac860405191826106a0565b8281528092612ad9601f199161091f565b0190602036910137565b90612aed82611e39565b612afa60405191826106a0565b8281528092612b0b601f1991611e39565b01905f5b828110612b1b57505050565b806060602080938501015201612b0f565b919081101561273e5760051b81013590607e19813603018212156103a7570190565b903590601e19813603018212156103a757018035906001600160401b0382116103a7576020019181360383136103a757565b356108ac81610b7c565b805182101561273e5760209160051b010190565b90612bae90612bb493369161093a565b50613ff7565b612bbc575f90565b630291f19360e51b90565b15612bce57565b60405162461bcd60e51b815260206004820152602e60248201527f496e697469616c697a61626c653a20636f6e747261637420697320616c72656160448201526d191e481a5b9a5d1a585b1a5e995960921b6064820152608490fd5b903590601e19813603018212156103a757018035906001600160401b0382116103a757602001918160051b360383136103a757565b601f8111612c6b575050565b60055f5260205f20906020601f840160051c83019310612ca5575b601f0160051c01905b818110612c9a575050565b5f8155600101612c8f565b9091508190612c86565b601f8111612cbb575050565b60065f5260205f20906020601f840160051c83019310612cf5575b601f0160051c01905b818110612cea575050565b5f8155600101612cdf565b9091508190612cd6565b601f8111612d0b575050565b60075f5260205f20906020601f840160051c83019310612d45575b601f0160051c01905b818110612d3a575050565b5f8155600101612d2f565b9091508190612d26565b601f8111612d5b575050565b60085f5260205f20906020601f840160051c83019310612d95575b601f0160051c01905b818110612d8a575050565b5f8155600101612d7f565b9091508190612d76565b91906001600160401b03811161064a57612dbe8161197b6005546105eb565b5f601f8211600114612dfc578190612dec93945f92612df1575b50508160011b915f199060031b1c19161790565b600555565b013590505f80612dd8565b60055f52601f198216935f80516020615e2d833981519152915f5b868110612e4e5750836001959610612e35575b505050811b01600555565b01355f19600384901b60f8161c191690555f8080612e2a565b90926020600181928686013581550194019101612e17565b91906001600160401b03811161064a57612e85816121736006546105eb565b5f601f8211600114612eb7578190612eb293945f92612df15750508160011b915f199060031b1c19161790565b600655565b60065f52601f198216937ff652222313e28459528d920b65115c16c04f3efc82aaedc97be59f3f377c0d3f915f5b868110612f1c5750836001959610612f03575b505050811b01600655565b01355f19600384901b60f8161c191690555f8080612ef8565b90926020600181928686013581550194019101612ee5565b91906001600160401b03811161064a57612f5881612f536007546105eb565b612cff565b5f601f8211600114612f8a578190612f8593945f92612df15750508160011b915f199060031b1c19161790565b600755565b60075f52601f198216937fa66cc928b5edb82af9bd49922954155ab7b0942694bea4ce44661d9a8736c688915f5b868110612fef5750836001959610612fd6575b505050811b01600755565b01355f19600384901b60f8161c191690555f8080612fcb565b90926020600181928686013581550194019101612fb8565b91906001600160401b03811161064a5761302b816130266008546105eb565b612d4f565b5f601f821160011461305d57819061305893945f92612df15750508160011b915f199060031b1c19161790565b600855565b60085f52601f198216937ff3f7a9fe364faab93b216da50a3214154f22a0a2b415b23a84c8169e8b636ee3915f5b8681106130c257508360019596106130a9575b505050811b01600855565b01355f19600384901b60f8161c191690555f808061309e565b9092602060018192868601358155019401910161308b565b9060e082019160326130ec8483612c2a565b90501161331e57610100810160146131048284612c2a565b90501161330c576131406131178361274d565b6004805462010000600160b01b03191660109290921b62010000600160b01b0316919091179055565b6131566131506020840184612b4e565b90612d9f565b61316c6131666040840184612b4e565b90612e66565b61318261317c6060840184612b4e565b90612f34565b6131986131926080840184612b4e565b90613007565b6131b96131a760c08401612743565b60ff8019600c54169115151617600c55565b6131c1614f8d565b6001600160a01b0381165f908152600a602052604090206131e190611d88565b6001600160a01b0381165f908152600b6020526040902061320190611d88565b5f5b61320d8685612c2a565b9050811015613255578061324f611d886132366104f16001956132308c8b612c2a565b9061272e565b6001600160a01b03165f908152600a6020526040902090565b01613203565b50929093505f5b6132668584612c2a565b90508110156132a857806132a2611d886132896104f16001956132308b8a612c2a565b6001600160a01b03165f908152600b6020526040902090565b0161325c565b50916132b2614051565b6132bd575b50509050565b6132ce906132c9614180565b61442d565b5f5b6132da8483612c2a565b905081101561330057806132fa6132c96104f16001946132308988612c2a565b016132d0565b50509050805f806132b7565b604051636055dca160e01b8152600490fd5b604051636bd3434560e11b8152600490fd5b908160209103126103a7575190565b9060209081835280518284015201519060408082015260018060a01b0382511660608201526001600160401b0360208301511660808201526040820151151560a0820152606082015160c082015261010060a06133ac608085015160c060e0860152610120850190610876565b93015191015290565b909195939495600d549485156134d7576133d0611093614051565b6134c5575f97613420976134809661340b946133fc6133f06133f0614497565b6001600160a01b031690565b976134056144fb565b97614665565b9360405161342e81602098899889830161089b565b03601f1981018352826106a0565b6134366108f3565b308152918887840152886040840152606083015260808201528660a082015261345d610912565b9182528482015260405195868094819363f17325e760e01b83526004830161333f565b03925af19182915f936134a6575b50506108ac576040516317c3402f60e01b8152600490fd5b6134bd929350803d10610e0e57610dff81836106a0565b905f8061348e565b6040516384352a0160e01b8152600490fd5b6040516304f102a360e01b8152600490fd5b356108ac81610395565b9061350660209282815194859201610855565b0190565b90815f8237015f815290565b908092918237015f815290565b9493919091600d549182156134d75761353d611093614051565b6134c557613549614497565b6001600160a01b03169661355b6144fb565b9436906135679261093a565b61357090614c04565b94369061357c9261093a565b61358590614c04565b9460405191829160209788978885016135af90600a90693d913a34ba3632911d1160b11b81520190565b6135b8916134f3565b691116113a32bc3a111d1160b11b8152600a016135d4916134f3565b7f222c2274797065223a2270726f6a6563742d6d696c6573746f6e65222c2264618152633a30911d60e11b60208201526024019061361192613516565b607d60f81b815260010103601f1990818101835261362f90836106a0565b6040518092868201906136419161089b565b03908101825261365190826106a0565b6136596108f3565b308152918483015f9052604083015f90526060830152608082015260a081015f9052613683610912565b9182528282015260405163f17325e760e01b8152938491829081906136ab906004830161333f565b03915a905f91f19182915f936136d4575b50506108ac5760405163e80dd52b60e01b8152600490fd5b6136eb929350803d10610e0e57610dff81836106a0565b905f806136bc565b6136fb613881565b63bc197c8160e01b90565b634e487b7160e01b5f52601160045260245ffd5b906301e13380820180921161372b57565b613706565b90620afa6c820180921161372b57565b906002820180921161372b57565b906001820180921161372b57565b906003820180921161372b57565b603001908160301161372b57565b9190820180921161372b57565b3d156137af573d906137968261091f565b916137a460405193846106a0565b82523d5f602084013e565b606090565b60405190608082018281106001600160401b0382111761064a5760405260608252602082016060604d82303c6060838051810103126103a75751906060604084015193613800856108e2565b015191926001600160a01b03169190565b5f54421061386f576003546080613867613829615d41565b92908360405194859260208401978852604080850152816060850152848401375f838284010152601f801991011681010360608101845201826106a0565b519020600355565b604051636315bfbb60e01b8152600490fd5b6138ca6138ae61389561047a6104746137b4565b6001600160a01b03165f90815260016020526040902090565b5f80356001600160e01b03191681526020919091526040902090565b546001600160a01b0381166138dc5750565b5f80916138e830614ac6565b908260405161392c60488260208101956001600160601b0319809160601b16875236866034840137368201903360601b1660348201520360288101845201826106a0565b51925af16126b9613785565b906040101561273e5760400190565b906020116103a75790602090565b906040116103a75760200190602090565b90929192836020116103a75783116103a75760200191601f190190565b909392938483116103a75784116103a7578101920390565b3590602081106139a9575090565b5f199060200360031b1b1690565b600511156139c157565b634e487b7160e01b5f52602160045260245ffd5b909160ff6139fd6139f76139e98487613938565b356001600160f81b03191690565b60f81c90565b1615613a3657613a1892613a1291369161093a565b90614f5c565b613a21816139b7565b613a31576108ac90612bae612a5b565b505f90565b90613a506133f06133f0613a4a8587613947565b9061399b565b91613a59612a5b565b50613a6661109384613ff7565b80613a9d575b613a9557611179818581613a89613a4a613a8f966108ac9a613955565b91613983565b91614ee1565b505050505f90565b506001600160a01b038316301415613a6c565b91906055959360e2956040519560b787015260018060a01b0316609786015260778501528160578501526e5af43d82803e903d91602b57fd5bf360378501526028840152733d60ad80600a3d3981f3363d3d373d3d3d363d73601484015260b7835260d7830190816040528351602085012061011785015260f7840152520160ff81532090565b6001600160a01b038181167f000000000000000000000000000000000000000000000000000000000000000082168114613caa57613b736137b4565b90468303613bf6575b613b8592614cf8565b8281168214613bed57613b9790614de6565b91821614613be6576001600160a01b03165f908152600260205260409020613bd991613bd2919060018060a01b03165f5260205260405f2090565b5460ff1690565b613be1575f90565b600190565b5050600190565b50505050600190565b613c1c613c01614f8d565b6001600160a01b0390811661111061111160901b0119011690565b85163014613c80576040516333932be560e11b81526001600160a01b03871660048201526020816024817f00000000000000000000000000000000000000000000000000000000000000008a165afa908115612074575f91613c8b575b5015613b7c575b505050505050600190565b613ca4915060203d6020116129925761298481836106a0565b5f613c79565b505050600190565b909280926014946001600160601b03199060601b1683528483013701015f815290565b9092919360ff16908115613dc75760018214613d76575060028114613d5957600314613d0d57604051631cc6a69960e11b8152600490fd5b826108ac92613d308380613d2a613a4a613d38976134209a613947565b94613966565b929091613dfa565b604051928391602083016014916001600160601b03199060601b1681520190565b506108ac91613d7061342094613d3893369161093a565b90613fdd565b6108ac9493929150613db490613da6613d8e30614ac6565b93843b15613db9575b60405196879360208501613cb2565b03601f1981018552846106a0565b614dbe565b613dc230614b15565b613d97565b9291613dda9150936108ac94369161093a565b91614dbe565b6001600160a01b03613df130614ac6565b16330361059557565b91613e079193369161093a565b9060208251920190f5906001600160a01b03821615613e2257565b60405163a28c247360e01b8152600490fd5b604051631506fd4d60e01b81526001600160a01b039091166004820152602081806024810103817f00000000000000000000000000000000000000000000000000000000000000006001600160a01b03165afa908115612074575f91613ec1575b5015613eaf57613ea961109361108e614f8d565b61059557565b60405163340aafcd60e11b8152600490fd5b613eda915060203d6020116129925761298481836106a0565b5f613e95565b15613ee757565b60405162461bcd60e51b815260206004820152602960248201527f45524331393637557067726164653a20756e737570706f727465642070726f786044820152681a58589b195555525160ba1b6064820152608490fd5b60809060208152602e60208201527f45524331393637557067726164653a206e657720696d706c656d656e7461746960408201526d6f6e206973206e6f74205555505360901b60608201520190565b613fd0917f19457468657265756d205369676e6564204d6573736167653a0a3332000000005f52601c52613fca603c5f2091610140810190612b4e565b916139d5565b613fd957600190565b5f90565b60208251920190f0906001600160a01b03821615613e2257565b6140026104746137b4565b6001600160a01b03828116918082168314613bed5761402090614de6565b16809114613be6575f9081526002602090815260408083206001600160a01b0390941683529290522060ff90541690565b600a461480156140ca575b80156140bf575b80156140b3575b80156140a7575b801561409c575b8015614091575b80156140885790565b50610530461490565b50610531461461407f565b5061a4ec4614614078565b5062014a344614614071565b5062aa36a7461461406a565b5061a4b14614614063565b5062aa37dc461461405c565b60208082526005545f926140e9826105eb565b9182602083015260406001916001811690815f1461415d5750600114614112575b505050505090565b60055f908152949695509192915f80516020615e2d8339815191525b83861061414a5750505050604092935001015f8080808061410a565b805485870183015294870194820161412e565b9395505050506040935060ff191683830152151560051b01015f8080808061410a565b61418e6133f06133f0614497565b614196615176565b916040918251602090806141b1838201906001602083019252565b03906141c5601f19928381018352826106a0565b6141cd6108f3565b308152905f828501526001878301525f606083015260808201525f60a08201526141f5610912565b9687528287015284519063f17325e760e01b9384835283838061421c60049b8c830161333f565b03815f855af15f938161440e575b5061423f5786516317c3402f60e01b81528890fd5b61424883600d55565b6142d5846142546152e0565b61425c614f8d565b8a5161427f81614273868201906001602083019252565b038881018352826106a0565b61429961428a6108f3565b6001600160a01b039093168352565b5f8285015260018c83015287606083015260808201525f60a08201526142bd610912565b918252828201528951809381928a83528d830161333f565b03815f865af190816143f1575b506142ff5787876142f25f600d55565b516317c3402f60e01b8152fd5b61437e9484936143296143356143136144fb565b9561431c6154bb565b8c519384918a830161089b565b039081018352826106a0565b61433d6108f3565b308152915f8388015260018b840152606083015260808201525f60a0820152614364610912565b938452848401525f885180978195829483528c830161333f565b03925af191826143d3575b505061439957506142f25f600d55565b9150600d549051907f03d364024f6102dfc5e23f488f1e462c8e58afc717a21875496e0adc2132d1b43092806143ce816140d6565b0390a3565b816143e992903d10610e0e57610dff81836106a0565b505f80614389565b61440790863d8811610e0e57610dff81836106a0565b505f6142e2565b614426919450853d8711610e0e57610dff81836106a0565b925f61422a565b600d548015614493576001600160a01b03614446614497565b1691823b156103a75760405163dbf7117760e01b815260048101929092526001600160a01b03166024820152905f908290818381604481015b03925af161448a5750565b6106fe90610637565b5050565b61a4b146146144e35761a4ec46146144cb5762014a34460361564a57734ca7230fb6b78875bdd1b1e4f665b7b7f189123990565b738791ac8c099314bb1d1514d76de13a1e8027595090565b736dc1d6b864e8bef815806f9e4677123496e1202690565b600a46146146415762aa37dc461461461d5761a4b146146145f95762aa36a746146145d55762014a3446146145b15761a4ec461461458d57610531461461456957610530460361564a577f76f38d22f88a0df52a8ff0763e1c0af912b0822e758be2e0c9cded91aef71d2290565b7f1b4365b92aa47de3f67cdfb53127518381c1e66e0d9e0f8a15bbfa725095096790565b7f9895e82115987d8e3e02b35ced92e6a0509293890333f58f50ec291b34853dac90565b7f9b06f811608d135f913c18295486693fe626f35e213a7d132be87b1f952e508c90565b7f2c270e35bfcdc4d611f0e9d3d2ab6924ec6c673505abc22a1dd07e19b67211af90565b7f16bfe4783b7a9c743c401222c56a07ecb77ed42afc84b61ff1f62f5936c0b9d790565b7fd193e75f420a69910f98fa79cacdfd9d0dcbf5933edce8f8bde9a10bd204d99690565b7f70a3f615f738fc6a4f56100692ada93d947c028b840940d97af7e7d6f0fa057790565b9295919094956146736137b4565b939150506201518094614687864204613730565b956147106146a462023ab189049861469e8a615686565b90615679565b61469e6146ef6146e96146e36146db6146cf6146c46105b4880488615679565b618eac880490613778565b62023ab0870490615679565b61016d900490565b9b61569e565b8b613778565b9960646147086146fe836156b5565b8360021c90613778565b910490615679565b9661474e61474961473261472b6147268c6156c7565b613740565b6099900490565b9961469e6147426147268d6156d8565b6005900490565b61374e565b97600a811015614ab7576147619061375c565b915b6002831115614aa7575b4206610e109161477c90615c22565b9261478690615c91565b9861479090615c91565b9161479c818304615ce9565b908206603c90046147ac90615ce9565b91603c90066147ba90615ce9565b926040519a8b95602087016147ce916134f3565b602d60f81b81526001016147e1916134f3565b602d60f81b81526001016147f4916134f3565b601560fa1b8152600101614807916134f3565b601d60f91b815260010161481a916134f3565b601d60f91b815260010161482d916134f3565b64171818182d60d91b81526005010397601f1998898101885261485090886106a0565b369061485b9261093a565b61486490614c04565b9561487036848461093a565b61487990614c04565b9836906148859261093a565b61488e90614c04565b91369061489a9261093a565b6148a390614c04565b906148ad466156ff565b926148b7906156ff565b936148c1906157a2565b604051693d913a34ba3632911d1160b11b6020820152988997919691602a89016148ea916134f3565b691116113a32bc3a111d1160b11b8152600a01614906916134f3565b6e11161139ba30b93a2230ba32911d1160891b8152600f0161492890826134f3565b6c11161132b7322230ba32911d1160991b8152600d01614947916134f3565b7f222c2264656c6976657261626c6573223a5b7b226e616d65223a22576f726b2081527f45766964656e6365222c2270726f6f66223a22697066733a2f2f0000000000006020820152603a0161499c916134f3565b701116113232b9b1b934b83a34b7b7111d1160791b81526011016149bf916134f3565b7f227d5d2c226c696e6b73223a5b7b2274797065223a226f74686572222c22757281527f6c223a2268747470733a2f2f677265656e676f6f64732e6d652f67617264656e6020820152602f60f81b6040820152604101614a1e916134f3565b602f60f81b8152600101614a31916134f3565b6705eeedee4d65e60f60c31b8152600801614a4b916134f3565b7f222c226c6162656c223a225669657720696e20477265656e20476f6f6473227d81527f5d2c2274797065223a2270726f6a6563742d757064617465227d0000000000006020820152603a010390810182526108ac90826106a0565b90614ab19061374e565b9061476d565b614ac09061565c565b91614763565b600b614ad3605592615857565b602081519101206040519060408201527f97f795a08410e77dc9dbbaba3915f17c601e45642518dd578bd440d8775bfee460208201523081520160ff81532090565b614b1e90615857565b805115614ba15780516001600160a01b03917f97f795a08410e77dc9dbbaba3915f17c601e45642518dd578bd440d8775bfee491906020015ff51615614b6057565b60405162461bcd60e51b8152602060048201526019602482015278437265617465323a204661696c6564206f6e206465706c6f7960381b6044820152606490fd5b606460405162461bcd60e51b815260206004820152602060248201527f437265617465323a2062797465636f6465206c656e677468206973207a65726f6044820152fd5b90815181101561273e570160200190565b5f19811461372b5760010190565b905f805b8351811015614c6357601160f91b614c41614c34614c268488614be5565b516001600160f81b03191690565b6001600160f81b03191690565b14614c4f575b600101614c08565b90614c5b600191614bf6565b919050614c47565b508015614cf557614c78614c7d918451613778565b612ab1565b5f925f5b8151811015614cee57600190601160f91b614ca2614c34614c268487614be5565b14614cd3575b614cb5614c268285614be5565b95614ccc614cc282614bf6565b975f1a9186614be5565b5301614c81565b605c614ce8614ce188614bf6565b9786614be5565b53614ca8565b5090925050565b50565b4603614d6257803b15614d62576040516331a9108f60e11b81526004810192909252602090829060249082906001600160a01b03165afa5f9181614d41575b506108ac57505f90565b614d5b91925060203d60201161291a5761290b81836106a0565b905f614d37565b50505f90565b600d548015614493576001600160a01b03614d81614497565b1691823b156103a757604051632c1a4e4360e21b815260048101929092526001600160a01b03166024820152905f9082908183816044810161447f565b915f928392602083519301915af190614dd5613785565b9115614ddd57565b50602081519101fd5b907f0000000000000000000000000000000000000000000000000000000000000000917f00000000000000000000000000000000000000000000000000000000000000005b614e36818584615920565b15614edc5760408051637e062a3560e11b815292606091908290859060049082906001600160a01b03165afa938415612074575f915f935f96614e8c575b50505092614e8591614e3694614cf8565b9150614e2b565b92509250809450813d8311614ed5575b614ea681836106a0565b810103126103a75782614e8591614e36945190602083015192614ec8846108e2565b0151909190948193614e74565b503d614e9c565b509150565b5f9192908291604051614f18816134206020820194630b135d3f60e11b998a87526024840152604060448401526064830190610876565b51915afa90614f25613785565b82614f4e575b82614f3557505090565b614f4a91925060208082518301019101613330565b1490565b915060208251101591614f2b565b9060418151145f14614f845761045291602082015190606060408401519301515f1a906159a8565b50505f90600290565b337f00000000000000000000000000000000000000000000000000000000000000006001600160a01b03161480614fd4575b15614fd05736601319013560601c90565b3390565b506014361015614fbf565b90614fe9826150e7565b6001600160a01b0382167fbc7cd75a20ee27fd9adebab32041f755214dbc6bffa90cc0225b39da2e5c2d3b5f80a280511580159061508e575b61502a575050565b614cf5915f806040519361503d85610685565b602785527f416464726573733a206c6f772d6c6576656c2064656c65676174652063616c6c6020860152660819985a5b195960ca1b6040860152602081519101845af4615088613785565b91615d9b565b506001615022565b906150a0826150e7565b6001600160a01b0382167fbc7cd75a20ee27fd9adebab32041f755214dbc6bffa90cc0225b39da2e5c2d3b5f80a28051158015906150e05761502a575050565b505f615022565b803b1561511b575f80516020615e4d83398151915280546001600160a01b0319166001600160a01b03909216919091179055565b60405162461bcd60e51b815260206004820152602d60248201527f455243313936373a206e657720696d706c656d656e746174696f6e206973206e60448201526c1bdd08184818dbdb9d1c9858dd609a1b6064820152608490fd5b600a46146152bc5762aa37dc46146152985761a4b146146152745762aa36a746146152505762014a34461461522c5761a4ec46146152085761053146146151e457610530460361564a577f9de9294fbb62391b393332a33bfc28b4e0e728dd094aee4bda3955df62f8401a90565b7ff6b89107f8096220051240b89a48abb66e0a23e529c914953b80f5a2bc5ea44c90565b7ff3f753b41e04d1052b5a5ec7624d1dfdb6c2da288a985120e477ddbcac07102290565b7f5ddd6b7a11406771308431ca9bd146cc717848b74b52993a532dc1aad0ccc83f90565b7fec77990a252b54b17673955c774b9712766de5eecb22ca5aa2c440e0e93257fb90565b7fac2a06e955a7e25e6729efe1a6532237e3435b21ccd3dc827ae3c94e624d25b390565b7ff9bbd118dd100459a7d093403af21c6e7f847fd7f331b7a4e6bfb94a1366bd7690565b7f5b873b6e7a16207b526dde366e8164e95bcda2f009272306519667c5e94d219190565b600a46146154265762aa37dc46146154025761a4b146146153de5762aa36a746146153ba5762014a3446146153965761a4ec461461537257610531461461534e57610530460361564a577f222fa508c0cdb5954905dd30611a940f6402da2b3c49ce0c88d33e22f72121e790565b7fb7278b94cea2b9f1a8fdd1c4bb52ed66906516a0ff9d59d0f80daffcf147ea5d90565b7fb4186a2401f40a4c78768941ef9140e1fbe5fe595053a65d44f31d6df180b71290565b7f857398d86e2d31bec5af882b950ee7b00d1fefefba2432737ab28b68ee041eb890565b7fdd87b3500457931252424f4439365534ba72a367503a8805ff3482353fb9030190565b7f5f430aec9d04f0dcb3729775c5dfe10752e436469a7607f8c64ae44ef996e47790565b7f611f9655188f372e27dce116a803fa9081ca3e2907986368d54fcad538ca385390565b7f7fbb8a65924d8ad2ae12356e04b1418043e8361ba3b1b6c917de2e23df3ec81c90565b6008545f9291615459826105eb565b916001908181169081156154a8575060011461547457505050565b909192935060085f5260209060205f20905f915b85831061549757505050500190565b805485840152918301918101615488565b60ff191683525050811515909102019150565b6154c66008546105eb565b1561563d576040517568747470733a2f2f7733732e6c696e6b2f697066732f60501b60208201526154fd816134206036820161544a565b6155056106c1565b61550e90614c04565b6155166107da565b61551f90614c04565b9161552861075f565b61553190614c04565b9061553b90614c04565b6155436106c1565b61554c90615a37565b61555590614c04565b604051693d913a34ba3632911d1160b11b6020820152948594919391602a860161557e916134f3565b701116113232b9b1b934b83a34b7b7111d1160791b81526011016155a1916134f3565b751116113637b1b0ba34b7b727b324b6b830b1ba111d1160511b81526016016155c9916134f3565b6d11161134b6b0b3b2aaa926111d1160911b8152600e016155e9916134f3565b6911161139b63ab3911d1160b11b8152600a01615605916134f3565b7f222c2274797065223a2270726f6a6563742d64657461696c73227d00000000008152601b0103601f19810182526108ac90826106a0565b615645612a5b565b6154fd565b604051633cb9b43760e01b8152600490fd5b60081981019190821161372b57565b5f1981019190821161372b57565b9190820391821161372b57565b9062023ab19182810292818404149015171561372b57565b906101909182810292818404149015171561372b57565b9061016d918083029283040361372b57565b908160050291600583040361372b57565b908160990291609983040361372b57565b908160011b918083046002149015171561372b57565b801561578457805f81805b61576c575061571881612ab1565b925b61572357505090565b61572c9061566b565b90600a9061575761574761574184840661376a565b60ff1690565b60f81b6001600160f81b03191690565b5f1a6157638486614be5565b5304908161571a565b9150615779600a91614bf6565b91048083929161570a565b506040516157918161064f565b60018152600360fc1b602082015290565b604051906157af82610685565b604082526020906040366020850137604051906157cb8261064f565b601082526f181899199a1a9b1b9c1cb0b131b232b360811b60208301525f5b8381106157f8575050505090565b80615837614c26846001941a600f90615819614c26838360041c168a614be5565b61582f615825876156e9565b915f1a918c614be5565b531686614be5565b615850615846614749846156e9565b915f1a9188614be5565b53016157ea565b6108ac60346158ef926040519061586d8261064f565b600e825260208201906d604380600d600039806000f3fe7360901b825261591160405161589981610685565b602e815260208101937f3314601d573d3dfd5b363d3d373d3d6014360360143d5160601c5af43d60008085526d3e80603e573d6000fd5b3d6000f360901b60408301526040519889965180926020890190610855565b8501926001600160601b03199060601b16602084015251809386840190610855565b010360148101845201826106a0565b9160ad833b036159a1576014600a600c853c5f5190813b15613a95576001600160a01b0392831682841603613a9557615957612a6d565b60208101916080602d84883c6080828051810103126103a75761599b936133f09351604084015191876080606087015196615991886108e2565b0151951693613ab0565b91161490565b5050505f90565b6fa2a8918ca85bafe22016d0b997e4df60600160ff1b038411615a0e576020935f9360ff60809460405194855216868401526040830152606082015282805260015afa15612074575f516001600160a01b03811615615a0657905f90565b505f90600190565b505050505f90600390565b60ff60209116019060ff821161372b57565b801561372b575f190190565b90615a428251612ab1565b915f905f5b8151811015615b9c57615a5d614c268284614be5565b6001600160f81b0319818116604160f81b81101580615b8e575b15615aaf57505090615a9061574760019360f81c615a19565b93615aa7615a9d82614bf6565b955f1a9188614be5565b535b01615a47565b919491606160f81b81101580615b80575b15615ade5750509081615ad8615a9d60019492614bf6565b53615aa9565b600360fc1b81101580615b72575b15615b045750509081615ad8615a9d60019492614bf6565b91945060019291600160fd1b14615b1c575b50615aa9565b8415159081615b4d575b50615b32575b5f615b16565b602d615b47615b4086614bf6565b9588614be5565b53615b2c565b602d60f81b9150615b69614c26615b638861566b565b8a614be5565b1614155f615b26565b50603960f81b811115615aec565b50603d60f91b811115615ac0565b50602d60f91b811115615a77565b505080151580615bf7575b615be9575b615bb581612ab1565b905f5b818110615bc6575090925050565b80615bd6614c2660019388614be5565b5f1a615be28286614be5565b5301615bb8565b615bf290615a2b565b615bac565b50602d60f81b6001600160f81b0319615c1b614c26615c158561566b565b87614be5565b1614615ba7565b60405190615c2f8261064f565b6004825260203681840137600490815b615c4857505090565b600a603091818106830180931161372b575f19840184811161372b57615c8a9360f81b6001600160f81b0319165f1a90615c829087614be5565b530491615a2b565b9081615c3f565b615c99612a97565b90600290815b615ca857505090565b600a603091818106830180931161372b575f19840184811161372b57615ce29360f81b6001600160f81b0319165f1a90615c829087614be5565b9081615c9f565b615cf1612a97565b90600290815b615d0057505090565b600a603091818106830180931161372b575f19840184811161372b57615d3a9360f81b6001600160f81b0319165f1a90615c829087614be5565b9081615cf7565b337f00000000000000000000000000000000000000000000000000000000000000006001600160a01b03161480615d90575b15615d8a5760131936019036821161372b575f9190565b5f903690565b506014361015615d73565b91929015615dfd5750815115615daf575090565b3b15615db85790565b60405162461bcd60e51b815260206004820152601d60248201527f416464726573733a2063616c6c20746f206e6f6e2d636f6e74726163740000006044820152606490fd5b825190915015615e105750805190602001fd5b60405162461bcd60e51b8152908190610dcd906004830161089b56fe036b6384b5eca791c62761152d0c79bb0604c104a5fb6f4eb0703f3154bb3db0360894a13ba1a3210667c828492db98dca3e2076cc3735a920a3ca505d382bbca164736f6c6343000819000a","linkReferences":{}},"methodIdentifiers":{"ASSESSMENT_RESOLVER()":"3a208f95","WORK_APPROVAL_RESOLVER()":"bcc5cf88","addGardenOperator(address)":"eed9df74","addGardener(address)":"eaff6dc9","bannerImage()":"94def29d","communityToken()":"29aa1617","createProjectImpact(string,string,string,bytes32)":"5bcf5dce","createProjectMilestone(string,string,string)":"81eec6bb","description()":"7284e416","entryPoint()":"b0d691fe","erc6551Registry()":"056d5afe","execute(address,uint256,bytes,uint8)":"51945447","executeBatch((address,uint256,bytes,uint8)[])":"43629a73","executeNested(address,uint256,bytes,uint8,(bytes32,address,uint256)[])":"1fb1ecf0","extcall(address,uint256,bytes)":"b709467c","extcreate(uint256,bytes)":"45a24e3e","extcreate2(uint256,bytes32,bytes)":"34715fb1","extsload(bytes32)":"1e2eaeaf","gapProjectUID()":"f7fc57b0","gardenOperators(address)":"7597bc7c","gardeners(address)":"1f6e45e3","getGAPProjectUID()":"f89b9b93","getNonce()":"d087d288","initialize((address,string,string,string,string,string,bool,address[],address[]))":"59ec3801","isLocked()":"a4e2d634","isTrustedForwarder(address)":"572b6c05","isValidSignature(bytes32,bytes)":"1626ba7e","isValidSigner(address,bytes)":"523e3260","joinGarden()":"b10006a6","location()":"516f279e","lock(uint256)":"dd467064","lockedUntil()":"ce0617ec","metadata()":"392f37e9","name()":"06fdde03","onERC1155BatchReceived(address,address,uint256[],uint256[],bytes)":"bc197c81","onERC1155Received(address,address,uint256,uint256,bytes)":"f23a6e61","onERC721Received(address,address,uint256,bytes)":"150b7a02","openJoining()":"291d0548","overrides(address,bytes4)":"ee9c6054","owner()":"8da5cb5b","permissions(address,address)":"1f9838b5","proxiableUUID()":"52d1902d","removeGardenOperator(address)":"adbce85e","removeGardener(address)":"eeb97057","setOpenJoining(bool)":"98b7a25a","setOverrides(bytes4[],address[])":"7a8f7356","setPermissions(address[],bool[])":"039721b1","state()":"c19d93fb","supportsInterface(bytes4)":"01ffc9a7","token()":"fc0c546a","updateDescription(string)":"e735b48a","updateName(string)":"84da92a7","upgradeTo(address)":"3659cfe6","upgradeToAndCall(address,bytes)":"4f1ef286","validateUserOp((address,uint256,bytes,bytes,uint256,uint256,uint256,uint256,uint256,bytes,bytes),bytes32,uint256)":"3a871cdd"},"id":132}