{"abi":[{"type":"constructor","inputs":[{"name":"gardenAccountImplementation","type":"address","internalType":"address"}],"stateMutability":"nonpayable"},{"type":"function","name":"approve","inputs":[{"name":"to","type":"address","internalType":"address"},{"name":"tokenId","type":"uint256","internalType":"uint256"}],"outputs":[],"stateMutability":"nonpayable"},{"type":"function","name":"balanceOf","inputs":[{"name":"owner","type":"address","internalType":"address"}],"outputs":[{"name":"","type":"uint256","internalType":"uint256"}],"stateMutability":"view"},{"type":"function","name":"batchMintGardens","inputs":[{"name":"configs","type":"tuple[]","internalType":"struct GardenToken.GardenConfig[]","components":[{"name":"communityToken","type":"address","internalType":"address"},{"name":"name","type":"string","internalType":"string"},{"name":"description","type":"string","internalType":"string"},{"name":"location","type":"string","internalType":"string"},{"name":"bannerImage","type":"string","internalType":"string"},{"name":"metadata","type":"string","internalType":"string"},{"name":"openJoining","type":"bool","internalType":"bool"}]}],"outputs":[{"name":"gardenAccounts","type":"address[]","internalType":"address[]"}],"stateMutability":"nonpayable"},{"type":"function","name":"deploymentRegistry","inputs":[],"outputs":[{"name":"","type":"address","internalType":"address"}],"stateMutability":"view"},{"type":"function","name":"getApproved","inputs":[{"name":"tokenId","type":"uint256","internalType":"uint256"}],"outputs":[{"name":"","type":"address","internalType":"address"}],"stateMutability":"view"},{"type":"function","name":"hatsModule","inputs":[],"outputs":[{"name":"","type":"address","internalType":"contract IHatsModule"}],"stateMutability":"view"},{"type":"function","name":"initialize","inputs":[{"name":"_multisig","type":"address","internalType":"address"},{"name":"_deploymentRegistry","type":"address","internalType":"address"}],"outputs":[],"stateMutability":"nonpayable"},{"type":"function","name":"isApprovedForAll","inputs":[{"name":"owner","type":"address","internalType":"address"},{"name":"operator","type":"address","internalType":"address"}],"outputs":[{"name":"","type":"bool","internalType":"bool"}],"stateMutability":"view"},{"type":"function","name":"karmaGAPModule","inputs":[],"outputs":[{"name":"","type":"address","internalType":"contract IKarmaGAPModule"}],"stateMutability":"view"},{"type":"function","name":"mintGarden","inputs":[{"name":"config","type":"tuple","internalType":"struct GardenToken.GardenConfig","components":[{"name":"communityToken","type":"address","internalType":"address"},{"name":"name","type":"string","internalType":"string"},{"name":"description","type":"string","internalType":"string"},{"name":"location","type":"string","internalType":"string"},{"name":"bannerImage","type":"string","internalType":"string"},{"name":"metadata","type":"string","internalType":"string"},{"name":"openJoining","type":"bool","internalType":"bool"}]}],"outputs":[{"name":"","type":"address","internalType":"address"}],"stateMutability":"nonpayable"},{"type":"function","name":"name","inputs":[],"outputs":[{"name":"","type":"string","internalType":"string"}],"stateMutability":"view"},{"type":"function","name":"owner","inputs":[],"outputs":[{"name":"","type":"address","internalType":"address"}],"stateMutability":"view"},{"type":"function","name":"ownerOf","inputs":[{"name":"tokenId","type":"uint256","internalType":"uint256"}],"outputs":[{"name":"","type":"address","internalType":"address"}],"stateMutability":"view"},{"type":"function","name":"proxiableUUID","inputs":[],"outputs":[{"name":"","type":"bytes32","internalType":"bytes32"}],"stateMutability":"view"},{"type":"function","name":"renounceOwnership","inputs":[],"outputs":[],"stateMutability":"nonpayable"},{"type":"function","name":"safeTransferFrom","inputs":[{"name":"from","type":"address","internalType":"address"},{"name":"to","type":"address","internalType":"address"},{"name":"tokenId","type":"uint256","internalType":"uint256"}],"outputs":[],"stateMutability":"nonpayable"},{"type":"function","name":"safeTransferFrom","inputs":[{"name":"from","type":"address","internalType":"address"},{"name":"to","type":"address","internalType":"address"},{"name":"tokenId","type":"uint256","internalType":"uint256"},{"name":"data","type":"bytes","internalType":"bytes"}],"outputs":[],"stateMutability":"nonpayable"},{"type":"function","name":"setApprovalForAll","inputs":[{"name":"operator","type":"address","internalType":"address"},{"name":"approved","type":"bool","internalType":"bool"}],"outputs":[],"stateMutability":"nonpayable"},{"type":"function","name":"setDeploymentRegistry","inputs":[{"name":"_deploymentRegistry","type":"address","internalType":"address"}],"outputs":[],"stateMutability":"nonpayable"},{"type":"function","name":"setHatsModule","inputs":[{"name":"_hatsModule","type":"address","internalType":"address"}],"outputs":[],"stateMutability":"nonpayable"},{"type":"function","name":"setKarmaGAPModule","inputs":[{"name":"_karmaGAPModule","type":"address","internalType":"address"}],"outputs":[],"stateMutability":"nonpayable"},{"type":"function","name":"supportsInterface","inputs":[{"name":"interfaceId","type":"bytes4","internalType":"bytes4"}],"outputs":[{"name":"","type":"bool","internalType":"bool"}],"stateMutability":"view"},{"type":"function","name":"symbol","inputs":[],"outputs":[{"name":"","type":"string","internalType":"string"}],"stateMutability":"view"},{"type":"function","name":"tokenURI","inputs":[{"name":"tokenId","type":"uint256","internalType":"uint256"}],"outputs":[{"name":"","type":"string","internalType":"string"}],"stateMutability":"view"},{"type":"function","name":"transferFrom","inputs":[{"name":"from","type":"address","internalType":"address"},{"name":"to","type":"address","internalType":"address"},{"name":"tokenId","type":"uint256","internalType":"uint256"}],"outputs":[],"stateMutability":"nonpayable"},{"type":"function","name":"transferOwnership","inputs":[{"name":"newOwner","type":"address","internalType":"address"}],"outputs":[],"stateMutability":"nonpayable"},{"type":"function","name":"upgradeTo","inputs":[{"name":"newImplementation","type":"address","internalType":"address"}],"outputs":[],"stateMutability":"nonpayable"},{"type":"function","name":"upgradeToAndCall","inputs":[{"name":"newImplementation","type":"address","internalType":"address"},{"name":"data","type":"bytes","internalType":"bytes"}],"outputs":[],"stateMutability":"payable"},{"type":"event","name":"AdminChanged","inputs":[{"name":"previousAdmin","type":"address","indexed":false,"internalType":"address"},{"name":"newAdmin","type":"address","indexed":false,"internalType":"address"}],"anonymous":false},{"type":"event","name":"Approval","inputs":[{"name":"owner","type":"address","indexed":true,"internalType":"address"},{"name":"approved","type":"address","indexed":true,"internalType":"address"},{"name":"tokenId","type":"uint256","indexed":true,"internalType":"uint256"}],"anonymous":false},{"type":"event","name":"ApprovalForAll","inputs":[{"name":"owner","type":"address","indexed":true,"internalType":"address"},{"name":"operator","type":"address","indexed":true,"internalType":"address"},{"name":"approved","type":"bool","indexed":false,"internalType":"bool"}],"anonymous":false},{"type":"event","name":"BatchGardensMinted","inputs":[{"name":"startTokenId","type":"uint256","indexed":true,"internalType":"uint256"},{"name":"endTokenId","type":"uint256","indexed":true,"internalType":"uint256"},{"name":"minter","type":"address","indexed":true,"internalType":"address"},{"name":"count","type":"uint256","indexed":false,"internalType":"uint256"}],"anonymous":false},{"type":"event","name":"BeaconUpgraded","inputs":[{"name":"beacon","type":"address","indexed":true,"internalType":"address"}],"anonymous":false},{"type":"event","name":"GardenMinted","inputs":[{"name":"tokenId","type":"uint256","indexed":true,"internalType":"uint256"},{"name":"account","type":"address","indexed":true,"internalType":"address"},{"name":"name","type":"string","indexed":false,"internalType":"string"},{"name":"description","type":"string","indexed":false,"internalType":"string"},{"name":"location","type":"string","indexed":false,"internalType":"string"},{"name":"bannerImage","type":"string","indexed":false,"internalType":"string"},{"name":"openJoining","type":"bool","indexed":false,"internalType":"bool"}],"anonymous":false},{"type":"event","name":"HatsModuleUpdated","inputs":[{"name":"oldModule","type":"address","indexed":true,"internalType":"address"},{"name":"newModule","type":"address","indexed":true,"internalType":"address"}],"anonymous":false},{"type":"event","name":"Initialized","inputs":[{"name":"version","type":"uint8","indexed":false,"internalType":"uint8"}],"anonymous":false},{"type":"event","name":"KarmaGAPModuleUpdated","inputs":[{"name":"oldModule","type":"address","indexed":true,"internalType":"address"},{"name":"newModule","type":"address","indexed":true,"internalType":"address"}],"anonymous":false},{"type":"event","name":"OwnershipTransferred","inputs":[{"name":"previousOwner","type":"address","indexed":true,"internalType":"address"},{"name":"newOwner","type":"address","indexed":true,"internalType":"address"}],"anonymous":false},{"type":"event","name":"Transfer","inputs":[{"name":"from","type":"address","indexed":true,"internalType":"address"},{"name":"to","type":"address","indexed":true,"internalType":"address"},{"name":"tokenId","type":"uint256","indexed":true,"internalType":"uint256"}],"anonymous":false},{"type":"event","name":"Upgraded","inputs":[{"name":"implementation","type":"address","indexed":true,"internalType":"address"}],"anonymous":false},{"type":"error","name":"CommunityTokenNotContract","inputs":[]},{"type":"error","name":"DeploymentRegistryNotConfigured","inputs":[]},{"type":"error","name":"HatsModuleNotSet","inputs":[]},{"type":"error","name":"InvalidBatchSize","inputs":[]},{"type":"error","name":"InvalidCommunityToken","inputs":[]},{"type":"error","name":"InvalidERC20Token","inputs":[]},{"type":"error","name":"UnauthorizedMinter","inputs":[]}],"bytecode":{"object":"0x60c03461013357601f612cbe38819003918201601f19168301916001600160401b038311848410176101375780849260209460405283398101031261013357516001600160a01b0381168103610133573060805260a0525f5460ff8160081c166100de5760ff808216036100a4575b604051612b72908161014c823960805181818161073f0152818161082d0152610f46015260a05181818161118d01526115a00152f35b60ff90811916175f557f7f26b83ff96e1f2b6a682f133852f6798a09c465da95921460cefb3847402498602060405160ff8152a15f61006e565b60405162461bcd60e51b815260206004820152602760248201527f496e697469616c697a61626c653a20636f6e747261637420697320696e697469604482015266616c697a696e6760c81b6064820152608490fd5b5f80fd5b634e487b7160e01b5f52604160045260245ffdfe6080806040526004361015610012575f80fd5b5f3560e01c90816301ffc9a7146119ee5750806306fdde0314611945578063081812fc14611927578063095ea7b3146117b3578063134bb761146113f157806314902ad3146113ae5780631744d5ad146110fd57806323b872dd146110d95780633659cfe614610f215780634026d76214610ef957806342842e0e14610ec7578063485cc95514610a6e5780634f1ef286146107ef57806352d1902d1461072d5780636352211e146106fd57806370a0823114610668578063715018a61461060d5780638da5cb5b146105e557806395d89b4114610507578063a22cb46514610439578063adcb9221146103d0578063b4a9c607146103a8578063b88d4fde14610334578063c66310921461030c578063c87b56dd1461029e578063d9e4aaee14610235578063e985e9c5146101e35763f2fde38b14610150575f80fd5b346101df5760203660031901126101df57610169611a97565b6101716124f8565b6001600160a01b0381161561018b5761018990612783565b005b60405162461bcd60e51b815260206004820152602660248201527f4f776e61626c653a206e6577206f776e657220697320746865207a65726f206160448201526564647265737360d01b6064820152608490fd5b5f80fd5b346101df5760403660031901126101df576101fc611a97565b610204611aad565b9060018060a01b038091165f52606a60205260405f2091165f52602052602060ff60405f2054166040519015158152f35b346101df5760203660031901126101df5761024e611a97565b6102566124f8565b60cc80546001600160a01b039283166001600160a01b0319821681179092559091167fdbf2e72ed7bd92ccbb36e552bb0c1a8df6df7e6a54ab7ddc78720975e93fc88e5f80a3005b346101df5760203660031901126101df576004355f908152606760205260409020546102d4906001600160a01b03161515611ecd565b5f6040516102e181611b0b565b526103086040516102f181611b0b565b5f8152604051918291602083526020830190611a59565b0390f35b346101df575f3660031901126101df5760ca546040516001600160a01b039091168152602090f35b346101df5760803660031901126101df5761034d611a97565b610355611aad565b90606435906044356001600160401b0383116101df57610189936103806103a3943690600401611bce565b9261039361038e8433612550565b611da9565b61039e838383612614565b6129ec565b61281e565b346101df575f3660031901126101df5760cb546040516001600160a01b039091168152602090f35b346101df5760203660031901126101df576103e9611a97565b6103f16124f8565b60cb80546001600160a01b039283166001600160a01b0319821681179092559091167fc8fef5c294d0999b744f1c0123bb9e98e3e739de8245692fde6df4f4625efc505f80a3005b346101df5760403660031901126101df57610452611a97565b602435908115158092036101df576001600160a01b0316903382146104c257335f52606a60205260405f20825f5260205260405f2060ff1981541660ff83161790556040519081527f17307eab39ab6107e8899845ad3d59bd9653f200f220920489ca2b5937696c3160203392a3005b60405162461bcd60e51b815260206004820152601960248201527f4552433732313a20617070726f766520746f2063616c6c6572000000000000006044820152606490fd5b346101df575f3660031901126101df576040516066545f8261052883611bec565b91828252602093600190856001821691825f146105c557505060011461056a575b5061055692500383611b5c565b610308604051928284938452830190611a59565b84915060665f527f46501879b8ca8525e8c2fd519e2fbfcfa2ebea26501294aa02cbfcfb12e94354905f915b8583106105ad575050610556935082010185610549565b80548389018501528794508693909201918101610596565b60ff19168582015261055695151560051b85010192508791506105499050565b346101df575f3660031901126101df576097546040516001600160a01b039091168152602090f35b346101df575f3660031901126101df576106256124f8565b609780546001600160a01b031981169091555f906001600160a01b03167f8be0079c531659141344cd1fd0a4f28419497f9722a3daafe3b4186f6b6457e08280a3005b346101df5760203660031901126101df576001600160a01b03610689611a97565b1680156106a6575f526068602052602060405f2054604051908152f35b60405162461bcd60e51b815260206004820152602960248201527f4552433732313a2061646472657373207a65726f206973206e6f7420612076616044820152683634b21037bbb732b960b91b6064820152608490fd5b346101df5760203660031901126101df57602061071b600435611f19565b6040516001600160a01b039091168152f35b346101df575f3660031901126101df577f00000000000000000000000000000000000000000000000000000000000000006001600160a01b031630036107845760206040515f80516020612b468339815191528152f35b60405162461bcd60e51b815260206004820152603860248201527f555550535570677261646561626c653a206d757374206e6f742062652063616c60448201527f6c6564207468726f7567682064656c656761746563616c6c00000000000000006064820152608490fd5b60403660031901126101df57610803611a97565b6024356001600160401b0381116101df57610822903690600401611bce565b906001600160a01b037f000000000000000000000000000000000000000000000000000000000000000081169061085b30831415611e0b565b6108775f80516020612b46833981519152928284541614611e6c565b61087f6124f8565b7f4910fdfa16fed3260ed0e7147f7cc6da11a60208b5b9406d12a635614ffd91435460ff16156108b55750506101899150612842565b6040516352d1902d60e01b81526020939291831691908481600481865afa5f9181610a3f575b5061093c5760405162461bcd60e51b815260048101869052602e60248201527f45524331393637557067726164653a206e657720696d706c656d656e7461746960448201526d6f6e206973206e6f74205555505360901b6064820152608490fd5b036109e85761094a82612842565b7fbc7cd75a20ee27fd9adebab32041f755214dbc6bffa90cc0225b39da2e5c2d3b5f80a28251158015906109e0575b61097f57005b5f80610189946040519461099286611b26565b602786527f416464726573733a206c6f772d6c6576656c2064656c65676174652063616c6c81870152660819985a5b195960ca1b604087015281519101845af46109da6128d1565b91612aac565b506001610979565b60405162461bcd60e51b815260048101849052602960248201527f45524331393637557067726164653a20756e737570706f727465642070726f786044820152681a58589b195555525160ba1b6064820152608490fd5b9091508581813d8311610a67575b610a578183611b5c565b810103126101df575190876108db565b503d610a4d565b346101df5760403660031901126101df57610a87611a97565b610a8f611aad565b905f549160ff8360081c161590818092610eba575b8015610ea3575b15610e4757600193828560ff198316175f55610e36575b5060405192610ad084611b41565b601284526020937123b932b2b71023b7b7b2399023b0b93232b760711b8582015260405190610afe82611b41565b600382526247474760e81b86830152610b2660ff5f5460081c16610b2181612723565b612723565b8051916001600160401b0392838111610d2b5780610b45606554611bec565b93601f94858111610dc9575b508990858311600114610d4a575f92610d3f575b50505f19600383901b1c191690891b176065555b8051928311610d2b57610b8d606654611bec565b828111610cc9575b5086918311600114610c4557610be59392915f9183610c3a575b50505f19600383901b1c191690871b176066555b610bd760ff5f5460081c16610b2181612723565b610be033612783565b612783565b60018060a01b03166001600160601b0360a01b60ca54161760ca55610c0657005b7f7f26b83ff96e1f2b6a682f133852f6798a09c465da95921460cefb38474024989161ff00195f54165f55604051908152a1005b015190508880610baf565b92918791601f1982169060665f527f46501879b8ca8525e8c2fd519e2fbfcfa2ebea26501294aa02cbfcfb12e94354915f5b8a828210610cb35750509583610be59710610c9b575b505050811b01606655610bc3565b01515f1960f88460031b161c19169055888080610c8d565b8389015185558c96909401939283019201610c77565b60665f527f46501879b8ca8525e8c2fd519e2fbfcfa2ebea26501294aa02cbfcfb12e943548380860160051c8201928a8710610d22575b0160051c019089905b828110610d17575050610b95565b5f8155018990610d09565b92508192610d00565b634e487b7160e01b5f52604160045260245ffd5b015190508a80610b65565b908b9350601f1983169160655f527f8ff97419363ffd7000167f130ef7168fbea05faf9251824ca5043f113cc6a7c7925f5b8d828210610db35750508411610d9b575b505050811b01606555610b79565b01515f1960f88460031b161c191690558a8080610d8d565b8385015186558f97909501949384019301610d7c565b90915060655f527f8ff97419363ffd7000167f130ef7168fbea05faf9251824ca5043f113cc6a7c78580850160051c8201928c8610610e2d575b918d91869594930160051c01915b828110610e1f575050610b51565b5f81558594508d9101610e11565b92508192610e03565b61ffff1916610101175f5584610ac2565b60405162461bcd60e51b815260206004820152602e60248201527f496e697469616c697a61626c653a20636f6e747261637420697320616c72656160448201526d191e481a5b9a5d1a585b1a5e995960921b6064820152608490fd5b50303b158015610aab5750600160ff851614610aab565b50600160ff851610610aa4565b346101df576101896103a3610edb36611ac3565b9060405192610ee984611b0b565b5f845261039361038e8433612550565b346101df575f3660031901126101df5760cc546040516001600160a01b039091168152602090f35b346101df576020806003193601126101df57610f3b611a97565b6001600160a01b03917f00000000000000000000000000000000000000000000000000000000000000008316610f7330821415611e0b565b610f8f5f80516020612b46833981519152918583541614611e6c565b610f976124f8565b60405193610fa485611b0b565b5f85527f4910fdfa16fed3260ed0e7147f7cc6da11a60208b5b9406d12a635614ffd91435460ff1615610fde575050506101899150612842565b83929316906040516352d1902d60e01b81528481600481865afa5f91816110aa575b506110615760405162461bcd60e51b815260048101869052602e60248201527f45524331393637557067726164653a206e657720696d706c656d656e7461746960448201526d6f6e206973206e6f74205555505360901b6064820152608490fd5b036109e85761106f82612842565b7fbc7cd75a20ee27fd9adebab32041f755214dbc6bffa90cc0225b39da2e5c2d3b5f80a28251158015906110a35761097f57005b505f610979565b9091508581813d83116110d2575b6110c28183611b5c565b810103126101df57519087611000565b503d6110b8565b346101df576101896110ea36611ac3565b916110f861038e8433612550565b612614565b346101df57602060031981813601126101df576004356001600160401b0381116101df5760e0816004019282360301126101df576097546001600160a01b03929083163303611311575b61115861115382611c9a565b611f3b565b8260cb5416156112ff5760c9545f1981146112eb576001810160c95561117e8133611fd9565b604051630918575160e11b81527f00000000000000000000000000000000000000000000000000000000000000006001600160a01b031660048201523060248201526044810182905292858460648173__$22345123dcf5f39d8c23eeef107f852197$__5af49182156112e05760c495611283955f9461128b575b5061127b7fd9622e038d73e9b439c5fda047b4a8ec1f5e41816b766fcdd534c56fc90704279161122c6024860188611cf1565b92909161123c604488018a611cf1565b9b90976112608b6112696112536064850183611cf1565b9390926084860190611cf1565b95909401611d23565b948c169e8f9b604051998a998a611d50565b0390a36120ea565b604051908152f35b7fd9622e038d73e9b439c5fda047b4a8ec1f5e41816b766fcdd534c56fc90704279194506112d161127b918a3d8c116112d9575b6112c98183611b5c565b810190611cd2565b9491506111f9565b503d6112bf565b6040513d5f823e3d90fd5b634e487b7160e01b5f52601160045260245ffd5b60405163127629f760e31b8152600490fd5b8260ca5416801561139c57846024916040519283809262a743f760e61b82523360048301525afa5f918161136d575b506113575760405163955c501b60e01b8152600490fd5b6111475760405163955c501b60e01b8152600490fd5b61138e919250863d8811611395575b6113868183611b5c565b810190611c60565b9086611340565b503d61137c565b604051631db3a6cb60e11b8152600490fd5b346101df5760203660031901126101df576113c7611a97565b6113cf6124f8565b60ca80546001600160a01b0319166001600160a01b0392909216919091179055005b346101df5760203660031901126101df576004356001600160401b038082116101df57366023830112156101df578160040135116101df5760248101366024836004013560051b840101116101df576097546001600160a01b0316330361172e575b8160040135158015611720575b61170e575f5b826004013581106116eb575060cb546001600160a01b0316156112ff576114908260040135611cae565b9161149e6040519384611b5c565b60048101358084526114af90611cae565b602084019290601f190136843760c954906114ce836004013583611cc5565b60c9555f5b8360040135811061156d57505060c9545f198101919082116112eb57604094939451926004013583527fce282076a1439bd4b653b5657c2ab7abea5a48b4572799f57582e79e357b59f760203394a4604051918291602083019060208452518091526040830191905f5b81811061154b575050500390f35b82516001600160a01b031684528594506020938401939092019160010161153d565b6115778184611cc5565b9061158781866004013585611c78565b6115918333611fd9565b604051630918575160e11b81527f00000000000000000000000000000000000000000000000000000000000000006001600160a01b03166004820152306024820152604481018490529060208260648173__$22345123dcf5f39d8c23eeef107f852197$__5af49182156112e0575f926116ca575b506116146020820182611cf1565b90946116236040840184611cf1565b926116316060860186611cf1565b9098906116416080880188611cf1565b9061164e60c08a01611d23565b92600160a01b600190038b169c8d9960405198899861166d988a611d50565b037fd9622e038d73e9b439c5fda047b4a8ec1f5e41816b766fcdd534c56fc907042791a361169a916120ea565b86518110156116b65760019160208260051b89010152016114d3565b634e487b7160e01b5f52603260045260245ffd5b6116e491925060203d6020116112d9576112c98183611b5c565b9089611606565b80611708611153611703600194876004013587611c78565b611c9a565b01611466565b604051637862e95960e01b8152600490fd5b50600a826004013511611460565b60ca546001600160a01b0316801561139c5760206024916040519283809262a743f760e61b82523360048301525afa5f9181611792575b5061177c5760405163955c501b60e01b8152600490fd5b6114535760405163955c501b60e01b8152600490fd5b6117ac91925060203d602011611395576113868183611b5c565b9084611765565b346101df5760403660031901126101df576117cc611a97565b602435906001600160a01b0380806117e385611f19565b169216918083146118d8578033149081156118b7575b501561184c575f83815260696020526040902080546001600160a01b0319168317905561182583611f19565b167f8c5be1e5ebec7d5bd14f71427d1e84f3dd0314c0f7b2291e5b200ac8c7c3b9255f80a4005b60405162461bcd60e51b815260206004820152603d60248201527f4552433732313a20617070726f76652063616c6c6572206973206e6f7420746f60448201527f6b656e206f776e6572206f7220617070726f76656420666f7220616c6c0000006064820152608490fd5b90505f52606a60205260405f20335f5260205260ff60405f205416846117f9565b60405162461bcd60e51b815260206004820152602160248201527f4552433732313a20617070726f76616c20746f2063757272656e74206f776e656044820152603960f91b6064820152608490fd5b346101df5760203660031901126101df57602061071b600435611c24565b346101df575f3660031901126101df576040516065545f8261196683611bec565b91828252602093600190856001821691825f146105c5575050600114611993575061055692500383611b5c565b84915060655f527f8ff97419363ffd7000167f130ef7168fbea05faf9251824ca5043f113cc6a7c7905f915b8583106119d6575050610556935082010185610549565b805483890185015287945086939092019181016119bf565b346101df5760203660031901126101df576004359063ffffffff60e01b82168092036101df576020916380ac58cd60e01b8114908115611a48575b8115611a37575b5015158152f35b6301ffc9a760e01b14905083611a30565b635b5e139f60e01b81149150611a29565b91908251928382525f5b848110611a83575050825f602080949584010152601f8019910116010190565b602081830181015184830182015201611a63565b600435906001600160a01b03821682036101df57565b602435906001600160a01b03821682036101df57565b60609060031901126101df576001600160a01b039060043582811681036101df579160243590811681036101df579060443590565b6001600160401b038111610d2b57604052565b602081019081106001600160401b03821117610d2b57604052565b606081019081106001600160401b03821117610d2b57604052565b604081019081106001600160401b03821117610d2b57604052565b90601f801991011681019081106001600160401b03821117610d2b57604052565b6001600160401b038111610d2b57601f01601f191660200190565b929192611ba482611b7d565b91611bb26040519384611b5c565b8294818452818301116101df578281602093845f960137010152565b9080601f830112156101df57816020611be993359101611b98565b90565b90600182811c92168015611c1a575b6020831014611c0657565b634e487b7160e01b5f52602260045260245ffd5b91607f1691611bfb565b5f81815260676020526040902054611c46906001600160a01b03161515611ecd565b5f908152606960205260409020546001600160a01b031690565b908160209103126101df575180151581036101df5790565b91908110156116b65760051b8101359060de19813603018212156101df570190565b356001600160a01b03811681036101df5790565b6001600160401b038111610d2b5760051b60200190565b919082018092116112eb57565b908160209103126101df57516001600160a01b03811681036101df5790565b903590601e19813603018212156101df57018035906001600160401b0382116101df576020019181360383136101df57565b3580151581036101df5790565b908060209392818452848401375f828201840152601f01601f1916010190565b9793611d9393611d8591611d77611da1999460809b99969d9e9d60a08e8181520191611d30565b918b830360208d0152611d30565b9188830360408a0152611d30565b918583036060870152611d30565b931515910152565b15611db057565b60405162461bcd60e51b815260206004820152602d60248201527f4552433732313a2063616c6c6572206973206e6f7420746f6b656e206f776e6560448201526c1c881bdc88185c1c1c9bdd9959609a1b6064820152608490fd5b15611e1257565b60405162461bcd60e51b815260206004820152602c60248201527f46756e6374696f6e206d7573742062652063616c6c6564207468726f7567682060448201526b19195b1959d85d1958d85b1b60a21b6064820152608490fd5b15611e7357565b60405162461bcd60e51b815260206004820152602c60248201527f46756e6374696f6e206d7573742062652063616c6c6564207468726f7567682060448201526b6163746976652070726f787960a01b6064820152608490fd5b15611ed457565b60405162461bcd60e51b815260206004820152601860248201527f4552433732313a20696e76616c696420746f6b656e20494400000000000000006044820152606490fd5b5f908152606760205260409020546001600160a01b0316611be9811515611ecd565b6001600160a01b038116908115611fc7573b15611fb5576020600491604051928380926318160ddd60e01b82525afa9081611f8a575b50611f88576040516326412d8960e21b8152600490fd5b565b602090813d8311611fae575b611fa08183611b5c565b810103126101df575f611f71565b503d611f96565b60405163d0acc0d360e01b8152600490fd5b604051631a747e4f60e31b8152600490fd5b90604051611fe681611b0b565b5f81526001600160a01b0383169182156120a657611f8893816103a394612029612023835f52606760205260018060a01b0360405f205416151590565b15612a60565b5f8281526067602052604090205461204b906001600160a01b03161515612023565b805f52606860205260405f2060018154019055815f52606760205260405f20816001600160601b0360a01b8254161790555f7fddf252ad1be2c89b69c2b068fc378daa952ba7f163c4a11628f55a4df523b3ef8180a4612900565b606460405162461bcd60e51b815260206004820152602060248201527f4552433732313a206d696e7420746f20746865207a65726f20616464726573736044820152fd5b9061214760cb545f93602084019160206121048487611cf1565b95909261211088611c9a565b935f6040988951968795869485936360fac62560e01b855260018060a01b038c166004860152606060248601526064850191611d30565b6001600160a01b0391821660448401529190910393165af180156124c3576124cd575b5060cb546001600160a01b0316803b156101df578351633868e7e560e01b81526001600160a01b038316600482015233602482015260036044820152905f908290606490829084905af180156124c3576124b0575b5060cc546001600160a01b0316806123c1575b50836121e96121e260c096611c9a565b9382611cf1565b93906121f786840184611cf1565b93906122066060830183611cf1565b9290936122166080830183611cf1565b9961223061222760a0860186611cf1565b9e909501611d23565b968c519860e08a01968a88106001600160401b03891117610d2b57968e526001600160a01b031689526122b0956122a194612292936122849291612275913691611b98565b9b60208c019c8d523691611b98565b968d8a019788523691611b98565b99606088019a8b523691611b98565b99608086019a8b523691611b98565b60a0840190815291151560c08401908152916001600160a01b0386163b156123bd57875163e13ff8dd60e01b81526020600482015293516001600160a01b03166024850152935160e060448501529297899689969587958995879590949093909161232090610104880190611a59565b9351602319948588820301606489015261233991611a59565b9051908487820301608488015261234f91611a59565b905190838682030160a487015261236591611a59565b9051918482030160c485015261237a91611a59565b9051151560e483015203926001600160a01b03165af19081156123b457506123a0575050565b6123aa8291611af8565b6123b15750565b80fd5b513d84823e3d90fd5b8980fd5b6123cb8386611cf1565b91906123d987870188611cf1565b9093906123e960608a018a611cf1565b91906123f860808c018c611cf1565b8b51638ae4d28160e01b81526001600160a01b038b16600482015233602482015260c06044820152988997889793969294936124399160c48a019190611d30565b60031995868983030160648a015261245092611d30565b908487830301608488015261246492611d30565b918483030160a485015261247792611d30565b0381895a94602095f1156121d257602090813d83116124a9575b61249b8183611b5c565b810103126101df575f6121d2565b503d612491565b6124bb919550611af8565b5f935f6121bf565b84513d5f823e3d90fd5b602090813d83116124f1575b6124e38183611b5c565b810103126101df575f61216a565b503d6124d9565b6097546001600160a01b0316330361250c57565b606460405162461bcd60e51b815260206004820152602060248201527f4f776e61626c653a2063616c6c6572206973206e6f7420746865206f776e65726044820152fd5b906001600160a01b03808061256484611f19565b16931691838314938415612597575b508315612581575b50505090565b61258d91929350611c24565b16145f808061257b565b9093505f52606a60205260405f20825f5260205260ff60405f205416925f612573565b156125c157565b60405162461bcd60e51b815260206004820152602560248201527f4552433732313a207472616e736665722066726f6d20696e636f72726563742060448201526437bbb732b960d91b6064820152608490fd5b9061263c9161262284611f19565b6001600160a01b03939184169284929091831684146125ba565b169182156126d257816126599161265286611f19565b16146125ba565b825f52606960205260405f206001600160601b0360a01b90818154169055815f52606860205260405f205f198154019055825f5260405f2060018154019055835f5260676020528260405f20918254161790557fddf252ad1be2c89b69c2b068fc378daa952ba7f163c4a11628f55a4df523b3ef5f80a4565b60405162461bcd60e51b8152602060048201526024808201527f4552433732313a207472616e7366657220746f20746865207a65726f206164646044820152637265737360e01b6064820152608490fd5b1561272a57565b60405162461bcd60e51b815260206004820152602b60248201527f496e697469616c697a61626c653a20636f6e7472616374206973206e6f74206960448201526a6e697469616c697a696e6760a81b6064820152608490fd5b609780546001600160a01b039283166001600160a01b0319821681179092559091167f8be0079c531659141344cd1fd0a4f28419497f9722a3daafe3b4186f6b6457e05f80a3565b60809060208152603260208201527f4552433732313a207472616e7366657220746f206e6f6e20455243373231526560408201527131b2b4bb32b91034b6b83632b6b2b73a32b960711b60608201520190565b1561282557565b60405162461bcd60e51b81528061283e600482016127cb565b0390fd5b803b15612876575f80516020612b4683398151915280546001600160a01b0319166001600160a01b03909216919091179055565b60405162461bcd60e51b815260206004820152602d60248201527f455243313936373a206e657720696d706c656d656e746174696f6e206973206e60448201526c1bdd08184818dbdb9d1c9858dd609a1b6064820152608490fd5b3d156128fb573d906128e282611b7d565b916128f06040519384611b5c565b82523d5f602084013e565b606090565b909190803b156129e4576129496020915f93604051948580948193630a85bd0160e11b998a84523360048501528460248501526044840152608060648401526084830190611a59565b03926001600160a01b03165af15f918161299f575b506129915761296b6128d1565b8051908161298c5760405162461bcd60e51b81528061283e600482016127cb565b602001fd5b6001600160e01b0319161490565b9091506020813d6020116129dc575b816129bb60209383611b5c565b810103126101df57516001600160e01b0319811681036101df57905f61295e565b3d91506129ae565b505050600190565b92909190823b15612a5757612a3e926020925f60018060a01b0360405180978196829584630a85bd0160e11b9c8d86523360048701521660248501526044840152608060648401526084830190611a59565b0393165af15f918161299f57506129915761296b6128d1565b50505050600190565b15612a6757565b60405162461bcd60e51b815260206004820152601c60248201527f4552433732313a20746f6b656e20616c7265616479206d696e746564000000006044820152606490fd5b91929015612b0e5750815115612ac0575090565b3b15612ac95790565b60405162461bcd60e51b815260206004820152601d60248201527f416464726573733a2063616c6c20746f206e6f6e2d636f6e74726163740000006044820152606490fd5b825190915015612b215750805190602001fd5b60405162461bcd60e51b81526020600482015290819061283e906024830190611a5956fe360894a13ba1a3210667c828492db98dca3e2076cc3735a920a3ca505d382bbca164736f6c6343000819000a","linkReferences":{"src/lib/TBA.sol":{"TBALib":[{"start":4891,"length":20},{"start":5935,"length":20}]}}},"methodIdentifiers":{"approve(address,uint256)":"095ea7b3","balanceOf(address)":"70a08231","batchMintGardens((address,string,string,string,string,string,bool)[])":"134bb761","deploymentRegistry()":"c6631092","getApproved(uint256)":"081812fc","hatsModule()":"b4a9c607","initialize(address,address)":"485cc955","isApprovedForAll(address,address)":"e985e9c5","karmaGAPModule()":"4026d762","mintGarden((address,string,string,string,string,string,bool))":"1744d5ad","name()":"06fdde03","owner()":"8da5cb5b","ownerOf(uint256)":"6352211e","proxiableUUID()":"52d1902d","renounceOwnership()":"715018a6","safeTransferFrom(address,address,uint256)":"42842e0e","safeTransferFrom(address,address,uint256,bytes)":"b88d4fde","setApprovalForAll(address,bool)":"a22cb465","setDeploymentRegistry(address)":"14902ad3","setHatsModule(address)":"adcb9221","setKarmaGAPModule(address)":"d9e4aaee","supportsInterface(bytes4)":"01ffc9a7","symbol()":"95d89b41","tokenURI(uint256)":"c87b56dd","transferFrom(address,address,uint256)":"23b872dd","transferOwnership(address)":"f2fde38b","upgradeTo(address)":"3659cfe6","upgradeToAndCall(address,bytes)":"4f1ef286"},"id":152}