{"abi":[{"type":"constructor","inputs":[{"name":"gardenAccountImplementation","type":"address","internalType":"address"}],"stateMutability":"nonpayable"},{"type":"function","name":"actionRegistry","inputs":[],"outputs":[{"name":"","type":"address","internalType":"contract ActionRegistry"}],"stateMutability":"view"},{"type":"function","name":"approve","inputs":[{"name":"to","type":"address","internalType":"address"},{"name":"tokenId","type":"uint256","internalType":"uint256"}],"outputs":[],"stateMutability":"nonpayable"},{"type":"function","name":"balanceOf","inputs":[{"name":"owner","type":"address","internalType":"address"}],"outputs":[{"name":"","type":"uint256","internalType":"uint256"}],"stateMutability":"view"},{"type":"function","name":"batchMintGardens","inputs":[{"name":"configs","type":"tuple[]","internalType":"struct GardenToken.GardenConfig[]","components":[{"name":"communityToken","type":"address","internalType":"address"},{"name":"name","type":"string","internalType":"string"},{"name":"description","type":"string","internalType":"string"},{"name":"location","type":"string","internalType":"string"},{"name":"bannerImage","type":"string","internalType":"string"},{"name":"metadata","type":"string","internalType":"string"},{"name":"openJoining","type":"bool","internalType":"bool"},{"name":"weightScheme","type":"uint8","internalType":"enum IGardensModule.WeightScheme"},{"name":"domainMask","type":"uint8","internalType":"uint8"}]}],"outputs":[{"name":"gardenAccounts","type":"address[]","internalType":"address[]"}],"stateMutability":"nonpayable"},{"type":"function","name":"cookieJarModule","inputs":[],"outputs":[{"name":"","type":"address","internalType":"contract ICookieJarModule"}],"stateMutability":"view"},{"type":"function","name":"deploymentRegistry","inputs":[],"outputs":[{"name":"","type":"address","internalType":"address"}],"stateMutability":"view"},{"type":"function","name":"gardensModule","inputs":[],"outputs":[{"name":"","type":"address","internalType":"contract IGardensModule"}],"stateMutability":"view"},{"type":"function","name":"getApproved","inputs":[{"name":"tokenId","type":"uint256","internalType":"uint256"}],"outputs":[{"name":"","type":"address","internalType":"address"}],"stateMutability":"view"},{"type":"function","name":"hatsModule","inputs":[],"outputs":[{"name":"","type":"address","internalType":"contract IHatsModule"}],"stateMutability":"view"},{"type":"function","name":"initialize","inputs":[{"name":"_multisig","type":"address","internalType":"address"},{"name":"_deploymentRegistry","type":"address","internalType":"address"}],"outputs":[],"stateMutability":"nonpayable"},{"type":"function","name":"isApprovedForAll","inputs":[{"name":"owner","type":"address","internalType":"address"},{"name":"operator","type":"address","internalType":"address"}],"outputs":[{"name":"","type":"bool","internalType":"bool"}],"stateMutability":"view"},{"type":"function","name":"karmaGAPModule","inputs":[],"outputs":[{"name":"","type":"address","internalType":"contract IKarmaGAPModule"}],"stateMutability":"view"},{"type":"function","name":"mintGarden","inputs":[{"name":"config","type":"tuple","internalType":"struct GardenToken.GardenConfig","components":[{"name":"communityToken","type":"address","internalType":"address"},{"name":"name","type":"string","internalType":"string"},{"name":"description","type":"string","internalType":"string"},{"name":"location","type":"string","internalType":"string"},{"name":"bannerImage","type":"string","internalType":"string"},{"name":"metadata","type":"string","internalType":"string"},{"name":"openJoining","type":"bool","internalType":"bool"},{"name":"weightScheme","type":"uint8","internalType":"enum IGardensModule.WeightScheme"},{"name":"domainMask","type":"uint8","internalType":"uint8"}]}],"outputs":[{"name":"","type":"address","internalType":"address"}],"stateMutability":"nonpayable"},{"type":"function","name":"name","inputs":[],"outputs":[{"name":"","type":"string","internalType":"string"}],"stateMutability":"view"},{"type":"function","name":"octantModule","inputs":[],"outputs":[{"name":"","type":"address","internalType":"contract OctantModule"}],"stateMutability":"view"},{"type":"function","name":"owner","inputs":[],"outputs":[{"name":"","type":"address","internalType":"address"}],"stateMutability":"view"},{"type":"function","name":"ownerOf","inputs":[{"name":"tokenId","type":"uint256","internalType":"uint256"}],"outputs":[{"name":"","type":"address","internalType":"address"}],"stateMutability":"view"},{"type":"function","name":"proxiableUUID","inputs":[],"outputs":[{"name":"","type":"bytes32","internalType":"bytes32"}],"stateMutability":"view"},{"type":"function","name":"renounceOwnership","inputs":[],"outputs":[],"stateMutability":"nonpayable"},{"type":"function","name":"safeTransferFrom","inputs":[{"name":"from","type":"address","internalType":"address"},{"name":"to","type":"address","internalType":"address"},{"name":"tokenId","type":"uint256","internalType":"uint256"}],"outputs":[],"stateMutability":"nonpayable"},{"type":"function","name":"safeTransferFrom","inputs":[{"name":"from","type":"address","internalType":"address"},{"name":"to","type":"address","internalType":"address"},{"name":"tokenId","type":"uint256","internalType":"uint256"},{"name":"data","type":"bytes","internalType":"bytes"}],"outputs":[],"stateMutability":"nonpayable"},{"type":"function","name":"setActionRegistry","inputs":[{"name":"_actionRegistry","type":"address","internalType":"address"}],"outputs":[],"stateMutability":"nonpayable"},{"type":"function","name":"setApprovalForAll","inputs":[{"name":"operator","type":"address","internalType":"address"},{"name":"approved","type":"bool","internalType":"bool"}],"outputs":[],"stateMutability":"nonpayable"},{"type":"function","name":"setCookieJarModule","inputs":[{"name":"_cookieJarModule","type":"address","internalType":"address"}],"outputs":[],"stateMutability":"nonpayable"},{"type":"function","name":"setDeployment","inputs":[{"name":"_deploymentRegistry","type":"address","internalType":"address"}],"outputs":[],"stateMutability":"nonpayable"},{"type":"function","name":"setGardensModule","inputs":[{"name":"_gardensModule","type":"address","internalType":"address"}],"outputs":[],"stateMutability":"nonpayable"},{"type":"function","name":"setHatsModule","inputs":[{"name":"_hatsModule","type":"address","internalType":"address"}],"outputs":[],"stateMutability":"nonpayable"},{"type":"function","name":"setKarmaGAPModule","inputs":[{"name":"_karmaGAPModule","type":"address","internalType":"address"}],"outputs":[],"stateMutability":"nonpayable"},{"type":"function","name":"setOctantModule","inputs":[{"name":"_octantModule","type":"address","internalType":"address"}],"outputs":[],"stateMutability":"nonpayable"},{"type":"function","name":"setTransferRestriction","inputs":[{"name":"_restriction","type":"uint8","internalType":"enum GardenToken.TransferRestriction"}],"outputs":[],"stateMutability":"nonpayable"},{"type":"function","name":"supportsInterface","inputs":[{"name":"interfaceId","type":"bytes4","internalType":"bytes4"}],"outputs":[{"name":"","type":"bool","internalType":"bool"}],"stateMutability":"view"},{"type":"function","name":"symbol","inputs":[],"outputs":[{"name":"","type":"string","internalType":"string"}],"stateMutability":"view"},{"type":"function","name":"tokenURI","inputs":[{"name":"tokenId","type":"uint256","internalType":"uint256"}],"outputs":[{"name":"","type":"string","internalType":"string"}],"stateMutability":"view"},{"type":"function","name":"transferFrom","inputs":[{"name":"from","type":"address","internalType":"address"},{"name":"to","type":"address","internalType":"address"},{"name":"tokenId","type":"uint256","internalType":"uint256"}],"outputs":[],"stateMutability":"nonpayable"},{"type":"function","name":"transferOwnership","inputs":[{"name":"newOwner","type":"address","internalType":"address"}],"outputs":[],"stateMutability":"nonpayable"},{"type":"function","name":"transferRestriction","inputs":[],"outputs":[{"name":"","type":"uint8","internalType":"enum GardenToken.TransferRestriction"}],"stateMutability":"view"},{"type":"function","name":"upgradeTo","inputs":[{"name":"newImplementation","type":"address","internalType":"address"}],"outputs":[],"stateMutability":"nonpayable"},{"type":"function","name":"upgradeToAndCall","inputs":[{"name":"newImplementation","type":"address","internalType":"address"},{"name":"data","type":"bytes","internalType":"bytes"}],"outputs":[],"stateMutability":"payable"},{"type":"event","name":"ActionRegistryUpdated","inputs":[{"name":"oldRegistry","type":"address","indexed":true,"internalType":"address"},{"name":"newRegistry","type":"address","indexed":true,"internalType":"address"}],"anonymous":false},{"type":"event","name":"AdminChanged","inputs":[{"name":"previousAdmin","type":"address","indexed":false,"internalType":"address"},{"name":"newAdmin","type":"address","indexed":false,"internalType":"address"}],"anonymous":false},{"type":"event","name":"Approval","inputs":[{"name":"owner","type":"address","indexed":true,"internalType":"address"},{"name":"approved","type":"address","indexed":true,"internalType":"address"},{"name":"tokenId","type":"uint256","indexed":true,"internalType":"uint256"}],"anonymous":false},{"type":"event","name":"ApprovalForAll","inputs":[{"name":"owner","type":"address","indexed":true,"internalType":"address"},{"name":"operator","type":"address","indexed":true,"internalType":"address"},{"name":"approved","type":"bool","indexed":false,"internalType":"bool"}],"anonymous":false},{"type":"event","name":"BatchGardensMinted","inputs":[{"name":"startTokenId","type":"uint256","indexed":true,"internalType":"uint256"},{"name":"endTokenId","type":"uint256","indexed":true,"internalType":"uint256"},{"name":"minter","type":"address","indexed":true,"internalType":"address"},{"name":"count","type":"uint256","indexed":false,"internalType":"uint256"}],"anonymous":false},{"type":"event","name":"BeaconUpgraded","inputs":[{"name":"beacon","type":"address","indexed":true,"internalType":"address"}],"anonymous":false},{"type":"event","name":"CookieJarModuleUpdated","inputs":[{"name":"oldModule","type":"address","indexed":true,"internalType":"address"},{"name":"newModule","type":"address","indexed":true,"internalType":"address"}],"anonymous":false},{"type":"event","name":"GardenMinted","inputs":[{"name":"tokenId","type":"uint256","indexed":true,"internalType":"uint256"},{"name":"account","type":"address","indexed":true,"internalType":"address"},{"name":"name","type":"string","indexed":false,"internalType":"string"},{"name":"description","type":"string","indexed":false,"internalType":"string"},{"name":"location","type":"string","indexed":false,"internalType":"string"},{"name":"bannerImage","type":"string","indexed":false,"internalType":"string"},{"name":"openJoining","type":"bool","indexed":false,"internalType":"bool"}],"anonymous":false},{"type":"event","name":"GardensModuleUpdated","inputs":[{"name":"oldModule","type":"address","indexed":true,"internalType":"address"},{"name":"newModule","type":"address","indexed":true,"internalType":"address"}],"anonymous":false},{"type":"event","name":"HatsModuleUpdated","inputs":[{"name":"oldModule","type":"address","indexed":true,"internalType":"address"},{"name":"newModule","type":"address","indexed":true,"internalType":"address"}],"anonymous":false},{"type":"event","name":"Initialized","inputs":[{"name":"version","type":"uint8","indexed":false,"internalType":"uint8"}],"anonymous":false},{"type":"event","name":"KarmaGAPModuleUpdated","inputs":[{"name":"oldModule","type":"address","indexed":true,"internalType":"address"},{"name":"newModule","type":"address","indexed":true,"internalType":"address"}],"anonymous":false},{"type":"event","name":"OctantModuleUpdated","inputs":[{"name":"oldModule","type":"address","indexed":true,"internalType":"address"},{"name":"newModule","type":"address","indexed":true,"internalType":"address"}],"anonymous":false},{"type":"event","name":"OwnershipTransferred","inputs":[{"name":"previousOwner","type":"address","indexed":true,"internalType":"address"},{"name":"newOwner","type":"address","indexed":true,"internalType":"address"}],"anonymous":false},{"type":"event","name":"Transfer","inputs":[{"name":"from","type":"address","indexed":true,"internalType":"address"},{"name":"to","type":"address","indexed":true,"internalType":"address"},{"name":"tokenId","type":"uint256","indexed":true,"internalType":"uint256"}],"anonymous":false},{"type":"event","name":"Upgraded","inputs":[{"name":"implementation","type":"address","indexed":true,"internalType":"address"}],"anonymous":false},{"type":"error","name":"CommunityTokenNotContract","inputs":[]},{"type":"error","name":"DeploymentNotConfigured","inputs":[]},{"type":"error","name":"HatsModuleNotSet","inputs":[]},{"type":"error","name":"InvalidBatchSize","inputs":[]},{"type":"error","name":"InvalidCommunityToken","inputs":[]},{"type":"error","name":"InvalidERC20Token","inputs":[]},{"type":"error","name":"TransfersLocked","inputs":[]},{"type":"error","name":"TransfersRestricted","inputs":[]},{"type":"error","name":"UnauthorizedMinter","inputs":[]}],"bytecode":{"object":"0x60c03461013357601f61331f38819003918201601f19168301916001600160401b038311848410176101375780849260209460405283398101031261013357516001600160a01b0381168103610133573060805260a0525f5460ff8160081c166100de5760ff808216036100a4575b6040516131d3908161014c8239608051818181610cfe0152818161108901526117ac015260a0518181816105490152610e440152f35b60ff90811916175f557f7f26b83ff96e1f2b6a682f133852f6798a09c465da95921460cefb3847402498602060405160ff8152a15f61006e565b60405162461bcd60e51b815260206004820152602760248201527f496e697469616c697a61626c653a20636f6e747261637420697320696e697469604482015266616c697a696e6760c81b6064820152608490fd5b5f80fd5b634e487b7160e01b5f52604160045260245ffdfe6080806040526004361015610012575f80fd5b5f905f3560e01c90816301ffc9a714611c715750806306fdde0314611bdf578063081812fc14611bc1578063095ea7b314611a3b578063117ad57a146119ee57806323b872dd146119ca578063266f8652146119a25780633659cfe61461178e5780634026d7621461176657806342842e0e14611732578063461d338c14611706578063485cc955146112f55780634c5284461461128c5780634f1ef28614611051578063516b87d914610fe85780635227097c14610da957806352d1902d14610cec5780636352211e14610cbc5780636c16ad3514610c7957806370a0823114610be4578063715018a614610b9c57806372a0d6ad14610b745780638da5cb5b14610b4c57806395d89b4114610a81578063a22cb465146109b7578063adcb92211461094e578063b4a9c60714610926578063b88d4fde146108b0578063ba06c17614610847578063bf29521e1461045f578063c663109214610437578063c87b56dd146103d3578063d25d4652146103aa578063d9e4aaee1461033f578063e4e3967814610316578063e7efdb26146102ab578063e985e9c5146102535763f2fde38b146101c0575f80fd5b34610250576020366003190112610250576101d9611d1b565b6101e1612157565b6001600160a01b038116156101fc576101f9906123ec565b80f35b60405162461bcd60e51b815260206004820152602660248201527f4f776e61626c653a206e6577206f776e657220697320746865207a65726f206160448201526564647265737360d01b6064820152608490fd5b80fd5b503461025057604036600319011261025057604061026f611d1b565b91610278611d31565b9260018060a01b03168152606a602052209060018060a01b03165f52602052602060ff60405f2054166040519015158152f35b5034610250576020366003190112610250576102c5611d1b565b6102cd612157565b60ce80546001600160a01b039283166001600160a01b0319821681179092559091167f1c2f4d6765fbc35ee83d1598538969716facf03e15ae9183c5f99259aeb5d3318380a380f35b503461025057806003193601126102505760cf546040516001600160a01b039091168152602090f35b503461025057602036600319011261025057610359611d1b565b610361612157565b60cc80546001600160a01b039283166001600160a01b0319821681179092559091167fdbf2e72ed7bd92ccbb36e552bb0c1a8df6df7e6a54ab7ddc78720975e93fc88e8380a380f35b503461025057806003193601126102505760d0546040516001600160a01b039091168152602090f35b34610433576020366003190112610433576103f76103f2600435612ccb565b6120a7565b5f604051610406602082611d9f565b5261042f604051610418602082611d9f565b5f8152604051918291602083526020830190611cdc565b0390f35b5f80fd5b34610433575f3660031901126104335760ca546040516001600160a01b039091168152602090f35b34610433576020366003190112610433576004356001600160401b0381116104335736602382011215610433576004810135906001600160401b038211610433576024810190602436918460051b010111610433576097546001600160a01b031633036107a9575b8115801561079f575b610790575f5b82811061076c575060cb546001600160a01b03161561075d576104f882612133565b916105066040519384611d9f565b80835261051281612133565b602084019290601f190136843760c9549061052d838361214a565b60c9555f73__$22345123dcf5f39d8c23eeef107f852197$__917f0000000000000000000000000000000000000000000000000000000000000000915b858110610612575050505060c954905f1982019182116105fe576040949394519283527fce282076a1439bd4b653b5657c2ab7abea5a48b4572799f57582e79e357b59f760203394a4604051918291602083019060208452518091526040830191905f5b8181106105dc575050500390f35b82516001600160a01b03168452859450602093840193909201916001016105ce565b634e487b7160e01b5f52601160045260245ffd5b61061c818661214a565b90610628818885612110565b61063283336124ba565b604051630918575160e11b8152906020828061065387308b60048501611fcd565b03818a5af4918215610752575f92610717575b506106746020820182611fef565b90946106836040840184611fef565b926106916060860186611fef565b9098906106a16080880188611fef565b906106ae60c08a01612021565b92600160a01b600190038b169c8d996040519889986106cd988a61204e565b035f5160206130e75f395f51905f5291a36106e79161262a565b88518110156107035760019160208260051b8b0101520161056a565b634e487b7160e01b5f52603260045260245ffd5b9091506020813d821161074a575b8161073260209383611d9f565b810103126104335761074390611fb9565b908b610666565b3d9150610725565b6040513d5f823e3d90fd5b63127629f760e31b5f5260045ffd5b8061078a6107856107806001948787612110565b611fa5565b612421565b016104d6565b637862e95960e01b5f5260045ffd5b50600a82116104d0565b60ca546001600160a01b031680156108385760206024916040519283809262a743f760e61b82523360048301525afa5f9181610807575b506107f45763955c501b60e01b5f5260045ffd5b6104c75763955c501b60e01b5f5260045ffd5b61082a91925060203d602011610831575b6108228183611d9f565b810190611f8d565b90846107e0565b503d610818565b63045824e160e51b5f5260045ffd5b3461043357602036600319011261043357610860611d1b565b610868612157565b60cf80546001600160a01b039283166001600160a01b0319821681179092559091167fe871cbdaca3c1bd8efb9eaa48b0acffb2a54d6baac7c7b976a366265838723da5f80a3005b34610433576080366003190112610433576108c9611d1b565b6108d1611d31565b90606435906044356001600160401b03831161043357610924936108fc61091f943690600401611e13565b9261090f61090a84336121af565b611e8f565b61091a83838361227e565b612f0a565b612ca7565b005b34610433575f3660031901126104335760cb546040516001600160a01b039091168152602090f35b3461043357602036600319011261043357610967611d1b565b61096f612157565b60cb80546001600160a01b039283166001600160a01b0319821681179092559091167fc8fef5c294d0999b744f1c0123bb9e98e3e739de8245692fde6df4f4625efc505f80a3005b34610433576040366003190112610433576109d0611d1b565b60243590811515809203610433576001600160a01b031690338214610a4057335f52606a60205260405f20825f5260205260405f2060ff1981541660ff83161790556040519081527f17307eab39ab6107e8899845ad3d59bd9653f200f220920489ca2b5937696c3160203392a3005b60405162461bcd60e51b815260206004820152601960248201527822a9219b99189d1030b8383937bb32903a379031b0b63632b960391b6044820152606490fd5b34610433575f366003190112610433576040515f606654610aa181611e31565b8084529060018116908115610b285750600114610add575b61042f83610ac981850382611d9f565b604051918291602083526020830190611cdc565b60665f9081525f5160206130475f395f51905f52939250905b808210610b0e57509091508101602001610ac9610ab9565b919260018160209254838588010152019101909291610af6565b60ff191660208086019190915291151560051b84019091019150610ac99050610ab9565b34610433575f366003190112610433576097546040516001600160a01b039091168152602090f35b34610433575f3660031901126104335760ce546040516001600160a01b039091168152602090f35b34610433575f36600319011261043357610bb4612157565b609780546001600160a01b031981169091555f906001600160a01b03165f5160206131075f395f51905f528280a3005b34610433576020366003190112610433576001600160a01b03610c05611d1b565b168015610c22575f526068602052602060405f2054604051908152f35b60405162461bcd60e51b815260206004820152602960248201527f4552433732313a2061646472657373207a65726f206973206e6f7420612076616044820152683634b21037bbb732b960b91b6064820152608490fd5b3461043357602036600319011261043357610c92611d1b565b610c9a612157565b60ca80546001600160a01b0319166001600160a01b0392909216919091179055005b34610433576020366003190112610433576020610cda6004356120ee565b6040516001600160a01b039091168152f35b34610433575f366003190112610433577f00000000000000000000000000000000000000000000000000000000000000006001600160a01b03163003610d435760206040515f5160206130c75f395f51905f528152f35b60405162461bcd60e51b815260206004820152603860248201527f555550535570677261646561626c653a206d757374206e6f742062652063616c6044820152771b1959081d1a1c9bdd59da0819195b1959d85d1958d85b1b60421b6064820152608490fd5b34610433576020366003190112610433576004356001600160401b03811161043357806004016101206003198336030112610433576097546001600160a01b03163303610f69575b610dfd61078582611fa5565b60cb546001600160a01b03161561075d5760c954915f1983146105fe576001830160c955610e2b83336124ba565b604051630918575160e11b81529060208280610e6c87307f000000000000000000000000000000000000000000000000000000000000000060048501611fcd565b038173__$22345123dcf5f39d8c23eeef107f852197$__5af4918215610752575f92610f1f575b6020610f0f610f178686868a5f5160206130e75f395f51905f52610eba6024840186611fef565b90610ec86044860188611fef565b99909560c4610eda606483018b611fef565b610ef6610eed8d60848795970190611fef565b94909301612021565b9360018060a01b038c169e8f9b604051998a998a61204e565b0390a361262a565b604051908152f35b9150916020823d602011610f61575b81610f3b60209383611d9f565b8101031261043357602093610f0f93610f56610f1794611fb9565b935091935093610e93565b3d9150610f2e565b60ca546001600160a01b031680156108385760206024916040519283809262a743f760e61b82523360048301525afa5f9181610fc7575b50610fb45763955c501b60e01b5f5260045ffd5b610df15763955c501b60e01b5f5260045ffd5b610fe191925060203d602011610831576108228183611d9f565b9084610fa0565b3461043357602036600319011261043357611001611d1b565b611009612157565b60d080546001600160a01b039283166001600160a01b0319821681179092559091167fb7f52c4862981bdf3d41a29cd9077644f7f34833735f8e427c70decedaa006af5f80a3005b604036600319011261043357611065611d1b565b6024356001600160401b03811161043357611084903690600401611e13565b6110db7f00000000000000000000000000000000000000000000000000000000000000006001600160a01b03166110bd30821415611ef1565b5f5160206130c75f395f51905f52546001600160a01b031614611f3f565b6110e3612157565b5f5160206130875f395f51905f525460ff1615611104575061092490612d5b565b6040516352d1902d60e01b81526001600160a01b03831690602081600481855afa5f9181611258575b5061117b5760405162461bcd60e51b815260206004820152602e60248201525f5160206131a75f395f51905f5260448201526d6f6e206973206e6f74205555505360901b6064820152608490fd5b5f5160206130c75f395f51905f52036112145761119783612d5b565b5f5160206131275f395f51905f525f80a280511580159061120c575b6111b957005b610924915f80604051936111ce606086611d9f565b602785525f5160206131875f395f51905f526020860152660819985a5b195960ca1b6040860152602081519101845af4611206612deb565b91612fad565b5060016111b3565b60405162461bcd60e51b815260206004820152602960248201525f5160206131675f395f51905f526044820152681a58589b195555525160ba1b6064820152608490fd5b9091506020813d602011611284575b8161127460209383611d9f565b810103126104335751908561112d565b3d9150611267565b34610433576020366003190112610433576112a5611d1b565b6112ad612157565b60cd80546001600160a01b039283166001600160a01b0319821681179092559091167f8240dda544eb8ec4199e2248ad32f0b0962089fa82835994e8291bd75b5a663a5f80a3005b346104335760403660031901126104335761130e611d1b565b611316611d31565b5f549060ff8260081c1615918280936116f9575b80156116e2575b156116865760ff1981166001175f5582611675575b5060409283516113568582611d9f565b601281527123b932b2b71023b7b7b2399023b0b93232b760711b60208201528451906113828683611d9f565b600382526247474760e81b60208301526113ab60ff5f5460081c166113a68161238c565b61238c565b8051906001600160401b0382116115955781906113c9606554611e31565b601f811161161a575b50602090601f83116001146115b4575f926115a9575b50508160011b915f199060031b1c1916176065555b8051906001600160401b03821161159557611419606654611e31565b601f8111611545575b50602090601f83116001146114dc576114769392915f91836114d1575b50508160011b915f199060031b1c1916176066555b61146860ff5f5460081c166113a68161238c565b611471336123ec565b6123ec565b60ca80546001600160a01b0319166001600160a01b039290921691909117905561149c57005b60207f7f26b83ff96e1f2b6a682f133852f6798a09c465da95921460cefb38474024989161ff00195f54165f555160018152a1005b01519050878061143f565b90601f1983169160665f52815f20925f5b81811061152d575091600193918561147697969410611515575b505050811b01606655611454565b01515f1960f88460031b161c19169055878080611507565b929360206001819287860151815501950193016114ed565b60665f525f5160206130475f395f51905f52601f840160051c8101916020851061158b575b601f0160051c01905b8181106115805750611422565b5f8155600101611573565b909150819061156a565b634e487b7160e01b5f52604160045260245ffd5b0151905087806113e8565b60655f9081528281209350601f198516905b81811061160257509084600195949392106115ea575b505050811b016065556113fd565b01515f1960f88460031b161c191690558780806115dc565b929360206001819287860151815501950193016115c6565b60655f529091505f5160206130675f395f51905f52601f840160051c8101916020851061166b575b90601f859493920160051c01905b81811061165d57506113d2565b5f8155849350600101611650565b9091508190611642565b61ffff1916610101175f5583611346565b60405162461bcd60e51b815260206004820152602e60248201527f496e697469616c697a61626c653a20636f6e747261637420697320616c72656160448201526d191e481a5b9a5d1a585b1a5e995960921b6064820152608490fd5b50303b1580156113315750600160ff821614611331565b50600160ff82161061132a565b34610433575f36600319011261043357602060ff60d05460a01c166040519061172e81611d81565b8152f35b346104335761092461091f61174636611d47565b9060405192611756602085611d9f565b5f845261090f61090a84336121af565b34610433575f3660031901126104335760cc546040516001600160a01b039091168152602090f35b34610433576020366003190112610433576117a7611d1b565b6117e07f00000000000000000000000000000000000000000000000000000000000000006001600160a01b03166110bd30821415611ef1565b6117e8612157565b6040519060206117f88184611d9f565b5f8352808301601f1982013682375f5160206130875f395f51905f525460ff16156118295750506109249150612d5b565b6040516352d1902d60e01b81529192916001600160a01b038316908481600481855afa5f9181611973575b506118a25760405162461bcd60e51b815260048101869052602e60248201525f5160206131a75f395f51905f5260448201526d6f6e206973206e6f74205555505360901b6064820152608490fd5b5f5160206130c75f395f51905f520361192f576118be83612d5b565b5f5160206131275f395f51905f525f80a2835115801590611928575b6118e057005b5f8091610924955f5160206131875f395f51905f5260405196611904606089611d9f565b60278852870152660819985a5b195960ca1b60408701525190845af4611206612deb565b505f6118da565b60405162461bcd60e51b815260048101859052602960248201525f5160206131675f395f51905f526044820152681a58589b195555525160ba1b6064820152608490fd5b9091508581813d831161199b575b61198b8183611d9f565b8101031261043357519087611854565b503d611981565b34610433575f3660031901126104335760cd546040516001600160a01b039091168152602090f35b34610433576109246119db36611d47565b916119e961090a84336121af565b61227e565b3461043357602036600319011261043357600435600381101561043357611a13612157565b611a1c81611d81565b60d0805460ff60a01b191660a09290921b60ff60a01b16919091179055005b3461043357604036600319011261043357611a54611d1b565b602435906001600160a01b03611a69836120ee565b6001600160a01b039092169116818114611b7257803314908115611b4e575b5015611ae3575f82815260696020526040902080546001600160a01b031916821790556001600160a01b03611abc836120ee565b167f8c5be1e5ebec7d5bd14f71427d1e84f3dd0314c0f7b2291e5b200ac8c7c3b9255f80a4005b60405162461bcd60e51b815260206004820152603d60248201527f4552433732313a20617070726f76652063616c6c6572206973206e6f7420746f60448201527f6b656e206f776e6572206f7220617070726f76656420666f7220616c6c0000006064820152608490fd5b5f908152606a6020908152604080832033845290915290205460ff16905083611a88565b60405162461bcd60e51b815260206004820152602160248201527f4552433732313a20617070726f76616c20746f2063757272656e74206f776e656044820152603960f91b6064820152608490fd5b34610433576020366003190112610433576020610cda600435611e69565b34610433575f366003190112610433576040515f606554611bff81611e31565b8084529060018116908115610b285750600114611c265761042f83610ac981850382611d9f565b60655f9081525f5160206130675f395f51905f52939250905b808210611c5757509091508101602001610ac9610ab9565b919260018160209254838588010152019101909291611c3f565b34610433576020366003190112610433576004359063ffffffff60e01b8216809203610433576020916380ac58cd60e01b8114908115611ccb575b8115611cba575b5015158152f35b6301ffc9a760e01b14905083611cb3565b635b5e139f60e01b81149150611cac565b91908251928382525f5b848110611d06575050825f602080949584010152601f8019910116010190565b80602080928401015182828601015201611ce6565b600435906001600160a01b038216820361043357565b602435906001600160a01b038216820361043357565b6060906003190112610433576004356001600160a01b038116810361043357906024356001600160a01b0381168103610433579060443590565b60031115611d8b57565b634e487b7160e01b5f52602160045260245ffd5b601f909101601f19168101906001600160401b0382119082101761159557604052565b6001600160401b03811161159557601f01601f191660200190565b929192611de982611dc2565b91611df76040519384611d9f565b829481845281830111610433578281602093845f960137010152565b9080601f8301121561043357816020611e2e93359101611ddd565b90565b90600182811c92168015611e5f575b6020831014611e4b57565b634e487b7160e01b5f52602260045260245ffd5b91607f1691611e40565b611e756103f282612ccb565b5f908152606960205260409020546001600160a01b031690565b15611e9657565b60405162461bcd60e51b815260206004820152602d60248201527f4552433732313a2063616c6c6572206973206e6f7420746f6b656e206f776e6560448201526c1c881bdc88185c1c1c9bdd9959609a1b6064820152608490fd5b15611ef857565b60405162461bcd60e51b815260206004820152602c60248201525f5160206130a75f395f51905f5260448201526b19195b1959d85d1958d85b1b60a21b6064820152608490fd5b15611f4657565b60405162461bcd60e51b815260206004820152602c60248201525f5160206130a75f395f51905f5260448201526b6163746976652070726f787960a01b6064820152608490fd5b90816020910312610433575180151581036104335790565b356001600160a01b03811681036104335790565b51906001600160a01b038216820361043357565b6001600160a01b03918216815291166020820152604081019190915260600190565b903590601e198136030182121561043357018035906001600160401b0382116104335760200191813603831361043357565b3580151581036104335790565b908060209392818452848401375f828201840152601f01601f1916010190565b9793612091936120839161207561209f999460809b99969d9e9d60a08e818152019161202e565b918b830360208d015261202e565b9188830360408a015261202e565b91858303606087015261202e565b931515910152565b156120ae57565b60405162461bcd60e51b8152602060048201526018602482015277115490cdcc8c4e881a5b9d985b1a59081d1bdad95b88125160421b6044820152606490fd5b5f908152606760205260409020546001600160a01b0316611e2e8115156120a7565b91908110156107035760051b8101359061011e1981360301821215610433570190565b6001600160401b0381116115955760051b60200190565b919082018092116105fe57565b6097546001600160a01b0316330361216b57565b606460405162461bcd60e51b815260206004820152602060248201527f4f776e61626c653a2063616c6c6572206973206e6f7420746865206f776e65726044820152fd5b906001600160a01b036121c1826120ee565b6001600160a01b0390931692168281149291908315612201575b5082156121e757505090565b9091506001600160a01b03906121fc90611e69565b161490565b9092505f52606a60205260405f20815f5260205260ff60405f205416915f6121db565b1561222b57565b60405162461bcd60e51b815260206004820152602560248201527f4552433732313a207472616e736665722066726f6d20696e636f72726563742060448201526437bbb732b960d91b6064820152608490fd5b90612288836120ee565b6001600160a01b0383811692916122a191168314612224565b6001600160a01b031691821561233b576122ba90612ce7565b6122d6816001600160a01b036122cf866120ee565b1614612224565b5f83815260696020908152604080832080546001600160a01b03199081169091558484526068835281842080545f1901905585845281842080546001019055868452606790925282208054909116841790555f5160206131475f395f51905f529080a4565b60405162461bcd60e51b8152602060048201526024808201527f4552433732313a207472616e7366657220746f20746865207a65726f206164646044820152637265737360e01b6064820152608490fd5b1561239357565b60405162461bcd60e51b815260206004820152602b60248201527f496e697469616c697a61626c653a20636f6e7472616374206973206e6f74206960448201526a6e697469616c697a696e6760a81b6064820152608490fd5b609780546001600160a01b039283166001600160a01b0319821681179092559091165f5160206131075f395f51905f525f80a3565b6001600160a01b0381169081156124ab573b1561249c576020600491604051928380926318160ddd60e01b82525afa908161246d575b5061246b576326412d8960e21b5f5260045ffd5b565b6020813d602011612494575b8161248660209383611d9f565b810103126104335751612457565b3d9150612479565b63d0acc0d360e01b5f5260045ffd5b631a747e4f60e31b5f5260045ffd5b604051919060206124cb8185611d9f565b5f84526001600160a01b03821690811561254f5791838092606761246b97956124ff6124f961091f99612ccb565b15612f62565b61250b6124f985612ccb565b5f838152606882526040808220805460010190558582529290915290812080546001600160a01b031916831790555f5160206131475f395f51905f528180a4612e1a565b6064906040519062461bcd60e51b825280600483015260248201527f4552433732313a206d696e7420746f20746865207a65726f20616464726573736044820152fd5b9080601f830112156104335781516125a981612133565b926125b76040519485611d9f565b81845260208085019260051b82010192831161043357602001905b8282106125df5750505090565b602080916125ec84611fb9565b8152019101906125d2565b906020828203126104335781516001600160401b03811161043357611e2e9201612592565b3560ff811681036104335790565b9060cb54915f92602083019160206126896126458587611fef565b94905f61265189611fa5565b6040516360fac62560e01b81526001600160a01b0390971660048801819052606060248901529787958694859392606485019161202e565b6001600160a01b0391821660448401529190910393165af1801561075257612c25575b5060cb546001600160a01b0316803b15610433575f8091606460405180948193633868e7e560e01b8352876004840152336024840152600360448401525af1801561075257612c10575b5060cc546001600160a01b031680612b24575b5060cd546001600160a01b03168481612ac1575b505060ce546001600160a01b031680612a30575b5060d05484906001600160a01b0316806129e7575b5050610100830160ff6127588261261c565b161515806129d3575b612966575b5060c061277c61277585611fa5565b9385611fef565b61278c6040879693960187611fef565b93909661279c6060820182611fef565b97906127ab6080840184611fef565b9a90926127c76127be60a0870187611fef565b97909601612021565b6040519890979060e08a016001600160401b0381118b821017612951576040526001600160a01b0316895261284e959461283f94909361283093919261282192612812913691611ddd565b9b60208c019c8d523691611ddd565b9b60408a019c8d523691611ddd565b9a606088019b8c523691611ddd565b92608086019384523691611ddd565b9060a0840191825260c084019215158352853b1561294d5760405163e13ff8dd60e01b81526020600482015293516001600160a01b03166024850152935160e06044850152929688968896958795899587959094909390916128b590610104880190611cdc565b90518682036023190160648801526128cd9190611cdc565b90518582036023190160848701526128e59190611cdc565b90518482036023190160a48601526128fd9190611cdc565b90518382036023190160c48501526129159190611cdc565b9051151560e483015203925af1801561294257612930575050565b61293b828092611d9f565b6102505750565b6040513d84823e3d90fd5b8880fd5b50634e487b7160e01b8f52604160045260248ffd5b60cf546001600160a01b03169061297c9061261c565b813b156129cf57908560ff60448294836040519586948593628a782f60e81b85528a60048601521660248401525af16129b6575b50612766565b816129c091611d9f565b6129cb57835f6129b0565b8380fd5b8580fd5b5060cf546001600160a01b03161515612761565b8190602460405180948193634450925160e01b83528760048401525af1612a10575b8490612746565b612a2b903d8087833e612a238183611d9f565b8101906125f7565b612a09565b60e084013560038110156129cf5785916044839260405194859384926324e2cb2b60e11b8452886004850152612a6581611d81565b60248401525af115612731573d8086833e612a808183611d9f565b8101906040818303126129cf57612a9681611fb9565b506020810151906001600160401b038211612abd57612ab6929101612592565b505f612731565b8680fd5b612afd91612acf8587611fef565b836040939293518096819582946343d2636360e11b84528a600485015260406024850152604484019161202e565b03925af1612b0c575b8461271d565b612b1f903d8087833e612a238183611d9f565b612b06565b612b2e8385611fef565b9190612b3d6040870187611fef565b9390612b4c6060890189611fef565b90612b5a60808b018b611fef565b9290936040519889978897638ae4d28160e01b89528c60048a01523360248a01526044890160c0905260c4890190612b919261202e565b90600319888303016064890152612ba79261202e565b90600319868303016084870152612bbd9261202e565b906003198483030160a4850152612bd39261202e565b0381885a94602095f115612709576020813d602011612c08575b81612bfa60209383611d9f565b810103126104335751612709565b3d9150612bed565b612c1d9194505f90611d9f565b5f925f6126f6565b6020813d602011612c4c575b81612c3e60209383611d9f565b8101031261043357516126ac565b3d9150612c31565b60809060208152603260208201527f4552433732313a207472616e7366657220746f206e6f6e20455243373231526560408201527131b2b4bb32b91034b6b83632b6b2b73a32b960711b60608201520190565b15612cae57565b60405162461bcd60e51b815280612cc760048201612c54565b0390fd5b5f908152606760205260409020546001600160a01b0316151590565b6001600160a01b03161561246b5760ff60d05460a01c16612d0781611d81565b60028114612d4c57600190612d1b81611d81565b1480612d37575b612d2857565b637be07bbd60e11b5f5260045ffd5b506097546001600160a01b0316331415612d22565b6336e278fd60e21b5f5260045ffd5b803b15612d90575f5160206130c75f395f51905f5280546001600160a01b0319166001600160a01b0392909216919091179055565b60405162461bcd60e51b815260206004820152602d60248201527f455243313936373a206e657720696d706c656d656e746174696f6e206973206e60448201526c1bdd08184818dbdb9d1c9858dd609a1b6064820152608490fd5b3d15612e15573d90612dfc82611dc2565b91612e0a6040519384611d9f565b82523d5f602084013e565b606090565b91823b15612f0257612e5f926020925f604051809681958294630a85bd0160e11b84523360048501528460248501526044840152608060648401526084830190611cdc565b03926001600160a01b03165af15f9181612ebd575b50612ea757612e81612deb565b80519081612ea25760405162461bcd60e51b815280612cc760048201612c54565b602001fd5b6001600160e01b031916630a85bd0160e11b1490565b9091506020813d602011612efa575b81612ed960209383611d9f565b8101031261043357516001600160e01b03198116810361043357905f612e74565b3d9150612ecc565b505050600190565b919290803b15612f5957612e5f935f60209460405196879586948593630a85bd0160e11b855233600486015260018060a01b031660248501526044840152608060648401526084830190611cdc565b50505050600190565b15612f6957565b60405162461bcd60e51b815260206004820152601c60248201527b115490cdcc8c4e881d1bdad95b88185b1c9958591e481b5a5b9d195960221b6044820152606490fd5b9192901561300f5750815115612fc1575090565b3b15612fca5790565b60405162461bcd60e51b815260206004820152601d60248201527f416464726573733a2063616c6c20746f206e6f6e2d636f6e74726163740000006044820152606490fd5b8251909150156130225750805190602001fd5b60405162461bcd60e51b815260206004820152908190612cc7906024830190611cdc56fe46501879b8ca8525e8c2fd519e2fbfcfa2ebea26501294aa02cbfcfb12e943548ff97419363ffd7000167f130ef7168fbea05faf9251824ca5043f113cc6a7c74910fdfa16fed3260ed0e7147f7cc6da11a60208b5b9406d12a635614ffd914346756e6374696f6e206d7573742062652063616c6c6564207468726f75676820360894a13ba1a3210667c828492db98dca3e2076cc3735a920a3ca505d382bbcd9622e038d73e9b439c5fda047b4a8ec1f5e41816b766fcdd534c56fc90704278be0079c531659141344cd1fd0a4f28419497f9722a3daafe3b4186f6b6457e0bc7cd75a20ee27fd9adebab32041f755214dbc6bffa90cc0225b39da2e5c2d3bddf252ad1be2c89b69c2b068fc378daa952ba7f163c4a11628f55a4df523b3ef45524331393637557067726164653a20756e737570706f727465642070726f78416464726573733a206c6f772d6c6576656c2064656c65676174652063616c6c45524331393637557067726164653a206e657720696d706c656d656e74617469a164736f6c634300081c000a","linkReferences":{"src/lib/TBA.sol":{"TBALib":[{"start":1663,"length":20},{"start":4028,"length":20}]}}},"methodIdentifiers":{"actionRegistry()":"e4e39678","approve(address,uint256)":"095ea7b3","balanceOf(address)":"70a08231","batchMintGardens((address,string,string,string,string,string,bool,uint8,uint8)[])":"bf29521e","cookieJarModule()":"d25d4652","deploymentRegistry()":"c6631092","gardensModule()":"72a0d6ad","getApproved(uint256)":"081812fc","hatsModule()":"b4a9c607","initialize(address,address)":"485cc955","isApprovedForAll(address,address)":"e985e9c5","karmaGAPModule()":"4026d762","mintGarden((address,string,string,string,string,string,bool,uint8,uint8))":"5227097c","name()":"06fdde03","octantModule()":"266f8652","owner()":"8da5cb5b","ownerOf(uint256)":"6352211e","proxiableUUID()":"52d1902d","renounceOwnership()":"715018a6","safeTransferFrom(address,address,uint256)":"42842e0e","safeTransferFrom(address,address,uint256,bytes)":"b88d4fde","setActionRegistry(address)":"ba06c176","setApprovalForAll(address,bool)":"a22cb465","setCookieJarModule(address)":"516b87d9","setDeployment(address)":"6c16ad35","setGardensModule(address)":"e7efdb26","setHatsModule(address)":"adcb9221","setKarmaGAPModule(address)":"d9e4aaee","setOctantModule(address)":"4c528446","setTransferRestriction(uint8)":"117ad57a","supportsInterface(bytes4)":"01ffc9a7","symbol()":"95d89b41","tokenURI(uint256)":"c87b56dd","transferFrom(address,address,uint256)":"23b872dd","transferOwnership(address)":"f2fde38b","transferRestriction()":"461d338c","upgradeTo(address)":"3659cfe6","upgradeToAndCall(address,bytes)":"4f1ef286"},"id":176}