{"abi":[{"type":"constructor","inputs":[{"name":"gardenAccountImplementation","type":"address","internalType":"address"}],"stateMutability":"nonpayable"},{"type":"function","name":"actionRegistry","inputs":[],"outputs":[{"name":"","type":"address","internalType":"contract ActionRegistry"}],"stateMutability":"view"},{"type":"function","name":"approve","inputs":[{"name":"to","type":"address","internalType":"address"},{"name":"tokenId","type":"uint256","internalType":"uint256"}],"outputs":[],"stateMutability":"nonpayable"},{"type":"function","name":"balanceOf","inputs":[{"name":"owner","type":"address","internalType":"address"}],"outputs":[{"name":"","type":"uint256","internalType":"uint256"}],"stateMutability":"view"},{"type":"function","name":"batchMintGardens","inputs":[{"name":"configs","type":"tuple[]","internalType":"struct GardenToken.GardenConfig[]","components":[{"name":"communityToken","type":"address","internalType":"address"},{"name":"name","type":"string","internalType":"string"},{"name":"slug","type":"string","internalType":"string"},{"name":"description","type":"string","internalType":"string"},{"name":"location","type":"string","internalType":"string"},{"name":"bannerImage","type":"string","internalType":"string"},{"name":"metadata","type":"string","internalType":"string"},{"name":"openJoining","type":"bool","internalType":"bool"},{"name":"weightScheme","type":"uint8","internalType":"enum IGardensModule.WeightScheme"},{"name":"domainMask","type":"uint8","internalType":"uint8"}]}],"outputs":[{"name":"gardenAccounts","type":"address[]","internalType":"address[]"}],"stateMutability":"payable"},{"type":"function","name":"cookieJarModule","inputs":[],"outputs":[{"name":"","type":"address","internalType":"contract ICookieJarModule"}],"stateMutability":"view"},{"type":"function","name":"deploymentRegistry","inputs":[],"outputs":[{"name":"","type":"address","internalType":"address"}],"stateMutability":"view"},{"type":"function","name":"ensModule","inputs":[],"outputs":[{"name":"","type":"address","internalType":"contract IGreenGoodsENS"}],"stateMutability":"view"},{"type":"function","name":"gardensModule","inputs":[],"outputs":[{"name":"","type":"address","internalType":"contract IGardensModule"}],"stateMutability":"view"},{"type":"function","name":"getApproved","inputs":[{"name":"tokenId","type":"uint256","internalType":"uint256"}],"outputs":[{"name":"","type":"address","internalType":"address"}],"stateMutability":"view"},{"type":"function","name":"hatsModule","inputs":[],"outputs":[{"name":"","type":"address","internalType":"contract IHatsModule"}],"stateMutability":"view"},{"type":"function","name":"initialize","inputs":[{"name":"_multisig","type":"address","internalType":"address"},{"name":"_deploymentRegistry","type":"address","internalType":"address"}],"outputs":[],"stateMutability":"nonpayable"},{"type":"function","name":"isApprovedForAll","inputs":[{"name":"owner","type":"address","internalType":"address"},{"name":"operator","type":"address","internalType":"address"}],"outputs":[{"name":"","type":"bool","internalType":"bool"}],"stateMutability":"view"},{"type":"function","name":"karmaGAPModule","inputs":[],"outputs":[{"name":"","type":"address","internalType":"contract IKarmaGAPModule"}],"stateMutability":"view"},{"type":"function","name":"mintGarden","inputs":[{"name":"config","type":"tuple","internalType":"struct GardenToken.GardenConfig","components":[{"name":"communityToken","type":"address","internalType":"address"},{"name":"name","type":"string","internalType":"string"},{"name":"slug","type":"string","internalType":"string"},{"name":"description","type":"string","internalType":"string"},{"name":"location","type":"string","internalType":"string"},{"name":"bannerImage","type":"string","internalType":"string"},{"name":"metadata","type":"string","internalType":"string"},{"name":"openJoining","type":"bool","internalType":"bool"},{"name":"weightScheme","type":"uint8","internalType":"enum IGardensModule.WeightScheme"},{"name":"domainMask","type":"uint8","internalType":"uint8"}]}],"outputs":[{"name":"","type":"address","internalType":"address"}],"stateMutability":"payable"},{"type":"function","name":"name","inputs":[],"outputs":[{"name":"","type":"string","internalType":"string"}],"stateMutability":"view"},{"type":"function","name":"octantModule","inputs":[],"outputs":[{"name":"","type":"address","internalType":"contract OctantModule"}],"stateMutability":"view"},{"type":"function","name":"owner","inputs":[],"outputs":[{"name":"","type":"address","internalType":"address"}],"stateMutability":"view"},{"type":"function","name":"ownerOf","inputs":[{"name":"tokenId","type":"uint256","internalType":"uint256"}],"outputs":[{"name":"","type":"address","internalType":"address"}],"stateMutability":"view"},{"type":"function","name":"proxiableUUID","inputs":[],"outputs":[{"name":"","type":"bytes32","internalType":"bytes32"}],"stateMutability":"view"},{"type":"function","name":"renounceOwnership","inputs":[],"outputs":[],"stateMutability":"nonpayable"},{"type":"function","name":"safeTransferFrom","inputs":[{"name":"from","type":"address","internalType":"address"},{"name":"to","type":"address","internalType":"address"},{"name":"tokenId","type":"uint256","internalType":"uint256"}],"outputs":[],"stateMutability":"nonpayable"},{"type":"function","name":"safeTransferFrom","inputs":[{"name":"from","type":"address","internalType":"address"},{"name":"to","type":"address","internalType":"address"},{"name":"tokenId","type":"uint256","internalType":"uint256"},{"name":"data","type":"bytes","internalType":"bytes"}],"outputs":[],"stateMutability":"nonpayable"},{"type":"function","name":"setActionRegistry","inputs":[{"name":"_actionRegistry","type":"address","internalType":"address"}],"outputs":[],"stateMutability":"nonpayable"},{"type":"function","name":"setApprovalForAll","inputs":[{"name":"operator","type":"address","internalType":"address"},{"name":"approved","type":"bool","internalType":"bool"}],"outputs":[],"stateMutability":"nonpayable"},{"type":"function","name":"setCookieJarModule","inputs":[{"name":"_cookieJarModule","type":"address","internalType":"address"}],"outputs":[],"stateMutability":"nonpayable"},{"type":"function","name":"setDeployment","inputs":[{"name":"_deploymentRegistry","type":"address","internalType":"address"}],"outputs":[],"stateMutability":"nonpayable"},{"type":"function","name":"setENSModule","inputs":[{"name":"_ensModule","type":"address","internalType":"address"}],"outputs":[],"stateMutability":"nonpayable"},{"type":"function","name":"setGardensModule","inputs":[{"name":"_gardensModule","type":"address","internalType":"address"}],"outputs":[],"stateMutability":"nonpayable"},{"type":"function","name":"setHatsModule","inputs":[{"name":"_hatsModule","type":"address","internalType":"address"}],"outputs":[],"stateMutability":"nonpayable"},{"type":"function","name":"setKarmaGAPModule","inputs":[{"name":"_karmaGAPModule","type":"address","internalType":"address"}],"outputs":[],"stateMutability":"nonpayable"},{"type":"function","name":"setOctantModule","inputs":[{"name":"_octantModule","type":"address","internalType":"address"}],"outputs":[],"stateMutability":"nonpayable"},{"type":"function","name":"setTransferRestriction","inputs":[{"name":"_restriction","type":"uint8","internalType":"enum GardenToken.TransferRestriction"}],"outputs":[],"stateMutability":"nonpayable"},{"type":"function","name":"supportsInterface","inputs":[{"name":"interfaceId","type":"bytes4","internalType":"bytes4"}],"outputs":[{"name":"","type":"bool","internalType":"bool"}],"stateMutability":"view"},{"type":"function","name":"symbol","inputs":[],"outputs":[{"name":"","type":"string","internalType":"string"}],"stateMutability":"view"},{"type":"function","name":"tokenURI","inputs":[{"name":"tokenId","type":"uint256","internalType":"uint256"}],"outputs":[{"name":"","type":"string","internalType":"string"}],"stateMutability":"view"},{"type":"function","name":"transferFrom","inputs":[{"name":"from","type":"address","internalType":"address"},{"name":"to","type":"address","internalType":"address"},{"name":"tokenId","type":"uint256","internalType":"uint256"}],"outputs":[],"stateMutability":"nonpayable"},{"type":"function","name":"transferOwnership","inputs":[{"name":"newOwner","type":"address","internalType":"address"}],"outputs":[],"stateMutability":"nonpayable"},{"type":"function","name":"transferRestriction","inputs":[],"outputs":[{"name":"","type":"uint8","internalType":"enum GardenToken.TransferRestriction"}],"stateMutability":"view"},{"type":"function","name":"upgradeTo","inputs":[{"name":"newImplementation","type":"address","internalType":"address"}],"outputs":[],"stateMutability":"nonpayable"},{"type":"function","name":"upgradeToAndCall","inputs":[{"name":"newImplementation","type":"address","internalType":"address"},{"name":"data","type":"bytes","internalType":"bytes"}],"outputs":[],"stateMutability":"payable"},{"type":"event","name":"ActionRegistryUpdated","inputs":[{"name":"oldRegistry","type":"address","indexed":true,"internalType":"address"},{"name":"newRegistry","type":"address","indexed":true,"internalType":"address"}],"anonymous":false},{"type":"event","name":"AdminChanged","inputs":[{"name":"previousAdmin","type":"address","indexed":false,"internalType":"address"},{"name":"newAdmin","type":"address","indexed":false,"internalType":"address"}],"anonymous":false},{"type":"event","name":"Approval","inputs":[{"name":"owner","type":"address","indexed":true,"internalType":"address"},{"name":"approved","type":"address","indexed":true,"internalType":"address"},{"name":"tokenId","type":"uint256","indexed":true,"internalType":"uint256"}],"anonymous":false},{"type":"event","name":"ApprovalForAll","inputs":[{"name":"owner","type":"address","indexed":true,"internalType":"address"},{"name":"operator","type":"address","indexed":true,"internalType":"address"},{"name":"approved","type":"bool","indexed":false,"internalType":"bool"}],"anonymous":false},{"type":"event","name":"BatchGardensMinted","inputs":[{"name":"startTokenId","type":"uint256","indexed":true,"internalType":"uint256"},{"name":"endTokenId","type":"uint256","indexed":true,"internalType":"uint256"},{"name":"minter","type":"address","indexed":true,"internalType":"address"},{"name":"count","type":"uint256","indexed":false,"internalType":"uint256"}],"anonymous":false},{"type":"event","name":"BeaconUpgraded","inputs":[{"name":"beacon","type":"address","indexed":true,"internalType":"address"}],"anonymous":false},{"type":"event","name":"CookieJarModuleUpdated","inputs":[{"name":"oldModule","type":"address","indexed":true,"internalType":"address"},{"name":"newModule","type":"address","indexed":true,"internalType":"address"}],"anonymous":false},{"type":"event","name":"ENSModuleUpdated","inputs":[{"name":"oldModule","type":"address","indexed":true,"internalType":"address"},{"name":"newModule","type":"address","indexed":true,"internalType":"address"}],"anonymous":false},{"type":"event","name":"GardenMinted","inputs":[{"name":"tokenId","type":"uint256","indexed":true,"internalType":"uint256"},{"name":"account","type":"address","indexed":true,"internalType":"address"},{"name":"name","type":"string","indexed":false,"internalType":"string"},{"name":"description","type":"string","indexed":false,"internalType":"string"},{"name":"location","type":"string","indexed":false,"internalType":"string"},{"name":"bannerImage","type":"string","indexed":false,"internalType":"string"},{"name":"openJoining","type":"bool","indexed":false,"internalType":"bool"}],"anonymous":false},{"type":"event","name":"GardensModuleUpdated","inputs":[{"name":"oldModule","type":"address","indexed":true,"internalType":"address"},{"name":"newModule","type":"address","indexed":true,"internalType":"address"}],"anonymous":false},{"type":"event","name":"HatsModuleUpdated","inputs":[{"name":"oldModule","type":"address","indexed":true,"internalType":"address"},{"name":"newModule","type":"address","indexed":true,"internalType":"address"}],"anonymous":false},{"type":"event","name":"Initialized","inputs":[{"name":"version","type":"uint8","indexed":false,"internalType":"uint8"}],"anonymous":false},{"type":"event","name":"KarmaGAPModuleUpdated","inputs":[{"name":"oldModule","type":"address","indexed":true,"internalType":"address"},{"name":"newModule","type":"address","indexed":true,"internalType":"address"}],"anonymous":false},{"type":"event","name":"OctantModuleUpdated","inputs":[{"name":"oldModule","type":"address","indexed":true,"internalType":"address"},{"name":"newModule","type":"address","indexed":true,"internalType":"address"}],"anonymous":false},{"type":"event","name":"OwnershipTransferred","inputs":[{"name":"previousOwner","type":"address","indexed":true,"internalType":"address"},{"name":"newOwner","type":"address","indexed":true,"internalType":"address"}],"anonymous":false},{"type":"event","name":"Transfer","inputs":[{"name":"from","type":"address","indexed":true,"internalType":"address"},{"name":"to","type":"address","indexed":true,"internalType":"address"},{"name":"tokenId","type":"uint256","indexed":true,"internalType":"uint256"}],"anonymous":false},{"type":"event","name":"Upgraded","inputs":[{"name":"implementation","type":"address","indexed":true,"internalType":"address"}],"anonymous":false},{"type":"error","name":"CommunityTokenNotContract","inputs":[]},{"type":"error","name":"DeploymentNotConfigured","inputs":[]},{"type":"error","name":"HatsModuleNotSet","inputs":[]},{"type":"error","name":"InvalidBatchSize","inputs":[]},{"type":"error","name":"InvalidCommunityToken","inputs":[]},{"type":"error","name":"InvalidERC20Token","inputs":[]},{"type":"error","name":"TransfersLocked","inputs":[]},{"type":"error","name":"TransfersRestricted","inputs":[]},{"type":"error","name":"UnauthorizedMinter","inputs":[]}],"bytecode":{"object":"0x60c03461013357601f6134f938819003918201601f19168301916001600160401b038311848410176101375780849260209460405283398101031261013357516001600160a01b0381168103610133573060805260a0525f5460ff8160081c166100de5760ff808216036100a4575b6040516133ad908161014c8239608051818181610fd7015281816111230152611846015260a05181818161027101526106d00152f35b60ff90811916175f557f7f26b83ff96e1f2b6a682f133852f6798a09c465da95921460cefb3847402498602060405160ff8152a15f61006e565b60405162461bcd60e51b815260206004820152602760248201527f496e697469616c697a61626c653a20636f6e747261637420697320696e697469604482015266616c697a696e6760c81b6064820152608490fd5b5f80fd5b634e487b7160e01b5f52604160045260245ffdfe6080806040526004361015610012575f80fd5b5f905f3560e01c90816301ffc9a714611d335750806306fdde0314611ca1578063081812fc14611c83578063095ea7b314611afd578063117ad57a14611ab0578063191d771914611a8857806323b872dd14611a64578063266f865214611a3c5780633659cfe6146118285780634026d7621461180057806342842e0e146117cc578063461d338c146117a0578063485cc9551461138f5780634c528446146113265780634f1ef286146110eb578063516b87d91461108257806352d1902d14610fc557806357c6e6a414610f5c5780636352211e14610f2c5780636c16ad3514610ee957806370a0823114610e54578063715018a614610e0c57806372a0d6ad14610de45780638da5cb5b14610dbc57806395d89b4114610cf1578063a22cb46514610c27578063adcb922114610bbe578063b4a9c60714610b96578063b88d4fde14610b20578063ba06c17614610ab7578063c663109214610a8f578063c87b56dd14610a2b578063d25d465214610a02578063d9e4aaee14610997578063e4ccb551146105eb578063e4e39678146105c2578063e7efdb2614610557578063e985e9c5146104ff578063f2fde38b1461046e5763f66b1486146101d6575f80fd5b602036600319011261039257600435906001600160401b038211610392578160040191610140600319823603011261046a576097546001600160a01b031633036103cc575b61022c61022784612107565b612582565b60cb546001600160a01b0316156103bd5760c9545f1981146103a9576001810160c955610259813361261b565b604051630918575160e11b81526020818061029985307f000000000000000000000000000000000000000000000000000000000000000060048501612167565b038173__$22345123dcf5f39d8c23eeef107f852197$__5af493841561039d57809461034c575b602061033c610344888888885f5160206132c15f395f51905f526102e76024840186612189565b906102f56064860188612189565b99909560e4610307608483018b612189565b61032361031a8d60a48795970190612189565b949093016121bb565b9360018060a01b038c169e8f9b604051998a998a6121e8565b0390a361278b565b604051908152f35b909193506020823d602011610395575b8161036960209383611e61565b8101031261039257509261033c9261034492610386602096612153565b945092819295506102c0565b80fd5b3d915061035c565b604051903d90823e3d90fd5b634e487b7160e01b83526011600452602483fd5b63127629f760e31b8252600482fd5b60ca546001600160a01b0316801561045b5760206024916040519283809262a743f760e61b82523360048301525afa83918161042a575b506104175763955c501b60e01b8352600483fd5b61021b5763955c501b60e01b8252600482fd5b61044d91925060203d602011610454575b6104458183611e61565b8101906120b8565b905f610403565b503d61043b565b63045824e160e51b8352600483fd5b5080fd5b503461039257602036600319011261039257610488611ddd565b610490612241565b6001600160a01b038116156104ab576104a8906124d6565b80f35b60405162461bcd60e51b815260206004820152602660248201527f4f776e61626c653a206e6577206f776e657220697320746865207a65726f206160448201526564647265737360d01b6064820152608490fd5b503461039257604036600319011261039257604061051b611ddd565b91610524611df3565b9260018060a01b03168152606a602052209060018060a01b03165f52602052602060ff60405f2054166040519015158152f35b503461039257602036600319011261039257610571611ddd565b610579612241565b60ce80546001600160a01b039283166001600160a01b0319821681179092559091167f1c2f4d6765fbc35ee83d1598538969716facf03e15ae9183c5f99259aeb5d3318380a380f35b503461039257806003193601126103925760cf546040516001600160a01b039091168152602090f35b506020366003190112610392576004356001600160401b03811161046a573660238201121561046a5760048101356001600160401b038111610993576024820191602436918360051b010111610993576097546001600160a01b03163303610905575b801580156108fb575b6108ec57825b8181106108cd575060cb546001600160a01b0316156108be5761067f8161211b565b9061068d6040519283611e61565b8082526106998161211b565b602083019390601f190136853760c954906106b48383612132565b60c9558573__$22345123dcf5f39d8c23eeef107f852197$__917f0000000000000000000000000000000000000000000000000000000000000000915b858110610798575050505060c954905f198201918211610784576040949394519283527fce282076a1439bd4b653b5657c2ab7abea5a48b4572799f57582e79e357b59f760203394a4604051928392602084019060208552518091526040840192915b818110610762575050500390f35b82516001600160a01b0316845285945060209384019390920191600101610754565b634e487b7160e01b86526011600452602486fd5b6107a28186612132565b6107ad8288856120d0565b6107b7823361261b565b604051630918575160e11b815290602082806107d886308b60048501612167565b03818a5af480156108b3578c90610875575b61084592506107fc6020830183612189565b945f5160206132c15f395f51905f526108186060860186612189565b97909361033c61082b6080890189612189565b61083860a08b018b612189565b9161032360e08d016121bb565b875182101561086157600582901b8801602001526001016106f1565b634e487b7160e01b8a52603260045260248afd5b506020823d82116108ab575b8161088e60209383611e61565b810103126108a7576108a261084592612153565b6107ea565b8b80fd5b3d9150610881565b6040513d8e823e3d90fd5b63127629f760e31b8352600483fd5b806108e66102276108e160019486886120d0565b612107565b0161065d565b637862e95960e01b8352600483fd5b50600a8111610657565b60ca546001600160a01b031680156109845760206024916040519283809262a743f760e61b82523360048301525afa849181610963575b506109505763955c501b60e01b8452600484fd5b61064e5763955c501b60e01b8352600483fd5b61097d91925060203d602011610454576104458183611e61565b905f61093c565b63045824e160e51b8452600484fd5b8280fd5b5034610392576020366003190112610392576109b1611ddd565b6109b9612241565b60cc80546001600160a01b039283166001600160a01b0319821681179092559091167fdbf2e72ed7bd92ccbb36e552bb0c1a8df6df7e6a54ab7ddc78720975e93fc88e8380a380f35b503461039257806003193601126103925760d0546040516001600160a01b039091168152602090f35b34610a8b576020366003190112610a8b57610a4f610a4a600435612ea5565b61204f565b5f604051610a5e602082611e61565b52610a87604051610a70602082611e61565b5f8152604051918291602083526020830190611d9e565b0390f35b5f80fd5b34610a8b575f366003190112610a8b5760ca546040516001600160a01b039091168152602090f35b34610a8b576020366003190112610a8b57610ad0611ddd565b610ad8612241565b60cf80546001600160a01b039283166001600160a01b0319821681179092559091167fe871cbdaca3c1bd8efb9eaa48b0acffb2a54d6baac7c7b976a366265838723da5f80a3005b34610a8b576080366003190112610a8b57610b39611ddd565b610b41611df3565b90606435906044356001600160401b038311610a8b57610b9493610b6c610b8f943690600401611ed5565b92610b7f610b7a8433612299565b611f51565b610b8a838383612368565b6130e4565b61255e565b005b34610a8b575f366003190112610a8b5760cb546040516001600160a01b039091168152602090f35b34610a8b576020366003190112610a8b57610bd7611ddd565b610bdf612241565b60cb80546001600160a01b039283166001600160a01b0319821681179092559091167fc8fef5c294d0999b744f1c0123bb9e98e3e739de8245692fde6df4f4625efc505f80a3005b34610a8b576040366003190112610a8b57610c40611ddd565b60243590811515809203610a8b576001600160a01b031690338214610cb057335f52606a60205260405f20825f5260205260405f2060ff1981541660ff83161790556040519081527f17307eab39ab6107e8899845ad3d59bd9653f200f220920489ca2b5937696c3160203392a3005b60405162461bcd60e51b815260206004820152601960248201527822a9219b99189d1030b8383937bb32903a379031b0b63632b960391b6044820152606490fd5b34610a8b575f366003190112610a8b576040515f606654610d1181611ef3565b8084529060018116908115610d985750600114610d4d575b610a8783610d3981850382611e61565b604051918291602083526020830190611d9e565b60665f9081525f5160206132215f395f51905f52939250905b808210610d7e57509091508101602001610d39610d29565b919260018160209254838588010152019101909291610d66565b60ff191660208086019190915291151560051b84019091019150610d399050610d29565b34610a8b575f366003190112610a8b576097546040516001600160a01b039091168152602090f35b34610a8b575f366003190112610a8b5760ce546040516001600160a01b039091168152602090f35b34610a8b575f366003190112610a8b57610e24612241565b609780546001600160a01b031981169091555f906001600160a01b03165f5160206132e15f395f51905f528280a3005b34610a8b576020366003190112610a8b576001600160a01b03610e75611ddd565b168015610e92575f526068602052602060405f2054604051908152f35b60405162461bcd60e51b815260206004820152602960248201527f4552433732313a2061646472657373207a65726f206973206e6f7420612076616044820152683634b21037bbb732b960b91b6064820152608490fd5b34610a8b576020366003190112610a8b57610f02611ddd565b610f0a612241565b60ca80546001600160a01b0319166001600160a01b0392909216919091179055005b34610a8b576020366003190112610a8b576020610f4a600435612096565b6040516001600160a01b039091168152f35b34610a8b576020366003190112610a8b57610f75611ddd565b610f7d612241565b60d180546001600160a01b039283166001600160a01b0319821681179092559091167fb36c04cd47dc5ac0f031b7a815757f7883731343f2d3aa6dbd5c33cf369c8e165f80a3005b34610a8b575f366003190112610a8b577f00000000000000000000000000000000000000000000000000000000000000006001600160a01b0316300361101c5760206040515f5160206132a15f395f51905f528152f35b60405162461bcd60e51b815260206004820152603860248201527f555550535570677261646561626c653a206d757374206e6f742062652063616c6044820152771b1959081d1a1c9bdd59da0819195b1959d85d1958d85b1b60421b6064820152608490fd5b34610a8b576020366003190112610a8b5761109b611ddd565b6110a3612241565b60d080546001600160a01b039283166001600160a01b0319821681179092559091167fb7f52c4862981bdf3d41a29cd9077644f7f34833735f8e427c70decedaa006af5f80a3005b6040366003190112610a8b576110ff611ddd565b6024356001600160401b038111610a8b5761111e903690600401611ed5565b6111757f00000000000000000000000000000000000000000000000000000000000000006001600160a01b031661115730821415611fb3565b5f5160206132a15f395f51905f52546001600160a01b031614612001565b61117d612241565b5f5160206132615f395f51905f525460ff161561119e5750610b9490612f35565b6040516352d1902d60e01b81526001600160a01b03831690602081600481855afa5f91816112f2575b506112155760405162461bcd60e51b815260206004820152602e60248201525f5160206133815f395f51905f5260448201526d6f6e206973206e6f74205555505360901b6064820152608490fd5b5f5160206132a15f395f51905f52036112ae5761123183612f35565b5f5160206133015f395f51905f525f80a28051158015906112a6575b61125357005b610b94915f8060405193611268606086611e61565b602785525f5160206133615f395f51905f526020860152660819985a5b195960ca1b6040860152602081519101845af46112a0612fc5565b91613187565b50600161124d565b60405162461bcd60e51b815260206004820152602960248201525f5160206133415f395f51905f526044820152681a58589b195555525160ba1b6064820152608490fd5b9091506020813d60201161131e575b8161130e60209383611e61565b81010312610a8b575190856111c7565b3d9150611301565b34610a8b576020366003190112610a8b5761133f611ddd565b611347612241565b60cd80546001600160a01b039283166001600160a01b0319821681179092559091167f8240dda544eb8ec4199e2248ad32f0b0962089fa82835994e8291bd75b5a663a5f80a3005b34610a8b576040366003190112610a8b576113a8611ddd565b6113b0611df3565b5f549060ff8260081c161591828093611793575b801561177c575b156117205760ff1981166001175f558261170f575b5060409283516113f08582611e61565b601281527123b932b2b71023b7b7b2399023b0b93232b760711b602082015284519061141c8683611e61565b600382526247474760e81b602083015261144560ff5f5460081c1661144081612476565b612476565b8051906001600160401b03821161162f578190611463606554611ef3565b601f81116116b4575b50602090601f831160011461164e575f92611643575b50508160011b915f199060031b1c1916176065555b8051906001600160401b03821161162f576114b3606654611ef3565b601f81116115df575b50602090601f8311600114611576576115109392915f918361156b575b50508160011b915f199060031b1c1916176066555b61150260ff5f5460081c1661144081612476565b61150b336124d6565b6124d6565b60ca80546001600160a01b0319166001600160a01b039290921691909117905561153657005b60207f7f26b83ff96e1f2b6a682f133852f6798a09c465da95921460cefb38474024989161ff00195f54165f555160018152a1005b0151905087806114d9565b90601f1983169160665f52815f20925f5b8181106115c75750916001939185611510979694106115af575b505050811b016066556114ee565b01515f1960f88460031b161c191690558780806115a1565b92936020600181928786015181550195019301611587565b60665f525f5160206132215f395f51905f52601f840160051c81019160208510611625575b601f0160051c01905b81811061161a57506114bc565b5f815560010161160d565b9091508190611604565b634e487b7160e01b5f52604160045260245ffd5b015190508780611482565b60655f9081528281209350601f198516905b81811061169c5750908460019594939210611684575b505050811b01606555611497565b01515f1960f88460031b161c19169055878080611676565b92936020600181928786015181550195019301611660565b60655f529091505f5160206132415f395f51905f52601f840160051c81019160208510611705575b90601f859493920160051c01905b8181106116f7575061146c565b5f81558493506001016116ea565b90915081906116dc565b61ffff1916610101175f55836113e0565b60405162461bcd60e51b815260206004820152602e60248201527f496e697469616c697a61626c653a20636f6e747261637420697320616c72656160448201526d191e481a5b9a5d1a585b1a5e995960921b6064820152608490fd5b50303b1580156113cb5750600160ff8216146113cb565b50600160ff8216106113c4565b34610a8b575f366003190112610a8b57602060ff60d15460a01c16604051906117c881611e43565b8152f35b34610a8b57610b94610b8f6117e036611e09565b90604051926117f0602085611e61565b5f8452610b7f610b7a8433612299565b34610a8b575f366003190112610a8b5760cc546040516001600160a01b039091168152602090f35b34610a8b576020366003190112610a8b57611841611ddd565b61187a7f00000000000000000000000000000000000000000000000000000000000000006001600160a01b031661115730821415611fb3565b611882612241565b6040519060206118928184611e61565b5f8352808301601f1982013682375f5160206132615f395f51905f525460ff16156118c3575050610b949150612f35565b6040516352d1902d60e01b81529192916001600160a01b038316908481600481855afa5f9181611a0d575b5061193c5760405162461bcd60e51b815260048101869052602e60248201525f5160206133815f395f51905f5260448201526d6f6e206973206e6f74205555505360901b6064820152608490fd5b5f5160206132a15f395f51905f52036119c95761195883612f35565b5f5160206133015f395f51905f525f80a28351158015906119c2575b61197a57005b5f8091610b94955f5160206133615f395f51905f526040519661199e606089611e61565b60278852870152660819985a5b195960ca1b60408701525190845af46112a0612fc5565b505f611974565b60405162461bcd60e51b815260048101859052602960248201525f5160206133415f395f51905f526044820152681a58589b195555525160ba1b6064820152608490fd5b9091508581813d8311611a35575b611a258183611e61565b81010312610a8b575190876118ee565b503d611a1b565b34610a8b575f366003190112610a8b5760cd546040516001600160a01b039091168152602090f35b34610a8b57610b94611a7536611e09565b91611a83610b7a8433612299565b612368565b34610a8b575f366003190112610a8b5760d1546040516001600160a01b039091168152602090f35b34610a8b576020366003190112610a8b576004356003811015610a8b57611ad5612241565b611ade81611e43565b60d1805460ff60a01b191660a09290921b60ff60a01b16919091179055005b34610a8b576040366003190112610a8b57611b16611ddd565b602435906001600160a01b03611b2b83612096565b6001600160a01b039092169116818114611c3457803314908115611c10575b5015611ba5575f82815260696020526040902080546001600160a01b031916821790556001600160a01b03611b7e83612096565b167f8c5be1e5ebec7d5bd14f71427d1e84f3dd0314c0f7b2291e5b200ac8c7c3b9255f80a4005b60405162461bcd60e51b815260206004820152603d60248201527f4552433732313a20617070726f76652063616c6c6572206973206e6f7420746f60448201527f6b656e206f776e6572206f7220617070726f76656420666f7220616c6c0000006064820152608490fd5b5f908152606a6020908152604080832033845290915290205460ff16905083611b4a565b60405162461bcd60e51b815260206004820152602160248201527f4552433732313a20617070726f76616c20746f2063757272656e74206f776e656044820152603960f91b6064820152608490fd5b34610a8b576020366003190112610a8b576020610f4a600435611f2b565b34610a8b575f366003190112610a8b576040515f606554611cc181611ef3565b8084529060018116908115610d985750600114611ce857610a8783610d3981850382611e61565b60655f9081525f5160206132415f395f51905f52939250905b808210611d1957509091508101602001610d39610d29565b919260018160209254838588010152019101909291611d01565b34610a8b576020366003190112610a8b576004359063ffffffff60e01b8216809203610a8b576020916380ac58cd60e01b8114908115611d8d575b8115611d7c575b5015158152f35b6301ffc9a760e01b14905083611d75565b635b5e139f60e01b81149150611d6e565b91908251928382525f5b848110611dc8575050825f602080949584010152601f8019910116010190565b80602080928401015182828601015201611da8565b600435906001600160a01b0382168203610a8b57565b602435906001600160a01b0382168203610a8b57565b6060906003190112610a8b576004356001600160a01b0381168103610a8b57906024356001600160a01b0381168103610a8b579060443590565b60031115611e4d57565b634e487b7160e01b5f52602160045260245ffd5b601f909101601f19168101906001600160401b0382119082101761162f57604052565b6001600160401b03811161162f57601f01601f191660200190565b929192611eab82611e84565b91611eb96040519384611e61565b829481845281830111610a8b578281602093845f960137010152565b9080601f83011215610a8b57816020611ef093359101611e9f565b90565b90600182811c92168015611f21575b6020831014611f0d57565b634e487b7160e01b5f52602260045260245ffd5b91607f1691611f02565b611f37610a4a82612ea5565b5f908152606960205260409020546001600160a01b031690565b15611f5857565b60405162461bcd60e51b815260206004820152602d60248201527f4552433732313a2063616c6c6572206973206e6f7420746f6b656e206f776e6560448201526c1c881bdc88185c1c1c9bdd9959609a1b6064820152608490fd5b15611fba57565b60405162461bcd60e51b815260206004820152602c60248201525f5160206132815f395f51905f5260448201526b19195b1959d85d1958d85b1b60a21b6064820152608490fd5b1561200857565b60405162461bcd60e51b815260206004820152602c60248201525f5160206132815f395f51905f5260448201526b6163746976652070726f787960a01b6064820152608490fd5b1561205657565b60405162461bcd60e51b8152602060048201526018602482015277115490cdcc8c4e881a5b9d985b1a59081d1bdad95b88125160421b6044820152606490fd5b5f908152606760205260409020546001600160a01b0316611ef081151561204f565b90816020910312610a8b57518015158103610a8b5790565b91908110156120f35760051b8101359061013e1981360301821215610a8b570190565b634e487b7160e01b5f52603260045260245ffd5b356001600160a01b0381168103610a8b5790565b6001600160401b03811161162f5760051b60200190565b9190820180921161213f57565b634e487b7160e01b5f52601160045260245ffd5b51906001600160a01b0382168203610a8b57565b6001600160a01b03918216815291166020820152604081019190915260600190565b903590601e1981360301821215610a8b57018035906001600160401b038211610a8b57602001918136038313610a8b57565b358015158103610a8b5790565b908060209392818452848401375f828201840152601f01601f1916010190565b979361222b9361221d9161220f612239999460809b99969d9e9d60a08e81815201916121c8565b918b830360208d01526121c8565b9188830360408a01526121c8565b9185830360608701526121c8565b931515910152565b6097546001600160a01b0316330361225557565b606460405162461bcd60e51b815260206004820152602060248201527f4f776e61626c653a2063616c6c6572206973206e6f7420746865206f776e65726044820152fd5b906001600160a01b036122ab82612096565b6001600160a01b03909316921682811492919083156122eb575b5082156122d157505090565b9091506001600160a01b03906122e690611f2b565b161490565b9092505f52606a60205260405f20815f5260205260ff60405f205416915f6122c5565b1561231557565b60405162461bcd60e51b815260206004820152602560248201527f4552433732313a207472616e736665722066726f6d20696e636f72726563742060448201526437bbb732b960d91b6064820152608490fd5b9061237283612096565b6001600160a01b03838116929161238b9116831461230e565b6001600160a01b0316918215612425576123a490612ec1565b6123c0816001600160a01b036123b986612096565b161461230e565b5f83815260696020908152604080832080546001600160a01b03199081169091558484526068835281842080545f1901905585845281842080546001019055868452606790925282208054909116841790555f5160206133215f395f51905f529080a4565b60405162461bcd60e51b8152602060048201526024808201527f4552433732313a207472616e7366657220746f20746865207a65726f206164646044820152637265737360e01b6064820152608490fd5b1561247d57565b60405162461bcd60e51b815260206004820152602b60248201527f496e697469616c697a61626c653a20636f6e7472616374206973206e6f74206960448201526a6e697469616c697a696e6760a81b6064820152608490fd5b609780546001600160a01b039283166001600160a01b0319821681179092559091165f5160206132e15f395f51905f525f80a3565b60809060208152603260208201527f4552433732313a207472616e7366657220746f206e6f6e20455243373231526560408201527131b2b4bb32b91034b6b83632b6b2b73a32b960711b60608201520190565b1561256557565b60405162461bcd60e51b81528061257e6004820161250b565b0390fd5b6001600160a01b03811690811561260c573b156125fd576020600491604051928380926318160ddd60e01b82525afa90816125ce575b506125cc576326412d8960e21b5f5260045ffd5b565b6020813d6020116125f5575b816125e760209383611e61565b81010312610a8b57516125b8565b3d91506125da565b63d0acc0d360e01b5f5260045ffd5b631a747e4f60e31b5f5260045ffd5b6040519190602061262c8185611e61565b5f84526001600160a01b0382169081156126b0579183809260676125cc979561266061265a610b8f99612ea5565b1561313c565b61266c61265a85612ea5565b5f838152606882526040808220805460010190558582529290915290812080546001600160a01b031916831790555f5160206133215f395f51905f528180a4612ff4565b6064906040519062461bcd60e51b825280600483015260248201527f4552433732313a206d696e7420746f20746865207a65726f20616464726573736044820152fd5b9080601f83011215610a8b57815161270a8161211b565b926127186040519485611e61565b81845260208085019260051b820101928311610a8b57602001905b8282106127405750505090565b6020809161274d84612153565b815201910190612733565b90602082820312610a8b5781516001600160401b038111610a8b57611ef092016126f3565b3560ff81168103610a8b5790565b60cb5492915f91602080830191906127ea6127a68486612189565b98905f6127b288612107565b6040516360fac62560e01b81526001600160a01b0390971660048801819052606060248901529b8795869485939260648501916121c8565b6001600160a01b0391821660448401529190910393165af18015612e6b57612e76575b5060cb546001600160a01b0316803b15610a8b575f8091606460405180948193633868e7e560e01b83528b6004840152336024840152600360448401525af18015612e6b57612e56575b5060cc546001600160a01b031680612d6b575b5060cd546001600160a01b03168381612d07575b505060ce546001600160a01b031680612c79575b5060d05483906001600160a01b031680612c30575b5050610120820160ff6128b98261277d565b16151580612c1c575b612bb2575b5060d1546001600160a01b031680151580612b9b575b612b29575b506128f66128ef83612107565b9183612189565b95909160e06129086040860186612189565b9190956129186060820182612189565b9690976129286080840184612189565b99909161293860a0860186612189565b97909461295461294b60c0890189612189565b999098016121bb565b9f6040519a6101008c018c811060018060401b03821117612b13576040526001600160a01b03168b528a9998976129f39790966129e49691956129d59591946129c6946129b793916020916129ab91369190611e9f565b9f019e8f523691611e9f565b9d60408c019e8f523691611e9f565b9c60608a019d8e523691611e9f565b95608088019687523691611e9f565b9260a086019384523691611e9f565b9160c0840192835260e084019a15158b52853b15612b0f57604051630bc4241b60e01b81526020600482015293516001600160a01b03166024850152935161010060448501529899979892978997899788968a968896949593919290612a5e90610124890190611d9e565b9051878203602319016064890152612a769190611d9e565b9051868203602319016084880152612a8e9190611d9e565b90518582036023190160a4870152612aa69190611d9e565b90518482036023190160c4860152612abe9190611d9e565b90518382036023190160e4850152612ad69190611d9e565b9051151561010483015203925af18015612b0457612af2575050565b612afd828092611e61565b6103925750565b6040513d84823e3d90fd5b8880fd5b5050634e487b7160e01b8f52604160045260248ffd5b612b366040840184612189565b8291923b15612b97578592612b6b92849260405180958194829363640ebb9560e01b84526040600485015260448401916121c8565b8c6024830152039134905af1612b82575b506128e2565b81612b8c91611e61565b61099357825f612b7c565b8580fd5b50612ba96040840184612189565b905015156128dd565b60cf546001600160a01b031690612bc89061277d565b90803b15612c18578480926044898360ff956040519687958694628a782f60e81b865260048601521660248401525af1612c03575b506128c7565b81612c0d91611e61565b61099357825f612bfd565b8480fd5b5060cf546001600160a01b031615156128c2565b8190602460405180948193634450925160e01b83528b60048401525af1612c59575b83906128a7565b612c74903d8086833e612c6c8183611e61565b810190612758565b612c52565b6101008301356003811015612c185784916044839260405194859384926324e2cb2b60e11b84528c6004850152612caf81611e43565b60248401525af115612892573d8085833e612cca8183611e61565b810190604081830312612c1857612ce081612153565b506020810151906001600160401b038211612b9757612d009291016126f3565b505f612892565b612d4491612d158486612189565b838a604094939451968795869485936343d2636360e11b855260048501526040602485015260448401916121c8565b03925af1612d53575b8361287e565b612d66903d8086833e612c6c8183611e61565b612d4d565b612d758284612189565b90919087612d866060870187612189565b90612d946080890189612189565b612da160a08b018b612189565b939094604051998a988998638ae4d28160e01b8a5260048a01523360248a01526044890160c0905260c4890190612dd7926121c8565b90600319888303016064890152612ded926121c8565b90600319868303016084870152612e03926121c8565b906003198483030160a4850152612e19926121c8565b0381875a94602095f11561286a576020813d602011612e4e575b81612e4060209383611e61565b81010312610a8b575161286a565b3d9150612e33565b612e639193505f90611e61565b5f915f612857565b6040513d5f823e3d90fd5b6020813d602011612e9d575b81612e8f60209383611e61565b81010312610a8b575161280d565b3d9150612e82565b5f908152606760205260409020546001600160a01b0316151590565b6001600160a01b0316156125cc5760ff60d15460a01c16612ee181611e43565b60028114612f2657600190612ef581611e43565b1480612f11575b612f0257565b637be07bbd60e11b5f5260045ffd5b506097546001600160a01b0316331415612efc565b6336e278fd60e21b5f5260045ffd5b803b15612f6a575f5160206132a15f395f51905f5280546001600160a01b0319166001600160a01b0392909216919091179055565b60405162461bcd60e51b815260206004820152602d60248201527f455243313936373a206e657720696d706c656d656e746174696f6e206973206e60448201526c1bdd08184818dbdb9d1c9858dd609a1b6064820152608490fd5b3d15612fef573d90612fd682611e84565b91612fe46040519384611e61565b82523d5f602084013e565b606090565b91823b156130dc57613039926020925f604051809681958294630a85bd0160e11b84523360048501528460248501526044840152608060648401526084830190611d9e565b03926001600160a01b03165af15f9181613097575b506130815761305b612fc5565b8051908161307c5760405162461bcd60e51b81528061257e6004820161250b565b602001fd5b6001600160e01b031916630a85bd0160e11b1490565b9091506020813d6020116130d4575b816130b360209383611e61565b81010312610a8b57516001600160e01b031981168103610a8b57905f61304e565b3d91506130a6565b505050600190565b919290803b1561313357613039935f60209460405196879586948593630a85bd0160e11b855233600486015260018060a01b031660248501526044840152608060648401526084830190611d9e565b50505050600190565b1561314357565b60405162461bcd60e51b815260206004820152601c60248201527b115490cdcc8c4e881d1bdad95b88185b1c9958591e481b5a5b9d195960221b6044820152606490fd5b919290156131e9575081511561319b575090565b3b156131a45790565b60405162461bcd60e51b815260206004820152601d60248201527f416464726573733a2063616c6c20746f206e6f6e2d636f6e74726163740000006044820152606490fd5b8251909150156131fc5750805190602001fd5b60405162461bcd60e51b81526020600482015290819061257e906024830190611d9e56fe46501879b8ca8525e8c2fd519e2fbfcfa2ebea26501294aa02cbfcfb12e943548ff97419363ffd7000167f130ef7168fbea05faf9251824ca5043f113cc6a7c74910fdfa16fed3260ed0e7147f7cc6da11a60208b5b9406d12a635614ffd914346756e6374696f6e206d7573742062652063616c6c6564207468726f75676820360894a13ba1a3210667c828492db98dca3e2076cc3735a920a3ca505d382bbcd9622e038d73e9b439c5fda047b4a8ec1f5e41816b766fcdd534c56fc90704278be0079c531659141344cd1fd0a4f28419497f9722a3daafe3b4186f6b6457e0bc7cd75a20ee27fd9adebab32041f755214dbc6bffa90cc0225b39da2e5c2d3bddf252ad1be2c89b69c2b068fc378daa952ba7f163c4a11628f55a4df523b3ef45524331393637557067726164653a20756e737570706f727465642070726f78416464726573733a206c6f772d6c6576656c2064656c65676174652063616c6c45524331393637557067726164653a206e657720696d706c656d656e74617469a164736f6c634300081c000a","linkReferences":{"src/lib/TBA.sol":{"TBALib":[{"start":1001,"length":20},{"start":2054,"length":20}]}}},"methodIdentifiers":{"actionRegistry()":"e4e39678","approve(address,uint256)":"095ea7b3","balanceOf(address)":"70a08231","batchMintGardens((address,string,string,string,string,string,string,bool,uint8,uint8)[])":"e4ccb551","cookieJarModule()":"d25d4652","deploymentRegistry()":"c6631092","ensModule()":"191d7719","gardensModule()":"72a0d6ad","getApproved(uint256)":"081812fc","hatsModule()":"b4a9c607","initialize(address,address)":"485cc955","isApprovedForAll(address,address)":"e985e9c5","karmaGAPModule()":"4026d762","mintGarden((address,string,string,string,string,string,string,bool,uint8,uint8))":"f66b1486","name()":"06fdde03","octantModule()":"266f8652","owner()":"8da5cb5b","ownerOf(uint256)":"6352211e","proxiableUUID()":"52d1902d","renounceOwnership()":"715018a6","safeTransferFrom(address,address,uint256)":"42842e0e","safeTransferFrom(address,address,uint256,bytes)":"b88d4fde","setActionRegistry(address)":"ba06c176","setApprovalForAll(address,bool)":"a22cb465","setCookieJarModule(address)":"516b87d9","setDeployment(address)":"6c16ad35","setENSModule(address)":"57c6e6a4","setGardensModule(address)":"e7efdb26","setHatsModule(address)":"adcb9221","setKarmaGAPModule(address)":"d9e4aaee","setOctantModule(address)":"4c528446","setTransferRestriction(uint8)":"117ad57a","supportsInterface(bytes4)":"01ffc9a7","symbol()":"95d89b41","tokenURI(uint256)":"c87b56dd","transferFrom(address,address,uint256)":"23b872dd","transferOwnership(address)":"f2fde38b","transferRestriction()":"461d338c","upgradeTo(address)":"3659cfe6","upgradeToAndCall(address,bytes)":"4f1ef286"},"id":182}