{"abi":[{"type":"constructor","inputs":[{"name":"erc4337EntryPoint","type":"address","internalType":"address"},{"name":"multicallForwarder","type":"address","internalType":"address"},{"name":"erc6551Registry","type":"address","internalType":"address"},{"name":"guardian","type":"address","internalType":"address"},{"name":"workApprovalResolver","type":"address","internalType":"address"},{"name":"assessmentResolver","type":"address","internalType":"address"}],"stateMutability":"nonpayable"},{"type":"fallback","stateMutability":"payable"},{"type":"receive","stateMutability":"payable"},{"type":"function","name":"ASSESSMENT_RESOLVER","inputs":[],"outputs":[{"name":"","type":"address","internalType":"address"}],"stateMutability":"view"},{"type":"function","name":"WORK_APPROVAL_RESOLVER","inputs":[],"outputs":[{"name":"","type":"address","internalType":"address"}],"stateMutability":"view"},{"type":"function","name":"bannerImage","inputs":[],"outputs":[{"name":"","type":"string","internalType":"string"}],"stateMutability":"view"},{"type":"function","name":"communityToken","inputs":[],"outputs":[{"name":"","type":"address","internalType":"address"}],"stateMutability":"view"},{"type":"function","name":"description","inputs":[],"outputs":[{"name":"","type":"string","internalType":"string"}],"stateMutability":"view"},{"type":"function","name":"entryPoint","inputs":[],"outputs":[{"name":"","type":"address","internalType":"contract IEntryPoint"}],"stateMutability":"view"},{"type":"function","name":"erc6551Registry","inputs":[],"outputs":[{"name":"","type":"address","internalType":"address"}],"stateMutability":"view"},{"type":"function","name":"execute","inputs":[{"name":"to","type":"address","internalType":"address"},{"name":"value","type":"uint256","internalType":"uint256"},{"name":"data","type":"bytes","internalType":"bytes"},{"name":"operation","type":"uint8","internalType":"uint8"}],"outputs":[{"name":"","type":"bytes","internalType":"bytes"}],"stateMutability":"payable"},{"type":"function","name":"executeAutoStake","inputs":[{"name":"goodsToken_","type":"address","internalType":"address"},{"name":"community","type":"address","internalType":"address"},{"name":"stakeAmount","type":"uint256","internalType":"uint256"},{"name":"member","type":"address","internalType":"address"}],"outputs":[],"stateMutability":"nonpayable"},{"type":"function","name":"executeBatch","inputs":[{"name":"operations","type":"tuple[]","internalType":"struct BatchExecutor.Operation[]","components":[{"name":"to","type":"address","internalType":"address"},{"name":"value","type":"uint256","internalType":"uint256"},{"name":"data","type":"bytes","internalType":"bytes"},{"name":"operation","type":"uint8","internalType":"uint8"}]}],"outputs":[{"name":"","type":"bytes[]","internalType":"bytes[]"}],"stateMutability":"payable"},{"type":"function","name":"executeNested","inputs":[{"name":"to","type":"address","internalType":"address"},{"name":"value","type":"uint256","internalType":"uint256"},{"name":"data","type":"bytes","internalType":"bytes"},{"name":"operation","type":"uint8","internalType":"uint8"},{"name":"proof","type":"tuple[]","internalType":"struct NestedAccountExecutor.ERC6551AccountInfo[]","components":[{"name":"salt","type":"bytes32","internalType":"bytes32"},{"name":"tokenContract","type":"address","internalType":"address"},{"name":"tokenId","type":"uint256","internalType":"uint256"}]}],"outputs":[{"name":"","type":"bytes","internalType":"bytes"}],"stateMutability":"payable"},{"type":"function","name":"extcall","inputs":[{"name":"to","type":"address","internalType":"address"},{"name":"value","type":"uint256","internalType":"uint256"},{"name":"data","type":"bytes","internalType":"bytes"}],"outputs":[{"name":"result","type":"bytes","internalType":"bytes"}],"stateMutability":"nonpayable"},{"type":"function","name":"extcreate","inputs":[{"name":"value","type":"uint256","internalType":"uint256"},{"name":"bytecode","type":"bytes","internalType":"bytes"}],"outputs":[{"name":"","type":"address","internalType":"address"}],"stateMutability":"nonpayable"},{"type":"function","name":"extcreate2","inputs":[{"name":"value","type":"uint256","internalType":"uint256"},{"name":"salt","type":"bytes32","internalType":"bytes32"},{"name":"bytecode","type":"bytes","internalType":"bytes"}],"outputs":[{"name":"","type":"address","internalType":"address"}],"stateMutability":"nonpayable"},{"type":"function","name":"extsload","inputs":[{"name":"slot","type":"bytes32","internalType":"bytes32"}],"outputs":[{"name":"value","type":"bytes32","internalType":"bytes32"}],"stateMutability":"view"},{"type":"function","name":"gapProjectUID","inputs":[],"outputs":[{"name":"","type":"bytes32","internalType":"bytes32"}],"stateMutability":"view"},{"type":"function","name":"gardenMemberCount","inputs":[],"outputs":[{"name":"","type":"uint256","internalType":"uint256"}],"stateMutability":"view"},{"type":"function","name":"getGAPProjectUID","inputs":[],"outputs":[{"name":"","type":"bytes32","internalType":"bytes32"}],"stateMutability":"view"},{"type":"function","name":"getNonce","inputs":[],"outputs":[{"name":"","type":"uint256","internalType":"uint256"}],"stateMutability":"view"},{"type":"function","name":"initialize","inputs":[{"name":"params","type":"tuple","internalType":"struct IGardenAccount.InitParams","components":[{"name":"communityToken","type":"address","internalType":"address"},{"name":"name","type":"string","internalType":"string"},{"name":"slug","type":"string","internalType":"string"},{"name":"description","type":"string","internalType":"string"},{"name":"location","type":"string","internalType":"string"},{"name":"bannerImage","type":"string","internalType":"string"},{"name":"metadata","type":"string","internalType":"string"},{"name":"openJoining","type":"bool","internalType":"bool"}]}],"outputs":[],"stateMutability":"nonpayable"},{"type":"function","name":"isCommunity","inputs":[{"name":"account","type":"address","internalType":"address"}],"outputs":[{"name":"","type":"bool","internalType":"bool"}],"stateMutability":"view"},{"type":"function","name":"isEvaluator","inputs":[{"name":"account","type":"address","internalType":"address"}],"outputs":[{"name":"","type":"bool","internalType":"bool"}],"stateMutability":"view"},{"type":"function","name":"isFunder","inputs":[{"name":"account","type":"address","internalType":"address"}],"outputs":[{"name":"","type":"bool","internalType":"bool"}],"stateMutability":"view"},{"type":"function","name":"isGardener","inputs":[{"name":"account","type":"address","internalType":"address"}],"outputs":[{"name":"","type":"bool","internalType":"bool"}],"stateMutability":"view"},{"type":"function","name":"isLocked","inputs":[],"outputs":[{"name":"","type":"bool","internalType":"bool"}],"stateMutability":"view"},{"type":"function","name":"isOperator","inputs":[{"name":"account","type":"address","internalType":"address"}],"outputs":[{"name":"","type":"bool","internalType":"bool"}],"stateMutability":"view"},{"type":"function","name":"isOwner","inputs":[{"name":"account","type":"address","internalType":"address"}],"outputs":[{"name":"","type":"bool","internalType":"bool"}],"stateMutability":"view"},{"type":"function","name":"isTrustedForwarder","inputs":[{"name":"forwarder","type":"address","internalType":"address"}],"outputs":[{"name":"","type":"bool","internalType":"bool"}],"stateMutability":"view"},{"type":"function","name":"isValidSignature","inputs":[{"name":"hash","type":"bytes32","internalType":"bytes32"},{"name":"signature","type":"bytes","internalType":"bytes"}],"outputs":[{"name":"magicValue","type":"bytes4","internalType":"bytes4"}],"stateMutability":"view"},{"type":"function","name":"isValidSigner","inputs":[{"name":"signer","type":"address","internalType":"address"},{"name":"data","type":"bytes","internalType":"bytes"}],"outputs":[{"name":"magicValue","type":"bytes4","internalType":"bytes4"}],"stateMutability":"view"},{"type":"function","name":"joinGarden","inputs":[],"outputs":[],"stateMutability":"nonpayable"},{"type":"function","name":"location","inputs":[],"outputs":[{"name":"","type":"string","internalType":"string"}],"stateMutability":"view"},{"type":"function","name":"lock","inputs":[{"name":"_lockedUntil","type":"uint256","internalType":"uint256"}],"outputs":[],"stateMutability":"nonpayable"},{"type":"function","name":"lockedUntil","inputs":[],"outputs":[{"name":"","type":"uint256","internalType":"uint256"}],"stateMutability":"view"},{"type":"function","name":"maxGardeners","inputs":[],"outputs":[{"name":"","type":"uint256","internalType":"uint256"}],"stateMutability":"view"},{"type":"function","name":"metadata","inputs":[],"outputs":[{"name":"","type":"string","internalType":"string"}],"stateMutability":"view"},{"type":"function","name":"name","inputs":[],"outputs":[{"name":"","type":"string","internalType":"string"}],"stateMutability":"view"},{"type":"function","name":"onERC1155BatchReceived","inputs":[{"name":"","type":"address","internalType":"address"},{"name":"","type":"address","internalType":"address"},{"name":"","type":"uint256[]","internalType":"uint256[]"},{"name":"","type":"uint256[]","internalType":"uint256[]"},{"name":"","type":"bytes","internalType":"bytes"}],"outputs":[{"name":"","type":"bytes4","internalType":"bytes4"}],"stateMutability":"nonpayable"},{"type":"function","name":"onERC1155Received","inputs":[{"name":"","type":"address","internalType":"address"},{"name":"","type":"address","internalType":"address"},{"name":"","type":"uint256","internalType":"uint256"},{"name":"","type":"uint256","internalType":"uint256"},{"name":"","type":"bytes","internalType":"bytes"}],"outputs":[{"name":"","type":"bytes4","internalType":"bytes4"}],"stateMutability":"nonpayable"},{"type":"function","name":"onERC721Received","inputs":[{"name":"","type":"address","internalType":"address"},{"name":"","type":"address","internalType":"address"},{"name":"tokenId","type":"uint256","internalType":"uint256"},{"name":"","type":"bytes","internalType":"bytes"}],"outputs":[{"name":"","type":"bytes4","internalType":"bytes4"}],"stateMutability":"nonpayable"},{"type":"function","name":"openJoining","inputs":[],"outputs":[{"name":"","type":"bool","internalType":"bool"}],"stateMutability":"view"},{"type":"function","name":"overrides","inputs":[{"name":"","type":"address","internalType":"address"},{"name":"","type":"bytes4","internalType":"bytes4"}],"outputs":[{"name":"","type":"address","internalType":"address"}],"stateMutability":"view"},{"type":"function","name":"owner","inputs":[],"outputs":[{"name":"","type":"address","internalType":"address"}],"stateMutability":"view"},{"type":"function","name":"permissions","inputs":[{"name":"","type":"address","internalType":"address"},{"name":"","type":"address","internalType":"address"}],"outputs":[{"name":"","type":"bool","internalType":"bool"}],"stateMutability":"view"},{"type":"function","name":"proxiableUUID","inputs":[],"outputs":[{"name":"","type":"bytes32","internalType":"bytes32"}],"stateMutability":"view"},{"type":"function","name":"setMaxGardeners","inputs":[{"name":"_max","type":"uint256","internalType":"uint256"}],"outputs":[],"stateMutability":"nonpayable"},{"type":"function","name":"setOpenJoining","inputs":[{"name":"_openJoining","type":"bool","internalType":"bool"}],"outputs":[],"stateMutability":"nonpayable"},{"type":"function","name":"setOverrides","inputs":[{"name":"selectors","type":"bytes4[]","internalType":"bytes4[]"},{"name":"implementations","type":"address[]","internalType":"address[]"}],"outputs":[],"stateMutability":"nonpayable"},{"type":"function","name":"setPermissions","inputs":[{"name":"callers","type":"address[]","internalType":"address[]"},{"name":"_permissions","type":"bool[]","internalType":"bool[]"}],"outputs":[],"stateMutability":"nonpayable"},{"type":"function","name":"slug","inputs":[],"outputs":[{"name":"","type":"string","internalType":"string"}],"stateMutability":"view"},{"type":"function","name":"state","inputs":[],"outputs":[{"name":"","type":"uint256","internalType":"uint256"}],"stateMutability":"view"},{"type":"function","name":"supportsInterface","inputs":[{"name":"interfaceId","type":"bytes4","internalType":"bytes4"}],"outputs":[{"name":"","type":"bool","internalType":"bool"}],"stateMutability":"view"},{"type":"function","name":"token","inputs":[],"outputs":[{"name":"chainId","type":"uint256","internalType":"uint256"},{"name":"tokenContract","type":"address","internalType":"address"},{"name":"tokenId","type":"uint256","internalType":"uint256"}],"stateMutability":"view"},{"type":"function","name":"updateBannerImage","inputs":[{"name":"_bannerImage","type":"string","internalType":"string"}],"outputs":[],"stateMutability":"nonpayable"},{"type":"function","name":"updateDescription","inputs":[{"name":"_description","type":"string","internalType":"string"}],"outputs":[],"stateMutability":"nonpayable"},{"type":"function","name":"updateLocation","inputs":[{"name":"_location","type":"string","internalType":"string"}],"outputs":[],"stateMutability":"nonpayable"},{"type":"function","name":"updateMetadata","inputs":[{"name":"_metadata","type":"string","internalType":"string"}],"outputs":[],"stateMutability":"nonpayable"},{"type":"function","name":"updateName","inputs":[{"name":"_name","type":"string","internalType":"string"}],"outputs":[],"stateMutability":"nonpayable"},{"type":"function","name":"upgradeTo","inputs":[{"name":"newImplementation","type":"address","internalType":"address"}],"outputs":[],"stateMutability":"nonpayable"},{"type":"function","name":"upgradeToAndCall","inputs":[{"name":"newImplementation","type":"address","internalType":"address"},{"name":"data","type":"bytes","internalType":"bytes"}],"outputs":[],"stateMutability":"payable"},{"type":"function","name":"validateUserOp","inputs":[{"name":"userOp","type":"tuple","internalType":"struct UserOperation","components":[{"name":"sender","type":"address","internalType":"address"},{"name":"nonce","type":"uint256","internalType":"uint256"},{"name":"initCode","type":"bytes","internalType":"bytes"},{"name":"callData","type":"bytes","internalType":"bytes"},{"name":"callGasLimit","type":"uint256","internalType":"uint256"},{"name":"verificationGasLimit","type":"uint256","internalType":"uint256"},{"name":"preVerificationGas","type":"uint256","internalType":"uint256"},{"name":"maxFeePerGas","type":"uint256","internalType":"uint256"},{"name":"maxPriorityFeePerGas","type":"uint256","internalType":"uint256"},{"name":"paymasterAndData","type":"bytes","internalType":"bytes"},{"name":"signature","type":"bytes","internalType":"bytes"}]},{"name":"userOpHash","type":"bytes32","internalType":"bytes32"},{"name":"missingAccountFunds","type":"uint256","internalType":"uint256"}],"outputs":[{"name":"validationData","type":"uint256","internalType":"uint256"}],"stateMutability":"nonpayable"},{"type":"event","name":"AdminChanged","inputs":[{"name":"previousAdmin","type":"address","indexed":false,"internalType":"address"},{"name":"newAdmin","type":"address","indexed":false,"internalType":"address"}],"anonymous":false},{"type":"event","name":"BannerImageUpdated","inputs":[{"name":"updater","type":"address","indexed":true,"internalType":"address"},{"name":"newBannerImage","type":"string","indexed":false,"internalType":"string"}],"anonymous":false},{"type":"event","name":"BeaconUpgraded","inputs":[{"name":"beacon","type":"address","indexed":true,"internalType":"address"}],"anonymous":false},{"type":"event","name":"CommunityTokenUpdated","inputs":[{"name":"updater","type":"address","indexed":true,"internalType":"address"},{"name":"newToken","type":"address","indexed":false,"internalType":"address"}],"anonymous":false},{"type":"event","name":"DescriptionUpdated","inputs":[{"name":"updater","type":"address","indexed":true,"internalType":"address"},{"name":"newDescription","type":"string","indexed":false,"internalType":"string"}],"anonymous":false},{"type":"event","name":"Initialized","inputs":[{"name":"version","type":"uint8","indexed":false,"internalType":"uint8"}],"anonymous":false},{"type":"event","name":"LocationUpdated","inputs":[{"name":"updater","type":"address","indexed":true,"internalType":"address"},{"name":"newLocation","type":"string","indexed":false,"internalType":"string"}],"anonymous":false},{"type":"event","name":"LockUpdated","inputs":[{"name":"lockedUntil","type":"uint256","indexed":false,"internalType":"uint256"}],"anonymous":false},{"type":"event","name":"MemberAutoRegistered","inputs":[{"name":"member","type":"address","indexed":true,"internalType":"address"},{"name":"community","type":"address","indexed":true,"internalType":"address"}],"anonymous":false},{"type":"event","name":"MetadataUpdated","inputs":[{"name":"updater","type":"address","indexed":true,"internalType":"address"},{"name":"newMetadata","type":"string","indexed":false,"internalType":"string"}],"anonymous":false},{"type":"event","name":"NameUpdated","inputs":[{"name":"updater","type":"address","indexed":true,"internalType":"address"},{"name":"newName","type":"string","indexed":false,"internalType":"string"}],"anonymous":false},{"type":"event","name":"OpenJoiningUpdated","inputs":[{"name":"updater","type":"address","indexed":true,"internalType":"address"},{"name":"openJoining","type":"bool","indexed":false,"internalType":"bool"}],"anonymous":false},{"type":"event","name":"OverrideUpdated","inputs":[{"name":"owner","type":"address","indexed":false,"internalType":"address"},{"name":"selector","type":"bytes4","indexed":false,"internalType":"bytes4"},{"name":"implementation","type":"address","indexed":false,"internalType":"address"}],"anonymous":false},{"type":"event","name":"PermissionUpdated","inputs":[{"name":"owner","type":"address","indexed":false,"internalType":"address"},{"name":"caller","type":"address","indexed":false,"internalType":"address"},{"name":"hasPermission","type":"bool","indexed":false,"internalType":"bool"}],"anonymous":false},{"type":"event","name":"Upgraded","inputs":[{"name":"implementation","type":"address","indexed":true,"internalType":"address"}],"anonymous":false},{"type":"error","name":"AccountLocked","inputs":[]},{"type":"error","name":"AlreadyGardener","inputs":[]},{"type":"error","name":"ContractCreationFailed","inputs":[]},{"type":"error","name":"ExceedsMaxLockTime","inputs":[]},{"type":"error","name":"GardenFull","inputs":[]},{"type":"error","name":"HatsModuleNotAvailable","inputs":[]},{"type":"error","name":"InvalidAccountProof","inputs":[]},{"type":"error","name":"InvalidERC6551Registry","inputs":[]},{"type":"error","name":"InvalidEntryPoint","inputs":[]},{"type":"error","name":"InvalidImplementation","inputs":[]},{"type":"error","name":"InvalidInput","inputs":[]},{"type":"error","name":"InvalidInvite","inputs":[]},{"type":"error","name":"InvalidMulticallForwarder","inputs":[]},{"type":"error","name":"InvalidOperation","inputs":[]},{"type":"error","name":"NotAuthorized","inputs":[]},{"type":"error","name":"NotGardenOperator","inputs":[]},{"type":"error","name":"NotGardenOwner","inputs":[]},{"type":"error","name":"OwnershipCycle","inputs":[]}],"bytecode":{"object":"0x6101806040523060a08190526101205234801561001a575f5ffd5b50604051615373380380615373833981016040819052610039916101e0565b858585858383838382828181876001600160a01b03811661006d57604051632039d3c960e01b815260040160405180910390fd5b6001600160a01b039081166080528116610099576040516246a29560e81b815260040160405180910390fd5b6001600160a01b0390811660c05290811660e05282166100cc5760405163754c753360e11b815260040160405180910390fd5b50506001600160a01b039081166101005289811661014052881661016052506100fb9550506101069350505050565b505050505050610250565b600454610100900460ff16156101725760405162461bcd60e51b815260206004820152602760248201527f496e697469616c697a61626c653a20636f6e747261637420697320696e697469604482015266616c697a696e6760c81b606482015260840160405180910390fd5b60045460ff908116146101c3576004805460ff191660ff9081179091556040519081527f7f26b83ff96e1f2b6a682f133852f6798a09c465da95921460cefb38474024989060200160405180910390a15b565b80516001600160a01b03811681146101db575f5ffd5b919050565b5f5f5f5f5f5f60c087890312156101f5575f5ffd5b6101fe876101c5565b955061020c602088016101c5565b945061021a604088016101c5565b9350610228606088016101c5565b9250610236608088016101c5565b915061024460a088016101c5565b90509295509295509295565b60805160a05160c05160e0516101005161012051610140516101605161507b6102f85f395f61068601525f6109b801525f818161148f015281816114cf01528181611767015281816117a7015261196201525f8181612a0e0152612e0701525f611a0901525f818161042001528181611251015261374f01525f8181611272015261372e01525f81816109120152818161206e01528181612959015261302f015261507b5ff3fe6080604052600436106103a5575f3560e01c8063572b6c05116101e6578063b709467c1161010c578063dd4670641161009f578063f23a6e611161006e578063f23a6e6114610ac7578063f7fc57b014610ae6578063f89b9b9314610ae6578063fc0c546a14610afa576103b4565b8063dd46706414610a2b578063df341c4a14610a4a578063e735b48a14610a69578063ee9c605414610a88576103b4565b8063c19d93fb116100db578063c19d93fb146109da578063ce0617ec146109ee578063d087d28814610a02578063d7962d0914610a16576103b4565b8063b709467c1461094a578063ba176bbc14610969578063bc197c8114610988578063bcc5cf88146109a7576103b4565b8063918b5be111610184578063993fa20b11610153578063993fa20b146108d0578063a4e2d634146108ef578063b0d691fe14610904578063b10006a614610936576103b4565b8063918b5be11461085f578063932354c11461087e57806394def29d1461089d57806398b7a25a146108b1576103b4565b80637284e416116101c05780637284e416146107f95780637a8f73561461080d57806384da92a71461082c5780638da5cb5b1461084b576103b4565b8063572b6c05146107a75780636beb7959146107c65780636d70f7ae146107da576103b4565b80632f54bf6e116102cb57806343629a73116102695780635194544711610238578063519454471461074257806352094e5514610755578063523e32601461077457806352d1902d14610793576103b4565b806343629a73146106dc57806345a24e3e146106fc5780634f1ef2861461071b578063516f279e1461072e576103b4565b8063392f37e9116102a5578063392f37e9146106615780633a208f95146106755780633a871cdd146106a857806341c6c428146106c7576103b4565b80632f54bf6e1461060457806334715fb1146106235780633659cfe614610642576103b4565b80631626ba7e116103435780631f9838b5116103125780631f9838b51461057a5780631fb1ecf0146105b3578063291d0548146105c657806329aa1617146105df576103b4565b80631626ba7e146104f15780631b561cf9146105105780631e2eaeaf1461052f5780631ea488701461055b576103b4565b806306fdde031161037f57806306fdde031461045a5780630959f6a81461047b5780630bc4241b1461049a578063150b7a02146104b9576103b4565b806301ffc9a7146103bc578063039721b1146103f0578063056d5afe1461040f576103b4565b366103b4576103b2610b31565b005b6103b2610b31565b3480156103c7575f5ffd5b506103db6103d6366004614114565b610c2f565b60405190151581526020015b60405180910390f35b3480156103fb575f5ffd5b506103b261040a36600461416d565b610c5b565b34801561041a575f5ffd5b506104427f000000000000000000000000000000000000000000000000000000000000000081565b6040516001600160a01b0390911681526020016103e7565b348015610465575f5ffd5b5061046e610e39565b6040516103e79190614205565b348015610486575f5ffd5b506103db61049536600461422b565b610ec5565b3480156104a5575f5ffd5b506103b26104b4366004614246565b610ed5565b3480156104c4575f5ffd5b506104d86104d3366004614337565b6110e4565b6040516001600160e01b031990911681526020016103e7565b3480156104fc575f5ffd5b506104d861050b3660046143db565b611155565b34801561051b575f5ffd5b506103db61052a36600461422b565b61117e565b34801561053a575f5ffd5b5061054d610549366004614422565b5490565b6040519081526020016103e7565b348015610566575f5ffd5b506103db61057536600461422b565b611188565b348015610585575f5ffd5b506103db610594366004614439565b600260209081525f928352604080842090915290825290205460ff1681565b61046e6105c1366004614480565b6111fd565b3480156105d1575f5ffd5b50600b546103db9060ff1681565b3480156105ea575f5ffd5b50600454610442906201000090046001600160a01b031681565b34801561060f575f5ffd5b506103db61061e36600461422b565b61145d565b34801561062e575f5ffd5b5061044261063d36600461454b565b611467565b34801561064d575f5ffd5b506103b261065c36600461422b565b611485565b34801561066c575f5ffd5b5061046e611562565b348015610680575f5ffd5b506104427f000000000000000000000000000000000000000000000000000000000000000081565b3480156106b3575f5ffd5b5061054d6106c236600461458d565b61156f565b3480156106d2575f5ffd5b5061054d600d5481565b6106ef6106ea3660046145db565b61158d565b6040516103e79190614619565b348015610707575f5ffd5b506104426107163660046143db565b611715565b6103b261072936600461467c565b61175d565b348015610739575f5ffd5b5061046e611828565b61046e6107503660046146c8565b611835565b348015610760575f5ffd5b506103b261076f366004614733565b61187e565b34801561077f575f5ffd5b506104d861078e366004614777565b611903565b34801561079e575f5ffd5b5061054d611956565b3480156107b2575f5ffd5b506103db6107c136600461422b565b611a07565b3480156107d1575f5ffd5b5061046e611a39565b3480156107e5575f5ffd5b506103db6107f436600461422b565b611a46565b348015610804575f5ffd5b5061046e611a50565b348015610818575f5ffd5b506103b261082736600461416d565b611a5d565b348015610837575f5ffd5b506103b2610846366004614733565b611c7b565b348015610856575f5ffd5b50610442611cf5565b34801561086a575f5ffd5b506103b2610879366004614733565b611d1a565b348015610889575f5ffd5b506103b2610898366004614733565b611d8f565b3480156108a8575f5ffd5b5061046e611e04565b3480156108bc575f5ffd5b506103b26108cb3660046147bb565b611e11565b3480156108db575f5ffd5b506103db6108ea36600461422b565b611e8b565b3480156108fa575f5ffd5b505f5442106103db565b34801561090f575f5ffd5b507f0000000000000000000000000000000000000000000000000000000000000000610442565b348015610941575f5ffd5b506103b2611ec1565b348015610955575f5ffd5b5061046e6109643660046147d6565b611fd9565b348015610974575f5ffd5b506103b2610983366004614422565b612023565b348015610993575f5ffd5b506104d86109a236600461488a565b612050565b3480156109b2575f5ffd5b506104427f000000000000000000000000000000000000000000000000000000000000000081565b3480156109e5575f5ffd5b5060035461054d565b3480156109f9575f5ffd5b5061054d5f5481565b348015610a0d575f5ffd5b5061054d61206b565b348015610a21575f5ffd5b5061054d600c5481565b348015610a36575f5ffd5b506103b2610a45366004614422565b612100565b348015610a55575f5ffd5b506103b2610a6436600461493a565b6121e3565b348015610a74575f5ffd5b506103b2610a83366004614733565b6122e0565b348015610a93575f5ffd5b50610442610aa236600461498a565b600160209081525f92835260408084209091529082529020546001600160a01b031681565b348015610ad2575f5ffd5b506104d8610ae13660046149bd565b612355565b348015610af1575f5ffd5b5061054d612370565b348015610b05575f5ffd5b50610b0e612379565b604080519384526001600160a01b039092166020840152908201526060016103e7565b5f5f5f610b3c61238f565b9250925092505f610b4e84848461239b565b6001600160a01b038082165f9081526001602090815260408083206001600160e01b03198435168452909152902054919250168015610c28575f610b91306123b6565b90505f5f826001600160a01b0316845f3633604051602001610bb69493929190614a14565b60408051601f1981840301815290829052610bd091614a68565b5f604051808303815f865af19150503d805f8114610c09576040519150601f19603f3d011682016040523d82523d5f602084013e610c0e565b606091505b509150915081610c2057805160208201fd5b805160208201f35b5050505050565b5f5f610c3a836123f0565b90508015610c4b5750600192915050565b610c53612414565b505f92915050565b5f5f5f610c6661238f565b9250925092505f610c7884848461239b565b90506001600160a01b038116610ca15760405163ea8e4eb560e01b815260040160405180910390fd5b336001600160a01b03821614610cca5760405163ea8e4eb560e01b815260040160405180910390fd5b610cd26124be565b86858114610cf35760405163b4fa3fb360e01b815260040160405180910390fd5b5f5b81811015610e2d57878782818110610d0f57610d0f614a73565b9050602002016020810190610d2491906147bb565b6001600160a01b0384165f908152600260205260408120908c8c85818110610d4e57610d4e614a73565b9050602002016020810190610d63919061422b565b6001600160a01b0316815260208101919091526040015f20805460ff19169115159190911790557f394777a58092892d136a90c4bb7e4350c72ac50fba6a0208128677f36527dcf5838b8b84818110610dbe57610dbe614a73565b9050602002016020810190610dd3919061422b565b8a8a85818110610de557610de5614a73565b9050602002016020810190610dfa91906147bb565b604080516001600160a01b03948516815293909216602084015215159082015260600160405180910390a1600101610cf5565b50505050505050505050565b60058054610e4690614a87565b80601f0160208091040260200160405190810160405280929190818152602001828054610e7290614a87565b8015610ebd5780601f10610e9457610100808354040283529160200191610ebd565b820191905f5260205f20905b815481529060010190602001808311610ea057829003601f168201915b505050505081565b5f610ecf826124ea565b92915050565b600454610100900460ff1615808015610ef55750600454600160ff909116105b80610f0f5750303b158015610f0f575060045460ff166001145b610f775760405162461bcd60e51b815260206004820152602e60248201527f496e697469616c697a61626c653a20636f6e747261637420697320616c72656160448201526d191e481a5b9a5d1a585b1a5e995960921b60648201526084015b60405180910390fd5b6004805460ff191660011790558015610f9a576004805461ff0019166101001790555b610fa7602083018361422b565b600480546001600160a01b0392909216620100000262010000600160b01b0319909216919091179055610fdd6020830183614abf565b600591610feb919083614b45565b50610ff96040830183614abf565b600691611007919083614b45565b506110156060830183614abf565b600791611023919083614b45565b506110316080830183614abf565b60089161103f919083614b45565b5061104d60a0830183614abf565b60099161105b919083614b45565b5061106960c0830183614abf565b600a91611077919083614b45565b50611089610100830160e084016147bb565b600b805460ff191691151591909117905580156110e0576004805461ff0019169055604051600181527f7f26b83ff96e1f2b6a682f133852f6798a09c465da95921460cefb38474024989060200160405180910390a15b5050565b5f5f5f5f6110f061238f565b91945092509050336001600160a01b03831614801561110e57508086145b801561111957504683145b156111375760405163b79e3f3f60e01b815260040160405180910390fd5b61113f610b31565b50630a85bd0160e11b925050505b949350505050565b5f61116184848461264a565b156111745750630b135d3f60e11b611177565b505f5b9392505050565b5f610ecf826127ca565b5f611191612805565b6001600160a01b03166338f8535830846040518363ffffffff1660e01b81526004016111be929190614bfe565b602060405180830381865afa1580156111d9573d5f5f3e3d5ffd5b505050506040513d601f19601f82011682018060405250810190610ecf9190614c18565b6060815f6112096128c4565b9050365f5b838110156114125786868281811061122857611228614a73565b90506060020191505f826020016020810190611244919061422b565b905060408301355f61129b7f00000000000000000000000000000000000000000000000000000000000000007f000000000000000000000000000000000000000000000000000000000000000087354687876128cd565b9050826001600160a01b03163b5f036112c757604051631052dd2560e21b815260040160405180910390fd5b6001600160a01b0381163b1561135557806001600160a01b031663a4e2d6346040518163ffffffff1660e01b8152600401602060405180830381865afa158015611313573d5f5f3e3d5ffd5b505050506040513d601f19601f820116820180604052508101906113379190614c18565b1561135557604051636315bfbb60e01b815260040160405180910390fd5b6040516331a9108f60e11b8152600481018390526001600160a01b03841690636352211e90602401602060405180830381865afa9250505080156113b6575060408051601f3d908101601f191682019092526113b391810190614c33565b60015b6113d357604051631052dd2560e21b815260040160405180910390fd5b866001600160a01b0316816001600160a01b03161461140557604051631052dd2560e21b815260040160405180910390fd5b509450505060010161120e565b5061141c82612956565b6114395760405163ea8e4eb560e01b815260040160405180910390fd5b6114416124be565b61144e8b8b8b8b8b612b35565b9b9a5050505050505050505050565b5f610ecf82612d0a565b5f611470612d40565b61147c85858585612d7a565b95945050505050565b6001600160a01b037f00000000000000000000000000000000000000000000000000000000000000001630036114cd5760405162461bcd60e51b8152600401610f6e90614c4e565b7f00000000000000000000000000000000000000000000000000000000000000006001600160a01b03166115155f5160206150285f395f51905f52546001600160a01b031690565b6001600160a01b03161461153b5760405162461bcd60e51b8152600401610f6e90614c9a565b61154481612de8565b604080515f8082526020820190925261155f91839190612eb5565b50565b600a8054610e4690614a87565b5f611578613024565b611582848461309c565b9050611177826130d2565b606061159f61159a6128c4565b612956565b6115bc5760405163ea8e4eb560e01b815260040160405180910390fd5b6115c46124be565b815f816001600160401b038111156115de576115de61427d565b60405190808252806020026020018201604052801561161157816020015b60608152602001906001900390816115fc5790505b5090505f5b8281101561170c576116e786868381811061163357611633614a73565b90506020028101906116459190614ce6565b61165390602081019061422b565b87878481811061166557611665614a73565b90506020028101906116779190614ce6565b6020013588888581811061168d5761168d614a73565b905060200281019061169f9190614ce6565b6116ad906040810190614abf565b8a8a878181106116bf576116bf614a73565b90506020028101906116d19190614ce6565b6116e2906080810190606001614d04565b612b35565b8282815181106116f9576116f9614a73565b6020908102919091010152600101611616565b50949350505050565b5f61171e612d40565b61114d8484848080601f0160208091040260200160405190810160405280939291908181526020018383808284375f9201919091525061311b92505050565b6001600160a01b037f00000000000000000000000000000000000000000000000000000000000000001630036117a55760405162461bcd60e51b8152600401610f6e90614c4e565b7f00000000000000000000000000000000000000000000000000000000000000006001600160a01b03166117ed5f5160206150285f395f51905f52546001600160a01b031690565b6001600160a01b0316146118135760405162461bcd60e51b8152600401610f6e90614c9a565b61181c82612de8565b6110e082826001612eb5565b60088054610e4690614a87565b606061184261159a6128c4565b61185f5760405163ea8e4eb560e01b815260040160405180910390fd5b6118676124be565b6118748686868686612b35565b9695505050505050565b61188e6118896128c4565b613157565b6118ab57604051633cebab8560e21b815260040160405180910390fd5b60096118b78282614d1d565b506118c06128c4565b6001600160a01b03167f7f0cd4337b583a09080a4036ee4935d1069f38152ad2f0750588bb752c66916d826040516118f89190614205565b60405180910390a250565b5f6119438484848080601f0160208091040260200160405190810160405280939291908181526020018383808284375f9201919091525061319292505050565b156111745750630291f19360e51b611177565b5f306001600160a01b037f000000000000000000000000000000000000000000000000000000000000000016146119f55760405162461bcd60e51b815260206004820152603860248201527f555550535570677261646561626c653a206d757374206e6f742062652063616c60448201527f6c6564207468726f7567682064656c656761746563616c6c00000000000000006064820152608401610f6e565b505f5160206150285f395f51905f5290565b7f00000000000000000000000000000000000000000000000000000000000000006001600160a01b0390811691161490565b60068054610e4690614a87565b5f610ecf82613157565b60078054610e4690614a87565b5f5f5f611a6861238f565b9250925092505f611a7a84848461239b565b90506001600160a01b038116611aa35760405163ea8e4eb560e01b815260040160405180910390fd5b336001600160a01b03821614611acc5760405163ea8e4eb560e01b815260040160405180910390fd5b611ad46124be565b5f611ade306123b6565b9050806001600160a01b03163b5f03611afa57611afa3061323b565b87868114611b1b5760405163b4fa3fb360e01b815260040160405180910390fd5b5f5b81811015611c6e57888882818110611b3757611b37614a73565b9050602002016020810190611b4c919061422b565b6001600160a01b0385165f908152600160205260408120908d8d85818110611b7657611b76614a73565b9050602002016020810190611b8b9190614114565b6001600160e01b031916815260208101919091526040015f2080546001600160a01b0319166001600160a01b03929092169190911790557f2c722487e90aca38ec1b074c3403210bd2bfb769b4da7f12f7bf0b9e37517c18848c8c84818110611bf657611bf6614a73565b9050602002016020810190611c0b9190614114565b8b8b85818110611c1d57611c1d614a73565b9050602002016020810190611c32919061422b565b604080516001600160a01b0394851681526001600160e01b031993909316602084015292168183015290519081900360600190a1600101611b1d565b5050505050505050505050565b611c8b611c866128c4565b612d0a565b611ca857604051633632b98960e21b815260040160405180910390fd5b6005611cb48282614d1d565b50611cbd6128c4565b6001600160a01b03167f74321da206c1b9fa34367f7ece59ca49371dcd13820b9a5c3767ae1ecceed51a826040516118f89190614205565b5f5f5f5f611d0161238f565b925092509250611d1283838361326e565b935050505090565b611d256118896128c4565b611d4257604051633cebab8560e21b815260040160405180910390fd5b600a611d4e8282614d1d565b50611d576128c4565b6001600160a01b03167f2013570c343af8ab14a9778150e381a0fda34ed6368127a95fd5e7210cbec5bf826040516118f89190614205565b611d9a6118896128c4565b611db757604051633cebab8560e21b815260040160405180910390fd5b6008611dc38282614d1d565b50611dcc6128c4565b6001600160a01b03167f23146a23bca92967799f9c14b4995bb19ca27a6331c8a66f695bc25252815024826040516118f89190614205565b60098054610e4690614a87565b611e1c6118896128c4565b611e3957604051633cebab8560e21b815260040160405180910390fd5b600b805460ff1916821515179055611e4f6128c4565b6001600160a01b03167fa48b25a14599514510fcdca0f35ff4cd42847f5e61698a238f4ee01e2d1c2c6a826040516118f8911515815260200190565b5f611e94612805565b6001600160a01b031663b2acf41d30846040518363ffffffff1660e01b81526004016111be929190614bfe565b600b5460ff16611ee457604051636dc9375d60e11b815260040160405180910390fd5b611ef4611eef6128c4565b6124ea565b15611f125760405163211bad0f60e11b815260040160405180910390fd5b5f611f1b612805565b90505f600c54118015611f325750600c54600d5410155b15611f50576040516302332e7760e21b815260040160405180910390fd5b806001600160a01b0316633868e7e530611f686128c4565b5f6040518463ffffffff1660e01b8152600401611f8793929190614deb565b5f604051808303815f87803b158015611f9e575f5ffd5b505af1158015611fb0573d5f5f3e3d5ffd5b5050600d8054925090505f611fc483614e41565b919050555061155f611fd46128c4565b613308565b6060611fe3612d40565b61147c858585858080601f0160208091040260200160405190810160405280939291908181526020018383808284375f920191909152506135cf92505050565b61202e6118896128c4565b61204b57604051633cebab8560e21b815260040160405180910390fd5b600c55565b5f612059610b31565b5063bc197c8160e01b95945050505050565b5f7f0000000000000000000000000000000000000000000000000000000000000000604051631aab3f0d60e11b81523060048201525f60248201526001600160a01b0391909116906335567e1a90604401602060405180830381865afa1580156120d7573d5f5f3e3d5ffd5b505050506040513d601f19601f820116820180604052508101906120fb9190614e59565b905090565b5f5f5f61210b61238f565b9250925092505f61211d84848461239b565b90506001600160a01b0381166121465760405163ea8e4eb560e01b815260040160405180910390fd5b336001600160a01b0382161461216f5760405163ea8e4eb560e01b815260040160405180910390fd5b61217d426301e13380614e70565b85111561219d576040516301814f7d60e31b815260040160405180910390fd5b6121a56124be565b5f8590556040518581527fa7b24c66dd3269a292a60b3facdbb8f3e7557d1e19e64d99e0d6ee7250be63ad9060200160405180910390a15050505050565b33301415806121f55750600e5460ff16155b1561221357604051633632b98960e21b815260040160405180910390fd5b60405163095ea7b360e01b81526001600160a01b0384811660048301526024820184905285169063095ea7b3906044016020604051808303815f875af115801561225f573d5f5f3e3d5ffd5b505050506040513d601f19601f820116820180604052508101906122839190614c18565b5060405163799556e160e11b81526001600160a01b03828116600483015284169063f32aadc2906024015f604051808303815f87803b1580156122c4575f5ffd5b505af11580156122d6573d5f5f3e3d5ffd5b5050505050505050565b6122eb6118896128c4565b61230857604051633cebab8560e21b815260040160405180910390fd5b60076123148282614d1d565b5061231d6128c4565b6001600160a01b03167f37cc8c6ced0cbc4d440fcfa810a2f09f40b8f0127c3656103edf26b3d93e0ec1826040516118f89190614205565b5f61235e610b31565b5063f23a6e6160e01b95945050505050565b5f6120fb613644565b5f5f5f61238461238f565b925092509250909192565b5f5f5f612384306136d1565b5f5f6123a885858561326e565b905061147c81868686613725565b5f610ecf7f97f795a08410e77dc9dbbaba3915f17c601e45642518dd578bd440d8775bfee46123e4846137f1565b8051906020012061385c565b5f6001600160e01b03198216635194544760e01b1480610ecf5750610ecf82613868565b5f5f5f61241f61238f565b9250925092505f61243184848461239b565b6001600160a01b038082165f9081526001602090815260408083206001600160e01b03198435168452909152902054919250168015610c28575f5f826001600160a01b03165f36604051612486929190614e83565b5f60405180830381855afa9150503d805f8114610c09576040519150601f19603f3d011682016040523d82523d5f602084013e610c0e565b5f544210156124e057604051636315bfbb60e01b815260040160405180910390fd5b6124e861388c565b565b5f5f6124f4612805565b6040516311e3579360e31b81529091506001600160a01b03821690638f1abc98906125259030908790600401614bfe565b602060405180830381865afa158015612540573d5f5f3e3d5ffd5b505050506040513d601f19601f820116820180604052508101906125649190614c18565b806125d75750604051630e70978b60e21b81526001600160a01b038216906339c25e2c906125989030908790600401614bfe565b602060405180830381865afa1580156125b3573d5f5f3e3d5ffd5b505050506040513d601f19601f820116820180604052508101906125d79190614c18565b80611177575060405163f582bceb60e01b81526001600160a01b0382169063f582bceb9061260b9030908790600401614bfe565b602060405180830381865afa158015612626573d5f5f3e3d5ffd5b505050506040513d601f19601f820116820180604052508101906111779190614c18565b5f5f8383604081811061265f5761265f614a73565b919091013560f81c91505f905081810361273f5761268060205f8688614e92565b61268991614eb9565b5f1c90506126a58160405180602001604052805f815250613192565b1580156126bb57506001600160a01b0381163014155b156126ca575f92505050611177565b365f86866126dc604060208385614e92565b6126e591614eb9565b6126f0928290614e92565b91509150612734838984848080601f0160208091040260200160405190810160405280939291908181526020018383808284375f920191909152506138c692505050565b945050505050611177565b5f61277f8787878080601f0160208091040260200160405190810160405280939291908181526020018383808284375f920191909152506139ad92505050565b90925090505f81600481111561279757612797614dd7565b146127a7575f9350505050611177565b6127bf8260405180602001604052805f815250613192565b979650505050505050565b5f5f6127d4612805565b6040516326ba248f60e21b81529091506001600160a01b03821690639ae8923c906125259030908790600401614bfe565b5f5f61280f612379565b509150506001600160a01b03811661283a5760405163a9ec899b60e01b815260040160405180910390fd5b5f816001600160a01b031663b4a9c6076040518163ffffffff1660e01b8152600401602060405180830381865afa158015612877573d5f5f3e3d5ffd5b505050506040513d601f19601f8201168201806040525081019061289b9190614c33565b90506001600160a01b038116610ecf5760405163a9ec899b60e01b815260040160405180910390fd5b5f6120fb6139ef565b6040805160b78082018490526001600160a01b038516609783015260778201869052605782018790526e5af43d82803e903d91602b57fd5bf3603783015260288201889052733d60ad80600a3d3981f3363d3d373d3d3d363d736014830152815260d7810190915280516020909101205f9061294a86828a613a1d565b98975050505050505050565b5f7f00000000000000000000000000000000000000000000000000000000000000006001600160a01b0316826001600160a01b03160361299857506001919050565b5f5f5f6129a361238f565b925092509250468314612a8757306129d66129bc6128c4565b731111000000000000000000000000000000001110190190565b6001600160a01b0316036129ef57506001949350505050565b6040516333932be560e11b81526001600160a01b0386811660048301527f0000000000000000000000000000000000000000000000000000000000000000169063672657ca90602401602060405180830381865afa158015612a53573d5f5f3e3d5ffd5b505050506040513d601f19601f82011682018060405250810190612a779190614c18565b15612a8757506001949350505050565b5f612a9384848461326e565b9050806001600160a01b0316866001600160a01b031603612aba5750600195945050505050565b5f612ac782868686613725565b9050806001600160a01b0316876001600160a01b031603612aef575060019695505050505050565b6001600160a01b038082165f908152600260209081526040808320938b168352929052205460ff1615612b29575060019695505050505050565b505f9695505050505050565b606060ff8216612b8657612b7f868686868080601f0160208091040260200160405190810160405280939291908181526020018383808284375f920191909152506135cf92505050565b905061147c565b5f1960ff831601612bed575f612b9b306123b6565b9050806001600160a01b03163b5f03612bb757612bb73061323b565b612be58187898888604051602001612bd193929190614ed6565b6040516020818303038152906040526135cf565b91505061147c565b60011960ff831601612c7157612c388585858080601f0160208091040260200160405190810160405280939291908181526020018383808284375f9201919091525061311b92505050565b604051602001612c5b919060609190911b6001600160601b031916815260140190565b604051602081830303815290604052905061147c565b60021960ff831601612cf1575f612c8b6020828688614e92565b612c9491614eb9565b9050365f612ca5866020818a614e92565b91509150612cb588848484612d7a565b604051602001612cd8919060609190911b6001600160601b031916815260140190565b604051602081830303815290604052935050505061147c565b604051631cc6a69960e11b815260040160405180910390fd5b5f612d13612805565b6001600160a01b031663f582bceb30846040518363ffffffff1660e01b81526004016111be929190614bfe565b612d49306123b6565b6001600160a01b0316336001600160a01b0316146124e85760405163ea8e4eb560e01b815260040160405180910390fd5b5f5f83838080601f0160208091040260200160405190810160405280939291908181526020018383808284375f9201919091525050825192935087929150506020830188f591506001600160a01b03821661170c5760405163a28c247360e01b815260040160405180910390fd5b604051631506fd4d60e01b81526001600160a01b0382811660048301527f00000000000000000000000000000000000000000000000000000000000000001690631506fd4d90602401602060405180830381865afa158015612e4c573d5f5f3e3d5ffd5b505050506040513d601f19601f82011682018060405250810190612e709190614c18565b612e8d5760405163340aafcd60e11b815260040160405180910390fd5b612e9861159a6128c4565b61155f5760405163ea8e4eb560e01b815260040160405180910390fd5b7f4910fdfa16fed3260ed0e7147f7cc6da11a60208b5b9406d12a635614ffd91435460ff1615612eed57612ee883613a46565b505050565b826001600160a01b03166352d1902d6040518163ffffffff1660e01b8152600401602060405180830381865afa925050508015612f47575060408051601f3d908101601f19168201909252612f4491810190614e59565b60015b612faa5760405162461bcd60e51b815260206004820152602e60248201527f45524331393637557067726164653a206e657720696d706c656d656e7461746960448201526d6f6e206973206e6f74205555505360901b6064820152608401610f6e565b5f5160206150285f395f51905f5281146130185760405162461bcd60e51b815260206004820152602960248201527f45524331393637557067726164653a20756e737570706f727465642070726f786044820152681a58589b195555525160ba1b6064820152608401610f6e565b50612ee8838383613ae1565b336001600160a01b037f000000000000000000000000000000000000000000000000000000000000000016146124e85760405162461bcd60e51b815260206004820152601c60248201527f6163636f756e743a206e6f742066726f6d20456e747279506f696e74000000006044820152606401610f6e565b5f6130bd6130aa8484613b0b565b6130b8610140860186614abf565b61264a565b156130c957505f610ecf565b50600192915050565b801561155f576040515f9033905f1990849084818181858888f193505050503d805f8114610c28576040519150601f19603f3d011682016040523d82523d5f602084013e610c28565b80515f9082906020820185f091506001600160a01b0382166131505760405163a28c247360e01b815260040160405180910390fd5b5092915050565b5f5f613161612805565b604051630e70978b60e21b81529091506001600160a01b038216906339c25e2c906125989030908790600401614bfe565b5f5f5f5f61319e61238f565b9250925092505f6131b084848461326e565b9050806001600160a01b0316876001600160a01b0316036131d8576001945050505050610ecf565b5f6131e582868686613725565b9050806001600160a01b0316886001600160a01b03160361320e57600195505050505050610ecf565b6001600160a01b038082165f908152600260209081526040808320938c168352929052205460ff1661294a565b6110e05f7f97f795a08410e77dc9dbbaba3915f17c601e45642518dd578bd440d8775bfee4613269846137f1565b613b3e565b5f46841461327d57505f611177565b826001600160a01b03163b5f0361329557505f611177565b6040516331a9108f60e11b8152600481018390526001600160a01b03841690636352211e90602401602060405180830381865afa9250505080156132f6575060408051601f3d908101601f191682019092526132f391810190614c33565b60015b61330157505f611177565b9050611177565b5f613311613c40565b90506001600160a01b038116613325575050565b604051631d973c7360e21b81523060048201525f906001600160a01b0383169063765cf1cc90602401602060405180830381865afa158015613369573d5f5f3e3d5ffd5b505050506040513d601f19601f8201168201806040525081019061338d9190614c33565b90506001600160a01b0381166133a257505050565b5f826001600160a01b0316634bf3ba3f6040518163ffffffff1660e01b8152600401602060405180830381865afa1580156133df573d5f5f3e3d5ffd5b505050506040513d601f19601f820116820180604052508101906134039190614e59565b9050805f036134125750505050565b5f836001600160a01b0316639b67b4b66040518163ffffffff1660e01b8152600401602060405180830381865afa15801561344f573d5f5f3e3d5ffd5b505050506040513d601f19601f820116820180604052508101906134739190614c33565b90506001600160a01b03811661348a575050505050565b6040516370a0823160e01b81523060048201525f906001600160a01b038316906370a0823190602401602060405180830381865afa1580156134ce573d5f5f3e3d5ffd5b505050506040513d601f19601f820116820180604052508101906134f29190614e59565b90508281101561350457505050505050565b600e805460ff19166001179055604051636f9a0e2560e11b81526001600160a01b03838116600483015285811660248301526044820185905287166064820152309063df341c4a906084015f604051808303815f87803b158015613566575f5ffd5b505af1925050508015613577575060015b156135bd57836001600160a01b0316866001600160a01b03167f80e20f0983f621b9f0480903a18b77ebc5a265c2d824ebe6b98dde91e811521f60405160405180910390a35b5050600e805460ff1916905550505050565b60605f846001600160a01b031684846040516135eb9190614a68565b5f6040518083038185875af1925050503d805f8114613625576040519150601f19603f3d011682016040523d82523d5f602084013e61362a565b606091505b50925090508061363c57815160208301fd5b509392505050565b5f5f61364e613cc8565b90506001600160a01b03811661366557505f919050565b60405163a1d4b07f60e01b81523060048201526001600160a01b0382169063a1d4b07f90602401602060405180830381865afa1580156136a7573d5f5f3e3d5ffd5b505050506040513d601f19601f820116820180604052508101906136cb9190614e59565b91505090565b604080516060808252608082019092525f91829182918291906020820181803683370190505090506060604d60208301873c808060200190518101906137179190614efc565b935093509350509193909250565b5f845b613773817f00000000000000000000000000000000000000000000000000000000000000007f0000000000000000000000000000000000000000000000000000000000000000613d42565b1561147c57806001600160a01b031663fc0c546a6040518163ffffffff1660e01b8152600401606060405180830381865afa1580156137b4573d5f5f3e3d5ffd5b505050506040513d601f19601f820116820180604052508101906137d89190614efc565b919650945092506137ea85858561326e565b9050613728565b60606040518060400160405280600e81526020016d604380600d600039806000f3fe7360901b815250826040518060600160405280602e8152602001614ffa602e913960405160200161384693929190614f34565b6040516020818303038152906040529050919050565b5f611177838330613a1d565b5f6001600160e01b03198216636faff5f160e01b1480610ecf5750610ecf82613de9565b600354613897613e1d565b6040516020016138a993929190614f5c565b60408051601f198184030181529190528051602090910120600355565b5f5f5f856001600160a01b0316631626ba7e60e01b86866040516024016138ee929190614f91565b60408051601f198184030181529181526020820180516001600160e01b03166001600160e01b031990941693909317909252905161392c9190614a68565b5f60405180830381855afa9150503d805f8114613964576040519150601f19603f3d011682016040523d82523d5f602084013e613969565b606091505b509150915081801561397d57506020815110155b801561187457508051630b135d3f60e11b906139a29083016020908101908401614e59565b149695505050505050565b5f5f82516041036139e1576020830151604084015160608501515f1a6139d587828585613e2f565b945094505050506139e8565b505f905060025b9250929050565b5f6139f933611a07565b8015613a06575060143610155b15613a18575060131936013560601c90565b503390565b5f604051836040820152846020820152828152600b8101905060ff815360559020949350505050565b6001600160a01b0381163b613ab35760405162461bcd60e51b815260206004820152602d60248201527f455243313936373a206e657720696d706c656d656e746174696f6e206973206e60448201526c1bdd08184818dbdb9d1c9858dd609a1b6064820152608401610f6e565b5f5160206150285f395f51905f5280546001600160a01b0319166001600160a01b0392909216919091179055565b613aea83613eec565b5f82511180613af65750805b15612ee857613b058383613f2b565b50505050565b7f19457468657265756d205369676e6564204d6573736167653a0a3332000000005f908152601c829052603c8120611177565b5f83471015613b8f5760405162461bcd60e51b815260206004820152601d60248201527f437265617465323a20696e73756666696369656e742062616c616e63650000006044820152606401610f6e565b81515f03613bdf5760405162461bcd60e51b815260206004820181905260248201527f437265617465323a2062797465636f6465206c656e677468206973207a65726f6044820152606401610f6e565b8282516020840186f590506001600160a01b0381166111775760405162461bcd60e51b815260206004820152601960248201527f437265617465323a204661696c6564206f6e206465706c6f79000000000000006044820152606401610f6e565b5f5f613c4a612379565b509150506001600160a01b038116613c63575f91505090565b806001600160a01b03166372a0d6ad6040518163ffffffff1660e01b8152600401602060405180830381865afa925050508015613cbd575060408051601f3d908101601f19168201909252613cba91810190614c33565b60015b610ecf575f91505090565b5f5f613cd2612379565b509150506001600160a01b038116613ceb575f91505090565b806001600160a01b0316634026d7626040518163ffffffff1660e01b8152600401602060405180830381865afa925050508015613cbd575060408051601f3d908101601f19168201909252613cba91810190614c33565b5f836001600160a01b03163b60ad14613d5c57505f611177565b5f613d6685613f50565b9050806001600160a01b03163b5f03613d82575f915050611177565b836001600160a01b0316816001600160a01b031614613da4575f915050611177565b5f5f5f5f613db189613f60565b9350935093509350613dc78786868686866128cd565b6001600160a01b0316896001600160a01b031614955050505050509392505050565b5f6001600160e01b03198216630271189760e51b1480610ecf57506301ffc9a760e01b6001600160e01b0319831614610ecf565b365f613e27613fb7565b915091509091565b5f807f7fffffffffffffffffffffffffffffff5d576e7357a4501ddfe92f46681b20a0831115613e6457505f90506003613ee3565b604080515f8082526020820180845289905260ff881692820192909252606081018690526080810185905260019060a0016020604051602081039080840390855afa158015613eb5573d5f5f3e3d5ffd5b5050604051601f1901519150506001600160a01b038116613edd575f60019250925050613ee3565b91505f90505b94509492505050565b613ef581613a46565b6040516001600160a01b038216907fbc7cd75a20ee27fd9adebab32041f755214dbc6bffa90cc0225b39da2e5c2d3b905f90a250565b6060611177838360405180606001604052806027815260200161504860279139613ff6565b5f6014600a600c843c50505f5190565b60408051608080825260a082019092525f9182918291829182916020820181803683370190505090506080602d60208301883c80806020019051810190613fa79190614fa9565b9450945094509450509193509193565b365f613fc233611a07565b8015613fcf575060143610155b15613fef575f8036613fe2601482614fe6565b92613e2793929190614e92565b5f36613e27565b60605f5f856001600160a01b0316856040516140129190614a68565b5f60405180830381855af49150503d805f811461404a576040519150601f19603f3d011682016040523d82523d5f602084013e61404f565b606091505b509150915061187486838387606083156140c95782515f036140c2576001600160a01b0385163b6140c25760405162461bcd60e51b815260206004820152601d60248201527f416464726573733a2063616c6c20746f206e6f6e2d636f6e74726163740000006044820152606401610f6e565b508161114d565b61114d83838151156140de5781518083602001fd5b8060405162461bcd60e51b8152600401610f6e9190614205565b80356001600160e01b03198116811461410f575f5ffd5b919050565b5f60208284031215614124575f5ffd5b611177826140f8565b5f5f83601f84011261413d575f5ffd5b5081356001600160401b03811115614153575f5ffd5b6020830191508360208260051b85010111156139e8575f5ffd5b5f5f5f5f60408587031215614180575f5ffd5b84356001600160401b03811115614195575f5ffd5b6141a18782880161412d565b90955093505060208501356001600160401b038111156141bf575f5ffd5b6141cb8782880161412d565b95989497509550505050565b5f81518084528060208401602086015e5f602082860101526020601f19601f83011685010191505092915050565b602081525f61117760208301846141d7565b6001600160a01b038116811461155f575f5ffd5b5f6020828403121561423b575f5ffd5b813561117781614217565b5f60208284031215614256575f5ffd5b81356001600160401b0381111561426b575f5ffd5b82016101008185031215611177575f5ffd5b634e487b7160e01b5f52604160045260245ffd5b604051601f8201601f191681016001600160401b03811182821017156142b9576142b961427d565b604052919050565b5f5f6001600160401b038411156142da576142da61427d565b50601f8301601f19166020016142ef81614291565b915050828152838383011115614303575f5ffd5b828260208301375f602084830101529392505050565b5f82601f830112614328575f5ffd5b611177838335602085016142c1565b5f5f5f5f6080858703121561434a575f5ffd5b843561435581614217565b9350602085013561436581614217565b92506040850135915060608501356001600160401b03811115614386575f5ffd5b61439287828801614319565b91505092959194509250565b5f5f83601f8401126143ae575f5ffd5b5081356001600160401b038111156143c4575f5ffd5b6020830191508360208285010111156139e8575f5ffd5b5f5f5f604084860312156143ed575f5ffd5b8335925060208401356001600160401b03811115614409575f5ffd5b6144158682870161439e565b9497909650939450505050565b5f60208284031215614432575f5ffd5b5035919050565b5f5f6040838503121561444a575f5ffd5b823561445581614217565b9150602083013561446581614217565b809150509250929050565b803560ff8116811461410f575f5ffd5b5f5f5f5f5f5f5f60a0888a031215614496575f5ffd5b87356144a181614217565b96506020880135955060408801356001600160401b038111156144c2575f5ffd5b6144ce8a828b0161439e565b90965094506144e1905060608901614470565b925060808801356001600160401b038111156144fb575f5ffd5b8801601f81018a1361450b575f5ffd5b80356001600160401b03811115614520575f5ffd5b8a6020606083028401011115614534575f5ffd5b602082019350809250505092959891949750929550565b5f5f5f5f6060858703121561455e575f5ffd5b843593506020850135925060408501356001600160401b03811115614581575f5ffd5b6141cb8782880161439e565b5f5f5f6060848603121561459f575f5ffd5b83356001600160401b038111156145b4575f5ffd5b840161016081870312156145c6575f5ffd5b95602085013595506040909401359392505050565b5f5f602083850312156145ec575f5ffd5b82356001600160401b03811115614601575f5ffd5b61460d8582860161412d565b90969095509350505050565b5f602082016020835280845180835260408501915060408160051b8601019250602086015f5b8281101561467057603f1987860301845261465b8583516141d7565b9450602093840193919091019060010161463f565b50929695505050505050565b5f5f6040838503121561468d575f5ffd5b823561469881614217565b915060208301356001600160401b038111156146b2575f5ffd5b6146be85828601614319565b9150509250929050565b5f5f5f5f5f608086880312156146dc575f5ffd5b85356146e781614217565b94506020860135935060408601356001600160401b03811115614708575f5ffd5b6147148882890161439e565b9094509250614727905060608701614470565b90509295509295909350565b5f60208284031215614743575f5ffd5b81356001600160401b03811115614758575f5ffd5b8201601f81018413614768575f5ffd5b61114d848235602084016142c1565b5f5f5f60408486031215614789575f5ffd5b833561479481614217565b925060208401356001600160401b03811115614409575f5ffd5b801515811461155f575f5ffd5b5f602082840312156147cb575f5ffd5b8135611177816147ae565b5f5f5f5f606085870312156147e9575f5ffd5b84356147f481614217565b93506020850135925060408501356001600160401b03811115614581575f5ffd5b5f82601f830112614824575f5ffd5b81356001600160401b0381111561483d5761483d61427d565b8060051b61484d60208201614291565b91825260208185018101929081019086841115614868575f5ffd5b6020860192505b8383101561187457823582526020928301929091019061486f565b5f5f5f5f5f60a0868803121561489e575f5ffd5b85356148a981614217565b945060208601356148b981614217565b935060408601356001600160401b038111156148d3575f5ffd5b6148df88828901614815565b93505060608601356001600160401b038111156148fa575f5ffd5b61490688828901614815565b92505060808601356001600160401b03811115614921575f5ffd5b61492d88828901614319565b9150509295509295909350565b5f5f5f5f6080858703121561494d575f5ffd5b843561495881614217565b9350602085013561496881614217565b925060408501359150606085013561497f81614217565b939692955090935050565b5f5f6040838503121561499b575f5ffd5b82356149a681614217565b91506149b4602084016140f8565b90509250929050565b5f5f5f5f5f60a086880312156149d1575f5ffd5b85356149dc81614217565b945060208601356149ec81614217565b9350604086013592506060860135915060808601356001600160401b03811115614921575f5ffd5b6001600160601b03198560601b1681528284601483013760609190911b6001600160601b0319166014919092019081019190915260280192915050565b5f81518060208401855e5f93019283525090919050565b5f6111778284614a51565b634e487b7160e01b5f52603260045260245ffd5b600181811c90821680614a9b57607f821691505b602082108103614ab957634e487b7160e01b5f52602260045260245ffd5b50919050565b5f5f8335601e19843603018112614ad4575f5ffd5b8301803591506001600160401b03821115614aed575f5ffd5b6020019150368190038213156139e8575f5ffd5b601f821115612ee857805f5260205f20601f840160051c81016020851015614b265750805b601f840160051c820191505b81811015610c28575f8155600101614b32565b6001600160401b03831115614b5c57614b5c61427d565b614b7083614b6a8354614a87565b83614b01565b5f601f841160018114614ba1575f8515614b8a5750838201355b5f19600387901b1c1916600186901b178355610c28565b5f83815260208120601f198716915b82811015614bd05786850135825560209485019460019092019101614bb0565b5086821015614bec575f1960f88860031b161c19848701351681555b505060018560011b0183555050505050565b6001600160a01b0392831681529116602082015260400190565b5f60208284031215614c28575f5ffd5b8151611177816147ae565b5f60208284031215614c43575f5ffd5b815161117781614217565b6020808252602c908201527f46756e6374696f6e206d7573742062652063616c6c6564207468726f7567682060408201526b19195b1959d85d1958d85b1b60a21b606082015260800190565b6020808252602c908201527f46756e6374696f6e206d7573742062652063616c6c6564207468726f7567682060408201526b6163746976652070726f787960a01b606082015260800190565b5f8235607e19833603018112614cfa575f5ffd5b9190910192915050565b5f60208284031215614d14575f5ffd5b61117782614470565b81516001600160401b03811115614d3657614d3661427d565b614d4a81614d448454614a87565b84614b01565b6020601f821160018114614d7c575f8315614d655750848201515b5f19600385901b1c1916600184901b178455610c28565b5f84815260208120601f198516915b82811015614dab5787850151825560209485019460019092019101614d8b565b5084821015614dc857868401515f19600387901b60f8161c191681555b50505050600190811b01905550565b634e487b7160e01b5f52602160045260245ffd5b6001600160a01b038481168252831660208201526060810160068310614e1f57634e487b7160e01b5f52602160045260245ffd5b826040830152949350505050565b634e487b7160e01b5f52601160045260245ffd5b5f60018201614e5257614e52614e2d565b5060010190565b5f60208284031215614e69575f5ffd5b5051919050565b80820180821115610ecf57610ecf614e2d565b818382375f9101908152919050565b5f5f85851115614ea0575f5ffd5b83861115614eac575f5ffd5b5050820193919092039150565b80356020831015610ecf575f19602084900360031b1b1692915050565b6001600160601b03198460601b168152818360148301375f910160140190815292915050565b5f5f5f60608486031215614f0e575f5ffd5b83516020850151909350614f2181614217565b6040949094015192959394509192915050565b5f614f3f8286614a51565b6001600160601b03198560601b1681526118746014820185614a51565b83815260406020820152816040820152818360608301375f818301606090810191909152601f909201601f1916010192915050565b828152604060208201525f61114d60408301846141d7565b5f5f5f5f60808587031215614fbc575f5ffd5b8451602086015160408701519195509350614fd681614217565b6060959095015193969295505050565b81810381811115610ecf57610ecf614e2d56fe3314601d573d3dfd5b363d3d373d3d6014360360143d5160601c5af43d6000803e80603e573d6000fd5b3d6000f3360894a13ba1a3210667c828492db98dca3e2076cc3735a920a3ca505d382bbc416464726573733a206c6f772d6c6576656c2064656c65676174652063616c6c206661696c6564a164736f6c634300081c000a","linkReferences":{}},"methodIdentifiers":{"ASSESSMENT_RESOLVER()":"3a208f95","WORK_APPROVAL_RESOLVER()":"bcc5cf88","bannerImage()":"94def29d","communityToken()":"29aa1617","description()":"7284e416","entryPoint()":"b0d691fe","erc6551Registry()":"056d5afe","execute(address,uint256,bytes,uint8)":"51945447","executeAutoStake(address,address,uint256,address)":"df341c4a","executeBatch((address,uint256,bytes,uint8)[])":"43629a73","executeNested(address,uint256,bytes,uint8,(bytes32,address,uint256)[])":"1fb1ecf0","extcall(address,uint256,bytes)":"b709467c","extcreate(uint256,bytes)":"45a24e3e","extcreate2(uint256,bytes32,bytes)":"34715fb1","extsload(bytes32)":"1e2eaeaf","gapProjectUID()":"f7fc57b0","gardenMemberCount()":"41c6c428","getGAPProjectUID()":"f89b9b93","getNonce()":"d087d288","initialize((address,string,string,string,string,string,string,bool))":"0bc4241b","isCommunity(address)":"993fa20b","isEvaluator(address)":"1b561cf9","isFunder(address)":"1ea48870","isGardener(address)":"0959f6a8","isLocked()":"a4e2d634","isOperator(address)":"6d70f7ae","isOwner(address)":"2f54bf6e","isTrustedForwarder(address)":"572b6c05","isValidSignature(bytes32,bytes)":"1626ba7e","isValidSigner(address,bytes)":"523e3260","joinGarden()":"b10006a6","location()":"516f279e","lock(uint256)":"dd467064","lockedUntil()":"ce0617ec","maxGardeners()":"d7962d09","metadata()":"392f37e9","name()":"06fdde03","onERC1155BatchReceived(address,address,uint256[],uint256[],bytes)":"bc197c81","onERC1155Received(address,address,uint256,uint256,bytes)":"f23a6e61","onERC721Received(address,address,uint256,bytes)":"150b7a02","openJoining()":"291d0548","overrides(address,bytes4)":"ee9c6054","owner()":"8da5cb5b","permissions(address,address)":"1f9838b5","proxiableUUID()":"52d1902d","setMaxGardeners(uint256)":"ba176bbc","setOpenJoining(bool)":"98b7a25a","setOverrides(bytes4[],address[])":"7a8f7356","setPermissions(address[],bool[])":"039721b1","slug()":"6beb7959","state()":"c19d93fb","supportsInterface(bytes4)":"01ffc9a7","token()":"fc0c546a","updateBannerImage(string)":"52094e55","updateDescription(string)":"e735b48a","updateLocation(string)":"932354c1","updateMetadata(string)":"918b5be1","updateName(string)":"84da92a7","upgradeTo(address)":"3659cfe6","upgradeToAndCall(address,bytes)":"4f1ef286","validateUserOp((address,uint256,bytes,bytes,uint256,uint256,uint256,uint256,uint256,bytes,bytes),bytes32,uint256)":"3a871cdd"},"id":93}