{"abi":[{"type":"function","name":"LATEST_VERSION","inputs":[],"outputs":[{"name":"","type":"uint16","internalType":"uint16"}],"stateMutability":"view"},{"type":"function","name":"createLock","inputs":[{"name":"","type":"bytes","internalType":"bytes"},{"name":"","type":"uint16","internalType":"uint16"}],"outputs":[{"name":"lock","type":"address","internalType":"address"}],"stateMutability":"nonpayable"},{"type":"function","name":"lockCount","inputs":[],"outputs":[{"name":"","type":"uint256","internalType":"uint256"}],"stateMutability":"view"},{"type":"function","name":"publicLockLatestVersion","inputs":[],"outputs":[{"name":"","type":"uint16","internalType":"uint16"}],"stateMutability":"pure"}],"bytecode":{"object":"0x60808060405234601557610963908161001a8239f35b5f80fdfe60806040908082526004361015610014575f80fd5b5f3560e01c90816337cee32c146100a0575080639b10b6f5146100835780639e07b18b146100685763cd93b5321461004a575f80fd5b34610064575f3660031901126100645760209051600e8152f35b5f80fd5b5034610064575f3660031901126100645760209051600e8152f35b5034610064575f366003190112610064576020905f549051908152f35b9050346100645781600319360112610064576001600160401b03600435818111610064573660238201121561006457806004013582811161006457369101602401116100645760243561ffff811603610064575f545f198114610157576001015f556107eb908282019081118382101761014357829161016c833903905ff080156101395790516001600160a01b039091168152602090f35b50513d5f823e3d90fd5b634e487b7160e01b5f52604160045260245ffd5b634e487b7160e01b5f52601160045260245ffdfe6080604052346101155760018060025561001a600454610119565b601f81116100ca575b507f546573742042616467650000000000000000000000000000000000000000001460045560055461005490610119565b601f81116100a0575b600c6554424144474560d01b016005555f196006556301e13380600755335f52600160205260405f20600160ff1982541617905560405161069990816101528239f35b60055f52601f60205f20910160051c8101905b8181106100c0575061005d565b5f815582016100b3565b60045f52601f0160051c7f8a35acfbc15ff81a39ae7d344fd709f28e8600b4aa8c65c6b64bfe7fe36bd19b9081019082905b82811061010a575050610023565b5f81550182906100fc565b5f80fd5b90600182811c92168015610147575b602083101461013357565b634e487b7160e01b5f52602260045260245ffd5b91607f169161012856fe6080604090808252600480361015610015575f80fd5b5f3560e01c91826306fdde03146104ad575081630f0632ab1461012c57816311a4c03a1461048f57816318160ddd146104715781633eaaf86b146104715781636d8ea5b41461043557816374b6c1061461041757816375794a3c146103f957816381a3c9431461028b57816395d89b41146101a6578163aa377d8814610166578163aae4b8f714610166578163abdf82ce1461012c578163d2503485146100ee575063f0ba6040146100c5575f80fd5b346100ea575f3660031901126100ea57335f908152600160205220805460ff19169055005b5f80fd5b9050346100ea5760203660031901126100ea57356001600160a01b038116908190036100ea575f5260016020525f20600160ff198254161790555f80f35b9050346100ea5760203660031901126100ea57356001600160a01b03811691908290036100ea576020915f525f8252805f20549051908152f35b9050346100ea5760203660031901126100ea57356001600160a01b03811691908290036100ea576020915f526001825260ff815f20541690519015158152f35b82346100ea575f3660031901126100ea578051905f9260055460018160011c91600181168015610281575b602094858510821461026e575083875290811561024e5750600114610211575b5050506102038261020d9403836105f8565b5191829182610581565b0390f35b91945060055f52845f20915f925b82841061023b575050508261020d9461020392820101946101f1565b805486850188015292860192810161021f565b60ff1916868501525050151560051b83010192506102038261020d6101f1565b602290634e487b7160e01b5f525260245ffd5b92607f16926101d1565b9050346100ea5760603660031901126100ea576001600160401b039080358281116100ea576102bd90369083016105c8565b91906024906024358581116100ea576102d990369085016105c8565b9490956044359081116100ea576102f79097969597369086016105c8565b50506103028161062f565b9661030f875198896105f8565b81885261031b8261062f565b95602095868a0197601f19013689375f5b8481106103715789518881528b51818a018190528190818d01908c908c5f5b82811061035a57505050500390f35b83518552869550938101939281019260010161034b565b60029a98999a80549061038382610646565b905589518210156103e757888260051b8b0101526103a2818585610668565b35906103af818789610668565b356001600160a01b03811692908390036100ea576001925f525f8a528c5f205560036103db8154610646565b9055019998979961032c565b87603284634e487b7160e01b5f52525ffd5b82346100ea575f3660031901126100ea576020906002549051908152f35b82346100ea575f3660031901126100ea576020906006549051908152f35b9050346100ea5760203660031901126100ea57356001600160a01b03811691908290036100ea576020915f525f8252805f205490519042108152f35b82346100ea575f3660031901126100ea576020906003549051908152f35b82346100ea575f3660031901126100ea576020906007549051908152f35b83346100ea575f3660031901126100ea575f9280549060018260011c9160018416938415610577575b6020948585108114610564578488529081156105425750600114610506575b61020d8686610203828b03836105f8565b5f908152838120939650925b82841061052f575050508261020d946102039282010194866104f5565b8054868501880152928601928101610512565b60ff191687860152505050151560051b83010192506102038261020d866104f5565b602283634e487b7160e01b5f525260245ffd5b92607f16926104d6565b602080825282518183018190529093925f5b8281106105b457505060409293505f838284010152601f8019910116010190565b818101860151848201604001528501610593565b9181601f840112156100ea578235916001600160401b0383116100ea576020808501948460051b0101116100ea57565b601f909101601f19168101906001600160401b0382119082101761061b57604052565b634e487b7160e01b5f52604160045260245ffd5b6001600160401b03811161061b5760051b60200190565b5f1981146106545760010190565b634e487b7160e01b5f52601160045260245ffd5b91908110156106785760051b0190565b634e487b7160e01b5f52603260045260245ffdfea164736f6c6343000819000aa164736f6c6343000819000a","linkReferences":{}},"methodIdentifiers":{"LATEST_VERSION()":"9e07b18b","createLock(bytes,uint16)":"37cee32c","lockCount()":"9b10b6f5","publicLockLatestVersion()":"cd93b532"},"id":133}