{"abi":[{"type":"constructor","inputs":[],"stateMutability":"nonpayable"},{"type":"function","name":"_totalSupply","inputs":[],"outputs":[{"name":"","type":"uint256","internalType":"uint256"}],"stateMutability":"view"},{"type":"function","name":"addLockManager","inputs":[{"name":"account","type":"address","internalType":"address"}],"outputs":[],"stateMutability":"nonpayable"},{"type":"function","name":"expirationDuration","inputs":[],"outputs":[{"name":"","type":"uint256","internalType":"uint256"}],"stateMutability":"view"},{"type":"function","name":"getHasValidKey","inputs":[{"name":"_user","type":"address","internalType":"address"}],"outputs":[{"name":"","type":"bool","internalType":"bool"}],"stateMutability":"view"},{"type":"function","name":"grantKeys","inputs":[{"name":"_recipients","type":"address[]","internalType":"address[]"},{"name":"_expirationTimestamps","type":"uint256[]","internalType":"uint256[]"},{"name":"","type":"address[]","internalType":"address[]"}],"outputs":[{"name":"tokenIds","type":"uint256[]","internalType":"uint256[]"}],"stateMutability":"nonpayable"},{"type":"function","name":"isLockManager","inputs":[{"name":"account","type":"address","internalType":"address"}],"outputs":[{"name":"","type":"bool","internalType":"bool"}],"stateMutability":"view"},{"type":"function","name":"keyExpiration","inputs":[{"name":"","type":"address","internalType":"address"}],"outputs":[{"name":"","type":"uint256","internalType":"uint256"}],"stateMutability":"view"},{"type":"function","name":"keyExpirationTimestampFor","inputs":[{"name":"_user","type":"address","internalType":"address"}],"outputs":[{"name":"","type":"uint256","internalType":"uint256"}],"stateMutability":"view"},{"type":"function","name":"lockManagers","inputs":[{"name":"","type":"address","internalType":"address"}],"outputs":[{"name":"","type":"bool","internalType":"bool"}],"stateMutability":"view"},{"type":"function","name":"maxNumberOfKeys","inputs":[],"outputs":[{"name":"","type":"uint256","internalType":"uint256"}],"stateMutability":"view"},{"type":"function","name":"name","inputs":[],"outputs":[{"name":"","type":"string","internalType":"string"}],"stateMutability":"view"},{"type":"function","name":"nextTokenId","inputs":[],"outputs":[{"name":"","type":"uint256","internalType":"uint256"}],"stateMutability":"view"},{"type":"function","name":"renounceLockManager","inputs":[],"outputs":[],"stateMutability":"nonpayable"},{"type":"function","name":"symbol","inputs":[],"outputs":[{"name":"","type":"string","internalType":"string"}],"stateMutability":"view"},{"type":"function","name":"totalSupply","inputs":[],"outputs":[{"name":"","type":"uint256","internalType":"uint256"}],"stateMutability":"view"}],"bytecode":{"object":"0x6080604052346101155760018060025561001a600454610119565b601f81116100ca575b507f546573742042616467650000000000000000000000000000000000000000001460045560055461005490610119565b601f81116100a0575b600c6554424144474560d01b016005555f196006556301e13380600755335f52600160205260405f20600160ff198254161790556040516106d590816101528239f35b60055f52601f60205f20910160051c8101905b8181106100c0575061005d565b5f815582016100b3565b60045f52601f0160051c7f8a35acfbc15ff81a39ae7d344fd709f28e8600b4aa8c65c6b64bfe7fe36bd19b9081019082905b82811061010a575050610023565b5f81550182906100fc565b5f80fd5b90600182811c92168015610147575b602083101461013357565b634e487b7160e01b5f52602260045260245ffd5b91607f169161012856fe6080604090808252600480361015610015575f80fd5b5f3560e01c91826306fdde03146104cb575081630f0632ab1461012c57816311a4c03a146104ad57816318160ddd1461048f5781633eaaf86b1461048f5781636d8ea5b41461045357816374b6c1061461043557816375794a3c1461041757816381a3c943146102a857816395d89b41146101a6578163aa377d8814610166578163aae4b8f714610166578163abdf82ce1461012c578163d2503485146100ee575063f0ba6040146100c5575f80fd5b346100ea575f3660031901126100ea57335f908152600160205220805460ff19169055005b5f80fd5b9050346100ea5760203660031901126100ea57356001600160a01b038116908190036100ea575f5260016020525f20600160ff198254161790555f80f35b9050346100ea5760203660031901126100ea57356001600160a01b03811691908290036100ea576020915f525f8252805f20549051908152f35b9050346100ea5760203660031901126100ea57356001600160a01b03811691908290036100ea576020915f526001825260ff815f20541690519015158152f35b82346100ea575f3660031901126100ea578051905f9260055460018160011c9160018116801561029e575b602094858510821461028b575083875290811561026b5750600114610211575b5050506102038261020d940383610634565b51918291826105bc565b0390f35b60055f9081529295507f036b6384b5eca791c62761152d0c79bb0604c104a5fb6f4eb0703f3154bb3db05b828410610258575050508261020d9461020392820101946101f1565b805486850188015292860192810161023c565b60ff1916868501525050151560051b83010192506102038261020d6101f1565b602290634e487b7160e01b5f525260245ffd5b92607f16926101d1565b9050346100ea5760603660031901126100ea5767ffffffffffffffff9080358281116100ea576102db9036908301610603565b91906024906024358581116100ea576102f79036908501610603565b9490956044359081116100ea57610315909796959736908601610603565b50506103208161066a565b9661032d87519889610634565b8188526103398261066a565b95602095868a0197601f19013689375f5b84811061038f5789518881528b51818a018190528190818d01908c908c5f5b82811061037857505050500390f35b835185528695509381019392810192600101610369565b60029a98999a8054906103a182610682565b9055895182101561040557888260051b8b0101526103c08185856106a4565b35906103cd8187896106a4565b356001600160a01b03811692908390036100ea576001925f525f8a528c5f205560036103f98154610682565b9055019998979961034a565b87603284634e487b7160e01b5f52525ffd5b82346100ea575f3660031901126100ea576020906002549051908152f35b82346100ea575f3660031901126100ea576020906006549051908152f35b9050346100ea5760203660031901126100ea57356001600160a01b03811691908290036100ea576020915f525f8252805f205490519042108152f35b82346100ea575f3660031901126100ea576020906003549051908152f35b82346100ea575f3660031901126100ea576020906007549051908152f35b83346100ea575f3660031901126100ea575f9280549060018260011c91600184169384156105b2575b602094858510811461059f5784885290811561057d5750600114610524575b61020d8686610203828b0383610634565b5f9081529295507f8a35acfbc15ff81a39ae7d344fd709f28e8600b4aa8c65c6b64bfe7fe36bd19b5b82841061056a575050508261020d94610203928201019486610513565b805486850188015292860192810161054d565b60ff191687860152505050151560051b83010192506102038261020d86610513565b602283634e487b7160e01b5f525260245ffd5b92607f16926104f4565b602080825282518183018190529093925f5b8281106105ef57505060409293505f838284010152601f8019910116010190565b8181018601518482016040015285016105ce565b9181601f840112156100ea5782359167ffffffffffffffff83116100ea576020808501948460051b0101116100ea57565b90601f8019910116810190811067ffffffffffffffff82111761065657604052565b634e487b7160e01b5f52604160045260245ffd5b67ffffffffffffffff81116106565760051b60200190565b5f1981146106905760010190565b634e487b7160e01b5f52601160045260245ffd5b91908110156106b45760051b0190565b634e487b7160e01b5f52603260045260245ffdfea164736f6c6343000819000a","linkReferences":{}},"methodIdentifiers":{"_totalSupply()":"3eaaf86b","addLockManager(address)":"d2503485","expirationDuration()":"11a4c03a","getHasValidKey(address)":"6d8ea5b4","grantKeys(address[],uint256[],address[])":"81a3c943","isLockManager(address)":"aae4b8f7","keyExpiration(address)":"0f0632ab","keyExpirationTimestampFor(address)":"abdf82ce","lockManagers(address)":"aa377d88","maxNumberOfKeys()":"74b6c106","name()":"06fdde03","nextTokenId()":"75794a3c","renounceLockManager()":"f0ba6040","symbol()":"95d89b41","totalSupply()":"18160ddd"},"id":137}