{"abi":[{"type":"constructor","inputs":[],"stateMutability":"nonpayable"},{"type":"function","name":"_totalSupply","inputs":[],"outputs":[{"name":"","type":"uint256","internalType":"uint256"}],"stateMutability":"view"},{"type":"function","name":"addLockManager","inputs":[{"name":"account","type":"address","internalType":"address"}],"outputs":[],"stateMutability":"nonpayable"},{"type":"function","name":"expirationDuration","inputs":[],"outputs":[{"name":"","type":"uint256","internalType":"uint256"}],"stateMutability":"view"},{"type":"function","name":"getHasValidKey","inputs":[{"name":"_user","type":"address","internalType":"address"}],"outputs":[{"name":"","type":"bool","internalType":"bool"}],"stateMutability":"view"},{"type":"function","name":"grantKeys","inputs":[{"name":"_recipients","type":"address[]","internalType":"address[]"},{"name":"_expirationTimestamps","type":"uint256[]","internalType":"uint256[]"},{"name":"","type":"address[]","internalType":"address[]"}],"outputs":[{"name":"tokenIds","type":"uint256[]","internalType":"uint256[]"}],"stateMutability":"nonpayable"},{"type":"function","name":"isLockManager","inputs":[{"name":"account","type":"address","internalType":"address"}],"outputs":[{"name":"","type":"bool","internalType":"bool"}],"stateMutability":"view"},{"type":"function","name":"keyExpiration","inputs":[{"name":"","type":"address","internalType":"address"}],"outputs":[{"name":"","type":"uint256","internalType":"uint256"}],"stateMutability":"view"},{"type":"function","name":"keyExpirationTimestampFor","inputs":[{"name":"_user","type":"address","internalType":"address"}],"outputs":[{"name":"","type":"uint256","internalType":"uint256"}],"stateMutability":"view"},{"type":"function","name":"lockManagers","inputs":[{"name":"","type":"address","internalType":"address"}],"outputs":[{"name":"","type":"bool","internalType":"bool"}],"stateMutability":"view"},{"type":"function","name":"maxNumberOfKeys","inputs":[],"outputs":[{"name":"","type":"uint256","internalType":"uint256"}],"stateMutability":"view"},{"type":"function","name":"name","inputs":[],"outputs":[{"name":"","type":"string","internalType":"string"}],"stateMutability":"view"},{"type":"function","name":"nextTokenId","inputs":[],"outputs":[{"name":"","type":"uint256","internalType":"uint256"}],"stateMutability":"view"},{"type":"function","name":"renounceLockManager","inputs":[],"outputs":[],"stateMutability":"nonpayable"},{"type":"function","name":"symbol","inputs":[],"outputs":[{"name":"","type":"string","internalType":"string"}],"stateMutability":"view"},{"type":"function","name":"totalSupply","inputs":[],"outputs":[{"name":"","type":"uint256","internalType":"uint256"}],"stateMutability":"view"}],"bytecode":{"object":"0x6080604052346101155760018060025561001a600454610119565b601f81116100ca575b507f546573742042616467650000000000000000000000000000000000000000001460045560055461005490610119565b601f81116100a0575b600c6554424144474560d01b016005555f196006556301e13380600755335f52600160205260405f20600160ff1982541617905560405161069990816101528239f35b60055f52601f60205f20910160051c8101905b8181106100c0575061005d565b5f815582016100b3565b60045f52601f0160051c7f8a35acfbc15ff81a39ae7d344fd709f28e8600b4aa8c65c6b64bfe7fe36bd19b9081019082905b82811061010a575050610023565b5f81550182906100fc565b5f80fd5b90600182811c92168015610147575b602083101461013357565b634e487b7160e01b5f52602260045260245ffd5b91607f169161012856fe6080604090808252600480361015610015575f80fd5b5f3560e01c91826306fdde03146104ad575081630f0632ab1461012c57816311a4c03a1461048f57816318160ddd146104715781633eaaf86b146104715781636d8ea5b41461043557816374b6c1061461041757816375794a3c146103f957816381a3c9431461028b57816395d89b41146101a6578163aa377d8814610166578163aae4b8f714610166578163abdf82ce1461012c578163d2503485146100ee575063f0ba6040146100c5575f80fd5b346100ea575f3660031901126100ea57335f908152600160205220805460ff19169055005b5f80fd5b9050346100ea5760203660031901126100ea57356001600160a01b038116908190036100ea575f5260016020525f20600160ff198254161790555f80f35b9050346100ea5760203660031901126100ea57356001600160a01b03811691908290036100ea576020915f525f8252805f20549051908152f35b9050346100ea5760203660031901126100ea57356001600160a01b03811691908290036100ea576020915f526001825260ff815f20541690519015158152f35b82346100ea575f3660031901126100ea578051905f9260055460018160011c91600181168015610281575b602094858510821461026e575083875290811561024e5750600114610211575b5050506102038261020d9403836105f8565b5191829182610581565b0390f35b91945060055f52845f20915f925b82841061023b575050508261020d9461020392820101946101f1565b805486850188015292860192810161021f565b60ff1916868501525050151560051b83010192506102038261020d6101f1565b602290634e487b7160e01b5f525260245ffd5b92607f16926101d1565b9050346100ea5760603660031901126100ea576001600160401b039080358281116100ea576102bd90369083016105c8565b91906024906024358581116100ea576102d990369085016105c8565b9490956044359081116100ea576102f79097969597369086016105c8565b50506103028161062f565b9661030f875198896105f8565b81885261031b8261062f565b95602095868a0197601f19013689375f5b8481106103715789518881528b51818a018190528190818d01908c908c5f5b82811061035a57505050500390f35b83518552869550938101939281019260010161034b565b60029a98999a80549061038382610646565b905589518210156103e757888260051b8b0101526103a2818585610668565b35906103af818789610668565b356001600160a01b03811692908390036100ea576001925f525f8a528c5f205560036103db8154610646565b9055019998979961032c565b87603284634e487b7160e01b5f52525ffd5b82346100ea575f3660031901126100ea576020906002549051908152f35b82346100ea575f3660031901126100ea576020906006549051908152f35b9050346100ea5760203660031901126100ea57356001600160a01b03811691908290036100ea576020915f525f8252805f205490519042108152f35b82346100ea575f3660031901126100ea576020906003549051908152f35b82346100ea575f3660031901126100ea576020906007549051908152f35b83346100ea575f3660031901126100ea575f9280549060018260011c9160018416938415610577575b6020948585108114610564578488529081156105425750600114610506575b61020d8686610203828b03836105f8565b5f908152838120939650925b82841061052f575050508261020d946102039282010194866104f5565b8054868501880152928601928101610512565b60ff191687860152505050151560051b83010192506102038261020d866104f5565b602283634e487b7160e01b5f525260245ffd5b92607f16926104d6565b602080825282518183018190529093925f5b8281106105b457505060409293505f838284010152601f8019910116010190565b818101860151848201604001528501610593565b9181601f840112156100ea578235916001600160401b0383116100ea576020808501948460051b0101116100ea57565b601f909101601f19168101906001600160401b0382119082101761061b57604052565b634e487b7160e01b5f52604160045260245ffd5b6001600160401b03811161061b5760051b60200190565b5f1981146106545760010190565b634e487b7160e01b5f52601160045260245ffd5b91908110156106785760051b0190565b634e487b7160e01b5f52603260045260245ffdfea164736f6c6343000819000a","linkReferences":{}},"methodIdentifiers":{"_totalSupply()":"3eaaf86b","addLockManager(address)":"d2503485","expirationDuration()":"11a4c03a","getHasValidKey(address)":"6d8ea5b4","grantKeys(address[],uint256[],address[])":"81a3c943","isLockManager(address)":"aae4b8f7","keyExpiration(address)":"0f0632ab","keyExpirationTimestampFor(address)":"abdf82ce","lockManagers(address)":"aa377d88","maxNumberOfKeys()":"74b6c106","name()":"06fdde03","nextTokenId()":"75794a3c","renounceLockManager()":"f0ba6040","symbol()":"95d89b41","totalSupply()":"18160ddd"},"id":134}