{"abi":[{"type":"constructor","inputs":[],"stateMutability":"nonpayable"},{"type":"function","name":"configureLockForGarden","inputs":[{"name":"garden","type":"address","internalType":"address"},{"name":"lock","type":"address","internalType":"address"}],"outputs":[],"stateMutability":"nonpayable"},{"type":"function","name":"createLockForGarden","inputs":[{"name":"garden","type":"address","internalType":"address"},{"name":"lockData","type":"bytes","internalType":"bytes"}],"outputs":[{"name":"lock","type":"address","internalType":"address"}],"stateMutability":"nonpayable"},{"type":"function","name":"defaultBadgeDuration","inputs":[],"outputs":[{"name":"","type":"uint256","internalType":"uint256"}],"stateMutability":"view"},{"type":"function","name":"gardenLocks","inputs":[{"name":"garden","type":"address","internalType":"address"}],"outputs":[{"name":"lock","type":"address","internalType":"address"}],"stateMutability":"view"},{"type":"function","name":"getLock","inputs":[{"name":"garden","type":"address","internalType":"address"}],"outputs":[{"name":"","type":"address","internalType":"address"}],"stateMutability":"view"},{"type":"function","name":"grantBadgeManually","inputs":[{"name":"garden","type":"address","internalType":"address"},{"name":"worker","type":"address","internalType":"address"},{"name":"workUID","type":"bytes32","internalType":"bytes32"}],"outputs":[{"name":"tokenId","type":"uint256","internalType":"uint256"}],"stateMutability":"nonpayable"},{"type":"function","name":"hasLock","inputs":[{"name":"garden","type":"address","internalType":"address"}],"outputs":[{"name":"","type":"bool","internalType":"bool"}],"stateMutability":"view"},{"type":"function","name":"hasValidBadge","inputs":[{"name":"garden","type":"address","internalType":"address"},{"name":"worker","type":"address","internalType":"address"}],"outputs":[{"name":"","type":"bool","internalType":"bool"}],"stateMutability":"view"},{"type":"function","name":"initialize","inputs":[{"name":"_owner","type":"address","internalType":"address"},{"name":"_router","type":"address","internalType":"address"},{"name":"_unlockFactory","type":"address","internalType":"address"},{"name":"_defaultDuration","type":"uint256","internalType":"uint256"}],"outputs":[],"stateMutability":"nonpayable"},{"type":"function","name":"onWorkApproved","inputs":[{"name":"garden","type":"address","internalType":"address"},{"name":"worker","type":"address","internalType":"address"},{"name":"workUID","type":"bytes32","internalType":"bytes32"}],"outputs":[{"name":"tokenId","type":"uint256","internalType":"uint256"}],"stateMutability":"nonpayable"},{"type":"function","name":"owner","inputs":[],"outputs":[{"name":"","type":"address","internalType":"address"}],"stateMutability":"view"},{"type":"function","name":"proxiableUUID","inputs":[],"outputs":[{"name":"","type":"bytes32","internalType":"bytes32"}],"stateMutability":"view"},{"type":"function","name":"removeLockForGarden","inputs":[{"name":"garden","type":"address","internalType":"address"}],"outputs":[],"stateMutability":"nonpayable"},{"type":"function","name":"renounceOwnership","inputs":[],"outputs":[],"stateMutability":"nonpayable"},{"type":"function","name":"router","inputs":[],"outputs":[{"name":"","type":"address","internalType":"address"}],"stateMutability":"view"},{"type":"function","name":"setDefaultBadgeDuration","inputs":[{"name":"_duration","type":"uint256","internalType":"uint256"}],"outputs":[],"stateMutability":"nonpayable"},{"type":"function","name":"setRouter","inputs":[{"name":"_router","type":"address","internalType":"address"}],"outputs":[],"stateMutability":"nonpayable"},{"type":"function","name":"setUnlockFactory","inputs":[{"name":"_factory","type":"address","internalType":"address"}],"outputs":[],"stateMutability":"nonpayable"},{"type":"function","name":"transferOwnership","inputs":[{"name":"newOwner","type":"address","internalType":"address"}],"outputs":[],"stateMutability":"nonpayable"},{"type":"function","name":"unlockFactory","inputs":[],"outputs":[{"name":"","type":"address","internalType":"contract IUnlockFactory"}],"stateMutability":"view"},{"type":"function","name":"upgradeTo","inputs":[{"name":"newImplementation","type":"address","internalType":"address"}],"outputs":[],"stateMutability":"nonpayable"},{"type":"function","name":"upgradeToAndCall","inputs":[{"name":"newImplementation","type":"address","internalType":"address"},{"name":"data","type":"bytes","internalType":"bytes"}],"outputs":[],"stateMutability":"payable"},{"type":"event","name":"AdminChanged","inputs":[{"name":"previousAdmin","type":"address","indexed":false,"internalType":"address"},{"name":"newAdmin","type":"address","indexed":false,"internalType":"address"}],"anonymous":false},{"type":"event","name":"BadgeGranted","inputs":[{"name":"garden","type":"address","indexed":true,"internalType":"address"},{"name":"worker","type":"address","indexed":true,"internalType":"address"},{"name":"lock","type":"address","indexed":true,"internalType":"address"},{"name":"tokenId","type":"uint256","indexed":false,"internalType":"uint256"},{"name":"workUID","type":"bytes32","indexed":false,"internalType":"bytes32"}],"anonymous":false},{"type":"event","name":"BeaconUpgraded","inputs":[{"name":"beacon","type":"address","indexed":true,"internalType":"address"}],"anonymous":false},{"type":"event","name":"DefaultDurationUpdated","inputs":[{"name":"oldDuration","type":"uint256","indexed":false,"internalType":"uint256"},{"name":"newDuration","type":"uint256","indexed":false,"internalType":"uint256"}],"anonymous":false},{"type":"event","name":"FactoryUpdated","inputs":[{"name":"oldFactory","type":"address","indexed":true,"internalType":"address"},{"name":"newFactory","type":"address","indexed":true,"internalType":"address"}],"anonymous":false},{"type":"event","name":"GardenLockConfigured","inputs":[{"name":"garden","type":"address","indexed":true,"internalType":"address"},{"name":"lock","type":"address","indexed":true,"internalType":"address"}],"anonymous":false},{"type":"event","name":"GardenLockRemoved","inputs":[{"name":"garden","type":"address","indexed":true,"internalType":"address"},{"name":"oldLock","type":"address","indexed":true,"internalType":"address"}],"anonymous":false},{"type":"event","name":"Initialized","inputs":[{"name":"version","type":"uint8","indexed":false,"internalType":"uint8"}],"anonymous":false},{"type":"event","name":"LockCreated","inputs":[{"name":"garden","type":"address","indexed":true,"internalType":"address"},{"name":"lock","type":"address","indexed":true,"internalType":"address"}],"anonymous":false},{"type":"event","name":"OwnershipTransferred","inputs":[{"name":"previousOwner","type":"address","indexed":true,"internalType":"address"},{"name":"newOwner","type":"address","indexed":true,"internalType":"address"}],"anonymous":false},{"type":"event","name":"RouterUpdated","inputs":[{"name":"oldRouter","type":"address","indexed":true,"internalType":"address"},{"name":"newRouter","type":"address","indexed":true,"internalType":"address"}],"anonymous":false},{"type":"event","name":"Upgraded","inputs":[{"name":"implementation","type":"address","indexed":true,"internalType":"address"}],"anonymous":false},{"type":"error","name":"BadgeGrantFailed","inputs":[{"name":"garden","type":"address","internalType":"address"},{"name":"worker","type":"address","internalType":"address"}]},{"type":"error","name":"FactoryNotConfigured","inputs":[]},{"type":"error","name":"InvalidLockAddress","inputs":[]},{"type":"error","name":"LockAlreadyConfigured","inputs":[{"name":"garden","type":"address","internalType":"address"}]},{"type":"error","name":"LockCreationFailed","inputs":[{"name":"garden","type":"address","internalType":"address"}]},{"type":"error","name":"LockNotConfigured","inputs":[{"name":"garden","type":"address","internalType":"address"}]},{"type":"error","name":"UnauthorizedCaller","inputs":[{"name":"caller","type":"address","internalType":"address"}]},{"type":"error","name":"ZeroAddress","inputs":[]}],"bytecode":{"object":"0x60a0806040523460d657306080525f549060ff8260081c166084575060ff80821603604b575b60405161184490816100db82396080518181816107c4015281816108ec0152610be50152f35b60ff90811916175f557f7f26b83ff96e1f2b6a682f133852f6798a09c465da95921460cefb3847402498602060405160ff8152a15f6025565b62461bcd60e51b815260206004820152602760248201527f496e697469616c697a61626c653a20636f6e747261637420697320696e697469604482015266616c697a696e6760c81b6064820152608490fd5b5f80fdfe604060808152600480361015610013575f80fd5b5f3560e01c9081632e60445514610e715781633086f82114610da35781633659cfe614610bba578163417d3bf014610b535781634f1ef2861461087057816352d1902d146107b05781636b9db4e61461071c578163715018a614610755578163721890ba1461071c5781637595613a146106f457816379520a8d1461068a57816386ce04451461062157816389becacc146105eb5781638da5cb5b146105c35781639ac45f5914610588578163af0a12d11461050f578163b7c12f7014610474578163c0d78655146103f3578163cf756fdf146101e8578163d5c388c7146101ca578163f2fde38b1461013a575063f887ea401461010f575f80fd5b34610136575f3660031901126101365760665490516001600160a01b039091168152602090f35b5f80fd5b90503461013657602036600319011261013657610155610ec3565b9161015e611322565b6001600160a01b03831615610178576101768361160e565b005b906020608492519162461bcd60e51b8352820152602660248201527f4f776e61626c653a206e6577206f776e657220697320746865207a65726f206160448201526564647265737360d01b6064820152fd5b8234610136575f366003190112610136576020906068549051908152f35b823461013657608036600319011261013657610202610ec3565b61020a610ed9565b916044356001600160a01b038181169391849003610136575f549460ff8660081c1615958680976103e6575b80156103cf575b156103755760ff1981166001175f5586610364575b50818316156103545716948515610346575061028f9061028160ff5f5460081c1661027c81611656565b611656565b61028a3361160e565b61160e565b816001600160601b0360a01b85816066541617606655606554161760655560643560685551925f7f02dc5c233404867c793b749c6d644beb2277536d18a7e7974d3f238e4c6f16848180a38061031b575b506102e757005b60207f7f26b83ff96e1f2b6a682f133852f6798a09c465da95921460cefb38474024989161ff00195f54165f5560018152a1005b5f7f333c7678baf16017cf31e1d2f90143a62aab01a67a0807f6836a4304ceabb5558180a3826102e0565b825163d92e233d60e01b8152fd5b835163d92e233d60e01b81528790fd5b61ffff1916610101175f5587610252565b845162461bcd60e51b81526020818a0152602e60248201527f496e697469616c697a61626c653a20636f6e747261637420697320616c72656160448201526d191e481a5b9a5d1a585b1a5e995960921b6064820152608490fd5b50303b15801561023d5750600160ff82161461023d565b50600160ff821610610236565b9050346101365760203660031901126101365761040e610ec3565b90610417611322565b6001600160a01b03918216928315610467575050606654826001600160601b0360a01b821617606655167f02dc5c233404867c793b749c6d644beb2277536d18a7e7974d3f238e4c6f16845f80a3005b5163d92e233d60e01b8152fd5b82346101365760203660031901126101365761048e610ec3565b90610497611322565b6001600160a01b039182165f8181526067602052829020549092169283156104fa5750815f5260676020525f206001600160601b0360a01b81541690557fbf0bdc85d1581e1dd5a5111766f7f1f9d0499c5eb236465190f483b113b17d425f80a3005b82602492519163558492ed60e11b8352820152fd5b8234610136578060031936011261013657610528610ec3565b916024359067ffffffffffffffff9081831161013657366023840112156101365782013590811161013657366024828401011161013657602093602461057793610570611322565b0190611140565b90516001600160a01b039091168152f35b8234610136576020366003190112610136576020906001600160a01b03806105ae610ec3565b165f5260678352815f20541615159051908152f35b8234610136575f3660031901126101365760335490516001600160a01b039091168152602090f35b823461013657806003193601126101365760209061061861060a610ec3565b610612610ed9565b906110a3565b90519015158152f35b346101365760203660031901126101365761063a610ec3565b610642611322565b606580546001600160a01b039283166001600160a01b0319821681179092559091167f333c7678baf16017cf31e1d2f90143a62aab01a67a0807f6836a4304ceabb5555f80a3005b9050346101365761069a36610eef565b9290916106a5611322565b6001600160a01b038181165f818152606760205287902054909116929083156106de576020876106d7888888886113d7565b9051908152f35b865163558492ed60e11b81529182015260249150fd5b8234610136575f3660031901126101365760655490516001600160a01b039091168152602090f35b8234610136576020366003190112610136576020906001600160a01b0380610742610ec3565b165f5260678352815f2054169051908152f35b34610136575f3660031901126101365761076d611322565b603380546001600160a01b031981169091555f906001600160a01b03167f8be0079c531659141344cd1fd0a4f28419497f9722a3daafe3b4186f6b6457e08280a3005b905034610136575f366003190112610136577f00000000000000000000000000000000000000000000000000000000000000006001600160a01b0316300361080857602082515f805160206118188339815191528152f35b6020608492519162461bcd60e51b8352820152603860248201527f555550535570677261646561626c653a206d757374206e6f742062652063616c60448201527f6c6564207468726f7567682064656c656761746563616c6c00000000000000006064820152fd5b90508160031936011261013657610885610ec3565b906024359267ffffffffffffffff841161013657366023850112156101365783820135906108b282610f92565b6108be82519182610f70565b82815260209283820196366024838301011161013657815f9260248793018a37830101526001600160a01b037f000000000000000000000000000000000000000000000000000000000000000081169061091a30831415610fae565b6109365f8051602061181883398151915292828454161461100f565b61093e611322565b7f4910fdfa16fed3260ed0e7147f7cc6da11a60208b5b9406d12a635614ffd91435460ff16156109785750505050505061017691506116b6565b869293949596169084516352d1902d60e01b815286818981865afa5f9181610b24575b506109fa57855162461bcd60e51b8152808901889052602e60248201527f45524331393637557067726164653a206e657720696d706c656d656e7461746960448201526d6f6e206973206e6f74205555505360901b6064820152608490fd5b969192939603610acf5750610a0e826116b6565b7fbc7cd75a20ee27fd9adebab32041f755214dbc6bffa90cc0225b39da2e5c2d3b5f80a2835115801590610ac7575b610a4357005b5f8061017696845196610a5588610f24565b602788527f416464726573733a206c6f772d6c6576656c2064656c65676174652063616c6c87890152660819985a5b195960ca1b868901525190845af4913d15610abd573d610aaf610aa682610f92565b92519283610f70565b81525f81943d92013e611745565b5060609250611745565b506001610a3d565b835162461bcd60e51b8152908101859052602960248201527f45524331393637557067726164653a20756e737570706f727465642070726f786044820152681a58589b195555525160ba1b6064820152608490fd5b9091508781813d8311610b4c575b610b3c8183610f70565b810103126101365751905f61099b565b503d610b32565b90503461013657610b6336610eef565b606654909391929190336001600160a01b0391821614159081610bab575b50610b94576020856106d7868686611070565b60249085519063d86ad9cf60e01b82523390820152fd5b9050603354163314155f610b81565b905034610136576020908160031936011261013657610bd7610ec3565b6001600160a01b03939092907f00000000000000000000000000000000000000000000000000000000000000008516610c1230821415610fae565b610c2e5f8051602061181883398151915291878354161461100f565b610c36611322565b8151908382019682881067ffffffffffffffff891117610d90578784525f83527f4910fdfa16fed3260ed0e7147f7cc6da11a60208b5b9406d12a635614ffd91435460ff1615610c905750505050505061017691506116b6565b869293949596169084516352d1902d60e01b815286818981865afa5f9181610d61575b50610d1257855162461bcd60e51b8152808901889052602e60248201527f45524331393637557067726164653a206e657720696d706c656d656e7461746960448201526d6f6e206973206e6f74205555505360901b6064820152608490fd5b969192939603610acf5750610d26826116b6565b7fbc7cd75a20ee27fd9adebab32041f755214dbc6bffa90cc0225b39da2e5c2d3b5f80a2835115801590610d5a57610a4357005b505f610a3d565b9091508781813d8311610d89575b610d798183610f70565b810103126101365751905f610cb3565b503d610d6f565b604186634e487b7160e01b5f525260245ffd5b905034610136578160031936011261013657610dbd610ec3565b91610dc6610ed9565b91610dcf611322565b6001600160a01b03938416928315610e62578416938415610e5357835f526067602052825f205416610e3e5750815f5260676020525f20826001600160601b0360a01b8254161790557f04778a6279e9e7e5f416c632cc45c1efdd465b8db04a2c305c6c169aff6c6c0e5f80a3005b82602492519163ac27561760e01b8352820152fd5b509051635088fe9160e01b8152fd5b50905163d92e233d60e01b8152fd5b8234610136576020366003190112610136577f6391fb18f9ff76c26439d707e83dfca9e2832ecdd68c8d8b701cf6af1959290f9135610eae611322565b606854908060685582519182526020820152a1005b600435906001600160a01b038216820361013657565b602435906001600160a01b038216820361013657565b6060906003190112610136576001600160a01b0390600435828116810361013657916024359081168103610136579060443590565b6060810190811067ffffffffffffffff821117610f4057604052565b634e487b7160e01b5f52604160045260245ffd5b6040810190811067ffffffffffffffff821117610f4057604052565b90601f8019910116810190811067ffffffffffffffff821117610f4057604052565b67ffffffffffffffff8111610f4057601f01601f191660200190565b15610fb557565b60405162461bcd60e51b815260206004820152602c60248201527f46756e6374696f6e206d7573742062652063616c6c6564207468726f7567682060448201526b19195b1959d85d1958d85b1b60a21b6064820152608490fd5b1561101657565b60405162461bcd60e51b815260206004820152602c60248201527f46756e6374696f6e206d7573742062652063616c6c6564207468726f7567682060448201526b6163746976652070726f787960a01b6064820152608490fd5b919060018060a01b038084165f52606760205260405f205416801561109b57611098936113d7565b90565b505050505f90565b6001600160a01b039081165f908152606760205260409020548116919082156111395760246020926040519485938492631b63a96d60e21b84521660048301525afa90811561112e575f916110f6575090565b90506020813d602011611126575b8161111160209383610f70565b81010312610136575180151581036101365790565b3d9150611104565b6040513d5f823e3d90fd5b5050505f90565b60655492936001600160a01b03938416929091831561131057841693845f526020956067875260409482865f2054166112f85785516366c9da9960e11b8152938885600481855afa9485156112ee5790899392915f966112b0575b505f6064898561ffff82519a8b9889978895630df3b8cb60e21b87526004870152816044870152868601378383018501869052166024830152601f01601f191681010301925af15f9281611278575b506112075783516333eb10c160e11b815260048101869052602490fd5b9290939194606790835f52525f2091831691826001600160601b0360a01b82541617905581817f123cb70c03b577bbee808e51d756598c1e1f196b21fe1bf2a8003e46ff9413dd5f80a37f04778a6279e9e7e5f416c632cc45c1efdd465b8db04a2c305c6c169aff6c6c0e5f80a390565b9092508681813d83116112a9575b6112908183610f70565b810103126101365751818116810361013657915f6111ea565b503d611286565b848193959297503d83116112e7575b6112c98183610f70565b8101031261013657519161ffff83168303610136578892945f61119b565b503d6112bf565b87513d5f823e3d90fd5b855163ac27561760e01b815260048101889052602490fd5b60405163e5af51c160e01b8152600490fd5b6033546001600160a01b0316330361133657565b606460405162461bcd60e51b815260206004820152602060248201527f4f776e61626c653a2063616c6c6572206973206e6f7420746865206f776e65726044820152fd5b8051156113875760200190565b634e487b7160e01b5f52603260045260245ffd5b9081518082526020808093019301915f5b8281106113ba575050505090565b83516001600160a01b0316855293810193928101926001016113ac565b9291909160409081516113e981610f54565b600190600181526020908136818301376114028161137a565b6001600160a01b03968716908190528551909761141e82610f54565b600182528382019184368437606854806115e5575061148a9391905f195b6114458261137a565b528989519261145384610f54565b600184528736818601375f6114678561137a565b52169689519586946381a3c94360e01b865260606004870152606486019061139b565b9087600319938487850301602488015251928381520195915f5b898282106115cf5750505050508383926114c792845f970301604485015261139b565b038183875af15f918161153d575b506114fa578451632e9e900d60e21b8152868916600482015260248101889052604490fd5b9661152c7f2e832dbfb43054cff67908d91336c2422c9313fd3b09377aededf7e48336e643949897969295939761137a565b51978351958987528601521692a490565b9091503d805f833e61154f8183610f70565b8101838282031261013657815167ffffffffffffffff92838211610136570181601f82011215610136578051928311610f40578260051b9088519361159687840186610f70565b845285808501928201019283116101365785809101915b8383106115bf5750505050905f6114d5565b82518152918101918691016115ad565b84518952978801978997509093019282016114a4565b42018042116115fa579061148a94929161143c565b634e487b7160e01b5f52601160045260245ffd5b603380546001600160a01b039283166001600160a01b0319821681179092559091167f8be0079c531659141344cd1fd0a4f28419497f9722a3daafe3b4186f6b6457e05f80a3565b1561165d57565b60405162461bcd60e51b815260206004820152602b60248201527f496e697469616c697a61626c653a20636f6e7472616374206973206e6f74206960448201526a6e697469616c697a696e6760a81b6064820152608490fd5b803b156116ea575f8051602061181883398151915280546001600160a01b0319166001600160a01b03909216919091179055565b60405162461bcd60e51b815260206004820152602d60248201527f455243313936373a206e657720696d706c656d656e746174696f6e206973206e60448201526c1bdd08184818dbdb9d1c9858dd609a1b6064820152608490fd5b919290156117a75750815115611759575090565b3b156117625790565b60405162461bcd60e51b815260206004820152601d60248201527f416464726573733a2063616c6c20746f206e6f6e2d636f6e74726163740000006044820152606490fd5b8251909150156117ba5750805190602001fd5b6040519062461bcd60e51b82528160208060048301528251908160248401525f935b8285106117fe575050604492505f838284010152601f80199101168101030190fd5b84810182015186860160440152938101938593506117dc56fe360894a13ba1a3210667c828492db98dca3e2076cc3735a920a3ca505d382bbca164736f6c6343000819000a","linkReferences":{}},"methodIdentifiers":{"configureLockForGarden(address,address)":"3086f821","createLockForGarden(address,bytes)":"af0a12d1","defaultBadgeDuration()":"d5c388c7","gardenLocks(address)":"721890ba","getLock(address)":"6b9db4e6","grantBadgeManually(address,address,bytes32)":"79520a8d","hasLock(address)":"9ac45f59","hasValidBadge(address,address)":"89becacc","initialize(address,address,address,uint256)":"cf756fdf","onWorkApproved(address,address,bytes32)":"417d3bf0","owner()":"8da5cb5b","proxiableUUID()":"52d1902d","removeLockForGarden(address)":"b7c12f70","renounceOwnership()":"715018a6","router()":"f887ea40","setDefaultBadgeDuration(uint256)":"2e604455","setRouter(address)":"c0d78655","setUnlockFactory(address)":"86ce0445","transferOwnership(address)":"f2fde38b","unlockFactory()":"7595613a","upgradeTo(address)":"3659cfe6","upgradeToAndCall(address,bytes)":"4f1ef286"},"id":141}