{"abi":[{"type":"constructor","inputs":[],"stateMutability":"nonpayable"},{"type":"function","name":"configureLockForGarden","inputs":[{"name":"garden","type":"address","internalType":"address"},{"name":"lock","type":"address","internalType":"address"}],"outputs":[],"stateMutability":"nonpayable"},{"type":"function","name":"createLockForGarden","inputs":[{"name":"garden","type":"address","internalType":"address"},{"name":"lockData","type":"bytes","internalType":"bytes"}],"outputs":[{"name":"lock","type":"address","internalType":"address"}],"stateMutability":"nonpayable"},{"type":"function","name":"defaultBadgeDuration","inputs":[],"outputs":[{"name":"","type":"uint256","internalType":"uint256"}],"stateMutability":"view"},{"type":"function","name":"gardenLocks","inputs":[{"name":"garden","type":"address","internalType":"address"}],"outputs":[{"name":"lock","type":"address","internalType":"address"}],"stateMutability":"view"},{"type":"function","name":"getLock","inputs":[{"name":"garden","type":"address","internalType":"address"}],"outputs":[{"name":"","type":"address","internalType":"address"}],"stateMutability":"view"},{"type":"function","name":"grantBadgeManually","inputs":[{"name":"garden","type":"address","internalType":"address"},{"name":"worker","type":"address","internalType":"address"},{"name":"workUID","type":"bytes32","internalType":"bytes32"}],"outputs":[{"name":"tokenId","type":"uint256","internalType":"uint256"}],"stateMutability":"nonpayable"},{"type":"function","name":"hasLock","inputs":[{"name":"garden","type":"address","internalType":"address"}],"outputs":[{"name":"","type":"bool","internalType":"bool"}],"stateMutability":"view"},{"type":"function","name":"hasValidBadge","inputs":[{"name":"garden","type":"address","internalType":"address"},{"name":"worker","type":"address","internalType":"address"}],"outputs":[{"name":"","type":"bool","internalType":"bool"}],"stateMutability":"view"},{"type":"function","name":"initialize","inputs":[{"name":"_owner","type":"address","internalType":"address"},{"name":"_router","type":"address","internalType":"address"},{"name":"_unlockFactory","type":"address","internalType":"address"},{"name":"_defaultDuration","type":"uint256","internalType":"uint256"}],"outputs":[],"stateMutability":"nonpayable"},{"type":"function","name":"onWorkApproved","inputs":[{"name":"garden","type":"address","internalType":"address"},{"name":"worker","type":"address","internalType":"address"},{"name":"workUID","type":"bytes32","internalType":"bytes32"}],"outputs":[{"name":"tokenId","type":"uint256","internalType":"uint256"}],"stateMutability":"nonpayable"},{"type":"function","name":"owner","inputs":[],"outputs":[{"name":"","type":"address","internalType":"address"}],"stateMutability":"view"},{"type":"function","name":"proxiableUUID","inputs":[],"outputs":[{"name":"","type":"bytes32","internalType":"bytes32"}],"stateMutability":"view"},{"type":"function","name":"removeLockForGarden","inputs":[{"name":"garden","type":"address","internalType":"address"}],"outputs":[],"stateMutability":"nonpayable"},{"type":"function","name":"renounceOwnership","inputs":[],"outputs":[],"stateMutability":"nonpayable"},{"type":"function","name":"router","inputs":[],"outputs":[{"name":"","type":"address","internalType":"address"}],"stateMutability":"view"},{"type":"function","name":"setDefaultBadgeDuration","inputs":[{"name":"_duration","type":"uint256","internalType":"uint256"}],"outputs":[],"stateMutability":"nonpayable"},{"type":"function","name":"setRouter","inputs":[{"name":"_router","type":"address","internalType":"address"}],"outputs":[],"stateMutability":"nonpayable"},{"type":"function","name":"setUnlockFactory","inputs":[{"name":"_factory","type":"address","internalType":"address"}],"outputs":[],"stateMutability":"nonpayable"},{"type":"function","name":"transferOwnership","inputs":[{"name":"newOwner","type":"address","internalType":"address"}],"outputs":[],"stateMutability":"nonpayable"},{"type":"function","name":"unlockFactory","inputs":[],"outputs":[{"name":"","type":"address","internalType":"contract IUnlockFactory"}],"stateMutability":"view"},{"type":"function","name":"upgradeTo","inputs":[{"name":"newImplementation","type":"address","internalType":"address"}],"outputs":[],"stateMutability":"nonpayable"},{"type":"function","name":"upgradeToAndCall","inputs":[{"name":"newImplementation","type":"address","internalType":"address"},{"name":"data","type":"bytes","internalType":"bytes"}],"outputs":[],"stateMutability":"payable"},{"type":"event","name":"AdminChanged","inputs":[{"name":"previousAdmin","type":"address","indexed":false,"internalType":"address"},{"name":"newAdmin","type":"address","indexed":false,"internalType":"address"}],"anonymous":false},{"type":"event","name":"BadgeGranted","inputs":[{"name":"garden","type":"address","indexed":true,"internalType":"address"},{"name":"worker","type":"address","indexed":true,"internalType":"address"},{"name":"lock","type":"address","indexed":true,"internalType":"address"},{"name":"tokenId","type":"uint256","indexed":false,"internalType":"uint256"},{"name":"workUID","type":"bytes32","indexed":false,"internalType":"bytes32"}],"anonymous":false},{"type":"event","name":"BeaconUpgraded","inputs":[{"name":"beacon","type":"address","indexed":true,"internalType":"address"}],"anonymous":false},{"type":"event","name":"DefaultDurationUpdated","inputs":[{"name":"oldDuration","type":"uint256","indexed":false,"internalType":"uint256"},{"name":"newDuration","type":"uint256","indexed":false,"internalType":"uint256"}],"anonymous":false},{"type":"event","name":"FactoryUpdated","inputs":[{"name":"oldFactory","type":"address","indexed":true,"internalType":"address"},{"name":"newFactory","type":"address","indexed":true,"internalType":"address"}],"anonymous":false},{"type":"event","name":"GardenLockConfigured","inputs":[{"name":"garden","type":"address","indexed":true,"internalType":"address"},{"name":"lock","type":"address","indexed":true,"internalType":"address"}],"anonymous":false},{"type":"event","name":"GardenLockRemoved","inputs":[{"name":"garden","type":"address","indexed":true,"internalType":"address"},{"name":"oldLock","type":"address","indexed":true,"internalType":"address"}],"anonymous":false},{"type":"event","name":"Initialized","inputs":[{"name":"version","type":"uint8","indexed":false,"internalType":"uint8"}],"anonymous":false},{"type":"event","name":"LockCreated","inputs":[{"name":"garden","type":"address","indexed":true,"internalType":"address"},{"name":"lock","type":"address","indexed":true,"internalType":"address"}],"anonymous":false},{"type":"event","name":"OwnershipTransferred","inputs":[{"name":"previousOwner","type":"address","indexed":true,"internalType":"address"},{"name":"newOwner","type":"address","indexed":true,"internalType":"address"}],"anonymous":false},{"type":"event","name":"RouterUpdated","inputs":[{"name":"oldRouter","type":"address","indexed":true,"internalType":"address"},{"name":"newRouter","type":"address","indexed":true,"internalType":"address"}],"anonymous":false},{"type":"event","name":"Upgraded","inputs":[{"name":"implementation","type":"address","indexed":true,"internalType":"address"}],"anonymous":false},{"type":"error","name":"BadgeGrantFailed","inputs":[{"name":"garden","type":"address","internalType":"address"},{"name":"worker","type":"address","internalType":"address"}]},{"type":"error","name":"FactoryNotConfigured","inputs":[]},{"type":"error","name":"InvalidLockAddress","inputs":[]},{"type":"error","name":"LockAlreadyConfigured","inputs":[{"name":"garden","type":"address","internalType":"address"}]},{"type":"error","name":"LockCreationFailed","inputs":[{"name":"garden","type":"address","internalType":"address"}]},{"type":"error","name":"LockNotConfigured","inputs":[{"name":"garden","type":"address","internalType":"address"}]},{"type":"error","name":"UnauthorizedCaller","inputs":[{"name":"caller","type":"address","internalType":"address"}]},{"type":"error","name":"ZeroAddress","inputs":[]}],"bytecode":{"object":"0x60a0806040523460d657306080525f549060ff8260081c166084575060ff80821603604b575b60405161180690816100db8239608051818181610760015281816108840152610b440152f35b60ff90811916175f557f7f26b83ff96e1f2b6a682f133852f6798a09c465da95921460cefb3847402498602060405160ff8152a15f6025565b62461bcd60e51b815260206004820152602760248201527f496e697469616c697a61626c653a20636f6e747261637420697320696e697469604482015266616c697a696e6760c81b6064820152608490fd5b5f80fdfe604060808152600480361015610013575f80fd5b5f3560e01c9081632e60445514610d855781633086f82114610cca5781633659cfe614610b19578163417d3bf014610ab25781634f1ef2861461080757816352d1902d1461074c5781636b9db4e6146106cb578163715018a614610704578163721890ba146106cb5781637595613a146106a357816379520a8d1461063957816386ce0445146105e357816389becacc146105ad5781638da5cb5b146105855781639ac45f591461054a578163af0a12d1146104d2578163b7c12f7014610437578163c0d78655146103ca578163cf756fdf146101e8578163d5c388c7146101ca578163f2fde38b1461013a575063f887ea401461010f575f80fd5b34610136575f3660031901126101365760665490516001600160a01b039091168152602090f35b5f80fd5b90503461013657602036600319011261013657610155610dd7565b9161015e6111f8565b6001600160a01b0383161561017857610176836114e3565b005b906020608492519162461bcd60e51b8352820152602660248201527f4f776e61626c653a206e6577206f776e657220697320746865207a65726f206160448201526564647265737360d01b6064820152fd5b8234610136575f366003190112610136576020906068549051908152f35b823461013657608036600319011261013657610202610dd7565b61020a610ded565b916044356001600160a01b038181169391849003610136575f549460ff8660081c1615958680976103bd575b80156103a6575b1561034c5760ff1981166001175f558661033b575b508183161561032b571694851561031d575061028f9061028160ff5f5460081c1661027c81611518565b611518565b61028a336114e3565b6114e3565b8160018060a01b031985816066541617606655606554161760655560643560685551925f5f805160206116da8339815191528180a380610305575b506102d157005b60207f7f26b83ff96e1f2b6a682f133852f6798a09c465da95921460cefb38474024989161ff00195f54165f5560018152a1005b5f5f8051602061179a8339815191528180a3826102ca565b825163d92e233d60e01b8152fd5b835163d92e233d60e01b81528790fd5b61ffff1916610101175f5587610252565b845162461bcd60e51b81526020818a0152602e60248201527f496e697469616c697a61626c653a20636f6e747261637420697320616c72656160448201526d191e481a5b9a5d1a585b1a5e995960921b6064820152608490fd5b50303b15801561023d5750600160ff82161461023d565b50600160ff821610610236565b905034610136576020366003190112610136576103e5610dd7565b906103ee6111f8565b6001600160a01b0391821692831561042a575050606680546001600160a01b031981168417909155165f805160206116da8339815191525f80a3005b5163d92e233d60e01b8152fd5b823461013657602036600319011261013657610451610dd7565b9061045a6111f8565b6001600160a01b039182165f8181526067602052829020549092169283156104bd57505f828152606760205290812080546001600160a01b03191690557fbf0bdc85d1581e1dd5a5111766f7f1f9d0499c5eb236465190f483b113b17d429080a3005b82602492519163558492ed60e11b8352820152fd5b82346101365780600319360112610136576104eb610dd7565b91602435906001600160401b0390818311610136573660238401121561013657820135908111610136573660248284010111610136576020936024610539936105326111f8565b019061102c565b90516001600160a01b039091168152f35b8234610136576020366003190112610136576020906001600160a01b0380610570610dd7565b165f5260678352815f20541615159051908152f35b8234610136575f3660031901126101365760335490516001600160a01b039091168152602090f35b82346101365780600319360112610136576020906105da6105cc610dd7565b6105d4610ded565b90610f8f565b90519015158152f35b34610136576020366003190112610136576105fc610dd7565b6106046111f8565b606580546001600160a01b039283166001600160a01b0319821681179092559091165f8051602061179a8339815191525f80a3005b9050346101365761064936610e03565b9290916106546111f8565b6001600160a01b038181165f8181526067602052879020549091169290831561068d57602087610686888888886112ad565b9051908152f35b865163558492ed60e11b81529182015260249150fd5b8234610136575f3660031901126101365760655490516001600160a01b039091168152602090f35b8234610136576020366003190112610136576020906001600160a01b03806106f1610dd7565b165f5260678352815f2054169051908152f35b34610136575f3660031901126101365761071c6111f8565b603380546001600160a01b031981169091555f906001600160a01b03165f8051602061175a8339815191528280a3005b905034610136575f366003190112610136577f00000000000000000000000000000000000000000000000000000000000000006001600160a01b031630036107a457602082515f8051602061173a8339815191528152f35b6020608492519162461bcd60e51b8352820152603860248201527f555550535570677261646561626c653a206d757374206e6f742062652063616c6044820152771b1959081d1a1c9bdd59da0819195b1959d85d1958d85b1b60421b6064820152fd5b9050816003193601126101365761081c610dd7565b602435929091906001600160401b038411610136573660238501121561013657838201359061084a82610ea5565b61085682519182610e82565b82815260209283820196366024838301011161013657815f9260248793018a37830101526001600160a01b037f00000000000000000000000000000000000000000000000000000000000000008116906108b230831415610ec0565b6108ce5f8051602061173a833981519152928284541614610f0e565b6108d66111f8565b5f805160206116fa8339815191525460ff16156108fd575050505050506101769150611578565b869293949596169084516352d1902d60e01b815286818981865afa5f9181610a83575b5061096c57855162461bcd60e51b8152808901889052602e60248201525f805160206117da83398151915260448201526d6f6e206973206e6f74205555505360901b6064820152608490fd5b969192939603610a2e575061098082611578565b5f8051602061177a8339815191525f80a2835115801590610a26575b6109a257005b5f80610176968451966109b488610e38565b602788527f416464726573733a206c6f772d6c6576656c2064656c65676174652063616c6c87890152660819985a5b195960ca1b868901525190845af4913d15610a1c573d610a0e610a0582610ea5565b92519283610e82565b81525f81943d92013e611607565b5060609250611607565b50600161099c565b835162461bcd60e51b8152908101859052602960248201527f45524331393637557067726164653a20756e737570706f727465642070726f786044820152681a58589b195555525160ba1b6064820152608490fd5b9091508781813d8311610aab575b610a9b8183610e82565b810103126101365751905f610920565b503d610a91565b90503461013657610ac236610e03565b606654909391929190336001600160a01b0391821614159081610b0a575b50610af357602085610686868686610f5c565b60249085519063d86ad9cf60e01b82523390820152fd5b9050603354163314155f610ae0565b905034610136576020908160031936011261013657610b36610dd7565b6001600160a01b03939092907f00000000000000000000000000000000000000000000000000000000000000008516610b7130821415610ec0565b610b8d5f8051602061173a833981519152918783541614610f0e565b610b956111f8565b8151838101969091906001600160401b03881183891017610cb7578784525f83525f805160206116fa8339815191525460ff1615610bdd575050505050506101769150611578565b869293949596169084516352d1902d60e01b815286818981865afa5f9181610c88575b50610c4c57855162461bcd60e51b8152808901889052602e60248201525f805160206117da83398151915260448201526d6f6e206973206e6f74205555505360901b6064820152608490fd5b969192939603610a2e5750610c6082611578565b5f8051602061177a8339815191525f80a2835115801590610c81576109a257005b505f61099c565b9091508781813d8311610cb0575b610ca08183610e82565b810103126101365751905f610c00565b503d610c96565b604186634e487b7160e01b5f525260245ffd5b905034610136578160031936011261013657610ce4610dd7565b91610ced610ded565b91610cf66111f8565b6001600160a01b03938416928315610d76578416938415610d6757835f526067602052825f205416610d5257505f828152606760205290812080546001600160a01b031916841790555f805160206117ba8339815191529080a3005b82602492519163ac27561760e01b8352820152fd5b509051635088fe9160e01b8152fd5b50905163d92e233d60e01b8152fd5b8234610136576020366003190112610136577f6391fb18f9ff76c26439d707e83dfca9e2832ecdd68c8d8b701cf6af1959290f9135610dc26111f8565b606854908060685582519182526020820152a1005b600435906001600160a01b038216820361013657565b602435906001600160a01b038216820361013657565b6060906003190112610136576001600160a01b0390600435828116810361013657916024359081168103610136579060443590565b606081019081106001600160401b03821117610e5357604052565b634e487b7160e01b5f52604160045260245ffd5b604081019081106001600160401b03821117610e5357604052565b601f909101601f19168101906001600160401b03821190821017610e5357604052565b6001600160401b038111610e5357601f01601f191660200190565b15610ec757565b60405162461bcd60e51b815260206004820152602c60248201525f8051602061171a83398151915260448201526b19195b1959d85d1958d85b1b60a21b6064820152608490fd5b15610f1557565b60405162461bcd60e51b815260206004820152602c60248201525f8051602061171a83398151915260448201526b6163746976652070726f787960a01b6064820152608490fd5b919060018060a01b038084165f52606760205260405f2054168015610f8757610f84936112ad565b90565b505050505f90565b6001600160a01b039081165f908152606760205260409020548116919082156110255760246020926040519485938492631b63a96d60e21b84521660048301525afa90811561101a575f91610fe2575090565b90506020813d602011611012575b81610ffd60209383610e82565b81010312610136575180151581036101365790565b3d9150610ff0565b6040513d5f823e3d90fd5b5050505f90565b60655492936001600160a01b0393841692909183156111e657841693845f526020956067875260409482865f2054166111ce5785516366c9da9960e11b8152938885600481855afa9485156111c45790899392915f96611186575b505f6064898561ffff82519a8b9889978895630df3b8cb60e21b87526004870152816044870152868601378383018501869052166024830152601f01601f191681010301925af15f928161114e575b506110f35783516333eb10c160e11b815260048101869052602490fd5b9290939194606790835f52525f20918316918260018060a01b031982541617905581817f123cb70c03b577bbee808e51d756598c1e1f196b21fe1bf2a8003e46ff9413dd5f80a35f805160206117ba8339815191525f80a390565b9092508681813d831161117f575b6111668183610e82565b810103126101365751818116810361013657915f6110d6565b503d61115c565b848193959297503d83116111bd575b61119f8183610e82565b8101031261013657519161ffff83168303610136578892945f611087565b503d611195565b87513d5f823e3d90fd5b855163ac27561760e01b815260048101889052602490fd5b60405163e5af51c160e01b8152600490fd5b6033546001600160a01b0316330361120c57565b606460405162461bcd60e51b815260206004820152602060248201527f4f776e61626c653a2063616c6c6572206973206e6f7420746865206f776e65726044820152fd5b80511561125d5760200190565b634e487b7160e01b5f52603260045260245ffd5b9081518082526020808093019301915f5b828110611290575050505090565b83516001600160a01b031685529381019392810192600101611282565b9291909160409081516112bf81610e67565b600190600181526020908136818301376112d881611250565b6001600160a01b0396871690819052855190976112f482610e67565b600182528382019184368437606854806114ba57506113609391905f195b61131b82611250565b528989519261132984610e67565b600184528736818601375f61133d85611250565b52169689519586946381a3c94360e01b8652606060048701526064860190611271565b9087600319938487850301602488015251928381520195915f5b898282106114a457505050505083839261139d92845f9703016044850152611271565b038183875af15f9181611413575b506113d0578451632e9e900d60e21b8152868916600482015260248101889052604490fd5b966114027f2e832dbfb43054cff67908d91336c2422c9313fd3b09377aededf7e48336e6439498979692959397611250565b51978351958987528601521692a490565b9091503d805f833e6114258183610e82565b810183828203126101365781516001600160401b0392838211610136570181601f82011215610136578051928311610e53578260051b9088519361146b87840186610e82565b845285808501928201019283116101365785809101915b8383106114945750505050905f6113ab565b8251815291810191869101611482565b845189529788019789975090930192820161137a565b42018042116114cf5790611360949291611312565b634e487b7160e01b5f52601160045260245ffd5b603380546001600160a01b039283166001600160a01b0319821681179092559091165f8051602061175a8339815191525f80a3565b1561151f57565b60405162461bcd60e51b815260206004820152602b60248201527f496e697469616c697a61626c653a20636f6e7472616374206973206e6f74206960448201526a6e697469616c697a696e6760a81b6064820152608490fd5b803b156115ac575f8051602061173a83398151915280546001600160a01b0319166001600160a01b03909216919091179055565b60405162461bcd60e51b815260206004820152602d60248201527f455243313936373a206e657720696d706c656d656e746174696f6e206973206e60448201526c1bdd08184818dbdb9d1c9858dd609a1b6064820152608490fd5b91929015611669575081511561161b575090565b3b156116245790565b60405162461bcd60e51b815260206004820152601d60248201527f416464726573733a2063616c6c20746f206e6f6e2d636f6e74726163740000006044820152606490fd5b82519091501561167c5750805190602001fd5b6040519062461bcd60e51b82528160208060048301528251908160248401525f935b8285106116c0575050604492505f838284010152601f80199101168101030190fd5b848101820151868601604401529381019385935061169e56fe02dc5c233404867c793b749c6d644beb2277536d18a7e7974d3f238e4c6f16844910fdfa16fed3260ed0e7147f7cc6da11a60208b5b9406d12a635614ffd914346756e6374696f6e206d7573742062652063616c6c6564207468726f75676820360894a13ba1a3210667c828492db98dca3e2076cc3735a920a3ca505d382bbc8be0079c531659141344cd1fd0a4f28419497f9722a3daafe3b4186f6b6457e0bc7cd75a20ee27fd9adebab32041f755214dbc6bffa90cc0225b39da2e5c2d3b333c7678baf16017cf31e1d2f90143a62aab01a67a0807f6836a4304ceabb55504778a6279e9e7e5f416c632cc45c1efdd465b8db04a2c305c6c169aff6c6c0e45524331393637557067726164653a206e657720696d706c656d656e74617469a164736f6c6343000819000a","linkReferences":{}},"methodIdentifiers":{"configureLockForGarden(address,address)":"3086f821","createLockForGarden(address,bytes)":"af0a12d1","defaultBadgeDuration()":"d5c388c7","gardenLocks(address)":"721890ba","getLock(address)":"6b9db4e6","grantBadgeManually(address,address,bytes32)":"79520a8d","hasLock(address)":"9ac45f59","hasValidBadge(address,address)":"89becacc","initialize(address,address,address,uint256)":"cf756fdf","onWorkApproved(address,address,bytes32)":"417d3bf0","owner()":"8da5cb5b","proxiableUUID()":"52d1902d","removeLockForGarden(address)":"b7c12f70","renounceOwnership()":"715018a6","router()":"f887ea40","setDefaultBadgeDuration(uint256)":"2e604455","setRouter(address)":"c0d78655","setUnlockFactory(address)":"86ce0445","transferOwnership(address)":"f2fde38b","unlockFactory()":"7595613a","upgradeTo(address)":"3659cfe6","upgradeToAndCall(address,bytes)":"4f1ef286"},"id":136}