{"abi":[{"type":"constructor","inputs":[{"name":"_ccipRouter","type":"address","internalType":"address"},{"name":"_ethereumChainSelector","type":"uint64","internalType":"uint64"},{"name":"_l1Receiver","type":"address","internalType":"address"},{"name":"_hats","type":"address","internalType":"address"},{"name":"_protocolHatId","type":"uint256","internalType":"uint256"},{"name":"_owner","type":"address","internalType":"address"}],"stateMutability":"nonpayable"},{"type":"receive","stateMutability":"payable"},{"type":"function","name":"CCIP_ROUTER","inputs":[],"outputs":[{"name":"","type":"address","internalType":"contract IRouterClient"}],"stateMutability":"view"},{"type":"function","name":"DEFAULT_NAME_CHANGE_COOLDOWN","inputs":[],"outputs":[{"name":"","type":"uint256","internalType":"uint256"}],"stateMutability":"view"},{"type":"function","name":"ETHEREUM_CHAIN_SELECTOR","inputs":[],"outputs":[{"name":"","type":"uint64","internalType":"uint64"}],"stateMutability":"view"},{"type":"function","name":"HATS","inputs":[],"outputs":[{"name":"","type":"address","internalType":"contract IHats"}],"stateMutability":"view"},{"type":"function","name":"MAX_SLUG_LENGTH","inputs":[],"outputs":[{"name":"","type":"uint256","internalType":"uint256"}],"stateMutability":"view"},{"type":"function","name":"MIN_SLUG_LENGTH","inputs":[],"outputs":[{"name":"","type":"uint256","internalType":"uint256"}],"stateMutability":"view"},{"type":"function","name":"authorizedCallers","inputs":[{"name":"","type":"address","internalType":"address"}],"outputs":[{"name":"","type":"bool","internalType":"bool"}],"stateMutability":"view"},{"type":"function","name":"available","inputs":[{"name":"slug","type":"string","internalType":"string"}],"outputs":[{"name":"","type":"bool","internalType":"bool"}],"stateMutability":"view"},{"type":"function","name":"claimName","inputs":[{"name":"slug","type":"string","internalType":"string"}],"outputs":[],"stateMutability":"payable"},{"type":"function","name":"claimNameSponsored","inputs":[{"name":"slug","type":"string","internalType":"string"}],"outputs":[],"stateMutability":"nonpayable"},{"type":"function","name":"claimRefund","inputs":[],"outputs":[],"stateMutability":"nonpayable"},{"type":"function","name":"failedRefunds","inputs":[{"name":"","type":"address","internalType":"address"}],"outputs":[{"name":"","type":"uint256","internalType":"uint256"}],"stateMutability":"view"},{"type":"function","name":"getRegistrationFee","inputs":[{"name":"slug","type":"string","internalType":"string"},{"name":"_owner","type":"address","internalType":"address"},{"name":"nameType","type":"uint8","internalType":"enum GreenGoodsENS.NameType"}],"outputs":[{"name":"","type":"uint256","internalType":"uint256"}],"stateMutability":"view"},{"type":"function","name":"getReleaseFee","inputs":[{"name":"slug","type":"string","internalType":"string"}],"outputs":[{"name":"","type":"uint256","internalType":"uint256"}],"stateMutability":"view"},{"type":"function","name":"l1Receiver","inputs":[],"outputs":[{"name":"","type":"address","internalType":"address"}],"stateMutability":"view"},{"type":"function","name":"nameChangeCooldown","inputs":[],"outputs":[{"name":"","type":"uint256","internalType":"uint256"}],"stateMutability":"view"},{"type":"function","name":"owner","inputs":[],"outputs":[{"name":"","type":"address","internalType":"address"}],"stateMutability":"view"},{"type":"function","name":"ownerToSlug","inputs":[{"name":"owner","type":"address","internalType":"address"}],"outputs":[{"name":"slug","type":"string","internalType":"string"}],"stateMutability":"view"},{"type":"function","name":"protocolHatId","inputs":[],"outputs":[{"name":"","type":"uint256","internalType":"uint256"}],"stateMutability":"view"},{"type":"function","name":"registerGarden","inputs":[{"name":"slug","type":"string","internalType":"string"},{"name":"gardenAccount","type":"address","internalType":"address"}],"outputs":[],"stateMutability":"payable"},{"type":"function","name":"releaseName","inputs":[],"outputs":[],"stateMutability":"payable"},{"type":"function","name":"renounceOwnership","inputs":[],"outputs":[],"stateMutability":"nonpayable"},{"type":"function","name":"setAuthorizedCaller","inputs":[{"name":"caller","type":"address","internalType":"address"},{"name":"authorized","type":"bool","internalType":"bool"}],"outputs":[],"stateMutability":"nonpayable"},{"type":"function","name":"setL1Receiver","inputs":[{"name":"_l1Receiver","type":"address","internalType":"address"}],"outputs":[],"stateMutability":"nonpayable"},{"type":"function","name":"setNameChangeCooldown","inputs":[{"name":"_cooldown","type":"uint256","internalType":"uint256"}],"outputs":[],"stateMutability":"nonpayable"},{"type":"function","name":"setProtocolHatId","inputs":[{"name":"_protocolHatId","type":"uint256","internalType":"uint256"}],"outputs":[],"stateMutability":"nonpayable"},{"type":"function","name":"slugNameType","inputs":[{"name":"slugHash","type":"bytes32","internalType":"bytes32"}],"outputs":[{"name":"nameType","type":"uint8","internalType":"enum GreenGoodsENS.NameType"}],"stateMutability":"view"},{"type":"function","name":"slugOwner","inputs":[{"name":"slugHash","type":"bytes32","internalType":"bytes32"}],"outputs":[{"name":"owner","type":"address","internalType":"address"}],"stateMutability":"view"},{"type":"function","name":"slugReleasedAt","inputs":[{"name":"slug","type":"string","internalType":"string"}],"outputs":[{"name":"releasedAt","type":"uint256","internalType":"uint256"}],"stateMutability":"view"},{"type":"function","name":"totalPendingRefunds","inputs":[],"outputs":[{"name":"","type":"uint256","internalType":"uint256"}],"stateMutability":"view"},{"type":"function","name":"transferOwnership","inputs":[{"name":"newOwner","type":"address","internalType":"address"}],"outputs":[],"stateMutability":"nonpayable"},{"type":"function","name":"withdrawETH","inputs":[{"name":"to","type":"address","internalType":"address"}],"outputs":[],"stateMutability":"nonpayable"},{"type":"event","name":"AuthorizedCallerUpdated","inputs":[{"name":"caller","type":"address","indexed":true,"internalType":"address"},{"name":"authorized","type":"bool","indexed":false,"internalType":"bool"}],"anonymous":false},{"type":"event","name":"L1ReceiverUpdated","inputs":[{"name":"oldReceiver","type":"address","indexed":true,"internalType":"address"},{"name":"newReceiver","type":"address","indexed":true,"internalType":"address"}],"anonymous":false},{"type":"event","name":"NameChangeCooldownUpdated","inputs":[{"name":"oldCooldown","type":"uint256","indexed":false,"internalType":"uint256"},{"name":"newCooldown","type":"uint256","indexed":false,"internalType":"uint256"}],"anonymous":false},{"type":"event","name":"NameRegistrationSent","inputs":[{"name":"messageId","type":"bytes32","indexed":true,"internalType":"bytes32"},{"name":"slug","type":"string","indexed":false,"internalType":"string"},{"name":"owner","type":"address","indexed":true,"internalType":"address"},{"name":"nameType","type":"uint8","indexed":false,"internalType":"enum GreenGoodsENS.NameType"},{"name":"ccipFee","type":"uint256","indexed":false,"internalType":"uint256"}],"anonymous":false},{"type":"event","name":"NameReleaseSent","inputs":[{"name":"messageId","type":"bytes32","indexed":true,"internalType":"bytes32"},{"name":"slug","type":"string","indexed":false,"internalType":"string"},{"name":"previousOwner","type":"address","indexed":true,"internalType":"address"}],"anonymous":false},{"type":"event","name":"OwnershipTransferred","inputs":[{"name":"previousOwner","type":"address","indexed":true,"internalType":"address"},{"name":"newOwner","type":"address","indexed":true,"internalType":"address"}],"anonymous":false},{"type":"event","name":"ProtocolHatIdUpdated","inputs":[{"name":"oldHatId","type":"uint256","indexed":false,"internalType":"uint256"},{"name":"newHatId","type":"uint256","indexed":false,"internalType":"uint256"}],"anonymous":false},{"type":"event","name":"RefundClaimed","inputs":[{"name":"recipient","type":"address","indexed":true,"internalType":"address"},{"name":"amount","type":"uint256","indexed":false,"internalType":"uint256"}],"anonymous":false},{"type":"event","name":"RefundFailed","inputs":[{"name":"recipient","type":"address","indexed":true,"internalType":"address"},{"name":"amount","type":"uint256","indexed":false,"internalType":"uint256"}],"anonymous":false},{"type":"error","name":"AlreadyHasName","inputs":[]},{"type":"error","name":"CannotReleaseGardenName","inputs":[]},{"type":"error","name":"InsufficientFee","inputs":[]},{"type":"error","name":"InvalidCooldown","inputs":[]},{"type":"error","name":"InvalidSlug","inputs":[]},{"type":"error","name":"NameInCooldown","inputs":[]},{"type":"error","name":"NameTaken","inputs":[]},{"type":"error","name":"NoNameToRelease","inputs":[]},{"type":"error","name":"NoRefundAvailable","inputs":[]},{"type":"error","name":"NoWithdrawableBalance","inputs":[]},{"type":"error","name":"NotAuthorizedCaller","inputs":[]},{"type":"error","name":"NotOwner","inputs":[]},{"type":"error","name":"NotProtocolMember","inputs":[]},{"type":"error","name":"RefundTransferFailed","inputs":[]},{"type":"error","name":"WithdrawTransferFailed","inputs":[]},{"type":"error","name":"ZeroAddress","inputs":[]}],"bytecode":{"object":"0x60e03461015257601f61230838819003918201601f19168301916001600160401b038311848410176101565780849260c094604052833981010312610152576100478161016a565b6020820151916001600160401b0383168303610152576100d49261006d6040830161016a565b6100796060840161016a565b9161008b60a06080860151950161016a565b946100953361017e565b6001600160a01b0390811660805260a091909152600280546001600160a01b031916928216929092179091551660c05260015562278d0060075561017e565b60405161214390816101c5823960805181818161019d015281816103be01528181610ad801528181610f410152818161124301526116a6015260a0518181816103920152818161062c01528181610b0601528181610f6c0152818161127001526116d3015260c051818181610827015281816111c701526116030152f35b5f80fd5b634e487b7160e01b5f52604160045260245ffd5b51906001600160a01b038216820361015257565b5f80546001600160a01b039283166001600160a01b03198216811783559216907f8be0079c531659141344cd1fd0a4f28419497f9722a3daafe3b4186f6b6457e09080a356fe608080604052600436101561001c575b50361561001a575f80fd5b005b5f3560e01c90816312199b7d146115b0575080631ed10257146115935780632177b1db146115765780633ccb88a01461150c578063454bbd2914611488578063536fff6c1461144b57806354c25e4b1461117457806358cdf6bd14610e185780636130787d14610dfb578063640ebb951461093c578063690d8320146108ce5780636d6ebd9c1461089a578063715018a6146108565780637150ef88146108125780637ac064b8146107e05780637ba342551461078c578063880ebf6b1461071f5780638da5cb5b146106f857806391071bf2146106765780639687dbbd1461065b5780639ab4a57c14610617578063a3f79e81146105a4578063aeb8ce9b1461055f578063b5545a3c146104bd578063c4955ecf1461046d578063cdb198a014610452578063d12508da14610300578063d863ea82146102e3578063e224884b146102bb578063e6512c6614610283578063f2fde38b146101d05763fe5f42ca14610188575f61000f565b346101cc575f3660031901126101cc576040517f00000000000000000000000000000000000000000000000000000000000000006001600160a01b03168152602090f35b5f80fd5b346101cc5760203660031901126101cc576101e961182e565b6101f1611fb6565b6001600160a01b0316801561022f575f80546001600160a01b03198116831782556001600160a01b0316905f5160206120f75f395f51905f529080a3005b60405162461bcd60e51b815260206004820152602660248201527f4f776e61626c653a206e6577206f776e657220697320746865207a65726f206160448201526564647265737360d01b6064820152608490fd5b346101cc5760203660031901126101cc576001600160a01b036102a461182e565b165f526009602052602060405f2054604051908152f35b346101cc575f3660031901126101cc576002546040516001600160a01b039091168152602090f35b346101cc575f3660031901126101cc576020600754604051908152f35b346101cc5760203660031901126101cc576004356001600160401b0381116101cc57610333610351913690600401611801565b919060405192600160208501526080604085015260a0840191611aad565b5f60608301529061037f8161037a816103ba955f6080602097015203601f198101835282611882565b61200d565b604051809381926320487ded60e01b83527f000000000000000000000000000000000000000000000000000000000000000060048401611b05565b03817f00000000000000000000000000000000000000000000000000000000000000006001600160a01b03165afa8015610433575f90610400575b602090604051908152f35b506020813d60201161042b575b8161041a60209383611882565b810103126101cc57602090516103f5565b3d915061040d565b6040513d5f823e3d90fd5b634e487b7160e01b5f52602160045260245ffd5b346101cc575f3660031901126101cc57602060405160038152f35b346101cc5760203660031901126101cc576001600160a01b0361048e61182e565b165f5260056020526104b96104a560405f2061194f565b6040519182916020835260208301906119ef565b0390f35b346101cc575f3660031901126101cc57335f52600960205260405f2054801561055057335f5260096020525f60408120556104fa81600a54611a5d565b600a555f80808084335af161050d611a7e565b5015610541576040519081527f358fe4192934d3bf28ae181feda1f4bd08ca67f5e2fad55582cce5eb67304ae960203392a2005b63cbe4e8c360e01b5f5260045ffd5b63e49c14cb60e01b5f5260045ffd5b346101cc5760203660031901126101cc576004356001600160401b0381116101cc5761059a6105946020923690600401611801565b90611bdd565b6040519015158152f35b346101cc5760603660031901126101cc576004356001600160401b0381116101cc576105d4903690600401611801565b906105dd611844565b6044359260028410156101cc5761037a6020936106096103ba9661037f95604051958694898601611acd565b03601f198101835282611882565b346101cc575f3660031901126101cc576040517f00000000000000000000000000000000000000000000000000000000000000006001600160401b03168152602090f35b346101cc575f3660031901126101cc57602060405160328152f35b346101cc5760203660031901126101cc5761068f61182e565b610697611fb6565b6001600160a01b031680156106e957600280546001600160a01b0319811683179091556001600160a01b03167f06383ca5bd6b50f597270f85e3d347abff40de5ef5240f81c24e032ca99913765f80a3005b63d92e233d60e01b5f5260045ffd5b346101cc575f3660031901126101cc575f546040516001600160a01b039091168152602090f35b346101cc5760203660031901126101cc576004356001600160401b0381116101cc57366023820112156101cc576107796020610766819336906024816004013591016118c0565b81604051938285809451938492016118f6565b8101600681520301902054604051908152f35b346101cc5760203660031901126101cc577fb86b055e0059c6d99b1f22609a559369ea00d5184edc11cb0f207bbf47337c8f60406004356107cb611fb6565b600154908060015582519182526020820152a1005b346101cc5760203660031901126101cc576004355f526003602052602060018060a01b0360405f205416604051908152f35b346101cc575f3660031901126101cc576040517f00000000000000000000000000000000000000000000000000000000000000006001600160a01b03168152602090f35b346101cc575f3660031901126101cc5761086e611fb6565b5f80546001600160a01b0319811682556001600160a01b03165f5160206120f75f395f51905f528280a3005b346101cc5760203660031901126101cc576004355f526004602052602060ff60405f2054166108cc604051809261185a565bf35b346101cc5760203660031901126101cc576108e761182e565b6108ef611fb6565b600a5490478281111561092d575f80809361090b868395611a5d565b905af1610916611a7e565b501561091e57005b6369a4751b60e01b5f5260045ffd5b637a09b84360e01b5f5260045ffd5b60403660031901126101cc576004356001600160401b0381116101cc57610967903690600401611801565b61096f611844565b91335f52600860205260ff60405f2054161580610de7575b610dd8576109958282611c77565b6001600160a01b0383169182156106e9576109b13682846118c0565b6020815191012093845f52600360205260018060a01b0360405f205416610dc957604051828482376020818481016006815203019020549485151580968197610db3575b50610da457845f526005602052610a0f60405f2054611917565b610d95575f90815260036020908152604080832080546001600160a01b0319168817905560048252808320805460ff1916600117905586835260059091529020946001600160401b038311610d8157610a688654611917565b601f8111610d46575b505f95601f8411600114610cd8579161037a91600193610aad8680610ac998999a9b5f91610ccd575b508160011b915f199060031b1c19161790565b90555b610cb1575b610609604051938492878960208601611acd565b6040516320487ded60e01b81527f00000000000000000000000000000000000000000000000000000000000000006001600160a01b0316939092917f00000000000000000000000000000000000000000000000000000000000000009060208580610b38848660048401611b05565b0381895afa948515610433575f95610c7d575b50843410610c6f57610b7795602092866040518099819582946396f4e9f960e01b845260048401611b05565b03925af1938415610433575f94610c39575b50610ba890833411610bcb575b60405192606084526060840191611aad565b915f5160206120d75f395f51905f529282916001602084015260408301520390a3005b610bd58434611a5d565b5f80808084335af1610be5611a7e565b5015610bf2575b50610b96565b335f52600960205260405f20610c09828254611bd0565b9055610c1781600a54611bd0565b600a556040519081525f5160206121175f395f51905f5260203392a286610bec565b9093506020813d602011610c67575b81610c5560209383611882565b810103126101cc575192610ba8610b89565b3d9150610c48565b62976f7560e21b5f5260045ffd5b9094506020813d602011610ca9575b81610c9960209383611882565b810103126101cc57519387610b4b565b3d9150610c8c565b5f60405186888237602081888101600681520301902055610ab5565b90508a01358c610a9a565b601f198416815f5260205f20905f5b818110610d2e57509161037a939186979899610ac9976001979510610d15575b50508487811b019055610ab0565b8901355f1960038a901b60f8161c191690558980610d07565b878a013583556020998a019960019093019201610ce7565b610d7190875f5260205f20601f860160051c81019160208710610d77575b601f0160051c0190611a47565b86610a71565b9091508190610d64565b634e487b7160e01b5f52604160045260245ffd5b63a8348fd560e01b5f5260045ffd5b63b93520af60e01b5f5260045ffd5b610dc1915060075490611bd0565b4210876109f5565b639e4b268560e01b5f5260045ffd5b637046c88d60e01b5f5260045ffd5b505f546001600160a01b0316331415610987565b346101cc575f3660031901126101cc576020600154604051908152f35b5f3660031901126101cc57335f526005602052610e3760405f2061194f565b8051156111655780516020820190812090815f5260036020523360018060a01b0360405f2054160361115657815f52600460205260ff60405f205416600281101561043e5760011461114757610e979060405191829185519283916118f6565b8101906006825260208142930301902055805f52600360205260405f2060018060a01b031981541690555f52600460205260405f2060ff198154169055335f52600560205260405f20610eea8154611917565b9081611104575b5050610f32604051600160208201526080604082015261037a81610f1860a08201866119ef565b3360608301525f608083015203601f198101835282611882565b6040516320487ded60e01b81527f00000000000000000000000000000000000000000000000000000000000000006001600160a01b0316917f00000000000000000000000000000000000000000000000000000000000000009060208380610f9e848660048401611b05565b0381875afa928315610433575f936110d0575b50823410610c6f57610fdd93602092846040518097819582946396f4e9f960e01b845260048401611b05565b03925af1918215610433575f9261109c575b50803411611036575b507f6495b28681b1949889825b5d79fd8c9d9cd925da87245539fe84f73bb17358c26040516020815280611031339560208301906119ef565b0390a3005b6110409034611a5d565b5f80808084335af1611050611a7e565b50610ff857335f52600960205260405f2061106c828254611bd0565b905561107a81600a54611bd0565b600a556040519081525f5160206121175f395f51905f5260203392a282610ff8565b9091506020813d6020116110c8575b816110b860209383611882565b810103126101cc57519083610fef565b3d91506110ab565b9092506020813d6020116110fc575b816110ec60209383611882565b810103126101cc57519185610fb1565b3d91506110df565b81601f5f931160011461111b5750555b8180610ef1565b8183526020832061113791601f0160051c810190600101611a47565b8082528160208120915555611114565b63eafe5d9b60e01b5f5260045ffd5b6330cd747160e01b5f5260045ffd5b632a3673b160e21b5f5260045ffd5b60203660031901126101cc576004356001600160401b0381116101cc5761119f903690600401611801565b906111c36020600154604051809381926321a9204d60e11b83523360048401611a2c565b03817f00000000000000000000000000000000000000000000000000000000000000006001600160a01b03165afa908115610433575f9161141c575b501561140d5761120f8282611c77565b61121a338383611ddc565b61123460405161037a816106095f33888860208601611acd565b6040516320487ded60e01b81527f00000000000000000000000000000000000000000000000000000000000000006001600160a01b03169290917f000000000000000000000000000000000000000000000000000000000000000090602084806112a2848660048401611b05565b0381885afa938415610433575f946113d9575b50833410610c6f576112e194602092856040518098819582946396f4e9f960e01b845260048401611b05565b03925af1928315610433575f936113a3575b5061131290823411611335575b60405194606086526060860191611aad565b925f5160206120d75f395f51905f52915f602083015260408201528033940390a3005b61133f8334611a5d565b5f80808084335af161134f611a7e565b501561135c575b50611300565b335f52600960205260405f20611373828254611bd0565b905561138181600a54611bd0565b600a556040519081525f5160206121175f395f51905f5260203392a285611356565b9092506020813d6020116113d1575b816113bf60209383611882565b810103126101cc5751916113126112f3565b3d91506113b2565b9093506020813d602011611405575b816113f560209383611882565b810103126101cc575192866112b5565b3d91506113e8565b6372ffd5bd60e01b5f5260045ffd5b61143e915060203d602011611444575b6114368183611882565b810190611a14565b836111ff565b503d61142c565b346101cc5760203660031901126101cc576001600160a01b0361146c61182e565b165f526008602052602060ff60405f2054166040519015158152f35b346101cc5760403660031901126101cc576114a161182e565b602435908115158092036101cc576114b7611fb6565b6001600160a01b03169081156106e95760207fad857fa38c9319cb80848f1ef2f924383b90297eb5d71755738ff037d100faa191835f526008825260405f2060ff1981541660ff8316179055604051908152a2005b346101cc5760203660031901126101cc57600435611528611fb6565b80156115675760407f4423395daaa12a889877c4b5423e8a0442461e9f0e928bdd0a45212e3b4a207091600754908060075582519182526020820152a1005b637475d84d60e11b5f5260045ffd5b346101cc575f3660031901126101cc576020600a54604051908152f35b346101cc575f3660031901126101cc57602060405162278d008152f35b346101cc5760203660031901126101cc576004356001600160401b0381116101cc576115e0903690600401611801565b91602081806115ff6001546321a9204d60e11b83523360048401611a2c565b03817f00000000000000000000000000000000000000000000000000000000000000006001600160a01b03165afa908115610433575f916117e2575b501561140d5761164b8282611c77565b611656338383611ddc565b6040515f60208201526080604082015261167460a082018484611aad565b3360608301529061037a81611697935f608083015203601f198101835282611882565b6040516320487ded60e01b81527f00000000000000000000000000000000000000000000000000000000000000006001600160a01b03169290917f00000000000000000000000000000000000000000000000000000000000000009060208480611705848660048401611b05565b0381885afa938415610433575f946117ae575b5047611726600a5486611bd0565b11610c6f5761174f94602092856040518098819582946396f4e9f960e01b845260048401611b05565b03925af1928315610433575f93611778575b506113129060405194606086526060860191611aad565b9092506020813d6020116117a6575b8161179460209383611882565b810103126101cc575191611312611761565b3d9150611787565b9093506020813d6020116117da575b816117ca60209383611882565b810103126101cc57519286611718565b3d91506117bd565b6117fb915060203d602011611444576114368183611882565b8361163b565b9181601f840112156101cc578235916001600160401b0383116101cc57602083818601950101116101cc57565b600435906001600160a01b03821682036101cc57565b602435906001600160a01b03821682036101cc57565b90600282101561043e5752565b60a081019081106001600160401b03821117610d8157604052565b601f909101601f19168101906001600160401b03821190821017610d8157604052565b6001600160401b038111610d8157601f01601f191660200190565b9291926118cc826118a5565b916118da6040519384611882565b8294818452818301116101cc578281602093845f960137010152565b5f5b8381106119075750505f910152565b81810151838201526020016118f8565b90600182811c92168015611945575b602083101461193157565b634e487b7160e01b5f52602260045260245ffd5b91607f1691611926565b9060405191825f82549261196284611917565b80845293600181169081156119cd5750600114611989575b5061198792500383611882565b565b90505f9291925260205f20905f915b8183106119b1575050906020611987928201015f61197a565b6020919350806001915483858901015201910190918492611998565b90506020925061198794915060ff191682840152151560051b8201015f61197a565b90602091611a08815180928185528580860191016118f6565b601f01601f1916010190565b908160209103126101cc575180151581036101cc5790565b6001600160a01b039091168152602081019190915260400190565b818110611a52575050565b5f8155600101611a47565b91908203918211611a6a57565b634e487b7160e01b5f52601160045260245ffd5b3d15611aa8573d90611a8f826118a5565b91611a9d6040519384611882565b82523d5f602084013e565b606090565b908060209392818452848401375f828201840152601f01601f1916010190565b611aee606092611987959796945f8452608060208501526080840191611aad565b6001600160a01b039096166040820152019061185a565b9092919260018060401b0316815260406020820152611b49611b33845160a0604085015260e08401906119ef565b6020850151838203603f190160608501526119ef565b90604084015191603f19828203016080830152602080845192838152019301905f5b818110611ba5575050506080611ba2939460018060a01b0360608201511660a084015201519060c0603f19828503019101526119ef565b90565b825180516001600160a01b031686526020908101518187015260409095019490920191600101611b6b565b91908201809211611a6a57565b611be83683836118c0565b602081519101205f52600360205260018060a01b0360405f205416611c4c5760209082604051938492833781016006815203019020548015159081611c36575b50611c3257600190565b5f90565b611c44915060075490611bd0565b42105f611c28565b50505f90565b908151811015611c63570160200190565b634e487b7160e01b5f52603260045260245ffd5b611c829136916118c0565b8051600381108015611dd2575b611d1c57815115611c635760208201516001600160f81b031916602d60f81b148015611da4575b611d1c575f5b818110611cc857505050565b6001600160f81b0319611cdb8285611c52565b5116606160f81b81101580611d96575b8015611d79575b8015611d6c575b15611d1c57602d60f81b1480611d59575b80611d2b575b611d1c57600101611cbc565b63290a831560e01b5f5260045ffd5b5060018101808211611a6a57602d60f81b906001600160f81b031990611d519086611c52565b511614611d10565b5060018101808211611a6a578211611d0a565b50602d60f81b8114611cf9565b50600360fc1b8110801590611cf25750603960f81b811115611cf2565b50603d60f91b811115611ceb565b505f198101818111611a6a57602d60f81b906001600160f81b031990611dca9085611c52565b511614611cb6565b5060328111611c8f565b916001600160a01b031680156106e957611df73683856118c0565b6020815191012090815f52600360205260018060a01b0360405f205416610dc957604051838582376020818581016006815203019020549182151580938194611fa0575b50610da457815f526005602052611e5560405f2054611917565b610d95575f90815260036020908152604080832080546001600160a01b0319168517905560048252808320805460ff1916905592825260059052206001600160401b038311610d8157611ea88154611917565b601f8111611f70575b505f83601f8111600114611f0d5780611edd925f91611f0257508160011b915f199060031b1c19161790565b90555b611ee8575050565b60205f928260405193849283378101600681520301902055565b90508601355f610a9a565b50601f19841690825f528460205f20925f5b818110611f55575010611f3c575b5050600183811b019055611ee0565b8501355f19600386901b60f8161c191690555f80611f2d565b88840135855560019094019360209384019388935001611f1f565b611f9a90825f5260205f20601f860160051c81019160208710610d7757601f0160051c0190611a47565b5f611eb1565b611fae915060075490611bd0565b42105f611e3b565b5f546001600160a01b03163303611fc957565b606460405162461bcd60e51b815260206004820152602060248201527f4f776e61626c653a2063616c6c6572206973206e6f7420746865206f776e65726044820152fd5b6060608060405161201d81611867565b8281528260208201528260408201525f83820152015260018060a01b03600254169060405191602083015260208252612057604083611882565b6040516020916120678383611882565b5f8252604051928084016001600160401b03811185821017610d81576040526207a1208452604051936397a657c960e01b82860152516024850152602484526120b1604485611882565b604051946120be86611867565b855284015260408301525f606083015260808201529056fed62e88b1204b752d9cd6677341d585585fe638eff3c486b417569604b114521f8be0079c531659141344cd1fd0a4f28419497f9722a3daafe3b4186f6b6457e0af73b0b217208b61be286bbc37095bce7eb8b9ccf617244c2f0f154e8e04e3ffa164736f6c634300081c000a","linkReferences":{}},"methodIdentifiers":{"CCIP_ROUTER()":"fe5f42ca","DEFAULT_NAME_CHANGE_COOLDOWN()":"1ed10257","ETHEREUM_CHAIN_SELECTOR()":"9ab4a57c","HATS()":"7150ef88","MAX_SLUG_LENGTH()":"9687dbbd","MIN_SLUG_LENGTH()":"cdb198a0","authorizedCallers(address)":"536fff6c","available(string)":"aeb8ce9b","claimName(string)":"54c25e4b","claimNameSponsored(string)":"12199b7d","claimRefund()":"b5545a3c","failedRefunds(address)":"e6512c66","getRegistrationFee(string,address,uint8)":"a3f79e81","getReleaseFee(string)":"d12508da","l1Receiver()":"e224884b","nameChangeCooldown()":"d863ea82","owner()":"8da5cb5b","ownerToSlug(address)":"c4955ecf","protocolHatId()":"6130787d","registerGarden(string,address)":"640ebb95","releaseName()":"58cdf6bd","renounceOwnership()":"715018a6","setAuthorizedCaller(address,bool)":"454bbd29","setL1Receiver(address)":"91071bf2","setNameChangeCooldown(uint256)":"3ccb88a0","setProtocolHatId(uint256)":"7ba34255","slugNameType(bytes32)":"6d6ebd9c","slugOwner(bytes32)":"7ac064b8","slugReleasedAt(string)":"880ebf6b","totalPendingRefunds()":"2177b1db","transferOwnership(address)":"f2fde38b","withdrawETH(address)":"690d8320"},"id":188}