{"abi":[{"type":"constructor","inputs":[{"name":"_ccipRouter","type":"address","internalType":"address"},{"name":"_ethereumChainSelector","type":"uint64","internalType":"uint64"},{"name":"_l1Receiver","type":"address","internalType":"address"},{"name":"_hats","type":"address","internalType":"address"},{"name":"_protocolHatId","type":"uint256","internalType":"uint256"},{"name":"_owner","type":"address","internalType":"address"}],"stateMutability":"nonpayable"},{"type":"receive","stateMutability":"payable"},{"type":"function","name":"CCIP_ROUTER","inputs":[],"outputs":[{"name":"","type":"address","internalType":"contract IRouterClient"}],"stateMutability":"view"},{"type":"function","name":"DEFAULT_NAME_CHANGE_COOLDOWN","inputs":[],"outputs":[{"name":"","type":"uint256","internalType":"uint256"}],"stateMutability":"view"},{"type":"function","name":"ETHEREUM_CHAIN_SELECTOR","inputs":[],"outputs":[{"name":"","type":"uint64","internalType":"uint64"}],"stateMutability":"view"},{"type":"function","name":"HATS","inputs":[],"outputs":[{"name":"","type":"address","internalType":"contract IHats"}],"stateMutability":"view"},{"type":"function","name":"MAX_SLUG_LENGTH","inputs":[],"outputs":[{"name":"","type":"uint256","internalType":"uint256"}],"stateMutability":"view"},{"type":"function","name":"MIN_SLUG_LENGTH","inputs":[],"outputs":[{"name":"","type":"uint256","internalType":"uint256"}],"stateMutability":"view"},{"type":"function","name":"authorizedCallers","inputs":[{"name":"","type":"address","internalType":"address"}],"outputs":[{"name":"","type":"bool","internalType":"bool"}],"stateMutability":"view"},{"type":"function","name":"available","inputs":[{"name":"slug","type":"string","internalType":"string"}],"outputs":[{"name":"","type":"bool","internalType":"bool"}],"stateMutability":"view"},{"type":"function","name":"claimName","inputs":[{"name":"slug","type":"string","internalType":"string"}],"outputs":[],"stateMutability":"payable"},{"type":"function","name":"claimNameSponsored","inputs":[{"name":"slug","type":"string","internalType":"string"}],"outputs":[],"stateMutability":"nonpayable"},{"type":"function","name":"claimRefund","inputs":[],"outputs":[],"stateMutability":"nonpayable"},{"type":"function","name":"failedRefunds","inputs":[{"name":"","type":"address","internalType":"address"}],"outputs":[{"name":"","type":"uint256","internalType":"uint256"}],"stateMutability":"view"},{"type":"function","name":"getRegistrationFee","inputs":[{"name":"slug","type":"string","internalType":"string"},{"name":"_owner","type":"address","internalType":"address"},{"name":"nameType","type":"uint8","internalType":"enum GreenGoodsENS.NameType"}],"outputs":[{"name":"","type":"uint256","internalType":"uint256"}],"stateMutability":"view"},{"type":"function","name":"getReleaseFee","inputs":[{"name":"slug","type":"string","internalType":"string"}],"outputs":[{"name":"","type":"uint256","internalType":"uint256"}],"stateMutability":"view"},{"type":"function","name":"l1Receiver","inputs":[],"outputs":[{"name":"","type":"address","internalType":"address"}],"stateMutability":"view"},{"type":"function","name":"nameChangeCooldown","inputs":[],"outputs":[{"name":"","type":"uint256","internalType":"uint256"}],"stateMutability":"view"},{"type":"function","name":"owner","inputs":[],"outputs":[{"name":"","type":"address","internalType":"address"}],"stateMutability":"view"},{"type":"function","name":"ownerToSlug","inputs":[{"name":"owner","type":"address","internalType":"address"}],"outputs":[{"name":"slug","type":"string","internalType":"string"}],"stateMutability":"view"},{"type":"function","name":"protocolHatId","inputs":[],"outputs":[{"name":"","type":"uint256","internalType":"uint256"}],"stateMutability":"view"},{"type":"function","name":"registerGarden","inputs":[{"name":"slug","type":"string","internalType":"string"},{"name":"gardenAccount","type":"address","internalType":"address"}],"outputs":[],"stateMutability":"payable"},{"type":"function","name":"releaseName","inputs":[],"outputs":[],"stateMutability":"payable"},{"type":"function","name":"renounceOwnership","inputs":[],"outputs":[],"stateMutability":"nonpayable"},{"type":"function","name":"setAuthorizedCaller","inputs":[{"name":"caller","type":"address","internalType":"address"},{"name":"authorized","type":"bool","internalType":"bool"}],"outputs":[],"stateMutability":"nonpayable"},{"type":"function","name":"setL1Receiver","inputs":[{"name":"_l1Receiver","type":"address","internalType":"address"}],"outputs":[],"stateMutability":"nonpayable"},{"type":"function","name":"setNameChangeCooldown","inputs":[{"name":"_cooldown","type":"uint256","internalType":"uint256"}],"outputs":[],"stateMutability":"nonpayable"},{"type":"function","name":"setProtocolHatId","inputs":[{"name":"_protocolHatId","type":"uint256","internalType":"uint256"}],"outputs":[],"stateMutability":"nonpayable"},{"type":"function","name":"slugNameType","inputs":[{"name":"slugHash","type":"bytes32","internalType":"bytes32"}],"outputs":[{"name":"nameType","type":"uint8","internalType":"enum GreenGoodsENS.NameType"}],"stateMutability":"view"},{"type":"function","name":"slugOwner","inputs":[{"name":"slugHash","type":"bytes32","internalType":"bytes32"}],"outputs":[{"name":"owner","type":"address","internalType":"address"}],"stateMutability":"view"},{"type":"function","name":"slugReleasedAt","inputs":[{"name":"slug","type":"string","internalType":"string"}],"outputs":[{"name":"releasedAt","type":"uint256","internalType":"uint256"}],"stateMutability":"view"},{"type":"function","name":"totalPendingRefunds","inputs":[],"outputs":[{"name":"","type":"uint256","internalType":"uint256"}],"stateMutability":"view"},{"type":"function","name":"transferOwnership","inputs":[{"name":"newOwner","type":"address","internalType":"address"}],"outputs":[],"stateMutability":"nonpayable"},{"type":"function","name":"withdrawETH","inputs":[{"name":"to","type":"address","internalType":"address"}],"outputs":[],"stateMutability":"nonpayable"},{"type":"event","name":"AuthorizedCallerUpdated","inputs":[{"name":"caller","type":"address","indexed":true,"internalType":"address"},{"name":"authorized","type":"bool","indexed":false,"internalType":"bool"}],"anonymous":false},{"type":"event","name":"L1ReceiverUpdated","inputs":[{"name":"oldReceiver","type":"address","indexed":true,"internalType":"address"},{"name":"newReceiver","type":"address","indexed":true,"internalType":"address"}],"anonymous":false},{"type":"event","name":"NameChangeCooldownUpdated","inputs":[{"name":"oldCooldown","type":"uint256","indexed":false,"internalType":"uint256"},{"name":"newCooldown","type":"uint256","indexed":false,"internalType":"uint256"}],"anonymous":false},{"type":"event","name":"NameRegistrationSent","inputs":[{"name":"messageId","type":"bytes32","indexed":true,"internalType":"bytes32"},{"name":"slug","type":"string","indexed":false,"internalType":"string"},{"name":"owner","type":"address","indexed":true,"internalType":"address"},{"name":"nameType","type":"uint8","indexed":false,"internalType":"enum GreenGoodsENS.NameType"},{"name":"ccipFee","type":"uint256","indexed":false,"internalType":"uint256"}],"anonymous":false},{"type":"event","name":"NameReleaseSent","inputs":[{"name":"messageId","type":"bytes32","indexed":true,"internalType":"bytes32"},{"name":"slug","type":"string","indexed":false,"internalType":"string"},{"name":"previousOwner","type":"address","indexed":true,"internalType":"address"}],"anonymous":false},{"type":"event","name":"OwnershipTransferred","inputs":[{"name":"previousOwner","type":"address","indexed":true,"internalType":"address"},{"name":"newOwner","type":"address","indexed":true,"internalType":"address"}],"anonymous":false},{"type":"event","name":"ProtocolHatIdUpdated","inputs":[{"name":"oldHatId","type":"uint256","indexed":false,"internalType":"uint256"},{"name":"newHatId","type":"uint256","indexed":false,"internalType":"uint256"}],"anonymous":false},{"type":"event","name":"RefundClaimed","inputs":[{"name":"recipient","type":"address","indexed":true,"internalType":"address"},{"name":"amount","type":"uint256","indexed":false,"internalType":"uint256"}],"anonymous":false},{"type":"event","name":"RefundFailed","inputs":[{"name":"recipient","type":"address","indexed":true,"internalType":"address"},{"name":"amount","type":"uint256","indexed":false,"internalType":"uint256"}],"anonymous":false},{"type":"error","name":"AlreadyHasName","inputs":[]},{"type":"error","name":"CannotReleaseGardenName","inputs":[]},{"type":"error","name":"InsufficientFee","inputs":[]},{"type":"error","name":"InvalidCooldown","inputs":[]},{"type":"error","name":"InvalidSlug","inputs":[]},{"type":"error","name":"NameInCooldown","inputs":[]},{"type":"error","name":"NameTaken","inputs":[]},{"type":"error","name":"NoNameToRelease","inputs":[]},{"type":"error","name":"NoRefundAvailable","inputs":[]},{"type":"error","name":"NoWithdrawableBalance","inputs":[]},{"type":"error","name":"NotAuthorizedCaller","inputs":[]},{"type":"error","name":"NotOwner","inputs":[]},{"type":"error","name":"NotProtocolMember","inputs":[]},{"type":"error","name":"RefundTransferFailed","inputs":[]},{"type":"error","name":"WithdrawTransferFailed","inputs":[]},{"type":"error","name":"ZeroAddress","inputs":[]}],"bytecode":{"object":"0x60e060405234801561000f575f5ffd5b5060405161279638038061279683398101604081905261002e916100f5565b6100373361008b565b6001600160a01b038681166080526001600160401b03861660a052600280546001600160a01b031916868316179055831660c052600182905562278d006007556100808161008b565b50505050505061016c565b5f80546001600160a01b038381166001600160a01b0319831681178455604051919092169283917f8be0079c531659141344cd1fd0a4f28419497f9722a3daafe3b4186f6b6457e09190a35050565b80516001600160a01b03811681146100f0575f5ffd5b919050565b5f5f5f5f5f5f60c0878903121561010a575f5ffd5b610113876100da565b60208801519096506001600160401b038116811461012f575f5ffd5b945061013d604088016100da565b935061014b606088016100da565b92506080870151915061016060a088016100da565b90509295509295509295565b60805160a05160c0516125826102145f395f818161038601528181610667015261083701525f81816104aa01528181610d08015281816110200152818161156b01528181611649015281816117dd015281816118ae01528181611aad0152611b7e01525f818161062501528181610cdb01528181610ff30152818161153c01528181611619015281816117ae0152818161187e01528181611a7e0152611b4e01526125825ff3fe6080604052600436106101de575f3560e01c8063880ebf6b116100fd578063c4955ecf11610092578063e224884b11610062578063e224884b146105ab578063e6512c66146105ca578063f2fde38b146105f5578063fe5f42ca14610614575f5ffd5b8063c4955ecf14610537578063cdb198a014610563578063d12508da14610577578063d863ea8214610596575f5ffd5b80639ab4a57c116100cd5780639ab4a57c14610499578063a3f79e81146104e5578063aeb8ce9b14610504578063b5545a3c14610523575f5ffd5b8063880ebf6b146104135780638da5cb5b1461044a57806391071bf2146104665780639687dbbd14610485575f5ffd5b80636130787d11610173578063715018a611610143578063715018a6146103615780637150ef88146103755780637ac064b8146103c05780637ba34255146103f4575f5ffd5b80636130787d146102df578063640ebb95146102f4578063690d8320146103075780636d6ebd9c14610326575f5ffd5b8063454bbd29116101ae578063454bbd2914610267578063536fff6c1461028657806354c25e4b146102c457806358cdf6bd146102d7575f5ffd5b806312199b7d146101e95780631ed102571461020a5780632177b1db146102335780633ccb88a014610248575f5ffd5b366101e557005b5f5ffd5b3480156101f4575f5ffd5b50610208610203366004611f1e565b610647565b005b348015610215575f5ffd5b5061022062278d0081565b6040519081526020015b60405180910390f35b34801561023e575f5ffd5b50610220600a5481565b348015610253575f5ffd5b50610208610262366004611f5d565b61071b565b348015610272575f5ffd5b50610208610281366004611f9c565b610789565b348015610291575f5ffd5b506102b46102a0366004611fd1565b60086020525f908152604090205460ff1681565b604051901515815260200161022a565b6102086102d2366004611f1e565b610817565b6102086108e7565b3480156102ea575f5ffd5b5061022060015481565b610208610302366004611ff1565b610a8f565b348015610312575f5ffd5b50610208610321366004611fd1565b610aff565b348015610331575f5ffd5b50610354610340366004611f5d565b60046020525f908152604090205460ff1681565b60405161022a9190612075565b34801561036c575f5ffd5b50610208610bb2565b348015610380575f5ffd5b506103a87f000000000000000000000000000000000000000000000000000000000000000081565b6040516001600160a01b03909116815260200161022a565b3480156103cb575f5ffd5b506103a86103da366004611f5d565b60036020525f90815260409020546001600160a01b031681565b3480156103ff575f5ffd5b5061020861040e366004611f5d565b610bc5565b34801561041e575f5ffd5b5061022061042d366004612097565b805160208183018101805160068252928201919093012091525481565b348015610455575f5ffd5b505f546001600160a01b03166103a8565b348015610471575f5ffd5b50610208610480366004611fd1565b610c0b565b348015610490575f5ffd5b50610220603281565b3480156104a4575f5ffd5b506104cc7f000000000000000000000000000000000000000000000000000000000000000081565b60405167ffffffffffffffff909116815260200161022a565b3480156104f0575f5ffd5b506102206104ff36600461214a565b610c8b565b34801561050f575f5ffd5b506102b461051e366004611f1e565b610d7c565b34801561052e575f5ffd5b50610208610e1b565b348015610542575f5ffd5b50610556610551366004611fd1565b610f0b565b60405161022a91906121de565b34801561056e575f5ffd5b50610220600381565b348015610582575f5ffd5b50610220610591366004611f1e565b610fa2565b3480156105a1575f5ffd5b5061022060075481565b3480156105b6575f5ffd5b506002546103a8906001600160a01b031681565b3480156105d5575f5ffd5b506102206105e4366004611fd1565b60096020525f908152604090205481565b348015610600575f5ffd5b5061020861060f366004611fd1565b611092565b34801561061f575f5ffd5b506103a87f000000000000000000000000000000000000000000000000000000000000000081565b6001546040516321a9204d60e11b815233600482015260248101919091527f00000000000000000000000000000000000000000000000000000000000000006001600160a01b031690634352409a90604401602060405180830381865afa1580156106b4573d5f5f3e3d5ffd5b505050506040513d601f19601f820116820180604052508101906106d891906121f0565b6106f5576040516372ffd5bd60e01b815260040160405180910390fd5b6106ff8282611110565b61070b8282335f611342565b6107178282335f611502565b5050565b61072361171b565b805f0361074357604051637475d84d60e11b815260040160405180910390fd5b600780549082905560408051828152602081018490527f4423395daaa12a889877c4b5423e8a0442461e9f0e928bdd0a45212e3b4a207091015b60405180910390a15050565b61079161171b565b6001600160a01b0382166107b85760405163d92e233d60e01b815260040160405180910390fd5b6001600160a01b0382165f81815260086020908152604091829020805460ff191685151590811790915591519182527fad857fa38c9319cb80848f1ef2f924383b90297eb5d71755738ff037d100faa191015b60405180910390a25050565b6001546040516321a9204d60e11b815233600482015260248101919091527f00000000000000000000000000000000000000000000000000000000000000006001600160a01b031690634352409a90604401602060405180830381865afa158015610884573d5f5f3e3d5ffd5b505050506040513d601f19601f820116820180604052508101906108a891906121f0565b6108c5576040516372ffd5bd60e01b815260040160405180910390fd5b6108cf8282611110565b6108db8282335f611342565b6107178282335f611774565b335f90815260056020526040812080546109009061220b565b80601f016020809104026020016040519081016040528092919081815260200182805461092c9061220b565b80156109775780601f1061094e57610100808354040283529160200191610977565b820191905f5260205f20905b81548152906001019060200180831161095a57829003601f168201915b5050505050905080515f0361099f57604051632a3673b160e21b815260040160405180910390fd5b80516020808301919091205f81815260039092526040909120546001600160a01b031633146109e1576040516330cd747160e01b815260040160405180910390fd5b60015f8281526004602052604090205460ff166001811115610a0557610a05612041565b03610a235760405163eafe5d9b60e01b815260040160405180910390fd5b42600683604051610a349190612243565b9081526040805160209281900383019020929092555f8381526003825282812080546001600160a01b031916905560048252828120805460ff191690553381526005909152908120610a8591611e8f565b6107178233611a45565b335f9081526008602052604090205460ff16158015610ab857505f546001600160a01b03163314155b15610ad657604051637046c88d60e01b815260040160405180910390fd5b610ae08383611110565b610aed8383836001611342565b610afa8383836001611774565b505050565b610b0761171b565b600a5447908111610b2b57604051637a09b84360e01b815260040160405180910390fd5b5f600a5482610b3a919061226d565b90505f836001600160a01b0316826040515f6040518083038185875af1925050503d805f8114610b85576040519150601f19603f3d011682016040523d82523d5f602084013e610b8a565b606091505b5050905080610bac576040516369a4751b60e01b815260040160405180910390fd5b50505050565b610bba61171b565b610bc35f611d1f565b565b610bcd61171b565b600180549082905560408051828152602081018490527fb86b055e0059c6d99b1f22609a559369ea00d5184edc11cb0f207bbf47337c8f910161077d565b610c1361171b565b6001600160a01b038116610c3a5760405163d92e233d60e01b815260040160405180910390fd5b600280546001600160a01b038381166001600160a01b0319831681179093556040519116919082907f06383ca5bd6b50f597270f85e3d347abff40de5ef5240f81c24e032ca9991376905f90a35050565b5f5f5f86868686604051602001610ca69594939291906122a8565b60405160208183030381529060405290505f610cc182611d6e565b6040516320487ded60e01b81529091506001600160a01b037f000000000000000000000000000000000000000000000000000000000000000016906320487ded90610d32907f00000000000000000000000000000000000000000000000000000000000000009085906004016122ec565b602060405180830381865afa158015610d4d573d5f5f3e3d5ffd5b505050506040513d601f19601f82011682018060405250810190610d7191906123c0565b979650505050505050565b5f5f8383604051610d8e9291906123d7565b60408051918290039091205f818152600360205291909120549091506001600160a01b031615610dc1575f915050610e15565b5f60068585604051610dd49291906123d7565b90815260200160405180910390205490505f81118015610dff5750600754610dfc90826123e6565b42105b15610e0e575f92505050610e15565b6001925050505b92915050565b335f9081526009602052604081205490819003610e4b5760405163e49c14cb60e01b815260040160405180910390fd5b335f908152600960205260408120819055600a8054839290610e6e90849061226d565b90915550506040515f90339083908381818185875af1925050503d805f8114610eb2576040519150601f19603f3d011682016040523d82523d5f602084013e610eb7565b606091505b5050905080610ed95760405163cbe4e8c360e01b815260040160405180910390fd5b60405182815233907f358fe4192934d3bf28ae181feda1f4bd08ca67f5e2fad55582cce5eb67304ae99060200161080b565b60056020525f908152604090208054610f239061220b565b80601f0160208091040260200160405190810160405280929190818152602001828054610f4f9061220b565b8015610f9a5780601f10610f7157610100808354040283529160200191610f9a565b820191905f5260205f20905b815481529060010190602001808311610f7d57829003601f168201915b505050505081565b5f5f600184845f5f604051602001610fbe9594939291906122a8565b60405160208183030381529060405290505f610fd982611d6e565b6040516320487ded60e01b81529091506001600160a01b037f000000000000000000000000000000000000000000000000000000000000000016906320487ded9061104a907f00000000000000000000000000000000000000000000000000000000000000009085906004016122ec565b602060405180830381865afa158015611065573d5f5f3e3d5ffd5b505050506040513d601f19601f8201168201806040525081019061108991906123c0565b95945050505050565b61109a61171b565b6001600160a01b0381166111045760405162461bcd60e51b815260206004820152602660248201527f4f776e61626c653a206e6577206f776e657220697320746865207a65726f206160448201526564647265737360d01b60648201526084015b60405180910390fd5b61110d81611d1f565b50565b5f82828080601f0160208091040260200160405190810160405280939291908181526020018383808284375f92019190915250508251929350506003821090508061115b5750603281115b156111795760405163290a831560e01b815260040160405180910390fd5b815f8151811061118b5761118b6123f9565b6020910101516001600160f81b031916602d60f81b14806111da5750816111b360018361226d565b815181106111c3576111c36123f9565b6020910101516001600160f81b031916602d60f81b145b156111f85760405163290a831560e01b815260040160405180910390fd5b5f5b8181101561133b575f838281518110611215576112156123f9565b01602001516001600160f81b03191690505f606160f81b82108015906112495750603d60f91b6001600160f81b0319831611155b8061127b5750600360fc1b6001600160f81b031983161080159061127b5750603960f81b6001600160f81b0319831611155b806112935750602d60f81b6001600160f81b03198316145b9050806112b35760405163290a831560e01b815260040160405180910390fd5b602d60f81b6001600160f81b031983161480156112d95750836112d78460016123e6565b105b80156113135750846112ec8460016123e6565b815181106112fc576112fc6123f9565b6020910101516001600160f81b031916602d60f81b145b156113315760405163290a831560e01b815260040160405180910390fd5b50506001016111fa565b5050505050565b6001600160a01b0382166113695760405163d92e233d60e01b815260040160405180910390fd5b5f848460405161137a9291906123d7565b60408051918290039091205f818152600360205291909120549091506001600160a01b0316156113bd57604051639e4b268560e01b815260040160405180910390fd5b5f600686866040516113d09291906123d7565b90815260200160405180910390205490505f811180156113fb57506007546113f890826123e6565b42105b156114195760405163b93520af60e01b815260040160405180910390fd5b6001600160a01b0384165f908152600560205260408120805461143b9061220b565b9050111561145c5760405163a8348fd560e01b815260040160405180910390fd5b5f82815260036020908152604080832080546001600160a01b0319166001600160a01b03891617905560049091529020805484919060ff1916600183818111156114a8576114a8612041565b02179055506001600160a01b0384165f9081526005602052604090206114cf868883612451565b5080156114fa57600686866040516114e89291906123d7565b90815260200160405180910390205f90555b505050505050565b5f5f8585858560405160200161151c9594939291906122a8565b60405160208183030381529060405290505f61153782611d6e565b90505f7f00000000000000000000000000000000000000000000000000000000000000006001600160a01b03166320487ded7f0000000000000000000000000000000000000000000000000000000000000000846040518363ffffffff1660e01b81526004016115a89291906122ec565b602060405180830381865afa1580156115c3573d5f5f3e3d5ffd5b505050506040513d601f19601f820116820180604052508101906115e791906123c0565b9050600a54816115f791906123e6565b4710156116165760405162976f7560e21b815260040160405180910390fd5b5f7f00000000000000000000000000000000000000000000000000000000000000006001600160a01b03166396f4e9f9837f0000000000000000000000000000000000000000000000000000000000000000866040518463ffffffff1660e01b81526004016116869291906122ec565b60206040518083038185885af11580156116a2573d5f5f3e3d5ffd5b50505050506040513d601f19601f820116820180604052508101906116c791906123c0565b9050856001600160a01b0316817fd62e88b1204b752d9cd6677341d585585fe638eff3c486b417569604b114521f8a8a8987604051611709949392919061250b565b60405180910390a35050505050505050565b5f546001600160a01b03163314610bc35760405162461bcd60e51b815260206004820181905260248201527f4f776e61626c653a2063616c6c6572206973206e6f7420746865206f776e657260448201526064016110fb565b5f5f8585858560405160200161178e9594939291906122a8565b60405160208183030381529060405290505f6117a982611d6e565b90505f7f00000000000000000000000000000000000000000000000000000000000000006001600160a01b03166320487ded7f0000000000000000000000000000000000000000000000000000000000000000846040518363ffffffff1660e01b815260040161181a9291906122ec565b602060405180830381865afa158015611835573d5f5f3e3d5ffd5b505050506040513d601f19601f8201168201806040525081019061185991906123c0565b90508034101561187b5760405162976f7560e21b815260040160405180910390fd5b5f7f00000000000000000000000000000000000000000000000000000000000000006001600160a01b03166396f4e9f9837f0000000000000000000000000000000000000000000000000000000000000000866040518463ffffffff1660e01b81526004016118eb9291906122ec565b60206040518083038185885af1158015611907573d5f5f3e3d5ffd5b50505050506040513d601f19601f8201168201806040525081019061192c91906123c0565b905081341115611a05575f611941833461226d565b6040519091505f90339083908381818185875af1925050503d805f8114611983576040519150601f19603f3d011682016040523d82523d5f602084013e611988565b606091505b5050905080611a0257335f90815260096020526040812080548492906119af9084906123e6565b9250508190555081600a5f8282546119c791906123e6565b909155505060405182815233907faf73b0b217208b61be286bbc37095bce7eb8b9ccf617244c2f0f154e8e04e3ff9060200160405180910390a25b50505b856001600160a01b0316817fd62e88b1204b752d9cd6677341d585585fe638eff3c486b417569604b114521f8a8a8987604051611709949392919061250b565b5f600183835f604051602001611a5e949392919061253c565b60405160208183030381529060405290505f611a7982611d6e565b90505f7f00000000000000000000000000000000000000000000000000000000000000006001600160a01b03166320487ded7f0000000000000000000000000000000000000000000000000000000000000000846040518363ffffffff1660e01b8152600401611aea9291906122ec565b602060405180830381865afa158015611b05573d5f5f3e3d5ffd5b505050506040513d601f19601f82011682018060405250810190611b2991906123c0565b905080341015611b4b5760405162976f7560e21b815260040160405180910390fd5b5f7f00000000000000000000000000000000000000000000000000000000000000006001600160a01b03166396f4e9f9837f0000000000000000000000000000000000000000000000000000000000000000866040518463ffffffff1660e01b8152600401611bbb9291906122ec565b60206040518083038185885af1158015611bd7573d5f5f3e3d5ffd5b50505050506040513d601f19601f82011682018060405250810190611bfc91906123c0565b905081341115611cd5575f611c11833461226d565b6040519091505f90339083908381818185875af1925050503d805f8114611c53576040519150601f19603f3d011682016040523d82523d5f602084013e611c58565b606091505b5050905080611cd257335f9081526009602052604081208054849290611c7f9084906123e6565b9250508190555081600a5f828254611c9791906123e6565b909155505060405182815233907faf73b0b217208b61be286bbc37095bce7eb8b9ccf617244c2f0f154e8e04e3ff9060200160405180910390a25b50505b846001600160a01b0316817f6495b28681b1949889825b5d79fd8c9d9cd925da87245539fe84f73bb17358c288604051611d0f91906121de565b60405180910390a3505050505050565b5f80546001600160a01b038381166001600160a01b0319831681178455604051919092169283917f8be0079c531659141344cd1fd0a4f28419497f9722a3daafe3b4186f6b6457e09190a35050565b611da86040518060a001604052806060815260200160608152602001606081526020015f6001600160a01b03168152602001606081525090565b6040805160a081019091526002546001600160a01b031660c08201528060e0810160408051808303601f19018152918152908252602080830186905281515f8082529181018352929091019190611e20565b604080518082019091525f8082526020820152815260200190600190039081611dfa5790505b5081526020015f6001600160a01b03168152602001611e8760405180602001604052806207a12081525060408051915160248084019190915281518084039091018152604490920190526020810180516001600160e01b03166397a657c960e01b17905290565b905292915050565b508054611e9b9061220b565b5f825580601f10611eaa575050565b601f0160209004905f5260205f209081019061110d91905b80821115611ed5575f8155600101611ec2565b5090565b5f5f83601f840112611ee9575f5ffd5b50813567ffffffffffffffff811115611f00575f5ffd5b602083019150836020828501011115611f17575f5ffd5b9250929050565b5f5f60208385031215611f2f575f5ffd5b823567ffffffffffffffff811115611f45575f5ffd5b611f5185828601611ed9565b90969095509350505050565b5f60208284031215611f6d575f5ffd5b5035919050565b80356001600160a01b0381168114611f8a575f5ffd5b919050565b801515811461110d575f5ffd5b5f5f60408385031215611fad575f5ffd5b611fb683611f74565b91506020830135611fc681611f8f565b809150509250929050565b5f60208284031215611fe1575f5ffd5b611fea82611f74565b9392505050565b5f5f5f60408486031215612003575f5ffd5b833567ffffffffffffffff811115612019575f5ffd5b61202586828701611ed9565b9094509250612038905060208501611f74565b90509250925092565b634e487b7160e01b5f52602160045260245ffd5b6002811061207157634e487b7160e01b5f52602160045260245ffd5b9052565b60208101610e158284612055565b634e487b7160e01b5f52604160045260245ffd5b5f602082840312156120a7575f5ffd5b813567ffffffffffffffff8111156120bd575f5ffd5b8201601f810184136120cd575f5ffd5b803567ffffffffffffffff8111156120e7576120e7612083565b604051601f8201601f19908116603f0116810167ffffffffffffffff8111828210171561211657612116612083565b60405281815282820160200186101561212d575f5ffd5b816020840160208301375f91810160200191909152949350505050565b5f5f5f5f6060858703121561215d575f5ffd5b843567ffffffffffffffff811115612173575f5ffd5b61217f87828801611ed9565b9095509350612192905060208601611f74565b91506040850135600281106121a5575f5ffd5b939692955090935050565b5f81518084528060208401602086015e5f602082860101526020601f19601f83011685010191505092915050565b602081525f611fea60208301846121b0565b5f60208284031215612200575f5ffd5b8151611fea81611f8f565b600181811c9082168061221f57607f821691505b60208210810361223d57634e487b7160e01b5f52602260045260245ffd5b50919050565b5f82518060208501845e5f920191825250919050565b634e487b7160e01b5f52601160045260245ffd5b81810381811115610e1557610e15612259565b81835281816020850137505f828201602090810191909152601f909101601f19169091010190565b60ff86168152608060208201525f6122c4608083018688612280565b6001600160a01b038516604084015290506122e26060830184612055565b9695505050505050565b67ffffffffffffffff83168152604060208201525f825160a0604084015261231760e08401826121b0565b90506020840151603f1984830301606085015261233482826121b0565b6040860151858203603f190160808701528051808352602091820194505f93509101905b8083101561238f57835180516001600160a01b03168352602090810151818401529093019260019290920191604090910190612358565b5060608601516001600160a01b031660a08601526080860151858203603f190160c08701529250610d7181846121b0565b5f602082840312156123d0575f5ffd5b5051919050565b818382375f9101908152919050565b80820180821115610e1557610e15612259565b634e487b7160e01b5f52603260045260245ffd5b601f821115610afa57805f5260205f20601f840160051c810160208510156124325750805b601f840160051c820191505b8181101561133b575f815560010161243e565b67ffffffffffffffff83111561246957612469612083565b61247d83612477835461220b565b8361240d565b5f601f8411600181146124ae575f85156124975750838201355b5f19600387901b1c1916600186901b17835561133b565b5f83815260208120601f198716915b828110156124dd57868501358255602094850194600190920191016124bd565b50868210156124f9575f1960f88860031b161c19848701351681555b505060018560011b0183555050505050565b606081525f61251e606083018688612280565b905061252d6020830185612055565b82604083015295945050505050565b60ff85168152608060208201525f61255760808301866121b0565b6001600160a01b03851660408401529050611089606083018461205556fea164736f6c634300081c000a","linkReferences":{}},"methodIdentifiers":{"CCIP_ROUTER()":"fe5f42ca","DEFAULT_NAME_CHANGE_COOLDOWN()":"1ed10257","ETHEREUM_CHAIN_SELECTOR()":"9ab4a57c","HATS()":"7150ef88","MAX_SLUG_LENGTH()":"9687dbbd","MIN_SLUG_LENGTH()":"cdb198a0","authorizedCallers(address)":"536fff6c","available(string)":"aeb8ce9b","claimName(string)":"54c25e4b","claimNameSponsored(string)":"12199b7d","claimRefund()":"b5545a3c","failedRefunds(address)":"e6512c66","getRegistrationFee(string,address,uint8)":"a3f79e81","getReleaseFee(string)":"d12508da","l1Receiver()":"e224884b","nameChangeCooldown()":"d863ea82","owner()":"8da5cb5b","ownerToSlug(address)":"c4955ecf","protocolHatId()":"6130787d","registerGarden(string,address)":"640ebb95","releaseName()":"58cdf6bd","renounceOwnership()":"715018a6","setAuthorizedCaller(address,bool)":"454bbd29","setL1Receiver(address)":"91071bf2","setNameChangeCooldown(uint256)":"3ccb88a0","setProtocolHatId(uint256)":"7ba34255","slugNameType(bytes32)":"6d6ebd9c","slugOwner(bytes32)":"7ac064b8","slugReleasedAt(string)":"880ebf6b","totalPendingRefunds()":"2177b1db","transferOwnership(address)":"f2fde38b","withdrawETH(address)":"690d8320"},"id":154}