{"abi":[{"type":"constructor","inputs":[{"name":"_ccipRouter","type":"address","internalType":"address"},{"name":"_ethereumChainSelector","type":"uint64","internalType":"uint64"},{"name":"_l1Receiver","type":"address","internalType":"address"},{"name":"_hats","type":"address","internalType":"address"},{"name":"_protocolHatId","type":"uint256","internalType":"uint256"},{"name":"_owner","type":"address","internalType":"address"}],"stateMutability":"nonpayable"},{"type":"receive","stateMutability":"payable"},{"type":"function","name":"CCIP_ROUTER","inputs":[],"outputs":[{"name":"","type":"address","internalType":"contract IRouterClient"}],"stateMutability":"view"},{"type":"function","name":"ETHEREUM_CHAIN_SELECTOR","inputs":[],"outputs":[{"name":"","type":"uint64","internalType":"uint64"}],"stateMutability":"view"},{"type":"function","name":"HATS","inputs":[],"outputs":[{"name":"","type":"address","internalType":"contract IHats"}],"stateMutability":"view"},{"type":"function","name":"MAX_SLUG_LENGTH","inputs":[],"outputs":[{"name":"","type":"uint256","internalType":"uint256"}],"stateMutability":"view"},{"type":"function","name":"MIN_SLUG_LENGTH","inputs":[],"outputs":[{"name":"","type":"uint256","internalType":"uint256"}],"stateMutability":"view"},{"type":"function","name":"NAME_CHANGE_COOLDOWN","inputs":[],"outputs":[{"name":"","type":"uint256","internalType":"uint256"}],"stateMutability":"view"},{"type":"function","name":"authorizedCallers","inputs":[{"name":"","type":"address","internalType":"address"}],"outputs":[{"name":"","type":"bool","internalType":"bool"}],"stateMutability":"view"},{"type":"function","name":"available","inputs":[{"name":"slug","type":"string","internalType":"string"}],"outputs":[{"name":"","type":"bool","internalType":"bool"}],"stateMutability":"view"},{"type":"function","name":"claimName","inputs":[{"name":"slug","type":"string","internalType":"string"}],"outputs":[],"stateMutability":"payable"},{"type":"function","name":"claimNameSponsored","inputs":[{"name":"slug","type":"string","internalType":"string"}],"outputs":[],"stateMutability":"nonpayable"},{"type":"function","name":"claimRefund","inputs":[],"outputs":[],"stateMutability":"nonpayable"},{"type":"function","name":"failedRefunds","inputs":[{"name":"","type":"address","internalType":"address"}],"outputs":[{"name":"","type":"uint256","internalType":"uint256"}],"stateMutability":"view"},{"type":"function","name":"getRegistrationFee","inputs":[{"name":"slug","type":"string","internalType":"string"},{"name":"_owner","type":"address","internalType":"address"},{"name":"nameType","type":"uint8","internalType":"enum GreenGoodsENS.NameType"}],"outputs":[{"name":"","type":"uint256","internalType":"uint256"}],"stateMutability":"view"},{"type":"function","name":"getReleaseFee","inputs":[{"name":"slug","type":"string","internalType":"string"}],"outputs":[{"name":"","type":"uint256","internalType":"uint256"}],"stateMutability":"view"},{"type":"function","name":"l1Receiver","inputs":[],"outputs":[{"name":"","type":"address","internalType":"address"}],"stateMutability":"view"},{"type":"function","name":"owner","inputs":[],"outputs":[{"name":"","type":"address","internalType":"address"}],"stateMutability":"view"},{"type":"function","name":"ownerToSlug","inputs":[{"name":"owner","type":"address","internalType":"address"}],"outputs":[{"name":"slug","type":"string","internalType":"string"}],"stateMutability":"view"},{"type":"function","name":"protocolHatId","inputs":[],"outputs":[{"name":"","type":"uint256","internalType":"uint256"}],"stateMutability":"view"},{"type":"function","name":"registerGarden","inputs":[{"name":"slug","type":"string","internalType":"string"},{"name":"gardenAccount","type":"address","internalType":"address"}],"outputs":[],"stateMutability":"payable"},{"type":"function","name":"releaseName","inputs":[],"outputs":[],"stateMutability":"payable"},{"type":"function","name":"renounceOwnership","inputs":[],"outputs":[],"stateMutability":"nonpayable"},{"type":"function","name":"setAuthorizedCaller","inputs":[{"name":"caller","type":"address","internalType":"address"},{"name":"authorized","type":"bool","internalType":"bool"}],"outputs":[],"stateMutability":"nonpayable"},{"type":"function","name":"setL1Receiver","inputs":[{"name":"_l1Receiver","type":"address","internalType":"address"}],"outputs":[],"stateMutability":"nonpayable"},{"type":"function","name":"setProtocolHatId","inputs":[{"name":"_protocolHatId","type":"uint256","internalType":"uint256"}],"outputs":[],"stateMutability":"nonpayable"},{"type":"function","name":"slugNameType","inputs":[{"name":"slugHash","type":"bytes32","internalType":"bytes32"}],"outputs":[{"name":"nameType","type":"uint8","internalType":"enum GreenGoodsENS.NameType"}],"stateMutability":"view"},{"type":"function","name":"slugOwner","inputs":[{"name":"slugHash","type":"bytes32","internalType":"bytes32"}],"outputs":[{"name":"owner","type":"address","internalType":"address"}],"stateMutability":"view"},{"type":"function","name":"slugReleasedAt","inputs":[{"name":"slug","type":"string","internalType":"string"}],"outputs":[{"name":"releasedAt","type":"uint256","internalType":"uint256"}],"stateMutability":"view"},{"type":"function","name":"totalPendingRefunds","inputs":[],"outputs":[{"name":"","type":"uint256","internalType":"uint256"}],"stateMutability":"view"},{"type":"function","name":"transferOwnership","inputs":[{"name":"newOwner","type":"address","internalType":"address"}],"outputs":[],"stateMutability":"nonpayable"},{"type":"function","name":"withdrawETH","inputs":[{"name":"to","type":"address","internalType":"address"}],"outputs":[],"stateMutability":"nonpayable"},{"type":"event","name":"AuthorizedCallerUpdated","inputs":[{"name":"caller","type":"address","indexed":true,"internalType":"address"},{"name":"authorized","type":"bool","indexed":false,"internalType":"bool"}],"anonymous":false},{"type":"event","name":"L1ReceiverUpdated","inputs":[{"name":"oldReceiver","type":"address","indexed":true,"internalType":"address"},{"name":"newReceiver","type":"address","indexed":true,"internalType":"address"}],"anonymous":false},{"type":"event","name":"NameRegistrationSent","inputs":[{"name":"messageId","type":"bytes32","indexed":true,"internalType":"bytes32"},{"name":"slug","type":"string","indexed":false,"internalType":"string"},{"name":"owner","type":"address","indexed":true,"internalType":"address"},{"name":"nameType","type":"uint8","indexed":false,"internalType":"enum GreenGoodsENS.NameType"},{"name":"ccipFee","type":"uint256","indexed":false,"internalType":"uint256"}],"anonymous":false},{"type":"event","name":"NameReleaseSent","inputs":[{"name":"messageId","type":"bytes32","indexed":true,"internalType":"bytes32"},{"name":"slug","type":"string","indexed":false,"internalType":"string"},{"name":"previousOwner","type":"address","indexed":true,"internalType":"address"}],"anonymous":false},{"type":"event","name":"OwnershipTransferred","inputs":[{"name":"previousOwner","type":"address","indexed":true,"internalType":"address"},{"name":"newOwner","type":"address","indexed":true,"internalType":"address"}],"anonymous":false},{"type":"event","name":"ProtocolHatIdUpdated","inputs":[{"name":"oldHatId","type":"uint256","indexed":false,"internalType":"uint256"},{"name":"newHatId","type":"uint256","indexed":false,"internalType":"uint256"}],"anonymous":false},{"type":"event","name":"RefundClaimed","inputs":[{"name":"recipient","type":"address","indexed":true,"internalType":"address"},{"name":"amount","type":"uint256","indexed":false,"internalType":"uint256"}],"anonymous":false},{"type":"event","name":"RefundFailed","inputs":[{"name":"recipient","type":"address","indexed":true,"internalType":"address"},{"name":"amount","type":"uint256","indexed":false,"internalType":"uint256"}],"anonymous":false},{"type":"error","name":"AlreadyHasName","inputs":[]},{"type":"error","name":"CannotReleaseGardenName","inputs":[]},{"type":"error","name":"InsufficientFee","inputs":[]},{"type":"error","name":"InvalidSlug","inputs":[]},{"type":"error","name":"NameInCooldown","inputs":[]},{"type":"error","name":"NameTaken","inputs":[]},{"type":"error","name":"NoNameToRelease","inputs":[]},{"type":"error","name":"NoRefundAvailable","inputs":[]},{"type":"error","name":"NoWithdrawableBalance","inputs":[]},{"type":"error","name":"NotAuthorizedCaller","inputs":[]},{"type":"error","name":"NotOwner","inputs":[]},{"type":"error","name":"NotProtocolMember","inputs":[]},{"type":"error","name":"RefundTransferFailed","inputs":[]},{"type":"error","name":"WithdrawTransferFailed","inputs":[]},{"type":"error","name":"ZeroAddress","inputs":[]}],"bytecode":{"object":"0x60e03461014b57601f6123fc38819003918201601f19168301916001600160401b0383118484101761014f5780849260c09460405283398101031261014b5761004781610163565b6020820151916001600160401b038316830361014b576100cd9261006d60408301610163565b61007960608401610163565b9161008b60a060808601519501610163565b9461009533610177565b6001600160a01b0390811660805260a091909152600280546001600160a01b031916928216929092179091551660c052600155610177565b60405161223e90816101be82396080518181816101870152818161038b01528181610ab501528181610f330152818161131f01526118b6015260a05181818161035f015281816105f901528181610ae301528181610f5e0152818161134c01526118e3015260c051818181610811015281816111b901526117290152f35b5f80fd5b634e487b7160e01b5f52604160045260245ffd5b51906001600160a01b038216820361014b57565b5f80546001600160a01b039283166001600160a01b03198216811783559216907f8be0079c531659141344cd1fd0a4f28419497f9722a3daafe3b4186f6b6457e09080a356fe608080604052600436101561001c575b50361561001a575f80fd5b005b5f3560e01c90816312199b7d146116d6575080632177b1db146116b9578063454bbd2914611635578063536fff6c146115f857806354c25e4b1461116657806358cdf6bd14610e0a5780636130787d14610ded578063640ebb9514610926578063690d8320146108b85780636d6ebd9c14610884578063715018a6146108405780637150ef88146107fc5780637ac064b8146107ca5780637ba3425514610776578063880ebf6b146107095780638da5cb5b146106e257806391071bf2146106605780639687dbbd14610645578063998adc89146106285780639ab4a57c146105e4578063a3f79e8114610571578063aeb8ce9b1461052c578063b5545a3c1461048a578063c4955ecf1461043a578063cdb198a01461041f578063d12508da146102cd578063e224884b146102a5578063e6512c661461026d578063f2fde38b146101ba5763fe5f42ca14610172575f61000f565b346101b6575f3660031901126101b6576040517f00000000000000000000000000000000000000000000000000000000000000006001600160a01b03168152602090f35b5f80fd5b346101b65760203660031901126101b6576101d3611b04565b6101db6120b1565b6001600160a01b03168015610219575f80546001600160a01b03198116831782556001600160a01b0316905f5160206121f25f395f51905f529080a3005b60405162461bcd60e51b815260206004820152602660248201527f4f776e61626c653a206e6577206f776e657220697320746865207a65726f206160448201526564647265737360d01b6064820152608490fd5b346101b65760203660031901126101b6576001600160a01b0361028e611b04565b165f526008602052602060405f2054604051908152f35b346101b6575f3660031901126101b6576002546040516001600160a01b039091168152602090f35b346101b65760203660031901126101b6576004356001600160401b0381116101b65761030061031e913690600401611ad7565b919060405192600160208501526080604085015260a0840191611d81565b5f60608301529061034c8161034781610387955f6080602097015203601f198101835282611b58565b612108565b604051809381926320487ded60e01b83527f000000000000000000000000000000000000000000000000000000000000000060048401611dd9565b03817f00000000000000000000000000000000000000000000000000000000000000006001600160a01b03165afa8015610400575f906103cd575b602090604051908152f35b506020813d6020116103f8575b816103e760209383611b58565b810103126101b657602090516103c2565b3d91506103da565b6040513d5f823e3d90fd5b634e487b7160e01b5f52602160045260245ffd5b346101b6575f3660031901126101b657602060405160038152f35b346101b65760203660031901126101b6576001600160a01b0361045b611b04565b165f52600560205261048661047260405f20611c25565b604051918291602083526020830190611cc5565b0390f35b346101b6575f3660031901126101b657335f52600860205260405f2054801561051d57335f5260086020525f60408120556104c781600954611d45565b6009555f80808084335af16104da611d52565b501561050e576040519081527f358fe4192934d3bf28ae181feda1f4bd08ca67f5e2fad55582cce5eb67304ae960203392a2005b63cbe4e8c360e01b5f5260045ffd5b63e49c14cb60e01b5f5260045ffd5b346101b65760203660031901126101b6576004356001600160401b0381116101b6576105676105616020923690600401611ad7565b90611eb1565b6040519015158152f35b346101b65760603660031901126101b6576004356001600160401b0381116101b6576105a1903690600401611ad7565b906105aa611b1a565b6044359260028410156101b6576103476020936105d66103879661034c95604051958694898601611da1565b03601f198101835282611b58565b346101b6575f3660031901126101b6576040517f00000000000000000000000000000000000000000000000000000000000000006001600160401b03168152602090f35b346101b6575f3660031901126101b657602060405162278d008152f35b346101b6575f3660031901126101b657602060405160328152f35b346101b65760203660031901126101b657610679611b04565b6106816120b1565b6001600160a01b031680156106d357600280546001600160a01b0319811683179091556001600160a01b03167f06383ca5bd6b50f597270f85e3d347abff40de5ef5240f81c24e032ca99913765f80a3005b63d92e233d60e01b5f5260045ffd5b346101b6575f3660031901126101b6575f546040516001600160a01b039091168152602090f35b346101b65760203660031901126101b6576004356001600160401b0381116101b657366023820112156101b657610763602061075081933690602481600401359101611b96565b8160405193828580945193849201611bcc565b8101600681520301902054604051908152f35b346101b65760203660031901126101b6577fb86b055e0059c6d99b1f22609a559369ea00d5184edc11cb0f207bbf47337c8f60406004356107b56120b1565b600154908060015582519182526020820152a1005b346101b65760203660031901126101b6576004355f526003602052602060018060a01b0360405f205416604051908152f35b346101b6575f3660031901126101b6576040517f00000000000000000000000000000000000000000000000000000000000000006001600160a01b03168152602090f35b346101b6575f3660031901126101b6576108586120b1565b5f80546001600160a01b0319811682556001600160a01b03165f5160206121f25f395f51905f528280a3005b346101b65760203660031901126101b6576004355f526004602052602060ff60405f2054166108b66040518092611b30565bf35b346101b65760203660031901126101b6576108d1611b04565b6108d96120b1565b600954904782811115610917575f8080936108f5868395611d45565b905af1610900611d52565b501561090857005b6369a4751b60e01b5f5260045ffd5b637a09b84360e01b5f5260045ffd5b60403660031901126101b6576004356001600160401b0381116101b657610951903690600401611ad7565b610959611b1a565b91335f52600760205260ff60405f2054161580610dd9575b610dca5761097f8282611f4c565b6001600160a01b0383169182156106d35761099b368284611b96565b6020815191012093845f52600360205260018060a01b0360405f205416610dbb57604051828482376020818481016006815203019020549485151580968197610d90575b50610d8157845f5260056020526109f960405f2054611bed565b610d72575f90815260036020908152604080832080546001600160a01b0319168817905560048252808320805460ff1916600117905586835260059091529020946001600160401b038311610d5e57610a528654611bed565b601f8111610d23575b505f95601f8411600114610cb5579161034791600193610a8a8680610aa698999a9b5f91610caa575b50611d33565b90555b610c8e575b6105d6604051938492878960208601611da1565b6040516320487ded60e01b81527f00000000000000000000000000000000000000000000000000000000000000006001600160a01b0316939092917f00000000000000000000000000000000000000000000000000000000000000009060208580610b15848660048401611dd9565b0381895afa948515610400575f95610c5a575b50843410610c4c57610b5495602092866040518099819582946396f4e9f960e01b845260048401611dd9565b03925af1938415610400575f94610c16575b50610b8590833411610ba8575b60405192606084526060840191611d81565b915f5160206121d25f395f51905f529282916001602084015260408301520390a3005b610bb28434611d45565b5f80808084335af1610bc2611d52565b5015610bcf575b50610b73565b335f52600860205260405f20610be6828254611ea4565b9055610bf481600954611ea4565b6009556040519081525f5160206122125f395f51905f5260203392a286610bc9565b9093506020813d602011610c44575b81610c3260209383611b58565b810103126101b6575192610b85610b66565b3d9150610c25565b62976f7560e21b5f5260045ffd5b9094506020813d602011610c86575b81610c7660209383611b58565b810103126101b657519387610b28565b3d9150610c69565b5f60405186888237602081888101600681520301902055610a92565b90508a01358c610a84565b601f198416815f5260205f20905f5b818110610d0b575091610347939186979899610aa6976001979510610cf2575b50508487811b019055610a8d565b8901355f1960038a901b60f8161c191690558980610ce4565b878a013583556020998a019960019093019201610cc4565b610d4e90875f5260205f20601f860160051c81019160208710610d54575b601f0160051c0190611d1d565b86610a5b565b9091508190610d41565b634e487b7160e01b5f52604160045260245ffd5b63a8348fd560e01b5f5260045ffd5b63b93520af60e01b5f5260045ffd5b905062278d008101809111610da7574210876109df565b634e487b7160e01b5f52601160045260245ffd5b639e4b268560e01b5f5260045ffd5b637046c88d60e01b5f5260045ffd5b505f546001600160a01b0316331415610971565b346101b6575f3660031901126101b6576020600154604051908152f35b5f3660031901126101b657335f526005602052610e2960405f20611c25565b8051156111575780516020820190812090815f5260036020523360018060a01b0360405f2054160361114857815f52600460205260ff60405f205416600281101561040b5760011461113957610e89906040519182918551928391611bcc565b8101906006825260208142930301902055805f52600360205260405f2060018060a01b031981541690555f52600460205260405f2060ff198154169055335f52600560205260405f20610edc8154611bed565b90816110f6575b5050610f24604051600160208201526080604082015261034781610f0a60a0820186611cc5565b3360608301525f608083015203601f198101835282611b58565b6040516320487ded60e01b81527f00000000000000000000000000000000000000000000000000000000000000006001600160a01b0316917f00000000000000000000000000000000000000000000000000000000000000009060208380610f90848660048401611dd9565b0381875afa928315610400575f936110c2575b50823410610c4c57610fcf93602092846040518097819582946396f4e9f960e01b845260048401611dd9565b03925af1918215610400575f9261108e575b50803411611028575b507f6495b28681b1949889825b5d79fd8c9d9cd925da87245539fe84f73bb17358c2604051602081528061102333956020830190611cc5565b0390a3005b6110329034611d45565b5f80808084335af1611042611d52565b50610fea57335f52600860205260405f2061105e828254611ea4565b905561106c81600954611ea4565b6009556040519081525f5160206122125f395f51905f5260203392a282610fea565b9091506020813d6020116110ba575b816110aa60209383611b58565b810103126101b657519083610fe1565b3d915061109d565b9092506020813d6020116110ee575b816110de60209383611b58565b810103126101b657519185610fa3565b3d91506110d1565b81601f5f931160011461110d5750555b8180610ee3565b8183526020832061112991601f0160051c810190600101611d1d565b8082528160208120915555611106565b63eafe5d9b60e01b5f5260045ffd5b6330cd747160e01b5f5260045ffd5b632a3673b160e21b5f5260045ffd5b60203660031901126101b6576004356001600160401b0381116101b657611191903690600401611ad7565b906111b56020600154604051809381926321a9204d60e11b83523360048401611d02565b03817f00000000000000000000000000000000000000000000000000000000000000006001600160a01b03165afa908115610400575f916115c9575b50156115ba576112018282611f4c565b33156106d357611212368383611b96565b60208151910120805f52600360205260018060a01b0360405f205416610dbb576040518383823760208185810160068152030190205490811515809281936115a3575b50610d8157335f52600560205261126f60405f2054611bed565b610d72575f90815260036020908152604080832080546001600160a01b0319163390811790915560048352818420805460ff191690558352600590915290206001600160401b038411610d5e576112c68154611bed565b601f8111611573575b505f84601f811160011461151057806112ee925f916115055750611d33565b90555b6114e9575b611310604051610347816105d65f33888860208601611da1565b6040516320487ded60e01b81527f00000000000000000000000000000000000000000000000000000000000000006001600160a01b03169290917f0000000000000000000000000000000000000000000000000000000000000000906020848061137e848660048401611dd9565b0381885afa938415610400575f946114b5575b50833410610c4c576113bd94602092856040518098819582946396f4e9f960e01b845260048401611dd9565b03925af1928315610400575f9361147f575b506113ee90823411611411575b60405194606086526060860191611d81565b925f5160206121d25f395f51905f52915f602083015260408201528033940390a3005b61141b8334611d45565b5f80808084335af161142b611d52565b5015611438575b506113dc565b335f52600860205260405f2061144f828254611ea4565b905561145d81600954611ea4565b6009556040519081525f5160206122125f395f51905f5260203392a285611432565b9092506020813d6020116114ad575b8161149b60209383611b58565b810103126101b65751916113ee6113cf565b3d915061148e565b9093506020813d6020116114e1575b816114d160209383611b58565b810103126101b657519286611391565b3d91506114c4565b5f604051838382376020818581016006815203019020556112f6565b905085013587610a84565b50601f19851690825f528560205f20925f5b81811061155857501061153f575b5050600184811b0190556112f1565b8401355f19600387901b60f8161c191690558480611530565b87840135855560019094019360209384019389935001611522565b61159d90825f5260205f20601f870160051c81019160208810610d5457601f0160051c0190611d1d565b846112cf565b905062278d008101809111610da757421085611255565b6372ffd5bd60e01b5f5260045ffd5b6115eb915060203d6020116115f1575b6115e38183611b58565b810190611cea565b836111f1565b503d6115d9565b346101b65760203660031901126101b6576001600160a01b03611619611b04565b165f526007602052602060ff60405f2054166040519015158152f35b346101b65760403660031901126101b65761164e611b04565b602435908115158092036101b6576116646120b1565b6001600160a01b03169081156106d35760207fad857fa38c9319cb80848f1ef2f924383b90297eb5d71755738ff037d100faa191835f526007825260405f2060ff1981541660ff8316179055604051908152a2005b346101b6575f3660031901126101b6576020600954604051908152f35b346101b65760203660031901126101b6576004356001600160401b0381116101b657611706903690600401611ad7565b91602081806117256001546321a9204d60e11b83523360048401611d02565b03817f00000000000000000000000000000000000000000000000000000000000000006001600160a01b03165afa908115610400575f91611ab8575b50156115ba576117718282611f4c565b33156106d357611782368383611b96565b60208151910120805f52600360205260018060a01b0360405f205416610dbb57604051838382376020818581016006815203019020549081151580928193611aa1575b50610d8157335f5260056020526117df60405f2054611bed565b610d72575f90815260036020908152604080832080546001600160a01b0319163390811790915560048352818420805460ff191690558352600590915290206001600160401b038411610d5e576118368154611bed565b601f8111611a71575b505f84601f8111600114611a0e578061185e925f916115055750611d33565b90555b6119f2575b6040515f60208201526080604082015261188460a082018484611d81565b33606083015290610347816118a7935f608083015203601f198101835282611b58565b6040516320487ded60e01b81527f00000000000000000000000000000000000000000000000000000000000000006001600160a01b03169290917f00000000000000000000000000000000000000000000000000000000000000009060208480611915848660048401611dd9565b0381885afa938415610400575f946119be575b504761193660095486611ea4565b11610c4c5761195f94602092856040518098819582946396f4e9f960e01b845260048401611dd9565b03925af1928315610400575f93611988575b506113ee9060405194606086526060860191611d81565b9092506020813d6020116119b6575b816119a460209383611b58565b810103126101b65751916113ee611971565b3d9150611997565b9093506020813d6020116119ea575b816119da60209383611b58565b810103126101b657519286611928565b3d91506119cd565b5f60405183838237602081858101600681520301902055611866565b50601f19851690825f528560205f20925f5b818110611a56575010611a3d575b5050600184811b019055611861565b8401355f19600387901b60f8161c191690558480611a2e565b87840135855560019094019360209384019389935001611a20565b611a9b90825f5260205f20601f870160051c81019160208810610d5457601f0160051c0190611d1d565b8461183f565b905062278d008101809111610da7574210856117c5565b611ad1915060203d6020116115f1576115e38183611b58565b83611761565b9181601f840112156101b6578235916001600160401b0383116101b657602083818601950101116101b657565b600435906001600160a01b03821682036101b657565b602435906001600160a01b03821682036101b657565b90600282101561040b5752565b60a081019081106001600160401b03821117610d5e57604052565b601f909101601f19168101906001600160401b03821190821017610d5e57604052565b6001600160401b038111610d5e57601f01601f191660200190565b929192611ba282611b7b565b91611bb06040519384611b58565b8294818452818301116101b6578281602093845f960137010152565b5f5b838110611bdd5750505f910152565b8181015183820152602001611bce565b90600182811c92168015611c1b575b6020831014611c0757565b634e487b7160e01b5f52602260045260245ffd5b91607f1691611bfc565b9060405191825f825492611c3884611bed565b8084529360018116908115611ca35750600114611c5f575b50611c5d92500383611b58565b565b90505f9291925260205f20905f915b818310611c87575050906020611c5d928201015f611c50565b6020919350806001915483858901015201910190918492611c6e565b905060209250611c5d94915060ff191682840152151560051b8201015f611c50565b90602091611cde81518092818552858086019101611bcc565b601f01601f1916010190565b908160209103126101b6575180151581036101b65790565b6001600160a01b039091168152602081019190915260400190565b818110611d28575050565b5f8155600101611d1d565b8160011b915f199060031b1c19161790565b91908203918211610da757565b3d15611d7c573d90611d6382611b7b565b91611d716040519384611b58565b82523d5f602084013e565b606090565b908060209392818452848401375f828201840152601f01601f1916010190565b611dc2606092611c5d959796945f8452608060208501526080840191611d81565b6001600160a01b0390961660408201520190611b30565b9092919260018060401b0316815260406020820152611e1d611e07845160a0604085015260e0840190611cc5565b6020850151838203603f19016060850152611cc5565b90604084015191603f19828203016080830152602080845192838152019301905f5b818110611e79575050506080611e76939460018060a01b0360608201511660a084015201519060c0603f1982850301910152611cc5565b90565b825180516001600160a01b031686526020908101518187015260409095019490920191600101611e3f565b91908201809211610da757565b611ebc368383611b96565b602081519101205f52600360205260018060a01b0360405f205416611f215760209082604051938492833781016006815203019020548015159081611f0a575b50611f0657600190565b5f90565b905062278d008101809111610da75742105f611efc565b50505f90565b908151811015611f38570160200190565b634e487b7160e01b5f52603260045260245ffd5b611f57913691611b96565b80516003811080156120a7575b611ff157815115611f385760208201516001600160f81b031916602d60f81b148015612079575b611ff1575f5b818110611f9d57505050565b6001600160f81b0319611fb08285611f27565b5116606160f81b8110158061206b575b801561204e575b8015612041575b15611ff157602d60f81b148061202e575b80612000575b611ff157600101611f91565b63290a831560e01b5f5260045ffd5b5060018101808211610da757602d60f81b906001600160f81b0319906120269086611f27565b511614611fe5565b5060018101808211610da7578211611fdf565b50602d60f81b8114611fce565b50600360fc1b8110801590611fc75750603960f81b811115611fc7565b50603d60f91b811115611fc0565b505f198101818111610da757602d60f81b906001600160f81b03199061209f9085611f27565b511614611f8b565b5060328111611f64565b5f546001600160a01b031633036120c457565b606460405162461bcd60e51b815260206004820152602060248201527f4f776e61626c653a2063616c6c6572206973206e6f7420746865206f776e65726044820152fd5b6060608060405161211881611b3d565b8281528260208201528260408201525f83820152015260018060a01b03600254169060405191602083015260208252612152604083611b58565b6040516020916121628383611b58565b5f8252604051928084016001600160401b03811185821017610d5e576040526207a1208452604051936397a657c960e01b82860152516024850152602484526121ac604485611b58565b604051946121b986611b3d565b855284015260408301525f606083015260808201529056fed62e88b1204b752d9cd6677341d585585fe638eff3c486b417569604b114521f8be0079c531659141344cd1fd0a4f28419497f9722a3daafe3b4186f6b6457e0af73b0b217208b61be286bbc37095bce7eb8b9ccf617244c2f0f154e8e04e3ffa164736f6c634300081c000a","linkReferences":{}},"methodIdentifiers":{"CCIP_ROUTER()":"fe5f42ca","ETHEREUM_CHAIN_SELECTOR()":"9ab4a57c","HATS()":"7150ef88","MAX_SLUG_LENGTH()":"9687dbbd","MIN_SLUG_LENGTH()":"cdb198a0","NAME_CHANGE_COOLDOWN()":"998adc89","authorizedCallers(address)":"536fff6c","available(string)":"aeb8ce9b","claimName(string)":"54c25e4b","claimNameSponsored(string)":"12199b7d","claimRefund()":"b5545a3c","failedRefunds(address)":"e6512c66","getRegistrationFee(string,address,uint8)":"a3f79e81","getReleaseFee(string)":"d12508da","l1Receiver()":"e224884b","owner()":"8da5cb5b","ownerToSlug(address)":"c4955ecf","protocolHatId()":"6130787d","registerGarden(string,address)":"640ebb95","releaseName()":"58cdf6bd","renounceOwnership()":"715018a6","setAuthorizedCaller(address,bool)":"454bbd29","setL1Receiver(address)":"91071bf2","setProtocolHatId(uint256)":"7ba34255","slugNameType(bytes32)":"6d6ebd9c","slugOwner(bytes32)":"7ac064b8","slugReleasedAt(string)":"880ebf6b","totalPendingRefunds()":"2177b1db","transferOwnership(address)":"f2fde38b","withdrawETH(address)":"690d8320"},"id":183}