{"abi":[{"type":"function","name":"createSender","inputs":[{"name":"initCode","type":"bytes","internalType":"bytes"}],"outputs":[{"name":"sender","type":"address","internalType":"address"}],"stateMutability":"nonpayable"}],"bytecode":{"object":"0x60808060405234601557610141908161001a8239f35b5f80fdfe60806040526004361015610011575f80fd5b5f3560e01c63570e1a3614610024575f80fd5b346100995760203660031901126100995767ffffffffffffffff60043581811161009957366023820112156100995780600401359182116100995736602483830101116100995761009591602461007b92016100b1565b6040516001600160a01b0390911681529081906020820190565b0390f35b5f80fd5b634e487b7160e01b5f52604160045260245ffd5b90806014116100995767ffffffffffffffff91601319820183811161012f5760405193600b8401601f19908116603f011685019081118582101761012f5760405280845260208401903684840111610099576020945f600c819682946014880187378301015251923560601c5af1905f51911561012a57565b5f9150565b61009d56fea164736f6c6343000819000a","linkReferences":{}},"methodIdentifiers":{"createSender(bytes)":"570e1a36"},"id":9}