{
  "abi": [
    {
      "type": "constructor",
      "inputs": [
        {
          "name": "erc4337EntryPoint",
          "type": "address",
          "internalType": "address"
        },
        {
          "name": "multicallForwarder",
          "type": "address",
          "internalType": "address"
        },
        {
          "name": "erc6551Registry",
          "type": "address",
          "internalType": "address"
        },
        {
          "name": "guardian",
          "type": "address",
          "internalType": "address"
        }
      ],
      "stateMutability": "nonpayable"
    },
    {
      "type": "fallback",
      "stateMutability": "payable"
    },
    {
      "type": "receive",
      "stateMutability": "payable"
    },
    {
      "type": "function",
      "name": "addGardenOperator",
      "inputs": [
        {
          "name": "operator",
          "type": "address",
          "internalType": "address"
        }
      ],
      "outputs": [],
      "stateMutability": "nonpayable"
    },
    {
      "type": "function",
      "name": "addGardener",
      "inputs": [
        {
          "name": "gardener",
          "type": "address",
          "internalType": "address"
        }
      ],
      "outputs": [],
      "stateMutability": "nonpayable"
    },
    {
      "type": "function",
      "name": "bannerImage",
      "inputs": [],
      "outputs": [
        {
          "name": "",
          "type": "string",
          "internalType": "string"
        }
      ],
      "stateMutability": "view"
    },
    {
      "type": "function",
      "name": "communityToken",
      "inputs": [],
      "outputs": [
        {
          "name": "",
          "type": "address",
          "internalType": "address"
        }
      ],
      "stateMutability": "view"
    },
    {
      "type": "function",
      "name": "description",
      "inputs": [],
      "outputs": [
        {
          "name": "",
          "type": "string",
          "internalType": "string"
        }
      ],
      "stateMutability": "view"
    },
    {
      "type": "function",
      "name": "entryPoint",
      "inputs": [],
      "outputs": [
        {
          "name": "",
          "type": "address",
          "internalType": "contract IEntryPoint"
        }
      ],
      "stateMutability": "view"
    },
    {
      "type": "function",
      "name": "erc6551Registry",
      "inputs": [],
      "outputs": [
        {
          "name": "",
          "type": "address",
          "internalType": "address"
        }
      ],
      "stateMutability": "view"
    },
    {
      "type": "function",
      "name": "execute",
      "inputs": [
        {
          "name": "to",
          "type": "address",
          "internalType": "address"
        },
        {
          "name": "value",
          "type": "uint256",
          "internalType": "uint256"
        },
        {
          "name": "data",
          "type": "bytes",
          "internalType": "bytes"
        },
        {
          "name": "operation",
          "type": "uint8",
          "internalType": "uint8"
        }
      ],
      "outputs": [
        {
          "name": "",
          "type": "bytes",
          "internalType": "bytes"
        }
      ],
      "stateMutability": "payable"
    },
    {
      "type": "function",
      "name": "executeBatch",
      "inputs": [
        {
          "name": "operations",
          "type": "tuple[]",
          "internalType": "struct BatchExecutor.Operation[]",
          "components": [
            {
              "name": "to",
              "type": "address",
              "internalType": "address"
            },
            {
              "name": "value",
              "type": "uint256",
              "internalType": "uint256"
            },
            {
              "name": "data",
              "type": "bytes",
              "internalType": "bytes"
            },
            {
              "name": "operation",
              "type": "uint8",
              "internalType": "uint8"
            }
          ]
        }
      ],
      "outputs": [
        {
          "name": "",
          "type": "bytes[]",
          "internalType": "bytes[]"
        }
      ],
      "stateMutability": "payable"
    },
    {
      "type": "function",
      "name": "executeNested",
      "inputs": [
        {
          "name": "to",
          "type": "address",
          "internalType": "address"
        },
        {
          "name": "value",
          "type": "uint256",
          "internalType": "uint256"
        },
        {
          "name": "data",
          "type": "bytes",
          "internalType": "bytes"
        },
        {
          "name": "operation",
          "type": "uint8",
          "internalType": "uint8"
        },
        {
          "name": "proof",
          "type": "tuple[]",
          "internalType": "struct NestedAccountExecutor.ERC6551AccountInfo[]",
          "components": [
            {
              "name": "salt",
              "type": "bytes32",
              "internalType": "bytes32"
            },
            {
              "name": "tokenContract",
              "type": "address",
              "internalType": "address"
            },
            {
              "name": "tokenId",
              "type": "uint256",
              "internalType": "uint256"
            }
          ]
        }
      ],
      "outputs": [
        {
          "name": "",
          "type": "bytes",
          "internalType": "bytes"
        }
      ],
      "stateMutability": "payable"
    },
    {
      "type": "function",
      "name": "extcall",
      "inputs": [
        {
          "name": "to",
          "type": "address",
          "internalType": "address"
        },
        {
          "name": "value",
          "type": "uint256",
          "internalType": "uint256"
        },
        {
          "name": "data",
          "type": "bytes",
          "internalType": "bytes"
        }
      ],
      "outputs": [
        {
          "name": "result",
          "type": "bytes",
          "internalType": "bytes"
        }
      ],
      "stateMutability": "nonpayable"
    },
    {
      "type": "function",
      "name": "extcreate",
      "inputs": [
        {
          "name": "value",
          "type": "uint256",
          "internalType": "uint256"
        },
        {
          "name": "bytecode",
          "type": "bytes",
          "internalType": "bytes"
        }
      ],
      "outputs": [
        {
          "name": "",
          "type": "address",
          "internalType": "address"
        }
      ],
      "stateMutability": "nonpayable"
    },
    {
      "type": "function",
      "name": "extcreate2",
      "inputs": [
        {
          "name": "value",
          "type": "uint256",
          "internalType": "uint256"
        },
        {
          "name": "salt",
          "type": "bytes32",
          "internalType": "bytes32"
        },
        {
          "name": "bytecode",
          "type": "bytes",
          "internalType": "bytes"
        }
      ],
      "outputs": [
        {
          "name": "",
          "type": "address",
          "internalType": "address"
        }
      ],
      "stateMutability": "nonpayable"
    },
    {
      "type": "function",
      "name": "extsload",
      "inputs": [
        {
          "name": "slot",
          "type": "bytes32",
          "internalType": "bytes32"
        }
      ],
      "outputs": [
        {
          "name": "value",
          "type": "bytes32",
          "internalType": "bytes32"
        }
      ],
      "stateMutability": "view"
    },
    {
      "type": "function",
      "name": "gardenOperators",
      "inputs": [
        {
          "name": "operator",
          "type": "address",
          "internalType": "address"
        }
      ],
      "outputs": [
        {
          "name": "isOperator",
          "type": "bool",
          "internalType": "bool"
        }
      ],
      "stateMutability": "view"
    },
    {
      "type": "function",
      "name": "gardeners",
      "inputs": [
        {
          "name": "gardener",
          "type": "address",
          "internalType": "address"
        }
      ],
      "outputs": [
        {
          "name": "isGardener",
          "type": "bool",
          "internalType": "bool"
        }
      ],
      "stateMutability": "view"
    },
    {
      "type": "function",
      "name": "getNonce",
      "inputs": [],
      "outputs": [
        {
          "name": "",
          "type": "uint256",
          "internalType": "uint256"
        }
      ],
      "stateMutability": "view"
    },
    {
      "type": "function",
      "name": "initialize",
      "inputs": [
        {
          "name": "_communityToken",
          "type": "address",
          "internalType": "address"
        },
        {
          "name": "_name",
          "type": "string",
          "internalType": "string"
        },
        {
          "name": "_description",
          "type": "string",
          "internalType": "string"
        },
        {
          "name": "_location",
          "type": "string",
          "internalType": "string"
        },
        {
          "name": "_bannerImage",
          "type": "string",
          "internalType": "string"
        },
        {
          "name": "_gardeners",
          "type": "address[]",
          "internalType": "address[]"
        },
        {
          "name": "_gardenOperators",
          "type": "address[]",
          "internalType": "address[]"
        }
      ],
      "outputs": [],
      "stateMutability": "nonpayable"
    },
    {
      "type": "function",
      "name": "isLocked",
      "inputs": [],
      "outputs": [
        {
          "name": "",
          "type": "bool",
          "internalType": "bool"
        }
      ],
      "stateMutability": "view"
    },
    {
      "type": "function",
      "name": "isTrustedForwarder",
      "inputs": [
        {
          "name": "forwarder",
          "type": "address",
          "internalType": "address"
        }
      ],
      "outputs": [
        {
          "name": "",
          "type": "bool",
          "internalType": "bool"
        }
      ],
      "stateMutability": "view"
    },
    {
      "type": "function",
      "name": "isValidSignature",
      "inputs": [
        {
          "name": "hash",
          "type": "bytes32",
          "internalType": "bytes32"
        },
        {
          "name": "signature",
          "type": "bytes",
          "internalType": "bytes"
        }
      ],
      "outputs": [
        {
          "name": "magicValue",
          "type": "bytes4",
          "internalType": "bytes4"
        }
      ],
      "stateMutability": "view"
    },
    {
      "type": "function",
      "name": "isValidSigner",
      "inputs": [
        {
          "name": "signer",
          "type": "address",
          "internalType": "address"
        },
        {
          "name": "data",
          "type": "bytes",
          "internalType": "bytes"
        }
      ],
      "outputs": [
        {
          "name": "magicValue",
          "type": "bytes4",
          "internalType": "bytes4"
        }
      ],
      "stateMutability": "view"
    },
    {
      "type": "function",
      "name": "location",
      "inputs": [],
      "outputs": [
        {
          "name": "",
          "type": "string",
          "internalType": "string"
        }
      ],
      "stateMutability": "view"
    },
    {
      "type": "function",
      "name": "lock",
      "inputs": [
        {
          "name": "_lockedUntil",
          "type": "uint256",
          "internalType": "uint256"
        }
      ],
      "outputs": [],
      "stateMutability": "nonpayable"
    },
    {
      "type": "function",
      "name": "lockedUntil",
      "inputs": [],
      "outputs": [
        {
          "name": "",
          "type": "uint256",
          "internalType": "uint256"
        }
      ],
      "stateMutability": "view"
    },
    {
      "type": "function",
      "name": "name",
      "inputs": [],
      "outputs": [
        {
          "name": "",
          "type": "string",
          "internalType": "string"
        }
      ],
      "stateMutability": "view"
    },
    {
      "type": "function",
      "name": "onERC1155BatchReceived",
      "inputs": [
        {
          "name": "",
          "type": "address",
          "internalType": "address"
        },
        {
          "name": "",
          "type": "address",
          "internalType": "address"
        },
        {
          "name": "",
          "type": "uint256[]",
          "internalType": "uint256[]"
        },
        {
          "name": "",
          "type": "uint256[]",
          "internalType": "uint256[]"
        },
        {
          "name": "",
          "type": "bytes",
          "internalType": "bytes"
        }
      ],
      "outputs": [
        {
          "name": "",
          "type": "bytes4",
          "internalType": "bytes4"
        }
      ],
      "stateMutability": "nonpayable"
    },
    {
      "type": "function",
      "name": "onERC1155Received",
      "inputs": [
        {
          "name": "",
          "type": "address",
          "internalType": "address"
        },
        {
          "name": "",
          "type": "address",
          "internalType": "address"
        },
        {
          "name": "",
          "type": "uint256",
          "internalType": "uint256"
        },
        {
          "name": "",
          "type": "uint256",
          "internalType": "uint256"
        },
        {
          "name": "",
          "type": "bytes",
          "internalType": "bytes"
        }
      ],
      "outputs": [
        {
          "name": "",
          "type": "bytes4",
          "internalType": "bytes4"
        }
      ],
      "stateMutability": "nonpayable"
    },
    {
      "type": "function",
      "name": "onERC721Received",
      "inputs": [
        {
          "name": "",
          "type": "address",
          "internalType": "address"
        },
        {
          "name": "",
          "type": "address",
          "internalType": "address"
        },
        {
          "name": "tokenId",
          "type": "uint256",
          "internalType": "uint256"
        },
        {
          "name": "",
          "type": "bytes",
          "internalType": "bytes"
        }
      ],
      "outputs": [
        {
          "name": "",
          "type": "bytes4",
          "internalType": "bytes4"
        }
      ],
      "stateMutability": "nonpayable"
    },
    {
      "type": "function",
      "name": "overrides",
      "inputs": [
        {
          "name": "",
          "type": "address",
          "internalType": "address"
        },
        {
          "name": "",
          "type": "bytes4",
          "internalType": "bytes4"
        }
      ],
      "outputs": [
        {
          "name": "",
          "type": "address",
          "internalType": "address"
        }
      ],
      "stateMutability": "view"
    },
    {
      "type": "function",
      "name": "owner",
      "inputs": [],
      "outputs": [
        {
          "name": "",
          "type": "address",
          "internalType": "address"
        }
      ],
      "stateMutability": "view"
    },
    {
      "type": "function",
      "name": "permissions",
      "inputs": [
        {
          "name": "",
          "type": "address",
          "internalType": "address"
        },
        {
          "name": "",
          "type": "address",
          "internalType": "address"
        }
      ],
      "outputs": [
        {
          "name": "",
          "type": "bool",
          "internalType": "bool"
        }
      ],
      "stateMutability": "view"
    },
    {
      "type": "function",
      "name": "proxiableUUID",
      "inputs": [],
      "outputs": [
        {
          "name": "",
          "type": "bytes32",
          "internalType": "bytes32"
        }
      ],
      "stateMutability": "view"
    },
    {
      "type": "function",
      "name": "removeGardenOperator",
      "inputs": [
        {
          "name": "operator",
          "type": "address",
          "internalType": "address"
        }
      ],
      "outputs": [],
      "stateMutability": "nonpayable"
    },
    {
      "type": "function",
      "name": "removeGardener",
      "inputs": [
        {
          "name": "gardener",
          "type": "address",
          "internalType": "address"
        }
      ],
      "outputs": [],
      "stateMutability": "nonpayable"
    },
    {
      "type": "function",
      "name": "setOverrides",
      "inputs": [
        {
          "name": "selectors",
          "type": "bytes4[]",
          "internalType": "bytes4[]"
        },
        {
          "name": "implementations",
          "type": "address[]",
          "internalType": "address[]"
        }
      ],
      "outputs": [],
      "stateMutability": "nonpayable"
    },
    {
      "type": "function",
      "name": "setPermissions",
      "inputs": [
        {
          "name": "callers",
          "type": "address[]",
          "internalType": "address[]"
        },
        {
          "name": "_permissions",
          "type": "bool[]",
          "internalType": "bool[]"
        }
      ],
      "outputs": [],
      "stateMutability": "nonpayable"
    },
    {
      "type": "function",
      "name": "state",
      "inputs": [],
      "outputs": [
        {
          "name": "",
          "type": "uint256",
          "internalType": "uint256"
        }
      ],
      "stateMutability": "view"
    },
    {
      "type": "function",
      "name": "supportsInterface",
      "inputs": [
        {
          "name": "interfaceId",
          "type": "bytes4",
          "internalType": "bytes4"
        }
      ],
      "outputs": [
        {
          "name": "",
          "type": "bool",
          "internalType": "bool"
        }
      ],
      "stateMutability": "view"
    },
    {
      "type": "function",
      "name": "token",
      "inputs": [],
      "outputs": [
        {
          "name": "chainId",
          "type": "uint256",
          "internalType": "uint256"
        },
        {
          "name": "tokenContract",
          "type": "address",
          "internalType": "address"
        },
        {
          "name": "tokenId",
          "type": "uint256",
          "internalType": "uint256"
        }
      ],
      "stateMutability": "view"
    },
    {
      "type": "function",
      "name": "updateDescription",
      "inputs": [
        {
          "name": "_description",
          "type": "string",
          "internalType": "string"
        }
      ],
      "outputs": [],
      "stateMutability": "nonpayable"
    },
    {
      "type": "function",
      "name": "updateName",
      "inputs": [
        {
          "name": "_name",
          "type": "string",
          "internalType": "string"
        }
      ],
      "outputs": [],
      "stateMutability": "nonpayable"
    },
    {
      "type": "function",
      "name": "upgradeTo",
      "inputs": [
        {
          "name": "newImplementation",
          "type": "address",
          "internalType": "address"
        }
      ],
      "outputs": [],
      "stateMutability": "nonpayable"
    },
    {
      "type": "function",
      "name": "upgradeToAndCall",
      "inputs": [
        {
          "name": "newImplementation",
          "type": "address",
          "internalType": "address"
        },
        {
          "name": "data",
          "type": "bytes",
          "internalType": "bytes"
        }
      ],
      "outputs": [],
      "stateMutability": "payable"
    },
    {
      "type": "function",
      "name": "validateUserOp",
      "inputs": [
        {
          "name": "userOp",
          "type": "tuple",
          "internalType": "struct UserOperation",
          "components": [
            {
              "name": "sender",
              "type": "address",
              "internalType": "address"
            },
            {
              "name": "nonce",
              "type": "uint256",
              "internalType": "uint256"
            },
            {
              "name": "initCode",
              "type": "bytes",
              "internalType": "bytes"
            },
            {
              "name": "callData",
              "type": "bytes",
              "internalType": "bytes"
            },
            {
              "name": "callGasLimit",
              "type": "uint256",
              "internalType": "uint256"
            },
            {
              "name": "verificationGasLimit",
              "type": "uint256",
              "internalType": "uint256"
            },
            {
              "name": "preVerificationGas",
              "type": "uint256",
              "internalType": "uint256"
            },
            {
              "name": "maxFeePerGas",
              "type": "uint256",
              "internalType": "uint256"
            },
            {
              "name": "maxPriorityFeePerGas",
              "type": "uint256",
              "internalType": "uint256"
            },
            {
              "name": "paymasterAndData",
              "type": "bytes",
              "internalType": "bytes"
            },
            {
              "name": "signature",
              "type": "bytes",
              "internalType": "bytes"
            }
          ]
        },
        {
          "name": "userOpHash",
          "type": "bytes32",
          "internalType": "bytes32"
        },
        {
          "name": "missingAccountFunds",
          "type": "uint256",
          "internalType": "uint256"
        }
      ],
      "outputs": [
        {
          "name": "validationData",
          "type": "uint256",
          "internalType": "uint256"
        }
      ],
      "stateMutability": "nonpayable"
    },
    {
      "type": "event",
      "name": "AdminChanged",
      "inputs": [
        {
          "name": "previousAdmin",
          "type": "address",
          "indexed": false,
          "internalType": "address"
        },
        {
          "name": "newAdmin",
          "type": "address",
          "indexed": false,
          "internalType": "address"
        }
      ],
      "anonymous": false
    },
    {
      "type": "event",
      "name": "BeaconUpgraded",
      "inputs": [
        {
          "name": "beacon",
          "type": "address",
          "indexed": true,
          "internalType": "address"
        }
      ],
      "anonymous": false
    },
    {
      "type": "event",
      "name": "DescriptionUpdated",
      "inputs": [
        {
          "name": "updater",
          "type": "address",
          "indexed": true,
          "internalType": "address"
        },
        {
          "name": "newDescription",
          "type": "string",
          "indexed": false,
          "internalType": "string"
        }
      ],
      "anonymous": false
    },
    {
      "type": "event",
      "name": "GardenOperatorAdded",
      "inputs": [
        {
          "name": "updater",
          "type": "address",
          "indexed": true,
          "internalType": "address"
        },
        {
          "name": "operator",
          "type": "address",
          "indexed": true,
          "internalType": "address"
        }
      ],
      "anonymous": false
    },
    {
      "type": "event",
      "name": "GardenOperatorRemoved",
      "inputs": [
        {
          "name": "updater",
          "type": "address",
          "indexed": true,
          "internalType": "address"
        },
        {
          "name": "operator",
          "type": "address",
          "indexed": true,
          "internalType": "address"
        }
      ],
      "anonymous": false
    },
    {
      "type": "event",
      "name": "GardenerAdded",
      "inputs": [
        {
          "name": "updater",
          "type": "address",
          "indexed": true,
          "internalType": "address"
        },
        {
          "name": "gardener",
          "type": "address",
          "indexed": true,
          "internalType": "address"
        }
      ],
      "anonymous": false
    },
    {
      "type": "event",
      "name": "GardenerRemoved",
      "inputs": [
        {
          "name": "updater",
          "type": "address",
          "indexed": true,
          "internalType": "address"
        },
        {
          "name": "gardener",
          "type": "address",
          "indexed": true,
          "internalType": "address"
        }
      ],
      "anonymous": false
    },
    {
      "type": "event",
      "name": "Initialized",
      "inputs": [
        {
          "name": "version",
          "type": "uint8",
          "indexed": false,
          "internalType": "uint8"
        }
      ],
      "anonymous": false
    },
    {
      "type": "event",
      "name": "LockUpdated",
      "inputs": [
        {
          "name": "lockedUntil",
          "type": "uint256",
          "indexed": false,
          "internalType": "uint256"
        }
      ],
      "anonymous": false
    },
    {
      "type": "event",
      "name": "NameUpdated",
      "inputs": [
        {
          "name": "updater",
          "type": "address",
          "indexed": true,
          "internalType": "address"
        },
        {
          "name": "newName",
          "type": "string",
          "indexed": false,
          "internalType": "string"
        }
      ],
      "anonymous": false
    },
    {
      "type": "event",
      "name": "OverrideUpdated",
      "inputs": [
        {
          "name": "owner",
          "type": "address",
          "indexed": false,
          "internalType": "address"
        },
        {
          "name": "selector",
          "type": "bytes4",
          "indexed": false,
          "internalType": "bytes4"
        },
        {
          "name": "implementation",
          "type": "address",
          "indexed": false,
          "internalType": "address"
        }
      ],
      "anonymous": false
    },
    {
      "type": "event",
      "name": "PermissionUpdated",
      "inputs": [
        {
          "name": "owner",
          "type": "address",
          "indexed": false,
          "internalType": "address"
        },
        {
          "name": "caller",
          "type": "address",
          "indexed": false,
          "internalType": "address"
        },
        {
          "name": "hasPermission",
          "type": "bool",
          "indexed": false,
          "internalType": "bool"
        }
      ],
      "anonymous": false
    },
    {
      "type": "event",
      "name": "Upgraded",
      "inputs": [
        {
          "name": "implementation",
          "type": "address",
          "indexed": true,
          "internalType": "address"
        }
      ],
      "anonymous": false
    },
    {
      "type": "error",
      "name": "AccountLocked",
      "inputs": []
    },
    {
      "type": "error",
      "name": "ContractCreationFailed",
      "inputs": []
    },
    {
      "type": "error",
      "name": "ExceedsMaxLockTime",
      "inputs": []
    },
    {
      "type": "error",
      "name": "InvalidAccountProof",
      "inputs": []
    },
    {
      "type": "error",
      "name": "InvalidERC6551Registry",
      "inputs": []
    },
    {
      "type": "error",
      "name": "InvalidEntryPoint",
      "inputs": []
    },
    {
      "type": "error",
      "name": "InvalidImplementation",
      "inputs": []
    },
    {
      "type": "error",
      "name": "InvalidInput",
      "inputs": []
    },
    {
      "type": "error",
      "name": "InvalidMulticallForwarder",
      "inputs": []
    },
    {
      "type": "error",
      "name": "InvalidOperation",
      "inputs": []
    },
    {
      "type": "error",
      "name": "NotAuthorized",
      "inputs": []
    },
    {
      "type": "error",
      "name": "NotGardenOperator",
      "inputs": []
    },
    {
      "type": "error",
      "name": "NotGardenOwner",
      "inputs": []
    },
    {
      "type": "error",
      "name": "OwnershipCycle",
      "inputs": []
    }
  ],
  "bytecode": {
    "object": "0x6101403461016b57601f61483638819003918201601f1916830191906001600160401b0383118484101761016f57816080928592604095865283398101031261016b5761004b82610183565b61005760208401610183565b61006e6060610067858701610183565b9501610183565b936001600160a01b03928316801561015a576080523060a0528281161561014a5760c05260e0819052811615610139576101009216825261012090308252519061469e92836101988439608051838181610da801528181611b2601528181611d5701526137d6015260a0518381816125690152613f51015260c05183818161057a0152818161258a0152613f73015260e05183818161150c0152818161412d015261459301525182818161390d0152613ba1015251818181610bc80152818161111801526114220152f35b815163754c753360e11b8152600490fd5b83516246a29560e81b8152600490fd5b8451632039d3c960e01b8152600490fd5b5f80fd5b634e487b7160e01b5f52604160045260245ffd5b51906001600160a01b038216820361016b5756fe60806040526004361015610026575b361561001e5761001c613494565b005b61001c613494565b5f3560e01c806301ffc9a7146102f5578063039721b1146102f0578063056d5afe146102eb57806306fdde03146102e6578063150b7a02146102e15780631626ba7e146102dc5780631e2eaeaf146102d75780631f6e45e3146102d25780631f9838b5146102cd5780631fb1ecf0146102c857806329aa1617146102c357806334715fb1146102be5780633659cfe6146102b95780633a871cdd146102b457806343629a73146102af57806345a24e3e146102aa57806347f5fddd146102a55780634f1ef286146102a0578063516f279e1461029b5780635194544714610296578063523e32601461029157806352d1902d1461028c578063572b6c05146102875780637284e416146102825780637597bc7c1461027d5780637a8f73561461027857806384da92a7146102735780638da5cb5b1461026e57806394def29d14610269578063a4e2d63414610264578063adbce85e1461025f578063b0d691fe1461025a578063b709467c14610255578063bc197c8114610250578063c19d93fb1461024b578063ce0617ec14610246578063d087d28814610241578063dd4670641461023c578063e735b48a14610237578063eaff6dc914610232578063ee9c60541461022d578063eeb9705714610228578063eed9df7414610223578063f23a6e611461021e5763fc0c546a0361000e57612262565b6121e8565b612164565b6120e3565b612067565b611fb9565b611e80565b611dca565b611d05565b611ce9565b611ccc565b611c13565b611b4a565b611b07565b611a7e565b611a60565b6119bb565b61199e565b6117f4565b611619565b6115d8565b611533565b6114dd565b611408565b6113bf565b61133a565b611295565b6110d3565b61100e565b610fbe565b610ed7565b610d69565b610b9f565b610b44565b610b1b565b610a8d565b610a1c565b6109db565b6109bc565b610953565b610843565b6106d6565b61055b565b6103d5565b610328565b7fffffffff0000000000000000000000000000000000000000000000000000000081160361032457565b5f80fd5b3461032457602060031936011261032457602061034f60043561034a816102fa565b61229a565b6040519015158152f35b9181601f840112156103245782359167ffffffffffffffff8311610324576020808501948460051b01011161032457565b60406003198201126103245767ffffffffffffffff9160043583811161032457826103b791600401610359565b93909392602435918211610324576103d191600401610359565b9091565b34610324576103e33661038a565b92906103fe6103f96103f36133bd565b91613e9d565b613f4e565b6001600160a01b03811680156105315733036105315761041c61341b565b838503610507575f5b84811061042e57005b8061049f6104476104426001948a88612453565b612472565b61048d610465866001600160a01b03165f52600260205260405f2090565b610478610473868c8c612453565b61247c565b6001600160a01b03165f5260205260405f2090565b9060ff60ff1983541691151516179055565b7f394777a58092892d136a90c4bb7e4350c72ac50fba6a0208128677f36527dcf56104ce610473838989612453565b6104dc610442848b89612453565b604080516001600160a01b03888116825293909316602084015290151590820152606090a101610425565b60046040517fb4fa3fb3000000000000000000000000000000000000000000000000000000008152fd5b60046040517fea8e4eb5000000000000000000000000000000000000000000000000000000008152fd5b34610324575f6003193601126103245760206040516001600160a01b037f0000000000000000000000000000000000000000000000000000000000000000168152f35b90600182811c921680156105e5575b60208310146105b857565b7f4e487b71000000000000000000000000000000000000000000000000000000005f52602260045260245ffd5b91607f16916105ad565b7f4e487b71000000000000000000000000000000000000000000000000000000005f52604160045260245ffd5b6020810190811067ffffffffffffffff82111761063857604052565b6105ef565b6060810190811067ffffffffffffffff82111761063857604052565b90601f601f19910116810190811067ffffffffffffffff82111761063857604052565b5f5b83811061068d5750505f910152565b818101518382015260200161067e565b90601f19601f6020936106bb8151809281875287808801910161067c565b0116010190565b9060206106d392818152019061069d565b90565b34610324575f600319360112610324576040515f6005546106f68161059e565b8084529060209060019081811690811561078c5750600114610733575b61072f8561072381870382610659565b604051918291826106c2565b0390f35b60055f90815293507f036b6384b5eca791c62761152d0c79bb0604c104a5fb6f4eb0703f3154bb3db05b838510610779575050505081016020016107238261072f610713565b805486860184015293820193810161075d565b86955061072f9693506020925061072394915060ff191682840152151560051b8201019293610713565b6001600160a01b0381160361032457565b600435906107d4826107b6565b565b67ffffffffffffffff811161063857601f01601f191660200190565b9291926107fe826107d6565b9161080c6040519384610659565b829481845281830111610324578281602093845f960137010152565b9080601f83011215610324578160206106d3933591016107f2565b346103245760806003193601126103245761085f6004356107b6565b61086a6024356107b6565b60643567ffffffffffffffff81116103245761088a903690600401610828565b506001600160a01b0361089b6133bd565b921633149182610919575b508161090f575b506108e5576108ba613494565b6040517f150b7a02000000000000000000000000000000000000000000000000000000008152602090f35b60046040517fb79e3f3f000000000000000000000000000000000000000000000000000000008152fd5b905046145f6108ad565b6044351491505f6108a6565b9181601f840112156103245782359167ffffffffffffffff8311610324576020838186019501011161032457565b346103245760406003193601126103245760243567ffffffffffffffff8111610324576109926109896020923690600401610925565b90600435612486565b7fffffffff0000000000000000000000000000000000000000000000000000000060405191168152f35b3461032457602060031936011261032457602060043554604051908152f35b34610324576020600319360112610324576001600160a01b03600435610a00816107b6565b165f526009602052602060ff60405f2054166040519015158152f35b3461032457604060031936011261032457602060ff610a76600435610a40816107b6565b6001600160a01b0360243591610a55836107b6565b165f526002845260405f20906001600160a01b03165f5260205260405f2090565b54166040519015158152f35b60ff81160361032457565b60a060031936011261032457600435610aa5816107b6565b67ffffffffffffffff60443581811161032457610ac6903690600401610925565b919092606435610ad581610a82565b6084359383851161032457366023860112156103245784600401359384116103245736602460608602870101116103245761072f95602461072396019360243590612502565b34610324575f6003193601126103245760206001600160a01b0360045460101c16604051908152f35b346103245760606003193601126103245760443567ffffffffffffffff811161032457610b8e610b7a6020923690600401610925565b90610b83613aeb565b602435600435613b05565b6001600160a01b0360405191168152f35b3461032457602060031936011261032457600435610bbc816107b6565b6001600160a01b0390817f00000000000000000000000000000000000000000000000000000000000000001691610bf58330141561275c565b610c247f360894a13ba1a3210667c828492db98dca3e2076cc3735a920a3ca505d382bbc9382855416146127cd565b610c2d82613b57565b60405190610c3a8261061c565b5f82527f4910fdfa16fed3260ed0e7147f7cc6da11a60208b5b9406d12a635614ffd91435460ff1615610c7357505061001c91506142b4565b6020600491604094939451928380927f52d1902d00000000000000000000000000000000000000000000000000000000825286165afa5f9181610d38575b50610d255760405162461bcd60e51b815260206004820152602e60248201527f45524331393637557067726164653a206e657720696d706c656d656e7461746960448201527f6f6e206973206e6f7420555550530000000000000000000000000000000000006064820152608490fd5b0390fd5b61001c93610d339114613c43565b614263565b610d5b91925060203d602011610d62575b610d538183610659565b810190613c34565b905f610cb1565b503d610d49565b3461032457600319606081360112610324576004359067ffffffffffffffff821161032457610160908236030112610324576044356001600160a01b037f0000000000000000000000000000000000000000000000000000000000000000163303610e1257610de161072f9260243590600401613cb4565b9080610df9575b506040519081529081906020820190565b5f80808093335f19f150610e0b61338e565b505f610de8565b606460405162461bcd60e51b815260206004820152601c60248201527f6163636f756e743a206e6f742066726f6d20456e747279506f696e74000000006044820152fd5b6020808201906020835283518092526040830192602060408460051b8301019501935f915b848310610e8b5750505050505090565b9091929394958480610ec7837fffffffffffffffffffffffffffffffffffffffffffffffffffffffffffffffc086600196030187528a5161069d565b9801930193019194939290610e7b565b6020806003193601126103245760043567ffffffffffffffff811161032457610f04903690600401610359565b91610f1c610f18610f13614123565b6137c8565b1590565b61053157610f2861341b565b610f318361287b565b925f5b818110610f49576040518061072f8782610e56565b80610fa2610f5d61047360019486896128c3565b848787610f6b8684846128c3565b0135610f9c6060610f9688610f8e610f848289896128c3565b6040810190612903565b9790966128c3565b01612954565b936139b1565b610fac828861295e565b52610fb7818761295e565b5001610f34565b346103245760406003193601126103245760243567ffffffffffffffff811161032457610b8e611006610ff76020933690600401610925565b610fff613aeb565b36916107f2565b600435613d04565b346103245760e0600319360112610324576110276107c7565b6024359067ffffffffffffffff908183116103245761104b60049336908501610925565b9092604435818111610324576110649036908701610925565b906064358381116103245761107c9036908901610925565b90608435858111610324576110949036908b01610925565b94909360a435878111610324576110ae9036908d01610359565b98909760c4359081116103245761001c9c6110cb91369101610359565b9b909a612972565b6040600319360112610324576004356110eb816107b6565b60243567ffffffffffffffff81116103245761110b903690600401610828565b906001600160a01b0391827f000000000000000000000000000000000000000000000000000000000000000016926111458430141561275c565b6111747f360894a13ba1a3210667c828492db98dca3e2076cc3735a920a3ca505d382bbc9482865416146127cd565b61117d83613b57565b7f4910fdfa16fed3260ed0e7147f7cc6da11a60208b5b9406d12a635614ffd91435460ff16156111b357505061001c91506142b4565b6020600491604094939451928380927f52d1902d00000000000000000000000000000000000000000000000000000000825286165afa5f9181611274575b506112615760405162461bcd60e51b815260206004820152602e60248201527f45524331393637557067726164653a206e657720696d706c656d656e7461746960448201527f6f6e206973206e6f7420555550530000000000000000000000000000000000006064820152608490fd5b61001c9361126f9114613c43565b614193565b61128e91925060203d602011610d6257610d538183610659565b905f6111f1565b34610324575f600319360112610324576040515f6007546112b58161059e565b8084529060209060019081811690811561078c57506001146112e15761072f8561072381870382610659565b60075f90815293507fa66cc928b5edb82af9bd49922954155ab7b0942694bea4ce44661d9a8736c6885b838510611327575050505081016020016107238261072f610713565b805486860184015293820193810161130b565b608060031936011261032457600435611352816107b6565b60443567ffffffffffffffff811161032457611372903690600401610925565b6064929192359061138282610a82565b61138d610f13614123565b156105315761072f936113ab936113a261341b565b602435906139b1565b60405191829160208352602083019061069d565b34610324576040600319360112610324576004356113dc816107b6565b60243567ffffffffffffffff811161032457602091611402610992923690600401610925565b916132c7565b34610324575f600319360112610324576001600160a01b037f0000000000000000000000000000000000000000000000000000000000000000163003611473576040517f360894a13ba1a3210667c828492db98dca3e2076cc3735a920a3ca505d382bbc8152602090f35b608460405162461bcd60e51b815260206004820152603860248201527f555550535570677261646561626c653a206d757374206e6f742062652063616c60448201527f6c6564207468726f7567682064656c656761746563616c6c00000000000000006064820152fd5b346103245760206003193601126103245760206004356114fc816107b6565b6001600160a01b039060405191807f0000000000000000000000000000000000000000000000000000000000000000169116148152f35b34610324575f600319360112610324576040515f6006546115538161059e565b8084529060209060019081811690811561078c575060011461157f5761072f8561072381870382610659565b60065f90815293507ff652222313e28459528d920b65115c16c04f3efc82aaedc97be59f3f377c0d3f5b8385106115c5575050505081016020016107238261072f610713565b80548686018401529382019381016115a9565b34610324576020600319360112610324576001600160a01b036004356115fd816107b6565b165f52600a602052602060ff60405f2054166040519015158152f35b34610324576116273661038a565b92906116376103f96103f36133bd565b6001600160a01b03811680156105315733036105315761165561341b565b61165e30613d7c565b3b156117aa575b838503610507575f5b84811061167757005b8061171d61168b6104736001948a88612453565b6116ea6116a9866001600160a01b03165f52600160205260405f2090565b6116bc6116b7868c8c612453565b613309565b7fffffffff00000000000000000000000000000000000000000000000000000000165f5260205260405f2090565b906001600160a01b03167fffffffffffffffffffffffff0000000000000000000000000000000000000000825416179055565b7f2c722487e90aca38ec1b074c3403210bd2bfb769b4da7f12f7bf0b9e37517c1861174c6116b7838989612453565b61175a610473848b89612453565b604080516001600160a01b0380891682527fffffffff000000000000000000000000000000000000000000000000000000009094166020820152929091169082015280606081010390a10161166e565b6117b330613dcb565b611665565b6020600319820112610324576004359067ffffffffffffffff82116103245780602383011215610324578160246106d3936004013591016107f2565b3461032457611802366117b8565b61180a614123565b5f6040516118178161061c565b5261182181613d1e565b1561197457815167ffffffffffffffff81116106385761184b8161184660055461059e565b612af1565b602080601f83116001146118c85750916118a3826001600160a01b03937f74321da206c1b9fa34367f7ece59ca49371dcd13820b9a5c3767ae1ecceed51a955f916118bd575b505f198260011b9260031b1c19161790565b6005555b6118b86040519283921694826106c2565b0390a2005b90508601515f611891565b60055f5290601f1983167f036b6384b5eca791c62761152d0c79bb0604c104a5fb6f4eb0703f3154bb3db0925f905b82821061195c575050927f74321da206c1b9fa34367f7ece59ca49371dcd13820b9a5c3767ae1ecceed51a9492600192826001600160a01b039610611944575b5050811b016005556118a7565b8701515f1960f88460031b161c191690555f80611937565b80600185968294968b015181550195019301906118f7565b60046040517fd8cae624000000000000000000000000000000000000000000000000000000008152fd5b34610324575f600319360112610324576020610b8e6103f36133bd565b34610324575f600319360112610324576040515f6008546119db8161059e565b8084529060209060019081811690811561078c5750600114611a075761072f8561072381870382610659565b60085f90815293507ff3f7a9fe364faab93b216da50a3214154f22a0a2b415b23a84c8169e8b636ee35b838510611a4d575050505081016020016107238261072f610713565b8054868601840152938201938101611a31565b34610324575f6003193601126103245760205f546040519042108152f35b3461032457602060031936011261032457600435611a9b816107b6565b611aa3614123565b905f604051611ab18161061c565b52611abb82613d1e565b15611974576001600160a01b0380911691825f52600a60205260405f2060ff198154169055167fdd1e1c7c82ab1f3ed1b1656e8200309ebf9f682a74ce7737d3bfde87a7fecb085f80a3005b34610324575f6003193601126103245760206040516001600160a01b037f0000000000000000000000000000000000000000000000000000000000000000168152f35b3461032457606060031936011261032457600435611b67816107b6565b60443567ffffffffffffffff81116103245761072f91611b91610ff76113ab933690600401610925565b9060243590613f26565b67ffffffffffffffff81116106385760051b60200190565b9080601f83011215610324576020908235611bcd81611b9b565b93611bdb6040519586610659565b81855260208086019260051b82010192831161032457602001905b828210611c04575050505090565b81358152908301908301611bf6565b346103245760a060031936011261032457611c2f6004356107b6565b611c3a6024356107b6565b67ffffffffffffffff60443581811161032457611c5b903690600401611bb3565b5060643581811161032457611c74903690600401611bb3565b5060843590811161032457611c8d903690600401610828565b5061072f611c99613313565b6040517fffffffff0000000000000000000000000000000000000000000000000000000090911681529081906020820190565b34610324575f600319360112610324576020600354604051908152f35b34610324575f6003193601126103245760205f54604051908152f35b34610324575f600319360112610324576040517f35567e1a0000000000000000000000000000000000000000000000000000000081523060048201525f60248201526020816044816001600160a01b037f0000000000000000000000000000000000000000000000000000000000000000165afa8015611dc5575f90611d91575b604051908152602090f35b506020813d602011611dbd575b81611dab60209383610659565b810103126103245761072f9051611d86565b3d9150611d9e565b6124e2565b34610324576020600319360112610324576004356001600160a01b03611df46103f96103f36133bd565b16801561053157330361053157611e0a4261336c565b8111611e5657611e517fa7b24c66dd3269a292a60b3facdbb8f3e7557d1e19e64d99e0d6ee7250be63ad91611e3d61341b565b805f55604051918291829190602083019252565b0390a1005b60046040517f0c0a7be8000000000000000000000000000000000000000000000000000000008152fd5b3461032457611e8e366117b8565b805167ffffffffffffffff811161063857611eb381611eae60065461059e565b612b5e565b602080601f8311600114611f3757509080611ee0925f91611f2c57505f198260011b9260031b1c19161790565b6006555b7f37cc8c6ced0cbc4d440fcfa810a2f09f40b8f0127c3656103edf26b3d93e0ec16118b8611f1f611f13614123565b6001600160a01b031690565b92604051918291826106c2565b90508301515f611891565b60065f5290601f1983167ff652222313e28459528d920b65115c16c04f3efc82aaedc97be59f3f377c0d3f925f905b828210611fa15750509083600194939210611f89575b5050811b01600655611ee4565b8401515f1960f88460031b161c191690555f80611f7c565b80600185968294968a01518155019501930190611f66565b3461032457602060031936011261032457600435611fd6816107b6565b6001600160a01b0380611fe7614123565b1691825f52600a60205260ff60405f2054161561203d571690815f52600960205260405f20600160ff198254161790557fc0b9de905219d7679d6f05d6061fa6ef557a687d2c44c314b58bb793f5dba4945f80a3005b60046040517ff3aeae14000000000000000000000000000000000000000000000000000000008152fd5b34610324576040600319360112610324576020600435612086816107b6565b6120d9602435612095816102fa565b6001600160a01b038093165f526001845260405f20907fffffffff00000000000000000000000000000000000000000000000000000000165f5260205260405f2090565b5416604051908152f35b3461032457602060031936011261032457600435612100816107b6565b6001600160a01b0380612111614123565b1691825f52600a60205260ff60405f2054161561203d571690815f52600960205260405f2060ff1981541690557f8a44d725ac751003f7f644f7ce70382fa06f348023717d057b7aa5c8778770d25f80a3005b3461032457602060031936011261032457600435612181816107b6565b6001600160a01b0380612192614123565b1691825f52600a60205260ff60405f2054161561203d571690815f52600a60205260405f20600160ff198254161790557f06216f26a4a5b9c90aa5e1f990342de8fa80a0c447e3c6143fbaf0c7747edd715f80a3005b346103245760a0600319360112610324576122046004356107b6565b61220f6024356107b6565b60843567ffffffffffffffff81116103245761222f903690600401610828565b50612238613494565b60206040517ff23a6e61000000000000000000000000000000000000000000000000000000008152f35b34610324575f6003193601126103245760606001600160a01b036122846133bd565b9192906040519384521660208301526040820152f35b7fffffffff000000000000000000000000000000000000000000000000000000008091167f51945447000000000000000000000000000000000000000000000000000000008114908115612396575b5061239057612351612313916103f96123006133bd565b6001600160a01b03969293918794613e9d565b165f52600160205260405f20905f35167fffffffff00000000000000000000000000000000000000000000000000000000165f5260205260405f2090565b54168061235d57505f90565b5f80916040518061236e8136613382565b03915afa61237a61338e565b901561238857602081519101f35b602081519101fd5b50600190565b7f6faff5f1000000000000000000000000000000000000000000000000000000008114915081156123c9575b505f6122e9565b7f4e2312e0000000000000000000000000000000000000000000000000000000008114915081156123fc575b505f6123c2565b7f01ffc9a7000000000000000000000000000000000000000000000000000000009150145f6123f5565b7f4e487b71000000000000000000000000000000000000000000000000000000005f52603260045260245ffd5b91908110156124635760051b0190565b612426565b8015150361032457565b356106d381612468565b356106d3816107b6565b90612491929161364d565b612499575f90565b7f1626ba7e0000000000000000000000000000000000000000000000000000000090565b9190811015612463576060020190565b9081602091031261032457516106d381612468565b6040513d5f823e3d90fd5b9081602091031261032457516106d3816107b6565b95949091929394612511614123565b915f915b80831061254057505050610f1861252b916137c8565b610531576106d39461253b61341b565b6139b1565b90919261254e8483856124bd565b9061255b6020830161247c565b6125ae6040840135824686357f00000000000000000000000000000000000000000000000000000000000000007f0000000000000000000000000000000000000000000000000000000000000000613740565b92813b1561265757833b6126b2575b604080517f6352211e00000000000000000000000000000000000000000000000000000000815291013560048201529190602090839060249082906001600160a01b03165afa5f9281612681575b5061263a5760046040517f414b7494000000000000000000000000000000000000000000000000000000008152fd5b6001600160a01b0380911691160361265757926001019190612515565b60046040517f414b7494000000000000000000000000000000000000000000000000000000008152fd5b6126a491935060203d6020116126ab575b61269c8183610659565b8101906124ed565b915f61260b565b503d612692565b6040517fa4e2d63400000000000000000000000000000000000000000000000000000000815260049060208183816001600160a01b038a165afa908115611dc5575f9161272d575b5061270557506125bd565b6040517f6315bfbb000000000000000000000000000000000000000000000000000000008152fd5b61274f915060203d602011612755575b6127478183610659565b8101906124cd565b5f6126fa565b503d61273d565b1561276357565b608460405162461bcd60e51b815260206004820152602c60248201527f46756e6374696f6e206d7573742062652063616c6c6564207468726f7567682060448201527f64656c656761746563616c6c00000000000000000000000000000000000000006064820152fd5b156127d457565b608460405162461bcd60e51b815260206004820152602c60248201527f46756e6374696f6e206d7573742062652063616c6c6564207468726f7567682060448201527f6163746976652070726f787900000000000000000000000000000000000000006064820152fd5b6040519061284b8261061c565b5f8252565b6040519060a0820182811067ffffffffffffffff821117610638576040526080808352366020840137565b9061288582611b9b565b6128926040519182610659565b828152601f196128a28294611b9b565b01905f5b8281106128b257505050565b8060606020809385010152016128a6565b91908110156124635760051b810135907fffffffffffffffffffffffffffffffffffffffffffffffffffffffffffffff8181360301821215610324570190565b9035907fffffffffffffffffffffffffffffffffffffffffffffffffffffffffffffffe181360301821215610324570180359067ffffffffffffffff82116103245760200191813603831361032457565b356106d381610a82565b80518210156124635760209160051b010190565b9a98969492909160ff9c9a989694926004549d8e60081c1615809e819f612ae3575b8115612ac3575b5015612a59576129c19c8e6129b8600160ff196004541617600455565b612a2357613024565b6129c757565b6129f47fffffffffffffffffffffffffffffffffffffffffffffffffffffffffffff00ff60045416600455565b604051600181527f7f26b83ff96e1f2b6a682f133852f6798a09c465da95921460cefb384740249890602090a1565b612a546101007fffffffffffffffffffffffffffffffffffffffffffffffffffffffffffff00ff6004541617600455565b613024565b608460405162461bcd60e51b815260206004820152602e60248201527f496e697469616c697a61626c653a20636f6e747261637420697320616c72656160448201527f647920696e697469616c697a65640000000000000000000000000000000000006064820152fd5b303b15915081612ad5575b505f61299b565b6001915060ff16145f612ace565b600160ff8216109150612994565b601f8111612afd575050565b60055f527f036b6384b5eca791c62761152d0c79bb0604c104a5fb6f4eb0703f3154bb3db0906020601f840160051c83019310612b54575b601f0160051c01905b818110612b49575050565b5f8155600101612b3e565b9091508190612b35565b601f8111612b6a575050565b60065f527ff652222313e28459528d920b65115c16c04f3efc82aaedc97be59f3f377c0d3f906020601f840160051c83019310612bc1575b601f0160051c01905b818110612bb6575050565b5f8155600101612bab565b9091508190612ba2565b601f8111612bd7575050565b60075f527fa66cc928b5edb82af9bd49922954155ab7b0942694bea4ce44661d9a8736c688906020601f840160051c83019310612c2e575b601f0160051c01905b818110612c23575050565b5f8155600101612c18565b9091508190612c0f565b601f8111612c44575050565b60085f527ff3f7a9fe364faab93b216da50a3214154f22a0a2b415b23a84c8169e8b636ee3906020601f840160051c83019310612c9b575b601f0160051c01905b818110612c90575050565b5f8155600101612c85565b9091508190612c7c565b919067ffffffffffffffff811161063857612cc58161184660055461059e565b5f601f8211600114612d02578190612cf293945f92612cf7575b50505f198260011b9260031b1c19161790565b600555565b013590505f80612cdf565b60055f52601f198216937f036b6384b5eca791c62761152d0c79bb0604c104a5fb6f4eb0703f3154bb3db0915f5b868110612d675750836001959610612d4e575b505050811b01600555565b5f1960f88560031b161c199101351690555f8080612d43565b90926020600181928686013581550194019101612d30565b919067ffffffffffffffff811161063857612d9f81611eae60065461059e565b5f601f8211600114612dd0578190612dcb93945f92612cf75750505f198260011b9260031b1c19161790565b600655565b60065f52601f198216937ff652222313e28459528d920b65115c16c04f3efc82aaedc97be59f3f377c0d3f915f5b868110612e355750836001959610612e1c575b505050811b01600655565b5f1960f88560031b161c199101351690555f8080612e11565b90926020600181928686013581550194019101612dfe565b919067ffffffffffffffff811161063857612e7281612e6d60075461059e565b612bcb565b5f601f8211600114612ea3578190612e9e93945f92612cf75750505f198260011b9260031b1c19161790565b600755565b60075f52601f198216937fa66cc928b5edb82af9bd49922954155ab7b0942694bea4ce44661d9a8736c688915f5b868110612f085750836001959610612eef575b505050811b01600755565b5f1960f88560031b161c199101351690555f8080612ee4565b90926020600181928686013581550194019101612ed1565b919067ffffffffffffffff811161063857612f4581612f4060085461059e565b612c38565b5f601f8211600114612f76578190612f7193945f92612cf75750505f198260011b9260031b1c19161790565b600855565b60085f52601f198216937ff3f7a9fe364faab93b216da50a3214154f22a0a2b415b23a84c8169e8b636ee3915f5b868110612fdb5750836001959610612fc2575b505050811b01600855565b5f1960f88560031b161c199101351690555f8080612fb7565b90926020600181928686013581550194019101612fa4565b601f8260209493601f1993818652868601375f8582860101520116010190565b9160206106d3938181520191612ff3565b956130a394999a9c9561308f84849e999461308a61309e969d989d9c979c7fffffffffffffffffffff0000000000000000000000000000000000000000ffff75ffffffffffffffffffffffffffffffffffffffff00006004549260101b16911617600455565b612ca5565b6130998b8b612d7f565b612e4d565b612f20565b6130ab614123565b956130d76130ca886001600160a01b03165f52600960205260405f2090565b600160ff19825416179055565b6130f56130ca886001600160a01b03165f52600a60205260405f2090565b6001600160a01b035f97169889975b81811061324a575050505f5b8181106131d157505050927f74321da206c1b9fa34367f7ece59ca49371dcd13820b9a5c3767ae1ecceed51a7f37cc8c6ced0cbc4d440fcfa810a2f09f40b8f0127c3656103edf26b3d93e0ec194829661316f60405192839283613013565b0390a261318160405192839283613013565b0390a280807fc0b9de905219d7679d6f05d6061fa6ef557a687d2c44c314b58bb793f5dba4945f80a3807f06216f26a4a5b9c90aa5e1f990342de8fa80a0c447e3c6143fbaf0c7747edd715f80a3565b829395979496506132066130ca6131ef610473848660019798612453565b6001600160a01b03165f52600a60205260405f2090565b613217611f13610473838688612453565b897f06216f26a4a5b9c90aa5e1f990342de8fa80a0c447e3c6143fbaf0c7747edd715f80a3019087959396949291613110565b8293949597999698506132816130ca61326a610473848660019798612453565b6001600160a01b03165f52600960205260405f2090565b613292611f13610473838688612453565b8b7fc0b9de905219d7679d6f05d6061fa6ef557a687d2c44c314b58bb793f5dba4945f80a30190899795989694939291613104565b906132d7906132dd9336916107f2565b50613d1e565b6132e5575f90565b7f523e32600000000000000000000000000000000000000000000000000000000090565b356106d3816102fa565b61331b613494565b7fbc197c810000000000000000000000000000000000000000000000000000000090565b7f4e487b71000000000000000000000000000000000000000000000000000000005f52601160045260245ffd5b906301e13380820180921161337d57565b61333f565b90815f8237015f815290565b3d156133b8573d9061339f826107d6565b916133ad6040519384610659565b82523d5f602084013e565b606090565b604051906080820182811067ffffffffffffffff8211176106385760405260608252602082016060604d82303c6060838051810103126103245751906001600160a01b036060604085015194613412866107b6565b01519293169190565b5f54421061346a57600354613462613431614589565b613454604093929351938492602084019687526040808501526060840191612ff3565b03601f198101835282610659565b519020600355565b60046040517f6315bfbb000000000000000000000000000000000000000000000000000000008152fd5b6135116134bf6134a86103f96103f36133bd565b6001600160a01b03165f52600160205260405f2090565b7fffffffff000000000000000000000000000000000000000000000000000000005f35167fffffffff00000000000000000000000000000000000000000000000000000000165f5260205260405f2090565b546001600160a01b0381166135235750565b5f809161352f30613d7c565b908260405161358b60488260208101957fffffffffffffffffffffffffffffffffffffffff000000000000000000000000809160601b16875236866034840137368201903360601b166034820152036028810184520182610659565b51925af161237a61338e565b90604010156124635760400190565b906020116103245790602090565b906040116103245760200190602090565b90929192836020116103245783116103245760200191601f190190565b90939293848311610324578411610324578101920390565b359060208110613608575090565b5f199060200360031b1b1690565b6005111561362057565b7f4e487b71000000000000000000000000000000000000000000000000000000005f52602160045260245ffd5b909160ff61368d6136876136618487613597565b357fff000000000000000000000000000000000000000000000000000000000000001690565b60f81c90565b16156136c6576136a8926136a29136916107f2565b906140f2565b6136b181613616565b6136c1576106d3906132d761283e565b505f90565b906136e0611f13611f136136da85876135a6565b906135fa565b916136e961283e565b506136f6610f1884613d1e565b8061372d575b61372557610fff8185816137196136da61371f966106d39a6135b4565b916135e2565b9161405e565b505050505f90565b50306001600160a01b03841614156136fc565b9190605595936001600160a01b0360e2966040519660b788015216609786015260778501528160578501526e5af43d82803e903d91602b57fd5bf360378501526028840152733d60ad80600a3d3981f3363d3d373d3d3d363d73601484015260b7835260d7830190816040528351602085012061011785015260f7840152520160ff81532090565b6001600160a01b03808216817f000000000000000000000000000000000000000000000000000000000000000016811461396f576138046133bd565b9046830361388c575b61381692613e9d565b82811682146138835761382890613f4e565b9182161461387c5761386f91613852613868926001600160a01b03165f52600260205260405f2090565b906001600160a01b03165f5260205260405f2090565b5460ff1690565b613877575f90565b600190565b5050600190565b50505050600190565b6138c8613897614123565b7fffffffffffffffffffffffffeeeeffffffffffffffffffffffffffffffffeeef6001600160a01b03809216011690565b85163014613945576040517f672657ca0000000000000000000000000000000000000000000000000000000081526001600160a01b03871660048201526020816024817f00000000000000000000000000000000000000000000000000000000000000008a165afa908115611dc5575f91613950575b501561380d575b505050505050600190565b613969915060203d602011612755576127478183610659565b5f61393e565b505050600190565b909280927fffffffffffffffffffffffffffffffffffffffff00000000000000000000000060149560601b1683528483013701015f815290565b9092919360ff16908115613ad25760018214613a81575060028114613a6457600314613a015760046040517f398d4d32000000000000000000000000000000000000000000000000000000008152fd5b826106d392613a248380613a1e6136da613a2c976134549a6135a6565b946135c5565b929091613b05565b604051928391602083017fffffffffffffffffffffffffffffffffffffffff00000000000000000000000060149260601b1681520190565b506106d391613a7b61345494613a2c9336916107f2565b90613d04565b6106d39493929150613abf90613ab1613a9930613d7c565b93843b15613ac4575b60405196879360208501613977565b03601f198101855284610659565b613f26565b613acd30613dcb565b613aa2565b9291613ae59150936106d39436916107f2565b91613f26565b6001600160a01b03613afc30613d7c565b16330361053157565b91613b12919336916107f2565b9060208251920190f5906001600160a01b03821615613b2d57565b60046040517fa28c2473000000000000000000000000000000000000000000000000000000008152fd5b6040517f1506fd4d0000000000000000000000000000000000000000000000000000000081526001600160a01b039091166004820152602081806024810103816001600160a01b037f0000000000000000000000000000000000000000000000000000000000000000165afa908115611dc5575f91613c15575b5015613beb57613be5610f18610f13614123565b61053157565b60046040517f68155f9a000000000000000000000000000000000000000000000000000000008152fd5b613c2e915060203d602011612755576127478183610659565b5f613bd1565b90816020910312610324575190565b15613c4a57565b608460405162461bcd60e51b815260206004820152602960248201527f45524331393637557067726164653a20756e737570706f727465642070726f7860448201527f6961626c655555494400000000000000000000000000000000000000000000006064820152fd5b613cf7917f19457468657265756d205369676e6564204d6573736167653a0a3332000000005f52601c52613cf1603c5f2091610140810190612903565b9161364d565b613d0057600190565b5f90565b60208251920190f0906001600160a01b03821615613b2d57565b613d296103f36133bd565b6001600160a01b0380831691818116831461388357613d4790613f4e565b1680911461387c5760ff91613d77915f52600260205260405f20906001600160a01b03165f5260205260405f2090565b541690565b600b613d89605592614379565b602081519101206040519060408201527f97f795a08410e77dc9dbbaba3915f17c601e45642518dd578bd440d8775bfee460208201523081520160ff81532090565b613dd490614379565b805115613e59577f97f795a08410e77dc9dbbaba3915f17c601e45642518dd578bd440d8775bfee48160206001600160a01b03935191015ff51615613e1557565b606460405162461bcd60e51b815260206004820152601960248201527f437265617465323a204661696c6564206f6e206465706c6f79000000000000006044820152fd5b606460405162461bcd60e51b815260206004820152602060248201527f437265617465323a2062797465636f6465206c656e677468206973207a65726f6044820152fd5b4603613f2057803b15613f20576040517f6352211e0000000000000000000000000000000000000000000000000000000081526004810192909252602090829060249082906001600160a01b03165afa5f9181613eff575b506106d357505f90565b613f1991925060203d6020116126ab5761269c8183610659565b905f613ef5565b50505f90565b915f928392602083519301915af190613f3d61338e565b9115613f4557565b50602081519101fd5b907f0000000000000000000000000000000000000000000000000000000000000000917f00000000000000000000000000000000000000000000000000000000000000005b613f9e818584614486565b15614059576001600160a01b0360408051937ffc0c546a000000000000000000000000000000000000000000000000000000008552846004816060958694165afa938415611dc5575f915f935f96614009575b5050509261400291613f9e94613e9d565b9150613f93565b92509250809450813d8311614052575b6140238183610659565b81010312610324578261400291613f9e945190602083015192614045846107b6565b0151909190948193613ff1565b503d614019565b509150565b5f91929082916040516140ae8161345460208201947f1626ba7e00000000000000000000000000000000000000000000000000000000998a8752602484015260406044840152606483019061069d565b51915afa906140bb61338e565b826140e4575b826140cb57505090565b6140e091925060208082518301019101613c34565b1490565b9150602082511015916140c1565b9060418151145f1461411a576103d191602082015190606060408401519301515f1a9061450e565b50505f90600290565b6001600160a01b037f000000000000000000000000000000000000000000000000000000000000000016331480614188575b15614184577fffffffffffffffffffffffffffffffffffffffffffffffffffffffffffffffec36013560601c90565b3390565b506014361015614155565b9061419d826142b4565b6001600160a01b0382167fbc7cd75a20ee27fd9adebab32041f755214dbc6bffa90cc0225b39da2e5c2d3b5f80a280511580159061425b575b6141de575050565b614258915f80604051936141f18561063d565b602785527f416464726573733a206c6f772d6c6576656c2064656c65676174652063616c6c60208601527f206661696c6564000000000000000000000000000000000000000000000000006040860152602081519101845af461425261338e565b91614601565b50565b5060016141d6565b9061426d826142b4565b6001600160a01b0382167fbc7cd75a20ee27fd9adebab32041f755214dbc6bffa90cc0225b39da2e5c2d3b5f80a28051158015906142ad576141de575050565b505f6141d6565b803b1561430f576001600160a01b037f360894a13ba1a3210667c828492db98dca3e2076cc3735a920a3ca505d382bbc91167fffffffffffffffffffffffff0000000000000000000000000000000000000000825416179055565b608460405162461bcd60e51b815260206004820152602d60248201527f455243313936373a206e657720696d706c656d656e746174696f6e206973206e60448201527f6f74206120636f6e7472616374000000000000000000000000000000000000006064820152fd5b60409081518281019080821067ffffffffffffffff83111761063857836106d39360349361445f9652600e8352614477602084017f604380600d600039806000f3fe7300000000000000000000000000000000000081527fffffffffffffffffffffffffffffffffffffffff0000000000000000000000008451916143fd8361063d565b602e835260208301957f3314601d573d3dfd5b363d3d373d3d6014360360143d5160601c5af43d60008087527f3e80603e573d6000fd5b3d6000f30000000000000000000000000000000000008185015251998a9751809260208a019061067c565b86019360601b1660208401525180938684019061067c565b01036014810184520182610659565b9160ad833b03614507576014600a600c853c5f5190813b15613725576001600160a01b0380931683831603613725576144bd612850565b60208101916080602d84883c6080828051810103126103245761450193611f1393516040840151918760806060870151966144f7886107b6565b0151951693613740565b91161490565b5050505f90565b7f7fffffffffffffffffffffffffffffff5d576e7357a4501ddfe92f46681b20a0841161457e576020935f9360ff60809460405194855216868401526040830152606082015282805260015afa15611dc5575f516001600160a01b0381161561457657905f90565b505f90600190565b505050505f90600390565b6001600160a01b037f0000000000000000000000000000000000000000000000000000000000000000163314806145f6575b156145f0577fffffffffffffffffffffffffffffffffffffffffffffffffffffffffffffffec36019036821161337d575f9190565b5f903690565b5060143610156145bb565b919290156146625750815115614615575090565b3b1561461e5790565b606460405162461bcd60e51b815260206004820152601d60248201527f416464726573733a2063616c6c20746f206e6f6e2d636f6e74726163740000006044820152fd5b8251909150156146755750805190602001fd5b610d219060405191829162461bcd60e51b8352600483016106c256fea164736f6c6343000819000a",
    "linkReferences": {}
  },
  "methodIdentifiers": {
    "addGardenOperator(address)": "eed9df74",
    "addGardener(address)": "eaff6dc9",
    "bannerImage()": "94def29d",
    "communityToken()": "29aa1617",
    "description()": "7284e416",
    "entryPoint()": "b0d691fe",
    "erc6551Registry()": "056d5afe",
    "execute(address,uint256,bytes,uint8)": "51945447",
    "executeBatch((address,uint256,bytes,uint8)[])": "43629a73",
    "executeNested(address,uint256,bytes,uint8,(bytes32,address,uint256)[])": "1fb1ecf0",
    "extcall(address,uint256,bytes)": "b709467c",
    "extcreate(uint256,bytes)": "45a24e3e",
    "extcreate2(uint256,bytes32,bytes)": "34715fb1",
    "extsload(bytes32)": "1e2eaeaf",
    "gardenOperators(address)": "7597bc7c",
    "gardeners(address)": "1f6e45e3",
    "getNonce()": "d087d288",
    "initialize(address,string,string,string,string,address[],address[])": "47f5fddd",
    "isLocked()": "a4e2d634",
    "isTrustedForwarder(address)": "572b6c05",
    "isValidSignature(bytes32,bytes)": "1626ba7e",
    "isValidSigner(address,bytes)": "523e3260",
    "location()": "516f279e",
    "lock(uint256)": "dd467064",
    "lockedUntil()": "ce0617ec",
    "name()": "06fdde03",
    "onERC1155BatchReceived(address,address,uint256[],uint256[],bytes)": "bc197c81",
    "onERC1155Received(address,address,uint256,uint256,bytes)": "f23a6e61",
    "onERC721Received(address,address,uint256,bytes)": "150b7a02",
    "overrides(address,bytes4)": "ee9c6054",
    "owner()": "8da5cb5b",
    "permissions(address,address)": "1f9838b5",
    "proxiableUUID()": "52d1902d",
    "removeGardenOperator(address)": "adbce85e",
    "removeGardener(address)": "eeb97057",
    "setOverrides(bytes4[],address[])": "7a8f7356",
    "setPermissions(address[],bool[])": "039721b1",
    "state()": "c19d93fb",
    "supportsInterface(bytes4)": "01ffc9a7",
    "token()": "fc0c546a",
    "updateDescription(string)": "e735b48a",
    "updateName(string)": "84da92a7",
    "upgradeTo(address)": "3659cfe6",
    "upgradeToAndCall(address,bytes)": "4f1ef286",
    "validateUserOp((address,uint256,bytes,bytes,uint256,uint256,uint256,uint256,uint256,bytes,bytes),bytes32,uint256)": "3a871cdd"
  },
  "id": 104
}