{
  "abi": [
    {
      "type": "constructor",
      "inputs": [
        {
          "name": "erc4337EntryPoint",
          "type": "address",
          "internalType": "address"
        },
        {
          "name": "multicallForwarder",
          "type": "address",
          "internalType": "address"
        },
        {
          "name": "erc6551Registry",
          "type": "address",
          "internalType": "address"
        },
        {
          "name": "guardian",
          "type": "address",
          "internalType": "address"
        }
      ],
      "stateMutability": "nonpayable"
    },
    {
      "type": "fallback",
      "stateMutability": "payable"
    },
    {
      "type": "receive",
      "stateMutability": "payable"
    },
    {
      "type": "function",
      "name": "addGardenOperator",
      "inputs": [
        {
          "name": "operator",
          "type": "address",
          "internalType": "address"
        }
      ],
      "outputs": [],
      "stateMutability": "nonpayable"
    },
    {
      "type": "function",
      "name": "addGardener",
      "inputs": [
        {
          "name": "gardener",
          "type": "address",
          "internalType": "address"
        }
      ],
      "outputs": [],
      "stateMutability": "nonpayable"
    },
    {
      "type": "function",
      "name": "bannerImage",
      "inputs": [],
      "outputs": [
        {
          "name": "",
          "type": "string",
          "internalType": "string"
        }
      ],
      "stateMutability": "view"
    },
    {
      "type": "function",
      "name": "communityToken",
      "inputs": [],
      "outputs": [
        {
          "name": "",
          "type": "address",
          "internalType": "address"
        }
      ],
      "stateMutability": "view"
    },
    {
      "type": "function",
      "name": "createInviteCode",
      "inputs": [
        {
          "name": "inviteCode",
          "type": "bytes32",
          "internalType": "bytes32"
        },
        {
          "name": "expiry",
          "type": "uint256",
          "internalType": "uint256"
        }
      ],
      "outputs": [],
      "stateMutability": "nonpayable"
    },
    {
      "type": "function",
      "name": "description",
      "inputs": [],
      "outputs": [
        {
          "name": "",
          "type": "string",
          "internalType": "string"
        }
      ],
      "stateMutability": "view"
    },
    {
      "type": "function",
      "name": "entryPoint",
      "inputs": [],
      "outputs": [
        {
          "name": "",
          "type": "address",
          "internalType": "contract IEntryPoint"
        }
      ],
      "stateMutability": "view"
    },
    {
      "type": "function",
      "name": "erc6551Registry",
      "inputs": [],
      "outputs": [
        {
          "name": "",
          "type": "address",
          "internalType": "address"
        }
      ],
      "stateMutability": "view"
    },
    {
      "type": "function",
      "name": "execute",
      "inputs": [
        {
          "name": "to",
          "type": "address",
          "internalType": "address"
        },
        {
          "name": "value",
          "type": "uint256",
          "internalType": "uint256"
        },
        {
          "name": "data",
          "type": "bytes",
          "internalType": "bytes"
        },
        {
          "name": "operation",
          "type": "uint8",
          "internalType": "uint8"
        }
      ],
      "outputs": [
        {
          "name": "",
          "type": "bytes",
          "internalType": "bytes"
        }
      ],
      "stateMutability": "payable"
    },
    {
      "type": "function",
      "name": "executeBatch",
      "inputs": [
        {
          "name": "operations",
          "type": "tuple[]",
          "internalType": "struct BatchExecutor.Operation[]",
          "components": [
            {
              "name": "to",
              "type": "address",
              "internalType": "address"
            },
            {
              "name": "value",
              "type": "uint256",
              "internalType": "uint256"
            },
            {
              "name": "data",
              "type": "bytes",
              "internalType": "bytes"
            },
            {
              "name": "operation",
              "type": "uint8",
              "internalType": "uint8"
            }
          ]
        }
      ],
      "outputs": [
        {
          "name": "",
          "type": "bytes[]",
          "internalType": "bytes[]"
        }
      ],
      "stateMutability": "payable"
    },
    {
      "type": "function",
      "name": "executeNested",
      "inputs": [
        {
          "name": "to",
          "type": "address",
          "internalType": "address"
        },
        {
          "name": "value",
          "type": "uint256",
          "internalType": "uint256"
        },
        {
          "name": "data",
          "type": "bytes",
          "internalType": "bytes"
        },
        {
          "name": "operation",
          "type": "uint8",
          "internalType": "uint8"
        },
        {
          "name": "proof",
          "type": "tuple[]",
          "internalType": "struct NestedAccountExecutor.ERC6551AccountInfo[]",
          "components": [
            {
              "name": "salt",
              "type": "bytes32",
              "internalType": "bytes32"
            },
            {
              "name": "tokenContract",
              "type": "address",
              "internalType": "address"
            },
            {
              "name": "tokenId",
              "type": "uint256",
              "internalType": "uint256"
            }
          ]
        }
      ],
      "outputs": [
        {
          "name": "",
          "type": "bytes",
          "internalType": "bytes"
        }
      ],
      "stateMutability": "payable"
    },
    {
      "type": "function",
      "name": "extcall",
      "inputs": [
        {
          "name": "to",
          "type": "address",
          "internalType": "address"
        },
        {
          "name": "value",
          "type": "uint256",
          "internalType": "uint256"
        },
        {
          "name": "data",
          "type": "bytes",
          "internalType": "bytes"
        }
      ],
      "outputs": [
        {
          "name": "result",
          "type": "bytes",
          "internalType": "bytes"
        }
      ],
      "stateMutability": "nonpayable"
    },
    {
      "type": "function",
      "name": "extcreate",
      "inputs": [
        {
          "name": "value",
          "type": "uint256",
          "internalType": "uint256"
        },
        {
          "name": "bytecode",
          "type": "bytes",
          "internalType": "bytes"
        }
      ],
      "outputs": [
        {
          "name": "",
          "type": "address",
          "internalType": "address"
        }
      ],
      "stateMutability": "nonpayable"
    },
    {
      "type": "function",
      "name": "extcreate2",
      "inputs": [
        {
          "name": "value",
          "type": "uint256",
          "internalType": "uint256"
        },
        {
          "name": "salt",
          "type": "bytes32",
          "internalType": "bytes32"
        },
        {
          "name": "bytecode",
          "type": "bytes",
          "internalType": "bytes"
        }
      ],
      "outputs": [
        {
          "name": "",
          "type": "address",
          "internalType": "address"
        }
      ],
      "stateMutability": "nonpayable"
    },
    {
      "type": "function",
      "name": "extsload",
      "inputs": [
        {
          "name": "slot",
          "type": "bytes32",
          "internalType": "bytes32"
        }
      ],
      "outputs": [
        {
          "name": "value",
          "type": "bytes32",
          "internalType": "bytes32"
        }
      ],
      "stateMutability": "view"
    },
    {
      "type": "function",
      "name": "gardenInvites",
      "inputs": [
        {
          "name": "inviteCode",
          "type": "bytes32",
          "internalType": "bytes32"
        }
      ],
      "outputs": [
        {
          "name": "isValid",
          "type": "bool",
          "internalType": "bool"
        }
      ],
      "stateMutability": "view"
    },
    {
      "type": "function",
      "name": "gardenOperators",
      "inputs": [
        {
          "name": "operator",
          "type": "address",
          "internalType": "address"
        }
      ],
      "outputs": [
        {
          "name": "isOperator",
          "type": "bool",
          "internalType": "bool"
        }
      ],
      "stateMutability": "view"
    },
    {
      "type": "function",
      "name": "gardeners",
      "inputs": [
        {
          "name": "gardener",
          "type": "address",
          "internalType": "address"
        }
      ],
      "outputs": [
        {
          "name": "isGardener",
          "type": "bool",
          "internalType": "bool"
        }
      ],
      "stateMutability": "view"
    },
    {
      "type": "function",
      "name": "getNonce",
      "inputs": [],
      "outputs": [
        {
          "name": "",
          "type": "uint256",
          "internalType": "uint256"
        }
      ],
      "stateMutability": "view"
    },
    {
      "type": "function",
      "name": "initialize",
      "inputs": [
        {
          "name": "_communityToken",
          "type": "address",
          "internalType": "address"
        },
        {
          "name": "_name",
          "type": "string",
          "internalType": "string"
        },
        {
          "name": "_description",
          "type": "string",
          "internalType": "string"
        },
        {
          "name": "_location",
          "type": "string",
          "internalType": "string"
        },
        {
          "name": "_bannerImage",
          "type": "string",
          "internalType": "string"
        },
        {
          "name": "_gardeners",
          "type": "address[]",
          "internalType": "address[]"
        },
        {
          "name": "_gardenOperators",
          "type": "address[]",
          "internalType": "address[]"
        }
      ],
      "outputs": [],
      "stateMutability": "nonpayable"
    },
    {
      "type": "function",
      "name": "inviteExpiry",
      "inputs": [
        {
          "name": "inviteCode",
          "type": "bytes32",
          "internalType": "bytes32"
        }
      ],
      "outputs": [
        {
          "name": "expiry",
          "type": "uint256",
          "internalType": "uint256"
        }
      ],
      "stateMutability": "view"
    },
    {
      "type": "function",
      "name": "inviteToGarden",
      "inputs": [
        {
          "name": "inviteCode",
          "type": "bytes32",
          "internalType": "bytes32"
        }
      ],
      "outputs": [
        {
          "name": "garden",
          "type": "address",
          "internalType": "address"
        }
      ],
      "stateMutability": "view"
    },
    {
      "type": "function",
      "name": "inviteUsed",
      "inputs": [
        {
          "name": "inviteCode",
          "type": "bytes32",
          "internalType": "bytes32"
        }
      ],
      "outputs": [
        {
          "name": "isUsed",
          "type": "bool",
          "internalType": "bool"
        }
      ],
      "stateMutability": "view"
    },
    {
      "type": "function",
      "name": "isLocked",
      "inputs": [],
      "outputs": [
        {
          "name": "",
          "type": "bool",
          "internalType": "bool"
        }
      ],
      "stateMutability": "view"
    },
    {
      "type": "function",
      "name": "isTrustedForwarder",
      "inputs": [
        {
          "name": "forwarder",
          "type": "address",
          "internalType": "address"
        }
      ],
      "outputs": [
        {
          "name": "",
          "type": "bool",
          "internalType": "bool"
        }
      ],
      "stateMutability": "view"
    },
    {
      "type": "function",
      "name": "isValidSignature",
      "inputs": [
        {
          "name": "hash",
          "type": "bytes32",
          "internalType": "bytes32"
        },
        {
          "name": "signature",
          "type": "bytes",
          "internalType": "bytes"
        }
      ],
      "outputs": [
        {
          "name": "magicValue",
          "type": "bytes4",
          "internalType": "bytes4"
        }
      ],
      "stateMutability": "view"
    },
    {
      "type": "function",
      "name": "isValidSigner",
      "inputs": [
        {
          "name": "signer",
          "type": "address",
          "internalType": "address"
        },
        {
          "name": "data",
          "type": "bytes",
          "internalType": "bytes"
        }
      ],
      "outputs": [
        {
          "name": "magicValue",
          "type": "bytes4",
          "internalType": "bytes4"
        }
      ],
      "stateMutability": "view"
    },
    {
      "type": "function",
      "name": "joinGardenWithInvite",
      "inputs": [
        {
          "name": "inviteCode",
          "type": "bytes32",
          "internalType": "bytes32"
        }
      ],
      "outputs": [],
      "stateMutability": "nonpayable"
    },
    {
      "type": "function",
      "name": "location",
      "inputs": [],
      "outputs": [
        {
          "name": "",
          "type": "string",
          "internalType": "string"
        }
      ],
      "stateMutability": "view"
    },
    {
      "type": "function",
      "name": "lock",
      "inputs": [
        {
          "name": "_lockedUntil",
          "type": "uint256",
          "internalType": "uint256"
        }
      ],
      "outputs": [],
      "stateMutability": "nonpayable"
    },
    {
      "type": "function",
      "name": "lockedUntil",
      "inputs": [],
      "outputs": [
        {
          "name": "",
          "type": "uint256",
          "internalType": "uint256"
        }
      ],
      "stateMutability": "view"
    },
    {
      "type": "function",
      "name": "name",
      "inputs": [],
      "outputs": [
        {
          "name": "",
          "type": "string",
          "internalType": "string"
        }
      ],
      "stateMutability": "view"
    },
    {
      "type": "function",
      "name": "onERC1155BatchReceived",
      "inputs": [
        {
          "name": "",
          "type": "address",
          "internalType": "address"
        },
        {
          "name": "",
          "type": "address",
          "internalType": "address"
        },
        {
          "name": "",
          "type": "uint256[]",
          "internalType": "uint256[]"
        },
        {
          "name": "",
          "type": "uint256[]",
          "internalType": "uint256[]"
        },
        {
          "name": "",
          "type": "bytes",
          "internalType": "bytes"
        }
      ],
      "outputs": [
        {
          "name": "",
          "type": "bytes4",
          "internalType": "bytes4"
        }
      ],
      "stateMutability": "nonpayable"
    },
    {
      "type": "function",
      "name": "onERC1155Received",
      "inputs": [
        {
          "name": "",
          "type": "address",
          "internalType": "address"
        },
        {
          "name": "",
          "type": "address",
          "internalType": "address"
        },
        {
          "name": "",
          "type": "uint256",
          "internalType": "uint256"
        },
        {
          "name": "",
          "type": "uint256",
          "internalType": "uint256"
        },
        {
          "name": "",
          "type": "bytes",
          "internalType": "bytes"
        }
      ],
      "outputs": [
        {
          "name": "",
          "type": "bytes4",
          "internalType": "bytes4"
        }
      ],
      "stateMutability": "nonpayable"
    },
    {
      "type": "function",
      "name": "onERC721Received",
      "inputs": [
        {
          "name": "",
          "type": "address",
          "internalType": "address"
        },
        {
          "name": "",
          "type": "address",
          "internalType": "address"
        },
        {
          "name": "tokenId",
          "type": "uint256",
          "internalType": "uint256"
        },
        {
          "name": "",
          "type": "bytes",
          "internalType": "bytes"
        }
      ],
      "outputs": [
        {
          "name": "",
          "type": "bytes4",
          "internalType": "bytes4"
        }
      ],
      "stateMutability": "nonpayable"
    },
    {
      "type": "function",
      "name": "overrides",
      "inputs": [
        {
          "name": "",
          "type": "address",
          "internalType": "address"
        },
        {
          "name": "",
          "type": "bytes4",
          "internalType": "bytes4"
        }
      ],
      "outputs": [
        {
          "name": "",
          "type": "address",
          "internalType": "address"
        }
      ],
      "stateMutability": "view"
    },
    {
      "type": "function",
      "name": "owner",
      "inputs": [],
      "outputs": [
        {
          "name": "",
          "type": "address",
          "internalType": "address"
        }
      ],
      "stateMutability": "view"
    },
    {
      "type": "function",
      "name": "permissions",
      "inputs": [
        {
          "name": "",
          "type": "address",
          "internalType": "address"
        },
        {
          "name": "",
          "type": "address",
          "internalType": "address"
        }
      ],
      "outputs": [
        {
          "name": "",
          "type": "bool",
          "internalType": "bool"
        }
      ],
      "stateMutability": "view"
    },
    {
      "type": "function",
      "name": "proxiableUUID",
      "inputs": [],
      "outputs": [
        {
          "name": "",
          "type": "bytes32",
          "internalType": "bytes32"
        }
      ],
      "stateMutability": "view"
    },
    {
      "type": "function",
      "name": "removeGardenOperator",
      "inputs": [
        {
          "name": "operator",
          "type": "address",
          "internalType": "address"
        }
      ],
      "outputs": [],
      "stateMutability": "nonpayable"
    },
    {
      "type": "function",
      "name": "removeGardener",
      "inputs": [
        {
          "name": "gardener",
          "type": "address",
          "internalType": "address"
        }
      ],
      "outputs": [],
      "stateMutability": "nonpayable"
    },
    {
      "type": "function",
      "name": "revokeInvite",
      "inputs": [
        {
          "name": "inviteCode",
          "type": "bytes32",
          "internalType": "bytes32"
        }
      ],
      "outputs": [],
      "stateMutability": "nonpayable"
    },
    {
      "type": "function",
      "name": "setOverrides",
      "inputs": [
        {
          "name": "selectors",
          "type": "bytes4[]",
          "internalType": "bytes4[]"
        },
        {
          "name": "implementations",
          "type": "address[]",
          "internalType": "address[]"
        }
      ],
      "outputs": [],
      "stateMutability": "nonpayable"
    },
    {
      "type": "function",
      "name": "setPermissions",
      "inputs": [
        {
          "name": "callers",
          "type": "address[]",
          "internalType": "address[]"
        },
        {
          "name": "_permissions",
          "type": "bool[]",
          "internalType": "bool[]"
        }
      ],
      "outputs": [],
      "stateMutability": "nonpayable"
    },
    {
      "type": "function",
      "name": "state",
      "inputs": [],
      "outputs": [
        {
          "name": "",
          "type": "uint256",
          "internalType": "uint256"
        }
      ],
      "stateMutability": "view"
    },
    {
      "type": "function",
      "name": "supportsInterface",
      "inputs": [
        {
          "name": "interfaceId",
          "type": "bytes4",
          "internalType": "bytes4"
        }
      ],
      "outputs": [
        {
          "name": "",
          "type": "bool",
          "internalType": "bool"
        }
      ],
      "stateMutability": "view"
    },
    {
      "type": "function",
      "name": "token",
      "inputs": [],
      "outputs": [
        {
          "name": "chainId",
          "type": "uint256",
          "internalType": "uint256"
        },
        {
          "name": "tokenContract",
          "type": "address",
          "internalType": "address"
        },
        {
          "name": "tokenId",
          "type": "uint256",
          "internalType": "uint256"
        }
      ],
      "stateMutability": "view"
    },
    {
      "type": "function",
      "name": "updateDescription",
      "inputs": [
        {
          "name": "_description",
          "type": "string",
          "internalType": "string"
        }
      ],
      "outputs": [],
      "stateMutability": "nonpayable"
    },
    {
      "type": "function",
      "name": "updateName",
      "inputs": [
        {
          "name": "_name",
          "type": "string",
          "internalType": "string"
        }
      ],
      "outputs": [],
      "stateMutability": "nonpayable"
    },
    {
      "type": "function",
      "name": "upgradeTo",
      "inputs": [
        {
          "name": "newImplementation",
          "type": "address",
          "internalType": "address"
        }
      ],
      "outputs": [],
      "stateMutability": "nonpayable"
    },
    {
      "type": "function",
      "name": "upgradeToAndCall",
      "inputs": [
        {
          "name": "newImplementation",
          "type": "address",
          "internalType": "address"
        },
        {
          "name": "data",
          "type": "bytes",
          "internalType": "bytes"
        }
      ],
      "outputs": [],
      "stateMutability": "payable"
    },
    {
      "type": "function",
      "name": "validateUserOp",
      "inputs": [
        {
          "name": "userOp",
          "type": "tuple",
          "internalType": "struct UserOperation",
          "components": [
            {
              "name": "sender",
              "type": "address",
              "internalType": "address"
            },
            {
              "name": "nonce",
              "type": "uint256",
              "internalType": "uint256"
            },
            {
              "name": "initCode",
              "type": "bytes",
              "internalType": "bytes"
            },
            {
              "name": "callData",
              "type": "bytes",
              "internalType": "bytes"
            },
            {
              "name": "callGasLimit",
              "type": "uint256",
              "internalType": "uint256"
            },
            {
              "name": "verificationGasLimit",
              "type": "uint256",
              "internalType": "uint256"
            },
            {
              "name": "preVerificationGas",
              "type": "uint256",
              "internalType": "uint256"
            },
            {
              "name": "maxFeePerGas",
              "type": "uint256",
              "internalType": "uint256"
            },
            {
              "name": "maxPriorityFeePerGas",
              "type": "uint256",
              "internalType": "uint256"
            },
            {
              "name": "paymasterAndData",
              "type": "bytes",
              "internalType": "bytes"
            },
            {
              "name": "signature",
              "type": "bytes",
              "internalType": "bytes"
            }
          ]
        },
        {
          "name": "userOpHash",
          "type": "bytes32",
          "internalType": "bytes32"
        },
        {
          "name": "missingAccountFunds",
          "type": "uint256",
          "internalType": "uint256"
        }
      ],
      "outputs": [
        {
          "name": "validationData",
          "type": "uint256",
          "internalType": "uint256"
        }
      ],
      "stateMutability": "nonpayable"
    },
    {
      "type": "event",
      "name": "AdminChanged",
      "inputs": [
        {
          "name": "previousAdmin",
          "type": "address",
          "indexed": false,
          "internalType": "address"
        },
        {
          "name": "newAdmin",
          "type": "address",
          "indexed": false,
          "internalType": "address"
        }
      ],
      "anonymous": false
    },
    {
      "type": "event",
      "name": "BeaconUpgraded",
      "inputs": [
        {
          "name": "beacon",
          "type": "address",
          "indexed": true,
          "internalType": "address"
        }
      ],
      "anonymous": false
    },
    {
      "type": "event",
      "name": "DescriptionUpdated",
      "inputs": [
        {
          "name": "updater",
          "type": "address",
          "indexed": true,
          "internalType": "address"
        },
        {
          "name": "newDescription",
          "type": "string",
          "indexed": false,
          "internalType": "string"
        }
      ],
      "anonymous": false
    },
    {
      "type": "event",
      "name": "GardenOperatorAdded",
      "inputs": [
        {
          "name": "updater",
          "type": "address",
          "indexed": true,
          "internalType": "address"
        },
        {
          "name": "operator",
          "type": "address",
          "indexed": true,
          "internalType": "address"
        }
      ],
      "anonymous": false
    },
    {
      "type": "event",
      "name": "GardenOperatorRemoved",
      "inputs": [
        {
          "name": "updater",
          "type": "address",
          "indexed": true,
          "internalType": "address"
        },
        {
          "name": "operator",
          "type": "address",
          "indexed": true,
          "internalType": "address"
        }
      ],
      "anonymous": false
    },
    {
      "type": "event",
      "name": "GardenerAdded",
      "inputs": [
        {
          "name": "updater",
          "type": "address",
          "indexed": true,
          "internalType": "address"
        },
        {
          "name": "gardener",
          "type": "address",
          "indexed": true,
          "internalType": "address"
        }
      ],
      "anonymous": false
    },
    {
      "type": "event",
      "name": "GardenerRemoved",
      "inputs": [
        {
          "name": "updater",
          "type": "address",
          "indexed": true,
          "internalType": "address"
        },
        {
          "name": "gardener",
          "type": "address",
          "indexed": true,
          "internalType": "address"
        }
      ],
      "anonymous": false
    },
    {
      "type": "event",
      "name": "Initialized",
      "inputs": [
        {
          "name": "version",
          "type": "uint8",
          "indexed": false,
          "internalType": "uint8"
        }
      ],
      "anonymous": false
    },
    {
      "type": "event",
      "name": "InviteCreated",
      "inputs": [
        {
          "name": "inviteCode",
          "type": "bytes32",
          "indexed": true,
          "internalType": "bytes32"
        },
        {
          "name": "garden",
          "type": "address",
          "indexed": true,
          "internalType": "address"
        },
        {
          "name": "creator",
          "type": "address",
          "indexed": true,
          "internalType": "address"
        },
        {
          "name": "expiry",
          "type": "uint256",
          "indexed": false,
          "internalType": "uint256"
        }
      ],
      "anonymous": false
    },
    {
      "type": "event",
      "name": "InviteRevoked",
      "inputs": [
        {
          "name": "inviteCode",
          "type": "bytes32",
          "indexed": true,
          "internalType": "bytes32"
        },
        {
          "name": "garden",
          "type": "address",
          "indexed": true,
          "internalType": "address"
        }
      ],
      "anonymous": false
    },
    {
      "type": "event",
      "name": "InviteUsed",
      "inputs": [
        {
          "name": "inviteCode",
          "type": "bytes32",
          "indexed": true,
          "internalType": "bytes32"
        },
        {
          "name": "garden",
          "type": "address",
          "indexed": true,
          "internalType": "address"
        },
        {
          "name": "user",
          "type": "address",
          "indexed": true,
          "internalType": "address"
        }
      ],
      "anonymous": false
    },
    {
      "type": "event",
      "name": "LockUpdated",
      "inputs": [
        {
          "name": "lockedUntil",
          "type": "uint256",
          "indexed": false,
          "internalType": "uint256"
        }
      ],
      "anonymous": false
    },
    {
      "type": "event",
      "name": "NameUpdated",
      "inputs": [
        {
          "name": "updater",
          "type": "address",
          "indexed": true,
          "internalType": "address"
        },
        {
          "name": "newName",
          "type": "string",
          "indexed": false,
          "internalType": "string"
        }
      ],
      "anonymous": false
    },
    {
      "type": "event",
      "name": "OverrideUpdated",
      "inputs": [
        {
          "name": "owner",
          "type": "address",
          "indexed": false,
          "internalType": "address"
        },
        {
          "name": "selector",
          "type": "bytes4",
          "indexed": false,
          "internalType": "bytes4"
        },
        {
          "name": "implementation",
          "type": "address",
          "indexed": false,
          "internalType": "address"
        }
      ],
      "anonymous": false
    },
    {
      "type": "event",
      "name": "PermissionUpdated",
      "inputs": [
        {
          "name": "owner",
          "type": "address",
          "indexed": false,
          "internalType": "address"
        },
        {
          "name": "caller",
          "type": "address",
          "indexed": false,
          "internalType": "address"
        },
        {
          "name": "hasPermission",
          "type": "bool",
          "indexed": false,
          "internalType": "bool"
        }
      ],
      "anonymous": false
    },
    {
      "type": "event",
      "name": "Upgraded",
      "inputs": [
        {
          "name": "implementation",
          "type": "address",
          "indexed": true,
          "internalType": "address"
        }
      ],
      "anonymous": false
    },
    {
      "type": "error",
      "name": "AccountLocked",
      "inputs": []
    },
    {
      "type": "error",
      "name": "AlreadyGardener",
      "inputs": []
    },
    {
      "type": "error",
      "name": "ContractCreationFailed",
      "inputs": []
    },
    {
      "type": "error",
      "name": "ExceedsMaxLockTime",
      "inputs": []
    },
    {
      "type": "error",
      "name": "InvalidAccountProof",
      "inputs": []
    },
    {
      "type": "error",
      "name": "InvalidERC6551Registry",
      "inputs": []
    },
    {
      "type": "error",
      "name": "InvalidEntryPoint",
      "inputs": []
    },
    {
      "type": "error",
      "name": "InvalidExpiry",
      "inputs": []
    },
    {
      "type": "error",
      "name": "InvalidImplementation",
      "inputs": []
    },
    {
      "type": "error",
      "name": "InvalidInput",
      "inputs": []
    },
    {
      "type": "error",
      "name": "InvalidInvite",
      "inputs": []
    },
    {
      "type": "error",
      "name": "InvalidMulticallForwarder",
      "inputs": []
    },
    {
      "type": "error",
      "name": "InvalidOperation",
      "inputs": []
    },
    {
      "type": "error",
      "name": "InviteAlreadyExists",
      "inputs": []
    },
    {
      "type": "error",
      "name": "InviteAlreadyUsed",
      "inputs": []
    },
    {
      "type": "error",
      "name": "InviteExpired",
      "inputs": []
    },
    {
      "type": "error",
      "name": "NotAuthorized",
      "inputs": []
    },
    {
      "type": "error",
      "name": "NotGardenOperator",
      "inputs": []
    },
    {
      "type": "error",
      "name": "NotGardenOwner",
      "inputs": []
    },
    {
      "type": "error",
      "name": "OwnershipCycle",
      "inputs": []
    }
  ],
  "bytecode": {
    "object": "0x6101403461016b57601f614d6838819003918201601f1916830191906001600160401b0383118484101761016f57816080928592604095865283398101031261016b5761004b82610183565b61005760208401610183565b61006e6060610067858701610183565b9501610183565b936001600160a01b03928316801561015a576080523060a0528281161561014a5760c05260e08190528116156101395761010092168252610120903082525190614bd092836101988439608051838181610e1801528181611f3d0152818161216e0152613d0f015260a051838181612aaf0152614483015260c0518381816105ea01528181612ad001526144a5015260e0518381816115af0152818161465f0152614ac5015251828181613e3f01526140d3015251818181610c38015281816111bb01526114c50152f35b815163754c753360e11b8152600490fd5b83516246a29560e81b8152600490fd5b8451632039d3c960e01b8152600490fd5b5f80fd5b634e487b7160e01b5f52604160045260245ffd5b51906001600160a01b038216820361016b5756fe60806040526004361015610026575b361561001e5761001c6139cd565b005b61001c6139cd565b5f3560e01c806301ffc9a714610365578063039721b114610360578063056d5afe1461035b57806306fdde0314610356578063150b7a02146103515780631626ba7e1461034c5780631e2eaeaf146103475780631f6e45e3146103425780631f9838b51461033d5780631fb1ecf01461033857806329aa16171461033357806334715fb11461032e5780633659cfe6146103295780633a871cdd146103245780633c413e3f1461031f57806343629a731461031a57806345a24e3e1461031557806347f5fddd146103105780634f1ef2861461030b578063516f279e146103065780635194544714610301578063523e3260146102fc57806352d1902d146102f7578063572b6c05146102f25780635d63d2bd146102ed57806364d3a3e8146102e85780637284e416146102e35780637597bc7c146102de5780637690fb64146102d95780637a8f7356146102d45780637aeb5427146102cf57806384da92a7146102ca5780638da5cb5b146102c557806394def29d146102c0578063a4e2d634146102bb578063adbce85e146102b6578063b0d691fe146102b1578063b709467c146102ac578063bc197c81146102a7578063c19d93fb146102a2578063ce0617ec1461029d578063d087d28814610298578063dd46706414610293578063e735b48a1461028e578063eaff6dc914610289578063ee9c605414610284578063eeb970571461027f578063eed9df741461027a578063f23a6e6114610275578063f2f0e5e114610270578063f58f71731461026b5763fc0c546a0361000e576127a8565b612779565b612679565b6125ff565b61257b565b6124fa565b61247e565b6123d0565b612297565b6121e1565b61211c565b612100565b6120e3565b61202a565b611f61565b611f1e565b611e95565b611e77565b611dd2565b611db5565b611c0b565b611a0f565b6118a3565b611879565b611838565b611793565b611764565b6115d6565b611580565b6114ab565b611462565b6113dd565b611338565b611176565b6110b1565b611061565b610f7a565b610ec6565b610dd9565b610c0f565b610bb4565b610b8b565b610afd565b610a8c565b610a4b565b610a2c565b6109c3565b6108b3565b610746565b6105cb565b610445565b610398565b7fffffffff0000000000000000000000000000000000000000000000000000000081160361039457565b5f80fd5b346103945760206003193601126103945760206103bf6004356103ba8161036a565b6127e0565b6040519015158152f35b9181601f840112156103945782359167ffffffffffffffff8311610394576020808501948460051b01011161039457565b60406003198201126103945767ffffffffffffffff916004358381116103945782610427916004016103c9565b9390939260243591821161039457610441916004016103c9565b9091565b3461039457610453366103fa565b929061046e6104696104636138f6565b916143cf565b614480565b6001600160a01b03811680156105a15733036105a15761048c613954565b838503610577575f5b84811061049e57005b8061050f6104b76104b26001948a88612999565b6129b8565b6104fd6104d5866001600160a01b03165f52600260205260405f2090565b6104e86104e3868c8c612999565b6129c2565b6001600160a01b03165f5260205260405f2090565b9060ff60ff1983541691151516179055565b7f394777a58092892d136a90c4bb7e4350c72ac50fba6a0208128677f36527dcf561053e6104e3838989612999565b61054c6104b2848b89612999565b604080516001600160a01b03888116825293909316602084015290151590820152606090a101610495565b60046040517fb4fa3fb3000000000000000000000000000000000000000000000000000000008152fd5b60046040517fea8e4eb5000000000000000000000000000000000000000000000000000000008152fd5b34610394575f6003193601126103945760206040516001600160a01b037f0000000000000000000000000000000000000000000000000000000000000000168152f35b90600182811c92168015610655575b602083101461062857565b7f4e487b71000000000000000000000000000000000000000000000000000000005f52602260045260245ffd5b91607f169161061d565b7f4e487b71000000000000000000000000000000000000000000000000000000005f52604160045260245ffd5b6020810190811067ffffffffffffffff8211176106a857604052565b61065f565b6060810190811067ffffffffffffffff8211176106a857604052565b90601f601f19910116810190811067ffffffffffffffff8211176106a857604052565b5f5b8381106106fd5750505f910152565b81810151838201526020016106ee565b90601f19601f60209361072b815180928187528780880191016106ec565b0116010190565b90602061074392818152019061070d565b90565b34610394575f600319360112610394576040515f6005546107668161060e565b808452906020906001908181169081156107fc57506001146107a3575b61079f85610793818703826106c9565b60405191829182610732565b0390f35b60055f90815293507f036b6384b5eca791c62761152d0c79bb0604c104a5fb6f4eb0703f3154bb3db05b8385106107e9575050505081016020016107938261079f610783565b80548686018401529382019381016107cd565b86955061079f9693506020925061079394915060ff191682840152151560051b8201019293610783565b6001600160a01b0381160361039457565b6004359061084482610826565b565b67ffffffffffffffff81116106a857601f01601f191660200190565b92919261086e82610846565b9161087c60405193846106c9565b829481845281830111610394578281602093845f960137010152565b9080601f830112156103945781602061074393359101610862565b34610394576080600319360112610394576108cf600435610826565b6108da602435610826565b60643567ffffffffffffffff8111610394576108fa903690600401610898565b506001600160a01b0361090b6138f6565b921633149182610989575b508161097f575b506109555761092a6139cd565b6040517f150b7a02000000000000000000000000000000000000000000000000000000008152602090f35b60046040517fb79e3f3f000000000000000000000000000000000000000000000000000000008152fd5b905046145f61091d565b6044351491505f610916565b9181601f840112156103945782359167ffffffffffffffff8311610394576020838186019501011161039457565b346103945760406003193601126103945760243567ffffffffffffffff811161039457610a026109f96020923690600401610995565b906004356129cc565b7fffffffff0000000000000000000000000000000000000000000000000000000060405191168152f35b3461039457602060031936011261039457602060043554604051908152f35b34610394576020600319360112610394576001600160a01b03600435610a7081610826565b165f526009602052602060ff60405f2054166040519015158152f35b3461039457604060031936011261039457602060ff610ae6600435610ab081610826565b6001600160a01b0360243591610ac583610826565b165f526002845260405f20906001600160a01b03165f5260205260405f2090565b54166040519015158152f35b60ff81160361039457565b60a060031936011261039457600435610b1581610826565b67ffffffffffffffff60443581811161039457610b36903690600401610995565b919092606435610b4581610af2565b6084359383851161039457366023860112156103945784600401359384116103945736602460608602870101116103945761079f95602461079396019360243590612a48565b34610394575f6003193601126103945760206001600160a01b0360045460101c16604051908152f35b346103945760606003193601126103945760443567ffffffffffffffff811161039457610bfe610bea6020923690600401610995565b90610bf361401d565b602435600435614037565b6001600160a01b0360405191168152f35b3461039457602060031936011261039457600435610c2c81610826565b6001600160a01b0390817f00000000000000000000000000000000000000000000000000000000000000001691610c6583301415612ca2565b610c947f360894a13ba1a3210667c828492db98dca3e2076cc3735a920a3ca505d382bbc938285541614612d13565b610c9d82614089565b60405190610caa8261068c565b5f82527f4910fdfa16fed3260ed0e7147f7cc6da11a60208b5b9406d12a635614ffd91435460ff1615610ce357505061001c91506147e6565b6020600491604094939451928380927f52d1902d00000000000000000000000000000000000000000000000000000000825286165afa5f9181610da8575b50610d955760405162461bcd60e51b815260206004820152602e60248201527f45524331393637557067726164653a206e657720696d706c656d656e7461746960448201527f6f6e206973206e6f7420555550530000000000000000000000000000000000006064820152608490fd5b0390fd5b61001c93610da39114614175565b614795565b610dcb91925060203d602011610dd2575b610dc381836106c9565b810190614166565b905f610d21565b503d610db9565b3461039457600319606081360112610394576004359067ffffffffffffffff821161039457610160908236030112610394576044356001600160a01b037f0000000000000000000000000000000000000000000000000000000000000000163303610e8257610e5161079f92602435906004016141e6565b9080610e69575b506040519081529081906020820190565b5f80808093335f19f150610e7b6138c7565b505f610e58565b606460405162461bcd60e51b815260206004820152601c60248201527f6163636f756e743a206e6f742066726f6d20456e747279506f696e74000000006044820152fd5b34610394576020600319360112610394576004355f52600c60205260206001600160a01b0360405f205416604051908152f35b6020808201906020835283518092526040830192602060408460051b8301019501935f915b848310610f2e5750505050505090565b9091929394958480610f6a837fffffffffffffffffffffffffffffffffffffffffffffffffffffffffffffffc086600196030187528a5161070d565b9801930193019194939290610f1e565b6020806003193601126103945760043567ffffffffffffffff811161039457610fa79036906004016103c9565b91610fbf610fbb610fb6614655565b613d01565b1590565b6105a157610fcb613954565b610fd483612dc1565b925f5b818110610fec576040518061079f8782610ef9565b806110456110006104e36001948689612e09565b84878761100e868484612e09565b013561103f606061103988611031611027828989612e09565b6040810190612e49565b979096612e09565b01612e9a565b93613ee3565b61104f8288612ea4565b5261105a8187612ea4565b5001610fd7565b346103945760406003193601126103945760243567ffffffffffffffff811161039457610bfe6110a961109a6020933690600401610995565b6110a261401d565b3691610862565b600435614236565b346103945760e0600319360112610394576110ca610837565b6024359067ffffffffffffffff90818311610394576110ee60049336908501610995565b9092604435818111610394576111079036908701610995565b906064358381116103945761111f9036908901610995565b90608435858111610394576111379036908b01610995565b94909360a435878111610394576111519036908d016103c9565b98909760c4359081116103945761001c9c61116e913691016103c9565b9b909a612eb8565b60406003193601126103945760043561118e81610826565b60243567ffffffffffffffff8111610394576111ae903690600401610898565b906001600160a01b0391827f000000000000000000000000000000000000000000000000000000000000000016926111e884301415612ca2565b6112177f360894a13ba1a3210667c828492db98dca3e2076cc3735a920a3ca505d382bbc948286541614612d13565b61122083614089565b7f4910fdfa16fed3260ed0e7147f7cc6da11a60208b5b9406d12a635614ffd91435460ff161561125657505061001c91506147e6565b6020600491604094939451928380927f52d1902d00000000000000000000000000000000000000000000000000000000825286165afa5f9181611317575b506113045760405162461bcd60e51b815260206004820152602e60248201527f45524331393637557067726164653a206e657720696d706c656d656e7461746960448201527f6f6e206973206e6f7420555550530000000000000000000000000000000000006064820152608490fd5b61001c936113129114614175565b6146c5565b61133191925060203d602011610dd257610dc381836106c9565b905f611294565b34610394575f600319360112610394576040515f6007546113588161060e565b808452906020906001908181169081156107fc57506001146113845761079f85610793818703826106c9565b60075f90815293507fa66cc928b5edb82af9bd49922954155ab7b0942694bea4ce44661d9a8736c6885b8385106113ca575050505081016020016107938261079f610783565b80548686018401529382019381016113ae565b6080600319360112610394576004356113f581610826565b60443567ffffffffffffffff811161039457611415903690600401610995565b6064929192359061142582610af2565b611430610fb6614655565b156105a15761079f9361144e93611445613954565b60243590613ee3565b60405191829160208352602083019061070d565b346103945760406003193601126103945760043561147f81610826565b60243567ffffffffffffffff8111610394576020916114a5610a02923690600401610995565b91613800565b34610394575f600319360112610394576001600160a01b037f0000000000000000000000000000000000000000000000000000000000000000163003611516576040517f360894a13ba1a3210667c828492db98dca3e2076cc3735a920a3ca505d382bbc8152602090f35b608460405162461bcd60e51b815260206004820152603860248201527f555550535570677261646561626c653a206d757374206e6f742062652063616c60448201527f6c6564207468726f7567682064656c656761746563616c6c00000000000000006064820152fd5b3461039457602060031936011261039457602060043561159f81610826565b6001600160a01b039060405191807f0000000000000000000000000000000000000000000000000000000000000000169116148152f35b3461039457604080600319360112610394576024356004356001600160a01b036115fe614655565b1692835f52600a60205260ff815f2054161561173b57611630611629835f52600b60205260405f2090565b5460ff1690565b61171257428311156116e9577f6a61818344d3709d4d03f2b684894304fad101ae17d1a71d3b301e27df0f9cd690611680611673845f52600b60205260405f2090565b600160ff19825416179055565b6116c930611696855f52600c60205260405f2090565b906001600160a01b03167fffffffffffffffffffffffff0000000000000000000000000000000000000000825416179055565b836116dc845f52600d60205260405f2090565b55519283523092602090a4005b600490517fd36c8500000000000000000000000000000000000000000000000000000000008152fd5b600490517ffdce3db6000000000000000000000000000000000000000000000000000000008152fd5b600490517ff3aeae14000000000000000000000000000000000000000000000000000000008152fd5b34610394576020600319360112610394576004355f52600e602052602060ff60405f2054166040519015158152f35b34610394575f600319360112610394576040515f6006546117b38161060e565b808452906020906001908181169081156107fc57506001146117df5761079f85610793818703826106c9565b60065f90815293507ff652222313e28459528d920b65115c16c04f3efc82aaedc97be59f3f377c0d3f5b838510611825575050505081016020016107938261079f610783565b8054868601840152938201938101611809565b34610394576020600319360112610394576001600160a01b0360043561185d81610826565b165f52600a602052602060ff60405f2054166040519015158152f35b34610394576020600319360112610394576004355f52600d602052602060405f2054604051908152f35b34610394576118b1366103fa565b92906118c16104696104636138f6565b6001600160a01b03811680156105a15733036105a1576118df613954565b6118e8306142ae565b3b15611a01575b838503610577575f5b84811061190157005b806119746119156104e36001948a88612999565b611696611933866001600160a01b03165f52600160205260405f2090565b611946611941868c8c612999565b613842565b7fffffffff00000000000000000000000000000000000000000000000000000000165f5260205260405f2090565b7f2c722487e90aca38ec1b074c3403210bd2bfb769b4da7f12f7bf0b9e37517c186119a3611941838989612999565b6119b16104e3848b89612999565b604080516001600160a01b0380891682527fffffffff000000000000000000000000000000000000000000000000000000009094166020820152929091169082015280606081010390a1016118f8565b611a0a306142fd565b6118ef565b3461039457602060031936011261039457600435611a3b610fbb611629835f52600b60205260405f2090565b611ba557611a54611629825f52600e60205260405f2090565b611b7b57611a6a815f52600d60205260405f2090565b544211611b5157611a79614655565b611a97611629826001600160a01b03165f52600960205260405f2090565b611b275780611ac26116736001600160a01b03936001600160a01b03165f52600960205260405f2090565b611ad7611673845f52600e60205260405f2090565b16809130907fa53075caa2d35f351445780598b4da0b5a132246d900ddf54c588a13843e357a5f80a4307fc0b9de905219d7679d6f05d6061fa6ef557a687d2c44c314b58bb793f5dba4945f80a3005b60046040517f42375a1e000000000000000000000000000000000000000000000000000000008152fd5b60046040517ff22988b4000000000000000000000000000000000000000000000000000000008152fd5b60046040517f4209eb7d000000000000000000000000000000000000000000000000000000008152fd5b60046040517fdb926eba000000000000000000000000000000000000000000000000000000008152fd5b6020600319820112610394576004359067ffffffffffffffff821161039457806023830112156103945781602461074393600401359101610862565b3461039457611c1936611bcf565b611c21614655565b5f604051611c2e8161068c565b52611c3881614250565b15611d8b57815167ffffffffffffffff81116106a857611c6281611c5d60055461060e565b613037565b602080601f8311600114611cdf575091611cba826001600160a01b03937f74321da206c1b9fa34367f7ece59ca49371dcd13820b9a5c3767ae1ecceed51a955f91611cd4575b505f198260011b9260031b1c19161790565b6005555b611ccf604051928392169482610732565b0390a2005b90508601515f611ca8565b60055f5290601f1983167f036b6384b5eca791c62761152d0c79bb0604c104a5fb6f4eb0703f3154bb3db0925f905b828210611d73575050927f74321da206c1b9fa34367f7ece59ca49371dcd13820b9a5c3767ae1ecceed51a9492600192826001600160a01b039610611d5b575b5050811b01600555611cbe565b8701515f1960f88460031b161c191690555f80611d4e565b80600185968294968b01518155019501930190611d0e565b60046040517fd8cae624000000000000000000000000000000000000000000000000000000008152fd5b34610394575f600319360112610394576020610bfe6104636138f6565b34610394575f600319360112610394576040515f600854611df28161060e565b808452906020906001908181169081156107fc5750600114611e1e5761079f85610793818703826106c9565b60085f90815293507ff3f7a9fe364faab93b216da50a3214154f22a0a2b415b23a84c8169e8b636ee35b838510611e64575050505081016020016107938261079f610783565b8054868601840152938201938101611e48565b34610394575f6003193601126103945760205f546040519042108152f35b3461039457602060031936011261039457600435611eb281610826565b611eba614655565b905f604051611ec88161068c565b52611ed282614250565b15611d8b576001600160a01b0380911691825f52600a60205260405f2060ff198154169055167fdd1e1c7c82ab1f3ed1b1656e8200309ebf9f682a74ce7737d3bfde87a7fecb085f80a3005b34610394575f6003193601126103945760206040516001600160a01b037f0000000000000000000000000000000000000000000000000000000000000000168152f35b3461039457606060031936011261039457600435611f7e81610826565b60443567ffffffffffffffff81116103945761079f91611fa861109a61144e933690600401610995565b9060243590614458565b67ffffffffffffffff81116106a85760051b60200190565b9080601f83011215610394576020908235611fe481611fb2565b93611ff260405195866106c9565b81855260208086019260051b82010192831161039457602001905b82821061201b575050505090565b8135815290830190830161200d565b346103945760a060031936011261039457612046600435610826565b612051602435610826565b67ffffffffffffffff60443581811161039457612072903690600401611fca565b506064358181116103945761208b903690600401611fca565b50608435908111610394576120a4903690600401610898565b5061079f6120b061384c565b6040517fffffffff0000000000000000000000000000000000000000000000000000000090911681529081906020820190565b34610394575f600319360112610394576020600354604051908152f35b34610394575f6003193601126103945760205f54604051908152f35b34610394575f600319360112610394576040517f35567e1a0000000000000000000000000000000000000000000000000000000081523060048201525f60248201526020816044816001600160a01b037f0000000000000000000000000000000000000000000000000000000000000000165afa80156121dc575f906121a8575b604051908152602090f35b506020813d6020116121d4575b816121c2602093836106c9565b810103126103945761079f905161219d565b3d91506121b5565b612a28565b34610394576020600319360112610394576004356001600160a01b0361220b6104696104636138f6565b1680156105a15733036105a157612221426138a5565b811161226d576122687fa7b24c66dd3269a292a60b3facdbb8f3e7557d1e19e64d99e0d6ee7250be63ad91612254613954565b805f55604051918291829190602083019252565b0390a1005b60046040517f0c0a7be8000000000000000000000000000000000000000000000000000000008152fd5b34610394576122a536611bcf565b805167ffffffffffffffff81116106a8576122ca816122c560065461060e565b6130a4565b602080601f831160011461234e575090806122f7925f9161234357505f198260011b9260031b1c19161790565b6006555b7f37cc8c6ced0cbc4d440fcfa810a2f09f40b8f0127c3656103edf26b3d93e0ec1611ccf61233661232a614655565b6001600160a01b031690565b9260405191829182610732565b90508301515f611ca8565b60065f5290601f1983167ff652222313e28459528d920b65115c16c04f3efc82aaedc97be59f3f377c0d3f925f905b8282106123b857505090836001949392106123a0575b5050811b016006556122fb565b8401515f1960f88460031b161c191690555f80612393565b80600185968294968a0151815501950193019061237d565b34610394576020600319360112610394576004356123ed81610826565b6001600160a01b03806123fe614655565b1691825f52600a60205260ff60405f20541615612454571690815f52600960205260405f20600160ff198254161790557fc0b9de905219d7679d6f05d6061fa6ef557a687d2c44c314b58bb793f5dba4945f80a3005b60046040517ff3aeae14000000000000000000000000000000000000000000000000000000008152fd5b3461039457604060031936011261039457602060043561249d81610826565b6124f06024356124ac8161036a565b6001600160a01b038093165f526001845260405f20907fffffffff00000000000000000000000000000000000000000000000000000000165f5260205260405f2090565b5416604051908152f35b346103945760206003193601126103945760043561251781610826565b6001600160a01b0380612528614655565b1691825f52600a60205260ff60405f20541615612454571690815f52600960205260405f2060ff1981541690557f8a44d725ac751003f7f644f7ce70382fa06f348023717d057b7aa5c8778770d25f80a3005b346103945760206003193601126103945760043561259881610826565b6001600160a01b03806125a9614655565b1691825f52600a60205260ff60405f20541615612454571690815f52600a60205260405f20600160ff198254161790557f06216f26a4a5b9c90aa5e1f990342de8fa80a0c447e3c6143fbaf0c7747edd715f80a3005b346103945760a06003193601126103945761261b600435610826565b612626602435610826565b60843567ffffffffffffffff811161039457612646903690600401610898565b5061264f6139cd565b60206040517ff23a6e61000000000000000000000000000000000000000000000000000000008152f35b34610394576020600319360112610394576004356001600160a01b0361269d614655565b165f52600a60205260ff60405f20541615612454576126ca610fbb611629835f52600b60205260405f2090565b611ba5576126e3611629825f52600e60205260405f2090565b611b7b576127066126fc825f52600b60205260405f2090565b60ff198154169055565b61274361271b825f52600c60205260405f2090565b7fffffffffffffffffffffffff00000000000000000000000000000000000000008154169055565b5f818152600d602052604081205530907f500a77955c5fae58d333c873b2292d09702958ccebbe7de55ac94818a3dc10d65f80a3005b34610394576020600319360112610394576004355f52600b602052602060ff60405f2054166040519015158152f35b34610394575f6003193601126103945760606001600160a01b036127ca6138f6565b9192906040519384521660208301526040820152f35b7fffffffff000000000000000000000000000000000000000000000000000000008091167f519454470000000000000000000000000000000000000000000000000000000081149081156128dc575b506128d657612897612859916104696128466138f6565b6001600160a01b039692939187946143cf565b165f52600160205260405f20905f35167fffffffff00000000000000000000000000000000000000000000000000000000165f5260205260405f2090565b5416806128a357505f90565b5f8091604051806128b481366138bb565b03915afa6128c06138c7565b90156128ce57602081519101f35b602081519101fd5b50600190565b7f6faff5f10000000000000000000000000000000000000000000000000000000081149150811561290f575b505f61282f565b7f4e2312e000000000000000000000000000000000000000000000000000000000811491508115612942575b505f612908565b7f01ffc9a7000000000000000000000000000000000000000000000000000000009150145f61293b565b7f4e487b71000000000000000000000000000000000000000000000000000000005f52603260045260245ffd5b91908110156129a95760051b0190565b61296c565b8015150361039457565b35610743816129ae565b3561074381610826565b906129d79291613b86565b6129df575f90565b7f1626ba7e0000000000000000000000000000000000000000000000000000000090565b91908110156129a9576060020190565b908160209103126103945751610743816129ae565b6040513d5f823e3d90fd5b90816020910312610394575161074381610826565b95949091929394612a57614655565b915f915b808310612a8657505050610fbb612a7191613d01565b6105a15761074394612a81613954565b613ee3565b909192612a94848385612a03565b90612aa1602083016129c2565b612af46040840135824686357f00000000000000000000000000000000000000000000000000000000000000007f0000000000000000000000000000000000000000000000000000000000000000613c79565b92813b15612b9d57833b612bf8575b604080517f6352211e00000000000000000000000000000000000000000000000000000000815291013560048201529190602090839060249082906001600160a01b03165afa5f9281612bc7575b50612b805760046040517f414b7494000000000000000000000000000000000000000000000000000000008152fd5b6001600160a01b03809116911603612b9d57926001019190612a5b565b60046040517f414b7494000000000000000000000000000000000000000000000000000000008152fd5b612bea91935060203d602011612bf1575b612be281836106c9565b810190612a33565b915f612b51565b503d612bd8565b6040517fa4e2d63400000000000000000000000000000000000000000000000000000000815260049060208183816001600160a01b038a165afa9081156121dc575f91612c73575b50612c4b5750612b03565b6040517f6315bfbb000000000000000000000000000000000000000000000000000000008152fd5b612c95915060203d602011612c9b575b612c8d81836106c9565b810190612a13565b5f612c40565b503d612c83565b15612ca957565b608460405162461bcd60e51b815260206004820152602c60248201527f46756e6374696f6e206d7573742062652063616c6c6564207468726f7567682060448201527f64656c656761746563616c6c00000000000000000000000000000000000000006064820152fd5b15612d1a57565b608460405162461bcd60e51b815260206004820152602c60248201527f46756e6374696f6e206d7573742062652063616c6c6564207468726f7567682060448201527f6163746976652070726f787900000000000000000000000000000000000000006064820152fd5b60405190612d918261068c565b5f8252565b6040519060a0820182811067ffffffffffffffff8211176106a8576040526080808352366020840137565b90612dcb82611fb2565b612dd860405191826106c9565b828152601f19612de88294611fb2565b01905f5b828110612df857505050565b806060602080938501015201612dec565b91908110156129a95760051b810135907fffffffffffffffffffffffffffffffffffffffffffffffffffffffffffffff8181360301821215610394570190565b9035907fffffffffffffffffffffffffffffffffffffffffffffffffffffffffffffffe181360301821215610394570180359067ffffffffffffffff82116103945760200191813603831361039457565b3561074381610af2565b80518210156129a95760209160051b010190565b9a98969492909160ff9c9a989694926004549d8e60081c1615809e819f613029575b8115613009575b5015612f9f57612f079c8e612efe600160ff196004541617600455565b612f695761356a565b612f0d57565b612f3a7fffffffffffffffffffffffffffffffffffffffffffffffffffffffffffff00ff60045416600455565b604051600181527f7f26b83ff96e1f2b6a682f133852f6798a09c465da95921460cefb384740249890602090a1565b612f9a6101007fffffffffffffffffffffffffffffffffffffffffffffffffffffffffffff00ff6004541617600455565b61356a565b608460405162461bcd60e51b815260206004820152602e60248201527f496e697469616c697a61626c653a20636f6e747261637420697320616c72656160448201527f647920696e697469616c697a65640000000000000000000000000000000000006064820152fd5b303b1591508161301b575b505f612ee1565b6001915060ff16145f613014565b600160ff8216109150612eda565b601f8111613043575050565b60055f527f036b6384b5eca791c62761152d0c79bb0604c104a5fb6f4eb0703f3154bb3db0906020601f840160051c8301931061309a575b601f0160051c01905b81811061308f575050565b5f8155600101613084565b909150819061307b565b601f81116130b0575050565b60065f527ff652222313e28459528d920b65115c16c04f3efc82aaedc97be59f3f377c0d3f906020601f840160051c83019310613107575b601f0160051c01905b8181106130fc575050565b5f81556001016130f1565b90915081906130e8565b601f811161311d575050565b60075f527fa66cc928b5edb82af9bd49922954155ab7b0942694bea4ce44661d9a8736c688906020601f840160051c83019310613174575b601f0160051c01905b818110613169575050565b5f815560010161315e565b9091508190613155565b601f811161318a575050565b60085f527ff3f7a9fe364faab93b216da50a3214154f22a0a2b415b23a84c8169e8b636ee3906020601f840160051c830193106131e1575b601f0160051c01905b8181106131d6575050565b5f81556001016131cb565b90915081906131c2565b919067ffffffffffffffff81116106a85761320b81611c5d60055461060e565b5f601f821160011461324857819061323893945f9261323d575b50505f198260011b9260031b1c19161790565b600555565b013590505f80613225565b60055f52601f198216937f036b6384b5eca791c62761152d0c79bb0604c104a5fb6f4eb0703f3154bb3db0915f5b8681106132ad5750836001959610613294575b505050811b01600555565b5f1960f88560031b161c199101351690555f8080613289565b90926020600181928686013581550194019101613276565b919067ffffffffffffffff81116106a8576132e5816122c560065461060e565b5f601f821160011461331657819061331193945f9261323d5750505f198260011b9260031b1c19161790565b600655565b60065f52601f198216937ff652222313e28459528d920b65115c16c04f3efc82aaedc97be59f3f377c0d3f915f5b86811061337b5750836001959610613362575b505050811b01600655565b5f1960f88560031b161c199101351690555f8080613357565b90926020600181928686013581550194019101613344565b919067ffffffffffffffff81116106a8576133b8816133b360075461060e565b613111565b5f601f82116001146133e95781906133e493945f9261323d5750505f198260011b9260031b1c19161790565b600755565b60075f52601f198216937fa66cc928b5edb82af9bd49922954155ab7b0942694bea4ce44661d9a8736c688915f5b86811061344e5750836001959610613435575b505050811b01600755565b5f1960f88560031b161c199101351690555f808061342a565b90926020600181928686013581550194019101613417565b919067ffffffffffffffff81116106a85761348b8161348660085461060e565b61317e565b5f601f82116001146134bc5781906134b793945f9261323d5750505f198260011b9260031b1c19161790565b600855565b60085f52601f198216937ff3f7a9fe364faab93b216da50a3214154f22a0a2b415b23a84c8169e8b636ee3915f5b8681106135215750836001959610613508575b505050811b01600855565b5f1960f88560031b161c199101351690555f80806134fd565b909260206001819286860135815501940191016134ea565b601f8260209493601f1993818652868601375f8582860101520116010190565b916020610743938181520191613539565b956135e994999a9c956135d584849e99946135d06135e4969d989d9c979c7fffffffffffffffffffff0000000000000000000000000000000000000000ffff75ffffffffffffffffffffffffffffffffffffffff00006004549260101b16911617600455565b6131eb565b6135df8b8b6132c5565b613393565b613466565b6135f1614655565b95613610611673886001600160a01b03165f52600960205260405f2090565b61362e611673886001600160a01b03165f52600a60205260405f2090565b6001600160a01b035f97169889975b818110613783575050505f5b81811061370a57505050927f74321da206c1b9fa34367f7ece59ca49371dcd13820b9a5c3767ae1ecceed51a7f37cc8c6ced0cbc4d440fcfa810a2f09f40b8f0127c3656103edf26b3d93e0ec19482966136a860405192839283613559565b0390a26136ba60405192839283613559565b0390a280807fc0b9de905219d7679d6f05d6061fa6ef557a687d2c44c314b58bb793f5dba4945f80a3807f06216f26a4a5b9c90aa5e1f990342de8fa80a0c447e3c6143fbaf0c7747edd715f80a3565b8293959794965061373f6116736137286104e3848660019798612999565b6001600160a01b03165f52600a60205260405f2090565b61375061232a6104e3838688612999565b897f06216f26a4a5b9c90aa5e1f990342de8fa80a0c447e3c6143fbaf0c7747edd715f80a3019087959396949291613649565b8293949597999698506137ba6116736137a36104e3848660019798612999565b6001600160a01b03165f52600960205260405f2090565b6137cb61232a6104e3838688612999565b8b7fc0b9de905219d7679d6f05d6061fa6ef557a687d2c44c314b58bb793f5dba4945f80a3019089979598969493929161363d565b9061381090613816933691610862565b50614250565b61381e575f90565b7f523e32600000000000000000000000000000000000000000000000000000000090565b356107438161036a565b6138546139cd565b7fbc197c810000000000000000000000000000000000000000000000000000000090565b7f4e487b71000000000000000000000000000000000000000000000000000000005f52601160045260245ffd5b906301e1338082018092116138b657565b613878565b90815f8237015f815290565b3d156138f1573d906138d882610846565b916138e660405193846106c9565b82523d5f602084013e565b606090565b604051906080820182811067ffffffffffffffff8211176106a85760405260608252602082016060604d82303c6060838051810103126103945751906001600160a01b03606060408501519461394b86610826565b01519293169190565b5f5442106139a35760035461399b61396a614abb565b61398d604093929351938492602084019687526040808501526060840191613539565b03601f1981018352826106c9565b519020600355565b60046040517f6315bfbb000000000000000000000000000000000000000000000000000000008152fd5b613a4a6139f86139e16104696104636138f6565b6001600160a01b03165f52600160205260405f2090565b7fffffffff000000000000000000000000000000000000000000000000000000005f35167fffffffff00000000000000000000000000000000000000000000000000000000165f5260205260405f2090565b546001600160a01b038116613a5c5750565b5f8091613a68306142ae565b9082604051613ac460488260208101957fffffffffffffffffffffffffffffffffffffffff000000000000000000000000809160601b16875236866034840137368201903360601b1660348201520360288101845201826106c9565b51925af16128c06138c7565b90604010156129a95760400190565b906020116103945790602090565b906040116103945760200190602090565b90929192836020116103945783116103945760200191601f190190565b90939293848311610394578411610394578101920390565b359060208110613b41575090565b5f199060200360031b1b1690565b60051115613b5957565b7f4e487b71000000000000000000000000000000000000000000000000000000005f52602160045260245ffd5b909160ff613bc6613bc0613b9a8487613ad0565b357fff000000000000000000000000000000000000000000000000000000000000001690565b60f81c90565b1615613bff57613be192613bdb913691610862565b90614624565b613bea81613b4f565b613bfa5761074390613810612d84565b505f90565b90613c1961232a61232a613c138587613adf565b90613b33565b91613c22612d84565b50613c2f610fbb84614250565b80613c66575b613c5e576110a2818581613c52613c13613c58966107439a613aed565b91613b1b565b91614590565b505050505f90565b50306001600160a01b0384161415613c35565b9190605595936001600160a01b0360e2966040519660b788015216609786015260778501528160578501526e5af43d82803e903d91602b57fd5bf360378501526028840152733d60ad80600a3d3981f3363d3d373d3d3d363d73601484015260b7835260d7830190816040528351602085012061011785015260f7840152520160ff81532090565b6001600160a01b03808216817f0000000000000000000000000000000000000000000000000000000000000000168114613ea157613d3d6138f6565b90468303613dbe575b613d4f926143cf565b8281168214613db557613d6190614480565b91821614613dae57613da191613d8b611629926001600160a01b03165f52600260205260405f2090565b906001600160a01b03165f5260205260405f2090565b613da9575f90565b600190565b5050600190565b50505050600190565b613dfa613dc9614655565b7fffffffffffffffffffffffffeeeeffffffffffffffffffffffffffffffffeeef6001600160a01b03809216011690565b85163014613e77576040517f672657ca0000000000000000000000000000000000000000000000000000000081526001600160a01b03871660048201526020816024817f00000000000000000000000000000000000000000000000000000000000000008a165afa9081156121dc575f91613e82575b5015613d46575b505050505050600190565b613e9b915060203d602011612c9b57612c8d81836106c9565b5f613e70565b505050600190565b909280927fffffffffffffffffffffffffffffffffffffffff00000000000000000000000060149560601b1683528483013701015f815290565b9092919360ff169081156140045760018214613fb3575060028114613f9657600314613f335760046040517f398d4d32000000000000000000000000000000000000000000000000000000008152fd5b8261074392613f568380613f50613c13613f5e9761398d9a613adf565b94613afe565b929091614037565b604051928391602083017fffffffffffffffffffffffffffffffffffffffff00000000000000000000000060149260601b1681520190565b5061074391613fad61398d94613f5e933691610862565b90614236565b6107439493929150613ff190613fe3613fcb306142ae565b93843b15613ff6575b60405196879360208501613ea9565b03601f1981018552846106c9565b614458565b613fff306142fd565b613fd4565b9291614017915093610743943691610862565b91614458565b6001600160a01b0361402e306142ae565b1633036105a157565b9161404491933691610862565b9060208251920190f5906001600160a01b0382161561405f57565b60046040517fa28c2473000000000000000000000000000000000000000000000000000000008152fd5b6040517f1506fd4d0000000000000000000000000000000000000000000000000000000081526001600160a01b039091166004820152602081806024810103816001600160a01b037f0000000000000000000000000000000000000000000000000000000000000000165afa9081156121dc575f91614147575b501561411d57614117610fbb610fb6614655565b6105a157565b60046040517f68155f9a000000000000000000000000000000000000000000000000000000008152fd5b614160915060203d602011612c9b57612c8d81836106c9565b5f614103565b90816020910312610394575190565b1561417c57565b608460405162461bcd60e51b815260206004820152602960248201527f45524331393637557067726164653a20756e737570706f727465642070726f7860448201527f6961626c655555494400000000000000000000000000000000000000000000006064820152fd5b614229917f19457468657265756d205369676e6564204d6573736167653a0a3332000000005f52601c52614223603c5f2091610140810190612e49565b91613b86565b61423257600190565b5f90565b60208251920190f0906001600160a01b0382161561405f57565b61425b6104636138f6565b6001600160a01b03808316918181168314613db55761427990614480565b16809114613dae5760ff916142a9915f52600260205260405f20906001600160a01b03165f5260205260405f2090565b541690565b600b6142bb6055926148ab565b602081519101206040519060408201527f97f795a08410e77dc9dbbaba3915f17c601e45642518dd578bd440d8775bfee460208201523081520160ff81532090565b614306906148ab565b80511561438b577f97f795a08410e77dc9dbbaba3915f17c601e45642518dd578bd440d8775bfee48160206001600160a01b03935191015ff5161561434757565b606460405162461bcd60e51b815260206004820152601960248201527f437265617465323a204661696c6564206f6e206465706c6f79000000000000006044820152fd5b606460405162461bcd60e51b815260206004820152602060248201527f437265617465323a2062797465636f6465206c656e677468206973207a65726f6044820152fd5b460361445257803b15614452576040517f6352211e0000000000000000000000000000000000000000000000000000000081526004810192909252602090829060249082906001600160a01b03165afa5f9181614431575b5061074357505f90565b61444b91925060203d602011612bf157612be281836106c9565b905f614427565b50505f90565b915f928392602083519301915af19061446f6138c7565b911561447757565b50602081519101fd5b907f0000000000000000000000000000000000000000000000000000000000000000917f00000000000000000000000000000000000000000000000000000000000000005b6144d08185846149b8565b1561458b576001600160a01b0360408051937ffc0c546a000000000000000000000000000000000000000000000000000000008552846004816060958694165afa9384156121dc575f915f935f9661453b575b50505092614534916144d0946143cf565b91506144c5565b92509250809450813d8311614584575b61455581836106c9565b810103126103945782614534916144d094519060208301519261457784610826565b0151909190948193614523565b503d61454b565b509150565b5f91929082916040516145e08161398d60208201947f1626ba7e00000000000000000000000000000000000000000000000000000000998a8752602484015260406044840152606483019061070d565b51915afa906145ed6138c7565b82614616575b826145fd57505090565b61461291925060208082518301019101614166565b1490565b9150602082511015916145f3565b9060418151145f1461464c5761044191602082015190606060408401519301515f1a90614a40565b50505f90600290565b6001600160a01b037f0000000000000000000000000000000000000000000000000000000000000000163314806146ba575b156146b6577fffffffffffffffffffffffffffffffffffffffffffffffffffffffffffffffec36013560601c90565b3390565b506014361015614687565b906146cf826147e6565b6001600160a01b0382167fbc7cd75a20ee27fd9adebab32041f755214dbc6bffa90cc0225b39da2e5c2d3b5f80a280511580159061478d575b614710575050565b61478a915f8060405193614723856106ad565b602785527f416464726573733a206c6f772d6c6576656c2064656c65676174652063616c6c60208601527f206661696c6564000000000000000000000000000000000000000000000000006040860152602081519101845af46147846138c7565b91614b33565b50565b506001614708565b9061479f826147e6565b6001600160a01b0382167fbc7cd75a20ee27fd9adebab32041f755214dbc6bffa90cc0225b39da2e5c2d3b5f80a28051158015906147df57614710575050565b505f614708565b803b15614841576001600160a01b037f360894a13ba1a3210667c828492db98dca3e2076cc3735a920a3ca505d382bbc91167fffffffffffffffffffffffff0000000000000000000000000000000000000000825416179055565b608460405162461bcd60e51b815260206004820152602d60248201527f455243313936373a206e657720696d706c656d656e746174696f6e206973206e60448201527f6f74206120636f6e7472616374000000000000000000000000000000000000006064820152fd5b60409081518281019080821067ffffffffffffffff8311176106a85783610743936034936149919652600e83526149a9602084017f604380600d600039806000f3fe7300000000000000000000000000000000000081527fffffffffffffffffffffffffffffffffffffffff00000000000000000000000084519161492f836106ad565b602e835260208301957f3314601d573d3dfd5b363d3d373d3d6014360360143d5160601c5af43d60008087527f3e80603e573d6000fd5b3d6000f30000000000000000000000000000000000008185015251998a9751809260208a01906106ec565b86019360601b166020840152518093868401906106ec565b010360148101845201826106c9565b9160ad833b03614a39576014600a600c853c5f5190813b15613c5e576001600160a01b0380931683831603613c5e576149ef612d96565b60208101916080602d84883c60808280518101031261039457614a339361232a9351604084015191876080606087015196614a2988610826565b0151951693613c79565b91161490565b5050505f90565b7f7fffffffffffffffffffffffffffffff5d576e7357a4501ddfe92f46681b20a08411614ab0576020935f9360ff60809460405194855216868401526040830152606082015282805260015afa156121dc575f516001600160a01b03811615614aa857905f90565b505f90600190565b505050505f90600390565b6001600160a01b037f000000000000000000000000000000000000000000000000000000000000000016331480614b28575b15614b22577fffffffffffffffffffffffffffffffffffffffffffffffffffffffffffffffec3601903682116138b6575f9190565b5f903690565b506014361015614aed565b91929015614b945750815115614b47575090565b3b15614b505790565b606460405162461bcd60e51b815260206004820152601d60248201527f416464726573733a2063616c6c20746f206e6f6e2d636f6e74726163740000006044820152fd5b825190915015614ba75750805190602001fd5b610d919060405191829162461bcd60e51b83526004830161073256fea164736f6c6343000819000a",
    "linkReferences": {}
  },
  "methodIdentifiers": {
    "addGardenOperator(address)": "eed9df74",
    "addGardener(address)": "eaff6dc9",
    "bannerImage()": "94def29d",
    "communityToken()": "29aa1617",
    "createInviteCode(bytes32,uint256)": "5d63d2bd",
    "description()": "7284e416",
    "entryPoint()": "b0d691fe",
    "erc6551Registry()": "056d5afe",
    "execute(address,uint256,bytes,uint8)": "51945447",
    "executeBatch((address,uint256,bytes,uint8)[])": "43629a73",
    "executeNested(address,uint256,bytes,uint8,(bytes32,address,uint256)[])": "1fb1ecf0",
    "extcall(address,uint256,bytes)": "b709467c",
    "extcreate(uint256,bytes)": "45a24e3e",
    "extcreate2(uint256,bytes32,bytes)": "34715fb1",
    "extsload(bytes32)": "1e2eaeaf",
    "gardenInvites(bytes32)": "f58f7173",
    "gardenOperators(address)": "7597bc7c",
    "gardeners(address)": "1f6e45e3",
    "getNonce()": "d087d288",
    "initialize(address,string,string,string,string,address[],address[])": "47f5fddd",
    "inviteExpiry(bytes32)": "7690fb64",
    "inviteToGarden(bytes32)": "3c413e3f",
    "inviteUsed(bytes32)": "64d3a3e8",
    "isLocked()": "a4e2d634",
    "isTrustedForwarder(address)": "572b6c05",
    "isValidSignature(bytes32,bytes)": "1626ba7e",
    "isValidSigner(address,bytes)": "523e3260",
    "joinGardenWithInvite(bytes32)": "7aeb5427",
    "location()": "516f279e",
    "lock(uint256)": "dd467064",
    "lockedUntil()": "ce0617ec",
    "name()": "06fdde03",
    "onERC1155BatchReceived(address,address,uint256[],uint256[],bytes)": "bc197c81",
    "onERC1155Received(address,address,uint256,uint256,bytes)": "f23a6e61",
    "onERC721Received(address,address,uint256,bytes)": "150b7a02",
    "overrides(address,bytes4)": "ee9c6054",
    "owner()": "8da5cb5b",
    "permissions(address,address)": "1f9838b5",
    "proxiableUUID()": "52d1902d",
    "removeGardenOperator(address)": "adbce85e",
    "removeGardener(address)": "eeb97057",
    "revokeInvite(bytes32)": "f2f0e5e1",
    "setOverrides(bytes4[],address[])": "7a8f7356",
    "setPermissions(address[],bool[])": "039721b1",
    "state()": "c19d93fb",
    "supportsInterface(bytes4)": "01ffc9a7",
    "token()": "fc0c546a",
    "updateDescription(string)": "e735b48a",
    "updateName(string)": "84da92a7",
    "upgradeTo(address)": "3659cfe6",
    "upgradeToAndCall(address,bytes)": "4f1ef286",
    "validateUserOp((address,uint256,bytes,bytes,uint256,uint256,uint256,uint256,uint256,bytes,bytes),bytes32,uint256)": "3a871cdd"
  },
  "id": 110
}