{
  "abi": [
    {
      "type": "constructor",
      "inputs": [
        {
          "name": "erc4337EntryPoint",
          "type": "address",
          "internalType": "address"
        },
        {
          "name": "multicallForwarder",
          "type": "address",
          "internalType": "address"
        },
        {
          "name": "erc6551Registry",
          "type": "address",
          "internalType": "address"
        },
        {
          "name": "guardian",
          "type": "address",
          "internalType": "address"
        },
        {
          "name": "workApprovalResolver",
          "type": "address",
          "internalType": "address"
        },
        {
          "name": "assessmentResolver",
          "type": "address",
          "internalType": "address"
        }
      ],
      "stateMutability": "nonpayable"
    },
    {
      "type": "fallback",
      "stateMutability": "payable"
    },
    {
      "type": "receive",
      "stateMutability": "payable"
    },
    {
      "type": "function",
      "name": "ASSESSMENT_RESOLVER",
      "inputs": [],
      "outputs": [
        {
          "name": "",
          "type": "address",
          "internalType": "address"
        }
      ],
      "stateMutability": "view"
    },
    {
      "type": "function",
      "name": "WORK_APPROVAL_RESOLVER",
      "inputs": [],
      "outputs": [
        {
          "name": "",
          "type": "address",
          "internalType": "address"
        }
      ],
      "stateMutability": "view"
    },
    {
      "type": "function",
      "name": "addGardenOperator",
      "inputs": [
        {
          "name": "operator",
          "type": "address",
          "internalType": "address"
        }
      ],
      "outputs": [],
      "stateMutability": "nonpayable"
    },
    {
      "type": "function",
      "name": "addGardener",
      "inputs": [
        {
          "name": "gardener",
          "type": "address",
          "internalType": "address"
        }
      ],
      "outputs": [],
      "stateMutability": "nonpayable"
    },
    {
      "type": "function",
      "name": "bannerImage",
      "inputs": [],
      "outputs": [
        {
          "name": "",
          "type": "string",
          "internalType": "string"
        }
      ],
      "stateMutability": "view"
    },
    {
      "type": "function",
      "name": "communityToken",
      "inputs": [],
      "outputs": [
        {
          "name": "",
          "type": "address",
          "internalType": "address"
        }
      ],
      "stateMutability": "view"
    },
    {
      "type": "function",
      "name": "createInviteCode",
      "inputs": [
        {
          "name": "inviteCode",
          "type": "bytes32",
          "internalType": "bytes32"
        },
        {
          "name": "expiry",
          "type": "uint256",
          "internalType": "uint256"
        }
      ],
      "outputs": [],
      "stateMutability": "nonpayable"
    },
    {
      "type": "function",
      "name": "createProjectImpact",
      "inputs": [
        {
          "name": "workTitle",
          "type": "string",
          "internalType": "string"
        },
        {
          "name": "impactDescription",
          "type": "string",
          "internalType": "string"
        },
        {
          "name": "proofIPFS",
          "type": "string",
          "internalType": "string"
        }
      ],
      "outputs": [
        {
          "name": "",
          "type": "bytes32",
          "internalType": "bytes32"
        }
      ],
      "stateMutability": "nonpayable"
    },
    {
      "type": "function",
      "name": "createProjectMilestone",
      "inputs": [
        {
          "name": "milestoneTitle",
          "type": "string",
          "internalType": "string"
        },
        {
          "name": "milestoneDescription",
          "type": "string",
          "internalType": "string"
        },
        {
          "name": "milestoneMeta",
          "type": "string",
          "internalType": "string"
        }
      ],
      "outputs": [
        {
          "name": "",
          "type": "bytes32",
          "internalType": "bytes32"
        }
      ],
      "stateMutability": "nonpayable"
    },
    {
      "type": "function",
      "name": "description",
      "inputs": [],
      "outputs": [
        {
          "name": "",
          "type": "string",
          "internalType": "string"
        }
      ],
      "stateMutability": "view"
    },
    {
      "type": "function",
      "name": "entryPoint",
      "inputs": [],
      "outputs": [
        {
          "name": "",
          "type": "address",
          "internalType": "contract IEntryPoint"
        }
      ],
      "stateMutability": "view"
    },
    {
      "type": "function",
      "name": "erc6551Registry",
      "inputs": [],
      "outputs": [
        {
          "name": "",
          "type": "address",
          "internalType": "address"
        }
      ],
      "stateMutability": "view"
    },
    {
      "type": "function",
      "name": "execute",
      "inputs": [
        {
          "name": "to",
          "type": "address",
          "internalType": "address"
        },
        {
          "name": "value",
          "type": "uint256",
          "internalType": "uint256"
        },
        {
          "name": "data",
          "type": "bytes",
          "internalType": "bytes"
        },
        {
          "name": "operation",
          "type": "uint8",
          "internalType": "uint8"
        }
      ],
      "outputs": [
        {
          "name": "",
          "type": "bytes",
          "internalType": "bytes"
        }
      ],
      "stateMutability": "payable"
    },
    {
      "type": "function",
      "name": "executeBatch",
      "inputs": [
        {
          "name": "operations",
          "type": "tuple[]",
          "internalType": "struct BatchExecutor.Operation[]",
          "components": [
            {
              "name": "to",
              "type": "address",
              "internalType": "address"
            },
            {
              "name": "value",
              "type": "uint256",
              "internalType": "uint256"
            },
            {
              "name": "data",
              "type": "bytes",
              "internalType": "bytes"
            },
            {
              "name": "operation",
              "type": "uint8",
              "internalType": "uint8"
            }
          ]
        }
      ],
      "outputs": [
        {
          "name": "",
          "type": "bytes[]",
          "internalType": "bytes[]"
        }
      ],
      "stateMutability": "payable"
    },
    {
      "type": "function",
      "name": "executeNested",
      "inputs": [
        {
          "name": "to",
          "type": "address",
          "internalType": "address"
        },
        {
          "name": "value",
          "type": "uint256",
          "internalType": "uint256"
        },
        {
          "name": "data",
          "type": "bytes",
          "internalType": "bytes"
        },
        {
          "name": "operation",
          "type": "uint8",
          "internalType": "uint8"
        },
        {
          "name": "proof",
          "type": "tuple[]",
          "internalType": "struct NestedAccountExecutor.ERC6551AccountInfo[]",
          "components": [
            {
              "name": "salt",
              "type": "bytes32",
              "internalType": "bytes32"
            },
            {
              "name": "tokenContract",
              "type": "address",
              "internalType": "address"
            },
            {
              "name": "tokenId",
              "type": "uint256",
              "internalType": "uint256"
            }
          ]
        }
      ],
      "outputs": [
        {
          "name": "",
          "type": "bytes",
          "internalType": "bytes"
        }
      ],
      "stateMutability": "payable"
    },
    {
      "type": "function",
      "name": "extcall",
      "inputs": [
        {
          "name": "to",
          "type": "address",
          "internalType": "address"
        },
        {
          "name": "value",
          "type": "uint256",
          "internalType": "uint256"
        },
        {
          "name": "data",
          "type": "bytes",
          "internalType": "bytes"
        }
      ],
      "outputs": [
        {
          "name": "result",
          "type": "bytes",
          "internalType": "bytes"
        }
      ],
      "stateMutability": "nonpayable"
    },
    {
      "type": "function",
      "name": "extcreate",
      "inputs": [
        {
          "name": "value",
          "type": "uint256",
          "internalType": "uint256"
        },
        {
          "name": "bytecode",
          "type": "bytes",
          "internalType": "bytes"
        }
      ],
      "outputs": [
        {
          "name": "",
          "type": "address",
          "internalType": "address"
        }
      ],
      "stateMutability": "nonpayable"
    },
    {
      "type": "function",
      "name": "extcreate2",
      "inputs": [
        {
          "name": "value",
          "type": "uint256",
          "internalType": "uint256"
        },
        {
          "name": "salt",
          "type": "bytes32",
          "internalType": "bytes32"
        },
        {
          "name": "bytecode",
          "type": "bytes",
          "internalType": "bytes"
        }
      ],
      "outputs": [
        {
          "name": "",
          "type": "address",
          "internalType": "address"
        }
      ],
      "stateMutability": "nonpayable"
    },
    {
      "type": "function",
      "name": "extsload",
      "inputs": [
        {
          "name": "slot",
          "type": "bytes32",
          "internalType": "bytes32"
        }
      ],
      "outputs": [
        {
          "name": "value",
          "type": "bytes32",
          "internalType": "bytes32"
        }
      ],
      "stateMutability": "view"
    },
    {
      "type": "function",
      "name": "gapProjectUID",
      "inputs": [],
      "outputs": [
        {
          "name": "",
          "type": "bytes32",
          "internalType": "bytes32"
        }
      ],
      "stateMutability": "view"
    },
    {
      "type": "function",
      "name": "gardenInvites",
      "inputs": [
        {
          "name": "inviteCode",
          "type": "bytes32",
          "internalType": "bytes32"
        }
      ],
      "outputs": [
        {
          "name": "isValid",
          "type": "bool",
          "internalType": "bool"
        }
      ],
      "stateMutability": "view"
    },
    {
      "type": "function",
      "name": "gardenOperators",
      "inputs": [
        {
          "name": "operator",
          "type": "address",
          "internalType": "address"
        }
      ],
      "outputs": [
        {
          "name": "isOperator",
          "type": "bool",
          "internalType": "bool"
        }
      ],
      "stateMutability": "view"
    },
    {
      "type": "function",
      "name": "gardeners",
      "inputs": [
        {
          "name": "gardener",
          "type": "address",
          "internalType": "address"
        }
      ],
      "outputs": [
        {
          "name": "isGardener",
          "type": "bool",
          "internalType": "bool"
        }
      ],
      "stateMutability": "view"
    },
    {
      "type": "function",
      "name": "getGAPProjectUID",
      "inputs": [],
      "outputs": [
        {
          "name": "",
          "type": "bytes32",
          "internalType": "bytes32"
        }
      ],
      "stateMutability": "view"
    },
    {
      "type": "function",
      "name": "getNonce",
      "inputs": [],
      "outputs": [
        {
          "name": "",
          "type": "uint256",
          "internalType": "uint256"
        }
      ],
      "stateMutability": "view"
    },
    {
      "type": "function",
      "name": "initialize",
      "inputs": [
        {
          "name": "_communityToken",
          "type": "address",
          "internalType": "address"
        },
        {
          "name": "_name",
          "type": "string",
          "internalType": "string"
        },
        {
          "name": "_description",
          "type": "string",
          "internalType": "string"
        },
        {
          "name": "_location",
          "type": "string",
          "internalType": "string"
        },
        {
          "name": "_bannerImage",
          "type": "string",
          "internalType": "string"
        },
        {
          "name": "_gardeners",
          "type": "address[]",
          "internalType": "address[]"
        },
        {
          "name": "_gardenOperators",
          "type": "address[]",
          "internalType": "address[]"
        }
      ],
      "outputs": [],
      "stateMutability": "nonpayable"
    },
    {
      "type": "function",
      "name": "inviteExpiry",
      "inputs": [
        {
          "name": "inviteCode",
          "type": "bytes32",
          "internalType": "bytes32"
        }
      ],
      "outputs": [
        {
          "name": "expiry",
          "type": "uint256",
          "internalType": "uint256"
        }
      ],
      "stateMutability": "view"
    },
    {
      "type": "function",
      "name": "inviteToGarden",
      "inputs": [
        {
          "name": "inviteCode",
          "type": "bytes32",
          "internalType": "bytes32"
        }
      ],
      "outputs": [
        {
          "name": "garden",
          "type": "address",
          "internalType": "address"
        }
      ],
      "stateMutability": "view"
    },
    {
      "type": "function",
      "name": "inviteUsed",
      "inputs": [
        {
          "name": "inviteCode",
          "type": "bytes32",
          "internalType": "bytes32"
        }
      ],
      "outputs": [
        {
          "name": "isUsed",
          "type": "bool",
          "internalType": "bool"
        }
      ],
      "stateMutability": "view"
    },
    {
      "type": "function",
      "name": "isLocked",
      "inputs": [],
      "outputs": [
        {
          "name": "",
          "type": "bool",
          "internalType": "bool"
        }
      ],
      "stateMutability": "view"
    },
    {
      "type": "function",
      "name": "isTrustedForwarder",
      "inputs": [
        {
          "name": "forwarder",
          "type": "address",
          "internalType": "address"
        }
      ],
      "outputs": [
        {
          "name": "",
          "type": "bool",
          "internalType": "bool"
        }
      ],
      "stateMutability": "view"
    },
    {
      "type": "function",
      "name": "isValidSignature",
      "inputs": [
        {
          "name": "hash",
          "type": "bytes32",
          "internalType": "bytes32"
        },
        {
          "name": "signature",
          "type": "bytes",
          "internalType": "bytes"
        }
      ],
      "outputs": [
        {
          "name": "magicValue",
          "type": "bytes4",
          "internalType": "bytes4"
        }
      ],
      "stateMutability": "view"
    },
    {
      "type": "function",
      "name": "isValidSigner",
      "inputs": [
        {
          "name": "signer",
          "type": "address",
          "internalType": "address"
        },
        {
          "name": "data",
          "type": "bytes",
          "internalType": "bytes"
        }
      ],
      "outputs": [
        {
          "name": "magicValue",
          "type": "bytes4",
          "internalType": "bytes4"
        }
      ],
      "stateMutability": "view"
    },
    {
      "type": "function",
      "name": "joinGarden",
      "inputs": [],
      "outputs": [],
      "stateMutability": "nonpayable"
    },
    {
      "type": "function",
      "name": "joinGardenWithInvite",
      "inputs": [
        {
          "name": "inviteCode",
          "type": "bytes32",
          "internalType": "bytes32"
        }
      ],
      "outputs": [],
      "stateMutability": "nonpayable"
    },
    {
      "type": "function",
      "name": "location",
      "inputs": [],
      "outputs": [
        {
          "name": "",
          "type": "string",
          "internalType": "string"
        }
      ],
      "stateMutability": "view"
    },
    {
      "type": "function",
      "name": "lock",
      "inputs": [
        {
          "name": "_lockedUntil",
          "type": "uint256",
          "internalType": "uint256"
        }
      ],
      "outputs": [],
      "stateMutability": "nonpayable"
    },
    {
      "type": "function",
      "name": "lockedUntil",
      "inputs": [],
      "outputs": [
        {
          "name": "",
          "type": "uint256",
          "internalType": "uint256"
        }
      ],
      "stateMutability": "view"
    },
    {
      "type": "function",
      "name": "name",
      "inputs": [],
      "outputs": [
        {
          "name": "",
          "type": "string",
          "internalType": "string"
        }
      ],
      "stateMutability": "view"
    },
    {
      "type": "function",
      "name": "onERC1155BatchReceived",
      "inputs": [
        {
          "name": "",
          "type": "address",
          "internalType": "address"
        },
        {
          "name": "",
          "type": "address",
          "internalType": "address"
        },
        {
          "name": "",
          "type": "uint256[]",
          "internalType": "uint256[]"
        },
        {
          "name": "",
          "type": "uint256[]",
          "internalType": "uint256[]"
        },
        {
          "name": "",
          "type": "bytes",
          "internalType": "bytes"
        }
      ],
      "outputs": [
        {
          "name": "",
          "type": "bytes4",
          "internalType": "bytes4"
        }
      ],
      "stateMutability": "nonpayable"
    },
    {
      "type": "function",
      "name": "onERC1155Received",
      "inputs": [
        {
          "name": "",
          "type": "address",
          "internalType": "address"
        },
        {
          "name": "",
          "type": "address",
          "internalType": "address"
        },
        {
          "name": "",
          "type": "uint256",
          "internalType": "uint256"
        },
        {
          "name": "",
          "type": "uint256",
          "internalType": "uint256"
        },
        {
          "name": "",
          "type": "bytes",
          "internalType": "bytes"
        }
      ],
      "outputs": [
        {
          "name": "",
          "type": "bytes4",
          "internalType": "bytes4"
        }
      ],
      "stateMutability": "nonpayable"
    },
    {
      "type": "function",
      "name": "onERC721Received",
      "inputs": [
        {
          "name": "",
          "type": "address",
          "internalType": "address"
        },
        {
          "name": "",
          "type": "address",
          "internalType": "address"
        },
        {
          "name": "tokenId",
          "type": "uint256",
          "internalType": "uint256"
        },
        {
          "name": "",
          "type": "bytes",
          "internalType": "bytes"
        }
      ],
      "outputs": [
        {
          "name": "",
          "type": "bytes4",
          "internalType": "bytes4"
        }
      ],
      "stateMutability": "nonpayable"
    },
    {
      "type": "function",
      "name": "openJoining",
      "inputs": [],
      "outputs": [
        {
          "name": "",
          "type": "bool",
          "internalType": "bool"
        }
      ],
      "stateMutability": "view"
    },
    {
      "type": "function",
      "name": "overrides",
      "inputs": [
        {
          "name": "",
          "type": "address",
          "internalType": "address"
        },
        {
          "name": "",
          "type": "bytes4",
          "internalType": "bytes4"
        }
      ],
      "outputs": [
        {
          "name": "",
          "type": "address",
          "internalType": "address"
        }
      ],
      "stateMutability": "view"
    },
    {
      "type": "function",
      "name": "owner",
      "inputs": [],
      "outputs": [
        {
          "name": "",
          "type": "address",
          "internalType": "address"
        }
      ],
      "stateMutability": "view"
    },
    {
      "type": "function",
      "name": "permissions",
      "inputs": [
        {
          "name": "",
          "type": "address",
          "internalType": "address"
        },
        {
          "name": "",
          "type": "address",
          "internalType": "address"
        }
      ],
      "outputs": [
        {
          "name": "",
          "type": "bool",
          "internalType": "bool"
        }
      ],
      "stateMutability": "view"
    },
    {
      "type": "function",
      "name": "proxiableUUID",
      "inputs": [],
      "outputs": [
        {
          "name": "",
          "type": "bytes32",
          "internalType": "bytes32"
        }
      ],
      "stateMutability": "view"
    },
    {
      "type": "function",
      "name": "removeGardenOperator",
      "inputs": [
        {
          "name": "operator",
          "type": "address",
          "internalType": "address"
        }
      ],
      "outputs": [],
      "stateMutability": "nonpayable"
    },
    {
      "type": "function",
      "name": "removeGardener",
      "inputs": [
        {
          "name": "gardener",
          "type": "address",
          "internalType": "address"
        }
      ],
      "outputs": [],
      "stateMutability": "nonpayable"
    },
    {
      "type": "function",
      "name": "revokeInvite",
      "inputs": [
        {
          "name": "inviteCode",
          "type": "bytes32",
          "internalType": "bytes32"
        }
      ],
      "outputs": [],
      "stateMutability": "nonpayable"
    },
    {
      "type": "function",
      "name": "setOverrides",
      "inputs": [
        {
          "name": "selectors",
          "type": "bytes4[]",
          "internalType": "bytes4[]"
        },
        {
          "name": "implementations",
          "type": "address[]",
          "internalType": "address[]"
        }
      ],
      "outputs": [],
      "stateMutability": "nonpayable"
    },
    {
      "type": "function",
      "name": "setPermissions",
      "inputs": [
        {
          "name": "callers",
          "type": "address[]",
          "internalType": "address[]"
        },
        {
          "name": "_permissions",
          "type": "bool[]",
          "internalType": "bool[]"
        }
      ],
      "outputs": [],
      "stateMutability": "nonpayable"
    },
    {
      "type": "function",
      "name": "state",
      "inputs": [],
      "outputs": [
        {
          "name": "",
          "type": "uint256",
          "internalType": "uint256"
        }
      ],
      "stateMutability": "view"
    },
    {
      "type": "function",
      "name": "supportsInterface",
      "inputs": [
        {
          "name": "interfaceId",
          "type": "bytes4",
          "internalType": "bytes4"
        }
      ],
      "outputs": [
        {
          "name": "",
          "type": "bool",
          "internalType": "bool"
        }
      ],
      "stateMutability": "view"
    },
    {
      "type": "function",
      "name": "token",
      "inputs": [],
      "outputs": [
        {
          "name": "chainId",
          "type": "uint256",
          "internalType": "uint256"
        },
        {
          "name": "tokenContract",
          "type": "address",
          "internalType": "address"
        },
        {
          "name": "tokenId",
          "type": "uint256",
          "internalType": "uint256"
        }
      ],
      "stateMutability": "view"
    },
    {
      "type": "function",
      "name": "updateDescription",
      "inputs": [
        {
          "name": "_description",
          "type": "string",
          "internalType": "string"
        }
      ],
      "outputs": [],
      "stateMutability": "nonpayable"
    },
    {
      "type": "function",
      "name": "updateName",
      "inputs": [
        {
          "name": "_name",
          "type": "string",
          "internalType": "string"
        }
      ],
      "outputs": [],
      "stateMutability": "nonpayable"
    },
    {
      "type": "function",
      "name": "upgradeTo",
      "inputs": [
        {
          "name": "newImplementation",
          "type": "address",
          "internalType": "address"
        }
      ],
      "outputs": [],
      "stateMutability": "nonpayable"
    },
    {
      "type": "function",
      "name": "upgradeToAndCall",
      "inputs": [
        {
          "name": "newImplementation",
          "type": "address",
          "internalType": "address"
        },
        {
          "name": "data",
          "type": "bytes",
          "internalType": "bytes"
        }
      ],
      "outputs": [],
      "stateMutability": "payable"
    },
    {
      "type": "function",
      "name": "validateUserOp",
      "inputs": [
        {
          "name": "userOp",
          "type": "tuple",
          "internalType": "struct UserOperation",
          "components": [
            {
              "name": "sender",
              "type": "address",
              "internalType": "address"
            },
            {
              "name": "nonce",
              "type": "uint256",
              "internalType": "uint256"
            },
            {
              "name": "initCode",
              "type": "bytes",
              "internalType": "bytes"
            },
            {
              "name": "callData",
              "type": "bytes",
              "internalType": "bytes"
            },
            {
              "name": "callGasLimit",
              "type": "uint256",
              "internalType": "uint256"
            },
            {
              "name": "verificationGasLimit",
              "type": "uint256",
              "internalType": "uint256"
            },
            {
              "name": "preVerificationGas",
              "type": "uint256",
              "internalType": "uint256"
            },
            {
              "name": "maxFeePerGas",
              "type": "uint256",
              "internalType": "uint256"
            },
            {
              "name": "maxPriorityFeePerGas",
              "type": "uint256",
              "internalType": "uint256"
            },
            {
              "name": "paymasterAndData",
              "type": "bytes",
              "internalType": "bytes"
            },
            {
              "name": "signature",
              "type": "bytes",
              "internalType": "bytes"
            }
          ]
        },
        {
          "name": "userOpHash",
          "type": "bytes32",
          "internalType": "bytes32"
        },
        {
          "name": "missingAccountFunds",
          "type": "uint256",
          "internalType": "uint256"
        }
      ],
      "outputs": [
        {
          "name": "validationData",
          "type": "uint256",
          "internalType": "uint256"
        }
      ],
      "stateMutability": "nonpayable"
    },
    {
      "type": "event",
      "name": "AdminChanged",
      "inputs": [
        {
          "name": "previousAdmin",
          "type": "address",
          "indexed": false,
          "internalType": "address"
        },
        {
          "name": "newAdmin",
          "type": "address",
          "indexed": false,
          "internalType": "address"
        }
      ],
      "anonymous": false
    },
    {
      "type": "event",
      "name": "BeaconUpgraded",
      "inputs": [
        {
          "name": "beacon",
          "type": "address",
          "indexed": true,
          "internalType": "address"
        }
      ],
      "anonymous": false
    },
    {
      "type": "event",
      "name": "DescriptionUpdated",
      "inputs": [
        {
          "name": "updater",
          "type": "address",
          "indexed": true,
          "internalType": "address"
        },
        {
          "name": "newDescription",
          "type": "string",
          "indexed": false,
          "internalType": "string"
        }
      ],
      "anonymous": false
    },
    {
      "type": "event",
      "name": "GAPProjectAdminAdded",
      "inputs": [
        {
          "name": "projectUID",
          "type": "bytes32",
          "indexed": true,
          "internalType": "bytes32"
        },
        {
          "name": "admin",
          "type": "address",
          "indexed": true,
          "internalType": "address"
        }
      ],
      "anonymous": false
    },
    {
      "type": "event",
      "name": "GAPProjectCreated",
      "inputs": [
        {
          "name": "projectUID",
          "type": "bytes32",
          "indexed": true,
          "internalType": "bytes32"
        },
        {
          "name": "gardenAddress",
          "type": "address",
          "indexed": true,
          "internalType": "address"
        },
        {
          "name": "projectName",
          "type": "string",
          "indexed": false,
          "internalType": "string"
        }
      ],
      "anonymous": false
    },
    {
      "type": "event",
      "name": "GAPProjectImpactCreated",
      "inputs": [
        {
          "name": "impactUID",
          "type": "bytes32",
          "indexed": true,
          "internalType": "bytes32"
        },
        {
          "name": "projectUID",
          "type": "bytes32",
          "indexed": true,
          "internalType": "bytes32"
        },
        {
          "name": "creator",
          "type": "address",
          "indexed": true,
          "internalType": "address"
        }
      ],
      "anonymous": false
    },
    {
      "type": "event",
      "name": "GAPProjectMilestoneCreated",
      "inputs": [
        {
          "name": "milestoneUID",
          "type": "bytes32",
          "indexed": true,
          "internalType": "bytes32"
        },
        {
          "name": "projectUID",
          "type": "bytes32",
          "indexed": true,
          "internalType": "bytes32"
        },
        {
          "name": "creator",
          "type": "address",
          "indexed": true,
          "internalType": "address"
        }
      ],
      "anonymous": false
    },
    {
      "type": "event",
      "name": "GardenOperatorAdded",
      "inputs": [
        {
          "name": "updater",
          "type": "address",
          "indexed": true,
          "internalType": "address"
        },
        {
          "name": "operator",
          "type": "address",
          "indexed": true,
          "internalType": "address"
        }
      ],
      "anonymous": false
    },
    {
      "type": "event",
      "name": "GardenOperatorRemoved",
      "inputs": [
        {
          "name": "updater",
          "type": "address",
          "indexed": true,
          "internalType": "address"
        },
        {
          "name": "operator",
          "type": "address",
          "indexed": true,
          "internalType": "address"
        }
      ],
      "anonymous": false
    },
    {
      "type": "event",
      "name": "GardenerAdded",
      "inputs": [
        {
          "name": "updater",
          "type": "address",
          "indexed": true,
          "internalType": "address"
        },
        {
          "name": "gardener",
          "type": "address",
          "indexed": true,
          "internalType": "address"
        }
      ],
      "anonymous": false
    },
    {
      "type": "event",
      "name": "GardenerRemoved",
      "inputs": [
        {
          "name": "updater",
          "type": "address",
          "indexed": true,
          "internalType": "address"
        },
        {
          "name": "gardener",
          "type": "address",
          "indexed": true,
          "internalType": "address"
        }
      ],
      "anonymous": false
    },
    {
      "type": "event",
      "name": "Initialized",
      "inputs": [
        {
          "name": "version",
          "type": "uint8",
          "indexed": false,
          "internalType": "uint8"
        }
      ],
      "anonymous": false
    },
    {
      "type": "event",
      "name": "InviteCreated",
      "inputs": [
        {
          "name": "inviteCode",
          "type": "bytes32",
          "indexed": true,
          "internalType": "bytes32"
        },
        {
          "name": "garden",
          "type": "address",
          "indexed": true,
          "internalType": "address"
        },
        {
          "name": "creator",
          "type": "address",
          "indexed": true,
          "internalType": "address"
        },
        {
          "name": "expiry",
          "type": "uint256",
          "indexed": false,
          "internalType": "uint256"
        }
      ],
      "anonymous": false
    },
    {
      "type": "event",
      "name": "InviteRevoked",
      "inputs": [
        {
          "name": "inviteCode",
          "type": "bytes32",
          "indexed": true,
          "internalType": "bytes32"
        },
        {
          "name": "garden",
          "type": "address",
          "indexed": true,
          "internalType": "address"
        }
      ],
      "anonymous": false
    },
    {
      "type": "event",
      "name": "InviteUsed",
      "inputs": [
        {
          "name": "inviteCode",
          "type": "bytes32",
          "indexed": true,
          "internalType": "bytes32"
        },
        {
          "name": "garden",
          "type": "address",
          "indexed": true,
          "internalType": "address"
        },
        {
          "name": "user",
          "type": "address",
          "indexed": true,
          "internalType": "address"
        }
      ],
      "anonymous": false
    },
    {
      "type": "event",
      "name": "LockUpdated",
      "inputs": [
        {
          "name": "lockedUntil",
          "type": "uint256",
          "indexed": false,
          "internalType": "uint256"
        }
      ],
      "anonymous": false
    },
    {
      "type": "event",
      "name": "NameUpdated",
      "inputs": [
        {
          "name": "updater",
          "type": "address",
          "indexed": true,
          "internalType": "address"
        },
        {
          "name": "newName",
          "type": "string",
          "indexed": false,
          "internalType": "string"
        }
      ],
      "anonymous": false
    },
    {
      "type": "event",
      "name": "OverrideUpdated",
      "inputs": [
        {
          "name": "owner",
          "type": "address",
          "indexed": false,
          "internalType": "address"
        },
        {
          "name": "selector",
          "type": "bytes4",
          "indexed": false,
          "internalType": "bytes4"
        },
        {
          "name": "implementation",
          "type": "address",
          "indexed": false,
          "internalType": "address"
        }
      ],
      "anonymous": false
    },
    {
      "type": "event",
      "name": "PermissionUpdated",
      "inputs": [
        {
          "name": "owner",
          "type": "address",
          "indexed": false,
          "internalType": "address"
        },
        {
          "name": "caller",
          "type": "address",
          "indexed": false,
          "internalType": "address"
        },
        {
          "name": "hasPermission",
          "type": "bool",
          "indexed": false,
          "internalType": "bool"
        }
      ],
      "anonymous": false
    },
    {
      "type": "event",
      "name": "Upgraded",
      "inputs": [
        {
          "name": "implementation",
          "type": "address",
          "indexed": true,
          "internalType": "address"
        }
      ],
      "anonymous": false
    },
    {
      "type": "error",
      "name": "AccountLocked",
      "inputs": []
    },
    {
      "type": "error",
      "name": "AlreadyGardener",
      "inputs": []
    },
    {
      "type": "error",
      "name": "CommunityTokenNotContract",
      "inputs": []
    },
    {
      "type": "error",
      "name": "ContractCreationFailed",
      "inputs": []
    },
    {
      "type": "error",
      "name": "ExceedsMaxLockTime",
      "inputs": []
    },
    {
      "type": "error",
      "name": "InvalidAccountProof",
      "inputs": []
    },
    {
      "type": "error",
      "name": "InvalidCommunityToken",
      "inputs": []
    },
    {
      "type": "error",
      "name": "InvalidERC20Token",
      "inputs": []
    },
    {
      "type": "error",
      "name": "InvalidERC6551Registry",
      "inputs": []
    },
    {
      "type": "error",
      "name": "InvalidEntryPoint",
      "inputs": []
    },
    {
      "type": "error",
      "name": "InvalidExpiry",
      "inputs": []
    },
    {
      "type": "error",
      "name": "InvalidImplementation",
      "inputs": []
    },
    {
      "type": "error",
      "name": "InvalidInput",
      "inputs": []
    },
    {
      "type": "error",
      "name": "InvalidInvite",
      "inputs": []
    },
    {
      "type": "error",
      "name": "InvalidMulticallForwarder",
      "inputs": []
    },
    {
      "type": "error",
      "name": "InvalidOperation",
      "inputs": []
    },
    {
      "type": "error",
      "name": "InviteAlreadyExists",
      "inputs": []
    },
    {
      "type": "error",
      "name": "InviteAlreadyUsed",
      "inputs": []
    },
    {
      "type": "error",
      "name": "InviteExpired",
      "inputs": []
    },
    {
      "type": "error",
      "name": "KarmaGAPNotSupported",
      "inputs": []
    },
    {
      "type": "error",
      "name": "NotAuthorized",
      "inputs": []
    },
    {
      "type": "error",
      "name": "NotAuthorizedCaller",
      "inputs": []
    },
    {
      "type": "error",
      "name": "NotGardenOperator",
      "inputs": []
    },
    {
      "type": "error",
      "name": "NotGardenOwner",
      "inputs": []
    },
    {
      "type": "error",
      "name": "OwnershipCycle",
      "inputs": []
    }
  ],
  "bytecode": {
    "object": "0x6101803461026457601f615ebd38819003918201601f1916830191906001600160401b03831184841017610268578160c092859260409586528339810103126102645761004b8261027c565b6100576020840161027c565b9261006383820161027c565b916100706060830161027c565b9461008960a06100826080860161027c565b940161027c565b936001600160a01b039283168015610253576080523060a052828116156102435760c05260e081905281161561023257610100941684526101209230845261014091825261016092835260045460ff8160081c166101de5760ff808216036101a4575b505192615c2c94856102918639608051858181610f1a0152818161208a0152818161261601526140c4015260a051858181612e740152614fd6015260c05185818161060c01528181612e950152614ff8015260e05185818161155c0152818161517d0152615a970152518481816141cc01526143e1015251838181610d7b015281816112a00152611487015251828181611a87015281816121b3015261257d015251818181610eb501528181611d1501526124290152f35b60ff90811916176004557f7f26b83ff96e1f2b6a682f133852f6798a09c465da95921460cefb38474024986020825160ff8152a15f6100ec565b815162461bcd60e51b815260206004820152602760248201527f496e697469616c697a61626c653a20636f6e747261637420697320696e697469604482015266616c697a696e6760c81b6064820152608490fd5b835163754c753360e11b8152600490fd5b85516246a29560e81b8152600490fd5b8651632039d3c960e01b8152600490fd5b5f80fd5b634e487b7160e01b5f52604160045260245ffd5b51906001600160a01b03821682036102645756fe60806040526004361015610026575b361561001e5761001c613e01565b005b61001c613e01565b5f3560e01c806301ffc9a7146103e0578063039721b1146103db578063056d5afe146103d657806306fdde03146103d1578063150b7a02146103cc5780631626ba7e146103c75780631e2eaeaf146103c25780631f6e45e3146103bd5780631f9838b5146103b85780631fb1ecf0146103b3578063291d0548146103ae57806329aa1617146103a957806334715fb1146103a45780633659cfe61461039f5780633a208f951461039a5780633a871cdd146103955780633c413e3f1461039057806343629a731461038b57806345a24e3e1461038657806347f5fddd146103815780634f1ef2861461037c578063516f279e146103775780635194544714610372578063523e32601461036d57806352d1902d14610368578063572b6c05146103635780635d63d2bd1461035e57806364d3a3e8146103595780637284e416146103545780637597bc7c1461034f5780637690fb641461034a5780637a8f7356146103455780637aeb54271461034057806381eec6bb1461033b57806384da92a7146103365780638da5cb5b1461033157806394def29d1461032c578063a4e2d63414610327578063adbce85e14610322578063b0d691fe1461031d578063b10006a614610318578063b709467c14610313578063b900ace81461030e578063bc197c8114610309578063bcc5cf8814610304578063c19d93fb146102ff578063ce0617ec146102fa578063d087d288146102f5578063dd467064146102f0578063e735b48a146102eb578063eaff6dc9146102e6578063ee9c6054146102e1578063eeb97057146102dc578063eed9df74146102d7578063f23a6e61146102d2578063f2f0e5e1146102cd578063f58f7173146102c8578063f7fc57b0146102c3578063f89b9b93146102c35763fc0c546a0361000e57612c33565b612c16565b612be7565b612aff565b612a9e565b6129f3565b612972565b61290a565b612899565b612728565b612680565b6125e5565b6125c9565b6125ac565b612568565b6124c8565b612188565b612138565b6120b9565b612075565b611fed565b611fcf565b611f12565b611ef5565b611d78565b611a5c565b6118aa565b611772565b611748565b611708565b6116ed565b6116be565b611590565b611538565b611475565b61142d565b6113bd565b6113a2565b61125f565b61119b565b61114c565b611066565b610fd1565b610ee4565b610ea0565b610d54565b610cf9565b610ccd565b610cab565b610c12565b610ba3565b610b63565b610b44565b610af3565b610a16565b61092d565b6105f7565b6104a6565b6103fb565b6001600160e01b03198116036103f757565b5f80fd5b346103f75760203660031901126103f757602061042260043561041d816103e5565b612c6a565b6040519015158152f35b9181601f840112156103f7578235916001600160401b0383116103f7576020808501948460051b0101116103f757565b60406003198201126103f7576001600160401b03916004358381116103f757826104889160040161042c565b939093926024359182116103f7576104a29160040161042c565b9091565b346103f7576104b43661045c565b92906104cf6104ca6104c4613d43565b91614f3b565b614fd3565b6001600160a01b03811680156105e55733036105e5576104ed613da0565b8385036105d3575f5b8481106104ff57005b8061056b6105186105136001948a88612d77565b612d96565b6001600160a01b0385165f90815260026020526040902061055a90610546610541868c8c612d77565b612da0565b60018060a01b03165f5260205260405f2090565b9060ff801983541691151516179055565b7f394777a58092892d136a90c4bb7e4350c72ac50fba6a0208128677f36527dcf561059a610541838989612d77565b6105a8610513848b89612d77565b604080516001600160a01b03888116825293909316602084015290151590820152606090a1016104f6565b60405163b4fa3fb360e01b8152600490fd5b60405163ea8e4eb560e01b8152600490fd5b346103f7575f3660031901126103f7576040517f00000000000000000000000000000000000000000000000000000000000000006001600160a01b03168152602090f35b90600182811c92168015610669575b602083101461065557565b634e487b7160e01b5f52602260045260245ffd5b91607f169161064a565b634e487b7160e01b5f52604160045260245ffd5b604081019081106001600160401b038211176106a257604052565b610673565b602081019081106001600160401b038211176106a257604052565b606081019081106001600160401b038211176106a257604052565b90601f801991011681019081106001600160401b038211176106a257604052565b604051905f82600554916107118361063b565b8083529260209060019081811690811561078a575060011461073e575b505061073c925003836106dd565b565b91509260055f525f80516020615b80833981519152935f925b828410610772575061073c9450505081016020015f8061072e565b85548885018301529485019487945092810192610757565b9150506020925061073c94915060ff191682840152151560051b8201015f8061072e565b604051905f82600754916107c18361063b565b8083529260209060019081811690811561078a57506001146107eb57505061073c925003836106dd565b91509260075f527fa66cc928b5edb82af9bd49922954155ab7b0942694bea4ce44661d9a8736c688935f925b828410610832575061073c9450505081016020015f8061072e565b85548885018301529485019487945092810192610817565b604051905f826006549161085d8361063b565b8083529260209060019081811690811561078a575060011461088757505061073c925003836106dd565b91509260065f525f80516020615c00833981519152935f925b8284106108bb575061073c9450505081016020015f8061072e565b855488850183015294850194879450928101926108a0565b5f5b8381106108e45750505f910152565b81810151838201526020016108d5565b9060209161090d815180928185528580860191016108d3565b601f01601f1916010190565b90602061092a9281815201906108f4565b90565b346103f7575f3660031901126103f75761095c6109486106fe565b6040519182916020835260208301906108f4565b0390f35b6001600160a01b038116036103f757565b6004359061073c82610960565b6040519060c082018281106001600160401b038211176106a257604052565b6040519061073c82610687565b6001600160401b0381116106a257601f01601f191660200190565b9291926109d1826109aa565b916109df60405193846106dd565b8294818452818301116103f7578281602093845f960137010152565b9080601f830112156103f75781602061092a933591016109c5565b346103f75760803660031901126103f757610a32600435610960565b610a3d602435610960565b6064356001600160401b0381116103f757610a5c9036906004016109fb565b50610a65613d43565b919060018060a01b031633149182610aba575b5081610ab0575b50610a9e57610a8c613e01565b604051630a85bd0160e11b8152602090f35b60405163b79e3f3f60e01b8152600490fd5b905046145f610a7f565b6044351491505f610a78565b9181601f840112156103f7578235916001600160401b0383116103f757602083818601950101116103f757565b346103f75760403660031901126103f7576024356001600160401b0381116103f757610b31610b286020923690600401610ac6565b90600435612daa565b6040516001600160e01b03199091168152f35b346103f75760203660031901126103f757602060043554604051908152f35b346103f75760203660031901126103f757600435610b8081610960565b60018060a01b03165f526009602052602060ff60405f2054166040519015158152f35b346103f75760403660031901126103f757602060ff610bfb600435610bc781610960565b60243590610bd482610960565b60018060a01b03165f526002845260405f209060018060a01b03165f5260205260405f2090565b54166040519015158152f35b60ff8116036103f757565b60a03660031901126103f757600435610c2a81610960565b6001600160401b036044358181116103f757610c4a903690600401610ac6565b919092606435610c5981610c07565b608435938385116103f757366023860112156103f75784600401359384116103f75736602460608602870101116103f75761095c956024610c9f96019360243590612e0d565b60405191829182610919565b346103f7575f3660031901126103f757602060ff600f54166040519015158152f35b346103f7575f3660031901126103f75760045460405160109190911c6001600160a01b03168152602090f35b346103f75760603660031901126103f7576044356001600160401b0381116103f757610d42610d2e6020923690600401610ac6565b90610d37614364565b60243560043561437e565b6040516001600160a01b039091168152f35b346103f75760203660031901126103f757600435610d7181610960565b6001600160a01b037f000000000000000000000000000000000000000000000000000000000000000081169190610daa30841415612fec565b610dc65f80516020615ba083398151915293828554161461304d565b610dcf826143b8565b60405190610ddc826106a7565b5f82527f4910fdfa16fed3260ed0e7147f7cc6da11a60208b5b9406d12a635614ffd91435460ff1615610e1557505061001c91506152d4565b6020600491604094939451928380926352d1902d60e01b825286165afa5f9181610e6f575b50610e5c5760405162461bcd60e51b815280610e58600482016144c2565b0390fd5b61001c93610e6a9114614464565b615283565b610e9291925060203d602011610e99575b610e8a81836106dd565b810190613c37565b905f610e3a565b503d610e80565b346103f7575f3660031901126103f7576040517f00000000000000000000000000000000000000000000000000000000000000006001600160a01b03168152602090f35b346103f7576003196060368201126103f757600435906001600160401b0382116103f7576101609082360301126103f7576044357f00000000000000000000000000000000000000000000000000000000000000006001600160a01b03163303610f8c57610f5b61095c9260243590600401614511565b9080610f73575b506040519081529081906020820190565b5f80808093338219f150610f85613d14565b505f610f62565b60405162461bcd60e51b815260206004820152601c60248201527f6163636f756e743a206e6f742066726f6d20456e747279506f696e74000000006044820152606490fd5b346103f75760203660031901126103f7576004355f52600c602052602060018060a01b0360405f205416604051908152f35b6020808201906020835283518092526040830192602060408460051b8301019501935f915b8483106110385750505050505090565b9091929394958480611056600193603f198682030187528a516108f4565b9801930193019194939290611028565b6020806003193601126103f7576004356001600160401b0381116103f75761109290369060040161042c565b916110aa6110a66110a161517a565b6140b7565b1590565b6105e5576110b6613da0565b6110bf8361311c565b925f5b8181106110d7576040518061095c8782611003565b806111306110eb6105416001948689613165565b8487876110f9868484613165565b013561112a60606111248861111c611112828989613165565b6040810190613187565b979096613165565b016131b9565b93614259565b61113a82886131c3565b5261114581876131c3565b50016110c2565b346103f75760403660031901126103f7576024356001600160401b0381116103f757610d426111936111846020933690600401610ac6565b61118c614364565b36916109c5565b600435614561565b346103f75760e03660031901126103f7576111b4610971565b602435906001600160401b03908183116103f7576111d760049336908501610ac6565b90926044358181116103f7576111f09036908701610ac6565b906064358381116103f7576112089036908901610ac6565b906084358581116103f7576112209036908b01610ac6565b94909360a4358781116103f75761123a9036908d0161042c565b98909760c4359081116103f75761001c9c6112579136910161042c565b9b909a6131d7565b60403660031901126103f75760043561127781610960565b6024356001600160401b0381116103f7576112969036906004016109fb565b6001600160a01b037f000000000000000000000000000000000000000000000000000000000000000081169291906112d030851415612fec565b6112ec5f80516020615ba083398151915294828654161461304d565b6112f5836143b8565b7f4910fdfa16fed3260ed0e7147f7cc6da11a60208b5b9406d12a635614ffd91435460ff161561132b57505061001c91506152d4565b6020600491604094939451928380926352d1902d60e01b825286165afa5f9181611381575b5061136e5760405162461bcd60e51b815280610e58600482016144c2565b61001c9361137c9114614464565b6151cc565b61139b91925060203d602011610e9957610e8a81836106dd565b905f611350565b346103f7575f3660031901126103f75761095c6109486107ae565b60803660031901126103f7576004356113d581610960565b6044356001600160401b0381116103f7576113f4903690600401610ac6565b6064929192359061140482610c07565b61140f6110a161517a565b156105e55761095c9361094893611424613da0565b60243590614259565b346103f75760403660031901126103f75760043561144a81610960565b6024356001600160401b0381116103f75760209161146f610b31923690600401610ac6565b91613b3c565b346103f7575f3660031901126103f7577f00000000000000000000000000000000000000000000000000000000000000006001600160a01b031630036114cd576040515f80516020615ba08339815191528152602090f35b60405162461bcd60e51b815260206004820152603860248201527f555550535570677261646561626c653a206d757374206e6f742062652063616c60448201527f6c6564207468726f7567682064656c656761746563616c6c00000000000000006064820152608490fd5b346103f75760203660031901126103f757602060043561155781610960565b6040517f00000000000000000000000000000000000000000000000000000000000000006001600160a01b039081169216919091148152f35b346103f7576040806003193601126103f7576024356004356001600160a01b036115b861517a565b1692835f52600a60205260ff815f205416156116ae576115ea6115e3835f52600b60205260405f2090565b5460ff1690565b61169e574283111561168f577f6a61818344d3709d4d03f2b684894304fad101ae17d1a71d3b301e27df0f9cd69061163a61162d845f52600b60205260405f2090565b805460ff19166001179055565b61166f30611650855f52600c60205260405f2090565b80546001600160a01b0319166001600160a01b03909216919091179055565b83611682845f52600d60205260405f2090565b55519283523092602090a4005b5162d36c8560e81b8152600490fd5b51637ee71edb60e11b8152600490fd5b51633cebab8560e21b8152600490fd5b346103f75760203660031901126103f7576004355f52600e602052602060ff60405f2054166040519015158152f35b346103f7575f3660031901126103f75761095c61094861084a565b346103f75760203660031901126103f75760043561172581610960565b60018060a01b03165f52600a602052602060ff60405f2054166040519015158152f35b346103f75760203660031901126103f7576004355f52600d602052602060405f2054604051908152f35b346103f7576117803661045c565b92906117906104ca6104c4613d43565b6001600160a01b03811680156105e55733036105e5576117ae613da0565b6117b7306149ec565b3b1561189c575b8385036105d3575f5b8481106117d057005b806118276117e46105416001948a88612d77565b6001600160a01b0385165f9081526001602052604090206116509061181261180d868c8c612d77565b613b65565b63ffffffff60e01b165f5260205260405f2090565b7f2c722487e90aca38ec1b074c3403210bd2bfb769b4da7f12f7bf0b9e37517c1861185661180d838989612d77565b611864610541848b89612d77565b604080516001600160a01b0380891682526001600160e01b03199094166020820152929091169082015280606081010390a1016117c7565b6118a530614a3b565b6117be565b346103f75760203660031901126103f7576004356118d66110a66115e3835f52600b60205260405f2090565b6119e9576118ef6115e3825f52600e60205260405f2090565b6119d757611905815f52600d60205260405f2090565b5442116119c55761191461517a565b6001600160a01b0381165f908152600960205260409020611934906115e3565b6119b3576001600160a01b0381165f9081526009602052604090206119589061162d565b61196d61162d835f52600e60205260405f2090565b6001600160a01b031690819030907fa53075caa2d35f351445780598b4da0b5a132246d900ddf54c588a13843e357a5f80a4305f80516020615bc08339815191525f80a3005b60405163211bad0f60e11b8152600490fd5b604051633c8a622d60e21b8152600490fd5b604051634209eb7d60e01b8152600490fd5b604051636dc9375d60e11b8152600490fd5b9060606003198301126103f7576001600160401b036004358181116103f75783611a2791600401610ac6565b939093926024358381116103f75782611a4291600401610ac6565b939093926044359182116103f7576104a291600401610ac6565b346103f757611a6a366119fb565b93611a7695939561517a565b6001600160a01b03908116969094907f0000000000000000000000000000000000000000000000000000000000000000861688141580611d11575b611cff5760105491611ac4831515613b6f565b611acc61460b565b611ad590613bbb565b611add614b0f565b6001600160a01b0316933690611af2926109c5565b611afb90614c1a565b943690611b07926109c5565b611b1090614c1a565b95611b1a42614d1c565b6040519485926020998a98898601611b4390600a90693d913a34ba3632911d1160b11b81520190565b611b4c91613c07565b61088b60f21b815260020167113a32bc3a111d1160c11b8152600801611b7191613c07565b61088b60f21b81526002016a1136b2ba30b230ba30911d60a91b8152600b0190611b9a92613c2a565b600b60fa1b81526001016d1131b7b6b83632ba32b220ba111d60911b8152600e01611bc491613c07565b600b60fa1b81526001017f2274797065223a2270726f6a6563742d6d696c6573746f6e65227d00000000008152601b0103601f19908181018552611c0890856106dd565b604051809486820190611c1a91610919565b039081018452611c2a90846106dd565b611c32614dbf565b92611c3b61097e565b308152915f8387015260016040840152606083015260808201525f60a0820152611c6361099d565b92835283830152604051809481809463f17325e760e01b82526004820190611c8a91613c46565b0392165a905f91f1918215611cfa575f92611cdd575b505061095c60105491604051938493827f346cefee9df55aa9ef25b1c1b7a98dbf25178882d20d2eea044bb309019c165c5f80a482526020820190565b611cf39250803d10610e9957610e8a81836106dd565b5f80611ca0565b612ded565b604051637046c88d60e01b8152600490fd5b50857f000000000000000000000000000000000000000000000000000000000000000016881415611ab1565b60206003198201126103f757600435906001600160401b0382116103f757806023830112156103f75781602461092a936004013591016109c5565b346103f757611d8636611d3d565b611d8e61517a565b5f604051611d9b816106a7565b52611da581614992565b15611ee35781516001600160401b0381116106a257611dce81611dc960055461063b565b613390565b602080601f8311600114611e4f575091611e2282611e3f937f74321da206c1b9fa34367f7ece59ca49371dcd13820b9a5c3767ae1ecceed51a955f91611e44575b508160011b915f199060031b1c19161790565b6005555b6040516001600160a01b03909116939091829182610919565b0390a2005b90508601515f611e0f565b60055f5290601f1983165f80516020615b80833981519152925f905b828210611ecb575050927f74321da206c1b9fa34367f7ece59ca49371dcd13820b9a5c3767ae1ecceed51a949260019282611e3f9610611eb3575b5050811b01600555611e26565b8701515f1960f88460031b161c191690555f80611ea6565b80600185968294968b01518155019501930190611e6b565b604051633632b98960e21b8152600490fd5b346103f7575f3660031901126103f7576020610d426104c4613d43565b346103f7575f3660031901126103f7576040515f600854611f328161063b565b80845290602090600190818116908115611fa55750600114611f5f575b61095c85610c9f818703826106dd565b60085f90815293505f80516020615be08339815191525b838510611f9257505050508101602001610c9f8261095c611f4f565b8054868601840152938201938101611f76565b86955061095c96935060209250610c9f94915060ff191682840152151560051b8201019293611f4f565b346103f7575f3660031901126103f75760205f546040519042108152f35b346103f75760203660031901126103f75760043561200a81610960565b61201261517a565b905f604051612020816106a7565b5261202a82614992565b15611ee35760018060a01b0380911691825f52600a60205260405f2060ff198154169055167fdd1e1c7c82ab1f3ed1b1656e8200309ebf9f682a74ce7737d3bfde87a7fecb085f80a3005b346103f7575f3660031901126103f7576040517f00000000000000000000000000000000000000000000000000000000000000006001600160a01b03168152602090f35b346103f7575f3660031901126103f75760ff600f5416156119e9576120dc61517a565b6001600160a01b0381165f9081526009602052604090205460ff166119b3576001600160a01b0381165f90815260096020526040902061211b9061162d565b6001600160a01b0316305f80516020615bc08339815191525f80a3005b346103f75760603660031901126103f75760043561215581610960565b6044356001600160401b0381116103f75761095c9161217e611184610948933690600401610ac6565b9060243590614fab565b346103f757612196366119fb565b936121a295939561517a565b6001600160a01b03908116969094907f0000000000000000000000000000000000000000000000000000000000000000861688141580612425575b611cff57601054916121f0831515613b6f565b6121f861460b565b61220190613bbb565b612209614b0f565b6001600160a01b031693369061221e926109c5565b61222790614c1a565b943690612233926109c5565b61223c90614c1a565b9561224642614d1c565b6040519485926020998a9889860161226f90600a90693d913a34ba3632911d1160b11b81520190565b61227891613c07565b61088b60f21b815260020167113a32bc3a111d1160c11b815260080161229d91613c07565b61088b60f21b81526002016811383937b7b3111d1160b91b8152600901906122c492613c2a565b61088b60f21b81526002016d1131b7b6b83632ba32b220ba111d60911b8152600e016122ef91613c07565b600b60fa1b81526001017f2274797065223a2270726f6a6563742d696d70616374227d0000000000000000815260180103601f1990818101855261233390856106dd565b60405180948682019061234591610919565b03908101845261235590846106dd565b61235d614dbf565b9261236661097e565b308152915f8387015260016040840152606083015260808201525f60a082015261238e61099d565b92835283830152604051809481809463f17325e760e01b825260048201906123b591613c46565b0392165a905f91f1918215611cfa575f92612408575b505061095c60105491604051938493827f466cbb909891be0dd9a72a9429d9c42d4434dac30ce2885b4820811ccb5b19575f80a482526020820190565b61241e9250803d10610e9957610e8a81836106dd565b5f806123cb565b50857f0000000000000000000000000000000000000000000000000000000000000000168814156121dd565b6001600160401b0381116106a25760051b60200190565b9080601f830112156103f757602090823561248281612451565b9361249060405195866106dd565b81855260208086019260051b8201019283116103f757602001905b8282106124b9575050505090565b813581529083019083016124ab565b346103f75760a03660031901126103f7576124e4600435610960565b6124ef602435610960565b6001600160401b036044358181116103f75761250f903690600401612468565b506064358181116103f757612528903690600401612468565b506084359081116103f7576125419036906004016109fb565b5061095c61254d613cbc565b6040516001600160e01b031990911681529081906020820190565b346103f7575f3660031901126103f7576040517f00000000000000000000000000000000000000000000000000000000000000006001600160a01b03168152602090f35b346103f7575f3660031901126103f7576020600354604051908152f35b346103f7575f3660031901126103f75760205f54604051908152f35b346103f7575f3660031901126103f757604051631aab3f0d60e11b81523060048201525f60248201526020816044817f00000000000000000000000000000000000000000000000000000000000000006001600160a01b03165afa8015611cfa5761095c915f9161266157506040519081529081906020820190565b61267a915060203d602011610e9957610e8a81836106dd565b5f610f62565b346103f75760203660031901126103f7576004356104ca6126b46126a2613d43565b6001600160a01b039492909190614f3b565b1680156105e55733036105e5576126ca42613ce3565b8111612716576127117fa7b24c66dd3269a292a60b3facdbb8f3e7557d1e19e64d99e0d6ee7250be63ad916126fd613da0565b805f55604051918291829190602083019252565b0390a1005b6040516301814f7d60e31b8152600490fd5b346103f75761273636611d3d565b6001600160a01b0361274661517a565b16805f52602091600a60205260ff60405f20541615612887578051926001600160401b0384116106a2576127848461277f60065461063b565b6133ea565b602090601f85116001146127f25750906127d8847f37cc8c6ced0cbc4d440fcfa810a2f09f40b8f0127c3656103edf26b3d93e0ec19495611e3f945f916127e757508160011b915f199060031b1c19161790565b60065560405191829182610919565b90508301515f611e0f565b60065f5290601f1985165f80516020615c00833981519152925f905b82821061286f57505094611e3f9392600192827f37cc8c6ced0cbc4d440fcfa810a2f09f40b8f0127c3656103edf26b3d93e0ec1979810612857575b5050811b01600655610c9f565b8401515f1960f88460031b161c191690555f8061284a565b8060018596829496890151815501950193019061280e565b604051633cebab8560e21b8152600490fd5b346103f75760203660031901126103f7576004356128b681610960565b6001600160a01b03806128c761517a565b1691825f52600a60205260ff60405f20541615612887571690815f52600960205260405f20600160ff198254161790555f80516020615bc08339815191525f80a3005b346103f75760403660031901126103f757602060043561292981610960565b612968602435612938816103e5565b6001600160a01b039283165f9081526001855260408082206001600160e01b031990931682526020929092522090565b5416604051908152f35b346103f75760203660031901126103f75760043561298f81610960565b6001600160a01b03806129a061517a565b1691825f52600a60205260ff60405f20541615612887571690815f52600960205260405f2060ff1981541690557f8a44d725ac751003f7f644f7ce70382fa06f348023717d057b7aa5c8778770d25f80a3005b346103f75760203660031901126103f757600435612a1081610960565b6001600160a01b0380612a2161517a565b1690815f52600a60205260ff60405f2054161561288757821690815f52600a60205260405f20600160ff198254161790557f06216f26a4a5b9c90aa5e1f990342de8fa80a0c447e3c6143fbaf0c7747edd715f80a3612a7e61460b565b80612a93575b612a8a57005b61001c906148ff565b506010541515612a84565b346103f75760a03660031901126103f757612aba600435610960565b612ac5602435610960565b6084356001600160401b0381116103f757612ae49036906004016109fb565b50612aed613e01565b60405163f23a6e6160e01b8152602090f35b346103f75760203660031901126103f7576004356001600160a01b03612b2361517a565b165f52600a60205260ff60405f2054161561288757612b506110a66115e3835f52600b60205260405f2090565b6119e957612b696115e3825f52600e60205260405f2090565b6119d757612b8c612b82825f52600b60205260405f2090565b805460ff19169055565b612bb1612ba1825f52600c60205260405f2090565b80546001600160a01b0319169055565b5f818152600d602052604081205530907f500a77955c5fae58d333c873b2292d09702958ccebbe7de55ac94818a3dc10d65f80a3005b346103f75760203660031901126103f7576004355f52600b602052602060ff60405f2054166040519015158152f35b346103f7575f3660031901126103f7576020601054604051908152f35b346103f7575f3660031901126103f7576060612c4d613d43565b604080519384526001600160a01b03909216602084015290820152f35b6001600160e01b0319908116635194544760e01b8114908115612d1e575b50612d1857612cd9612cb4916104ca612c9f613d43565b6001600160a01b039687949093909290614f3b565b165f52600160205260405f20905f351663ffffffff60e01b165f5260205260405f2090565b541680612ce557505f90565b5f809160405180612cf68136613c1e565b03915afa612d02613d14565b9015612d1057602081519101f35b602081519101fd5b50600190565b636faff5f160e01b811491508115612d38575b505f612c88565b630271189760e51b811491508115612d52575b505f612d31565b6301ffc9a760e01b1490505f612d4b565b634e487b7160e01b5f52603260045260245ffd5b9190811015612d875760051b0190565b612d63565b801515036103f757565b3561092a81612d8c565b3561092a81610960565b90612db59291613f55565b612dbd575f90565b630b135d3f60e11b90565b9190811015612d87576060020190565b908160209103126103f7575161092a81612d8c565b6040513d5f823e3d90fd5b908160209103126103f7575161092a81610960565b95949091929394612e1c61517a565b915f915b808310612e4b575050506110a6612e36916140b7565b6105e55761092a94612e46613da0565b614259565b909192612e59848385612dc8565b90612e6660208301612da0565b612eb96040840135824686357f00000000000000000000000000000000000000000000000000000000000000007f0000000000000000000000000000000000000000000000000000000000000000614030565b92813b15612f3157833b612f74575b604080516331a9108f60e11b815291013560048201529190602090839060249082906001600160a01b03165afa5f9281612f43575b50612f1457604051631052dd2560e21b8152600490fd5b6001600160a01b03908116911603612f3157926001019190612e20565b604051631052dd2560e21b8152600490fd5b612f6691935060203d602011612f6d575b612f5e81836106dd565b810190612df8565b915f612efd565b503d612f54565b604051632938b58d60e21b815260049060208183816001600160a01b038a165afa908115611cfa575f91612fbd575b50612fae5750612ec8565b604051636315bfbb60e01b8152fd5b612fdf915060203d602011612fe5575b612fd781836106dd565b810190612dd8565b5f612fa3565b503d612fcd565b15612ff357565b60405162461bcd60e51b815260206004820152602c60248201527f46756e6374696f6e206d7573742062652063616c6c6564207468726f7567682060448201526b19195b1959d85d1958d85b1b60a21b6064820152608490fd5b1561305457565b60405162461bcd60e51b815260206004820152602c60248201527f46756e6374696f6e206d7573742062652063616c6c6564207468726f7567682060448201526b6163746976652070726f787960a01b6064820152608490fd5b604051906130bb826106a7565b5f8252565b6040519060a082018281106001600160401b038211176106a2576040526080808352366020840137565b906130f4826109aa565b61310160405191826106dd565b8281528092613112601f19916109aa565b0190602036910137565b9061312682612451565b61313360405191826106dd565b8281528092613144601f1991612451565b01905f5b82811061315457505050565b806060602080938501015201613148565b9190811015612d875760051b81013590607e19813603018212156103f7570190565b903590601e19813603018212156103f757018035906001600160401b0382116103f7576020019181360383136103f757565b3561092a81610c07565b8051821015612d875760209160051b010190565b9a98969492909160ff9c9a989694926004549d8e60081c1615809e819f613300575b81156132e0575b5015613284576132269c8e61321d600160ff196004541617600455565b61326b57613851565b61322c57565b61323c61ff001960045416600455565b604051600181527f7f26b83ff96e1f2b6a682f133852f6798a09c465da95921460cefb384740249890602090a1565b61327f61010061ff00196004541617600455565b613851565b60405162461bcd60e51b815260206004820152602e60248201527f496e697469616c697a61626c653a20636f6e747261637420697320616c72656160448201526d191e481a5b9a5d1a585b1a5e995960921b6064820152608490fd5b303b159150816132f2575b505f613200565b6001915060ff16145f6132eb565b600160ff82161091506131f9565b1561331557565b60405162461bcd60e51b8152602060048201526012602482015271546f6f206d616e792067617264656e65727360701b6044820152606490fd5b1561335657565b60405162461bcd60e51b8152602060048201526012602482015271546f6f206d616e79206f70657261746f727360701b6044820152606490fd5b601f811161339c575050565b60055f525f80516020615b80833981519152906020601f840160051c830193106133e0575b601f0160051c01905b8181106133d5575050565b5f81556001016133ca565b90915081906133c1565b601f81116133f6575050565b60065f525f80516020615c00833981519152906020601f840160051c8301931061343a575b601f0160051c01905b81811061342f575050565b5f8155600101613424565b909150819061341b565b601f8111613450575050565b60075f527fa66cc928b5edb82af9bd49922954155ab7b0942694bea4ce44661d9a8736c688906020601f840160051c830193106134a7575b601f0160051c01905b81811061349c575050565b5f8155600101613491565b9091508190613488565b601f81116134bd575050565b60085f525f80516020615be0833981519152906020601f840160051c83019310613501575b601f0160051c01905b8181106134f6575050565b5f81556001016134eb565b90915081906134e2565b91906001600160401b0381116106a25761352a81611dc960055461063b565b5f601f821160011461356857819061355893945f9261355d575b50508160011b915f199060031b1c19161790565b600555565b013590505f80613544565b60055f52601f198216935f80516020615b80833981519152915f5b8681106135ba57508360019596106135a1575b505050811b01600555565b01355f19600384901b60f8161c191690555f8080613596565b90926020600181928686013581550194019101613583565b91906001600160401b0381116106a2576135f18161277f60065461063b565b5f601f821160011461362357819061361e93945f9261355d5750508160011b915f199060031b1c19161790565b600655565b60065f52601f198216935f80516020615c00833981519152915f5b868110613675575083600195961061365c575b505050811b01600655565b01355f19600384901b60f8161c191690555f8080613651565b9092602060018192868601358155019401910161363e565b91906001600160401b0381116106a2576136b1816136ac60075461063b565b613444565b5f601f82116001146136e35781906136de93945f9261355d5750508160011b915f199060031b1c19161790565b600755565b60075f52601f198216937fa66cc928b5edb82af9bd49922954155ab7b0942694bea4ce44661d9a8736c688915f5b868110613748575083600195961061372f575b505050811b01600755565b01355f19600384901b60f8161c191690555f8080613724565b90926020600181928686013581550194019101613711565b91906001600160401b0381116106a2576137848161377f60085461063b565b6134b1565b5f601f82116001146137b65781906137b193945f9261355d5750508160011b915f199060031b1c19161790565b600855565b60085f52601f198216935f80516020615be0833981519152915f5b86811061380857508360019596106137ef575b505050811b01600855565b01355f19600384901b60f8161c191690555f80806137e4565b909260206001819286860135815501940191016137d1565b908060209392818452848401375f828201840152601f01601f1916010190565b91602061092a938181520191613820565b8a9791989294966138d294966138b460019f9d936138828f60649061387b826138cd99111561330e565b111561334f565b61388b8161457b565b6004805462010000600160b01b03191660109290921b62010000600160b01b0316919091179055565b6138be878c61350b565b6138c889896135d2565b61368d565b613760565b6138da613d43565b979150506138f78a8b981460ff8019600f54169115151617600f55565b6138ff61517a565b9461391d61162d8760018060a01b03165f52600960205260405f2090565b6001600160a01b0386165f908152600a6020526040902061393d9061162d565b6001600160a01b03909516968795905f5b828110613ad457509150505f5b888a818310613a505750505050927f74321da206c1b9fa34367f7ece59ca49371dcd13820b9a5c3767ae1ecceed51a7f37cc8c6ced0cbc4d440fcfa810a2f09f40b8f0127c3656103edf26b3d93e0ec19482966139bd60405192839283613840565b0390a26139cf60405192839283613840565b0390a280805f80516020615bc08339815191525f80a3807f06216f26a4a5b9c90aa5e1f990342de8fa80a0c447e3c6143fbaf0c7747edd715f80a3613a1261460b565b613a1b57505050565b613a2361473a565b5f5b818110613a325750505050565b80613a4a613a4561054187948688612d77565b6148ff565b01613a25565b8293949698959750610541613a859361162d93613a6c93612d77565b6001600160a01b03165f908152600a6020526040902090565b613aa2613a96610541838b8d612d77565b6001600160a01b031690565b877f06216f26a4a5b9c90aa5e1f990342de8fa80a0c447e3c6143fbaf0c7747edd715f80a3019188869492959361395b565b909192939597949650613b0a61162d613af1610541848789612d77565b6001600160a01b03165f90815260096020526040902090565b613b1b613a96610541838688612d77565b895f80516020615bc08339815191525f80a301908a8896949795939261394e565b90613b4c90613b529336916109c5565b50614992565b613b5a575f90565b630291f19360e51b90565b3561092a816103e5565b15613b7657565b60405162461bcd60e51b815260206004820152601b60248201527f4741502070726f6a656374206e6f7420696e697469616c697a656400000000006044820152606490fd5b15613bc257565b60405162461bcd60e51b815260206004820152601f60248201527f474150206e6f7420737570706f72746564206f6e207468697320636861696e006044820152606490fd5b90613c1a602092828151948592016108d3565b0190565b90815f8237015f815290565b908092918237015f815290565b908160209103126103f7575190565b9060209081835280518284015201519060408082015260018060a01b0382511660608201526001600160401b0360208301511660808201526040820151151560a0820152606082015160c082015261010060a0613cb3608085015160c060e08601526101208501906108f4565b93015191015290565b613cc4613e01565b63bc197c8160e01b90565b634e487b7160e01b5f52601160045260245ffd5b906301e133808201809211613cf457565b613ccf565b6030019081603011613cf457565b91908201809211613cf457565b3d15613d3e573d90613d25826109aa565b91613d3360405193846106dd565b82523d5f602084013e565b606090565b60405190608082018281106001600160401b038211176106a25760405260608252602082016060604d82303c6060838051810103126103f75751906060604084015193613d8f85610960565b015191926001600160a01b03169190565b5f544210613def57600354613de7613db6615a94565b613dd9604093929351938492602084019687526040808501526060840191613820565b03601f1981018352826106dd565b519020600355565b604051636315bfbb60e01b8152600490fd5b613e4a613e2e613e156104ca6104c4613d43565b6001600160a01b03165f90815260016020526040902090565b5f80356001600160e01b03191681526020919091526040902090565b546001600160a01b038116613e5c5750565b5f8091613e68306149ec565b9082604051613eac60488260208101956001600160601b0319809160601b16875236866034840137368201903360601b1660348201520360288101845201826106dd565b51925af1612d02613d14565b9060401015612d875760400190565b906020116103f75790602090565b906040116103f75760200190602090565b90929192836020116103f75783116103f75760200191601f190190565b909392938483116103f75784116103f7578101920390565b359060208110613f29575090565b5f199060200360031b1b1690565b60051115613f4157565b634e487b7160e01b5f52602160045260245ffd5b909160ff613f7d613f77613f698487613eb8565b356001600160f81b03191690565b60f81c90565b1615613fb657613f9892613f929136916109c5565b90615149565b613fa181613f37565b613fb15761092a90613b4c6130ae565b505f90565b90613fd0613a96613a96613fca8587613ec7565b90613f1b565b91613fd96130ae565b50613fe66110a684614992565b8061401d575b6140155761118c818581614009613fca61400f9661092a9a613ed5565b91613f03565b916150ce565b505050505f90565b506001600160a01b038316301415613fec565b91906055959360e2956040519560b787015260018060a01b0316609786015260778501528160578501526e5af43d82803e903d91602b57fd5bf360378501526028840152733d60ad80600a3d3981f3363d3d373d3d3d363d73601484015260b7835260d7830190816040528351602085012061011785015260f7840152520160ff81532090565b6001600160a01b038181167f00000000000000000000000000000000000000000000000000000000000000008216811461422e576140f3613d43565b9046830361416f575b61410592614f3b565b82811682146141665761411790614fd3565b9182161461415f576001600160a01b03165f908152600260205260409020614152916115e3919060018060a01b03165f5260205260405f2090565b61415a575f90565b600190565b5050600190565b50505050600190565b6141a061417a61517a565b6001600160a01b0390811673111100000000000000000000000000000000111019011690565b85163014614204576040516333932be560e11b81526001600160a01b03871660048201526020816024817f00000000000000000000000000000000000000000000000000000000000000008a165afa908115611cfa575f9161420f575b50156140fc575b505050505050600190565b614228915060203d602011612fe557612fd781836106dd565b5f6141fd565b505050600190565b909280926014946001600160601b03199060601b1683528483013701015f815290565b9092919360ff1690811561434b57600182146142fa5750600281146142dd5760031461429157604051631cc6a69960e11b8152600490fd5b8261092a926142b483806142ae613fca6142bc97613dd99a613ec7565b94613ee6565b92909161437e565b604051928391602083016014916001600160601b03199060601b1681520190565b5061092a916142f4613dd9946142bc9336916109c5565b90614561565b61092a94939291506143389061432a614312306149ec565b93843b1561433d575b60405196879360208501614236565b03601f1981018552846106dd565b614fab565b61434630614a3b565b61431b565b929161435e91509361092a9436916109c5565b91614fab565b6001600160a01b03614375306149ec565b1633036105e557565b9161438b919336916109c5565b9060208251920190f5906001600160a01b038216156143a657565b60405163a28c247360e01b8152600490fd5b604051631506fd4d60e01b81526001600160a01b039091166004820152602081806024810103817f00000000000000000000000000000000000000000000000000000000000000006001600160a01b03165afa908115611cfa575f91614445575b50156144335761442d6110a66110a161517a565b6105e557565b60405163340aafcd60e11b8152600490fd5b61445e915060203d602011612fe557612fd781836106dd565b5f614419565b1561446b57565b60405162461bcd60e51b815260206004820152602960248201527f45524331393637557067726164653a20756e737570706f727465642070726f786044820152681a58589b195555525160ba1b6064820152608490fd5b60809060208152602e60208201527f45524331393637557067726164653a206e657720696d706c656d656e7461746960408201526d6f6e206973206e6f74205555505360901b60608201520190565b614554917f19457468657265756d205369676e6564204d6573736167653a0a3332000000005f52601c5261454e603c5f2091610140810190613187565b91613f55565b61455d57600190565b5f90565b60208251920190f0906001600160a01b038216156143a657565b6001600160a01b0381169081156145f9573b156145e7576020600491604051928380926318160ddd60e01b82525afa90816145c8575b5061073c576040516326412d8960e21b8152600490fd5b6145e09060203d602011610e9957610e8a81836106dd565b505f6145b1565b60405163d0acc0d360e01b8152600490fd5b604051631a747e4f60e31b8152600490fd5b600a46148015614684575b8015614679575b801561466d575b8015614661575b8015614656575b801561464b575b80156146425790565b50610530461490565b506105314614614639565b5061a4ec4614614632565b5062014a34461461462b565b5062aa36a74614614624565b5061a4b1461461461d565b5062aa37dc4614614616565b60208082526005545f926146a38261063b565b9182602083015260406001916001811690815f1461471757506001146146cc575b505050505090565b60055f908152949695509192915f80516020615b808339815191525b8386106147045750505050604092935001015f808080806146c4565b80548587018301529487019482016146e8565b9395505050506040935060ff191683830152151560051b01015f808080806146c4565b614745613a96614b0f565b60409081516020918161475f848201906001602083019252565b0390614773601f19928381018552846106dd565b61477b615363565b9261478461097e565b308152905f828701526001878301525f606083015260808201525f60a08201526147ac61099d565b9384528484015260018060a01b03168451908482806147d963f17325e760e01b9788835260048301613c46565b03815f855af1938415611cfa57614824869461480361487b97614818965f916148e2575b50601055565b61480b615558565b8951958691888301610919565b039081018552846106dd565b61482c615660565b926010549061483961097e565b308152915f8388015260018a840152606083015260808201525f60a082015261486061099d565b938452848401525f8751809681958294835260048301613c46565b03925af18015611cfa576148c4575b50506010549051907f03d364024f6102dfc5e23f488f1e462c8e58afc717a21875496e0adc2132d1b43092806148bf81614690565b0390a3565b816148da92903d10610e9957610e8a81836106dd565b505f8061488a565b6148f99150883d8a11610e9957610e8a81836106dd565b5f6147fd565b6001600160a01b03806149106157dc565b169160105490833b156103f75760445f92836040519586948593636419bcdb60e01b8552600485015216968760248401525af1908161497b575b506149525750565b6010547fe023a851f98526fe8096ed8d817f689e99708db1a157b7ef42c34394feea17645f80a3565b6001600160401b0381116106a2576040525f61494a565b61499d6104c4613d43565b6001600160a01b03828116918082168314614166576149bb90614fd3565b1680911461415f575f9081526002602090815260408083206001600160a01b0390941683529290522060ff90541690565b600b6149f96055926158c8565b602081519101206040519060408201527f97f795a08410e77dc9dbbaba3915f17c601e45642518dd578bd440d8775bfee460208201523081520160ff81532090565b614a44906158c8565b805115614acb5780516001600160a01b03917f97f795a08410e77dc9dbbaba3915f17c601e45642518dd578bd440d8775bfee491906020015ff51615614a8657565b60405162461bcd60e51b815260206004820152601960248201527f437265617465323a204661696c6564206f6e206465706c6f79000000000000006044820152606490fd5b606460405162461bcd60e51b815260206004820152602060248201527f437265617465323a2062797465636f6465206c656e677468206973207a65726f6044820152fd5b600a4614614be35761a4b14614614be35761a4ec4614614be3576105314614614bcb5762aa37dc4614614bb35762aa36a74614614b9b5762014a344614614b83576105304614614b6b57604051633cb9b43760e01b8152600490fd5b730bb232f1b137fb55cb6af92c218a1cd63445a2e990565b734ca7230fb6b78875bdd1b1e4f665b7b7f189123990565b73ec8d7bfe344790fd860920c41b46b259c005727a90565b73c891f8eba218f5034bf3a472528408be19e1130e90565b73b80d85690747c3e2cecc0f8529594c6602b642d590565b736dc1d6b864e8bef815806f9e4677123496e1202690565b908151811015612d87570160200190565b5f198114613cf45760010190565b905f805b8351811015614c7957601160f91b614c57614c4a614c3c8488614bfb565b516001600160f81b03191690565b6001600160f81b03191690565b14614c65575b600101614c1e565b90614c71600191614c0c565b919050614c5d565b508015614d0b57614c8e614c93918451613d07565b6130ea565b5f925f5b8151811015614d0457600190601160f91b614cb8614c4a614c3c8487614bfb565b14614ce9575b614ccb614c3c8285614bfb565b95614ce2614cd882614c0c565b975f1a9186614bfb565b5301614c97565b605c614cfe614cf788614c0c565b9786614bfb565b53614cbe565b5090925050565b50565b5f19810191908211613cf457565b8015614da157805f81805b614d895750614d35816130ea565b925b614d4057505090565b614d4990614d0e565b90600a90614d74614d64614d5e848406613cf9565b60ff1690565b60f81b6001600160f81b03191690565b5f1a614d808486614bfb565b53049081614d37565b9150614d96600a91614c0c565b910480839291614d27565b50604051614dae81610687565b60018152600360fc1b602082015290565b600a4614614f175762aa37dc4614614ef35761a4b14614614ecf5762aa36a74614614eab5762014a344614614e875761a4ec4614614e63576105314614614e3f576105304614614e1b57604051633cb9b43760e01b8152600490fd5b7fb25551d21dc886be83a07c241c46de318704cb6f485191fdedcf80f4b8b2818890565b7fc3b9bee0be3a6ea92f76fa459922a088824e29798becdc82d81f6b230944256390565b7f80f0701853e862d920f87e8ae5b359a1625ad417a9523af2ed12bc3504b0408890565b7fe9cce07bd9295aafc78faa7afdd88a6fad6fd61834a048fb8c3dbc86cb471f8190565b7fcdef0e492d2e7ad25d0b0fdb868f6dcd1f5e5c30e42fd5fa0debdc12f761832290565b7f93391c496898c63995f23797835c8e0468be338f0dbc2df62edfd70856cde1d490565b7f6f8e6a1394bdc398f8d93a99b0ecca326d04470a4f0ee5c379bb85a458a322e490565b7fdc3f4d0938b1d029d825c01b3c53ad955e0ef3eabc1f57c1ebde90de2bf527ae90565b4603614fa557803b15614fa5576040516331a9108f60e11b81526004810192909252602090829060249082906001600160a01b03165afa5f9181614f84575b5061092a57505f90565b614f9e91925060203d602011612f6d57612f5e81836106dd565b905f614f7a565b50505f90565b915f928392602083519301915af190614fc2613d14565b9115614fca57565b50602081519101fd5b907f0000000000000000000000000000000000000000000000000000000000000000917f00000000000000000000000000000000000000000000000000000000000000005b615023818584615991565b156150c95760408051637e062a3560e11b815292606091908290859060049082906001600160a01b03165afa938415611cfa575f915f935f96615079575b505050926150729161502394614f3b565b9150615018565b92509250809450813d83116150c2575b61509381836106dd565b810103126103f75782615072916150239451906020830151926150b584610960565b0151909190948193615061565b503d615089565b509150565b5f919290829160405161510581613dd96020820194630b135d3f60e11b998a875260248401526040604484015260648301906108f4565b51915afa90615112613d14565b8261513b575b8261512257505090565b61513791925060208082518301019101613c37565b1490565b915060208251101591615118565b9060418151145f14615171576104a291602082015190606060408401519301515f1a90615a19565b50505f90600290565b337f00000000000000000000000000000000000000000000000000000000000000006001600160a01b031614806151c1575b156151bd5736601319013560601c90565b3390565b5060143610156151ac565b906151d6826152d4565b6001600160a01b0382167fbc7cd75a20ee27fd9adebab32041f755214dbc6bffa90cc0225b39da2e5c2d3b5f80a280511580159061527b575b615217575050565b614d0b915f806040519361522a856106c2565b602785527f416464726573733a206c6f772d6c6576656c2064656c65676174652063616c6c6020860152660819985a5b195960ca1b6040860152602081519101845af4615275613d14565b91615aee565b50600161520f565b9061528d826152d4565b6001600160a01b0382167fbc7cd75a20ee27fd9adebab32041f755214dbc6bffa90cc0225b39da2e5c2d3b5f80a28051158015906152cd57615217575050565b505f61520f565b803b15615308575f80516020615ba083398151915280546001600160a01b0319166001600160a01b03909216919091179055565b60405162461bcd60e51b815260206004820152602d60248201527f455243313936373a206e657720696d706c656d656e746174696f6e206973206e60448201526c1bdd08184818dbdb9d1c9858dd609a1b6064820152608490fd5b600a46146154bb5762aa37dc46146154975761a4b146146154735762aa36a7461461544f5762014a34461461542b5761a4ec46146154075761053146146153e35761053046146153bf57604051633cb9b43760e01b8152600490fd5b7f9de9294fbb62391b393332a33bfc28b4e0e728dd094aee4bda3955df62f8401a90565b7ff6b89107f8096220051240b89a48abb66e0a23e529c914953b80f5a2bc5ea44c90565b7ff3f753b41e04d1052b5a5ec7624d1dfdb6c2da288a985120e477ddbcac07102290565b7f5ddd6b7a11406771308431ca9bd146cc717848b74b52993a532dc1aad0ccc83f90565b7fec77990a252b54b17673955c774b9712766de5eecb22ca5aa2c440e0e93257fb90565b7fac2a06e955a7e25e6729efe1a6532237e3435b21ccd3dc827ae3c94e624d25b390565b7ff9bbd118dd100459a7d093403af21c6e7f847fd7f331b7a4e6bfb94a1366bd7690565b7f5b873b6e7a16207b526dde366e8164e95bcda2f009272306519667c5e94d219190565b6008545f92916154ee8261063b565b91600190818116908115615545575060011461550957505050565b909192935060085f525f80516020615be0833981519152905f915b848310615532575050500190565b8181602092548587015201920191615524565b60ff191683525050811515909102019150565b6155c461092a61556e6155696106fe565b614c1a565b613dd961565261557f61556961084a565b61564c615634615626615621603d6155986155696107ae565b95602a6040519c8d809c693d913a34ba3632911d1160b11b6020830152602081519485930191016108d3565b8a019061088b60f21b9182602a8201526e113232b9b1b934b83a34b7b7111d1160891b602c820152615600825180936020603b850191016108d3565b0190603b82015201600c906b1134b6b0b3b2aaa926111d1160a11b81520190565b6154df565b61088b60f21b815260020190565b6b113637b1b0ba34b7b7111d1160a11b8152600c0190565b90613c07565b61227d60f01b815260020190565b600a46146157b85762aa37dc46146157945761a4b146146157705762aa36a7461461574c5762014a3446146157285761a4ec46146157045761053146146156e05761053046146156bc57604051633cb9b43760e01b8152600490fd5b7f76f38d22f88a0df52a8ff0763e1c0af912b0822e758be2e0c9cded91aef71d2290565b7f1b4365b92aa47de3f67cdfb53127518381c1e66e0d9e0f8a15bbfa725095096790565b7f9895e82115987d8e3e02b35ced92e6a0509293890333f58f50ec291b34853dac90565b7f9b06f811608d135f913c18295486693fe626f35e213a7d132be87b1f952e508c90565b7f2c270e35bfcdc4d611f0e9d3d2ab6924ec6c673505abc22a1dd07e19b67211af90565b7f16bfe4783b7a9c743c401222c56a07ecb77ed42afc84b61ff1f62f5936c0b9d790565b7fd193e75f420a69910f98fa79cacdfd9d0dcbf5933edce8f8bde9a10bd204d99690565b7f70a3f615f738fc6a4f56100692ada93d947c028b840940d97af7e7d6f0fa057790565b600a46146158b05761a4b146146158985761a4ec4614614be35761053146146158805762aa37dc46146158685762aa36a746146158505762014a344614614bb357610530461461583857604051633cb9b43760e01b8152600490fd5b73da2c62101851365eedc5a1f7087d92ffde7345b490565b73099787d5a5ac92779a519cfd925acb0dc7e8bd2390565b73832931f23ea4e3c70957da71a7eb50f5b7efa93d90565b7396f36f25c6bd648d9bdbbd8c3e029cfb2394754d90565b7328be0b0515be8bb8822af1467a6613795e74717b90565b737177adc0f924b695c0294a40c4c5feff5ee1e14190565b61092a603461596092604051906158de82610687565b600e825260208201906d604380600d600039806000f3fe7360901b825261598260405161590a816106c2565b602e815260208101937f3314601d573d3dfd5b363d3d373d3d6014360360143d5160601c5af43d60008085526d3e80603e573d6000fd5b3d6000f360901b604083015260405198899651809260208901906108d3565b8501926001600160601b03199060601b166020840152518093868401906108d3565b010360148101845201826106dd565b9160ad833b03615a12576014600a600c853c5f5190813b15614015576001600160a01b0392831682841603614015576159c86130c0565b60208101916080602d84883c6080828051810103126103f757615a0c93613a969351604084015191876080606087015196615a0288610960565b0151951693614030565b91161490565b5050505f90565b7f7fffffffffffffffffffffffffffffff5d576e7357a4501ddfe92f46681b20a08411615a89576020935f9360ff60809460405194855216868401526040830152606082015282805260015afa15611cfa575f516001600160a01b03811615615a8157905f90565b505f90600190565b505050505f90600390565b337f00000000000000000000000000000000000000000000000000000000000000006001600160a01b03161480615ae3575b15615add57601319360190368211613cf4575f9190565b5f903690565b506014361015615ac6565b91929015615b505750815115615b02575090565b3b15615b0b5790565b60405162461bcd60e51b815260206004820152601d60248201527f416464726573733a2063616c6c20746f206e6f6e2d636f6e74726163740000006044820152606490fd5b825190915015615b635750805190602001fd5b60405162461bcd60e51b8152908190610e58906004830161091956fe036b6384b5eca791c62761152d0c79bb0604c104a5fb6f4eb0703f3154bb3db0360894a13ba1a3210667c828492db98dca3e2076cc3735a920a3ca505d382bbcc0b9de905219d7679d6f05d6061fa6ef557a687d2c44c314b58bb793f5dba494f3f7a9fe364faab93b216da50a3214154f22a0a2b415b23a84c8169e8b636ee3f652222313e28459528d920b65115c16c04f3efc82aaedc97be59f3f377c0d3fa164736f6c6343000819000a",
    "linkReferences": {}
  },
  "methodIdentifiers": {
    "ASSESSMENT_RESOLVER()": "3a208f95",
    "WORK_APPROVAL_RESOLVER()": "bcc5cf88",
    "addGardenOperator(address)": "eed9df74",
    "addGardener(address)": "eaff6dc9",
    "bannerImage()": "94def29d",
    "communityToken()": "29aa1617",
    "createInviteCode(bytes32,uint256)": "5d63d2bd",
    "createProjectImpact(string,string,string)": "b900ace8",
    "createProjectMilestone(string,string,string)": "81eec6bb",
    "description()": "7284e416",
    "entryPoint()": "b0d691fe",
    "erc6551Registry()": "056d5afe",
    "execute(address,uint256,bytes,uint8)": "51945447",
    "executeBatch((address,uint256,bytes,uint8)[])": "43629a73",
    "executeNested(address,uint256,bytes,uint8,(bytes32,address,uint256)[])": "1fb1ecf0",
    "extcall(address,uint256,bytes)": "b709467c",
    "extcreate(uint256,bytes)": "45a24e3e",
    "extcreate2(uint256,bytes32,bytes)": "34715fb1",
    "extsload(bytes32)": "1e2eaeaf",
    "gapProjectUID()": "f7fc57b0",
    "gardenInvites(bytes32)": "f58f7173",
    "gardenOperators(address)": "7597bc7c",
    "gardeners(address)": "1f6e45e3",
    "getGAPProjectUID()": "f89b9b93",
    "getNonce()": "d087d288",
    "initialize(address,string,string,string,string,address[],address[])": "47f5fddd",
    "inviteExpiry(bytes32)": "7690fb64",
    "inviteToGarden(bytes32)": "3c413e3f",
    "inviteUsed(bytes32)": "64d3a3e8",
    "isLocked()": "a4e2d634",
    "isTrustedForwarder(address)": "572b6c05",
    "isValidSignature(bytes32,bytes)": "1626ba7e",
    "isValidSigner(address,bytes)": "523e3260",
    "joinGarden()": "b10006a6",
    "joinGardenWithInvite(bytes32)": "7aeb5427",
    "location()": "516f279e",
    "lock(uint256)": "dd467064",
    "lockedUntil()": "ce0617ec",
    "name()": "06fdde03",
    "onERC1155BatchReceived(address,address,uint256[],uint256[],bytes)": "bc197c81",
    "onERC1155Received(address,address,uint256,uint256,bytes)": "f23a6e61",
    "onERC721Received(address,address,uint256,bytes)": "150b7a02",
    "openJoining()": "291d0548",
    "overrides(address,bytes4)": "ee9c6054",
    "owner()": "8da5cb5b",
    "permissions(address,address)": "1f9838b5",
    "proxiableUUID()": "52d1902d",
    "removeGardenOperator(address)": "adbce85e",
    "removeGardener(address)": "eeb97057",
    "revokeInvite(bytes32)": "f2f0e5e1",
    "setOverrides(bytes4[],address[])": "7a8f7356",
    "setPermissions(address[],bool[])": "039721b1",
    "state()": "c19d93fb",
    "supportsInterface(bytes4)": "01ffc9a7",
    "token()": "fc0c546a",
    "updateDescription(string)": "e735b48a",
    "updateName(string)": "84da92a7",
    "upgradeTo(address)": "3659cfe6",
    "upgradeToAndCall(address,bytes)": "4f1ef286",
    "validateUserOp((address,uint256,bytes,bytes,uint256,uint256,uint256,uint256,uint256,bytes,bytes),bytes32,uint256)": "3a871cdd"
  },
  "id": 116
}