{
  "abi": [
    {
      "type": "constructor",
      "inputs": [
        {
          "name": "gardenAccountImplementation",
          "type": "address",
          "internalType": "address"
        }
      ],
      "stateMutability": "nonpayable"
    },
    {
      "type": "function",
      "name": "approve",
      "inputs": [
        {
          "name": "to",
          "type": "address",
          "internalType": "address"
        },
        {
          "name": "tokenId",
          "type": "uint256",
          "internalType": "uint256"
        }
      ],
      "outputs": [],
      "stateMutability": "nonpayable"
    },
    {
      "type": "function",
      "name": "balanceOf",
      "inputs": [
        {
          "name": "owner",
          "type": "address",
          "internalType": "address"
        }
      ],
      "outputs": [
        {
          "name": "",
          "type": "uint256",
          "internalType": "uint256"
        }
      ],
      "stateMutability": "view"
    },
    {
      "type": "function",
      "name": "getApproved",
      "inputs": [
        {
          "name": "tokenId",
          "type": "uint256",
          "internalType": "uint256"
        }
      ],
      "outputs": [
        {
          "name": "",
          "type": "address",
          "internalType": "address"
        }
      ],
      "stateMutability": "view"
    },
    {
      "type": "function",
      "name": "initialize",
      "inputs": [
        {
          "name": "_multisig",
          "type": "address",
          "internalType": "address"
        }
      ],
      "outputs": [],
      "stateMutability": "nonpayable"
    },
    {
      "type": "function",
      "name": "isApprovedForAll",
      "inputs": [
        {
          "name": "owner",
          "type": "address",
          "internalType": "address"
        },
        {
          "name": "operator",
          "type": "address",
          "internalType": "address"
        }
      ],
      "outputs": [
        {
          "name": "",
          "type": "bool",
          "internalType": "bool"
        }
      ],
      "stateMutability": "view"
    },
    {
      "type": "function",
      "name": "mintGarden",
      "inputs": [
        {
          "name": "communityToken",
          "type": "address",
          "internalType": "address"
        },
        {
          "name": "name",
          "type": "string",
          "internalType": "string"
        },
        {
          "name": "description",
          "type": "string",
          "internalType": "string"
        },
        {
          "name": "location",
          "type": "string",
          "internalType": "string"
        },
        {
          "name": "bannerImage",
          "type": "string",
          "internalType": "string"
        },
        {
          "name": "gardeners",
          "type": "address[]",
          "internalType": "address[]"
        },
        {
          "name": "gardenOperators",
          "type": "address[]",
          "internalType": "address[]"
        }
      ],
      "outputs": [
        {
          "name": "",
          "type": "address",
          "internalType": "address"
        }
      ],
      "stateMutability": "nonpayable"
    },
    {
      "type": "function",
      "name": "name",
      "inputs": [],
      "outputs": [
        {
          "name": "",
          "type": "string",
          "internalType": "string"
        }
      ],
      "stateMutability": "view"
    },
    {
      "type": "function",
      "name": "owner",
      "inputs": [],
      "outputs": [
        {
          "name": "",
          "type": "address",
          "internalType": "address"
        }
      ],
      "stateMutability": "view"
    },
    {
      "type": "function",
      "name": "ownerOf",
      "inputs": [
        {
          "name": "tokenId",
          "type": "uint256",
          "internalType": "uint256"
        }
      ],
      "outputs": [
        {
          "name": "",
          "type": "address",
          "internalType": "address"
        }
      ],
      "stateMutability": "view"
    },
    {
      "type": "function",
      "name": "proxiableUUID",
      "inputs": [],
      "outputs": [
        {
          "name": "",
          "type": "bytes32",
          "internalType": "bytes32"
        }
      ],
      "stateMutability": "view"
    },
    {
      "type": "function",
      "name": "renounceOwnership",
      "inputs": [],
      "outputs": [],
      "stateMutability": "nonpayable"
    },
    {
      "type": "function",
      "name": "safeTransferFrom",
      "inputs": [
        {
          "name": "from",
          "type": "address",
          "internalType": "address"
        },
        {
          "name": "to",
          "type": "address",
          "internalType": "address"
        },
        {
          "name": "tokenId",
          "type": "uint256",
          "internalType": "uint256"
        }
      ],
      "outputs": [],
      "stateMutability": "nonpayable"
    },
    {
      "type": "function",
      "name": "safeTransferFrom",
      "inputs": [
        {
          "name": "from",
          "type": "address",
          "internalType": "address"
        },
        {
          "name": "to",
          "type": "address",
          "internalType": "address"
        },
        {
          "name": "tokenId",
          "type": "uint256",
          "internalType": "uint256"
        },
        {
          "name": "data",
          "type": "bytes",
          "internalType": "bytes"
        }
      ],
      "outputs": [],
      "stateMutability": "nonpayable"
    },
    {
      "type": "function",
      "name": "setApprovalForAll",
      "inputs": [
        {
          "name": "operator",
          "type": "address",
          "internalType": "address"
        },
        {
          "name": "approved",
          "type": "bool",
          "internalType": "bool"
        }
      ],
      "outputs": [],
      "stateMutability": "nonpayable"
    },
    {
      "type": "function",
      "name": "supportsInterface",
      "inputs": [
        {
          "name": "interfaceId",
          "type": "bytes4",
          "internalType": "bytes4"
        }
      ],
      "outputs": [
        {
          "name": "",
          "type": "bool",
          "internalType": "bool"
        }
      ],
      "stateMutability": "view"
    },
    {
      "type": "function",
      "name": "symbol",
      "inputs": [],
      "outputs": [
        {
          "name": "",
          "type": "string",
          "internalType": "string"
        }
      ],
      "stateMutability": "view"
    },
    {
      "type": "function",
      "name": "tokenURI",
      "inputs": [
        {
          "name": "tokenId",
          "type": "uint256",
          "internalType": "uint256"
        }
      ],
      "outputs": [
        {
          "name": "",
          "type": "string",
          "internalType": "string"
        }
      ],
      "stateMutability": "view"
    },
    {
      "type": "function",
      "name": "transferFrom",
      "inputs": [
        {
          "name": "from",
          "type": "address",
          "internalType": "address"
        },
        {
          "name": "to",
          "type": "address",
          "internalType": "address"
        },
        {
          "name": "tokenId",
          "type": "uint256",
          "internalType": "uint256"
        }
      ],
      "outputs": [],
      "stateMutability": "nonpayable"
    },
    {
      "type": "function",
      "name": "transferOwnership",
      "inputs": [
        {
          "name": "newOwner",
          "type": "address",
          "internalType": "address"
        }
      ],
      "outputs": [],
      "stateMutability": "nonpayable"
    },
    {
      "type": "function",
      "name": "upgradeTo",
      "inputs": [
        {
          "name": "newImplementation",
          "type": "address",
          "internalType": "address"
        }
      ],
      "outputs": [],
      "stateMutability": "nonpayable"
    },
    {
      "type": "function",
      "name": "upgradeToAndCall",
      "inputs": [
        {
          "name": "newImplementation",
          "type": "address",
          "internalType": "address"
        },
        {
          "name": "data",
          "type": "bytes",
          "internalType": "bytes"
        }
      ],
      "outputs": [],
      "stateMutability": "payable"
    },
    {
      "type": "event",
      "name": "AdminChanged",
      "inputs": [
        {
          "name": "previousAdmin",
          "type": "address",
          "indexed": false,
          "internalType": "address"
        },
        {
          "name": "newAdmin",
          "type": "address",
          "indexed": false,
          "internalType": "address"
        }
      ],
      "anonymous": false
    },
    {
      "type": "event",
      "name": "Approval",
      "inputs": [
        {
          "name": "owner",
          "type": "address",
          "indexed": true,
          "internalType": "address"
        },
        {
          "name": "approved",
          "type": "address",
          "indexed": true,
          "internalType": "address"
        },
        {
          "name": "tokenId",
          "type": "uint256",
          "indexed": true,
          "internalType": "uint256"
        }
      ],
      "anonymous": false
    },
    {
      "type": "event",
      "name": "ApprovalForAll",
      "inputs": [
        {
          "name": "owner",
          "type": "address",
          "indexed": true,
          "internalType": "address"
        },
        {
          "name": "operator",
          "type": "address",
          "indexed": true,
          "internalType": "address"
        },
        {
          "name": "approved",
          "type": "bool",
          "indexed": false,
          "internalType": "bool"
        }
      ],
      "anonymous": false
    },
    {
      "type": "event",
      "name": "BeaconUpgraded",
      "inputs": [
        {
          "name": "beacon",
          "type": "address",
          "indexed": true,
          "internalType": "address"
        }
      ],
      "anonymous": false
    },
    {
      "type": "event",
      "name": "GardenMinted",
      "inputs": [
        {
          "name": "tokenId",
          "type": "uint256",
          "indexed": true,
          "internalType": "uint256"
        },
        {
          "name": "account",
          "type": "address",
          "indexed": true,
          "internalType": "address"
        },
        {
          "name": "name",
          "type": "string",
          "indexed": false,
          "internalType": "string"
        },
        {
          "name": "description",
          "type": "string",
          "indexed": false,
          "internalType": "string"
        },
        {
          "name": "location",
          "type": "string",
          "indexed": false,
          "internalType": "string"
        },
        {
          "name": "bannerImage",
          "type": "string",
          "indexed": false,
          "internalType": "string"
        },
        {
          "name": "gardeners",
          "type": "address[]",
          "indexed": false,
          "internalType": "address[]"
        },
        {
          "name": "gardenOperators",
          "type": "address[]",
          "indexed": false,
          "internalType": "address[]"
        }
      ],
      "anonymous": false
    },
    {
      "type": "event",
      "name": "Initialized",
      "inputs": [
        {
          "name": "version",
          "type": "uint8",
          "indexed": false,
          "internalType": "uint8"
        }
      ],
      "anonymous": false
    },
    {
      "type": "event",
      "name": "OwnershipTransferred",
      "inputs": [
        {
          "name": "previousOwner",
          "type": "address",
          "indexed": true,
          "internalType": "address"
        },
        {
          "name": "newOwner",
          "type": "address",
          "indexed": true,
          "internalType": "address"
        }
      ],
      "anonymous": false
    },
    {
      "type": "event",
      "name": "Transfer",
      "inputs": [
        {
          "name": "from",
          "type": "address",
          "indexed": true,
          "internalType": "address"
        },
        {
          "name": "to",
          "type": "address",
          "indexed": true,
          "internalType": "address"
        },
        {
          "name": "tokenId",
          "type": "uint256",
          "indexed": true,
          "internalType": "uint256"
        }
      ],
      "anonymous": false
    },
    {
      "type": "event",
      "name": "Upgraded",
      "inputs": [
        {
          "name": "implementation",
          "type": "address",
          "indexed": true,
          "internalType": "address"
        }
      ],
      "anonymous": false
    }
  ],
  "bytecode": {
    "object": "0x60a034608b57601f6127be38819003918201601f19168301916001600160401b03831184841017608f57808492602094604052833981010312608b57516001600160a01b03811690819003608b573060805260ca80546001600160a01b03191691909117905560405161271a90816100a482396080518181816110ff01528181611206015261150d0152f35b5f80fd5b634e487b7160e01b5f52604160045260245ffdfe6080806040526004361015610012575f80fd5b5f3560e01c90816301ffc9a7146119765750806306fdde03146118cd578063081812fc146118af578063095ea7b3146116fd57806323b872dd146116d95780633659cfe6146114da57806342842e0e146114a85780634f1ef286146111b957806352d1902d146110d85780636352211e1461109c57806364b6181d14610b2d57806370a0823114610a78578063715018a6146109fa5780638da5cb5b146109c757806395d89b41146108cb578063a22cb465146107d3578063b88d4fde1461075e578063c4d66de814610297578063c87b56dd14610219578063e985e9c5146101b95763f2fde38b14610103575f80fd5b346101b55760206003193601126101b55761011c611a83565b61012461215b565b73ffffffffffffffffffffffffffffffffffffffff81161561014b57610149906121c0565b005b608460405162461bcd60e51b815260206004820152602660248201527f4f776e61626c653a206e6577206f776e657220697320746865207a65726f206160448201527f64647265737300000000000000000000000000000000000000000000000000006064820152fd5b5f80fd5b346101b55760406003193601126101b5576101d2611a83565b6101da611aa6565b9073ffffffffffffffffffffffffffffffffffffffff8091165f52606a60205260405f2091165f52602052602060ff60405f2054166040519015158152f35b346101b55760206003193601126101b55761025f61025a6004355f52606760205273ffffffffffffffffffffffffffffffffffffffff60405f205416151590565b611e3a565b5f60405161026c81611b0b565b5261029360405161027c81611b0b565b5f8152604051918291602083526020830190611a45565b0390f35b346101b5576020806003193601126101b5576102b1611a83565b505f5460ff8160081c161591828093610751575b801561073a575b156106d05760019183837fffffffffffffffffffffffffffffffffffffffffffffffffffffffffffffff008316175f556106a2575b506040519261030f84611b43565b601284527f477265656e20476f6f64732047617264656e00000000000000000000000000008285015260405161034481611b43565b600381527f47474700000000000000000000000000000000000000000000000000000000008382015261038660ff5f5460081c16610381816122a2565b6122a2565b84519067ffffffffffffffff9182811161058057806103a6606554611c43565b97601f98898111610635575b5086908983116001146105b8575f926105ad575b50505f1982881b9260031b1c1916176065555b8051918211610580576103ed606654611c43565b86811161051e575b50839582116001146104a0579481929394955f92610495575b50505f1982861b9260031b1c1916176066555b61043560ff5f5460081c16610381816122a2565b61043e336121c0565b61044457005b7f7f26b83ff96e1f2b6a682f133852f6798a09c465da95921460cefb3847402498917fffffffffffffffffffffffffffffffffffffffffffffffffffffffffffff00ff5f54165f55604051908152a1005b01519050858061040e565b601f1982169560665f527f46501879b8ca8525e8c2fd519e2fbfcfa2ebea26501294aa02cbfcfb12e94354915f5b888110610509575083879897959697106104f1575b505050811b01606655610421565b01515f1960f88460031b161c191690558580806104e3565b818301518455928701929186019186016104ce565b60665f527f46501879b8ca8525e8c2fd519e2fbfcfa2ebea26501294aa02cbfcfb12e943548780850160051c820192878610610577575b0160051c019086905b82811061056c5750506103f5565b5f815501869061055e565b92508192610555565b7f4e487b71000000000000000000000000000000000000000000000000000000005f52604160045260245ffd5b0151905088806103c6565b90601f198994169160655f527f8ff97419363ffd7000167f130ef7168fbea05faf9251824ca5043f113cc6a7c7925f5b8a82821061061f5750508411610607575b505050811b016065556103d9565b01515f1960f88460031b161c191690558880806105f9565b8385015186558c979095019493840193016105e8565b90915060655f527f8ff97419363ffd7000167f130ef7168fbea05faf9251824ca5043f113cc6a7c78980850160051c820192898610610699575b918a91869594930160051c01915b82811061068b5750506103b2565b5f81558594508a910161067d565b9250819261066f565b7fffffffffffffffffffffffffffffffffffffffffffffffffffffffffffff000016610101175f5583610301565b6084906040519062461bcd60e51b82526004820152602e60248201527f496e697469616c697a61626c653a20636f6e747261637420697320616c72656160448201527f647920696e697469616c697a65640000000000000000000000000000000000006064820152fd5b50303b1580156102cc5750600160ff8316146102cc565b50600160ff8316106102c5565b346101b55760806003193601126101b557610777611a83565b61077f611aa6565b906064359060443567ffffffffffffffff83116101b557610149936107ab6107ce943690600401611b9e565b926107be6107b98433611f29565b611ce7565b6107c9838383612011565b6125a8565b61222c565b346101b55760406003193601126101b5576107ec611a83565b602435908115158092036101b55773ffffffffffffffffffffffffffffffffffffffff169081331461088757335f52606a60205260405f20825f5260205260405f207fffffffffffffffffffffffffffffffffffffffffffffffffffffffffffffff0081541660ff83161790556040519081527f17307eab39ab6107e8899845ad3d59bd9653f200f220920489ca2b5937696c3160203392a3005b606460405162461bcd60e51b815260206004820152601960248201527f4552433732313a20617070726f766520746f2063616c6c6572000000000000006044820152fd5b346101b5575f6003193601126101b5576040516066545f826108ec83611c43565b91828252602093600190856001821691825f1461098957505060011461092e575b5061091a92500383611b5f565b610293604051928284938452830190611a45565b84915060665f527f46501879b8ca8525e8c2fd519e2fbfcfa2ebea26501294aa02cbfcfb12e94354905f915b85831061097157505061091a93508201018561090d565b8054838901850152879450869390920191810161095a565b7fffffffffffffffffffffffffffffffffffffffffffffffffffffffffffffff00168582015261091a95151560051b850101925087915061090d9050565b346101b5575f6003193601126101b557602073ffffffffffffffffffffffffffffffffffffffff60975416604051908152f35b346101b5575f6003193601126101b557610a1261215b565b5f73ffffffffffffffffffffffffffffffffffffffff6097547fffffffffffffffffffffffff00000000000000000000000000000000000000008116609755167f8be0079c531659141344cd1fd0a4f28419497f9722a3daafe3b4186f6b6457e08280a3005b346101b55760206003193601126101b55773ffffffffffffffffffffffffffffffffffffffff610aa6611a83565b168015610ac3575f526068602052602060405f2054604051908152f35b608460405162461bcd60e51b815260206004820152602960248201527f4552433732313a2061646472657373207a65726f206973206e6f74206120766160448201527f6c6964206f776e657200000000000000000000000000000000000000000000006064820152fd5b346101b55760e06003193601126101b557610b46611a83565b60243567ffffffffffffffff81116101b557610b66903690600401611be4565b9060443567ffffffffffffffff81116101b557610b87903690600401611be4565b91909260643567ffffffffffffffff81116101b557610baa903690600401611be4565b949060843567ffffffffffffffff81116101b557610bcc903690600401611be4565b9060a43567ffffffffffffffff81116101b557610bed903690600401611c12565b92909360c43567ffffffffffffffff81116101b557610c10903690600401611c12565b9a9096610c1b61215b565b60c9549a5f198c1461106f5760018c0160c955604051610c3a81611b0b565b5f8152331561102b578c90610c70825f52606760205273ffffffffffffffffffffffffffffffffffffffff60405f205416151590565b15610c7a9061262a565b610ca5825f52606760205273ffffffffffffffffffffffffffffffffffffffff60405f205416151590565b15610caf9061262a565b335f52606860205260405f2080546001019055815f52606760205260405f203381547fffffffffffffffffffffffff00000000000000000000000000000000000000001617905581335f7fddf252ad1be2c89b69c2b068fc378daa952ba7f163c4a11628f55a4df523b3ef8180a4610d279133612414565b610d309061222c565b60ca5473ffffffffffffffffffffffffffffffffffffffff169d6040519e8f907f1230aea200000000000000000000000000000000000000000000000000000000825260048201523060248201528d60448201528073__$22345123dcf5f39d8c23eeef107f852197$__5a92606491602094f49e8f15610fbb575f9f610fc6575b5073ffffffffffffffffffffffffffffffffffffffff8f163b156101b5578e8b8f928c8f948d8d8d8d8d8d8d8d6040519d8e9c8d809d7f47f5fddd00000000000000000000000000000000000000000000000000000000825273ffffffffffffffffffffffffffffffffffffffff16906004015260248d0160e0905260e48d0190610e3b92611eb5565b908b82036003190160448d0152610e5192611eb5565b908982036003190160648b0152610e6792611eb5565b90878203600319016084890152610e7d92611eb5565b908582036003190160a4870152610e9392611ed5565b908382036003190160c4850152610ea992611ed5565b039173ffffffffffffffffffffffffffffffffffffffff1691815a5f948591f18015610fbb57610fa3575b506040519a8b9a60c08c5260c08c0190610eed92611eb5565b908a820360208c0152610eff92611eb5565b9088820360408a0152610f1192611eb5565b908682036060880152610f2392611eb5565b908482036080860152610f3592611ed5565b82810360a084015273ffffffffffffffffffffffffffffffffffffffff871695610f5e92611ed5565b037fc21b2c6050c0567e4638e617eb78e585cd1e1436c6942b30cfb504ad91600e2c91a36040519073ffffffffffffffffffffffffffffffffffffffff168152602090f35b67ffffffffffffffff8111610580576040528e610ed4565b6040513d5f823e3d90fd5b909e506020813d602011611023575b81610fe260209383611b5f565b810103126101b557519d8e73ffffffffffffffffffffffffffffffffffffffff8116036101b55773ffffffffffffffffffffffffffffffffffffffff610db1565b3d9150610fd5565b606460405162461bcd60e51b815260206004820152602060248201527f4552433732313a206d696e7420746f20746865207a65726f20616464726573736044820152fd5b7f4e487b71000000000000000000000000000000000000000000000000000000005f52601160045260245ffd5b346101b55760206003193601126101b55760206110ba600435611e85565b73ffffffffffffffffffffffffffffffffffffffff60405191168152f35b346101b5575f6003193601126101b55773ffffffffffffffffffffffffffffffffffffffff7f000000000000000000000000000000000000000000000000000000000000000016300361114f5760206040517f360894a13ba1a3210667c828492db98dca3e2076cc3735a920a3ca505d382bbc8152f35b608460405162461bcd60e51b815260206004820152603860248201527f555550535570677261646561626c653a206d757374206e6f742062652063616c60448201527f6c6564207468726f7567682064656c656761746563616c6c00000000000000006064820152fd5b60406003193601126101b5576111cd611a83565b60243567ffffffffffffffff81116101b5576111ed903690600401611b9e565b9073ffffffffffffffffffffffffffffffffffffffff807f0000000000000000000000000000000000000000000000000000000000000000169061123382301415611d58565b6112627f360894a13ba1a3210667c828492db98dca3e2076cc3735a920a3ca505d382bbc928284541614611dc9565b61126a61215b565b7f4910fdfa16fed3260ed0e7147f7cc6da11a60208b5b9406d12a635614ffd91435460ff16156112a05750506101499150612313565b82919216604051927f52d1902d0000000000000000000000000000000000000000000000000000000084526020938481600481865afa5f9181611479575b5061134d576084856040519062461bcd60e51b82526004820152602e60248201527f45524331393637557067726164653a206e657720696d706c656d656e7461746960448201527f6f6e206973206e6f7420555550530000000000000000000000000000000000006064820152fd5b0361140f5761135b82612313565b7fbc7cd75a20ee27fd9adebab32041f755214dbc6bffa90cc0225b39da2e5c2d3b5f80a2825115801590611407575b61139057005b5f8061014994604051946113a386611b27565b602786527f416464726573733a206c6f772d6c6576656c2064656c65676174652063616c6c818701527f206661696c656400000000000000000000000000000000000000000000000000604087015281519101845af46114016123e5565b91612675565b50600161138a565b6084836040519062461bcd60e51b82526004820152602960248201527f45524331393637557067726164653a20756e737570706f727465642070726f7860448201527f6961626c655555494400000000000000000000000000000000000000000000006064820152fd5b9091508581813d83116114a1575b6114918183611b5f565b810103126101b5575190876112de565b503d611487565b346101b5576101496107ce6114bc36611ac9565b90604051926114ca84611b0b565b5f84526107be6107b98433611f29565b346101b5576020806003193601126101b5576114f4611a83565b73ffffffffffffffffffffffffffffffffffffffff91827f00000000000000000000000000000000000000000000000000000000000000001661153981301415611d58565b6115687f360894a13ba1a3210667c828492db98dca3e2076cc3735a920a3ca505d382bbc918583541614611dc9565b61157061215b565b6040519361157d85611b0b565b5f85527f4910fdfa16fed3260ed0e7147f7cc6da11a60208b5b9406d12a635614ffd91435460ff16156115b7575050506101499150612313565b83929316906040517f52d1902d0000000000000000000000000000000000000000000000000000000081528481600481865afa5f91816116aa575b50611661576084856040519062461bcd60e51b82526004820152602e60248201527f45524331393637557067726164653a206e657720696d706c656d656e7461746960448201527f6f6e206973206e6f7420555550530000000000000000000000000000000000006064820152fd5b0361140f5761166f82612313565b7fbc7cd75a20ee27fd9adebab32041f755214dbc6bffa90cc0225b39da2e5c2d3b5f80a28251158015906116a35761139057005b505f61138a565b9091508581813d83116116d2575b6116c28183611b5f565b810103126101b5575190876115f2565b503d6116b8565b346101b5576101496116ea36611ac9565b916116f86107b98433611f29565b612011565b346101b55760406003193601126101b557611716611a83565b6024359073ffffffffffffffffffffffffffffffffffffffff808061173a85611e85565b1692169180831461184557803314908115611824575b50156117ba57825f52606960205260405f20827fffffffffffffffffffffffff000000000000000000000000000000000000000082541617905561179383611e85565b167f8c5be1e5ebec7d5bd14f71427d1e84f3dd0314c0f7b2291e5b200ac8c7c3b9255f80a4005b608460405162461bcd60e51b815260206004820152603d60248201527f4552433732313a20617070726f76652063616c6c6572206973206e6f7420746f60448201527f6b656e206f776e6572206f7220617070726f76656420666f7220616c6c0000006064820152fd5b90505f52606a60205260405f20335f5260205260ff60405f20541684611750565b608460405162461bcd60e51b815260206004820152602160248201527f4552433732313a20617070726f76616c20746f2063757272656e74206f776e6560448201527f72000000000000000000000000000000000000000000000000000000000000006064820152fd5b346101b55760206003193601126101b55760206110ba600435611c94565b346101b5575f6003193601126101b5576040516065545f826118ee83611c43565b91828252602093600190856001821691825f1461098957505060011461191b575061091a92500383611b5f565b84915060655f527f8ff97419363ffd7000167f130ef7168fbea05faf9251824ca5043f113cc6a7c7905f915b85831061195e57505061091a93508201018561090d565b80548389018501528794508693909201918101611947565b346101b55760206003193601126101b557600435907fffffffff0000000000000000000000000000000000000000000000000000000082168092036101b557817f80ac58cd0000000000000000000000000000000000000000000000000000000060209314908115611a1b575b81156119f1575b5015158152f35b7f01ffc9a700000000000000000000000000000000000000000000000000000000915014836119ea565b7f5b5e139f00000000000000000000000000000000000000000000000000000000811491506119e3565b91908251928382525f5b848110611a6f575050601f19601f845f6020809697860101520116010190565b602081830181015184830182015201611a4f565b6004359073ffffffffffffffffffffffffffffffffffffffff821682036101b557565b6024359073ffffffffffffffffffffffffffffffffffffffff821682036101b557565b60031960609101126101b55773ffffffffffffffffffffffffffffffffffffffff9060043582811681036101b5579160243590811681036101b5579060443590565b6020810190811067ffffffffffffffff82111761058057604052565b6060810190811067ffffffffffffffff82111761058057604052565b6040810190811067ffffffffffffffff82111761058057604052565b90601f601f19910116810190811067ffffffffffffffff82111761058057604052565b67ffffffffffffffff811161058057601f01601f191660200190565b81601f820112156101b557803590611bb582611b82565b92611bc36040519485611b5f565b828452602083830101116101b557815f926020809301838601378301015290565b9181601f840112156101b55782359167ffffffffffffffff83116101b557602083818601950101116101b557565b9181601f840112156101b55782359167ffffffffffffffff83116101b5576020808501948460051b0101116101b557565b90600182811c92168015611c8a575b6020831014611c5d57565b7f4e487b71000000000000000000000000000000000000000000000000000000005f52602260045260245ffd5b91607f1691611c52565b611cc261025a825f52606760205273ffffffffffffffffffffffffffffffffffffffff60405f205416151590565b5f52606960205273ffffffffffffffffffffffffffffffffffffffff60405f20541690565b15611cee57565b608460405162461bcd60e51b815260206004820152602d60248201527f4552433732313a2063616c6c6572206973206e6f7420746f6b656e206f776e6560448201527f72206f7220617070726f766564000000000000000000000000000000000000006064820152fd5b15611d5f57565b608460405162461bcd60e51b815260206004820152602c60248201527f46756e6374696f6e206d7573742062652063616c6c6564207468726f7567682060448201527f64656c656761746563616c6c00000000000000000000000000000000000000006064820152fd5b15611dd057565b608460405162461bcd60e51b815260206004820152602c60248201527f46756e6374696f6e206d7573742062652063616c6c6564207468726f7567682060448201527f6163746976652070726f787900000000000000000000000000000000000000006064820152fd5b15611e4157565b606460405162461bcd60e51b815260206004820152601860248201527f4552433732313a20696e76616c696420746f6b656e20494400000000000000006044820152fd5b5f52606760205273ffffffffffffffffffffffffffffffffffffffff60405f205416611eb2811515611e3a565b90565b601f8260209493601f1993818652868601375f8582860101520116010190565b9190808252602080920192915f5b828110611ef1575050505090565b9091929384359073ffffffffffffffffffffffffffffffffffffffff82168092036101b5579081528201938201929190600101611ee3565b9073ffffffffffffffffffffffffffffffffffffffff8080611f4a84611e85565b16931691838314938415611f7d575b508315611f67575b50505090565b611f7391929350611c94565b16145f8080611f61565b9093505f52606a60205260405f20825f5260205260ff60405f205416925f611f59565b15611fa757565b608460405162461bcd60e51b815260206004820152602560248201527f4552433732313a207472616e736665722066726f6d20696e636f72726563742060448201527f6f776e65720000000000000000000000000000000000000000000000000000006064820152fd5b906120469161201f84611e85565b9173ffffffffffffffffffffffffffffffffffffffff938493848094169485911614611fa0565b169182156120f257816120639161205c86611e85565b1614611fa0565b825f52606960205260405f207fffffffffffffffffffffffff000000000000000000000000000000000000000090818154169055815f52606860205260405f205f198154019055825f5260405f2060018154019055835f5260676020528260405f20918254161790557fddf252ad1be2c89b69c2b068fc378daa952ba7f163c4a11628f55a4df523b3ef5f80a4565b608460405162461bcd60e51b8152602060048201526024808201527f4552433732313a207472616e7366657220746f20746865207a65726f2061646460448201527f72657373000000000000000000000000000000000000000000000000000000006064820152fd5b73ffffffffffffffffffffffffffffffffffffffff60975416330361217c57565b606460405162461bcd60e51b815260206004820152602060248201527f4f776e61626c653a2063616c6c6572206973206e6f7420746865206f776e65726044820152fd5b6097549073ffffffffffffffffffffffffffffffffffffffff80911691827fffffffffffffffffffffffff0000000000000000000000000000000000000000821617609755167f8be0079c531659141344cd1fd0a4f28419497f9722a3daafe3b4186f6b6457e05f80a3565b1561223357565b60405162461bcd60e51b815260206004820152603260248201527f4552433732313a207472616e7366657220746f206e6f6e20455243373231526560448201527f63656976657220696d706c656d656e74657200000000000000000000000000006064820152608490fd5b0390fd5b156122a957565b608460405162461bcd60e51b815260206004820152602b60248201527f496e697469616c697a61626c653a20636f6e7472616374206973206e6f74206960448201527f6e697469616c697a696e670000000000000000000000000000000000000000006064820152fd5b803b1561237b5773ffffffffffffffffffffffffffffffffffffffff7f360894a13ba1a3210667c828492db98dca3e2076cc3735a920a3ca505d382bbc91167fffffffffffffffffffffffff0000000000000000000000000000000000000000825416179055565b608460405162461bcd60e51b815260206004820152602d60248201527f455243313936373a206e657720696d706c656d656e746174696f6e206973206e60448201527f6f74206120636f6e7472616374000000000000000000000000000000000000006064820152fd5b3d1561240f573d906123f682611b82565b916124046040519384611b5f565b82523d5f602084013e565b606090565b909190803b156125a05761248b60209173ffffffffffffffffffffffffffffffffffffffff935f6040519586809581947f150b7a02000000000000000000000000000000000000000000000000000000009a8b84523360048501528560248501526044840152608060648401526084830190611a45565b0393165af15f9181612543575b5061251d576124a56123e5565b805190816125185760405162461bcd60e51b815260206004820152603260248201527f4552433732313a207472616e7366657220746f206e6f6e20455243373231526560448201527f63656976657220696d706c656d656e74657200000000000000000000000000006064820152608490fd5b602001fd5b7fffffffff00000000000000000000000000000000000000000000000000000000161490565b9091506020813d602011612598575b8161255f60209383611b5f565b810103126101b557517fffffffff00000000000000000000000000000000000000000000000000000000811681036101b557905f612498565b3d9150612552565b505050600190565b92909190823b156126215761248b926020925f73ffffffffffffffffffffffffffffffffffffffff604051809781968295847f150b7a02000000000000000000000000000000000000000000000000000000009c8d86523360048701521660248501526044840152608060648401526084830190611a45565b50505050600190565b1561263157565b606460405162461bcd60e51b815260206004820152601c60248201527f4552433732313a20746f6b656e20616c7265616479206d696e746564000000006044820152fd5b919290156126d65750815115612689575090565b3b156126925790565b606460405162461bcd60e51b815260206004820152601d60248201527f416464726573733a2063616c6c20746f206e6f6e2d636f6e74726163740000006044820152fd5b8251909150156126e95750805190602001fd5b61229e9060405191829162461bcd60e51b8352602060048401526024830190611a4556fea164736f6c6343000819000a",
    "linkReferences": {
      "src/lib/TBA.sol": {
        "TBALib": [
          {
            "start": 3627,
            "length": 20
          }
        ]
      }
    }
  },
  "methodIdentifiers": {
    "approve(address,uint256)": "095ea7b3",
    "balanceOf(address)": "70a08231",
    "getApproved(uint256)": "081812fc",
    "initialize(address)": "c4d66de8",
    "isApprovedForAll(address,address)": "e985e9c5",
    "mintGarden(address,string,string,string,string,address[],address[])": "64b6181d",
    "name()": "06fdde03",
    "owner()": "8da5cb5b",
    "ownerOf(uint256)": "6352211e",
    "proxiableUUID()": "52d1902d",
    "renounceOwnership()": "715018a6",
    "safeTransferFrom(address,address,uint256)": "42842e0e",
    "safeTransferFrom(address,address,uint256,bytes)": "b88d4fde",
    "setApprovalForAll(address,bool)": "a22cb465",
    "supportsInterface(bytes4)": "01ffc9a7",
    "symbol()": "95d89b41",
    "tokenURI(uint256)": "c87b56dd",
    "transferFrom(address,address,uint256)": "23b872dd",
    "transferOwnership(address)": "f2fde38b",
    "upgradeTo(address)": "3659cfe6",
    "upgradeToAndCall(address,bytes)": "4f1ef286"
  },
  "id": 107
}