{"abi":[{"type":"function","name":"deployNewVault","inputs":[{"name":"asset","type":"address","internalType":"address"},{"name":"_name","type":"string","internalType":"string"},{"name":"symbol","type":"string","internalType":"string"},{"name":"roleManager","type":"address","internalType":"address"},{"name":"profitMaxUnlockTime","type":"uint256","internalType":"uint256"}],"outputs":[{"name":"vault","type":"address","internalType":"address"}],"stateMutability":"nonpayable"},{"type":"function","name":"deployedVaults","inputs":[{"name":"","type":"address","internalType":"address"}],"outputs":[{"name":"","type":"address","internalType":"address"}],"stateMutability":"view"},{"type":"function","name":"vaultCount","inputs":[],"outputs":[{"name":"","type":"uint256","internalType":"uint256"}],"stateMutability":"view"}],"bytecode":{"object":"0x60808060405234601557610a25908161001a8239f35b5f80fdfe60806040908082526004361015610014575f80fd5b5f3560e01c908163a7c6a100146101ab57508063df0b04ac1461007a5763faf20d111461003f575f80fd5b34610076576020366003190112610076576020906001600160a01b03806100646101c5565b165f525f8352815f2054169051908152f35b5f80fd5b50346100765760a0366003190112610076576100946101c5565b906001600160401b0390602435828111610076576100b69036906004016101db565b604435838111610076576100ce9036906004016101db565b906064359360018060a01b0395868616809603610076576001545f1981146101975760010160015584519361079d918286019386851090851117610183578594896101309261013d9561027c893916855260a0602086015260a085019061023d565b908382038785015261023d565b90856060820152608060843591015203905ff09283156101795760209316915f525f8352805f208260018060a01b031982541617905551908152f35b50513d5f823e3d90fd5b634e487b7160e01b5f52604160045260245ffd5b634e487b7160e01b5f52601160045260245ffd5b34610076575f366003190112610076576020906001548152f35b600435906001600160a01b038216820361007657565b81601f82011215610076576001600160401b0391813591908383116101835760405193601f8401601f19908116603f0116850190811185821017610183576040528284526020838301011161007657815f926020809301838601378301015290565b91908251928382525f5b848110610267575050825f602080949584010152601f8019910116010190565b60208183018101518483018201520161024756fe6080604052346103105761079d8038038061001981610314565b92833981019060a0818303126103105761003281610339565b60208083015191926001600160401b0392909190838111610310578561005991840161034d565b946040830151908482116103105761007291840161034d565b92608061008160608501610339565b9301519560018060a01b03948560018060a01b03199716875f5416175f5581519383851161023a576001948554938685811c95168015610306575b8386101461021c578190601f958681116102b8575b508390868311600114610259575f9261024e575b50505f19600383901b1c191690861b1785555b815193841161023a576002548581811c91168015610230575b8282101461021c578381116101d8575b508092841160011461017457509282939183925f94610169575b50501b915f199060031b1c1916176002555b169060035416176003556004556040516103e690816103b78239f35b015192505f8061013b565b919083601f19811660025f52845f20945f905b888383106101be57505050106101a6575b505050811b0160025561014d565b01515f1960f88460031b161c191690555f8080610198565b858701518855909601959485019487935090810190610187565b60025f52815f208480870160051c820192848810610213575b0160051c019086905b828110610208575050610121565b5f81550186906101fa565b925081926101f1565b634e487b7160e01b5f52602260045260245ffd5b90607f1690610111565b634e487b7160e01b5f52604160045260245ffd5b015190505f806100e5565b90889350601f19831691845f52855f20925f5b878282106102a2575050841161028a575b505050811b0185556100f8565b01515f1960f88460031b161c191690555f808061027d565b8385015186558c9790950194938401930161026c565b909150875f52835f208680850160051c8201928686106102fd575b918a91869594930160051c01915b8281106102ef5750506100d1565b5f81558594508a91016102e1565b925081926102d3565b94607f16946100bc565b5f80fd5b6040519190601f01601f191682016001600160401b0381118382101761023a57604052565b51906001600160a01b038216820361031057565b919080601f840112156103105782516001600160401b03811161023a5760209061037f601f8201601f19168301610314565b92818452828287010111610310575f5b8181106103a35750825f9394955001015290565b858101830151848201840152820161038f56fe6080604090808252600480361015610015575f80fd5b5f3560e01c918262435da5146103595750816301e1d1141461033b57816306fdde031461027e57816338d52e0f146102575781636e553f651461022057816395d89b411461011c578163b460af94146100bf578163bd071647146100a3575063ce04bebb14610082575f80fd5b3461009f575f36600319011261009f576020906005549051908152f35b5f80fd5b823461009f575f36600319011261009f57602091549051908152f35b823461009f57606036600319011261009f578135906100dc6103c3565b506044356001600160a01b0381160361009f57600554828103908111610109576020935060055551908152f35b601184634e487b7160e01b5f525260245ffd5b823461009f575f36600319011261009f578051905f60025460018160011c9060018316928315610216575b6020938484108114610203578388529081156101e757506001146101ae575b505050829003601f01601f19168201926001600160401b0384118385101761019b575082918261019792528261037c565b0390f35b604190634e487b7160e01b5f525260245ffd5b91925060025f52825f2091835f935b8385106101d35750505050830101848080610166565b8054888601830152930192849082016101bd565b60ff1916878501525050151560051b8401019050848080610166565b602289634e487b7160e01b5f525260245ffd5b91607f1691610147565b823461009f578060031936011261009f5781359061023c6103c3565b50600554828101809111610109576020935060055551908152f35b823461009f575f36600319011261009f575f5490516001600160a01b039091168152602090f35b823461009f575f36600319011261009f578051905f60018054908160011c9060018316928315610331575b6020938484108114610203578388529081156101e757506001146102f857505050829003601f01601f19168201926001600160401b0384118385101761019b575082918261019792528261037c565b91925060015f52825f2091835f935b83851061031d5750505050830101848080610166565b805488860183015293019284908201610307565b91607f16916102a9565b823461009f575f36600319011261009f576020906005549051908152f35b3461009f575f36600319011261009f576003546001600160a01b03168152602090f35b602080825282518183018190529093925f5b8281106103af57505060409293505f838284010152601f8019910116010190565b81810186015184820160400152850161038e565b602435906001600160a01b038216820361009f5756fea164736f6c6343000819000aa164736f6c6343000819000a","linkReferences":{}},"methodIdentifiers":{"deployNewVault(address,string,string,address,uint256)":"df0b04ac","deployedVaults(address)":"faf20d11","vaultCount()":"a7c6a100"},"id":132}