{"abi":[{"type":"constructor","inputs":[],"stateMutability":"nonpayable"},{"type":"function","name":"createVaultForGarden","inputs":[{"name":"garden","type":"address","internalType":"address"},{"name":"gardenName","type":"string","internalType":"string"}],"outputs":[{"name":"vault","type":"address","internalType":"address"}],"stateMutability":"nonpayable"},{"type":"function","name":"defaultAsset","inputs":[],"outputs":[{"name":"","type":"address","internalType":"address"}],"stateMutability":"view"},{"type":"function","name":"defaultProfitUnlockTime","inputs":[],"outputs":[{"name":"","type":"uint256","internalType":"uint256"}],"stateMutability":"view"},{"type":"function","name":"gardenVaults","inputs":[{"name":"garden","type":"address","internalType":"address"}],"outputs":[{"name":"vault","type":"address","internalType":"address"}],"stateMutability":"view"},{"type":"function","name":"getVault","inputs":[{"name":"garden","type":"address","internalType":"address"}],"outputs":[{"name":"","type":"address","internalType":"address"}],"stateMutability":"view"},{"type":"function","name":"hasVault","inputs":[{"name":"garden","type":"address","internalType":"address"}],"outputs":[{"name":"","type":"bool","internalType":"bool"}],"stateMutability":"view"},{"type":"function","name":"initialize","inputs":[{"name":"_owner","type":"address","internalType":"address"},{"name":"_router","type":"address","internalType":"address"},{"name":"_octantFactory","type":"address","internalType":"address"},{"name":"_defaultAsset","type":"address","internalType":"address"},{"name":"_profitUnlockTime","type":"uint256","internalType":"uint256"}],"outputs":[],"stateMutability":"nonpayable"},{"type":"function","name":"octantFactory","inputs":[],"outputs":[{"name":"","type":"address","internalType":"contract IOctantFactory"}],"stateMutability":"view"},{"type":"function","name":"onWorkApproved","inputs":[{"name":"garden","type":"address","internalType":"address"},{"name":"gardenName","type":"string","internalType":"string"}],"outputs":[{"name":"vault","type":"address","internalType":"address"}],"stateMutability":"nonpayable"},{"type":"function","name":"owner","inputs":[],"outputs":[{"name":"","type":"address","internalType":"address"}],"stateMutability":"view"},{"type":"function","name":"proxiableUUID","inputs":[],"outputs":[{"name":"","type":"bytes32","internalType":"bytes32"}],"stateMutability":"view"},{"type":"function","name":"renounceOwnership","inputs":[],"outputs":[],"stateMutability":"nonpayable"},{"type":"function","name":"router","inputs":[],"outputs":[{"name":"","type":"address","internalType":"address"}],"stateMutability":"view"},{"type":"function","name":"setDefaultAsset","inputs":[{"name":"_asset","type":"address","internalType":"address"}],"outputs":[],"stateMutability":"nonpayable"},{"type":"function","name":"setDefaultProfitUnlockTime","inputs":[{"name":"_profitUnlockTime","type":"uint256","internalType":"uint256"}],"outputs":[],"stateMutability":"nonpayable"},{"type":"function","name":"setOctantFactory","inputs":[{"name":"_factory","type":"address","internalType":"address"}],"outputs":[],"stateMutability":"nonpayable"},{"type":"function","name":"setRouter","inputs":[{"name":"_router","type":"address","internalType":"address"}],"outputs":[],"stateMutability":"nonpayable"},{"type":"function","name":"transferOwnership","inputs":[{"name":"newOwner","type":"address","internalType":"address"}],"outputs":[],"stateMutability":"nonpayable"},{"type":"function","name":"upgradeTo","inputs":[{"name":"newImplementation","type":"address","internalType":"address"}],"outputs":[],"stateMutability":"nonpayable"},{"type":"function","name":"upgradeToAndCall","inputs":[{"name":"newImplementation","type":"address","internalType":"address"},{"name":"data","type":"bytes","internalType":"bytes"}],"outputs":[],"stateMutability":"payable"},{"type":"event","name":"AdminChanged","inputs":[{"name":"previousAdmin","type":"address","indexed":false,"internalType":"address"},{"name":"newAdmin","type":"address","indexed":false,"internalType":"address"}],"anonymous":false},{"type":"event","name":"BeaconUpgraded","inputs":[{"name":"beacon","type":"address","indexed":true,"internalType":"address"}],"anonymous":false},{"type":"event","name":"DefaultAssetUpdated","inputs":[{"name":"oldAsset","type":"address","indexed":true,"internalType":"address"},{"name":"newAsset","type":"address","indexed":true,"internalType":"address"}],"anonymous":false},{"type":"event","name":"FactoryUpdated","inputs":[{"name":"oldFactory","type":"address","indexed":true,"internalType":"address"},{"name":"newFactory","type":"address","indexed":true,"internalType":"address"}],"anonymous":false},{"type":"event","name":"Initialized","inputs":[{"name":"version","type":"uint8","indexed":false,"internalType":"uint8"}],"anonymous":false},{"type":"event","name":"OwnershipTransferred","inputs":[{"name":"previousOwner","type":"address","indexed":true,"internalType":"address"},{"name":"newOwner","type":"address","indexed":true,"internalType":"address"}],"anonymous":false},{"type":"event","name":"RouterUpdated","inputs":[{"name":"oldRouter","type":"address","indexed":true,"internalType":"address"},{"name":"newRouter","type":"address","indexed":true,"internalType":"address"}],"anonymous":false},{"type":"event","name":"Upgraded","inputs":[{"name":"implementation","type":"address","indexed":true,"internalType":"address"}],"anonymous":false},{"type":"event","name":"VaultCreated","inputs":[{"name":"garden","type":"address","indexed":true,"internalType":"address"},{"name":"vault","type":"address","indexed":true,"internalType":"address"},{"name":"asset","type":"address","indexed":false,"internalType":"address"}],"anonymous":false},{"type":"error","name":"AssetNotConfigured","inputs":[]},{"type":"error","name":"FactoryNotConfigured","inputs":[]},{"type":"error","name":"UnauthorizedCaller","inputs":[{"name":"caller","type":"address","internalType":"address"}]},{"type":"error","name":"VaultAlreadyExists","inputs":[{"name":"garden","type":"address","internalType":"address"}]},{"type":"error","name":"VaultCreationFailed","inputs":[{"name":"garden","type":"address","internalType":"address"}]},{"type":"error","name":"ZeroAddress","inputs":[]}],"bytecode":{"object":"0x60a0806040523460d657306080525f549060ff8260081c166084575060ff80821603604b575b60405161150a90816100db8239608051818181610716015281816108120152610aa40152f35b60ff90811916175f557f7f26b83ff96e1f2b6a682f133852f6798a09c465da95921460cefb3847402498602060405160ff8152a15f6025565b62461bcd60e51b815260206004820152602760248201527f496e697469616c697a61626c653a20636f6e747261637420697320696e697469604482015266616c697a696e6760c81b6064820152608490fd5b5f80fdfe6080604090808252600480361015610015575f80fd5b5f3560e01c9182630d453efb14610dab575081630eb9af38146106c957816321117a2114610d1b5781633659cfe614610a795781634f1ef286146107c257816352d1902d146107025781636540e0e2146106c95781636ad2177214610660578163715018a61461060557816376062cac146105dd5781637b20c8f4146105b55781638da5cb5b1461058d57816395832466146105255781639dfea80914610506578163c0d7865514610485578163d04ac57414610467578163e74ee560146103fe578163f2fde38b1461036e578163f7013ef614610127575063f887ea40146100fc575f80fd5b34610123575f3660031901126101235760675490516001600160a01b039091168152602090f35b5f80fd5b82346101235760a036600319011261012357610141610de4565b916024359260018060a01b039283851680950361012357604435918483168093036101235760643593858516809503610123575f549560ff8760081c161596878098610361575b801561034a575b156102f05760ff1981166001175f55876102df575b508216156102d15786156102d157506101de906101d060ff5f5460081c166101cb8161129b565b61129b565b6101d933611253565b611253565b826001600160601b0360a01b8681606754161760675583816065541617606555606654161760665560843560695551935f7f02dc5c233404867c793b749c6d644beb2277536d18a7e7974d3f238e4c6f16848180a3806102a6575b508061027b575b5061024757005b60207f7f26b83ff96e1f2b6a682f133852f6798a09c465da95921460cefb38474024989161ff00195f54165f5560018152a1005b5f7f7046954ffd27a68cf4951a420b1d73efb449feb50b9e15603a577432751935cb8180a382610240565b5f7f333c7678baf16017cf31e1d2f90143a62aab01a67a0807f6836a4304ceabb5558180a383610239565b825163d92e233d60e01b8152fd5b61ffff1916610101175f55886101a4565b845162461bcd60e51b8152602081850152602e60248201527f496e697469616c697a61626c653a20636f6e747261637420697320616c72656160448201526d191e481a5b9a5d1a585b1a5e995960921b6064820152608490fd5b50303b15801561018f5750600160ff82161461018f565b50600160ff821610610188565b90503461012357602036600319011261012357610389610de4565b9161039261100f565b6001600160a01b038316156103ac576103aa83611253565b005b906020608492519162461bcd60e51b8352820152602660248201527f4f776e61626c653a206e6577206f776e657220697320746865207a65726f206160448201526564647265737360d01b6064820152fd5b3461012357602036600319011261012357610417610de4565b61041f61100f565b606680546001600160a01b039283166001600160a01b0319821681179092559091167f7046954ffd27a68cf4951a420b1d73efb449feb50b9e15603a577432751935cb5f80a3005b8234610123575f366003190112610123576020906069549051908152f35b905034610123576020366003190112610123576104a0610de4565b906104a961100f565b6001600160a01b039182169283156104f9575050606754826001600160601b0360a01b821617606755167f02dc5c233404867c793b749c6d644beb2277536d18a7e7974d3f238e4c6f16845f80a3005b5163d92e233d60e01b8152fd5b346101235760203660031901126101235761051f61100f565b35606955005b82346101235761053436610dfa565b60675490946001600160a01b03939184163314158061057f575b61056857509361056091602095610fbd565b915191168152f35b60249085519063d86ad9cf60e01b82523390820152fd5b50836033541633141561054e565b8234610123575f3660031901126101235760335490516001600160a01b039091168152602090f35b8234610123575f3660031901126101235760665490516001600160a01b039091168152602090f35b8234610123575f3660031901126101235760655490516001600160a01b039091168152602090f35b34610123575f3660031901126101235761061d61100f565b603380546001600160a01b031981169091555f906001600160a01b03167f8be0079c531659141344cd1fd0a4f28419497f9722a3daafe3b4186f6b6457e08280a3005b3461012357602036600319011261012357610679610de4565b61068161100f565b606580546001600160a01b039283166001600160a01b0319821681179092559091167f333c7678baf16017cf31e1d2f90143a62aab01a67a0807f6836a4304ceabb5555f80a3005b8234610123576020366003190112610123576020906001600160a01b03806106ef610de4565b165f5260688352815f2054169051908152f35b905034610123575f366003190112610123577f00000000000000000000000000000000000000000000000000000000000000006001600160a01b0316300361075a57602082515f805160206114de8339815191528152f35b6020608492519162461bcd60e51b8352820152603860248201527f555550535570677261646561626c653a206d757374206e6f742062652063616c60448201527f6c6564207468726f7567682064656c656761746563616c6c00000000000000006064820152fd5b905081600319360112610123576107d7610de4565b9160243567ffffffffffffffff81116101235736602382011215610123576108089036906024818601359101610ec5565b6001600160a01b037f0000000000000000000000000000000000000000000000000000000000000000811692919061084230851415610efb565b61085e5f805160206114de833981519152948286541614610f5c565b61086661100f565b7f4910fdfa16fed3260ed0e7147f7cc6da11a60208b5b9406d12a635614ffd91435460ff161561089e5750505050506103aa906113b1565b85168251936352d1902d60e01b855260209485818881865afa5f9181610a4a575b5061091e57845162461bcd60e51b8152808801879052602e60248201527f45524331393637557067726164653a206e657720696d706c656d656e7461746960448201526d6f6e206973206e6f74205555505360901b6064820152608490fd5b95919295036109f55750610931856113b1565b7fbc7cd75a20ee27fd9adebab32041f755214dbc6bffa90cc0225b39da2e5c2d3b5f80a28251158015906109ed575b61096657005b6103aa935f8083519561097887610e57565b602787527f416464726573733a206c6f772d6c6576656c2064656c65676174652063616c6c86880152660819985a5b195960ca1b858801528581519101845af4913d156109e3573d6109d56109cc82610ea9565b92519283610e87565b81525f81943d92013e611440565b5060609250611440565b506001610960565b825162461bcd60e51b8152908101849052602960248201527f45524331393637557067726164653a20756e737570706f727465642070726f786044820152681a58589b195555525160ba1b6064820152608490fd5b9091508681813d8311610a72575b610a628183610e87565b810103126101235751905f6108bf565b503d610a58565b905034610123576020908160031936011261012357610a96610de4565b6001600160a01b03939092907f00000000000000000000000000000000000000000000000000000000000000008516610ad130821415610efb565b610aed5f805160206114de833981519152918783541614610f5c565b610af561100f565b8151908382019682881067ffffffffffffffff891117610d08578784525f83527f4910fdfa16fed3260ed0e7147f7cc6da11a60208b5b9406d12a635614ffd91435460ff1615610b4f575050505050506103aa91506113b1565b869293949596169084516352d1902d60e01b815286818981865afa5f9181610cd9575b50610bd157855162461bcd60e51b8152808901889052602e60248201527f45524331393637557067726164653a206e657720696d706c656d656e7461746960448201526d6f6e206973206e6f74205555505360901b6064820152608490fd5b969192939603610c845750610be5826113b1565b7fbc7cd75a20ee27fd9adebab32041f755214dbc6bffa90cc0225b39da2e5c2d3b5f80a2835115801590610c7d575b610c1a57005b5f806103aa96845196610c2c88610e57565b602788527f416464726573733a206c6f772d6c6576656c2064656c65676174652063616c6c87890152660819985a5b195960ca1b868901525190845af4913d156109e3573d6109d56109cc82610ea9565b505f610c14565b835162461bcd60e51b8152908101859052602960248201527f45524331393637557067726164653a20756e737570706f727465642070726f786044820152681a58589b195555525160ba1b6064820152608490fd5b9091508781813d8311610d01575b610cf18183610e87565b810103126101235751905f610b72565b503d610ce7565b604186634e487b7160e01b5f525260245ffd5b823461012357610d2a36610dfa565b9391610d3461100f565b6065546001600160a01b039390841615610d9d57836066541615610d8c57838216805f52606860205284865f205416610d7657505093610560916020956110ad565b8551634293864f60e01b81529182015260249150fd5b84516001621f8abd60e21b03198152fd5b845163e5af51c160e01b8152fd5b839034610123576020366003190112610123576020916001600160a01b039081610dd3610de4565b165f52606884525f20541615158152f35b600435906001600160a01b038216820361012357565b6040600319820112610123576004356001600160a01b0381168103610123579160243567ffffffffffffffff9283821161012357806023830112156101235781600401359384116101235760248483010111610123576024019190565b6060810190811067ffffffffffffffff821117610e7357604052565b634e487b7160e01b5f52604160045260245ffd5b90601f8019910116810190811067ffffffffffffffff821117610e7357604052565b67ffffffffffffffff8111610e7357601f01601f191660200190565b929192610ed182610ea9565b91610edf6040519384610e87565b829481845281830111610123578281602093845f960137010152565b15610f0257565b60405162461bcd60e51b815260206004820152602c60248201527f46756e6374696f6e206d7573742062652063616c6c6564207468726f7567682060448201526b19195b1959d85d1958d85b1b60a21b6064820152608490fd5b15610f6357565b60405162461bcd60e51b815260206004820152602c60248201527f46756e6374696f6e206d7573742062652063616c6c6564207468726f7567682060448201526b6163746976652070726f787960a01b6064820152608490fd5b606554909291906001600160a01b039081161561100757806066541615611007578084165f52606860205260405f205416928361100157610ffe93506110ad565b90565b50505090565b505050505f90565b6033546001600160a01b0316330361102357565b606460405162461bcd60e51b815260206004820152602060248201527f4f776e61626c653a2063616c6c6572206973206e6f7420746865206f776e65726044820152fd5b5f5b8381106110785750505f910152565b8181015183820152602001611069565b906020916110a181518092818552858086019101611067565b601f01601f1916010190565b91906040916110f98351916020936d023b932b2b71023b7b7b2399016960951b858501528181602e8601376110f4602e858481015f8382015203600e810187520185610e87565b611320565b916111356028855180956767675641554c542d60c01b8583015261112581518092878686019101611067565b8101036008810186520184610e87565b8061117e60018060a01b03938460655416905f86606654166069549a886111908c519b8c98899788966337c2c12b60e21b8852600488015260a0602488015260a4870190611088565b85810360031901604487015290611088565b91169b8c6064840152608483015203925af15f938161121b575b506111c7578351631796e0f760e01b815260048101869052602490fd5b7f897c133dfbfe1f6239e98b4ffd7e4f6c86a62350a131a7a37790419f58af02f99193855f9694965260688252805f209480871695866001600160601b0360a01b825416179055606654169051908152a390565b9093508181813d831161124c575b6112338183610e87565b810103126101235751828116810361012357925f6111aa565b503d611229565b603380546001600160a01b039283166001600160a01b0319821681179092559091167f8be0079c531659141344cd1fd0a4f28419497f9722a3daafe3b4186f6b6457e05f80a3565b156112a257565b60405162461bcd60e51b815260206004820152602b60248201527f496e697469616c697a61626c653a20636f6e7472616374206973206e6f74206960448201526a6e697469616c697a696e6760a81b6064820152608490fd5b90815181101561130c570160200190565b634e487b7160e01b5f52603260045260245ffd5b919061132d368285610ec5565b926008916008855111156113a1575050604051906040820182811067ffffffffffffffff821117610e735760405260088252602036818401375f5b818110611376575090925050565b6001906001600160f81b031961138c82886112fb565b51165f1a61139a82866112fb565b5301611368565b909150610ffe9293503691610ec5565b803b156113e5575f805160206114de83398151915280546001600160a01b0319166001600160a01b03909216919091179055565b60405162461bcd60e51b815260206004820152602d60248201527f455243313936373a206e657720696d706c656d656e746174696f6e206973206e60448201526c1bdd08184818dbdb9d1c9858dd609a1b6064820152608490fd5b919290156114a25750815115611454575090565b3b1561145d5790565b60405162461bcd60e51b815260206004820152601d60248201527f416464726573733a2063616c6c20746f206e6f6e2d636f6e74726163740000006044820152606490fd5b8251909150156114b55750805190602001fd5b60405162461bcd60e51b8152602060048201529081906114d9906024830190611088565b0390fdfe360894a13ba1a3210667c828492db98dca3e2076cc3735a920a3ca505d382bbca164736f6c6343000819000a","linkReferences":{}},"methodIdentifiers":{"createVaultForGarden(address,string)":"21117a21","defaultAsset()":"7b20c8f4","defaultProfitUnlockTime()":"d04ac574","gardenVaults(address)":"6540e0e2","getVault(address)":"0eb9af38","hasVault(address)":"0d453efb","initialize(address,address,address,address,uint256)":"f7013ef6","octantFactory()":"76062cac","onWorkApproved(address,string)":"95832466","owner()":"8da5cb5b","proxiableUUID()":"52d1902d","renounceOwnership()":"715018a6","router()":"f887ea40","setDefaultAsset(address)":"e74ee560","setDefaultProfitUnlockTime(uint256)":"9dfea809","setOctantFactory(address)":"6ad21772","setRouter(address)":"c0d78655","transferOwnership(address)":"f2fde38b","upgradeTo(address)":"3659cfe6","upgradeToAndCall(address,bytes)":"4f1ef286"},"id":134}