{"abi":[{"type":"constructor","inputs":[],"stateMutability":"nonpayable"},{"type":"function","name":"createVaultForGarden","inputs":[{"name":"garden","type":"address","internalType":"address"},{"name":"gardenName","type":"string","internalType":"string"}],"outputs":[{"name":"vault","type":"address","internalType":"address"}],"stateMutability":"nonpayable"},{"type":"function","name":"defaultAsset","inputs":[],"outputs":[{"name":"","type":"address","internalType":"address"}],"stateMutability":"view"},{"type":"function","name":"defaultProfitUnlockTime","inputs":[],"outputs":[{"name":"","type":"uint256","internalType":"uint256"}],"stateMutability":"view"},{"type":"function","name":"gardenVaults","inputs":[{"name":"garden","type":"address","internalType":"address"}],"outputs":[{"name":"vault","type":"address","internalType":"address"}],"stateMutability":"view"},{"type":"function","name":"getVault","inputs":[{"name":"garden","type":"address","internalType":"address"}],"outputs":[{"name":"","type":"address","internalType":"address"}],"stateMutability":"view"},{"type":"function","name":"hasVault","inputs":[{"name":"garden","type":"address","internalType":"address"}],"outputs":[{"name":"","type":"bool","internalType":"bool"}],"stateMutability":"view"},{"type":"function","name":"initialize","inputs":[{"name":"_owner","type":"address","internalType":"address"},{"name":"_router","type":"address","internalType":"address"},{"name":"_octantFactory","type":"address","internalType":"address"},{"name":"_defaultAsset","type":"address","internalType":"address"},{"name":"_profitUnlockTime","type":"uint256","internalType":"uint256"}],"outputs":[],"stateMutability":"nonpayable"},{"type":"function","name":"octantFactory","inputs":[],"outputs":[{"name":"","type":"address","internalType":"contract IOctantFactory"}],"stateMutability":"view"},{"type":"function","name":"onWorkApproved","inputs":[{"name":"garden","type":"address","internalType":"address"},{"name":"gardenName","type":"string","internalType":"string"}],"outputs":[{"name":"vault","type":"address","internalType":"address"}],"stateMutability":"nonpayable"},{"type":"function","name":"owner","inputs":[],"outputs":[{"name":"","type":"address","internalType":"address"}],"stateMutability":"view"},{"type":"function","name":"proxiableUUID","inputs":[],"outputs":[{"name":"","type":"bytes32","internalType":"bytes32"}],"stateMutability":"view"},{"type":"function","name":"renounceOwnership","inputs":[],"outputs":[],"stateMutability":"nonpayable"},{"type":"function","name":"router","inputs":[],"outputs":[{"name":"","type":"address","internalType":"address"}],"stateMutability":"view"},{"type":"function","name":"setDefaultAsset","inputs":[{"name":"_asset","type":"address","internalType":"address"}],"outputs":[],"stateMutability":"nonpayable"},{"type":"function","name":"setDefaultProfitUnlockTime","inputs":[{"name":"_profitUnlockTime","type":"uint256","internalType":"uint256"}],"outputs":[],"stateMutability":"nonpayable"},{"type":"function","name":"setOctantFactory","inputs":[{"name":"_factory","type":"address","internalType":"address"}],"outputs":[],"stateMutability":"nonpayable"},{"type":"function","name":"setRouter","inputs":[{"name":"_router","type":"address","internalType":"address"}],"outputs":[],"stateMutability":"nonpayable"},{"type":"function","name":"transferOwnership","inputs":[{"name":"newOwner","type":"address","internalType":"address"}],"outputs":[],"stateMutability":"nonpayable"},{"type":"function","name":"upgradeTo","inputs":[{"name":"newImplementation","type":"address","internalType":"address"}],"outputs":[],"stateMutability":"nonpayable"},{"type":"function","name":"upgradeToAndCall","inputs":[{"name":"newImplementation","type":"address","internalType":"address"},{"name":"data","type":"bytes","internalType":"bytes"}],"outputs":[],"stateMutability":"payable"},{"type":"event","name":"AdminChanged","inputs":[{"name":"previousAdmin","type":"address","indexed":false,"internalType":"address"},{"name":"newAdmin","type":"address","indexed":false,"internalType":"address"}],"anonymous":false},{"type":"event","name":"BeaconUpgraded","inputs":[{"name":"beacon","type":"address","indexed":true,"internalType":"address"}],"anonymous":false},{"type":"event","name":"DefaultAssetUpdated","inputs":[{"name":"oldAsset","type":"address","indexed":true,"internalType":"address"},{"name":"newAsset","type":"address","indexed":true,"internalType":"address"}],"anonymous":false},{"type":"event","name":"FactoryUpdated","inputs":[{"name":"oldFactory","type":"address","indexed":true,"internalType":"address"},{"name":"newFactory","type":"address","indexed":true,"internalType":"address"}],"anonymous":false},{"type":"event","name":"Initialized","inputs":[{"name":"version","type":"uint8","indexed":false,"internalType":"uint8"}],"anonymous":false},{"type":"event","name":"OwnershipTransferred","inputs":[{"name":"previousOwner","type":"address","indexed":true,"internalType":"address"},{"name":"newOwner","type":"address","indexed":true,"internalType":"address"}],"anonymous":false},{"type":"event","name":"RouterUpdated","inputs":[{"name":"oldRouter","type":"address","indexed":true,"internalType":"address"},{"name":"newRouter","type":"address","indexed":true,"internalType":"address"}],"anonymous":false},{"type":"event","name":"Upgraded","inputs":[{"name":"implementation","type":"address","indexed":true,"internalType":"address"}],"anonymous":false},{"type":"event","name":"VaultCreated","inputs":[{"name":"garden","type":"address","indexed":true,"internalType":"address"},{"name":"vault","type":"address","indexed":true,"internalType":"address"},{"name":"asset","type":"address","indexed":false,"internalType":"address"}],"anonymous":false},{"type":"error","name":"AssetNotConfigured","inputs":[]},{"type":"error","name":"FactoryNotConfigured","inputs":[]},{"type":"error","name":"UnauthorizedCaller","inputs":[{"name":"caller","type":"address","internalType":"address"}]},{"type":"error","name":"VaultAlreadyExists","inputs":[{"name":"garden","type":"address","internalType":"address"}]},{"type":"error","name":"VaultCreationFailed","inputs":[{"name":"garden","type":"address","internalType":"address"}]},{"type":"error","name":"ZeroAddress","inputs":[]}],"bytecode":{"object":"0x60a0806040523460d657306080525f549060ff8260081c166084575060ff80821603604b575b6040516114c090816100db823960805181818161068d0152818161078301526109b60152f35b60ff90811916175f557f7f26b83ff96e1f2b6a682f133852f6798a09c465da95921460cefb3847402498602060405160ff8152a15f6025565b62461bcd60e51b815260206004820152602760248201527f496e697469616c697a61626c653a20636f6e747261637420697320696e697469604482015266616c697a696e6760c81b6064820152608490fd5b5f80fdfe6080604090808252600480361015610015575f80fd5b5f3560e01c9182630d453efb14610c5f575081630eb9af381461064057816321117a2114610bcf5781633659cfe61461098b5781634f1ef2861461073457816352d1902d146106795781636540e0e2146106405781636ad21772146105ea578163715018a6146105a257816376062cac1461057a5781637b20c8f4146105525781638da5cb5b1461052a57816395832466146104c25781639dfea809146104a3578163c0d7865514610436578163d04ac57414610418578163e74ee560146103c2578163f2fde38b14610332578163f7013ef614610127575063f887ea40146100fc575f80fd5b34610123575f3660031901126101235760675490516001600160a01b039091168152602090f35b5f80fd5b82346101235760a036600319011261012357610141610c98565b916024359260018060a01b039283851680950361012357604435918483168093036101235760643593858516809503610123575f549560ff8760081c161596878098610325575b801561030e575b156102b45760ff1981166001175f55876102a3575b5082161561029557861561029557506101de906101d060ff5f5460081c166101cb81611112565b611112565b6101d9336110dd565b6110dd565b8260018060a01b03198681606754161760675583816065541617606555606654161760665560843560695551935f5f805160206113548339815191528180a38061027d575b5080610265575b5061023157005b60207f7f26b83ff96e1f2b6a682f133852f6798a09c465da95921460cefb38474024989161ff00195f54165f5560018152a1005b5f5f805160206113b48339815191528180a38261022a565b5f5f805160206114348339815191528180a383610223565b825163d92e233d60e01b8152fd5b61ffff1916610101175f55886101a4565b845162461bcd60e51b8152602081850152602e60248201527f496e697469616c697a61626c653a20636f6e747261637420697320616c72656160448201526d191e481a5b9a5d1a585b1a5e995960921b6064820152608490fd5b50303b15801561018f5750600160ff82161461018f565b50600160ff821610610188565b9050346101235760203660031901126101235761034d610c98565b91610356610e9c565b6001600160a01b038316156103705761036e836110dd565b005b906020608492519162461bcd60e51b8352820152602660248201527f4f776e61626c653a206e6577206f776e657220697320746865207a65726f206160448201526564647265737360d01b6064820152fd5b34610123576020366003190112610123576103db610c98565b6103e3610e9c565b606680546001600160a01b039283166001600160a01b0319821681179092559091165f805160206113b48339815191525f80a3005b8234610123575f366003190112610123576020906069549051908152f35b90503461012357602036600319011261012357610451610c98565b9061045a610e9c565b6001600160a01b03918216928315610496575050606780546001600160a01b031981168417909155165f805160206113548339815191525f80a3005b5163d92e233d60e01b8152fd5b34610123576020366003190112610123576104bc610e9c565b35606955005b8234610123576104d136610cae565b60675490946001600160a01b03939184163314158061051c575b6105055750936104fd91602095610e4a565b915191168152f35b60249085519063d86ad9cf60e01b82523390820152fd5b5083603354163314156104eb565b8234610123575f3660031901126101235760335490516001600160a01b039091168152602090f35b8234610123575f3660031901126101235760665490516001600160a01b039091168152602090f35b8234610123575f3660031901126101235760655490516001600160a01b039091168152602090f35b34610123575f366003190112610123576105ba610e9c565b603380546001600160a01b031981169091555f906001600160a01b03165f805160206113f48339815191528280a3005b3461012357602036600319011261012357610603610c98565b61060b610e9c565b606580546001600160a01b039283166001600160a01b0319821681179092559091165f805160206114348339815191525f80a3005b8234610123576020366003190112610123576020906001600160a01b0380610666610c98565b165f5260688352815f2054169051908152f35b905034610123575f366003190112610123577f00000000000000000000000000000000000000000000000000000000000000006001600160a01b031630036106d157602082515f805160206113d48339815191528152f35b6020608492519162461bcd60e51b8352820152603860248201527f555550535570677261646561626c653a206d757374206e6f742062652063616c6044820152771b1959081d1a1c9bdd59da0819195b1959d85d1958d85b1b60421b6064820152fd5b90508160031936011261012357610749610c98565b916024356001600160401b0381116101235736602382011215610123576107799036906024818601359101610d78565b6001600160a01b037f000000000000000000000000000000000000000000000000000000000000000081169291906107b330851415610dae565b6107cf5f805160206113d4833981519152948286541614610dfc565b6107d7610e9c565b5f805160206113748339815191525460ff16156107fc57505050505061036e90611227565b85168251936352d1902d60e01b855260209485818881865afa5f918161095c575b5061086957845162461bcd60e51b8152808801879052602e60248201525f8051602061149483398151915260448201526d6f6e206973206e6f74205555505360901b6064820152608490fd5b959192950361091a575061087c85611227565b5f805160206114148339815191525f80a2825115801590610912575b61089e57005b61036e935f808351956108b087610d0b565b602787525f8051602061147483398151915286880152660819985a5b195960ca1b858801528581519101845af4913d15610908573d6108fa6108f182610d5d565b92519283610d3a565b81525f81943d92013e6112b6565b50606092506112b6565b506001610898565b825162461bcd60e51b8152908101849052602960248201525f805160206114548339815191526044820152681a58589b195555525160ba1b6064820152608490fd5b9091508681813d8311610984575b6109748183610d3a565b810103126101235751905f61081d565b503d61096a565b9050346101235760209081600319360112610123576109a8610c98565b6001600160a01b03939092907f000000000000000000000000000000000000000000000000000000000000000085166109e330821415610dae565b6109ff5f805160206113d4833981519152918783541614610dfc565b610a07610e9c565b8151838101969091906001600160401b03881183891017610bbc578784525f83525f805160206113748339815191525460ff1615610a4f5750505050505061036e9150611227565b869293949596169084516352d1902d60e01b815286818981865afa5f9181610b8d575b50610abe57855162461bcd60e51b8152808901889052602e60248201525f8051602061149483398151915260448201526d6f6e206973206e6f74205555505360901b6064820152608490fd5b969192939603610b4b5750610ad282611227565b5f805160206114148339815191525f80a2835115801590610b44575b610af457005b5f8061036e96845196610b0688610d0b565b602788525f8051602061147483398151915287890152660819985a5b195960ca1b868901525190845af4913d15610908573d6108fa6108f182610d5d565b505f610aee565b835162461bcd60e51b8152908101859052602960248201525f805160206114548339815191526044820152681a58589b195555525160ba1b6064820152608490fd5b9091508781813d8311610bb5575b610ba58183610d3a565b810103126101235751905f610a72565b503d610b9b565b604186634e487b7160e01b5f525260245ffd5b823461012357610bde36610cae565b9391610be8610e9c565b6065546001600160a01b039390841615610c5157836066541615610c4057838216805f52606860205284865f205416610c2a575050936104fd91602095610f3a565b8551634293864f60e01b81529182015260249150fd5b84516001621f8abd60e21b03198152fd5b845163e5af51c160e01b8152fd5b839034610123576020366003190112610123576020916001600160a01b039081610c87610c98565b165f52606884525f20541615158152f35b600435906001600160a01b038216820361012357565b6040600319820112610123576004356001600160a01b038116810361012357916001600160401b03916024359083821161012357806023830112156101235781600401359384116101235760248483010111610123576024019190565b606081019081106001600160401b03821117610d2657604052565b634e487b7160e01b5f52604160045260245ffd5b601f909101601f19168101906001600160401b03821190821017610d2657604052565b6001600160401b038111610d2657601f01601f191660200190565b929192610d8482610d5d565b91610d926040519384610d3a565b829481845281830111610123578281602093845f960137010152565b15610db557565b60405162461bcd60e51b815260206004820152602c60248201525f8051602061139483398151915260448201526b19195b1959d85d1958d85b1b60a21b6064820152608490fd5b15610e0357565b60405162461bcd60e51b815260206004820152602c60248201525f8051602061139483398151915260448201526b6163746976652070726f787960a01b6064820152608490fd5b606554909291906001600160a01b0390811615610e9457806066541615610e94578084165f52606860205260405f2054169283610e8e57610e8b9350610f3a565b90565b50505090565b505050505f90565b6033546001600160a01b03163303610eb057565b606460405162461bcd60e51b815260206004820152602060248201527f4f776e61626c653a2063616c6c6572206973206e6f7420746865206f776e65726044820152fd5b5f5b838110610f055750505f910152565b8181015183820152602001610ef6565b90602091610f2e81518092818552858086019101610ef4565b601f01601f1916010190565b9190604091610f868351916020936d023b932b2b71023b7b7b2399016960951b858501528181602e860137610f81602e858481015f8382015203600e810187520185610d3a565b611197565b91610fc26028855180956767675641554c542d60c01b85830152610fb281518092878686019101610ef4565b8101036008810186520184610d3a565b8061100b60018060a01b03938460655416905f86606654166069549a8861101d8c519b8c98899788966337c2c12b60e21b8852600488015260a0602488015260a4870190610f15565b85810360031901604487015290610f15565b91169b8c6064840152608483015203925af15f93816110a5575b50611054578351631796e0f760e01b815260048101869052602490fd5b7f897c133dfbfe1f6239e98b4ffd7e4f6c86a62350a131a7a37790419f58af02f99193855f9694965260688252805f2094808716958660018060a01b0319825416179055606654169051908152a390565b9093508181813d83116110d6575b6110bd8183610d3a565b810103126101235751828116810361012357925f611037565b503d6110b3565b603380546001600160a01b039283166001600160a01b0319821681179092559091165f805160206113f48339815191525f80a3565b1561111957565b60405162461bcd60e51b815260206004820152602b60248201527f496e697469616c697a61626c653a20636f6e7472616374206973206e6f74206960448201526a6e697469616c697a696e6760a81b6064820152608490fd5b908151811015611183570160200190565b634e487b7160e01b5f52603260045260245ffd5b91906111a4368285610d78565b9260089160088551111561121757505060408051919082016001600160401b03811183821017610d265760405260088252602036818401375f5b8181106111ec575090925050565b6001906001600160f81b03196112028288611172565b51165f1a6112108286611172565b53016111de565b909150610e8b9293503691610d78565b803b1561125b575f805160206113d483398151915280546001600160a01b0319166001600160a01b03909216919091179055565b60405162461bcd60e51b815260206004820152602d60248201527f455243313936373a206e657720696d706c656d656e746174696f6e206973206e60448201526c1bdd08184818dbdb9d1c9858dd609a1b6064820152608490fd5b9192901561131857508151156112ca575090565b3b156112d35790565b60405162461bcd60e51b815260206004820152601d60248201527f416464726573733a2063616c6c20746f206e6f6e2d636f6e74726163740000006044820152606490fd5b82519091501561132b5750805190602001fd5b60405162461bcd60e51b81526020600482015290819061134f906024830190610f15565b0390fdfe02dc5c233404867c793b749c6d644beb2277536d18a7e7974d3f238e4c6f16844910fdfa16fed3260ed0e7147f7cc6da11a60208b5b9406d12a635614ffd914346756e6374696f6e206d7573742062652063616c6c6564207468726f756768207046954ffd27a68cf4951a420b1d73efb449feb50b9e15603a577432751935cb360894a13ba1a3210667c828492db98dca3e2076cc3735a920a3ca505d382bbc8be0079c531659141344cd1fd0a4f28419497f9722a3daafe3b4186f6b6457e0bc7cd75a20ee27fd9adebab32041f755214dbc6bffa90cc0225b39da2e5c2d3b333c7678baf16017cf31e1d2f90143a62aab01a67a0807f6836a4304ceabb55545524331393637557067726164653a20756e737570706f727465642070726f78416464726573733a206c6f772d6c6576656c2064656c65676174652063616c6c45524331393637557067726164653a206e657720696d706c656d656e74617469a164736f6c6343000819000a","linkReferences":{}},"methodIdentifiers":{"createVaultForGarden(address,string)":"21117a21","defaultAsset()":"7b20c8f4","defaultProfitUnlockTime()":"d04ac574","gardenVaults(address)":"6540e0e2","getVault(address)":"0eb9af38","hasVault(address)":"0d453efb","initialize(address,address,address,address,uint256)":"f7013ef6","octantFactory()":"76062cac","onWorkApproved(address,string)":"95832466","owner()":"8da5cb5b","proxiableUUID()":"52d1902d","renounceOwnership()":"715018a6","router()":"f887ea40","setDefaultAsset(address)":"e74ee560","setDefaultProfitUnlockTime(uint256)":"9dfea809","setOctantFactory(address)":"6ad21772","setRouter(address)":"c0d78655","transferOwnership(address)":"f2fde38b","upgradeTo(address)":"3659cfe6","upgradeToAndCall(address,bytes)":"4f1ef286"},"id":129}