{"abi":[{"type":"constructor","inputs":[],"stateMutability":"nonpayable"},{"type":"function","name":"MODULE_GAP","inputs":[],"outputs":[{"name":"","type":"bytes32","internalType":"bytes32"}],"stateMutability":"view"},{"type":"function","name":"MODULE_GREENWILL","inputs":[],"outputs":[{"name":"","type":"bytes32","internalType":"bytes32"}],"stateMutability":"view"},{"type":"function","name":"MODULE_HYPERCERTS","inputs":[],"outputs":[{"name":"","type":"bytes32","internalType":"bytes32"}],"stateMutability":"view"},{"type":"function","name":"MODULE_OCTANT","inputs":[],"outputs":[{"name":"","type":"bytes32","internalType":"bytes32"}],"stateMutability":"view"},{"type":"function","name":"MODULE_UNLOCK","inputs":[],"outputs":[{"name":"","type":"bytes32","internalType":"bytes32"}],"stateMutability":"view"},{"type":"function","name":"authorizedCallers","inputs":[{"name":"caller","type":"address","internalType":"address"}],"outputs":[{"name":"authorized","type":"bool","internalType":"bool"}],"stateMutability":"view"},{"type":"function","name":"initialize","inputs":[{"name":"_owner","type":"address","internalType":"address"},{"name":"_workApprovalResolver","type":"address","internalType":"address"},{"name":"_assessmentResolver","type":"address","internalType":"address"}],"outputs":[],"stateMutability":"nonpayable"},{"type":"function","name":"isModuleEnabled","inputs":[{"name":"moduleId","type":"bytes32","internalType":"bytes32"}],"outputs":[{"name":"","type":"bool","internalType":"bool"}],"stateMutability":"view"},{"type":"function","name":"octantModule","inputs":[],"outputs":[{"name":"","type":"address","internalType":"contract OctantModule"}],"stateMutability":"view"},{"type":"function","name":"onAssessmentCreated","inputs":[{"name":"garden","type":"address","internalType":"address"},{"name":"assessmentUID","type":"bytes32","internalType":"bytes32"},{"name":"attester","type":"address","internalType":"address"},{"name":"title","type":"string","internalType":"string"},{"name":"description","type":"string","internalType":"string"},{"name":"capitals","type":"string[]","internalType":"string[]"},{"name":"assessmentType","type":"string","internalType":"string"}],"outputs":[],"stateMutability":"nonpayable"},{"type":"function","name":"onWorkApproved","inputs":[{"name":"garden","type":"address","internalType":"address"},{"name":"workUID","type":"bytes32","internalType":"bytes32"},{"name":"approvalUID","type":"bytes32","internalType":"bytes32"},{"name":"actionUID","type":"bytes32","internalType":"bytes32"},{"name":"worker","type":"address","internalType":"address"},{"name":"attester","type":"address","internalType":"address"},{"name":"feedback","type":"string","internalType":"string"},{"name":"mediaIPFS","type":"string","internalType":"string"}],"outputs":[],"stateMutability":"nonpayable"},{"type":"function","name":"owner","inputs":[],"outputs":[{"name":"","type":"address","internalType":"address"}],"stateMutability":"view"},{"type":"function","name":"proxiableUUID","inputs":[],"outputs":[{"name":"","type":"bytes32","internalType":"bytes32"}],"stateMutability":"view"},{"type":"function","name":"renounceOwnership","inputs":[],"outputs":[],"stateMutability":"nonpayable"},{"type":"function","name":"setAuthorizedCaller","inputs":[{"name":"caller","type":"address","internalType":"address"},{"name":"authorized","type":"bool","internalType":"bool"}],"outputs":[],"stateMutability":"nonpayable"},{"type":"function","name":"setModuleEnabled","inputs":[{"name":"moduleId","type":"bytes32","internalType":"bytes32"},{"name":"enabled","type":"bool","internalType":"bool"}],"outputs":[],"stateMutability":"nonpayable"},{"type":"function","name":"setOctantModule","inputs":[{"name":"_module","type":"address","internalType":"address"}],"outputs":[],"stateMutability":"nonpayable"},{"type":"function","name":"setUnlockModule","inputs":[{"name":"_module","type":"address","internalType":"address"}],"outputs":[],"stateMutability":"nonpayable"},{"type":"function","name":"transferOwnership","inputs":[{"name":"newOwner","type":"address","internalType":"address"}],"outputs":[],"stateMutability":"nonpayable"},{"type":"function","name":"unlockModule","inputs":[],"outputs":[{"name":"","type":"address","internalType":"contract UnlockModule"}],"stateMutability":"view"},{"type":"function","name":"upgradeTo","inputs":[{"name":"newImplementation","type":"address","internalType":"address"}],"outputs":[],"stateMutability":"nonpayable"},{"type":"function","name":"upgradeToAndCall","inputs":[{"name":"newImplementation","type":"address","internalType":"address"},{"name":"data","type":"bytes","internalType":"bytes"}],"outputs":[],"stateMutability":"payable"},{"type":"event","name":"AdminChanged","inputs":[{"name":"previousAdmin","type":"address","indexed":false,"internalType":"address"},{"name":"newAdmin","type":"address","indexed":false,"internalType":"address"}],"anonymous":false},{"type":"event","name":"AuthorizedCallerChanged","inputs":[{"name":"caller","type":"address","indexed":true,"internalType":"address"},{"name":"authorized","type":"bool","indexed":false,"internalType":"bool"}],"anonymous":false},{"type":"event","name":"BeaconUpgraded","inputs":[{"name":"beacon","type":"address","indexed":true,"internalType":"address"}],"anonymous":false},{"type":"event","name":"Initialized","inputs":[{"name":"version","type":"uint8","indexed":false,"internalType":"uint8"}],"anonymous":false},{"type":"event","name":"ModuleExecutionFailed","inputs":[{"name":"moduleId","type":"bytes32","indexed":true,"internalType":"bytes32"},{"name":"garden","type":"address","indexed":true,"internalType":"address"},{"name":"attestationUID","type":"bytes32","indexed":true,"internalType":"bytes32"}],"anonymous":false},{"type":"event","name":"ModuleExecutionSuccess","inputs":[{"name":"moduleId","type":"bytes32","indexed":true,"internalType":"bytes32"},{"name":"garden","type":"address","indexed":true,"internalType":"address"},{"name":"attestationUID","type":"bytes32","indexed":true,"internalType":"bytes32"}],"anonymous":false},{"type":"event","name":"ModuleStatusChanged","inputs":[{"name":"moduleId","type":"bytes32","indexed":true,"internalType":"bytes32"},{"name":"enabled","type":"bool","indexed":false,"internalType":"bool"}],"anonymous":false},{"type":"event","name":"OctantModuleUpdated","inputs":[{"name":"oldModule","type":"address","indexed":true,"internalType":"address"},{"name":"newModule","type":"address","indexed":true,"internalType":"address"}],"anonymous":false},{"type":"event","name":"OwnershipTransferred","inputs":[{"name":"previousOwner","type":"address","indexed":true,"internalType":"address"},{"name":"newOwner","type":"address","indexed":true,"internalType":"address"}],"anonymous":false},{"type":"event","name":"UnlockModuleUpdated","inputs":[{"name":"oldModule","type":"address","indexed":true,"internalType":"address"},{"name":"newModule","type":"address","indexed":true,"internalType":"address"}],"anonymous":false},{"type":"event","name":"Upgraded","inputs":[{"name":"implementation","type":"address","indexed":true,"internalType":"address"}],"anonymous":false},{"type":"error","name":"UnauthorizedCaller","inputs":[{"name":"caller","type":"address","internalType":"address"}]},{"type":"error","name":"ZeroAddress","inputs":[]}],"bytecode":{"object":"0x60a0806040523460d657306080525f549060ff8260081c166084575060ff80821603604b575b6040516117b990816100db82396080518181816109ee01528181610b120152610e4f0152f35b60ff90811916175f557f7f26b83ff96e1f2b6a682f133852f6798a09c465da95921460cefb3847402498602060405160ff8152a15f6025565b62461bcd60e51b815260206004820152602760248201527f496e697469616c697a61626c653a20636f6e747261637420697320696e697469604482015266616c697a696e6760c81b6064820152608490fd5b5f80fdfe6080604090808252600480361015610015575f80fd5b5f3560e01c91826307ae489e14610ffd57508163266f865214610fd55781633659cfe614610e24578163454bbd2914610da95781634c52844614610d405781634f1ef28614610a9557816352d1902d146109da578163536fff6c1461099e57816356a81499146109355781635d65eb2d146105ce578163715018a614610586578163852036111461055e57816387ae3877146105375781638bb9d09b146105105781638da5cb5b146104e8578163aa0ef5f7146104c1578163b6450b8d14610495578163c0c53b8b14610277578163c222d3b114610219578163f009a352146101df578163f2fde38b1461014f575063f81cf3e714610112575f80fd5b3461014b575f36600319011261014b57602090517fd421d37cb988cf239f45246dba7cd4238d27380ab53459cafbfecd0d27599ecc8152f35b5f80fd5b90503461014b57602036600319011261014b5761016a611119565b916101736113ad565b6001600160a01b0383161561018d5761018b8361144b565b005b906020608492519162461bcd60e51b8352820152602660248201527f4f776e61626c653a206e6577206f776e657220697320746865207a65726f206160448201526564647265737360d01b6064820152fd5b823461014b575f36600319011261014b57602090517f0ebe32b145e3fbb893812bc5c61efae507892a978f0c3b88b7be8a0ad59ec1398152f35b90503461014b578160031936011261014b5760205f8051602061170d833981519152913592610246611172565b9061024f6113ad565b845f526065835261026e82825f209060ff801983541691151516179055565b519015158152a2005b823461014b57606036600319011261014b57610291611119565b6024356001600160a01b038181169182900361014b576102af61112f565b5f549260ff8460081c161594858096610488575b8015610471575b156104175760019760ff1995878a888316175f55610406575b50848216156103f857506103189061030a60ff5f5460081c1661030581611480565b611480565b6103133361144b565b61144b565b806103c9575b50168061039a575b505f8051602061160d83398151915290815f52606560205284845f20918254161790555f8051602061170d83398151915260208451868152a261036557005b7f7f26b83ff96e1f2b6a682f133852f6798a09c465da95921460cefb38474024989160209161ff00195f54165f5551908152a1005b805f526066602052835f2085838254161790555f8051602061164d83398151915260208551878152a284610326565b805f526066602052855f2087858254161790555f8051602061164d83398151915260208751898152a28661031e565b875163d92e233d60e01b8152fd5b61ffff1916610101175f55896102e3565b865162461bcd60e51b81526020818a0152602e60248201527f496e697469616c697a61626c653a20636f6e747261637420697320616c72656160448201526d191e481a5b9a5d1a585b1a5e995960921b6064820152608490fd5b50303b1580156102ca5750600160ff8616146102ca565b50600160ff8616106102c3565b823461014b57602036600319011261014b57602091355f526065825260ff815f20541690519015158152f35b823461014b575f36600319011261014b57602090515f8051602061160d8339815191528152f35b823461014b575f36600319011261014b5760335490516001600160a01b039091168152602090f35b823461014b575f36600319011261014b57602090515f805160206116ad8339815191528152f35b823461014b575f36600319011261014b57602090515f8051602061176d8339815191528152f35b823461014b575f36600319011261014b5760685490516001600160a01b039091168152602090f35b3461014b575f36600319011261014b5761059e6113ad565b603380546001600160a01b031981169091555f906001600160a01b03165f8051602061172d8339815191528280a3005b90503461014b5761010036600319011261014b576105ea611119565b60243592906001600160a01b03608435818116929083900361014b5760a4358281160361014b576001600160401b039160c43583811161014b576106319036908801611145565b505060e43583811161014b5761064a9036908801611145565b5050335f526020926066845260ff865f2054161580610927575b610911575f8051602061160d8339815191525f526065845260ff865f205416610902575b5f8051602061176d833981519152805f526065855260ff875f205416806108f5575b610783575b50505f805160206116ad83398151915294855f526065845260ff815f20541680610776575b6106da57005b83925f606492846068541690519788958694630417d3bf60e41b865216809b85015260248401528a60448401525af19182915f93610746575b505061072d57505f805160206116cd8339815191525f80a4005b61073357005b5f8051602061162d8339815191525f80a4005b9080929350813d831161076f575b61075e81836111b0565b8101031261014b5751905f80610713565b503d610754565b50816068541615156106d4565b86516306fdde0360e01b815284841692905f818b81875afa9182156108eb579185918c9594935f92610876575b5050878a8c865f8660675416926107e5855197889687958694634ac1923360e11b865285015260248401526044830190611426565b03925af15f9181610838575b506108115750505f805160206116cd8339815191525f80a45b5f806106af565b1661081f575b50505061080a565b5f8051602061162d8339815191525f80a4865f80610817565b92509450508681813d831161086f575b61085281836111b0565b8101031261014b5751848116810361014b578a938591905f6107f1565b503d610848565b92509450503d805f863e61088a81866111b0565b840193878186031261014b57805191821161014b57019280601f8501121561014b578351906108b8826111d3565b906108c58b5192836111b0565b82825288838701011161014b576108e486928d968a8085019101611405565b5f806107b0565b89513d5f823e3d90fd5b50826067541615156106aa565b61090c888461128a565b610688565b855163d86ad9cf60e01b81523381890152602490fd5b508160335416331415610664565b3461014b57602036600319011261014b5761094e611119565b6109566113ad565b606880546001600160a01b039283166001600160a01b0319821681179092559091167f14bb9d958c727e17afd89750b7883de43122f1c2010930a067f302173ff095d25f80a3005b823461014b57602036600319011261014b576020906001600160a01b036109c3611119565b165f526066825260ff815f20541690519015158152f35b90503461014b575f36600319011261014b577f00000000000000000000000000000000000000000000000000000000000000006001600160a01b03163003610a3257602082515f805160206116ed8339815191528152f35b6020608492519162461bcd60e51b8352820152603860248201527f555550535570677261646561626c653a206d757374206e6f742062652063616c6044820152771b1959081d1a1c9bdd59da0819195b1959d85d1958d85b1b60421b6064820152fd5b90508160031936011261014b57610aaa611119565b602435929091906001600160401b03841161014b573660238501121561014b578382013590610ad8826111d3565b610ae4825191826111b0565b82815260209283820196366024838301011161014b57815f9260248793018a37830101526001600160a01b037f0000000000000000000000000000000000000000000000000000000000000000811690610b40308314156111ee565b610b5c5f805160206116ed83398151915292828454161461123c565b610b646113ad565b5f8051602061166d8339815191525460ff1615610b8b5750505050505061018b91506114e0565b869293949596169084516352d1902d60e01b815286818981865afa5f9181610d11575b50610bfa57855162461bcd60e51b8152808901889052602e60248201525f8051602061178d83398151915260448201526d6f6e206973206e6f74205555505360901b6064820152608490fd5b969192939603610cbc5750610c0e826114e0565b5f8051602061174d8339815191525f80a2835115801590610cb4575b610c3057005b5f8061018b96845196610c4288611181565b602788527f416464726573733a206c6f772d6c6576656c2064656c65676174652063616c6c87890152660819985a5b195960ca1b868901525190845af4913d15610caa573d610c9c610c93826111d3565b925192836111b0565b81525f81943d92013e61156f565b506060925061156f565b506001610c2a565b835162461bcd60e51b8152908101859052602960248201527f45524331393637557067726164653a20756e737570706f727465642070726f786044820152681a58589b195555525160ba1b6064820152608490fd5b9091508781813d8311610d39575b610d2981836111b0565b8101031261014b5751905f610bae565b503d610d1f565b3461014b57602036600319011261014b57610d59611119565b610d616113ad565b606780546001600160a01b039283166001600160a01b0319821681179092559091167f8240dda544eb8ec4199e2248ad32f0b0962089fa82835994e8291bd75b5a663a5f80a3005b823461014b578060031936011261014b57610dc2611119565b90610dcb611172565b91610dd46113ad565b6001600160a01b0316928315610e1657505f8051602061164d83398151915291602091845f526066835261026e82825f209060ff801983541691151516179055565b905163d92e233d60e01b8152fd5b90503461014b576020908160031936011261014b57610e41611119565b6001600160a01b03939092907f00000000000000000000000000000000000000000000000000000000000000008516610e7c308214156111ee565b610e985f805160206116ed83398151915291878354161461123c565b610ea06113ad565b8151838101969091906001600160401b03881183891017610fc2578784525f83525f8051602061166d8339815191525460ff1615610ee85750505050505061018b91506114e0565b869293949596169084516352d1902d60e01b815286818981865afa5f9181610f93575b50610f5757855162461bcd60e51b8152808901889052602e60248201525f8051602061178d83398151915260448201526d6f6e206973206e6f74205555505360901b6064820152608490fd5b969192939603610cbc5750610f6b826114e0565b5f8051602061174d8339815191525f80a2835115801590610f8c57610c3057005b505f610c2a565b9091508781813d8311610fbb575b610fab81836111b0565b8101031261014b5751905f610f0b565b503d610fa1565b604186634e487b7160e01b5f525260245ffd5b823461014b575f36600319011261014b5760675490516001600160a01b039091168152602090f35b83903461014b5760e036600319011261014b57611018611119565b9261102161112f565b506001600160401b0360643581811161014b576110419036908401611145565b505060843581811161014b5761105a9036908401611145565b505060a43581811161014b573660238201121561014b57808301359082821161014b57602490369260051b01011161014b5760c43590811161014b576110a39036908301611145565b5050335f52606660205260ff835f2054161580611104575b6110ef578360ff845f8051602061160d8339815191525f5260656020525f2054166110e257005b61018b906024359061128a565b63d86ad9cf60e01b8252339082015260249150fd5b506033546001600160a01b03163314156110bb565b600435906001600160a01b038216820361014b57565b604435906001600160a01b038216820361014b57565b9181601f8401121561014b578235916001600160401b03831161014b576020838186019501011161014b57565b60243590811515820361014b57565b606081019081106001600160401b0382111761119c57604052565b634e487b7160e01b5f52604160045260245ffd5b601f909101601f19168101906001600160401b0382119082101761119c57604052565b6001600160401b03811161119c57601f01601f191660200190565b156111f557565b60405162461bcd60e51b815260206004820152602c60248201525f8051602061168d83398151915260448201526b19195b1959d85d1958d85b1b60a21b6064820152608490fd5b1561124357565b60405162461bcd60e51b815260206004820152602c60248201525f8051602061168d83398151915260448201526b6163746976652070726f787960a01b6064820152608490fd5b600a461480156113a1575b8015611396575b801561138a575b801561137e575b8015611373575b8015611368575b801561135d575b1561131c5760405163f89b9b9360e01b81526001600160a01b039190911690602081600481855afa908115611352575f91611320575b501561131c575f8051602061160d8339815191525f8051602061162d8339815191525f80a4565b5050565b90506020813d60201161134a575b8161133b602093836111b0565b8101031261014b57515f6112f5565b3d915061132e565b6040513d5f823e3d90fd5b5061053046146112bf565b5061053146146112b8565b5061a4ec46146112b1565b5062014a3446146112aa565b5062aa36a746146112a3565b5061a4b1461461129c565b5062aa37dc4614611295565b6033546001600160a01b031633036113c157565b606460405162461bcd60e51b815260206004820152602060248201527f4f776e61626c653a2063616c6c6572206973206e6f7420746865206f776e65726044820152fd5b5f5b8381106114165750505f910152565b8181015183820152602001611407565b9060209161143f81518092818552858086019101611405565b601f01601f1916010190565b603380546001600160a01b039283166001600160a01b0319821681179092559091165f8051602061172d8339815191525f80a3565b1561148757565b60405162461bcd60e51b815260206004820152602b60248201527f496e697469616c697a61626c653a20636f6e7472616374206973206e6f74206960448201526a6e697469616c697a696e6760a81b6064820152608490fd5b803b15611514575f805160206116ed83398151915280546001600160a01b0319166001600160a01b03909216919091179055565b60405162461bcd60e51b815260206004820152602d60248201527f455243313936373a206e657720696d706c656d656e746174696f6e206973206e60448201526c1bdd08184818dbdb9d1c9858dd609a1b6064820152608490fd5b919290156115d15750815115611583575090565b3b1561158c5790565b60405162461bcd60e51b815260206004820152601d60248201527f416464726573733a2063616c6c20746f206e6f6e2d636f6e74726163740000006044820152606490fd5b8251909150156115e45750805190602001fd5b60405162461bcd60e51b815260206004820152908190611608906024830190611426565b0390fdfeab52f0256cbcaa24ccad7f5bebbc7ccf47ef4ec9d4c2b354ab0e03d82ebda8b8372d85d9626ff048655c2142bfd310e733bd8fb9a66545c1d995cba96e972d58a92df1880acb1daa8d0c0aaf75f5e2929bd35a0ee4ad82604e6ae508fe120dc74910fdfa16fed3260ed0e7147f7cc6da11a60208b5b9406d12a635614ffd914346756e6374696f6e206d7573742062652063616c6c6564207468726f7567682012755a21b06621963f5494677d2471a10330ef7ad5d571bc17b92582968032d01fdf37a82b0121ecbeb530031ae904503644acb58eb24e24b3eda4850492d703360894a13ba1a3210667c828492db98dca3e2076cc3735a920a3ca505d382bbcab2e10c76782cb6035539847ea973b69524cb8efd2585e3803f2abb1aa22bc208be0079c531659141344cd1fd0a4f28419497f9722a3daafe3b4186f6b6457e0bc7cd75a20ee27fd9adebab32041f755214dbc6bffa90cc0225b39da2e5c2d3b76d76a329a1fe84ddd5d2a0536b640c20d8a60939e62a329c9887708994b721845524331393637557067726164653a206e657720696d706c656d656e74617469a164736f6c6343000819000a","linkReferences":{}},"methodIdentifiers":{"MODULE_GAP()":"aa0ef5f7","MODULE_GREENWILL()":"f81cf3e7","MODULE_HYPERCERTS()":"f009a352","MODULE_OCTANT()":"87ae3877","MODULE_UNLOCK()":"8bb9d09b","authorizedCallers(address)":"536fff6c","initialize(address,address,address)":"c0c53b8b","isModuleEnabled(bytes32)":"b6450b8d","octantModule()":"266f8652","onAssessmentCreated(address,bytes32,address,string,string,string[],string)":"07ae489e","onWorkApproved(address,bytes32,bytes32,bytes32,address,address,string,string)":"5d65eb2d","owner()":"8da5cb5b","proxiableUUID()":"52d1902d","renounceOwnership()":"715018a6","setAuthorizedCaller(address,bool)":"454bbd29","setModuleEnabled(bytes32,bool)":"c222d3b1","setOctantModule(address)":"4c528446","setUnlockModule(address)":"56a81499","transferOwnership(address)":"f2fde38b","unlockModule()":"85203611","upgradeTo(address)":"3659cfe6","upgradeToAndCall(address,bytes)":"4f1ef286"},"id":141}