{"abi":[{"type":"constructor","inputs":[],"stateMutability":"nonpayable"},{"type":"function","name":"MODULE_GAP","inputs":[],"outputs":[{"name":"","type":"bytes32","internalType":"bytes32"}],"stateMutability":"view"},{"type":"function","name":"MODULE_GREENWILL","inputs":[],"outputs":[{"name":"","type":"bytes32","internalType":"bytes32"}],"stateMutability":"view"},{"type":"function","name":"MODULE_HYPERCERTS","inputs":[],"outputs":[{"name":"","type":"bytes32","internalType":"bytes32"}],"stateMutability":"view"},{"type":"function","name":"MODULE_OCTANT","inputs":[],"outputs":[{"name":"","type":"bytes32","internalType":"bytes32"}],"stateMutability":"view"},{"type":"function","name":"MODULE_UNLOCK","inputs":[],"outputs":[{"name":"","type":"bytes32","internalType":"bytes32"}],"stateMutability":"view"},{"type":"function","name":"authorizedCallers","inputs":[{"name":"caller","type":"address","internalType":"address"}],"outputs":[{"name":"authorized","type":"bool","internalType":"bool"}],"stateMutability":"view"},{"type":"function","name":"initialize","inputs":[{"name":"_owner","type":"address","internalType":"address"},{"name":"_workApprovalResolver","type":"address","internalType":"address"},{"name":"_assessmentResolver","type":"address","internalType":"address"}],"outputs":[],"stateMutability":"nonpayable"},{"type":"function","name":"isModuleEnabled","inputs":[{"name":"moduleId","type":"bytes32","internalType":"bytes32"}],"outputs":[{"name":"","type":"bool","internalType":"bool"}],"stateMutability":"view"},{"type":"function","name":"octantModule","inputs":[],"outputs":[{"name":"","type":"address","internalType":"contract OctantModule"}],"stateMutability":"view"},{"type":"function","name":"onAssessmentCreated","inputs":[{"name":"garden","type":"address","internalType":"address"},{"name":"assessmentUID","type":"bytes32","internalType":"bytes32"},{"name":"attester","type":"address","internalType":"address"},{"name":"title","type":"string","internalType":"string"},{"name":"description","type":"string","internalType":"string"},{"name":"capitals","type":"string[]","internalType":"string[]"},{"name":"assessmentType","type":"string","internalType":"string"}],"outputs":[],"stateMutability":"nonpayable"},{"type":"function","name":"onWorkApproved","inputs":[{"name":"garden","type":"address","internalType":"address"},{"name":"workUID","type":"bytes32","internalType":"bytes32"},{"name":"approvalUID","type":"bytes32","internalType":"bytes32"},{"name":"actionUID","type":"bytes32","internalType":"bytes32"},{"name":"worker","type":"address","internalType":"address"},{"name":"attester","type":"address","internalType":"address"},{"name":"feedback","type":"string","internalType":"string"},{"name":"mediaIPFS","type":"string","internalType":"string"}],"outputs":[],"stateMutability":"nonpayable"},{"type":"function","name":"owner","inputs":[],"outputs":[{"name":"","type":"address","internalType":"address"}],"stateMutability":"view"},{"type":"function","name":"proxiableUUID","inputs":[],"outputs":[{"name":"","type":"bytes32","internalType":"bytes32"}],"stateMutability":"view"},{"type":"function","name":"renounceOwnership","inputs":[],"outputs":[],"stateMutability":"nonpayable"},{"type":"function","name":"setAuthorizedCaller","inputs":[{"name":"caller","type":"address","internalType":"address"},{"name":"authorized","type":"bool","internalType":"bool"}],"outputs":[],"stateMutability":"nonpayable"},{"type":"function","name":"setModuleEnabled","inputs":[{"name":"moduleId","type":"bytes32","internalType":"bytes32"},{"name":"enabled","type":"bool","internalType":"bool"}],"outputs":[],"stateMutability":"nonpayable"},{"type":"function","name":"setOctantModule","inputs":[{"name":"_module","type":"address","internalType":"address"}],"outputs":[],"stateMutability":"nonpayable"},{"type":"function","name":"setUnlockModule","inputs":[{"name":"_module","type":"address","internalType":"address"}],"outputs":[],"stateMutability":"nonpayable"},{"type":"function","name":"transferOwnership","inputs":[{"name":"newOwner","type":"address","internalType":"address"}],"outputs":[],"stateMutability":"nonpayable"},{"type":"function","name":"unlockModule","inputs":[],"outputs":[{"name":"","type":"address","internalType":"contract UnlockModule"}],"stateMutability":"view"},{"type":"function","name":"upgradeTo","inputs":[{"name":"newImplementation","type":"address","internalType":"address"}],"outputs":[],"stateMutability":"nonpayable"},{"type":"function","name":"upgradeToAndCall","inputs":[{"name":"newImplementation","type":"address","internalType":"address"},{"name":"data","type":"bytes","internalType":"bytes"}],"outputs":[],"stateMutability":"payable"},{"type":"event","name":"AdminChanged","inputs":[{"name":"previousAdmin","type":"address","indexed":false,"internalType":"address"},{"name":"newAdmin","type":"address","indexed":false,"internalType":"address"}],"anonymous":false},{"type":"event","name":"AuthorizedCallerChanged","inputs":[{"name":"caller","type":"address","indexed":true,"internalType":"address"},{"name":"authorized","type":"bool","indexed":false,"internalType":"bool"}],"anonymous":false},{"type":"event","name":"BeaconUpgraded","inputs":[{"name":"beacon","type":"address","indexed":true,"internalType":"address"}],"anonymous":false},{"type":"event","name":"Initialized","inputs":[{"name":"version","type":"uint8","indexed":false,"internalType":"uint8"}],"anonymous":false},{"type":"event","name":"ModuleExecutionFailed","inputs":[{"name":"moduleId","type":"bytes32","indexed":true,"internalType":"bytes32"},{"name":"garden","type":"address","indexed":true,"internalType":"address"},{"name":"attestationUID","type":"bytes32","indexed":true,"internalType":"bytes32"}],"anonymous":false},{"type":"event","name":"ModuleExecutionSuccess","inputs":[{"name":"moduleId","type":"bytes32","indexed":true,"internalType":"bytes32"},{"name":"garden","type":"address","indexed":true,"internalType":"address"},{"name":"attestationUID","type":"bytes32","indexed":true,"internalType":"bytes32"}],"anonymous":false},{"type":"event","name":"ModuleStatusChanged","inputs":[{"name":"moduleId","type":"bytes32","indexed":true,"internalType":"bytes32"},{"name":"enabled","type":"bool","indexed":false,"internalType":"bool"}],"anonymous":false},{"type":"event","name":"OctantModuleUpdated","inputs":[{"name":"oldModule","type":"address","indexed":true,"internalType":"address"},{"name":"newModule","type":"address","indexed":true,"internalType":"address"}],"anonymous":false},{"type":"event","name":"OwnershipTransferred","inputs":[{"name":"previousOwner","type":"address","indexed":true,"internalType":"address"},{"name":"newOwner","type":"address","indexed":true,"internalType":"address"}],"anonymous":false},{"type":"event","name":"UnlockModuleUpdated","inputs":[{"name":"oldModule","type":"address","indexed":true,"internalType":"address"},{"name":"newModule","type":"address","indexed":true,"internalType":"address"}],"anonymous":false},{"type":"event","name":"Upgraded","inputs":[{"name":"implementation","type":"address","indexed":true,"internalType":"address"}],"anonymous":false},{"type":"error","name":"UnauthorizedCaller","inputs":[{"name":"caller","type":"address","internalType":"address"}]},{"type":"error","name":"ZeroAddress","inputs":[]}],"bytecode":{"object":"0x60a0806040523460d657306080525f549060ff8260081c166084575060ff80821603604b575b60405161182890816100db8239608051818181610ae601528181610c0e0152610f970152f35b60ff90811916175f557f7f26b83ff96e1f2b6a682f133852f6798a09c465da95921460cefb3847402498602060405160ff8152a15f6025565b62461bcd60e51b815260206004820152602760248201527f496e697469616c697a61626c653a20636f6e747261637420697320696e697469604482015266616c697a696e6760c81b6064820152608490fd5b5f80fdfe6080604090808252600480361015610015575f80fd5b5f3560e01c91826307ae489e1461117d57508163266f8652146111555781633659cfe614610f6c578163454bbd2914610ede5781634c52844614610e755781634f1ef28614610b9257816352d1902d14610ad2578163536fff6c14610a9657816356a8149914610a2d5781635d65eb2d14610653578163715018a6146105f857816385203611146105d057816387ae3877146105965781638bb9d09b1461055c5781638da5cb5b14610534578163aa0ef5f71461050d578163b6450b8d146104e1578163c0c53b8b1461028a578163c222d3b114610219578163f009a352146101df578163f2fde38b1461014f575063f81cf3e714610112575f80fd5b3461014b575f36600319011261014b57602090517fd421d37cb988cf239f45246dba7cd4238d27380ab53459cafbfecd0d27599ecc8152f35b5f80fd5b90503461014b57602036600319011261014b5761016a61129a565b91610173611569565b6001600160a01b0383161561018d5761018b83611607565b005b906020608492519162461bcd60e51b8352820152602660248201527f4f776e61626c653a206e6577206f776e657220697320746865207a65726f206160448201526564647265737360d01b6064820152fd5b823461014b575f36600319011261014b57602090517f0ebe32b145e3fbb893812bc5c61efae507892a978f0c3b88b7be8a0ad59ec1398152f35b90503461014b578160031936011261014b5760207fab2e10c76782cb6035539847ea973b69524cb8efd2585e3803f2abb1aa22bc209135926102596112f4565b90610262611569565b845f526065835261028182825f209060ff801983541691151516179055565b519015158152a2005b823461014b57606036600319011261014b576102a461129a565b6024356001600160a01b038181169182900361014b576102c26112b0565b5f549260ff8460081c1615948580966104d4575b80156104bd575b156104635760019760ff1995878a888316175f55610452575b5084821615610444575061032b9061031d60ff5f5460081c166103188161164f565b61164f565b61032633611607565b611607565b80610402575b5016806103c0575b505f805160206117dc83398151915290815f52606560205284845f20918254161790557fab2e10c76782cb6035539847ea973b69524cb8efd2585e3803f2abb1aa22bc2060208451868152a261038b57005b7f7f26b83ff96e1f2b6a682f133852f6798a09c465da95921460cefb38474024989160209161ff00195f54165f5551908152a1005b805f526066602052835f2085838254161790557fa92df1880acb1daa8d0c0aaf75f5e2929bd35a0ee4ad82604e6ae508fe120dc760208551878152a284610339565b805f526066602052855f2087858254161790557fa92df1880acb1daa8d0c0aaf75f5e2929bd35a0ee4ad82604e6ae508fe120dc760208751898152a286610331565b875163d92e233d60e01b8152fd5b61ffff1916610101175f55896102f6565b865162461bcd60e51b81526020818a0152602e60248201527f496e697469616c697a61626c653a20636f6e747261637420697320616c72656160448201526d191e481a5b9a5d1a585b1a5e995960921b6064820152608490fd5b50303b1580156102dd5750600160ff8616146102dd565b50600160ff8616106102d6565b823461014b57602036600319011261014b57602091355f526065825260ff815f20541690519015158152f35b823461014b575f36600319011261014b57602090515f805160206117dc8339815191528152f35b823461014b575f36600319011261014b5760335490516001600160a01b039091168152602090f35b823461014b575f36600319011261014b57602090517f12755a21b06621963f5494677d2471a10330ef7ad5d571bc17b92582968032d08152f35b823461014b575f36600319011261014b57602090517f76d76a329a1fe84ddd5d2a0536b640c20d8a60939e62a329c9887708994b72188152f35b823461014b575f36600319011261014b5760685490516001600160a01b039091168152602090f35b3461014b575f36600319011261014b57610610611569565b603380546001600160a01b031981169091555f906001600160a01b03167f8be0079c531659141344cd1fd0a4f28419497f9722a3daafe3b4186f6b6457e08280a3005b90503461014b5761010036600319011261014b5761066f61129a565b60243592906001600160a01b03608435818116929083900361014b5760a4358281160361014b5767ffffffffffffffff9160c43583811161014b576106b790369088016112c6565b505060e43583811161014b576106d090369088016112c6565b5050335f526020926066845260ff865f2054161580610a1f575b610a09575f805160206117dc8339815191525f526065845260ff865f2054166109fa575b7f76d76a329a1fe84ddd5d2a0536b640c20d8a60939e62a329c9887708994b7218805f526065855260ff875f205416806109ed575b610855575b50507f12755a21b06621963f5494677d2471a10330ef7ad5d571bc17b92582968032d094855f526065845260ff815f20541680610848575b61078657005b83925f606492846068541690519788958694630417d3bf60e41b865216809b85015260248401528a60448401525af19182915f93610818575b50506107ec57507f1fdf37a82b0121ecbeb530031ae904503644acb58eb24e24b3eda4850492d7035f80a4005b6107f257005b7f372d85d9626ff048655c2142bfd310e733bd8fb9a66545c1d995cba96e972d585f80a4005b9080929350813d8311610841575b6108308183611333565b8101031261014b5751905f806107bf565b503d610826565b5081606854161515610780565b86516306fdde0360e01b815284841692905f818b81875afa9182156109e3579185918c9594935f9261096e575b5050878a8c865f8660675416926108b7855197889687958694634ac1923360e11b8652850152602484015260448301906115e2565b03925af15f9181610930575b506108f65750507f1fdf37a82b0121ecbeb530031ae904503644acb58eb24e24b3eda4850492d7035f80a45b5f80610748565b16610904575b5050506108ef565b7f372d85d9626ff048655c2142bfd310e733bd8fb9a66545c1d995cba96e972d585f80a4865f806108fc565b92509450508681813d8311610967575b61094a8183611333565b8101031261014b5751848116810361014b578a938591905f6108c3565b503d610940565b92509450503d805f863e6109828186611333565b840193878186031261014b57805191821161014b57019280601f8501121561014b578351906109b082611355565b906109bd8b519283611333565b82825288838701011161014b576109dc86928d968a80850191016115c1565b5f80610882565b89513d5f823e3d90fd5b5082606754161515610743565b610a048884611433565b61070e565b855163d86ad9cf60e01b81523381890152602490fd5b5081603354163314156106ea565b3461014b57602036600319011261014b57610a4661129a565b610a4e611569565b606880546001600160a01b039283166001600160a01b0319821681179092559091167f14bb9d958c727e17afd89750b7883de43122f1c2010930a067f302173ff095d25f80a3005b823461014b57602036600319011261014b576020906001600160a01b03610abb61129a565b165f526066825260ff815f20541690519015158152f35b90503461014b575f36600319011261014b577f00000000000000000000000000000000000000000000000000000000000000006001600160a01b03163003610b2a57602082515f805160206117fc8339815191528152f35b6020608492519162461bcd60e51b8352820152603860248201527f555550535570677261646561626c653a206d757374206e6f742062652063616c60448201527f6c6564207468726f7567682064656c656761746563616c6c00000000000000006064820152fd5b90508160031936011261014b57610ba761129a565b906024359267ffffffffffffffff841161014b573660238501121561014b578382013590610bd482611355565b610be082519182611333565b82815260209283820196366024838301011161014b57815f9260248793018a37830101526001600160a01b037f0000000000000000000000000000000000000000000000000000000000000000811690610c3c30831415611371565b610c585f805160206117fc8339815191529282845416146113d2565b610c60611569565b7f4910fdfa16fed3260ed0e7147f7cc6da11a60208b5b9406d12a635614ffd91435460ff1615610c9a5750505050505061018b91506116af565b869293949596169084516352d1902d60e01b815286818981865afa5f9181610e46575b50610d1c57855162461bcd60e51b8152808901889052602e60248201527f45524331393637557067726164653a206e657720696d706c656d656e7461746960448201526d6f6e206973206e6f74205555505360901b6064820152608490fd5b969192939603610df15750610d30826116af565b7fbc7cd75a20ee27fd9adebab32041f755214dbc6bffa90cc0225b39da2e5c2d3b5f80a2835115801590610de9575b610d6557005b5f8061018b96845196610d7788611303565b602788527f416464726573733a206c6f772d6c6576656c2064656c65676174652063616c6c87890152660819985a5b195960ca1b868901525190845af4913d15610ddf573d610dd1610dc882611355565b92519283611333565b81525f81943d92013e61173e565b506060925061173e565b506001610d5f565b835162461bcd60e51b8152908101859052602960248201527f45524331393637557067726164653a20756e737570706f727465642070726f786044820152681a58589b195555525160ba1b6064820152608490fd5b9091508781813d8311610e6e575b610e5e8183611333565b8101031261014b5751905f610cbd565b503d610e54565b3461014b57602036600319011261014b57610e8e61129a565b610e96611569565b606780546001600160a01b039283166001600160a01b0319821681179092559091167f8240dda544eb8ec4199e2248ad32f0b0962089fa82835994e8291bd75b5a663a5f80a3005b823461014b578060031936011261014b57610ef761129a565b90610f006112f4565b91610f09611569565b6001600160a01b0316928315610f5e57507fa92df1880acb1daa8d0c0aaf75f5e2929bd35a0ee4ad82604e6ae508fe120dc791602091845f526066835261028182825f209060ff801983541691151516179055565b905163d92e233d60e01b8152fd5b90503461014b576020908160031936011261014b57610f8961129a565b6001600160a01b03939092907f00000000000000000000000000000000000000000000000000000000000000008516610fc430821415611371565b610fe05f805160206117fc8339815191529187835416146113d2565b610fe8611569565b8151908382019682881067ffffffffffffffff891117611142578784525f83527f4910fdfa16fed3260ed0e7147f7cc6da11a60208b5b9406d12a635614ffd91435460ff16156110425750505050505061018b91506116af565b869293949596169084516352d1902d60e01b815286818981865afa5f9181611113575b506110c457855162461bcd60e51b8152808901889052602e60248201527f45524331393637557067726164653a206e657720696d706c656d656e7461746960448201526d6f6e206973206e6f74205555505360901b6064820152608490fd5b969192939603610df157506110d8826116af565b7fbc7cd75a20ee27fd9adebab32041f755214dbc6bffa90cc0225b39da2e5c2d3b5f80a283511580159061110c57610d6557005b505f610d5f565b9091508781813d831161113b575b61112b8183611333565b8101031261014b5751905f611065565b503d611121565b604186634e487b7160e01b5f525260245ffd5b823461014b575f36600319011261014b5760675490516001600160a01b039091168152602090f35b83903461014b5760e036600319011261014b5761119861129a565b926111a16112b0565b5067ffffffffffffffff60643581811161014b576111c290369084016112c6565b505060843581811161014b576111db90369084016112c6565b505060a43581811161014b573660238201121561014b57808301359082821161014b57602490369260051b01011161014b5760c43590811161014b5761122490369083016112c6565b5050335f52606660205260ff835f2054161580611285575b611270578360ff845f805160206117dc8339815191525f5260656020525f20541661126357005b61018b9060243590611433565b63d86ad9cf60e01b8252339082015260249150fd5b506033546001600160a01b031633141561123c565b600435906001600160a01b038216820361014b57565b604435906001600160a01b038216820361014b57565b9181601f8401121561014b5782359167ffffffffffffffff831161014b576020838186019501011161014b57565b60243590811515820361014b57565b6060810190811067ffffffffffffffff82111761131f57604052565b634e487b7160e01b5f52604160045260245ffd5b90601f8019910116810190811067ffffffffffffffff82111761131f57604052565b67ffffffffffffffff811161131f57601f01601f191660200190565b1561137857565b60405162461bcd60e51b815260206004820152602c60248201527f46756e6374696f6e206d7573742062652063616c6c6564207468726f7567682060448201526b19195b1959d85d1958d85b1b60a21b6064820152608490fd5b156113d957565b60405162461bcd60e51b815260206004820152602c60248201527f46756e6374696f6e206d7573742062652063616c6c6564207468726f7567682060448201526b6163746976652070726f787960a01b6064820152608490fd5b600a4614801561155d575b8015611552575b8015611546575b801561153a575b801561152f575b8015611524575b8015611519575b156114d85760405163f89b9b9360e01b81526001600160a01b039190911690602081600481855afa90811561150e575f916114dc575b50156114d8575f805160206117dc8339815191527f372d85d9626ff048655c2142bfd310e733bd8fb9a66545c1d995cba96e972d585f80a4565b5050565b90506020813d602011611506575b816114f760209383611333565b8101031261014b57515f61149e565b3d91506114ea565b6040513d5f823e3d90fd5b506105304614611468565b506105314614611461565b5061a4ec461461145a565b5062014a344614611453565b5062aa36a7461461144c565b5061a4b14614611445565b5062aa37dc461461143e565b6033546001600160a01b0316330361157d57565b606460405162461bcd60e51b815260206004820152602060248201527f4f776e61626c653a2063616c6c6572206973206e6f7420746865206f776e65726044820152fd5b5f5b8381106115d25750505f910152565b81810151838201526020016115c3565b906020916115fb815180928185528580860191016115c1565b601f01601f1916010190565b603380546001600160a01b039283166001600160a01b0319821681179092559091167f8be0079c531659141344cd1fd0a4f28419497f9722a3daafe3b4186f6b6457e05f80a3565b1561165657565b60405162461bcd60e51b815260206004820152602b60248201527f496e697469616c697a61626c653a20636f6e7472616374206973206e6f74206960448201526a6e697469616c697a696e6760a81b6064820152608490fd5b803b156116e3575f805160206117fc83398151915280546001600160a01b0319166001600160a01b03909216919091179055565b60405162461bcd60e51b815260206004820152602d60248201527f455243313936373a206e657720696d706c656d656e746174696f6e206973206e60448201526c1bdd08184818dbdb9d1c9858dd609a1b6064820152608490fd5b919290156117a05750815115611752575090565b3b1561175b5790565b60405162461bcd60e51b815260206004820152601d60248201527f416464726573733a2063616c6c20746f206e6f6e2d636f6e74726163740000006044820152606490fd5b8251909150156117b35750805190602001fd5b60405162461bcd60e51b8152602060048201529081906117d79060248301906115e2565b0390fdfeab52f0256cbcaa24ccad7f5bebbc7ccf47ef4ec9d4c2b354ab0e03d82ebda8b8360894a13ba1a3210667c828492db98dca3e2076cc3735a920a3ca505d382bbca164736f6c6343000819000a","linkReferences":{}},"methodIdentifiers":{"MODULE_GAP()":"aa0ef5f7","MODULE_GREENWILL()":"f81cf3e7","MODULE_HYPERCERTS()":"f009a352","MODULE_OCTANT()":"87ae3877","MODULE_UNLOCK()":"8bb9d09b","authorizedCallers(address)":"536fff6c","initialize(address,address,address)":"c0c53b8b","isModuleEnabled(bytes32)":"b6450b8d","octantModule()":"266f8652","onAssessmentCreated(address,bytes32,address,string,string,string[],string)":"07ae489e","onWorkApproved(address,bytes32,bytes32,bytes32,address,address,string,string)":"5d65eb2d","owner()":"8da5cb5b","proxiableUUID()":"52d1902d","renounceOwnership()":"715018a6","setAuthorizedCaller(address,bool)":"454bbd29","setModuleEnabled(bytes32,bool)":"c222d3b1","setOctantModule(address)":"4c528446","setUnlockModule(address)":"56a81499","transferOwnership(address)":"f2fde38b","unlockModule()":"85203611","upgradeTo(address)":"3659cfe6","upgradeToAndCall(address,bytes)":"4f1ef286"},"id":46}