{"abi":[{"type":"constructor","inputs":[],"stateMutability":"nonpayable"},{"type":"function","name":"MODULE_GAP","inputs":[],"outputs":[{"name":"","type":"bytes32","internalType":"bytes32"}],"stateMutability":"view"},{"type":"function","name":"MODULE_GREENWILL","inputs":[],"outputs":[{"name":"","type":"bytes32","internalType":"bytes32"}],"stateMutability":"view"},{"type":"function","name":"MODULE_HYPERCERTS","inputs":[],"outputs":[{"name":"","type":"bytes32","internalType":"bytes32"}],"stateMutability":"view"},{"type":"function","name":"MODULE_OCTANT","inputs":[],"outputs":[{"name":"","type":"bytes32","internalType":"bytes32"}],"stateMutability":"view"},{"type":"function","name":"MODULE_UNLOCK","inputs":[],"outputs":[{"name":"","type":"bytes32","internalType":"bytes32"}],"stateMutability":"view"},{"type":"function","name":"authorizedCallers","inputs":[{"name":"caller","type":"address","internalType":"address"}],"outputs":[{"name":"authorized","type":"bool","internalType":"bool"}],"stateMutability":"view"},{"type":"function","name":"initialize","inputs":[{"name":"_owner","type":"address","internalType":"address"},{"name":"_workApprovalResolver","type":"address","internalType":"address"},{"name":"_assessmentResolver","type":"address","internalType":"address"}],"outputs":[],"stateMutability":"nonpayable"},{"type":"function","name":"isModuleEnabled","inputs":[{"name":"moduleId","type":"bytes32","internalType":"bytes32"}],"outputs":[{"name":"","type":"bool","internalType":"bool"}],"stateMutability":"view"},{"type":"function","name":"karmaGAPModule","inputs":[],"outputs":[{"name":"","type":"address","internalType":"contract IKarmaGAPModule"}],"stateMutability":"view"},{"type":"function","name":"octantModule","inputs":[],"outputs":[{"name":"","type":"address","internalType":"contract OctantModule"}],"stateMutability":"view"},{"type":"function","name":"onAssessmentCreated","inputs":[{"name":"garden","type":"address","internalType":"address"},{"name":"assessmentUID","type":"bytes32","internalType":"bytes32"},{"name":"attester","type":"address","internalType":"address"},{"name":"title","type":"string","internalType":"string"},{"name":"description","type":"string","internalType":"string"},{"name":"capitals","type":"string[]","internalType":"string[]"},{"name":"assessmentType","type":"string","internalType":"string"}],"outputs":[],"stateMutability":"nonpayable"},{"type":"function","name":"onWorkApproved","inputs":[{"name":"garden","type":"address","internalType":"address"},{"name":"workUID","type":"bytes32","internalType":"bytes32"},{"name":"approvalUID","type":"bytes32","internalType":"bytes32"},{"name":"actionUID","type":"bytes32","internalType":"bytes32"},{"name":"worker","type":"address","internalType":"address"},{"name":"attester","type":"address","internalType":"address"},{"name":"feedback","type":"string","internalType":"string"},{"name":"mediaIPFS","type":"string","internalType":"string"}],"outputs":[],"stateMutability":"nonpayable"},{"type":"function","name":"owner","inputs":[],"outputs":[{"name":"","type":"address","internalType":"address"}],"stateMutability":"view"},{"type":"function","name":"proxiableUUID","inputs":[],"outputs":[{"name":"","type":"bytes32","internalType":"bytes32"}],"stateMutability":"view"},{"type":"function","name":"renounceOwnership","inputs":[],"outputs":[],"stateMutability":"nonpayable"},{"type":"function","name":"setAuthorizedCaller","inputs":[{"name":"caller","type":"address","internalType":"address"},{"name":"authorized","type":"bool","internalType":"bool"}],"outputs":[],"stateMutability":"nonpayable"},{"type":"function","name":"setKarmaGAPModule","inputs":[{"name":"_module","type":"address","internalType":"address"}],"outputs":[],"stateMutability":"nonpayable"},{"type":"function","name":"setModuleEnabled","inputs":[{"name":"moduleId","type":"bytes32","internalType":"bytes32"},{"name":"enabled","type":"bool","internalType":"bool"}],"outputs":[],"stateMutability":"nonpayable"},{"type":"function","name":"setOctantModule","inputs":[{"name":"_module","type":"address","internalType":"address"}],"outputs":[],"stateMutability":"nonpayable"},{"type":"function","name":"setUnlockModule","inputs":[{"name":"_module","type":"address","internalType":"address"}],"outputs":[],"stateMutability":"nonpayable"},{"type":"function","name":"transferOwnership","inputs":[{"name":"newOwner","type":"address","internalType":"address"}],"outputs":[],"stateMutability":"nonpayable"},{"type":"function","name":"unlockModule","inputs":[],"outputs":[{"name":"","type":"address","internalType":"contract UnlockModule"}],"stateMutability":"view"},{"type":"function","name":"upgradeTo","inputs":[{"name":"newImplementation","type":"address","internalType":"address"}],"outputs":[],"stateMutability":"nonpayable"},{"type":"function","name":"upgradeToAndCall","inputs":[{"name":"newImplementation","type":"address","internalType":"address"},{"name":"data","type":"bytes","internalType":"bytes"}],"outputs":[],"stateMutability":"payable"},{"type":"event","name":"AdminChanged","inputs":[{"name":"previousAdmin","type":"address","indexed":false,"internalType":"address"},{"name":"newAdmin","type":"address","indexed":false,"internalType":"address"}],"anonymous":false},{"type":"event","name":"AuthorizedCallerChanged","inputs":[{"name":"caller","type":"address","indexed":true,"internalType":"address"},{"name":"authorized","type":"bool","indexed":false,"internalType":"bool"}],"anonymous":false},{"type":"event","name":"BeaconUpgraded","inputs":[{"name":"beacon","type":"address","indexed":true,"internalType":"address"}],"anonymous":false},{"type":"event","name":"Initialized","inputs":[{"name":"version","type":"uint8","indexed":false,"internalType":"uint8"}],"anonymous":false},{"type":"event","name":"KarmaGAPModuleUpdated","inputs":[{"name":"oldModule","type":"address","indexed":true,"internalType":"address"},{"name":"newModule","type":"address","indexed":true,"internalType":"address"}],"anonymous":false},{"type":"event","name":"ModuleExecutionFailed","inputs":[{"name":"moduleId","type":"bytes32","indexed":true,"internalType":"bytes32"},{"name":"garden","type":"address","indexed":true,"internalType":"address"},{"name":"attestationUID","type":"bytes32","indexed":true,"internalType":"bytes32"}],"anonymous":false},{"type":"event","name":"ModuleExecutionSuccess","inputs":[{"name":"moduleId","type":"bytes32","indexed":true,"internalType":"bytes32"},{"name":"garden","type":"address","indexed":true,"internalType":"address"},{"name":"attestationUID","type":"bytes32","indexed":true,"internalType":"bytes32"}],"anonymous":false},{"type":"event","name":"ModuleStatusChanged","inputs":[{"name":"moduleId","type":"bytes32","indexed":true,"internalType":"bytes32"},{"name":"enabled","type":"bool","indexed":false,"internalType":"bool"}],"anonymous":false},{"type":"event","name":"OctantModuleUpdated","inputs":[{"name":"oldModule","type":"address","indexed":true,"internalType":"address"},{"name":"newModule","type":"address","indexed":true,"internalType":"address"}],"anonymous":false},{"type":"event","name":"OwnershipTransferred","inputs":[{"name":"previousOwner","type":"address","indexed":true,"internalType":"address"},{"name":"newOwner","type":"address","indexed":true,"internalType":"address"}],"anonymous":false},{"type":"event","name":"UnlockModuleUpdated","inputs":[{"name":"oldModule","type":"address","indexed":true,"internalType":"address"},{"name":"newModule","type":"address","indexed":true,"internalType":"address"}],"anonymous":false},{"type":"event","name":"Upgraded","inputs":[{"name":"implementation","type":"address","indexed":true,"internalType":"address"}],"anonymous":false},{"type":"error","name":"UnauthorizedCaller","inputs":[{"name":"caller","type":"address","internalType":"address"}]},{"type":"error","name":"ZeroAddress","inputs":[]}],"bytecode":{"object":"0x60a0806040523460d657306080525f549060ff8260081c166084575060ff80821603604b575b60405161185d90816100db8239608051818181610b6501528181610c8d015261103e0152f35b60ff90811916175f557f7f26b83ff96e1f2b6a682f133852f6798a09c465da95921460cefb3847402498602060405160ff8152a15f6025565b62461bcd60e51b815260206004820152602760248201527f496e697469616c697a61626c653a20636f6e747261637420697320696e697469604482015266616c697a696e6760c81b6064820152608490fd5b5f80fdfe6080604090808252600480361015610015575f80fd5b5f3560e01c91826307ae489e1461122457508163266f8652146111fc5781633659cfe6146110135781634026d76214610feb578163454bbd2914610f5d5781634c52844614610ef45781634f1ef28614610c1157816352d1902d14610b51578163536fff6c14610b1557816356a8149914610aac5781635d65eb2d146106d2578163715018a614610677578163852036111461064f57816387ae3877146106155781638bb9d09b146105db5781638da5cb5b146105b3578163aa0ef5f71461058c578163b6450b8d14610560578163c0c53b8b14610309578163c222d3b114610298578163d9e4aaee1461022f578163f009a352146101f5578163f2fde38b14610165575063f81cf3e714610128575f80fd5b34610161575f36600319011261016157602090517fd421d37cb988cf239f45246dba7cd4238d27380ab53459cafbfecd0d27599ecc8152f35b5f80fd5b90503461016157602036600319011261016157610180611341565b9161018961159e565b6001600160a01b038316156101a3576101a18361163c565b005b906020608492519162461bcd60e51b8352820152602660248201527f4f776e61626c653a206e6577206f776e657220697320746865207a65726f206160448201526564647265737360d01b6064820152fd5b8234610161575f36600319011261016157602090517f0ebe32b145e3fbb893812bc5c61efae507892a978f0c3b88b7be8a0ad59ec1398152f35b3461016157602036600319011261016157610248611341565b61025061159e565b606980546001600160a01b039283166001600160a01b0319821681179092559091167fdbf2e72ed7bd92ccbb36e552bb0c1a8df6df7e6a54ab7ddc78720975e93fc88e5f80a3005b90503461016157816003193601126101615760207fab2e10c76782cb6035539847ea973b69524cb8efd2585e3803f2abb1aa22bc209135926102d861139b565b906102e161159e565b845f526065835261030082825f209060ff801983541691151516179055565b519015158152a2005b823461016157606036600319011261016157610323611341565b6024356001600160a01b038181169182900361016157610341611357565b5f549260ff8460081c161594858096610553575b801561053c575b156104e25760019760ff1995878a888316175f556104d1575b50848216156104c357506103aa9061039c60ff5f5460081c1661039781611684565b611684565b6103a53361163c565b61163c565b80610481575b50168061043f575b505f8051602061181183398151915290815f52606560205284845f20918254161790557fab2e10c76782cb6035539847ea973b69524cb8efd2585e3803f2abb1aa22bc2060208451868152a261040a57005b7f7f26b83ff96e1f2b6a682f133852f6798a09c465da95921460cefb38474024989160209161ff00195f54165f5551908152a1005b805f526066602052835f2085838254161790557fa92df1880acb1daa8d0c0aaf75f5e2929bd35a0ee4ad82604e6ae508fe120dc760208551878152a2846103b8565b805f526066602052855f2087858254161790557fa92df1880acb1daa8d0c0aaf75f5e2929bd35a0ee4ad82604e6ae508fe120dc760208751898152a2866103b0565b875163d92e233d60e01b8152fd5b61ffff1916610101175f5589610375565b865162461bcd60e51b81526020818a0152602e60248201527f496e697469616c697a61626c653a20636f6e747261637420697320616c72656160448201526d191e481a5b9a5d1a585b1a5e995960921b6064820152608490fd5b50303b15801561035c5750600160ff86161461035c565b50600160ff861610610355565b823461016157602036600319011261016157602091355f526065825260ff815f20541690519015158152f35b8234610161575f36600319011261016157602090515f805160206118118339815191528152f35b8234610161575f3660031901126101615760335490516001600160a01b039091168152602090f35b8234610161575f36600319011261016157602090517f12755a21b06621963f5494677d2471a10330ef7ad5d571bc17b92582968032d08152f35b8234610161575f36600319011261016157602090517f76d76a329a1fe84ddd5d2a0536b640c20d8a60939e62a329c9887708994b72188152f35b8234610161575f3660031901126101615760685490516001600160a01b039091168152602090f35b34610161575f3660031901126101615761068f61159e565b603380546001600160a01b031981169091555f906001600160a01b03167f8be0079c531659141344cd1fd0a4f28419497f9722a3daafe3b4186f6b6457e08280a3005b90503461016157610100366003190112610161576106ee611341565b60243592906001600160a01b0360843581811692908390036101615760a435828116036101615767ffffffffffffffff9160c43583811161016157610736903690880161136d565b505060e4358381116101615761074f903690880161136d565b5050335f526020926066845260ff865f2054161580610a9e575b610a88575f805160206118118339815191525f526065845260ff865f205416610a79575b7f76d76a329a1fe84ddd5d2a0536b640c20d8a60939e62a329c9887708994b7218805f526065855260ff875f20541680610a6c575b6108d4575b50507f12755a21b06621963f5494677d2471a10330ef7ad5d571bc17b92582968032d094855f526065845260ff815f205416806108c7575b61080557005b83925f606492846068541690519788958694630417d3bf60e41b865216809b85015260248401528a60448401525af19182915f93610897575b505061086b57507f1fdf37a82b0121ecbeb530031ae904503644acb58eb24e24b3eda4850492d7035f80a4005b61087157005b7f372d85d9626ff048655c2142bfd310e733bd8fb9a66545c1d995cba96e972d585f80a4005b9080929350813d83116108c0575b6108af81836113da565b810103126101615751905f8061083e565b503d6108a5565b50816068541615156107ff565b86516306fdde0360e01b815284841692905f818b81875afa918215610a62579185918c9594935f926109ed575b5050878a8c865f866067541692610936855197889687958694634ac1923360e11b865285015260248401526044830190611617565b03925af15f91816109af575b506109755750507f1fdf37a82b0121ecbeb530031ae904503644acb58eb24e24b3eda4850492d7035f80a45b5f806107c7565b16610983575b50505061096e565b7f372d85d9626ff048655c2142bfd310e733bd8fb9a66545c1d995cba96e972d585f80a4865f8061097b565b92509450508681813d83116109e6575b6109c981836113da565b8101031261016157518481168103610161578a938591905f610942565b503d6109bf565b92509450503d805f863e610a0181866113da565b840193878186031261016157805191821161016157019280601f8501121561016157835190610a2f826113fc565b90610a3c8b5192836113da565b82825288838701011161016157610a5b86928d968a80850191016115f6565b5f80610901565b89513d5f823e3d90fd5b50826067541615156107c2565b610a8388846114da565b61078d565b855163d86ad9cf60e01b81523381890152602490fd5b508160335416331415610769565b3461016157602036600319011261016157610ac5611341565b610acd61159e565b606880546001600160a01b039283166001600160a01b0319821681179092559091167f14bb9d958c727e17afd89750b7883de43122f1c2010930a067f302173ff095d25f80a3005b8234610161576020366003190112610161576020906001600160a01b03610b3a611341565b165f526066825260ff815f20541690519015158152f35b905034610161575f366003190112610161577f00000000000000000000000000000000000000000000000000000000000000006001600160a01b03163003610ba957602082515f805160206118318339815191528152f35b6020608492519162461bcd60e51b8352820152603860248201527f555550535570677261646561626c653a206d757374206e6f742062652063616c60448201527f6c6564207468726f7567682064656c656761746563616c6c00000000000000006064820152fd5b90508160031936011261016157610c26611341565b906024359267ffffffffffffffff84116101615736602385011215610161578382013590610c53826113fc565b610c5f825191826113da565b82815260209283820196366024838301011161016157815f9260248793018a37830101526001600160a01b037f0000000000000000000000000000000000000000000000000000000000000000811690610cbb30831415611418565b610cd75f80516020611831833981519152928284541614611479565b610cdf61159e565b7f4910fdfa16fed3260ed0e7147f7cc6da11a60208b5b9406d12a635614ffd91435460ff1615610d19575050505050506101a191506116e4565b869293949596169084516352d1902d60e01b815286818981865afa5f9181610ec5575b50610d9b57855162461bcd60e51b8152808901889052602e60248201527f45524331393637557067726164653a206e657720696d706c656d656e7461746960448201526d6f6e206973206e6f74205555505360901b6064820152608490fd5b969192939603610e705750610daf826116e4565b7fbc7cd75a20ee27fd9adebab32041f755214dbc6bffa90cc0225b39da2e5c2d3b5f80a2835115801590610e68575b610de457005b5f806101a196845196610df6886113aa565b602788527f416464726573733a206c6f772d6c6576656c2064656c65676174652063616c6c87890152660819985a5b195960ca1b868901525190845af4913d15610e5e573d610e50610e47826113fc565b925192836113da565b81525f81943d92013e611773565b5060609250611773565b506001610dde565b835162461bcd60e51b8152908101859052602960248201527f45524331393637557067726164653a20756e737570706f727465642070726f786044820152681a58589b195555525160ba1b6064820152608490fd5b9091508781813d8311610eed575b610edd81836113da565b810103126101615751905f610d3c565b503d610ed3565b3461016157602036600319011261016157610f0d611341565b610f1561159e565b606780546001600160a01b039283166001600160a01b0319821681179092559091167f8240dda544eb8ec4199e2248ad32f0b0962089fa82835994e8291bd75b5a663a5f80a3005b8234610161578060031936011261016157610f76611341565b90610f7f61139b565b91610f8861159e565b6001600160a01b0316928315610fdd57507fa92df1880acb1daa8d0c0aaf75f5e2929bd35a0ee4ad82604e6ae508fe120dc791602091845f526066835261030082825f209060ff801983541691151516179055565b905163d92e233d60e01b8152fd5b8234610161575f3660031901126101615760695490516001600160a01b039091168152602090f35b905034610161576020908160031936011261016157611030611341565b6001600160a01b03939092907f0000000000000000000000000000000000000000000000000000000000000000851661106b30821415611418565b6110875f80516020611831833981519152918783541614611479565b61108f61159e565b8151908382019682881067ffffffffffffffff8911176111e9578784525f83527f4910fdfa16fed3260ed0e7147f7cc6da11a60208b5b9406d12a635614ffd91435460ff16156110e9575050505050506101a191506116e4565b869293949596169084516352d1902d60e01b815286818981865afa5f91816111ba575b5061116b57855162461bcd60e51b8152808901889052602e60248201527f45524331393637557067726164653a206e657720696d706c656d656e7461746960448201526d6f6e206973206e6f74205555505360901b6064820152608490fd5b969192939603610e70575061117f826116e4565b7fbc7cd75a20ee27fd9adebab32041f755214dbc6bffa90cc0225b39da2e5c2d3b5f80a28351158015906111b357610de457005b505f610dde565b9091508781813d83116111e2575b6111d281836113da565b810103126101615751905f61110c565b503d6111c8565b604186634e487b7160e01b5f525260245ffd5b8234610161575f3660031901126101615760675490516001600160a01b039091168152602090f35b8390346101615760e03660031901126101615761123f611341565b92611248611357565b5067ffffffffffffffff60643581811161016157611269903690840161136d565b505060843581811161016157611282903690840161136d565b505060a435818111610161573660238201121561016157808301359082821161016157602490369260051b0101116101615760c435908111610161576112cb903690830161136d565b5050335f52606660205260ff835f205416158061132c575b611317578360ff845f805160206118118339815191525f5260656020525f20541661130a57005b6101a190602435906114da565b63d86ad9cf60e01b8252339082015260249150fd5b506033546001600160a01b03163314156112e3565b600435906001600160a01b038216820361016157565b604435906001600160a01b038216820361016157565b9181601f840112156101615782359167ffffffffffffffff8311610161576020838186019501011161016157565b60243590811515820361016157565b6060810190811067ffffffffffffffff8211176113c657604052565b634e487b7160e01b5f52604160045260245ffd5b90601f8019910116810190811067ffffffffffffffff8211176113c657604052565b67ffffffffffffffff81116113c657601f01601f191660200190565b1561141f57565b60405162461bcd60e51b815260206004820152602c60248201527f46756e6374696f6e206d7573742062652063616c6c6564207468726f7567682060448201526b19195b1959d85d1958d85b1b60a21b6064820152608490fd5b1561148057565b60405162461bcd60e51b815260206004820152602c60248201527f46756e6374696f6e206d7573742062652063616c6c6564207468726f7567682060448201526b6163746976652070726f787960a01b6064820152608490fd5b6069546001600160a01b039081169182156115985760209060246040518094819363a1d4b07f60e01b835216958660048301525afa90811561158d575f9161155b575b5015611557575f805160206118118339815191527f372d85d9626ff048655c2142bfd310e733bd8fb9a66545c1d995cba96e972d585f80a4565b5050565b90506020813d602011611585575b81611576602093836113da565b8101031261016157515f61151d565b3d9150611569565b6040513d5f823e3d90fd5b50505050565b6033546001600160a01b031633036115b257565b606460405162461bcd60e51b815260206004820152602060248201527f4f776e61626c653a2063616c6c6572206973206e6f7420746865206f776e65726044820152fd5b5f5b8381106116075750505f910152565b81810151838201526020016115f8565b90602091611630815180928185528580860191016115f6565b601f01601f1916010190565b603380546001600160a01b039283166001600160a01b0319821681179092559091167f8be0079c531659141344cd1fd0a4f28419497f9722a3daafe3b4186f6b6457e05f80a3565b1561168b57565b60405162461bcd60e51b815260206004820152602b60248201527f496e697469616c697a61626c653a20636f6e7472616374206973206e6f74206960448201526a6e697469616c697a696e6760a81b6064820152608490fd5b803b15611718575f8051602061183183398151915280546001600160a01b0319166001600160a01b03909216919091179055565b60405162461bcd60e51b815260206004820152602d60248201527f455243313936373a206e657720696d706c656d656e746174696f6e206973206e60448201526c1bdd08184818dbdb9d1c9858dd609a1b6064820152608490fd5b919290156117d55750815115611787575090565b3b156117905790565b60405162461bcd60e51b815260206004820152601d60248201527f416464726573733a2063616c6c20746f206e6f6e2d636f6e74726163740000006044820152606490fd5b8251909150156117e85750805190602001fd5b60405162461bcd60e51b81526020600482015290819061180c906024830190611617565b0390fdfeab52f0256cbcaa24ccad7f5bebbc7ccf47ef4ec9d4c2b354ab0e03d82ebda8b8360894a13ba1a3210667c828492db98dca3e2076cc3735a920a3ca505d382bbca164736f6c6343000819000a","linkReferences":{}},"methodIdentifiers":{"MODULE_GAP()":"aa0ef5f7","MODULE_GREENWILL()":"f81cf3e7","MODULE_HYPERCERTS()":"f009a352","MODULE_OCTANT()":"87ae3877","MODULE_UNLOCK()":"8bb9d09b","authorizedCallers(address)":"536fff6c","initialize(address,address,address)":"c0c53b8b","isModuleEnabled(bytes32)":"b6450b8d","karmaGAPModule()":"4026d762","octantModule()":"266f8652","onAssessmentCreated(address,bytes32,address,string,string,string[],string)":"07ae489e","onWorkApproved(address,bytes32,bytes32,bytes32,address,address,string,string)":"5d65eb2d","owner()":"8da5cb5b","proxiableUUID()":"52d1902d","renounceOwnership()":"715018a6","setAuthorizedCaller(address,bool)":"454bbd29","setKarmaGAPModule(address)":"d9e4aaee","setModuleEnabled(bytes32,bool)":"c222d3b1","setOctantModule(address)":"4c528446","setUnlockModule(address)":"56a81499","transferOwnership(address)":"f2fde38b","unlockModule()":"85203611","upgradeTo(address)":"3659cfe6","upgradeToAndCall(address,bytes)":"4f1ef286"},"id":149}