{"abi":[{"type":"function","name":"account","inputs":[{"name":"implementation","type":"address","internalType":"address"},{"name":"salt","type":"bytes32","internalType":"bytes32"},{"name":"chainId","type":"uint256","internalType":"uint256"},{"name":"tokenContract","type":"address","internalType":"address"},{"name":"tokenId","type":"uint256","internalType":"uint256"}],"outputs":[{"name":"","type":"address","internalType":"address"}],"stateMutability":"view"},{"type":"function","name":"createAccount","inputs":[{"name":"implementation","type":"address","internalType":"address"},{"name":"salt","type":"bytes32","internalType":"bytes32"},{"name":"chainId","type":"uint256","internalType":"uint256"},{"name":"tokenContract","type":"address","internalType":"address"},{"name":"tokenId","type":"uint256","internalType":"uint256"}],"outputs":[{"name":"","type":"address","internalType":"address"}],"stateMutability":"nonpayable"},{"type":"event","name":"ERC6551AccountCreated","inputs":[{"name":"account","type":"address","indexed":false,"internalType":"address"},{"name":"implementation","type":"address","indexed":true,"internalType":"address"},{"name":"salt","type":"bytes32","indexed":false,"internalType":"bytes32"},{"name":"chainId","type":"uint256","indexed":false,"internalType":"uint256"},{"name":"tokenContract","type":"address","indexed":true,"internalType":"address"},{"name":"tokenId","type":"uint256","indexed":true,"internalType":"uint256"}],"anonymous":false},{"type":"error","name":"AccountCreationFailed","inputs":[]}],"bytecode":{"object":"0x608080604052346015576101b9908161001a8239f35b5f80fdfe60806040526004361015610011575f80fd5b5f3560e01c8063246a00211461003457638a54c52f1461002f575f80fd5b6100e5565b346100a457610042366100a8565b5050509060806024608c376e5af43d82803e903d91602b57fd5bf3606c52605d52733d60ad80600a3d3981f3363d3d373d3d3d363d7360495260ff5f5360b76055206035523060601b60015260155260018060a01b0360555f20165f5260205ff35b5f80fd5b60a09060031901126100a4576001600160a01b039060043582811681036100a45791602435916044359160643590811681036100a4579060843590565b346100a4576100f3366100a8565b929390915060806024608c376e5af43d82803e903d91602b57fd5bf3606c5280605d52733d60ad80600a3d3981f3363d3d373d3d3d363d7360495260ff5f5360b76055206035523060601b6001528360155260555f2093843b15610164576001600160a01b0385165f908152602090f35b60b760555ff5801561019f57606c527f79f19b3655ee38b1ce526556b7731a20c8f218fbda4a3990b6cc4172fdf887226060606ca46020606cf35b6320188a595f526004601cfdfea164736f6c6343000819000a","linkReferences":{}},"methodIdentifiers":{"account(address,bytes32,uint256,address,uint256)":"246a0021","createAccount(address,bytes32,uint256,address,uint256)":"8a54c52f"},"id":19}