{"abi":[{"type":"constructor","inputs":[{"name":"easAddrs","type":"address","internalType":"address"}],"stateMutability":"nonpayable"},{"type":"receive","stateMutability":"payable"},{"type":"function","name":"attest","inputs":[{"name":"attestation","type":"tuple","internalType":"struct Attestation","components":[{"name":"uid","type":"bytes32","internalType":"bytes32"},{"name":"schema","type":"bytes32","internalType":"bytes32"},{"name":"time","type":"uint64","internalType":"uint64"},{"name":"expirationTime","type":"uint64","internalType":"uint64"},{"name":"revocationTime","type":"uint64","internalType":"uint64"},{"name":"refUID","type":"bytes32","internalType":"bytes32"},{"name":"recipient","type":"address","internalType":"address"},{"name":"attester","type":"address","internalType":"address"},{"name":"revocable","type":"bool","internalType":"bool"},{"name":"data","type":"bytes","internalType":"bytes"}]}],"outputs":[{"name":"","type":"bool","internalType":"bool"}],"stateMutability":"payable"},{"type":"function","name":"initialize","inputs":[{"name":"_multisig","type":"address","internalType":"address"}],"outputs":[],"stateMutability":"nonpayable"},{"type":"function","name":"isPayable","inputs":[],"outputs":[{"name":"","type":"bool","internalType":"bool"}],"stateMutability":"pure"},{"type":"function","name":"multiAttest","inputs":[{"name":"attestations","type":"tuple[]","internalType":"struct Attestation[]","components":[{"name":"uid","type":"bytes32","internalType":"bytes32"},{"name":"schema","type":"bytes32","internalType":"bytes32"},{"name":"time","type":"uint64","internalType":"uint64"},{"name":"expirationTime","type":"uint64","internalType":"uint64"},{"name":"revocationTime","type":"uint64","internalType":"uint64"},{"name":"refUID","type":"bytes32","internalType":"bytes32"},{"name":"recipient","type":"address","internalType":"address"},{"name":"attester","type":"address","internalType":"address"},{"name":"revocable","type":"bool","internalType":"bool"},{"name":"data","type":"bytes","internalType":"bytes"}]},{"name":"values","type":"uint256[]","internalType":"uint256[]"}],"outputs":[{"name":"","type":"bool","internalType":"bool"}],"stateMutability":"payable"},{"type":"function","name":"multiRevoke","inputs":[{"name":"attestations","type":"tuple[]","internalType":"struct Attestation[]","components":[{"name":"uid","type":"bytes32","internalType":"bytes32"},{"name":"schema","type":"bytes32","internalType":"bytes32"},{"name":"time","type":"uint64","internalType":"uint64"},{"name":"expirationTime","type":"uint64","internalType":"uint64"},{"name":"revocationTime","type":"uint64","internalType":"uint64"},{"name":"refUID","type":"bytes32","internalType":"bytes32"},{"name":"recipient","type":"address","internalType":"address"},{"name":"attester","type":"address","internalType":"address"},{"name":"revocable","type":"bool","internalType":"bool"},{"name":"data","type":"bytes","internalType":"bytes"}]},{"name":"values","type":"uint256[]","internalType":"uint256[]"}],"outputs":[{"name":"","type":"bool","internalType":"bool"}],"stateMutability":"payable"},{"type":"function","name":"owner","inputs":[],"outputs":[{"name":"","type":"address","internalType":"address"}],"stateMutability":"view"},{"type":"function","name":"proxiableUUID","inputs":[],"outputs":[{"name":"","type":"bytes32","internalType":"bytes32"}],"stateMutability":"view"},{"type":"function","name":"renounceOwnership","inputs":[],"outputs":[],"stateMutability":"nonpayable"},{"type":"function","name":"revoke","inputs":[{"name":"attestation","type":"tuple","internalType":"struct Attestation","components":[{"name":"uid","type":"bytes32","internalType":"bytes32"},{"name":"schema","type":"bytes32","internalType":"bytes32"},{"name":"time","type":"uint64","internalType":"uint64"},{"name":"expirationTime","type":"uint64","internalType":"uint64"},{"name":"revocationTime","type":"uint64","internalType":"uint64"},{"name":"refUID","type":"bytes32","internalType":"bytes32"},{"name":"recipient","type":"address","internalType":"address"},{"name":"attester","type":"address","internalType":"address"},{"name":"revocable","type":"bool","internalType":"bool"},{"name":"data","type":"bytes","internalType":"bytes"}]}],"outputs":[{"name":"","type":"bool","internalType":"bool"}],"stateMutability":"payable"},{"type":"function","name":"transferOwnership","inputs":[{"name":"newOwner","type":"address","internalType":"address"}],"outputs":[],"stateMutability":"nonpayable"},{"type":"function","name":"upgradeTo","inputs":[{"name":"newImplementation","type":"address","internalType":"address"}],"outputs":[],"stateMutability":"nonpayable"},{"type":"function","name":"upgradeToAndCall","inputs":[{"name":"newImplementation","type":"address","internalType":"address"},{"name":"data","type":"bytes","internalType":"bytes"}],"outputs":[],"stateMutability":"payable"},{"type":"function","name":"version","inputs":[],"outputs":[{"name":"","type":"string","internalType":"string"}],"stateMutability":"view"},{"type":"event","name":"AdminChanged","inputs":[{"name":"previousAdmin","type":"address","indexed":false,"internalType":"address"},{"name":"newAdmin","type":"address","indexed":false,"internalType":"address"}],"anonymous":false},{"type":"event","name":"BeaconUpgraded","inputs":[{"name":"beacon","type":"address","indexed":true,"internalType":"address"}],"anonymous":false},{"type":"event","name":"Initialized","inputs":[{"name":"version","type":"uint8","indexed":false,"internalType":"uint8"}],"anonymous":false},{"type":"event","name":"OwnershipTransferred","inputs":[{"name":"previousOwner","type":"address","indexed":true,"internalType":"address"},{"name":"newOwner","type":"address","indexed":true,"internalType":"address"}],"anonymous":false},{"type":"event","name":"Upgraded","inputs":[{"name":"implementation","type":"address","indexed":true,"internalType":"address"}],"anonymous":false},{"type":"error","name":"AccessDenied","inputs":[]},{"type":"error","name":"AssessmentTypeRequired","inputs":[]},{"type":"error","name":"AtLeastOneCapitalRequired","inputs":[]},{"type":"error","name":"InsufficientValue","inputs":[]},{"type":"error","name":"InvalidCapital","inputs":[{"name":"invalidCapital","type":"string","internalType":"string"}]},{"type":"error","name":"InvalidEAS","inputs":[]},{"type":"error","name":"InvalidLength","inputs":[]},{"type":"error","name":"NotGardenOperator","inputs":[]},{"type":"error","name":"NotPayable","inputs":[]},{"type":"error","name":"TitleRequired","inputs":[]}],"bytecode":{"object":"0x6101203461017157601f611e3e38819003918201601f19168301916001600160401b038311848410176101755780849260209460405283398101031261017157516001600160a01b03811690819003610171576001608052600360a0525f60c052801561015f5760e0526101003081525f5460ff8160081c1661010a5760ff808216036100d0575b50604051611cb4918261018a833960805182610582015260a051826105b0015260c051826105da015260e05182610ebf01525181818161012a0152818161036001526104600152f35b60ff90811916175f557f7f26b83ff96e1f2b6a682f133852f6798a09c465da95921460cefb3847402498602060405160ff8152a15f610087565b60405162461bcd60e51b815260206004820152602760248201527f496e697469616c697a61626c653a20636f6e747261637420697320696e697469604482015266616c697a696e6760c81b6064820152608490fd5b6040516341bc07ff60e11b8152600490fd5b5f80fd5b634e487b7160e01b5f52604160045260245ffdfe6080604052600436101561001a575b3615610018575f80fd5b005b5f3560e01c80633659cfe6146100e95780634f1ef286146100e457806352d1902d146100df57806354fd4d50146100da578063715018a6146100d557806388e5b2d9146100d05780638da5cb5b146100cb57806391db0b7e146100c6578063c4d66de8146100c1578063ce46e046146100bc578063e49617e1146100b7578063e60c3505146100b25763f2fde38b0361000e5761097d565b610962565b61093d565b6108f0565b61080a565b6107e1565b6107b9565b610731565b61066f565b61056a565b61044e565b61030e565b610103565b6001600160a01b038116036100ff57565b5f80fd5b346100ff5760203660031901126100ff57600435610120816100ee565b6001600160a01b037f00000000000000000000000000000000000000000000000000000000000000008116919061015930841415610a0e565b6101755f80516020611c48833981519152938285541614610a5c565b61017d610e30565b60405190602082016001600160401b0381118382101761024b576040525f82525f80516020611c088339815191525460ff16156101c057505061001891506114d2565b6020600491604094939451928380926352d1902d60e01b825286165afa5f918161021a575b506102075760405162461bcd60e51b81528061020360048201610ca5565b0390fd5b610018936102159114610c47565b611494565b61023d91925060203d602011610244575b610235818361027a565b810190610c2d565b905f6101e5565b503d61022b565b634e487b7160e01b5f52604160045260245ffd5b606081019081106001600160401b0382111761024b57604052565b601f909101601f19168101906001600160401b0382119082101761024b57604052565b6040519061018082016001600160401b0381118382101761024b57604052565b6001600160401b03811161024b57601f01601f191660200190565b9291926102e4826102bd565b916102f2604051938461027a565b8294818452818301116100ff578281602093845f960137010152565b60403660031901126100ff57600435610326816100ee565b6024356001600160401b0381116100ff57366023820112156100ff576103569036906024816004013591016102d8565b6001600160a01b037f0000000000000000000000000000000000000000000000000000000000000000811692919061039030851415610a0e565b6103ac5f80516020611c48833981519152948286541614610a5c565b6103b4610e30565b5f80516020611c088339815191525460ff16156103d757505061001891506114d2565b6020600491604094939451928380926352d1902d60e01b825286165afa5f918161042d575b5061041a5760405162461bcd60e51b81528061020360048201610ca5565b610018936104289114610c47565b6113c6565b61044791925060203d60201161024457610235818361027a565b905f6103fc565b346100ff575f3660031901126100ff577f00000000000000000000000000000000000000000000000000000000000000006001600160a01b031630036104aa576040515f80516020611c488339815191528152602090f35b0390f35b60405162461bcd60e51b815260206004820152603860248201527f555550535570677261646561626c653a206d757374206e6f742062652063616c6044820152771b1959081d1a1c9bdd59da0819195b1959d85d1958d85b1b60421b6064820152608490fd5b5f5b8381106105215750505f910152565b8181015183820152602001610512565b9060209161054a81518092818552858086019101610510565b601f01601f1916010190565b906020610567928181520190610531565b90565b346100ff575f3660031901126100ff576104a66105a67f0000000000000000000000000000000000000000000000000000000000000000610cf4565b61066360226105d47f0000000000000000000000000000000000000000000000000000000000000000610cf4565b926105fe7f0000000000000000000000000000000000000000000000000000000000000000610cf4565b6040519482610617879451809260208088019101610510565b830190601760f91b9182602082015261063a825180936020602185019101610510565b019060218201526106548251809360208785019101610510565b0103600281018452018261027a565b60405191829182610556565b346100ff575f3660031901126100ff57610687610e30565b603380546001600160a01b031981169091555f906001600160a01b03165f80516020611c688339815191528280a3005b9181601f840112156100ff578235916001600160401b0383116100ff576020808501948460051b0101116100ff57565b60406003198201126100ff576001600160401b03916004358381116100ff5782610713916004016106b7565b939093926024359182116100ff5761072d916004016106b7565b9091565b61073a366106e7565b610745929192610ebd565b8082036107a7575f90345b83831061076257602060405160018152f35b61076d838387610b07565b358181116107955760019161078385878a610b1c565b5061078c610e30565b03920191610750565b60405163044044a560e21b8152600490fd5b60405163251f56a160e21b8152600490fd5b346100ff575f3660031901126100ff576033546040516001600160a01b039091168152602090f35b60206108006107ef366106e7565b926107fb929192610ebd565b610b3f565b6040519015158152f35b346100ff5760203660031901126100ff57600435610827816100ee565b6108685f549161084e60ff8460081c1615809481956108e2575b81156108c2575b50610b9d565b8261085f600160ff195f5416175f55565b6108ab57610c00565b61086e57005b61087c61ff00195f54165f55565b604051600181527f7f26b83ff96e1f2b6a682f133852f6798a09c465da95921460cefb384740249890602090a1005b6108bd61010061ff00195f5416175f55565b610c00565b303b159150816108d4575b505f610848565b6001915060ff16145f6108cd565b600160ff8216109150610841565b346100ff575f3660031901126100ff57602060405160018152f35b600319906020818301126100ff57600435916001600160401b0383116100ff5782610140920301126100ff5760040190565b6109463661090b565b5061094f610ebd565b610957610e30565b602060405160018152f35b60206108006109703661090b565b610978610ebd565b6111e2565b346100ff5760203660031901126100ff5760043561099a816100ee565b6109a2610e30565b6001600160a01b038116156109ba5761001890610e88565b60405162461bcd60e51b815260206004820152602660248201527f4f776e61626c653a206e6577206f776e657220697320746865207a65726f206160448201526564647265737360d01b6064820152608490fd5b15610a1557565b60405162461bcd60e51b815260206004820152602c60248201525f80516020611c2883398151915260448201526b19195b1959d85d1958d85b1b60a21b6064820152608490fd5b15610a6357565b60405162461bcd60e51b815260206004820152602c60248201525f80516020611c2883398151915260448201526b6163746976652070726f787960a01b6064820152608490fd5b90610ab4826102bd565b610ac1604051918261027a565b8281528092610ad2601f19916102bd565b0190602036910137565b90610aef60209282815194859201610510565b0190565b634e487b7160e01b5f52603260045260245ffd5b9190811015610b175760051b0190565b610af3565b9190811015610b175760051b8101359061013e19813603018212156100ff570190565b929091928183036107a7575f91345b848410610b6057505050505050600190565b610b6b848388610b07565b3581811161079557610b81610978868887610b1c565b15610b925760019103930192610b4e565b505050505050505f90565b15610ba457565b60405162461bcd60e51b815260206004820152602e60248201527f496e697469616c697a61626c653a20636f6e747261637420697320616c72656160448201526d191e481a5b9a5d1a585b1a5e995960921b6064820152608490fd5b610c2b90610c1d60ff5f5460081c16610c1881611366565b611366565b610c2633610e88565b610e88565b565b908160209103126100ff575190565b6040513d5f823e3d90fd5b15610c4e57565b60405162461bcd60e51b815260206004820152602960248201527f45524331393637557067726164653a20756e737570706f727465642070726f786044820152681a58589b195555525160ba1b6064820152608490fd5b60809060208152602e60208201527f45524331393637557067726164653a206e657720696d706c656d656e7461746960408201526d6f6e206973206e6f74205555505360901b60608201520190565b5f908072184f03e93ff9f4daa797ed6e38ed64bf6a1f0160401b80821015610e22575b506904ee2d6d415b85acef8160201b80831015610e13575b50662386f26fc1000080831015610e04575b506305f5e10080831015610df5575b5061271080831015610de6575b506064821015610dd6575b600a80921015610dcc575b600190816021610d8560018701610aaa565b95860101905b610d97575b5050505090565b5f19019083906f181899199a1a9b1b9c1cb0b131b232b360811b8282061a835304918215610dc757919082610d8b565b610d90565b9160010191610d73565b9190606460029104910191610d68565b6004919392049101915f610d5d565b6008919392049101915f610d50565b6010919392049101915f610d41565b6020919392049101915f610d2f565b60409350810491505f610d17565b6033546001600160a01b03163303610e4457565b606460405162461bcd60e51b815260206004820152602060248201527f4f776e61626c653a2063616c6c6572206973206e6f7420746865206f776e65726044820152fd5b603380546001600160a01b039283166001600160a01b0319821681179092559091165f80516020611c688339815191525f80a3565b7f00000000000000000000000000000000000000000000000000000000000000006001600160a01b03163303610eef57565b604051634ca8886760e01b8152600490fd5b903590601e19813603018212156100ff57018035906001600160401b0382116100ff576020019181360383136100ff57565b9080601f830112156100ff57816020610567933591016102d8565b6001600160401b03811161024b5760051b60200190565b81601f820112156100ff57803591602091610f7f84610f4e565b93610f8d604051958661027a565b808552838086019160051b830101928084116100ff57848301915b848310610fb85750505050505090565b82356001600160401b0381116100ff578691610fd984848094890101610f33565b815201920191610fa8565b9080601f830112156100ff576020908235610ffe81610f4e565b9361100c604051958661027a565b81855260208086019260051b8201019283116100ff57602001905b828210611035575050505090565b81358152908301908301611027565b6020818303126100ff576001600160401b03908035908282116100ff5701610180818403126100ff5761107561029d565b9281358381116100ff578161108b918401610f33565b845260208201358381116100ff57816110a5918401610f33565b602085015260408201358381116100ff57816110c2918401610f33565b604085015260608201358381116100ff57816110df918401610f65565b606085015260808201358381116100ff57816110fc918401610f33565b608085015260a08201358381116100ff5781611119918401610f65565b60a085015260c08201358381116100ff5781611136918401610f65565b60c085015260e08201358381116100ff5781611153918401610fe4565b60e085015261010080830135908501526101208083013590850152610140808301358481116100ff5782611188918501610f33565b9085015261016092838301359081116100ff576111a59201610f65565b9082015290565b35610567816100ee565b908160209103126100ff575180151581036100ff5790565b8051821015610b175760209160051b010190565b6111fb6111f3610120830183610f01565b810190611044565b61122560e061121e61121261121260c087016111ac565b6001600160a01b031690565b93016111ac565b60408051631d65ef1f60e21b81526001600160a01b0392831660048083019190915291959193926020908290602490829089165afa908115611361575f91611332575b5015611322578151511561131257848201515115611302576060820193845151156112f2575f5b855180518210156112dd57816112a4916111ce565b516112b56112b182611561565b1590565b6112c2575060010161128f565b8751634e5aca1360e01b815290819061020390828901610556565b5050925093506112ed925061171a565b600190565b855163232f1acf60e11b81528490fd5b8451636a066b0160e11b81528390fd5b84516319d546f160e31b81528390fd5b8451633cebab8560e21b81528390fd5b611354915060203d60201161135a575b61134c818361027a565b8101906111b6565b5f611268565b503d611342565b610c3c565b1561136d57565b60405162461bcd60e51b815260206004820152602b60248201527f496e697469616c697a61626c653a20636f6e7472616374206973206e6f74206960448201526a6e697469616c697a696e6760a81b6064820152608490fd5b906113d0826114d2565b6001600160a01b0382165f80516020611c888339815191525f80a280511580159061148c575b6113fe575050565b611481915f80604051936114118561025f565b602785527f416464726573733a206c6f772d6c6576656c2064656c65676174652063616c6c6020860152660819985a5b195960ca1b6040860152602081519101845af43d15611484573d91611465836102bd565b92611473604051948561027a565b83523d5f602085013e611b76565b50565b606091611b76565b5060016113f6565b9061149e826114d2565b6001600160a01b0382165f80516020611c888339815191525f80a28051158015906114cb576113fe575050565b505f6113f6565b803b15611506575f80516020611c4883398151915280546001600160a01b0319166001600160a01b03909216919091179055565b60405162461bcd60e51b815260206004820152602d60248201527f455243313936373a206e657720696d706c656d656e746174696f6e206973206e60448201526c1bdd08184818dbdb9d1c9858dd609a1b6064820152608490fd5b602081519101207f3ae7be79adfacb03b53e8631fa030f3a07d1e0805fdcfcbafe24d21fdf6d87d881149081156116b9575b811561168f575b8115611665575b811561163b575b8115611611575b81156115e7575b81156115c0575090565b7fc935b30cf506f1d5b9e8c05d02b3012901f8b06fac2b9594490fd89b2c838f1691501490565b7f06d31571aee254afefb23de2aab112b54fba4616cdb0311720df975c96845db8811491506115b6565b7feec9067c1a18ee9eeb678df38867320e9b3ae277502972410f9d9f5711ae4fbc811491506115af565b7f83c1ce6dbbf4a80b014880f6fd78ebe2d72a234dd23985393a459a3169be8410811491506115a8565b7ffc1889320e37d59f44de78b668a468b6eaf868356a9793beb6ffce457e793c8d811491506115a1565b7f2966cb0d2a3fc024b4bdb192523ff84c2190ffe59a171ad9700ffe50f06598b48114915061159a565b7fdb6853651914ee14bf67ad13d529c28d75df661f33f99cd1bcf018394e6f670481149150611593565b9161170c906116fe6105679593606086526060860190610531565b908482036020860152610531565b916040818403910152610531565b906117266112b16117de565b6117da5760405163f89b9b9360e01b8152602092916001600160a01b0316908381600481855afa908115611361575f916117bd575b50156117b85781839161177061179694611890565b8251928401516040516381eec6bb60e01b815295869485935f93859392600485016116e3565b03925af16117a2575050565b8161148192903d1061024457610235818361027a565b505050565b6117d49150843d861161024457610235818361027a565b5f61175b565b5050565b600a46148015611857575b801561184c575b8015611840575b8015611834575b8015611829575b801561181e575b80156118155790565b50610530461490565b50610531461461180c565b5061a4ec4614611805565b5062014a3446146117fe565b5062aa36a746146117f7565b5061a4b146146117f0565b5062aa37dc46146117e9565b60408051919082016001600160401b0381118382101761024b5760405260018252605b60f81b6020830152565b90611899611863565b5f905b6060840180515183101561194657611901600192846118e09381611909575b6118cc6118f3926118e092516111ce565b516118ed6040519687956020870190610adc565b601160f91b815260010190565b90610adc565b03601f19810183528261027a565b91019061189c565b916118cc6118f39261192e61193b6118e0946118f36040519384926020840190610adc565b600b60fa1b815260010190565b9492509250506118bb565b5061056791509261196e611a34611a2661192e959661197b6040519485926020840190610adc565b605d60f81b815260010190565b039361198f601f199586810186528561027a565b6118ed611a0b6119fd6119b260806119aa6040870151611a85565b950151611a85565b936118ed6119df6040519c8d9a6118ed60208d01600c906b3d9131b0b834ba30b639911d60a11b81520190565b711130b9b9b2b9b9b6b2b73a2a3cb832911d1160711b815260120190565b61088b60f21b815260020190565b6e1136b2ba3934b1b9a529a7a7111d1160891b8152600f0190565b61227d60f01b815260020190565b0390810183528261027a565b908151811015610b17570160200190565b634e487b7160e01b5f52601160045260245ffd5b5f198114611a735760010190565b611a51565b91908201809211611a7357565b905f805b8351811015611ae457601160f91b611ac2611ab5611aa78488611a40565b516001600160f81b03191690565b6001600160f81b03191690565b14611ad0575b600101611a89565b90611adc600191611a65565b919050611ac8565b50801561148157611af9611afe918451611a78565b610aaa565b5f925f5b8151811015611b6f57600190601160f91b611b23611ab5611aa78487611a40565b14611b54575b611b36611aa78285611a40565b95611b4d611b4382611a65565b975f1a9186611a40565b5301611b02565b605c611b69611b6288611a65565b9786611a40565b53611b29565b5090925050565b91929015611bd85750815115611b8a575090565b3b15611b935790565b60405162461bcd60e51b815260206004820152601d60248201527f416464726573733a2063616c6c20746f206e6f6e2d636f6e74726163740000006044820152606490fd5b825190915015611beb5750805190602001fd5b60405162461bcd60e51b8152908190610203906004830161055656fe4910fdfa16fed3260ed0e7147f7cc6da11a60208b5b9406d12a635614ffd914346756e6374696f6e206d7573742062652063616c6c6564207468726f75676820360894a13ba1a3210667c828492db98dca3e2076cc3735a920a3ca505d382bbc8be0079c531659141344cd1fd0a4f28419497f9722a3daafe3b4186f6b6457e0bc7cd75a20ee27fd9adebab32041f755214dbc6bffa90cc0225b39da2e5c2d3ba164736f6c6343000819000a","linkReferences":{}},"methodIdentifiers":{"attest((bytes32,bytes32,uint64,uint64,uint64,bytes32,address,address,bool,bytes))":"e60c3505","initialize(address)":"c4d66de8","isPayable()":"ce46e046","multiAttest((bytes32,bytes32,uint64,uint64,uint64,bytes32,address,address,bool,bytes)[],uint256[])":"91db0b7e","multiRevoke((bytes32,bytes32,uint64,uint64,uint64,bytes32,address,address,bool,bytes)[],uint256[])":"88e5b2d9","owner()":"8da5cb5b","proxiableUUID()":"52d1902d","renounceOwnership()":"715018a6","revoke((bytes32,bytes32,uint64,uint64,uint64,bytes32,address,address,bool,bytes))":"e49617e1","transferOwnership(address)":"f2fde38b","upgradeTo(address)":"3659cfe6","upgradeToAndCall(address,bytes)":"4f1ef286","version()":"54fd4d50"},"id":145}