{"abi":[{"type":"constructor","inputs":[{"name":"easAddrs","type":"address","internalType":"address"},{"name":"hatsModule","type":"address","internalType":"address"}],"stateMutability":"nonpayable"},{"type":"receive","stateMutability":"payable"},{"type":"function","name":"HATS_MODULE","inputs":[],"outputs":[{"name":"","type":"address","internalType":"contract IHats"}],"stateMutability":"view"},{"type":"function","name":"attest","inputs":[{"name":"attestation","type":"tuple","internalType":"struct Attestation","components":[{"name":"uid","type":"bytes32","internalType":"bytes32"},{"name":"schema","type":"bytes32","internalType":"bytes32"},{"name":"time","type":"uint64","internalType":"uint64"},{"name":"expirationTime","type":"uint64","internalType":"uint64"},{"name":"revocationTime","type":"uint64","internalType":"uint64"},{"name":"refUID","type":"bytes32","internalType":"bytes32"},{"name":"recipient","type":"address","internalType":"address"},{"name":"attester","type":"address","internalType":"address"},{"name":"revocable","type":"bool","internalType":"bool"},{"name":"data","type":"bytes","internalType":"bytes"}]}],"outputs":[{"name":"","type":"bool","internalType":"bool"}],"stateMutability":"payable"},{"type":"function","name":"initialize","inputs":[{"name":"_multisig","type":"address","internalType":"address"}],"outputs":[],"stateMutability":"nonpayable"},{"type":"function","name":"isPayable","inputs":[],"outputs":[{"name":"","type":"bool","internalType":"bool"}],"stateMutability":"pure"},{"type":"function","name":"karmaGAPModule","inputs":[],"outputs":[{"name":"","type":"address","internalType":"contract IKarmaGAPModule"}],"stateMutability":"view"},{"type":"function","name":"multiAttest","inputs":[{"name":"attestations","type":"tuple[]","internalType":"struct Attestation[]","components":[{"name":"uid","type":"bytes32","internalType":"bytes32"},{"name":"schema","type":"bytes32","internalType":"bytes32"},{"name":"time","type":"uint64","internalType":"uint64"},{"name":"expirationTime","type":"uint64","internalType":"uint64"},{"name":"revocationTime","type":"uint64","internalType":"uint64"},{"name":"refUID","type":"bytes32","internalType":"bytes32"},{"name":"recipient","type":"address","internalType":"address"},{"name":"attester","type":"address","internalType":"address"},{"name":"revocable","type":"bool","internalType":"bool"},{"name":"data","type":"bytes","internalType":"bytes"}]},{"name":"values","type":"uint256[]","internalType":"uint256[]"}],"outputs":[{"name":"","type":"bool","internalType":"bool"}],"stateMutability":"payable"},{"type":"function","name":"multiRevoke","inputs":[{"name":"attestations","type":"tuple[]","internalType":"struct Attestation[]","components":[{"name":"uid","type":"bytes32","internalType":"bytes32"},{"name":"schema","type":"bytes32","internalType":"bytes32"},{"name":"time","type":"uint64","internalType":"uint64"},{"name":"expirationTime","type":"uint64","internalType":"uint64"},{"name":"revocationTime","type":"uint64","internalType":"uint64"},{"name":"refUID","type":"bytes32","internalType":"bytes32"},{"name":"recipient","type":"address","internalType":"address"},{"name":"attester","type":"address","internalType":"address"},{"name":"revocable","type":"bool","internalType":"bool"},{"name":"data","type":"bytes","internalType":"bytes"}]},{"name":"values","type":"uint256[]","internalType":"uint256[]"}],"outputs":[{"name":"","type":"bool","internalType":"bool"}],"stateMutability":"payable"},{"type":"function","name":"owner","inputs":[],"outputs":[{"name":"","type":"address","internalType":"address"}],"stateMutability":"view"},{"type":"function","name":"proxiableUUID","inputs":[],"outputs":[{"name":"","type":"bytes32","internalType":"bytes32"}],"stateMutability":"view"},{"type":"function","name":"renounceOwnership","inputs":[],"outputs":[],"stateMutability":"nonpayable"},{"type":"function","name":"revoke","inputs":[{"name":"attestation","type":"tuple","internalType":"struct Attestation","components":[{"name":"uid","type":"bytes32","internalType":"bytes32"},{"name":"schema","type":"bytes32","internalType":"bytes32"},{"name":"time","type":"uint64","internalType":"uint64"},{"name":"expirationTime","type":"uint64","internalType":"uint64"},{"name":"revocationTime","type":"uint64","internalType":"uint64"},{"name":"refUID","type":"bytes32","internalType":"bytes32"},{"name":"recipient","type":"address","internalType":"address"},{"name":"attester","type":"address","internalType":"address"},{"name":"revocable","type":"bool","internalType":"bool"},{"name":"data","type":"bytes","internalType":"bytes"}]}],"outputs":[{"name":"","type":"bool","internalType":"bool"}],"stateMutability":"payable"},{"type":"function","name":"setKarmaGAPModule","inputs":[{"name":"_karmaGAPModule","type":"address","internalType":"address"}],"outputs":[],"stateMutability":"nonpayable"},{"type":"function","name":"transferOwnership","inputs":[{"name":"newOwner","type":"address","internalType":"address"}],"outputs":[],"stateMutability":"nonpayable"},{"type":"function","name":"upgradeTo","inputs":[{"name":"newImplementation","type":"address","internalType":"address"}],"outputs":[],"stateMutability":"nonpayable"},{"type":"function","name":"upgradeToAndCall","inputs":[{"name":"newImplementation","type":"address","internalType":"address"},{"name":"data","type":"bytes","internalType":"bytes"}],"outputs":[],"stateMutability":"payable"},{"type":"function","name":"version","inputs":[],"outputs":[{"name":"","type":"string","internalType":"string"}],"stateMutability":"view"},{"type":"event","name":"AdminChanged","inputs":[{"name":"previousAdmin","type":"address","indexed":false,"internalType":"address"},{"name":"newAdmin","type":"address","indexed":false,"internalType":"address"}],"anonymous":false},{"type":"event","name":"BeaconUpgraded","inputs":[{"name":"beacon","type":"address","indexed":true,"internalType":"address"}],"anonymous":false},{"type":"event","name":"Initialized","inputs":[{"name":"version","type":"uint8","indexed":false,"internalType":"uint8"}],"anonymous":false},{"type":"event","name":"KarmaGAPModuleUpdated","inputs":[{"name":"oldModule","type":"address","indexed":true,"internalType":"address"},{"name":"newModule","type":"address","indexed":true,"internalType":"address"}],"anonymous":false},{"type":"event","name":"OwnershipTransferred","inputs":[{"name":"previousOwner","type":"address","indexed":true,"internalType":"address"},{"name":"newOwner","type":"address","indexed":true,"internalType":"address"}],"anonymous":false},{"type":"event","name":"Upgraded","inputs":[{"name":"implementation","type":"address","indexed":true,"internalType":"address"}],"anonymous":false},{"type":"error","name":"AccessDenied","inputs":[]},{"type":"error","name":"AssessmentTypeRequired","inputs":[]},{"type":"error","name":"AtLeastOneCapitalRequired","inputs":[]},{"type":"error","name":"InsufficientValue","inputs":[]},{"type":"error","name":"InvalidCapital","inputs":[{"name":"invalidCapital","type":"string","internalType":"string"}]},{"type":"error","name":"InvalidEAS","inputs":[]},{"type":"error","name":"InvalidLength","inputs":[]},{"type":"error","name":"NotGardenOperator","inputs":[]},{"type":"error","name":"NotPayable","inputs":[]},{"type":"error","name":"TitleRequired","inputs":[]}],"bytecode":{"object":"0x6101403461019457611ef1601f38829003908101601f19168301906001600160401b03821184831017610198578084916040948594855283398101031261019457610055602061004e846101ac565b93016101ac565b6001608052600360a0525f60c0526001600160a01b0392909190831680156101835760e05261010092308452610120921682525f5460ff8160081c1661012f5760ff808216036100f6575b505190611d3092836101c1843960805183610608015260a05183610636015260c05183610660015260e0518361103601525182818161015a015281816103ce01526104e1015251818181610ab701526113cb0152f35b60ff90811916175f557f7f26b83ff96e1f2b6a682f133852f6798a09c465da95921460cefb38474024986020825160ff8152a15f6100a0565b815162461bcd60e51b815260206004820152602760248201527f496e697469616c697a61626c653a20636f6e747261637420697320696e697469604482015266616c697a696e6760c81b6064820152608490fd5b81516341bc07ff60e11b8152600490fd5b5f80fd5b634e487b7160e01b5f52604160045260245ffd5b51906001600160a01b03821682036101945756fe6080604052600436101561001a575b3615610018575f80fd5b005b5f3560e01c80633659cfe6146101195780634026d762146101145780634f1ef2861461010f57806352d1902d1461010a57806354fd4d5014610105578063715018a61461010057806388e5b2d9146100fb5780638da5cb5b146100f657806391db0b7e146100f1578063c4d66de8146100ec578063ce46e046146100e7578063d9e4aaee146100e2578063e49617e1146100dd578063e60c3505146100d8578063f2fde38b146100d35763fb046ade0361000e57610aa2565b610a11565b6109f6565b6109da565b61093b565b610920565b61083a565b61081b565b6107f3565b6107ca565b6106f5565b6105f0565b6104cf565b61037c565b610293565b610133565b6001600160a01b0381160361012f57565b5f80fd5b3461012f57602036600319011261012f576004356101508161011e565b6001600160a01b037f00000000000000000000000000000000000000000000000000000000000000008116919061018930841415610ae6565b6101a55f80516020611d04833981519152938285541614610b47565b6101ad610f94565b60405190602082018281106001600160401b0382111761028e576040525f82527f4910fdfa16fed3260ed0e7147f7cc6da11a60208b5b9406d12a635614ffd91435460ff161561020357505061001891506116aa565b6020600491604094939451928380926352d1902d60e01b825286165afa5f918161025d575b5061024a5760405162461bcd60e51b81528061024660048201610e03565b0390fd5b610018936102589114610da5565b611659565b61028091925060203d602011610287575b61027881836102ea565b810190610d8b565b905f610228565b503d61026e565b6102bb565b3461012f575f36600319011261012f576065546040516001600160a01b039091168152602090f35b634e487b7160e01b5f52604160045260245ffd5b606081019081106001600160401b0382111761028e57604052565b90601f801991011681019081106001600160401b0382111761028e57604052565b6040519061018082018281106001600160401b0382111761028e57604052565b6001600160401b03811161028e57601f01601f191660200190565b9291926103528261032b565b9161036060405193846102ea565b82948184528183011161012f578281602093845f960137010152565b604036600319011261012f576004356103948161011e565b6024356001600160401b03811161012f573660238201121561012f576103c4903690602481600401359101610346565b6001600160a01b037f000000000000000000000000000000000000000000000000000000000000000081169291906103fe30851415610ae6565b61041a5f80516020611d04833981519152948286541614610b47565b610422610f94565b7f4910fdfa16fed3260ed0e7147f7cc6da11a60208b5b9406d12a635614ffd91435460ff161561045857505061001891506116aa565b6020600491604094939451928380926352d1902d60e01b825286165afa5f91816104ae575b5061049b5760405162461bcd60e51b81528061024660048201610e03565b610018936104a99114610da5565b611578565b6104c891925060203d6020116102875761027881836102ea565b905f61047d565b3461012f575f36600319011261012f577f00000000000000000000000000000000000000000000000000000000000000006001600160a01b0316300361052b576040515f80516020611d048339815191528152602090f35b0390f35b60405162461bcd60e51b815260206004820152603860248201527f555550535570677261646561626c653a206d757374206e6f742062652063616c60448201527f6c6564207468726f7567682064656c656761746563616c6c00000000000000006064820152608490fd5b5f5b8381106105a75750505f910152565b8181015183820152602001610598565b906020916105d081518092818552858086019101610596565b601f01601f1916010190565b9060206105ed9281815201906105b7565b90565b3461012f575f36600319011261012f5761052761062c7f0000000000000000000000000000000000000000000000000000000000000000610e52565b6106e9602261065a7f0000000000000000000000000000000000000000000000000000000000000000610e52565b926106847f0000000000000000000000000000000000000000000000000000000000000000610e52565b604051948261069d879451809260208088019101610596565b830190601760f91b918260208201526106c0825180936020602185019101610596565b019060218201526106da8251809360208785019101610596565b010360028101845201826102ea565b604051918291826105dc565b3461012f575f36600319011261012f5761070d610f94565b603380546001600160a01b031981169091555f906001600160a01b03167f8be0079c531659141344cd1fd0a4f28419497f9722a3daafe3b4186f6b6457e08280a3005b9181601f8401121561012f578235916001600160401b03831161012f576020808501948460051b01011161012f57565b604060031982011261012f576001600160401b039160043583811161012f57826107ac91600401610750565b9390939260243591821161012f576107c691600401610750565b9091565b60206107e96107d836610780565b926107e4929192611034565b610c3d565b6040519015158152f35b3461012f575f36600319011261012f576033546040516001600160a01b039091168152602090f35b60206107e961082936610780565b92610835929192611034565b610c9d565b3461012f57602036600319011261012f576004356108578161011e565b6108985f549161087e60ff8460081c161580948195610912575b81156108f2575b50610cfb565b8261088f600160ff195f5416175f55565b6108db57610d5e565b61089e57005b6108ac61ff00195f54165f55565b604051600181527f7f26b83ff96e1f2b6a682f133852f6798a09c465da95921460cefb384740249890602090a1005b6108ed61010061ff00195f5416175f55565b610d5e565b303b15915081610904575b505f610878565b6001915060ff16145f6108fd565b600160ff8216109150610871565b3461012f575f36600319011261012f57602060405160018152f35b3461012f57602036600319011261012f576004356109588161011e565b610960610f94565b606580546001600160a01b039283166001600160a01b0319821681179092559091167fdbf2e72ed7bd92ccbb36e552bb0c1a8df6df7e6a54ab7ddc78720975e93fc88e5f80a3005b6003199060208183011261012f57600435916001600160401b03831161012f57826101409203011261012f5760040190565b6109e3366109a8565b506109ec611034565b60206040515f8152f35b60206107e9610a04366109a8565b610a0c611034565b611358565b3461012f57602036600319011261012f57600435610a2e8161011e565b610a36610f94565b6001600160a01b03811615610a4e5761001890610fec565b60405162461bcd60e51b815260206004820152602660248201527f4f776e61626c653a206e6577206f776e657220697320746865207a65726f206160448201526564647265737360d01b6064820152608490fd5b3461012f575f36600319011261012f576040517f00000000000000000000000000000000000000000000000000000000000000006001600160a01b03168152602090f35b15610aed57565b60405162461bcd60e51b815260206004820152602c60248201527f46756e6374696f6e206d7573742062652063616c6c6564207468726f7567682060448201526b19195b1959d85d1958d85b1b60a21b6064820152608490fd5b15610b4e57565b60405162461bcd60e51b815260206004820152602c60248201527f46756e6374696f6e206d7573742062652063616c6c6564207468726f7567682060448201526b6163746976652070726f787960a01b6064820152608490fd5b90610bb28261032b565b610bbf60405191826102ea565b8281528092610bd0601f199161032b565b0190602036910137565b90610bed60209282815194859201610596565b0190565b634e487b7160e01b5f52603260045260245ffd5b9190811015610c155760051b0190565b610bf1565b9190811015610c155760051b8101359061013e198136030182121561012f570190565b919092808403610c8b57835f10610c575750505050600190565b5f610c63913493610c05565b3511610c7957610c74915f91610c1a565b505f90565b60405163044044a560e21b8152600490fd5b60405163251f56a160e21b8152600490fd5b92909192818303610c8b575f91345b848410610cbe57505050505050600190565b610cc9848388610c05565b35818111610c7957610cdf610a0c868887610c1a565b15610cf05760019103930192610cac565b505050505050505f90565b15610d0257565b60405162461bcd60e51b815260206004820152602e60248201527f496e697469616c697a61626c653a20636f6e747261637420697320616c72656160448201526d191e481a5b9a5d1a585b1a5e995960921b6064820152608490fd5b610d8990610d7b60ff5f5460081c16610d7681611518565b611518565b610d8433610fec565b610fec565b565b9081602091031261012f575190565b6040513d5f823e3d90fd5b15610dac57565b60405162461bcd60e51b815260206004820152602960248201527f45524331393637557067726164653a20756e737570706f727465642070726f786044820152681a58589b195555525160ba1b6064820152608490fd5b60809060208152602e60208201527f45524331393637557067726164653a206e657720696d706c656d656e7461746960408201526d6f6e206973206e6f74205555505360901b60608201520190565b805f917a184f03e93ff9f4daa797ed6e38ed64bf6a1f01000000000000000080821015610f86575b506d04ee2d6d415b85acef810000000080831015610f77575b50662386f26fc1000080831015610f68575b506305f5e10080831015610f59575b5061271080831015610f4a575b506064821015610f3a575b600a80921015610f30575b600190816021610ee960018701610ba8565b95860101905b610efb575b5050505090565b5f19019083906f181899199a1a9b1b9c1cb0b131b232b360811b8282061a835304918215610f2b57919082610eef565b610ef4565b9160010191610ed7565b9190606460029104910191610ecc565b6004919392049101915f610ec1565b6008919392049101915f610eb4565b6010919392049101915f610ea5565b6020919392049101915f610e93565b60409350810491505f610e7a565b6033546001600160a01b03163303610fa857565b606460405162461bcd60e51b815260206004820152602060248201527f4f776e61626c653a2063616c6c6572206973206e6f7420746865206f776e65726044820152fd5b603380546001600160a01b039283166001600160a01b0319821681179092559091167f8be0079c531659141344cd1fd0a4f28419497f9722a3daafe3b4186f6b6457e05f80a3565b7f00000000000000000000000000000000000000000000000000000000000000006001600160a01b0316330361106657565b604051634ca8886760e01b8152600490fd5b903590601e198136030182121561012f57018035906001600160401b03821161012f5760200191813603831361012f57565b9080601f8301121561012f578160206105ed93359101610346565b6001600160401b03811161028e5760051b60200190565b81601f8201121561012f578035916020916110f6846110c5565b9361110460405195866102ea565b808552838086019160051b8301019280841161012f57848301915b84831061112f5750505050505090565b82356001600160401b03811161012f578691611150848480948901016110aa565b81520192019161111f565b9080601f8301121561012f576020908235611175816110c5565b9361118360405195866102ea565b81855260208086019260051b82010192831161012f57602001905b8282106111ac575050505090565b8135815290830190830161119e565b60208183031261012f5780356001600160401b039182821161012f57016101808184031261012f576111eb61030b565b92813583811161012f57816112019184016110aa565b8452602082013583811161012f578161121b9184016110aa565b6020850152604082013583811161012f57816112389184016110aa565b6040850152606082013583811161012f57816112559184016110dc565b6060850152608082013583811161012f57816112729184016110aa565b608085015260a082013583811161012f578161128f9184016110dc565b60a085015260c082013583811161012f57816112ac9184016110dc565b60c085015260e082013583811161012f57816112c991840161115b565b60e0850152610100808301359085015261012080830135908501526101408083013584811161012f57826112fe9185016110aa565b90850152610160928383013590811161012f5761131b92016110dc565b9082015290565b356105ed8161011e565b9081602091031261012f5751801515810361012f5790565b8051821015610c155760209160051b010190565b611371611369610120830183611078565b8101906111bb565b9161137e60c08301611322565b916001600160a01b03906113949060e001611322565b60408051635b1b1e7960e11b81526001600160a01b03868116600480840191909152931660248201529095919391906020816044817f000000000000000000000000000000000000000000000000000000000000000088165afa908115611513575f916114e4575b50156114d457805151156114c4578581015151156114b4576060810194855151156114a4575f5b86518051821015611471578161143891611344565b5161144961144582611739565b1590565b6114565750600101611423565b8851634e5aca1360e01b815290819061024690828a016105dc565b505060655492965090945092506001600160a01b031616611494575b5050600190565b61149d916118ff565b5f8061148d565b865163232f1acf60e11b81528590fd5b8551636a066b0160e11b81528490fd5b85516319d546f160e31b81528490fd5b8551633cebab8560e21b81528490fd5b611506915060203d60201161150c575b6114fe81836102ea565b81019061132c565b5f6113fc565b503d6114f4565b610d9a565b1561151f57565b60405162461bcd60e51b815260206004820152602b60248201527f496e697469616c697a61626c653a20636f6e7472616374206973206e6f74206960448201526a6e697469616c697a696e6760a81b6064820152608490fd5b90611582826116aa565b6001600160a01b0382167fbc7cd75a20ee27fd9adebab32041f755214dbc6bffa90cc0225b39da2e5c2d3b5f80a2805115801590611651575b6115c3575050565b611646915f80604051936115d6856102cf565b602785527f416464726573733a206c6f772d6c6576656c2064656c65676174652063616c6c6020860152660819985a5b195960ca1b6040860152602081519101845af43d15611649573d9161162a8361032b565b9261163860405194856102ea565b83523d5f602085013e611c72565b50565b606091611c72565b5060016115bb565b90611663826116aa565b6001600160a01b0382167fbc7cd75a20ee27fd9adebab32041f755214dbc6bffa90cc0225b39da2e5c2d3b5f80a28051158015906116a3576115c3575050565b505f6115bb565b803b156116de575f80516020611d0483398151915280546001600160a01b0319166001600160a01b03909216919091179055565b60405162461bcd60e51b815260206004820152602d60248201527f455243313936373a206e657720696d706c656d656e746174696f6e206973206e60448201526c1bdd08184818dbdb9d1c9858dd609a1b6064820152608490fd5b602081519101207f3ae7be79adfacb03b53e8631fa030f3a07d1e0805fdcfcbafe24d21fdf6d87d88114908115611891575b8115611867575b811561183d575b8115611813575b81156117e9575b81156117bf575b8115611798575090565b7fc935b30cf506f1d5b9e8c05d02b3012901f8b06fac2b9594490fd89b2c838f1691501490565b7f06d31571aee254afefb23de2aab112b54fba4616cdb0311720df975c96845db88114915061178e565b7feec9067c1a18ee9eeb678df38867320e9b3ae277502972410f9d9f5711ae4fbc81149150611787565b7f83c1ce6dbbf4a80b014880f6fd78ebe2d72a234dd23985393a459a3169be841081149150611780565b7ffc1889320e37d59f44de78b668a468b6eaf868356a9793beb6ffce457e793c8d81149150611779565b7f2966cb0d2a3fc024b4bdb192523ff84c2190ffe59a171ad9700ffe50f06598b481149150611772565b7fdb6853651914ee14bf67ad13d529c28d75df661f33f99cd1bcf018394e6f67048114915061176b565b926118e36105ed95936118f19360018060a01b031686526080602087015260808601906105b7565b9084820360408601526105b7565b9160608184039101526105b7565b90611908611b0f565b925f935b606084018051518610156119b657611971600192876119509381611979575b61193c611963926119509251611344565b5161195d6040519687956020870190610bda565b601160f91b815260010190565b90610bda565b03601f1981018352826102ea565b94019361190c565b9161193c6119639261199e6119ab611950946119636040519384926020840190610bda565b600b60fa1b815260010190565b94925092505061192b565b50909350604051809360209485938482016119d091610bda565b605d60f81b815260010103601f199081810184526119ee90846102ea565b60408201516119fc90611b81565b926080830151611a0b90611b81565b6040516b3d9131b0b834ba30b639911d60a11b878201908152909586939091600c01611a3691610bda565b600b60fa1b8152600101711130b9b9b2b9b9b6b2b73a2a3cb832911d1160711b8152601201611a6491610bda565b61088b60f21b81526002016e1136b2ba3934b1b9a529a7a7111d1160891b8152600f01611a9091610bda565b61227d60f01b8152600201039081018352611aab90836102ea565b6065546001600160a01b03166001600160a01b0316908381519101519060405195869485938493630c7037a760e21b85526004850193611aea946118bb565b03915a905f91f1611af9575050565b8161164692903d106102875761027881836102ea565b60405190604082018281106001600160401b0382111761028e5760405260018252605b60f81b6020830152565b908151811015610c15570160200190565b634e487b7160e01b5f52601160045260245ffd5b5f198114611b6f5760010190565b611b4d565b91908201809211611b6f57565b905f805b8351811015611be057601160f91b611bbe611bb1611ba38488611b3c565b516001600160f81b03191690565b6001600160f81b03191690565b14611bcc575b600101611b85565b90611bd8600191611b61565b919050611bc4565b50801561164657611bf5611bfa918451611b74565b610ba8565b5f925f5b8151811015611c6b57600190601160f91b611c1f611bb1611ba38487611b3c565b14611c50575b611c32611ba38285611b3c565b95611c49611c3f82611b61565b975f1a9186611b3c565b5301611bfe565b605c611c65611c5e88611b61565b9786611b3c565b53611c25565b5090925050565b91929015611cd45750815115611c86575090565b3b15611c8f5790565b60405162461bcd60e51b815260206004820152601d60248201527f416464726573733a2063616c6c20746f206e6f6e2d636f6e74726163740000006044820152606490fd5b825190915015611ce75750805190602001fd5b60405162461bcd60e51b815290819061024690600483016105dc56fe360894a13ba1a3210667c828492db98dca3e2076cc3735a920a3ca505d382bbca164736f6c6343000819000a","linkReferences":{}},"methodIdentifiers":{"HATS_MODULE()":"fb046ade","attest((bytes32,bytes32,uint64,uint64,uint64,bytes32,address,address,bool,bytes))":"e60c3505","initialize(address)":"c4d66de8","isPayable()":"ce46e046","karmaGAPModule()":"4026d762","multiAttest((bytes32,bytes32,uint64,uint64,uint64,bytes32,address,address,bool,bytes)[],uint256[])":"91db0b7e","multiRevoke((bytes32,bytes32,uint64,uint64,uint64,bytes32,address,address,bool,bytes)[],uint256[])":"88e5b2d9","owner()":"8da5cb5b","proxiableUUID()":"52d1902d","renounceOwnership()":"715018a6","revoke((bytes32,bytes32,uint64,uint64,uint64,bytes32,address,address,bool,bytes))":"e49617e1","setKarmaGAPModule(address)":"d9e4aaee","transferOwnership(address)":"f2fde38b","upgradeTo(address)":"3659cfe6","upgradeToAndCall(address,bytes)":"4f1ef286","version()":"54fd4d50"},"id":138}