{"abi":[{"type":"constructor","inputs":[{"name":"easAddrs","type":"address","internalType":"address"}],"stateMutability":"nonpayable"},{"type":"receive","stateMutability":"payable"},{"type":"function","name":"attest","inputs":[{"name":"attestation","type":"tuple","internalType":"struct Attestation","components":[{"name":"uid","type":"bytes32","internalType":"bytes32"},{"name":"schema","type":"bytes32","internalType":"bytes32"},{"name":"time","type":"uint64","internalType":"uint64"},{"name":"expirationTime","type":"uint64","internalType":"uint64"},{"name":"revocationTime","type":"uint64","internalType":"uint64"},{"name":"refUID","type":"bytes32","internalType":"bytes32"},{"name":"recipient","type":"address","internalType":"address"},{"name":"attester","type":"address","internalType":"address"},{"name":"revocable","type":"bool","internalType":"bool"},{"name":"data","type":"bytes","internalType":"bytes"}]}],"outputs":[{"name":"","type":"bool","internalType":"bool"}],"stateMutability":"payable"},{"type":"function","name":"initialize","inputs":[{"name":"_multisig","type":"address","internalType":"address"}],"outputs":[],"stateMutability":"nonpayable"},{"type":"function","name":"isPayable","inputs":[],"outputs":[{"name":"","type":"bool","internalType":"bool"}],"stateMutability":"pure"},{"type":"function","name":"multiAttest","inputs":[{"name":"attestations","type":"tuple[]","internalType":"struct Attestation[]","components":[{"name":"uid","type":"bytes32","internalType":"bytes32"},{"name":"schema","type":"bytes32","internalType":"bytes32"},{"name":"time","type":"uint64","internalType":"uint64"},{"name":"expirationTime","type":"uint64","internalType":"uint64"},{"name":"revocationTime","type":"uint64","internalType":"uint64"},{"name":"refUID","type":"bytes32","internalType":"bytes32"},{"name":"recipient","type":"address","internalType":"address"},{"name":"attester","type":"address","internalType":"address"},{"name":"revocable","type":"bool","internalType":"bool"},{"name":"data","type":"bytes","internalType":"bytes"}]},{"name":"values","type":"uint256[]","internalType":"uint256[]"}],"outputs":[{"name":"","type":"bool","internalType":"bool"}],"stateMutability":"payable"},{"type":"function","name":"multiRevoke","inputs":[{"name":"attestations","type":"tuple[]","internalType":"struct Attestation[]","components":[{"name":"uid","type":"bytes32","internalType":"bytes32"},{"name":"schema","type":"bytes32","internalType":"bytes32"},{"name":"time","type":"uint64","internalType":"uint64"},{"name":"expirationTime","type":"uint64","internalType":"uint64"},{"name":"revocationTime","type":"uint64","internalType":"uint64"},{"name":"refUID","type":"bytes32","internalType":"bytes32"},{"name":"recipient","type":"address","internalType":"address"},{"name":"attester","type":"address","internalType":"address"},{"name":"revocable","type":"bool","internalType":"bool"},{"name":"data","type":"bytes","internalType":"bytes"}]},{"name":"values","type":"uint256[]","internalType":"uint256[]"}],"outputs":[{"name":"","type":"bool","internalType":"bool"}],"stateMutability":"payable"},{"type":"function","name":"owner","inputs":[],"outputs":[{"name":"","type":"address","internalType":"address"}],"stateMutability":"view"},{"type":"function","name":"proxiableUUID","inputs":[],"outputs":[{"name":"","type":"bytes32","internalType":"bytes32"}],"stateMutability":"view"},{"type":"function","name":"renounceOwnership","inputs":[],"outputs":[],"stateMutability":"nonpayable"},{"type":"function","name":"revoke","inputs":[{"name":"attestation","type":"tuple","internalType":"struct Attestation","components":[{"name":"uid","type":"bytes32","internalType":"bytes32"},{"name":"schema","type":"bytes32","internalType":"bytes32"},{"name":"time","type":"uint64","internalType":"uint64"},{"name":"expirationTime","type":"uint64","internalType":"uint64"},{"name":"revocationTime","type":"uint64","internalType":"uint64"},{"name":"refUID","type":"bytes32","internalType":"bytes32"},{"name":"recipient","type":"address","internalType":"address"},{"name":"attester","type":"address","internalType":"address"},{"name":"revocable","type":"bool","internalType":"bool"},{"name":"data","type":"bytes","internalType":"bytes"}]}],"outputs":[{"name":"","type":"bool","internalType":"bool"}],"stateMutability":"payable"},{"type":"function","name":"transferOwnership","inputs":[{"name":"newOwner","type":"address","internalType":"address"}],"outputs":[],"stateMutability":"nonpayable"},{"type":"function","name":"upgradeTo","inputs":[{"name":"newImplementation","type":"address","internalType":"address"}],"outputs":[],"stateMutability":"nonpayable"},{"type":"function","name":"upgradeToAndCall","inputs":[{"name":"newImplementation","type":"address","internalType":"address"},{"name":"data","type":"bytes","internalType":"bytes"}],"outputs":[],"stateMutability":"payable"},{"type":"function","name":"version","inputs":[],"outputs":[{"name":"","type":"string","internalType":"string"}],"stateMutability":"view"},{"type":"event","name":"AdminChanged","inputs":[{"name":"previousAdmin","type":"address","indexed":false,"internalType":"address"},{"name":"newAdmin","type":"address","indexed":false,"internalType":"address"}],"anonymous":false},{"type":"event","name":"BeaconUpgraded","inputs":[{"name":"beacon","type":"address","indexed":true,"internalType":"address"}],"anonymous":false},{"type":"event","name":"Initialized","inputs":[{"name":"version","type":"uint8","indexed":false,"internalType":"uint8"}],"anonymous":false},{"type":"event","name":"OwnershipTransferred","inputs":[{"name":"previousOwner","type":"address","indexed":true,"internalType":"address"},{"name":"newOwner","type":"address","indexed":true,"internalType":"address"}],"anonymous":false},{"type":"event","name":"Upgraded","inputs":[{"name":"implementation","type":"address","indexed":true,"internalType":"address"}],"anonymous":false},{"type":"error","name":"AccessDenied","inputs":[]},{"type":"error","name":"AssessmentTypeRequired","inputs":[]},{"type":"error","name":"AtLeastOneCapitalRequired","inputs":[]},{"type":"error","name":"InsufficientValue","inputs":[]},{"type":"error","name":"InvalidCapital","inputs":[{"name":"invalidCapital","type":"string","internalType":"string"}]},{"type":"error","name":"InvalidEAS","inputs":[]},{"type":"error","name":"InvalidLength","inputs":[]},{"type":"error","name":"NotGardenOperator","inputs":[]},{"type":"error","name":"NotPayable","inputs":[]},{"type":"error","name":"TitleRequired","inputs":[]}],"bytecode":{"object":"0x6101203461017157601f611e6e38819003918201601f19168301916001600160401b038311848410176101755780849260209460405283398101031261017157516001600160a01b03811690819003610171576001608052600360a0525f60c052801561015f5760e0526101003081525f5460ff8160081c1661010a5760ff808216036100d0575b50604051611ce4918261018a8339608051826105ab015260a051826105d9015260c05182610603015260e05182610f3a01525181818161012a0152818161037101526104840152f35b60ff90811916175f557f7f26b83ff96e1f2b6a682f133852f6798a09c465da95921460cefb3847402498602060405160ff8152a15f610087565b60405162461bcd60e51b815260206004820152602760248201527f496e697469616c697a61626c653a20636f6e747261637420697320696e697469604482015266616c697a696e6760c81b6064820152608490fd5b6040516341bc07ff60e11b8152600490fd5b5f80fd5b634e487b7160e01b5f52604160045260245ffdfe6080604052600436101561001a575b3615610018575f80fd5b005b5f3560e01c80633659cfe6146100e95780634f1ef286146100e457806352d1902d146100df57806354fd4d50146100da578063715018a6146100d557806388e5b2d9146100d05780638da5cb5b146100cb57806391db0b7e146100c6578063c4d66de8146100c1578063ce46e046146100bc578063e49617e1146100b7578063e60c3505146100b25763f2fde38b0361000e576109b9565b61099e565b610979565b61092c565b610846565b61081d565b6107f5565b61076d565b610698565b610593565b610472565b61031f565b610103565b6001600160a01b038116036100ff57565b5f80fd5b346100ff5760203660031901126100ff57600435610120816100ee565b6001600160a01b037f00000000000000000000000000000000000000000000000000000000000000008116919061015930841415610a4a565b6101755f80516020611cb8833981519152938285541614610aab565b61017d610e98565b60405190602082018281106001600160401b0382111761025e576040525f82527f4910fdfa16fed3260ed0e7147f7cc6da11a60208b5b9406d12a635614ffd91435460ff16156101d35750506100189150611582565b6020600491604094939451928380926352d1902d60e01b825286165afa5f918161022d575b5061021a5760405162461bcd60e51b81528061021660048201610d07565b0390fd5b610018936102289114610ca9565b611531565b61025091925060203d602011610257575b610248818361028d565b810190610c8f565b905f6101f8565b503d61023e565b634e487b7160e01b5f52604160045260245ffd5b606081019081106001600160401b0382111761025e57604052565b90601f801991011681019081106001600160401b0382111761025e57604052565b6040519061018082018281106001600160401b0382111761025e57604052565b6001600160401b03811161025e57601f01601f191660200190565b9291926102f5826102ce565b91610303604051938461028d565b8294818452818301116100ff578281602093845f960137010152565b60403660031901126100ff57600435610337816100ee565b6024356001600160401b0381116100ff57366023820112156100ff576103679036906024816004013591016102e9565b6001600160a01b037f000000000000000000000000000000000000000000000000000000000000000081169291906103a130851415610a4a565b6103bd5f80516020611cb8833981519152948286541614610aab565b6103c5610e98565b7f4910fdfa16fed3260ed0e7147f7cc6da11a60208b5b9406d12a635614ffd91435460ff16156103fb5750506100189150611582565b6020600491604094939451928380926352d1902d60e01b825286165afa5f9181610451575b5061043e5760405162461bcd60e51b81528061021660048201610d07565b6100189361044c9114610ca9565b611450565b61046b91925060203d60201161025757610248818361028d565b905f610420565b346100ff575f3660031901126100ff577f00000000000000000000000000000000000000000000000000000000000000006001600160a01b031630036104ce576040515f80516020611cb88339815191528152602090f35b0390f35b60405162461bcd60e51b815260206004820152603860248201527f555550535570677261646561626c653a206d757374206e6f742062652063616c60448201527f6c6564207468726f7567682064656c656761746563616c6c00000000000000006064820152608490fd5b5f5b83811061054a5750505f910152565b818101518382015260200161053b565b9060209161057381518092818552858086019101610539565b601f01601f1916010190565b90602061059092818152019061055a565b90565b346100ff575f3660031901126100ff576104ca6105cf7f0000000000000000000000000000000000000000000000000000000000000000610d56565b61068c60226105fd7f0000000000000000000000000000000000000000000000000000000000000000610d56565b926106277f0000000000000000000000000000000000000000000000000000000000000000610d56565b6040519482610640879451809260208088019101610539565b830190601760f91b91826020820152610663825180936020602185019101610539565b0190602182015261067d8251809360208785019101610539565b0103600281018452018261028d565b6040519182918261057f565b346100ff575f3660031901126100ff576106b0610e98565b603380546001600160a01b031981169091555f906001600160a01b03167f8be0079c531659141344cd1fd0a4f28419497f9722a3daafe3b4186f6b6457e08280a3005b9181601f840112156100ff578235916001600160401b0383116100ff576020808501948460051b0101116100ff57565b60406003198201126100ff576001600160401b03916004358381116100ff578261074f916004016106f3565b939093926024359182116100ff57610769916004016106f3565b9091565b61077636610723565b610781929192610f38565b8082036107e3575f90345b83831061079e57602060405160018152f35b6107a9838387610b69565b358181116107d1576001916107bf85878a610b7e565b506107c8610e98565b0392019161078c565b60405163044044a560e21b8152600490fd5b60405163251f56a160e21b8152600490fd5b346100ff575f3660031901126100ff576033546040516001600160a01b039091168152602090f35b602061083c61082b36610723565b92610837929192610f38565b610ba1565b6040519015158152f35b346100ff5760203660031901126100ff57600435610863816100ee565b6108a45f549161088a60ff8460081c16158094819561091e575b81156108fe575b50610bff565b8261089b600160ff195f5416175f55565b6108e757610c62565b6108aa57005b6108b861ff00195f54165f55565b604051600181527f7f26b83ff96e1f2b6a682f133852f6798a09c465da95921460cefb384740249890602090a1005b6108f961010061ff00195f5416175f55565b610c62565b303b15915081610910575b505f610884565b6001915060ff16145f610909565b600160ff821610915061087d565b346100ff575f3660031901126100ff57602060405160018152f35b600319906020818301126100ff57600435916001600160401b0383116100ff5782610140920301126100ff5760040190565b61098236610947565b5061098b610f38565b610993610e98565b602060405160018152f35b602061083c6109ac36610947565b6109b4610f38565b61125c565b346100ff5760203660031901126100ff576004356109d6816100ee565b6109de610e98565b6001600160a01b038116156109f65761001890610ef0565b60405162461bcd60e51b815260206004820152602660248201527f4f776e61626c653a206e6577206f776e657220697320746865207a65726f206160448201526564647265737360d01b6064820152608490fd5b15610a5157565b60405162461bcd60e51b815260206004820152602c60248201527f46756e6374696f6e206d7573742062652063616c6c6564207468726f7567682060448201526b19195b1959d85d1958d85b1b60a21b6064820152608490fd5b15610ab257565b60405162461bcd60e51b815260206004820152602c60248201527f46756e6374696f6e206d7573742062652063616c6c6564207468726f7567682060448201526b6163746976652070726f787960a01b6064820152608490fd5b90610b16826102ce565b610b23604051918261028d565b8281528092610b34601f19916102ce565b0190602036910137565b90610b5160209282815194859201610539565b0190565b634e487b7160e01b5f52603260045260245ffd5b9190811015610b795760051b0190565b610b55565b9190811015610b795760051b8101359061013e19813603018212156100ff570190565b929091928183036107e3575f91345b848410610bc257505050505050600190565b610bcd848388610b69565b358181116107d157610be36109b4868887610b7e565b15610bf45760019103930192610bb0565b505050505050505f90565b15610c0657565b60405162461bcd60e51b815260206004820152602e60248201527f496e697469616c697a61626c653a20636f6e747261637420697320616c72656160448201526d191e481a5b9a5d1a585b1a5e995960921b6064820152608490fd5b610c8d90610c7f60ff5f5460081c16610c7a816113f0565b6113f0565b610c8833610ef0565b610ef0565b565b908160209103126100ff575190565b6040513d5f823e3d90fd5b15610cb057565b60405162461bcd60e51b815260206004820152602960248201527f45524331393637557067726164653a20756e737570706f727465642070726f786044820152681a58589b195555525160ba1b6064820152608490fd5b60809060208152602e60208201527f45524331393637557067726164653a206e657720696d706c656d656e7461746960408201526d6f6e206973206e6f74205555505360901b60608201520190565b805f917a184f03e93ff9f4daa797ed6e38ed64bf6a1f01000000000000000080821015610e8a575b506d04ee2d6d415b85acef810000000080831015610e7b575b50662386f26fc1000080831015610e6c575b506305f5e10080831015610e5d575b5061271080831015610e4e575b506064821015610e3e575b600a80921015610e34575b600190816021610ded60018701610b0c565b95860101905b610dff575b5050505090565b5f19019083906f181899199a1a9b1b9c1cb0b131b232b360811b8282061a835304918215610e2f57919082610df3565b610df8565b9160010191610ddb565b9190606460029104910191610dd0565b6004919392049101915f610dc5565b6008919392049101915f610db8565b6010919392049101915f610da9565b6020919392049101915f610d97565b60409350810491505f610d7e565b6033546001600160a01b03163303610eac57565b606460405162461bcd60e51b815260206004820152602060248201527f4f776e61626c653a2063616c6c6572206973206e6f7420746865206f776e65726044820152fd5b603380546001600160a01b039283166001600160a01b0319821681179092559091167f8be0079c531659141344cd1fd0a4f28419497f9722a3daafe3b4186f6b6457e05f80a3565b7f00000000000000000000000000000000000000000000000000000000000000006001600160a01b03163303610f6a57565b604051634ca8886760e01b8152600490fd5b903590601e19813603018212156100ff57018035906001600160401b0382116100ff576020019181360383136100ff57565b9080601f830112156100ff57816020610590933591016102e9565b6001600160401b03811161025e5760051b60200190565b81601f820112156100ff57803591602091610ffa84610fc9565b93611008604051958661028d565b808552838086019160051b830101928084116100ff57848301915b8483106110335750505050505090565b82356001600160401b0381116100ff57869161105484848094890101610fae565b815201920191611023565b9080601f830112156100ff57602090823561107981610fc9565b93611087604051958661028d565b81855260208086019260051b8201019283116100ff57602001905b8282106110b0575050505090565b813581529083019083016110a2565b6020818303126100ff5780356001600160401b03918282116100ff5701610180818403126100ff576110ef6102ae565b9281358381116100ff5781611105918401610fae565b845260208201358381116100ff578161111f918401610fae565b602085015260408201358381116100ff578161113c918401610fae565b604085015260608201358381116100ff5781611159918401610fe0565b606085015260808201358381116100ff5781611176918401610fae565b608085015260a08201358381116100ff5781611193918401610fe0565b60a085015260c08201358381116100ff57816111b0918401610fe0565b60c085015260e08201358381116100ff57816111cd91840161105f565b60e085015261010080830135908501526101208083013590850152610140808301358481116100ff5782611202918501610fae565b9085015261016092838301359081116100ff5761121f9201610fe0565b9082015290565b35610590816100ee565b908160209103126100ff575180151581036100ff5790565b8051821015610b795760209160051b010190565b9061127661126e610120840184610f7c565b8101906110bf565b9060c083016112a260e061129b61128f61128f85611226565b6001600160a01b031690565b9501611226565b604080516336b87bd760e11b81526001600160a01b0392909216600480840191909152909590939190602090829060249082905afa9081156113eb575f916113bc575b50156113ac578351511561139c5784840151511561138c5760608401938451511561137c575f5b8551805182101561135a578161132191611248565b5161133261132e82611611565b1590565b61133f575060010161130c565b8751634e5aca1360e01b81529081906102169082890161057f565b505092509350611377925061128f61137191611226565b906117ca565b600190565b855163232f1acf60e11b81528490fd5b8451636a066b0160e11b81528390fd5b84516319d546f160e31b81528390fd5b8451633cebab8560e21b81528390fd5b6113de915060203d6020116113e4575b6113d6818361028d565b810190611230565b5f6112e5565b503d6113cc565b610c9e565b156113f757565b60405162461bcd60e51b815260206004820152602b60248201527f496e697469616c697a61626c653a20636f6e7472616374206973206e6f74206960448201526a6e697469616c697a696e6760a81b6064820152608490fd5b9061145a82611582565b6001600160a01b0382167fbc7cd75a20ee27fd9adebab32041f755214dbc6bffa90cc0225b39da2e5c2d3b5f80a2805115801590611529575b61149b575050565b61151e915f80604051936114ae85610272565b602785527f416464726573733a206c6f772d6c6576656c2064656c65676174652063616c6c6020860152660819985a5b195960ca1b6040860152602081519101845af43d15611521573d91611502836102ce565b92611510604051948561028d565b83523d5f602085013e611c26565b50565b606091611c26565b506001611493565b9061153b82611582565b6001600160a01b0382167fbc7cd75a20ee27fd9adebab32041f755214dbc6bffa90cc0225b39da2e5c2d3b5f80a280511580159061157b5761149b575050565b505f611493565b803b156115b6575f80516020611cb883398151915280546001600160a01b0319166001600160a01b03909216919091179055565b60405162461bcd60e51b815260206004820152602d60248201527f455243313936373a206e657720696d706c656d656e746174696f6e206973206e60448201526c1bdd08184818dbdb9d1c9858dd609a1b6064820152608490fd5b602081519101207f3ae7be79adfacb03b53e8631fa030f3a07d1e0805fdcfcbafe24d21fdf6d87d88114908115611769575b811561173f575b8115611715575b81156116eb575b81156116c1575b8115611697575b8115611670575090565b7fc935b30cf506f1d5b9e8c05d02b3012901f8b06fac2b9594490fd89b2c838f1691501490565b7f06d31571aee254afefb23de2aab112b54fba4616cdb0311720df975c96845db881149150611666565b7feec9067c1a18ee9eeb678df38867320e9b3ae277502972410f9d9f5711ae4fbc8114915061165f565b7f83c1ce6dbbf4a80b014880f6fd78ebe2d72a234dd23985393a459a3169be841081149150611658565b7ffc1889320e37d59f44de78b668a468b6eaf868356a9793beb6ffce457e793c8d81149150611651565b7f2966cb0d2a3fc024b4bdb192523ff84c2190ffe59a171ad9700ffe50f06598b48114915061164a565b7fdb6853651914ee14bf67ad13d529c28d75df661f33f99cd1bcf018394e6f670481149150611643565b916117bc906117ae610590959360608652606086019061055a565b90848203602086015261055a565b91604081840391015261055a565b906117d661132e61188e565b61188a5760405163f89b9b9360e01b8152602092916001600160a01b0316908381600481855afa9081156113eb575f9161186d575b50156118685781839161182061184694611940565b8251928401516040516381eec6bb60e01b815295869485935f9385939260048501611793565b03925af1611852575050565b8161151e92903d1061025757610248818361028d565b505050565b6118849150843d861161025757610248818361028d565b5f61180b565b5050565b600a46148015611907575b80156118fc575b80156118f0575b80156118e4575b80156118d9575b80156118ce575b80156118c55790565b50610530461490565b5061053146146118bc565b5061a4ec46146118b5565b5062014a3446146118ae565b5062aa36a746146118a7565b5061a4b146146118a0565b5062aa37dc4614611899565b60405190604082018281106001600160401b0382111761025e5760405260018252605b60f81b6020830152565b90611949611913565b5f905b606084018051518310156119f6576119b16001928461199093816119b9575b61197c6119a3926119909251611248565b5161199d6040519687956020870190610b3e565b601160f91b815260010190565b90610b3e565b03601f19810183528261028d565b91019061194c565b9161197c6119a3926119de6119eb611990946119a36040519384926020840190610b3e565b600b60fa1b815260010190565b94925092505061196b565b50610590915092611a1e611ae4611ad66119de9596611a2b6040519485926020840190610b3e565b605d60f81b815260010190565b0393611a3f601f199586810186528561028d565b61199d611abb611aad611a626080611a5a6040870151611b35565b950151611b35565b9361199d611a8f6040519c8d9a61199d60208d01600c906b3d9131b0b834ba30b639911d60a11b81520190565b711130b9b9b2b9b9b6b2b73a2a3cb832911d1160711b815260120190565b61088b60f21b815260020190565b6e1136b2ba3934b1b9a529a7a7111d1160891b8152600f0190565b61227d60f01b815260020190565b0390810183528261028d565b908151811015610b79570160200190565b634e487b7160e01b5f52601160045260245ffd5b5f198114611b235760010190565b611b01565b91908201809211611b2357565b905f805b8351811015611b9457601160f91b611b72611b65611b578488611af0565b516001600160f81b03191690565b6001600160f81b03191690565b14611b80575b600101611b39565b90611b8c600191611b15565b919050611b78565b50801561151e57611ba9611bae918451611b28565b610b0c565b5f925f5b8151811015611c1f57600190601160f91b611bd3611b65611b578487611af0565b14611c04575b611be6611b578285611af0565b95611bfd611bf382611b15565b975f1a9186611af0565b5301611bb2565b605c611c19611c1288611b15565b9786611af0565b53611bd9565b5090925050565b91929015611c885750815115611c3a575090565b3b15611c435790565b60405162461bcd60e51b815260206004820152601d60248201527f416464726573733a2063616c6c20746f206e6f6e2d636f6e74726163740000006044820152606490fd5b825190915015611c9b5750805190602001fd5b60405162461bcd60e51b8152908190610216906004830161057f56fe360894a13ba1a3210667c828492db98dca3e2076cc3735a920a3ca505d382bbca164736f6c6343000819000a","linkReferences":{}},"methodIdentifiers":{"attest((bytes32,bytes32,uint64,uint64,uint64,bytes32,address,address,bool,bytes))":"e60c3505","initialize(address)":"c4d66de8","isPayable()":"ce46e046","multiAttest((bytes32,bytes32,uint64,uint64,uint64,bytes32,address,address,bool,bytes)[],uint256[])":"91db0b7e","multiRevoke((bytes32,bytes32,uint64,uint64,uint64,bytes32,address,address,bool,bytes)[],uint256[])":"88e5b2d9","owner()":"8da5cb5b","proxiableUUID()":"52d1902d","renounceOwnership()":"715018a6","revoke((bytes32,bytes32,uint64,uint64,uint64,bytes32,address,address,bool,bytes))":"e49617e1","transferOwnership(address)":"f2fde38b","upgradeTo(address)":"3659cfe6","upgradeToAndCall(address,bytes)":"4f1ef286","version()":"54fd4d50"},"id":133}