{"abi":[{"type":"fallback","stateMutability":"payable"},{"type":"receive","stateMutability":"payable"},{"type":"function","name":"initialize","inputs":[{"name":"_owner","type":"address","internalType":"address"}],"outputs":[],"stateMutability":"nonpayable"},{"type":"function","name":"owner","inputs":[],"outputs":[{"name":"","type":"address","internalType":"address"}],"stateMutability":"view"},{"type":"function","name":"proxiableUUID","inputs":[],"outputs":[{"name":"","type":"bytes32","internalType":"bytes32"}],"stateMutability":"view"},{"type":"function","name":"renounceOwnership","inputs":[],"outputs":[],"stateMutability":"nonpayable"},{"type":"function","name":"transferOwnership","inputs":[{"name":"newOwner","type":"address","internalType":"address"}],"outputs":[],"stateMutability":"nonpayable"},{"type":"function","name":"upgradeTo","inputs":[{"name":"newImplementation","type":"address","internalType":"address"}],"outputs":[],"stateMutability":"nonpayable"},{"type":"function","name":"upgradeToAndCall","inputs":[{"name":"newImplementation","type":"address","internalType":"address"},{"name":"data","type":"bytes","internalType":"bytes"}],"outputs":[],"stateMutability":"payable"},{"type":"event","name":"AdminChanged","inputs":[{"name":"previousAdmin","type":"address","indexed":false,"internalType":"address"},{"name":"newAdmin","type":"address","indexed":false,"internalType":"address"}],"anonymous":false},{"type":"event","name":"BeaconUpgraded","inputs":[{"name":"beacon","type":"address","indexed":true,"internalType":"address"}],"anonymous":false},{"type":"event","name":"Initialized","inputs":[{"name":"version","type":"uint8","indexed":false,"internalType":"uint8"}],"anonymous":false},{"type":"event","name":"OwnershipTransferred","inputs":[{"name":"previousOwner","type":"address","indexed":true,"internalType":"address"},{"name":"newOwner","type":"address","indexed":true,"internalType":"address"}],"anonymous":false},{"type":"event","name":"Upgraded","inputs":[{"name":"implementation","type":"address","indexed":true,"internalType":"address"}],"anonymous":false},{"type":"error","name":"NotImplemented","inputs":[]}],"bytecode":{"object":"0x60a0806040523460305730608052610d379081610035823960805181818161033001528181610464015261073e0152f35b5f80fdfe60406080815260049081361015610031575b3615610024575163d623472560e01b8152fd5b5163d623472560e01b8152fd5b5f3560e01c80633659cfe6146107145780634f1ef286146103e757806352d1902d14610314578063715018a6146102ae5780638da5cb5b14610287578063c4d66de81461012c5763f2fde38b036100115790346101285760203660031901126101285761009c61091c565b916100a5610a82565b6001600160a01b038316156100bf576100bd83610ada565b005b906020608492519162461bcd60e51b8352820152602660248201527f4f776e61626c653a206e6577206f776e657220697320746865207a65726f206160448201527f64647265737300000000000000000000000000000000000000000000000000006064820152fd5b5f80fd5b5090346101285760203660031901126101285761014761091c565b5f5460ff8160081c16159283809461027a575b8015610263575b156101fa575060ff1981166001175f556101ad9190836101e8575b5061019f60ff5f5460081c1661019181610b2e565b61019a81610b2e565b610b2e565b6101a833610ada565b610ada565b6101b357005b60207f7f26b83ff96e1f2b6a682f133852f6798a09c465da95921460cefb38474024989161ff00195f54165f555160018152a1005b61ffff1916610101175f90815561017c565b608490602086519162461bcd60e51b8352820152602e60248201527f496e697469616c697a61626c653a20636f6e747261637420697320616c72656160448201527f647920696e697469616c697a65640000000000000000000000000000000000006064820152fd5b50303b1580156101615750600160ff831614610161565b50600160ff83161061015a565b5034610128575f366003190112610128576020906001600160a01b03609754169051908152f35b34610128575f366003190112610128576102c6610a82565b5f6001600160a01b0360975473ffffffffffffffffffffffffffffffffffffffff198116609755167f8be0079c531659141344cd1fd0a4f28419497f9722a3daafe3b4186f6b6457e08280a3005b509034610128575f366003190112610128576001600160a01b037f000000000000000000000000000000000000000000000000000000000000000016300361037f57602082517f360894a13ba1a3210667c828492db98dca3e2076cc3735a920a3ca505d382bbc8152f35b6020608492519162461bcd60e51b8352820152603860248201527f555550535570677261646561626c653a206d757374206e6f742062652063616c60448201527f6c6564207468726f7567682064656c656761746563616c6c00000000000000006064820152fd5b509081600319360112610128576103fc61091c565b906024359267ffffffffffffffff8411610128573660238501121561012857838201359061042982610984565b61043582519182610962565b82815260209283820196366024838301011161012857815f9260248793018a37830101526001600160a01b03807f00000000000000000000000000000000000000000000000000000000000000001690610491823014156109a0565b6104c07f360894a13ba1a3210667c828492db98dca3e2076cc3735a920a3ca505d382bbc928284541614610a11565b6104c8610a82565b7f4910fdfa16fed3260ed0e7147f7cc6da11a60208b5b9406d12a635614ffd91435460ff1615610502575050505050506100bd9150610b9f565b869293949596169084516352d1902d60e01b815286818981865afa5f91816106e5575b50610592576084888888519162461bcd60e51b8352820152602e60248201527f45524331393637557067726164653a206e657720696d706c656d656e7461746960448201527f6f6e206973206e6f7420555550530000000000000000000000000000000000006064820152fd5b96919293960361067d57506105a682610b9f565b7fbc7cd75a20ee27fd9adebab32041f755214dbc6bffa90cc0225b39da2e5c2d3b5f80a2835115801590610675575b6105db57005b5f806100bd968451966105ed88610932565b602788527f416464726573733a206c6f772d6c6576656c2064656c65676174652063616c6c878901527f206661696c656400000000000000000000000000000000000000000000000000868901525190845af4913d1561066b573d61065d61065482610984565b92519283610962565b81525f81943d92013e610c59565b5060609250610c59565b5060016105d5565b6084908585519162461bcd60e51b8352820152602960248201527f45524331393637557067726164653a20756e737570706f727465642070726f7860448201527f6961626c655555494400000000000000000000000000000000000000000000006064820152fd5b9091508781813d831161070d575b6106fd8183610962565b810103126101285751905f610525565b503d6106f3565b50903461012857602090816003193601126101285761073161091c565b916001600160a01b0393847f00000000000000000000000000000000000000000000000000000000000000001661076a813014156109a0565b6107997f360894a13ba1a3210667c828492db98dca3e2076cc3735a920a3ca505d382bbc918783541614610a11565b6107a1610a82565b8151908382019682881067ffffffffffffffff891117610909578784525f83527f4910fdfa16fed3260ed0e7147f7cc6da11a60208b5b9406d12a635614ffd91435460ff16156107fb575050505050506100bd9150610b9f565b869293949596169084516352d1902d60e01b815286818981865afa5f91816108da575b5061088b576084888888519162461bcd60e51b8352820152602e60248201527f45524331393637557067726164653a206e657720696d706c656d656e7461746960448201527f6f6e206973206e6f7420555550530000000000000000000000000000000000006064820152fd5b96919293960361067d575061089f82610b9f565b7fbc7cd75a20ee27fd9adebab32041f755214dbc6bffa90cc0225b39da2e5c2d3b5f80a28351158015906108d3576105db57005b505f6105d5565b9091508781813d8311610902575b6108f28183610962565b810103126101285751905f61081e565b503d6108e8565b604186634e487b7160e01b5f525260245ffd5b600435906001600160a01b038216820361012857565b6060810190811067ffffffffffffffff82111761094e57604052565b634e487b7160e01b5f52604160045260245ffd5b90601f8019910116810190811067ffffffffffffffff82111761094e57604052565b67ffffffffffffffff811161094e57601f01601f191660200190565b156109a757565b608460405162461bcd60e51b815260206004820152602c60248201527f46756e6374696f6e206d7573742062652063616c6c6564207468726f7567682060448201527f64656c656761746563616c6c00000000000000000000000000000000000000006064820152fd5b15610a1857565b608460405162461bcd60e51b815260206004820152602c60248201527f46756e6374696f6e206d7573742062652063616c6c6564207468726f7567682060448201527f6163746976652070726f787900000000000000000000000000000000000000006064820152fd5b6001600160a01b03609754163303610a9657565b606460405162461bcd60e51b815260206004820152602060248201527f4f776e61626c653a2063616c6c6572206973206e6f7420746865206f776e65726044820152fd5b609754906001600160a01b03809116918273ffffffffffffffffffffffffffffffffffffffff19821617609755167f8be0079c531659141344cd1fd0a4f28419497f9722a3daafe3b4186f6b6457e05f80a3565b15610b3557565b608460405162461bcd60e51b815260206004820152602b60248201527f496e697469616c697a61626c653a20636f6e7472616374206973206e6f74206960448201527f6e697469616c697a696e670000000000000000000000000000000000000000006064820152fd5b803b15610bef576001600160a01b037f360894a13ba1a3210667c828492db98dca3e2076cc3735a920a3ca505d382bbc911673ffffffffffffffffffffffffffffffffffffffff19825416179055565b608460405162461bcd60e51b815260206004820152602d60248201527f455243313936373a206e657720696d706c656d656e746174696f6e206973206e60448201527f6f74206120636f6e7472616374000000000000000000000000000000000000006064820152fd5b91929015610cba5750815115610c6d575090565b3b15610c765790565b606460405162461bcd60e51b815260206004820152601d60248201527f416464726573733a2063616c6c20746f206e6f6e2d636f6e74726163740000006044820152fd5b825190915015610ccd5750805190602001fd5b6040519062461bcd60e51b82528160208060048301528251908160248401525f935b828510610d11575050604492505f838284010152601f80199101168101030190fd5b8481018201518686016044015293810193859350610cef56fea164736f6c6343000819000a","linkReferences":{}},"methodIdentifiers":{"initialize(address)":"c4d66de8","owner()":"8da5cb5b","proxiableUUID()":"52d1902d","renounceOwnership()":"715018a6","transferOwnership(address)":"f2fde38b","upgradeTo(address)":"3659cfe6","upgradeToAndCall(address,bytes)":"4f1ef286"},"id":140}