{"abi":[{"type":"fallback","stateMutability":"payable"},{"type":"receive","stateMutability":"payable"},{"type":"function","name":"initialize","inputs":[{"name":"_owner","type":"address","internalType":"address"}],"outputs":[],"stateMutability":"nonpayable"},{"type":"function","name":"owner","inputs":[],"outputs":[{"name":"","type":"address","internalType":"address"}],"stateMutability":"view"},{"type":"function","name":"proxiableUUID","inputs":[],"outputs":[{"name":"","type":"bytes32","internalType":"bytes32"}],"stateMutability":"view"},{"type":"function","name":"renounceOwnership","inputs":[],"outputs":[],"stateMutability":"nonpayable"},{"type":"function","name":"transferOwnership","inputs":[{"name":"newOwner","type":"address","internalType":"address"}],"outputs":[],"stateMutability":"nonpayable"},{"type":"function","name":"upgradeTo","inputs":[{"name":"newImplementation","type":"address","internalType":"address"}],"outputs":[],"stateMutability":"nonpayable"},{"type":"function","name":"upgradeToAndCall","inputs":[{"name":"newImplementation","type":"address","internalType":"address"},{"name":"data","type":"bytes","internalType":"bytes"}],"outputs":[],"stateMutability":"payable"},{"type":"event","name":"AdminChanged","inputs":[{"name":"previousAdmin","type":"address","indexed":false,"internalType":"address"},{"name":"newAdmin","type":"address","indexed":false,"internalType":"address"}],"anonymous":false},{"type":"event","name":"BeaconUpgraded","inputs":[{"name":"beacon","type":"address","indexed":true,"internalType":"address"}],"anonymous":false},{"type":"event","name":"Initialized","inputs":[{"name":"version","type":"uint8","indexed":false,"internalType":"uint8"}],"anonymous":false},{"type":"event","name":"OwnershipTransferred","inputs":[{"name":"previousOwner","type":"address","indexed":true,"internalType":"address"},{"name":"newOwner","type":"address","indexed":true,"internalType":"address"}],"anonymous":false},{"type":"event","name":"Upgraded","inputs":[{"name":"implementation","type":"address","indexed":true,"internalType":"address"}],"anonymous":false},{"type":"error","name":"NotImplemented","inputs":[]}],"bytecode":{"object":"0x60a0806040523460305730608052610c22908161003582396080518181816102e50152818161040901526106620152f35b5f80fdfe60406080815260049081361015610031575b3615610024575163d623472560e01b8152fd5b5163d623472560e01b8152fd5b5f3560e01c80633659cfe6146106375780634f1ef2861461038c57806352d1902d146102d1578063715018a6146102895780638da5cb5b14610261578063c4d66de8146101155763f2fde38b036100115790346101115760203660031901126101115761009c6107e8565b916100a5610907565b6001600160a01b038316156100bf576100bd8361095f565b005b906020608492519162461bcd60e51b8352820152602660248201527f4f776e61626c653a206e6577206f776e657220697320746865207a65726f206160448201526564647265737360d01b6064820152fd5b5f80fd5b509034610111576020366003190112610111576101306107e8565b5f5460ff8160081c161592838094610254575b801561023d575b156101e3575060ff1981166001175f556101969190836101d1575b5061018860ff5f5460081c1661017a81610994565b61018381610994565b610994565b6101913361095f565b61095f565b61019c57005b60207f7f26b83ff96e1f2b6a682f133852f6798a09c465da95921460cefb38474024989161ff00195f54165f555160018152a1005b61ffff1916610101175f908155610165565b608490602086519162461bcd60e51b8352820152602e60248201527f496e697469616c697a61626c653a20636f6e747261637420697320616c72656160448201526d191e481a5b9a5d1a585b1a5e995960921b6064820152fd5b50303b15801561014a5750600160ff83161461014a565b50600160ff831610610143565b5034610111575f3660031901126101115760975490516001600160a01b039091168152602090f35b34610111575f366003190112610111576102a1610907565b609780546001600160a01b031981169091555f906001600160a01b03165f80516020610bb68339815191528280a3005b509034610111575f366003190112610111577f00000000000000000000000000000000000000000000000000000000000000006001600160a01b0316300361032957602082515f80516020610b968339815191528152f35b6020608492519162461bcd60e51b8352820152603860248201527f555550535570677261646561626c653a206d757374206e6f742062652063616c6044820152771b1959081d1a1c9bdd59da0819195b1959d85d1958d85b1b60421b6064820152fd5b509081600319360112610111576103a16107e8565b602435929091906001600160401b03841161011157366023850112156101115783820135906103cf82610850565b6103db8251918261082d565b82815260209283820196366024838301011161011157815f9260248793018a37830101526001600160a01b037f00000000000000000000000000000000000000000000000000000000000000008116906104373083141561086b565b6104535f80516020610b968339815191529282845416146108b9565b61045b610907565b5f80516020610b568339815191525460ff1615610482575050505050506100bd91506109f4565b869293949596169084516352d1902d60e01b815286818981865afa5f9181610608575b506104f157855162461bcd60e51b8152808901889052602e60248201525f80516020610bf683398151915260448201526d6f6e206973206e6f74205555505360901b6064820152608490fd5b9691929396036105b35750610505826109f4565b5f80516020610bd68339815191525f80a28351158015906105ab575b61052757005b5f806100bd96845196610539886107fe565b602788527f416464726573733a206c6f772d6c6576656c2064656c65676174652063616c6c87890152660819985a5b195960ca1b868901525190845af4913d156105a1573d61059361058a82610850565b9251928361082d565b81525f81943d92013e610a83565b5060609250610a83565b506001610521565b835162461bcd60e51b8152908101859052602960248201527f45524331393637557067726164653a20756e737570706f727465642070726f786044820152681a58589b195555525160ba1b6064820152608490fd5b9091508781813d8311610630575b610620818361082d565b810103126101115751905f6104a5565b503d610616565b5090346101115760209081600319360112610111576106546107e8565b6001600160a01b03939092907f0000000000000000000000000000000000000000000000000000000000000000851661068f3082141561086b565b6106ab5f80516020610b968339815191529187835416146108b9565b6106b3610907565b8151838101969091906001600160401b038811838910176107d5578784525f83525f80516020610b568339815191525460ff16156106fb575050505050506100bd91506109f4565b869293949596169084516352d1902d60e01b815286818981865afa5f91816107a6575b5061076a57855162461bcd60e51b8152808901889052602e60248201525f80516020610bf683398151915260448201526d6f6e206973206e6f74205555505360901b6064820152608490fd5b9691929396036105b3575061077e826109f4565b5f80516020610bd68339815191525f80a283511580159061079f5761052757005b505f610521565b9091508781813d83116107ce575b6107be818361082d565b810103126101115751905f61071e565b503d6107b4565b604186634e487b7160e01b5f525260245ffd5b600435906001600160a01b038216820361011157565b606081019081106001600160401b0382111761081957604052565b634e487b7160e01b5f52604160045260245ffd5b601f909101601f19168101906001600160401b0382119082101761081957604052565b6001600160401b03811161081957601f01601f191660200190565b1561087257565b60405162461bcd60e51b815260206004820152602c60248201525f80516020610b7683398151915260448201526b19195b1959d85d1958d85b1b60a21b6064820152608490fd5b156108c057565b60405162461bcd60e51b815260206004820152602c60248201525f80516020610b7683398151915260448201526b6163746976652070726f787960a01b6064820152608490fd5b6097546001600160a01b0316330361091b57565b606460405162461bcd60e51b815260206004820152602060248201527f4f776e61626c653a2063616c6c6572206973206e6f7420746865206f776e65726044820152fd5b609780546001600160a01b039283166001600160a01b0319821681179092559091165f80516020610bb68339815191525f80a3565b1561099b57565b60405162461bcd60e51b815260206004820152602b60248201527f496e697469616c697a61626c653a20636f6e7472616374206973206e6f74206960448201526a6e697469616c697a696e6760a81b6064820152608490fd5b803b15610a28575f80516020610b9683398151915280546001600160a01b0319166001600160a01b03909216919091179055565b60405162461bcd60e51b815260206004820152602d60248201527f455243313936373a206e657720696d706c656d656e746174696f6e206973206e60448201526c1bdd08184818dbdb9d1c9858dd609a1b6064820152608490fd5b91929015610ae55750815115610a97575090565b3b15610aa05790565b60405162461bcd60e51b815260206004820152601d60248201527f416464726573733a2063616c6c20746f206e6f6e2d636f6e74726163740000006044820152606490fd5b825190915015610af85750805190602001fd5b6040519062461bcd60e51b82528160208060048301528251908160248401525f935b828510610b3c575050604492505f838284010152601f80199101168101030190fd5b8481018201518686016044015293810193859350610b1a56fe4910fdfa16fed3260ed0e7147f7cc6da11a60208b5b9406d12a635614ffd914346756e6374696f6e206d7573742062652063616c6c6564207468726f75676820360894a13ba1a3210667c828492db98dca3e2076cc3735a920a3ca505d382bbc8be0079c531659141344cd1fd0a4f28419497f9722a3daafe3b4186f6b6457e0bc7cd75a20ee27fd9adebab32041f755214dbc6bffa90cc0225b39da2e5c2d3b45524331393637557067726164653a206e657720696d706c656d656e74617469a164736f6c6343000819000a","linkReferences":{}},"methodIdentifiers":{"initialize(address)":"c4d66de8","owner()":"8da5cb5b","proxiableUUID()":"52d1902d","renounceOwnership()":"715018a6","transferOwnership(address)":"f2fde38b","upgradeTo(address)":"3659cfe6","upgradeToAndCall(address,bytes)":"4f1ef286"},"id":141}