{"abi":[{"type":"constructor","inputs":[{"name":"_entryPoint","type":"address","internalType":"contract IEntryPoint"},{"name":"_ensRegistrar","type":"address","internalType":"address"}],"stateMutability":"nonpayable"},{"type":"receive","stateMutability":"payable"},{"type":"function","name":"ENS_REGISTRAR","inputs":[],"outputs":[{"name":"","type":"address","internalType":"address"}],"stateMutability":"view"},{"type":"function","name":"claimENSName","inputs":[{"name":"_ensName","type":"string","internalType":"string"},{"name":"_credentialId","type":"bytes32","internalType":"bytes32"}],"outputs":[],"stateMutability":"nonpayable"},{"type":"function","name":"claimedAt","inputs":[],"outputs":[{"name":"","type":"uint256","internalType":"uint256"}],"stateMutability":"view"},{"type":"function","name":"eip712Domain","inputs":[],"outputs":[{"name":"fields","type":"bytes1","internalType":"bytes1"},{"name":"name","type":"string","internalType":"string"},{"name":"version","type":"string","internalType":"string"},{"name":"chainId","type":"uint256","internalType":"uint256"},{"name":"verifyingContract","type":"address","internalType":"address"},{"name":"salt","type":"bytes32","internalType":"bytes32"},{"name":"extensions","type":"uint256[]","internalType":"uint256[]"}],"stateMutability":"view"},{"type":"function","name":"ensName","inputs":[],"outputs":[{"name":"","type":"string","internalType":"string"}],"stateMutability":"view"},{"type":"function","name":"entryPoint","inputs":[],"outputs":[{"name":"","type":"address","internalType":"contract IEntryPoint"}],"stateMutability":"view"},{"type":"function","name":"executeAndRevert","inputs":[{"name":"to","type":"address","internalType":"address"},{"name":"value","type":"uint256","internalType":"uint256"},{"name":"data","type":"bytes","internalType":"bytes"},{"name":"operation","type":"uint8","internalType":"enum Operation"}],"outputs":[],"stateMutability":"nonpayable"},{"type":"function","name":"getNonce","inputs":[{"name":"key","type":"uint192","internalType":"uint192"}],"outputs":[{"name":"","type":"uint256","internalType":"uint256"}],"stateMutability":"view"},{"type":"function","name":"getNonce","inputs":[],"outputs":[{"name":"","type":"uint256","internalType":"uint256"}],"stateMutability":"view"},{"type":"function","name":"getOwner","inputs":[],"outputs":[{"name":"","type":"address","internalType":"address"}],"stateMutability":"view"},{"type":"function","name":"getRecoveryData","inputs":[],"outputs":[{"name":"_ensName","type":"string","internalType":"string"},{"name":"_credentialId","type":"bytes32","internalType":"bytes32"},{"name":"_owner","type":"address","internalType":"address"}],"stateMutability":"view"},{"type":"function","name":"initialize","inputs":[{"name":"_owner","type":"address","internalType":"address"}],"outputs":[],"stateMutability":"nonpayable"},{"type":"function","name":"initializeGardener","inputs":[],"outputs":[],"stateMutability":"nonpayable"},{"type":"function","name":"isValidSignature","inputs":[{"name":"_hash","type":"bytes32","internalType":"bytes32"},{"name":"_signature","type":"bytes","internalType":"bytes"}],"outputs":[{"name":"","type":"bytes4","internalType":"bytes4"}],"stateMutability":"view"},{"type":"function","name":"name","inputs":[],"outputs":[{"name":"","type":"string","internalType":"string"}],"stateMutability":"view"},{"type":"function","name":"onERC1155BatchReceived","inputs":[{"name":"","type":"address","internalType":"address"},{"name":"","type":"address","internalType":"address"},{"name":"","type":"uint256[]","internalType":"uint256[]"},{"name":"","type":"uint256[]","internalType":"uint256[]"},{"name":"","type":"bytes","internalType":"bytes"}],"outputs":[{"name":"","type":"bytes4","internalType":"bytes4"}],"stateMutability":"pure"},{"type":"function","name":"onERC1155Received","inputs":[{"name":"","type":"address","internalType":"address"},{"name":"","type":"address","internalType":"address"},{"name":"","type":"uint256","internalType":"uint256"},{"name":"","type":"uint256","internalType":"uint256"},{"name":"","type":"bytes","internalType":"bytes"}],"outputs":[{"name":"","type":"bytes4","internalType":"bytes4"}],"stateMutability":"pure"},{"type":"function","name":"onERC721Received","inputs":[{"name":"","type":"address","internalType":"address"},{"name":"","type":"address","internalType":"address"},{"name":"","type":"uint256","internalType":"uint256"},{"name":"","type":"bytes","internalType":"bytes"}],"outputs":[{"name":"","type":"bytes4","internalType":"bytes4"}],"stateMutability":"pure"},{"type":"function","name":"owner","inputs":[],"outputs":[{"name":"","type":"address","internalType":"address"}],"stateMutability":"view"},{"type":"function","name":"passkeyCredentialId","inputs":[],"outputs":[{"name":"","type":"bytes32","internalType":"bytes32"}],"stateMutability":"view"},{"type":"function","name":"queryPlugin","inputs":[{"name":"_plugin","type":"address","internalType":"address"},{"name":"_data","type":"bytes","internalType":"bytes"}],"outputs":[],"stateMutability":"nonpayable"},{"type":"function","name":"supportsInterface","inputs":[{"name":"interfaceId","type":"bytes4","internalType":"bytes4"}],"outputs":[{"name":"","type":"bool","internalType":"bool"}],"stateMutability":"view"},{"type":"function","name":"transferOwnership","inputs":[{"name":"_newOwner","type":"address","internalType":"address"}],"outputs":[],"stateMutability":"nonpayable"},{"type":"function","name":"upgradeTo","inputs":[{"name":"_newImplementation","type":"address","internalType":"address"}],"outputs":[],"stateMutability":"nonpayable"},{"type":"function","name":"validateUserOp","inputs":[{"name":"userOp","type":"tuple","internalType":"struct UserOperation","components":[{"name":"sender","type":"address","internalType":"address"},{"name":"nonce","type":"uint256","internalType":"uint256"},{"name":"initCode","type":"bytes","internalType":"bytes"},{"name":"callData","type":"bytes","internalType":"bytes"},{"name":"callGasLimit","type":"uint256","internalType":"uint256"},{"name":"verificationGasLimit","type":"uint256","internalType":"uint256"},{"name":"preVerificationGas","type":"uint256","internalType":"uint256"},{"name":"maxFeePerGas","type":"uint256","internalType":"uint256"},{"name":"maxPriorityFeePerGas","type":"uint256","internalType":"uint256"},{"name":"paymasterAndData","type":"bytes","internalType":"bytes"},{"name":"signature","type":"bytes","internalType":"bytes"}]},{"name":"userOpHash","type":"bytes32","internalType":"bytes32"},{"name":"missingAccountFunds","type":"uint256","internalType":"uint256"}],"outputs":[{"name":"validationData","type":"uint256","internalType":"uint256"}],"stateMutability":"nonpayable"},{"type":"function","name":"verifyCredentialId","inputs":[{"name":"_credentialId","type":"bytes32","internalType":"bytes32"}],"outputs":[{"name":"","type":"bool","internalType":"bool"}],"stateMutability":"view"},{"type":"function","name":"version","inputs":[],"outputs":[{"name":"","type":"string","internalType":"string"}],"stateMutability":"view"},{"type":"event","name":"AccountDeployed","inputs":[{"name":"account","type":"address","indexed":true,"internalType":"address"},{"name":"owner","type":"address","indexed":true,"internalType":"address"},{"name":"timestamp","type":"uint256","indexed":false,"internalType":"uint256"}],"anonymous":false},{"type":"event","name":"EIP712DomainChanged","inputs":[],"anonymous":false},{"type":"event","name":"ENSClaimed","inputs":[{"name":"account","type":"address","indexed":true,"internalType":"address"},{"name":"ensName","type":"string","indexed":true,"internalType":"string"},{"name":"credentialId","type":"bytes32","indexed":true,"internalType":"bytes32"},{"name":"timestamp","type":"uint256","indexed":false,"internalType":"uint256"}],"anonymous":false},{"type":"event","name":"ENSUpdated","inputs":[{"name":"account","type":"address","indexed":true,"internalType":"address"},{"name":"oldName","type":"string","indexed":false,"internalType":"string"},{"name":"newName","type":"string","indexed":false,"internalType":"string"},{"name":"timestamp","type":"uint256","indexed":false,"internalType":"uint256"}],"anonymous":false},{"type":"event","name":"Upgraded","inputs":[{"name":"newImplementation","type":"address","indexed":true,"internalType":"address"}],"anonymous":false},{"type":"error","name":"AlreadyClaimed","inputs":[]},{"type":"error","name":"AlreadyInitialized","inputs":[]},{"type":"error","name":"ENSNotSupportedOnChain","inputs":[]},{"type":"error","name":"InvalidCredentialId","inputs":[]},{"type":"error","name":"InvalidENSName","inputs":[]},{"type":"error","name":"InvalidNonce","inputs":[]},{"type":"error","name":"InvalidShortString","inputs":[]},{"type":"error","name":"InvalidSignatureLength","inputs":[]},{"type":"error","name":"NameNotAvailable","inputs":[]},{"type":"error","name":"NotAuthorized","inputs":[]},{"type":"error","name":"NotInitialized","inputs":[]},{"type":"error","name":"QueryResult","inputs":[{"name":"result","type":"bytes","internalType":"bytes"}]},{"type":"error","name":"StringTooLong","inputs":[{"name":"str","type":"string","internalType":"string"}]}],"bytecode":{"object":"0x6101a03461020e5761293c906001600160401b0390601f38849003908101601f1916820190838211838310176101fa578083916040968794855283398101031261020e5780516001600160a01b0391828216820361020e5760200151918216820361020e57835161006f81610212565b60068152602081016512d95c9b995b60d21b8152855161008e81610212565b600581526020810164302e302e3160d81b81526100aa8461022d565b926101209384526100ba836103e3565b94610140958652519020918260e052519020610100978189524660a05280519160208301937f8b73c3c69bb8fe3d512ecc4cf759cc79239f7b179b0ffacaa9a75d522b39400f85528284015260608301524660808301523060a083015260a0825260c0820197828910908911176101fa578790525190206080523060c0526101609283527f439ffe7df606b78489639bc0b827913bd09e1246fa6802968a5b3694c53e0dd880546001600160a01b03191660011790556101809384526123c5958661057787396080518661223c015260a051866122f7015260c0518661220d015260e0518661228b015251856122b1015251846108710152518361089a0152518281816105ed0152818161074101528181610b1d01528181610bf601528181610dc8015281816112b601526116e60152518181816107d80152610e890152f35b634e487b7160e01b5f52604160045260245ffd5b5f80fd5b604081019081106001600160401b038211176101fa57604052565b8051602090818110156102c25750601f825111610265578082519201519080831061025757501790565b825f19910360031b1b161790565b90604051809263305a27a960e01b82528060048301528251908160248401525f935b8285106102a9575050604492505f838284010152601f80199101168101030190fd5b8481018201518686016044015293810193859350610287565b906001600160401b0382116101fa575f54926001938481811c911680156103d9575b838210146103c557601f8111610392575b5081601f841160011461033057509282939183925f94610325575b50501b915f199060031b1c1916175f5560ff90565b015192505f80610310565b919083601f1981165f8052845f20945f905b888383106103785750505010610360575b505050811b015f5560ff90565b01515f1960f88460031b161c191690555f8080610353565b858701518855909601959485019487935090810190610342565b5f805284601f845f20920160051c820191601f860160051c015b8281106103ba5750506102f5565b5f81550185906103ac565b634e487b7160e01b5f52602260045260245ffd5b90607f16906102e4565b80516020908181101561046a5750601f82511161040d578082519201519080831061025757501790565b90604051809263305a27a960e01b82528060048301528251908160248401525f935b828510610451575050604492505f838284010152601f80199101168101030190fd5b848101820151868601604401529381019385935061042f565b9192916001600160401b0381116101fa5760019182548381811c9116801561056c575b828210146103c557601f8111610539575b5080601f83116001146104d95750819293945f926104ce575b50505f19600383901b1c191690821b17905560ff90565b015190505f806104b7565b90601f19831695845f52825f20925f905b888210610522575050838596971061050a575b505050811b01905560ff90565b01515f1960f88460031b161c191690555f80806104fd565b8087859682949686015181550195019301906104ea565b835f5283601f835f20920160051c820191601f850160051c015b82811061056157505061049e565b5f8155018490610553565b90607f169061048d56fe6080604052600436101561001a575b3615610018575f80fd5b005b5f3560e01c806301ffc9a7146101c457806306fdde03146101bf5780630879c004146101ba578063150b7a02146101b557806315fc94e6146101b05780631626ba7e146101ab5780633659cfe6146101a65780633a871cdd146101a15780633e1b08121461019c5780634217eb161461019757806354fd4d501461019257806384b0196e1461018d578063893d20e8146101885780638da5cb5b146101885780638ef71b8d14610183578063940d3c601461017e578063ab188d4914610179578063b0d691fe14610174578063bc197c811461016f578063c4d66de81461016a578063d087d28814610165578063d2217fac14610160578063ddc9d9e31461015b578063e799be2014610156578063f23a6e6114610151578063f2fde38b1461014c5763f333df550361000e57611341565b611292565b611223565b611165565b610e28565b610e0b565b610d8f565b610cf0565b610c4b565b610bd7565b610bba565b610ac4565b610a86565b61096b565b610859565b6107fc565b6107b9565b6106e2565b610692565b6105c8565b610560565b6104a2565b610433565b6103a3565b610342565b3461022f57602036600319011261022f576004357fffffffff00000000000000000000000000000000000000000000000000000000811680910361022f576020907f01ffc9a70000000000000000000000000000000000000000000000000000000060405191148152f35b5f80fd5b5f91031261022f57565b634e487b7160e01b5f52604160045260245ffd5b67ffffffffffffffff811161026557604052565b61023d565b6040810190811067ffffffffffffffff82111761026557604052565b6020810190811067ffffffffffffffff82111761026557604052565b60c0810190811067ffffffffffffffff82111761026557604052565b90601f8019910116810190811067ffffffffffffffff82111761026557604052565b67ffffffffffffffff811161026557601f01601f191660200190565b5f5b83811061030d5750505f910152565b81810151838201526020016102fe565b90602091610336815180928185528580860191016102fc565b601f01601f1916010190565b3461022f575f36600319011261022f5761039f6040516103618161026a565b600681527f4b65726e656c0000000000000000000000000000000000000000000000000000602082015260405191829160208352602083019061031d565b0390f35b3461022f57602036600319011261022f57602060043560035414604051908152f35b600435906001600160a01b038216820361022f57565b602435906001600160a01b038216820361022f57565b35906001600160a01b038216820361022f57565b9181601f8401121561022f5782359167ffffffffffffffff831161022f576020838186019501011161022f57565b3461022f57608036600319011261022f5761044c6103c5565b506104556103db565b5060643567ffffffffffffffff811161022f57610476903690600401610405565b505060206040517f150b7a02000000000000000000000000000000000000000000000000000000008152f35b3461022f575f36600319011261022f576104fd6003546001600160a01b035f80516020612399833981519152541690604051916104e9836104e2816109d5565b03846102be565b60405193849360608552606085019061031d565b91602084015260408301520390f35b929192610518826102e0565b9161052660405193846102be565b82948184528183011161022f578281602093845f960137010152565b9080601f8301121561022f5781602061055d9335910161050c565b90565b3461022f57604036600319011261022f5760243567ffffffffffffffff811161022f5761059e6105966020923690600401610542565b6004356113d0565b7fffffffff0000000000000000000000000000000000000000000000000000000060405191168152f35b3461022f57602036600319011261022f576105e16103c5565b6001600160a01b0390817f00000000000000000000000000000000000000000000000000000000000000001633148015610679575b8015610670575b6106269061148a565b807f360894a13ba1a3210667c828492db98dca3e2076cc3735a920a3ca505d382bbc55167fbc7cd75a20ee27fd9adebab32041f755214dbc6bffa90cc0225b39da2e5c2d3b5f80a2005b5033301461061d565b50815f8051602061239983398151915254163314610616565b3461022f5760031960603682011261022f576004359067ffffffffffffffff821161022f5761016090823603011261022f576106da60209160443590602435906004016116d6565b604051908152f35b3461022f57602036600319011261022f5760043577ffffffffffffffffffffffffffffffffffffffffffffffff811680910361022f5760405190631aab3f0d60e11b825230600483015260248201526020816044816001600160a01b037f0000000000000000000000000000000000000000000000000000000000000000165afa80156107b45761039f915f91610785575b506040519081529081906020820190565b6107a7915060203d6020116107ad575b61079f81836102be565b810190611961565b5f610774565b503d610795565b611970565b3461022f575f36600319011261022f5760206040516001600160a01b037f0000000000000000000000000000000000000000000000000000000000000000168152f35b3461022f575f36600319011261022f5761039f60405161081b8161026a565b600581527f302e302e31000000000000000000000000000000000000000000000000000000602082015260405191829160208352602083019061031d565b3461022f575f36600319011261022f5761090e6108957f0000000000000000000000000000000000000000000000000000000000000000611e65565b6108be7f0000000000000000000000000000000000000000000000000000000000000000611f7a565b604051906108cb82610286565b5f825261091c6020916040519586957f0f00000000000000000000000000000000000000000000000000000000000000875260e0602088015260e087019061031d565b90858203604087015261031d565b4660608501523060808501525f60a085015283810360c0850152602080845192838152019301915f5b82811061095457505050500390f35b835185528695509381019392810192600101610945565b3461022f575f36600319011261022f5760206001600160a01b035f805160206123998339815191525416604051908152f35b90600182811c921680156109cb575b60208310146109b757565b634e487b7160e01b5f52602260045260245ffd5b91607f16916109ac565b6002545f92916109e48261099d565b80825291602090600190818116908115610a615750600114610a07575b50505050565b9293945060025f527f405787fa12a823e0f2b7631cc41b3ba8828b3321ca811111fa75cd3aa3bb5ace925f935b858510610a4e57505050602092500101905f808080610a01565b8054858501840152938201938101610a34565b92505050602093945060ff929192191683830152151560051b0101905f808080610a01565b3461022f575f36600319011261022f5761039f604051610ab081610aa9816109d5565b03826102be565b60405191829160208352602083019061031d565b3461022f57608036600319011261022f57610add6103c5565b60443567ffffffffffffffff811161022f57610afd903690600401610405565b606492919235600281101561022f57600190610b4d6001600160a01b03807f0000000000000000000000000000000000000000000000000000000000000000163314908115610ba0575b5061197b565b610b5681611a00565b03610b8157610b7092610b6a91369161050c565b90612061565b905b15610b7957005b602081519101fd5b610b9a92610b9091369161050c565b9060243590612038565b90610b72565b90505f80516020612399833981519152541633145f610b47565b3461022f575f36600319011261022f576020600354604051908152f35b3461022f575f36600319011261022f5760206040516001600160a01b037f0000000000000000000000000000000000000000000000000000000000000000168152f35b9181601f8401121561022f5782359167ffffffffffffffff831161022f576020808501948460051b01011161022f57565b3461022f5760a036600319011261022f57610c646103c5565b50610c6d6103db565b5067ffffffffffffffff60443581811161022f57610c8f903690600401610c1a565b505060643581811161022f57610ca9903690600401610c1a565b505060843590811161022f57610cc3903690600401610405565b50506040517fbc197c81000000000000000000000000000000000000000000000000000000008152602090f35b3461022f57602036600319011261022f57610d096103c5565b5f80516020612399833981519152908154906001600160a01b03808316610d4b5773ffffffffffffffffffffffffffffffffffffffff19911691161790555f80f35b606460405162461bcd60e51b815260206004820152601c60248201527f6163636f756e743a20616c726561647920696e697469616c697a6564000000006044820152fd5b3461022f575f36600319011261022f57604051631aab3f0d60e11b81523060048201525f60248201526020816044816001600160a01b037f0000000000000000000000000000000000000000000000000000000000000000165afa80156107b45761039f915f9161078557506040519081529081906020820190565b3461022f575f36600319011261022f576020600454604051908152f35b3461022f5760408060031936011261022f57600490813567ffffffffffffffff811161022f57610e5b9036908401610405565b9290602435936001600160a01b03805f8051602061239983398151915254163314158061115b575b611133577f000000000000000000000000000000000000000000000000000000000000000016801561110b57610eba60025461099d565b6110e357811580156110d9575b6110b15785156110895784517faeb8ce9b00000000000000000000000000000000000000000000000000000000815260208180610f0786888a8401611a2f565b0381855afa9081156107b4575f9161105a575b501561103257803b1561022f57610f655f9491859287519687809481937f1e59c529000000000000000000000000000000000000000000000000000000008352888a30928501611a40565b03925af19081156107b457610fea93610fca92611019575b50610fbc610f9386519485936020850191611a68565b7f2e677265656e676f6f64732e65746800000000000000000000000000000000008152600f0190565b03601f1981018352826102be565b610fd381611ae2565b610fdc84600355565b610fe542600455565b611bce565b905142815230907f732cf2248174e01dd627ae73fa02d3e4feeacb5bd2ccfed661d7f657f47302cf90602090a4005b8061102661102c92610251565b80610233565b5f610f7d565b8385517fa18ea0b6000000000000000000000000000000000000000000000000000000008152fd5b61107c915060203d602011611082575b61107481836102be565b81019061168f565b5f610f1a565b503d61106a565b8385517fe5aaacea000000000000000000000000000000000000000000000000000000008152fd5b8385517fd572cd8d000000000000000000000000000000000000000000000000000000008152fd5b5060328211610ec7565b8385517f646cf558000000000000000000000000000000000000000000000000000000008152fd5b8385517f705febc4000000000000000000000000000000000000000000000000000000008152fd5b8385517fea8e4eb5000000000000000000000000000000000000000000000000000000008152fd5b5030331415610e83565b3461022f575f36600319011261022f576001600160a01b035f80516020612399833981519152541680156111f9576004546111cf57600160045560405142815230907fa453f15f0d1f2600dfc00a82bd6c2b5feddb3aad5b2e016c83a2fa2a224088ad90602090a3005b60046040517f0dc149f0000000000000000000000000000000000000000000000000000000008152fd5b60046040517f87138d5c000000000000000000000000000000000000000000000000000000008152fd5b3461022f5760a036600319011261022f5761123c6103c5565b506112456103db565b5060843567ffffffffffffffff811161022f57611266903690600401610405565b505060206040517ff23a6e61000000000000000000000000000000000000000000000000000000008152f35b3461022f57602036600319011261022f576112ab6103c5565b6001600160a01b03807f00000000000000000000000000000000000000000000000000000000000000001633148015611328575b801561131f575b6112ef9061148a565b5f80516020612399833981519152911673ffffffffffffffffffffffffffffffffffffffff198254161790555f80f35b503330146112e6565b50805f80516020612399833981519152541633146112df565b3461022f57604036600319011261022f5761135a6103c5565b6024359067ffffffffffffffff821161022f57610b6a611381611388933690600401610405565b369161050c565b9015610b79576113cc906040519182917fa52b216900000000000000000000000000000000000000000000000000000000835260206004840152602483019061031d565b0390fd5b906001600160a01b0390815f80516020612399833981519152541692826114026113fa8484612089565b9190916120c8565b16841461147b57611446916114416113fa927f19457468657265756d205369676e6564204d6573736167653a0a3332000000005f52601c52603c5f2090565b612089565b160361145757630b135d3f60e11b90565b7fffffffff0000000000000000000000000000000000000000000000000000000090565b50505050630b135d3f60e11b90565b1561149157565b608460405162461bcd60e51b815260206004820152602d60248201527f6163636f756e743a206e6f742066726f6d20656e747279706f696e74206f722060448201527f6f776e6572206f722073656c66000000000000000000000000000000000000006064820152fd5b1561150257565b606460405162461bcd60e51b815260206004820152601c60248201527f6163636f756e743a206e6f742066726f6d20656e747279506f696e74000000006044820152fd5b903590601e198136030182121561022f570180359067ffffffffffffffff821161022f5760200191813603831361022f57565b9060141161022f5790601490565b90601a1161022f5760140190600690565b9060201161022f57601a0190600690565b9060611161022f5760200190604190565b909291928360611161022f57831161022f57606101916060190190565b6bffffffffffffffffffffffff1990358181169392601481106115f957505050565b60140360031b82901b16169150565b7fffffffffffff0000000000000000000000000000000000000000000000000000903581811693926006811061163d57505050565b60060360031b82901b16169150565b91909160408184031261022f5767ffffffffffffffff92813584811161022f5781611678918401610542565b93602083013590811161022f5761055d9201610542565b9081602091031261022f5751801515810361022f5790565b3d156116d1573d906116b8826102e0565b916116c660405193846102be565b82523d5f602084013e565b606090565b906001600160a01b039161170d837f00000000000000000000000000000000000000000000000000000000000000001633146114fb565b6101408101604161171e8284611546565b9050145f1461175257506117329250611dbc565b905b8061173d575090565b5f80808093335af15061174e6116a7565b5090565b91606161175f8484611546565b9050115f14611937576117728383611546565b61177b91611579565b611784916115d7565b60601c916117928482611546565b61179b91611587565b6117a491611608565b60d01c946117b28583611546565b6117bb91611598565b6117c491611608565b60d01c946117d28184611546565b6117db916115a9565b36906117e69261050c565b906117f19084611546565b806117fb926115ba565b81016118069161164c565b508051602091820120604080517f4584533bad8bbd8aa77024a548a56acb8d2807847381ce1b3364745ca396b2e39381019384526001600160a01b0389169181019190915265ffffffffffff8a811660608301528916608082015260a08082019290925290815261187860c0826102be565b51902061188490611bfb565b9061188e91611bee565b5f8051602061239983398151915254821691160361192c57856118c7926118b8926118cb95611c6e565b6020808251830101910161168f565b1590565b6119245761191e91907fffffffffffff000000000000000000000000000000000000000000000000000079ffffffffffff00000000000000000000000000000000000000009160d01b169160a01b161790565b90611734565b505050600190565b505050505050600190565b60046040517f4be6321b000000000000000000000000000000000000000000000000000000008152fd5b9081602091031261022f575190565b6040513d5f823e3d90fd5b1561198257565b608460405162461bcd60e51b815260206004820152602560248201527f6163636f756e743a206e6f742066726f6d20656e747279706f696e74206f722060448201527f6f776e65720000000000000000000000000000000000000000000000000000006064820152fd5b634e487b7160e01b5f52602160045260245ffd5b60021115611a0a57565b6119ec565b908060209392818452848401375f828201840152601f01601f1916010190565b91602061055d938181520191611a0f565b91611a616020926001600160a01b0392969596604086526040860191611a0f565b9416910152565b908092918237015f815290565b601f8111611a81575050565b60025f527f405787fa12a823e0f2b7631cc41b3ba8828b3321ca811111fa75cd3aa3bb5ace906020601f840160051c83019310611ad8575b601f0160051c01905b818110611acd575050565b5f8155600101611ac2565b9091508190611ab9565b90815167ffffffffffffffff811161026557611b0881611b0360025461099d565b611a75565b602080601f8311600114611b4957508190611b3993945f92611b3e575b50508160011b915f199060031b1c19161790565b600255565b015190505f80611b25565b90601f19831694611b7b60025f527f405787fa12a823e0f2b7631cc41b3ba8828b3321ca811111fa75cd3aa3bb5ace90565b925f905b878210611bb6575050836001959610611b9e575b505050811b01600255565b01515f1960f88460031b161c191690555f8080611b93565b80600185968294968601518155019501930190611b7f565b611be6906020604051928284809451938492016102fc565b810103902090565b61055d916113fa91612089565b604290611c06612203565b90604051917f19010000000000000000000000000000000000000000000000000000000000008352600283015260228201522090565b9035601e198236030181121561022f57016020813591019167ffffffffffffffff821161022f57813603831361022f57565b90611dae90611d9593611db3956040519586937f9e2045ce00000000000000000000000000000000000000000000000000000000602086015260606024860152611ccb60848601611cbe836103f1565b6001600160a01b03169052565b602081013560a4860152611cf8611ce56040830183611c3c565b61016060c48901526101e4880191611a0f565b611d85611d79611d22611d0e6060860186611c3c565b6083198b8703810160e48d01529591611a0f565b60808501356101048a015260a08501356101248a015260c08501356101448a015260e08501356101648a01526101008501356101848a0152611d68610120860186611c3c565b90858b8403016101a48c0152611a0f565b92610140810190611c3c565b91878403016101c4880152611a0f565b916044840152606483015203601f1981018452836102be565b612061565b9015610b795790565b91905f926001600160a01b0390815f8051602061239983398151915254169261014082019083611dfb6113fa611df56113818688611546565b84612089565b168514611e5b5791611e476113816113fa93611e41611e4d967f19457468657265756d205369676e6564204d6573736167653a0a3332000000005f52601c52603c5f2090565b93611546565b90612089565b1603611e5557565b60019150565b505f955050505050565b60ff8114611ebb5760ff811690601f8211611e915760405191611e878361026a565b8252602082015290565b60046040517fb3512b0c000000000000000000000000000000000000000000000000000000008152fd5b506040515f815f5491611ecd8361099d565b80835292602090600190818116908115611f565750600114611ef8575b505061055d925003826102be565b9150925f80527f290decd9548b62a8d60345a988386fc84ba6bc95484008f6362f93160ef3e563935f925b828410611f3e575061055d9450505081016020015f80611eea565b85548785018301529485019486945092810192611f23565b9150506020925061055d94915060ff191682840152151560051b8201015f80611eea565b60ff8114611f9c5760ff811690601f8211611e915760405191611e878361026a565b506040515f81600191600154611fb18161099d565b8084529360209160018116908115611f565750600114611fd957505061055d925003826102be565b91509260015f527fb10e2d527612073b26eecdfd717e6a320cf44b4afac2b0732d9fcbe2b7fa0cf6935f925b828410612020575061055d9450505081016020015f80611eea565b85548785018301529485019486945092810192612005565b915f928392602083519301915af1903d604051906020818301016040528082525f602083013e90565b5f918291602082519201905af4903d604051906020818301016040528082525f602083013e90565b9060418151145f146120b5576120b191602082015190606060408401519301515f1a9061231d565b9091565b50505f90600290565b60051115611a0a57565b6120d1816120be565b806120d95750565b6120e2816120be565b6001810361212f5760405162461bcd60e51b815260206004820152601860248201527f45434453413a20696e76616c6964207369676e617475726500000000000000006044820152606490fd5b612138816120be565b600281036121855760405162461bcd60e51b815260206004820152601f60248201527f45434453413a20696e76616c6964207369676e6174757265206c656e677468006044820152606490fd5b806121916003926120be565b1461219857565b60405162461bcd60e51b815260206004820152602260248201527f45434453413a20696e76616c6964207369676e6174757265202773272076616c60448201527f75650000000000000000000000000000000000000000000000000000000000006064820152608490fd5b6001600160a01b037f0000000000000000000000000000000000000000000000000000000000000000163014806122f4575b1561225e577f000000000000000000000000000000000000000000000000000000000000000090565b60405160208101907f8b73c3c69bb8fe3d512ecc4cf759cc79239f7b179b0ffacaa9a75d522b39400f82527f000000000000000000000000000000000000000000000000000000000000000060408201527f000000000000000000000000000000000000000000000000000000000000000060608201524660808201523060a082015260a081526122ee816102a2565b51902090565b507f00000000000000000000000000000000000000000000000000000000000000004614612235565b7f7fffffffffffffffffffffffffffffff5d576e7357a4501ddfe92f46681b20a0841161238d576020935f9360ff60809460405194855216868401526040830152606082015282805260015afa156107b4575f516001600160a01b0381161561238557905f90565b505f90600190565b505050505f9060039056fe439ffe7df606b78489639bc0b827913bd09e1246fa6802968a5b3694c53e0dd8a164736f6c6343000819000a","linkReferences":{}},"methodIdentifiers":{"ENS_REGISTRAR()":"4217eb16","claimENSName(string,bytes32)":"ddc9d9e3","claimedAt()":"d2217fac","eip712Domain()":"84b0196e","ensName()":"8ef71b8d","entryPoint()":"b0d691fe","executeAndRevert(address,uint256,bytes,uint8)":"940d3c60","getNonce()":"d087d288","getNonce(uint192)":"3e1b0812","getOwner()":"893d20e8","getRecoveryData()":"15fc94e6","initialize(address)":"c4d66de8","initializeGardener()":"e799be20","isValidSignature(bytes32,bytes)":"1626ba7e","name()":"06fdde03","onERC1155BatchReceived(address,address,uint256[],uint256[],bytes)":"bc197c81","onERC1155Received(address,address,uint256,uint256,bytes)":"f23a6e61","onERC721Received(address,address,uint256,bytes)":"150b7a02","owner()":"8da5cb5b","passkeyCredentialId()":"ab188d49","queryPlugin(address,bytes)":"f333df55","supportsInterface(bytes4)":"01ffc9a7","transferOwnership(address)":"f2fde38b","upgradeTo(address)":"3659cfe6","validateUserOp((address,uint256,bytes,bytes,uint256,uint256,uint256,uint256,uint256,bytes,bytes),bytes32,uint256)":"3a871cdd","verifyCredentialId(bytes32)":"0879c004","version()":"54fd4d50"},"id":124}