{"abi":[{"type":"constructor","inputs":[{"name":"_entryPoint","type":"address","internalType":"contract IEntryPoint"}],"stateMutability":"nonpayable"},{"type":"receive","stateMutability":"payable"},{"type":"function","name":"deployedAt","inputs":[],"outputs":[{"name":"","type":"uint256","internalType":"uint256"}],"stateMutability":"view"},{"type":"function","name":"eip712Domain","inputs":[],"outputs":[{"name":"fields","type":"bytes1","internalType":"bytes1"},{"name":"name","type":"string","internalType":"string"},{"name":"version","type":"string","internalType":"string"},{"name":"chainId","type":"uint256","internalType":"uint256"},{"name":"verifyingContract","type":"address","internalType":"address"},{"name":"salt","type":"bytes32","internalType":"bytes32"},{"name":"extensions","type":"uint256[]","internalType":"uint256[]"}],"stateMutability":"view"},{"type":"function","name":"entryPoint","inputs":[],"outputs":[{"name":"","type":"address","internalType":"contract IEntryPoint"}],"stateMutability":"view"},{"type":"function","name":"executeAndRevert","inputs":[{"name":"to","type":"address","internalType":"address"},{"name":"value","type":"uint256","internalType":"uint256"},{"name":"data","type":"bytes","internalType":"bytes"},{"name":"operation","type":"uint8","internalType":"enum Operation"}],"outputs":[],"stateMutability":"nonpayable"},{"type":"function","name":"getNonce","inputs":[{"name":"key","type":"uint192","internalType":"uint192"}],"outputs":[{"name":"","type":"uint256","internalType":"uint256"}],"stateMutability":"view"},{"type":"function","name":"getNonce","inputs":[],"outputs":[{"name":"","type":"uint256","internalType":"uint256"}],"stateMutability":"view"},{"type":"function","name":"getOwner","inputs":[],"outputs":[{"name":"","type":"address","internalType":"address"}],"stateMutability":"view"},{"type":"function","name":"initialize","inputs":[{"name":"_owner","type":"address","internalType":"address"}],"outputs":[],"stateMutability":"nonpayable"},{"type":"function","name":"initializeGardener","inputs":[],"outputs":[],"stateMutability":"nonpayable"},{"type":"function","name":"isValidSignature","inputs":[{"name":"_hash","type":"bytes32","internalType":"bytes32"},{"name":"_signature","type":"bytes","internalType":"bytes"}],"outputs":[{"name":"","type":"bytes4","internalType":"bytes4"}],"stateMutability":"view"},{"type":"function","name":"name","inputs":[],"outputs":[{"name":"","type":"string","internalType":"string"}],"stateMutability":"view"},{"type":"function","name":"onERC1155BatchReceived","inputs":[{"name":"","type":"address","internalType":"address"},{"name":"","type":"address","internalType":"address"},{"name":"","type":"uint256[]","internalType":"uint256[]"},{"name":"","type":"uint256[]","internalType":"uint256[]"},{"name":"","type":"bytes","internalType":"bytes"}],"outputs":[{"name":"","type":"bytes4","internalType":"bytes4"}],"stateMutability":"pure"},{"type":"function","name":"onERC1155Received","inputs":[{"name":"","type":"address","internalType":"address"},{"name":"","type":"address","internalType":"address"},{"name":"","type":"uint256","internalType":"uint256"},{"name":"","type":"uint256","internalType":"uint256"},{"name":"","type":"bytes","internalType":"bytes"}],"outputs":[{"name":"","type":"bytes4","internalType":"bytes4"}],"stateMutability":"pure"},{"type":"function","name":"onERC721Received","inputs":[{"name":"","type":"address","internalType":"address"},{"name":"","type":"address","internalType":"address"},{"name":"","type":"uint256","internalType":"uint256"},{"name":"","type":"bytes","internalType":"bytes"}],"outputs":[{"name":"","type":"bytes4","internalType":"bytes4"}],"stateMutability":"pure"},{"type":"function","name":"owner","inputs":[],"outputs":[{"name":"","type":"address","internalType":"address"}],"stateMutability":"view"},{"type":"function","name":"queryPlugin","inputs":[{"name":"_plugin","type":"address","internalType":"address"},{"name":"_data","type":"bytes","internalType":"bytes"}],"outputs":[],"stateMutability":"nonpayable"},{"type":"function","name":"supportsInterface","inputs":[{"name":"interfaceId","type":"bytes4","internalType":"bytes4"}],"outputs":[{"name":"","type":"bool","internalType":"bool"}],"stateMutability":"view"},{"type":"function","name":"transferOwnership","inputs":[{"name":"_newOwner","type":"address","internalType":"address"}],"outputs":[],"stateMutability":"nonpayable"},{"type":"function","name":"upgradeTo","inputs":[{"name":"_newImplementation","type":"address","internalType":"address"}],"outputs":[],"stateMutability":"nonpayable"},{"type":"function","name":"validateUserOp","inputs":[{"name":"userOp","type":"tuple","internalType":"struct UserOperation","components":[{"name":"sender","type":"address","internalType":"address"},{"name":"nonce","type":"uint256","internalType":"uint256"},{"name":"initCode","type":"bytes","internalType":"bytes"},{"name":"callData","type":"bytes","internalType":"bytes"},{"name":"callGasLimit","type":"uint256","internalType":"uint256"},{"name":"verificationGasLimit","type":"uint256","internalType":"uint256"},{"name":"preVerificationGas","type":"uint256","internalType":"uint256"},{"name":"maxFeePerGas","type":"uint256","internalType":"uint256"},{"name":"maxPriorityFeePerGas","type":"uint256","internalType":"uint256"},{"name":"paymasterAndData","type":"bytes","internalType":"bytes"},{"name":"signature","type":"bytes","internalType":"bytes"}]},{"name":"userOpHash","type":"bytes32","internalType":"bytes32"},{"name":"missingAccountFunds","type":"uint256","internalType":"uint256"}],"outputs":[{"name":"validationData","type":"uint256","internalType":"uint256"}],"stateMutability":"nonpayable"},{"type":"function","name":"version","inputs":[],"outputs":[{"name":"","type":"string","internalType":"string"}],"stateMutability":"view"},{"type":"event","name":"AccountDeployed","inputs":[{"name":"account","type":"address","indexed":true,"internalType":"address"},{"name":"owner","type":"address","indexed":true,"internalType":"address"},{"name":"timestamp","type":"uint256","indexed":false,"internalType":"uint256"}],"anonymous":false},{"type":"event","name":"EIP712DomainChanged","inputs":[],"anonymous":false},{"type":"event","name":"Upgraded","inputs":[{"name":"newImplementation","type":"address","indexed":true,"internalType":"address"}],"anonymous":false},{"type":"error","name":"AlreadyInitialized","inputs":[]},{"type":"error","name":"InvalidNonce","inputs":[]},{"type":"error","name":"InvalidShortString","inputs":[]},{"type":"error","name":"InvalidSignatureLength","inputs":[]},{"type":"error","name":"NotAuthorized","inputs":[]},{"type":"error","name":"NotInitialized","inputs":[]},{"type":"error","name":"QueryResult","inputs":[{"name":"result","type":"bytes","internalType":"bytes"}]},{"type":"error","name":"StringTooLong","inputs":[{"name":"str","type":"string","internalType":"string"}]}],"bytecode":{"object":"0x610180346101ec57601f61226938819003918201601f19168301926001600160401b03929091838511838610176101d85781602092849260409788528339810103126101ec57516001600160a01b03811681036101ec578251610061816101f0565b60068152602081016512d95c9b995b60d21b81528451610080816101f0565b600581526020810164302e302e3160d81b815261009c8461020b565b926101209384526100ac836103c1565b94610140958652519020918260e052519020610100968188524660a05280519160208301937f8b73c3c69bb8fe3d512ecc4cf759cc79239f7b179b0ffacaa9a75d522b39400f85528284015260608301524660808301523060a083015260a0825260c0820196828810908811176101d8578690525190206080523060c0526101609283527f439ffe7df606b78489639bc0b827913bd09e1246fa6802968a5b3694c53e0dd880546001600160a01b0319166001179055611d149485610555863960805185611b5d015260a05185611c18015260c05185611b2e015260e05185611bac01525184611bd20152518361072f015251826107580152518181816104db01528181610642015281816108c70152818161099601528181610b7b01528181610d4301526111ac0152f35b634e487b7160e01b5f52604160045260245ffd5b5f80fd5b604081019081106001600160401b038211176101d857604052565b8051602090818110156102a05750601f825111610243578082519201519080831061023557501790565b825f19910360031b1b161790565b90604051809263305a27a960e01b82528060048301528251908160248401525f935b828510610287575050604492505f838284010152601f80199101168101030190fd5b8481018201518686016044015293810193859350610265565b906001600160401b0382116101d8575f54926001938481811c911680156103b7575b838210146103a357601f8111610370575b5081601f841160011461030e57509282939183925f94610303575b50501b915f199060031b1c1916175f5560ff90565b015192505f806102ee565b919083601f1981165f8052845f20945f905b88838310610356575050501061033e575b505050811b015f5560ff90565b01515f1960f88460031b161c191690555f8080610331565b858701518855909601959485019487935090810190610320565b5f805284601f845f20920160051c820191601f860160051c015b8281106103985750506102d3565b5f815501859061038a565b634e487b7160e01b5f52602260045260245ffd5b90607f16906102c2565b8051602090818110156104485750601f8251116103eb578082519201519080831061023557501790565b90604051809263305a27a960e01b82528060048301528251908160248401525f935b82851061042f575050604492505f838284010152601f80199101168101030190fd5b848101820151868601604401529381019385935061040d565b9192916001600160401b0381116101d85760019182548381811c9116801561054a575b828210146103a357601f8111610517575b5080601f83116001146104b75750819293945f926104ac575b50505f19600383901b1c191690821b17905560ff90565b015190505f80610495565b90601f19831695845f52825f20925f905b88821061050057505083859697106104e8575b505050811b01905560ff90565b01515f1960f88460031b161c191690555f80806104db565b8087859682949686015181550195019301906104c8565b835f5283601f835f20920160051c820191601f850160051c015b82811061053f57505061047c565b5f8155018490610531565b90607f169061046b56fe6080604052600436101561001a575b3615610018575f80fd5b005b5f3560e01c806301ffc9a71461016457806306fdde031461015f578063150b7a021461015a5780631626ba7e146101555780633659cfe6146101505780633a871cdd1461014b5780633e1b08121461014657806354fd4d501461014157806384b0196e1461013c578063893d20e8146101375780638da5cb5b14610137578063940d3c6014610132578063b0d691fe1461012d578063bc197c8114610128578063c4d66de814610123578063d087d2881461011e578063e799be2014610119578063eae4c19f14610114578063f23a6e611461010f578063f2fde38b1461010a5763f333df550361000e57610df4565b610d1f565b610cb0565b610c93565b610bbe565b610b42565b610a90565b6109eb565b610977565b61086e565b610829565b610717565b6106ba565b6105e3565b610593565b6104b6565b61044e565b61038b565b6102bc565b346101cf5760203660031901126101cf576004357fffffffff0000000000000000000000000000000000000000000000000000000081168091036101cf576020907f01ffc9a70000000000000000000000000000000000000000000000000000000060405191148152f35b5f80fd5b634e487b7160e01b5f52604160045260245ffd5b6040810190811067ffffffffffffffff82111761020357604052565b6101d3565b6020810190811067ffffffffffffffff82111761020357604052565b60c0810190811067ffffffffffffffff82111761020357604052565b90601f8019910116810190811067ffffffffffffffff82111761020357604052565b67ffffffffffffffff811161020357601f01601f191660200190565b91908251928382525f5b8481106102a8575050825f602080949584010152601f8019910116010190565b602081830181015184830182015201610288565b346101cf575f3660031901126101cf576103196040516102db816101e7565b600681527f4b65726e656c0000000000000000000000000000000000000000000000000000602082015260405191829160208352602083019061027e565b0390f35b600435906001600160a01b03821682036101cf57565b602435906001600160a01b03821682036101cf57565b35906001600160a01b03821682036101cf57565b9181601f840112156101cf5782359167ffffffffffffffff83116101cf57602083818601950101116101cf57565b346101cf5760803660031901126101cf576103a461031d565b506103ad610333565b5060643567ffffffffffffffff81116101cf576103ce90369060040161035d565b505060206040517f150b7a02000000000000000000000000000000000000000000000000000000008152f35b92919261040682610262565b916104146040519384610240565b8294818452818301116101cf578281602093845f960137010152565b9080601f830112156101cf5781602061044b933591016103fa565b90565b346101cf5760403660031901126101cf5760243567ffffffffffffffff81116101cf5761048c6104846020923690600401610430565b600435610e83565b7fffffffff0000000000000000000000000000000000000000000000000000000060405191168152f35b346101cf5760203660031901126101cf576104cf61031d565b6001600160a01b0390817f00000000000000000000000000000000000000000000000000000000000000001633148015610567575b801561055e575b61051490610f50565b807f360894a13ba1a3210667c828492db98dca3e2076cc3735a920a3ca505d382bbc55167fbc7cd75a20ee27fd9adebab32041f755214dbc6bffa90cc0225b39da2e5c2d3b5f80a2005b5033301461050b565b50817f439ffe7df606b78489639bc0b827913bd09e1246fa6802968a5b3694c53e0dd854163314610504565b346101cf576003196060368201126101cf576004359067ffffffffffffffff82116101cf576101609082360301126101cf576105db602091604435906024359060040161119c565b604051908152f35b346101cf5760203660031901126101cf5760043577ffffffffffffffffffffffffffffffffffffffffffffffff81168091036101cf5760405190631aab3f0d60e11b825230600483015260248201526020816044816001600160a01b037f0000000000000000000000000000000000000000000000000000000000000000165afa80156106b557610319915f91610686575b506040519081529081906020820190565b6106a8915060203d6020116106ae575b6106a08183610240565b81019061143a565b5f610675565b503d610696565b611449565b346101cf575f3660031901126101cf576103196040516106d9816101e7565b600581527f302e302e31000000000000000000000000000000000000000000000000000000602082015260405191829160208352602083019061027e565b346101cf575f3660031901126101cf576107cc6107537f0000000000000000000000000000000000000000000000000000000000000000611792565b61077c7f0000000000000000000000000000000000000000000000000000000000000000611890565b6040519061078982610208565b5f82526107da6020916040519586957f0f00000000000000000000000000000000000000000000000000000000000000875260e0602088015260e087019061027e565b90858203604087015261027e565b4660608501523060808501525f60a085015283810360c0850152602080845192838152019301915f5b82811061081257505050500390f35b835185528695509381019392810192600101610803565b346101cf575f3660031901126101cf5760206001600160a01b037f439ffe7df606b78489639bc0b827913bd09e1246fa6802968a5b3694c53e0dd85416604051908152f35b346101cf5760803660031901126101cf5761088761031d565b60443567ffffffffffffffff81116101cf576108a790369060040161035d565b60649291923560028110156101cf576001906108f76001600160a01b03807f000000000000000000000000000000000000000000000000000000000000000016331490811561094a575b50611454565b610900816114d9565b0361092b5761091a926109149136916103fa565b90611982565b905b1561092357005b602081519101fd5b6109449261093a9136916103fa565b9060243590611959565b9061091c565b90507f439ffe7df606b78489639bc0b827913bd09e1246fa6802968a5b3694c53e0dd8541633145f6108f1565b346101cf575f3660031901126101cf5760206040516001600160a01b037f0000000000000000000000000000000000000000000000000000000000000000168152f35b9181601f840112156101cf5782359167ffffffffffffffff83116101cf576020808501948460051b0101116101cf57565b346101cf5760a03660031901126101cf57610a0461031d565b50610a0d610333565b5067ffffffffffffffff6044358181116101cf57610a2f9036906004016109ba565b50506064358181116101cf57610a499036906004016109ba565b50506084359081116101cf57610a6390369060040161035d565b50506040517fbc197c81000000000000000000000000000000000000000000000000000000008152602090f35b346101cf5760203660031901126101cf57610aa961031d565b7f439ffe7df606b78489639bc0b827913bd09e1246fa6802968a5b3694c53e0dd8908154906001600160a01b03808316610afe5773ffffffffffffffffffffffffffffffffffffffff19911691161790555f80f35b606460405162461bcd60e51b815260206004820152601c60248201527f6163636f756e743a20616c726561647920696e697469616c697a6564000000006044820152fd5b346101cf575f3660031901126101cf57604051631aab3f0d60e11b81523060048201525f60248201526020816044816001600160a01b037f0000000000000000000000000000000000000000000000000000000000000000165afa80156106b557610319915f9161068657506040519081529081906020820190565b346101cf575f3660031901126101cf576001600160a01b037f439ffe7df606b78489639bc0b827913bd09e1246fa6802968a5b3694c53e0dd854168015610c6957600254610c3f57610c0f42600255565b60405142815230907fa453f15f0d1f2600dfc00a82bd6c2b5feddb3aad5b2e016c83a2fa2a224088ad90602090a3005b60046040517f0dc149f0000000000000000000000000000000000000000000000000000000008152fd5b60046040517f87138d5c000000000000000000000000000000000000000000000000000000008152fd5b346101cf575f3660031901126101cf576020600254604051908152f35b346101cf5760a03660031901126101cf57610cc961031d565b50610cd2610333565b5060843567ffffffffffffffff81116101cf57610cf390369060040161035d565b505060206040517ff23a6e61000000000000000000000000000000000000000000000000000000008152f35b346101cf5760203660031901126101cf57610d3861031d565b6001600160a01b03807f00000000000000000000000000000000000000000000000000000000000000001633148015610dc8575b8015610dbf575b610d7c90610f50565b7f439ffe7df606b78489639bc0b827913bd09e1246fa6802968a5b3694c53e0dd8911673ffffffffffffffffffffffffffffffffffffffff198254161790555f80f35b50333014610d73565b50807f439ffe7df606b78489639bc0b827913bd09e1246fa6802968a5b3694c53e0dd854163314610d6c565b346101cf5760403660031901126101cf57610e0d61031d565b6024359067ffffffffffffffff82116101cf57610914610e34610e3b93369060040161035d565b36916103fa565b901561092357610e7f906040519182917fa52b216900000000000000000000000000000000000000000000000000000000835260206004840152602483019061027e565b0390fd5b906001600160a01b0390817f439ffe7df606b78489639bc0b827913bd09e1246fa6802968a5b3694c53e0dd854169282610ec8610ec084846119aa565b9190916119e9565b168414610f4157610f0c91610f07610ec0927f19457468657265756d205369676e6564204d6573736167653a0a3332000000005f52601c52603c5f2090565b6119aa565b1603610f1d57630b135d3f60e11b90565b7fffffffff0000000000000000000000000000000000000000000000000000000090565b50505050630b135d3f60e11b90565b15610f5757565b608460405162461bcd60e51b815260206004820152602d60248201527f6163636f756e743a206e6f742066726f6d20656e747279706f696e74206f722060448201527f6f776e6572206f722073656c66000000000000000000000000000000000000006064820152fd5b15610fc857565b606460405162461bcd60e51b815260206004820152601c60248201527f6163636f756e743a206e6f742066726f6d20656e747279506f696e74000000006044820152fd5b903590601e19813603018212156101cf570180359067ffffffffffffffff82116101cf576020019181360383136101cf57565b906014116101cf5790601490565b90601a116101cf5760140190600690565b906020116101cf57601a0190600690565b906061116101cf5760200190604190565b90929192836061116101cf5783116101cf57606101916060190190565b6bffffffffffffffffffffffff1990358181169392601481106110bf57505050565b60140360031b82901b16169150565b7fffffffffffff0000000000000000000000000000000000000000000000000000903581811693926006811061110357505050565b60060360031b82901b16169150565b9190916040818403126101cf5767ffffffffffffffff9281358481116101cf578161113e918401610430565b9360208301359081116101cf5761044b9201610430565b908160209103126101cf575180151581036101cf5790565b3d15611197573d9061117e82610262565b9161118c6040519384610240565b82523d5f602084013e565b606090565b906001600160a01b03916111d3837f0000000000000000000000000000000000000000000000000000000000000000163314610fc1565b610140810160416111e4828461100c565b9050145f1461121857506111f892506116d6565b905b80611203575090565b5f80808093335af15061121461116d565b5090565b916061611225848461100c565b9050115f1461141057611238838361100c565b6112419161103f565b61124a9161109d565b60601c91611258848261100c565b6112619161104d565b61126a916110ce565b60d01c94611278858361100c565b6112819161105e565b61128a916110ce565b60d01c94611298818461100c565b6112a19161106f565b36906112ac926103fa565b906112b7908461100c565b806112c192611080565b81016112cc91611112565b508051602091820120604080517f4584533bad8bbd8aa77024a548a56acb8d2807847381ce1b3364745ca396b2e39381019384526001600160a01b0389169181019190915265ffffffffffff8a811660608301528916608082015260a08082019290925290815261133e60c082610240565b51902061134a906114f5565b90611354916114e8565b7f439ffe7df606b78489639bc0b827913bd09e1246fa6802968a5b3694c53e0dd854821691160361140557856113a092611391926113a495611588565b60208082518301019101611155565b1590565b6113fd576113f791907fffffffffffff000000000000000000000000000000000000000000000000000079ffffffffffff00000000000000000000000000000000000000009160d01b169160a01b161790565b906111fa565b505050600190565b505050505050600190565b60046040517f4be6321b000000000000000000000000000000000000000000000000000000008152fd5b908160209103126101cf575190565b6040513d5f823e3d90fd5b1561145b57565b608460405162461bcd60e51b815260206004820152602560248201527f6163636f756e743a206e6f742066726f6d20656e747279706f696e74206f722060448201527f6f776e65720000000000000000000000000000000000000000000000000000006064820152fd5b634e487b7160e01b5f52602160045260245ffd5b600211156114e357565b6114c5565b61044b91610ec0916119aa565b604290611500611b24565b90604051917f19010000000000000000000000000000000000000000000000000000000000008352600283015260228201522090565b9035601e19823603018112156101cf57016020813591019167ffffffffffffffff82116101cf5781360383136101cf57565b908060209392818452848401375f828201840152601f01601f1916010190565b906116c8906116af936116cd956040519586937f9e2045ce000000000000000000000000000000000000000000000000000000006020860152606060248601526115e5608486016115d883610349565b6001600160a01b03169052565b602081013560a48601526116126115ff6040830183611536565b61016060c48901526101e4880191611568565b61169f61169361163c6116286060860186611536565b6083198b8703810160e48d01529591611568565b60808501356101048a015260a08501356101248a015260c08501356101448a015260e08501356101648a01526101008501356101848a0152611682610120860186611536565b90858b8403016101a48c0152611568565b92610140810190611536565b91878403016101c4880152611568565b916044840152606483015203601f198101845283610240565b611982565b90156109235790565b91905f926001600160a01b0390817f439ffe7df606b78489639bc0b827913bd09e1246fa6802968a5b3694c53e0dd854169261014082019083611728610ec0611722610e34868861100c565b846119aa565b1685146117885791611774610e34610ec09361176e61177a967f19457468657265756d205369676e6564204d6573736167653a0a3332000000005f52601c52603c5f2090565b9361100c565b906119aa565b160361178257565b60019150565b505f955050505050565b60ff81146117a35761044b90611c3e565b506040515f80546001918160011c9260018316908115611886575b602090602086108314611872578587528694602086019390811561185357506001146117f4575b50505061044b92500382610240565b9250936118215f80527f290decd9548b62a8d60345a988386fc84ba6bc95484008f6362f93160ef3e56390565b945f935b82851061183d5750505061044b9350015f80806117e5565b8654858501529586019587955093810193611825565b9250505061044b9491925060ff19168252151560051b015f80806117e5565b634e487b7160e01b5f52602260045260245ffd5b93607f16936117be565b60ff81146118a15761044b90611c3e565b506040516001805480821c915f9082811690811561194f575b602090602086108314611872578587528694602086019390811561185357506001146118ef5750505061044b92500382610240565b92509361191d60015f527fb10e2d527612073b26eecdfd717e6a320cf44b4afac2b0732d9fcbe2b7fa0cf690565b945f935b8285106119395750505061044b9350015f80806117e5565b8654858501529586019587955093810193611921565b93607f16936118ba565b915f928392602083519301915af1903d604051906020818301016040528082525f602083013e90565b5f918291602082519201905af4903d604051906020818301016040528082525f602083013e90565b9060418151145f146119d6576119d291602082015190606060408401519301515f1a90611c8c565b9091565b50505f90600290565b600511156114e357565b6119f2816119df565b806119fa5750565b611a03816119df565b60018103611a505760405162461bcd60e51b815260206004820152601860248201527f45434453413a20696e76616c6964207369676e617475726500000000000000006044820152606490fd5b611a59816119df565b60028103611aa65760405162461bcd60e51b815260206004820152601f60248201527f45434453413a20696e76616c6964207369676e6174757265206c656e677468006044820152606490fd5b80611ab26003926119df565b14611ab957565b60405162461bcd60e51b815260206004820152602260248201527f45434453413a20696e76616c6964207369676e6174757265202773272076616c60448201527f75650000000000000000000000000000000000000000000000000000000000006064820152608490fd5b6001600160a01b037f000000000000000000000000000000000000000000000000000000000000000016301480611c15575b15611b7f577f000000000000000000000000000000000000000000000000000000000000000090565b60405160208101907f8b73c3c69bb8fe3d512ecc4cf759cc79239f7b179b0ffacaa9a75d522b39400f82527f000000000000000000000000000000000000000000000000000000000000000060408201527f000000000000000000000000000000000000000000000000000000000000000060608201524660808201523060a082015260a08152611c0f81610224565b51902090565b507f00000000000000000000000000000000000000000000000000000000000000004614611b56565b60ff811690601f8211611c625760405191611c58836101e7565b8252602082015290565b60046040517fb3512b0c000000000000000000000000000000000000000000000000000000008152fd5b7f7fffffffffffffffffffffffffffffff5d576e7357a4501ddfe92f46681b20a08411611cfc576020935f9360ff60809460405194855216868401526040830152606082015282805260015afa156106b5575f516001600160a01b03811615611cf457905f90565b505f90600190565b505050505f9060039056fea164736f6c6343000819000a","linkReferences":{}},"methodIdentifiers":{"deployedAt()":"eae4c19f","eip712Domain()":"84b0196e","entryPoint()":"b0d691fe","executeAndRevert(address,uint256,bytes,uint8)":"940d3c60","getNonce()":"d087d288","getNonce(uint192)":"3e1b0812","getOwner()":"893d20e8","initialize(address)":"c4d66de8","initializeGardener()":"e799be20","isValidSignature(bytes32,bytes)":"1626ba7e","name()":"06fdde03","onERC1155BatchReceived(address,address,uint256[],uint256[],bytes)":"bc197c81","onERC1155Received(address,address,uint256,uint256,bytes)":"f23a6e61","onERC721Received(address,address,uint256,bytes)":"150b7a02","owner()":"8da5cb5b","queryPlugin(address,bytes)":"f333df55","supportsInterface(bytes4)":"01ffc9a7","transferOwnership(address)":"f2fde38b","upgradeTo(address)":"3659cfe6","validateUserOp((address,uint256,bytes,bytes,uint256,uint256,uint256,uint256,uint256,bytes,bytes),bytes32,uint256)":"3a871cdd","version()":"54fd4d50"},"id":115}