{"abi":[{"type":"constructor","inputs":[{"name":"_entryPoint","type":"address","internalType":"contract IEntryPoint"}],"stateMutability":"nonpayable"},{"type":"receive","stateMutability":"payable"},{"type":"function","name":"deployedAt","inputs":[],"outputs":[{"name":"","type":"uint256","internalType":"uint256"}],"stateMutability":"view"},{"type":"function","name":"eip712Domain","inputs":[],"outputs":[{"name":"fields","type":"bytes1","internalType":"bytes1"},{"name":"name","type":"string","internalType":"string"},{"name":"version","type":"string","internalType":"string"},{"name":"chainId","type":"uint256","internalType":"uint256"},{"name":"verifyingContract","type":"address","internalType":"address"},{"name":"salt","type":"bytes32","internalType":"bytes32"},{"name":"extensions","type":"uint256[]","internalType":"uint256[]"}],"stateMutability":"view"},{"type":"function","name":"entryPoint","inputs":[],"outputs":[{"name":"","type":"address","internalType":"contract IEntryPoint"}],"stateMutability":"view"},{"type":"function","name":"executeAndRevert","inputs":[{"name":"to","type":"address","internalType":"address"},{"name":"value","type":"uint256","internalType":"uint256"},{"name":"data","type":"bytes","internalType":"bytes"},{"name":"operation","type":"uint8","internalType":"enum Operation"}],"outputs":[],"stateMutability":"nonpayable"},{"type":"function","name":"getNonce","inputs":[{"name":"key","type":"uint192","internalType":"uint192"}],"outputs":[{"name":"","type":"uint256","internalType":"uint256"}],"stateMutability":"view"},{"type":"function","name":"getNonce","inputs":[],"outputs":[{"name":"","type":"uint256","internalType":"uint256"}],"stateMutability":"view"},{"type":"function","name":"getOwner","inputs":[],"outputs":[{"name":"","type":"address","internalType":"address"}],"stateMutability":"view"},{"type":"function","name":"initialize","inputs":[{"name":"_owner","type":"address","internalType":"address"}],"outputs":[],"stateMutability":"nonpayable"},{"type":"function","name":"initializeGardener","inputs":[],"outputs":[],"stateMutability":"nonpayable"},{"type":"function","name":"isValidSignature","inputs":[{"name":"_hash","type":"bytes32","internalType":"bytes32"},{"name":"_signature","type":"bytes","internalType":"bytes"}],"outputs":[{"name":"","type":"bytes4","internalType":"bytes4"}],"stateMutability":"view"},{"type":"function","name":"name","inputs":[],"outputs":[{"name":"","type":"string","internalType":"string"}],"stateMutability":"view"},{"type":"function","name":"onERC1155BatchReceived","inputs":[{"name":"","type":"address","internalType":"address"},{"name":"","type":"address","internalType":"address"},{"name":"","type":"uint256[]","internalType":"uint256[]"},{"name":"","type":"uint256[]","internalType":"uint256[]"},{"name":"","type":"bytes","internalType":"bytes"}],"outputs":[{"name":"","type":"bytes4","internalType":"bytes4"}],"stateMutability":"pure"},{"type":"function","name":"onERC1155Received","inputs":[{"name":"","type":"address","internalType":"address"},{"name":"","type":"address","internalType":"address"},{"name":"","type":"uint256","internalType":"uint256"},{"name":"","type":"uint256","internalType":"uint256"},{"name":"","type":"bytes","internalType":"bytes"}],"outputs":[{"name":"","type":"bytes4","internalType":"bytes4"}],"stateMutability":"pure"},{"type":"function","name":"onERC721Received","inputs":[{"name":"","type":"address","internalType":"address"},{"name":"","type":"address","internalType":"address"},{"name":"","type":"uint256","internalType":"uint256"},{"name":"","type":"bytes","internalType":"bytes"}],"outputs":[{"name":"","type":"bytes4","internalType":"bytes4"}],"stateMutability":"pure"},{"type":"function","name":"owner","inputs":[],"outputs":[{"name":"","type":"address","internalType":"address"}],"stateMutability":"view"},{"type":"function","name":"queryPlugin","inputs":[{"name":"_plugin","type":"address","internalType":"address"},{"name":"_data","type":"bytes","internalType":"bytes"}],"outputs":[],"stateMutability":"nonpayable"},{"type":"function","name":"supportsInterface","inputs":[{"name":"interfaceId","type":"bytes4","internalType":"bytes4"}],"outputs":[{"name":"","type":"bool","internalType":"bool"}],"stateMutability":"view"},{"type":"function","name":"transferOwnership","inputs":[{"name":"_newOwner","type":"address","internalType":"address"}],"outputs":[],"stateMutability":"nonpayable"},{"type":"function","name":"upgradeTo","inputs":[{"name":"_newImplementation","type":"address","internalType":"address"}],"outputs":[],"stateMutability":"nonpayable"},{"type":"function","name":"validateUserOp","inputs":[{"name":"userOp","type":"tuple","internalType":"struct UserOperation","components":[{"name":"sender","type":"address","internalType":"address"},{"name":"nonce","type":"uint256","internalType":"uint256"},{"name":"initCode","type":"bytes","internalType":"bytes"},{"name":"callData","type":"bytes","internalType":"bytes"},{"name":"callGasLimit","type":"uint256","internalType":"uint256"},{"name":"verificationGasLimit","type":"uint256","internalType":"uint256"},{"name":"preVerificationGas","type":"uint256","internalType":"uint256"},{"name":"maxFeePerGas","type":"uint256","internalType":"uint256"},{"name":"maxPriorityFeePerGas","type":"uint256","internalType":"uint256"},{"name":"paymasterAndData","type":"bytes","internalType":"bytes"},{"name":"signature","type":"bytes","internalType":"bytes"}]},{"name":"userOpHash","type":"bytes32","internalType":"bytes32"},{"name":"missingAccountFunds","type":"uint256","internalType":"uint256"}],"outputs":[{"name":"validationData","type":"uint256","internalType":"uint256"}],"stateMutability":"nonpayable"},{"type":"function","name":"version","inputs":[],"outputs":[{"name":"","type":"string","internalType":"string"}],"stateMutability":"view"},{"type":"event","name":"AccountDeployed","inputs":[{"name":"account","type":"address","indexed":true,"internalType":"address"},{"name":"owner","type":"address","indexed":true,"internalType":"address"},{"name":"timestamp","type":"uint256","indexed":false,"internalType":"uint256"}],"anonymous":false},{"type":"event","name":"EIP712DomainChanged","inputs":[],"anonymous":false},{"type":"event","name":"Upgraded","inputs":[{"name":"newImplementation","type":"address","indexed":true,"internalType":"address"}],"anonymous":false},{"type":"error","name":"AlreadyInitialized","inputs":[]},{"type":"error","name":"InvalidNonce","inputs":[]},{"type":"error","name":"InvalidShortString","inputs":[]},{"type":"error","name":"InvalidSignatureLength","inputs":[]},{"type":"error","name":"NotAuthorized","inputs":[]},{"type":"error","name":"NotInitialized","inputs":[]},{"type":"error","name":"QueryResult","inputs":[{"name":"result","type":"bytes","internalType":"bytes"}]},{"type":"error","name":"StringTooLong","inputs":[{"name":"str","type":"string","internalType":"string"}]}],"bytecode":{"object":"0x610180346101ec57601f611f7838819003918201601f19168301926001600160401b03929091838511838610176101d85781602092849260409788528339810103126101ec57516001600160a01b03811681036101ec578251610061816101f0565b60068152602081016512d95c9b995b60d21b81528451610080816101f0565b600581526020810164302e302e3160d81b815261009c8461020b565b926101209384526100ac836103c1565b94610140958652519020918260e052519020610100968188524660a05280519160208301937f8b73c3c69bb8fe3d512ecc4cf759cc79239f7b179b0ffacaa9a75d522b39400f85528284015260608301524660808301523060a083015260a0825260c0820196828810908811176101d8578690525190206080523060c0526101609283527f439ffe7df606b78489639bc0b827913bd09e1246fa6802968a5b3694c53e0dd880546001600160a01b0319166001179055611a23948561055586396080518561186e015260a05185611929015260c05185611838015260e051856118bd015251846118e3015251836106760152518261069f01525181818161045c01528181610599015281816107de0152818161089001528181610a3e01528181610bf50152610f980152f35b634e487b7160e01b5f52604160045260245ffd5b5f80fd5b604081019081106001600160401b038211176101d857604052565b8051602090818110156102a05750601f825111610243578082519201519080831061023557501790565b825f19910360031b1b161790565b90604051809263305a27a960e01b82528060048301528251908160248401525f935b828510610287575050604492505f838284010152601f80199101168101030190fd5b8481018201518686016044015293810193859350610265565b906001600160401b0382116101d8575f54926001938481811c911680156103b7575b838210146103a357601f8111610370575b5081601f841160011461030e57509282939183925f94610303575b50501b915f199060031b1c1916175f5560ff90565b015192505f806102ee565b919083601f1981165f8052845f20945f905b88838310610356575050501061033e575b505050811b015f5560ff90565b01515f1960f88460031b161c191690555f8080610331565b858701518855909601959485019487935090810190610320565b5f805284601f845f20920160051c820191601f860160051c015b8281106103985750506102d3565b5f815501859061038a565b634e487b7160e01b5f52602260045260245ffd5b90607f16906102c2565b8051602090818110156104485750601f8251116103eb578082519201519080831061023557501790565b90604051809263305a27a960e01b82528060048301528251908160248401525f935b82851061042f575050604492505f838284010152601f80199101168101030190fd5b848101820151868601604401529381019385935061040d565b9192916001600160401b0381116101d85760019182548381811c9116801561054a575b828210146103a357601f8111610517575b5080601f83116001146104b75750819293945f926104ac575b50505f19600383901b1c191690821b17905560ff90565b015190505f80610495565b90601f19831695845f52825f20925f905b88821061050057505083859697106104e8575b505050811b01905560ff90565b01515f1960f88460031b161c191690555f80806104db565b8087859682949686015181550195019301906104c8565b835f5283601f835f20920160051c820191601f850160051c015b82811061053f57505061047c565b5f8155018490610531565b90607f169061046b56fe6080604052600436101561001a575b3615610018575f80fd5b005b5f3560e01c806301ffc9a71461016457806306fdde031461015f578063150b7a021461015a5780631626ba7e146101555780633659cfe6146101505780633a871cdd1461014b5780633e1b08121461014657806354fd4d501461014157806384b0196e1461013c578063893d20e8146101375780638da5cb5b14610137578063940d3c6014610132578063b0d691fe1461012d578063bc197c8114610128578063c4d66de814610123578063d087d2881461011e578063e799be2014610119578063eae4c19f14610114578063f23a6e611461010f578063f2fde38b1461010a5763f333df550361000e57610c73565b610bd1565b610b7b565b610b3f565b610a89565b610a0d565b61097a565b6108ef565b61087b565b610788565b610754565b61065e565b610619565b610550565b610501565b610437565b6103e7565b61033d565b610286565b3461019e57602036600319011261019e5760043563ffffffff60e01b811680910361019e576040516301ffc9a760e01b9091148152602090f35b5f80fd5b634e487b7160e01b5f52604160045260245ffd5b604081019081106001600160401b038211176101d157604052565b6101a2565b602081019081106001600160401b038211176101d157604052565b60c081019081106001600160401b038211176101d157604052565b90601f801991011681019081106001600160401b038211176101d157604052565b6001600160401b0381116101d157601f01601f191660200190565b91908251928382525f5b848110610272575050825f602080949584010152601f8019910116010190565b602081830181015184830182015201610252565b3461019e575f36600319011261019e576102cc6040516102a5816101b6565b600681526512d95c9b995b60d21b6020820152604051918291602083526020830190610248565b0390f35b600435906001600160a01b038216820361019e57565b602435906001600160a01b038216820361019e57565b35906001600160a01b038216820361019e57565b9181601f8401121561019e578235916001600160401b03831161019e576020838186019501011161019e57565b3461019e57608036600319011261019e576103566102d0565b5061035f6102e6565b506064356001600160401b03811161019e5761037f903690600401610310565b5050604051630a85bd0160e11b8152602090f35b92919261039f8261022d565b916103ad604051938461020c565b82948184528183011161019e578281602093845f960137010152565b9080601f8301121561019e578160206103e493359101610393565b90565b3461019e57604036600319011261019e576024356001600160401b03811161019e5761042461041c60209236906004016103c9565b600435610ce8565b6040516001600160e01b03199091168152f35b3461019e57602036600319011261019e576104506102d0565b6001600160a01b0390337f000000000000000000000000000000000000000000000000000000000000000083161480156104e8575b80156104df575b61049590610d64565b807f360894a13ba1a3210667c828492db98dca3e2076cc3735a920a3ca505d382bbc55167fbc7cd75a20ee27fd9adebab32041f755214dbc6bffa90cc0225b39da2e5c2d3b5f80a2005b5033301461048c565b50815f805160206119f783398151915254163314610485565b3461019e5760031960603682011261019e57600435906001600160401b03821161019e5761016090823603011261019e576105486020916044359060243590600401610f88565b604051908152f35b3461019e57602036600319011261019e576004356001600160c01b0381169081900361019e57604051631aab3f0d60e11b815230600482015260248101919091526020816044817f00000000000000000000000000000000000000000000000000000000000000006001600160a01b03165afa8015610614576102cc915f916105e5575b506040519081529081906020820190565b610607915060203d60201161060d575b6105ff818361020c565b8101906111ce565b5f6105d4565b503d6105f5565b6111dd565b3461019e575f36600319011261019e576102cc604051610638816101b6565b6005815264302e302e3160d81b6020820152604051918291602083526020830190610248565b3461019e575f36600319011261019e576106f761069a7f00000000000000000000000000000000000000000000000000000000000000006114cc565b6106c37f00000000000000000000000000000000000000000000000000000000000000006115c5565b604051906106d0826101d6565b5f8252610705602091604051958695600f60f81b875260e0602088015260e0870190610248565b908582036040870152610248565b4660608501523060808501525f60a085015283810360c0850152602080845192838152019301915f5b82811061073d57505050500390f35b83518552869550938101939281019260010161072e565b3461019e575f36600319011261019e575f805160206119f7833981519152546040516001600160a01b039091168152602090f35b3461019e57608036600319011261019e576107a16102d0565b6044356001600160401b03811161019e576107c0903690600401610310565b606492919235600281101561019e5760019061080e828060a01b03807f0000000000000000000000000000000000000000000000000000000000000000163314908115610861575b506111e8565b61081781611256565b03610842576108319261082b913691610393565b906116b3565b905b1561083a57005b602081519101fd5b61085b92610851913691610393565b906024359061168a565b90610833565b90505f805160206119f7833981519152541633145f610808565b3461019e575f36600319011261019e576040517f00000000000000000000000000000000000000000000000000000000000000006001600160a01b03168152602090f35b9181601f8401121561019e578235916001600160401b03831161019e576020808501948460051b01011161019e57565b3461019e5760a036600319011261019e576109086102d0565b506109116102e6565b506001600160401b0360443581811161019e576109329036906004016108bf565b505060643581811161019e5761094c9036906004016108bf565b505060843590811161019e57610966903690600401610310565b505060405163bc197c8160e01b8152602090f35b3461019e57602036600319011261019e576109936102d0565b5f805160206119f7833981519152805490916001600160a01b03908183166109c8576001600160a01b03199092169116179055005b60405162461bcd60e51b815260206004820152601c60248201527f6163636f756e743a20616c726561647920696e697469616c697a6564000000006044820152606490fd5b3461019e575f36600319011261019e57604051631aab3f0d60e11b81523060048201525f60248201526020816044817f00000000000000000000000000000000000000000000000000000000000000006001600160a01b03165afa8015610614576102cc915f916105e557506040519081529081906020820190565b3461019e575f36600319011261019e575f805160206119f7833981519152546001600160a01b03168015610b2d577f50747741451803481934684784355133828788185855188181881818181818188054610b1c574290556040517fa453f15f0d1f2600dfc00a82bd6c2b5feddb3aad5b2e016c83a2fa2a224088ad309180610b1742829190602083019252565b0390a3005b60405162dc149f60e41b8152600490fd5b6040516321c4e35760e21b8152600490fd5b3461019e575f36600319011261019e5760207f507477414518034819346847843551338287881858551881818818181818181854604051908152f35b3461019e5760a036600319011261019e57610b946102d0565b50610b9d6102e6565b506084356001600160401b03811161019e57610bbd903690600401610310565b505060405163f23a6e6160e01b8152602090f35b3461019e57602036600319011261019e57610bea6102d0565b6001600160a01b03337f00000000000000000000000000000000000000000000000000000000000000008216148015610c5a575b8015610c51575b610c2e90610d64565b5f805160206119f783398151915280546001600160a01b03191691909216179055005b50333014610c25565b50805f805160206119f783398151915254163314610c1e565b3461019e57604036600319011261019e57610c8c6102d0565b602435906001600160401b03821161019e5761082b610cb2610cb9933690600401610310565b3691610393565b901561083a5760405163a52b216960e01b815260206004820152908190610ce4906024830190610248565b0390fd5b5f805160206119f7833981519152546001600160a01b0390811692909182610d1b610d1384846116db565b91909161171a565b168414610d5457610d3791610d32610d1392611272565b6116db565b1603610d4857630b135d3f60e11b90565b6001600160e01b031990565b50630b135d3f60e11b9392505050565b15610d6b57565b60405162461bcd60e51b815260206004820152602d60248201527f6163636f756e743a206e6f742066726f6d20656e747279706f696e74206f722060448201526c37bbb732b91037b91039b2b63360991b6064820152608490fd5b15610dcd57565b60405162461bcd60e51b815260206004820152601c60248201527f6163636f756e743a206e6f742066726f6d20656e747279506f696e74000000006044820152606490fd5b903590601e198136030182121561019e57018035906001600160401b03821161019e5760200191813603831361019e57565b9060141161019e5790601490565b90601a1161019e5760140190600690565b9060201161019e57601a0190600690565b9060611161019e5760200190604190565b909291928360611161019e57831161019e57606101916060190190565b6bffffffffffffffffffffffff199035818116939260148110610ec457505050565b60140360031b82901b16169150565b6001600160d01b03199035818116939260068110610ef057505050565b60060360031b82901b16169150565b91909160408184031261019e576001600160401b0392813584811161019e5781610f2a9184016103c9565b93602083013590811161019e576103e492016103c9565b9081602091031261019e5751801515810361019e5790565b3d15610f83573d90610f6a8261022d565b91610f78604051938461020c565b82523d5f602084013e565b606090565b6001600160a01b039190610fbf337f0000000000000000000000000000000000000000000000000000000000000000851614610dc6565b61014081016041610fd08284610e12565b9050145f146110045750610fe4925061144b565b905b80610fef575090565b5f80808093335af150611000610f59565b5090565b9160616110118484610e12565b9050115f146111bc576110248383610e12565b61102d91610e44565b61103691610ea2565b60601c916110448482610e12565b61104d91610e52565b61105691610ed3565b60d01c946110648583610e12565b61106d91610e63565b61107691610ed3565b60d01c946110848184610e12565b61108d91610e74565b369061109892610393565b906110a39084610e12565b806110ad92610e85565b81016110b891610eff565b508051602091820120604080517f4584533bad8bbd8aa77024a548a56acb8d2807847381ce1b3364745ca396b2e39381019384526001600160a01b0389169181019190915265ffffffffffff8a811660608301528916608082015260a08082019290925290815261112a60c08261020c565b5190206111369061129f565b9061114091611265565b5f805160206119f78339815191525482169116036111b157856111799261116a9261117d95611316565b60208082518301019101610f41565b1590565b6111a95760a09190911b65ffffffffffff60a01b1660d09190911b6001600160d01b0319161790610fe6565b505050600190565b505050505050600190565b604051634be6321b60e01b8152600490fd5b9081602091031261019e575190565b6040513d5f823e3d90fd5b156111ef57565b60405162461bcd60e51b815260206004820152602560248201527f6163636f756e743a206e6f742066726f6d20656e747279706f696e74206f722060448201526437bbb732b960d91b6064820152608490fd5b634e487b7160e01b5f52602160045260245ffd5b6002111561126057565b611242565b6103e491610d13916116db565b7f19457468657265756d205369676e6564204d6573736167653a0a3332000000005f52601c52603c5f2090565b6042906112aa611835565b906040519161190160f01b8352600283015260228201522090565b9035601e198236030181121561019e5701602081359101916001600160401b03821161019e57813603831361019e57565b908060209392818452848401375f828201840152601f01601f1916010190565b9061143d906114249361144295604051958693634f1022e760e11b60208601526060602486015261135a6084860161134d836102fc565b6001600160a01b03169052565b602081013560a486015261138761137460408301836112c5565b61016060c48901526101e48801916112f6565b6114146114086113b161139d60608601866112c5565b6083198b8703810160e48d015295916112f6565b60808501356101048a015260a08501356101248a015260c08501356101448a015260e08501356101648a01526101008501356101848a01526113f76101208601866112c5565b90858b8403016101a48c01526112f6565b926101408101906112c5565b91878403016101c48801526112f6565b916044840152606483015203601f19810184528361020c565b6116b3565b901561083a5790565b5f805160206119f7833981519152545f93926001600160a01b0391821692906101408201908361148a610d13611484610cb28688610e12565b846116db565b1685146114c257916114ae610cb2610d13936114a86114b496611272565b93610e12565b906116db565b16036114bc57565b60019150565b505f955050505050565b60ff81146114dd576103e49061194f565b506040515f80546001918160011c92600183169081156115bb575b6020906020861083146115a75785875286946020860193908115611588575060011461152e575b5050506103e49250038261020c565b5f8080527f290decd9548b62a8d60345a988386fc84ba6bc95484008f6362f93160ef3e5639690945091905b828510611572575050506103e49350015f808061151f565b865485850152958601958795509381019361155a565b925050506103e49491925060ff19168252151560051b015f808061151f565b634e487b7160e01b5f52602260045260245ffd5b93607f16936114f8565b60ff81146115d6576103e49061194f565b506040516001805480821c915f90828116908115611680575b6020906020861083146115a757858752869460208601939081156115885750600114611624575050506103e49250038261020c565b60015f5290949092507fb10e2d527612073b26eecdfd717e6a320cf44b4afac2b0732d9fcbe2b7fa0cf6945f935b82851061166a575050506103e49350015f808061151f565b8654858501529586019587955093810193611652565b93607f16936115ef565b915f928392602083519301915af1903d604051906020818301016040528082525f602083013e90565b5f918291602082519201905af4903d604051906020818301016040528082525f602083013e90565b9060418151145f146117075761170391602082015190606060408401519301515f1a90611985565b9091565b50505f90600290565b6005111561126057565b61172381611710565b8061172b5750565b61173481611710565b6001810361177c5760405162461bcd60e51b815260206004820152601860248201527745434453413a20696e76616c6964207369676e617475726560401b6044820152606490fd5b61178581611710565b600281036117d25760405162461bcd60e51b815260206004820152601f60248201527f45434453413a20696e76616c6964207369676e6174757265206c656e677468006044820152606490fd5b806117de600392611710565b146117e557565b60405162461bcd60e51b815260206004820152602260248201527f45434453413a20696e76616c6964207369676e6174757265202773272076616c604482015261756560f01b6064820152608490fd5b307f00000000000000000000000000000000000000000000000000000000000000006001600160a01b03161480611926575b15611890577f000000000000000000000000000000000000000000000000000000000000000090565b60405160208101907f8b73c3c69bb8fe3d512ecc4cf759cc79239f7b179b0ffacaa9a75d522b39400f82527f000000000000000000000000000000000000000000000000000000000000000060408201527f000000000000000000000000000000000000000000000000000000000000000060608201524660808201523060a082015260a08152611920816101f1565b51902090565b507f00000000000000000000000000000000000000000000000000000000000000004614611867565b60ff811690601f82116119735760405191611969836101b6565b8252602082015290565b604051632cd44ac360e21b8152600490fd5b6fa2a8918ca85bafe22016d0b997e4df60600160ff1b0384116119eb576020935f9360ff60809460405194855216868401526040830152606082015282805260015afa15610614575f516001600160a01b038116156119e357905f90565b505f90600190565b505050505f9060039056fe439ffe7df606b78489639bc0b827913bd09e1246fa6802968a5b3694c53e0dd8a164736f6c6343000819000a","linkReferences":{}},"methodIdentifiers":{"deployedAt()":"eae4c19f","eip712Domain()":"84b0196e","entryPoint()":"b0d691fe","executeAndRevert(address,uint256,bytes,uint8)":"940d3c60","getNonce()":"d087d288","getNonce(uint192)":"3e1b0812","getOwner()":"893d20e8","initialize(address)":"c4d66de8","initializeGardener()":"e799be20","isValidSignature(bytes32,bytes)":"1626ba7e","name()":"06fdde03","onERC1155BatchReceived(address,address,uint256[],uint256[],bytes)":"bc197c81","onERC1155Received(address,address,uint256,uint256,bytes)":"f23a6e61","onERC721Received(address,address,uint256,bytes)":"150b7a02","owner()":"8da5cb5b","queryPlugin(address,bytes)":"f333df55","supportsInterface(bytes4)":"01ffc9a7","transferOwnership(address)":"f2fde38b","upgradeTo(address)":"3659cfe6","validateUserOp((address,uint256,bytes,bytes,uint256,uint256,uint256,uint256,uint256,bytes,bytes),bytes32,uint256)":"3a871cdd","version()":"54fd4d50"},"id":135}