{"abi":[{"type":"constructor","inputs":[{"name":"easAddrs","type":"address","internalType":"address"},{"name":"actionAddrs","type":"address","internalType":"address"}],"stateMutability":"nonpayable"},{"type":"receive","stateMutability":"payable"},{"type":"function","name":"ACTION_REGISTRY","inputs":[],"outputs":[{"name":"","type":"address","internalType":"address"}],"stateMutability":"view"},{"type":"function","name":"attest","inputs":[{"name":"attestation","type":"tuple","internalType":"struct Attestation","components":[{"name":"uid","type":"bytes32","internalType":"bytes32"},{"name":"schema","type":"bytes32","internalType":"bytes32"},{"name":"time","type":"uint64","internalType":"uint64"},{"name":"expirationTime","type":"uint64","internalType":"uint64"},{"name":"revocationTime","type":"uint64","internalType":"uint64"},{"name":"refUID","type":"bytes32","internalType":"bytes32"},{"name":"recipient","type":"address","internalType":"address"},{"name":"attester","type":"address","internalType":"address"},{"name":"revocable","type":"bool","internalType":"bool"},{"name":"data","type":"bytes","internalType":"bytes"}]}],"outputs":[{"name":"","type":"bool","internalType":"bool"}],"stateMutability":"payable"},{"type":"function","name":"initialize","inputs":[{"name":"_multisig","type":"address","internalType":"address"}],"outputs":[],"stateMutability":"nonpayable"},{"type":"function","name":"isPayable","inputs":[],"outputs":[{"name":"","type":"bool","internalType":"bool"}],"stateMutability":"pure"},{"type":"function","name":"multiAttest","inputs":[{"name":"attestations","type":"tuple[]","internalType":"struct Attestation[]","components":[{"name":"uid","type":"bytes32","internalType":"bytes32"},{"name":"schema","type":"bytes32","internalType":"bytes32"},{"name":"time","type":"uint64","internalType":"uint64"},{"name":"expirationTime","type":"uint64","internalType":"uint64"},{"name":"revocationTime","type":"uint64","internalType":"uint64"},{"name":"refUID","type":"bytes32","internalType":"bytes32"},{"name":"recipient","type":"address","internalType":"address"},{"name":"attester","type":"address","internalType":"address"},{"name":"revocable","type":"bool","internalType":"bool"},{"name":"data","type":"bytes","internalType":"bytes"}]},{"name":"values","type":"uint256[]","internalType":"uint256[]"}],"outputs":[{"name":"","type":"bool","internalType":"bool"}],"stateMutability":"payable"},{"type":"function","name":"multiRevoke","inputs":[{"name":"attestations","type":"tuple[]","internalType":"struct Attestation[]","components":[{"name":"uid","type":"bytes32","internalType":"bytes32"},{"name":"schema","type":"bytes32","internalType":"bytes32"},{"name":"time","type":"uint64","internalType":"uint64"},{"name":"expirationTime","type":"uint64","internalType":"uint64"},{"name":"revocationTime","type":"uint64","internalType":"uint64"},{"name":"refUID","type":"bytes32","internalType":"bytes32"},{"name":"recipient","type":"address","internalType":"address"},{"name":"attester","type":"address","internalType":"address"},{"name":"revocable","type":"bool","internalType":"bool"},{"name":"data","type":"bytes","internalType":"bytes"}]},{"name":"values","type":"uint256[]","internalType":"uint256[]"}],"outputs":[{"name":"","type":"bool","internalType":"bool"}],"stateMutability":"payable"},{"type":"function","name":"owner","inputs":[],"outputs":[{"name":"","type":"address","internalType":"address"}],"stateMutability":"view"},{"type":"function","name":"proxiableUUID","inputs":[],"outputs":[{"name":"","type":"bytes32","internalType":"bytes32"}],"stateMutability":"view"},{"type":"function","name":"renounceOwnership","inputs":[],"outputs":[],"stateMutability":"nonpayable"},{"type":"function","name":"revoke","inputs":[{"name":"attestation","type":"tuple","internalType":"struct Attestation","components":[{"name":"uid","type":"bytes32","internalType":"bytes32"},{"name":"schema","type":"bytes32","internalType":"bytes32"},{"name":"time","type":"uint64","internalType":"uint64"},{"name":"expirationTime","type":"uint64","internalType":"uint64"},{"name":"revocationTime","type":"uint64","internalType":"uint64"},{"name":"refUID","type":"bytes32","internalType":"bytes32"},{"name":"recipient","type":"address","internalType":"address"},{"name":"attester","type":"address","internalType":"address"},{"name":"revocable","type":"bool","internalType":"bool"},{"name":"data","type":"bytes","internalType":"bytes"}]}],"outputs":[{"name":"","type":"bool","internalType":"bool"}],"stateMutability":"payable"},{"type":"function","name":"transferOwnership","inputs":[{"name":"newOwner","type":"address","internalType":"address"}],"outputs":[],"stateMutability":"nonpayable"},{"type":"function","name":"upgradeTo","inputs":[{"name":"newImplementation","type":"address","internalType":"address"}],"outputs":[],"stateMutability":"nonpayable"},{"type":"function","name":"upgradeToAndCall","inputs":[{"name":"newImplementation","type":"address","internalType":"address"},{"name":"data","type":"bytes","internalType":"bytes"}],"outputs":[],"stateMutability":"payable"},{"type":"function","name":"version","inputs":[],"outputs":[{"name":"","type":"string","internalType":"string"}],"stateMutability":"view"},{"type":"event","name":"AdminChanged","inputs":[{"name":"previousAdmin","type":"address","indexed":false,"internalType":"address"},{"name":"newAdmin","type":"address","indexed":false,"internalType":"address"}],"anonymous":false},{"type":"event","name":"BeaconUpgraded","inputs":[{"name":"beacon","type":"address","indexed":true,"internalType":"address"}],"anonymous":false},{"type":"event","name":"Initialized","inputs":[{"name":"version","type":"uint8","indexed":false,"internalType":"uint8"}],"anonymous":false},{"type":"event","name":"OwnershipTransferred","inputs":[{"name":"previousOwner","type":"address","indexed":true,"internalType":"address"},{"name":"newOwner","type":"address","indexed":true,"internalType":"address"}],"anonymous":false},{"type":"event","name":"Upgraded","inputs":[{"name":"implementation","type":"address","indexed":true,"internalType":"address"}],"anonymous":false},{"type":"error","name":"AccessDenied","inputs":[]},{"type":"error","name":"InsufficientValue","inputs":[]},{"type":"error","name":"InvalidEAS","inputs":[]},{"type":"error","name":"InvalidLength","inputs":[]},{"type":"error","name":"NotGardenOperator","inputs":[]},{"type":"error","name":"NotInActionRegistry","inputs":[]},{"type":"error","name":"NotInWorkRegistry","inputs":[]},{"type":"error","name":"NotPayable","inputs":[]}],"bytecode":{"object":"0x6101403461019e57611c9190601f38839003908101601f19168201906001600160401b038211838310176101a2578083916040958694855283398101031261019e57610056602061004f836101b6565b92016101b6565b6001608052600360a0525f60c052906001600160a01b0316801561018d5760e052610100913083526101209182525f5460ff8160081c166101395760ff80821603610100575b505190611ac692836101cb843960805183610462015260a0518361048e015260c051836104bd015260e051838181610f2901526112ad01525182818161056b0152818161066001526108b40152518181816103d50152818161135701526117f90152f35b60ff90811916175f557f7f26b83ff96e1f2b6a682f133852f6798a09c465da95921460cefb38474024986020825160ff8152a15f61009c565b815162461bcd60e51b815260206004820152602760248201527f496e697469616c697a61626c653a20636f6e747261637420697320696e697469604482015266616c697a696e6760c81b6064820152608490fd5b82516341bc07ff60e11b8152600490fd5b5f80fd5b634e487b7160e01b5f52604160045260245ffd5b51906001600160a01b038216820361019e5756fe60406080815260048036101561001e575b5050361561001c575f80fd5b005b5f3560e01c80633659cfe61461088e5780634f1ef2861461061257806352d1902d1461055857806354fd4d501461044c578063715018a614610404578063801f45dc146103c157806388e5b2d91461033a5780638da5cb5b1461031257806391db0b7e146102f2578063c4d66de8146101b0578063ce46e04614610195578063e49617e114610171578063e60c35051461014c5763f2fde38b036100105734610148576020366003190112610148576100d5610a0e565b916100de610e9a565b6001600160a01b038316156100f65761001c83610ef2565b906020608492519162461bcd60e51b8352820152602660248201527f4f776e61626c653a206e6577206f776e657220697320746865207a65726f206160448201526564647265737360d01b6064820152fd5b5f80fd5b60208361016861015b36610ba2565b610163610f27565b6111b8565b90519015158152f35b60208361017d36610ba2565b50610186610f27565b61018e610e9a565b5160018152f35b8234610148575f366003190112610148576020905160018152f35b5034610148576020366003190112610148576101ca610a0e565b5f5460ff8160081c1615928380946102e5575b80156102ce575b15610274575060ff1981166001175f55610227919083610262575b5061021960ff5f5460081c16610214816115e7565b6115e7565b61022233610ef2565b610ef2565b61022d57005b60207f7f26b83ff96e1f2b6a682f133852f6798a09c465da95921460cefb38474024989161ff00195f54165f555160018152a1005b61ffff1916610101175f9081556101ff565b608490602086519162461bcd60e51b8352820152602e60248201527f496e697469616c697a61626c653a20636f6e747261637420697320616c72656160448201526d191e481a5b9a5d1a585b1a5e995960921b6064820152fd5b50303b1580156101e45750600160ff8316146101e4565b50600160ff8316106101dd565b60208361016861030136610b58565b9261030d929192610f27565b610cb7565b8234610148575f3660031901126101485760335490516001600160a01b039091168152602090f35b509061034536610b58565b9194610352939193610f27565b8286036103b3575f92345b87851061036e576020875160018152f35b610379858388610c70565b35908082116103a35790600191610391878b88610c94565b5061039a610e9a565b0394019361035d565b875163044044a560e21b81528490fd5b845163251f56a160e21b8152fd5b8234610148575f36600319011261014857517f00000000000000000000000000000000000000000000000000000000000000006001600160a01b03168152602090f35b34610148575f3660031901126101485761041c610e9a565b603380546001600160a01b031981169091555f906001600160a01b03165f80516020611a5a8339815191528280a3005b8234610148575f366003190112610148576104867f0000000000000000000000000000000000000000000000000000000000000000610d39565b6105546104b27f0000000000000000000000000000000000000000000000000000000000000000610d39565b9261054560226104e17f0000000000000000000000000000000000000000000000000000000000000000610d39565b9583519687916020976104fc815180928b8088019101610ae2565b830190601760f91b91828a82015261051d825180938c602185019101610ae2565b01906021820152610536825180938a8785019101610ae2565b01036002810187520185610a6e565b51928284938452830190610b03565b0390f35b5034610148575f366003190112610148577f00000000000000000000000000000000000000000000000000000000000000006001600160a01b031630036105af57602082515f80516020611a3a8339815191528152f35b6020608492519162461bcd60e51b8352820152603860248201527f555550535570677261646561626c653a206d757374206e6f742062652063616c6044820152771b1959081d1a1c9bdd59da0819195b1959d85d1958d85b1b60421b6064820152fd5b508160031936011261014857610626610a0e565b916024356001600160401b0381116101485736602382011215610148576106569036906024818601359101610aac565b6001600160a01b037f0000000000000000000000000000000000000000000000000000000000000000811692919061069030851415610bd4565b6106ac5f80516020611a3a833981519152948286541614610c22565b6106b4610e9a565b5f805160206119fa8339815191525460ff16156106d957505050505061001c90611647565b85168251936352d1902d60e01b855260209485818881865afa5f918161085f575b5061074657845162461bcd60e51b8152808801879052602e60248201525f80516020611a9a83398151915260448201526d6f6e206973206e6f74205555505360901b6064820152608490fd5b959192950361080a575061075985611647565b5f80516020611a7a8339815191525f80a2825115801590610802575b61077b57005b61001c935f8083519561078d87610a53565b602787527f416464726573733a206c6f772d6c6576656c2064656c65676174652063616c6c86880152660819985a5b195960ca1b858801528581519101845af4913d156107f8573d6107ea6107e182610a91565b92519283610a6e565b81525f81943d92013e61195c565b506060925061195c565b506001610775565b825162461bcd60e51b8152908101849052602960248201527f45524331393637557067726164653a20756e737570706f727465642070726f786044820152681a58589b195555525160ba1b6064820152608490fd5b9091508681813d8311610887575b6108778183610a6e565b810103126101485751905f6106fa565b503d61086d565b503461014857602080600319360112610148576108a9610a0e565b926001600160a01b037f000000000000000000000000000000000000000000000000000000000000000081166108e130821415610bd4565b6108fd5f80516020611a3a833981519152918383541614610c22565b610905610e9a565b82519161091183610a24565b5f83525f805160206119fa8339815191525460ff161561093a5750505050505061001c90611647565b86169083516352d1902d60e01b815285818881865afa5f91816109df575b506109a457845162461bcd60e51b8152808801879052602e60248201525f80516020611a9a83398151915260448201526d6f6e206973206e6f74205555505360901b6064820152608490fd5b959192950361080a57506109b785611647565b5f80516020611a7a8339815191525f80a28251158015906109d85761077b57005b505f610775565b9091508681813d8311610a07575b6109f78183610a6e565b810103126101485751905f610958565b503d6109ed565b600435906001600160a01b038216820361014857565b602081019081106001600160401b03821117610a3f57604052565b634e487b7160e01b5f52604160045260245ffd5b606081019081106001600160401b03821117610a3f57604052565b601f909101601f19168101906001600160401b03821190821017610a3f57604052565b6001600160401b038111610a3f57601f01601f191660200190565b929192610ab882610a91565b91610ac66040519384610a6e565b829481845281830111610148578281602093845f960137010152565b5f5b838110610af35750505f910152565b8181015183820152602001610ae4565b90602091610b1c81518092818552858086019101610ae2565b601f01601f1916010190565b9181601f84011215610148578235916001600160401b038311610148576020808501948460051b01011161014857565b6040600319820112610148576001600160401b03916004358381116101485782610b8491600401610b28565b9390939260243591821161014857610b9e91600401610b28565b9091565b6003199060208183011261014857600435916001600160401b0383116101485782610140920301126101485760040190565b15610bdb57565b60405162461bcd60e51b815260206004820152602c60248201525f80516020611a1a83398151915260448201526b19195b1959d85d1958d85b1b60a21b6064820152608490fd5b15610c2957565b60405162461bcd60e51b815260206004820152602c60248201525f80516020611a1a83398151915260448201526b6163746976652070726f787960a01b6064820152608490fd5b9190811015610c805760051b0190565b634e487b7160e01b5f52603260045260245ffd5b9190811015610c805760051b8101359061013e1981360301821215610148570190565b92909192818303610d27575f91345b848410610cd857505050505050600190565b610ce3848388610c70565b35818111610d1557610cf9610163868887610c94565b15610d0a5760019103930192610cc6565b505050505050505f90565b60405163044044a560e21b8152600490fd5b60405163251f56a160e21b8152600490fd5b5f908072184f03e93ff9f4daa797ed6e38ed64bf6a1f0160401b80821015610e8c575b506904ee2d6d415b85acef8160201b80831015610e7d575b50662386f26fc1000080831015610e6e575b506305f5e10080831015610e5f575b5061271080831015610e50575b506064821015610e40575b600a80921015610e36575b6001908160216001860195610dcc87610a91565b96610dda6040519889610a6e565b808852610de9601f1991610a91565b01366020890137860101905b610e01575b5050505090565b5f19019083906f181899199a1a9b1b9c1cb0b131b232b360811b8282061a835304918215610e3157919082610df5565b610dfa565b9160010191610db8565b9190606460029104910191610dad565b6004919392049101915f610da2565b6008919392049101915f610d95565b6010919392049101915f610d86565b6020919392049101915f610d74565b60409350810491505f610d5c565b6033546001600160a01b03163303610eae57565b606460405162461bcd60e51b815260206004820152602060248201527f4f776e61626c653a2063616c6c6572206973206e6f7420746865206f776e65726044820152fd5b603380546001600160a01b039283166001600160a01b0319821681179092559091165f80516020611a5a8339815191525f80a3565b7f00000000000000000000000000000000000000000000000000000000000000006001600160a01b03163303610f5957565b604051634ca8886760e01b8152600490fd5b51906001600160401b038216820361014857565b51906001600160a01b038216820361014857565b5190811515820361014857565b90929192610fad81610a91565b91610fbb6040519384610a6e565b829482845282820111610148576020610fd5930190610ae2565b565b356001600160a01b03811681036101485790565b9080601f8301121561014857815161100592602001610fa0565b90565b6001600160401b038111610a3f5760051b60200190565b81601f820112156101485780519160209161103984611008565b936110476040519586610a6e565b808552838086019160051b8301019280841161014857848301915b8483106110725750505050505090565b82516001600160401b03811161014857869161109384848094890101610feb565b815201920191611062565b60209182828203126101485781516001600160401b039283821161014857019160c083830312610148576040519360c0850185811083821117610a3f5760405283518552808401518186015260408401518281116101485783611102918601610feb565b60408601526060840151828111610148578361111f918601610feb565b606086015260808401518281116101485784019083601f830112156101485781519161114a83611008565b926111586040519485610a6e565b808452828085019160051b83010191868311610148578301905b8282106111a05750505050608085015260a083015190811161014857611198920161101f565b60a082015290565b81516008811015610148578152908301908301611172565b6101209081810135601e1982360301811215610148578101803592906001600160401b0380851161014857602094858301908036038213610148578301928684019187828603126101485735838111610148576080910180940312610148576040908151966080880188811085821117610a3f57835280850135885280880191838601358352606086013595861515870361014857848a0196875260808101359086821161014857019080603f830112156101485781858461127d9401359101610aac565b6060890152905182516328c44a9960e21b81526004808201929092529590936001600160a01b0392915f886024817f000000000000000000000000000000000000000000000000000000000000000088165afa9788156115dd575f986114d2575b50505060c0860182815116836112f660c08b01610fd7565b16036114c25760e08361130c9251169801610fd7565b8351631d65ef1f60e21b81529083168582015281816024818b5afa9182156114b8575f92611482575b505015611474575f8751602484518094819363b6e7687360e01b8352888301527f0000000000000000000000000000000000000000000000000000000000000000165afa90811561146a575f91611448575b50511561143b575050511515806113b7575b6113a6575b505050600190565b6113af926116d6565b5f808061139e565b50600a4614801561142f575b8015611424575b8015611418575b801561140c575b8015611401575b80156113f6575b8061139957506105304614611399565b5061053146146113e6565b5061a4ec46146113df565b5062014a3446146113d8565b5062aa36a746146113d1565b5061a4b146146113ca565b5062aa37dc46146113c3565b51632db1a5e960e11b8152fd5b61146491503d805f833e61145c8183610a6e565b81019061109e565b5f611387565b82513d5f823e3d90fd5b5051633cebab8560e21b8152fd5b90809250813d83116114b1575b6114998183610a6e565b81010312610148576114aa90610f93565b5f80611335565b503d61148f565b84513d5f823e3d90fd5b50505051630d7d712f60e31b8152fd5b90919297503d805f833e6114e68183610a6e565b810190888183031261014857805190848211610148570192610140938481840312610148578651948501858110838211176115ca57875280518552898101518a860152611534878201610f6b565b8786015261154460608201610f6b565b606086015261155560808201610f6b565b608086015260a081015160a086015261157060c08201610f7f565b60c086015261158160e08201610f7f565b60e0860152610100611594818301610f93565b908601528381015191821161014857019080601f830112156101485781516115bd928a01610fa0565b90820152945f80806112de565b604189634e487b7160e01b5f525260245ffd5b85513d5f823e3d90fd5b156115ee57565b60405162461bcd60e51b815260206004820152602b60248201527f496e697469616c697a61626c653a20636f6e7472616374206973206e6f74206960448201526a6e697469616c697a696e6760a81b6064820152608490fd5b803b1561167b575f80516020611a3a83398151915280546001600160a01b0319166001600160a01b03909216919091179055565b60405162461bcd60e51b815260206004820152602d60248201527f455243313936373a206e657720696d706c656d656e746174696f6e206973206e60448201526c1bdd08184818dbdb9d1c9858dd609a1b6064820152608490fd5b6040805163f89b9b9360e01b815260209492936001600160a01b03938416918681600481865afa9081156114b8575f9161192f575b5015611927576101200151928351840186810194878183031261014857808801516001600160401b0391908281116101485760a09101809303126101485784519560a0870187811083821117610a3f5786528883015187528583015182811161014857818a61177c92860101610feb565b89880152606083015182811161014857818a61179a92860101610feb565b86880152608083015182811161014857818a6117b892860101610feb565b606088015260a083015191821161014857886117d892608094010161101f565b94019384525f8551602485518094819363b6e7687360e01b835260048301527f0000000000000000000000000000000000000000000000000000000000000000165afa90811561191d579083915f91611903575b500151926060850151908681515115155f146118df57505190815115610c8057869461189a946118a95f9388806118879701519a5b01519251632de7aee760e11b815260806004820152998a98899788966084880190610b03565b6003199384888303016024890152610b03565b91858303016044860152610b03565b90606483015203925af16118bb575050565b813d83116118d8575b6118ce8183610a6e565b8101031261014857565b503d6118c4565b945f9150846118a9611887948861189a98516118fa81610a24565b8681529a611861565b61191791503d805f833e61145c8183610a6e565b5f61182c565b83513d5f823e3d90fd5b505050505050565b90508681813d8311611955575b6119468183610a6e565b8101031261014857515f61170b565b503d61193c565b919290156119be5750815115611970575090565b3b156119795790565b60405162461bcd60e51b815260206004820152601d60248201527f416464726573733a2063616c6c20746f206e6f6e2d636f6e74726163740000006044820152606490fd5b8251909150156119d15750805190602001fd5b60405162461bcd60e51b8152602060048201529081906119f5906024830190610b03565b0390fdfe4910fdfa16fed3260ed0e7147f7cc6da11a60208b5b9406d12a635614ffd914346756e6374696f6e206d7573742062652063616c6c6564207468726f75676820360894a13ba1a3210667c828492db98dca3e2076cc3735a920a3ca505d382bbc8be0079c531659141344cd1fd0a4f28419497f9722a3daafe3b4186f6b6457e0bc7cd75a20ee27fd9adebab32041f755214dbc6bffa90cc0225b39da2e5c2d3b45524331393637557067726164653a206e657720696d706c656d656e74617469a164736f6c6343000819000a","linkReferences":{}},"methodIdentifiers":{"ACTION_REGISTRY()":"801f45dc","attest((bytes32,bytes32,uint64,uint64,uint64,bytes32,address,address,bool,bytes))":"e60c3505","initialize(address)":"c4d66de8","isPayable()":"ce46e046","multiAttest((bytes32,bytes32,uint64,uint64,uint64,bytes32,address,address,bool,bytes)[],uint256[])":"91db0b7e","multiRevoke((bytes32,bytes32,uint64,uint64,uint64,bytes32,address,address,bool,bytes)[],uint256[])":"88e5b2d9","owner()":"8da5cb5b","proxiableUUID()":"52d1902d","renounceOwnership()":"715018a6","revoke((bytes32,bytes32,uint64,uint64,uint64,bytes32,address,address,bool,bytes))":"e49617e1","transferOwnership(address)":"f2fde38b","upgradeTo(address)":"3659cfe6","upgradeToAndCall(address,bytes)":"4f1ef286","version()":"54fd4d50"},"id":148}