{"abi":[{"type":"constructor","inputs":[{"name":"easAddrs","type":"address","internalType":"address"},{"name":"actionAddrs","type":"address","internalType":"address"}],"stateMutability":"nonpayable"},{"type":"receive","stateMutability":"payable"},{"type":"function","name":"ACTION_REGISTRY","inputs":[],"outputs":[{"name":"","type":"address","internalType":"address"}],"stateMutability":"view"},{"type":"function","name":"attest","inputs":[{"name":"attestation","type":"tuple","internalType":"struct Attestation","components":[{"name":"uid","type":"bytes32","internalType":"bytes32"},{"name":"schema","type":"bytes32","internalType":"bytes32"},{"name":"time","type":"uint64","internalType":"uint64"},{"name":"expirationTime","type":"uint64","internalType":"uint64"},{"name":"revocationTime","type":"uint64","internalType":"uint64"},{"name":"refUID","type":"bytes32","internalType":"bytes32"},{"name":"recipient","type":"address","internalType":"address"},{"name":"attester","type":"address","internalType":"address"},{"name":"revocable","type":"bool","internalType":"bool"},{"name":"data","type":"bytes","internalType":"bytes"}]}],"outputs":[{"name":"","type":"bool","internalType":"bool"}],"stateMutability":"payable"},{"type":"function","name":"greenGoodsResolver","inputs":[],"outputs":[{"name":"","type":"address","internalType":"contract IGreenGoodsResolver"}],"stateMutability":"view"},{"type":"function","name":"initialize","inputs":[{"name":"_multisig","type":"address","internalType":"address"}],"outputs":[],"stateMutability":"nonpayable"},{"type":"function","name":"isPayable","inputs":[],"outputs":[{"name":"","type":"bool","internalType":"bool"}],"stateMutability":"pure"},{"type":"function","name":"multiAttest","inputs":[{"name":"attestations","type":"tuple[]","internalType":"struct Attestation[]","components":[{"name":"uid","type":"bytes32","internalType":"bytes32"},{"name":"schema","type":"bytes32","internalType":"bytes32"},{"name":"time","type":"uint64","internalType":"uint64"},{"name":"expirationTime","type":"uint64","internalType":"uint64"},{"name":"revocationTime","type":"uint64","internalType":"uint64"},{"name":"refUID","type":"bytes32","internalType":"bytes32"},{"name":"recipient","type":"address","internalType":"address"},{"name":"attester","type":"address","internalType":"address"},{"name":"revocable","type":"bool","internalType":"bool"},{"name":"data","type":"bytes","internalType":"bytes"}]},{"name":"values","type":"uint256[]","internalType":"uint256[]"}],"outputs":[{"name":"","type":"bool","internalType":"bool"}],"stateMutability":"payable"},{"type":"function","name":"multiRevoke","inputs":[{"name":"attestations","type":"tuple[]","internalType":"struct Attestation[]","components":[{"name":"uid","type":"bytes32","internalType":"bytes32"},{"name":"schema","type":"bytes32","internalType":"bytes32"},{"name":"time","type":"uint64","internalType":"uint64"},{"name":"expirationTime","type":"uint64","internalType":"uint64"},{"name":"revocationTime","type":"uint64","internalType":"uint64"},{"name":"refUID","type":"bytes32","internalType":"bytes32"},{"name":"recipient","type":"address","internalType":"address"},{"name":"attester","type":"address","internalType":"address"},{"name":"revocable","type":"bool","internalType":"bool"},{"name":"data","type":"bytes","internalType":"bytes"}]},{"name":"values","type":"uint256[]","internalType":"uint256[]"}],"outputs":[{"name":"","type":"bool","internalType":"bool"}],"stateMutability":"payable"},{"type":"function","name":"owner","inputs":[],"outputs":[{"name":"","type":"address","internalType":"address"}],"stateMutability":"view"},{"type":"function","name":"proxiableUUID","inputs":[],"outputs":[{"name":"","type":"bytes32","internalType":"bytes32"}],"stateMutability":"view"},{"type":"function","name":"renounceOwnership","inputs":[],"outputs":[],"stateMutability":"nonpayable"},{"type":"function","name":"revoke","inputs":[{"name":"attestation","type":"tuple","internalType":"struct Attestation","components":[{"name":"uid","type":"bytes32","internalType":"bytes32"},{"name":"schema","type":"bytes32","internalType":"bytes32"},{"name":"time","type":"uint64","internalType":"uint64"},{"name":"expirationTime","type":"uint64","internalType":"uint64"},{"name":"revocationTime","type":"uint64","internalType":"uint64"},{"name":"refUID","type":"bytes32","internalType":"bytes32"},{"name":"recipient","type":"address","internalType":"address"},{"name":"attester","type":"address","internalType":"address"},{"name":"revocable","type":"bool","internalType":"bool"},{"name":"data","type":"bytes","internalType":"bytes"}]}],"outputs":[{"name":"","type":"bool","internalType":"bool"}],"stateMutability":"payable"},{"type":"function","name":"setGreenGoodsResolver","inputs":[{"name":"_resolver","type":"address","internalType":"address"}],"outputs":[],"stateMutability":"nonpayable"},{"type":"function","name":"transferOwnership","inputs":[{"name":"newOwner","type":"address","internalType":"address"}],"outputs":[],"stateMutability":"nonpayable"},{"type":"function","name":"upgradeTo","inputs":[{"name":"newImplementation","type":"address","internalType":"address"}],"outputs":[],"stateMutability":"nonpayable"},{"type":"function","name":"upgradeToAndCall","inputs":[{"name":"newImplementation","type":"address","internalType":"address"},{"name":"data","type":"bytes","internalType":"bytes"}],"outputs":[],"stateMutability":"payable"},{"type":"function","name":"version","inputs":[],"outputs":[{"name":"","type":"string","internalType":"string"}],"stateMutability":"view"},{"type":"event","name":"AdminChanged","inputs":[{"name":"previousAdmin","type":"address","indexed":false,"internalType":"address"},{"name":"newAdmin","type":"address","indexed":false,"internalType":"address"}],"anonymous":false},{"type":"event","name":"BeaconUpgraded","inputs":[{"name":"beacon","type":"address","indexed":true,"internalType":"address"}],"anonymous":false},{"type":"event","name":"GreenGoodsResolverUpdated","inputs":[{"name":"oldResolver","type":"address","indexed":true,"internalType":"address"},{"name":"newResolver","type":"address","indexed":true,"internalType":"address"}],"anonymous":false},{"type":"event","name":"Initialized","inputs":[{"name":"version","type":"uint8","indexed":false,"internalType":"uint8"}],"anonymous":false},{"type":"event","name":"OwnershipTransferred","inputs":[{"name":"previousOwner","type":"address","indexed":true,"internalType":"address"},{"name":"newOwner","type":"address","indexed":true,"internalType":"address"}],"anonymous":false},{"type":"event","name":"Upgraded","inputs":[{"name":"implementation","type":"address","indexed":true,"internalType":"address"}],"anonymous":false},{"type":"error","name":"AccessDenied","inputs":[]},{"type":"error","name":"InsufficientValue","inputs":[]},{"type":"error","name":"InvalidEAS","inputs":[]},{"type":"error","name":"InvalidLength","inputs":[]},{"type":"error","name":"NotGardenOperator","inputs":[]},{"type":"error","name":"NotInActionRegistry","inputs":[]},{"type":"error","name":"NotInWorkRegistry","inputs":[]},{"type":"error","name":"NotPayable","inputs":[]}],"bytecode":{"object":"0x6101403461019e57611f1690601f38839003908101601f19168201906001600160401b038211838310176101a2578083916040958694855283398101031261019e57610056602061004f836101b6565b92016101b6565b6001608052600360a0525f60c052906001600160a01b0316801561018d5760e052610100913083526101209182525f5460ff8160081c166101395760ff80821603610100575b505190611d4b92836101cb84396080518361049a015260a051836104c6015260c051836104f5015260e051838181610fb401526113e80152518281816105a30152818161069801526108ec0152518181816103a4015281816114a80152611a840152f35b60ff90811916175f557f7f26b83ff96e1f2b6a682f133852f6798a09c465da95921460cefb38474024986020825160ff8152a15f61009c565b815162461bcd60e51b815260206004820152602760248201527f496e697469616c697a61626c653a20636f6e747261637420697320696e697469604482015266616c697a696e6760c81b6064820152608490fd5b82516341bc07ff60e11b8152600490fd5b5f80fd5b634e487b7160e01b5f52604160045260245ffd5b51906001600160a01b038216820361019e5756fe60406080815260048036101561001e575b5050361561001c575f80fd5b005b5f3560e01c80633659cfe6146108c65780634f1ef2861461064a57806352d1902d1461059057806354fd4d5014610484578063715018a61461043c57806375aba7ce146103d3578063801f45dc1461039057806388e5b2d9146103705780638da5cb5b1461034857806391db0b7e14610328578063c4d66de8146101e6578063ce46e046146101cb578063d83243d7146101a3578063e49617e114610187578063e60c3505146101625763f2fde38b03610010573461015e57602036600319011261015e576100eb610a46565b916100f4610f25565b6001600160a01b0383161561010c5761001c83610f7d565b906020608492519162461bcd60e51b8352820152602660248201527f4f776e61626c653a206e6577206f776e657220697320746865207a65726f206160448201526564647265737360d01b6064820152fd5b5f80fd5b60208361017e61017136610bda565b610179610fb2565b6112f3565b90519015158152f35b60208361017e61019636610bda565b61019e610fb2565b611017565b823461015e575f36600319011261015e5760655490516001600160a01b039091168152602090f35b823461015e575f36600319011261015e576020905160018152f35b503461015e57602036600319011261015e57610200610a46565b5f5460ff8160081c16159283809461031b575b8015610304575b156102aa575060ff1981166001175f5561025d919083610298575b5061024f60ff5f5460081c1661024a8161185f565b61185f565b61025833610f7d565b610f7d565b61026357005b60207f7f26b83ff96e1f2b6a682f133852f6798a09c465da95921460cefb38474024989161ff00195f54165f555160018152a1005b61ffff1916610101175f908155610235565b608490602086519162461bcd60e51b8352820152602e60248201527f496e697469616c697a61626c653a20636f6e747261637420697320616c72656160448201526d191e481a5b9a5d1a585b1a5e995960921b6064820152fd5b50303b15801561021a5750600160ff83161461021a565b50600160ff831610610213565b60208361017e61033736610b90565b92610343929192610fb2565b610d71565b823461015e575f36600319011261015e5760335490516001600160a01b039091168152602090f35b60208361017e61037f36610b90565b9261038b929192610fb2565b610cef565b823461015e575f36600319011261015e57517f00000000000000000000000000000000000000000000000000000000000000006001600160a01b03168152602090f35b3461015e57602036600319011261015e576103ec610a46565b6103f4610f25565b606580546001600160a01b039283166001600160a01b0319821681179092559091167ff71e358771c6d006de45df6659e859b233d0f6db2329275c093b77f52f92a2fb5f80a3005b3461015e575f36600319011261015e57610454610f25565b603380546001600160a01b031981169091555f906001600160a01b03165f80516020611cdf8339815191528280a3005b823461015e575f36600319011261015e576104be7f0000000000000000000000000000000000000000000000000000000000000000610dc4565b61058c6104ea7f0000000000000000000000000000000000000000000000000000000000000000610dc4565b9261057d60226105197f0000000000000000000000000000000000000000000000000000000000000000610dc4565b958351968791602097610534815180928b8088019101610b1a565b830190601760f91b91828a820152610555825180938c602185019101610b1a565b0190602182015261056e825180938a8785019101610b1a565b01036002810187520185610aa6565b51928284938452830190610b3b565b0390f35b503461015e575f36600319011261015e577f00000000000000000000000000000000000000000000000000000000000000006001600160a01b031630036105e757602082515f80516020611cbf8339815191528152f35b6020608492519162461bcd60e51b8352820152603860248201527f555550535570677261646561626c653a206d757374206e6f742062652063616c6044820152771b1959081d1a1c9bdd59da0819195b1959d85d1958d85b1b60421b6064820152fd5b508160031936011261015e5761065e610a46565b916024356001600160401b03811161015e573660238201121561015e5761068e9036906024818601359101610ae4565b6001600160a01b037f000000000000000000000000000000000000000000000000000000000000000081169291906106c830851415610c0c565b6106e45f80516020611cbf833981519152948286541614610c5a565b6106ec610f25565b5f80516020611c7f8339815191525460ff161561071157505050505061001c906118bf565b85168251936352d1902d60e01b855260209485818881865afa5f9181610897575b5061077e57845162461bcd60e51b8152808801879052602e60248201525f80516020611d1f83398151915260448201526d6f6e206973206e6f74205555505360901b6064820152608490fd5b95919295036108425750610791856118bf565b5f80516020611cff8339815191525f80a282511580159061083a575b6107b357005b61001c935f808351956107c587610a8b565b602787527f416464726573733a206c6f772d6c6576656c2064656c65676174652063616c6c86880152660819985a5b195960ca1b858801528581519101845af4913d15610830573d61082261081982610ac9565b92519283610aa6565b81525f81943d92013e611be1565b5060609250611be1565b5060016107ad565b825162461bcd60e51b8152908101849052602960248201527f45524331393637557067726164653a20756e737570706f727465642070726f786044820152681a58589b195555525160ba1b6064820152608490fd5b9091508681813d83116108bf575b6108af8183610aa6565b8101031261015e5751905f610732565b503d6108a5565b503461015e5760208060031936011261015e576108e1610a46565b926001600160a01b037f0000000000000000000000000000000000000000000000000000000000000000811661091930821415610c0c565b6109355f80516020611cbf833981519152918383541614610c5a565b61093d610f25565b82519161094983610a5c565b5f83525f80516020611c7f8339815191525460ff16156109725750505050505061001c906118bf565b86169083516352d1902d60e01b815285818881865afa5f9181610a17575b506109dc57845162461bcd60e51b8152808801879052602e60248201525f80516020611d1f83398151915260448201526d6f6e206973206e6f74205555505360901b6064820152608490fd5b959192950361084257506109ef856118bf565b5f80516020611cff8339815191525f80a2825115801590610a10576107b357005b505f6107ad565b9091508681813d8311610a3f575b610a2f8183610aa6565b8101031261015e5751905f610990565b503d610a25565b600435906001600160a01b038216820361015e57565b602081019081106001600160401b03821117610a7757604052565b634e487b7160e01b5f52604160045260245ffd5b606081019081106001600160401b03821117610a7757604052565b601f909101601f19168101906001600160401b03821190821017610a7757604052565b6001600160401b038111610a7757601f01601f191660200190565b929192610af082610ac9565b91610afe6040519384610aa6565b82948184528183011161015e578281602093845f960137010152565b5f5b838110610b2b5750505f910152565b8181015183820152602001610b1c565b90602091610b5481518092818552858086019101610b1a565b601f01601f1916010190565b9181601f8401121561015e578235916001600160401b03831161015e576020808501948460051b01011161015e57565b604060031982011261015e576001600160401b039160043583811161015e5782610bbc91600401610b60565b9390939260243591821161015e57610bd691600401610b60565b9091565b6003199060208183011261015e57600435916001600160401b03831161015e57826101409203011261015e5760040190565b15610c1357565b60405162461bcd60e51b815260206004820152602c60248201525f80516020611c9f83398151915260448201526b19195b1959d85d1958d85b1b60a21b6064820152608490fd5b15610c6157565b60405162461bcd60e51b815260206004820152602c60248201525f80516020611c9f83398151915260448201526b6163746976652070726f787960a01b6064820152608490fd5b9190811015610cb85760051b0190565b634e487b7160e01b5f52603260045260245ffd5b9190811015610cb85760051b8101359061013e198136030182121561015e570190565b92909192818303610d5f575f91345b848410610d1057505050505050600190565b610d1b848388610ca8565b35818111610d4d57610d3161019e868887610ccc565b15610d425760019103930192610cfe565b505050505050505f90565b60405163044044a560e21b8152600490fd5b60405163251f56a160e21b8152600490fd5b92909192818303610d5f575f91345b848410610d9257505050505050600190565b610d9d848388610ca8565b35818111610d4d57610db3610179868887610ccc565b15610d425760019103930192610d80565b5f908072184f03e93ff9f4daa797ed6e38ed64bf6a1f0160401b80821015610f17575b506904ee2d6d415b85acef8160201b80831015610f08575b50662386f26fc1000080831015610ef9575b506305f5e10080831015610eea575b5061271080831015610edb575b506064821015610ecb575b600a80921015610ec1575b6001908160216001860195610e5787610ac9565b96610e656040519889610aa6565b808852610e74601f1991610ac9565b01366020890137860101905b610e8c575b5050505090565b5f19019083906f181899199a1a9b1b9c1cb0b131b232b360811b8282061a835304918215610ebc57919082610e80565b610e85565b9160010191610e43565b9190606460029104910191610e38565b6004919392049101915f610e2d565b6008919392049101915f610e20565b6010919392049101915f610e11565b6020919392049101915f610dff565b60409350810491505f610de7565b6033546001600160a01b03163303610f3957565b606460405162461bcd60e51b815260206004820152602060248201527f4f776e61626c653a2063616c6c6572206973206e6f7420746865206f776e65726044820152fd5b603380546001600160a01b039283166001600160a01b0319821681179092559091165f80516020611cdf8339815191525f80a3565b7f00000000000000000000000000000000000000000000000000000000000000006001600160a01b03163303610fe457565b604051634ca8886760e01b8152600490fd5b356001600160a01b038116810361015e5790565b5190811515820361015e57565b60206001600160a01b03602461103d60e08361103560c08801610ff6565b169501610ff6565b60405194859384926336b87bd760e11b84521660048301525afa9081156110bc575f91611082575b501561107057600190565b604051633cebab8560e21b8152600490fd5b90506020813d6020116110b4575b8161109d60209383610aa6565b8101031261015e576110ae9061100a565b5f611065565b3d9150611090565b6040513d5f823e3d90fd5b51906001600160401b038216820361015e57565b51906001600160a01b038216820361015e57565b909291926110fc81610ac9565b9161110a6040519384610aa6565b82948284528282011161015e576020611124930190610b1a565b565b9080601f8301121561015e578151611140926020016110ef565b90565b6001600160401b038111610a775760051b60200190565b81601f8201121561015e5780519160209161117484611143565b936111826040519586610aa6565b808552838086019160051b8301019280841161015e57848301915b8483106111ad5750505050505090565b82516001600160401b03811161015e5786916111ce84848094890101611126565b81520192019161119d565b602091828282031261015e5781516001600160401b039283821161015e57019160c08383031261015e576040519360c0850185811083821117610a7757604052835185528084015181860152604084015182811161015e578361123d918601611126565b6040860152606084015182811161015e578361125a918601611126565b6060860152608084015182811161015e5784019083601f8301121561015e5781519161128583611143565b926112936040519485610aa6565b808452828085019160051b8301019186831161015e578301905b8282106112db5750505050608085015260a083015190811161015e576112d3920161115a565b60a082015290565b8151600881101561015e5781529083019083016112ad565b61012080820135601e198336030181121561015e5782018035916001600160401b0380841161015e5760209283810194803603861361015e5781019084820195858284031261015e57359083821161015e57019384916080928391031261015e5760409586519183830183811086821117610a7757885280870135835280830191888801358352606088013597881515890361015e57898501988952858101359087821161015e57019080603f8301121561015e57818a846113b89401359101610ae4565b6060840190815260018060a01b03948351978a51936328c44a9960e21b85526004998a86015260249a5f868d818c7f0000000000000000000000000000000000000000000000000000000000000000165afa95861561185557908e8a96959493925f98611748575b508661143560c0808b019d8e51169301610ff6565b1603611738579085949392918f8f8f988f929985928f9b60e08461145f9f9e511691019d8e610ff6565b915195869485936336b87bd760e11b855216908301525afa9081156116e8575f91611703575b50156116f3578e5f8f8f908d51935193849263b6e7687360e01b8452830152818a7f0000000000000000000000000000000000000000000000000000000000000000165afa9081156116e8575f916116c6575b5051156116b6578051151580611632575b61161f575b51151580611612575b611510575b505050505050505050505050505050600190565b6115259186015190808251830101910161194e565b01805151156115fd576115389051611a06565b51935b6115588360e08180606554169b5116985199519601511691610ff6565b915193883b1561015e578c519d8e988998635d65eb2d60e01b8a528d8a01528d890152356044880152606487015260848601521660a484015260c48301610100905261010483016115a891610b3b565b8281036003190160e48401526115bd91610b3b565b03815a5f948591f16115d9575b808080808080808080806114fc565b84116115ec575050525f808080806115ca565b604190634e487b7160e01b5f52525ffd5b508a5161160981610a5c565b5f81529361153b565b50846065541615156114f7565b61162d868c5116888c611a13565b6114ee565b50600a461480156116aa575b801561169f575b8015611693575b8015611687575b801561167c575b8015611671575b806114e9575061053046146114e9565b506105314614611661565b5061a4ec461461165a565b5062014a344614611653565b5062aa36a7461461164c565b5061a4b14614611645565b5062aa37dc461461163e565b8e51632db1a5e960e11b81528d90fd5b6116e291503d805f833e6116da8183610aa6565b8101906111d9565b5f6114d8565b508f513d5f823e3d90fd5b8e51633cebab8560e21b81528d90fd5b90508281813d8311611731575b61171a8183610aa6565b8101031261015e5761172b9061100a565b5f611485565b503d611710565b8d51630d7d712f60e31b81528c90fd5b96505095503d805f873e61175c8187610aa6565b850194818187031261015e578051908b821161015e57019561014096878188031261015e578e519788018881108d821117611843578f528051885282810151838901528e6117ab8282016110c7565b908901526117bb606082016110c7565b60608901526117cb8582016110c7565b8589015260a081015160a08901526117e560c082016110db565b60c08901526117f660e082016110db565b60e089015261010061180981830161100a565b9089015283810151908c821161015e57019686601f8901121561015e578f978b978185611838935191016110ef565b84820152965f611420565b8e60418f634e487b7160e01b5f52525ffd5b8d513d5f823e3d90fd5b1561186657565b60405162461bcd60e51b815260206004820152602b60248201527f496e697469616c697a61626c653a20636f6e7472616374206973206e6f74206960448201526a6e697469616c697a696e6760a81b6064820152608490fd5b803b156118f3575f80516020611cbf83398151915280546001600160a01b0319166001600160a01b03909216919091179055565b60405162461bcd60e51b815260206004820152602d60248201527f455243313936373a206e657720696d706c656d656e746174696f6e206973206e60448201526c1bdd08184818dbdb9d1c9858dd609a1b6064820152608490fd5b9060208282031261015e5781516001600160401b039283821161015e57019060a08282031261015e576040519260a0840184811082821117610a775760405282518452602083015181811161015e57826119a9918501611126565b6020850152604083015181811161015e57826119c6918501611126565b6040850152606083015181811161015e57826119e3918501611126565b6060850152608083015190811161015e576119fe920161115a565b608082015290565b805115610cb85760200190565b6040805163f89b9b9360e01b815260209492936001600160a01b039384169392918681600481885afa908115611bd7575f91611baa575b5015611ba257610120611a6791015186808251830101910161194e565b915f8551602484518094819363b6e7687360e01b835260048301527f0000000000000000000000000000000000000000000000000000000000000000165afa908115611b9857611b249383611b33899795611b11955f958691611b7e575b5001519288608060608c0151920180515115158714611b6957611ae89051611a06565b519a5b01519251632de7aee760e11b815260806004820152998a98899788966084880190610b3b565b6003199384888303016024890152610b3b565b91858303016044860152610b3b565b90606483015203925af1611b45575050565b813d8311611b62575b611b588183610aa6565b8101031261015e57565b503d611b4e565b508351611b7581610a5c565b8681529a611aeb565b611b9291503d8088833e6116da8183610aa6565b5f611ac5565b82513d5f823e3d90fd5b505050505050565b90508681813d8311611bd0575b611bc18183610aa6565b8101031261015e57515f611a4a565b503d611bb7565b83513d5f823e3d90fd5b91929015611c435750815115611bf5575090565b3b15611bfe5790565b60405162461bcd60e51b815260206004820152601d60248201527f416464726573733a2063616c6c20746f206e6f6e2d636f6e74726163740000006044820152606490fd5b825190915015611c565750805190602001fd5b60405162461bcd60e51b815260206004820152908190611c7a906024830190610b3b565b0390fdfe4910fdfa16fed3260ed0e7147f7cc6da11a60208b5b9406d12a635614ffd914346756e6374696f6e206d7573742062652063616c6c6564207468726f75676820360894a13ba1a3210667c828492db98dca3e2076cc3735a920a3ca505d382bbc8be0079c531659141344cd1fd0a4f28419497f9722a3daafe3b4186f6b6457e0bc7cd75a20ee27fd9adebab32041f755214dbc6bffa90cc0225b39da2e5c2d3b45524331393637557067726164653a206e657720696d706c656d656e74617469a164736f6c6343000819000a","linkReferences":{}},"methodIdentifiers":{"ACTION_REGISTRY()":"801f45dc","attest((bytes32,bytes32,uint64,uint64,uint64,bytes32,address,address,bool,bytes))":"e60c3505","greenGoodsResolver()":"d83243d7","initialize(address)":"c4d66de8","isPayable()":"ce46e046","multiAttest((bytes32,bytes32,uint64,uint64,uint64,bytes32,address,address,bool,bytes)[],uint256[])":"91db0b7e","multiRevoke((bytes32,bytes32,uint64,uint64,uint64,bytes32,address,address,bool,bytes)[],uint256[])":"88e5b2d9","owner()":"8da5cb5b","proxiableUUID()":"52d1902d","renounceOwnership()":"715018a6","revoke((bytes32,bytes32,uint64,uint64,uint64,bytes32,address,address,bool,bytes))":"e49617e1","setGreenGoodsResolver(address)":"75aba7ce","transferOwnership(address)":"f2fde38b","upgradeTo(address)":"3659cfe6","upgradeToAndCall(address,bytes)":"4f1ef286","version()":"54fd4d50"},"id":143}