{"abi":[{"type":"constructor","inputs":[{"name":"easAddrs","type":"address","internalType":"address"},{"name":"actionAddrs","type":"address","internalType":"address"},{"name":"hatsModule","type":"address","internalType":"address"}],"stateMutability":"nonpayable"},{"type":"receive","stateMutability":"payable"},{"type":"function","name":"ACTION_REGISTRY","inputs":[],"outputs":[{"name":"","type":"address","internalType":"address"}],"stateMutability":"view"},{"type":"function","name":"HATS_MODULE","inputs":[],"outputs":[{"name":"","type":"address","internalType":"contract IHats"}],"stateMutability":"view"},{"type":"function","name":"attest","inputs":[{"name":"attestation","type":"tuple","internalType":"struct Attestation","components":[{"name":"uid","type":"bytes32","internalType":"bytes32"},{"name":"schema","type":"bytes32","internalType":"bytes32"},{"name":"time","type":"uint64","internalType":"uint64"},{"name":"expirationTime","type":"uint64","internalType":"uint64"},{"name":"revocationTime","type":"uint64","internalType":"uint64"},{"name":"refUID","type":"bytes32","internalType":"bytes32"},{"name":"recipient","type":"address","internalType":"address"},{"name":"attester","type":"address","internalType":"address"},{"name":"revocable","type":"bool","internalType":"bool"},{"name":"data","type":"bytes","internalType":"bytes"}]}],"outputs":[{"name":"","type":"bool","internalType":"bool"}],"stateMutability":"payable"},{"type":"function","name":"greenGoodsResolver","inputs":[],"outputs":[{"name":"","type":"address","internalType":"contract IGreenGoodsResolver"}],"stateMutability":"view"},{"type":"function","name":"initialize","inputs":[{"name":"_multisig","type":"address","internalType":"address"}],"outputs":[],"stateMutability":"nonpayable"},{"type":"function","name":"isPayable","inputs":[],"outputs":[{"name":"","type":"bool","internalType":"bool"}],"stateMutability":"pure"},{"type":"function","name":"karmaGAPModule","inputs":[],"outputs":[{"name":"","type":"address","internalType":"contract IKarmaGAPModule"}],"stateMutability":"view"},{"type":"function","name":"multiAttest","inputs":[{"name":"attestations","type":"tuple[]","internalType":"struct Attestation[]","components":[{"name":"uid","type":"bytes32","internalType":"bytes32"},{"name":"schema","type":"bytes32","internalType":"bytes32"},{"name":"time","type":"uint64","internalType":"uint64"},{"name":"expirationTime","type":"uint64","internalType":"uint64"},{"name":"revocationTime","type":"uint64","internalType":"uint64"},{"name":"refUID","type":"bytes32","internalType":"bytes32"},{"name":"recipient","type":"address","internalType":"address"},{"name":"attester","type":"address","internalType":"address"},{"name":"revocable","type":"bool","internalType":"bool"},{"name":"data","type":"bytes","internalType":"bytes"}]},{"name":"values","type":"uint256[]","internalType":"uint256[]"}],"outputs":[{"name":"","type":"bool","internalType":"bool"}],"stateMutability":"payable"},{"type":"function","name":"multiRevoke","inputs":[{"name":"attestations","type":"tuple[]","internalType":"struct Attestation[]","components":[{"name":"uid","type":"bytes32","internalType":"bytes32"},{"name":"schema","type":"bytes32","internalType":"bytes32"},{"name":"time","type":"uint64","internalType":"uint64"},{"name":"expirationTime","type":"uint64","internalType":"uint64"},{"name":"revocationTime","type":"uint64","internalType":"uint64"},{"name":"refUID","type":"bytes32","internalType":"bytes32"},{"name":"recipient","type":"address","internalType":"address"},{"name":"attester","type":"address","internalType":"address"},{"name":"revocable","type":"bool","internalType":"bool"},{"name":"data","type":"bytes","internalType":"bytes"}]},{"name":"values","type":"uint256[]","internalType":"uint256[]"}],"outputs":[{"name":"","type":"bool","internalType":"bool"}],"stateMutability":"payable"},{"type":"function","name":"owner","inputs":[],"outputs":[{"name":"","type":"address","internalType":"address"}],"stateMutability":"view"},{"type":"function","name":"proxiableUUID","inputs":[],"outputs":[{"name":"","type":"bytes32","internalType":"bytes32"}],"stateMutability":"view"},{"type":"function","name":"renounceOwnership","inputs":[],"outputs":[],"stateMutability":"nonpayable"},{"type":"function","name":"revoke","inputs":[{"name":"attestation","type":"tuple","internalType":"struct Attestation","components":[{"name":"uid","type":"bytes32","internalType":"bytes32"},{"name":"schema","type":"bytes32","internalType":"bytes32"},{"name":"time","type":"uint64","internalType":"uint64"},{"name":"expirationTime","type":"uint64","internalType":"uint64"},{"name":"revocationTime","type":"uint64","internalType":"uint64"},{"name":"refUID","type":"bytes32","internalType":"bytes32"},{"name":"recipient","type":"address","internalType":"address"},{"name":"attester","type":"address","internalType":"address"},{"name":"revocable","type":"bool","internalType":"bool"},{"name":"data","type":"bytes","internalType":"bytes"}]}],"outputs":[{"name":"","type":"bool","internalType":"bool"}],"stateMutability":"payable"},{"type":"function","name":"setGreenGoodsResolver","inputs":[{"name":"_resolver","type":"address","internalType":"address"}],"outputs":[],"stateMutability":"nonpayable"},{"type":"function","name":"setKarmaGAPModule","inputs":[{"name":"_karmaGAPModule","type":"address","internalType":"address"}],"outputs":[],"stateMutability":"nonpayable"},{"type":"function","name":"transferOwnership","inputs":[{"name":"newOwner","type":"address","internalType":"address"}],"outputs":[],"stateMutability":"nonpayable"},{"type":"function","name":"upgradeTo","inputs":[{"name":"newImplementation","type":"address","internalType":"address"}],"outputs":[],"stateMutability":"nonpayable"},{"type":"function","name":"upgradeToAndCall","inputs":[{"name":"newImplementation","type":"address","internalType":"address"},{"name":"data","type":"bytes","internalType":"bytes"}],"outputs":[],"stateMutability":"payable"},{"type":"function","name":"version","inputs":[],"outputs":[{"name":"","type":"string","internalType":"string"}],"stateMutability":"view"},{"type":"event","name":"AdminChanged","inputs":[{"name":"previousAdmin","type":"address","indexed":false,"internalType":"address"},{"name":"newAdmin","type":"address","indexed":false,"internalType":"address"}],"anonymous":false},{"type":"event","name":"BeaconUpgraded","inputs":[{"name":"beacon","type":"address","indexed":true,"internalType":"address"}],"anonymous":false},{"type":"event","name":"GreenGoodsResolverUpdated","inputs":[{"name":"oldResolver","type":"address","indexed":true,"internalType":"address"},{"name":"newResolver","type":"address","indexed":true,"internalType":"address"}],"anonymous":false},{"type":"event","name":"Initialized","inputs":[{"name":"version","type":"uint8","indexed":false,"internalType":"uint8"}],"anonymous":false},{"type":"event","name":"KarmaGAPModuleUpdated","inputs":[{"name":"oldModule","type":"address","indexed":true,"internalType":"address"},{"name":"newModule","type":"address","indexed":true,"internalType":"address"}],"anonymous":false},{"type":"event","name":"OwnershipTransferred","inputs":[{"name":"previousOwner","type":"address","indexed":true,"internalType":"address"},{"name":"newOwner","type":"address","indexed":true,"internalType":"address"}],"anonymous":false},{"type":"event","name":"Upgraded","inputs":[{"name":"implementation","type":"address","indexed":true,"internalType":"address"}],"anonymous":false},{"type":"error","name":"AccessDenied","inputs":[]},{"type":"error","name":"InsufficientValue","inputs":[]},{"type":"error","name":"InvalidEAS","inputs":[]},{"type":"error","name":"InvalidLength","inputs":[]},{"type":"error","name":"NotGardenOperator","inputs":[]},{"type":"error","name":"NotInActionRegistry","inputs":[]},{"type":"error","name":"NotInWorkRegistry","inputs":[]},{"type":"error","name":"NotPayable","inputs":[]}],"bytecode":{"object":"0x610160346101cc57601f61200638819003918201601f191683019291906001600160401b038411838510176101d05781606092849260409687528339810103126101cc5761004c816101e4565b916100648161005d602085016101e4565b93016101e4565b6001608052600360a0525f60c0526001600160a01b0393909190841680156101bb5760e05261010093308552610120938452610140921682525f5460ff8160081c166101675760ff8082160361012e575b505191611e0d93846101f9853960805184610584015260a051846105b0015260c051846105df015260e05184818161117d01526115f401525183818161068e015281816107890152610a3f01525182818161047b015281816116c3015261189801525181818161010e0152818161123201526116670152f35b60ff90811916175f557f7f26b83ff96e1f2b6a682f133852f6798a09c465da95921460cefb38474024986020825160ff8152a15f6100b5565b815162461bcd60e51b815260206004820152602760248201527f496e697469616c697a61626c653a20636f6e747261637420697320696e697469604482015266616c697a696e6760c81b6064820152608490fd5b81516341bc07ff60e11b8152600490fd5b5f80fd5b634e487b7160e01b5f52604160045260245ffd5b51906001600160a01b03821682036101cc5756fe60406080815260048036101561001e575b5050361561001c575f80fd5b005b5f3560e01c9081633659cfe614610a185781634026d762146109f05781634f1ef2861461073a57816352d1902d1461067a57816354fd4d501461056e578163715018a61461051357816375aba7ce146104aa578163801f45dc1461046757816388e5b2d9146104475781638da5cb5b1461041f57816391db0b7e146103ff578163c4d66de8146102bc578163ce46e046146102a1578163d83243d714610279578163d9e4aaee14610210578163e49617e1146101f4578163e60c3505146101cf578163f2fde38b14610141575063fb046ade146100fb5780610010565b3461013d575f36600319011261013d57517f00000000000000000000000000000000000000000000000000000000000000006001600160a01b03168152602090f35b5f80fd5b90503461013d57602036600319011261013d5761015c610bd2565b916101656110db565b6001600160a01b0383161561017d5761001c83611133565b906020608492519162461bcd60e51b8352820152602660248201527f4f776e61626c653a206e6577206f776e657220697320746865207a65726f206160448201526564647265737360d01b6064820152fd5b6020836101eb6101de36610d64565b6101e661117b565b6114f8565b90519015158152f35b6020836101eb61020336610d64565b61020b61117b565b6111e0565b3461013d57602036600319011261013d57610229610bd2565b6102316110db565b606680546001600160a01b039283166001600160a01b0319821681179092559091167fdbf2e72ed7bd92ccbb36e552bb0c1a8df6df7e6a54ab7ddc78720975e93fc88e5f80a3005b823461013d575f36600319011261013d5760655490516001600160a01b039091168152602090f35b823461013d575f36600319011261013d576020905160018152f35b90503461013d57602036600319011261013d576102d7610bd2565b5f5460ff8160081c1615928380946103f2575b80156103db575b15610381575060ff1981166001175f5561033491908361036f575b5061032660ff5f5460081c1661032181611b8f565b611b8f565b61032f33611133565b611133565b61033a57005b60207f7f26b83ff96e1f2b6a682f133852f6798a09c465da95921460cefb38474024989161ff00195f54165f555160018152a1005b61ffff1916610101175f90815561030c565b608490602086519162461bcd60e51b8352820152602e60248201527f496e697469616c697a61626c653a20636f6e747261637420697320616c72656160448201526d191e481a5b9a5d1a585b1a5e995960921b6064820152fd5b50303b1580156102f15750600160ff8316146102f1565b50600160ff8316106102ea565b6020836101eb61040e36610d1a565b9261041a92919261117b565b610f21565b823461013d575f36600319011261013d5760335490516001600160a01b039091168152602090f35b6020836101eb61045636610d1a565b9261046292919261117b565b610e9f565b823461013d575f36600319011261013d57517f00000000000000000000000000000000000000000000000000000000000000006001600160a01b03168152602090f35b3461013d57602036600319011261013d576104c3610bd2565b6104cb6110db565b606580546001600160a01b039283166001600160a01b0319821681179092559091167ff71e358771c6d006de45df6659e859b233d0f6db2329275c093b77f52f92a2fb5f80a3005b3461013d575f36600319011261013d5761052b6110db565b603380546001600160a01b031981169091555f906001600160a01b03167f8be0079c531659141344cd1fd0a4f28419497f9722a3daafe3b4186f6b6457e08280a3005b823461013d575f36600319011261013d576105a87f0000000000000000000000000000000000000000000000000000000000000000610f74565b6106766105d47f0000000000000000000000000000000000000000000000000000000000000000610f74565b9261066760226106037f0000000000000000000000000000000000000000000000000000000000000000610f74565b95835196879160209761061e815180928b8088019101610ca4565b830190601760f91b91828a82015261063f825180938c602185019101610ca4565b01906021820152610658825180938a8785019101610ca4565b01036002810187520185610c32565b51928284938452830190610cc5565b0390f35b90503461013d575f36600319011261013d577f00000000000000000000000000000000000000000000000000000000000000006001600160a01b031630036106d257602082515f80516020611de18339815191528152f35b6020608492519162461bcd60e51b8352820152603860248201527f555550535570677261646561626c653a206d757374206e6f742062652063616c60448201527f6c6564207468726f7567682064656c656761746563616c6c00000000000000006064820152fd5b90508160031936011261013d5761074f610bd2565b916024356001600160401b03811161013d573660238201121561013d5761077f9036906024818601359101610c6e565b6001600160a01b037f000000000000000000000000000000000000000000000000000000000000000081169291906107b930851415610d96565b6107d55f80516020611de1833981519152948286541614610df7565b6107dd6110db565b7f4910fdfa16fed3260ed0e7147f7cc6da11a60208b5b9406d12a635614ffd91435460ff161561081557505050505061001c90611bef565b85168251936352d1902d60e01b855260209485818881865afa5f91816109c1575b5061089557845162461bcd60e51b8152808801879052602e60248201527f45524331393637557067726164653a206e657720696d706c656d656e7461746960448201526d6f6e206973206e6f74205555505360901b6064820152608490fd5b959192950361096c57506108a885611bef565b7fbc7cd75a20ee27fd9adebab32041f755214dbc6bffa90cc0225b39da2e5c2d3b5f80a2825115801590610964575b6108dd57005b61001c935f808351956108ef87610c17565b602787527f416464726573733a206c6f772d6c6576656c2064656c65676174652063616c6c86880152660819985a5b195960ca1b858801528581519101845af4913d1561095a573d61094c61094382610c53565b92519283610c32565b81525f81943d92013e611d43565b5060609250611d43565b5060016108d7565b825162461bcd60e51b8152908101849052602960248201527f45524331393637557067726164653a20756e737570706f727465642070726f786044820152681a58589b195555525160ba1b6064820152608490fd5b9091508681813d83116109e9575b6109d98183610c32565b8101031261013d5751905f610836565b503d6109cf565b823461013d575f36600319011261013d5760665490516001600160a01b039091168152602090f35b90503461013d5760208060031936011261013d57610a34610bd2565b926001600160a01b037f00000000000000000000000000000000000000000000000000000000000000008116610a6c30821415610d96565b610a885f80516020611de1833981519152918383541614610df7565b610a906110db565b825191610a9c83610be8565b5f83527f4910fdfa16fed3260ed0e7147f7cc6da11a60208b5b9406d12a635614ffd91435460ff1615610ad85750505050505061001c90611bef565b86169083516352d1902d60e01b815285818881865afa5f9181610ba3575b50610b5557845162461bcd60e51b8152808801879052602e60248201527f45524331393637557067726164653a206e657720696d706c656d656e7461746960448201526d6f6e206973206e6f74205555505360901b6064820152608490fd5b959192950361096c5750610b6885611bef565b7fbc7cd75a20ee27fd9adebab32041f755214dbc6bffa90cc0225b39da2e5c2d3b5f80a2825115801590610b9c576108dd57005b505f6108d7565b9091508681813d8311610bcb575b610bbb8183610c32565b8101031261013d5751905f610af6565b503d610bb1565b600435906001600160a01b038216820361013d57565b602081019081106001600160401b03821117610c0357604052565b634e487b7160e01b5f52604160045260245ffd5b606081019081106001600160401b03821117610c0357604052565b90601f801991011681019081106001600160401b03821117610c0357604052565b6001600160401b038111610c0357601f01601f191660200190565b929192610c7a82610c53565b91610c886040519384610c32565b82948184528183011161013d578281602093845f960137010152565b5f5b838110610cb55750505f910152565b8181015183820152602001610ca6565b90602091610cde81518092818552858086019101610ca4565b601f01601f1916010190565b9181601f8401121561013d578235916001600160401b03831161013d576020808501948460051b01011161013d57565b604060031982011261013d576001600160401b039160043583811161013d5782610d4691600401610cea565b9390939260243591821161013d57610d6091600401610cea565b9091565b6003199060208183011261013d57600435916001600160401b03831161013d57826101409203011261013d5760040190565b15610d9d57565b60405162461bcd60e51b815260206004820152602c60248201527f46756e6374696f6e206d7573742062652063616c6c6564207468726f7567682060448201526b19195b1959d85d1958d85b1b60a21b6064820152608490fd5b15610dfe57565b60405162461bcd60e51b815260206004820152602c60248201527f46756e6374696f6e206d7573742062652063616c6c6564207468726f7567682060448201526b6163746976652070726f787960a01b6064820152608490fd5b9190811015610e685760051b0190565b634e487b7160e01b5f52603260045260245ffd5b9190811015610e685760051b8101359061013e198136030182121561013d570190565b92909192818303610f0f575f91345b848410610ec057505050505050600190565b610ecb848388610e58565b35818111610efd57610ee161020b868887610e7c565b15610ef25760019103930192610eae565b505050505050505f90565b60405163044044a560e21b8152600490fd5b60405163251f56a160e21b8152600490fd5b92909192818303610f0f575f91345b848410610f4257505050505050600190565b610f4d848388610e58565b35818111610efd57610f636101e6868887610e7c565b15610ef25760019103930192610f30565b805f917a184f03e93ff9f4daa797ed6e38ed64bf6a1f010000000000000000808210156110cd575b506d04ee2d6d415b85acef8100000000808310156110be575b50662386f26fc10000808310156110af575b506305f5e100808310156110a0575b5061271080831015611091575b506064821015611081575b600a80921015611077575b600190816021600186019561100d87610c53565b9661101b6040519889610c32565b80885261102a601f1991610c53565b01366020890137860101905b611042575b5050505090565b5f19019083906f181899199a1a9b1b9c1cb0b131b232b360811b8282061a83530491821561107257919082611036565b61103b565b9160010191610ff9565b9190606460029104910191610fee565b6004919392049101915f610fe3565b6008919392049101915f610fd6565b6010919392049101915f610fc7565b6020919392049101915f610fb5565b60409350810491505f610f9c565b6033546001600160a01b031633036110ef57565b606460405162461bcd60e51b815260206004820152602060248201527f4f776e61626c653a2063616c6c6572206973206e6f7420746865206f776e65726044820152fd5b603380546001600160a01b039283166001600160a01b0319821681179092559091167f8be0079c531659141344cd1fd0a4f28419497f9722a3daafe3b4186f6b6457e05f80a3565b7f00000000000000000000000000000000000000000000000000000000000000006001600160a01b031633036111ad57565b604051634ca8886760e01b8152600490fd5b356001600160a01b038116810361013d5790565b5190811515820361013d57565b602061122e916111fe60e06111f760c084016111bf565b92016111bf565b604051635b1b1e7960e11b81526001600160a01b0392831660048201529116602482015291829081906044820190565b03817f00000000000000000000000000000000000000000000000000000000000000006001600160a01b03165afa9081156112c1575f91611287575b501561127557600190565b604051633cebab8560e21b8152600490fd5b90506020813d6020116112b9575b816112a260209383610c32565b8101031261013d576112b3906111d3565b5f61126a565b3d9150611295565b6040513d5f823e3d90fd5b51906001600160401b038216820361013d57565b51906001600160a01b038216820361013d57565b9092919261130181610c53565b9161130f6040519384610c32565b82948284528282011161013d576020611329930190610ca4565b565b9080601f8301121561013d578151611345926020016112f4565b90565b6001600160401b038111610c035760051b60200190565b81601f8201121561013d5780519160209161137984611348565b936113876040519586610c32565b808552838086019160051b8301019280841161013d57848301915b8483106113b25750505050505090565b82516001600160401b03811161013d5786916113d38484809489010161132b565b8152019201916113a2565b602091828282031261013d5781516001600160401b039283821161013d57019160c08383031261013d576040519360c0850185811083821117610c0357604052835185528084015181860152604084015182811161013d578361144291860161132b565b6040860152606084015182811161013d578361145f91860161132b565b6060860152608084015182811161013d5784019083601f8301121561013d5781519161148a83611348565b926114986040519485610c32565b808452828085019160051b8301019186831161013d578301905b8282106114e05750505050608085015260a083015190811161013d576114d8920161135f565b60a082015290565b8151600881101561013d5781529083019083016114b2565b610120810135601e198236030181121561013d57810180356001600160401b03811161013d576020820190803603821361013d57820191602083019160208285031261013d57356001600160401b03811161013d57608091018093031261013d5760405191608083018381106001600160401b03821117610c035760405260208101358352604081013560208401526060810135801515810361013d5760408401526080810135906001600160401b03821161013d57019080603f8301121561013d5781604060206115cd9401359101610c6e565b606082015260208101516040516328c44a9960e21b81526004810191909152915f836024817f00000000000000000000000000000000000000000000000000000000000000006001600160a01b03165afa9283156112c1575f93611a79575b5060c0838101516001600160a01b039081169161164a9084016111bf565b168103611a67576020611663916111fe60e085016111bf565b03817f00000000000000000000000000000000000000000000000000000000000000006001600160a01b03165afa9081156112c1575f91611a2d575b501561127557815160405163b6e7687360e01b815260048101919091525f816024817f00000000000000000000000000000000000000000000000000000000000000006001600160a01b03165afa9081156112c1575f91611a13575b505115611a015760408201511515806119ed575b611862575b604082015115158061184e575b61172e575b505050600190565b608061174861012085015160208082518301019101611c7e565b01805151156118395761175b9051611d36565b515b60655460c08501516020850151855160e09788015190976001600160a01b03918216979482169592949293909116919060609061179b9088016111bf565b91015192853b1561013d576118005f9894611812938a966040519c8d9b8c9a8b99635d65eb2d60e01b8b5260048b015260248a01523560448901526064880152608487015260018060a01b031660a486015261010060c4860152610104850190610cc5565b8381036003190160e485015290610cc5565b03925af1611822575b8080611726565b6001600160401b038111610c03576040525f61181b565b5060405161184681610be8565b5f815261175d565b506065546001600160a01b03161515611721565b61187a61012084015160208082518301019101611c7e565b825160405163b6e7687360e01b815260048101919091525f816024817f00000000000000000000000000000000000000000000000000000000000000006001600160a01b03165afa80156112c157611965926040611952926020945f916119cb575b5001516060870151608092909201805151156119b4576118fd5f9151611d36565b51925b60018060a01b03606654169361197460018060a01b0360c08d01511692888c0151926040519a8b998a988997636ed7247960e01b8952600489015288602489015260c0604489015260c4880190610cc5565b6003199384888303016064890152610cc5565b91858303016084860152610cc5565b9060a483015203925af1611989575b50611714565b602090813d83116119ad575b61199f8183610c32565b8101031261013d575f611983565b503d611995565b505f6040516119c281610be8565b81815292611900565b6119e791503d805f833e6119df8183610c32565b8101906113de565b5f6118dc565b506066546001600160a01b0316151561170f565b604051632db1a5e960e11b8152600490fd5b611a2791503d805f833e6119df8183610c32565b5f6116fb565b90506020813d602011611a5f575b81611a4860209383610c32565b8101031261013d57611a59906111d3565b5f61169f565b3d9150611a3b565b604051630d7d712f60e31b8152600490fd5b9092503d805f833e611a8b8183610c32565b81019060208183031261013d578051906001600160401b03821161013d57019061014091828183031261013d576040519283018381106001600160401b03821117610c03576040528051835260208101516020840152611aed604082016112cc565b6040840152611afe606082016112cc565b6060840152611b0f608082016112cc565b608084015260a081015160a0840152611b2a60c082016112e0565b60c0840152611b3b60e082016112e0565b60e0840152610100611b4e8183016111d3565b90840152610120810151906001600160401b03821161013d57019080601f8301121561013d578151611b82926020016112f4565b610120820152915f61162c565b15611b9657565b60405162461bcd60e51b815260206004820152602b60248201527f496e697469616c697a61626c653a20636f6e7472616374206973206e6f74206960448201526a6e697469616c697a696e6760a81b6064820152608490fd5b803b15611c23575f80516020611de183398151915280546001600160a01b0319166001600160a01b03909216919091179055565b60405162461bcd60e51b815260206004820152602d60248201527f455243313936373a206e657720696d706c656d656e746174696f6e206973206e60448201526c1bdd08184818dbdb9d1c9858dd609a1b6064820152608490fd5b9060208282031261013d5781516001600160401b039283821161013d57019060a08282031261013d576040519260a0840184811082821117610c035760405282518452602083015181811161013d5782611cd991850161132b565b6020850152604083015181811161013d5782611cf691850161132b565b6040850152606083015181811161013d5782611d1391850161132b565b6060850152608083015190811161013d57611d2e920161135f565b608082015290565b805115610e685760200190565b91929015611da55750815115611d57575090565b3b15611d605790565b60405162461bcd60e51b815260206004820152601d60248201527f416464726573733a2063616c6c20746f206e6f6e2d636f6e74726163740000006044820152606490fd5b825190915015611db85750805190602001fd5b60405162461bcd60e51b815260206004820152908190611ddc906024830190610cc5565b0390fdfe360894a13ba1a3210667c828492db98dca3e2076cc3735a920a3ca505d382bbca164736f6c6343000819000a","linkReferences":{}},"methodIdentifiers":{"ACTION_REGISTRY()":"801f45dc","HATS_MODULE()":"fb046ade","attest((bytes32,bytes32,uint64,uint64,uint64,bytes32,address,address,bool,bytes))":"e60c3505","greenGoodsResolver()":"d83243d7","initialize(address)":"c4d66de8","isPayable()":"ce46e046","karmaGAPModule()":"4026d762","multiAttest((bytes32,bytes32,uint64,uint64,uint64,bytes32,address,address,bool,bytes)[],uint256[])":"91db0b7e","multiRevoke((bytes32,bytes32,uint64,uint64,uint64,bytes32,address,address,bool,bytes)[],uint256[])":"88e5b2d9","owner()":"8da5cb5b","proxiableUUID()":"52d1902d","renounceOwnership()":"715018a6","revoke((bytes32,bytes32,uint64,uint64,uint64,bytes32,address,address,bool,bytes))":"e49617e1","setGreenGoodsResolver(address)":"75aba7ce","setKarmaGAPModule(address)":"d9e4aaee","transferOwnership(address)":"f2fde38b","upgradeTo(address)":"3659cfe6","upgradeToAndCall(address,bytes)":"4f1ef286","version()":"54fd4d50"},"id":141}