{"abi":[{"type":"constructor","inputs":[{"name":"easAddrs","type":"address","internalType":"address"},{"name":"actionAddrs","type":"address","internalType":"address"}],"stateMutability":"nonpayable"},{"type":"receive","stateMutability":"payable"},{"type":"function","name":"ACTION_REGISTRY","inputs":[],"outputs":[{"name":"","type":"address","internalType":"address"}],"stateMutability":"view"},{"type":"function","name":"attest","inputs":[{"name":"attestation","type":"tuple","internalType":"struct Attestation","components":[{"name":"uid","type":"bytes32","internalType":"bytes32"},{"name":"schema","type":"bytes32","internalType":"bytes32"},{"name":"time","type":"uint64","internalType":"uint64"},{"name":"expirationTime","type":"uint64","internalType":"uint64"},{"name":"revocationTime","type":"uint64","internalType":"uint64"},{"name":"refUID","type":"bytes32","internalType":"bytes32"},{"name":"recipient","type":"address","internalType":"address"},{"name":"attester","type":"address","internalType":"address"},{"name":"revocable","type":"bool","internalType":"bool"},{"name":"data","type":"bytes","internalType":"bytes"}]}],"outputs":[{"name":"","type":"bool","internalType":"bool"}],"stateMutability":"payable"},{"type":"function","name":"greenGoodsResolver","inputs":[],"outputs":[{"name":"","type":"address","internalType":"contract IGreenGoodsResolver"}],"stateMutability":"view"},{"type":"function","name":"initialize","inputs":[{"name":"_multisig","type":"address","internalType":"address"}],"outputs":[],"stateMutability":"nonpayable"},{"type":"function","name":"isPayable","inputs":[],"outputs":[{"name":"","type":"bool","internalType":"bool"}],"stateMutability":"pure"},{"type":"function","name":"multiAttest","inputs":[{"name":"attestations","type":"tuple[]","internalType":"struct Attestation[]","components":[{"name":"uid","type":"bytes32","internalType":"bytes32"},{"name":"schema","type":"bytes32","internalType":"bytes32"},{"name":"time","type":"uint64","internalType":"uint64"},{"name":"expirationTime","type":"uint64","internalType":"uint64"},{"name":"revocationTime","type":"uint64","internalType":"uint64"},{"name":"refUID","type":"bytes32","internalType":"bytes32"},{"name":"recipient","type":"address","internalType":"address"},{"name":"attester","type":"address","internalType":"address"},{"name":"revocable","type":"bool","internalType":"bool"},{"name":"data","type":"bytes","internalType":"bytes"}]},{"name":"values","type":"uint256[]","internalType":"uint256[]"}],"outputs":[{"name":"","type":"bool","internalType":"bool"}],"stateMutability":"payable"},{"type":"function","name":"multiRevoke","inputs":[{"name":"attestations","type":"tuple[]","internalType":"struct Attestation[]","components":[{"name":"uid","type":"bytes32","internalType":"bytes32"},{"name":"schema","type":"bytes32","internalType":"bytes32"},{"name":"time","type":"uint64","internalType":"uint64"},{"name":"expirationTime","type":"uint64","internalType":"uint64"},{"name":"revocationTime","type":"uint64","internalType":"uint64"},{"name":"refUID","type":"bytes32","internalType":"bytes32"},{"name":"recipient","type":"address","internalType":"address"},{"name":"attester","type":"address","internalType":"address"},{"name":"revocable","type":"bool","internalType":"bool"},{"name":"data","type":"bytes","internalType":"bytes"}]},{"name":"values","type":"uint256[]","internalType":"uint256[]"}],"outputs":[{"name":"","type":"bool","internalType":"bool"}],"stateMutability":"payable"},{"type":"function","name":"owner","inputs":[],"outputs":[{"name":"","type":"address","internalType":"address"}],"stateMutability":"view"},{"type":"function","name":"proxiableUUID","inputs":[],"outputs":[{"name":"","type":"bytes32","internalType":"bytes32"}],"stateMutability":"view"},{"type":"function","name":"renounceOwnership","inputs":[],"outputs":[],"stateMutability":"nonpayable"},{"type":"function","name":"revoke","inputs":[{"name":"attestation","type":"tuple","internalType":"struct Attestation","components":[{"name":"uid","type":"bytes32","internalType":"bytes32"},{"name":"schema","type":"bytes32","internalType":"bytes32"},{"name":"time","type":"uint64","internalType":"uint64"},{"name":"expirationTime","type":"uint64","internalType":"uint64"},{"name":"revocationTime","type":"uint64","internalType":"uint64"},{"name":"refUID","type":"bytes32","internalType":"bytes32"},{"name":"recipient","type":"address","internalType":"address"},{"name":"attester","type":"address","internalType":"address"},{"name":"revocable","type":"bool","internalType":"bool"},{"name":"data","type":"bytes","internalType":"bytes"}]}],"outputs":[{"name":"","type":"bool","internalType":"bool"}],"stateMutability":"payable"},{"type":"function","name":"setGreenGoodsResolver","inputs":[{"name":"_resolver","type":"address","internalType":"address"}],"outputs":[],"stateMutability":"nonpayable"},{"type":"function","name":"transferOwnership","inputs":[{"name":"newOwner","type":"address","internalType":"address"}],"outputs":[],"stateMutability":"nonpayable"},{"type":"function","name":"upgradeTo","inputs":[{"name":"newImplementation","type":"address","internalType":"address"}],"outputs":[],"stateMutability":"nonpayable"},{"type":"function","name":"upgradeToAndCall","inputs":[{"name":"newImplementation","type":"address","internalType":"address"},{"name":"data","type":"bytes","internalType":"bytes"}],"outputs":[],"stateMutability":"payable"},{"type":"function","name":"version","inputs":[],"outputs":[{"name":"","type":"string","internalType":"string"}],"stateMutability":"view"},{"type":"event","name":"AdminChanged","inputs":[{"name":"previousAdmin","type":"address","indexed":false,"internalType":"address"},{"name":"newAdmin","type":"address","indexed":false,"internalType":"address"}],"anonymous":false},{"type":"event","name":"BeaconUpgraded","inputs":[{"name":"beacon","type":"address","indexed":true,"internalType":"address"}],"anonymous":false},{"type":"event","name":"GreenGoodsResolverUpdated","inputs":[{"name":"oldResolver","type":"address","indexed":true,"internalType":"address"},{"name":"newResolver","type":"address","indexed":true,"internalType":"address"}],"anonymous":false},{"type":"event","name":"Initialized","inputs":[{"name":"version","type":"uint8","indexed":false,"internalType":"uint8"}],"anonymous":false},{"type":"event","name":"OwnershipTransferred","inputs":[{"name":"previousOwner","type":"address","indexed":true,"internalType":"address"},{"name":"newOwner","type":"address","indexed":true,"internalType":"address"}],"anonymous":false},{"type":"event","name":"Upgraded","inputs":[{"name":"implementation","type":"address","indexed":true,"internalType":"address"}],"anonymous":false},{"type":"error","name":"AccessDenied","inputs":[]},{"type":"error","name":"InsufficientValue","inputs":[]},{"type":"error","name":"InvalidEAS","inputs":[]},{"type":"error","name":"InvalidLength","inputs":[]},{"type":"error","name":"NotGardenOperator","inputs":[]},{"type":"error","name":"NotInActionRegistry","inputs":[]},{"type":"error","name":"NotInWorkRegistry","inputs":[]},{"type":"error","name":"NotPayable","inputs":[]}],"bytecode":{"object":"0x6101403461019e57611f3d90601f38839003908101601f19168201906001600160401b038211838310176101a2578083916040958694855283398101031261019e57610056602061004f836101b6565b92016101b6565b6001608052600360a0525f60c052906001600160a01b0316801561018d5760e052610100913083526101209182525f5460ff8160081c166101395760ff80821603610100575b505190611d7292836101cb8439608051836104ad015260a051836104d9015260c05183610508015260e05183818161107b01526114af0152518281816105b6015281816106b0015261093d0152518181816103a40152818161156f0152611b4b0152f35b60ff90811916175f557f7f26b83ff96e1f2b6a682f133852f6798a09c465da95921460cefb38474024986020825160ff8152a15f61009c565b815162461bcd60e51b815260206004820152602760248201527f496e697469616c697a61626c653a20636f6e747261637420697320696e697469604482015266616c697a696e6760c81b6064820152608490fd5b82516341bc07ff60e11b8152600490fd5b5f80fd5b634e487b7160e01b5f52604160045260245ffd5b51906001600160a01b038216820361019e5756fe60406080815260048036101561001e575b5050361561001c575f80fd5b005b5f3560e01c80633659cfe6146109175780634f1ef2861461066257806352d1902d146105a357806354fd4d5014610497578063715018a61461043c57806375aba7ce146103d3578063801f45dc1461039057806388e5b2d9146103705780638da5cb5b1461034857806391db0b7e14610328578063c4d66de8146101e6578063ce46e046146101cb578063d83243d7146101a3578063e49617e114610187578063e60c3505146101625763f2fde38b03610010573461015e57602036600319011261015e576100eb610ad0565b916100f4610fd9565b6001600160a01b0383161561010c5761001c83611031565b906020608492519162461bcd60e51b8352820152602660248201527f4f776e61626c653a206e6577206f776e657220697320746865207a65726f206160448201526564647265737360d01b6064820152fd5b5f80fd5b60208361017e61017136610c62565b610179611079565b6113ba565b90519015158152f35b60208361017e61019636610c62565b61019e611079565b6110de565b823461015e575f36600319011261015e5760655490516001600160a01b039091168152602090f35b823461015e575f36600319011261015e576020905160018152f35b503461015e57602036600319011261015e57610200610ad0565b5f5460ff8160081c16159283809461031b575b8015610304575b156102aa575060ff1981166001175f5561025d919083610298575b5061024f60ff5f5460081c1661024a81611926565b611926565b61025833611031565b611031565b61026357005b60207f7f26b83ff96e1f2b6a682f133852f6798a09c465da95921460cefb38474024989161ff00195f54165f555160018152a1005b61ffff1916610101175f908155610235565b608490602086519162461bcd60e51b8352820152602e60248201527f496e697469616c697a61626c653a20636f6e747261637420697320616c72656160448201526d191e481a5b9a5d1a585b1a5e995960921b6064820152fd5b50303b15801561021a5750600160ff83161461021a565b50600160ff831610610213565b60208361017e61033736610c18565b92610343929192611079565b610e1f565b823461015e575f36600319011261015e5760335490516001600160a01b039091168152602090f35b60208361017e61037f36610c18565b9261038b929192611079565b610d9d565b823461015e575f36600319011261015e57517f00000000000000000000000000000000000000000000000000000000000000006001600160a01b03168152602090f35b3461015e57602036600319011261015e576103ec610ad0565b6103f4610fd9565b606580546001600160a01b039283166001600160a01b0319821681179092559091167ff71e358771c6d006de45df6659e859b233d0f6db2329275c093b77f52f92a2fb5f80a3005b3461015e575f36600319011261015e57610454610fd9565b603380546001600160a01b031981169091555f906001600160a01b03167f8be0079c531659141344cd1fd0a4f28419497f9722a3daafe3b4186f6b6457e08280a3005b823461015e575f36600319011261015e576104d17f0000000000000000000000000000000000000000000000000000000000000000610e72565b61059f6104fd7f0000000000000000000000000000000000000000000000000000000000000000610e72565b92610590602261052c7f0000000000000000000000000000000000000000000000000000000000000000610e72565b958351968791602097610547815180928b8088019101610ba2565b830190601760f91b91828a820152610568825180938c602185019101610ba2565b01906021820152610581825180938a8785019101610ba2565b01036002810187520185610b30565b51928284938452830190610bc3565b0390f35b503461015e575f36600319011261015e577f00000000000000000000000000000000000000000000000000000000000000006001600160a01b031630036105fa57602082515f80516020611d468339815191528152f35b6020608492519162461bcd60e51b8352820152603860248201527f555550535570677261646561626c653a206d757374206e6f742062652063616c60448201527f6c6564207468726f7567682064656c656761746563616c6c00000000000000006064820152fd5b508160031936011261015e57610676610ad0565b916024356001600160401b03811161015e573660238201121561015e576106a69036906024818601359101610b6c565b6001600160a01b037f000000000000000000000000000000000000000000000000000000000000000081169291906106e030851415610c94565b6106fc5f80516020611d46833981519152948286541614610cf5565b610704610fd9565b7f4910fdfa16fed3260ed0e7147f7cc6da11a60208b5b9406d12a635614ffd91435460ff161561073c57505050505061001c90611986565b85168251936352d1902d60e01b855260209485818881865afa5f91816108e8575b506107bc57845162461bcd60e51b8152808801879052602e60248201527f45524331393637557067726164653a206e657720696d706c656d656e7461746960448201526d6f6e206973206e6f74205555505360901b6064820152608490fd5b959192950361089357506107cf85611986565b7fbc7cd75a20ee27fd9adebab32041f755214dbc6bffa90cc0225b39da2e5c2d3b5f80a282511580159061088b575b61080457005b61001c935f8083519561081687610b15565b602787527f416464726573733a206c6f772d6c6576656c2064656c65676174652063616c6c86880152660819985a5b195960ca1b858801528581519101845af4913d15610881573d61087361086a82610b51565b92519283610b30565b81525f81943d92013e611ca8565b5060609250611ca8565b5060016107fe565b825162461bcd60e51b8152908101849052602960248201527f45524331393637557067726164653a20756e737570706f727465642070726f786044820152681a58589b195555525160ba1b6064820152608490fd5b9091508681813d8311610910575b6109008183610b30565b8101031261015e5751905f61075d565b503d6108f6565b503461015e5760208060031936011261015e57610932610ad0565b926001600160a01b037f0000000000000000000000000000000000000000000000000000000000000000811661096a30821415610c94565b6109865f80516020611d46833981519152918383541614610cf5565b61098e610fd9565b82519161099a83610ae6565b5f83527f4910fdfa16fed3260ed0e7147f7cc6da11a60208b5b9406d12a635614ffd91435460ff16156109d65750505050505061001c90611986565b86169083516352d1902d60e01b815285818881865afa5f9181610aa1575b50610a5357845162461bcd60e51b8152808801879052602e60248201527f45524331393637557067726164653a206e657720696d706c656d656e7461746960448201526d6f6e206973206e6f74205555505360901b6064820152608490fd5b95919295036108935750610a6685611986565b7fbc7cd75a20ee27fd9adebab32041f755214dbc6bffa90cc0225b39da2e5c2d3b5f80a2825115801590610a9a5761080457005b505f6107fe565b9091508681813d8311610ac9575b610ab98183610b30565b8101031261015e5751905f6109f4565b503d610aaf565b600435906001600160a01b038216820361015e57565b602081019081106001600160401b03821117610b0157604052565b634e487b7160e01b5f52604160045260245ffd5b606081019081106001600160401b03821117610b0157604052565b90601f801991011681019081106001600160401b03821117610b0157604052565b6001600160401b038111610b0157601f01601f191660200190565b929192610b7882610b51565b91610b866040519384610b30565b82948184528183011161015e578281602093845f960137010152565b5f5b838110610bb35750505f910152565b8181015183820152602001610ba4565b90602091610bdc81518092818552858086019101610ba2565b601f01601f1916010190565b9181601f8401121561015e578235916001600160401b03831161015e576020808501948460051b01011161015e57565b604060031982011261015e576001600160401b039160043583811161015e5782610c4491600401610be8565b9390939260243591821161015e57610c5e91600401610be8565b9091565b6003199060208183011261015e57600435916001600160401b03831161015e57826101409203011261015e5760040190565b15610c9b57565b60405162461bcd60e51b815260206004820152602c60248201527f46756e6374696f6e206d7573742062652063616c6c6564207468726f7567682060448201526b19195b1959d85d1958d85b1b60a21b6064820152608490fd5b15610cfc57565b60405162461bcd60e51b815260206004820152602c60248201527f46756e6374696f6e206d7573742062652063616c6c6564207468726f7567682060448201526b6163746976652070726f787960a01b6064820152608490fd5b9190811015610d665760051b0190565b634e487b7160e01b5f52603260045260245ffd5b9190811015610d665760051b8101359061013e198136030182121561015e570190565b92909192818303610e0d575f91345b848410610dbe57505050505050600190565b610dc9848388610d56565b35818111610dfb57610ddf61019e868887610d7a565b15610df05760019103930192610dac565b505050505050505f90565b60405163044044a560e21b8152600490fd5b60405163251f56a160e21b8152600490fd5b92909192818303610e0d575f91345b848410610e4057505050505050600190565b610e4b848388610d56565b35818111610dfb57610e61610179868887610d7a565b15610df05760019103930192610e2e565b805f917a184f03e93ff9f4daa797ed6e38ed64bf6a1f01000000000000000080821015610fcb575b506d04ee2d6d415b85acef810000000080831015610fbc575b50662386f26fc1000080831015610fad575b506305f5e10080831015610f9e575b5061271080831015610f8f575b506064821015610f7f575b600a80921015610f75575b6001908160216001860195610f0b87610b51565b96610f196040519889610b30565b808852610f28601f1991610b51565b01366020890137860101905b610f40575b5050505090565b5f19019083906f181899199a1a9b1b9c1cb0b131b232b360811b8282061a835304918215610f7057919082610f34565b610f39565b9160010191610ef7565b9190606460029104910191610eec565b6004919392049101915f610ee1565b6008919392049101915f610ed4565b6010919392049101915f610ec5565b6020919392049101915f610eb3565b60409350810491505f610e9a565b6033546001600160a01b03163303610fed57565b606460405162461bcd60e51b815260206004820152602060248201527f4f776e61626c653a2063616c6c6572206973206e6f7420746865206f776e65726044820152fd5b603380546001600160a01b039283166001600160a01b0319821681179092559091167f8be0079c531659141344cd1fd0a4f28419497f9722a3daafe3b4186f6b6457e05f80a3565b7f00000000000000000000000000000000000000000000000000000000000000006001600160a01b031633036110ab57565b604051634ca8886760e01b8152600490fd5b356001600160a01b038116810361015e5790565b5190811515820361015e57565b60206001600160a01b03602461110460e0836110fc60c088016110bd565b1695016110bd565b60405194859384926336b87bd760e11b84521660048301525afa908115611183575f91611149575b501561113757600190565b604051633cebab8560e21b8152600490fd5b90506020813d60201161117b575b8161116460209383610b30565b8101031261015e57611175906110d1565b5f61112c565b3d9150611157565b6040513d5f823e3d90fd5b51906001600160401b038216820361015e57565b51906001600160a01b038216820361015e57565b909291926111c381610b51565b916111d16040519384610b30565b82948284528282011161015e5760206111eb930190610ba2565b565b9080601f8301121561015e578151611207926020016111b6565b90565b6001600160401b038111610b015760051b60200190565b81601f8201121561015e5780519160209161123b8461120a565b936112496040519586610b30565b808552838086019160051b8301019280841161015e57848301915b8483106112745750505050505090565b82516001600160401b03811161015e578691611295848480948901016111ed565b815201920191611264565b602091828282031261015e5781516001600160401b039283821161015e57019160c08383031261015e576040519360c0850185811083821117610b0157604052835185528084015181860152604084015182811161015e57836113049186016111ed565b6040860152606084015182811161015e57836113219186016111ed565b6060860152608084015182811161015e5784019083601f8301121561015e5781519161134c8361120a565b9261135a6040519485610b30565b808452828085019160051b8301019186831161015e578301905b8282106113a25750505050608085015260a083015190811161015e5761139a9201611221565b60a082015290565b8151600881101561015e578152908301908301611374565b61012080820135601e198336030181121561015e5782018035916001600160401b0380841161015e5760209283810194803603861361015e5781019084820195858284031261015e57359083821161015e57019384916080928391031261015e5760409586519183830183811086821117610b0157885280870135835280830191888801358352606088013597881515890361015e57898501988952858101359087821161015e57019080603f8301121561015e57818a8461147f9401359101610b6c565b6060840190815260018060a01b03948351978a51936328c44a9960e21b85526004998a86015260249a5f868d818c7f0000000000000000000000000000000000000000000000000000000000000000165afa95861561191c57908e8a96959493925f9861180f575b50866114fc60c0808b019d8e511693016110bd565b16036117ff579085949392918f8f8f988f929985928f9b60e0846115269f9e511691019d8e6110bd565b915195869485936336b87bd760e11b855216908301525afa9081156117af575f916117ca575b50156117ba578e5f8f8f908d51935193849263b6e7687360e01b8452830152818a7f0000000000000000000000000000000000000000000000000000000000000000165afa9081156117af575f9161178d575b50511561177d5780511515806116f9575b6116e6575b511515806116d9575b6115d7575b505050505050505050505050505050600190565b6115ec91860151908082518301019101611a15565b01805151156116c4576115ff9051611acd565b51935b61161f8360e08180606554169b51169851995196015116916110bd565b915193883b1561015e578c519d8e988998635d65eb2d60e01b8a528d8a01528d890152356044880152606487015260848601521660a484015260c483016101009052610104830161166f91610bc3565b8281036003190160e484015261168491610bc3565b03815a5f948591f16116a0575b808080808080808080806115c3565b84116116b3575050525f80808080611691565b604190634e487b7160e01b5f52525ffd5b508a516116d081610ae6565b5f815293611602565b50846065541615156115be565b6116f4868c5116888c611ada565b6115b5565b50600a46148015611771575b8015611766575b801561175a575b801561174e575b8015611743575b8015611738575b806115b0575061053046146115b0565b506105314614611728565b5061a4ec4614611721565b5062014a34461461171a565b5062aa36a74614611713565b5061a4b1461461170c565b5062aa37dc4614611705565b8e51632db1a5e960e11b81528d90fd5b6117a991503d805f833e6117a18183610b30565b8101906112a0565b5f61159f565b508f513d5f823e3d90fd5b8e51633cebab8560e21b81528d90fd5b90508281813d83116117f8575b6117e18183610b30565b8101031261015e576117f2906110d1565b5f61154c565b503d6117d7565b8d51630d7d712f60e31b81528c90fd5b96505095503d805f873e6118238187610b30565b850194818187031261015e578051908b821161015e57019561014096878188031261015e578e519788018881108d82111761190a578f528051885282810151838901528e61187282820161118e565b908901526118826060820161118e565b606089015261189285820161118e565b8589015260a081015160a08901526118ac60c082016111a2565b60c08901526118bd60e082016111a2565b60e08901526101006118d08183016110d1565b9089015283810151908c821161015e57019686601f8901121561015e578f978b9781856118ff935191016111b6565b84820152965f6114e7565b8e60418f634e487b7160e01b5f52525ffd5b8d513d5f823e3d90fd5b1561192d57565b60405162461bcd60e51b815260206004820152602b60248201527f496e697469616c697a61626c653a20636f6e7472616374206973206e6f74206960448201526a6e697469616c697a696e6760a81b6064820152608490fd5b803b156119ba575f80516020611d4683398151915280546001600160a01b0319166001600160a01b03909216919091179055565b60405162461bcd60e51b815260206004820152602d60248201527f455243313936373a206e657720696d706c656d656e746174696f6e206973206e60448201526c1bdd08184818dbdb9d1c9858dd609a1b6064820152608490fd5b9060208282031261015e5781516001600160401b039283821161015e57019060a08282031261015e576040519260a0840184811082821117610b015760405282518452602083015181811161015e5782611a709185016111ed565b6020850152604083015181811161015e5782611a8d9185016111ed565b6040850152606083015181811161015e5782611aaa9185016111ed565b6060850152608083015190811161015e57611ac59201611221565b608082015290565b805115610d665760200190565b6040805163f89b9b9360e01b815260209492936001600160a01b039384169392918681600481885afa908115611c9e575f91611c71575b5015611c6957610120611b2e910151868082518301019101611a15565b915f8551602484518094819363b6e7687360e01b835260048301527f0000000000000000000000000000000000000000000000000000000000000000165afa908115611c5f57611beb9383611bfa899795611bd8955f958691611c45575b5001519288608060608c0151920180515115158714611c3057611baf9051611acd565b519a5b01519251632de7aee760e11b815260806004820152998a98899788966084880190610bc3565b6003199384888303016024890152610bc3565b91858303016044860152610bc3565b90606483015203925af1611c0c575050565b813d8311611c29575b611c1f8183610b30565b8101031261015e57565b503d611c15565b508351611c3c81610ae6565b8681529a611bb2565b611c5991503d8088833e6117a18183610b30565b5f611b8c565b82513d5f823e3d90fd5b505050505050565b90508681813d8311611c97575b611c888183610b30565b8101031261015e57515f611b11565b503d611c7e565b83513d5f823e3d90fd5b91929015611d0a5750815115611cbc575090565b3b15611cc55790565b60405162461bcd60e51b815260206004820152601d60248201527f416464726573733a2063616c6c20746f206e6f6e2d636f6e74726163740000006044820152606490fd5b825190915015611d1d5750805190602001fd5b60405162461bcd60e51b815260206004820152908190611d41906024830190610bc3565b0390fdfe360894a13ba1a3210667c828492db98dca3e2076cc3735a920a3ca505d382bbca164736f6c6343000819000a","linkReferences":{}},"methodIdentifiers":{"ACTION_REGISTRY()":"801f45dc","attest((bytes32,bytes32,uint64,uint64,uint64,bytes32,address,address,bool,bytes))":"e60c3505","greenGoodsResolver()":"d83243d7","initialize(address)":"c4d66de8","isPayable()":"ce46e046","multiAttest((bytes32,bytes32,uint64,uint64,uint64,bytes32,address,address,bool,bytes)[],uint256[])":"91db0b7e","multiRevoke((bytes32,bytes32,uint64,uint64,uint64,bytes32,address,address,bool,bytes)[],uint256[])":"88e5b2d9","owner()":"8da5cb5b","proxiableUUID()":"52d1902d","renounceOwnership()":"715018a6","revoke((bytes32,bytes32,uint64,uint64,uint64,bytes32,address,address,bool,bytes))":"e49617e1","setGreenGoodsResolver(address)":"75aba7ce","transferOwnership(address)":"f2fde38b","upgradeTo(address)":"3659cfe6","upgradeToAndCall(address,bytes)":"4f1ef286","version()":"54fd4d50"},"id":147}