{"abi":[{"type":"constructor","inputs":[],"stateMutability":"nonpayable"},{"type":"function","name":"batchGrantRoles","inputs":[{"name":"garden","type":"address","internalType":"address"},{"name":"accounts","type":"address[]","internalType":"address[]"},{"name":"roles","type":"uint8[]","internalType":"enum IGardenHatsModule.GardenRole[]"}],"outputs":[],"stateMutability":"nonpayable"},{"type":"function","name":"batchRevokeRoles","inputs":[{"name":"garden","type":"address","internalType":"address"},{"name":"accounts","type":"address[]","internalType":"address[]"},{"name":"roles","type":"uint8[]","internalType":"enum IGardenHatsModule.GardenRole[]"}],"outputs":[],"stateMutability":"nonpayable"},{"type":"function","name":"createGardenHatTree","inputs":[{"name":"garden","type":"address","internalType":"address"},{"name":"operator","type":"address","internalType":"address"},{"name":"gardenName","type":"string","internalType":"string"}],"outputs":[{"name":"rootHatId","type":"uint256","internalType":"uint256"}],"stateMutability":"nonpayable"},{"type":"function","name":"gardenHatTrees","inputs":[{"name":"garden","type":"address","internalType":"address"}],"outputs":[{"name":"rootHatId","type":"uint256","internalType":"uint256"},{"name":"operatorHatId","type":"uint256","internalType":"uint256"},{"name":"gardenerHatId","type":"uint256","internalType":"uint256"},{"name":"evaluatorHatId","type":"uint256","internalType":"uint256"},{"name":"funderHatId","type":"uint256","internalType":"uint256"},{"name":"communityHatId","type":"uint256","internalType":"uint256"},{"name":"exists","type":"bool","internalType":"bool"}],"stateMutability":"view"},{"type":"function","name":"gardenToken","inputs":[],"outputs":[{"name":"","type":"address","internalType":"address"}],"stateMutability":"view"},{"type":"function","name":"gardensHatId","inputs":[],"outputs":[{"name":"","type":"uint256","internalType":"uint256"}],"stateMutability":"view"},{"type":"function","name":"getGardenHatTree","inputs":[{"name":"garden","type":"address","internalType":"address"}],"outputs":[{"name":"","type":"tuple","internalType":"struct IGardenHatsModule.GardenHatTree","components":[{"name":"rootHatId","type":"uint256","internalType":"uint256"},{"name":"operatorHatId","type":"uint256","internalType":"uint256"},{"name":"gardenerHatId","type":"uint256","internalType":"uint256"},{"name":"evaluatorHatId","type":"uint256","internalType":"uint256"},{"name":"funderHatId","type":"uint256","internalType":"uint256"},{"name":"communityHatId","type":"uint256","internalType":"uint256"},{"name":"exists","type":"bool","internalType":"bool"}]}],"stateMutability":"view"},{"type":"function","name":"getRoleHatId","inputs":[{"name":"garden","type":"address","internalType":"address"},{"name":"role","type":"uint8","internalType":"enum IGardenHatsModule.GardenRole"}],"outputs":[{"name":"","type":"uint256","internalType":"uint256"}],"stateMutability":"view"},{"type":"function","name":"grantRole","inputs":[{"name":"garden","type":"address","internalType":"address"},{"name":"account","type":"address","internalType":"address"},{"name":"role","type":"uint8","internalType":"enum IGardenHatsModule.GardenRole"}],"outputs":[],"stateMutability":"nonpayable"},{"type":"function","name":"hasHatTree","inputs":[{"name":"garden","type":"address","internalType":"address"}],"outputs":[{"name":"","type":"bool","internalType":"bool"}],"stateMutability":"view"},{"type":"function","name":"hasRole","inputs":[{"name":"garden","type":"address","internalType":"address"},{"name":"account","type":"address","internalType":"address"},{"name":"role","type":"uint8","internalType":"enum IGardenHatsModule.GardenRole"}],"outputs":[{"name":"","type":"bool","internalType":"bool"}],"stateMutability":"view"},{"type":"function","name":"hats","inputs":[],"outputs":[{"name":"","type":"address","internalType":"contract IHats"}],"stateMutability":"view"},{"type":"function","name":"initialize","inputs":[{"name":"_owner","type":"address","internalType":"address"},{"name":"_hats","type":"address","internalType":"address"},{"name":"_gardensHatId","type":"uint256","internalType":"uint256"},{"name":"_gardenToken","type":"address","internalType":"address"}],"outputs":[],"stateMutability":"nonpayable"},{"type":"function","name":"isEvaluator","inputs":[{"name":"garden","type":"address","internalType":"address"},{"name":"account","type":"address","internalType":"address"}],"outputs":[{"name":"","type":"bool","internalType":"bool"}],"stateMutability":"view"},{"type":"function","name":"isGardener","inputs":[{"name":"garden","type":"address","internalType":"address"},{"name":"account","type":"address","internalType":"address"}],"outputs":[{"name":"","type":"bool","internalType":"bool"}],"stateMutability":"view"},{"type":"function","name":"isOperator","inputs":[{"name":"garden","type":"address","internalType":"address"},{"name":"account","type":"address","internalType":"address"}],"outputs":[{"name":"","type":"bool","internalType":"bool"}],"stateMutability":"view"},{"type":"function","name":"karmaGAPModule","inputs":[],"outputs":[{"name":"","type":"address","internalType":"contract IKarmaGAPModule"}],"stateMutability":"view"},{"type":"function","name":"owner","inputs":[],"outputs":[{"name":"","type":"address","internalType":"address"}],"stateMutability":"view"},{"type":"function","name":"proxiableUUID","inputs":[],"outputs":[{"name":"","type":"bytes32","internalType":"bytes32"}],"stateMutability":"view"},{"type":"function","name":"renounceOwnership","inputs":[],"outputs":[],"stateMutability":"nonpayable"},{"type":"function","name":"revokeRole","inputs":[{"name":"garden","type":"address","internalType":"address"},{"name":"account","type":"address","internalType":"address"},{"name":"role","type":"uint8","internalType":"enum IGardenHatsModule.GardenRole"}],"outputs":[],"stateMutability":"nonpayable"},{"type":"function","name":"setEligibilityModule","inputs":[{"name":"garden","type":"address","internalType":"address"},{"name":"role","type":"uint8","internalType":"enum IGardenHatsModule.GardenRole"},{"name":"module","type":"address","internalType":"address"}],"outputs":[],"stateMutability":"nonpayable"},{"type":"function","name":"setGardenToken","inputs":[{"name":"_gardenToken","type":"address","internalType":"address"}],"outputs":[],"stateMutability":"nonpayable"},{"type":"function","name":"setGardensHatId","inputs":[{"name":"_gardensHatId","type":"uint256","internalType":"uint256"}],"outputs":[],"stateMutability":"nonpayable"},{"type":"function","name":"setHatsContract","inputs":[{"name":"_hats","type":"address","internalType":"address"}],"outputs":[],"stateMutability":"nonpayable"},{"type":"function","name":"setKarmaGAPModule","inputs":[{"name":"_karmaGAPModule","type":"address","internalType":"address"}],"outputs":[],"stateMutability":"nonpayable"},{"type":"function","name":"transferOwnership","inputs":[{"name":"newOwner","type":"address","internalType":"address"}],"outputs":[],"stateMutability":"nonpayable"},{"type":"function","name":"upgradeTo","inputs":[{"name":"newImplementation","type":"address","internalType":"address"}],"outputs":[],"stateMutability":"nonpayable"},{"type":"function","name":"upgradeToAndCall","inputs":[{"name":"newImplementation","type":"address","internalType":"address"},{"name":"data","type":"bytes","internalType":"bytes"}],"outputs":[],"stateMutability":"payable"},{"type":"event","name":"AdminChanged","inputs":[{"name":"previousAdmin","type":"address","indexed":false,"internalType":"address"},{"name":"newAdmin","type":"address","indexed":false,"internalType":"address"}],"anonymous":false},{"type":"event","name":"BeaconUpgraded","inputs":[{"name":"beacon","type":"address","indexed":true,"internalType":"address"}],"anonymous":false},{"type":"event","name":"EligibilityModuleSet","inputs":[{"name":"garden","type":"address","indexed":true,"internalType":"address"},{"name":"role","type":"uint8","indexed":false,"internalType":"enum IGardenHatsModule.GardenRole"},{"name":"module","type":"address","indexed":false,"internalType":"address"}],"anonymous":false},{"type":"event","name":"GardenHatTreeCreated","inputs":[{"name":"garden","type":"address","indexed":true,"internalType":"address"},{"name":"rootHatId","type":"uint256","indexed":false,"internalType":"uint256"},{"name":"operatorHatId","type":"uint256","indexed":false,"internalType":"uint256"},{"name":"gardenerHatId","type":"uint256","indexed":false,"internalType":"uint256"},{"name":"evaluatorHatId","type":"uint256","indexed":false,"internalType":"uint256"}],"anonymous":false},{"type":"event","name":"HatsContractUpdated","inputs":[{"name":"oldHats","type":"address","indexed":true,"internalType":"address"},{"name":"newHats","type":"address","indexed":true,"internalType":"address"}],"anonymous":false},{"type":"event","name":"Initialized","inputs":[{"name":"version","type":"uint8","indexed":false,"internalType":"uint8"}],"anonymous":false},{"type":"event","name":"OwnershipTransferred","inputs":[{"name":"previousOwner","type":"address","indexed":true,"internalType":"address"},{"name":"newOwner","type":"address","indexed":true,"internalType":"address"}],"anonymous":false},{"type":"event","name":"RoleAssigned","inputs":[{"name":"garden","type":"address","indexed":true,"internalType":"address"},{"name":"account","type":"address","indexed":true,"internalType":"address"},{"name":"role","type":"uint8","indexed":false,"internalType":"enum IGardenHatsModule.GardenRole"},{"name":"hatId","type":"uint256","indexed":false,"internalType":"uint256"}],"anonymous":false},{"type":"event","name":"RoleRevoked","inputs":[{"name":"garden","type":"address","indexed":true,"internalType":"address"},{"name":"account","type":"address","indexed":true,"internalType":"address"},{"name":"role","type":"uint8","indexed":false,"internalType":"enum IGardenHatsModule.GardenRole"},{"name":"hatId","type":"uint256","indexed":false,"internalType":"uint256"}],"anonymous":false},{"type":"event","name":"Upgraded","inputs":[{"name":"implementation","type":"address","indexed":true,"internalType":"address"}],"anonymous":false},{"type":"error","name":"GardenTreeAlreadyExists","inputs":[{"name":"garden","type":"address","internalType":"address"}]},{"type":"error","name":"GardenTreeNotFound","inputs":[{"name":"garden","type":"address","internalType":"address"}]},{"type":"error","name":"HatsOperationFailed","inputs":[{"name":"reason","type":"string","internalType":"string"}]},{"type":"error","name":"InvalidRole","inputs":[]},{"type":"error","name":"NotAuthorizedCaller","inputs":[]},{"type":"error","name":"NotGardenOperator","inputs":[]},{"type":"error","name":"NotGardenOwner","inputs":[]},{"type":"error","name":"NotGardenToken","inputs":[]},{"type":"error","name":"RoleAlreadyAssigned","inputs":[{"name":"account","type":"address","internalType":"address"},{"name":"role","type":"uint8","internalType":"enum IGardenHatsModule.GardenRole"}]},{"type":"error","name":"RoleNotAssigned","inputs":[{"name":"account","type":"address","internalType":"address"},{"name":"role","type":"uint8","internalType":"enum IGardenHatsModule.GardenRole"}]},{"type":"error","name":"ZeroAddress","inputs":[]}],"bytecode":{"object":"0x60a0806040523460d657306080525f549060ff8260081c166084575060ff80821603604b575b60405161262290816100db82396080518181816111bd015281816112e801526116130152f35b60ff90811916175f557f7f26b83ff96e1f2b6a682f133852f6798a09c465da95921460cefb3847402498602060405160ff8152a15f6025565b62461bcd60e51b815260206004820152602760248201527f496e697469616c697a61626c653a20636f6e747261637420697320696e697469604482015266616c697a696e6760c81b6064820152608490fd5b5f80fdfe60806040526004361015610011575f80fd5b5f803560e01c80633659cfe6146115ee5780633868e7e5146115d75780634026d762146115af57806345873848146115535780634f1ef2861461126d57806352d1902d146111ab57806362de09bc14610a73578063715018a614610a1857806372a2da1a146109295780638da5cb5b146109015780638e415dd5146108c75780639ce7732c146108ae578063a27eaca91461084d578063b6363cf214610821578063b709b7fd146107da578063be2030941461061a578063c0197797146105ee578063c4351532146105b8578063ce754cb51461053a578063d06dbdb814610519578063d213da5f146104fc578063d3f5b485146104bc578063d9e4aaee14610479578063db61d65c14610451578063e03a4efd146103d0578063e9900a331461022d578063f13e5d0914610215578063f2fde38b146101845763f99f023814610159575f80fd5b346101815780600319360112610181576065546040516001600160a01b039091168152602090f35b80fd5b50346101815760203660031901126101815761019e6117d2565b6101a66123cd565b6001600160a01b038116156101c1576101be90612425565b80f35b60405162461bcd60e51b815260206004820152602660248201527f4f776e61626c653a206e6577206f776e657220697320746865207a65726f206160448201526564647265737360d01b6064820152608490fd5b5034610181576101be610227366117fe565b91612053565b503461037a57606036600319011261037a576102476117d2565b602435600581101561037a576001600160a01b03916044358381169182820361037a57841693845f52606960205260405f2060ff600682015416156103b7578160335416331415806103ad575b61039b57600385141580610390575b61037e57846102b191612365565b906065541691823b1561037a5760405163165c079160e21b815260048101929092526001600160a01b03166024820152905f908290604490829084905af1801561036f57610335575b507f6c2902e2541b70ce342ffb4062a58ad18f6e34e29a2271d5673c96034511f2c29160409161032c83518093611a31565b6020820152a280f35b6040919450916103657f6c2902e2541b70ce342ffb4062a58ad18f6e34e29a2271d5673c96034511f2c2936118e9565b5f949150916102fa565b6040513d5f823e3d90fd5b5f80fd5b604051636caa20b560e11b8152600490fd5b5060048514156102a3565b604051637046c88d60e01b8152600490fd5b5085331415610294565b604051631a09876d60e31b815260048101879052602490fd5b3461037a57602036600319011261037a576103e96117d2565b6103f16123cd565b6001600160a01b0390811690811561043f57606554826001600160601b0360a01b821617606555167fd1579b9ec8e8324f8b7739e0404866377c1e98b9064b26483f794bbed39bf2b05f80a3005b60405163d92e233d60e01b8152600490fd5b3461037a575f36600319011261037a576067546040516001600160a01b039091168152602090f35b3461037a57602036600319011261037a576104926117d2565b61049a6123cd565b606880546001600160a01b0319166001600160a01b0392909216919091179055005b3461037a57602036600319011261037a576001600160a01b036104dd6117d2565b165f526069602052602060ff600660405f200154166040519015158152f35b3461037a575f36600319011261037a576020606654604051908152f35b3461037a57602036600319011261037a576105326123cd565b600435606655005b3461037a57602036600319011261037a576001600160a01b0361055b6117d2565b165f52606960205260e060405f208054906001810154906002810154600382015460048301549160ff600660058601549501541694604051968752602087015260408601526060850152608084015260a0830152151560c0820152f35b3461037a57604036600319011261037a5760206105e46105d66117d2565b6105de6117e8565b90611ff3565b6040519015158152f35b3461037a57604036600319011261037a5760206105e461060c6117d2565b6106146117e8565b90611f93565b3461037a57608036600319011261037a576106336117d2565b61063b6117e8565b6064356001600160a01b038181169182900361037a575f549260ff8460081c1615938480956107cd575b80156107b6575b1561075a5760ff1981166001175f5584610749575b508185161561043f571692831561043f57811561043f576106c3906106b560ff5f5460081c166106b08161246d565b61246d565b6106be33612425565b612425565b6001600160601b0360a01b838160655416176065556044356066556067541617606755604051915f7fd1579b9ec8e8324f8b7739e0404866377c1e98b9064b26483f794bbed39bf2b08180a361071557005b60207f7f26b83ff96e1f2b6a682f133852f6798a09c465da95921460cefb38474024989161ff00195f54165f5560018152a1005b61ffff1916610101175f5585610681565b60405162461bcd60e51b815260206004820152602e60248201527f496e697469616c697a61626c653a20636f6e747261637420697320616c72656160448201526d191e481a5b9a5d1a585b1a5e995960921b6064820152608490fd5b50303b15801561066c5750600160ff82161461066c565b50600160ff821610610665565b3461037a57602036600319011261037a576107f36117d2565b6107fb6123cd565b6001600160a01b0316801561043f576001600160601b0360a01b60675416176067555f80f35b3461037a57604036600319011261037a5760206105e461083f6117d2565b6108476117e8565b90611f2c565b3461037a5761085b3661186d565b9290939183810361037e575f5b81811061087157005b61088461087f828486611dd9565b611dfd565b90610890818789611dd9565b3591600583101561037a576001926108a89187612053565b01610868565b3461037a5760206105e46108c1366117fe565b91611e82565b3461037a57604036600319011261037a576108e06117d2565b60243590600582101561037a576020916108f991611e4f565b604051908152f35b3461037a575f36600319011261037a576033546040516001600160a01b039091168152602090f35b3461037a57602036600319011261037a576109426117d2565b5f60c0604051610951816118cd565b8281528260208201528260408201528260608201528260808201528260a0820152015260018060a01b03165f52606960205260e060405f20604051610995816118cd565b815491828252600181015460208301908152600282015460408401908152600383015490606085019182526004840154926080860193845260c060ff600660058801549760a08a01988952015416960195151586526040519687525160208701525160408601525160608501525160808401525160a083015251151560c0820152f35b3461037a575f36600319011261037a57610a306123cd565b603380546001600160a01b031981169091555f906001600160a01b03167f8be0079c531659141344cd1fd0a4f28419497f9722a3daafe3b4186f6b6457e08280a3005b3461037a57606036600319011261037a57610a8c6117d2565b610a946117e8565b9060443567ffffffffffffffff80821161037a573660238301121561037a57816004013590811161037a57366024828401011161037a576067546001600160a01b03163303611199576001600160a01b0383165f9081526069602052604090206006015460ff16611178576024610b739392602092610b49602760018060a01b036065541693606654938060405197889301898401378101661023b0b93232b760c91b88820152036007810186520184611919565b5f846040519788958694635829492f60e11b8652600486015260e0602486015260e4850190611e11565b60016044850152826064850152826084850152600160a48501528284820391600319830160c48701525201925af191821561036f575f92611144575b5060655460405163320fbbb760e11b8152600481018490526001600160a01b038381166024830152909491602091869160449183915f91165af193841561036f575f94611125575b50602060018060a01b036065541661014460405180978193635829492f60e11b835288600484015260e06024840152600860e48401526727b832b930ba37b960c11b61010484015263ffffffff6044840152816064840152816084840152600160a484015261012060c4840152816101248401525af190811561036f575f916110f1575b5f9450602060018060a01b036065541661014460405180988193635829492f60e11b835289600484015260e06024840152600860e48401526723b0b93232b732b960c11b61010484015263ffffffff6044840152816064840152816084840152600160a484015261012060c4840152816101248401525af1801561036f575f906110bf575b5f9550602060018060a01b036065541661014460405180998193635829492f60e11b83528a600484015260e06024840152600960e48401526822bb30b63ab0ba37b960b91b61010484015263ffffffff6044840152816064840152816084840152600160a484015261012060c4840152816101248401525af195861561036f575f9661108b575b505f602060018060a01b036065541661014460405180948193635829492f60e11b83528b600484015260e06024840152600660e484015265233ab73232b960d11b61010484015263ffffffff6044840152816064840152816084840152600160a484015261012060c4840152816101248401525af190811561036f575f91611059575b505f602060018060a01b036065541661014460405180948193635829492f60e11b83528c600484015260e06024840152600960e484015268436f6d6d756e69747960b81b61010484015263ffffffff6044840152816064840152816084840152600160a484015261012060c4840152816101248401525af1801561036f575f90611026575b6006915060405190610ea0826118cd565b88825260208201938785526040830186815260608401908c82526080850192835260a0850193845260c08501966001885260018060a01b038c165f52606960205260405f2095518655516001860155516002850155516003840155516004830155516005820155019051151560ff8019835416911617905560018060a01b0360655416916020604051809463320fbbb760e11b8252815f81610f5b878b600484019092916020906040830194835260018060a01b0316910152565b03925af191821561036f576020977fb533d7811d703e724be6e6adfd7aaf7abb7d9bc4f935a3c6179e5020e4b0b3a194604094610ff9575b50835191888352868a8401528483015260608201527f0bd572881183e85ab42e2c9aa77ad8a97682588fa9682add06cd5c881c753dd7608060018060a01b03881692a281515f8152878101949094526001600160a01b03908116941692a3604051908152f35b611018908a3d8c1161101f575b6110108183611919565b810190611a19565b5089610f93565b503d611006565b506020813d602011611051575b8161104060209383611919565b8101031261037a5760069051610e8f565b3d9150611033565b90506020813d602011611083575b8161107460209383611919565b8101031261037a575187610e0a565b3d9150611067565b9095506020813d6020116110b7575b816110a760209383611919565b8101031261037a57519486610d87565b3d915061109a565b506020853d6020116110e9575b816110d960209383611919565b8101031261037a575f9451610d00565b3d91506110cc565b90506020843d60201161111d575b8161110c60209383611919565b8101031261037a575f935190610c7b565b3d91506110ff565b61113d9060203d60201161101f576110108183611919565b5084610bf7565b9091506020813d602011611170575b8161116060209383611919565b8101031261037a57519083610baf565b3d9150611153565b60405163644d55cd60e01b81526001600160a01b0384166004820152602490fd5b6040516308a59e4960e11b8152600490fd5b3461037a575f36600319011261037a577f00000000000000000000000000000000000000000000000000000000000000006001600160a01b031630036112025760206040515f805160206125f68339815191528152f35b60405162461bcd60e51b815260206004820152603860248201527f555550535570677261646561626c653a206d757374206e6f742062652063616c60448201527f6c6564207468726f7567682064656c656761746563616c6c00000000000000006064820152608490fd5b604036600319011261037a576112816117d2565b6024359067ffffffffffffffff821161037a573660238301121561037a5781600401356112ad8161193b565b6112ba6040519182611919565b81815260209182820194366024838301011161037a57815f9260248693018837830101526001600160a01b037f000000000000000000000000000000000000000000000000000000000000000081169061131630831415611957565b6113325f805160206125f68339815191529282845416146119b8565b61133a6123cd565b7f4910fdfa16fed3260ed0e7147f7cc6da11a60208b5b9406d12a635614ffd91435460ff1615611374575050505061137291506124cd565b005b8492939416906040516352d1902d60e01b81528581600481865afa5f9181611524575b506113f85760405162461bcd60e51b815260048101879052602e60248201527f45524331393637557067726164653a206e657720696d706c656d656e7461746960448201526d6f6e206973206e6f74205555505360901b6064820152608490fd5b949394036114cd57611409826124cd565b7fbc7cd75a20ee27fd9adebab32041f755214dbc6bffa90cc0225b39da2e5c2d3b5f80a28251158015906114c5575b61143e57005b5f806113729560405195611451876118fd565b602787527f416464726573733a206c6f772d6c6576656c2064656c65676174652063616c6c86880152660819985a5b195960ca1b60408801525190845af4903d156114bc573d6114a08161193b565b906114ae6040519283611919565b81525f81943d92013e61255c565b6060925061255c565b506001611438565b60405162461bcd60e51b815260048101849052602960248201527f45524331393637557067726164653a20756e737570706f727465642070726f786044820152681a58589b195555525160ba1b6064820152608490fd5b9091508681813d831161154c575b61153c8183611919565b8101031261037a57519088611397565b503d611532565b3461037a576115613661186d565b9290939183810361037e575f5b81811061157757005b61158561087f828486611dd9565b90611591818789611dd9565b3591600583101561037a576001926115a99187611a74565b0161156e565b3461037a575f36600319011261037a576068546040516001600160a01b039091168152602090f35b3461037a576113726115e8366117fe565b91611a74565b3461037a5760208060031936011261037a576116086117d2565b6001600160a01b03917f0000000000000000000000000000000000000000000000000000000000000000831661164030821415611957565b61165c5f805160206125f68339815191529185835416146119b8565b6116646123cd565b604051908282019482861067ffffffffffffffff8711176117be57856040525f835260ff7f4910fdfa16fed3260ed0e7147f7cc6da11a60208b5b9406d12a635614ffd914354165f146116bf575050505061137291506124cd565b8492939416906040516352d1902d60e01b81528581600481865afa5f918161178f575b506117435760405162461bcd60e51b815260048101879052602e60248201527f45524331393637557067726164653a206e657720696d706c656d656e7461746960448201526d6f6e206973206e6f74205555505360901b6064820152608490fd5b949394036114cd57611754826124cd565b7fbc7cd75a20ee27fd9adebab32041f755214dbc6bffa90cc0225b39da2e5c2d3b5f80a28251158015906117885761143e57005b505f611438565b9091508681813d83116117b7575b6117a78183611919565b8101031261037a575190886116e2565b503d61179d565b634e487b7160e01b5f52604160045260245ffd5b600435906001600160a01b038216820361037a57565b602435906001600160a01b038216820361037a57565b606090600319011261037a576001600160a01b0390600435828116810361037a5791602435908116810361037a5790604435600581101561037a5790565b9181601f8401121561037a5782359167ffffffffffffffff831161037a576020808501948460051b01011161037a57565b90606060031983011261037a576004356001600160a01b038116810361037a579167ffffffffffffffff9160243583811161037a57826118af9160040161183c565b9390939260443591821161037a576118c99160040161183c565b9091565b60e0810190811067ffffffffffffffff8211176117be57604052565b67ffffffffffffffff81116117be57604052565b6060810190811067ffffffffffffffff8211176117be57604052565b90601f8019910116810190811067ffffffffffffffff8211176117be57604052565b67ffffffffffffffff81116117be57601f01601f191660200190565b1561195e57565b60405162461bcd60e51b815260206004820152602c60248201527f46756e6374696f6e206d7573742062652063616c6c6564207468726f7567682060448201526b19195b1959d85d1958d85b1b60a21b6064820152608490fd5b156119bf57565b60405162461bcd60e51b815260206004820152602c60248201527f46756e6374696f6e206d7573742062652063616c6c6564207468726f7567682060448201526b6163746976652070726f787960a01b6064820152608490fd5b9081602091031261037a5751801515810361037a5790565b906005821015611a3e5752565b634e487b7160e01b5f52602160045260245ffd5b6001600160a01b039091168152604081019291611a729160200190611a31565b565b92919060018060a01b039081851691825f5260209160698352604092835f209060ff60068301541615611dc157611aab8783612365565b916005881015611a3e57871590828215611d2657606554915488516321a9204d60e11b8152336004820152602481019190915291829060449082908a165afa908115611c8c575f91611d09575b501580611cfb575b80611ced575b611cdc575b60655486516321a9204d60e11b81526001600160a01b038616600482015260248101859052908616908381604481855afa908115611cd2575f91611cb5575b50611c9657865163320fbbb760e11b8152600481018590526001600160a01b0386166024820152908390829060449082905f905af18015611c8c57611c6f575b5080611c62575b611bd0575b7fb533d7811d703e724be6e6adfd7aaf7abb7d9bc4f935a3c6179e5020e4b0b3a19596979850611bc885518099611a31565b8701521693a3565b8360685416803b1561037a578551632744700560e01b81526001600160a01b039a8b16600482015299841660248b01525f908a90604490829084905af1988915611c58577fb533d7811d703e724be6e6adfd7aaf7abb7d9bc4f935a3c6179e5020e4b0b3a196979899611c49575b508897969550611b96565b611c52906118e9565b5f611c3e565b85513d5f823e3d90fd5b5083606854161515611b91565b611c8590833d851161101f576110108183611919565b505f611b8a565b87513d5f823e3d90fd5b8651630c97e9a160e31b815280611cb18b8860048401611a52565b0390fd5b611ccc9150843d861161101f576110108183611919565b5f611b4a565b88513d5f823e3d90fd5b8551633632b98960e21b8152600490fd5b508460675416331415611b06565b508460335416331415611b00565b611d209150833d851161101f576110108183611919565b5f611af8565b6065546001929092015488516321a9204d60e11b8152336004820152602481019190915291829060449082908a165afa908115611c8c575f91611da4575b501580611d96575b80611d88575b15611b0b578551633cebab8560e21b8152600490fd5b508460675416331415611d72565b508460335416331415611d6c565b611dbb9150833d851161101f576110108183611919565b5f611d64565b8451631a09876d60e31b815260048101879052602490fd5b9190811015611de95760051b0190565b634e487b7160e01b5f52603260045260245ffd5b356001600160a01b038116810361037a5790565b91908251928382525f5b848110611e3b575050825f602080949584010152601f8019910116010190565b602081830181015184830182015201611e1b565b60018060a01b03165f52606960205260405f209060ff60068301541615611e7c57611e7991612365565b90565b50505f90565b6001600160a01b039081165f90815260696020526040902060068101549093929060ff1615611f2457611eba602093611ef695612365565b6065546040516321a9204d60e11b81526001600160a01b0390931660048401526024830191909152909384929190911690829081906044820190565b03915afa90811561036f575f91611f0b575090565b611e79915060203d60201161101f576110108183611919565b505050505f90565b60018060a01b038091165f52606960205260405f209160ff60068401541615611f8c576065546001909301546040516321a9204d60e11b81526001600160a01b039092166004830152602482015291602091839116818060448101611ef6565b5050505f90565b60018060a01b038091165f52606960205260405f209160ff60068401541615611f8c576065546003909301546040516321a9204d60e11b81526001600160a01b039092166004830152602482015291602091839116818060448101611ef6565b60018060a01b038091165f52606960205260405f209160ff60068401541615611f8c576065546002909301546040516321a9204d60e11b81526001600160a01b039092166004830152602482015291602091839116818060448101611ef6565b92915f9360018060a01b039182821692835f52602060698152604093845f209660ff6006890154161561234d5761208a8589612365565b936005861015611a3e57851598848a156122c657606554915489516321a9204d60e11b81523360048201526024810191909152918290604490829086165afa908115611cd2575f916122a9575b50158061229b575b61228a575b60655487516321a9204d60e11b81526001600160a01b038416600482015260248101879052908216999085816044818e5afa908115612248575f9161226d575b501561225257893b1561037a5787516329287c1b60e21b815286600482015280808486169c8d6024830152604482015f90525a925f6064928195f1801561224857612235575b5080612228575b6121b1575b5050507f11f8c0688311277c7892b0cccf3c9829ab92109695d5277d844f01c7c827f50e94959697506121ab84518094611a31565b820152a3565b908a9160685416803b1561222457875163481a80f160e01b81526001600160a01b039485166004820152919093166024820152918290604490829084905af1801561221a57612202575b8080612176565b61220c89916118e9565b61221657876121fb565b8780fd5b85513d8b823e3d90fd5b8280fd5b5080606854161515612171565b612240919c506118e9565b5f9a5f61216a565b89513d5f823e3d90fd5b875163adbfa7fb60e01b815280611cb1898660048401611a52565b6122849150863d881161101f576110108183611919565b5f612124565b8651633632b98960e21b8152600490fd5b5080603354163314156120df565b6122c09150853d871161101f576110108183611919565b5f6120d7565b6065546001929092015489516321a9204d60e11b81523360048201526024810191909152918290604490829086165afa908115611cd2575f91612330575b501580612322575b156120e4578651633cebab8560e21b8152600490fd5b50806033541633141561230c565b6123479150853d871161101f576110108183611919565b5f612304565b8551631a09876d60e31b815260048101889052602490fd5b906005811015611a3e5780156123c557600181146123bd57600281146123b557600381146123ad576004146123a657604051636caa20b560e11b8152600490fd5b6005015490565b506004015490565b506003015490565b506002015490565b506001015490565b6033546001600160a01b031633036123e157565b606460405162461bcd60e51b815260206004820152602060248201527f4f776e61626c653a2063616c6c6572206973206e6f7420746865206f776e65726044820152fd5b603380546001600160a01b039283166001600160a01b0319821681179092559091167f8be0079c531659141344cd1fd0a4f28419497f9722a3daafe3b4186f6b6457e05f80a3565b1561247457565b60405162461bcd60e51b815260206004820152602b60248201527f496e697469616c697a61626c653a20636f6e7472616374206973206e6f74206960448201526a6e697469616c697a696e6760a81b6064820152608490fd5b803b15612501575f805160206125f683398151915280546001600160a01b0319166001600160a01b03909216919091179055565b60405162461bcd60e51b815260206004820152602d60248201527f455243313936373a206e657720696d706c656d656e746174696f6e206973206e60448201526c1bdd08184818dbdb9d1c9858dd609a1b6064820152608490fd5b919290156125be5750815115612570575090565b3b156125795790565b60405162461bcd60e51b815260206004820152601d60248201527f416464726573733a2063616c6c20746f206e6f6e2d636f6e74726163740000006044820152606490fd5b8251909150156125d15750805190602001fd5b60405162461bcd60e51b815260206004820152908190611cb1906024830190611e1156fe360894a13ba1a3210667c828492db98dca3e2076cc3735a920a3ca505d382bbca164736f6c6343000819000a","linkReferences":{}},"methodIdentifiers":{"batchGrantRoles(address,address[],uint8[])":"45873848","batchRevokeRoles(address,address[],uint8[])":"a27eaca9","createGardenHatTree(address,address,string)":"62de09bc","gardenHatTrees(address)":"ce754cb5","gardenToken()":"db61d65c","gardensHatId()":"d213da5f","getGardenHatTree(address)":"72a2da1a","getRoleHatId(address,uint8)":"8e415dd5","grantRole(address,address,uint8)":"3868e7e5","hasHatTree(address)":"d3f5b485","hasRole(address,address,uint8)":"9ce7732c","hats()":"f99f0238","initialize(address,address,uint256,address)":"be203094","isEvaluator(address,address)":"c0197797","isGardener(address,address)":"c4351532","isOperator(address,address)":"b6363cf2","karmaGAPModule()":"4026d762","owner()":"8da5cb5b","proxiableUUID()":"52d1902d","renounceOwnership()":"715018a6","revokeRole(address,address,uint8)":"f13e5d09","setEligibilityModule(address,uint8,address)":"e9900a33","setGardenToken(address)":"b709b7fd","setGardensHatId(uint256)":"d06dbdb8","setHatsContract(address)":"e03a4efd","setKarmaGAPModule(address)":"d9e4aaee","transferOwnership(address)":"f2fde38b","upgradeTo(address)":"3659cfe6","upgradeToAndCall(address,bytes)":"4f1ef286"},"id":141}