{"abi":[{"type":"constructor","inputs":[{"name":"easAddrs","type":"address","internalType":"address"},{"name":"actionAddrs","type":"address","internalType":"address"},{"name":"hatsModule","type":"address","internalType":"address"}],"stateMutability":"nonpayable"},{"type":"receive","stateMutability":"payable"},{"type":"function","name":"ACTION_REGISTRY","inputs":[],"outputs":[{"name":"","type":"address","internalType":"address"}],"stateMutability":"view"},{"type":"function","name":"HATS_MODULE","inputs":[],"outputs":[{"name":"","type":"address","internalType":"contract IHats"}],"stateMutability":"view"},{"type":"function","name":"attest","inputs":[{"name":"attestation","type":"tuple","internalType":"struct Attestation","components":[{"name":"uid","type":"bytes32","internalType":"bytes32"},{"name":"schema","type":"bytes32","internalType":"bytes32"},{"name":"time","type":"uint64","internalType":"uint64"},{"name":"expirationTime","type":"uint64","internalType":"uint64"},{"name":"revocationTime","type":"uint64","internalType":"uint64"},{"name":"refUID","type":"bytes32","internalType":"bytes32"},{"name":"recipient","type":"address","internalType":"address"},{"name":"attester","type":"address","internalType":"address"},{"name":"revocable","type":"bool","internalType":"bool"},{"name":"data","type":"bytes","internalType":"bytes"}]}],"outputs":[{"name":"","type":"bool","internalType":"bool"}],"stateMutability":"payable"},{"type":"function","name":"initialize","inputs":[{"name":"_multisig","type":"address","internalType":"address"}],"outputs":[],"stateMutability":"nonpayable"},{"type":"function","name":"isPayable","inputs":[],"outputs":[{"name":"","type":"bool","internalType":"bool"}],"stateMutability":"pure"},{"type":"function","name":"multiAttest","inputs":[{"name":"attestations","type":"tuple[]","internalType":"struct Attestation[]","components":[{"name":"uid","type":"bytes32","internalType":"bytes32"},{"name":"schema","type":"bytes32","internalType":"bytes32"},{"name":"time","type":"uint64","internalType":"uint64"},{"name":"expirationTime","type":"uint64","internalType":"uint64"},{"name":"revocationTime","type":"uint64","internalType":"uint64"},{"name":"refUID","type":"bytes32","internalType":"bytes32"},{"name":"recipient","type":"address","internalType":"address"},{"name":"attester","type":"address","internalType":"address"},{"name":"revocable","type":"bool","internalType":"bool"},{"name":"data","type":"bytes","internalType":"bytes"}]},{"name":"values","type":"uint256[]","internalType":"uint256[]"}],"outputs":[{"name":"","type":"bool","internalType":"bool"}],"stateMutability":"payable"},{"type":"function","name":"multiRevoke","inputs":[{"name":"attestations","type":"tuple[]","internalType":"struct Attestation[]","components":[{"name":"uid","type":"bytes32","internalType":"bytes32"},{"name":"schema","type":"bytes32","internalType":"bytes32"},{"name":"time","type":"uint64","internalType":"uint64"},{"name":"expirationTime","type":"uint64","internalType":"uint64"},{"name":"revocationTime","type":"uint64","internalType":"uint64"},{"name":"refUID","type":"bytes32","internalType":"bytes32"},{"name":"recipient","type":"address","internalType":"address"},{"name":"attester","type":"address","internalType":"address"},{"name":"revocable","type":"bool","internalType":"bool"},{"name":"data","type":"bytes","internalType":"bytes"}]},{"name":"values","type":"uint256[]","internalType":"uint256[]"}],"outputs":[{"name":"","type":"bool","internalType":"bool"}],"stateMutability":"payable"},{"type":"function","name":"owner","inputs":[],"outputs":[{"name":"","type":"address","internalType":"address"}],"stateMutability":"view"},{"type":"function","name":"proxiableUUID","inputs":[],"outputs":[{"name":"","type":"bytes32","internalType":"bytes32"}],"stateMutability":"view"},{"type":"function","name":"renounceOwnership","inputs":[],"outputs":[],"stateMutability":"nonpayable"},{"type":"function","name":"revoke","inputs":[{"name":"attestation","type":"tuple","internalType":"struct Attestation","components":[{"name":"uid","type":"bytes32","internalType":"bytes32"},{"name":"schema","type":"bytes32","internalType":"bytes32"},{"name":"time","type":"uint64","internalType":"uint64"},{"name":"expirationTime","type":"uint64","internalType":"uint64"},{"name":"revocationTime","type":"uint64","internalType":"uint64"},{"name":"refUID","type":"bytes32","internalType":"bytes32"},{"name":"recipient","type":"address","internalType":"address"},{"name":"attester","type":"address","internalType":"address"},{"name":"revocable","type":"bool","internalType":"bool"},{"name":"data","type":"bytes","internalType":"bytes"}]}],"outputs":[{"name":"","type":"bool","internalType":"bool"}],"stateMutability":"payable"},{"type":"function","name":"transferOwnership","inputs":[{"name":"newOwner","type":"address","internalType":"address"}],"outputs":[],"stateMutability":"nonpayable"},{"type":"function","name":"upgradeTo","inputs":[{"name":"newImplementation","type":"address","internalType":"address"}],"outputs":[],"stateMutability":"nonpayable"},{"type":"function","name":"upgradeToAndCall","inputs":[{"name":"newImplementation","type":"address","internalType":"address"},{"name":"data","type":"bytes","internalType":"bytes"}],"outputs":[],"stateMutability":"payable"},{"type":"function","name":"version","inputs":[],"outputs":[{"name":"","type":"string","internalType":"string"}],"stateMutability":"view"},{"type":"event","name":"AdminChanged","inputs":[{"name":"previousAdmin","type":"address","indexed":false,"internalType":"address"},{"name":"newAdmin","type":"address","indexed":false,"internalType":"address"}],"anonymous":false},{"type":"event","name":"BeaconUpgraded","inputs":[{"name":"beacon","type":"address","indexed":true,"internalType":"address"}],"anonymous":false},{"type":"event","name":"Initialized","inputs":[{"name":"version","type":"uint8","indexed":false,"internalType":"uint8"}],"anonymous":false},{"type":"event","name":"OwnershipTransferred","inputs":[{"name":"previousOwner","type":"address","indexed":true,"internalType":"address"},{"name":"newOwner","type":"address","indexed":true,"internalType":"address"}],"anonymous":false},{"type":"event","name":"Upgraded","inputs":[{"name":"implementation","type":"address","indexed":true,"internalType":"address"}],"anonymous":false},{"type":"error","name":"AccessDenied","inputs":[]},{"type":"error","name":"InsufficientValue","inputs":[]},{"type":"error","name":"InvalidEAS","inputs":[]},{"type":"error","name":"InvalidLength","inputs":[]},{"type":"error","name":"NotActiveAction","inputs":[]},{"type":"error","name":"NotGardenMember","inputs":[]},{"type":"error","name":"NotInActionRegistry","inputs":[]},{"type":"error","name":"NotPayable","inputs":[]}],"bytecode":{"object":"0x610160346101b657601f611aaa38819003918201601f191683019291906001600160401b038411838510176101ba5781606092849260409687528339810103126101b65761004c816101ce565b916100648161005d602085016101ce565b93016101ce565b6001608052600360a0525f60c0526001600160a01b0393909190841680156101a55760e05261010093308552610120938452610140921682525f5460ff8160081c166101515760ff80821603610118575b5051916118c793846101e3853960805184610461015260a05184610490015260c051846104ba015260e051846110ef0152518381816105640152818161066001526108f20152518281816103bd015261158801525181818160e201526114a90152f35b60ff90811916175f557f7f26b83ff96e1f2b6a682f133852f6798a09c465da95921460cefb38474024986020825160ff8152a15f6100b5565b815162461bcd60e51b815260206004820152602760248201527f496e697469616c697a61626c653a20636f6e747261637420697320696e697469604482015266616c697a696e6760c81b6064820152608490fd5b81516341bc07ff60e11b8152600490fd5b5f80fd5b634e487b7160e01b5f52604160045260245ffd5b51906001600160a01b03821682036101b65756fe60406080815260048036101561001e575b5050361561001c575f80fd5b005b5f3560e01c9081633659cfe6146108c75781634f1ef2861461061057816352d1902d1461055057816354fd4d5014610447578163715018a6146103ec578163801f45dc146103a957816388e5b2d9146103895781638da5cb5b1461036157816391db0b7e14610341578163c4d66de8146101fe578163ce46e046146101e3578163e49617e1146101c8578163e60c3505146101a3578163f2fde38b14610115575063fb046ade146100cf5780610010565b34610111575f36600319011261011157517f00000000000000000000000000000000000000000000000000000000000000006001600160a01b03168152602090f35b5f80fd5b90503461011157602036600319011261011157610130610b69565b9161013961104d565b6001600160a01b038316156101515761001c836110a5565b906020608492519162461bcd60e51b8352820152602660248201527f4f776e61626c653a206e6577206f776e657220697320746865207a65726f206160448201526564647265737360d01b6064820152fd5b6020836101bf6101b236610cec565b6101ba6110ed565b611355565b90519015158152f35b6020836101d436610cec565b506101dd6110ed565b515f8152f35b8234610111575f366003190112610111576020905160018152f35b90503461011157602036600319011261011157610219610b69565b5f5460ff8160081c161592838094610334575b801561031d575b156102c3575060ff1981166001175f556102769190836102b1575b5061026860ff5f5460081c1661026381611716565b611716565b610271336110a5565b6110a5565b61027c57005b60207f7f26b83ff96e1f2b6a682f133852f6798a09c465da95921460cefb38474024989161ff00195f54165f555160018152a1005b61ffff1916610101175f90815561024e565b608490602086519162461bcd60e51b8352820152602e60248201527f496e697469616c697a61626c653a20636f6e747261637420697320616c72656160448201526d191e481a5b9a5d1a585b1a5e995960921b6064820152fd5b50303b1580156102335750600160ff831614610233565b50600160ff83161061022c565b6020836101bf61035036610ca1565b9261035c9291926110ed565b610e88565b8234610111575f3660031901126101115760335490516001600160a01b039091168152602090f35b6020836101bf61039836610ca1565b926103a49291926110ed565b610e28565b8234610111575f36600319011261011157517f00000000000000000000000000000000000000000000000000000000000000006001600160a01b03168152602090f35b34610111575f3660031901126101115761040461104d565b603380546001600160a01b031981169091555f906001600160a01b03167f8be0079c531659141344cd1fd0a4f28419497f9722a3daafe3b4186f6b6457e08280a3005b8234610111575f3660031901126101115761054c906104857f0000000000000000000000000000000000000000000000000000000000000000610ee6565b9061054260226104b47f0000000000000000000000000000000000000000000000000000000000000000610ee6565b936104de7f0000000000000000000000000000000000000000000000000000000000000000610ee6565b845195826104f6889451809260208088019101610c23565b830190601760f91b91826020820152610519825180936020602185019101610c23565b019060218201526105338251809360208785019101610c23565b01036002810185520183610baf565b5191829182610c44565b0390f35b905034610111575f366003190112610111577f00000000000000000000000000000000000000000000000000000000000000006001600160a01b031630036105a857602082515f8051602061189b8339815191528152f35b6020608492519162461bcd60e51b8352820152603860248201527f555550535570677261646561626c653a206d757374206e6f742062652063616c60448201527f6c6564207468726f7567682064656c656761746563616c6c00000000000000006064820152fd5b90508160031936011261011157610625610b69565b9160243567ffffffffffffffff81116101115736602382011215610111576106569036906024818601359101610bed565b6001600160a01b037f0000000000000000000000000000000000000000000000000000000000000000811692919061069030851415610d1f565b6106ac5f8051602061189b833981519152948286541614610d80565b6106b461104d565b7f4910fdfa16fed3260ed0e7147f7cc6da11a60208b5b9406d12a635614ffd91435460ff16156106ec57505050505061001c90611776565b85168251936352d1902d60e01b855260209485818881865afa5f9181610898575b5061076c57845162461bcd60e51b8152808801879052602e60248201527f45524331393637557067726164653a206e657720696d706c656d656e7461746960448201526d6f6e206973206e6f74205555505360901b6064820152608490fd5b9591929503610843575061077f85611776565b7fbc7cd75a20ee27fd9adebab32041f755214dbc6bffa90cc0225b39da2e5c2d3b5f80a282511580159061083b575b6107b457005b61001c935f808351956107c687610b7f565b602787527f416464726573733a206c6f772d6c6576656c2064656c65676174652063616c6c86880152660819985a5b195960ca1b858801528581519101845af4913d15610831573d61082361081a82610bd1565b92519283610baf565b81525f81943d92013e611805565b5060609250611805565b5060016107ae565b825162461bcd60e51b8152908101849052602960248201527f45524331393637557067726164653a20756e737570706f727465642070726f786044820152681a58589b195555525160ba1b6064820152608490fd5b9091508681813d83116108c0575b6108b08183610baf565b810103126101115751905f61070d565b503d6108a6565b9050346101115760209081600319360112610111576108e4610b69565b6001600160a01b03939092907f0000000000000000000000000000000000000000000000000000000000000000851661091f30821415610d1f565b61093b5f8051602061189b833981519152918783541614610d80565b61094361104d565b8151908382019682881067ffffffffffffffff891117610b56578784525f83527f4910fdfa16fed3260ed0e7147f7cc6da11a60208b5b9406d12a635614ffd91435460ff161561099d5750505050505061001c9150611776565b869293949596169084516352d1902d60e01b815286818981865afa5f9181610b27575b50610a1f57855162461bcd60e51b8152808901889052602e60248201527f45524331393637557067726164653a206e657720696d706c656d656e7461746960448201526d6f6e206973206e6f74205555505360901b6064820152608490fd5b969192939603610ad25750610a3382611776565b7fbc7cd75a20ee27fd9adebab32041f755214dbc6bffa90cc0225b39da2e5c2d3b5f80a2835115801590610acb575b610a6857005b5f8061001c96845196610a7a88610b7f565b602788527f416464726573733a206c6f772d6c6576656c2064656c65676174652063616c6c87890152660819985a5b195960ca1b868901525190845af4913d15610831573d61082361081a82610bd1565b505f610a62565b835162461bcd60e51b8152908101859052602960248201527f45524331393637557067726164653a20756e737570706f727465642070726f786044820152681a58589b195555525160ba1b6064820152608490fd5b9091508781813d8311610b4f575b610b3f8183610baf565b810103126101115751905f6109c0565b503d610b35565b604186634e487b7160e01b5f525260245ffd5b600435906001600160a01b038216820361011157565b6060810190811067ffffffffffffffff821117610b9b57604052565b634e487b7160e01b5f52604160045260245ffd5b90601f8019910116810190811067ffffffffffffffff821117610b9b57604052565b67ffffffffffffffff8111610b9b57601f01601f191660200190565b929192610bf982610bd1565b91610c076040519384610baf565b829481845281830111610111578281602093845f960137010152565b5f5b838110610c345750505f910152565b8181015183820152602001610c25565b60409160208252610c648151809281602086015260208686019101610c23565b601f01601f1916010190565b9181601f840112156101115782359167ffffffffffffffff8311610111576020808501948460051b01011161011157565b60406003198201126101115767ffffffffffffffff916004358381116101115782610cce91600401610c70565b9390939260243591821161011157610ce891600401610c70565b9091565b60031990602081830112610111576004359167ffffffffffffffff83116101115782610140920301126101115760040190565b15610d2657565b60405162461bcd60e51b815260206004820152602c60248201527f46756e6374696f6e206d7573742062652063616c6c6564207468726f7567682060448201526b19195b1959d85d1958d85b1b60a21b6064820152608490fd5b15610d8757565b60405162461bcd60e51b815260206004820152602c60248201527f46756e6374696f6e206d7573742062652063616c6c6564207468726f7567682060448201526b6163746976652070726f787960a01b6064820152608490fd5b9190811015610df15760051b0190565b634e487b7160e01b5f52603260045260245ffd5b9190811015610df15760051b8101359061013e1981360301821215610111570190565b919092808403610e7657835f10610e425750505050600190565b5f610e4e913493610de1565b3511610e6457610e5f915f91610e05565b505f90565b60405163044044a560e21b8152600490fd5b60405163251f56a160e21b8152600490fd5b92909192818303610e76575f91345b848410610ea957505050505050600190565b610eb4848388610de1565b35818111610e6457610eca6101ba868887610e05565b15610edb5760019103930192610e97565b505050505050505f90565b805f917a184f03e93ff9f4daa797ed6e38ed64bf6a1f0100000000000000008082101561103f575b506d04ee2d6d415b85acef810000000080831015611030575b50662386f26fc1000080831015611021575b506305f5e10080831015611012575b5061271080831015611003575b506064821015610ff3575b600a80921015610fe9575b6001908160216001860195610f7f87610bd1565b96610f8d6040519889610baf565b808852610f9c601f1991610bd1565b01366020890137860101905b610fb4575b5050505090565b5f19019083906f181899199a1a9b1b9c1cb0b131b232b360811b8282061a835304918215610fe457919082610fa8565b610fad565b9160010191610f6b565b9190606460029104910191610f60565b6004919392049101915f610f55565b6008919392049101915f610f48565b6010919392049101915f610f39565b6020919392049101915f610f27565b60409350810491505f610f0e565b6033546001600160a01b0316330361106157565b606460405162461bcd60e51b815260206004820152602060248201527f4f776e61626c653a2063616c6c6572206973206e6f7420746865206f776e65726044820152fd5b603380546001600160a01b039283166001600160a01b0319821681179092559091167f8be0079c531659141344cd1fd0a4f28419497f9722a3daafe3b4186f6b6457e05f80a3565b7f00000000000000000000000000000000000000000000000000000000000000006001600160a01b0316330361111f57565b604051634ca8886760e01b8152600490fd5b9080601f830112156101115781602061114c93359101610bed565b90565b67ffffffffffffffff8111610b9b5760051b60200190565b356001600160a01b03811681036101115790565b90816020910312610111575180151581036101115790565b81601f820112156101115780516111a981610bd1565b926111b76040519485610baf565b818452602082840101116101115761114c9160208085019101610c23565b6020808284031261011157815167ffffffffffffffff9283821161011157019260c0848203126101115760409283519460c0860186811083821117610b9b578552805186528381015184870152848101518281116101115783611239918301611193565b8587015260608101518281116101115783611255918301611193565b6060870152608081015182811161011157810183601f820112156101115780519061127f8261114f565b9161128c88519384610baf565b808352868084019160051b83010191868311610111578701905b82821061133d57505050608087015260a08101519082821161011157019082601f83011215610111578151906112e76112de8361114f565b96519687610baf565b818652848087019260051b8401019380851161011157858401925b858410611318575050505050505060a082015290565b8351838111610111578791611332848480948a0101611193565b815201930192611302565b815160088110156101115781529087019087016112a6565b610120810135601e198236030181121561011157810180359067ffffffffffffffff90818311610111576020918282019380360385136101115782019183830194848285031261011157358281116101115760a09101809303126101115760409384519260a0840184811084821117610b9b578652848101358452858101358381116101115782866113e992840101611131565b85850152606081013583811161011157828661140792840101611131565b86850152608081013583811161011157828661142592840101611131565b606085015260a08101359083821161011157019181603f8401121561011157848301356114518161114f565b9361145e88519586610baf565b818552878786019260051b8201019380851161011157888201925b8584106116f157505050505050608082015261149760c08501611167565b936001600160a01b039061150d9086907f000000000000000000000000000000000000000000000000000000000000000084169060e001866114d882611167565b895163621a8a9960e11b81526001600160a01b039b8c166004808301919091529b909116602482015294859081906044820190565b0381855afa9384156116e7579161156694939188935f956116c4575b5061153390611167565b8951635b1b1e7960e11b81526001600160a01b03938416818d019081529390911660208401529485928391829160400190565b03915afa918215611672575f92611695575b5015908161168c575b5061167c577f00000000000000000000000000000000000000000000000000000000000000001690805190845163b6e7687360e01b92838252878201525f81602481875afa908115611672575f91611658575b505115611648579060245f925191865194859384928352898301525afa90811561163e575f9161161c575b500151421161160f575050600190565b51632ff9aed360e01b8152fd5b61163891503d805f833e6116308183610baf565b8101906111d5565b5f6115ff565b83513d5f823e3d90fd5b8451632db1a5e960e11b81528690fd5b61166c91503d805f833e6116308183610baf565b5f6115d4565b86513d5f823e3d90fd5b5050505163fdb31dd560e01b8152fd5b9050155f611581565b6116b6919250853d87116116bd575b6116ae8183610baf565b81019061117b565b905f611578565b503d6116a4565b6115339195506116e090853d87116116bd576116ae8183610baf565b9490611529565b88513d5f823e3d90fd5b833585811161011157899161170b848d8594880101611131565b815201930192611479565b1561171d57565b60405162461bcd60e51b815260206004820152602b60248201527f496e697469616c697a61626c653a20636f6e7472616374206973206e6f74206960448201526a6e697469616c697a696e6760a81b6064820152608490fd5b803b156117aa575f8051602061189b83398151915280546001600160a01b0319166001600160a01b03909216919091179055565b60405162461bcd60e51b815260206004820152602d60248201527f455243313936373a206e657720696d706c656d656e746174696f6e206973206e60448201526c1bdd08184818dbdb9d1c9858dd609a1b6064820152608490fd5b919290156118675750815115611819575090565b3b156118225790565b60405162461bcd60e51b815260206004820152601d60248201527f416464726573733a2063616c6c20746f206e6f6e2d636f6e74726163740000006044820152606490fd5b82519091501561187a5750805190602001fd5b60405162461bcd60e51b81529081906118969060048301610c44565b0390fdfe360894a13ba1a3210667c828492db98dca3e2076cc3735a920a3ca505d382bbca164736f6c6343000819000a","linkReferences":{}},"methodIdentifiers":{"ACTION_REGISTRY()":"801f45dc","HATS_MODULE()":"fb046ade","attest((bytes32,bytes32,uint64,uint64,uint64,bytes32,address,address,bool,bytes))":"e60c3505","initialize(address)":"c4d66de8","isPayable()":"ce46e046","multiAttest((bytes32,bytes32,uint64,uint64,uint64,bytes32,address,address,bool,bytes)[],uint256[])":"91db0b7e","multiRevoke((bytes32,bytes32,uint64,uint64,uint64,bytes32,address,address,bool,bytes)[],uint256[])":"88e5b2d9","owner()":"8da5cb5b","proxiableUUID()":"52d1902d","renounceOwnership()":"715018a6","revoke((bytes32,bytes32,uint64,uint64,uint64,bytes32,address,address,bool,bytes))":"e49617e1","transferOwnership(address)":"f2fde38b","upgradeTo(address)":"3659cfe6","upgradeToAndCall(address,bytes)":"4f1ef286","version()":"54fd4d50"},"id":140}