{"abi":[{"type":"constructor","inputs":[{"name":"easAddrs","type":"address","internalType":"address"},{"name":"actionAddrs","type":"address","internalType":"address"}],"stateMutability":"nonpayable"},{"type":"receive","stateMutability":"payable"},{"type":"function","name":"actionRegistry","inputs":[],"outputs":[{"name":"","type":"address","internalType":"address"}],"stateMutability":"view"},{"type":"function","name":"attest","inputs":[{"name":"attestation","type":"tuple","internalType":"struct Attestation","components":[{"name":"uid","type":"bytes32","internalType":"bytes32"},{"name":"schema","type":"bytes32","internalType":"bytes32"},{"name":"time","type":"uint64","internalType":"uint64"},{"name":"expirationTime","type":"uint64","internalType":"uint64"},{"name":"revocationTime","type":"uint64","internalType":"uint64"},{"name":"refUID","type":"bytes32","internalType":"bytes32"},{"name":"recipient","type":"address","internalType":"address"},{"name":"attester","type":"address","internalType":"address"},{"name":"revocable","type":"bool","internalType":"bool"},{"name":"data","type":"bytes","internalType":"bytes"}]}],"outputs":[{"name":"","type":"bool","internalType":"bool"}],"stateMutability":"payable"},{"type":"function","name":"initialize","inputs":[{"name":"_multisig","type":"address","internalType":"address"}],"outputs":[],"stateMutability":"nonpayable"},{"type":"function","name":"isPayable","inputs":[],"outputs":[{"name":"","type":"bool","internalType":"bool"}],"stateMutability":"pure"},{"type":"function","name":"multiAttest","inputs":[{"name":"attestations","type":"tuple[]","internalType":"struct Attestation[]","components":[{"name":"uid","type":"bytes32","internalType":"bytes32"},{"name":"schema","type":"bytes32","internalType":"bytes32"},{"name":"time","type":"uint64","internalType":"uint64"},{"name":"expirationTime","type":"uint64","internalType":"uint64"},{"name":"revocationTime","type":"uint64","internalType":"uint64"},{"name":"refUID","type":"bytes32","internalType":"bytes32"},{"name":"recipient","type":"address","internalType":"address"},{"name":"attester","type":"address","internalType":"address"},{"name":"revocable","type":"bool","internalType":"bool"},{"name":"data","type":"bytes","internalType":"bytes"}]},{"name":"values","type":"uint256[]","internalType":"uint256[]"}],"outputs":[{"name":"","type":"bool","internalType":"bool"}],"stateMutability":"payable"},{"type":"function","name":"multiRevoke","inputs":[{"name":"attestations","type":"tuple[]","internalType":"struct Attestation[]","components":[{"name":"uid","type":"bytes32","internalType":"bytes32"},{"name":"schema","type":"bytes32","internalType":"bytes32"},{"name":"time","type":"uint64","internalType":"uint64"},{"name":"expirationTime","type":"uint64","internalType":"uint64"},{"name":"revocationTime","type":"uint64","internalType":"uint64"},{"name":"refUID","type":"bytes32","internalType":"bytes32"},{"name":"recipient","type":"address","internalType":"address"},{"name":"attester","type":"address","internalType":"address"},{"name":"revocable","type":"bool","internalType":"bool"},{"name":"data","type":"bytes","internalType":"bytes"}]},{"name":"values","type":"uint256[]","internalType":"uint256[]"}],"outputs":[{"name":"","type":"bool","internalType":"bool"}],"stateMutability":"payable"},{"type":"function","name":"owner","inputs":[],"outputs":[{"name":"","type":"address","internalType":"address"}],"stateMutability":"view"},{"type":"function","name":"proxiableUUID","inputs":[],"outputs":[{"name":"","type":"bytes32","internalType":"bytes32"}],"stateMutability":"view"},{"type":"function","name":"renounceOwnership","inputs":[],"outputs":[],"stateMutability":"nonpayable"},{"type":"function","name":"revoke","inputs":[{"name":"attestation","type":"tuple","internalType":"struct Attestation","components":[{"name":"uid","type":"bytes32","internalType":"bytes32"},{"name":"schema","type":"bytes32","internalType":"bytes32"},{"name":"time","type":"uint64","internalType":"uint64"},{"name":"expirationTime","type":"uint64","internalType":"uint64"},{"name":"revocationTime","type":"uint64","internalType":"uint64"},{"name":"refUID","type":"bytes32","internalType":"bytes32"},{"name":"recipient","type":"address","internalType":"address"},{"name":"attester","type":"address","internalType":"address"},{"name":"revocable","type":"bool","internalType":"bool"},{"name":"data","type":"bytes","internalType":"bytes"}]}],"outputs":[{"name":"","type":"bool","internalType":"bool"}],"stateMutability":"payable"},{"type":"function","name":"transferOwnership","inputs":[{"name":"newOwner","type":"address","internalType":"address"}],"outputs":[],"stateMutability":"nonpayable"},{"type":"function","name":"upgradeTo","inputs":[{"name":"newImplementation","type":"address","internalType":"address"}],"outputs":[],"stateMutability":"nonpayable"},{"type":"function","name":"upgradeToAndCall","inputs":[{"name":"newImplementation","type":"address","internalType":"address"},{"name":"data","type":"bytes","internalType":"bytes"}],"outputs":[],"stateMutability":"payable"},{"type":"function","name":"version","inputs":[],"outputs":[{"name":"","type":"string","internalType":"string"}],"stateMutability":"view"},{"type":"event","name":"AdminChanged","inputs":[{"name":"previousAdmin","type":"address","indexed":false,"internalType":"address"},{"name":"newAdmin","type":"address","indexed":false,"internalType":"address"}],"anonymous":false},{"type":"event","name":"BeaconUpgraded","inputs":[{"name":"beacon","type":"address","indexed":true,"internalType":"address"}],"anonymous":false},{"type":"event","name":"Initialized","inputs":[{"name":"version","type":"uint8","indexed":false,"internalType":"uint8"}],"anonymous":false},{"type":"event","name":"OwnershipTransferred","inputs":[{"name":"previousOwner","type":"address","indexed":true,"internalType":"address"},{"name":"newOwner","type":"address","indexed":true,"internalType":"address"}],"anonymous":false},{"type":"event","name":"Upgraded","inputs":[{"name":"implementation","type":"address","indexed":true,"internalType":"address"}],"anonymous":false},{"type":"error","name":"AccessDenied","inputs":[]},{"type":"error","name":"InsufficientValue","inputs":[]},{"type":"error","name":"InvalidEAS","inputs":[]},{"type":"error","name":"InvalidLength","inputs":[]},{"type":"error","name":"NotActiveAction","inputs":[]},{"type":"error","name":"NotGardenerAccount","inputs":[]},{"type":"error","name":"NotInActionRegistry","inputs":[]},{"type":"error","name":"NotPayable","inputs":[]}],"bytecode":{"object":"0x610120346100e857601f611d4738819003918201601f19168301916001600160401b038311848410176100ec5780849260409485528339810103126100e857610053602061004c83610100565b9201610100565b6001608052600360a0525f60c052906001600160a01b0390811680156100d65760e052610100913083521660018060a01b03196065541617606555604051611c32918261011583396080518261054c015260a0518261057b015260c051826105a5015260e0518261146401525181818161067f015281816107950152610a920152f35b6040516341bc07ff60e11b8152600490fd5b5f80fd5b634e487b7160e01b5f52604160045260245ffd5b51906001600160a01b03821682036100e85756fe60406080815260048036101561001e575b5050361561001c575f80fd5b005b5f3560e01c80633659cfe614610a5c5780634f1ef2861461073657806352d1902d1461065757806354fd4d5014610532578063715018a6146104b457806388e5b2d9146103fc5780638da5cb5b146103c857806391db0b7e146103a8578063c4d66de814610208578063ce46e046146101ed578063e49617e1146101c9578063e4e3967814610195578063e60c3505146101705763f2fde38b03610010573461016c57602060031936011261016c576100d5610d84565b916100de61137c565b73ffffffffffffffffffffffffffffffffffffffff8316156101035761001c836113e1565b906020608492519162461bcd60e51b8352820152602660248201527f4f776e61626c653a206e6577206f776e657220697320746865207a65726f206160448201527f64647265737300000000000000000000000000000000000000000000000000006064820152fd5b5f80fd5b60208361018c61017f36610f88565b61018761144d565b6116cf565b90519015158152f35b823461016c575f60031936011261016c5760209073ffffffffffffffffffffffffffffffffffffffff606554169051908152f35b6020836101d536610f88565b506101de61144d565b6101e661137c565b5160018152f35b823461016c575f60031936011261016c576020905160018152f35b503461016c57602060031936011261016c57610222610d84565b505f5460ff8160081c16159182809361039b575b8015610384575b1561031b57508160017fffffffffffffffffffffffffffffffffffffffffffffffffffffffffffffff008316175f556102ec575b5061028b60ff5f5460081c1661028681611a4e565b611a4e565b610294336113e1565b61029a57005b60207f7f26b83ff96e1f2b6a682f133852f6798a09c465da95921460cefb3847402498917fffffffffffffffffffffffffffffffffffffffffffffffffffffffffffff00ff5f54165f555160018152a1005b7fffffffffffffffffffffffffffffffffffffffffffffffffffffffffffff00006101019116175f555f610271565b608490602085519162461bcd60e51b8352820152602e60248201527f496e697469616c697a61626c653a20636f6e747261637420697320616c72656160448201527f647920696e697469616c697a65640000000000000000000000000000000000006064820152fd5b50303b15801561023d5750600160ff83161461023d565b50600160ff831610610236565b60208361018c6103b736610f3d565b926103c392919261144d565b61111a565b823461016c575f60031936011261016c5760209073ffffffffffffffffffffffffffffffffffffffff603354169051908152f35b509061040736610f3d565b919461041493919361144d565b82860361048d575f92345b878510610430576020875160018152f35b61043b85838861109d565b35908082116104655790600191610453878b886110da565b5061045c61137c565b0394019361041f565b8388517f11011294000000000000000000000000000000000000000000000000000000008152fd5b84517f947d5a84000000000000000000000000000000000000000000000000000000008152fd5b3461016c575f60031936011261016c576104cc61137c565b5f73ffffffffffffffffffffffffffffffffffffffff6033547fffffffffffffffffffffffff00000000000000000000000000000000000000008116603355167f8be0079c531659141344cd1fd0a4f28419497f9722a3daafe3b4186f6b6457e08280a3005b823461016c575f60031936011261016c57610653906105707f00000000000000000000000000000000000000000000000000000000000000006111cc565b90610649602261059f7f00000000000000000000000000000000000000000000000000000000000000006111cc565b936105c97f00000000000000000000000000000000000000000000000000000000000000006111cc565b845195826105e1889451809260208088019101610ea1565b8301907f2e0000000000000000000000000000000000000000000000000000000000000091826020820152610620825180936020602185019101610ea1565b0190602182015261063a8251809360208785019101610ea1565b01036002810185520183610df0565b5191829182610ec2565b0390f35b503461016c575f60031936011261016c5773ffffffffffffffffffffffffffffffffffffffff7f00000000000000000000000000000000000000000000000000000000000000001630036106ce57602082517f360894a13ba1a3210667c828492db98dca3e2076cc3735a920a3ca505d382bbc8152f35b6020608492519162461bcd60e51b8352820152603860248201527f555550535570677261646561626c653a206d757374206e6f742062652063616c60448201527f6c6564207468726f7567682064656c656761746563616c6c00000000000000006064820152fd5b508160031936011261016c5761074a610d84565b9160243567ffffffffffffffff811161016c573660238201121561016c5761077b9036906024818601359101610e6b565b9073ffffffffffffffffffffffffffffffffffffffff91827f000000000000000000000000000000000000000000000000000000000000000016926107c284301415610fbb565b6107f17f360894a13ba1a3210667c828492db98dca3e2076cc3735a920a3ca505d382bbc94828654161461102c565b6107f961137c565b7f4910fdfa16fed3260ed0e7147f7cc6da11a60208b5b9406d12a635614ffd91435460ff161561083157505050505061001c90611abf565b85168251937f52d1902d00000000000000000000000000000000000000000000000000000000855260209485818881865afa5f9181610a2d575b506108d8576084878787519162461bcd60e51b8352820152602e60248201527f45524331393637557067726164653a206e657720696d706c656d656e7461746960448201527f6f6e206973206e6f7420555550530000000000000000000000000000000000006064820152fd5b95919295036109c557506108eb85611abf565b7fbc7cd75a20ee27fd9adebab32041f755214dbc6bffa90cc0225b39da2e5c2d3b5f80a28251158015906109bd575b61092057005b61001c935f8083519561093287610da7565b602787527f416464726573733a206c6f772d6c6576656c2064656c65676174652063616c6c868801527f206661696c656400000000000000000000000000000000000000000000000000858801528581519101845af4913d156109b3573d6109a561099c82610e31565b92519283610df0565b81525f81943d92013e611b91565b5060609250611b91565b50600161091a565b6084908484519162461bcd60e51b8352820152602960248201527f45524331393637557067726164653a20756e737570706f727465642070726f7860448201527f6961626c655555494400000000000000000000000000000000000000000000006064820152fd5b9091508681813d8311610a55575b610a458183610df0565b8101031261016c5751905f61086b565b503d610a3b565b503461016c576020908160031936011261016c57610a78610d84565b9173ffffffffffffffffffffffffffffffffffffffff93847f000000000000000000000000000000000000000000000000000000000000000016610abe81301415610fbb565b610aed7f360894a13ba1a3210667c828492db98dca3e2076cc3735a920a3ca505d382bbc91878354161461102c565b610af561137c565b8151908382019682881067ffffffffffffffff891117610d58578784525f83527f4910fdfa16fed3260ed0e7147f7cc6da11a60208b5b9406d12a635614ffd91435460ff1615610b4f5750505050505061001c9150611abf565b869293949596169084517f52d1902d00000000000000000000000000000000000000000000000000000000815286818981865afa5f9181610d29575b50610bf8576084888888519162461bcd60e51b8352820152602e60248201527f45524331393637557067726164653a206e657720696d706c656d656e7461746960448201527f6f6e206973206e6f7420555550530000000000000000000000000000000000006064820152fd5b969192939603610cc15750610c0c82611abf565b7fbc7cd75a20ee27fd9adebab32041f755214dbc6bffa90cc0225b39da2e5c2d3b5f80a2835115801590610cba575b610c4157005b5f8061001c96845196610c5388610da7565b602788527f416464726573733a206c6f772d6c6576656c2064656c65676174652063616c6c878901527f206661696c656400000000000000000000000000000000000000000000000000868901525190845af4913d156109b3573d6109a561099c82610e31565b505f610c3b565b6084908585519162461bcd60e51b8352820152602960248201527f45524331393637557067726164653a20756e737570706f727465642070726f7860448201527f6961626c655555494400000000000000000000000000000000000000000000006064820152fd5b9091508781813d8311610d51575b610d418183610df0565b8101031261016c5751905f610b8b565b503d610d37565b6041867f4e487b71000000000000000000000000000000000000000000000000000000005f525260245ffd5b6004359073ffffffffffffffffffffffffffffffffffffffff8216820361016c57565b6060810190811067ffffffffffffffff821117610dc357604052565b7f4e487b71000000000000000000000000000000000000000000000000000000005f52604160045260245ffd5b90601f7fffffffffffffffffffffffffffffffffffffffffffffffffffffffffffffffe0910116810190811067ffffffffffffffff821117610dc357604052565b67ffffffffffffffff8111610dc357601f017fffffffffffffffffffffffffffffffffffffffffffffffffffffffffffffffe01660200190565b929192610e7782610e31565b91610e856040519384610df0565b82948184528183011161016c578281602093845f960137010152565b5f5b838110610eb25750505f910152565b8181015183820152602001610ea3565b7fffffffffffffffffffffffffffffffffffffffffffffffffffffffffffffffe0601f60409360208452610f058151809281602088015260208888019101610ea1565b0116010190565b9181601f8401121561016c5782359167ffffffffffffffff831161016c576020808501948460051b01011161016c57565b604060031982011261016c5767ffffffffffffffff9160043583811161016c5782610f6a91600401610f0c565b9390939260243591821161016c57610f8491600401610f0c565b9091565b6003199060208282011261016c576004359167ffffffffffffffff831161016c57826101409203011261016c5760040190565b15610fc257565b608460405162461bcd60e51b815260206004820152602c60248201527f46756e6374696f6e206d7573742062652063616c6c6564207468726f7567682060448201527f64656c656761746563616c6c00000000000000000000000000000000000000006064820152fd5b1561103357565b608460405162461bcd60e51b815260206004820152602c60248201527f46756e6374696f6e206d7573742062652063616c6c6564207468726f7567682060448201527f6163746976652070726f787900000000000000000000000000000000000000006064820152fd5b91908110156110ad5760051b0190565b7f4e487b71000000000000000000000000000000000000000000000000000000005f52603260045260245ffd5b91908110156110ad5760051b810135907ffffffffffffffffffffffffffffffffffffffffffffffffffffffffffffffec18136030182121561016c570190565b929091928183036111a2575f91345b84841061113b57505050505050600190565b61114684838861109d565b358181116111785761115c6101878688876110da565b1561116d5760019103930192611129565b505050505050505f90565b60046040517f11011294000000000000000000000000000000000000000000000000000000008152fd5b60046040517f947d5a84000000000000000000000000000000000000000000000000000000008152fd5b805f917a184f03e93ff9f4daa797ed6e38ed64bf6a1f0100000000000000008082101561136e575b506d04ee2d6d415b85acef81000000008083101561135f575b50662386f26fc1000080831015611350575b506305f5e10080831015611341575b5061271080831015611332575b506064821015611322575b600a80921015611318575b60019081602160018601957fffffffffffffffffffffffffffffffffffffffffffffffffffffffffffffffe061129f61128989610e31565b986112976040519a8b610df0565b808a52610e31565b01366020890137860101905b6112b7575b5050505090565b7fffffffffffffffffffffffffffffffffffffffffffffffffffffffffffffffff849101917f30313233343536373839616263646566000000000000000000000000000000008282061a835304918215611313579190826112ab565b6112b0565b9160010191611251565b9190606460029104910191611246565b6004919392049101915f61123b565b6008919392049101915f61122e565b6010919392049101915f61121f565b6020919392049101915f61120d565b60409350810491505f6111f4565b73ffffffffffffffffffffffffffffffffffffffff60335416330361139d57565b606460405162461bcd60e51b815260206004820152602060248201527f4f776e61626c653a2063616c6c6572206973206e6f7420746865206f776e65726044820152fd5b6033549073ffffffffffffffffffffffffffffffffffffffff80911691827fffffffffffffffffffffffff0000000000000000000000000000000000000000821617603355167f8be0079c531659141344cd1fd0a4f28419497f9722a3daafe3b4186f6b6457e05f80a3565b73ffffffffffffffffffffffffffffffffffffffff7f000000000000000000000000000000000000000000000000000000000000000016330361148c57565b60046040517f4ca88867000000000000000000000000000000000000000000000000000000008152fd5b9080601f8301121561016c578160206114d193359101610e6b565b90565b67ffffffffffffffff8111610dc35760051b60200190565b3573ffffffffffffffffffffffffffffffffffffffff8116810361016c5790565b81601f8201121561016c57805161152381610e31565b926115316040519485610df0565b8184526020828401011161016c576114d19160208085019101610ea1565b6020808284031261016c57815167ffffffffffffffff9283821161016c57019260c08482031261016c5760409283519460c0860186811083821117610dc35785528051865283810151848701528481015182811161016c57836115b391830161150d565b85870152606081015182811161016c57836115cf91830161150d565b6060870152608081015182811161016c57810183601f8201121561016c578051906115f9826114d4565b9161160688519384610df0565b808352868084019160051b8301019186831161016c578701905b8282106116b757505050608087015260a08101519082821161016c57019082601f8301121561016c57815190611661611658836114d4565b96519687610df0565b818652848087019260051b8401019380851161016c57858401925b858410611692575050505050505060a082015290565b835183811161016c5787916116ac848480948a010161150d565b81520193019261167c565b8151600881101561016c578152908701908701611620565b6101208101357fffffffffffffffffffffffffffffffffffffffffffffffffffffffffffffffe18236030181121561016c57810180359067ffffffffffffffff9081831161016c5760209182820193803603851361016c5782019183830194848285031261016c573582811161016c5760a091018093031261016c5760409384519260a0840184811084821117610dc35786528481013584528581013583811161016c578286611781928401016114b6565b85850152606081013583811161016c57828661179f928401016114b6565b86850152608081013583811161016c5782866117bd928401016114b6565b606085015260a08101359083821161016c57019181603f8401121561016c57848301356117e9816114d4565b936117f688519586610df0565b818552878786019260051b8201019380851161016c57888201925b858410611a2957505050505050608082015273ffffffffffffffffffffffffffffffffffffffff60248361185560e08461184d60c08b016114ec565b1698016114ec565b968651928380927f1f6e45e30000000000000000000000000000000000000000000000000000000082528660049b168b8301525afa908115611a1f575f916119e9575b50156119c057606554169080519084517fb6e768730000000000000000000000000000000000000000000000000000000092838252878201525f81602481875afa9081156119b6575f9161199c575b505115611974579060245f925191865194859384928352898301525afa90811561196a575f91611948575b5001514211611922575050600190565b517f2ff9aed3000000000000000000000000000000000000000000000000000000008152fd5b61196491503d805f833e61195c8183610df0565b81019061154f565b5f611912565b83513d5f823e3d90fd5b8585517f5b634bd2000000000000000000000000000000000000000000000000000000008152fd5b6119b091503d805f833e61195c8183610df0565b5f6118e7565b86513d5f823e3d90fd5b505050517f8cb4ae3b000000000000000000000000000000000000000000000000000000008152fd5b90508381813d8311611a18575b611a008183610df0565b8101031261016c5751801515810361016c575f611898565b503d6119f6565b85513d5f823e3d90fd5b833585811161016c578991611a43848d85948801016114b6565b815201930192611811565b15611a5557565b608460405162461bcd60e51b815260206004820152602b60248201527f496e697469616c697a61626c653a20636f6e7472616374206973206e6f74206960448201527f6e697469616c697a696e670000000000000000000000000000000000000000006064820152fd5b803b15611b275773ffffffffffffffffffffffffffffffffffffffff7f360894a13ba1a3210667c828492db98dca3e2076cc3735a920a3ca505d382bbc91167fffffffffffffffffffffffff0000000000000000000000000000000000000000825416179055565b608460405162461bcd60e51b815260206004820152602d60248201527f455243313936373a206e657720696d706c656d656e746174696f6e206973206e60448201527f6f74206120636f6e7472616374000000000000000000000000000000000000006064820152fd5b91929015611bf25750815115611ba5575090565b3b15611bae5790565b606460405162461bcd60e51b815260206004820152601d60248201527f416464726573733a2063616c6c20746f206e6f6e2d636f6e74726163740000006044820152fd5b825190915015611c055750805190602001fd5b611c219060405191829162461bcd60e51b835260048301610ec2565b0390fdfea164736f6c6343000819000a","linkReferences":{}},"methodIdentifiers":{"actionRegistry()":"e4e39678","attest((bytes32,bytes32,uint64,uint64,uint64,bytes32,address,address,bool,bytes))":"e60c3505","initialize(address)":"c4d66de8","isPayable()":"ce46e046","multiAttest((bytes32,bytes32,uint64,uint64,uint64,bytes32,address,address,bool,bytes)[],uint256[])":"91db0b7e","multiRevoke((bytes32,bytes32,uint64,uint64,uint64,bytes32,address,address,bool,bytes)[],uint256[])":"88e5b2d9","owner()":"8da5cb5b","proxiableUUID()":"52d1902d","renounceOwnership()":"715018a6","revoke((bytes32,bytes32,uint64,uint64,uint64,bytes32,address,address,bool,bytes))":"e49617e1","transferOwnership(address)":"f2fde38b","upgradeTo(address)":"3659cfe6","upgradeToAndCall(address,bytes)":"4f1ef286","version()":"54fd4d50"},"id":105}