{"abi":[{"type":"constructor","inputs":[{"name":"easAddrs","type":"address","internalType":"address"},{"name":"actionAddrs","type":"address","internalType":"address"}],"stateMutability":"nonpayable"},{"type":"receive","stateMutability":"payable"},{"type":"function","name":"ACTION_REGISTRY","inputs":[],"outputs":[{"name":"","type":"address","internalType":"address"}],"stateMutability":"view"},{"type":"function","name":"attest","inputs":[{"name":"attestation","type":"tuple","internalType":"struct Attestation","components":[{"name":"uid","type":"bytes32","internalType":"bytes32"},{"name":"schema","type":"bytes32","internalType":"bytes32"},{"name":"time","type":"uint64","internalType":"uint64"},{"name":"expirationTime","type":"uint64","internalType":"uint64"},{"name":"revocationTime","type":"uint64","internalType":"uint64"},{"name":"refUID","type":"bytes32","internalType":"bytes32"},{"name":"recipient","type":"address","internalType":"address"},{"name":"attester","type":"address","internalType":"address"},{"name":"revocable","type":"bool","internalType":"bool"},{"name":"data","type":"bytes","internalType":"bytes"}]}],"outputs":[{"name":"","type":"bool","internalType":"bool"}],"stateMutability":"payable"},{"type":"function","name":"initialize","inputs":[{"name":"_multisig","type":"address","internalType":"address"}],"outputs":[],"stateMutability":"nonpayable"},{"type":"function","name":"isPayable","inputs":[],"outputs":[{"name":"","type":"bool","internalType":"bool"}],"stateMutability":"pure"},{"type":"function","name":"multiAttest","inputs":[{"name":"attestations","type":"tuple[]","internalType":"struct Attestation[]","components":[{"name":"uid","type":"bytes32","internalType":"bytes32"},{"name":"schema","type":"bytes32","internalType":"bytes32"},{"name":"time","type":"uint64","internalType":"uint64"},{"name":"expirationTime","type":"uint64","internalType":"uint64"},{"name":"revocationTime","type":"uint64","internalType":"uint64"},{"name":"refUID","type":"bytes32","internalType":"bytes32"},{"name":"recipient","type":"address","internalType":"address"},{"name":"attester","type":"address","internalType":"address"},{"name":"revocable","type":"bool","internalType":"bool"},{"name":"data","type":"bytes","internalType":"bytes"}]},{"name":"values","type":"uint256[]","internalType":"uint256[]"}],"outputs":[{"name":"","type":"bool","internalType":"bool"}],"stateMutability":"payable"},{"type":"function","name":"multiRevoke","inputs":[{"name":"attestations","type":"tuple[]","internalType":"struct Attestation[]","components":[{"name":"uid","type":"bytes32","internalType":"bytes32"},{"name":"schema","type":"bytes32","internalType":"bytes32"},{"name":"time","type":"uint64","internalType":"uint64"},{"name":"expirationTime","type":"uint64","internalType":"uint64"},{"name":"revocationTime","type":"uint64","internalType":"uint64"},{"name":"refUID","type":"bytes32","internalType":"bytes32"},{"name":"recipient","type":"address","internalType":"address"},{"name":"attester","type":"address","internalType":"address"},{"name":"revocable","type":"bool","internalType":"bool"},{"name":"data","type":"bytes","internalType":"bytes"}]},{"name":"values","type":"uint256[]","internalType":"uint256[]"}],"outputs":[{"name":"","type":"bool","internalType":"bool"}],"stateMutability":"payable"},{"type":"function","name":"owner","inputs":[],"outputs":[{"name":"","type":"address","internalType":"address"}],"stateMutability":"view"},{"type":"function","name":"proxiableUUID","inputs":[],"outputs":[{"name":"","type":"bytes32","internalType":"bytes32"}],"stateMutability":"view"},{"type":"function","name":"renounceOwnership","inputs":[],"outputs":[],"stateMutability":"nonpayable"},{"type":"function","name":"revoke","inputs":[{"name":"attestation","type":"tuple","internalType":"struct Attestation","components":[{"name":"uid","type":"bytes32","internalType":"bytes32"},{"name":"schema","type":"bytes32","internalType":"bytes32"},{"name":"time","type":"uint64","internalType":"uint64"},{"name":"expirationTime","type":"uint64","internalType":"uint64"},{"name":"revocationTime","type":"uint64","internalType":"uint64"},{"name":"refUID","type":"bytes32","internalType":"bytes32"},{"name":"recipient","type":"address","internalType":"address"},{"name":"attester","type":"address","internalType":"address"},{"name":"revocable","type":"bool","internalType":"bool"},{"name":"data","type":"bytes","internalType":"bytes"}]}],"outputs":[{"name":"","type":"bool","internalType":"bool"}],"stateMutability":"payable"},{"type":"function","name":"transferOwnership","inputs":[{"name":"newOwner","type":"address","internalType":"address"}],"outputs":[],"stateMutability":"nonpayable"},{"type":"function","name":"upgradeTo","inputs":[{"name":"newImplementation","type":"address","internalType":"address"}],"outputs":[],"stateMutability":"nonpayable"},{"type":"function","name":"upgradeToAndCall","inputs":[{"name":"newImplementation","type":"address","internalType":"address"},{"name":"data","type":"bytes","internalType":"bytes"}],"outputs":[],"stateMutability":"payable"},{"type":"function","name":"version","inputs":[],"outputs":[{"name":"","type":"string","internalType":"string"}],"stateMutability":"view"},{"type":"event","name":"AdminChanged","inputs":[{"name":"previousAdmin","type":"address","indexed":false,"internalType":"address"},{"name":"newAdmin","type":"address","indexed":false,"internalType":"address"}],"anonymous":false},{"type":"event","name":"BeaconUpgraded","inputs":[{"name":"beacon","type":"address","indexed":true,"internalType":"address"}],"anonymous":false},{"type":"event","name":"Initialized","inputs":[{"name":"version","type":"uint8","indexed":false,"internalType":"uint8"}],"anonymous":false},{"type":"event","name":"OwnershipTransferred","inputs":[{"name":"previousOwner","type":"address","indexed":true,"internalType":"address"},{"name":"newOwner","type":"address","indexed":true,"internalType":"address"}],"anonymous":false},{"type":"event","name":"Upgraded","inputs":[{"name":"implementation","type":"address","indexed":true,"internalType":"address"}],"anonymous":false},{"type":"error","name":"AccessDenied","inputs":[]},{"type":"error","name":"InsufficientValue","inputs":[]},{"type":"error","name":"InvalidEAS","inputs":[]},{"type":"error","name":"InvalidLength","inputs":[]},{"type":"error","name":"NotActiveAction","inputs":[]},{"type":"error","name":"NotGardenMember","inputs":[]},{"type":"error","name":"NotInActionRegistry","inputs":[]},{"type":"error","name":"NotPayable","inputs":[]}],"bytecode":{"object":"0x61014034610190576119c990601f38839003908101601f19168201906001600160401b03821183831017610194578083916040958694855283398101031261019057610056602061004f836101a8565b92016101a8565b6001608052600360a0525f60c052906001600160a01b0316801561017f5760e052610100913083526101209182525f5460ff8160081c1661012b5760ff808216036100f2575b50519061180c92836101bd843960805183610409015260a05183610438015260c05183610462015260e0518361109401525182818161050b01528181610606015261089701525181818161036501526114ca0152f35b60ff90811916175f557f7f26b83ff96e1f2b6a682f133852f6798a09c465da95921460cefb38474024986020825160ff8152a15f61009c565b815162461bcd60e51b815260206004820152602760248201527f496e697469616c697a61626c653a20636f6e747261637420697320696e697469604482015266616c697a696e6760c81b6064820152608490fd5b82516341bc07ff60e11b8152600490fd5b5f80fd5b634e487b7160e01b5f52604160045260245ffd5b51906001600160a01b03821682036101905756fe60406080815260048036101561001e575b5050361561001c575f80fd5b005b5f3560e01c80633659cfe61461086d5780634f1ef286146105b757806352d1902d146104f857806354fd4d50146103ef578063715018a614610394578063801f45dc1461035157806388e5b2d9146103315780638da5cb5b1461030957806391db0b7e146102e9578063c4d66de8146101a7578063ce46e0461461018c578063e49617e114610171578063e60c35051461014c5763f2fde38b036100105734610148576020366003190112610148576100d5610b0e565b916100de610ff2565b6001600160a01b038316156100f65761001c8361104a565b906020608492519162461bcd60e51b8352820152602660248201527f4f776e61626c653a206e6577206f776e657220697320746865207a65726f206160448201526564647265737360d01b6064820152fd5b5f80fd5b60208361016861015b36610c91565b610163611092565b6112fa565b90519015158152f35b60208361017d36610c91565b50610186611092565b515f8152f35b8234610148575f366003190112610148576020905160018152f35b5034610148576020366003190112610148576101c1610b0e565b5f5460ff8160081c1615928380946102dc575b80156102c5575b1561026b575060ff1981166001175f5561021e919083610259575b5061021060ff5f5460081c1661020b8161165b565b61165b565b6102193361104a565b61104a565b61022457005b60207f7f26b83ff96e1f2b6a682f133852f6798a09c465da95921460cefb38474024989161ff00195f54165f555160018152a1005b61ffff1916610101175f9081556101f6565b608490602086519162461bcd60e51b8352820152602e60248201527f496e697469616c697a61626c653a20636f6e747261637420697320616c72656160448201526d191e481a5b9a5d1a585b1a5e995960921b6064820152fd5b50303b1580156101db5750600160ff8316146101db565b50600160ff8316106101d4565b6020836101686102f836610c46565b92610304929192611092565b610e2d565b8234610148575f3660031901126101485760335490516001600160a01b039091168152602090f35b60208361016861034036610c46565b9261034c929192611092565b610dcd565b8234610148575f36600319011261014857517f00000000000000000000000000000000000000000000000000000000000000006001600160a01b03168152602090f35b34610148575f366003190112610148576103ac610ff2565b603380546001600160a01b031981169091555f906001600160a01b03167f8be0079c531659141344cd1fd0a4f28419497f9722a3daafe3b4186f6b6457e08280a3005b8234610148575f366003190112610148576104f49061042d7f0000000000000000000000000000000000000000000000000000000000000000610e8b565b906104ea602261045c7f0000000000000000000000000000000000000000000000000000000000000000610e8b565b936104867f0000000000000000000000000000000000000000000000000000000000000000610e8b565b8451958261049e889451809260208088019101610bc8565b830190601760f91b918260208201526104c1825180936020602185019101610bc8565b019060218201526104db8251809360208785019101610bc8565b01036002810185520183610b54565b5191829182610be9565b0390f35b5034610148575f366003190112610148577f00000000000000000000000000000000000000000000000000000000000000006001600160a01b0316300361054f57602082515f805160206117e08339815191528152f35b6020608492519162461bcd60e51b8352820152603860248201527f555550535570677261646561626c653a206d757374206e6f742062652063616c60448201527f6c6564207468726f7567682064656c656761746563616c6c00000000000000006064820152fd5b5081600319360112610148576105cb610b0e565b9160243567ffffffffffffffff81116101485736602382011215610148576105fc9036906024818601359101610b92565b6001600160a01b037f0000000000000000000000000000000000000000000000000000000000000000811692919061063630851415610cc4565b6106525f805160206117e0833981519152948286541614610d25565b61065a610ff2565b7f4910fdfa16fed3260ed0e7147f7cc6da11a60208b5b9406d12a635614ffd91435460ff161561069257505050505061001c906116bb565b85168251936352d1902d60e01b855260209485818881865afa5f918161083e575b5061071257845162461bcd60e51b8152808801879052602e60248201527f45524331393637557067726164653a206e657720696d706c656d656e7461746960448201526d6f6e206973206e6f74205555505360901b6064820152608490fd5b95919295036107e95750610725856116bb565b7fbc7cd75a20ee27fd9adebab32041f755214dbc6bffa90cc0225b39da2e5c2d3b5f80a28251158015906107e1575b61075a57005b61001c935f8083519561076c87610b24565b602787527f416464726573733a206c6f772d6c6576656c2064656c65676174652063616c6c86880152660819985a5b195960ca1b858801528581519101845af4913d156107d7573d6107c96107c082610b76565b92519283610b54565b81525f81943d92013e61174a565b506060925061174a565b506001610754565b825162461bcd60e51b8152908101849052602960248201527f45524331393637557067726164653a20756e737570706f727465642070726f786044820152681a58589b195555525160ba1b6064820152608490fd5b9091508681813d8311610866575b6108568183610b54565b810103126101485751905f6106b3565b503d61084c565b5034610148576020908160031936011261014857610889610b0e565b6001600160a01b03939092907f000000000000000000000000000000000000000000000000000000000000000085166108c430821415610cc4565b6108e05f805160206117e0833981519152918783541614610d25565b6108e8610ff2565b8151908382019682881067ffffffffffffffff891117610afb578784525f83527f4910fdfa16fed3260ed0e7147f7cc6da11a60208b5b9406d12a635614ffd91435460ff16156109425750505050505061001c91506116bb565b869293949596169084516352d1902d60e01b815286818981865afa5f9181610acc575b506109c457855162461bcd60e51b8152808901889052602e60248201527f45524331393637557067726164653a206e657720696d706c656d656e7461746960448201526d6f6e206973206e6f74205555505360901b6064820152608490fd5b969192939603610a7757506109d8826116bb565b7fbc7cd75a20ee27fd9adebab32041f755214dbc6bffa90cc0225b39da2e5c2d3b5f80a2835115801590610a70575b610a0d57005b5f8061001c96845196610a1f88610b24565b602788527f416464726573733a206c6f772d6c6576656c2064656c65676174652063616c6c87890152660819985a5b195960ca1b868901525190845af4913d156107d7573d6107c96107c082610b76565b505f610a07565b835162461bcd60e51b8152908101859052602960248201527f45524331393637557067726164653a20756e737570706f727465642070726f786044820152681a58589b195555525160ba1b6064820152608490fd5b9091508781813d8311610af4575b610ae48183610b54565b810103126101485751905f610965565b503d610ada565b604186634e487b7160e01b5f525260245ffd5b600435906001600160a01b038216820361014857565b6060810190811067ffffffffffffffff821117610b4057604052565b634e487b7160e01b5f52604160045260245ffd5b90601f8019910116810190811067ffffffffffffffff821117610b4057604052565b67ffffffffffffffff8111610b4057601f01601f191660200190565b929192610b9e82610b76565b91610bac6040519384610b54565b829481845281830111610148578281602093845f960137010152565b5f5b838110610bd95750505f910152565b8181015183820152602001610bca565b60409160208252610c098151809281602086015260208686019101610bc8565b601f01601f1916010190565b9181601f840112156101485782359167ffffffffffffffff8311610148576020808501948460051b01011161014857565b60406003198201126101485767ffffffffffffffff916004358381116101485782610c7391600401610c15565b9390939260243591821161014857610c8d91600401610c15565b9091565b60031990602081830112610148576004359167ffffffffffffffff83116101485782610140920301126101485760040190565b15610ccb57565b60405162461bcd60e51b815260206004820152602c60248201527f46756e6374696f6e206d7573742062652063616c6c6564207468726f7567682060448201526b19195b1959d85d1958d85b1b60a21b6064820152608490fd5b15610d2c57565b60405162461bcd60e51b815260206004820152602c60248201527f46756e6374696f6e206d7573742062652063616c6c6564207468726f7567682060448201526b6163746976652070726f787960a01b6064820152608490fd5b9190811015610d965760051b0190565b634e487b7160e01b5f52603260045260245ffd5b9190811015610d965760051b8101359061013e1981360301821215610148570190565b919092808403610e1b57835f10610de75750505050600190565b5f610df3913493610d86565b3511610e0957610e04915f91610daa565b505f90565b60405163044044a560e21b8152600490fd5b60405163251f56a160e21b8152600490fd5b92909192818303610e1b575f91345b848410610e4e57505050505050600190565b610e59848388610d86565b35818111610e0957610e6f610163868887610daa565b15610e805760019103930192610e3c565b505050505050505f90565b805f917a184f03e93ff9f4daa797ed6e38ed64bf6a1f01000000000000000080821015610fe4575b506d04ee2d6d415b85acef810000000080831015610fd5575b50662386f26fc1000080831015610fc6575b506305f5e10080831015610fb7575b5061271080831015610fa8575b506064821015610f98575b600a80921015610f8e575b6001908160216001860195610f2487610b76565b96610f326040519889610b54565b808852610f41601f1991610b76565b01366020890137860101905b610f59575b5050505090565b5f19019083906f181899199a1a9b1b9c1cb0b131b232b360811b8282061a835304918215610f8957919082610f4d565b610f52565b9160010191610f10565b9190606460029104910191610f05565b6004919392049101915f610efa565b6008919392049101915f610eed565b6010919392049101915f610ede565b6020919392049101915f610ecc565b60409350810491505f610eb3565b6033546001600160a01b0316330361100657565b606460405162461bcd60e51b815260206004820152602060248201527f4f776e61626c653a2063616c6c6572206973206e6f7420746865206f776e65726044820152fd5b603380546001600160a01b039283166001600160a01b0319821681179092559091167f8be0079c531659141344cd1fd0a4f28419497f9722a3daafe3b4186f6b6457e05f80a3565b7f00000000000000000000000000000000000000000000000000000000000000006001600160a01b031633036110c457565b604051634ca8886760e01b8152600490fd5b9080601f83011215610148578160206110f193359101610b92565b90565b67ffffffffffffffff8111610b405760051b60200190565b356001600160a01b03811681036101485790565b90816020910312610148575180151581036101485790565b81601f8201121561014857805161114e81610b76565b9261115c6040519485610b54565b81845260208284010111610148576110f19160208085019101610bc8565b6020808284031261014857815167ffffffffffffffff9283821161014857019260c0848203126101485760409283519460c0860186811083821117610b405785528051865283810151848701528481015182811161014857836111de918301611138565b85870152606081015182811161014857836111fa918301611138565b6060870152608081015182811161014857810183601f8201121561014857805190611224826110f4565b9161123188519384610b54565b808352868084019160051b83010191868311610148578701905b8282106112e257505050608087015260a08101519082821161014857019082601f830112156101485781519061128c611283836110f4565b96519687610b54565b818652848087019260051b8401019380851161014857858401925b8584106112bd575050505050505060a082015290565b83518381116101485787916112d7848480948a0101611138565b8152019301926112a7565b8151600881101561014857815290870190870161124b565b610120810135601e198236030181121561014857810180359067ffffffffffffffff90818311610148576020918282019380360385136101485782019183830194848285031261014857358281116101485760a09101809303126101485760409384519260a0840184811084821117610b405786528481013584528581013583811161014857828661138e928401016110d6565b8585015260608101358381116101485782866113ac928401016110d6565b8685015260808101358381116101485782866113ca928401016110d6565b606085015260a08101359083821161014857019181603f8401121561014857848301356113f6816110f4565b9361140388519586610b54565b818552878786019260051b8201019380851161014857888201925b8584106116365750505050506080830191909152506001600160a01b0360e08161144a60c0880161110c565b169501946114578661110c565b9585519063012b3ed560e31b82528360049816888301528582602481865afa91821561162c57869185915f94611606575b5061149460249161110c565b895195869384926336b87bd760e11b8452168c8301525afa9182156115b4575f926115d7575b501590816115ce575b506115be577f00000000000000000000000000000000000000000000000000000000000000001690805190845163b6e7687360e01b92838252878201525f81602481875afa9081156115b4575f9161159a575b50511561158a579060245f925191865194859384928352898301525afa908115611580575f9161155e575b5001514211611551575050600190565b51632ff9aed360e01b8152fd5b61157a91503d805f833e6115728183610b54565b81019061117a565b5f611541565b83513d5f823e3d90fd5b8451632db1a5e960e11b81528690fd5b6115ae91503d805f833e6115728183610b54565b5f611516565b86513d5f823e3d90fd5b5050505163fdb31dd560e01b8152fd5b9050155f6114c3565b6115f8919250853d87116115ff575b6115f08183610b54565b810190611120565b905f6114ba565b503d6115e6565b602491945061162461149491853d87116115ff576115f08183610b54565b949150611488565b87513d5f823e3d90fd5b8335858111610148578991611650848d85948801016110d6565b81520193019261141e565b1561166257565b60405162461bcd60e51b815260206004820152602b60248201527f496e697469616c697a61626c653a20636f6e7472616374206973206e6f74206960448201526a6e697469616c697a696e6760a81b6064820152608490fd5b803b156116ef575f805160206117e083398151915280546001600160a01b0319166001600160a01b03909216919091179055565b60405162461bcd60e51b815260206004820152602d60248201527f455243313936373a206e657720696d706c656d656e746174696f6e206973206e60448201526c1bdd08184818dbdb9d1c9858dd609a1b6064820152608490fd5b919290156117ac575081511561175e575090565b3b156117675790565b60405162461bcd60e51b815260206004820152601d60248201527f416464726573733a2063616c6c20746f206e6f6e2d636f6e74726163740000006044820152606490fd5b8251909150156117bf5750805190602001fd5b60405162461bcd60e51b81529081906117db9060048301610be9565b0390fdfe360894a13ba1a3210667c828492db98dca3e2076cc3735a920a3ca505d382bbca164736f6c6343000819000a","linkReferences":{}},"methodIdentifiers":{"ACTION_REGISTRY()":"801f45dc","attest((bytes32,bytes32,uint64,uint64,uint64,bytes32,address,address,bool,bytes))":"e60c3505","initialize(address)":"c4d66de8","isPayable()":"ce46e046","multiAttest((bytes32,bytes32,uint64,uint64,uint64,bytes32,address,address,bool,bytes)[],uint256[])":"91db0b7e","multiRevoke((bytes32,bytes32,uint64,uint64,uint64,bytes32,address,address,bool,bytes)[],uint256[])":"88e5b2d9","owner()":"8da5cb5b","proxiableUUID()":"52d1902d","renounceOwnership()":"715018a6","revoke((bytes32,bytes32,uint64,uint64,uint64,bytes32,address,address,bool,bytes))":"e49617e1","transferOwnership(address)":"f2fde38b","upgradeTo(address)":"3659cfe6","upgradeToAndCall(address,bytes)":"4f1ef286","version()":"54fd4d50"},"id":147}