{"abi":[{"type":"function","name":"batchCreateHats","inputs":[{"name":"_admins","type":"uint256[]","internalType":"uint256[]"},{"name":"_details","type":"string[]","internalType":"string[]"},{"name":"_maxSupplies","type":"uint32[]","internalType":"uint32[]"},{"name":"_eligibilityModules","type":"address[]","internalType":"address[]"},{"name":"_toggleModules","type":"address[]","internalType":"address[]"},{"name":"_mutables","type":"bool[]","internalType":"bool[]"},{"name":"_imageURIs","type":"string[]","internalType":"string[]"}],"outputs":[{"name":"","type":"bool","internalType":"bool"}],"stateMutability":"nonpayable"},{"type":"function","name":"batchMintHats","inputs":[{"name":"_hatIds","type":"uint256[]","internalType":"uint256[]"},{"name":"_wearers","type":"address[]","internalType":"address[]"}],"outputs":[{"name":"","type":"bool","internalType":"bool"}],"stateMutability":"nonpayable"},{"type":"function","name":"batchSetWearers","inputs":[{"name":"_hatId","type":"uint256","internalType":"uint256"},{"name":"_wearersArr","type":"address[]","internalType":"address[]"},{"name":"_areWearers","type":"bool[]","internalType":"bool[]"}],"outputs":[],"stateMutability":"nonpayable"},{"type":"function","name":"changeHatDetails","inputs":[{"name":"_hatId","type":"uint256","internalType":"uint256"},{"name":"_newDetails","type":"string","internalType":"string"}],"outputs":[],"stateMutability":"nonpayable"},{"type":"function","name":"changeHatEligibility","inputs":[{"name":"_hatId","type":"uint256","internalType":"uint256"},{"name":"_newEligibility","type":"address","internalType":"address"}],"outputs":[],"stateMutability":"nonpayable"},{"type":"function","name":"changeHatImageURI","inputs":[{"name":"_hatId","type":"uint256","internalType":"uint256"},{"name":"_newImageURI","type":"string","internalType":"string"}],"outputs":[],"stateMutability":"nonpayable"},{"type":"function","name":"changeHatMaxSupply","inputs":[{"name":"_hatId","type":"uint256","internalType":"uint256"},{"name":"_newMaxSupply","type":"uint32","internalType":"uint32"}],"outputs":[],"stateMutability":"nonpayable"},{"type":"function","name":"changeHatToggle","inputs":[{"name":"_hatId","type":"uint256","internalType":"uint256"},{"name":"_newToggle","type":"address","internalType":"address"}],"outputs":[],"stateMutability":"nonpayable"},{"type":"function","name":"checkHatStatus","inputs":[{"name":"_hatId","type":"uint256","internalType":"uint256"}],"outputs":[{"name":"","type":"bool","internalType":"bool"}],"stateMutability":"nonpayable"},{"type":"function","name":"checkHatWearerStatus","inputs":[{"name":"_hatId","type":"uint256","internalType":"uint256"},{"name":"_wearer","type":"address","internalType":"address"}],"outputs":[{"name":"","type":"bool","internalType":"bool"}],"stateMutability":"nonpayable"},{"type":"function","name":"createHat","inputs":[{"name":"_admin","type":"uint256","internalType":"uint256"},{"name":"_details","type":"string","internalType":"string"},{"name":"_maxSupply","type":"uint32","internalType":"uint32"},{"name":"_eligibility","type":"address","internalType":"address"},{"name":"_toggle","type":"address","internalType":"address"},{"name":"_mutable","type":"bool","internalType":"bool"},{"name":"_imageURI","type":"string","internalType":"string"}],"outputs":[{"name":"newHatId","type":"uint256","internalType":"uint256"}],"stateMutability":"nonpayable"},{"type":"function","name":"eligibility","inputs":[{"name":"","type":"uint256","internalType":"uint256"},{"name":"","type":"address","internalType":"address"}],"outputs":[{"name":"","type":"bool","internalType":"bool"}],"stateMutability":"view"},{"type":"function","name":"getAdminAtLevel","inputs":[{"name":"_hatId","type":"uint256","internalType":"uint256"},{"name":"_level","type":"uint32","internalType":"uint32"}],"outputs":[{"name":"","type":"uint256","internalType":"uint256"}],"stateMutability":"pure"},{"type":"function","name":"getHatAdmin","inputs":[{"name":"_hatId","type":"uint256","internalType":"uint256"}],"outputs":[{"name":"","type":"uint256","internalType":"uint256"}],"stateMutability":"view"},{"type":"function","name":"getHatImageUri","inputs":[{"name":"_hatId","type":"uint256","internalType":"uint256"}],"outputs":[{"name":"","type":"string","internalType":"string"}],"stateMutability":"view"},{"type":"function","name":"getHatLevel","inputs":[{"name":"_hatId","type":"uint256","internalType":"uint256"}],"outputs":[{"name":"","type":"uint32","internalType":"uint32"}],"stateMutability":"pure"},{"type":"function","name":"getNextId","inputs":[{"name":"_admin","type":"uint256","internalType":"uint256"}],"outputs":[{"name":"","type":"uint256","internalType":"uint256"}],"stateMutability":"view"},{"type":"function","name":"hats","inputs":[{"name":"","type":"uint256","internalType":"uint256"}],"outputs":[{"name":"details","type":"string","internalType":"string"},{"name":"maxSupply","type":"uint32","internalType":"uint32"},{"name":"supply","type":"uint32","internalType":"uint32"},{"name":"eligibility","type":"address","internalType":"address"},{"name":"toggle","type":"address","internalType":"address"},{"name":"imageURI","type":"string","internalType":"string"},{"name":"lastHatId","type":"uint16","internalType":"uint16"},{"name":"mutable_","type":"bool","internalType":"bool"},{"name":"active","type":"bool","internalType":"bool"},{"name":"admin","type":"uint256","internalType":"uint256"}],"stateMutability":"view"},{"type":"function","name":"isActive","inputs":[{"name":"_hatId","type":"uint256","internalType":"uint256"}],"outputs":[{"name":"","type":"bool","internalType":"bool"}],"stateMutability":"view"},{"type":"function","name":"isAdminOfHat","inputs":[{"name":"_user","type":"address","internalType":"address"},{"name":"_hatId","type":"uint256","internalType":"uint256"}],"outputs":[{"name":"","type":"bool","internalType":"bool"}],"stateMutability":"view"},{"type":"function","name":"isTopHat","inputs":[{"name":"_hatId","type":"uint256","internalType":"uint256"}],"outputs":[{"name":"","type":"bool","internalType":"bool"}],"stateMutability":"pure"},{"type":"function","name":"isWearerOfHat","inputs":[{"name":"_user","type":"address","internalType":"address"},{"name":"_hatId","type":"uint256","internalType":"uint256"}],"outputs":[{"name":"","type":"bool","internalType":"bool"}],"stateMutability":"view"},{"type":"function","name":"makeHatImmutable","inputs":[{"name":"_hatId","type":"uint256","internalType":"uint256"}],"outputs":[],"stateMutability":"nonpayable"},{"type":"function","name":"mintHat","inputs":[{"name":"_hatId","type":"uint256","internalType":"uint256"},{"name":"_wearer","type":"address","internalType":"address"}],"outputs":[{"name":"","type":"bool","internalType":"bool"}],"stateMutability":"nonpayable"},{"type":"function","name":"mintTopHat","inputs":[{"name":"_target","type":"address","internalType":"address"},{"name":"_details","type":"string","internalType":"string"},{"name":"_imageURI","type":"string","internalType":"string"}],"outputs":[{"name":"topHatId","type":"uint256","internalType":"uint256"}],"stateMutability":"nonpayable"},{"type":"function","name":"setEligibility","inputs":[{"name":"_hatId","type":"uint256","internalType":"uint256"},{"name":"_wearer","type":"address","internalType":"address"},{"name":"isEligible_","type":"bool","internalType":"bool"}],"outputs":[],"stateMutability":"nonpayable"},{"type":"function","name":"setHatActive","inputs":[{"name":"_hatId","type":"uint256","internalType":"uint256"},{"name":"_active","type":"bool","internalType":"bool"}],"outputs":[],"stateMutability":"nonpayable"},{"type":"function","name":"setHatWearerStatus","inputs":[{"name":"_hatId","type":"uint256","internalType":"uint256"},{"name":"_wearer","type":"address","internalType":"address"},{"name":"_eligible","type":"bool","internalType":"bool"},{"name":"_standing","type":"bool","internalType":"bool"}],"outputs":[{"name":"","type":"bool","internalType":"bool"}],"stateMutability":"nonpayable"},{"type":"function","name":"setStanding","inputs":[{"name":"_hatId","type":"uint256","internalType":"uint256"},{"name":"_wearer","type":"address","internalType":"address"},{"name":"_inStanding","type":"bool","internalType":"bool"}],"outputs":[],"stateMutability":"nonpayable"},{"type":"function","name":"setWearer","inputs":[{"name":"_hatId","type":"uint256","internalType":"uint256"},{"name":"_wearer","type":"address","internalType":"address"},{"name":"_isWearer","type":"bool","internalType":"bool"}],"outputs":[],"stateMutability":"nonpayable"},{"type":"function","name":"standing","inputs":[{"name":"","type":"uint256","internalType":"uint256"},{"name":"","type":"address","internalType":"address"}],"outputs":[{"name":"","type":"bool","internalType":"bool"}],"stateMutability":"view"},{"type":"function","name":"topHatCount","inputs":[],"outputs":[{"name":"","type":"uint256","internalType":"uint256"}],"stateMutability":"view"},{"type":"function","name":"transferHat","inputs":[{"name":"_hatId","type":"uint256","internalType":"uint256"},{"name":"_from","type":"address","internalType":"address"},{"name":"_to","type":"address","internalType":"address"}],"outputs":[],"stateMutability":"nonpayable"},{"type":"function","name":"viewHat","inputs":[{"name":"_hatId","type":"uint256","internalType":"uint256"}],"outputs":[{"name":"details","type":"string","internalType":"string"},{"name":"maxSupply","type":"uint32","internalType":"uint32"},{"name":"supply","type":"uint32","internalType":"uint32"},{"name":"eligibilityAddr","type":"address","internalType":"address"},{"name":"toggle","type":"address","internalType":"address"},{"name":"imageURI","type":"string","internalType":"string"},{"name":"lastHatId","type":"uint16","internalType":"uint16"},{"name":"mutable_","type":"bool","internalType":"bool"},{"name":"active","type":"bool","internalType":"bool"}],"stateMutability":"view"},{"type":"function","name":"wearers","inputs":[{"name":"","type":"uint256","internalType":"uint256"},{"name":"","type":"address","internalType":"address"}],"outputs":[{"name":"","type":"bool","internalType":"bool"}],"stateMutability":"view"},{"type":"error","name":"AlreadyWearingHat","inputs":[]},{"type":"error","name":"ArrayLengthMismatch","inputs":[]},{"type":"error","name":"HatNotActive","inputs":[]},{"type":"error","name":"HatNotMutable","inputs":[]},{"type":"error","name":"MaxLevelReached","inputs":[]},{"type":"error","name":"MaxSupplyReached","inputs":[]},{"type":"error","name":"NotAdmin","inputs":[]},{"type":"error","name":"NotEligible","inputs":[]}],"bytecode":{"object":"0x60808060405234601557612530908161001a8239f35b5f80fdfe610160806040526004361015610013575f80fd5b5f3560e01c9081630109f85414611e7e575080631183a8c014611e605780631a64dfad14611ab75780631c10df4d1461196957806321dbb8cb1461190e5780633fa9d544146118e85780634352409a1461186257806345fffac814611842578063475547ce1461180257806347d173af146117d657806352a6b26514611628578063550a9df1146115e857806359591a8f1461159f57806359701e44146115535780635d5eb5af1461152d578063641f776e1461140b578063715a768e146113c2578063756329a414611393578063781a488e146113765780637903e56b14610e3057806382afd23b146107385780638efc0a5314610de7578063a4a1f06c14610ce3578063afaae55a14610c43578063b052925e14610882578063b56f756214610851578063b71ab8101461080d578063bca747b51461073d578063d3272ba814610738578063d395acf814610673578063d82720cb14610624578063d9fd995b1461054b578063e8906454146102fa578063f737401e146101ce5763fb2aaa4c1461019e575f80fd5b346101ca5760203660031901126101ca5760206101bc6004356124ab565b63ffffffff60405191168152f35b5f80fd5b346101ca576101dc3661214c565b825f526020925f845260ff600460405f20015460101c1615806102ef575b6102dd575f525f835260405f20916001600160401b0382116102c95761022a826102248554612035565b85612249565b5f93601f8311600114610269575061025a929382915f9261025e575b50508160011b915f199060031b1c19161790565b9055005b013590508480610246565b90601f19831694845f52825f20925f905b8782106102b1575050836001959610610298575b505050811b019055005b01355f19600384901b60f8161c1916905583808061028e565b8060018496829495870135815501950192019061027a565b634e487b7160e01b5f52604160045260245ffd5b6040516338a6531f60e01b8152600490fd5b5080841b15156101fa565b346101ca5760603660031901126101ca576001600160401b036004356024358281116101ca5761032e903690600401611f93565b9190926044359081116101ca57610349903690600401611f93565b939092848103610539575f5b81811061035e57005b8061037461036f6001938989612341565b6123fd565b80610505575b1561045e57845f526104588261043763ffffffff6020928084528760405f208a6103b46103af8a8c8060a01b03958694612341565b612365565b165f5285528960405f209160ff199284848254161790558c5f52600287528a816103e66103af8c60405f209487612341565b165f52875260405f2084848254161790558c5f52600387526104106103af8a8d60405f2095612341565b165f5285528160405f2091825416179055895f525f845260405f2001928354901c166122dd565b67ffffffff0000000082549160201b169067ffffffff000000001916179055565b01610355565b61046c61036f828989612341565b15806104d2575b1561045857845f526104cd8261043763ffffffff60209280845260405f20896104a66103af898c8c8060a01b0394612341565b165f52845260405f2060ff198154169055895f525f845260405f2001928354901c166122cb565b610458565b50845f52602082815260405f2090838060a01b036104f46103af85888a612341565b165f525260ff60405f205416610473565b50845f52602082815260405f2090838060a01b036105276103af85888a612341565b165f525260ff60405f2054161561037a565b60405163512509d360e11b8152600490fd5b346101ca576105593661214c565b825f526020925f845260ff600460405f20015460101c161580610619575b6102dd575f525f8352600360405f2001916001600160401b0382116102c9576105a4826102248554612035565b5f93601f83116001146105d3575061025a929382915f9261025e5750508160011b915f199060031b1c19161790565b90601f19831694845f52825f20925f905b87821061060157505083600195961061029857505050811b019055005b806001849682949587013581550195019201906105e4565b5080841b1515610577565b346101ca5760403660031901126101ca5760243580151581036101ca57610671906004355f525f602052600460405f20019063ff000000825491151560181b169063ff0000001916179055565b005b346101ca5760203660031901126101ca576004355f525f6020526106e260405f20600181015460ff61071063ffffffff60018060a01b0393846002870154166004870154956106cd60036106c68a6120aa565b99016120aa565b92604051998a99610120808c528b0190611ff7565b9480821660208b01528160201c1660408a015260401c166060880152608087015285820360a0870152611ff7565b9161ffff811660c0850152818160101c16151560e085015260181c1615156101008301520390f35b611fc3565b346101ca5760203660031901126101ca576004355f525f6020526107b160405f20610767816120aa565b90600181015460ff6107df63ffffffff60018060a01b0380600287015416610791600388016120aa565b9160056004890154980154966040519a8b9a610140808d528c0190611ff7565b9480821660208c01528160201c1660408b015260401c166060890152608088015286820360a0880152611ff7565b9261ffff811660c0860152818160101c16151560e086015260181c1615156101008401526101208301520390f35b346101ca5760203660031901126101ca576004355f525f60205261084d610839600360405f20016120aa565b604051918291602083526020830190611ff7565b0390f35b346101ca5760403660031901126101ca57602061087861086f611f0a565b6024359061240a565b6040519015158152f35b346101ca5760e03660031901126101ca576024356001600160401b0381116101ca576108b2903690600401611f20565b60443563ffffffff811681036101ca576064356001600160a01b03811681036101ca57608435916001600160a01b03831683036101ca5760a4359283151584036101ca5760c435906001600160401b0382116101ca5761099a9361091f63ffffffff933690600401611f20565b93909461096f61093060043561217f565b9a6004355f525f602052600460405f2001805461ffff6109518183166123a9565b169061ffff19161790556040519a6109688c61206d565b3691612204565b89521660208801525f60408801526001600160a01b0390811660608801521660808601523691612204565b60a08301525f60c0830152151560e08201526001610100820152600435610120820152815f525f60205260405f209181519283516001600160401b0381116102c9576109f0816109ea8454612035565b84612249565b6020601f8211600114610bde578190610a20939495965f92610bd35750508160011b915f199060031b1c19161790565b81555b602083810151600183018054604087015167ffffffffffffffff1990911663ffffffff93909316929092179190921b67ffffffff0000000016178155610a779060608501516001600160a01b031690612298565b6002810160018060a01b036080850151166001600160601b0360a01b825416179055600381019260a08101519384516001600160401b0381116102c957602095610ac5826102248554612035565b8690601f8311600114610b6a5782600595936101209593610afa935f92610b5f5750508160011b915f199060031b1c19161790565b90555b60c081015160048501805460e084015162ff000090151560101b1661ffff90931662ffffff1990911617919091178155610b52905b610100830151815463ff000000191690151560181b63ff00000016179055565b0151910155604051908152f35b015190508a80610246565b90601f19831691845f52885f20925f5b818110610bbc575092600192859260059896610120989610610ba4575b505050811b019055610afd565b01515f1960f88460031b161c19169055898080610b97565b92938a600181928786015181550195019301610b7a565b015190508680610246565b825f5260205f20905f5b601f1984168110610c2b575060019394959683601f19811610610c13575b505050811b018155610a23565b01515f1960f88460031b161c19169055858080610c06565b9091602060018192858b015181550193019101610be8565b346101ca5760803660031901126101ca57600435610c5f611ef4565b906044359182151583036101ca576064359182151583036101ca57610cb2610cd894825f52600260205260405f209360018060a01b031693845f5260205260405f209060ff801983541691151516179055565b5f52600360205260405f20905f5260205260405f209060ff801983541691151516179055565b602060405160018152f35b346101ca5760603660031901126101ca57600435610cff611ef4565b6001600160a01b0390604435828116908190036101ca57835f526020925f845260ff600460405f20015460101c16156102dd578461043793610671965f5260019283875260405f2091165f52855260405f2060ff1990818154169055815f525f86528260405f200193610d7f63ffffffff956104378782548b1c166122cb565b825f5283875260405f20815f52875260405f208483825416179055825f526002875260405f20815f52875260405f208483825416179055825f526003875260405f20905f5286528260405f20918254161790555f525f845260405f2001928354901c166122dd565b346101ca5760403660031901126101ca57610e00611ef4565b6004355f52600260205260405f209060018060a01b03165f52602052602060ff60405f2054166040519015158152f35b346101ca5760e03660031901126101ca576004356001600160401b0381116101ca57610e60903690600401611f93565b60e0526024356001600160401b0381116101ca57610e82903690600401611f93565b9060a0526044356001600160401b0381116101ca57610ea5903690600401611f93565b60c0526080526064356001600160401b0381116101ca57610eca903690600401611f93565b9190926084356001600160401b0381116101ca57610eec903690600401611f93565b60a4929192356001600160401b0381116101ca57610f0e903690600401611f93565b610140526101205260c4356001600160401b0381116101ca57610f35903690600401611f93565b610100529260e0518514801590611368575b801561135c575b8015611350575b8015611341575b8015611332575b610539575f5b60e0518110610f7d57602060405160018152f35b610f93610f8d8260e05187612341565b3561217f565b610fa08260e05187612341565b355f525f602052600460405f2001805461ffff610fbe8183166123a9565b169061ffff1916179055610fd5828860a0516123bc565b610fe78460c094939451608051612341565b3563ffffffff811681036101ca576110938561105c8b8f8f8d966110686109689b8f8f956110306103af8b61103b9461102a6103af8363ffffffff9c8198612341565b9a612341565b9761010051906123bc565b97909861105261036f826101405161012051612341565b9b60e05190612341565b359a6040519d8e61206d565b8b521660208a01525f60408a01526001600160a01b0390811660608a01521660808801523691612204565b60a08501525f60c0850152151560e084015260016101008401526101208301525f525f60205260405f209080518051906001600160401b0382116102c9576110e5826110df8654612035565b86612249565b602090601f83116001146112ca5761111392915f91836112bf5750508160011b915f199060031b1c19161790565b82555b602081810151600184018054604085015167ffffffffffffffff1990911663ffffffff93909316929092179190921b67ffffffff000000001617815561116a9060608301516001600160a01b031690612298565b6002820160018060a01b036080830151166001600160601b0360a01b82541617905560a08101518051906001600160401b0382116102c9576111bc826111b36003870154612035565b60038701612249565b602090601f831160011461124a57926111f5836005946101209460019998975f9261123f5750508160011b915f199060031b1c19161790565b60038501555b60c081015160048501805460e084015162ff000090151560101b1661ffff90931662ffffff199091161791909117815561123490610b32565b015191015501610f69565b015190505f80610246565b90600385015f5260205f20915f5b601f19851681106112a7575083610120936001989796938993600597601f1981161061128f575b505050811b0160038501556111fb565b01515f1960f88460031b161c191690558f808061127f565b91926020600181928685015181550194019201611258565b015190508d80610246565b9190845f5260205f20905f935b601f1984168510611317576001945083601f198116106112ff575b505050811b018255611116565b01515f1960f88460031b161c191690558c80806112f2565b818101518355602094850194600190930192909101906112d7565b5060e051610100511415610f63565b5060e051610140511415610f5c565b5060e051821415610f55565b5060e051861415610f4e565b5060e05160c0511415610f47565b346101ca575f3660031901126101ca576020600454604051908152f35b346101ca5760203660031901126101ca576004355f525f602052600460405f200162ff00001981541690555f80f35b346101ca5760403660031901126101ca576113db611ef4565b6004355f52600160205260405f209060018060a01b03165f52602052602060ff60405f2054166040519015158152f35b346101ca5760403660031901126101ca57600435611427611ef4565b815f526020915f835260405f209160ff600484015460181c161561151b57815f5260019283855260405f209160018060a01b031691825f52855260ff60405f20541661150957830190815463ffffffff908180821691881c1610156114f75783610437926114ef955f5286885260405f20815f52885260405f209160ff19928884825416179055805f526002895260405f20825f52895260405f2088848254161790555f526003885260405f20905f5287528560405f20918254161790558254861c166122dd565b604051908152f35b60405163d05cb60960e01b8152600490fd5b60405163154014e760e11b8152600490fd5b60405163e629aba360e01b8152600490fd5b346101ca5760403660031901126101ca5760206114ef61154b611f80565b600435612379565b346101ca5760403660031901126101ca5760043561156f611ef4565b815f525f60205260ff600460405f20015460101c16156102dd57610671915f525f602052600160405f2001612298565b346101ca5760403660031901126101ca576115b8611ef4565b6004355f52600360205260405f209060018060a01b03165f52602052602060ff60405f2054166040519015158152f35b346101ca576106716115f936611f4d565b915f52600260205260405f209060018060a01b03165f5260205260405f209060ff801983541691151516179055565b346101ca5760403660031901126101ca576001600160401b036004358181116101ca57611659903690600401611f93565b90916024359081116101ca57611673903690600401611f93565b9190828203610539575f5b82811061169057602060405160018152f35b61169b818487612341565b355f526020905f825260405f2060ff9081600482015460181c161561151b576116c583878a612341565b355f5260019081855260405f209260018060a01b0393846116ea6103af888d8c612341565b165f52865260405f20541661150957810190815463ffffffff908180821691881c1610156114f7576001958a61043793896117d0976117b66103af8f8f906117a58e836117398280968d612341565b355f52898c5288886117536103af858860405f2095612341565b165f528c5260405f209a60ff199b8b8d825416179055611774838383612341565b355f5260028d52898961178f6103af868960405f2095612341565b165f528d5260405f208b8d825416179055612341565b355f526003895260405f2095612341565b165f52835260405f20918254161790558354901c166122dd565b0161167e565b346101ca5760203660031901126101ca576004355f525f6020526020600560405f200154604051908152f35b346101ca5761067161181336611f4d565b915f52600360205260405f209060018060a01b03165f5260205260405f209060ff801983541691151516179055565b346101ca5760203660031901126101ca576020604051600435821b158152f35b346101ca5760403660031901126101ca57602061187d611f0a565b6024355f8181526001845260408082206001600160a01b0385168352855290205460ff169190826118cc575b826118bb575b50506040519015158152f35b6118c592506122f2565b82806118af565b8092505f525f835260ff600460405f20015460181c16916118a9565b346101ca5760403660031901126101ca576020610878611906611ef4565b6004356122f2565b346101ca5760403660031901126101ca5760043561192a611f80565b90805f525f60205260ff600460405f20015460101c16156102dd575f525f60205263ffffffff600160405f2001911663ffffffff198254161790555f80f35b346101ca5761197736611f4d565b8080611a8e575b15611a10575081610671925f526020916001835260405f209060018060a01b031690815f52835260405f209060ff1991600183825416179055825f526002845260405f20815f52845260405f20600183825416179055825f526003845260405f20905f528352600160405f20918254161790555f525f815261043763ffffffff600160405f2001928354901c166122dd565b1580611a66575b611a1d57005b815f52600160205260405f209060018060a01b03165f5260205260405f2060ff1981541690555f525f602052610671600160405f200161043763ffffffff825460201c166122cb565b50815f52600160205260405f2060018060a01b0382165f5260205260ff60405f205416611a17565b50825f52600160205260405f2060018060a01b0383165f5260205260ff60405f2054161561197e565b346101ca5760603660031901126101ca57611ad0611f0a565b6024356001600160401b0381116101ca57611aef903690600401611f20565b916044356001600160401b0381116101ca57611b0f903690600401611f20565b60045491905f198314611e4c57611b386001611b5b94019586600455604051976109688961206d565b865260016020870152600160408701525f60608701525f60808701523691612204565b60a08401525f60c08401525f60e084015260016101008401528160e01b6101208401528160e01b5f525f60205260405f2083518051906001600160401b0382116102c957611bad826102248554612035565b602090601f8311600114611de457611bdb92915f9183611dd95750508160011b915f199060031b1c19161790565b81555b602084810151600183018054604088015167ffffffffffffffff1990911663ffffffff93909316929092179190921b67ffffffff0000000016178155611c329060608601516001600160a01b031690612298565b6002810160018060a01b036080860151166001600160601b0360a01b82541617905560a08401519384516001600160401b0381116102c957602095611c7e826111b36003870154612035565b8690601f8311600114611d6957826101209360059593611cb2935f92610b5f5750508160011b915f199060031b1c19161790565b60038501555b60c081015160048501805460e084015162ff000090151560101b1661ffff90931662ffffff1990911617919091178155611cf190610b32565b015191015560e09190911b5f818152600180855260408083206001600160a01b03909516808452948652808320805460ff199081168417909155848452600287528184208685528752818420805482168417905584845260038752818420958452948652918290208054909416179092559051908152f35b90600385015f52875f20915f5b601f1985168110611dc2575092600594926001926101209583601f19811610611daa575b505050811b016003850155611cb8565b01515f1960f88460031b161c19169055898080611d9a565b919289600181928685015181550194019201611d76565b015190508780610246565b9190835f5260205f20905f935b601f1984168510611e31576001945083601f19811610611e19575b505050811b018155611bde565b01515f1960f88460031b161c19169055868080611e0c565b81810151835560209485019460019093019290910190611df1565b634e487b7160e01b5f52601160045260245ffd5b346101ca5760203660031901126101ca5760206114ef60043561217f565b346101ca5760403660031901126101ca57600435611e9a611ef4565b91815f525f60205260ff600460405f20015460101c1615611ee557505f90815260208190526040902060020180546001600160a01b0319166001600160a01b03909216919091179055005b6338a6531f60e01b8152600490fd5b602435906001600160a01b03821682036101ca57565b600435906001600160a01b03821682036101ca57565b9181601f840112156101ca578235916001600160401b0383116101ca57602083818601950101116101ca57565b60609060031901126101ca57600435906024356001600160a01b03811681036101ca579060443580151581036101ca5790565b6024359063ffffffff821682036101ca57565b9181601f840112156101ca578235916001600160401b0383116101ca576020808501948460051b0101116101ca57565b346101ca5760203660031901126101ca576004355f525f602052602060ff600460405f20015460181c166040519015158152f35b91908251928382525f5b848110612021575050825f602080949584010152601f8019910116010190565b602081830181015184830182015201612001565b90600182811c92168015612063575b602083101461204f57565b634e487b7160e01b5f52602260045260245ffd5b91607f1691612044565b61014081019081106001600160401b038211176102c957604052565b90601f801991011681019081106001600160401b038211176102c957604052565b9060405191825f82546120bc81612035565b908184526020946001916001811690815f1461212a57506001146120ec575b5050506120ea92500383612089565b565b5f90815285812095935091905b8183106121125750506120ea93508201015f80806120db565b855488840185015294850194879450918301916120f9565b925050506120ea94925060ff191682840152151560051b8201015f80806120db565b9060406003198301126101ca5760043591602435906001600160401b0382116101ca5761217b91600401611f20565b9091565b805f525f60205260405f2063ffffffff80612199846124ab565b16600e8110156121f25760010190808211611e4c57640ffffffff09082169160041b169080820460101490151715611e4c5760e0039060e08211611e4c576004015461ffff908116600101818111611e4c5716901b1790565b60405163921c7d5f60e01b8152600490fd5b9291926001600160401b0382116102c9576040519161222d601f8201601f191660200184612089565b8294818452818301116101ca578281602093845f960137010152565b601f821161225657505050565b5f5260205f20906020601f840160051c8301931061228e575b601f0160051c01905b818110612283575050565b5f8155600101612278565b909150819061226f565b805468010000000000000000600160e01b03191660409290921b68010000000000000000600160e01b0316919091179055565b63ffffffff168015611e4c575f190190565b63ffffffff809116908114611e4c5760010190565b90815f52600260205260405f209060018060a01b031690815f5260205260ff60405f205416918261232257505090565b9091505f52600360205260405f20905f5260205260ff60405f20541690565b91908110156123515760051b0190565b634e487b7160e01b5f52603260045260245ffd5b356001600160a01b03811681036101ca5790565b9063ffffffff1680600e0390600e8211611e4c578160041b91820460101490600e141715611e4c575f19901b1690565b61ffff809116908114611e4c5760010190565b91908110156123515760051b81013590601e19813603018212156101ca5701908135916001600160401b0383116101ca5760200182360381136101ca579190565b3580151581036101ca5790565b906020918160201b1561248557612420826124ab565b63ffffffff93908416925f5b848682161061243f575050505050505f90565b6124498183612379565b5f908152600180855260408083206001600160a01b038816845286529091205460ff1661247b5750600101851661242c565b9550505050505090565b91505f52600160205260405f209060018060a01b03165f5260205260ff60405f20541690565b5f905f905b600e82106124bd57505090565b909160018301808411611e4c57600481811b91808304601014901517156125105760e091820391821161251057508261ffff911c161561250a576125026001916122dd565b9201906124b0565b91505090565b601190634e487b7160e01b5f525260245ffdfea164736f6c6343000819000a","linkReferences":{}},"methodIdentifiers":{"batchCreateHats(uint256[],string[],uint32[],address[],address[],bool[],string[])":"7903e56b","batchMintHats(uint256[],address[])":"52a6b265","batchSetWearers(uint256,address[],bool[])":"e8906454","changeHatDetails(uint256,string)":"f737401e","changeHatEligibility(uint256,address)":"59701e44","changeHatImageURI(uint256,string)":"d9fd995b","changeHatMaxSupply(uint256,uint32)":"21dbb8cb","changeHatToggle(uint256,address)":"0109f854","checkHatStatus(uint256)":"d3272ba8","checkHatWearerStatus(uint256,address)":"3fa9d544","createHat(uint256,string,uint32,address,address,bool,string)":"b052925e","eligibility(uint256,address)":"8efc0a53","getAdminAtLevel(uint256,uint32)":"5d5eb5af","getHatAdmin(uint256)":"47d173af","getHatImageUri(uint256)":"b71ab810","getHatLevel(uint256)":"fb2aaa4c","getNextId(uint256)":"1183a8c0","hats(uint256)":"bca747b5","isActive(uint256)":"82afd23b","isAdminOfHat(address,uint256)":"b56f7562","isTopHat(uint256)":"45fffac8","isWearerOfHat(address,uint256)":"4352409a","makeHatImmutable(uint256)":"756329a4","mintHat(uint256,address)":"641f776e","mintTopHat(address,string,string)":"1a64dfad","setEligibility(uint256,address,bool)":"550a9df1","setHatActive(uint256,bool)":"d82720cb","setHatWearerStatus(uint256,address,bool,bool)":"afaae55a","setStanding(uint256,address,bool)":"475547ce","setWearer(uint256,address,bool)":"1c10df4d","standing(uint256,address)":"59591a8f","topHatCount()":"781a488e","transferHat(uint256,address,address)":"a4a1f06c","viewHat(uint256)":"d395acf8","wearers(uint256,address)":"715a768e"},"id":139}