{"abi":[{"type":"constructor","inputs":[],"stateMutability":"nonpayable"},{"type":"function","name":"acceptGovernanceTransfer","inputs":[],"outputs":[],"stateMutability":"nonpayable"},{"type":"function","name":"addToAllowlist","inputs":[{"name":"account","type":"address","internalType":"address"}],"outputs":[],"stateMutability":"nonpayable"},{"type":"function","name":"allowlistLength","inputs":[],"outputs":[{"name":"","type":"uint256","internalType":"uint256"}],"stateMutability":"view"},{"type":"function","name":"batchAddToAllowlist","inputs":[{"name":"accounts","type":"address[]","internalType":"address[]"}],"outputs":[],"stateMutability":"nonpayable"},{"type":"function","name":"cancelGovernanceTransfer","inputs":[],"outputs":[],"stateMutability":"nonpayable"},{"type":"function","name":"emergencyPause","inputs":[],"outputs":[],"stateMutability":"nonpayable"},{"type":"function","name":"emergencyPaused","inputs":[],"outputs":[{"name":"","type":"bool","internalType":"bool"}],"stateMutability":"view"},{"type":"function","name":"emergencyUnpause","inputs":[],"outputs":[],"stateMutability":"nonpayable"},{"type":"function","name":"getActionRegistry","inputs":[],"outputs":[{"name":"","type":"address","internalType":"address"}],"stateMutability":"view"},{"type":"function","name":"getAllowlist","inputs":[],"outputs":[{"name":"","type":"address[]","internalType":"address[]"}],"stateMutability":"view"},{"type":"function","name":"getAssessmentResolver","inputs":[],"outputs":[{"name":"","type":"address","internalType":"address"}],"stateMutability":"view"},{"type":"function","name":"getCommunityToken","inputs":[],"outputs":[{"name":"","type":"address","internalType":"address"}],"stateMutability":"view"},{"type":"function","name":"getEAS","inputs":[],"outputs":[{"name":"","type":"address","internalType":"address"}],"stateMutability":"view"},{"type":"function","name":"getEASSchemaRegistry","inputs":[],"outputs":[{"name":"","type":"address","internalType":"address"}],"stateMutability":"view"},{"type":"function","name":"getGardenToken","inputs":[],"outputs":[{"name":"","type":"address","internalType":"address"}],"stateMutability":"view"},{"type":"function","name":"getGreenWillRegistry","inputs":[],"outputs":[{"name":"","type":"address","internalType":"address"}],"stateMutability":"view"},{"type":"function","name":"getHatsAccessControl","inputs":[],"outputs":[{"name":"","type":"address","internalType":"address"}],"stateMutability":"view"},{"type":"function","name":"getHypercerts","inputs":[],"outputs":[{"name":"","type":"address","internalType":"address"}],"stateMutability":"view"},{"type":"function","name":"getIntegrationRouter","inputs":[],"outputs":[{"name":"","type":"address","internalType":"address"}],"stateMutability":"view"},{"type":"function","name":"getNetworkConfig","inputs":[],"outputs":[{"name":"","type":"tuple","internalType":"struct DeploymentRegistry.NetworkConfig","components":[{"name":"eas","type":"address","internalType":"address"},{"name":"easSchemaRegistry","type":"address","internalType":"address"},{"name":"communityToken","type":"address","internalType":"address"},{"name":"actionRegistry","type":"address","internalType":"address"},{"name":"gardenToken","type":"address","internalType":"address"},{"name":"workResolver","type":"address","internalType":"address"},{"name":"workApprovalResolver","type":"address","internalType":"address"},{"name":"assessmentResolver","type":"address","internalType":"address"},{"name":"integrationRouter","type":"address","internalType":"address"},{"name":"hatsAccessControl","type":"address","internalType":"address"},{"name":"octantFactory","type":"address","internalType":"address"},{"name":"unlockFactory","type":"address","internalType":"address"},{"name":"hypercerts","type":"address","internalType":"address"},{"name":"greenWillRegistry","type":"address","internalType":"address"}]}],"stateMutability":"view"},{"type":"function","name":"getNetworkConfigForChain","inputs":[{"name":"chainId","type":"uint256","internalType":"uint256"}],"outputs":[{"name":"","type":"tuple","internalType":"struct DeploymentRegistry.NetworkConfig","components":[{"name":"eas","type":"address","internalType":"address"},{"name":"easSchemaRegistry","type":"address","internalType":"address"},{"name":"communityToken","type":"address","internalType":"address"},{"name":"actionRegistry","type":"address","internalType":"address"},{"name":"gardenToken","type":"address","internalType":"address"},{"name":"workResolver","type":"address","internalType":"address"},{"name":"workApprovalResolver","type":"address","internalType":"address"},{"name":"assessmentResolver","type":"address","internalType":"address"},{"name":"integrationRouter","type":"address","internalType":"address"},{"name":"hatsAccessControl","type":"address","internalType":"address"},{"name":"octantFactory","type":"address","internalType":"address"},{"name":"unlockFactory","type":"address","internalType":"address"},{"name":"hypercerts","type":"address","internalType":"address"},{"name":"greenWillRegistry","type":"address","internalType":"address"}]}],"stateMutability":"view"},{"type":"function","name":"getOctantFactory","inputs":[],"outputs":[{"name":"","type":"address","internalType":"address"}],"stateMutability":"view"},{"type":"function","name":"getUnlockFactory","inputs":[],"outputs":[{"name":"","type":"address","internalType":"address"}],"stateMutability":"view"},{"type":"function","name":"getWorkApprovalResolver","inputs":[],"outputs":[{"name":"","type":"address","internalType":"address"}],"stateMutability":"view"},{"type":"function","name":"getWorkResolver","inputs":[],"outputs":[{"name":"","type":"address","internalType":"address"}],"stateMutability":"view"},{"type":"function","name":"initialize","inputs":[{"name":"_owner","type":"address","internalType":"address"}],"outputs":[],"stateMutability":"nonpayable"},{"type":"function","name":"initiateGovernanceTransfer","inputs":[{"name":"newOwner","type":"address","internalType":"address"}],"outputs":[],"stateMutability":"nonpayable"},{"type":"function","name":"isInAllowlist","inputs":[{"name":"account","type":"address","internalType":"address"}],"outputs":[{"name":"","type":"bool","internalType":"bool"}],"stateMutability":"view"},{"type":"function","name":"networks","inputs":[{"name":"chainId","type":"uint256","internalType":"uint256"}],"outputs":[{"name":"eas","type":"address","internalType":"address"},{"name":"easSchemaRegistry","type":"address","internalType":"address"},{"name":"communityToken","type":"address","internalType":"address"},{"name":"actionRegistry","type":"address","internalType":"address"},{"name":"gardenToken","type":"address","internalType":"address"},{"name":"workResolver","type":"address","internalType":"address"},{"name":"workApprovalResolver","type":"address","internalType":"address"},{"name":"assessmentResolver","type":"address","internalType":"address"},{"name":"integrationRouter","type":"address","internalType":"address"},{"name":"hatsAccessControl","type":"address","internalType":"address"},{"name":"octantFactory","type":"address","internalType":"address"},{"name":"unlockFactory","type":"address","internalType":"address"},{"name":"hypercerts","type":"address","internalType":"address"},{"name":"greenWillRegistry","type":"address","internalType":"address"}],"stateMutability":"view"},{"type":"function","name":"owner","inputs":[],"outputs":[{"name":"","type":"address","internalType":"address"}],"stateMutability":"view"},{"type":"function","name":"pendingOwner","inputs":[],"outputs":[{"name":"","type":"address","internalType":"address"}],"stateMutability":"view"},{"type":"function","name":"proxiableUUID","inputs":[],"outputs":[{"name":"","type":"bytes32","internalType":"bytes32"}],"stateMutability":"view"},{"type":"function","name":"removeFromAllowlist","inputs":[{"name":"account","type":"address","internalType":"address"}],"outputs":[],"stateMutability":"nonpayable"},{"type":"function","name":"renounceOwnership","inputs":[],"outputs":[],"stateMutability":"nonpayable"},{"type":"function","name":"setNetworkConfig","inputs":[{"name":"chainId","type":"uint256","internalType":"uint256"},{"name":"config","type":"tuple","internalType":"struct DeploymentRegistry.NetworkConfig","components":[{"name":"eas","type":"address","internalType":"address"},{"name":"easSchemaRegistry","type":"address","internalType":"address"},{"name":"communityToken","type":"address","internalType":"address"},{"name":"actionRegistry","type":"address","internalType":"address"},{"name":"gardenToken","type":"address","internalType":"address"},{"name":"workResolver","type":"address","internalType":"address"},{"name":"workApprovalResolver","type":"address","internalType":"address"},{"name":"assessmentResolver","type":"address","internalType":"address"},{"name":"integrationRouter","type":"address","internalType":"address"},{"name":"hatsAccessControl","type":"address","internalType":"address"},{"name":"octantFactory","type":"address","internalType":"address"},{"name":"unlockFactory","type":"address","internalType":"address"},{"name":"hypercerts","type":"address","internalType":"address"},{"name":"greenWillRegistry","type":"address","internalType":"address"}]}],"outputs":[],"stateMutability":"nonpayable"},{"type":"function","name":"transferOwnership","inputs":[{"name":"newOwner","type":"address","internalType":"address"}],"outputs":[],"stateMutability":"nonpayable"},{"type":"function","name":"updateActionRegistry","inputs":[{"name":"contractAddress","type":"address","internalType":"address"}],"outputs":[],"stateMutability":"nonpayable"},{"type":"function","name":"updateAssessmentResolver","inputs":[{"name":"contractAddress","type":"address","internalType":"address"}],"outputs":[],"stateMutability":"nonpayable"},{"type":"function","name":"updateGardenToken","inputs":[{"name":"contractAddress","type":"address","internalType":"address"}],"outputs":[],"stateMutability":"nonpayable"},{"type":"function","name":"updateGreenWillRegistry","inputs":[{"name":"contractAddress","type":"address","internalType":"address"}],"outputs":[],"stateMutability":"nonpayable"},{"type":"function","name":"updateHatsAccessControl","inputs":[{"name":"contractAddress","type":"address","internalType":"address"}],"outputs":[],"stateMutability":"nonpayable"},{"type":"function","name":"updateHypercerts","inputs":[{"name":"contractAddress","type":"address","internalType":"address"}],"outputs":[],"stateMutability":"nonpayable"},{"type":"function","name":"updateIntegrationRouter","inputs":[{"name":"contractAddress","type":"address","internalType":"address"}],"outputs":[],"stateMutability":"nonpayable"},{"type":"function","name":"updateOctantFactory","inputs":[{"name":"contractAddress","type":"address","internalType":"address"}],"outputs":[],"stateMutability":"nonpayable"},{"type":"function","name":"updateUnlockFactory","inputs":[{"name":"contractAddress","type":"address","internalType":"address"}],"outputs":[],"stateMutability":"nonpayable"},{"type":"function","name":"upgradeTo","inputs":[{"name":"newImplementation","type":"address","internalType":"address"}],"outputs":[],"stateMutability":"nonpayable"},{"type":"function","name":"upgradeToAndCall","inputs":[{"name":"newImplementation","type":"address","internalType":"address"},{"name":"data","type":"bytes","internalType":"bytes"}],"outputs":[],"stateMutability":"payable"},{"type":"event","name":"AdminChanged","inputs":[{"name":"previousAdmin","type":"address","indexed":false,"internalType":"address"},{"name":"newAdmin","type":"address","indexed":false,"internalType":"address"}],"anonymous":false},{"type":"event","name":"AllowlistAdded","inputs":[{"name":"account","type":"address","indexed":true,"internalType":"address"}],"anonymous":false},{"type":"event","name":"AllowlistRemoved","inputs":[{"name":"account","type":"address","indexed":true,"internalType":"address"}],"anonymous":false},{"type":"event","name":"BeaconUpgraded","inputs":[{"name":"beacon","type":"address","indexed":true,"internalType":"address"}],"anonymous":false},{"type":"event","name":"EmergencyPauseActivated","inputs":[{"name":"activator","type":"address","indexed":true,"internalType":"address"}],"anonymous":false},{"type":"event","name":"EmergencyPauseDeactivated","inputs":[{"name":"deactivator","type":"address","indexed":true,"internalType":"address"}],"anonymous":false},{"type":"event","name":"GovernanceTransferCompleted","inputs":[{"name":"previousOwner","type":"address","indexed":true,"internalType":"address"},{"name":"newOwner","type":"address","indexed":true,"internalType":"address"}],"anonymous":false},{"type":"event","name":"GovernanceTransferInitiated","inputs":[{"name":"currentOwner","type":"address","indexed":true,"internalType":"address"},{"name":"pendingOwner","type":"address","indexed":true,"internalType":"address"}],"anonymous":false},{"type":"event","name":"Initialized","inputs":[{"name":"version","type":"uint8","indexed":false,"internalType":"uint8"}],"anonymous":false},{"type":"event","name":"NetworkConfigUpdated","inputs":[{"name":"chainId","type":"uint256","indexed":true,"internalType":"uint256"},{"name":"config","type":"tuple","indexed":false,"internalType":"struct DeploymentRegistry.NetworkConfig","components":[{"name":"eas","type":"address","internalType":"address"},{"name":"easSchemaRegistry","type":"address","internalType":"address"},{"name":"communityToken","type":"address","internalType":"address"},{"name":"actionRegistry","type":"address","internalType":"address"},{"name":"gardenToken","type":"address","internalType":"address"},{"name":"workResolver","type":"address","internalType":"address"},{"name":"workApprovalResolver","type":"address","internalType":"address"},{"name":"assessmentResolver","type":"address","internalType":"address"},{"name":"integrationRouter","type":"address","internalType":"address"},{"name":"hatsAccessControl","type":"address","internalType":"address"},{"name":"octantFactory","type":"address","internalType":"address"},{"name":"unlockFactory","type":"address","internalType":"address"},{"name":"hypercerts","type":"address","internalType":"address"},{"name":"greenWillRegistry","type":"address","internalType":"address"}]}],"anonymous":false},{"type":"event","name":"OwnershipTransferred","inputs":[{"name":"previousOwner","type":"address","indexed":true,"internalType":"address"},{"name":"newOwner","type":"address","indexed":true,"internalType":"address"}],"anonymous":false},{"type":"event","name":"Upgraded","inputs":[{"name":"implementation","type":"address","indexed":true,"internalType":"address"}],"anonymous":false},{"type":"error","name":"CannotAddZeroAddress","inputs":[]},{"type":"error","name":"EmergencyPaused","inputs":[]},{"type":"error","name":"NetworkNotConfigured","inputs":[{"name":"chainId","type":"uint256","internalType":"uint256"}]},{"type":"error","name":"NewOwnerCannotBeCurrentOwner","inputs":[]},{"type":"error","name":"NoPendingTransfer","inputs":[]},{"type":"error","name":"NotPendingOwner","inputs":[]},{"type":"error","name":"UnauthorizedCaller","inputs":[{"name":"caller","type":"address","internalType":"address"}]}],"bytecode":{"object":"0x60a0806040523460d657306080525f549060ff8260081c166084575060ff80821603604b575b60405161247e90816100db823960805181818161125401528181611470015261176f0152f35b60ff90811916175f557f7f26b83ff96e1f2b6a682f133852f6798a09c465da95921460cefb3847402498602060405160ff8152a15f6025565b62461bcd60e51b815260206004820152602760248201527f496e697469616c697a61626c653a20636f6e747261637420697320696e697469604482015266616c697a696e6760c81b6064820152608490fd5b5f80fdfe60806040526004361015610011575f80fd5b5f3560e01c8062fd1e8214611c8857806304c7976a14611c63578063073cc29514611c3d57806307aaa72c14611b9e5780630b0714b614611b785780631104241014611ad95780631c940d4614611ab5578063262b83fd14611a1657806327c830a9146119f157806329d0fdc0146119af5780632a90b8da1461192e5780633659cfe61461174a57806340c5705a146117255780634a4e3bd5146116d95780634f1ef286146113f55780634f57790f1461135657806351858e271461130457806352d1902d146112425780635da93d7e146111e357806365c40b9c146111b6578063715018a61461115b578063756d1179146110bc5780638abc7f541461101d5780638ac7979114610f385780638bb0a17c14610e4c5780638da5cb5b14610e245780638f8022bc14610d9c5780639362327e14610d7f57806396951e6b14610d5957806399efcaec14610d345780639eacbf9f14610d0e578063a853c07d14610ce8578063aa91415214610cc3578063b45c31da14610c24578063b88c0d9814610b85578063c4d66de814610a1f578063c5eff3d014610964578063cdf2dfc91461093f578063e30c397814610917578063e6da554a146108f1578063eab61ba5146108c1578063ecd485351461081d578063f2fde38b1461078e578063f8966fdb146106ac578063f8e86ece14610635578063f9d61eaf146105ea5763ffcde0d21461021d575f80fd5b346105a0576101e03660031901126105a0576004356101c03660231901126105a0576033546001600160a01b0316331415806105ce575b6105b65760ff60685460a01c166105a4575f818152606560205260409020602435906001600160a01b03821682036105a05780546001600160a01b0319166001600160a01b0383811691909117825560443592906001830190841684036105a05780546001600160a01b0319166001600160a01b0385811691909117909155606435906002840190821682036105a05780546001600160a01b0319166001600160a01b0383811691909117909155608435906003850190821682036105a05780546001600160a01b0319166001600160a01b038381169190911790915560a435906004860190821682036105a05780546001600160a01b0319166001600160a01b038381169190911790915560c435906005870190821682036105a05780546001600160a01b0319166001600160a01b038381169190911790915560e435906006880190821682036105a05780546001600160a01b0319166001600160a01b03838116919091179091556101043591906007890190831683036105a05780546001600160a01b0319166001600160a01b038481169190911790915561012435939060088a0190851685036105a05780546001600160a01b0319166001600160a01b038681169190911790915561014435959060098b0190871687036105a05780546001600160a01b0319166001600160a01b0388811691909117909155610164359790600a8c0190891689036105a05780546001600160a01b0319166001600160a01b038a811691909117909155610184359990600b8d01908b168b036105a05780546001600160a01b0319166001600160a01b038c8116919091179091556101a43590811690036105a057600c8c0180546001600160a01b0319166101a4356001600160a01b03908116919091179091556101c43590811690036105a057600d909b0180546001600160a01b0319166101c4356001600160a01b03908116918217909255604080519c83168d529d821660208d01529b81169c8b019c909c528b1660608a01528a166080890152891660a0880152881660c0870152871660e086015286166101008501528516610120840152841661014083015283166101608201526101a4359092166101808301526101a08201525f80516020612452833981519152906101c090a2005b5f80fd5b604051634cb3183d60e01b8152600490fd5b60405163d86ad9cf60e01b8152336004820152602490fd5b506105e4335f52606760205260405f2054151590565b15610254565b346105a0575f3660031901126105a0576106026120a2565b6068546001600160a01b03811615610623576001600160a01b031916606855005b60405163357a03ed60e21b8152600490fd5b346105a05760203660031901126105a05761064e611cad565b6106566120a2565b6001600160a01b0316801561069a5761066e81612307565b61067457005b7f28f54e0b69489ad5fd27625e6fcff58faff5da96f8a077d08bb09af25bb41d545f80a2005b604051636038131760e11b8152600490fd5b346105a05760203660031901126105a05761078a6106cb600435611f54565b604051918291829190916101c081019260018060a01b038082511683528060208301511660208401528060408301511660408401528060608301511660608401528060808301511660808401528060a08301511660a08401528060c08301511660c08401528060e08301511660e084015261010081818401511690840152610120818184015116908401526101408181840151169084015261016081818401511690840152610180818184015116908401526101a08092015116910152565b0390f35b346105a05760203660031901126105a0576107a7611cad565b6107af6120a2565b6001600160a01b038116156107c9576107c79061205a565b005b60405162461bcd60e51b815260206004820152602660248201527f4f776e61626c653a206e6577206f776e657220697320746865207a65726f206160448201526564647265737360d01b6064820152608490fd5b346105a05760203660031901126105a057610836611cad565b6033546001600160a01b0391908216331415806108a5575b6105b65760ff60685460a01c166105a457465f52606560205260405f20916004830191166001600160601b0360a01b8254161790555f80516020612452833981519152604051806108a0469482611da0565b0390a2005b506108bb335f52606760205260405f2054151590565b1561084e565b346105a0575f3660031901126105a05760206001600160a01b0360c06108e646611f54565b015116604051908152f35b346105a0575f3660031901126105a05760206001600160a01b036101006108e646611f54565b346105a0575f3660031901126105a0576068546040516001600160a01b039091168152602090f35b346105a0575f3660031901126105a05760206001600160a01b0360606108e646611f54565b346105a0575f3660031901126105a057604051806066548083526020809301809160665f527f46501879b8ca8525e8c2fd519e2fbfcfa2ebea26501294aa02cbfcfb12e94354905f5b86828210610a0b5786866109c382880383611cfc565b60405192839281840190828552518091526040840192915f5b8281106109eb57505050500390f35b83516001600160a01b0316855286955093810193928101926001016109dc565b8354855290930192600192830192016109ad565b346105a05760203660031901126105a057610a38611cad565b5f549060ff8260081c161591828093610b78575b8015610b61575b15610b055760ff1981166001175f5582610af4575b50610a8260ff5f5460081c16610a7d816120fa565b6120fa565b610a8b3361205a565b610a936120a2565b6001600160a01b038116156107c957610aab9061205a565b6068805460ff60a01b19169055610abe57005b61ff00195f54165f557f7f26b83ff96e1f2b6a682f133852f6798a09c465da95921460cefb3847402498602060405160018152a1005b61ffff1916610101175f5582610a68565b60405162461bcd60e51b815260206004820152602e60248201527f496e697469616c697a61626c653a20636f6e747261637420697320616c72656160448201526d191e481a5b9a5d1a585b1a5e995960921b6064820152608490fd5b50303b158015610a535750600160ff821614610a53565b50600160ff821610610a4c565b346105a05760203660031901126105a057610b9e611cad565b6033546001600160a01b039190821633141580610c08575b6105b65760ff60685460a01c166105a457465f52606560205260405f2091600b830191166001600160601b0360a01b8254161790555f80516020612452833981519152604051806108a0469482611da0565b50610c1e335f52606760205260405f2054151590565b15610bb6565b346105a05760203660031901126105a057610c3d611cad565b6033546001600160a01b039190821633141580610ca7575b6105b65760ff60685460a01c166105a457465f52606560205260405f2091600c830191166001600160601b0360a01b8254161790555f80516020612452833981519152604051806108a0469482611da0565b50610cbd335f52606760205260405f2054151590565b15610c55565b346105a0575f3660031901126105a05760206001600160a01b0360e06108e646611f54565b346105a0575f3660031901126105a05760206001600160a01b036101206108e646611f54565b346105a0575f3660031901126105a05760206001600160a01b036101a06108e646611f54565b346105a0575f3660031901126105a05760206001600160a01b0360406108e646611f54565b346105a0575f3660031901126105a05760206001600160a01b036101406108e646611f54565b346105a0575f3660031901126105a0576020606654604051908152f35b346105a05760203660031901126105a057610db5611cad565b610dbd6120a2565b6001600160a01b0390811690811561069a5760335416808214610e1257606880546001600160a01b031916831790557f10705730e98da50fb257fd92cd2817af22aba5a69113af740907ab35133237a15f80a3005b6040516310df701f60e11b8152600490fd5b346105a0575f3660031901126105a0576033546040516001600160a01b039091168152602090f35b346105a05760203660031901126105a057600480355f9081526065602090815260409182902080546001820154600283015460038401549684015460058501546006860154600787015460088801546009890154600a8a0154600b8b0154600c8c0154600d909c01548e516001600160a01b039c8d1681529a8c169d8b019d909d52978a169c89019c909c529b88166060880152938716608087015291861660a0860152851660c0850152841660e0840152831661010083015295821661012082015293811661014085015293841661016084015283166101808301529091166101a08201526101c090f35b346105a05760203660031901126105a05760043567ffffffffffffffff8082116105a057366023830112156105a05781600401359081116105a0576024820191602436918360051b0101116105a057610f8f6120a2565b5f5b818110610f9a57005b6001600160a01b039081610fb7610fb2838688611f1c565b611f40565b161561069a5781610fd8600193610fd2610fb285888a611f1c565b16612307565b610fe4575b5001610f91565b610ff2610fb2838688611f1c565b167f28f54e0b69489ad5fd27625e6fcff58faff5da96f8a077d08bb09af25bb41d545f80a284610fdd565b346105a05760203660031901126105a057611036611cad565b6033546001600160a01b0391908216331415806110a0575b6105b65760ff60685460a01c166105a457465f52606560205260405f2091600a830191166001600160601b0360a01b8254161790555f80516020612452833981519152604051806108a0469482611da0565b506110b6335f52606760205260405f2054151590565b1561104e565b346105a05760203660031901126105a0576110d5611cad565b6033546001600160a01b03919082163314158061113f575b6105b65760ff60685460a01c166105a457465f52606560205260405f20916007830191166001600160601b0360a01b8254161790555f80516020612452833981519152604051806108a0469482611da0565b50611155335f52606760205260405f2054151590565b156110ed565b346105a0575f3660031901126105a0576111736120a2565b603380546001600160a01b031981169091555f906001600160a01b03167f8be0079c531659141344cd1fd0a4f28419497f9722a3daafe3b4186f6b6457e08280a3005b346105a0575f3660031901126105a05760206001600160a01b036111d946611f54565b5116604051908152f35b346105a05760203660031901126105a0576111fc611cad565b6112046120a2565b6001600160a01b03166112168161221e565b61121c57005b7f458680f79aa9de0ae06344287a3bd8ec6179faa05252e9af81ae734d6b4dc6ba5f80a2005b346105a0575f3660031901126105a0577f00000000000000000000000000000000000000000000000000000000000000006001600160a01b031630036112995760206040515f805160206124328339815191528152f35b60405162461bcd60e51b815260206004820152603860248201527f555550535570677261646561626c653a206d757374206e6f742062652063616c60448201527f6c6564207468726f7567682064656c656761746563616c6c00000000000000006064820152608490fd5b346105a0575f3660031901126105a05761131c6120a2565b6068805460ff60a01b1916600160a01b179055337fd22f4bfe91f61d907b056bd69bbd188a22d589ccc82a2acefd1b909e648f579d5f80a2005b346105a05760203660031901126105a05761136f611cad565b6033546001600160a01b0391908216331415806113d9575b6105b65760ff60685460a01c166105a457465f52606560205260405f20916003830191166001600160601b0360a01b8254161790555f80516020612452833981519152604051806108a0469482611da0565b506113ef335f52606760205260405f2054151590565b15611387565b60403660031901126105a057611409611cad565b6024359067ffffffffffffffff82116105a057366023830112156105a057816004013561143581611d1e565b6114426040519182611cfc565b8181526020918282019436602483830101116105a057815f9260248693018837830101526001600160a01b037f000000000000000000000000000000000000000000000000000000000000000081169061149e30831415611e5a565b6114ba5f80516020612432833981519152928284541614611ebb565b6114c26120a2565b7f4910fdfa16fed3260ed0e7147f7cc6da11a60208b5b9406d12a635614ffd91435460ff16156114fa57505050506107c7915061215a565b8492939416906040516352d1902d60e01b81528581600481865afa5f91816116aa575b5061157e5760405162461bcd60e51b815260048101879052602e60248201527f45524331393637557067726164653a206e657720696d706c656d656e7461746960448201526d6f6e206973206e6f74205555505360901b6064820152608490fd5b949394036116535761158f8261215a565b7fbc7cd75a20ee27fd9adebab32041f755214dbc6bffa90cc0225b39da2e5c2d3b5f80a282511580159061164b575b6115c457005b5f806107c795604051956115d787611ce0565b602787527f416464726573733a206c6f772d6c6576656c2064656c65676174652063616c6c86880152660819985a5b195960ca1b60408801525190845af4903d15611642573d61162681611d1e565b906116346040519283611cfc565b81525f81943d92013e61235f565b6060925061235f565b5060016115be565b60405162461bcd60e51b815260048101849052602960248201527f45524331393637557067726164653a20756e737570706f727465642070726f786044820152681a58589b195555525160ba1b6064820152608490fd5b9091508681813d83116116d2575b6116c28183611cfc565b810103126105a05751908861151d565b503d6116b8565b346105a0575f3660031901126105a0576116f16120a2565b6068805460ff60a01b19169055337f81bb918ff47a4b0cd0361d8c308ff5920e27fd3eec1efb50404df4b70ddfd19f5f80a2005b346105a0575f3660031901126105a05760206001600160a01b0360806108e646611f54565b346105a0576020806003193601126105a057611764611cad565b6001600160a01b03917f0000000000000000000000000000000000000000000000000000000000000000831661179c30821415611e5a565b6117b85f80516020612432833981519152918583541614611ebb565b6117c06120a2565b604051908282019482861067ffffffffffffffff87111761191a57856040525f835260ff7f4910fdfa16fed3260ed0e7147f7cc6da11a60208b5b9406d12a635614ffd914354165f1461181b57505050506107c7915061215a565b8492939416906040516352d1902d60e01b81528581600481865afa5f91816118eb575b5061189f5760405162461bcd60e51b815260048101879052602e60248201527f45524331393637557067726164653a206e657720696d706c656d656e7461746960448201526d6f6e206973206e6f74205555505360901b6064820152608490fd5b94939403611653576118b08261215a565b7fbc7cd75a20ee27fd9adebab32041f755214dbc6bffa90cc0225b39da2e5c2d3b5f80a28251158015906118e4576115c457005b505f6115be565b9091508681813d8311611913575b6119038183611cfc565b810103126105a05751908861183e565b503d6118f9565b634e487b7160e01b5f52604160045260245ffd5b346105a0575f3660031901126105a0576068546001600160a01b03808216919082156106235782330361199d576033546001600160a01b0319909216606855166119778261205a565b7f2a2dfd9f58f04d24cec30b76b66fc7718ccb29c449eb44949b2d13e960f424b95f80a3005b604051630614e5c760e21b8152600490fd5b346105a05760203660031901126105a05760206119e76001600160a01b036119d5611cad565b165f52606760205260405f2054151590565b6040519015158152f35b346105a0575f3660031901126105a057602060ff60685460a01c166040519015158152f35b346105a05760203660031901126105a057611a2f611cad565b6033546001600160a01b039190821633141580611a99575b6105b65760ff60685460a01c166105a457465f52606560205260405f20916008830191166001600160601b0360a01b8254161790555f80516020612452833981519152604051806108a0469482611da0565b50611aaf335f52606760205260405f2054151590565b15611a47565b346105a0575f3660031901126105a05760206001600160a01b03816108e646611f54565b346105a05760203660031901126105a057611af2611cad565b6033546001600160a01b039190821633141580611b5c575b6105b65760ff60685460a01c166105a457465f52606560205260405f20916009830191166001600160601b0360a01b8254161790555f80516020612452833981519152604051806108a0469482611da0565b50611b72335f52606760205260405f2054151590565b15611b0a565b346105a0575f3660031901126105a05760206001600160a01b036101606108e646611f54565b346105a05760203660031901126105a057611bb7611cad565b6033546001600160a01b039190821633141580611c21575b6105b65760ff60685460a01c166105a457465f52606560205260405f2091600d830191166001600160601b0360a01b8254161790555f80516020612452833981519152604051806108a0469482611da0565b50611c37335f52606760205260405f2054151590565b15611bcf565b346105a0575f3660031901126105a05760206001600160a01b036101806108e646611f54565b346105a0575f3660031901126105a05760206001600160a01b0360a06108e646611f54565b346105a0575f3660031901126105a057611ca0611d3a565b5061078a6106cb46611f54565b600435906001600160a01b03821682036105a057565b6101c0810190811067ffffffffffffffff82111761191a57604052565b6060810190811067ffffffffffffffff82111761191a57604052565b90601f8019910116810190811067ffffffffffffffff82111761191a57604052565b67ffffffffffffffff811161191a57601f01601f191660200190565b60405190611d4782611cc3565b5f6101a0838281528260208201528260408201528260608201528260808201528260a08201528260c08201528260e082015282610100820152826101208201528261014082015282610160820152826101808201520152565b81546001600160a01b0390811682526001830154811660208301526002830154811660408301526003830154811660608301526004830154811660808301526005830154811660a08301526006830154811660c08301526007830154811660e08301526008830154811661010083015260098301548116610120830152600a8301548116610140830152600b8301548116610160830152600c8301548116610180830152600d909201549091166101a08201526101c00190565b15611e6157565b60405162461bcd60e51b815260206004820152602c60248201527f46756e6374696f6e206d7573742062652063616c6c6564207468726f7567682060448201526b19195b1959d85d1958d85b1b60a21b6064820152608490fd5b15611ec257565b60405162461bcd60e51b815260206004820152602c60248201527f46756e6374696f6e206d7573742062652063616c6c6564207468726f7567682060448201526b6163746976652070726f787960a01b6064820152608490fd5b9190811015611f2c5760051b0190565b634e487b7160e01b5f52603260045260245ffd5b356001600160a01b03811681036105a05790565b611f5c611d3a565b50805f52606560205260405f209060405191611f7783611cc3565b60018060a01b038082541690818552806001840154166020860152600d81600285015416938460408801528260038201541660608801528260048201541660808801528260058201541660a08801528260068201541660c08801528260078201541660e0880152826008820154166101008801528260098201541661012088015282600a8201541661014088015282600b8201541661016088015282600c820154166101808801520154166101a0850152159081612051575b50612039575090565b602490604051906332f514c160e11b82526004820152fd5b9050155f612030565b603380546001600160a01b039283166001600160a01b0319821681179092559091167f8be0079c531659141344cd1fd0a4f28419497f9722a3daafe3b4186f6b6457e05f80a3565b6033546001600160a01b031633036120b657565b606460405162461bcd60e51b815260206004820152602060248201527f4f776e61626c653a2063616c6c6572206973206e6f7420746865206f776e65726044820152fd5b1561210157565b60405162461bcd60e51b815260206004820152602b60248201527f496e697469616c697a61626c653a20636f6e7472616374206973206e6f74206960448201526a6e697469616c697a696e6760a81b6064820152608490fd5b803b1561218e575f8051602061243283398151915280546001600160a01b0319166001600160a01b03909216919091179055565b60405162461bcd60e51b815260206004820152602d60248201527f455243313936373a206e657720696d706c656d656e746174696f6e206973206e60448201526c1bdd08184818dbdb9d1c9858dd609a1b6064820152608490fd5b606654811015611f2c5760665f527f46501879b8ca8525e8c2fd519e2fbfcfa2ebea26501294aa02cbfcfb12e9435401905f90565b5f818152606760205260409020548015612301575f19908082018181116122ed57606654908382019182116122ed578082036122a3575b505050606654801561228f5781019061226d826121e9565b909182549160031b1b191690556066555f5260676020525f6040812055600190565b634e487b7160e01b5f52603160045260245ffd5b6122d76122b26122c1936121e9565b90549060031b1c9283926121e9565b819391549060031b91821b915f19901b19161790565b90555f52606760205260405f20555f8080612255565b634e487b7160e01b5f52601160045260245ffd5b50505f90565b805f52606760205260405f2054155f1461235a576066546801000000000000000081101561191a576123436122c18260018594016066556121e9565b9055606654905f52606760205260405f2055600190565b505f90565b919290156123c15750815115612373575090565b3b1561237c5790565b60405162461bcd60e51b815260206004820152601d60248201527f416464726573733a2063616c6c20746f206e6f6e2d636f6e74726163740000006044820152606490fd5b8251909150156123d45750805190602001fd5b6040519062461bcd60e51b82528160208060048301528251908160248401525f935b828510612418575050604492505f838284010152601f80199101168101030190fd5b84810182015186860160440152938101938593506123f656fe360894a13ba1a3210667c828492db98dca3e2076cc3735a920a3ca505d382bbc8325ae212bb2fe5178451363d503ae23b74011e0b07b3b1441c9399753d36dbaa164736f6c6343000819000a","linkReferences":{}},"methodIdentifiers":{"acceptGovernanceTransfer()":"2a90b8da","addToAllowlist(address)":"f8e86ece","allowlistLength()":"9362327e","batchAddToAllowlist(address[])":"8ac79791","cancelGovernanceTransfer()":"f9d61eaf","emergencyPause()":"51858e27","emergencyPaused()":"27c830a9","emergencyUnpause()":"4a4e3bd5","getActionRegistry()":"cdf2dfc9","getAllowlist()":"c5eff3d0","getAssessmentResolver()":"aa914152","getCommunityToken()":"99efcaec","getEAS()":"65c40b9c","getEASSchemaRegistry()":"1c940d46","getGardenToken()":"40c5705a","getGreenWillRegistry()":"9eacbf9f","getHatsAccessControl()":"a853c07d","getHypercerts()":"073cc295","getIntegrationRouter()":"e6da554a","getNetworkConfig()":"00fd1e82","getNetworkConfigForChain(uint256)":"f8966fdb","getOctantFactory()":"96951e6b","getUnlockFactory()":"0b0714b6","getWorkApprovalResolver()":"eab61ba5","getWorkResolver()":"04c7976a","initialize(address)":"c4d66de8","initiateGovernanceTransfer(address)":"8f8022bc","isInAllowlist(address)":"29d0fdc0","networks(uint256)":"8bb0a17c","owner()":"8da5cb5b","pendingOwner()":"e30c3978","proxiableUUID()":"52d1902d","removeFromAllowlist(address)":"5da93d7e","renounceOwnership()":"715018a6","setNetworkConfig(uint256,(address,address,address,address,address,address,address,address,address,address,address,address,address,address))":"ffcde0d2","transferOwnership(address)":"f2fde38b","updateActionRegistry(address)":"4f57790f","updateAssessmentResolver(address)":"756d1179","updateGardenToken(address)":"ecd48535","updateGreenWillRegistry(address)":"07aaa72c","updateHatsAccessControl(address)":"11042410","updateHypercerts(address)":"b45c31da","updateIntegrationRouter(address)":"262b83fd","updateOctantFactory(address)":"8abc7f54","updateUnlockFactory(address)":"b88c0d98","upgradeTo(address)":"3659cfe6","upgradeToAndCall(address,bytes)":"4f1ef286"},"id":132}