{"abi":[{"type":"constructor","inputs":[],"stateMutability":"nonpayable"},{"type":"function","name":"acceptGovernanceTransfer","inputs":[],"outputs":[],"stateMutability":"nonpayable"},{"type":"function","name":"addToAllowlist","inputs":[{"name":"account","type":"address","internalType":"address"}],"outputs":[],"stateMutability":"nonpayable"},{"type":"function","name":"allowlistLength","inputs":[],"outputs":[{"name":"","type":"uint256","internalType":"uint256"}],"stateMutability":"view"},{"type":"function","name":"batchAddToAllowlist","inputs":[{"name":"accounts","type":"address[]","internalType":"address[]"}],"outputs":[],"stateMutability":"nonpayable"},{"type":"function","name":"cancelGovernanceTransfer","inputs":[],"outputs":[],"stateMutability":"nonpayable"},{"type":"function","name":"emergencyPause","inputs":[],"outputs":[],"stateMutability":"nonpayable"},{"type":"function","name":"emergencyPaused","inputs":[],"outputs":[{"name":"","type":"bool","internalType":"bool"}],"stateMutability":"view"},{"type":"function","name":"emergencyUnpause","inputs":[],"outputs":[],"stateMutability":"nonpayable"},{"type":"function","name":"getActionRegistry","inputs":[],"outputs":[{"name":"","type":"address","internalType":"address"}],"stateMutability":"view"},{"type":"function","name":"getAllowlist","inputs":[],"outputs":[{"name":"","type":"address[]","internalType":"address[]"}],"stateMutability":"view"},{"type":"function","name":"getCommunityToken","inputs":[],"outputs":[{"name":"","type":"address","internalType":"address"}],"stateMutability":"view"},{"type":"function","name":"getEAS","inputs":[],"outputs":[{"name":"","type":"address","internalType":"address"}],"stateMutability":"view"},{"type":"function","name":"getEASSchemaRegistry","inputs":[],"outputs":[{"name":"","type":"address","internalType":"address"}],"stateMutability":"view"},{"type":"function","name":"getGardenToken","inputs":[],"outputs":[{"name":"","type":"address","internalType":"address"}],"stateMutability":"view"},{"type":"function","name":"getNetworkConfig","inputs":[],"outputs":[{"name":"","type":"tuple","internalType":"struct DeploymentRegistry.NetworkConfig","components":[{"name":"eas","type":"address","internalType":"address"},{"name":"easSchemaRegistry","type":"address","internalType":"address"},{"name":"communityToken","type":"address","internalType":"address"},{"name":"actionRegistry","type":"address","internalType":"address"},{"name":"gardenToken","type":"address","internalType":"address"},{"name":"workResolver","type":"address","internalType":"address"},{"name":"workApprovalResolver","type":"address","internalType":"address"}]}],"stateMutability":"view"},{"type":"function","name":"getNetworkConfigForChain","inputs":[{"name":"chainId","type":"uint256","internalType":"uint256"}],"outputs":[{"name":"","type":"tuple","internalType":"struct DeploymentRegistry.NetworkConfig","components":[{"name":"eas","type":"address","internalType":"address"},{"name":"easSchemaRegistry","type":"address","internalType":"address"},{"name":"communityToken","type":"address","internalType":"address"},{"name":"actionRegistry","type":"address","internalType":"address"},{"name":"gardenToken","type":"address","internalType":"address"},{"name":"workResolver","type":"address","internalType":"address"},{"name":"workApprovalResolver","type":"address","internalType":"address"}]}],"stateMutability":"view"},{"type":"function","name":"getWorkApprovalResolver","inputs":[],"outputs":[{"name":"","type":"address","internalType":"address"}],"stateMutability":"view"},{"type":"function","name":"getWorkResolver","inputs":[],"outputs":[{"name":"","type":"address","internalType":"address"}],"stateMutability":"view"},{"type":"function","name":"initialize","inputs":[{"name":"_owner","type":"address","internalType":"address"}],"outputs":[],"stateMutability":"nonpayable"},{"type":"function","name":"initiateGovernanceTransfer","inputs":[{"name":"newOwner","type":"address","internalType":"address"}],"outputs":[],"stateMutability":"nonpayable"},{"type":"function","name":"isInAllowlist","inputs":[{"name":"account","type":"address","internalType":"address"}],"outputs":[{"name":"","type":"bool","internalType":"bool"}],"stateMutability":"view"},{"type":"function","name":"networks","inputs":[{"name":"chainId","type":"uint256","internalType":"uint256"}],"outputs":[{"name":"eas","type":"address","internalType":"address"},{"name":"easSchemaRegistry","type":"address","internalType":"address"},{"name":"communityToken","type":"address","internalType":"address"},{"name":"actionRegistry","type":"address","internalType":"address"},{"name":"gardenToken","type":"address","internalType":"address"},{"name":"workResolver","type":"address","internalType":"address"},{"name":"workApprovalResolver","type":"address","internalType":"address"}],"stateMutability":"view"},{"type":"function","name":"owner","inputs":[],"outputs":[{"name":"","type":"address","internalType":"address"}],"stateMutability":"view"},{"type":"function","name":"pendingOwner","inputs":[],"outputs":[{"name":"","type":"address","internalType":"address"}],"stateMutability":"view"},{"type":"function","name":"proxiableUUID","inputs":[],"outputs":[{"name":"","type":"bytes32","internalType":"bytes32"}],"stateMutability":"view"},{"type":"function","name":"removeFromAllowlist","inputs":[{"name":"account","type":"address","internalType":"address"}],"outputs":[],"stateMutability":"nonpayable"},{"type":"function","name":"renounceOwnership","inputs":[],"outputs":[],"stateMutability":"nonpayable"},{"type":"function","name":"setNetworkConfig","inputs":[{"name":"chainId","type":"uint256","internalType":"uint256"},{"name":"config","type":"tuple","internalType":"struct DeploymentRegistry.NetworkConfig","components":[{"name":"eas","type":"address","internalType":"address"},{"name":"easSchemaRegistry","type":"address","internalType":"address"},{"name":"communityToken","type":"address","internalType":"address"},{"name":"actionRegistry","type":"address","internalType":"address"},{"name":"gardenToken","type":"address","internalType":"address"},{"name":"workResolver","type":"address","internalType":"address"},{"name":"workApprovalResolver","type":"address","internalType":"address"}]}],"outputs":[],"stateMutability":"nonpayable"},{"type":"function","name":"transferOwnership","inputs":[{"name":"newOwner","type":"address","internalType":"address"}],"outputs":[],"stateMutability":"nonpayable"},{"type":"function","name":"updateActionRegistry","inputs":[{"name":"contractAddress","type":"address","internalType":"address"}],"outputs":[],"stateMutability":"nonpayable"},{"type":"function","name":"updateGardenToken","inputs":[{"name":"contractAddress","type":"address","internalType":"address"}],"outputs":[],"stateMutability":"nonpayable"},{"type":"function","name":"upgradeTo","inputs":[{"name":"newImplementation","type":"address","internalType":"address"}],"outputs":[],"stateMutability":"nonpayable"},{"type":"function","name":"upgradeToAndCall","inputs":[{"name":"newImplementation","type":"address","internalType":"address"},{"name":"data","type":"bytes","internalType":"bytes"}],"outputs":[],"stateMutability":"payable"},{"type":"event","name":"AdminChanged","inputs":[{"name":"previousAdmin","type":"address","indexed":false,"internalType":"address"},{"name":"newAdmin","type":"address","indexed":false,"internalType":"address"}],"anonymous":false},{"type":"event","name":"AllowlistAdded","inputs":[{"name":"account","type":"address","indexed":true,"internalType":"address"}],"anonymous":false},{"type":"event","name":"AllowlistRemoved","inputs":[{"name":"account","type":"address","indexed":true,"internalType":"address"}],"anonymous":false},{"type":"event","name":"BeaconUpgraded","inputs":[{"name":"beacon","type":"address","indexed":true,"internalType":"address"}],"anonymous":false},{"type":"event","name":"EmergencyPauseActivated","inputs":[{"name":"activator","type":"address","indexed":true,"internalType":"address"}],"anonymous":false},{"type":"event","name":"EmergencyPauseDeactivated","inputs":[{"name":"deactivator","type":"address","indexed":true,"internalType":"address"}],"anonymous":false},{"type":"event","name":"GovernanceTransferCompleted","inputs":[{"name":"previousOwner","type":"address","indexed":true,"internalType":"address"},{"name":"newOwner","type":"address","indexed":true,"internalType":"address"}],"anonymous":false},{"type":"event","name":"GovernanceTransferInitiated","inputs":[{"name":"currentOwner","type":"address","indexed":true,"internalType":"address"},{"name":"pendingOwner","type":"address","indexed":true,"internalType":"address"}],"anonymous":false},{"type":"event","name":"Initialized","inputs":[{"name":"version","type":"uint8","indexed":false,"internalType":"uint8"}],"anonymous":false},{"type":"event","name":"NetworkConfigUpdated","inputs":[{"name":"chainId","type":"uint256","indexed":true,"internalType":"uint256"},{"name":"config","type":"tuple","indexed":false,"internalType":"struct DeploymentRegistry.NetworkConfig","components":[{"name":"eas","type":"address","internalType":"address"},{"name":"easSchemaRegistry","type":"address","internalType":"address"},{"name":"communityToken","type":"address","internalType":"address"},{"name":"actionRegistry","type":"address","internalType":"address"},{"name":"gardenToken","type":"address","internalType":"address"},{"name":"workResolver","type":"address","internalType":"address"},{"name":"workApprovalResolver","type":"address","internalType":"address"}]}],"anonymous":false},{"type":"event","name":"OwnershipTransferred","inputs":[{"name":"previousOwner","type":"address","indexed":true,"internalType":"address"},{"name":"newOwner","type":"address","indexed":true,"internalType":"address"}],"anonymous":false},{"type":"event","name":"Upgraded","inputs":[{"name":"implementation","type":"address","indexed":true,"internalType":"address"}],"anonymous":false},{"type":"error","name":"CannotAddZeroAddress","inputs":[]},{"type":"error","name":"EmergencyPaused","inputs":[]},{"type":"error","name":"NetworkNotConfigured","inputs":[{"name":"chainId","type":"uint256","internalType":"uint256"}]},{"type":"error","name":"NewOwnerCannotBeCurrentOwner","inputs":[]},{"type":"error","name":"NoPendingTransfer","inputs":[]},{"type":"error","name":"NotPendingOwner","inputs":[]},{"type":"error","name":"UnauthorizedCaller","inputs":[{"name":"caller","type":"address","internalType":"address"}]}],"bytecode":{"object":"0x60a0806040523460d657306080525f549060ff8260081c166084575060ff80821603604b575b604051611add90816100db82396080518181816109fa01528181610c2601526110710152f35b60ff90811916175f557f7f26b83ff96e1f2b6a682f133852f6798a09c465da95921460cefb3847402498602060405160ff8152a15f6025565b62461bcd60e51b815260206004820152602760248201527f496e697469616c697a61626c653a20636f6e747261637420697320696e697469604482015266616c697a696e6760c81b6064820152608490fd5b5f80fdfe604060808152600480361015610013575f80fd5b5f3560e01c8062fd1e821461132357806304c7976a146112fc5780631c940d46146112d657806327c830a9146112b057806329d0fdc0146112795780632a90b8da146111f75780633659cfe61461104757806336d6aae314610ec757806340c5705a14610ea05780634a4e3bd514610e545780634f1ef28614610baa5780634f57790f14610af357806351858e2714610aa157806352d1902d146109e75780635da93d7e1461098857806365c40b9c1461095a578063715018a6146109125780638ac79791146108305780638bb0a17c146107b45780638da5cb5b1461078c5780638f8022bc146106f45780639362327e146106d657806399efcaec146106b0578063c4d66de81461050b578063c5eff3d014610470578063cdf2dfc914610449578063e30c397814610421578063eab61ba5146103f0578063ecd4853514610336578063f2fde38b146102ba578063f8966fdb14610233578063f8e86ece146101d15763f9d61eaf14610185575f80fd5b346101cd575f3660031901126101cd5761019d611632565b606854916001600160a01b038316156101c0576001600160a01b03198316606855005b5163357a03ed60e21b8152fd5b5f80fd5b50346101cd5760203660031901126101cd576101eb61134a565b6101f3611632565b6001600160a01b0316918215610226578261020d8161188b565b61021357005b5f80516020611a718339815191525f80a2005b51636038131760e11b8152fd5b5090346101cd5760203660031901126101cd576102536102b69235611551565b90519182918291909160c060e08201938160018060a01b03918281511685528260208201511660208601528260408201511660408601528260608201511660608601528260808201511660808601528260a08201511660a0860152015116910152565b0390f35b50346101cd5760203660031901126101cd576102d461134a565b916102dd611632565b6001600160a01b038316156102f7576102f5836115fd565b005b906020608492519162461bcd60e51b8352820152602660248201525f80516020611a9183398151915260448201526564647265737360d01b6064820152fd5b5090346101cd5760203660031901126101cd5761035161134a565b6033546001600160a01b039291908316331415806103e0575b6103ca5760ff60685460a01c166103ba575f805160206119d183398151915292465f526065602052825f20948501911660018060a01b031982541617905551806103b54694826114ce565b0390a2005b8151634cb3183d60e01b81528490fd5b815163d86ad9cf60e01b81523381860152602490fd5b506103ea336116ea565b1561036a565b82346101cd575f3660031901126101cd576020906001600160a01b0360c061041746611551565b0151169051908152f35b82346101cd575f3660031901126101cd5760685490516001600160a01b039091168152602090f35b82346101cd575f3660031901126101cd576020906001600160a01b03606061041746611551565b82346101cd575f3660031901126101cd5780519081606654908181526020809101809260665f52825f20905f5b8181106104f757505050846104b39103856113aa565b825181815293518185018190528493840192915f5b8281106104d757505050500390f35b83516001600160a01b0316855286955093810193928101926001016104c8565b82548452928401926001928301920161049d565b50346101cd5760203660031901126101cd5761052561134a565b5f549160ff8360081c1615928380946106a3575b801561068c575b156106325760ff1981166001175f5583610620575b5061056f60ff5f5460081c1661056a8161168a565b61168a565b610578336115fd565b610580611632565b6001600160a01b038216156105e15750610599906115fd565b6068805460ff60a01b191690556105ac57005b60207f7f26b83ff96e1f2b6a682f133852f6798a09c465da95921460cefb38474024989161ff00195f54165f555160018152a1005b608490602085519162461bcd60e51b8352820152602660248201525f80516020611a9183398151915260448201526564647265737360d01b6064820152fd5b61ffff1916610101175f908155610555565b845162461bcd60e51b8152602081840152602e60248201527f496e697469616c697a61626c653a20636f6e747261637420697320616c72656160448201526d191e481a5b9a5d1a585b1a5e995960921b6064820152608490fd5b50303b1580156105405750600160ff821614610540565b50600160ff821610610539565b82346101cd575f3660031901126101cd576020906001600160a01b038161041746611551565b82346101cd575f3660031901126101cd576020906066549051908152f35b5090346101cd5760203660031901126101cd5761070f61134a565b91610718611632565b6001600160a01b0392831692831561077d576033541691828414610770575050606880546001600160a01b031916831790557f10705730e98da50fb257fd92cd2817af22aba5a69113af740907ab35133237a15f80a3005b516310df701f60e11b8152fd5b509051636038131760e11b8152fd5b82346101cd575f3660031901126101cd5760335490516001600160a01b039091168152602090f35b50346101cd5760203660031901126101cd5760e09181355f526065602052805f2060018060a01b0380825416938160018401541693826002850154169083806003870154169386015416936006816005880154169601541695815197885260208801528601526060850152608084015260a083015260c0820152f35b5090346101cd5760203660031901126101cd578135906001600160401b038083116101cd57366023840112156101cd57828401359081116101cd576024830192602436918360051b0101116101cd57610887611632565b5f5b81811061089257005b6001600160a01b03806108ae6108a984868961152d565b6114ba565b16156109025790816108d06001936108ca6108a985888b61152d565b1661188b565b6108dc575b5001610889565b6108ea6108a983868961152d565b165f80516020611a718339815191525f80a25f6108d5565b8351636038131760e11b81528690fd5b346101cd575f3660031901126101cd5761092a611632565b603380546001600160a01b031981169091555f906001600160a01b03165f80516020611a318339815191528280a3005b82346101cd575f3660031901126101cd576020906001600160a01b0361097f46611551565b51169051908152f35b346101cd5760203660031901126101cd576109a161134a565b6109a9611632565b6001600160a01b03166109bb816117a2565b6109c157005b7f458680f79aa9de0ae06344287a3bd8ec6179faa05252e9af81ae734d6b4dc6ba5f80a2005b50346101cd575f3660031901126101cd577f00000000000000000000000000000000000000000000000000000000000000006001600160a01b03163003610a3e57602082515f80516020611a118339815191528152f35b6020608492519162461bcd60e51b8352820152603860248201527f555550535570677261646561626c653a206d757374206e6f742062652063616c6044820152771b1959081d1a1c9bdd59da0819195b1959d85d1958d85b1b60421b6064820152fd5b346101cd575f3660031901126101cd57610ab9611632565b6068805460ff60a01b1916600160a01b179055337fd22f4bfe91f61d907b056bd69bbd188a22d589ccc82a2acefd1b909e648f579d5f80a2005b5090346101cd5760203660031901126101cd57610b0e61134a565b6033546001600160a01b039390841633141580610b9a575b610b835760ff60685460a01c16610b755750905f805160206119d183398151915291465f526065602052815f209360038501911660018060a01b031982541617905551806103b54694826114ce565b8251634cb3183d60e01b8152fd5b60249083519063d86ad9cf60e01b82523390820152fd5b50610ba4336116ea565b15610b26565b50816003193601126101cd57610bbe61134a565b602435929091906001600160401b0384116101cd57366023850112156101cd578382013590610bec826113cd565b610bf8825191826113aa565b8281526020928382019636602483830101116101cd57815f9260248793018a37830101526001600160a01b037f0000000000000000000000000000000000000000000000000000000000000000811690610c543083141561141e565b610c705f80516020611a1183398151915292828454161461146c565b610c78611632565b5f805160206119b18339815191525460ff1615610c9f575050505050506102f591506116fb565b869293949596169084516352d1902d60e01b815286818981865afa5f9181610e25575b50610d0e57855162461bcd60e51b8152808901889052602e60248201525f80516020611ab183398151915260448201526d6f6e206973206e6f74205555505360901b6064820152608490fd5b969192939603610dd05750610d22826116fb565b5f80516020611a518339815191525f80a2835115801590610dc8575b610d4457005b5f806102f596845196610d568861138f565b602788527f416464726573733a206c6f772d6c6576656c2064656c65676174652063616c6c87890152660819985a5b195960ca1b868901525190845af4913d15610dbe573d610db0610da7826113cd565b925192836113aa565b81525f81943d92013e6118de565b50606092506118de565b506001610d3e565b835162461bcd60e51b8152908101859052602960248201527f45524331393637557067726164653a20756e737570706f727465642070726f786044820152681a58589b195555525160ba1b6064820152608490fd5b9091508781813d8311610e4d575b610e3d81836113aa565b810103126101cd5751905f610cc2565b503d610e33565b346101cd575f3660031901126101cd57610e6c611632565b6068805460ff60a01b19169055337f81bb918ff47a4b0cd0361d8c308ff5920e27fd3eec1efb50404df4b70ddfd19f5f80a2005b82346101cd575f3660031901126101cd576020906001600160a01b03608061041746611551565b50346101cd576101003660031901126101cd5780359160e03660231901126101cd576033546001600160a01b0390811633141580611037575b6110215760ff60685460a01c1661101357835f526065602052815f2090602435918183168093036101cd5780546001600160a01b031990811684178255604435838116969195919060018401908890036101cd57878782541617905560028301606435908582168092036101cd5781888254161790556003840191608435928684168094036101cd57838982541617905584019260a435938685168095036101cd5784898254161790556005850160c435958787168097036101cd5781878b6006945416179055019860e4359687168097036101cd57898760e09a5f805160206119d18339815191529c5416179055815197885260208801528601526060850152608084015260a083015260c0820152a2005b5051634cb3183d60e01b8152fd5b815163d86ad9cf60e01b81523381850152602490fd5b50611041336116ea565b15610f00565b50346101cd57602090816003193601126101cd5761106361134a565b6001600160a01b03939092907f0000000000000000000000000000000000000000000000000000000000000000851661109e3082141561141e565b6110ba5f80516020611a1183398151915291878354161461146c565b6110c2611632565b8151838101969091906001600160401b038811838910176111e4578784525f83525f805160206119b18339815191525460ff161561110a575050505050506102f591506116fb565b869293949596169084516352d1902d60e01b815286818981865afa5f91816111b5575b5061117957855162461bcd60e51b8152808901889052602e60248201525f80516020611ab183398151915260448201526d6f6e206973206e6f74205555505360901b6064820152608490fd5b969192939603610dd0575061118d826116fb565b5f80516020611a518339815191525f80a28351158015906111ae57610d4457005b505f610d3e565b9091508781813d83116111dd575b6111cd81836113aa565b810103126101cd5751905f61112d565b503d6111c3565b604186634e487b7160e01b5f525260245ffd5b50346101cd575f3660031901126101cd576068546001600160a01b03808216939192909184156101c05784330361126c5750506033546001600160a01b031990921660685516611246826115fd565b7f2a2dfd9f58f04d24cec30b76b66fc7718ccb29c449eb44949b2d13e960f424b95f80a3005b51630614e5c760e21b8152fd5b82346101cd5760203660031901126101cd576020906112a76001600160a01b036112a161134a565b166116ea565b90519015158152f35b82346101cd575f3660031901126101cd5760209060ff60685460a01c1690519015158152f35b82346101cd575f3660031901126101cd576020906001600160a01b038261041746611551565b82346101cd575f3660031901126101cd576020906001600160a01b0360a061041746611551565b82346101cd575f3660031901126101cd576102b6906113406113e8565b5061025346611551565b600435906001600160a01b03821682036101cd57565b60e081019081106001600160401b0382111761137b57604052565b634e487b7160e01b5f52604160045260245ffd5b606081019081106001600160401b0382111761137b57604052565b601f909101601f19168101906001600160401b0382119082101761137b57604052565b6001600160401b03811161137b57601f01601f191660200190565b604051906113f582611360565b5f60c0838281528260208201528260408201528260608201528260808201528260a08201520152565b1561142557565b60405162461bcd60e51b815260206004820152602c60248201525f805160206119f183398151915260448201526b19195b1959d85d1958d85b1b60a21b6064820152608490fd5b1561147357565b60405162461bcd60e51b815260206004820152602c60248201525f805160206119f183398151915260448201526b6163746976652070726f787960a01b6064820152608490fd5b356001600160a01b03811681036101cd5790565b81546001600160a01b0390811682526001830154811660208301526002830154811660408301526003830154811660608301526004830154811660808301526005830154811660a083015260069092015490911660c082015260e00190565b919081101561153d5760051b0190565b634e487b7160e01b5f52603260045260245ffd5b6115596113e8565b50805f52606560205260405f20906040519161157483611360565b60018060a01b038082541690818552806001840154166020860152600681600285015416938460408801528260038201541660608801528260048201541660808801528260058201541660a088015201541660c08501521590816115f4575b506115dc575090565b602490604051906332f514c160e11b82526004820152fd5b9050155f6115d3565b603380546001600160a01b039283166001600160a01b0319821681179092559091165f80516020611a318339815191525f80a3565b6033546001600160a01b0316330361164657565b606460405162461bcd60e51b815260206004820152602060248201527f4f776e61626c653a2063616c6c6572206973206e6f7420746865206f776e65726044820152fd5b1561169157565b60405162461bcd60e51b815260206004820152602b60248201527f496e697469616c697a61626c653a20636f6e7472616374206973206e6f74206960448201526a6e697469616c697a696e6760a81b6064820152608490fd5b5f52606760205260405f2054151590565b803b1561172f575f80516020611a1183398151915280546001600160a01b0319166001600160a01b03909216919091179055565b60405162461bcd60e51b815260206004820152602d60248201527f455243313936373a206e657720696d706c656d656e746174696f6e206973206e60448201526c1bdd08184818dbdb9d1c9858dd609a1b6064820152608490fd5b60665481101561153d5760665f5260205f2001905f90565b5f818152606760205260409020548015611885575f1990808201818111611871576066549083820191821161187157808203611827575b5050506066548015611813578101906117f18261178a565b909182549160031b1b191690556066555f5260676020525f6040812055600190565b634e487b7160e01b5f52603160045260245ffd5b61185b6118366118459361178a565b90549060031b1c92839261178a565b819391549060031b91821b915f19901b19161790565b90555f52606760205260405f20555f80806117d9565b634e487b7160e01b5f52601160045260245ffd5b50505f90565b805f52606760205260405f2054155f146118d957606654600160401b81101561137b576118c261184582600185940160665561178a565b9055606654905f52606760205260405f2055600190565b505f90565b9192901561194057508151156118f2575090565b3b156118fb5790565b60405162461bcd60e51b815260206004820152601d60248201527f416464726573733a2063616c6c20746f206e6f6e2d636f6e74726163740000006044820152606490fd5b8251909150156119535750805190602001fd5b6040519062461bcd60e51b82528160208060048301528251908160248401525f935b828510611997575050604492505f838284010152601f80199101168101030190fd5b848101820151868601604401529381019385935061197556fe4910fdfa16fed3260ed0e7147f7cc6da11a60208b5b9406d12a635614ffd914397c8a3ddd7e65fbd084afff446bb7940a80ccb0505f306ffc65076b456da29f346756e6374696f6e206d7573742062652063616c6c6564207468726f75676820360894a13ba1a3210667c828492db98dca3e2076cc3735a920a3ca505d382bbc8be0079c531659141344cd1fd0a4f28419497f9722a3daafe3b4186f6b6457e0bc7cd75a20ee27fd9adebab32041f755214dbc6bffa90cc0225b39da2e5c2d3b28f54e0b69489ad5fd27625e6fcff58faff5da96f8a077d08bb09af25bb41d544f776e61626c653a206e6577206f776e657220697320746865207a65726f206145524331393637557067726164653a206e657720696d706c656d656e74617469a164736f6c6343000819000a","linkReferences":{}},"methodIdentifiers":{"acceptGovernanceTransfer()":"2a90b8da","addToAllowlist(address)":"f8e86ece","allowlistLength()":"9362327e","batchAddToAllowlist(address[])":"8ac79791","cancelGovernanceTransfer()":"f9d61eaf","emergencyPause()":"51858e27","emergencyPaused()":"27c830a9","emergencyUnpause()":"4a4e3bd5","getActionRegistry()":"cdf2dfc9","getAllowlist()":"c5eff3d0","getCommunityToken()":"99efcaec","getEAS()":"65c40b9c","getEASSchemaRegistry()":"1c940d46","getGardenToken()":"40c5705a","getNetworkConfig()":"00fd1e82","getNetworkConfigForChain(uint256)":"f8966fdb","getWorkApprovalResolver()":"eab61ba5","getWorkResolver()":"04c7976a","initialize(address)":"c4d66de8","initiateGovernanceTransfer(address)":"8f8022bc","isInAllowlist(address)":"29d0fdc0","networks(uint256)":"8bb0a17c","owner()":"8da5cb5b","pendingOwner()":"e30c3978","proxiableUUID()":"52d1902d","removeFromAllowlist(address)":"5da93d7e","renounceOwnership()":"715018a6","setNetworkConfig(uint256,(address,address,address,address,address,address,address))":"36d6aae3","transferOwnership(address)":"f2fde38b","updateActionRegistry(address)":"4f57790f","updateGardenToken(address)":"ecd48535","upgradeTo(address)":"3659cfe6","upgradeToAndCall(address,bytes)":"4f1ef286"},"id":127}