{"abi":[{"type":"constructor","inputs":[],"stateMutability":"nonpayable"},{"type":"function","name":"acceptGovernanceTransfer","inputs":[],"outputs":[],"stateMutability":"nonpayable"},{"type":"function","name":"addToAllowlist","inputs":[{"name":"account","type":"address","internalType":"address"}],"outputs":[],"stateMutability":"nonpayable"},{"type":"function","name":"allowlistLength","inputs":[],"outputs":[{"name":"","type":"uint256","internalType":"uint256"}],"stateMutability":"view"},{"type":"function","name":"batchAddToAllowlist","inputs":[{"name":"accounts","type":"address[]","internalType":"address[]"}],"outputs":[],"stateMutability":"nonpayable"},{"type":"function","name":"cancelGovernanceTransfer","inputs":[],"outputs":[],"stateMutability":"nonpayable"},{"type":"function","name":"emergencyPause","inputs":[],"outputs":[],"stateMutability":"nonpayable"},{"type":"function","name":"emergencyPaused","inputs":[],"outputs":[{"name":"","type":"bool","internalType":"bool"}],"stateMutability":"view"},{"type":"function","name":"emergencyUnpause","inputs":[],"outputs":[],"stateMutability":"nonpayable"},{"type":"function","name":"getActionRegistry","inputs":[],"outputs":[{"name":"","type":"address","internalType":"address"}],"stateMutability":"view"},{"type":"function","name":"getAllowlist","inputs":[],"outputs":[{"name":"","type":"address[]","internalType":"address[]"}],"stateMutability":"view"},{"type":"function","name":"getCommunityToken","inputs":[],"outputs":[{"name":"","type":"address","internalType":"address"}],"stateMutability":"view"},{"type":"function","name":"getEAS","inputs":[],"outputs":[{"name":"","type":"address","internalType":"address"}],"stateMutability":"view"},{"type":"function","name":"getEASSchemaRegistry","inputs":[],"outputs":[{"name":"","type":"address","internalType":"address"}],"stateMutability":"view"},{"type":"function","name":"getGardenToken","inputs":[],"outputs":[{"name":"","type":"address","internalType":"address"}],"stateMutability":"view"},{"type":"function","name":"getNetworkConfig","inputs":[],"outputs":[{"name":"","type":"tuple","internalType":"struct DeploymentRegistry.NetworkConfig","components":[{"name":"eas","type":"address","internalType":"address"},{"name":"easSchemaRegistry","type":"address","internalType":"address"},{"name":"communityToken","type":"address","internalType":"address"},{"name":"actionRegistry","type":"address","internalType":"address"},{"name":"gardenToken","type":"address","internalType":"address"},{"name":"workResolver","type":"address","internalType":"address"},{"name":"workApprovalResolver","type":"address","internalType":"address"}]}],"stateMutability":"view"},{"type":"function","name":"getNetworkConfigForChain","inputs":[{"name":"chainId","type":"uint256","internalType":"uint256"}],"outputs":[{"name":"","type":"tuple","internalType":"struct DeploymentRegistry.NetworkConfig","components":[{"name":"eas","type":"address","internalType":"address"},{"name":"easSchemaRegistry","type":"address","internalType":"address"},{"name":"communityToken","type":"address","internalType":"address"},{"name":"actionRegistry","type":"address","internalType":"address"},{"name":"gardenToken","type":"address","internalType":"address"},{"name":"workResolver","type":"address","internalType":"address"},{"name":"workApprovalResolver","type":"address","internalType":"address"}]}],"stateMutability":"view"},{"type":"function","name":"getWorkApprovalResolver","inputs":[],"outputs":[{"name":"","type":"address","internalType":"address"}],"stateMutability":"view"},{"type":"function","name":"getWorkResolver","inputs":[],"outputs":[{"name":"","type":"address","internalType":"address"}],"stateMutability":"view"},{"type":"function","name":"initialize","inputs":[{"name":"_owner","type":"address","internalType":"address"}],"outputs":[],"stateMutability":"nonpayable"},{"type":"function","name":"initiateGovernanceTransfer","inputs":[{"name":"newOwner","type":"address","internalType":"address"}],"outputs":[],"stateMutability":"nonpayable"},{"type":"function","name":"isInAllowlist","inputs":[{"name":"account","type":"address","internalType":"address"}],"outputs":[{"name":"","type":"bool","internalType":"bool"}],"stateMutability":"view"},{"type":"function","name":"networks","inputs":[{"name":"chainId","type":"uint256","internalType":"uint256"}],"outputs":[{"name":"eas","type":"address","internalType":"address"},{"name":"easSchemaRegistry","type":"address","internalType":"address"},{"name":"communityToken","type":"address","internalType":"address"},{"name":"actionRegistry","type":"address","internalType":"address"},{"name":"gardenToken","type":"address","internalType":"address"},{"name":"workResolver","type":"address","internalType":"address"},{"name":"workApprovalResolver","type":"address","internalType":"address"}],"stateMutability":"view"},{"type":"function","name":"owner","inputs":[],"outputs":[{"name":"","type":"address","internalType":"address"}],"stateMutability":"view"},{"type":"function","name":"pendingOwner","inputs":[],"outputs":[{"name":"","type":"address","internalType":"address"}],"stateMutability":"view"},{"type":"function","name":"proxiableUUID","inputs":[],"outputs":[{"name":"","type":"bytes32","internalType":"bytes32"}],"stateMutability":"view"},{"type":"function","name":"removeFromAllowlist","inputs":[{"name":"account","type":"address","internalType":"address"}],"outputs":[],"stateMutability":"nonpayable"},{"type":"function","name":"renounceOwnership","inputs":[],"outputs":[],"stateMutability":"nonpayable"},{"type":"function","name":"setNetworkConfig","inputs":[{"name":"chainId","type":"uint256","internalType":"uint256"},{"name":"config","type":"tuple","internalType":"struct DeploymentRegistry.NetworkConfig","components":[{"name":"eas","type":"address","internalType":"address"},{"name":"easSchemaRegistry","type":"address","internalType":"address"},{"name":"communityToken","type":"address","internalType":"address"},{"name":"actionRegistry","type":"address","internalType":"address"},{"name":"gardenToken","type":"address","internalType":"address"},{"name":"workResolver","type":"address","internalType":"address"},{"name":"workApprovalResolver","type":"address","internalType":"address"}]}],"outputs":[],"stateMutability":"nonpayable"},{"type":"function","name":"transferOwnership","inputs":[{"name":"newOwner","type":"address","internalType":"address"}],"outputs":[],"stateMutability":"nonpayable"},{"type":"function","name":"updateActionRegistry","inputs":[{"name":"contractAddress","type":"address","internalType":"address"}],"outputs":[],"stateMutability":"nonpayable"},{"type":"function","name":"updateGardenToken","inputs":[{"name":"contractAddress","type":"address","internalType":"address"}],"outputs":[],"stateMutability":"nonpayable"},{"type":"function","name":"upgradeTo","inputs":[{"name":"newImplementation","type":"address","internalType":"address"}],"outputs":[],"stateMutability":"nonpayable"},{"type":"function","name":"upgradeToAndCall","inputs":[{"name":"newImplementation","type":"address","internalType":"address"},{"name":"data","type":"bytes","internalType":"bytes"}],"outputs":[],"stateMutability":"payable"},{"type":"event","name":"AdminChanged","inputs":[{"name":"previousAdmin","type":"address","indexed":false,"internalType":"address"},{"name":"newAdmin","type":"address","indexed":false,"internalType":"address"}],"anonymous":false},{"type":"event","name":"AllowlistAdded","inputs":[{"name":"account","type":"address","indexed":true,"internalType":"address"}],"anonymous":false},{"type":"event","name":"AllowlistRemoved","inputs":[{"name":"account","type":"address","indexed":true,"internalType":"address"}],"anonymous":false},{"type":"event","name":"BeaconUpgraded","inputs":[{"name":"beacon","type":"address","indexed":true,"internalType":"address"}],"anonymous":false},{"type":"event","name":"EmergencyPauseActivated","inputs":[{"name":"activator","type":"address","indexed":true,"internalType":"address"}],"anonymous":false},{"type":"event","name":"EmergencyPauseDeactivated","inputs":[{"name":"deactivator","type":"address","indexed":true,"internalType":"address"}],"anonymous":false},{"type":"event","name":"GovernanceTransferCompleted","inputs":[{"name":"previousOwner","type":"address","indexed":true,"internalType":"address"},{"name":"newOwner","type":"address","indexed":true,"internalType":"address"}],"anonymous":false},{"type":"event","name":"GovernanceTransferInitiated","inputs":[{"name":"currentOwner","type":"address","indexed":true,"internalType":"address"},{"name":"pendingOwner","type":"address","indexed":true,"internalType":"address"}],"anonymous":false},{"type":"event","name":"Initialized","inputs":[{"name":"version","type":"uint8","indexed":false,"internalType":"uint8"}],"anonymous":false},{"type":"event","name":"NetworkConfigUpdated","inputs":[{"name":"chainId","type":"uint256","indexed":true,"internalType":"uint256"},{"name":"config","type":"tuple","indexed":false,"internalType":"struct DeploymentRegistry.NetworkConfig","components":[{"name":"eas","type":"address","internalType":"address"},{"name":"easSchemaRegistry","type":"address","internalType":"address"},{"name":"communityToken","type":"address","internalType":"address"},{"name":"actionRegistry","type":"address","internalType":"address"},{"name":"gardenToken","type":"address","internalType":"address"},{"name":"workResolver","type":"address","internalType":"address"},{"name":"workApprovalResolver","type":"address","internalType":"address"}]}],"anonymous":false},{"type":"event","name":"OwnershipTransferred","inputs":[{"name":"previousOwner","type":"address","indexed":true,"internalType":"address"},{"name":"newOwner","type":"address","indexed":true,"internalType":"address"}],"anonymous":false},{"type":"event","name":"Upgraded","inputs":[{"name":"implementation","type":"address","indexed":true,"internalType":"address"}],"anonymous":false},{"type":"error","name":"CannotAddZeroAddress","inputs":[]},{"type":"error","name":"EmergencyPaused","inputs":[]},{"type":"error","name":"NetworkNotConfigured","inputs":[{"name":"chainId","type":"uint256","internalType":"uint256"}]},{"type":"error","name":"NewOwnerCannotBeCurrentOwner","inputs":[]},{"type":"error","name":"NoPendingTransfer","inputs":[]},{"type":"error","name":"NotPendingOwner","inputs":[]},{"type":"error","name":"UnauthorizedCaller","inputs":[{"name":"caller","type":"address","internalType":"address"}]}],"bytecode":{"object":"0x60a0806040523460d657306080525f549060ff8260081c166084575060ff80821603604b575b604051611cf890816100db8239608051818181610b2101528181610de701526112cf0152f35b60ff90811916175f557f7f26b83ff96e1f2b6a682f133852f6798a09c465da95921460cefb3847402498602060405160ff8152a15f6025565b62461bcd60e51b815260206004820152602760248201527f496e697469616c697a61626c653a20636f6e747261637420697320696e697469604482015266616c697a696e6760c81b6064820152608490fd5b5f80fdfe60406080815260049081361015610014575f80fd5b5f3560e01c8062fd1e821461160a57806304c7976a146115e35780631c940d46146115bd57806327c830a91461159757806329d0fdc0146115545780632a90b8da146114ad5780633659cfe6146112a557806336d6aae31461110a57806340c5705a146110e35780634a4e3bd5146110975780634f1ef28614610d6a5780634f57790f14610c3b57806351858e2714610bd857806352d1902d14610b055780635da93d7e14610aa657806365c40b9c14610a78578063715018a614610a1f5780638ac797911461092b5780638bb0a17c146108ad5780638da5cb5b146108865780638f8022bc146107d65780639362327e146107b857806399efcaec14610792578063c4d66de8146105ca578063c5eff3d014610511578063cdf2dfc9146104ea578063e30c3978146104c3578063eab61ba514610492578063ecd4853514610361578063f2fde38b146102d1578063f8966fdb1461024a578063f8e86ece146101d45763f9d61eaf14610186575f80fd5b346101d0575f3660031901126101d05761019e61192e565b606854906001600160a01b038216156101c1576001600160a01b03198216606855005b90505163357a03ed60e21b8152fd5b5f80fd5b5090346101d05760203660031901126101d0576001600160a01b036101f7611631565b6101ff61192e565b1691821561023d578261021181611bc2565b61021757005b7f28f54e0b69489ad5fd27625e6fcff58faff5da96f8a077d08bb09af25bb41d545f80a2005b51636038131760e11b8152fd5b50346101d05760203660031901126101d0576102696102cd9235611821565b90519182918291909160c060e0820193816001600160a01b03918281511685528260208201511660208601528260408201511660408601528260608201511660608601528260808201511660808601528260a08201511660a0860152015116910152565b0390f35b5090346101d05760203660031901126101d0576102ec611631565b916102f561192e565b6001600160a01b0383161561030f5761030d836118e7565b005b906020608492519162461bcd60e51b8352820152602660248201527f4f776e61626c653a206e6577206f776e657220697320746865207a65726f206160448201526564647265737360d01b6064820152fd5b50346101d05760203660031901126101d05761037b611631565b906001600160a01b0391826033541633141580610476575b6104605760ff60685460a01c16610451577f97c8a3ddd7e65fbd084afff446bb7940a80ccb0505f306ffc65076b456da29f392465f526065602052825f2094850191166001600160a01b0319825416179055518061044c46948291909160c060e082019360066001600160a01b03918281541685528260018201541660208601528260028201541660408601528260038201541660608601528260048201541660808601528260058201541660a0860152015416910152565b0390a2005b838251634cb3183d60e01b8152fd5b815163d86ad9cf60e01b81523381860152602490fd5b5061048c335f52606760205260405f2054151590565b15610393565b50346101d0575f3660031901126101d0576020906001600160a01b0360c06104b946611821565b0151169051908152f35b50346101d0575f3660031901126101d0576020906001600160a01b03606854169051908152f35b50346101d0575f3660031901126101d0576020906001600160a01b0360606104b946611821565b50346101d0575f3660031901126101d05780519081606654908181526020809101809260665f527f46501879b8ca8525e8c2fd519e2fbfcfa2ebea26501294aa02cbfcfb12e94354905f5b8181106105b65750505084610572910385611693565b825181815293518185018190528493840192915f5b82811061059657505050500390f35b83516001600160a01b031685528695509381019392810192600101610587565b82548452928401926001928301920161055c565b5090346101d05760203660031901126101d0576105e5611631565b5f549160ff8360081c161592838094610785575b801561076e575b156107055760ff1981166001175f55836106f3575b5061062f60ff5f5460081c1661062a81611986565b611986565b610638336118e7565b61064061192e565b6001600160a01b038216156106a15750610659906118e7565b60ff60a01b196068541660685561066c57005b60207f7f26b83ff96e1f2b6a682f133852f6798a09c465da95921460cefb38474024989161ff00195f54165f555160018152a1005b608490602085519162461bcd60e51b8352820152602660248201527f4f776e61626c653a206e6577206f776e657220697320746865207a65726f206160448201526564647265737360d01b6064820152fd5b61ffff1916610101175f908155610615565b608482602087519162461bcd60e51b8352820152602e60248201527f496e697469616c697a61626c653a20636f6e747261637420697320616c72656160448201527f647920696e697469616c697a65640000000000000000000000000000000000006064820152fd5b50303b1580156106005750600160ff821614610600565b50600160ff8216106105f9565b50346101d0575f3660031901126101d057806001600160a01b036020926104b946611821565b50346101d0575f3660031901126101d0576020906066549051908152f35b50346101d05760203660031901126101d0576107f0611631565b916107f961192e565b6001600160a01b03809316928315610877576033541691828414610851575050816001600160a01b031960685416176068557f10705730e98da50fb257fd92cd2817af22aba5a69113af740907ab35133237a15f80a3005b517f21bee03e000000000000000000000000000000000000000000000000000000008152fd5b509051636038131760e11b8152fd5b50346101d0575f3660031901126101d0576020906001600160a01b03603354169051908152f35b5090346101d05760203660031901126101d05760e09181355f526065602052805f206001600160a01b0380825416938160018401541693826002850154169083806003870154169386015416936006816005880154169601541695815197885260208801528601526060850152608084015260a083015260c0820152f35b50346101d05760203660031901126101d05781359067ffffffffffffffff8083116101d057366023840112156101d057828401359081116101d0576024830192602436918360051b0101116101d05761098261192e565b5f5b81811061098d57005b6001600160a01b03806109a96109a48486896117fd565b6117e9565b1615610a105790816109cb6001936109c56109a485888b6117fd565b16611bc2565b6109d7575b5001610984565b6109e56109a48386896117fd565b167f28f54e0b69489ad5fd27625e6fcff58faff5da96f8a077d08bb09af25bb41d545f80a25f6109d0565b858451636038131760e11b8152fd5b346101d0575f3660031901126101d057610a3761192e565b5f6001600160a01b036033546001600160a01b03198116603355167f8be0079c531659141344cd1fd0a4f28419497f9722a3daafe3b4186f6b6457e08280a3005b50346101d0575f3660031901126101d0576020906001600160a01b03610a9d46611821565b51169051908152f35b346101d05760203660031901126101d0576001600160a01b03610ac7611631565b610acf61192e565b16610ad981611ad9565b610adf57005b7f458680f79aa9de0ae06344287a3bd8ec6179faa05252e9af81ae734d6b4dc6ba5f80a2005b5090346101d0575f3660031901126101d0576001600160a01b037f0000000000000000000000000000000000000000000000000000000000000000163003610b7057602082517f360894a13ba1a3210667c828492db98dca3e2076cc3735a920a3ca505d382bbc8152f35b6020608492519162461bcd60e51b8352820152603860248201527f555550535570677261646561626c653a206d757374206e6f742062652063616c60448201527f6c6564207468726f7567682064656c656761746563616c6c00000000000000006064820152fd5b346101d0575f3660031901126101d057610bf061192e565b7401000000000000000000000000000000000000000060ff60a01b196068541617606855337fd22f4bfe91f61d907b056bd69bbd188a22d589ccc82a2acefd1b909e648f579d5f80a2005b50346101d05760203660031901126101d057610c55611631565b6001600160a01b0392836033541633141580610d4e575b610d375760ff60685460a01c16610d295750907f97c8a3ddd7e65fbd084afff446bb7940a80ccb0505f306ffc65076b456da29f391465f526065602052815f20936003850191166001600160a01b0319825416179055518061044c46948291909160c060e082019360066001600160a01b03918281541685528260018201541660208601528260028201541660408601528260038201541660608601528260048201541660808601528260058201541660a0860152015416910152565b8251634cb3183d60e01b8152fd5b60249083519063d86ad9cf60e01b82523390820152fd5b50610d64335f52606760205260405f2054151590565b15610c6c565b5090816003193601126101d057610d7f611631565b906024359267ffffffffffffffff84116101d057366023850112156101d0578382013590610dac826116b5565b610db882519182611693565b8281526020928382019636602483830101116101d057815f9260248793018a37830101526001600160a01b03807f00000000000000000000000000000000000000000000000000000000000000001690610e1482301415611707565b610e437f360894a13ba1a3210667c828492db98dca3e2076cc3735a920a3ca505d382bbc928284541614611778565b610e4b61192e565b7f4910fdfa16fed3260ed0e7147f7cc6da11a60208b5b9406d12a635614ffd91435460ff1615610e855750505050505061030d91506119f7565b869293949596169084516352d1902d60e01b815286818981865afa5f9181611068575b50610f15576084888888519162461bcd60e51b8352820152602e60248201527f45524331393637557067726164653a206e657720696d706c656d656e7461746960448201527f6f6e206973206e6f7420555550530000000000000000000000000000000000006064820152fd5b9691929396036110005750610f29826119f7565b7fbc7cd75a20ee27fd9adebab32041f755214dbc6bffa90cc0225b39da2e5c2d3b5f80a2835115801590610ff8575b610f5e57005b5f8061030d96845196610f7088611677565b602788527f416464726573733a206c6f772d6c6576656c2064656c65676174652063616c6c878901527f206661696c656400000000000000000000000000000000000000000000000000868901525190845af4913d15610fee573d610fe0610fd7826116b5565b92519283611693565b81525f81943d92013e611c1a565b5060609250611c1a565b506001610f58565b6084908585519162461bcd60e51b8352820152602960248201527f45524331393637557067726164653a20756e737570706f727465642070726f7860448201527f6961626c655555494400000000000000000000000000000000000000000000006064820152fd5b9091508781813d8311611090575b6110808183611693565b810103126101d05751905f610ea8565b503d611076565b346101d0575f3660031901126101d0576110af61192e565b60ff60a01b1960685416606855337f81bb918ff47a4b0cd0361d8c308ff5920e27fd3eec1efb50404df4b70ddfd19f5f80a2005b50346101d0575f3660031901126101d0576020906001600160a01b0360806104b946611821565b5090346101d0576101003660031901126101d05780359160e03660231901126101d0576001600160a01b03806033541633141580611289575b6112735760ff60685460a01c1661126557835f526065602052815f2090602435918183168093036101d0576001600160a01b03199383858354161782556001820195604435968488168098036101d057878782541617905560028301606435908582168092036101d05781888254161790556003840191608435928684168094036101d057838982541617905584019260a435938685168095036101d05784898254161790556005850160c435958787168097036101d05781878b6006945416179055019860e4359687168097036101d057898760e09a7f97c8a3ddd7e65fbd084afff446bb7940a80ccb0505f306ffc65076b456da29f39c5416179055815197885260208801528601526060850152608084015260a083015260c0820152a2005b5051634cb3183d60e01b8152fd5b815163d86ad9cf60e01b81523381850152602490fd5b5061129f335f52606760205260405f2054151590565b15611143565b5090346101d057602090816003193601126101d0576112c2611631565b916001600160a01b0393847f0000000000000000000000000000000000000000000000000000000000000000166112fb81301415611707565b61132a7f360894a13ba1a3210667c828492db98dca3e2076cc3735a920a3ca505d382bbc918783541614611778565b61133261192e565b8151908382019682881067ffffffffffffffff89111761149a578784525f83527f4910fdfa16fed3260ed0e7147f7cc6da11a60208b5b9406d12a635614ffd91435460ff161561138c5750505050505061030d91506119f7565b869293949596169084516352d1902d60e01b815286818981865afa5f918161146b575b5061141c576084888888519162461bcd60e51b8352820152602e60248201527f45524331393637557067726164653a206e657720696d706c656d656e7461746960448201527f6f6e206973206e6f7420555550530000000000000000000000000000000000006064820152fd5b9691929396036110005750611430826119f7565b7fbc7cd75a20ee27fd9adebab32041f755214dbc6bffa90cc0225b39da2e5c2d3b5f80a283511580159061146457610f5e57005b505f610f58565b9091508781813d8311611493575b6114838183611693565b810103126101d05751905f6113af565b503d611479565b604186634e487b7160e01b5f525260245ffd5b5090346101d0575f3660031901126101d057606854906001600160a01b0390818316938415611547578433036115215750506001600160a01b0319906033541691166068556114fb826118e7565b7f2a2dfd9f58f04d24cec30b76b66fc7718ccb29c449eb44949b2d13e960f424b95f80a3005b517f1853971c000000000000000000000000000000000000000000000000000000008152fd5b5163357a03ed60e21b8152fd5b50346101d05760203660031901126101d05760209061158e6001600160a01b0361157c611631565b165f52606760205260405f2054151590565b90519015158152f35b50346101d0575f3660031901126101d05760209060ff60685460a01c1690519015158152f35b50346101d0575f3660031901126101d0576020906001600160a01b03826104b946611821565b50346101d0575f3660031901126101d0576020906001600160a01b0360a06104b946611821565b50346101d0575f3660031901126101d0576102cd906116276116d1565b5061026946611821565b600435906001600160a01b03821682036101d057565b60e0810190811067ffffffffffffffff82111761166357604052565b634e487b7160e01b5f52604160045260245ffd5b6060810190811067ffffffffffffffff82111761166357604052565b90601f8019910116810190811067ffffffffffffffff82111761166357604052565b67ffffffffffffffff811161166357601f01601f191660200190565b604051906116de82611647565b5f60c0838281528260208201528260408201528260608201528260808201528260a08201520152565b1561170e57565b608460405162461bcd60e51b815260206004820152602c60248201527f46756e6374696f6e206d7573742062652063616c6c6564207468726f7567682060448201527f64656c656761746563616c6c00000000000000000000000000000000000000006064820152fd5b1561177f57565b608460405162461bcd60e51b815260206004820152602c60248201527f46756e6374696f6e206d7573742062652063616c6c6564207468726f7567682060448201527f6163746976652070726f787900000000000000000000000000000000000000006064820152fd5b356001600160a01b03811681036101d05790565b919081101561180d5760051b0190565b634e487b7160e01b5f52603260045260245ffd5b6118296116d1565b50805f52606560205260405f20906040519161184483611647565b6001600160a01b038082541690818552806001840154166020860152600681600285015416938460408801528260038201541660608801528260048201541660808801528260058201541660a088015201541660c08501521590816118de575b506118ad575090565b602490604051907f65ea29820000000000000000000000000000000000000000000000000000000082526004820152fd5b9050155f6118a4565b603354906001600160a01b0380911691826001600160a01b0319821617603355167f8be0079c531659141344cd1fd0a4f28419497f9722a3daafe3b4186f6b6457e05f80a3565b6001600160a01b0360335416330361194257565b606460405162461bcd60e51b815260206004820152602060248201527f4f776e61626c653a2063616c6c6572206973206e6f7420746865206f776e65726044820152fd5b1561198d57565b608460405162461bcd60e51b815260206004820152602b60248201527f496e697469616c697a61626c653a20636f6e7472616374206973206e6f74206960448201527f6e697469616c697a696e670000000000000000000000000000000000000000006064820152fd5b803b15611a3a576001600160a01b037f360894a13ba1a3210667c828492db98dca3e2076cc3735a920a3ca505d382bbc91166001600160a01b0319825416179055565b608460405162461bcd60e51b815260206004820152602d60248201527f455243313936373a206e657720696d706c656d656e746174696f6e206973206e60448201527f6f74206120636f6e7472616374000000000000000000000000000000000000006064820152fd5b60665481101561180d5760665f527f46501879b8ca8525e8c2fd519e2fbfcfa2ebea26501294aa02cbfcfb12e9435401905f90565b5f818152606760205260409020548015611bbc575f1990808201818111611ba85760665490838201918211611ba857808203611b5e575b5050506066548015611b4a57810190611b2882611aa4565b909182549160031b1b191690556066555f5260676020525f6040812055600190565b634e487b7160e01b5f52603160045260245ffd5b611b92611b6d611b7c93611aa4565b90549060031b1c928392611aa4565b819391549060031b91821b915f19901b19161790565b90555f52606760205260405f20555f8080611b10565b634e487b7160e01b5f52601160045260245ffd5b50505f90565b805f52606760205260405f2054155f14611c15576066546801000000000000000081101561166357611bfe611b7c826001859401606655611aa4565b9055606654905f52606760205260405f2055600190565b505f90565b91929015611c7b5750815115611c2e575090565b3b15611c375790565b606460405162461bcd60e51b815260206004820152601d60248201527f416464726573733a2063616c6c20746f206e6f6e2d636f6e74726163740000006044820152fd5b825190915015611c8e5750805190602001fd5b6040519062461bcd60e51b82528160208060048301528251908160248401525f935b828510611cd2575050604492505f838284010152601f80199101168101030190fd5b8481018201518686016044015293810193859350611cb056fea164736f6c6343000819000a","linkReferences":{}},"methodIdentifiers":{"acceptGovernanceTransfer()":"2a90b8da","addToAllowlist(address)":"f8e86ece","allowlistLength()":"9362327e","batchAddToAllowlist(address[])":"8ac79791","cancelGovernanceTransfer()":"f9d61eaf","emergencyPause()":"51858e27","emergencyPaused()":"27c830a9","emergencyUnpause()":"4a4e3bd5","getActionRegistry()":"cdf2dfc9","getAllowlist()":"c5eff3d0","getCommunityToken()":"99efcaec","getEAS()":"65c40b9c","getEASSchemaRegistry()":"1c940d46","getGardenToken()":"40c5705a","getNetworkConfig()":"00fd1e82","getNetworkConfigForChain(uint256)":"f8966fdb","getWorkApprovalResolver()":"eab61ba5","getWorkResolver()":"04c7976a","initialize(address)":"c4d66de8","initiateGovernanceTransfer(address)":"8f8022bc","isInAllowlist(address)":"29d0fdc0","networks(uint256)":"8bb0a17c","owner()":"8da5cb5b","pendingOwner()":"e30c3978","proxiableUUID()":"52d1902d","removeFromAllowlist(address)":"5da93d7e","renounceOwnership()":"715018a6","setNetworkConfig(uint256,(address,address,address,address,address,address,address))":"36d6aae3","transferOwnership(address)":"f2fde38b","updateActionRegistry(address)":"4f57790f","updateGardenToken(address)":"ecd48535","upgradeTo(address)":"3659cfe6","upgradeToAndCall(address,bytes)":"4f1ef286"},"id":121}