{"abi":[{"type":"constructor","inputs":[{"name":"owner","type":"address","internalType":"address"}],"stateMutability":"nonpayable"},{"type":"function","name":"acceptOwnership","inputs":[],"outputs":[],"stateMutability":"nonpayable"},{"type":"function","name":"isTrustedExecutor","inputs":[{"name":"","type":"address","internalType":"address"}],"outputs":[{"name":"","type":"bool","internalType":"bool"}],"stateMutability":"view"},{"type":"function","name":"isTrustedImplementation","inputs":[{"name":"","type":"address","internalType":"address"}],"outputs":[{"name":"","type":"bool","internalType":"bool"}],"stateMutability":"view"},{"type":"function","name":"owner","inputs":[],"outputs":[{"name":"","type":"address","internalType":"address"}],"stateMutability":"view"},{"type":"function","name":"pendingOwner","inputs":[],"outputs":[{"name":"","type":"address","internalType":"address"}],"stateMutability":"view"},{"type":"function","name":"renounceOwnership","inputs":[],"outputs":[],"stateMutability":"nonpayable"},{"type":"function","name":"setTrustedExecutor","inputs":[{"name":"executor","type":"address","internalType":"address"},{"name":"trusted","type":"bool","internalType":"bool"}],"outputs":[],"stateMutability":"nonpayable"},{"type":"function","name":"setTrustedImplementation","inputs":[{"name":"implementation","type":"address","internalType":"address"},{"name":"trusted","type":"bool","internalType":"bool"}],"outputs":[],"stateMutability":"nonpayable"},{"type":"function","name":"transferOwnership","inputs":[{"name":"newOwner","type":"address","internalType":"address"}],"outputs":[],"stateMutability":"nonpayable"},{"type":"event","name":"OwnershipTransferStarted","inputs":[{"name":"previousOwner","type":"address","indexed":true,"internalType":"address"},{"name":"newOwner","type":"address","indexed":true,"internalType":"address"}],"anonymous":false},{"type":"event","name":"OwnershipTransferred","inputs":[{"name":"previousOwner","type":"address","indexed":true,"internalType":"address"},{"name":"newOwner","type":"address","indexed":true,"internalType":"address"}],"anonymous":false},{"type":"event","name":"TrustedExecutorUpdated","inputs":[{"name":"executor","type":"address","indexed":false,"internalType":"address"},{"name":"trusted","type":"bool","indexed":false,"internalType":"bool"}],"anonymous":false},{"type":"event","name":"TrustedImplementationUpdated","inputs":[{"name":"implementation","type":"address","indexed":false,"internalType":"address"},{"name":"trusted","type":"bool","indexed":false,"internalType":"bool"}],"anonymous":false}],"bytecode":{"object":"0x608034606857601f61054138819003918201601f19168301916001600160401b03831184841017606c57808492602094604052833981010312606857516001600160a01b03811681036068576059906055336080565b6080565b60405161047590816100cc8239f35b5f80fd5b634e487b7160e01b5f52604160045260245ffd5b60018060a01b03199081600154166001555f5460018060a01b0380921680938216175f55167f8be0079c531659141344cd1fd0a4f28419497f9722a3daafe3b4186f6b6457e05f80a356fe608060408181526004361015610013575f80fd5b5f3560e01c9182631506fd4d1461039457508163483c088e1461032c578163672657ca146102f1578163715018a61461028e57816379ba5097146101c95781638da5cb5b146101a35781639472c8c91461011a578163e30c3978146100f3575063f2fde38b14610081575f80fd5b346100ef5760203660031901126100ef5761009a6103cc565b6100a2610411565b60018060a01b0380911690816bffffffffffffffffffffffff60a01b60015416176001555f54167f38d16b8cac22d99fc7c124b9cd0de2d3fa1faef420bfe791d8c362d765e227005f80a3005b5f80fd5b346100ef575f3660031901126100ef5760015490516001600160a01b039091168152602090f35b346100ef5761019e7f373e917f5345a453dc2334dfe07f6cdd8576bda4f79c0e323b3827b419ebaf409161014d366103e2565b929091610158610411565b6001600160a01b0383165f9081526003602052819020805460ff191660ff861515161790555b516001600160a01b03909216825291151560208201529081906040820190565b0390a1005b346100ef575f3660031901126100ef575f5490516001600160a01b039091168152602090f35b346100ef575f3660031901126100ef57600154906001600160a01b0390338284160361023957506bffffffffffffffffffffffff60a01b8092166001555f549133908316175f553391167f8be0079c531659141344cd1fd0a4f28419497f9722a3daafe3b4186f6b6457e05f80a3005b5162461bcd60e51b815260206004820152602960248201527f4f776e61626c6532537465703a2063616c6c6572206973206e6f7420746865206044820152683732bb9037bbb732b960b91b6064820152608490fd5b346100ef575f3660031901126100ef576102a6610411565b600180546001600160a01b03199081169091555f80549182168155906001600160a01b03167f8be0079c531659141344cd1fd0a4f28419497f9722a3daafe3b4186f6b6457e08280a3005b346100ef5760203660031901126100ef576020906001600160a01b036103156103cc565b165f526003825260ff815f20541690519015158152f35b346100ef5761019e7fd83c86b130b16028e237253bca8d22285f6de074a58017e569658653ed5bc36f9161035f366103e2565b92909161036a610411565b6001600160a01b0383165f9081526002602052819020805460ff191660ff8615151617905561017e565b346100ef5760203660031901126100ef5760209160ff906001600160a01b036103bb6103cc565b165f52600284525f20541615158152f35b600435906001600160a01b03821682036100ef57565b60409060031901126100ef576004356001600160a01b03811681036100ef579060243580151581036100ef5790565b5f546001600160a01b0316330361042457565b606460405162461bcd60e51b815260206004820152602060248201527f4f776e61626c653a2063616c6c6572206973206e6f7420746865206f776e65726044820152fdfea164736f6c6343000819000a","linkReferences":{}},"methodIdentifiers":{"acceptOwnership()":"79ba5097","isTrustedExecutor(address)":"672657ca","isTrustedImplementation(address)":"1506fd4d","owner()":"8da5cb5b","pendingOwner()":"e30c3978","renounceOwnership()":"715018a6","setTrustedExecutor(address,bool)":"9472c8c9","setTrustedImplementation(address,bool)":"483c088e","transferOwnership(address)":"f2fde38b"},"id":56}