{"abi":[{"type":"constructor","inputs":[{"name":"owner","type":"address","internalType":"address"}],"stateMutability":"nonpayable"},{"type":"function","name":"acceptOwnership","inputs":[],"outputs":[],"stateMutability":"nonpayable"},{"type":"function","name":"isTrustedExecutor","inputs":[{"name":"","type":"address","internalType":"address"}],"outputs":[{"name":"","type":"bool","internalType":"bool"}],"stateMutability":"view"},{"type":"function","name":"isTrustedImplementation","inputs":[{"name":"","type":"address","internalType":"address"}],"outputs":[{"name":"","type":"bool","internalType":"bool"}],"stateMutability":"view"},{"type":"function","name":"owner","inputs":[],"outputs":[{"name":"","type":"address","internalType":"address"}],"stateMutability":"view"},{"type":"function","name":"pendingOwner","inputs":[],"outputs":[{"name":"","type":"address","internalType":"address"}],"stateMutability":"view"},{"type":"function","name":"renounceOwnership","inputs":[],"outputs":[],"stateMutability":"nonpayable"},{"type":"function","name":"setTrustedExecutor","inputs":[{"name":"executor","type":"address","internalType":"address"},{"name":"trusted","type":"bool","internalType":"bool"}],"outputs":[],"stateMutability":"nonpayable"},{"type":"function","name":"setTrustedImplementation","inputs":[{"name":"implementation","type":"address","internalType":"address"},{"name":"trusted","type":"bool","internalType":"bool"}],"outputs":[],"stateMutability":"nonpayable"},{"type":"function","name":"transferOwnership","inputs":[{"name":"newOwner","type":"address","internalType":"address"}],"outputs":[],"stateMutability":"nonpayable"},{"type":"event","name":"OwnershipTransferStarted","inputs":[{"name":"previousOwner","type":"address","indexed":true,"internalType":"address"},{"name":"newOwner","type":"address","indexed":true,"internalType":"address"}],"anonymous":false},{"type":"event","name":"OwnershipTransferred","inputs":[{"name":"previousOwner","type":"address","indexed":true,"internalType":"address"},{"name":"newOwner","type":"address","indexed":true,"internalType":"address"}],"anonymous":false},{"type":"event","name":"TrustedExecutorUpdated","inputs":[{"name":"executor","type":"address","indexed":false,"internalType":"address"},{"name":"trusted","type":"bool","indexed":false,"internalType":"bool"}],"anonymous":false},{"type":"event","name":"TrustedImplementationUpdated","inputs":[{"name":"implementation","type":"address","indexed":false,"internalType":"address"},{"name":"trusted","type":"bool","indexed":false,"internalType":"bool"}],"anonymous":false}],"bytecode":{"object":"0x608034606857601f6106a738819003918201601f19168301916001600160401b03831184841017606c57808492602094604052833981010312606857516001600160a01b03811681036068576059906055336080565b6080565b6040516105db90816100cc8239f35b5f80fd5b634e487b7160e01b5f52604160045260245ffd5b60018060a01b03199081600154166001555f5460018060a01b0380921680938216175f55167f8be0079c531659141344cd1fd0a4f28419497f9722a3daafe3b4186f6b6457e05f80a356fe608060408181526004361015610013575f80fd5b5f3560e01c9182631506fd4d146104ad57508163483c088e1461041a578163672657ca146103d2578163715018a61461034d57816379ba50971461023c5781638da5cb5b1461020a5781639472c8c914610145578163e30c397814610112575063f2fde38b14610081575f80fd5b3461010e57602060031936011261010e5761009a6104f1565b6100a2610550565b73ffffffffffffffffffffffffffffffffffffffff80911690817fffffffffffffffffffffffff000000000000000000000000000000000000000060015416176001555f54167f38d16b8cac22d99fc7c124b9cd0de2d3fa1faef420bfe791d8c362d765e227005f80a3005b5f80fd5b3461010e575f60031936011261010e5760209073ffffffffffffffffffffffffffffffffffffffff600154169051908152f35b3461010e576102057f373e917f5345a453dc2334dfe07f6cdd8576bda4f79c0e323b3827b419ebaf409161017836610514565b929091610183610550565b73ffffffffffffffffffffffffffffffffffffffff83165f5260036020526101d884825f209060ff7fffffffffffffffffffffffffffffffffffffffffffffffffffffffffffffff0083541691151516179055565b5173ffffffffffffffffffffffffffffffffffffffff909216825291151560208201529081906040820190565b0390a1005b3461010e575f60031936011261010e5760209073ffffffffffffffffffffffffffffffffffffffff5f54169051908152f35b3461010e575f60031936011261010e576001549073ffffffffffffffffffffffffffffffffffffffff9033828416036102ca57507fffffffffffffffffffffffff00000000000000000000000000000000000000008092166001555f549133908316175f553391167f8be0079c531659141344cd1fd0a4f28419497f9722a3daafe3b4186f6b6457e05f80a3005b608490517f08c379a000000000000000000000000000000000000000000000000000000000815260206004820152602960248201527f4f776e61626c6532537465703a2063616c6c6572206973206e6f74207468652060448201527f6e6577206f776e657200000000000000000000000000000000000000000000006064820152fd5b3461010e575f60031936011261010e57610365610550565b5f73ffffffffffffffffffffffffffffffffffffffff7fffffffffffffffffffffffff0000000000000000000000000000000000000000806001541660015582549081168355167f8be0079c531659141344cd1fd0a4f28419497f9722a3daafe3b4186f6b6457e08280a3005b3461010e57602060031936011261010e5760209073ffffffffffffffffffffffffffffffffffffffff6104036104f1565b165f526003825260ff815f20541690519015158152f35b3461010e576102057fd83c86b130b16028e237253bca8d22285f6de074a58017e569658653ed5bc36f9161044d36610514565b929091610458610550565b73ffffffffffffffffffffffffffffffffffffffff83165f5260026020526101d884825f209060ff7fffffffffffffffffffffffffffffffffffffffffffffffffffffffffffffff0083541691151516179055565b3461010e57602060031936011261010e5760ff60209273ffffffffffffffffffffffffffffffffffffffff6104e06104f1565b165f52600284525f20541615158152f35b6004359073ffffffffffffffffffffffffffffffffffffffff8216820361010e57565b600319604091011261010e5760043573ffffffffffffffffffffffffffffffffffffffff8116810361010e5790602435801515810361010e5790565b73ffffffffffffffffffffffffffffffffffffffff5f5416330361057057565b60646040517f08c379a000000000000000000000000000000000000000000000000000000000815260206004820152602060248201527f4f776e61626c653a2063616c6c6572206973206e6f7420746865206f776e65726044820152fdfea164736f6c6343000819000a","linkReferences":{}},"methodIdentifiers":{"acceptOwnership()":"79ba5097","isTrustedExecutor(address)":"672657ca","isTrustedImplementation(address)":"1506fd4d","owner()":"8da5cb5b","pendingOwner()":"e30c3978","renounceOwnership()":"715018a6","setTrustedExecutor(address,bool)":"9472c8c9","setTrustedImplementation(address,bool)":"483c088e","transferOwnership(address)":"f2fde38b"},"id":55}