{"abi":[{"type":"constructor","inputs":[],"stateMutability":"nonpayable"},{"type":"function","name":"actionToOwner","inputs":[{"name":"actionUID","type":"uint256","internalType":"uint256"}],"outputs":[{"name":"owner","type":"address","internalType":"address"}],"stateMutability":"view"},{"type":"function","name":"gardenDomains","inputs":[{"name":"garden","type":"address","internalType":"address"}],"outputs":[{"name":"domainMask","type":"uint8","internalType":"uint8"}],"stateMutability":"view"},{"type":"function","name":"gardenHasDomain","inputs":[{"name":"garden","type":"address","internalType":"address"},{"name":"_domain","type":"uint8","internalType":"enum Domain"}],"outputs":[{"name":"","type":"bool","internalType":"bool"}],"stateMutability":"view"},{"type":"function","name":"gardenToken","inputs":[],"outputs":[{"name":"","type":"address","internalType":"address"}],"stateMutability":"view"},{"type":"function","name":"getAction","inputs":[{"name":"actionUID","type":"uint256","internalType":"uint256"}],"outputs":[{"name":"","type":"tuple","internalType":"struct ActionRegistry.Action","components":[{"name":"startTime","type":"uint256","internalType":"uint256"},{"name":"endTime","type":"uint256","internalType":"uint256"},{"name":"title","type":"string","internalType":"string"},{"name":"slug","type":"string","internalType":"string"},{"name":"instructions","type":"string","internalType":"string"},{"name":"capitals","type":"uint8[]","internalType":"enum Capital[]"},{"name":"media","type":"string[]","internalType":"string[]"},{"name":"domain","type":"uint8","internalType":"enum Domain"}]}],"stateMutability":"view"},{"type":"function","name":"hatsModule","inputs":[],"outputs":[{"name":"","type":"address","internalType":"address"}],"stateMutability":"view"},{"type":"function","name":"idToAction","inputs":[{"name":"actionUID","type":"uint256","internalType":"uint256"}],"outputs":[{"name":"startTime","type":"uint256","internalType":"uint256"},{"name":"endTime","type":"uint256","internalType":"uint256"},{"name":"title","type":"string","internalType":"string"},{"name":"slug","type":"string","internalType":"string"},{"name":"instructions","type":"string","internalType":"string"},{"name":"domain","type":"uint8","internalType":"enum Domain"}],"stateMutability":"view"},{"type":"function","name":"initialize","inputs":[{"name":"_multisig","type":"address","internalType":"address"}],"outputs":[],"stateMutability":"nonpayable"},{"type":"function","name":"owner","inputs":[],"outputs":[{"name":"","type":"address","internalType":"address"}],"stateMutability":"view"},{"type":"function","name":"proxiableUUID","inputs":[],"outputs":[{"name":"","type":"bytes32","internalType":"bytes32"}],"stateMutability":"view"},{"type":"function","name":"registerAction","inputs":[{"name":"_startTime","type":"uint256","internalType":"uint256"},{"name":"_endTime","type":"uint256","internalType":"uint256"},{"name":"_title","type":"string","internalType":"string"},{"name":"_slug","type":"string","internalType":"string"},{"name":"_instructions","type":"string","internalType":"string"},{"name":"_capitals","type":"uint8[]","internalType":"enum Capital[]"},{"name":"_media","type":"string[]","internalType":"string[]"},{"name":"_domain","type":"uint8","internalType":"enum Domain"}],"outputs":[],"stateMutability":"nonpayable"},{"type":"function","name":"renounceOwnership","inputs":[],"outputs":[],"stateMutability":"nonpayable"},{"type":"function","name":"setGardenDomains","inputs":[{"name":"garden","type":"address","internalType":"address"},{"name":"_domainMask","type":"uint8","internalType":"uint8"}],"outputs":[],"stateMutability":"nonpayable"},{"type":"function","name":"setGardenDomainsFromMint","inputs":[{"name":"garden","type":"address","internalType":"address"},{"name":"_domainMask","type":"uint8","internalType":"uint8"}],"outputs":[],"stateMutability":"nonpayable"},{"type":"function","name":"setGardenToken","inputs":[{"name":"_gardenToken","type":"address","internalType":"address"}],"outputs":[],"stateMutability":"nonpayable"},{"type":"function","name":"setHatsModule","inputs":[{"name":"_hatsModule","type":"address","internalType":"address"}],"outputs":[],"stateMutability":"nonpayable"},{"type":"function","name":"transferOwnership","inputs":[{"name":"newOwner","type":"address","internalType":"address"}],"outputs":[],"stateMutability":"nonpayable"},{"type":"function","name":"updateActionEndTime","inputs":[{"name":"actionUID","type":"uint256","internalType":"uint256"},{"name":"_endTime","type":"uint256","internalType":"uint256"}],"outputs":[],"stateMutability":"nonpayable"},{"type":"function","name":"updateActionInstructions","inputs":[{"name":"actionUID","type":"uint256","internalType":"uint256"},{"name":"_instructions","type":"string","internalType":"string"}],"outputs":[],"stateMutability":"nonpayable"},{"type":"function","name":"updateActionMedia","inputs":[{"name":"actionUID","type":"uint256","internalType":"uint256"},{"name":"_media","type":"string[]","internalType":"string[]"}],"outputs":[],"stateMutability":"nonpayable"},{"type":"function","name":"updateActionStartTime","inputs":[{"name":"actionUID","type":"uint256","internalType":"uint256"},{"name":"_startTime","type":"uint256","internalType":"uint256"}],"outputs":[],"stateMutability":"nonpayable"},{"type":"function","name":"updateActionTitle","inputs":[{"name":"actionUID","type":"uint256","internalType":"uint256"},{"name":"_title","type":"string","internalType":"string"}],"outputs":[],"stateMutability":"nonpayable"},{"type":"function","name":"upgradeTo","inputs":[{"name":"newImplementation","type":"address","internalType":"address"}],"outputs":[],"stateMutability":"nonpayable"},{"type":"function","name":"upgradeToAndCall","inputs":[{"name":"newImplementation","type":"address","internalType":"address"},{"name":"data","type":"bytes","internalType":"bytes"}],"outputs":[],"stateMutability":"payable"},{"type":"event","name":"ActionEndTimeUpdated","inputs":[{"name":"owner","type":"address","indexed":true,"internalType":"address"},{"name":"actionUID","type":"uint256","indexed":true,"internalType":"uint256"},{"name":"endTime","type":"uint256","indexed":true,"internalType":"uint256"}],"anonymous":false},{"type":"event","name":"ActionInstructionsUpdated","inputs":[{"name":"owner","type":"address","indexed":true,"internalType":"address"},{"name":"actionUID","type":"uint256","indexed":true,"internalType":"uint256"},{"name":"instructions","type":"string","indexed":true,"internalType":"string"}],"anonymous":false},{"type":"event","name":"ActionMediaUpdated","inputs":[{"name":"owner","type":"address","indexed":true,"internalType":"address"},{"name":"actionUID","type":"uint256","indexed":true,"internalType":"uint256"},{"name":"media","type":"string[]","indexed":true,"internalType":"string[]"}],"anonymous":false},{"type":"event","name":"ActionRegistered","inputs":[{"name":"owner","type":"address","indexed":false,"internalType":"address"},{"name":"actionUID","type":"uint256","indexed":true,"internalType":"uint256"},{"name":"startTime","type":"uint256","indexed":true,"internalType":"uint256"},{"name":"endTime","type":"uint256","indexed":true,"internalType":"uint256"},{"name":"title","type":"string","indexed":false,"internalType":"string"},{"name":"slug","type":"string","indexed":false,"internalType":"string"},{"name":"instructions","type":"string","indexed":false,"internalType":"string"},{"name":"capitals","type":"uint8[]","indexed":false,"internalType":"enum Capital[]"},{"name":"media","type":"string[]","indexed":false,"internalType":"string[]"},{"name":"domain","type":"uint8","indexed":false,"internalType":"enum Domain"}],"anonymous":false},{"type":"event","name":"ActionStartTimeUpdated","inputs":[{"name":"owner","type":"address","indexed":true,"internalType":"address"},{"name":"actionUID","type":"uint256","indexed":true,"internalType":"uint256"},{"name":"startTime","type":"uint256","indexed":true,"internalType":"uint256"}],"anonymous":false},{"type":"event","name":"ActionTitleUpdated","inputs":[{"name":"owner","type":"address","indexed":true,"internalType":"address"},{"name":"actionUID","type":"uint256","indexed":true,"internalType":"uint256"},{"name":"title","type":"string","indexed":true,"internalType":"string"}],"anonymous":false},{"type":"event","name":"AdminChanged","inputs":[{"name":"previousAdmin","type":"address","indexed":false,"internalType":"address"},{"name":"newAdmin","type":"address","indexed":false,"internalType":"address"}],"anonymous":false},{"type":"event","name":"BeaconUpgraded","inputs":[{"name":"beacon","type":"address","indexed":true,"internalType":"address"}],"anonymous":false},{"type":"event","name":"GardenDomainsUpdated","inputs":[{"name":"garden","type":"address","indexed":true,"internalType":"address"},{"name":"domainMask","type":"uint8","indexed":true,"internalType":"uint8"}],"anonymous":false},{"type":"event","name":"GardenTokenUpdated","inputs":[{"name":"oldToken","type":"address","indexed":true,"internalType":"address"},{"name":"newToken","type":"address","indexed":true,"internalType":"address"}],"anonymous":false},{"type":"event","name":"HatsModuleUpdated","inputs":[{"name":"oldModule","type":"address","indexed":true,"internalType":"address"},{"name":"newModule","type":"address","indexed":true,"internalType":"address"}],"anonymous":false},{"type":"event","name":"Initialized","inputs":[{"name":"version","type":"uint8","indexed":false,"internalType":"uint8"}],"anonymous":false},{"type":"event","name":"OwnershipTransferred","inputs":[{"name":"previousOwner","type":"address","indexed":true,"internalType":"address"},{"name":"newOwner","type":"address","indexed":true,"internalType":"address"}],"anonymous":false},{"type":"event","name":"Upgraded","inputs":[{"name":"implementation","type":"address","indexed":true,"internalType":"address"}],"anonymous":false},{"type":"error","name":"EndTimeBeforeStartTime","inputs":[]},{"type":"error","name":"InvalidDomainMask","inputs":[]},{"type":"error","name":"NotActionOwner","inputs":[]},{"type":"error","name":"NotGardenOperator","inputs":[]},{"type":"error","name":"NotGardenToken","inputs":[]},{"type":"error","name":"StartTimeAfterEndTime","inputs":[]},{"type":"error","name":"ZeroAddress","inputs":[]}],"bytecode":{"object":"0x60a080604052346100da57306080525f549060ff8260081c16610088575060ff8082160361004e575b604051612d2a90816100df823960805181818161193101528181611a250152611f8a0152f35b60ff90811916175f557f7f26b83ff96e1f2b6a682f133852f6798a09c465da95921460cefb3847402498602060405160ff8152a15f610028565b62461bcd60e51b815260206004820152602760248201527f496e697469616c697a61626c653a20636f6e747261637420697320696e697469604482015266616c697a696e6760c81b6064820152608490fd5b5f80fdfe60806040526004361015610011575f80fd5b5f3560e01c8063269a27091461243e57806327b178631461234a5780632e94bd9b146122ba578063328bccce1461226c5780633347cdf7146121c65780633659cfe614611f6c5780633df0300c14611ecd5780634af7fa6a14611c4f5780634f1ef286146119dc57806352d1902d1461191f57806363ad59c7146118ed578063715018a6146118a5578063847514951461186a57806386b9535e14610ff65780638a782f0014610f795780638da5cb5b14610f51578063adcb922114610ede578063b4a9c60714610eb6578063b6e7687314610500578063b709b7fd1461047e578063c4d66de81461033d578063c8fc7af2146101dc578063db61d65c146101b45763f2fde38b14610121575f80fd5b346101b05760203660031901126101b05761013a6125ca565b6101426129e3565b6001600160a01b0381161561015c5761015a90612a3b565b005b60405162461bcd60e51b815260206004820152602660248201527f4f776e61626c653a206e6577206f776e657220697320746865207a65726f206160448201526564647265737360d01b6064820152608490fd5b5f80fd5b346101b0575f3660031901126101b057606a546040516001600160a01b039091168152602090f35b346101b0576101ea36612597565b5f838152606660205260409020549192916001600160a01b0316330361032e575f8281526067602052604090206004016001600160401b03821161031a5761023c826102368354612626565b836128c6565b5f82601f81116001146102b7578061025b925f916102ac575b50612909565b90555b815f52606660205260018060a01b0360405f2054169281604051928392833781015f8152039020917fb8b628e3d03eb52cbeb1e1e549e662dd9c44f2e61bf702a9f052ea2d1b1608dc5f80a4005b905086013587610255565b50601f19831690825f528360205f20925f5b8181106102ff5750106102e6575b5050600182811b01905561025e565b8501355f19600385901b60f8161c1916905584806102d7565b888401358555600190940193602093840193879350016102c9565b634e487b7160e01b5f52604160045260245ffd5b639a13c39960e01b5f5260045ffd5b346101b05760203660031901126101b0576103566125ca565b5f5460ff8160081c161591828093610471575b801561045a575b156103fe5760ff1982166001175f556103b191836103ed575b506103a360ff5f5460081c1661039e81612a70565b612a70565b6103ac33612a3b565b612a3b565b6103b757005b61ff00195f54165f557f7f26b83ff96e1f2b6a682f133852f6798a09c465da95921460cefb3847402498602060405160018152a1005b61ffff1916610101175f5583610389565b60405162461bcd60e51b815260206004820152602e60248201527f496e697469616c697a61626c653a20636f6e747261637420697320616c72656160448201526d191e481a5b9a5d1a585b1a5e995960921b6064820152608490fd5b50303b1580156103705750600160ff831614610370565b50600160ff831610610369565b346101b05760203660031901126101b0576104976125ca565b61049f6129e3565b6001600160a01b031680156104f157606a80546001600160a01b0319811683179091556001600160a01b03167f953bbf0e152929f75334757ab51289c8ddf14f5dcebce0c06ce4873b100c7d7d5f80a3005b63d92e233d60e01b5f5260045ffd5b346101b05760203660031901126101b0575f60e06040516105208161265e565b8281528260208201526060604082015260608082015260606080820152606060a0820152606060c082015201526004355f52606760205260405f206040516105678161265e565b81548152600182015491602082019283526105846002820161269d565b90604083019182526105986003820161269d565b606084019081526105ab6004830161269d565b90608085019182526005830193604051808660208298549384815201905f5260205f20925f905b80601f830110610c2d576106e8945491818110610c12575b818110610bf4575b818110610bd6575b818110610bb8575b818110610b9b575b818110610b7d575b818110610b5f575b818110610b41575b818110610b23575b818110610b05575b818110610ae7575b818110610ac9575b818110610aab575b818110610a8d575b818110610a6f575b818110610a51575b818110610a33575b818110610a15575b8181106109f7575b8181106109d9575b8181106109bb575b81811061099d575b81811061097f575b818110610961575b818110610943575b818110610925575b818110610907575b8181106108e9575b8181106108cb575b8181106108ad575b81811061088f575b10610878575b50038661267a565b60a08601948552600684019384546106ff81612790565b9561070d604051978861267a565b81875260208701905f5260205f205f915b83831061085b57505050509161077b61078e9260ff60076107a1979660c08c01998a520154169961075360e08b019b8c6129b7565b6040519960208b525160208b01525160408a01525161010060608a015261012089019061275e565b9051878203601f1901608089015261275e565b9051858203601f190160a087015261275e565b915191601f198482030160c0850152602080845192838152019301905f5b81811061083c575050505190601f198382030160e0840152815180825260208201916020808360051b8301019401925f915b83831061080f5786808761080b8b51610100840190612783565b0390f35b909192939460208061082d600193601f19868203018752895161275e565b970193019301919392906107f1565b9091936020808261085060019489516128a3565b0195019291016107bf565b60016020819261086a8561269d565b81520192019201919061071e565b906108888160209360f81c6128a3565b018a6106e0565b926020816108a560019360ff8760f01c166128a3565b0193016106da565b926020816108c360019360ff8760e81c166128a3565b0193016106d2565b926020816108e160019360ff8760e01c166128a3565b0193016106ca565b926020816108ff60019360ff8760d81c166128a3565b0193016106c2565b9260208161091d60019360ff8760d01c166128a3565b0193016106ba565b9260208161093b60019360ff8760c81c166128a3565b0193016106b2565b9260208161095960019360ff8760c01c166128a3565b0193016106aa565b9260208161097760019360ff8760b81c166128a3565b0193016106a2565b9260208161099560019360ff8760b01c166128a3565b01930161069a565b926020816109b360019360ff8760a81c166128a3565b019301610692565b926020816109d160019360ff8760a01c166128a3565b01930161068a565b926020816109ef60019360ff8760981c166128a3565b019301610682565b92602081610a0d60019360ff8760901c166128a3565b01930161067a565b92602081610a2b60019360ff8760881c166128a3565b019301610672565b92602081610a4960019360ff8760801c166128a3565b01930161066a565b92602081610a6760019360ff8760781c166128a3565b019301610662565b92602081610a8560019360ff8760701c166128a3565b01930161065a565b92602081610aa360019360ff8760681c166128a3565b019301610652565b92602081610ac160019360ff8760601c166128a3565b01930161064a565b92602081610adf60019360ff8760581c166128a3565b019301610642565b92602081610afd60019360ff8760501c166128a3565b01930161063a565b92602081610b1b60019360ff8760481c166128a3565b019301610632565b92602081610b3960019360ff8760401c166128a3565b01930161062a565b92602081610b5760019360ff8760381c166128a3565b019301610622565b92602081610b7560019360ff8760301c166128a3565b01930161061a565b92602081610b9360019360ff8760281c166128a3565b019301610612565b92602081610bb060019360ff87851c166128a3565b01930161060a565b92602081610bce60019360ff8760181c166128a3565b019301610602565b92602081610bec60019360ff8760101c166128a3565b0193016105fa565b92602081610c0a60019360ff8760081c166128a3565b0193016105f2565b92602081610c2560019360ff87166128a3565b0193016105ea565b916020919350610400600191610ea88754610c4b8360ff83166128a3565b610c5d86840160ff8360081c166128a3565b610c706040840160ff8360101c166128a3565b610c836060840160ff8360181c166128a3565b610c956080840160ff83891c166128a3565b610ca860a0840160ff8360281c166128a3565b610cbb60c0840160ff8360301c166128a3565b610cce60e0840160ff8360381c166128a3565b610ce2610100840160ff8360401c166128a3565b610cf6610120840160ff8360481c166128a3565b610d0a610140840160ff8360501c166128a3565b610d1e610160840160ff8360581c166128a3565b610d32610180840160ff8360601c166128a3565b610d466101a0840160ff8360681c166128a3565b610d5a6101c0840160ff8360701c166128a3565b610d6e6101e0840160ff8360781c166128a3565b610d82610200840160ff8360801c166128a3565b610d96610220840160ff8360881c166128a3565b610daa610240840160ff8360901c166128a3565b610dbe610260840160ff8360981c166128a3565b610dd2610280840160ff8360a01c166128a3565b610de66102a0840160ff8360a81c166128a3565b610dfa6102c0840160ff8360b01c166128a3565b610e0e6102e0840160ff8360b81c166128a3565b610e22610300840160ff8360c01c166128a3565b610e36610320840160ff8360c81c166128a3565b610e4a610340840160ff8360d01c166128a3565b610e5e610360840160ff8360d81c166128a3565b610e72610380840160ff8360e01c166128a3565b610e866103a0840160ff8360e81c166128a3565b610e9a6103c0840160ff8360f01c166128a3565b6103e083019060f81c6128a3565b0194019201889293916105d2565b346101b0575f3660031901126101b0576069546040516001600160a01b039091168152602090f35b346101b05760203660031901126101b057610ef76125ca565b610eff6129e3565b6001600160a01b031680156104f157606980546001600160a01b0319811683179091556001600160a01b03167fc8fef5c294d0999b744f1c0123bb9e98e3e739de8245692fde6df4f4625efc505f80a3005b346101b0575f3660031901126101b0576033546040516001600160a01b039091168152602090f35b346101b057610f87366125e0565b606a546001600160a01b03163303610fe75760ff1690600f8211610fd8576001600160a01b03165f818152606860205260408120805460ff1916841790555f516020612c3e5f395f51905f529080a3005b632e4fa5db60e21b5f5260045ffd5b6308a59e4960e11b5f5260045ffd5b346101b0576101003660031901126101b0576024356004356044356001600160401b0381116101b05761102d90369060040161256a565b6064356001600160401b0381116101b05761104c90369060040161256a565b90929091906084356001600160401b0381116101b05761107090369060040161256a565b92909160a4356001600160401b0381116101b057611092903690600401612873565b909290919060c4356001600160401b0381116101b0576110b6903690600401612873565b959096600460e43510156101b0576110cc6129e3565b8a8c111561185b57606554995f198b146118475760018b016065555f8b8152606660205260409081902080546001600160a01b03191633179055516111108161265e565b8c81528d60208201526111243686886127c2565b6040820152611134368c846127c2565b60608201526111443684866127c2565b608082015261115287612790565b61115f604051918261267a565b87815260208101368960051b8b01116101b057908d9392918a905b8a60051b8c01821061182357505060a0820190815261119a368c8e6127f8565b9060c0830191825260e08301946111b360e435876129b7565b5f52606760205260405f2092805184556020810151600185015560028401604082015180519060018060401b03821161031a576111fa826111f48554612626565b856128c6565b602090601f83116001146117c05761121c92915f9183611529575b5050612909565b90555b6060810151805160038601916001600160401b03821161031a57611247826111f48554612626565b602090601f831160011461175d5761126892915f9183611529575050612909565b90555b60800151805160048501916001600160401b03821161031a57611292826111f48554612626565b602090601f83116001146116fa576112b392915f9183611529575050612909565b90555b51805160058401916001600160401b03821161031a57600160401b821161031a5760209083548385558084106116b0575b5001915f5260205f208160051c915f5b8381106116645750601f198116900380611614575b5050915180516006850193509150600160401b821161031a57825482845580831061159d575b50602001915f5260205f20915f905b8282106114ca575050505060070191519a60048c10156114b6576113906020976113ac9761139e9560e09f9c9e9d9c60ff801983541691161790556040519e8f338152818c82015201916129c3565b8c810360408e0152916129c3565b9189830360608b01526129c3565b86810360808801528281520193905f905b8082106114885750505083830360a0850152808352602083019060208160051b85010193835f91601e1982360301905b84841061142f578b8b8b7f8dc14877591633d1fb35baf469729a624f0c8a1b45a5408ac5de3d709ea5bfdf8c808d61142a60c0830160e435612783565b0390a4005b90919293949596601f198282030187528735838112156101b0578401602081019190356001600160401b0381116101b05780360383136101b05761147960209283926001956129c3565b990197019594019291906113ed565b909192939483359060088210156101b0576020816114a982936001956128a3565b01969594019201906113bd565b634e487b7160e01b5f52602160045260245ffd5b80518051906001600160401b03821161031a576114f1826114eb8854612626565b886128c6565b602090601f8311600114611534579261151a836001959460209487965f92611529575050612909565b87555b01940191019092611341565b015190505f80611215565b90601f19831691875f52815f20925f5b818110611585575093602093600196938796938388951061156d575b505050811b01875561151d565b01515f1960f88460031b161c191690555f8080611560565b92936020600181928786015181550195019301611544565b835f528260205f2091820191015b8181106115b85750611332565b806115c560019254612626565b806115d2575b50016115ab565b601f811183146115e757505f81555b5f6115cb565b61160390825f5283601f60205f20920160051c820191016128b0565b805f525f60208120818355556115e1565b925f935f5b81811061162e5750505001555f80808061130c565b909194855160088110156114b65761165a602091846001949060ff809160031b9316831b921b19161790565b9601929101611619565b5f5f5b6020811061167c5750838201556001016112f7565b9590815160088110156114b6576116a7602091896001949060ff809160031b9316831b921b19161790565b92019601611667565b6116da90855f52835f20601f80870160051c820192818816806116e0575b500160051c01906128b0565b5f6112e7565b5f198501908154905f19908a0360031b1c1690555f6116ce565b90601f19831691845f52815f20925f5b818110611745575090846001959493921061172d575b505050811b0190556112b6565b01515f1960f88460031b161c191690555f8080611720565b9293602060018192878601518155019501930161170a565b90601f19831691845f52815f20925f5b8181106117a85750908460019594939210611790575b505050811b01905561126b565b01515f1960f88460031b161c191690555f8080611783565b9293602060018192878601518155019501930161176d565b90601f19831691845f52815f20925f5b81811061180b57509084600195949392106117f3575b505050811b01905561121f565b01515f1960f88460031b161c191690555f80806117e6565b929360206001819287860151815501950193016117d0565b908092939495503560088110156101b05781528e949392916020908101910161117a565b634e487b7160e01b5f52601160045260245ffd5b634313345360e01b5f5260045ffd5b346101b05760203660031901126101b0576001600160a01b0361188b6125ca565b165f526068602052602060ff60405f205416604051908152f35b346101b0575f3660031901126101b0576118bd6129e3565b603380546001600160a01b031981169091555f906001600160a01b03165f516020612c7e5f395f51905f528280a3005b346101b05760203660031901126101b0576004355f526066602052602060018060a01b0360405f205416604051908152f35b346101b0575f3660031901126101b0577f00000000000000000000000000000000000000000000000000000000000000006001600160a01b031630036119765760206040515f516020612c5e5f395f51905f528152f35b60405162461bcd60e51b815260206004820152603860248201527f555550535570677261646561626c653a206d757374206e6f742062652063616c6044820152771b1959081d1a1c9bdd59da0819195b1959d85d1958d85b1b60421b6064820152608490fd5b60403660031901126101b0576119f06125ca565b6024356001600160401b0381116101b057366023820112156101b057611a209036906024816004013591016127c2565b611a777f00000000000000000000000000000000000000000000000000000000000000006001600160a01b0316611a593082141561291b565b5f516020612c5e5f395f51905f52546001600160a01b031614612969565b611a7f6129e3565b5f516020612bfe5f395f51905f525460ff1615611aa0575061015a90612ad0565b6040516352d1902d60e01b81526001600160a01b03831690602081600481855afa5f9181611c1b575b50611b175760405162461bcd60e51b815260206004820152602e60248201525f516020612cfe5f395f51905f5260448201526d6f6e206973206e6f74205555505360901b6064820152608490fd5b5f516020612c5e5f395f51905f5203611bd757611b3383612ad0565b5f516020612c9e5f395f51905f525f80a2805115801590611bcf575b611b5557005b61015a915f8060405193611b6a60608661267a565b602785525f516020612cde5f395f51905f526020860152660819985a5b195960ca1b6040860152602081519101845af43d15611bc7573d91611bab836127a7565b92611bb9604051948561267a565b83523d5f602085013e612b60565b606091612b60565b506001611b4f565b60405162461bcd60e51b815260206004820152602960248201525f516020612cbe5f395f51905f526044820152681a58589b195555525160ba1b6064820152608490fd5b9091506020813d602011611c47575b81611c376020938361267a565b810103126101b057519085611ac9565b3d9150611c2a565b346101b05760403660031901126101b0576004356024356001600160401b0381116101b057366023820112156101b057611c939036906024816004013591016127f8565b5f828152606660205260409020549091906001600160a01b0316330361032e57805f526067602052600660405f2001918051600160401b811161031a578354818555808210611e56575b506020829492019081925f5260205f20915f905b828210611d835750505050815f52606660205260018060a01b0360405f2054169260405191828392519091905f5b818110611d5357505050039020917f53497616fe214eb98d693e0c2768611961d5ccea19dc0c584e05a0903fc1b11e5f80a4005b91935091602060019181611d6e87518381519384920161273d565b601f8019910116019401910191849392611d1f565b80518051959795906001600160401b03821161031a57611da7826114eb8854612626565b602090601f8311600114611ded5792611dd0836001959460209487965f92611de2575050612909565b87555b01940191019092959395611cf1565b015190508d80611215565b90601f19831691875f52815f20925f5b818110611e3e5750936020936001969387969383889510611e26575b505050811b018755611dd3565b01515f1960f88460031b161c191690558c8080611e19565b92936020600181928786015181550195019301611dfd565b845f528160205f2091820191015b818110611e715750611cdd565b80611e7e60019254612626565b80611e8b575b5001611e64565b601f81118314611ea057505f81555b87611e84565b611ebc90825f5283601f60205f20920160051c820191016128b0565b805f525f6020812081835555611e9a565b346101b057611edb36612610565b5f828152606660205260409020549091906001600160a01b0316330361032e57805f526067602052600160405f200154821015611f5d575f81815260676020908152604080832085905560669091528120546001600160a01b0316907f7bd23689d74c8c6f2522c189c1e4c939b2d260851a54f4582d147a928ba1137b9080a4005b63f70f6ef160e01b5f5260045ffd5b346101b05760203660031901126101b057611f856125ca565b611fbe7f00000000000000000000000000000000000000000000000000000000000000006001600160a01b0316611a593082141561291b565b611fc66129e3565b604051906020611fd6818461267a565b5f835280830192601f1982013685375f516020612bfe5f395f51905f525460ff161561200857505061015a9150612ad0565b6040516352d1902d60e01b8152919290916001600160a01b038216908481600481855afa5f9181612197575b506120825760405162461bcd60e51b815260048101869052602e60248201525f516020612cfe5f395f51905f5260448201526d6f6e206973206e6f74205555505360901b6064820152608490fd5b9293927fc9f76b5ec45e5cdef99837d7b6d2467235c1df8933c8ca56df5c35afa2c7d44401612153576120b482612ad0565b5f516020612c9e5f395f51905f525f80a282511580159061214c575b6120d657005b5f8061015a95604051956120eb60608861267a565b602787525f516020612cde5f395f51905f5286880152660819985a5b195960ca1b60408801525190845af4903d15612143573d612127816127a7565b90612135604051928361267a565b81525f81943d92013e612b60565b60609250612b60565b505f6120d0565b60405162461bcd60e51b815260048101849052602960248201525f516020612cbe5f395f51905f526044820152681a58589b195555525160ba1b6064820152608490fd5b9091508581813d83116121bf575b6121af818361267a565b810103126101b057519087612034565b503d6121a5565b346101b05760203660031901126101b0576004355f52606760205260405f20805460018201549161080b6122616121ff6002840161269d565b9261225361220f6003830161269d565b61224560ff60076122226004870161269d565b9501541696604051998a998a5260208a015260c060408a015260c089019061275e565b90878203606089015261275e565b90858203608087015261275e565b9160a0840190612783565b346101b05760403660031901126101b0576122856125ca565b60243560048110156101b05760209160018060a01b03165f526068825260ff60405f205460018260405194161b161615158152f35b346101b0576122c836612610565b5f828152606660205260409020549091906001600160a01b0316330361032e57805f52606760205260405f205482111561185b575f81815260676020908152604080832060010185905560669091528120546001600160a01b0316907f96c1c206b4ffcf38cc94373b4b0a7f97015288aca64d758f0612f6473b849be99080a4005b346101b05760ff61235a366125e0565b9190911690600f8211610fd8576069546001600160a01b03169081156104f157604051630e70978b60e21b81526001600160a01b039091166004820181905233602483015291602090829060449082905afa908115612433575f916123f8575b50156123e957805f52606860205260405f208260ff198254161790555f516020612c3e5f395f51905f525f80a3005b633cebab8560e21b5f5260045ffd5b90506020813d60201161242b575b816124136020938361267a565b810103126101b0575180151581036101b057836123ba565b3d9150612406565b6040513d5f823e3d90fd5b346101b05761244c36612597565b5f838152606660205260409020549192916001600160a01b0316330361032e575f8281526067602052604090206002016001600160401b03821161031a57612498826102368354612626565b5f82601f811160011461250757806124b6925f916102ac5750612909565b90555b815f52606660205260018060a01b0360405f2054169281604051928392833781015f8152039020917fd48948061a4fec22a69037295e8a51653c1140e50cee189a95263e29809504365f80a4005b50601f19831690825f528360205f20925f5b81811061254f575010612536575b5050600182811b0190556124b9565b8501355f19600385901b60f8161c191690558480612527565b88840135855560019094019360209384019387935001612519565b9181601f840112156101b0578235916001600160401b0383116101b057602083818601950101116101b057565b9060406003198301126101b05760043591602435906001600160401b0382116101b0576125c69160040161256a565b9091565b600435906001600160a01b03821682036101b057565b60409060031901126101b0576004356001600160a01b03811681036101b0579060243560ff811681036101b05790565b60409060031901126101b0576004359060243590565b90600182811c92168015612654575b602083101461264057565b634e487b7160e01b5f52602260045260245ffd5b91607f1691612635565b61010081019081106001600160401b0382111761031a57604052565b601f909101601f19168101906001600160401b0382119082101761031a57604052565b9060405191825f8254926126b084612626565b808452936001811690811561271b57506001146126d7575b506126d59250038361267a565b565b90505f9291925260205f20905f915b8183106126ff5750509060206126d5928201015f6126c8565b60209193508060019154838589010152019101909184926126e6565b9050602092506126d594915060ff191682840152151560051b8201015f6126c8565b5f5b83811061274e5750505f910152565b818101518382015260200161273f565b906020916127778151809281855285808601910161273d565b601f01601f1916010190565b9060048210156114b65752565b6001600160401b03811161031a5760051b60200190565b6001600160401b03811161031a57601f01601f191660200190565b9291926127ce826127a7565b916127dc604051938461267a565b8294818452818301116101b0578281602093845f960137010152565b92919261280482612790565b93612812604051958661267a565b602085848152019260051b8201918183116101b05780935b838510612838575050505050565b84356001600160401b0381116101b057820183601f820112156101b05760209161286885838580953591016127c2565b81520194019361282a565b9181601f840112156101b0578235916001600160401b0383116101b0576020808501948460051b0101116101b057565b9060088210156114b65752565b8181106128bb575050565b5f81556001016128b0565b9190601f81116128d557505050565b6126d5925f5260205f20906020601f840160051c830193106128ff575b601f0160051c01906128b0565b90915081906128f2565b8160011b915f199060031b1c19161790565b1561292257565b60405162461bcd60e51b815260206004820152602c60248201525f516020612c1e5f395f51905f5260448201526b19195b1959d85d1958d85b1b60a21b6064820152608490fd5b1561297057565b60405162461bcd60e51b815260206004820152602c60248201525f516020612c1e5f395f51905f5260448201526b6163746976652070726f787960a01b6064820152608490fd5b60048210156114b65752565b908060209392818452848401375f828201840152601f01601f1916010190565b6033546001600160a01b031633036129f757565b606460405162461bcd60e51b815260206004820152602060248201527f4f776e61626c653a2063616c6c6572206973206e6f7420746865206f776e65726044820152fd5b603380546001600160a01b039283166001600160a01b0319821681179092559091165f516020612c7e5f395f51905f525f80a3565b15612a7757565b60405162461bcd60e51b815260206004820152602b60248201527f496e697469616c697a61626c653a20636f6e7472616374206973206e6f74206960448201526a6e697469616c697a696e6760a81b6064820152608490fd5b803b15612b05575f516020612c5e5f395f51905f5280546001600160a01b0319166001600160a01b0392909216919091179055565b60405162461bcd60e51b815260206004820152602d60248201527f455243313936373a206e657720696d706c656d656e746174696f6e206973206e60448201526c1bdd08184818dbdb9d1c9858dd609a1b6064820152608490fd5b91929015612bc25750815115612b74575090565b3b15612b7d5790565b60405162461bcd60e51b815260206004820152601d60248201527f416464726573733a2063616c6c20746f206e6f6e2d636f6e74726163740000006044820152606490fd5b825190915015612bd55750805190602001fd5b60405162461bcd60e51b815260206004820152908190612bf990602483019061275e565b0390fdfe4910fdfa16fed3260ed0e7147f7cc6da11a60208b5b9406d12a635614ffd914346756e6374696f6e206d7573742062652063616c6c6564207468726f75676820f58567dccc9feaaaaa788e594c96bc85c6b2e6a8d2040c04b97195095e161178360894a13ba1a3210667c828492db98dca3e2076cc3735a920a3ca505d382bbc8be0079c531659141344cd1fd0a4f28419497f9722a3daafe3b4186f6b6457e0bc7cd75a20ee27fd9adebab32041f755214dbc6bffa90cc0225b39da2e5c2d3b45524331393637557067726164653a20756e737570706f727465642070726f78416464726573733a206c6f772d6c6576656c2064656c65676174652063616c6c45524331393637557067726164653a206e657720696d706c656d656e74617469a164736f6c634300081c000a","linkReferences":{}},"methodIdentifiers":{"actionToOwner(uint256)":"63ad59c7","gardenDomains(address)":"84751495","gardenHasDomain(address,uint8)":"328bccce","gardenToken()":"db61d65c","getAction(uint256)":"b6e76873","hatsModule()":"b4a9c607","idToAction(uint256)":"3347cdf7","initialize(address)":"c4d66de8","owner()":"8da5cb5b","proxiableUUID()":"52d1902d","registerAction(uint256,uint256,string,string,string,uint8[],string[],uint8)":"86b9535e","renounceOwnership()":"715018a6","setGardenDomains(address,uint8)":"27b17863","setGardenDomainsFromMint(address,uint8)":"8a782f00","setGardenToken(address)":"b709b7fd","setHatsModule(address)":"adcb9221","transferOwnership(address)":"f2fde38b","updateActionEndTime(uint256,uint256)":"2e94bd9b","updateActionInstructions(uint256,string)":"c8fc7af2","updateActionMedia(uint256,string[])":"4af7fa6a","updateActionStartTime(uint256,uint256)":"3df0300c","updateActionTitle(uint256,string)":"269a2709","upgradeTo(address)":"3659cfe6","upgradeToAndCall(address,bytes)":"4f1ef286"},"id":186}