{"abi":[{"type":"constructor","inputs":[],"stateMutability":"nonpayable"},{"type":"function","name":"actionToOwner","inputs":[{"name":"actionUID","type":"uint256","internalType":"uint256"}],"outputs":[{"name":"owner","type":"address","internalType":"address"}],"stateMutability":"view"},{"type":"function","name":"getAction","inputs":[{"name":"actionUID","type":"uint256","internalType":"uint256"}],"outputs":[{"name":"","type":"tuple","internalType":"struct ActionRegistry.Action","components":[{"name":"startTime","type":"uint256","internalType":"uint256"},{"name":"endTime","type":"uint256","internalType":"uint256"},{"name":"title","type":"string","internalType":"string"},{"name":"instructions","type":"string","internalType":"string"},{"name":"capitals","type":"uint8[]","internalType":"enum Capital[]"},{"name":"media","type":"string[]","internalType":"string[]"}]}],"stateMutability":"view"},{"type":"function","name":"idToAction","inputs":[{"name":"actionUID","type":"uint256","internalType":"uint256"}],"outputs":[{"name":"startTime","type":"uint256","internalType":"uint256"},{"name":"endTime","type":"uint256","internalType":"uint256"},{"name":"title","type":"string","internalType":"string"},{"name":"instructions","type":"string","internalType":"string"}],"stateMutability":"view"},{"type":"function","name":"initialize","inputs":[{"name":"_multisig","type":"address","internalType":"address"}],"outputs":[],"stateMutability":"nonpayable"},{"type":"function","name":"owner","inputs":[],"outputs":[{"name":"","type":"address","internalType":"address"}],"stateMutability":"view"},{"type":"function","name":"proxiableUUID","inputs":[],"outputs":[{"name":"","type":"bytes32","internalType":"bytes32"}],"stateMutability":"view"},{"type":"function","name":"registerAction","inputs":[{"name":"_startTime","type":"uint256","internalType":"uint256"},{"name":"_endTime","type":"uint256","internalType":"uint256"},{"name":"_title","type":"string","internalType":"string"},{"name":"_instructions","type":"string","internalType":"string"},{"name":"_capitals","type":"uint8[]","internalType":"enum Capital[]"},{"name":"_media","type":"string[]","internalType":"string[]"}],"outputs":[],"stateMutability":"nonpayable"},{"type":"function","name":"renounceOwnership","inputs":[],"outputs":[],"stateMutability":"nonpayable"},{"type":"function","name":"transferOwnership","inputs":[{"name":"newOwner","type":"address","internalType":"address"}],"outputs":[],"stateMutability":"nonpayable"},{"type":"function","name":"updateActionEndTime","inputs":[{"name":"actionUID","type":"uint256","internalType":"uint256"},{"name":"_endTime","type":"uint256","internalType":"uint256"}],"outputs":[],"stateMutability":"nonpayable"},{"type":"function","name":"updateActionInstructions","inputs":[{"name":"actionUID","type":"uint256","internalType":"uint256"},{"name":"_instructions","type":"string","internalType":"string"}],"outputs":[],"stateMutability":"nonpayable"},{"type":"function","name":"updateActionMedia","inputs":[{"name":"actionUID","type":"uint256","internalType":"uint256"},{"name":"_media","type":"string[]","internalType":"string[]"}],"outputs":[],"stateMutability":"nonpayable"},{"type":"function","name":"updateActionStartTime","inputs":[{"name":"actionUID","type":"uint256","internalType":"uint256"},{"name":"_startTime","type":"uint256","internalType":"uint256"}],"outputs":[],"stateMutability":"nonpayable"},{"type":"function","name":"updateActionTitle","inputs":[{"name":"actionUID","type":"uint256","internalType":"uint256"},{"name":"_title","type":"string","internalType":"string"}],"outputs":[],"stateMutability":"nonpayable"},{"type":"function","name":"upgradeTo","inputs":[{"name":"newImplementation","type":"address","internalType":"address"}],"outputs":[],"stateMutability":"nonpayable"},{"type":"function","name":"upgradeToAndCall","inputs":[{"name":"newImplementation","type":"address","internalType":"address"},{"name":"data","type":"bytes","internalType":"bytes"}],"outputs":[],"stateMutability":"payable"},{"type":"event","name":"ActionEndTimeUpdated","inputs":[{"name":"owner","type":"address","indexed":true,"internalType":"address"},{"name":"actionUID","type":"uint256","indexed":true,"internalType":"uint256"},{"name":"endTime","type":"uint256","indexed":true,"internalType":"uint256"}],"anonymous":false},{"type":"event","name":"ActionInstructionsUpdated","inputs":[{"name":"owner","type":"address","indexed":true,"internalType":"address"},{"name":"actionUID","type":"uint256","indexed":true,"internalType":"uint256"},{"name":"instructions","type":"string","indexed":true,"internalType":"string"}],"anonymous":false},{"type":"event","name":"ActionMediaUpdated","inputs":[{"name":"owner","type":"address","indexed":true,"internalType":"address"},{"name":"actionUID","type":"uint256","indexed":true,"internalType":"uint256"},{"name":"media","type":"string[]","indexed":true,"internalType":"string[]"}],"anonymous":false},{"type":"event","name":"ActionRegistered","inputs":[{"name":"owner","type":"address","indexed":false,"internalType":"address"},{"name":"actionUID","type":"uint256","indexed":true,"internalType":"uint256"},{"name":"startTime","type":"uint256","indexed":true,"internalType":"uint256"},{"name":"endTime","type":"uint256","indexed":true,"internalType":"uint256"},{"name":"title","type":"string","indexed":false,"internalType":"string"},{"name":"instructions","type":"string","indexed":false,"internalType":"string"},{"name":"capitals","type":"uint8[]","indexed":false,"internalType":"enum Capital[]"},{"name":"media","type":"string[]","indexed":false,"internalType":"string[]"}],"anonymous":false},{"type":"event","name":"ActionStartTimeUpdated","inputs":[{"name":"owner","type":"address","indexed":true,"internalType":"address"},{"name":"actionUID","type":"uint256","indexed":true,"internalType":"uint256"},{"name":"startTime","type":"uint256","indexed":true,"internalType":"uint256"}],"anonymous":false},{"type":"event","name":"ActionTitleUpdated","inputs":[{"name":"owner","type":"address","indexed":true,"internalType":"address"},{"name":"actionUID","type":"uint256","indexed":true,"internalType":"uint256"},{"name":"title","type":"string","indexed":true,"internalType":"string"}],"anonymous":false},{"type":"event","name":"AdminChanged","inputs":[{"name":"previousAdmin","type":"address","indexed":false,"internalType":"address"},{"name":"newAdmin","type":"address","indexed":false,"internalType":"address"}],"anonymous":false},{"type":"event","name":"BeaconUpgraded","inputs":[{"name":"beacon","type":"address","indexed":true,"internalType":"address"}],"anonymous":false},{"type":"event","name":"Initialized","inputs":[{"name":"version","type":"uint8","indexed":false,"internalType":"uint8"}],"anonymous":false},{"type":"event","name":"OwnershipTransferred","inputs":[{"name":"previousOwner","type":"address","indexed":true,"internalType":"address"},{"name":"newOwner","type":"address","indexed":true,"internalType":"address"}],"anonymous":false},{"type":"event","name":"Upgraded","inputs":[{"name":"implementation","type":"address","indexed":true,"internalType":"address"}],"anonymous":false},{"type":"error","name":"EndTimeBeforeStartTime","inputs":[]},{"type":"error","name":"NotActionOwner","inputs":[]},{"type":"error","name":"StartTimeAfterEndTime","inputs":[]}],"bytecode":{"object":"0x60a0806040523460d657306080525f549060ff8260081c166084575060ff80821603604b575b6040516127d390816100db82396080518181816115b6015281816116af0152611c7b0152f35b60ff90811916175f557f7f26b83ff96e1f2b6a682f133852f6798a09c465da95921460cefb3847402498602060405160ff8152a15f6025565b62461bcd60e51b815260206004820152602760248201527f496e697469616c697a61626c653a20636f6e747261637420697320696e697469604482015266616c697a696e6760c81b6064820152608490fd5b5f80fdfe60a0806040526004361015610012575f80fd5b5f3560e01c908163269a270914611fd6575080632e94bd9b14611f555780633347cdf714611edf5780633659cfe614611c565780633df0300c14611bc35780634af7fa6a1461191a5780634f1ef2861461166157806352d1902d146115a457806363ad59c714611572578063715018a6146115175780638da5cb5b146114ef578063b6e7687314610b9f578063c4d66de814610a5e578063c8fc7af214610907578063f2fde38b146108785763ff51b68f146100cc575f80fd5b346104b95760c03660031901126104b9576044356001600160401b0381116104b9576100fc903690600401612118565b906064356001600160401b0381116104b95761011c903690600401612118565b92906084356001600160401b0381116104b95761013d90369060040161240f565b60a4929192356001600160401b0381116104b95761015f90369060040161240f565b92909561016a61257a565b600435602435111561086657606554955f19871461085257600187016065555f878152606660205260409081902080546001600160a01b03191633179055516101b2816121c6565b600435815260243560208201526101ca36838561234d565b60408201526101da368b8661234d565b60608201526101e88561231b565b6101f560405191826121fc565b85815260208101368760051b8a01116104b95788905b8760051b8a018210610839575050608082015261022936878b612383565b60a0820152875f52606760205260405f2090805182556020810151600183015560408101518051906001600160401b0382116105d25761027982610270600287015461218e565b60028701612455565b602090601f83116001146107cb576102a892915f918361055b575b50508160011b915f199060031b1c19161790565b60028301555b60608101518051906001600160401b0382116105d2576102de826102d5600387015461218e565b60038701612455565b602090601f831160011461075d5761030c92915f918361055b5750508160011b915f199060031b1c19161790565b60038301555b60808101518051906001600160401b0382116105d257600160401b82116105d2576020906004850154836004870155808410610710575b500190600484015f5260205f20905f5b8160051c81106106c45750601f19811680820361065a575b5050505060a00151805190600160401b82116105d25760058301548260058501558083106105e6575b5060206005919b999b0192015f5260205f20915f905b8282106104e95750505050916020986103de6103ec938b9560a06040519d8e338152015260a08d019161255a565b918a830360408c015261255a565b87810360608901528281520194905f905b8082106104bd575050508484036080860152808452602084019060208160051b86010194835f915b83831061045b57602435600435887fbbc527f64ae4d41bd1cc3c2fdef269b5ee905cf565f1e8ccdaa2965ea5fddcdf8c8c038da4005b909192939496601f198282030186528735601e19843603018112156104b957830190602082359201916001600160401b0381116104b95780360383136104b9576104ab602092839260019561255a565b990196019493019190610425565b5f80fd5b9091939584359060088210156104b9576020816104dd8293600195612402565b019795019201906103fd565b809b999b518051906001600160401b0382116105d2576105138261050d885461218e565b88612455565b602090601f83116001146105665792610549836001959460209487965f9261055b5750508160011b915f199060031b1c19161790565b87555b019401910190929a989a6103b0565b015190505f80610294565b90865f5260205f20915f5b601f19851681106105ba575083602093600196938796938794601f198116106105a2575b505050811b01875561054c565b01515f1960f88460031b161c191690555f8080610595565b91926020600181928685015181550194019201610571565b634e487b7160e01b5f52604160045260245ffd5b600584015f5260205f20908382015b818301811061060557505061039a565b806106126001925461218e565b8061061f575b50016105f5565b601f8111831461063457505f81555b5f610618565b5f90828252610651601f60208420920160051c820185830161243f565b8183555561062e565b925f935f5b818403811061067a5750505060051c015560a05f8080610371565b909194855160088110156106b0576106a6602091846001949060ff809160031b9316831b921b19161790565b960192910161065f565b634e487b7160e01b5f52602160045260245ffd5b5f805b602081106106dc575083820155600101610359565b9490815160088110156106b057610707602091886001949060ff809160031b9316831b921b19161790565b920195016106c7565b61073d90600487015f52835f20601f80870160051c82019281881680610743575b500160051c019061243f565b5f610349565b5f198501908154905f19908a0360031b1c1690555f610731565b9190600385015f5260205f20905f935b601f19841685106107b0576001945083601f19811610610798575b505050811b016003830155610312565b01515f1960f88460031b161c191690555f8080610788565b8181015183556020948501946001909301929091019061076d565b9190600285015f5260205f20905f935b601f198416851061081e576001945083601f19811610610806575b505050811b0160028301556102ae565b01515f1960f88460031b161c191690555f80806107f6565b818101518355602094850194600190930192909101906107db565b813560088110156104b95781526020918201910161020b565b634e487b7160e01b5f52601160045260245ffd5b604051634313345360e01b8152600490fd5b346104b95760203660031901126104b957610891612305565b61089961257a565b6001600160a01b038116156108b3576108b1906125d2565b005b60405162461bcd60e51b815260206004820152602660248201527f4f776e61626c653a206e6577206f776e657220697320746865207a65726f206160448201526564647265737360d01b6064820152608490fd5b346104b95761091536612145565b825f9392935260206066815260018060a01b03908160405f2054163303610a4c57835f5260678152600360405f2001906001600160401b0384116105d25761096784610961845461218e565b84612455565b5f9184601f81116001146109e85780610997916066955f916109dd575b508160011b915f199060031b1c19161790565b90555b845f525260405f2054169281604051928392833781015f8152039020917fb8b628e3d03eb52cbeb1e1e549e662dd9c44f2e61bf702a9f052ea2d1b1608dc5f80a4005b90508901358a610984565b50601f19851692815f52825f2090865f5b868110610a32575060669510610a19575b5050600185811b01905561099a565b8801355f19600388901b60f8161c191690558780610a0a565b8a83013584556001909301929185019188915085016109f9565b604051639a13c39960e01b8152600490fd5b346104b95760203660031901126104b957610a77612305565b5f5460ff8160081c161591828093610b92575b8015610b7b575b15610b1f5760ff1982166001175f55610ad29183610b0e575b50610ac460ff5f5460081c16610abf8161261a565b61261a565b610acd336125d2565b6125d2565b610ad857005b61ff00195f54165f557f7f26b83ff96e1f2b6a682f133852f6798a09c465da95921460cefb3847402498602060405160018152a1005b61ffff1916610101175f5583610aaa565b60405162461bcd60e51b815260206004820152602e60248201527f496e697469616c697a61626c653a20636f6e747261637420697320616c72656160448201526d191e481a5b9a5d1a585b1a5e995960921b6064820152608490fd5b50303b158015610a915750600160ff831614610a91565b50600160ff831610610a8a565b346104b95760203660031901126104b957606060a0604051610bc0816121c6565b5f81525f6020820152826040820152828082015282608082015201526004355f52606760205260405f20604051610bf6816121c6565b8154815260018201546020820152610c106002830161221d565b6040820152610c216003830161221d565b6060820152600482019160405180938491602082549182815201915f5260205f20905f915b81601f8401106112835791610d66939160059695935491818110611268575b81811061124a575b81811061122c575b81811061120e575b8181106111f1575b8181106111d3575b8181106111b5575b818110611197575b818110611179575b81811061115b575b81811061113d575b81811061111f575b818110611101575b8181106110e3575b8181106110c5575b8181106110a7575b818110611089575b81811061106b575b81811061104d575b81811061102f575b818110611011575b818110610ff3575b818110610fd5575b818110610fb7575b818110610f99575b818110610f7b575b818110610f5d575b818110610f3f575b818110610f21575b818110610f03575b818110610ee5575b10610ece575b5095949503846121fc565b6080840192835201908154610d7a8161231b565b92610d8860405194856121fc565b81845260208401905f5260205f205f915b838310610eab575050505060a08301918252604051928392602084528151602085015260208201516040850152610dfa6060610de3604085015160c08389015260e08801906122e0565b93015192601f1993848783030160808801526122e0565b925192828582030160a0860152602080855192838152019401905f5b818110610e84575050505191818482030160c0850152825190818152602081016020808460051b8401019501935f925b848410610e535787870388f35b91939581939597506020610e7282600194868495030188528a516122e0565b98019401940191879695939491610e46565b919460019193949650602081610e9c82938951612402565b01950191019186959392610e16565b600160208192610ebd859a999a61221d565b815201920192019190959495610d99565b90610ede8160209360f81c612402565b0187610d5b565b92602081610efb60019360ff8760f01c16612402565b019301610d55565b92602081610f1960019360ff8760e81c16612402565b019301610d4d565b92602081610f3760019360ff8760e01c16612402565b019301610d45565b92602081610f5560019360ff8760d81c16612402565b019301610d3d565b92602081610f7360019360ff8760d01c16612402565b019301610d35565b92602081610f9160019360ff8760c81c16612402565b019301610d2d565b92602081610faf60019360ff8760c01c16612402565b019301610d25565b92602081610fcd60019360ff8760b81c16612402565b019301610d1d565b92602081610feb60019360ff8760b01c16612402565b019301610d15565b9260208161100960019360ff8760a81c16612402565b019301610d0d565b9260208161102760019360ff8760a01c16612402565b019301610d05565b9260208161104560019360ff8760981c16612402565b019301610cfd565b9260208161106360019360ff8760901c16612402565b019301610cf5565b9260208161108160019360ff8760881c16612402565b019301610ced565b9260208161109f60019360ff8760801c16612402565b019301610ce5565b926020816110bd60019360ff8760781c16612402565b019301610cdd565b926020816110db60019360ff8760701c16612402565b019301610cd5565b926020816110f960019360ff8760681c16612402565b019301610ccd565b9260208161111760019360ff8760601c16612402565b019301610cc5565b9260208161113560019360ff8760581c16612402565b019301610cbd565b9260208161115360019360ff8760501c16612402565b019301610cb5565b9260208161117160019360ff8760481c16612402565b019301610cad565b9260208161118f60019360ff8760401c16612402565b019301610ca5565b926020816111ad60019360ff8760381c16612402565b019301610c9d565b926020816111cb60019360ff8760301c16612402565b019301610c95565b926020816111e960019360ff8760281c16612402565b019301610c8d565b9260208161120660019360ff87851c16612402565b019301610c85565b9260208161122460019360ff8760181c16612402565b019301610c7d565b9260208161124260019360ff8760101c16612402565b019301610c75565b9260208161126060019360ff8760081c16612402565b019301610c6d565b9260208161127b60019360ff8716612402565b019301610c65565b9350909160016104006020926114e187546114d360ff6112a585828516612402565b6112b6888601828560081c16612402565b6112c860408601828560101c16612402565b6112da60608601828560181c16612402565b6112eb6080860182858b1c16612402565b6112fd60a08601828560281c16612402565b61146460c0611313818801848760301c16612402565b61132560e08801848760381c16612402565b6113386101008801848760401c16612402565b61134b6101208801848760481c16612402565b61135e6101408801848760501c16612402565b6113716101608801848760581c16612402565b6113846101808801848760601c16612402565b6113976101a08801848760681c16612402565b6113aa6101c08801848760701c16612402565b6113bd6101e08801848760781c16612402565b6113d06102008801848760801c16612402565b6113e36102208801848760881c16612402565b6113f66102408801848760901c16612402565b6114096102608801848760981c16612402565b61141c6102808801848760a01c16612402565b61142f6102a08801848760a81c16612402565b6114426102c08801848760b01c16612402565b6114556102e08801848760b81c16612402565b82856103008901921c16612402565b6114776103208601828560c81c16612402565b61148a6103408601828560d01c16612402565b61149d6103608601828560d81c16612402565b6114b06103808601828560e01c16612402565b6114c36103a08601828560e81c16612402565b6103c08501908360f01c16612402565b6103e083019060f81c612402565b019401920190869392610c46565b346104b9575f3660031901126104b9576033546040516001600160a01b039091168152602090f35b346104b9575f3660031901126104b95761152f61257a565b603380546001600160a01b031981169091555f906001600160a01b03167f8be0079c531659141344cd1fd0a4f28419497f9722a3daafe3b4186f6b6457e08280a3005b346104b95760203660031901126104b9576004355f526066602052602060018060a01b0360405f205416604051908152f35b346104b9575f3660031901126104b9577f00000000000000000000000000000000000000000000000000000000000000006001600160a01b031630036115fb5760206040515f805160206127a78339815191528152f35b60405162461bcd60e51b815260206004820152603860248201527f555550535570677261646561626c653a206d757374206e6f742062652063616c6044820152771b1959081d1a1c9bdd59da0819195b1959d85d1958d85b1b60421b6064820152608490fd5b60403660031901126104b957611675612305565b6024356001600160401b0381116104b957366023820112156104b9576116a590369060248160040135910161234d565b6001600160a01b037f0000000000000000000000000000000000000000000000000000000000000000811691906116de30841415612498565b6116fa5f805160206127a78339815191529382855416146124f9565b61170261257a565b7f4910fdfa16fed3260ed0e7147f7cc6da11a60208b5b9406d12a635614ffd91435460ff1615611738575050506108b19061267a565b8316604051926352d1902d60e01b84526020938481600481865afa5f91816118eb575b506117bc5760405162461bcd60e51b815260048101869052602e60248201527f45524331393637557067726164653a206e657720696d706c656d656e7461746960448201526d6f6e206973206e6f74205555505360901b6064820152608490fd5b93929303611894576117cd8461267a565b7fbc7cd75a20ee27fd9adebab32041f755214dbc6bffa90cc0225b39da2e5c2d3b5f80a281511580159061188c575b61180257005b6108b1925f8060405194611815866121e1565b602786527f416464726573733a206c6f772d6c6576656c2064656c65676174652063616c6c85870152660819985a5b195960ca1b60408701528481519101845af4903d15611883573d61186781612332565b9061187560405192836121fc565b81525f81943d92013e612709565b60609250612709565b5060016117fc565b60405162461bcd60e51b815260048101839052602960248201527f45524331393637557067726164653a20756e737570706f727465642070726f786044820152681a58589b195555525160ba1b6064820152608490fd5b9091508581813d8311611913575b61190381836121fc565b810103126104b95751908761175b565b503d6118f9565b346104b95760403660031901126104b95760246004356001600160401b0382358181116104b957366023820112156104b957611960903690602481600401359101612383565b5f8381526020608081905260669052604090205490916001600160a01b039182163303610a4c57835f5260676080515260058060405f200195845191600160401b83116105d257875490838955818410611b51575b50506080515f978852808820959790880195939091865b848410611a5d57505050505050825f5260666080515260405f2054169260405191828392519091905f5b818110611a2a57505050039020917f53497616fe214eb98d693e0c2768611961d5ccea19dc0c584e05a0903fc1b11e5f80a4005b9193509180600191611a4586518051928391608051016122bf565b601f80199101160193608051019101918493926119f6565b8099979951805190848211611b3e57611a8082611a7a8a5461218e565b8a612455565b60805190601f8311600114611ad5578260019492938594611ab5935f92611aca5750508160011b915f199060031b1c19161790565b88555b608051019601930192949896986119cc565b015190508f80610294565b90601f19831691895f526080515f20925f5b818110611b2557509160019593918587969410611b0d575b505050821b82018855611ab8565b01515f1960f88460031b161c191690558d8080611aff565b8284015185556080516001909501949384019301611ae7565b83634e487b7160e01b5f5260416004525ffd5b885f52836080515f2092830192015b828110611b6d57506119b5565b80611b7a6001925461218e565b80611b87575b5001611b60565b601f908181118414611b9f5750505f81555b8b611b80565b611bba5f9284845260805184209201861c820185830161243f565b81835555611b99565b346104b957611bd136612178565b90805f52606660205260018060a01b038060405f2054163303610a4c57815f526067602052600160405f200154831015611c4457815f5260676020528260405f2055606660205260405f2054167f7bd23689d74c8c6f2522c189c1e4c939b2d260851a54f4582d147a928ba1137b5f80a4005b60405163f70f6ef160e01b8152600490fd5b346104b9576020806003193601126104b957611c70612305565b6001600160a01b03917f00000000000000000000000000000000000000000000000000000000000000008316611ca830821415612498565b611cc45f805160206127a78339815191529185835416146124f9565b611ccc61257a565b60405190828201948286106001600160401b038711176105d257856040525f835260ff7f4910fdfa16fed3260ed0e7147f7cc6da11a60208b5b9406d12a635614ffd914354165f14611d2657505050506108b1915061267a565b8492939416906040516352d1902d60e01b81528581600481865afa5f9181611eb0575b50611daa5760405162461bcd60e51b815260048101879052602e60248201527f45524331393637557067726164653a206e657720696d706c656d656e7461746960448201526d6f6e206973206e6f74205555505360901b6064820152608490fd5b94939403611e5957611dbb8261267a565b7fbc7cd75a20ee27fd9adebab32041f755214dbc6bffa90cc0225b39da2e5c2d3b5f80a2825115801590611e52575b611df057005b5f806108b19560405195611e03876121e1565b602787527f416464726573733a206c6f772d6c6576656c2064656c65676174652063616c6c86880152660819985a5b195960ca1b60408801525190845af4903d15611883573d61186781612332565b505f611dea565b60405162461bcd60e51b815260048101849052602960248201527f45524331393637557067726164653a20756e737570706f727465642070726f786044820152681a58589b195555525160ba1b6064820152608490fd5b9091508681813d8311611ed8575b611ec881836121fc565b810103126104b957519088611d49565b503d611ebe565b346104b95760203660031901126104b9576004355f52606760205260405f208054611f51600183015492611f43611f246003611f1d6002850161221d565b930161221d565b91604051958695865260208601526080604086015260808501906122e0565b9083820360608501526122e0565b0390f35b346104b957611f6336612178565b90805f52606660205260018060a01b038060405f2054163303610a4c57815f52606760205260405f205483111561086657815f52606760205282600160405f200155606660205260405f2054167f96c1c206b4ffcf38cc94373b4b0a7f97015288aca64d758f0612f6473b849be95f80a4005b346104b957611fe436612145565b9092825f5260206066815260018060a01b03918260405f20541633036121095750835f5260678152600260405f2001906001600160401b0384116105d25761203084610961845461218e565b5f9184601f81116001146120a5578061205f916066955f916109dd57508160011b915f199060031b1c19161790565b90555b845f525260405f2054169281604051928392833781015f8152039020917fd48948061a4fec22a69037295e8a51653c1140e50cee189a95263e29809504365f80a4005b50601f19851692815f52825f2090865f5b8681106120ef5750606695106120d6575b5050600185811b019055612062565b8801355f19600388901b60f8161c1916905587806120c7565b8a83013584556001909301929185019188915085016120b6565b639a13c39960e01b8152600490fd5b9181601f840112156104b9578235916001600160401b0383116104b957602083818601950101116104b957565b9060406003198301126104b95760043591602435906001600160401b0382116104b95761217491600401612118565b9091565b60409060031901126104b9576004359060243590565b90600182811c921680156121bc575b60208310146121a857565b634e487b7160e01b5f52602260045260245ffd5b91607f169161219d565b60c081019081106001600160401b038211176105d257604052565b606081019081106001600160401b038211176105d257604052565b90601f801991011681019081106001600160401b038211176105d257604052565b9060405191825f825461222f8161218e565b908184526020946001916001811690815f1461229d575060011461225f575b50505061225d925003836121fc565b565b5f90815285812095935091905b81831061228557505061225d93508201015f808061224e565b8554888401850152948501948794509183019161226c565b9250505061225d94925060ff191682840152151560051b8201015f808061224e565b5f5b8381106122d05750505f910152565b81810151838201526020016122c1565b906020916122f9815180928185528580860191016122bf565b601f01601f1916010190565b600435906001600160a01b03821682036104b957565b6001600160401b0381116105d25760051b60200190565b6001600160401b0381116105d257601f01601f191660200190565b92919261235982612332565b9161236760405193846121fc565b8294818452818301116104b9578281602093845f960137010152565b929190926123908461231b565b9161239e60405193846121fc565b829480845260208094019060051b8301928284116104b95780915b8483106123c857505050505050565b82356001600160401b0381116104b957820184601f820112156104b95786916123f7868385809535910161234d565b8152019201916123b9565b9060088210156106b05752565b9181601f840112156104b9578235916001600160401b0383116104b9576020808501948460051b0101116104b957565b81811061244a575050565b5f815560010161243f565b9190601f811161246457505050565b61225d925f5260205f20906020601f840160051c8301931061248e575b601f0160051c019061243f565b9091508190612481565b1561249f57565b60405162461bcd60e51b815260206004820152602c60248201527f46756e6374696f6e206d7573742062652063616c6c6564207468726f7567682060448201526b19195b1959d85d1958d85b1b60a21b6064820152608490fd5b1561250057565b60405162461bcd60e51b815260206004820152602c60248201527f46756e6374696f6e206d7573742062652063616c6c6564207468726f7567682060448201526b6163746976652070726f787960a01b6064820152608490fd5b908060209392818452848401375f828201840152601f01601f1916010190565b6033546001600160a01b0316330361258e57565b606460405162461bcd60e51b815260206004820152602060248201527f4f776e61626c653a2063616c6c6572206973206e6f7420746865206f776e65726044820152fd5b603380546001600160a01b039283166001600160a01b0319821681179092559091167f8be0079c531659141344cd1fd0a4f28419497f9722a3daafe3b4186f6b6457e05f80a3565b1561262157565b60405162461bcd60e51b815260206004820152602b60248201527f496e697469616c697a61626c653a20636f6e7472616374206973206e6f74206960448201526a6e697469616c697a696e6760a81b6064820152608490fd5b803b156126ae575f805160206127a783398151915280546001600160a01b0319166001600160a01b03909216919091179055565b60405162461bcd60e51b815260206004820152602d60248201527f455243313936373a206e657720696d706c656d656e746174696f6e206973206e60448201526c1bdd08184818dbdb9d1c9858dd609a1b6064820152608490fd5b9192901561276b575081511561271d575090565b3b156127265790565b60405162461bcd60e51b815260206004820152601d60248201527f416464726573733a2063616c6c20746f206e6f6e2d636f6e74726163740000006044820152606490fd5b82519091501561277e5750805190602001fd5b60405162461bcd60e51b8152602060048201529081906127a29060248301906122e0565b0390fdfe360894a13ba1a3210667c828492db98dca3e2076cc3735a920a3ca505d382bbca164736f6c6343000819000a","linkReferences":{}},"methodIdentifiers":{"actionToOwner(uint256)":"63ad59c7","getAction(uint256)":"b6e76873","idToAction(uint256)":"3347cdf7","initialize(address)":"c4d66de8","owner()":"8da5cb5b","proxiableUUID()":"52d1902d","registerAction(uint256,uint256,string,string,uint8[],string[])":"ff51b68f","renounceOwnership()":"715018a6","transferOwnership(address)":"f2fde38b","updateActionEndTime(uint256,uint256)":"2e94bd9b","updateActionInstructions(uint256,string)":"c8fc7af2","updateActionMedia(uint256,string[])":"4af7fa6a","updateActionStartTime(uint256,uint256)":"3df0300c","updateActionTitle(uint256,string)":"269a2709","upgradeTo(address)":"3659cfe6","upgradeToAndCall(address,bytes)":"4f1ef286"},"id":148}