{"abi":[{"type":"constructor","inputs":[],"stateMutability":"nonpayable"},{"type":"function","name":"actionToOwner","inputs":[{"name":"actionUID","type":"uint256","internalType":"uint256"}],"outputs":[{"name":"owner","type":"address","internalType":"address"}],"stateMutability":"view"},{"type":"function","name":"getAction","inputs":[{"name":"actionUID","type":"uint256","internalType":"uint256"}],"outputs":[{"name":"","type":"tuple","internalType":"struct ActionRegistry.Action","components":[{"name":"startTime","type":"uint256","internalType":"uint256"},{"name":"endTime","type":"uint256","internalType":"uint256"},{"name":"title","type":"string","internalType":"string"},{"name":"instructions","type":"string","internalType":"string"},{"name":"capitals","type":"uint8[]","internalType":"enum Capital[]"},{"name":"media","type":"string[]","internalType":"string[]"}]}],"stateMutability":"view"},{"type":"function","name":"idToAction","inputs":[{"name":"actionUID","type":"uint256","internalType":"uint256"}],"outputs":[{"name":"startTime","type":"uint256","internalType":"uint256"},{"name":"endTime","type":"uint256","internalType":"uint256"},{"name":"title","type":"string","internalType":"string"},{"name":"instructions","type":"string","internalType":"string"}],"stateMutability":"view"},{"type":"function","name":"initialize","inputs":[{"name":"_multisig","type":"address","internalType":"address"}],"outputs":[],"stateMutability":"nonpayable"},{"type":"function","name":"owner","inputs":[],"outputs":[{"name":"","type":"address","internalType":"address"}],"stateMutability":"view"},{"type":"function","name":"proxiableUUID","inputs":[],"outputs":[{"name":"","type":"bytes32","internalType":"bytes32"}],"stateMutability":"view"},{"type":"function","name":"registerAction","inputs":[{"name":"_startTime","type":"uint256","internalType":"uint256"},{"name":"_endTime","type":"uint256","internalType":"uint256"},{"name":"_title","type":"string","internalType":"string"},{"name":"_instructions","type":"string","internalType":"string"},{"name":"_capitals","type":"uint8[]","internalType":"enum Capital[]"},{"name":"_media","type":"string[]","internalType":"string[]"}],"outputs":[],"stateMutability":"nonpayable"},{"type":"function","name":"renounceOwnership","inputs":[],"outputs":[],"stateMutability":"nonpayable"},{"type":"function","name":"transferOwnership","inputs":[{"name":"newOwner","type":"address","internalType":"address"}],"outputs":[],"stateMutability":"nonpayable"},{"type":"function","name":"updateActionEndTime","inputs":[{"name":"actionUID","type":"uint256","internalType":"uint256"},{"name":"_endTime","type":"uint256","internalType":"uint256"}],"outputs":[],"stateMutability":"nonpayable"},{"type":"function","name":"updateActionInstructions","inputs":[{"name":"actionUID","type":"uint256","internalType":"uint256"},{"name":"_instructions","type":"string","internalType":"string"}],"outputs":[],"stateMutability":"nonpayable"},{"type":"function","name":"updateActionMedia","inputs":[{"name":"actionUID","type":"uint256","internalType":"uint256"},{"name":"_media","type":"string[]","internalType":"string[]"}],"outputs":[],"stateMutability":"nonpayable"},{"type":"function","name":"updateActionStartTime","inputs":[{"name":"actionUID","type":"uint256","internalType":"uint256"},{"name":"_startTime","type":"uint256","internalType":"uint256"}],"outputs":[],"stateMutability":"nonpayable"},{"type":"function","name":"updateActionTitle","inputs":[{"name":"actionUID","type":"uint256","internalType":"uint256"},{"name":"_title","type":"string","internalType":"string"}],"outputs":[],"stateMutability":"nonpayable"},{"type":"function","name":"upgradeTo","inputs":[{"name":"newImplementation","type":"address","internalType":"address"}],"outputs":[],"stateMutability":"nonpayable"},{"type":"function","name":"upgradeToAndCall","inputs":[{"name":"newImplementation","type":"address","internalType":"address"},{"name":"data","type":"bytes","internalType":"bytes"}],"outputs":[],"stateMutability":"payable"},{"type":"event","name":"ActionEndTimeUpdated","inputs":[{"name":"owner","type":"address","indexed":true,"internalType":"address"},{"name":"actionUID","type":"uint256","indexed":true,"internalType":"uint256"},{"name":"endTime","type":"uint256","indexed":true,"internalType":"uint256"}],"anonymous":false},{"type":"event","name":"ActionInstructionsUpdated","inputs":[{"name":"owner","type":"address","indexed":true,"internalType":"address"},{"name":"actionUID","type":"uint256","indexed":true,"internalType":"uint256"},{"name":"instructions","type":"string","indexed":true,"internalType":"string"}],"anonymous":false},{"type":"event","name":"ActionMediaUpdated","inputs":[{"name":"owner","type":"address","indexed":true,"internalType":"address"},{"name":"actionUID","type":"uint256","indexed":true,"internalType":"uint256"},{"name":"media","type":"string[]","indexed":true,"internalType":"string[]"}],"anonymous":false},{"type":"event","name":"ActionRegistered","inputs":[{"name":"owner","type":"address","indexed":false,"internalType":"address"},{"name":"actionUID","type":"uint256","indexed":true,"internalType":"uint256"},{"name":"startTime","type":"uint256","indexed":true,"internalType":"uint256"},{"name":"endTime","type":"uint256","indexed":true,"internalType":"uint256"},{"name":"title","type":"string","indexed":false,"internalType":"string"},{"name":"instructions","type":"string","indexed":false,"internalType":"string"},{"name":"capitals","type":"uint8[]","indexed":false,"internalType":"enum Capital[]"},{"name":"media","type":"string[]","indexed":false,"internalType":"string[]"}],"anonymous":false},{"type":"event","name":"ActionStartTimeUpdated","inputs":[{"name":"owner","type":"address","indexed":true,"internalType":"address"},{"name":"actionUID","type":"uint256","indexed":true,"internalType":"uint256"},{"name":"startTime","type":"uint256","indexed":true,"internalType":"uint256"}],"anonymous":false},{"type":"event","name":"ActionTitleUpdated","inputs":[{"name":"owner","type":"address","indexed":true,"internalType":"address"},{"name":"actionUID","type":"uint256","indexed":true,"internalType":"uint256"},{"name":"title","type":"string","indexed":true,"internalType":"string"}],"anonymous":false},{"type":"event","name":"AdminChanged","inputs":[{"name":"previousAdmin","type":"address","indexed":false,"internalType":"address"},{"name":"newAdmin","type":"address","indexed":false,"internalType":"address"}],"anonymous":false},{"type":"event","name":"BeaconUpgraded","inputs":[{"name":"beacon","type":"address","indexed":true,"internalType":"address"}],"anonymous":false},{"type":"event","name":"Initialized","inputs":[{"name":"version","type":"uint8","indexed":false,"internalType":"uint8"}],"anonymous":false},{"type":"event","name":"OwnershipTransferred","inputs":[{"name":"previousOwner","type":"address","indexed":true,"internalType":"address"},{"name":"newOwner","type":"address","indexed":true,"internalType":"address"}],"anonymous":false},{"type":"event","name":"Upgraded","inputs":[{"name":"implementation","type":"address","indexed":true,"internalType":"address"}],"anonymous":false},{"type":"error","name":"EndTimeBeforeStartTime","inputs":[]},{"type":"error","name":"NotActionOwner","inputs":[]},{"type":"error","name":"StartTimeAfterEndTime","inputs":[]}],"bytecode":{"object":"0x60a0806040523460d657306080525f549060ff8260081c166084575060ff80821603604b575b60405161277190816100db823960805181818161156e015281816116670152611bc70152f35b60ff90811916175f557f7f26b83ff96e1f2b6a682f133852f6798a09c465da95921460cefb3847402498602060405160ff8152a15f6025565b62461bcd60e51b815260206004820152602760248201527f496e697469616c697a61626c653a20636f6e747261637420697320696e697469604482015266616c697a696e6760c81b6064820152608490fd5b5f80fdfe60a0806040526004361015610012575f80fd5b5f3560e01c908163269a270914611ec5575080632e94bd9b14611e445780633347cdf714611dce5780633659cfe614611ba25780633df0300c14611b0f5780634af7fa6a146118735780634f1ef2861461161957806352d1902d1461155c57806363ad59c71461152a578063715018a6146114e25780638da5cb5b146114ba578063b6e7687314610b6a578063c4d66de814610a29578063c8fc7af2146108de578063f2fde38b1461084f5763ff51b68f146100cc575f80fd5b3461049d5760c036600319011261049d576044356001600160401b03811161049d576100fc903690600401611ffb565b906064356001600160401b03811161049d5761011c903690600401611ffb565b92906084356001600160401b03811161049d5761013d9036906004016122f4565b90919060a4356001600160401b03811161049d5761015f9036906004016122f4565b92909561016a61244b565b600435602435111561083d57606554955f19871461082957600187016065555f878152606660205260409081902080546001600160a01b03191633179055516101b2816120a9565b600435815260243560208201526101ca368385612232565b60408201526101da368b86612232565b60608201526101e885612200565b6101f560405191826120df565b85815260208101368760051b8a011161049d5788905b8760051b8a018210610810575050608082015261022936878b612268565b60a0820152875f52606760205260405f20908051825560208101516001830155604081015180519060018060401b0382116105a9576102788261026f6002870154612071565b6002870161233a565b602090601f83116001146107a25761029a92915f9183610532575b505061237d565b60028301555b60608101518051906001600160401b0382116105a9576102d0826102c76003870154612071565b6003870161233a565b602090601f8311600114610734576102f192915f918361053257505061237d565b60038301555b60808101518051906001600160401b0382116105a957600160401b82116105a95760209060048501548360048701558084106106e7575b500190600484015f5260205f20905f5b8160051c811061069b5750601f198116808203610631575b5050505060a00151805190600160401b82116105a95760058301548260058501558083106105bd575b5060206005919b999b0192015f5260205f20915f905b8282106104cd5750505050916020986103c36103d1938b9560a06040519d8e338152015260a08d019161242b565b918a830360408c015261242b565b87810360608901528281520194905f905b8082106104a1575050508484036080860152808452602084019060208160051b86010194835f915b83831061044057602435600435887fbbc527f64ae4d41bd1cc3c2fdef269b5ee905cf565f1e8ccdaa2965ea5fddcdf8c8c038da4005b909192939496601f198282030186528735601e198436030181121561049d578301602081019190356001600160401b03811161049d57803603831361049d5761048f602092839260019561242b565b99019601949301919061040a565b5f80fd5b90919395843590600882101561049d576020816104c182936001956122e7565b019795019201906103e2565b805180519a9c9a906001600160401b0382116105a9576104f7826104f18854612071565b8861233a565b602090601f831160011461053d5792610520836001959460209487965f9261053257505061237d565b87555b019401910190929a989a610395565b015190505f80610293565b90865f5260205f20915f5b601f1985168110610591575083602093600196938796938794601f19811610610579575b505050811b018755610523565b01515f1960f88460031b161c191690555f808061056c565b91926020600181928685015181550194019201610548565b634e487b7160e01b5f52604160045260245ffd5b600584015f5260205f20908382015b81830181106105dc57505061037f565b806105e960019254612071565b806105f6575b50016105cc565b601f8111831461060b57505f81555b5f6105ef565b5f90828252610628601f60208420920160051c8201858301612324565b81835555610605565b925f935f5b81840381106106515750505060051c015560a05f8080610356565b909194855160088110156106875761067d602091846001949060ff809160031b9316831b921b19161790565b9601929101610636565b634e487b7160e01b5f52602160045260245ffd5b5f805b602081106106b357508382015560010161033e565b949081516008811015610687576106de602091886001949060ff809160031b9316831b921b19161790565b9201950161069e565b61071490600487015f52835f20601f80870160051c8201928188168061071a575b500160051c0190612324565b5f61032e565b5f198501908154905f19908a0360031b1c1690555f610708565b9190600385015f5260205f20905f935b601f1984168510610787576001945083601f1981161061076f575b505050811b0160038301556102f7565b01515f1960f88460031b161c191690555f808061075f565b81810151835560209485019460019093019290910190610744565b9190600285015f5260205f20905f935b601f19841685106107f5576001945083601f198116106107dd575b505050811b0160028301556102a0565b01515f1960f88460031b161c191690555f80806107cd565b818101518355602094850194600190930192909101906107b2565b8135600881101561049d5781526020918201910161020b565b634e487b7160e01b5f52601160045260245ffd5b604051634313345360e01b8152600490fd5b3461049d57602036600319011261049d576108686121ea565b61087061244b565b6001600160a01b0381161561088a57610888906124a3565b005b60405162461bcd60e51b815260206004820152602660248201527f4f776e61626c653a206e6577206f776e657220697320746865207a65726f206160448201526564647265737360d01b6064820152608490fd5b3461049d576108ec36612028565b825f9392935260206066815260018060a01b03908160405f2054163303610a17575f8481526067825260409020600301906001600160401b0384116105a95761093f846109398454612071565b8461233a565b5f9184601f81116001146109b35780610962916066955f916109a8575b5061237d565b90555b845f525260405f2054169281604051928392833781015f8152039020917fb8b628e3d03eb52cbeb1e1e549e662dd9c44f2e61bf702a9f052ea2d1b1608dc5f80a4005b90508901358a61095c565b50601f19851692815f52825f2090865f5b8681106109fd5750606695106109e4575b5050600185811b019055610965565b8801355f19600388901b60f8161c1916905587806109d5565b8a83013584556001909301929185019188915085016109c4565b604051639a13c39960e01b8152600490fd5b3461049d57602036600319011261049d57610a426121ea565b5f5460ff8160081c161591828093610b5d575b8015610b46575b15610aea5760ff1982166001175f55610a9d9183610ad9575b50610a8f60ff5f5460081c16610a8a816124d8565b6124d8565b610a98336124a3565b6124a3565b610aa357005b61ff00195f54165f557f7f26b83ff96e1f2b6a682f133852f6798a09c465da95921460cefb3847402498602060405160018152a1005b61ffff1916610101175f5583610a75565b60405162461bcd60e51b815260206004820152602e60248201527f496e697469616c697a61626c653a20636f6e747261637420697320616c72656160448201526d191e481a5b9a5d1a585b1a5e995960921b6064820152608490fd5b50303b158015610a5c5750600160ff831614610a5c565b50600160ff831610610a55565b3461049d57602036600319011261049d57606060a0604051610b8b816120a9565b5f81525f6020820152826040820152828082015282608082015201526004355f52606760205260405f20604051610bc1816120a9565b8154815260018201546020820152610bdb60028301612102565b6040820152610bec60038301612102565b6060820152600482019160405180938491602082549182815201915f5260205f20905f915b81601f84011061124e5791610d31939160059695935491818110611233575b818110611215575b8181106111f7575b8181106111d9575b8181106111bc575b81811061119e575b818110611180575b818110611162575b818110611144575b818110611126575b818110611108575b8181106110ea575b8181106110cc575b8181106110ae575b818110611090575b818110611072575b818110611054575b818110611036575b818110611018575b818110610ffa575b818110610fdc575b818110610fbe575b818110610fa0575b818110610f82575b818110610f64575b818110610f46575b818110610f28575b818110610f0a575b818110610eec575b818110610ece575b818110610eb0575b10610e99575b5095949503846120df565b6080840192835201908154610d4581612200565b92610d5360405194856120df565b81845260208401905f5260205f205f915b838310610e76575050505060a08301918252604051928392602084528151602085015260208201516040850152610dc56060610dae604085015160c08389015260e08801906121c5565b93015192601f1993848783030160808801526121c5565b925192828582030160a0860152602080855192838152019401905f5b818110610e4f575050505191818482030160c0850152825190818152602081016020808460051b8401019501935f925b848410610e1e5787870388f35b91939581939597506020610e3d82600194868495030188528a516121c5565b98019401940191879695939491610e11565b919460019193949650602081610e67829389516122e7565b01950191019186959392610de1565b600160208192610e88859a999a612102565b815201920192019190959495610d64565b90610ea98160209360f81c6122e7565b0187610d26565b92602081610ec660019360ff8760f01c166122e7565b019301610d20565b92602081610ee460019360ff8760e81c166122e7565b019301610d18565b92602081610f0260019360ff8760e01c166122e7565b019301610d10565b92602081610f2060019360ff8760d81c166122e7565b019301610d08565b92602081610f3e60019360ff8760d01c166122e7565b019301610d00565b92602081610f5c60019360ff8760c81c166122e7565b019301610cf8565b92602081610f7a60019360ff8760c01c166122e7565b019301610cf0565b92602081610f9860019360ff8760b81c166122e7565b019301610ce8565b92602081610fb660019360ff8760b01c166122e7565b019301610ce0565b92602081610fd460019360ff8760a81c166122e7565b019301610cd8565b92602081610ff260019360ff8760a01c166122e7565b019301610cd0565b9260208161101060019360ff8760981c166122e7565b019301610cc8565b9260208161102e60019360ff8760901c166122e7565b019301610cc0565b9260208161104c60019360ff8760881c166122e7565b019301610cb8565b9260208161106a60019360ff8760801c166122e7565b019301610cb0565b9260208161108860019360ff8760781c166122e7565b019301610ca8565b926020816110a660019360ff8760701c166122e7565b019301610ca0565b926020816110c460019360ff8760681c166122e7565b019301610c98565b926020816110e260019360ff8760601c166122e7565b019301610c90565b9260208161110060019360ff8760581c166122e7565b019301610c88565b9260208161111e60019360ff8760501c166122e7565b019301610c80565b9260208161113c60019360ff8760481c166122e7565b019301610c78565b9260208161115a60019360ff8760401c166122e7565b019301610c70565b9260208161117860019360ff8760381c166122e7565b019301610c68565b9260208161119660019360ff8760301c166122e7565b019301610c60565b926020816111b460019360ff8760281c166122e7565b019301610c58565b926020816111d160019360ff87851c166122e7565b019301610c50565b926020816111ef60019360ff8760181c166122e7565b019301610c48565b9260208161120d60019360ff8760101c166122e7565b019301610c40565b9260208161122b60019360ff8760081c166122e7565b019301610c38565b9260208161124660019360ff87166122e7565b019301610c30565b9350909160016104006020926114ac875461149e60ff611270858285166122e7565b611281888601828560081c166122e7565b61129360408601828560101c166122e7565b6112a560608601828560181c166122e7565b6112b66080860182858b1c166122e7565b6112c860a08601828560281c166122e7565b61142f60c06112de818801848760301c166122e7565b6112f060e08801848760381c166122e7565b6113036101008801848760401c166122e7565b6113166101208801848760481c166122e7565b6113296101408801848760501c166122e7565b61133c6101608801848760581c166122e7565b61134f6101808801848760601c166122e7565b6113626101a08801848760681c166122e7565b6113756101c08801848760701c166122e7565b6113886101e08801848760781c166122e7565b61139b6102008801848760801c166122e7565b6113ae6102208801848760881c166122e7565b6113c16102408801848760901c166122e7565b6113d46102608801848760981c166122e7565b6113e76102808801848760a01c166122e7565b6113fa6102a08801848760a81c166122e7565b61140d6102c08801848760b01c166122e7565b6114206102e08801848760b81c166122e7565b82856103008901921c166122e7565b6114426103208601828560c81c166122e7565b6114556103408601828560d01c166122e7565b6114686103608601828560d81c166122e7565b61147b6103808601828560e01c166122e7565b61148e6103a08601828560e81c166122e7565b6103c08501908360f01c166122e7565b6103e083019060f81c6122e7565b019401920190869392610c11565b3461049d575f36600319011261049d576033546040516001600160a01b039091168152602090f35b3461049d575f36600319011261049d576114fa61244b565b603380546001600160a01b031981169091555f906001600160a01b03165f805160206126c58339815191528280a3005b3461049d57602036600319011261049d576004355f526066602052602060018060a01b0360405f205416604051908152f35b3461049d575f36600319011261049d577f00000000000000000000000000000000000000000000000000000000000000006001600160a01b031630036115b35760206040515f805160206126a58339815191528152f35b60405162461bcd60e51b815260206004820152603860248201527f555550535570677261646561626c653a206d757374206e6f742062652063616c6044820152771b1959081d1a1c9bdd59da0819195b1959d85d1958d85b1b60421b6064820152608490fd5b604036600319011261049d5761162d6121ea565b6024356001600160401b03811161049d573660238201121561049d5761165d903690602481600401359101612232565b6001600160a01b037f0000000000000000000000000000000000000000000000000000000000000000811691906116963084141561238f565b6116b25f805160206126a58339815191529382855416146123dd565b6116ba61244b565b5f805160206126658339815191525460ff16156116dd5750505061088890612538565b8316604051926352d1902d60e01b84526020938481600481865afa5f9181611844575b5061174e5760405162461bcd60e51b815260048101869052602e60248201525f8051602061274583398151915260448201526d6f6e206973206e6f74205555505360901b6064820152608490fd5b939293036118005761175f84612538565b5f805160206126e58339815191525f80a28151158015906117f8575b61178157005b610888925f8060405194611794866120c4565b602786525f8051602061272583398151915285870152660819985a5b195960ca1b60408701528481519101845af4903d156117ef573d6117d381612217565b906117e160405192836120df565b81525f81943d92013e6125c7565b606092506125c7565b50600161177b565b60405162461bcd60e51b815260048101839052602960248201525f805160206127058339815191526044820152681a58589b195555525160ba1b6064820152608490fd5b9091508581813d831161186c575b61185c81836120df565b8101031261049d57519087611700565b503d611852565b3461049d57604036600319011261049d5760246004356001600160401b03823581811161049d573660238201121561049d576118b9903690602481600401359101612268565b5f8381526020608081905260669052604090205490916001600160a01b039182163303610a1757835f5260676080515260058060405f200195845191600160401b83116105a957875490838955818410611a9d575b50506080515f978852808820959790880195939091865b8484106119b657505050505050825f5260666080515260405f2054169260405191828392519091905f5b81811061198357505050039020917f53497616fe214eb98d693e0c2768611961d5ccea19dc0c584e05a0903fc1b11e5f80a4005b919350918060019161199e86518051928391608051016121a4565b601f801991011601936080510191019184939261194f565b8099979951805190848211611a8a576119d9826119d38a54612071565b8a61233a565b60805190601f8311600114611a21578260019492938594611a01935f92611a1657505061237d565b88555b60805101960193019294989698611925565b015190508f80610293565b90601f19831691895f526080515f20925f5b818110611a7157509160019593918587969410611a59575b505050821b82018855611a04565b01515f1960f88460031b161c191690558d8080611a4b565b8284015185556080516001909501949384019301611a33565b83634e487b7160e01b5f5260416004525ffd5b885f52836080515f2092830192015b828110611ab9575061190e565b80611ac660019254612071565b80611ad3575b5001611aac565b601f908181118414611aeb5750505f81555b8b611acc565b611b065f9284845260805184209201861c8201858301612324565b81835555611ae5565b3461049d57611b1d3661205b565b90805f52606660205260018060a01b038060405f2054163303610a1757815f526067602052600160405f200154831015611b9057815f5260676020528260405f2055606660205260405f2054167f7bd23689d74c8c6f2522c189c1e4c939b2d260851a54f4582d147a928ba1137b5f80a4005b60405163f70f6ef160e01b8152600490fd5b3461049d5760208060031936011261049d57611bbc6121ea565b6001600160a01b03917f00000000000000000000000000000000000000000000000000000000000000008316611bf43082141561238f565b611c105f805160206126a58339815191529185835416146123dd565b611c1861244b565b604051828101949091906001600160401b038611838710176105a957856040525f835260ff5f8051602061266583398151915254165f14611c6157505050506108889150612538565b8492939416906040516352d1902d60e01b81528581600481865afa5f9181611d9f575b50611cd25760405162461bcd60e51b815260048101879052602e60248201525f8051602061274583398151915260448201526d6f6e206973206e6f74205555505360901b6064820152608490fd5b94939403611d5b57611ce382612538565b5f805160206126e58339815191525f80a2825115801590611d54575b611d0557005b5f806108889560405195611d18876120c4565b602787525f8051602061272583398151915286880152660819985a5b195960ca1b60408801525190845af4903d156117ef573d6117d381612217565b505f611cff565b60405162461bcd60e51b815260048101849052602960248201525f805160206127058339815191526044820152681a58589b195555525160ba1b6064820152608490fd5b9091508681813d8311611dc7575b611db781836120df565b8101031261049d57519088611c84565b503d611dad565b3461049d57602036600319011261049d576004355f52606760205260405f208054611e40600183015492611e32611e136003611e0c60028501612102565b9301612102565b91604051958695865260208601526080604086015260808501906121c5565b9083820360608501526121c5565b0390f35b3461049d57611e523661205b565b90805f52606660205260018060a01b038060405f2054163303610a1757815f52606760205260405f205483111561083d57815f52606760205282600160405f200155606660205260405f2054167f96c1c206b4ffcf38cc94373b4b0a7f97015288aca64d758f0612f6473b849be95f80a4005b3461049d57611ed336612028565b9092825f5260206066815260018060a01b03918260405f2054163303611fec57505f8481526067825260409020600201906001600160401b0384116105a957611f20846109398454612071565b5f9184601f8111600114611f885780611f42916066955f916109a8575061237d565b90555b845f525260405f2054169281604051928392833781015f8152039020917fd48948061a4fec22a69037295e8a51653c1140e50cee189a95263e29809504365f80a4005b50601f19851692815f52825f2090865f5b868110611fd2575060669510611fb9575b5050600185811b019055611f45565b8801355f19600388901b60f8161c191690558780611faa565b8a8301358455600190930192918501918891508501611f99565b639a13c39960e01b8152600490fd5b9181601f8401121561049d578235916001600160401b03831161049d576020838186019501011161049d57565b90604060031983011261049d5760043591602435906001600160401b03821161049d5761205791600401611ffb565b9091565b604090600319011261049d576004359060243590565b90600182811c9216801561209f575b602083101461208b57565b634e487b7160e01b5f52602260045260245ffd5b91607f1691612080565b60c081019081106001600160401b038211176105a957604052565b606081019081106001600160401b038211176105a957604052565b601f909101601f19168101906001600160401b038211908210176105a957604052565b9060405191825f825461211481612071565b908184526020946001916001811690815f146121825750600114612144575b505050612142925003836120df565b565b5f90815285812095935091905b81831061216a57505061214293508201015f8080612133565b85548884018501529485019487945091830191612151565b9250505061214294925060ff191682840152151560051b8201015f8080612133565b5f5b8381106121b55750505f910152565b81810151838201526020016121a6565b906020916121de815180928185528580860191016121a4565b601f01601f1916010190565b600435906001600160a01b038216820361049d57565b6001600160401b0381116105a95760051b60200190565b6001600160401b0381116105a957601f01601f191660200190565b92919261223e82612217565b9161224c60405193846120df565b82948184528183011161049d578281602093845f960137010152565b9291909261227584612200565b9161228360405193846120df565b829480845260208094019060051b83019282841161049d5780915b8483106122ad57505050505050565b82356001600160401b03811161049d57820184601f8201121561049d5786916122dc8683858095359101612232565b81520192019161229e565b9060088210156106875752565b9181601f8401121561049d578235916001600160401b03831161049d576020808501948460051b01011161049d57565b81811061232f575050565b5f8155600101612324565b9190601f811161234957505050565b612142925f5260205f20906020601f840160051c83019310612373575b601f0160051c0190612324565b9091508190612366565b8160011b915f199060031b1c19161790565b1561239657565b60405162461bcd60e51b815260206004820152602c60248201525f8051602061268583398151915260448201526b19195b1959d85d1958d85b1b60a21b6064820152608490fd5b156123e457565b60405162461bcd60e51b815260206004820152602c60248201525f8051602061268583398151915260448201526b6163746976652070726f787960a01b6064820152608490fd5b908060209392818452848401375f828201840152601f01601f1916010190565b6033546001600160a01b0316330361245f57565b606460405162461bcd60e51b815260206004820152602060248201527f4f776e61626c653a2063616c6c6572206973206e6f7420746865206f776e65726044820152fd5b603380546001600160a01b039283166001600160a01b0319821681179092559091165f805160206126c58339815191525f80a3565b156124df57565b60405162461bcd60e51b815260206004820152602b60248201527f496e697469616c697a61626c653a20636f6e7472616374206973206e6f74206960448201526a6e697469616c697a696e6760a81b6064820152608490fd5b803b1561256c575f805160206126a583398151915280546001600160a01b0319166001600160a01b03909216919091179055565b60405162461bcd60e51b815260206004820152602d60248201527f455243313936373a206e657720696d706c656d656e746174696f6e206973206e60448201526c1bdd08184818dbdb9d1c9858dd609a1b6064820152608490fd5b9192901561262957508151156125db575090565b3b156125e45790565b60405162461bcd60e51b815260206004820152601d60248201527f416464726573733a2063616c6c20746f206e6f6e2d636f6e74726163740000006044820152606490fd5b82519091501561263c5750805190602001fd5b60405162461bcd60e51b8152602060048201529081906126609060248301906121c5565b0390fdfe4910fdfa16fed3260ed0e7147f7cc6da11a60208b5b9406d12a635614ffd914346756e6374696f6e206d7573742062652063616c6c6564207468726f75676820360894a13ba1a3210667c828492db98dca3e2076cc3735a920a3ca505d382bbc8be0079c531659141344cd1fd0a4f28419497f9722a3daafe3b4186f6b6457e0bc7cd75a20ee27fd9adebab32041f755214dbc6bffa90cc0225b39da2e5c2d3b45524331393637557067726164653a20756e737570706f727465642070726f78416464726573733a206c6f772d6c6576656c2064656c65676174652063616c6c45524331393637557067726164653a206e657720696d706c656d656e74617469a164736f6c6343000819000a","linkReferences":{}},"methodIdentifiers":{"actionToOwner(uint256)":"63ad59c7","getAction(uint256)":"b6e76873","idToAction(uint256)":"3347cdf7","initialize(address)":"c4d66de8","owner()":"8da5cb5b","proxiableUUID()":"52d1902d","registerAction(uint256,uint256,string,string,uint8[],string[])":"ff51b68f","renounceOwnership()":"715018a6","transferOwnership(address)":"f2fde38b","updateActionEndTime(uint256,uint256)":"2e94bd9b","updateActionInstructions(uint256,string)":"c8fc7af2","updateActionMedia(uint256,string[])":"4af7fa6a","updateActionStartTime(uint256,uint256)":"3df0300c","updateActionTitle(uint256,string)":"269a2709","upgradeTo(address)":"3659cfe6","upgradeToAndCall(address,bytes)":"4f1ef286"},"id":148}