{"abi":[{"type":"constructor","inputs":[],"stateMutability":"nonpayable"},{"type":"function","name":"actionToOwner","inputs":[{"name":"actionUID","type":"uint256","internalType":"uint256"}],"outputs":[{"name":"owner","type":"address","internalType":"address"}],"stateMutability":"view"},{"type":"function","name":"gardenDomains","inputs":[{"name":"garden","type":"address","internalType":"address"}],"outputs":[{"name":"domainMask","type":"uint8","internalType":"uint8"}],"stateMutability":"view"},{"type":"function","name":"gardenHasDomain","inputs":[{"name":"garden","type":"address","internalType":"address"},{"name":"_domain","type":"uint8","internalType":"enum Domain"}],"outputs":[{"name":"","type":"bool","internalType":"bool"}],"stateMutability":"view"},{"type":"function","name":"gardenToken","inputs":[],"outputs":[{"name":"","type":"address","internalType":"address"}],"stateMutability":"view"},{"type":"function","name":"getAction","inputs":[{"name":"actionUID","type":"uint256","internalType":"uint256"}],"outputs":[{"name":"","type":"tuple","internalType":"struct ActionRegistry.Action","components":[{"name":"startTime","type":"uint256","internalType":"uint256"},{"name":"endTime","type":"uint256","internalType":"uint256"},{"name":"title","type":"string","internalType":"string"},{"name":"slug","type":"string","internalType":"string"},{"name":"instructions","type":"string","internalType":"string"},{"name":"capitals","type":"uint8[]","internalType":"enum Capital[]"},{"name":"media","type":"string[]","internalType":"string[]"},{"name":"domain","type":"uint8","internalType":"enum Domain"}]}],"stateMutability":"view"},{"type":"function","name":"hatsModule","inputs":[],"outputs":[{"name":"","type":"address","internalType":"address"}],"stateMutability":"view"},{"type":"function","name":"idToAction","inputs":[{"name":"actionUID","type":"uint256","internalType":"uint256"}],"outputs":[{"name":"startTime","type":"uint256","internalType":"uint256"},{"name":"endTime","type":"uint256","internalType":"uint256"},{"name":"title","type":"string","internalType":"string"},{"name":"slug","type":"string","internalType":"string"},{"name":"instructions","type":"string","internalType":"string"},{"name":"domain","type":"uint8","internalType":"enum Domain"}],"stateMutability":"view"},{"type":"function","name":"initialize","inputs":[{"name":"_multisig","type":"address","internalType":"address"}],"outputs":[],"stateMutability":"nonpayable"},{"type":"function","name":"owner","inputs":[],"outputs":[{"name":"","type":"address","internalType":"address"}],"stateMutability":"view"},{"type":"function","name":"proxiableUUID","inputs":[],"outputs":[{"name":"","type":"bytes32","internalType":"bytes32"}],"stateMutability":"view"},{"type":"function","name":"registerAction","inputs":[{"name":"_startTime","type":"uint256","internalType":"uint256"},{"name":"_endTime","type":"uint256","internalType":"uint256"},{"name":"_title","type":"string","internalType":"string"},{"name":"_slug","type":"string","internalType":"string"},{"name":"_instructions","type":"string","internalType":"string"},{"name":"_capitals","type":"uint8[]","internalType":"enum Capital[]"},{"name":"_media","type":"string[]","internalType":"string[]"},{"name":"_domain","type":"uint8","internalType":"enum Domain"}],"outputs":[],"stateMutability":"nonpayable"},{"type":"function","name":"renounceOwnership","inputs":[],"outputs":[],"stateMutability":"nonpayable"},{"type":"function","name":"setGardenDomains","inputs":[{"name":"garden","type":"address","internalType":"address"},{"name":"_domainMask","type":"uint8","internalType":"uint8"}],"outputs":[],"stateMutability":"nonpayable"},{"type":"function","name":"setGardenDomainsFromMint","inputs":[{"name":"garden","type":"address","internalType":"address"},{"name":"_domainMask","type":"uint8","internalType":"uint8"}],"outputs":[],"stateMutability":"nonpayable"},{"type":"function","name":"setGardenToken","inputs":[{"name":"_gardenToken","type":"address","internalType":"address"}],"outputs":[],"stateMutability":"nonpayable"},{"type":"function","name":"setHatsModule","inputs":[{"name":"_hatsModule","type":"address","internalType":"address"}],"outputs":[],"stateMutability":"nonpayable"},{"type":"function","name":"transferOwnership","inputs":[{"name":"newOwner","type":"address","internalType":"address"}],"outputs":[],"stateMutability":"nonpayable"},{"type":"function","name":"updateActionEndTime","inputs":[{"name":"actionUID","type":"uint256","internalType":"uint256"},{"name":"_endTime","type":"uint256","internalType":"uint256"}],"outputs":[],"stateMutability":"nonpayable"},{"type":"function","name":"updateActionInstructions","inputs":[{"name":"actionUID","type":"uint256","internalType":"uint256"},{"name":"_instructions","type":"string","internalType":"string"}],"outputs":[],"stateMutability":"nonpayable"},{"type":"function","name":"updateActionMedia","inputs":[{"name":"actionUID","type":"uint256","internalType":"uint256"},{"name":"_media","type":"string[]","internalType":"string[]"}],"outputs":[],"stateMutability":"nonpayable"},{"type":"function","name":"updateActionStartTime","inputs":[{"name":"actionUID","type":"uint256","internalType":"uint256"},{"name":"_startTime","type":"uint256","internalType":"uint256"}],"outputs":[],"stateMutability":"nonpayable"},{"type":"function","name":"updateActionTitle","inputs":[{"name":"actionUID","type":"uint256","internalType":"uint256"},{"name":"_title","type":"string","internalType":"string"}],"outputs":[],"stateMutability":"nonpayable"},{"type":"function","name":"upgradeTo","inputs":[{"name":"newImplementation","type":"address","internalType":"address"}],"outputs":[],"stateMutability":"nonpayable"},{"type":"function","name":"upgradeToAndCall","inputs":[{"name":"newImplementation","type":"address","internalType":"address"},{"name":"data","type":"bytes","internalType":"bytes"}],"outputs":[],"stateMutability":"payable"},{"type":"event","name":"ActionEndTimeUpdated","inputs":[{"name":"owner","type":"address","indexed":true,"internalType":"address"},{"name":"actionUID","type":"uint256","indexed":true,"internalType":"uint256"},{"name":"endTime","type":"uint256","indexed":true,"internalType":"uint256"}],"anonymous":false},{"type":"event","name":"ActionInstructionsUpdated","inputs":[{"name":"owner","type":"address","indexed":true,"internalType":"address"},{"name":"actionUID","type":"uint256","indexed":true,"internalType":"uint256"},{"name":"instructions","type":"string","indexed":false,"internalType":"string"}],"anonymous":false},{"type":"event","name":"ActionMediaUpdated","inputs":[{"name":"owner","type":"address","indexed":true,"internalType":"address"},{"name":"actionUID","type":"uint256","indexed":true,"internalType":"uint256"},{"name":"media","type":"string[]","indexed":false,"internalType":"string[]"}],"anonymous":false},{"type":"event","name":"ActionRegistered","inputs":[{"name":"owner","type":"address","indexed":false,"internalType":"address"},{"name":"actionUID","type":"uint256","indexed":true,"internalType":"uint256"},{"name":"startTime","type":"uint256","indexed":true,"internalType":"uint256"},{"name":"endTime","type":"uint256","indexed":true,"internalType":"uint256"},{"name":"title","type":"string","indexed":false,"internalType":"string"},{"name":"slug","type":"string","indexed":false,"internalType":"string"},{"name":"instructions","type":"string","indexed":false,"internalType":"string"},{"name":"capitals","type":"uint8[]","indexed":false,"internalType":"enum Capital[]"},{"name":"media","type":"string[]","indexed":false,"internalType":"string[]"},{"name":"domain","type":"uint8","indexed":false,"internalType":"enum Domain"}],"anonymous":false},{"type":"event","name":"ActionStartTimeUpdated","inputs":[{"name":"owner","type":"address","indexed":true,"internalType":"address"},{"name":"actionUID","type":"uint256","indexed":true,"internalType":"uint256"},{"name":"startTime","type":"uint256","indexed":true,"internalType":"uint256"}],"anonymous":false},{"type":"event","name":"ActionTitleUpdated","inputs":[{"name":"owner","type":"address","indexed":true,"internalType":"address"},{"name":"actionUID","type":"uint256","indexed":true,"internalType":"uint256"},{"name":"title","type":"string","indexed":false,"internalType":"string"}],"anonymous":false},{"type":"event","name":"AdminChanged","inputs":[{"name":"previousAdmin","type":"address","indexed":false,"internalType":"address"},{"name":"newAdmin","type":"address","indexed":false,"internalType":"address"}],"anonymous":false},{"type":"event","name":"BeaconUpgraded","inputs":[{"name":"beacon","type":"address","indexed":true,"internalType":"address"}],"anonymous":false},{"type":"event","name":"GardenDomainsUpdated","inputs":[{"name":"garden","type":"address","indexed":true,"internalType":"address"},{"name":"domainMask","type":"uint8","indexed":true,"internalType":"uint8"}],"anonymous":false},{"type":"event","name":"GardenTokenUpdated","inputs":[{"name":"oldToken","type":"address","indexed":true,"internalType":"address"},{"name":"newToken","type":"address","indexed":true,"internalType":"address"}],"anonymous":false},{"type":"event","name":"HatsModuleUpdated","inputs":[{"name":"oldModule","type":"address","indexed":true,"internalType":"address"},{"name":"newModule","type":"address","indexed":true,"internalType":"address"}],"anonymous":false},{"type":"event","name":"Initialized","inputs":[{"name":"version","type":"uint8","indexed":false,"internalType":"uint8"}],"anonymous":false},{"type":"event","name":"OwnershipTransferred","inputs":[{"name":"previousOwner","type":"address","indexed":true,"internalType":"address"},{"name":"newOwner","type":"address","indexed":true,"internalType":"address"}],"anonymous":false},{"type":"event","name":"Upgraded","inputs":[{"name":"implementation","type":"address","indexed":true,"internalType":"address"}],"anonymous":false},{"type":"error","name":"EndTimeBeforeStartTime","inputs":[]},{"type":"error","name":"InvalidDomainMask","inputs":[]},{"type":"error","name":"NotActionOwner","inputs":[]},{"type":"error","name":"NotGardenOperator","inputs":[]},{"type":"error","name":"NotGardenToken","inputs":[]},{"type":"error","name":"StartTimeAfterEndTime","inputs":[]},{"type":"error","name":"ZeroAddress","inputs":[]}],"bytecode":{"object":"0x60a080604052346100da57306080525f549060ff8260081c16610088575060ff8082160361004e575b604051612d5b90816100df823960805181818161197b01528181611a740152611ffc0152f35b60ff90811916175f557f7f26b83ff96e1f2b6a682f133852f6798a09c465da95921460cefb3847402498602060405160ff8152a15f610028565b62461bcd60e51b815260206004820152602760248201527f496e697469616c697a61626c653a20636f6e747261637420697320696e697469604482015266616c697a696e6760c81b6064820152608490fd5b5f80fdfe60806040526004361015610011575f80fd5b5f3560e01c8063269a27091461252257806327b178631461241b5780632e94bd9b1461238b578063328bccce1461233d5780633347cdf7146122975780633659cfe614611fde5780633df0300c14611f3f5780634af7fa6a14611cfd5780634f1ef28614611a2b57806352d1902d1461196957806363ad59c714611937578063715018a6146118dc57806384751495146118a157806386b9535e14610ff65780638a782f0014610f665780638da5cb5b14610f3e578063adcb922114610ecb578063b4a9c60714610ea3578063b6e7687314610535578063b709b7fd146104b3578063c4d66de814610372578063c8fc7af2146101dc578063db61d65c146101b45763f2fde38b14610121575f80fd5b346101b05760203660031901126101b05761013a612694565b610142612af5565b6001600160a01b0381161561015c5761015a90612b4d565b005b60405162461bcd60e51b815260206004820152602660248201527f4f776e61626c653a206e6577206f776e657220697320746865207a65726f206160448201526564647265737360d01b6064820152608490fd5b5f80fd5b346101b0575f3660031901126101b057606a546040516001600160a01b039091168152602090f35b346101b0576101ea36612661565b5f838152606660205260409020549192916001600160a01b0316330361036357815f526067602052600460405f2001926001600160401b03821161034f5761023c8261023686546126f0565b866129c4565b5f93601f83116001146102cc5761028c83807fb8b628e3d03eb52cbeb1e1e549e662dd9c44f2e61bf702a9f052ea2d1b1608dc9596975f916102c1575b508160011b915f199060031b1c19161790565b90555b835f52606660205260018060a01b0360405f205416926102bc604051928392602084526020840191612a07565b0390a3005b905084013588610279565b601f19831694815f5260205f20905f5b8781106103375750847fb8b628e3d03eb52cbeb1e1e549e662dd9c44f2e61bf702a9f052ea2d1b1608dc9596971061031e575b5050600184811b01905561028f565b8301355f19600387901b60f8161c19169055858061030f565b909160206001819285880135815501930191016102dc565b634e487b7160e01b5f52604160045260245ffd5b639a13c39960e01b5f5260045ffd5b346101b05760203660031901126101b05761038b612694565b5f5460ff8160081c1615918280936104a6575b801561048f575b156104335760ff1982166001175f556103e69183610422575b506103d860ff5f5460081c166103d381612b95565b612b95565b6103e133612b4d565b612b4d565b6103ec57005b61ff00195f54165f557f7f26b83ff96e1f2b6a682f133852f6798a09c465da95921460cefb3847402498602060405160018152a1005b61ffff1916610101175f55836103be565b60405162461bcd60e51b815260206004820152602e60248201527f496e697469616c697a61626c653a20636f6e747261637420697320616c72656160448201526d191e481a5b9a5d1a585b1a5e995960921b6064820152608490fd5b50303b1580156103a55750600160ff8316146103a5565b50600160ff83161061039e565b346101b05760203660031901126101b0576104cc612694565b6104d4612af5565b6001600160a01b0316801561052657606a80546001600160a01b0319811683179091556001600160a01b03167f953bbf0e152929f75334757ab51289c8ddf14f5dcebce0c06ce4873b100c7d7d5f80a3005b63d92e233d60e01b5f5260045ffd5b346101b05760203660031901126101b0575f60e060405161055581612728565b8281528260208201526060604082015260608082015260606080820152606060a0820152606060c082015201526004355f52606760205260405f2060405161059c81612728565b815481526001820154602082019081526105b860028401612765565b92604083019384526105cc60038201612765565b606084019081526105df60048301612765565b9060808501918252600583019560405180886020829a549384815201905f5260205f20925f905b80601f830110610c1a5761071c945491818110610bff575b818110610be1575b818110610bc3575b818110610ba5575b818110610b88575b818110610b6a575b818110610b4c575b818110610b2e575b818110610b10575b818110610af2575b818110610ad4575b818110610ab6575b818110610a98575b818110610a7a575b818110610a5c575b818110610a3e575b818110610a20575b818110610a02575b8181106109e4575b8181106109c6575b8181106109a8575b81811061098a575b81811061096c575b81811061094e575b818110610930575b818110610912575b8181106108f4575b8181106108d6575b8181106108b8575b81811061089a575b81811061087c575b10610865575b500388612744565b60a086019687526006840193845461073381612836565b956107416040519788612744565b81875260208701905f5260205f205f915b8383106108485750505050916107af6107c29260ff60076107d5979660c08c01998a520154169761078760e08b01998a612ae9565b6040519960208b525160208b01525160408a01525161010060608a0152610120890190612805565b9051878203601f19016080890152612805565b9051858203601f190160a0870152612805565b935193601f198482030160c0850152602080865192838152019501905f5b8181106108295750505061081883946108259251601f198683030160e0870152612956565b9151610100840190612829565b0390f35b9091956020808261083d6001948b51612949565b0197019291016107f3565b60016020819261085785612765565b815201920192019190610752565b906108758160209360f81c612949565b018a610714565b9260208161089260019360ff8760f01c16612949565b01930161070e565b926020816108b060019360ff8760e81c16612949565b019301610706565b926020816108ce60019360ff8760e01c16612949565b0193016106fe565b926020816108ec60019360ff8760d81c16612949565b0193016106f6565b9260208161090a60019360ff8760d01c16612949565b0193016106ee565b9260208161092860019360ff8760c81c16612949565b0193016106e6565b9260208161094660019360ff8760c01c16612949565b0193016106de565b9260208161096460019360ff8760b81c16612949565b0193016106d6565b9260208161098260019360ff8760b01c16612949565b0193016106ce565b926020816109a060019360ff8760a81c16612949565b0193016106c6565b926020816109be60019360ff8760a01c16612949565b0193016106be565b926020816109dc60019360ff8760981c16612949565b0193016106b6565b926020816109fa60019360ff8760901c16612949565b0193016106ae565b92602081610a1860019360ff8760881c16612949565b0193016106a6565b92602081610a3660019360ff8760801c16612949565b01930161069e565b92602081610a5460019360ff8760781c16612949565b019301610696565b92602081610a7260019360ff8760701c16612949565b01930161068e565b92602081610a9060019360ff8760681c16612949565b019301610686565b92602081610aae60019360ff8760601c16612949565b01930161067e565b92602081610acc60019360ff8760581c16612949565b019301610676565b92602081610aea60019360ff8760501c16612949565b01930161066e565b92602081610b0860019360ff8760481c16612949565b019301610666565b92602081610b2660019360ff8760401c16612949565b01930161065e565b92602081610b4460019360ff8760381c16612949565b019301610656565b92602081610b6260019360ff8760301c16612949565b01930161064e565b92602081610b8060019360ff8760281c16612949565b019301610646565b92602081610b9d60019360ff87851c16612949565b01930161063e565b92602081610bbb60019360ff8760181c16612949565b019301610636565b92602081610bd960019360ff8760101c16612949565b01930161062e565b92602081610bf760019360ff8760081c16612949565b019301610626565b92602081610c1260019360ff8716612949565b01930161061e565b916020919350610400600191610e958754610c388360ff8316612949565b610c4a86840160ff8360081c16612949565b610c5d6040840160ff8360101c16612949565b610c706060840160ff8360181c16612949565b610c826080840160ff83891c16612949565b610c9560a0840160ff8360281c16612949565b610ca860c0840160ff8360301c16612949565b610cbb60e0840160ff8360381c16612949565b610ccf610100840160ff8360401c16612949565b610ce3610120840160ff8360481c16612949565b610cf7610140840160ff8360501c16612949565b610d0b610160840160ff8360581c16612949565b610d1f610180840160ff8360601c16612949565b610d336101a0840160ff8360681c16612949565b610d476101c0840160ff8360701c16612949565b610d5b6101e0840160ff8360781c16612949565b610d6f610200840160ff8360801c16612949565b610d83610220840160ff8360881c16612949565b610d97610240840160ff8360901c16612949565b610dab610260840160ff8360981c16612949565b610dbf610280840160ff8360a01c16612949565b610dd36102a0840160ff8360a81c16612949565b610de76102c0840160ff8360b01c16612949565b610dfb6102e0840160ff8360b81c16612949565b610e0f610300840160ff8360c01c16612949565b610e23610320840160ff8360c81c16612949565b610e37610340840160ff8360d01c16612949565b610e4b610360840160ff8360d81c16612949565b610e5f610380840160ff8360e01c16612949565b610e736103a0840160ff8360e81c16612949565b610e876103c0840160ff8360f01c16612949565b6103e083019060f81c612949565b01940192018a929391610606565b346101b0575f3660031901126101b0576069546040516001600160a01b039091168152602090f35b346101b05760203660031901126101b057610ee4612694565b610eec612af5565b6001600160a01b0316801561052657606980546001600160a01b0319811683179091556001600160a01b03167fc8fef5c294d0999b744f1c0123bb9e98e3e739de8245692fde6df4f4625efc505f80a3005b346101b0575f3660031901126101b0576033546040516001600160a01b039091168152602090f35b346101b057610f74366126aa565b606a546001600160a01b03163303610fe75760ff1690600f8211610fd8576001600160a01b03165f818152606860205260408120805460ff1916841790557ff58567dccc9feaaaaa788e594c96bc85c6b2e6a8d2040c04b97195095e1611789080a3005b632e4fa5db60e21b5f5260045ffd5b6308a59e4960e11b5f5260045ffd5b346101b0576101003660031901126101b0576024356004356044356001600160401b0381116101b05761102d903690600401612634565b6064356001600160401b0381116101b05761104c903690600401612634565b9190926084356001600160401b0381116101b05761106e903690600401612634565b92909160a4356001600160401b0381116101b057611090903690600401612919565b91909260c4356001600160401b0381116101b0576110b2903690600401612919565b959096600460e43510156101b0576110c8612af5565b8a8c111561189257606554995f198b1461187e5760018b016065558a5f52606660205260405f20336bffffffffffffffffffffffff60a01b82541617905560405161111281612728565b8c81528d6020820152611126368688612868565b6040820152611136368c84612868565b6060820152611146368486612868565b608082015261115487612836565b6111616040519182612744565b87815260208101368960051b8b01116101b057908d9392918a905b8a60051b8c01821061185a57505060a0820190815261119c368c8e61289e565b9060c0830191825260e08301946111b560e43587612ae9565b5f52606760205260405f209280518455602081015160018501556002840160408201518051906001600160401b03821161034f576111fd826111f785546126f0565b856129c4565b602090601f83116001146117f75761122c92915f9183611560575b50508160011b915f199060031b1c19161790565b90555b6003840160608201518051906001600160401b03821161034f57611257826111f785546126f0565b602090601f83116001146117945761128592915f91836115605750508160011b915f199060031b1c19161790565b90555b60800151805160048501916001600160401b03821161034f576112af826111f785546126f0565b602090601f8311600114611731576112dd92915f91836115605750508160011b915f199060031b1c19161790565b90555b51805160058401916001600160401b03821161034f57600160401b821161034f5760209083548385558084106116e7575b5001915f5260205f208160051c915f5b83811061169b5750601f19811690038061164b575b50505050600682019051805190600160401b821161034f5782548284558083106115d4575b50602001915f5260205f20915f905b8282106114f4575050505060070191519a60048c10156114e0576113b96020976113d5976113c79560e09f9c9e9d9c60ff801983541691161790556040519e8f338152818c8201520191612a07565b8c810360408e015291612a07565b9189830360608b0152612a07565b86810360808801528281520193905f905b8082106114b25750505083830360a0850152808352602083019060208160051b85010193835f91601e1982360301905b848410611458578b8b8b7f8dc14877591633d1fb35baf469729a624f0c8a1b45a5408ac5de3d709ea5bfdf8c808d61145360c0830160e435612829565b0390a4005b90919293949596601f198282030187528735838112156101b057840190602082359201916001600160401b0381116101b05780360383136101b0576114a36020928392600195612a07565b99019701959401929190611416565b909192939483359060088210156101b0576020816114d38293600195612949565b01969594019201906113e6565b634e487b7160e01b5f52602160045260245ffd5b80518051906001600160401b03821161034f5761151b8261151588546126f0565b886129c4565b602090601f831160011461156b5792611551836001959460209487965f926115605750508160011b915f199060031b1c19161790565b87555b0194019101909261136a565b015190505f80611218565b90601f19831691875f52815f20925f5b8181106115bc57509360209360019693879693838895106115a4575b505050811b018755611554565b01515f1960f88460031b161c191690555f8080611597565b9293602060018192878601518155019501930161157b565b835f528260205f2091820191015b8181106115ef575061135b565b806115fc600192546126f0565b80611609575b50016115e2565b601f8111831461161e57505f81555b5f611602565b61163a90825f5283601f60205f20920160051c820191016129ae565b805f525f6020812081835555611618565b925f935f5b8181106116655750505001555f808080611336565b909194855160088110156114e057611691602091846001949060ff809160031b9316831b921b19161790565b9601929101611650565b5f5f5b602081106116b3575083820155600101611321565b9590815160088110156114e0576116de602091896001949060ff809160031b9316831b921b19161790565b9201960161169e565b61171190855f52835f20601f80870160051c82019281881680611717575b500160051c01906129ae565b5f611311565b5f198501908154905f19908a0360031b1c1690555f611705565b90601f19831691845f52815f20925f5b81811061177c5750908460019594939210611764575b505050811b0190556112e0565b01515f1960f88460031b161c191690555f8080611757565b92936020600181928786015181550195019301611741565b90601f19831691845f52815f20925f5b8181106117df57509084600195949392106117c7575b505050811b019055611288565b01515f1960f88460031b161c191690555f80806117ba565b929360206001819287860151815501950193016117a4565b90601f19831691845f52815f20925f5b818110611842575090846001959493921061182a575b505050811b01905561122f565b01515f1960f88460031b161c191690555f808061181d565b92936020600181928786015181550195019301611807565b908092939495503560088110156101b05781528e949392916020908101910161117c565b634e487b7160e01b5f52601160045260245ffd5b634313345360e01b5f5260045ffd5b346101b05760203660031901126101b0576001600160a01b036118c2612694565b165f526068602052602060ff60405f205416604051908152f35b346101b0575f3660031901126101b0576118f4612af5565b603380546001600160a01b031981169091555f906001600160a01b03167f8be0079c531659141344cd1fd0a4f28419497f9722a3daafe3b4186f6b6457e08280a3005b346101b05760203660031901126101b0576004355f526066602052602060018060a01b0360405f205416604051908152f35b346101b0575f3660031901126101b0577f00000000000000000000000000000000000000000000000000000000000000006001600160a01b031630036119c05760206040515f516020612d2f5f395f51905f528152f35b60405162461bcd60e51b815260206004820152603860248201527f555550535570677261646561626c653a206d757374206e6f742062652063616c60448201527f6c6564207468726f7567682064656c656761746563616c6c00000000000000006064820152608490fd5b60403660031901126101b057611a3f612694565b6024356001600160401b0381116101b057366023820112156101b057611a6f903690602481600401359101612868565b611ac67f00000000000000000000000000000000000000000000000000000000000000006001600160a01b0316611aa830821415612a27565b5f516020612d2f5f395f51905f52546001600160a01b031614612a88565b611ace612af5565b7f4910fdfa16fed3260ed0e7147f7cc6da11a60208b5b9406d12a635614ffd91435460ff1615611b02575061015a90612bf5565b6040516352d1902d60e01b81526001600160a01b03831690602081600481855afa5f9181611cc9575b50611b8c5760405162461bcd60e51b815260206004820152602e60248201527f45524331393637557067726164653a206e657720696d706c656d656e7461746960448201526d6f6e206973206e6f74205555505360901b6064820152608490fd5b5f516020612d2f5f395f51905f5203611c7257611ba883612bf5565b7fbc7cd75a20ee27fd9adebab32041f755214dbc6bffa90cc0225b39da2e5c2d3b5f80a2805115801590611c6a575b611bdd57005b61015a915f8060405193611bf2606086612744565b602785527f416464726573733a206c6f772d6c6576656c2064656c65676174652063616c6c6020860152660819985a5b195960ca1b6040860152602081519101845af43d15611c62573d91611c468361284d565b92611c546040519485612744565b83523d5f602085013e612c91565b606091612c91565b506001611bd7565b60405162461bcd60e51b815260206004820152602960248201527f45524331393637557067726164653a20756e737570706f727465642070726f786044820152681a58589b195555525160ba1b6064820152608490fd5b9091506020813d602011611cf5575b81611ce560209383612744565b810103126101b057519085611b2b565b3d9150611cd8565b346101b05760403660031901126101b0576004356024356001600160401b0381116101b057366023820112156101b057611d4190369060248160040135910161289e565b5f828152606660205260409020546001600160a01b0316330361036357815f526067602052600660405f20018151600160401b811161034f578154818355808210611ec8575b5060208301915f5260205f20915f905b828210611dee578585815f5260666020527f53497616fe214eb98d693e0c2768611961d5ccea19dc0c584e05a0903fc1b11e6102bc60018060a01b0360405f20541692604051918291602083526020830190612956565b80518051906001600160401b03821161034f57611e0f8261151588546126f0565b602090601f8311600114611e5f5792611e45836001959460209487965f92611e545750508160011b915f199060031b1c19161790565b87555b01940191019092611d97565b015190508c80611218565b90601f19831691875f52815f20925f5b818110611eb05750936020936001969387969383889510611e98575b505050811b018755611e48565b01515f1960f88460031b161c191690558b8080611e8b565b92936020600181928786015181550195019301611e6f565b825f528160205f2091820191015b818110611ee35750611d87565b80611ef0600192546126f0565b80611efd575b5001611ed6565b601f81118314611f1257505f81555b87611ef6565b611f2e90825f5283601f60205f20920160051c820191016129ae565b805f525f6020812081835555611f0c565b346101b057611f4d366126da565b5f828152606660205260409020549091906001600160a01b0316330361036357805f526067602052600160405f200154821015611fcf575f81815260676020908152604080832085905560669091528120546001600160a01b0316907f7bd23689d74c8c6f2522c189c1e4c939b2d260851a54f4582d147a928ba1137b9080a4005b63f70f6ef160e01b5f5260045ffd5b346101b05760203660031901126101b057611ff7612694565b6120307f00000000000000000000000000000000000000000000000000000000000000006001600160a01b0316611aa830821415612a27565b612038612af5565b6040519060206120488184612744565b5f835280830192601f1982013685377f4910fdfa16fed3260ed0e7147f7cc6da11a60208b5b9406d12a635614ffd91435460ff161561208d57505061015a9150612bf5565b6040516352d1902d60e01b8152919290916001600160a01b038216908481600481855afa5f9181612268575b5061211a5760405162461bcd60e51b815260048101869052602e60248201527f45524331393637557067726164653a206e657720696d706c656d656e7461746960448201526d6f6e206973206e6f74205555505360901b6064820152608490fd5b9293927fc9f76b5ec45e5cdef99837d7b6d2467235c1df8933c8ca56df5c35afa2c7d444016122115761214c82612bf5565b7fbc7cd75a20ee27fd9adebab32041f755214dbc6bffa90cc0225b39da2e5c2d3b5f80a282511580159061220a575b61218157005b5f8061015a9560405195612196606088612744565b602787527f416464726573733a206c6f772d6c6576656c2064656c65676174652063616c6c86880152660819985a5b195960ca1b60408801525190845af4903d15612201573d6121e58161284d565b906121f36040519283612744565b81525f81943d92013e612c91565b60609250612c91565b505f61217b565b60405162461bcd60e51b815260048101849052602960248201527f45524331393637557067726164653a20756e737570706f727465642070726f786044820152681a58589b195555525160ba1b6064820152608490fd5b9091508581813d8311612290575b6122808183612744565b810103126101b0575190876120b9565b503d612276565b346101b05760203660031901126101b0576004355f52606760205260405f2080546001820154916108256123326122d060028401612765565b926123246122e060038301612765565b61231660ff60076122f360048701612765565b9501541696604051998a998a5260208a015260c060408a015260c0890190612805565b908782036060890152612805565b908582036080870152612805565b9160a0840190612829565b346101b05760403660031901126101b057612356612694565b60243560048110156101b05760209160018060a01b03165f526068825260ff60405f205460018260405194161b161615158152f35b346101b057612399366126da565b5f828152606660205260409020549091906001600160a01b0316330361036357805f52606760205260405f2054821115611892575f81815260676020908152604080832060010185905560669091528120546001600160a01b0316907f96c1c206b4ffcf38cc94373b4b0a7f97015288aca64d758f0612f6473b849be99080a4005b346101b05760ff61242b366126aa565b9190911690600f8211610fd8576069546001600160a01b031690811561052657604051630e70978b60e21b81526001600160a01b039091166004820181905233602483015291602090829060449082905afa908115612517575f916124dc575b50156124cd57805f52606860205260405f208260ff198254161790557ff58567dccc9feaaaaa788e594c96bc85c6b2e6a8d2040c04b97195095e1611785f80a3005b633cebab8560e21b5f5260045ffd5b90506020813d60201161250f575b816124f760209383612744565b810103126101b0575180151581036101b0578361248b565b3d91506124ea565b6040513d5f823e3d90fd5b346101b05761253036612661565b5f838152606660205260409020549192916001600160a01b0316330361036357815f526067602052600260405f2001926001600160401b03821161034f5761257c8261023686546126f0565b5f93601f83116001146125cb5761028c83807fd48948061a4fec22a69037295e8a51653c1140e50cee189a95263e29809504369596975f916102c157508160011b915f199060031b1c19161790565b601f19831694815f5260205f20905f5b87811061261c5750847fd48948061a4fec22a69037295e8a51653c1140e50cee189a95263e29809504369596971061031e575050600184811b01905561028f565b909160206001819285880135815501930191016125db565b9181601f840112156101b0578235916001600160401b0383116101b057602083818601950101116101b057565b9060406003198301126101b05760043591602435906001600160401b0382116101b05761269091600401612634565b9091565b600435906001600160a01b03821682036101b057565b60409060031901126101b0576004356001600160a01b03811681036101b0579060243560ff811681036101b05790565b60409060031901126101b0576004359060243590565b90600182811c9216801561271e575b602083101461270a57565b634e487b7160e01b5f52602260045260245ffd5b91607f16916126ff565b61010081019081106001600160401b0382111761034f57604052565b90601f801991011681019081106001600160401b0382111761034f57604052565b9060405191825f825492612778846126f0565b80845293600181169081156127e3575060011461279f575b5061279d92500383612744565b565b90505f9291925260205f20905f915b8183106127c757505090602061279d928201015f612790565b60209193508060019154838589010152019101909184926127ae565b90506020925061279d94915060ff191682840152151560051b8201015f612790565b805180835260209291819084018484015e5f828201840152601f01601f1916010190565b9060048210156114e05752565b6001600160401b03811161034f5760051b60200190565b6001600160401b03811161034f57601f01601f191660200190565b9291926128748261284d565b916128826040519384612744565b8294818452818301116101b0578281602093845f960137010152565b9291926128aa82612836565b936128b86040519586612744565b602085848152019260051b8201918183116101b05780935b8385106128de575050505050565b84356001600160401b0381116101b057820183601f820112156101b05760209161290e8583858095359101612868565b8152019401936128d0565b9181601f840112156101b0578235916001600160401b0383116101b0576020808501948460051b0101116101b057565b9060088210156114e05752565b9080602083519182815201916020808360051b8301019401925f915b83831061298157505050505090565b909192939460208061299f600193601f198682030187528951612805565b97019301930191939290612972565b8181106129b9575050565b5f81556001016129ae565b9190601f81116129d357505050565b61279d925f5260205f20906020601f840160051c830193106129fd575b601f0160051c01906129ae565b90915081906129f0565b908060209392818452848401375f828201840152601f01601f1916010190565b15612a2e57565b60405162461bcd60e51b815260206004820152602c60248201527f46756e6374696f6e206d7573742062652063616c6c6564207468726f7567682060448201526b19195b1959d85d1958d85b1b60a21b6064820152608490fd5b15612a8f57565b60405162461bcd60e51b815260206004820152602c60248201527f46756e6374696f6e206d7573742062652063616c6c6564207468726f7567682060448201526b6163746976652070726f787960a01b6064820152608490fd5b60048210156114e05752565b6033546001600160a01b03163303612b0957565b606460405162461bcd60e51b815260206004820152602060248201527f4f776e61626c653a2063616c6c6572206973206e6f7420746865206f776e65726044820152fd5b603380546001600160a01b039283166001600160a01b0319821681179092559091167f8be0079c531659141344cd1fd0a4f28419497f9722a3daafe3b4186f6b6457e05f80a3565b15612b9c57565b60405162461bcd60e51b815260206004820152602b60248201527f496e697469616c697a61626c653a20636f6e7472616374206973206e6f74206960448201526a6e697469616c697a696e6760a81b6064820152608490fd5b803b15612c365760018060a01b03166bffffffffffffffffffffffff60a01b5f516020612d2f5f395f51905f525416175f516020612d2f5f395f51905f5255565b60405162461bcd60e51b815260206004820152602d60248201527f455243313936373a206e657720696d706c656d656e746174696f6e206973206e60448201526c1bdd08184818dbdb9d1c9858dd609a1b6064820152608490fd5b91929015612cf35750815115612ca5575090565b3b15612cae5790565b60405162461bcd60e51b815260206004820152601d60248201527f416464726573733a2063616c6c20746f206e6f6e2d636f6e74726163740000006044820152606490fd5b825190915015612d065750805190602001fd5b60405162461bcd60e51b815260206004820152908190612d2a906024830190612805565b0390fdfe360894a13ba1a3210667c828492db98dca3e2076cc3735a920a3ca505d382bbca164736f6c634300081c000a","linkReferences":{}},"methodIdentifiers":{"actionToOwner(uint256)":"63ad59c7","gardenDomains(address)":"84751495","gardenHasDomain(address,uint8)":"328bccce","gardenToken()":"db61d65c","getAction(uint256)":"b6e76873","hatsModule()":"b4a9c607","idToAction(uint256)":"3347cdf7","initialize(address)":"c4d66de8","owner()":"8da5cb5b","proxiableUUID()":"52d1902d","registerAction(uint256,uint256,string,string,string,uint8[],string[],uint8)":"86b9535e","renounceOwnership()":"715018a6","setGardenDomains(address,uint8)":"27b17863","setGardenDomainsFromMint(address,uint8)":"8a782f00","setGardenToken(address)":"b709b7fd","setHatsModule(address)":"adcb9221","transferOwnership(address)":"f2fde38b","updateActionEndTime(uint256,uint256)":"2e94bd9b","updateActionInstructions(uint256,string)":"c8fc7af2","updateActionMedia(uint256,string[])":"4af7fa6a","updateActionStartTime(uint256,uint256)":"3df0300c","updateActionTitle(uint256,string)":"269a2709","upgradeTo(address)":"3659cfe6","upgradeToAndCall(address,bytes)":"4f1ef286"},"id":160}