{"abi":[{"type":"constructor","inputs":[{"name":"entryPoint_","type":"address","internalType":"address"},{"name":"multicallForwarder","type":"address","internalType":"address"},{"name":"erc6551Registry","type":"address","internalType":"address"},{"name":"_guardian","type":"address","internalType":"address"}],"stateMutability":"nonpayable"},{"type":"fallback","stateMutability":"payable"},{"type":"receive","stateMutability":"payable"},{"type":"function","name":"entryPoint","inputs":[],"outputs":[{"name":"","type":"address","internalType":"contract IEntryPoint"}],"stateMutability":"view"},{"type":"function","name":"erc6551Registry","inputs":[],"outputs":[{"name":"","type":"address","internalType":"address"}],"stateMutability":"view"},{"type":"function","name":"execute","inputs":[{"name":"to","type":"address","internalType":"address"},{"name":"value","type":"uint256","internalType":"uint256"},{"name":"data","type":"bytes","internalType":"bytes"},{"name":"operation","type":"uint8","internalType":"uint8"}],"outputs":[{"name":"","type":"bytes","internalType":"bytes"}],"stateMutability":"payable"},{"type":"function","name":"executeBatch","inputs":[{"name":"operations","type":"tuple[]","internalType":"struct BatchExecutor.Operation[]","components":[{"name":"to","type":"address","internalType":"address"},{"name":"value","type":"uint256","internalType":"uint256"},{"name":"data","type":"bytes","internalType":"bytes"},{"name":"operation","type":"uint8","internalType":"uint8"}]}],"outputs":[{"name":"","type":"bytes[]","internalType":"bytes[]"}],"stateMutability":"payable"},{"type":"function","name":"executeNested","inputs":[{"name":"to","type":"address","internalType":"address"},{"name":"value","type":"uint256","internalType":"uint256"},{"name":"data","type":"bytes","internalType":"bytes"},{"name":"operation","type":"uint8","internalType":"uint8"},{"name":"proof","type":"tuple[]","internalType":"struct NestedAccountExecutor.ERC6551AccountInfo[]","components":[{"name":"salt","type":"bytes32","internalType":"bytes32"},{"name":"tokenContract","type":"address","internalType":"address"},{"name":"tokenId","type":"uint256","internalType":"uint256"}]}],"outputs":[{"name":"","type":"bytes","internalType":"bytes"}],"stateMutability":"payable"},{"type":"function","name":"extcall","inputs":[{"name":"to","type":"address","internalType":"address"},{"name":"value","type":"uint256","internalType":"uint256"},{"name":"data","type":"bytes","internalType":"bytes"}],"outputs":[{"name":"result","type":"bytes","internalType":"bytes"}],"stateMutability":"nonpayable"},{"type":"function","name":"extcreate","inputs":[{"name":"value","type":"uint256","internalType":"uint256"},{"name":"bytecode","type":"bytes","internalType":"bytes"}],"outputs":[{"name":"","type":"address","internalType":"address"}],"stateMutability":"nonpayable"},{"type":"function","name":"extcreate2","inputs":[{"name":"value","type":"uint256","internalType":"uint256"},{"name":"salt","type":"bytes32","internalType":"bytes32"},{"name":"bytecode","type":"bytes","internalType":"bytes"}],"outputs":[{"name":"","type":"address","internalType":"address"}],"stateMutability":"nonpayable"},{"type":"function","name":"extsload","inputs":[{"name":"slot","type":"bytes32","internalType":"bytes32"}],"outputs":[{"name":"value","type":"bytes32","internalType":"bytes32"}],"stateMutability":"view"},{"type":"function","name":"getNonce","inputs":[],"outputs":[{"name":"","type":"uint256","internalType":"uint256"}],"stateMutability":"view"},{"type":"function","name":"isLocked","inputs":[],"outputs":[{"name":"","type":"bool","internalType":"bool"}],"stateMutability":"view"},{"type":"function","name":"isTrustedForwarder","inputs":[{"name":"forwarder","type":"address","internalType":"address"}],"outputs":[{"name":"","type":"bool","internalType":"bool"}],"stateMutability":"view"},{"type":"function","name":"isValidSignature","inputs":[{"name":"hash","type":"bytes32","internalType":"bytes32"},{"name":"signature","type":"bytes","internalType":"bytes"}],"outputs":[{"name":"magicValue","type":"bytes4","internalType":"bytes4"}],"stateMutability":"view"},{"type":"function","name":"isValidSigner","inputs":[{"name":"signer","type":"address","internalType":"address"},{"name":"data","type":"bytes","internalType":"bytes"}],"outputs":[{"name":"magicValue","type":"bytes4","internalType":"bytes4"}],"stateMutability":"view"},{"type":"function","name":"lock","inputs":[{"name":"_lockedUntil","type":"uint256","internalType":"uint256"}],"outputs":[],"stateMutability":"nonpayable"},{"type":"function","name":"lockedUntil","inputs":[],"outputs":[{"name":"","type":"uint256","internalType":"uint256"}],"stateMutability":"view"},{"type":"function","name":"onERC1155BatchReceived","inputs":[{"name":"","type":"address","internalType":"address"},{"name":"","type":"address","internalType":"address"},{"name":"","type":"uint256[]","internalType":"uint256[]"},{"name":"","type":"uint256[]","internalType":"uint256[]"},{"name":"","type":"bytes","internalType":"bytes"}],"outputs":[{"name":"","type":"bytes4","internalType":"bytes4"}],"stateMutability":"nonpayable"},{"type":"function","name":"onERC1155Received","inputs":[{"name":"","type":"address","internalType":"address"},{"name":"","type":"address","internalType":"address"},{"name":"","type":"uint256","internalType":"uint256"},{"name":"","type":"uint256","internalType":"uint256"},{"name":"","type":"bytes","internalType":"bytes"}],"outputs":[{"name":"","type":"bytes4","internalType":"bytes4"}],"stateMutability":"nonpayable"},{"type":"function","name":"onERC721Received","inputs":[{"name":"","type":"address","internalType":"address"},{"name":"","type":"address","internalType":"address"},{"name":"tokenId","type":"uint256","internalType":"uint256"},{"name":"","type":"bytes","internalType":"bytes"}],"outputs":[{"name":"","type":"bytes4","internalType":"bytes4"}],"stateMutability":"nonpayable"},{"type":"function","name":"overrides","inputs":[{"name":"","type":"address","internalType":"address"},{"name":"","type":"bytes4","internalType":"bytes4"}],"outputs":[{"name":"","type":"address","internalType":"address"}],"stateMutability":"view"},{"type":"function","name":"owner","inputs":[],"outputs":[{"name":"","type":"address","internalType":"address"}],"stateMutability":"view"},{"type":"function","name":"permissions","inputs":[{"name":"","type":"address","internalType":"address"},{"name":"","type":"address","internalType":"address"}],"outputs":[{"name":"","type":"bool","internalType":"bool"}],"stateMutability":"view"},{"type":"function","name":"setOverrides","inputs":[{"name":"selectors","type":"bytes4[]","internalType":"bytes4[]"},{"name":"implementations","type":"address[]","internalType":"address[]"}],"outputs":[],"stateMutability":"nonpayable"},{"type":"function","name":"setPermissions","inputs":[{"name":"callers","type":"address[]","internalType":"address[]"},{"name":"_permissions","type":"bool[]","internalType":"bool[]"}],"outputs":[],"stateMutability":"nonpayable"},{"type":"function","name":"state","inputs":[],"outputs":[{"name":"","type":"uint256","internalType":"uint256"}],"stateMutability":"view"},{"type":"function","name":"supportsInterface","inputs":[{"name":"interfaceId","type":"bytes4","internalType":"bytes4"}],"outputs":[{"name":"","type":"bool","internalType":"bool"}],"stateMutability":"view"},{"type":"function","name":"token","inputs":[],"outputs":[{"name":"chainId","type":"uint256","internalType":"uint256"},{"name":"tokenContract","type":"address","internalType":"address"},{"name":"tokenId","type":"uint256","internalType":"uint256"}],"stateMutability":"view"},{"type":"function","name":"validateUserOp","inputs":[{"name":"userOp","type":"tuple","internalType":"struct UserOperation","components":[{"name":"sender","type":"address","internalType":"address"},{"name":"nonce","type":"uint256","internalType":"uint256"},{"name":"initCode","type":"bytes","internalType":"bytes"},{"name":"callData","type":"bytes","internalType":"bytes"},{"name":"callGasLimit","type":"uint256","internalType":"uint256"},{"name":"verificationGasLimit","type":"uint256","internalType":"uint256"},{"name":"preVerificationGas","type":"uint256","internalType":"uint256"},{"name":"maxFeePerGas","type":"uint256","internalType":"uint256"},{"name":"maxPriorityFeePerGas","type":"uint256","internalType":"uint256"},{"name":"paymasterAndData","type":"bytes","internalType":"bytes"},{"name":"signature","type":"bytes","internalType":"bytes"}]},{"name":"userOpHash","type":"bytes32","internalType":"bytes32"},{"name":"missingAccountFunds","type":"uint256","internalType":"uint256"}],"outputs":[{"name":"validationData","type":"uint256","internalType":"uint256"}],"stateMutability":"nonpayable"},{"type":"event","name":"LockUpdated","inputs":[{"name":"lockedUntil","type":"uint256","indexed":false,"internalType":"uint256"}],"anonymous":false},{"type":"event","name":"OverrideUpdated","inputs":[{"name":"owner","type":"address","indexed":false,"internalType":"address"},{"name":"selector","type":"bytes4","indexed":false,"internalType":"bytes4"},{"name":"implementation","type":"address","indexed":false,"internalType":"address"}],"anonymous":false},{"type":"event","name":"PermissionUpdated","inputs":[{"name":"owner","type":"address","indexed":false,"internalType":"address"},{"name":"caller","type":"address","indexed":false,"internalType":"address"},{"name":"hasPermission","type":"bool","indexed":false,"internalType":"bool"}],"anonymous":false},{"type":"error","name":"AccountLocked","inputs":[]},{"type":"error","name":"ContractCreationFailed","inputs":[]},{"type":"error","name":"ExceedsMaxLockTime","inputs":[]},{"type":"error","name":"InvalidAccountProof","inputs":[]},{"type":"error","name":"InvalidERC6551Registry","inputs":[]},{"type":"error","name":"InvalidEntryPoint","inputs":[]},{"type":"error","name":"InvalidInput","inputs":[]},{"type":"error","name":"InvalidMulticallForwarder","inputs":[]},{"type":"error","name":"InvalidOperation","inputs":[]},{"type":"error","name":"NotAuthorized","inputs":[]},{"type":"error","name":"OwnershipCycle","inputs":[]}],"bytecode":{"object":"0x6101203461014757601f61257f38819003918201601f1916830191906001600160401b0383118484101761014b5781608092859260409586528339810103126101475761004b8261015f565b6100576020840161015f565b61006e606061006785870161015f565b950161015f565b936001600160a01b039283168015610136576080523060a052828116156101265760c05260e081905281161561011557610100921682525161240b9182610174833960805182818161085601528181610d7001528181610f700152611a39015260a05182818161139d0152611fdf015260c051828181610411015281816113be0152612001015260e051828181610b950152818161218501526123a701525181611b3d0152f35b815163754c753360e11b8152600490fd5b83516246a29560e81b8152600490fd5b8451632039d3c960e01b8152600490fd5b5f80fd5b634e487b7160e01b5f52604160045260245ffd5b51906001600160a01b03821682036101475756fe60806040526004361015610026575b361561001e5761001c61176a565b005b61001c61176a565b5f3560e01c806301ffc9a7146101e5578063039721b1146101e0578063056d5afe146101db578063150b7a02146101d65780631626ba7e146101d15780631e2eaeaf146101cc5780631f9838b5146101c75780631fb1ecf0146101c257806334715fb1146101bd5780633a871cdd146101b857806343629a73146101b357806345a24e3e146101ae57806351945447146101a9578063523e3260146101a4578063572b6c051461019f5780637a8f73561461019a5780638da5cb5b14610195578063a4e2d63414610190578063b0d691fe1461018b578063b709467c14610186578063bc197c8114610181578063c19d93fb1461017c578063ce0617ec14610177578063d087d28814610172578063dd4670641461016d578063ee9c605414610168578063f23a6e61146101635763fc0c546a0361000e5761115c565b6110fb565b611093565b610feb565b610f3f565b610f23565b610f06565b610e66565b610d9f565b610d5b565b610d3d565b610d20565b610bc9565b610b71565b610b29565b610aa5565b610a56565b610970565b610820565b6107c5565b61072c565b610666565b610647565b6105f6565b610515565b6103fc565b6102ab565b610200565b6001600160e01b03198116036101fc57565b5f80fd5b346101fc5760203660031901126101fc576020610227600435610222816101ea565b611193565b6040519015158152f35b9181601f840112156101fc578235916001600160401b0383116101fc576020808501948460051b0101116101fc57565b60406003198201126101fc576001600160401b03916004358381116101fc578261028d91600401610231565b939093926024359182116101fc576102a791600401610231565b9091565b346101fc576102b936610261565b92906102d46102cf6102c961169d565b91611f1a565b611fdc565b6001600160a01b03811680156103ea5733036103ea576102f26116fa565b8385036103d8575f5b84811061030457005b8061037061031d6103186001948a886112a0565b6112bf565b6001600160a01b0385165f90815260026020526040902061035f9061034b610346868c8c6112a0565b6112c9565b60018060a01b03165f5260205260405f2090565b9060ff801983541691151516179055565b7f394777a58092892d136a90c4bb7e4350c72ac50fba6a0208128677f36527dcf561039f6103468389896112a0565b6103ad610318848b896112a0565b604080516001600160a01b03888116825293909316602084015290151590820152606090a1016102fb565b60405163b4fa3fb360e01b8152600490fd5b60405163ea8e4eb560e01b8152600490fd5b346101fc575f3660031901126101fc576040517f00000000000000000000000000000000000000000000000000000000000000006001600160a01b03168152602090f35b6001600160a01b038116036101fc57565b634e487b7160e01b5f52604160045260245ffd5b606081019081106001600160401b0382111761048057604052565b610451565b90601f801991011681019081106001600160401b0382111761048057604052565b6001600160401b03811161048057601f01601f191660200190565b9291926104cd826104a6565b916104db6040519384610485565b8294818452818301116101fc578281602093845f960137010152565b9080601f830112156101fc57816020610512933591016104c1565b90565b346101fc5760803660031901126101fc57610531600435610440565b61053c602435610440565b6064356001600160401b0381116101fc5761055b9036906004016104f7565b5061056461169d565b919060018060a01b0316331491826105bd575b50816105b3575b506105a15761058b61176a565b604051630a85bd0160e11b8152602090f35b0390f35b60405163b79e3f3f60e01b8152600490fd5b905046145f61057e565b6044351491505f610577565b9181601f840112156101fc578235916001600160401b0383116101fc57602083818601950101116101fc57565b346101fc5760403660031901126101fc576024356001600160401b0381116101fc5761063461062b60209236906004016105c9565b906004356112d3565b6040516001600160e01b03199091168152f35b346101fc5760203660031901126101fc57602060043554604051908152f35b346101fc5760403660031901126101fc57602060ff6106be60043561068a81610440565b6024359061069782610440565b60018060a01b03165f526002845260405f209060018060a01b03165f5260205260405f2090565b54166040519015158152f35b60ff8116036101fc57565b5f5b8381106106e65750505f910152565b81810151838201526020016106d7565b9060209161070f815180928185528580860191016106d5565b601f01601f1916010190565b9060206105129281815201906106f6565b60a03660031901126101fc5760043561074481610440565b6001600160401b036044358181116101fc576107649036906004016105c9565b919092606435610773816106ca565b608435938385116101fc57366023860112156101fc5784600401359384116101fc5736602460608602870101116101fc5761059d9560246107b996019360243590611336565b6040519182918261071b565b346101fc5760603660031901126101fc576044356001600160401b0381116101fc5761080e6107fa60209236906004016105c9565b90610803611ce3565b602435600435611cfd565b6040516001600160a01b039091168152f35b346101fc576003196060368201126101fc57600435906001600160401b0382116101fc576101609082360301126101fc576044357f00000000000000000000000000000000000000000000000000000000000000006001600160a01b031633036108c85761089761059d9260243590600401611d37565b90806108af575b506040519081529081906020820190565b5f80808093338219f1506108c161166e565b505f61089e565b60405162461bcd60e51b815260206004820152601c60248201527f6163636f756e743a206e6f742066726f6d20456e747279506f696e74000000006044820152606490fd5b6020808201906020835283518092526040830192602060408460051b8301019501935f915b8483106109425750505050505090565b9091929394958480610960600193603f198682030187528a516106f6565b9801930193019194939290610932565b6020806003193601126101fc576004356001600160401b0381116101fc5761099c903690600401610231565b916109b46109b06109ab612182565b611a2c565b1590565b6103ea576109c06116fa565b6109c983611515565b925f5b8181106109e1576040518061059d878261090d565b80610a3a6109f5610346600194868961155e565b848787610a0386848461155e565b0135610a346060610a2e88610a26610a1c82898961155e565b6040810190611580565b97909661155e565b016115b2565b93611bca565b610a4482886115bc565b52610a4f81876115bc565b50016109cc565b346101fc5760403660031901126101fc576024356001600160401b0381116101fc5761080e610a9d610a8e60209336906004016105c9565b610a96611ce3565b36916104c1565b600435611d87565b60803660031901126101fc57600435610abd81610440565b6044356001600160401b0381116101fc57610adc9036906004016105c9565b60649291923590610aec826106ca565b610af76109ab612182565b156103ea5761059d93610b1593610b0c6116fa565b60243590611bca565b6040519182916020835260208301906106f6565b346101fc5760403660031901126101fc57600435610b4681610440565b6024356001600160401b0381116101fc57602091610b6b6106349236906004016105c9565b916115d0565b346101fc5760203660031901126101fc576020600435610b9081610440565b6040517f00000000000000000000000000000000000000000000000000000000000000006001600160a01b039081169216919091148152f35b346101fc57610bd736610261565b9290610be76102cf6102c961169d565b6001600160a01b03811680156103ea5733036103ea57610c056116fa565b610c0e30611dfb565b3b15610d12575b8385036103d8575f5b848110610c2757005b80610c9d610c3b6103466001948a886112a0565b6001600160a01b0385165f908152600160205260409020610c7e90610c69610c64868c8c6112a0565b6115f9565b63ffffffff60e01b165f5260205260405f2090565b80546001600160a01b0319166001600160a01b03909216919091179055565b7f2c722487e90aca38ec1b074c3403210bd2bfb769b4da7f12f7bf0b9e37517c18610ccc610c648389896112a0565b610cda610346848b896112a0565b604080516001600160a01b0380891682526001600160e01b03199094166020820152929091169082015280606081010390a101610c1e565b610d1b30611e4a565b610c15565b346101fc575f3660031901126101fc57602061080e6102c961169d565b346101fc575f3660031901126101fc5760205f546040519042108152f35b346101fc575f3660031901126101fc576040517f00000000000000000000000000000000000000000000000000000000000000006001600160a01b03168152602090f35b346101fc5760603660031901126101fc57600435610dbc81610440565b6044356001600160401b0381116101fc5761059d91610de5610a8e610b159336906004016105c9565b9060243590611f8a565b6001600160401b0381116104805760051b60200190565b9080601f830112156101fc576020908235610e2081610def565b93610e2e6040519586610485565b81855260208086019260051b8201019283116101fc57602001905b828210610e57575050505090565b81358152908301908301610e49565b346101fc5760a03660031901126101fc57610e82600435610440565b610e8d602435610440565b6001600160401b036044358181116101fc57610ead903690600401610e06565b506064358181116101fc57610ec6903690600401610e06565b506084359081116101fc57610edf9036906004016104f7565b5061059d610eeb611603565b6040516001600160e01b031990911681529081906020820190565b346101fc575f3660031901126101fc576020600354604051908152f35b346101fc575f3660031901126101fc5760205f54604051908152f35b346101fc575f3660031901126101fc57604051631aab3f0d60e11b81523060048201525f60248201526020816044817f00000000000000000000000000000000000000000000000000000000000000006001600160a01b03165afa8015610fe6575f90610fb2575b604051908152602090f35b506020813d602011610fde575b81610fcc60209383610485565b810103126101fc5761059d9051610fa7565b3d9150610fbf565b611316565b346101fc5760203660031901126101fc576004356102cf61101f61100d61169d565b6001600160a01b039492909190611f1a565b1680156103ea5733036103ea576110354261162a565b81116110815761107c7fa7b24c66dd3269a292a60b3facdbb8f3e7557d1e19e64d99e0d6ee7250be63ad916110686116fa565b805f55604051918291829190602083019252565b0390a1005b6040516301814f7d60e31b8152600490fd5b346101fc5760403660031901126101fc5760206004356110b281610440565b6110f16024356110c1816101ea565b6001600160a01b039283165f9081526001855260408082206001600160e01b031990931682526020929092522090565b5416604051908152f35b346101fc5760a03660031901126101fc57611117600435610440565b611122602435610440565b6084356001600160401b0381116101fc576111419036906004016104f7565b5061114a61176a565b60405163f23a6e6160e01b8152602090f35b346101fc575f3660031901126101fc57606061117661169d565b604080519384526001600160a01b03909216602084015290820152f35b6001600160e01b0319908116635194544760e01b8114908115611247575b50611241576112026111dd916102cf6111c861169d565b6001600160a01b039687949093909290611f1a565b165f52600160205260405f20905f351663ffffffff60e01b165f5260205260405f2090565b54168061120e57505f90565b5f80916040518061121f8136611640565b03915afa61122b61166e565b901561123957602081519101f35b602081519101fd5b50600190565b636faff5f160e01b811491508115611261575b505f6111b1565b630271189760e51b81149150811561127b575b505f61125a565b6301ffc9a760e01b1490505f611274565b634e487b7160e01b5f52603260045260245ffd5b91908110156112b05760051b0190565b61128c565b801515036101fc57565b35610512816112b5565b3561051281610440565b906112de92916118be565b6112e6575f90565b630b135d3f60e11b90565b91908110156112b0576060020190565b908160209103126101fc5751610512816112b5565b6040513d5f823e3d90fd5b908160209103126101fc575161051281610440565b95949091929394611345612182565b915f915b808310611374575050506109b061135f91611a2c565b6103ea576105129461136f6116fa565b611bca565b9091926113828483856112f1565b9061138f602083016112c9565b6113e26040840135824686357f00000000000000000000000000000000000000000000000000000000000000007f00000000000000000000000000000000000000000000000000000000000000006119a5565b92813b1561145a57833b61149d575b604080516331a9108f60e11b815291013560048201529190602090839060249082906001600160a01b03165afa5f928161146c575b5061143d57604051631052dd2560e21b8152600490fd5b6001600160a01b0390811691160361145a57926001019190611349565b604051631052dd2560e21b8152600490fd5b61148f91935060203d602011611496575b6114878183610485565b810190611321565b915f611426565b503d61147d565b604051632938b58d60e21b815260049060208183816001600160a01b038a165afa908115610fe6575f916114e6575b506114d757506113f1565b604051636315bfbb60e01b8152fd5b611508915060203d60201161150e575b6115008183610485565b810190611301565b5f6114cc565b503d6114f6565b9061151f82610def565b61152c6040519182610485565b828152809261153d601f1991610def565b01905f5b82811061154d57505050565b806060602080938501015201611541565b91908110156112b05760051b81013590607e19813603018212156101fc570190565b903590601e19813603018212156101fc57018035906001600160401b0382116101fc576020019181360383136101fc57565b35610512816106ca565b80518210156112b05760209160051b010190565b906115e0906115e69336916104c1565b50611da1565b6115ee575f90565b630291f19360e51b90565b35610512816101ea565b61160b61176a565b63bc197c8160e01b90565b634e487b7160e01b5f52601160045260245ffd5b906301e13380820180921161163b57565b611616565b90815f8237015f815290565b60405190602082018281106001600160401b03821117610480576040525f8252565b3d15611698573d9061167f826104a6565b9161168d6040519384610485565b82523d5f602084013e565b606090565b60405190608082018281106001600160401b038211176104805760405260608252602082016060604d82303c6060838051810103126101fc57519060606040840151936116e985610440565b015191926001600160a01b03169190565b5f5442106117585760035460806117506117126123a4565b92908360405194859260208401978852604080850152816060850152848401375f838284010152601f80199101168101036060810184520182610485565b519020600355565b604051636315bfbb60e01b8152600490fd5b6117b361179761177e6102cf6102c961169d565b6001600160a01b03165f90815260016020526040902090565b5f80356001600160e01b03191681526020919091526040902090565b546001600160a01b0381166117c55750565b5f80916117d130611dfb565b908260405161181560488260208101956001600160601b0319809160601b16875236866034840137368201903360601b166034820152036028810184520182610485565b51925af161122b61166e565b90604010156112b05760400190565b906020116101fc5790602090565b906040116101fc5760200190602090565b90929192836020116101fc5783116101fc5760200191601f190190565b909392938483116101fc5784116101fc578101920390565b359060208110611892575090565b5f199060200360031b1b1690565b600511156118aa57565b634e487b7160e01b5f52602160045260245ffd5b909160ff6118e66118e06118d28487611821565b356001600160f81b03191690565b60f81c90565b161561191f57611901926118fb9136916104c1565b90612151565b61190a816118a0565b61191a57610512906115e061164c565b505f90565b906119456119396119396119338587611830565b90611884565b6001600160a01b031690565b9161194e61164c565b5061195b6109b084611da1565b80611992575b61198a57610a9681858161197e611933611984966105129a61183e565b9161186c565b916120d7565b505050505f90565b506001600160a01b038316301415611961565b91906055959360e2956040519560b787015260018060a01b0316609786015260778501528160578501526e5af43d82803e903d91602b57fd5bf360378501526028840152733d60ad80600a3d3981f3363d3d373d3d3d363d73601484015260b7835260d7830190816040528351602085012061011785015260f7840152520160ff81532090565b6001600160a01b038181167f000000000000000000000000000000000000000000000000000000000000000082168114611b9f57611a6861169d565b90468303611aeb575b611a7a92611f1a565b8281168214611ae257611a8c90611fdc565b91821614611adb576001600160a01b03165f908152600260205260409020611ace91611ac7919060018060a01b03165f5260205260405f2090565b5460ff1690565b611ad6575f90565b600190565b5050600190565b50505050600190565b611b11611af6612182565b6001600160a01b0390811661111061111160901b0119011690565b85163014611b75576040516333932be560e11b81526001600160a01b03871660048201526020816024817f00000000000000000000000000000000000000000000000000000000000000008a165afa908115610fe6575f91611b80575b5015611a71575b505050505050600190565b611b99915060203d60201161150e576115008183610485565b5f611b6e565b505050600190565b909280926014946001600160601b03199060601b1683528483013701015f815290565b9092919360ff16908115611cca5760018214611c79575060028114611c5c57600314611c0257604051631cc6a69960e11b8152600490fd5b8261051292611c258380611c1f611933611c2d97611c4e9a611830565b9461184f565b929091611cfd565b604051928391602083016014916001600160601b03199060601b1681520190565b03601f198101835282610485565b5061051291611c73611c4e94611c2d9336916104c1565b90611d87565b6105129493929150611cb790611ca9611c9130611dfb565b93843b15611cbc575b60405196879360208501611ba7565b03601f198101855284610485565b611f8a565b611cc530611e4a565b611c9a565b9291611cdd9150936105129436916104c1565b91611f8a565b6001600160a01b03611cf430611dfb565b1633036103ea57565b91611d0a919336916104c1565b9060208251920190f5906001600160a01b03821615611d2557565b60405163a28c247360e01b8152600490fd5b611d7a917f19457468657265756d205369676e6564204d6573736167653a0a3332000000005f52601c52611d74603c5f2091610140810190611580565b916118be565b611d8357600190565b5f90565b60208251920190f0906001600160a01b03821615611d2557565b611dac6102c961169d565b6001600160a01b03828116918082168314611ae257611dca90611fdc565b16809114611adb575f9081526002602090815260408083206001600160a01b0390941683529290522060ff90541690565b600b611e086055926121d4565b602081519101206040519060408201527f97f795a08410e77dc9dbbaba3915f17c601e45642518dd578bd440d8775bfee460208201523081520160ff81532090565b611e53906121d4565b805115611ed65780516001600160a01b03917f97f795a08410e77dc9dbbaba3915f17c601e45642518dd578bd440d8775bfee491906020015ff51615611e9557565b60405162461bcd60e51b8152602060048201526019602482015278437265617465323a204661696c6564206f6e206465706c6f7960381b6044820152606490fd5b606460405162461bcd60e51b815260206004820152602060248201527f437265617465323a2062797465636f6465206c656e677468206973207a65726f6044820152fd5b4603611f8457803b15611f84576040516331a9108f60e11b81526004810192909252602090829060249082906001600160a01b03165afa5f9181611f63575b5061051257505f90565b611f7d91925060203d602011611496576114878183610485565b905f611f59565b50505f90565b915f928392602083519301915af190611fa161166e565b9115611fa957565b50602081519101fd5b6040519060a082018281106001600160401b03821117610480576040526080808352366020840137565b907f0000000000000000000000000000000000000000000000000000000000000000917f00000000000000000000000000000000000000000000000000000000000000005b61202c8185846122ab565b156120d25760408051637e062a3560e11b815292606091908290859060049082906001600160a01b03165afa938415610fe6575f915f935f96612082575b5050509261207b9161202c94611f1a565b9150612021565b92509250809450813d83116120cb575b61209c8183610485565b810103126101fc578261207b9161202c9451906020830151926120be84610440565b015190919094819361206a565b503d612092565b509150565b5f919290829160405161210e81611c4e6020820194630b135d3f60e11b998a875260248401526040604484015260648301906106f6565b51915afa9061211b61166e565b82612143575b8261212b57505090565b9091506020818051810103126101fc57602001511490565b915060208251101591612121565b9060418151145f14612179576102a791602082015190606060408401519301515f1a90612333565b50505f90600290565b337f00000000000000000000000000000000000000000000000000000000000000006001600160a01b031614806121c9575b156121c55736601319013560601c90565b3390565b5060143610156121b4565b6040908151828101908082106001600160401b0383111761048057836105129360349361227a9652600e835261229c602084016d604380600d600039806000f3fe7360901b815283519061222782610465565b602e825260208201947f3314601d573d3dfd5b363d3d373d3d6014360360143d5160601c5af43d60008086526d3e80603e573d6000fd5b3d6000f360901b818401525198899651809260208901906106d5565b8501926001600160601b03199060601b166020840152518093868401906106d5565b01036014810184520182610485565b9160ad833b0361232c576014600a600c853c5f5190813b1561198a576001600160a01b039283168284160361198a576122e2611fb2565b60208101916080602d84883c6080828051810103126101fc5761232693611939935160408401519187608060608701519661231c88610440565b01519516936119a5565b91161490565b5050505f90565b6fa2a8918ca85bafe22016d0b997e4df60600160ff1b038411612399576020935f9360ff60809460405194855216868401526040830152606082015282805260015afa15610fe6575f516001600160a01b0381161561239157905f90565b505f90600190565b505050505f90600390565b337f00000000000000000000000000000000000000000000000000000000000000006001600160a01b031614806123f3575b156123ed5760131936019036821161163b575f9190565b5f903690565b5060143610156123d656fea164736f6c6343000819000a","linkReferences":{}},"methodIdentifiers":{"entryPoint()":"b0d691fe","erc6551Registry()":"056d5afe","execute(address,uint256,bytes,uint8)":"51945447","executeBatch((address,uint256,bytes,uint8)[])":"43629a73","executeNested(address,uint256,bytes,uint8,(bytes32,address,uint256)[])":"1fb1ecf0","extcall(address,uint256,bytes)":"b709467c","extcreate(uint256,bytes)":"45a24e3e","extcreate2(uint256,bytes32,bytes)":"34715fb1","extsload(bytes32)":"1e2eaeaf","getNonce()":"d087d288","isLocked()":"a4e2d634","isTrustedForwarder(address)":"572b6c05","isValidSignature(bytes32,bytes)":"1626ba7e","isValidSigner(address,bytes)":"523e3260","lock(uint256)":"dd467064","lockedUntil()":"ce0617ec","onERC1155BatchReceived(address,address,uint256[],uint256[],bytes)":"bc197c81","onERC1155Received(address,address,uint256,uint256,bytes)":"f23a6e61","onERC721Received(address,address,uint256,bytes)":"150b7a02","overrides(address,bytes4)":"ee9c6054","owner()":"8da5cb5b","permissions(address,address)":"1f9838b5","setOverrides(bytes4[],address[])":"7a8f7356","setPermissions(address[],bool[])":"039721b1","state()":"c19d93fb","supportsInterface(bytes4)":"01ffc9a7","token()":"fc0c546a","validateUserOp((address,uint256,bytes,bytes,uint256,uint256,uint256,uint256,uint256,bytes,bytes),bytes32,uint256)":"3a871cdd"},"id":77}