{"abi":[{"type":"constructor","inputs":[{"name":"entryPoint_","type":"address","internalType":"address"},{"name":"multicallForwarder","type":"address","internalType":"address"},{"name":"erc6551Registry","type":"address","internalType":"address"},{"name":"_guardian","type":"address","internalType":"address"}],"stateMutability":"nonpayable"},{"type":"fallback","stateMutability":"payable"},{"type":"receive","stateMutability":"payable"},{"type":"function","name":"entryPoint","inputs":[],"outputs":[{"name":"","type":"address","internalType":"contract IEntryPoint"}],"stateMutability":"view"},{"type":"function","name":"erc6551Registry","inputs":[],"outputs":[{"name":"","type":"address","internalType":"address"}],"stateMutability":"view"},{"type":"function","name":"execute","inputs":[{"name":"to","type":"address","internalType":"address"},{"name":"value","type":"uint256","internalType":"uint256"},{"name":"data","type":"bytes","internalType":"bytes"},{"name":"operation","type":"uint8","internalType":"uint8"}],"outputs":[{"name":"","type":"bytes","internalType":"bytes"}],"stateMutability":"payable"},{"type":"function","name":"executeBatch","inputs":[{"name":"operations","type":"tuple[]","internalType":"struct BatchExecutor.Operation[]","components":[{"name":"to","type":"address","internalType":"address"},{"name":"value","type":"uint256","internalType":"uint256"},{"name":"data","type":"bytes","internalType":"bytes"},{"name":"operation","type":"uint8","internalType":"uint8"}]}],"outputs":[{"name":"","type":"bytes[]","internalType":"bytes[]"}],"stateMutability":"payable"},{"type":"function","name":"executeNested","inputs":[{"name":"to","type":"address","internalType":"address"},{"name":"value","type":"uint256","internalType":"uint256"},{"name":"data","type":"bytes","internalType":"bytes"},{"name":"operation","type":"uint8","internalType":"uint8"},{"name":"proof","type":"tuple[]","internalType":"struct NestedAccountExecutor.ERC6551AccountInfo[]","components":[{"name":"salt","type":"bytes32","internalType":"bytes32"},{"name":"tokenContract","type":"address","internalType":"address"},{"name":"tokenId","type":"uint256","internalType":"uint256"}]}],"outputs":[{"name":"","type":"bytes","internalType":"bytes"}],"stateMutability":"payable"},{"type":"function","name":"extcall","inputs":[{"name":"to","type":"address","internalType":"address"},{"name":"value","type":"uint256","internalType":"uint256"},{"name":"data","type":"bytes","internalType":"bytes"}],"outputs":[{"name":"result","type":"bytes","internalType":"bytes"}],"stateMutability":"nonpayable"},{"type":"function","name":"extcreate","inputs":[{"name":"value","type":"uint256","internalType":"uint256"},{"name":"bytecode","type":"bytes","internalType":"bytes"}],"outputs":[{"name":"","type":"address","internalType":"address"}],"stateMutability":"nonpayable"},{"type":"function","name":"extcreate2","inputs":[{"name":"value","type":"uint256","internalType":"uint256"},{"name":"salt","type":"bytes32","internalType":"bytes32"},{"name":"bytecode","type":"bytes","internalType":"bytes"}],"outputs":[{"name":"","type":"address","internalType":"address"}],"stateMutability":"nonpayable"},{"type":"function","name":"extsload","inputs":[{"name":"slot","type":"bytes32","internalType":"bytes32"}],"outputs":[{"name":"value","type":"bytes32","internalType":"bytes32"}],"stateMutability":"view"},{"type":"function","name":"getNonce","inputs":[],"outputs":[{"name":"","type":"uint256","internalType":"uint256"}],"stateMutability":"view"},{"type":"function","name":"isLocked","inputs":[],"outputs":[{"name":"","type":"bool","internalType":"bool"}],"stateMutability":"view"},{"type":"function","name":"isTrustedForwarder","inputs":[{"name":"forwarder","type":"address","internalType":"address"}],"outputs":[{"name":"","type":"bool","internalType":"bool"}],"stateMutability":"view"},{"type":"function","name":"isValidSignature","inputs":[{"name":"hash","type":"bytes32","internalType":"bytes32"},{"name":"signature","type":"bytes","internalType":"bytes"}],"outputs":[{"name":"magicValue","type":"bytes4","internalType":"bytes4"}],"stateMutability":"view"},{"type":"function","name":"isValidSigner","inputs":[{"name":"signer","type":"address","internalType":"address"},{"name":"data","type":"bytes","internalType":"bytes"}],"outputs":[{"name":"magicValue","type":"bytes4","internalType":"bytes4"}],"stateMutability":"view"},{"type":"function","name":"lock","inputs":[{"name":"_lockedUntil","type":"uint256","internalType":"uint256"}],"outputs":[],"stateMutability":"nonpayable"},{"type":"function","name":"lockedUntil","inputs":[],"outputs":[{"name":"","type":"uint256","internalType":"uint256"}],"stateMutability":"view"},{"type":"function","name":"onERC1155BatchReceived","inputs":[{"name":"","type":"address","internalType":"address"},{"name":"","type":"address","internalType":"address"},{"name":"","type":"uint256[]","internalType":"uint256[]"},{"name":"","type":"uint256[]","internalType":"uint256[]"},{"name":"","type":"bytes","internalType":"bytes"}],"outputs":[{"name":"","type":"bytes4","internalType":"bytes4"}],"stateMutability":"nonpayable"},{"type":"function","name":"onERC1155Received","inputs":[{"name":"","type":"address","internalType":"address"},{"name":"","type":"address","internalType":"address"},{"name":"","type":"uint256","internalType":"uint256"},{"name":"","type":"uint256","internalType":"uint256"},{"name":"","type":"bytes","internalType":"bytes"}],"outputs":[{"name":"","type":"bytes4","internalType":"bytes4"}],"stateMutability":"nonpayable"},{"type":"function","name":"onERC721Received","inputs":[{"name":"","type":"address","internalType":"address"},{"name":"","type":"address","internalType":"address"},{"name":"tokenId","type":"uint256","internalType":"uint256"},{"name":"","type":"bytes","internalType":"bytes"}],"outputs":[{"name":"","type":"bytes4","internalType":"bytes4"}],"stateMutability":"nonpayable"},{"type":"function","name":"overrides","inputs":[{"name":"","type":"address","internalType":"address"},{"name":"","type":"bytes4","internalType":"bytes4"}],"outputs":[{"name":"","type":"address","internalType":"address"}],"stateMutability":"view"},{"type":"function","name":"owner","inputs":[],"outputs":[{"name":"","type":"address","internalType":"address"}],"stateMutability":"view"},{"type":"function","name":"permissions","inputs":[{"name":"","type":"address","internalType":"address"},{"name":"","type":"address","internalType":"address"}],"outputs":[{"name":"","type":"bool","internalType":"bool"}],"stateMutability":"view"},{"type":"function","name":"setOverrides","inputs":[{"name":"selectors","type":"bytes4[]","internalType":"bytes4[]"},{"name":"implementations","type":"address[]","internalType":"address[]"}],"outputs":[],"stateMutability":"nonpayable"},{"type":"function","name":"setPermissions","inputs":[{"name":"callers","type":"address[]","internalType":"address[]"},{"name":"_permissions","type":"bool[]","internalType":"bool[]"}],"outputs":[],"stateMutability":"nonpayable"},{"type":"function","name":"state","inputs":[],"outputs":[{"name":"","type":"uint256","internalType":"uint256"}],"stateMutability":"view"},{"type":"function","name":"supportsInterface","inputs":[{"name":"interfaceId","type":"bytes4","internalType":"bytes4"}],"outputs":[{"name":"","type":"bool","internalType":"bool"}],"stateMutability":"view"},{"type":"function","name":"token","inputs":[],"outputs":[{"name":"chainId","type":"uint256","internalType":"uint256"},{"name":"tokenContract","type":"address","internalType":"address"},{"name":"tokenId","type":"uint256","internalType":"uint256"}],"stateMutability":"view"},{"type":"function","name":"validateUserOp","inputs":[{"name":"userOp","type":"tuple","internalType":"struct UserOperation","components":[{"name":"sender","type":"address","internalType":"address"},{"name":"nonce","type":"uint256","internalType":"uint256"},{"name":"initCode","type":"bytes","internalType":"bytes"},{"name":"callData","type":"bytes","internalType":"bytes"},{"name":"callGasLimit","type":"uint256","internalType":"uint256"},{"name":"verificationGasLimit","type":"uint256","internalType":"uint256"},{"name":"preVerificationGas","type":"uint256","internalType":"uint256"},{"name":"maxFeePerGas","type":"uint256","internalType":"uint256"},{"name":"maxPriorityFeePerGas","type":"uint256","internalType":"uint256"},{"name":"paymasterAndData","type":"bytes","internalType":"bytes"},{"name":"signature","type":"bytes","internalType":"bytes"}]},{"name":"userOpHash","type":"bytes32","internalType":"bytes32"},{"name":"missingAccountFunds","type":"uint256","internalType":"uint256"}],"outputs":[{"name":"validationData","type":"uint256","internalType":"uint256"}],"stateMutability":"nonpayable"},{"type":"event","name":"LockUpdated","inputs":[{"name":"lockedUntil","type":"uint256","indexed":false,"internalType":"uint256"}],"anonymous":false},{"type":"event","name":"OverrideUpdated","inputs":[{"name":"owner","type":"address","indexed":false,"internalType":"address"},{"name":"selector","type":"bytes4","indexed":false,"internalType":"bytes4"},{"name":"implementation","type":"address","indexed":false,"internalType":"address"}],"anonymous":false},{"type":"event","name":"PermissionUpdated","inputs":[{"name":"owner","type":"address","indexed":false,"internalType":"address"},{"name":"caller","type":"address","indexed":false,"internalType":"address"},{"name":"hasPermission","type":"bool","indexed":false,"internalType":"bool"}],"anonymous":false},{"type":"error","name":"AccountLocked","inputs":[]},{"type":"error","name":"ContractCreationFailed","inputs":[]},{"type":"error","name":"ExceedsMaxLockTime","inputs":[]},{"type":"error","name":"InvalidAccountProof","inputs":[]},{"type":"error","name":"InvalidERC6551Registry","inputs":[]},{"type":"error","name":"InvalidEntryPoint","inputs":[]},{"type":"error","name":"InvalidInput","inputs":[]},{"type":"error","name":"InvalidMulticallForwarder","inputs":[]},{"type":"error","name":"InvalidOperation","inputs":[]},{"type":"error","name":"NotAuthorized","inputs":[]},{"type":"error","name":"OwnershipCycle","inputs":[]}],"bytecode":{"object":"0x6101203461014757601f612b7438819003918201601f1916830191906001600160401b0383118484101761014b5781608092859260409586528339810103126101475761004b8261015f565b6100576020840161015f565b61006e606061006785870161015f565b950161015f565b936001600160a01b039283168015610136576080523060a052828116156101265760c05260e0819052811615610115576101009216825251612a009182610174833960805182818161093601528181610ef2015281816111230152611e9f015260a051828181611649015261252a015260c0518281816104880152818161166a015261254c015260e051828181610cd201528181612705015261298501525181611fd60152f35b815163754c753360e11b8152600490fd5b83516246a29560e81b8152600490fd5b8451632039d3c960e01b8152600490fd5b5f80fd5b634e487b7160e01b5f52604160045260245ffd5b51906001600160a01b03821682036101475756fe60806040526004361015610026575b361561001e5761001c611b32565b005b61001c611b32565b5f3560e01c806301ffc9a7146101e5578063039721b1146101e0578063056d5afe146101db578063150b7a02146101d65780631626ba7e146101d15780631e2eaeaf146101cc5780631f9838b5146101c75780631fb1ecf0146101c257806334715fb1146101bd5780633a871cdd146101b857806343629a73146101b357806345a24e3e146101ae57806351945447146101a9578063523e3260146101a4578063572b6c051461019f5780637a8f73561461019a5780638da5cb5b14610195578063a4e2d63414610190578063b0d691fe1461018b578063b709467c14610186578063bc197c8114610181578063c19d93fb1461017c578063ce0617ec14610177578063d087d28814610172578063dd4670641461016d578063ee9c605414610168578063f23a6e61146101635763fc0c546a0361000e57611342565b6112c8565b61124c565b611196565b6110d1565b6110b5565b611098565b610fdf565b610f16565b610ed3565b610eb5565b610e98565b610cf9565b610ca3565b610c5a565b610bd5565b610b85565b610a9e565b6108f7565b61089c565b610802565b61073a565b61071b565b6106b2565b61059e565b610469565b6102c5565b610218565b7fffffffff0000000000000000000000000000000000000000000000000000000081160361021457565b5f80fd5b3461021457602060031936011261021457602061023f60043561023a816101ea565b61137a565b6040519015158152f35b9181601f840112156102145782359167ffffffffffffffff8311610214576020808501948460051b01011161021457565b60406003198201126102145767ffffffffffffffff9160043583811161021457826102a791600401610249565b93909392602435918211610214576102c191600401610249565b9091565b34610214576102d33661027a565b92906102ee6102e96102e3611a4c565b9161244b565b612527565b6001600160a01b038116801561043f57330361043f5761030c611aaa565b838503610415575f5b84811061031e57005b806103ad6103376103326001948a88611533565b611552565b61037d610355866001600160a01b03165f52600260205260405f2090565b610368610363868c8c611533565b61155c565b6001600160a01b03165f5260205260405f2090565b9060ff7fffffffffffffffffffffffffffffffffffffffffffffffffffffffffffffff0083541691151516179055565b7f394777a58092892d136a90c4bb7e4350c72ac50fba6a0208128677f36527dcf56103dc610363838989611533565b6103ea610332848b89611533565b604080516001600160a01b03888116825293909316602084015290151590820152606090a101610315565b60046040517fb4fa3fb3000000000000000000000000000000000000000000000000000000008152fd5b60046040517fea8e4eb5000000000000000000000000000000000000000000000000000000008152fd5b34610214575f6003193601126102145760206040516001600160a01b037f0000000000000000000000000000000000000000000000000000000000000000168152f35b6001600160a01b0381160361021457565b7f4e487b71000000000000000000000000000000000000000000000000000000005f52604160045260245ffd5b6060810190811067ffffffffffffffff82111761050657604052565b6104bd565b90601f601f19910116810190811067ffffffffffffffff82111761050657604052565b67ffffffffffffffff811161050657601f01601f191660200190565b9291926105568261052e565b91610564604051938461050b565b829481845281830111610214578281602093845f960137010152565b9080601f830112156102145781602061059b9335910161054a565b90565b34610214576080600319360112610214576105ba6004356104ac565b6105c56024356104ac565b60643567ffffffffffffffff8111610214576105e5903690600401610580565b506001600160a01b036105f6611a4c565b921633149182610678575b508161066e575b5061064457610615611b32565b6040517f150b7a02000000000000000000000000000000000000000000000000000000008152602090f35b0390f35b60046040517fb79e3f3f000000000000000000000000000000000000000000000000000000008152fd5b905046145f610608565b6044351491505f610601565b9181601f840112156102145782359167ffffffffffffffff8311610214576020838186019501011161021457565b346102145760406003193601126102145760243567ffffffffffffffff8111610214576106f16106e86020923690600401610684565b90600435611566565b7fffffffff0000000000000000000000000000000000000000000000000000000060405191168152f35b3461021457602060031936011261021457602060043554604051908152f35b3461021457604060031936011261021457602060ff61079460043561075e816104ac565b6001600160a01b0360243591610773836104ac565b165f526002845260405f20906001600160a01b03165f5260205260405f2090565b54166040519015158152f35b60ff81160361021457565b5f5b8381106107bc5750505f910152565b81810151838201526020016107ad565b90601f19601f6020936107ea815180928187528780880191016107ab565b0116010190565b90602061059b9281815201906107cc565b60a06003193601126102145760043561081a816104ac565b67ffffffffffffffff6044358181116102145761083b903690600401610684565b91909260643561084a816107a0565b60843593838511610214573660238601121561021457846004013593841161021457366024606086028701011161021457610640956024610890960193602435906115e2565b604051918291826107f1565b346102145760606003193601126102145760443567ffffffffffffffff8111610214576108e66108d26020923690600401610684565b906108db6121c2565b6024356004356121dc565b6001600160a01b0360405191168152f35b3461021457600319606081360112610214576004359067ffffffffffffffff821161021457610160908236030112610214576044356001600160a01b037f00000000000000000000000000000000000000000000000000000000000000001633036109bf5761096f610640926024359060040161222e565b9080610987575b506040519081529081906020820190565b5f80808093337ffffffffffffffffffffffffffffffffffffffffffffffffffffffffffffffffff1506109b8611a1d565b505f610976565b60646040517f08c379a000000000000000000000000000000000000000000000000000000000815260206004820152601c60248201527f6163636f756e743a206e6f742066726f6d20456e747279506f696e74000000006044820152fd5b6020808201906020835283518092526040830192602060408460051b8301019501935f915b848310610a525750505050505090565b9091929394958480610a8e837fffffffffffffffffffffffffffffffffffffffffffffffffffffffffffffffc086600196030187528a516107cc565b9801930193019194939290610a42565b6020806003193601126102145760043567ffffffffffffffff811161021457610acb903690600401610249565b91610ae3610adf610ada6126fb565b611e91565b1590565b61043f57610aef611aaa565b610af88361183c565b925f5b818110610b1057604051806106408782610a1d565b80610b69610b246103636001948689611884565b848787610b32868484611884565b0135610b636060610b5d88610b55610b4b828989611884565b60408101906118c4565b979096611884565b01611915565b9361207a565b610b73828861191f565b52610b7e818761191f565b5001610afb565b346102145760406003193601126102145760243567ffffffffffffffff8111610214576108e6610bcd610bbe6020933690600401610684565b610bc66121c2565b369161054a565b60043561227e565b608060031936011261021457600435610bed816104ac565b60443567ffffffffffffffff811161021457610c0d903690600401610684565b60649291923590610c1d826107a0565b610c28610ada6126fb565b1561043f5761064093610c4693610c3d611aaa565b6024359061207a565b6040519182916020835260208301906107cc565b3461021457604060031936011261021457600435610c77816104ac565b60243567ffffffffffffffff811161021457602091610c9d6106f1923690600401610684565b91611933565b34610214576020600319360112610214576020600435610cc2816104ac565b6001600160a01b039060405191807f0000000000000000000000000000000000000000000000000000000000000000169116148152f35b3461021457610d073661027a565b9290610d176102e96102e3611a4c565b6001600160a01b038116801561043f57330361043f57610d35611aaa565b610d3e306122f6565b3b15610e8a575b838503610415575f5b848110610d5757005b80610dfd610d6b6103636001948a88611533565b610dca610d89866001600160a01b03165f52600160205260405f2090565b610d9c610d97868c8c611533565b611975565b7fffffffff00000000000000000000000000000000000000000000000000000000165f5260205260405f2090565b906001600160a01b03167fffffffffffffffffffffffff0000000000000000000000000000000000000000825416179055565b7f2c722487e90aca38ec1b074c3403210bd2bfb769b4da7f12f7bf0b9e37517c18610e2c610d97838989611533565b610e3a610363848b89611533565b604080516001600160a01b0380891682527fffffffff000000000000000000000000000000000000000000000000000000009094166020820152929091169082015280606081010390a101610d4e565b610e9330612345565b610d45565b34610214575f6003193601126102145760206108e66102e3611a4c565b34610214575f6003193601126102145760205f546040519042108152f35b34610214575f6003193601126102145760206040516001600160a01b037f0000000000000000000000000000000000000000000000000000000000000000168152f35b3461021457606060031936011261021457600435610f33816104ac565b60443567ffffffffffffffff81116102145761064091610f5d610bbe610c46933690600401610684565b90602435906124d4565b67ffffffffffffffff81116105065760051b60200190565b9080601f83011215610214576020908235610f9981610f67565b93610fa7604051958661050b565b81855260208086019260051b82010192831161021457602001905b828210610fd0575050505090565b81358152908301908301610fc2565b346102145760a060031936011261021457610ffb6004356104ac565b6110066024356104ac565b67ffffffffffffffff60443581811161021457611027903690600401610f7f565b5060643581811161021457611040903690600401610f7f565b5060843590811161021457611059903690600401610580565b5061064061106561197f565b6040517fffffffff0000000000000000000000000000000000000000000000000000000090911681529081906020820190565b34610214575f600319360112610214576020600354604051908152f35b34610214575f6003193601126102145760205f54604051908152f35b34610214575f600319360112610214576040517f35567e1a0000000000000000000000000000000000000000000000000000000081523060048201525f60248201526020816044816001600160a01b037f0000000000000000000000000000000000000000000000000000000000000000165afa8015611191575f9061115d575b604051908152602090f35b506020813d602011611189575b816111776020938361050b565b81010312610214576106409051611152565b3d915061116a565b6115c2565b34610214576020600319360112610214576004356001600160a01b036111c06102e96102e3611a4c565b16801561043f57330361043f576111d6426119d8565b81116112225761121d7fa7b24c66dd3269a292a60b3facdbb8f3e7557d1e19e64d99e0d6ee7250be63ad91611209611aaa565b805f55604051918291829190602083019252565b0390a1005b60046040517f0c0a7be8000000000000000000000000000000000000000000000000000000008152fd5b3461021457604060031936011261021457602060043561126b816104ac565b6112be60243561127a816101ea565b6001600160a01b038093165f526001845260405f20907fffffffff00000000000000000000000000000000000000000000000000000000165f5260205260405f2090565b5416604051908152f35b346102145760a0600319360112610214576112e46004356104ac565b6112ef6024356104ac565b60843567ffffffffffffffff81116102145761130f903690600401610580565b50611318611b32565b60206040517ff23a6e61000000000000000000000000000000000000000000000000000000008152f35b34610214575f6003193601126102145760606001600160a01b03611364611a4c565b9192906040519384521660208301526040820152f35b7fffffffff000000000000000000000000000000000000000000000000000000008091167f51945447000000000000000000000000000000000000000000000000000000008114908115611476575b50611470576114316113f3916102e96113e0611a4c565b6001600160a01b0396929391879461244b565b165f52600160205260405f20905f35167fffffffff00000000000000000000000000000000000000000000000000000000165f5260205260405f2090565b54168061143d57505f90565b5f80916040518061144e81366119ee565b03915afa61145a611a1d565b901561146857602081519101f35b602081519101fd5b50600190565b7f6faff5f1000000000000000000000000000000000000000000000000000000008114915081156114a9575b505f6113c9565b7f4e2312e0000000000000000000000000000000000000000000000000000000008114915081156114dc575b505f6114a2565b7f01ffc9a7000000000000000000000000000000000000000000000000000000009150145f6114d5565b7f4e487b71000000000000000000000000000000000000000000000000000000005f52603260045260245ffd5b91908110156115435760051b0190565b611506565b8015150361021457565b3561059b81611548565b3561059b816104ac565b906115719291611d0a565b611579575f90565b7f1626ba7e0000000000000000000000000000000000000000000000000000000090565b9190811015611543576060020190565b90816020910312610214575161059b81611548565b6040513d5f823e3d90fd5b90816020910312610214575161059b816104ac565b959490919293946115f16126fb565b915f915b80831061162057505050610adf61160b91611e91565b61043f5761059b9461161b611aaa565b61207a565b90919261162e84838561159d565b9061163b6020830161155c565b61168e6040840135824686357f00000000000000000000000000000000000000000000000000000000000000007f0000000000000000000000000000000000000000000000000000000000000000611e09565b92813b1561173757833b611792575b604080517f6352211e00000000000000000000000000000000000000000000000000000000815291013560048201529190602090839060249082906001600160a01b03165afa5f9281611761575b5061171a5760046040517f414b7494000000000000000000000000000000000000000000000000000000008152fd5b6001600160a01b03809116911603611737579260010191906115f5565b60046040517f414b7494000000000000000000000000000000000000000000000000000000008152fd5b61178491935060203d60201161178b575b61177c818361050b565b8101906115cd565b915f6116eb565b503d611772565b6040517fa4e2d63400000000000000000000000000000000000000000000000000000000815260049060208183816001600160a01b038a165afa908115611191575f9161180d575b506117e5575061169d565b6040517f6315bfbb000000000000000000000000000000000000000000000000000000008152fd5b61182f915060203d602011611835575b611827818361050b565b8101906115ad565b5f6117da565b503d61181d565b9061184682610f67565b611853604051918261050b565b828152601f196118638294610f67565b01905f5b82811061187357505050565b806060602080938501015201611867565b91908110156115435760051b810135907fffffffffffffffffffffffffffffffffffffffffffffffffffffffffffffff8181360301821215610214570190565b9035907fffffffffffffffffffffffffffffffffffffffffffffffffffffffffffffffe181360301821215610214570180359067ffffffffffffffff82116102145760200191813603831361021457565b3561059b816107a0565b80518210156115435760209160051b010190565b906119439061194993369161054a565b50612298565b611951575f90565b7f523e32600000000000000000000000000000000000000000000000000000000090565b3561059b816101ea565b611987611b32565b7fbc197c810000000000000000000000000000000000000000000000000000000090565b7f4e487b71000000000000000000000000000000000000000000000000000000005f52601160045260245ffd5b906301e1338082018092116119e957565b6119ab565b90815f8237015f815290565b604051906020820182811067ffffffffffffffff821117610506576040525f8252565b3d15611a47573d90611a2e8261052e565b91611a3c604051938461050b565b82523d5f602084013e565b606090565b604051906080820182811067ffffffffffffffff8211176105065760405260608252602082016060604d82303c6060838051810103126102145751906001600160a01b036060604085015194611aa1866104ac565b01519293169190565b5f544210611b08576003546080611b00611ac261297b565b9290601f19601f8560405196879460208601998a52604080870152816060870152868601375f8582860101520116810103606081018452018261050b565b519020600355565b60046040517f6315bfbb000000000000000000000000000000000000000000000000000000008152fd5b611baf611b5d611b466102e96102e3611a4c565b6001600160a01b03165f52600160205260405f2090565b7fffffffff000000000000000000000000000000000000000000000000000000005f35167fffffffff00000000000000000000000000000000000000000000000000000000165f5260205260405f2090565b546001600160a01b038116611bc15750565b5f8091611bcd306122f6565b9082604051611c2960488260208101957fffffffffffffffffffffffffffffffffffffffff000000000000000000000000809160601b16875236866034840137368201903360601b16603482015203602881018452018261050b565b51925af161145a611a1d565b90604010156115435760400190565b906020116102145790602090565b906040116102145760200190602090565b90929192836020116102145783116102145760200191601f190190565b90939293848311610214578411610214578101920390565b359060208110611ca6575090565b7fffffffffffffffffffffffffffffffffffffffffffffffffffffffffffffffff9060200360031b1b1690565b60051115611cdd57565b7f4e487b71000000000000000000000000000000000000000000000000000000005f52602160045260245ffd5b909160ff611d4a611d44611d1e8487611c35565b357fff000000000000000000000000000000000000000000000000000000000000001690565b60f81c90565b1615611d8357611d6592611d5f91369161054a565b906126ca565b611d6e81611cd3565b611d7e5761059b906119436119fa565b505f90565b90611da9611d9d611d9d611d978587611c44565b90611c98565b6001600160a01b031690565b91611db26119fa565b50611dbf610adf84612298565b80611df6575b611dee57610bc6818581611de2611d97611de89661059b9a611c52565b91611c80565b91612637565b505050505f90565b50306001600160a01b0384161415611dc5565b9190605595936001600160a01b0360e2966040519660b788015216609786015260778501528160578501526e5af43d82803e903d91602b57fd5bf360378501526028840152733d60ad80600a3d3981f3363d3d373d3d3d363d73601484015260b7835260d7830190816040528351602085012061011785015260f7840152520160ff81532090565b6001600160a01b03808216817f000000000000000000000000000000000000000000000000000000000000000016811461203857611ecd611a4c565b90468303611f55575b611edf9261244b565b8281168214611f4c57611ef190612527565b91821614611f4557611f3891611f1b611f31926001600160a01b03165f52600260205260405f2090565b906001600160a01b03165f5260205260405f2090565b5460ff1690565b611f40575f90565b600190565b5050600190565b50505050600190565b611f91611f606126fb565b7fffffffffffffffffffffffffeeeeffffffffffffffffffffffffffffffffeeef6001600160a01b03809216011690565b8516301461200e576040517f672657ca0000000000000000000000000000000000000000000000000000000081526001600160a01b03871660048201526020816024817f00000000000000000000000000000000000000000000000000000000000000008a165afa908115611191575f91612019575b5015611ed6575b505050505050600190565b612032915060203d60201161183557611827818361050b565b5f612007565b505050600190565b909280927fffffffffffffffffffffffffffffffffffffffff00000000000000000000000060149560601b1683528483013701015f815290565b9092919360ff169081156121a9576001821461215857506002811461213b576003146120ca5760046040517f398d4d32000000000000000000000000000000000000000000000000000000008152fd5b8261059b926120ed83806120e7611d976120f59761212d9a611c44565b94611c63565b9290916121dc565b604051928391602083017fffffffffffffffffffffffffffffffffffffffff00000000000000000000000060149260601b1681520190565b03601f19810183528261050b565b5061059b9161215261212d946120f593369161054a565b9061227e565b61059b949392915061219690612188612170306122f6565b93843b1561219b575b60405196879360208501612040565b03601f19810185528461050b565b6124d4565b6121a430612345565b612179565b92916121bc91509361059b94369161054a565b916124d4565b6001600160a01b036121d3306122f6565b16330361043f57565b916121e99193369161054a565b9060208251920190f5906001600160a01b0382161561220457565b60046040517fa28c2473000000000000000000000000000000000000000000000000000000008152fd5b612271917f19457468657265756d205369676e6564204d6573736167653a0a3332000000005f52601c5261226b603c5f20916101408101906118c4565b91611d0a565b61227a57600190565b5f90565b60208251920190f0906001600160a01b0382161561220457565b6122a36102e3611a4c565b6001600160a01b03808316918181168314611f4c576122c190612527565b16809114611f455760ff916122f1915f52600260205260405f20906001600160a01b03165f5260205260405f2090565b541690565b600b61230360559261276b565b602081519101206040519060408201527f97f795a08410e77dc9dbbaba3915f17c601e45642518dd578bd440d8775bfee460208201523081520160ff81532090565b61234e9061276b565b8051156123ed577f97f795a08410e77dc9dbbaba3915f17c601e45642518dd578bd440d8775bfee48160206001600160a01b03935191015ff5161561238f57565b60646040517f08c379a000000000000000000000000000000000000000000000000000000000815260206004820152601960248201527f437265617465323a204661696c6564206f6e206465706c6f79000000000000006044820152fd5b60646040517f08c379a000000000000000000000000000000000000000000000000000000000815260206004820152602060248201527f437265617465323a2062797465636f6465206c656e677468206973207a65726f6044820152fd5b46036124ce57803b156124ce576040517f6352211e0000000000000000000000000000000000000000000000000000000081526004810192909252602090829060249082906001600160a01b03165afa5f91816124ad575b5061059b57505f90565b6124c791925060203d60201161178b5761177c818361050b565b905f6124a3565b50505f90565b915f928392602083519301915af1906124eb611a1d565b91156124f357565b50602081519101fd5b6040519060a0820182811067ffffffffffffffff821117610506576040526080808352366020840137565b907f0000000000000000000000000000000000000000000000000000000000000000917f00000000000000000000000000000000000000000000000000000000000000005b612577818584612878565b15612632576001600160a01b0360408051937ffc0c546a000000000000000000000000000000000000000000000000000000008552846004816060958694165afa938415611191575f915f935f966125e2575b505050926125db916125779461244b565b915061256c565b92509250809450813d831161262b575b6125fc818361050b565b8101031261021457826125db9161257794519060208301519261261e846104ac565b01519091909481936125ca565b503d6125f2565b509150565b5f91929082916040516126878161212d60208201947f1626ba7e00000000000000000000000000000000000000000000000000000000998a875260248401526040604484015260648301906107cc565b51915afa90612694611a1d565b826126bc575b826126a457505090565b90915060208180518101031261021457602001511490565b91506020825110159161269a565b9060418151145f146126f2576102c191602082015190606060408401519301515f1a90612900565b50505f90600290565b6001600160a01b037f000000000000000000000000000000000000000000000000000000000000000016331480612760575b1561275c577fffffffffffffffffffffffffffffffffffffffffffffffffffffffffffffffec36013560601c90565b3390565b50601436101561272d565b60409081518281019080821067ffffffffffffffff831117610506578361059b936034936128519652600e8352612869602084017f604380600d600039806000f3fe7300000000000000000000000000000000000081527fffffffffffffffffffffffffffffffffffffffff0000000000000000000000008451916127ef836104ea565b602e835260208301957f3314601d573d3dfd5b363d3d373d3d6014360360143d5160601c5af43d60008087527f3e80603e573d6000fd5b3d6000f30000000000000000000000000000000000008185015251998a9751809260208a01906107ab565b86019360601b166020840152518093868401906107ab565b0103601481018452018261050b565b9160ad833b036128f9576014600a600c853c5f5190813b15611dee576001600160a01b0380931683831603611dee576128af6124fc565b60208101916080602d84883c608082805181010312610214576128f393611d9d93516040840151918760806060870151966128e9886104ac565b0151951693611e09565b91161490565b5050505f90565b7f7fffffffffffffffffffffffffffffff5d576e7357a4501ddfe92f46681b20a08411612970576020935f9360ff60809460405194855216868401526040830152606082015282805260015afa15611191575f516001600160a01b0381161561296857905f90565b505f90600190565b505050505f90600390565b6001600160a01b037f0000000000000000000000000000000000000000000000000000000000000000163314806129e8575b156129e2577fffffffffffffffffffffffffffffffffffffffffffffffffffffffffffffffec3601903682116119e9575f9190565b5f903690565b5060143610156129ad56fea164736f6c6343000819000a","linkReferences":{}},"methodIdentifiers":{"entryPoint()":"b0d691fe","erc6551Registry()":"056d5afe","execute(address,uint256,bytes,uint8)":"51945447","executeBatch((address,uint256,bytes,uint8)[])":"43629a73","executeNested(address,uint256,bytes,uint8,(bytes32,address,uint256)[])":"1fb1ecf0","extcall(address,uint256,bytes)":"b709467c","extcreate(uint256,bytes)":"45a24e3e","extcreate2(uint256,bytes32,bytes)":"34715fb1","extsload(bytes32)":"1e2eaeaf","getNonce()":"d087d288","isLocked()":"a4e2d634","isTrustedForwarder(address)":"572b6c05","isValidSignature(bytes32,bytes)":"1626ba7e","isValidSigner(address,bytes)":"523e3260","lock(uint256)":"dd467064","lockedUntil()":"ce0617ec","onERC1155BatchReceived(address,address,uint256[],uint256[],bytes)":"bc197c81","onERC1155Received(address,address,uint256,uint256,bytes)":"f23a6e61","onERC721Received(address,address,uint256,bytes)":"150b7a02","overrides(address,bytes4)":"ee9c6054","owner()":"8da5cb5b","permissions(address,address)":"1f9838b5","setOverrides(bytes4[],address[])":"7a8f7356","setPermissions(address[],bool[])":"039721b1","state()":"c19d93fb","supportsInterface(bytes4)":"01ffc9a7","token()":"fc0c546a","validateUserOp((address,uint256,bytes,bytes,uint256,uint256,uint256,uint256,uint256,bytes,bytes),bytes32,uint256)":"3a871cdd"},"id":57}