{"abi":[{"type":"function","name":"getAccount","inputs":[{"name":"implementation","type":"address","internalType":"address"},{"name":"tokenContract","type":"address","internalType":"address"},{"name":"tokenId","type":"uint256","internalType":"uint256"}],"outputs":[{"name":"","type":"address","internalType":"address"}],"stateMutability":"view"},{"type":"error","name":"InvalidChainId","inputs":[]}],"bytecode":{"object":"0x60808060405234601b5761034890816100208239308160580152f35b5f80fdfe60806040526004361015610011575f80fd5b5f3560e01c80631230aea21461005557634c6fc9631461002f575f80fd5b602061004361003d36610094565b9161027a565b6040516001600160a01b039091168152f35b307f00000000000000000000000000000000000000000000000000000000000000001461009057602061004361008a36610094565b9161016f565b5f80fd5b6060906003190112610090576001600160a01b0390600435828116810361009057916024359081168103610090579060443590565b90601f8019910116810190811067ffffffffffffffff8211176100eb57604052565b634e487b7160e01b5f52604160045260245ffd5b9081602091031261009057516001600160a01b03811681036100905790565b6001600160a01b0391821681527f6551655165516551655165516551655165516551655165516551655165516551602082015260408101929092529091166060820152608081019190915260a00190565b9061a4b14614801561026e575b8015610263575b8015610257575b801561024d575b8015610242575b8015610237575b15610225576020916101c76040519485938493638a54c52f60e01b855246906004860161011e565b03815f6f6551c19487814612e58fe068137757585af190811561021a575f916101ee575090565b610210915060203d602011610213575b61020881836100c9565b8101906100ff565b90565b503d6101fe565b6040513d5f823e3d90fd5b604051633d23e4d160e11b8152600490fd5b50617a69461461019f565b5061a4ec4614610198565b50600a4614610191565b5062014a34461461018a565b506121054614610183565b5062aa36a7461461017c565b9061a4b14614801561032f575b8015610324575b8015610318575b801561030e575b8015610303575b80156102f8575b15610225576020916102d2604051948593849363246a002160e01b855246906004860161011e565b03816f6551c19487814612e58fe068137757585afa90811561021a575f916101ee575090565b50617a6946146102aa565b5061a4ec46146102a3565b50600a461461029c565b5062014a344614610295565b50612105461461028e565b5062aa36a7461461028756fea164736f6c6343000819000a","linkReferences":{}},"methodIdentifiers":{"createAccount(address,address,uint256)":"1230aea2","getAccount(address,address,uint256)":"4c6fc963"},"id":131}