{"abi":[{"type":"constructor","inputs":[],"stateMutability":"nonpayable"},{"type":"function","name":"batchGrantRoles","inputs":[{"name":"garden","type":"address","internalType":"address"},{"name":"accounts","type":"address[]","internalType":"address[]"},{"name":"roles","type":"uint8[]","internalType":"enum IHats.GardenRole[]"}],"outputs":[],"stateMutability":"nonpayable"},{"type":"function","name":"batchRevokeRoles","inputs":[{"name":"garden","type":"address","internalType":"address"},{"name":"accounts","type":"address[]","internalType":"address[]"},{"name":"roles","type":"uint8[]","internalType":"enum IHats.GardenRole[]"}],"outputs":[],"stateMutability":"nonpayable"},{"type":"function","name":"createGardenHatTree","inputs":[{"name":"garden","type":"address","internalType":"address"},{"name":"operator","type":"address","internalType":"address"},{"name":"gardenName","type":"string","internalType":"string"}],"outputs":[{"name":"rootHatId","type":"uint256","internalType":"uint256"}],"stateMutability":"nonpayable"},{"type":"function","name":"gardenHatTrees","inputs":[{"name":"garden","type":"address","internalType":"address"}],"outputs":[{"name":"rootHatId","type":"uint256","internalType":"uint256"},{"name":"operatorHatId","type":"uint256","internalType":"uint256"},{"name":"gardenerHatId","type":"uint256","internalType":"uint256"},{"name":"evaluatorHatId","type":"uint256","internalType":"uint256"},{"name":"funderHatId","type":"uint256","internalType":"uint256"},{"name":"communityHatId","type":"uint256","internalType":"uint256"},{"name":"exists","type":"bool","internalType":"bool"}],"stateMutability":"view"},{"type":"function","name":"gardenToken","inputs":[],"outputs":[{"name":"","type":"address","internalType":"address"}],"stateMutability":"view"},{"type":"function","name":"gardensHatId","inputs":[],"outputs":[{"name":"","type":"uint256","internalType":"uint256"}],"stateMutability":"view"},{"type":"function","name":"getGardenHatTree","inputs":[{"name":"garden","type":"address","internalType":"address"}],"outputs":[{"name":"","type":"tuple","internalType":"struct IHats.GardenHatTree","components":[{"name":"rootHatId","type":"uint256","internalType":"uint256"},{"name":"operatorHatId","type":"uint256","internalType":"uint256"},{"name":"gardenerHatId","type":"uint256","internalType":"uint256"},{"name":"evaluatorHatId","type":"uint256","internalType":"uint256"},{"name":"funderHatId","type":"uint256","internalType":"uint256"},{"name":"communityHatId","type":"uint256","internalType":"uint256"},{"name":"exists","type":"bool","internalType":"bool"}]}],"stateMutability":"view"},{"type":"function","name":"getRoleHatId","inputs":[{"name":"garden","type":"address","internalType":"address"},{"name":"role","type":"uint8","internalType":"enum IHats.GardenRole"}],"outputs":[{"name":"","type":"uint256","internalType":"uint256"}],"stateMutability":"view"},{"type":"function","name":"grantRole","inputs":[{"name":"garden","type":"address","internalType":"address"},{"name":"account","type":"address","internalType":"address"},{"name":"role","type":"uint8","internalType":"enum IHats.GardenRole"}],"outputs":[],"stateMutability":"nonpayable"},{"type":"function","name":"hasHatTree","inputs":[{"name":"garden","type":"address","internalType":"address"}],"outputs":[{"name":"","type":"bool","internalType":"bool"}],"stateMutability":"view"},{"type":"function","name":"hasRole","inputs":[{"name":"garden","type":"address","internalType":"address"},{"name":"account","type":"address","internalType":"address"},{"name":"role","type":"uint8","internalType":"enum IHats.GardenRole"}],"outputs":[{"name":"","type":"bool","internalType":"bool"}],"stateMutability":"view"},{"type":"function","name":"hatsProtocol","inputs":[],"outputs":[{"name":"","type":"address","internalType":"contract IHatsProtocol"}],"stateMutability":"view"},{"type":"function","name":"initialize","inputs":[{"name":"_owner","type":"address","internalType":"address"},{"name":"_hats","type":"address","internalType":"address"},{"name":"_gardensHatId","type":"uint256","internalType":"uint256"}],"outputs":[],"stateMutability":"nonpayable"},{"type":"function","name":"isEvaluator","inputs":[{"name":"garden","type":"address","internalType":"address"},{"name":"account","type":"address","internalType":"address"}],"outputs":[{"name":"","type":"bool","internalType":"bool"}],"stateMutability":"view"},{"type":"function","name":"isGardener","inputs":[{"name":"garden","type":"address","internalType":"address"},{"name":"account","type":"address","internalType":"address"}],"outputs":[{"name":"","type":"bool","internalType":"bool"}],"stateMutability":"view"},{"type":"function","name":"isOperator","inputs":[{"name":"garden","type":"address","internalType":"address"},{"name":"account","type":"address","internalType":"address"}],"outputs":[{"name":"","type":"bool","internalType":"bool"}],"stateMutability":"view"},{"type":"function","name":"joinGarden","inputs":[{"name":"garden","type":"address","internalType":"address"}],"outputs":[],"stateMutability":"nonpayable"},{"type":"function","name":"karmaGAPModule","inputs":[],"outputs":[{"name":"","type":"address","internalType":"contract IKarmaGAPModule"}],"stateMutability":"view"},{"type":"function","name":"owner","inputs":[],"outputs":[{"name":"","type":"address","internalType":"address"}],"stateMutability":"view"},{"type":"function","name":"proxiableUUID","inputs":[],"outputs":[{"name":"","type":"bytes32","internalType":"bytes32"}],"stateMutability":"view"},{"type":"function","name":"renounceOwnership","inputs":[],"outputs":[],"stateMutability":"nonpayable"},{"type":"function","name":"revokeRole","inputs":[{"name":"garden","type":"address","internalType":"address"},{"name":"account","type":"address","internalType":"address"},{"name":"role","type":"uint8","internalType":"enum IHats.GardenRole"}],"outputs":[],"stateMutability":"nonpayable"},{"type":"function","name":"setEligibilityModule","inputs":[{"name":"garden","type":"address","internalType":"address"},{"name":"role","type":"uint8","internalType":"enum IHats.GardenRole"},{"name":"module","type":"address","internalType":"address"}],"outputs":[],"stateMutability":"nonpayable"},{"type":"function","name":"setGardenToken","inputs":[{"name":"_gardenToken","type":"address","internalType":"address"}],"outputs":[],"stateMutability":"nonpayable"},{"type":"function","name":"setGardensHatId","inputs":[{"name":"_gardensHatId","type":"uint256","internalType":"uint256"}],"outputs":[],"stateMutability":"nonpayable"},{"type":"function","name":"setHatsContract","inputs":[{"name":"_hats","type":"address","internalType":"address"}],"outputs":[],"stateMutability":"nonpayable"},{"type":"function","name":"setKarmaGAPModule","inputs":[{"name":"_karmaGAPModule","type":"address","internalType":"address"}],"outputs":[],"stateMutability":"nonpayable"},{"type":"function","name":"transferOwnership","inputs":[{"name":"newOwner","type":"address","internalType":"address"}],"outputs":[],"stateMutability":"nonpayable"},{"type":"function","name":"upgradeTo","inputs":[{"name":"newImplementation","type":"address","internalType":"address"}],"outputs":[],"stateMutability":"nonpayable"},{"type":"function","name":"upgradeToAndCall","inputs":[{"name":"newImplementation","type":"address","internalType":"address"},{"name":"data","type":"bytes","internalType":"bytes"}],"outputs":[],"stateMutability":"payable"},{"type":"event","name":"AdminChanged","inputs":[{"name":"previousAdmin","type":"address","indexed":false,"internalType":"address"},{"name":"newAdmin","type":"address","indexed":false,"internalType":"address"}],"anonymous":false},{"type":"event","name":"BeaconUpgraded","inputs":[{"name":"beacon","type":"address","indexed":true,"internalType":"address"}],"anonymous":false},{"type":"event","name":"EligibilityModuleSet","inputs":[{"name":"garden","type":"address","indexed":true,"internalType":"address"},{"name":"role","type":"uint8","indexed":false,"internalType":"enum IHats.GardenRole"},{"name":"module","type":"address","indexed":false,"internalType":"address"}],"anonymous":false},{"type":"event","name":"GardenHatTreeCreated","inputs":[{"name":"garden","type":"address","indexed":true,"internalType":"address"},{"name":"rootHatId","type":"uint256","indexed":false,"internalType":"uint256"},{"name":"operatorHatId","type":"uint256","indexed":false,"internalType":"uint256"},{"name":"gardenerHatId","type":"uint256","indexed":false,"internalType":"uint256"},{"name":"evaluatorHatId","type":"uint256","indexed":false,"internalType":"uint256"}],"anonymous":false},{"type":"event","name":"HatsContractUpdated","inputs":[{"name":"oldHats","type":"address","indexed":true,"internalType":"address"},{"name":"newHats","type":"address","indexed":true,"internalType":"address"}],"anonymous":false},{"type":"event","name":"Initialized","inputs":[{"name":"version","type":"uint8","indexed":false,"internalType":"uint8"}],"anonymous":false},{"type":"event","name":"OwnershipTransferred","inputs":[{"name":"previousOwner","type":"address","indexed":true,"internalType":"address"},{"name":"newOwner","type":"address","indexed":true,"internalType":"address"}],"anonymous":false},{"type":"event","name":"RoleAssigned","inputs":[{"name":"garden","type":"address","indexed":true,"internalType":"address"},{"name":"account","type":"address","indexed":true,"internalType":"address"},{"name":"role","type":"uint8","indexed":false,"internalType":"enum IHats.GardenRole"},{"name":"hatId","type":"uint256","indexed":false,"internalType":"uint256"}],"anonymous":false},{"type":"event","name":"RoleRevoked","inputs":[{"name":"garden","type":"address","indexed":true,"internalType":"address"},{"name":"account","type":"address","indexed":true,"internalType":"address"},{"name":"role","type":"uint8","indexed":false,"internalType":"enum IHats.GardenRole"},{"name":"hatId","type":"uint256","indexed":false,"internalType":"uint256"}],"anonymous":false},{"type":"event","name":"Upgraded","inputs":[{"name":"implementation","type":"address","indexed":true,"internalType":"address"}],"anonymous":false},{"type":"error","name":"AlreadyGardener","inputs":[]},{"type":"error","name":"GardenTreeAlreadyExists","inputs":[{"name":"garden","type":"address","internalType":"address"}]},{"type":"error","name":"GardenTreeNotFound","inputs":[{"name":"garden","type":"address","internalType":"address"}]},{"type":"error","name":"HatsOperationFailed","inputs":[{"name":"reason","type":"string","internalType":"string"}]},{"type":"error","name":"InvalidRole","inputs":[]},{"type":"error","name":"NotAuthorizedCaller","inputs":[]},{"type":"error","name":"NotGardenOperator","inputs":[]},{"type":"error","name":"NotGardenOwner","inputs":[]},{"type":"error","name":"NotGardenToken","inputs":[]},{"type":"error","name":"OpenJoiningNotEnabled","inputs":[]},{"type":"error","name":"RoleAlreadyAssigned","inputs":[{"name":"account","type":"address","internalType":"address"},{"name":"role","type":"uint8","internalType":"enum IHats.GardenRole"}]},{"type":"error","name":"RoleNotAssigned","inputs":[{"name":"account","type":"address","internalType":"address"},{"name":"role","type":"uint8","internalType":"enum IHats.GardenRole"}]},{"type":"error","name":"ZeroAddress","inputs":[]}],"bytecode":{"object":"0x60a0806040523460d657306080525f549060ff8260081c166084575060ff80821603604b575b60405161279790816100db82396080518181816110020152818161112d01526114580152f35b60ff90811916175f557f7f26b83ff96e1f2b6a682f133852f6798a09c465da95921460cefb3847402498602060405160ff8152a15f6025565b62461bcd60e51b815260206004820152602760248201527f496e697469616c697a61626c653a20636f6e747261637420697320696e697469604482015266616c697a696e6760c81b6064820152608490fd5b5f80fdfe6080806040526004361015610012575f80fd5b5f905f3560e01c9081631794bb3c146117ad5750806322cded89146116175780633659cfe6146114335780633868e7e51461141c5780634026d762146113f457806345873848146113985780634f1ef286146110b257806352d1902d14610ff057806362de09bc146108cb578063715018a61461087057806372a2da1a146107815780638da5cb5b146107595780638e415dd51461071f5780639ce7732c14610706578063a27eaca9146106a5578063b6363cf214610679578063b709b7fd1461062d578063c019779714610601578063c049098f146105d9578063c4351532146105a3578063ce754cb514610525578063d06dbdb814610504578063d213da5f146104e7578063d3f5b485146104a7578063d9e4aaee14610464578063db61d65c1461043c578063e03a4efd146103b6578063e9900a3314610213578063f13e5d09146101fb5763f2fde38b14610168575f80fd5b346101f85760203660031901126101f85761018161194d565b6101896125ca565b6001600160a01b038116156101a4576101a19061251a565b80f35b60405162461bcd60e51b815260206004820152602660248201527f4f776e61626c653a206e6577206f776e657220697320746865207a65726f206160448201526564647265737360d01b6064820152608490fd5b80fd5b50346101f8576101a161020d36611979565b916121a8565b50346103605760603660031901126103605761022d61194d565b6024356005811015610360576001600160a01b03916044358381169182820361036057841693845f52606960205260405f2060ff6006820154161561039d57816033541633141580610393575b61038157600385141580610376575b610364578461029791612562565b906065541691823b156103605760405163165c079160e21b815260048101929092526001600160a01b03166024820152905f908290604490829084905af180156103555761031b575b507f6c2902e2541b70ce342ffb4062a58ad18f6e34e29a2271d5673c96034511f2c29160409161031283518093611aea565b6020820152a280f35b60409194509161034b7f6c2902e2541b70ce342ffb4062a58ad18f6e34e29a2271d5673c96034511f2c293611a64565b5f949150916102e0565b6040513d5f823e3d90fd5b5f80fd5b604051636caa20b560e11b8152600490fd5b506004851415610289565b604051637046c88d60e01b8152600490fd5b508533141561027a565b604051631a09876d60e31b815260048101879052602490fd5b34610360576020366003190112610360576103cf61194d565b6103d76125ca565b6001600160a01b0390811690811561042a57606554826bffffffffffffffffffffffff60a01b821617606555167fd1579b9ec8e8324f8b7739e0404866377c1e98b9064b26483f794bbed39bf2b05f80a3005b60405163d92e233d60e01b8152600490fd5b34610360575f366003190112610360576067546040516001600160a01b039091168152602090f35b346103605760203660031901126103605761047d61194d565b6104856125ca565b606880546001600160a01b0319166001600160a01b0392909216919091179055005b34610360576020366003190112610360576001600160a01b036104c861194d565b165f526069602052602060ff600660405f200154166040519015158152f35b34610360575f366003190112610360576020606654604051908152f35b346103605760203660031901126103605761051d6125ca565b600435606655005b34610360576020366003190112610360576001600160a01b0361054661194d565b165f52606960205260e060405f208054906001810154906002810154600382015460048301549160ff600660058601549501541694604051968752602087015260408601526060850152608084015260a0830152151560c0820152f35b346103605760403660031901126103605760206105cf6105c161194d565b6105c9611963565b90612148565b6040519015158152f35b34610360575f366003190112610360576065546040516001600160a01b039091168152602090f35b346103605760403660031901126103605760206105cf61061f61194d565b610627611963565b906120e8565b346103605760203660031901126103605761064661194d565b61064e6125ca565b6001600160a01b0316801561042a576bffffffffffffffffffffffff60a01b60675416176067555f80f35b346103605760403660031901126103605760206105cf61069761194d565b61069f611963565b90612081565b34610360576106b3366119e8565b92909391838103610364575f5b8181106106c957005b6106dc6106d7828486611f2e565b611f52565b906106e8818789611f2e565b359160058310156103605760019261070091876121a8565b016106c0565b346103605760206105cf61071936611979565b91611fd7565b346103605760403660031901126103605761073861194d565b6024359060058210156103605760209161075191611fa4565b604051908152f35b34610360575f366003190112610360576033546040516001600160a01b039091168152602090f35b346103605760203660031901126103605761079a61194d565b5f60c06040516107a981611a48565b8281528260208201528260408201528260608201528260808201528260a0820152015260018060a01b03165f52606960205260e060405f206040516107ed81611a48565b815491828252600181015460208301908152600282015460408401908152600383015490606085019182526004840154926080860193845260c060ff600660058801549760a08a01988952015416960195151586526040519687525160208701525160408601525160608501525160808401525160a083015251151560c0820152f35b34610360575f366003190112610360576108886125ca565b603380546001600160a01b031981169091555f906001600160a01b03167f8be0079c531659141344cd1fd0a4f28419497f9722a3daafe3b4186f6b6457e08280a3005b34610360576060366003190112610360576108e461194d565b6108ec611963565b9060443567ffffffffffffffff8082116103605736602383011215610360578160040135908111610360573660248284010111610360576067546001600160a01b03163303610fde576001600160a01b0383165f9081526069602052604090206006015460ff16610fbd5760246109cb93926020926109a1602760018060a01b036065541693606654938060405197889301898401378101661023b0b93232b760c91b88820152036007810186520184611a94565b5f846040519788958694635829492f60e11b8652600486015260e0602486015260e4850190611f66565b60016044850152826064850152826084850152600160a48501528284820391600319830160c48701525201925af1918215610355575f92610f89575b5060655460405163320fbbb760e11b8152600481018490526001600160a01b038381166024830152909491602091869160449183915f91165af1938415610355575f94610f6a575b50602060018060a01b036065541661014460405180978193635829492f60e11b835288600484015260e06024840152600860e48401526727b832b930ba37b960c11b61010484015263ffffffff6044840152816064840152816084840152600160a484015261012060c4840152816101248401525af1908115610355575f91610f36575b5f9450602060018060a01b036065541661014460405180988193635829492f60e11b835289600484015260e06024840152600860e48401526723b0b93232b732b960c11b61010484015263ffffffff6044840152816064840152816084840152600160a484015261012060c4840152816101248401525af18015610355575f90610f04575b5f9550602060018060a01b036065541661014460405180998193635829492f60e11b83528a600484015260e06024840152600960e48401526822bb30b63ab0ba37b960b91b61010484015263ffffffff6044840152816064840152816084840152600160a484015261012060c4840152816101248401525af1958615610355575f96610ed0575b505f602060018060a01b036065541661014460405180948193635829492f60e11b83528b600484015260e06024840152600660e484015265233ab73232b960d11b61010484015263ffffffff6044840152816064840152816084840152600160a484015261012060c4840152816101248401525af1908115610355575f91610e9e575b505f602060018060a01b036065541661014460405180948193635829492f60e11b83528c600484015260e06024840152600960e484015268436f6d6d756e69747960b81b61010484015263ffffffff6044840152816064840152816084840152600160a484015261012060c4840152816101248401525af18015610355575f90610e6b575b6006915060405190610cf882611a48565b88825260208201938785526040830186815260608401908c82526080850192835260a0850193845260c08501966001885260018060a01b038c165f52606960205260405f2095518655516001860155516002850155516003840155516004830155516005820155019051151560ff8019835416911617905560018060a01b0360655416916020604051809463320fbbb760e11b8252815f81610db3878b600484019092916020906040830194835260018060a01b0316910152565b03925af1918215610355576020975f8051602061276b83398151915294604094610e3e575b50835191888352868a8401528483015260608201527f0bd572881183e85ab42e2c9aa77ad8a97682588fa9682add06cd5c881c753dd7608060018060a01b03881692a281515f8152878101949094526001600160a01b03908116941692a3604051908152f35b610e5d908a3d8c11610e64575b610e558183611a94565b810190611ad2565b5089610dd8565b503d610e4b565b506020813d602011610e96575b81610e8560209383611a94565b810103126103605760069051610ce7565b3d9150610e78565b90506020813d602011610ec8575b81610eb960209383611a94565b81010312610360575187610c62565b3d9150610eac565b9095506020813d602011610efc575b81610eec60209383611a94565b8101031261036057519486610bdf565b3d9150610edf565b506020853d602011610f2e575b81610f1e60209383611a94565b81010312610360575f9451610b58565b3d9150610f11565b90506020843d602011610f62575b81610f5160209383611a94565b81010312610360575f935190610ad3565b3d9150610f44565b610f829060203d602011610e6457610e558183611a94565b5084610a4f565b9091506020813d602011610fb5575b81610fa560209383611a94565b8101031261036057519083610a07565b3d9150610f98565b60405163644d55cd60e01b81526001600160a01b0384166004820152602490fd5b6040516308a59e4960e11b8152600490fd5b34610360575f366003190112610360577f00000000000000000000000000000000000000000000000000000000000000006001600160a01b031630036110475760206040515f8051602061274b8339815191528152f35b60405162461bcd60e51b815260206004820152603860248201527f555550535570677261646561626c653a206d757374206e6f742062652063616c60448201527f6c6564207468726f7567682064656c656761746563616c6c00000000000000006064820152608490fd5b6040366003190112610360576110c661194d565b6024359067ffffffffffffffff821161036057366023830112156103605781600401356110f281611ab6565b6110ff6040519182611a94565b81815260209182820194366024838301011161036057815f9260248693018837830101526001600160a01b037f000000000000000000000000000000000000000000000000000000000000000081169061115b30831415611b0b565b6111775f8051602061274b833981519152928284541614611b6c565b61117f6125ca565b7f4910fdfa16fed3260ed0e7147f7cc6da11a60208b5b9406d12a635614ffd91435460ff16156111b957505050506111b79150612622565b005b8492939416906040516352d1902d60e01b81528581600481865afa5f9181611369575b5061123d5760405162461bcd60e51b815260048101879052602e60248201527f45524331393637557067726164653a206e657720696d706c656d656e7461746960448201526d6f6e206973206e6f74205555505360901b6064820152608490fd5b949394036113125761124e82612622565b7fbc7cd75a20ee27fd9adebab32041f755214dbc6bffa90cc0225b39da2e5c2d3b5f80a282511580159061130a575b61128357005b5f806111b7956040519561129687611a78565b602787527f416464726573733a206c6f772d6c6576656c2064656c65676174652063616c6c86880152660819985a5b195960ca1b60408801525190845af4903d15611301573d6112e581611ab6565b906112f36040519283611a94565b81525f81943d92013e6126b1565b606092506126b1565b50600161127d565b60405162461bcd60e51b815260048101849052602960248201527f45524331393637557067726164653a20756e737570706f727465642070726f786044820152681a58589b195555525160ba1b6064820152608490fd5b9091508681813d8311611391575b6113818183611a94565b81010312610360575190886111dc565b503d611377565b34610360576113a6366119e8565b92909391838103610364575f5b8181106113bc57005b6113ca6106d7828486611f2e565b906113d6818789611f2e565b35916005831015610360576001926113ee9187611bef565b016113b3565b34610360575f366003190112610360576068546040516001600160a01b039091168152602090f35b34610360576111b761142d36611979565b91611bef565b34610360576020806003193601126103605761144d61194d565b6001600160a01b03917f0000000000000000000000000000000000000000000000000000000000000000831661148530821415611b0b565b6114a15f8051602061274b833981519152918583541614611b6c565b6114a96125ca565b604051908282019482861067ffffffffffffffff87111761160357856040525f835260ff7f4910fdfa16fed3260ed0e7147f7cc6da11a60208b5b9406d12a635614ffd914354165f1461150457505050506111b79150612622565b8492939416906040516352d1902d60e01b81528581600481865afa5f91816115d4575b506115885760405162461bcd60e51b815260048101879052602e60248201527f45524331393637557067726164653a206e657720696d706c656d656e7461746960448201526d6f6e206973206e6f74205555505360901b6064820152608490fd5b949394036113125761159982612622565b7fbc7cd75a20ee27fd9adebab32041f755214dbc6bffa90cc0225b39da2e5c2d3b5f80a28251158015906115cd5761128357005b505f61127d565b9091508681813d83116115fc575b6115ec8183611a94565b8101031261036057519088611527565b503d6115e2565b634e487b7160e01b5f52604160045260245ffd5b3461036057602080600319360112610360576001600160a01b038061163a61194d565b1690815f526069835260405f209060ff6006830154161561179457604051630523a0a960e31b81528481600481875afa908115610355575f91611777575b50156117655760655460029290920180546040516321a9204d60e11b8152336004820152602481018290529193909216908581604481855afa908115610355575f91611748575b506117365760405163320fbbb760e11b815260048101929092523360248301528490829060449082905f905af1801561035557611719575b505460405192600184528301525f8051602061276b83398151915260403393a3005b61172f90843d8611610e6457610e558183611a94565b50836116f7565b60405163211bad0f60e11b8152600490fd5b61175f9150863d8811610e6457610e558183611a94565b866116bf565b604051633da1352b60e01b8152600490fd5b61178e9150853d8711610e6457610e558183611a94565b85611678565b604051631a09876d60e31b815260048101849052602490fd5b34610360576060366003190112610360576117c661194d565b906117cf611963565b5f5460ff8160081c161592838094611940575b8015611929575b156118d0575060ff1981166001175f55826118bf575b506001600160a01b03908382161561042a571691821561042a576118449061183660ff5f5460081c16611831816124ba565b6124ba565b61183f3361251a565b61251a565b606580546001600160a01b03191683179055604435606655604051915f7fd1579b9ec8e8324f8b7739e0404866377c1e98b9064b26483f794bbed39bf2b08180a361188b57005b60207f7f26b83ff96e1f2b6a682f133852f6798a09c465da95921460cefb38474024989161ff00195f54165f5560018152a1005b61ffff1916610101175f55836117ff565b62461bcd60e51b815260206004820152602e60248201527f496e697469616c697a61626c653a20636f6e747261637420697320616c72656160448201526d191e481a5b9a5d1a585b1a5e995960921b6064820152608490fd5b50303b1580156117e95750600160ff8316146117e9565b50600160ff8316106117e2565b600435906001600160a01b038216820361036057565b602435906001600160a01b038216820361036057565b6060906003190112610360576001600160a01b0390600435828116810361036057916024359081168103610360579060443560058110156103605790565b9181601f840112156103605782359167ffffffffffffffff8311610360576020808501948460051b01011161036057565b906060600319830112610360576004356001600160a01b0381168103610360579167ffffffffffffffff916024358381116103605782611a2a916004016119b7565b9390939260443591821161036057611a44916004016119b7565b9091565b60e0810190811067ffffffffffffffff82111761160357604052565b67ffffffffffffffff811161160357604052565b6060810190811067ffffffffffffffff82111761160357604052565b90601f8019910116810190811067ffffffffffffffff82111761160357604052565b67ffffffffffffffff811161160357601f01601f191660200190565b90816020910312610360575180151581036103605790565b906005821015611af75752565b634e487b7160e01b5f52602160045260245ffd5b15611b1257565b60405162461bcd60e51b815260206004820152602c60248201527f46756e6374696f6e206d7573742062652063616c6c6564207468726f7567682060448201526b19195b1959d85d1958d85b1b60a21b6064820152608490fd5b15611b7357565b60405162461bcd60e51b815260206004820152602c60248201527f46756e6374696f6e206d7573742062652063616c6c6564207468726f7567682060448201526b6163746976652070726f787960a01b6064820152608490fd5b6001600160a01b039091168152604081019291611bed9160200190611aea565b565b92919060018060a01b039081851691825f5260209160698352604092835f209060ff60068301541615611f1657611c268783612562565b916005881015611af757871590828215611e7b57606554915488516321a9204d60e11b8152336004820152602481019190915291829060449082908a165afa908115611de1575f91611e5e575b501580611e50575b80611e42575b611e31575b60655486516321a9204d60e11b81526001600160a01b038616600482015260248101859052908616908381604481855afa908115611e27575f91611e0a575b50611deb57865163320fbbb760e11b8152600481018590526001600160a01b0386166024820152908390829060449082905f905af18015611de157611dc4575b5080611db7575b611d38575b5f8051602061276b8339815191529596979850611d3085518099611aea565b8701521693a3565b8360685416803b15610360578551632744700560e01b81526001600160a01b039a8b16600482015299841660248b01525f908a90604490829084905af1988915611dad575f8051602061276b83398151915296979899611d9e575b508897969550611d11565b611da790611a64565b5f611d93565b85513d5f823e3d90fd5b5083606854161515611d0c565b611dda90833d8511610e6457610e558183611a94565b505f611d05565b87513d5f823e3d90fd5b8651630c97e9a160e31b815280611e068b8860048401611bcd565b0390fd5b611e219150843d8611610e6457610e558183611a94565b5f611cc5565b88513d5f823e3d90fd5b8551633632b98960e21b8152600490fd5b508460675416331415611c81565b508460335416331415611c7b565b611e759150833d8511610e6457610e558183611a94565b5f611c73565b6065546001929092015488516321a9204d60e11b8152336004820152602481019190915291829060449082908a165afa908115611de1575f91611ef9575b501580611eeb575b80611edd575b15611c86578551633cebab8560e21b8152600490fd5b508460675416331415611ec7565b508460335416331415611ec1565b611f109150833d8511610e6457610e558183611a94565b5f611eb9565b8451631a09876d60e31b815260048101879052602490fd5b9190811015611f3e5760051b0190565b634e487b7160e01b5f52603260045260245ffd5b356001600160a01b03811681036103605790565b91908251928382525f5b848110611f90575050825f602080949584010152601f8019910116010190565b602081830181015184830182015201611f70565b60018060a01b03165f52606960205260405f209060ff60068301541615611fd157611fce91612562565b90565b50505f90565b6001600160a01b039081165f90815260696020526040902060068101549093929060ff16156120795761200f60209361204b95612562565b6065546040516321a9204d60e11b81526001600160a01b0390931660048401526024830191909152909384929190911690829081906044820190565b03915afa908115610355575f91612060575090565b611fce915060203d602011610e6457610e558183611a94565b505050505f90565b60018060a01b038091165f52606960205260405f209160ff600684015416156120e1576065546001909301546040516321a9204d60e11b81526001600160a01b03909216600483015260248201529160209183911681806044810161204b565b5050505f90565b60018060a01b038091165f52606960205260405f209160ff600684015416156120e1576065546003909301546040516321a9204d60e11b81526001600160a01b03909216600483015260248201529160209183911681806044810161204b565b60018060a01b038091165f52606960205260405f209160ff600684015416156120e1576065546002909301546040516321a9204d60e11b81526001600160a01b03909216600483015260248201529160209183911681806044810161204b565b92915f9360018060a01b039182821692835f52602060698152604093845f209660ff600689015416156124a2576121df8589612562565b936005861015611af757851598848a1561241b57606554915489516321a9204d60e11b81523360048201526024810191909152918290604490829086165afa908115611e27575f916123fe575b5015806123f0575b6123df575b60655487516321a9204d60e11b81526001600160a01b038416600482015260248101879052908216999085816044818e5afa90811561239d575f916123c2575b50156123a757893b156103605787516329287c1b60e21b815286600482015280808486169c8d6024830152604482015f90525a925f6064928195f1801561239d5761238a575b508061237d575b612306575b5050507f11f8c0688311277c7892b0cccf3c9829ab92109695d5277d844f01c7c827f50e949596975061230084518094611aea565b820152a3565b908a9160685416803b1561237957875163481a80f160e01b81526001600160a01b039485166004820152919093166024820152918290604490829084905af1801561236f57612357575b80806122cb565b6123618991611a64565b61236b5787612350565b8780fd5b85513d8b823e3d90fd5b8280fd5b50806068541615156122c6565b612395919c50611a64565b5f9a5f6122bf565b89513d5f823e3d90fd5b875163adbfa7fb60e01b815280611e06898660048401611bcd565b6123d99150863d8811610e6457610e558183611a94565b5f612279565b8651633632b98960e21b8152600490fd5b508060335416331415612234565b6124159150853d8711610e6457610e558183611a94565b5f61222c565b6065546001929092015489516321a9204d60e11b81523360048201526024810191909152918290604490829086165afa908115611e27575f91612485575b501580612477575b15612239578651633cebab8560e21b8152600490fd5b508060335416331415612461565b61249c9150853d8711610e6457610e558183611a94565b5f612459565b8551631a09876d60e31b815260048101889052602490fd5b156124c157565b60405162461bcd60e51b815260206004820152602b60248201527f496e697469616c697a61626c653a20636f6e7472616374206973206e6f74206960448201526a6e697469616c697a696e6760a81b6064820152608490fd5b603380546001600160a01b039283166001600160a01b0319821681179092559091167f8be0079c531659141344cd1fd0a4f28419497f9722a3daafe3b4186f6b6457e05f80a3565b906005811015611af75780156125c257600181146125ba57600281146125b257600381146125aa576004146125a357604051636caa20b560e11b8152600490fd5b6005015490565b506004015490565b506003015490565b506002015490565b506001015490565b6033546001600160a01b031633036125de57565b606460405162461bcd60e51b815260206004820152602060248201527f4f776e61626c653a2063616c6c6572206973206e6f7420746865206f776e65726044820152fd5b803b15612656575f8051602061274b83398151915280546001600160a01b0319166001600160a01b03909216919091179055565b60405162461bcd60e51b815260206004820152602d60248201527f455243313936373a206e657720696d706c656d656e746174696f6e206973206e60448201526c1bdd08184818dbdb9d1c9858dd609a1b6064820152608490fd5b9192901561271357508151156126c5575090565b3b156126ce5790565b60405162461bcd60e51b815260206004820152601d60248201527f416464726573733a2063616c6c20746f206e6f6e2d636f6e74726163740000006044820152606490fd5b8251909150156127265750805190602001fd5b60405162461bcd60e51b815260206004820152908190611e06906024830190611f6656fe360894a13ba1a3210667c828492db98dca3e2076cc3735a920a3ca505d382bbcb533d7811d703e724be6e6adfd7aaf7abb7d9bc4f935a3c6179e5020e4b0b3a1a164736f6c6343000819000a","linkReferences":{}},"methodIdentifiers":{"batchGrantRoles(address,address[],uint8[])":"45873848","batchRevokeRoles(address,address[],uint8[])":"a27eaca9","createGardenHatTree(address,address,string)":"62de09bc","gardenHatTrees(address)":"ce754cb5","gardenToken()":"db61d65c","gardensHatId()":"d213da5f","getGardenHatTree(address)":"72a2da1a","getRoleHatId(address,uint8)":"8e415dd5","grantRole(address,address,uint8)":"3868e7e5","hasHatTree(address)":"d3f5b485","hasRole(address,address,uint8)":"9ce7732c","hatsProtocol()":"c049098f","initialize(address,address,uint256)":"1794bb3c","isEvaluator(address,address)":"c0197797","isGardener(address,address)":"c4351532","isOperator(address,address)":"b6363cf2","joinGarden(address)":"22cded89","karmaGAPModule()":"4026d762","owner()":"8da5cb5b","proxiableUUID()":"52d1902d","renounceOwnership()":"715018a6","revokeRole(address,address,uint8)":"f13e5d09","setEligibilityModule(address,uint8,address)":"e9900a33","setGardenToken(address)":"b709b7fd","setGardensHatId(uint256)":"d06dbdb8","setHatsContract(address)":"e03a4efd","setKarmaGAPModule(address)":"d9e4aaee","transferOwnership(address)":"f2fde38b","upgradeTo(address)":"3659cfe6","upgradeToAndCall(address,bytes)":"4f1ef286"},"id":134}