{"abi":[{"type":"constructor","inputs":[],"stateMutability":"nonpayable"},{"type":"function","name":"configAuthority","inputs":[{"name":"","type":"address","internalType":"address"}],"outputs":[{"name":"","type":"bool","internalType":"bool"}],"stateMutability":"view"},{"type":"function","name":"configureGarden","inputs":[{"name":"garden","type":"address","internalType":"address"},{"name":"gardenerHatId","type":"uint256","internalType":"uint256"},{"name":"operatorHatId","type":"uint256","internalType":"uint256"},{"name":"ownerHatId","type":"uint256","internalType":"uint256"}],"outputs":[],"stateMutability":"nonpayable"},{"type":"function","name":"deconfigureGarden","inputs":[{"name":"garden","type":"address","internalType":"address"}],"outputs":[],"stateMutability":"nonpayable"},{"type":"function","name":"gardenHats","inputs":[{"name":"garden","type":"address","internalType":"address"}],"outputs":[{"name":"gardenerHatId","type":"uint256","internalType":"uint256"},{"name":"operatorHatId","type":"uint256","internalType":"uint256"},{"name":"ownerHatId","type":"uint256","internalType":"uint256"},{"name":"configured","type":"bool","internalType":"bool"}],"stateMutability":"view"},{"type":"function","name":"hats","inputs":[],"outputs":[{"name":"","type":"address","internalType":"contract IHats"}],"stateMutability":"view"},{"type":"function","name":"initialize","inputs":[{"name":"_owner","type":"address","internalType":"address"},{"name":"_hats","type":"address","internalType":"address"}],"outputs":[],"stateMutability":"nonpayable"},{"type":"function","name":"isConfigured","inputs":[{"name":"garden","type":"address","internalType":"address"}],"outputs":[{"name":"","type":"bool","internalType":"bool"}],"stateMutability":"view"},{"type":"function","name":"isGardener","inputs":[{"name":"account","type":"address","internalType":"address"}],"outputs":[{"name":"","type":"bool","internalType":"bool"}],"stateMutability":"view"},{"type":"function","name":"isGardenerOf","inputs":[{"name":"garden","type":"address","internalType":"address"},{"name":"account","type":"address","internalType":"address"}],"outputs":[{"name":"","type":"bool","internalType":"bool"}],"stateMutability":"view"},{"type":"function","name":"isOperator","inputs":[{"name":"account","type":"address","internalType":"address"}],"outputs":[{"name":"","type":"bool","internalType":"bool"}],"stateMutability":"view"},{"type":"function","name":"isOperatorOf","inputs":[{"name":"garden","type":"address","internalType":"address"},{"name":"account","type":"address","internalType":"address"}],"outputs":[{"name":"","type":"bool","internalType":"bool"}],"stateMutability":"view"},{"type":"function","name":"isOwner","inputs":[{"name":"account","type":"address","internalType":"address"}],"outputs":[{"name":"","type":"bool","internalType":"bool"}],"stateMutability":"view"},{"type":"function","name":"isOwnerOf","inputs":[{"name":"garden","type":"address","internalType":"address"},{"name":"account","type":"address","internalType":"address"}],"outputs":[{"name":"","type":"bool","internalType":"bool"}],"stateMutability":"view"},{"type":"function","name":"owner","inputs":[],"outputs":[{"name":"","type":"address","internalType":"address"}],"stateMutability":"view"},{"type":"function","name":"proxiableUUID","inputs":[],"outputs":[{"name":"","type":"bytes32","internalType":"bytes32"}],"stateMutability":"view"},{"type":"function","name":"renounceOwnership","inputs":[],"outputs":[],"stateMutability":"nonpayable"},{"type":"function","name":"setConfigAuthority","inputs":[{"name":"authority","type":"address","internalType":"address"},{"name":"authorized","type":"bool","internalType":"bool"}],"outputs":[],"stateMutability":"nonpayable"},{"type":"function","name":"setHatsContract","inputs":[{"name":"_hats","type":"address","internalType":"address"}],"outputs":[],"stateMutability":"nonpayable"},{"type":"function","name":"transferOwnership","inputs":[{"name":"newOwner","type":"address","internalType":"address"}],"outputs":[],"stateMutability":"nonpayable"},{"type":"function","name":"upgradeTo","inputs":[{"name":"newImplementation","type":"address","internalType":"address"}],"outputs":[],"stateMutability":"nonpayable"},{"type":"function","name":"upgradeToAndCall","inputs":[{"name":"newImplementation","type":"address","internalType":"address"},{"name":"data","type":"bytes","internalType":"bytes"}],"outputs":[],"stateMutability":"payable"},{"type":"event","name":"AdminChanged","inputs":[{"name":"previousAdmin","type":"address","indexed":false,"internalType":"address"},{"name":"newAdmin","type":"address","indexed":false,"internalType":"address"}],"anonymous":false},{"type":"event","name":"BeaconUpgraded","inputs":[{"name":"beacon","type":"address","indexed":true,"internalType":"address"}],"anonymous":false},{"type":"event","name":"GardenConfigured","inputs":[{"name":"garden","type":"address","indexed":true,"internalType":"address"},{"name":"gardenerHatId","type":"uint256","indexed":false,"internalType":"uint256"},{"name":"operatorHatId","type":"uint256","indexed":false,"internalType":"uint256"},{"name":"ownerHatId","type":"uint256","indexed":false,"internalType":"uint256"}],"anonymous":false},{"type":"event","name":"GardenDeconfigured","inputs":[{"name":"garden","type":"address","indexed":true,"internalType":"address"}],"anonymous":false},{"type":"event","name":"HatsContractUpdated","inputs":[{"name":"oldHats","type":"address","indexed":true,"internalType":"address"},{"name":"newHats","type":"address","indexed":true,"internalType":"address"}],"anonymous":false},{"type":"event","name":"Initialized","inputs":[{"name":"version","type":"uint8","indexed":false,"internalType":"uint8"}],"anonymous":false},{"type":"event","name":"OwnershipTransferred","inputs":[{"name":"previousOwner","type":"address","indexed":true,"internalType":"address"},{"name":"newOwner","type":"address","indexed":true,"internalType":"address"}],"anonymous":false},{"type":"event","name":"Upgraded","inputs":[{"name":"implementation","type":"address","indexed":true,"internalType":"address"}],"anonymous":false},{"type":"error","name":"GardenNotConfigured","inputs":[{"name":"garden","type":"address","internalType":"address"}]},{"type":"error","name":"InvalidHatId","inputs":[]},{"type":"error","name":"NotGardenAdmin","inputs":[{"name":"caller","type":"address","internalType":"address"},{"name":"garden","type":"address","internalType":"address"}]},{"type":"error","name":"ZeroAddress","inputs":[]}],"bytecode":{"object":"0x60a0806040523460d657306080525f549060ff8260081c166084575060ff80821603604b575b60405161143c90816100db8239608051818181610698015281816107c00152610c2a0152f35b60ff90811916175f557f7f26b83ff96e1f2b6a682f133852f6798a09c465da95921460cefb3847402498602060405160ff8152a15f6025565b62461bcd60e51b815260206004820152602760248201527f496e697469616c697a61626c653a20636f6e747261637420697320696e697469604482015266616c697a696e6760c81b6064820152608490fd5b5f80fdfe604060808152600480361015610013575f80fd5b5f3560e01c9081630959f6a814610e895781632637076914610e4d5781632f54bf6e14610e2757816336490ad314610de85781633659cfe614610bff57816339c25e2c14610bd2578163485cc95514610a275781634f1ef2861461074457816352d1902d146106845781636b459533146106175781636d70f7ae146105f1578163715018a61461059657816376757ff7146104c25781638da5cb5b1461049a5781638f1abc981461046d578163cb22f3551461040f578163e03a4efd14610389578163f04c5076146101f5578163f2fde38b1461016557508063f582bceb1461012f5763f99f023814610104575f80fd5b3461012b575f36600319011261012b5760655490516001600160a01b039091168152602090f35b5f80fd5b503461012b578060031936011261012b5760209061015c61014e610eaf565b610156610ec5565b906110ce565b90519015158152f35b90503461012b57602036600319011261012b57610180610eaf565b91610189611256565b6001600160a01b038316156101a3576101a18361120e565b005b906020608492519162461bcd60e51b8352820152602660248201527f4f776e61626c653a206e6577206f776e657220697320746865207a65726f206160448201526564647265737360d01b6064820152fd5b823461012b57608036600319011261012b5761020f610eaf565b602435916044356064359260018060a01b0390816033541633141580610373575b80610367575b61033a571694851561032c5784158015610324575b801561031c575b61030e57825190608082019082821067ffffffffffffffff8311176102fb5750916102eb8492606096947fb9a231b1b5db3bbc50f0c591fcd85687912dd7af6cc3add8ca2b2d997c70667198965285815260036020820184815285830187815289840191600183528c5f526066602052875f209451855551600185015551600284015551151591019060ff801983541691151516179055565b81519384526020840152820152a2005b604190634e487b7160e01b5f525260245ffd5b8251630b43a06560e41b8152fd5b508315610252565b50811561024b565b825163d92e233d60e01b8152fd5b835163b089f76f60e01b8152338189019081526001600160a01b0390921660208301529081906040010390fd5b50818116331415610236565b50335f52606760205260ff845f20541615610230565b90503461012b57602036600319011261012b576103a4610eaf565b906103ad611256565b6001600160a01b03918216928315610402575050606554826bffffffffffffffffffffffff60a01b821617606555167fd1579b9ec8e8324f8b7739e0404866377c1e98b9064b26483f794bbed39bf2b05f80a3005b5163d92e233d60e01b8152fd5b823461012b57602036600319011261012b576080906001600160a01b03610434610eaf565b165f526066602052805f209081549160018101549160ff6003600284015493015416928151948552602085015283015215156060820152f35b823461012b578060031936011261012b5760209061015c61048c610eaf565b610494610ec5565b9061100b565b823461012b575f36600319011261012b5760335490516001600160a01b039091168152602090f35b90503461012b57602036600319011261012b576104dd610eaf565b6033546001600160a01b039290831633141580610580575b80610574575b61054857505f9160039116928383526066602052822082815582600182015582600282015501557f5f3d0cce36fd63db51cd45dd30999e6fbeddd47c1217ba646433eb8c26cce7165f80a2005b835163b089f76f60e01b8152339181019182526001600160a01b03909216602082015281906040010390fd5b508282163314156104fb565b50335f52606760205260ff845f205416156104f5565b3461012b575f36600319011261012b576105ae611256565b603380546001600160a01b031981169091555f906001600160a01b03167f8be0079c531659141344cd1fd0a4f28419497f9722a3daafe3b4186f6b6457e08280a3005b823461012b57602036600319011261012b5760209061015c610611610eaf565b3361113e565b823461012b578060031936011261012b57610630610eaf565b9060243591821515830361012b57610646611256565b6001600160a01b03168015610674576101a193505f5260676020525f209060ff801983541691151516179055565b815163d92e233d60e01b81528490fd5b90503461012b575f36600319011261012b577f00000000000000000000000000000000000000000000000000000000000000006001600160a01b031630036106dc57602082515f805160206114108339815191528152f35b6020608492519162461bcd60e51b8352820152603860248201527f555550535570677261646561626c653a206d757374206e6f742062652063616c60448201527f6c6564207468726f7567682064656c656761746563616c6c00000000000000006064820152fd5b90508160031936011261012b57610759610eaf565b906024359267ffffffffffffffff841161012b573660238501121561012b57838201359061078682610f2d565b61079282519182610f0b565b82815260209283820196366024838301011161012b57815f9260248793018a37830101526001600160a01b037f00000000000000000000000000000000000000000000000000000000000000008116906107ee30831415610f49565b61080a5f80516020611410833981519152928284541614610faa565b610812611256565b7f4910fdfa16fed3260ed0e7147f7cc6da11a60208b5b9406d12a635614ffd91435460ff161561084c575050505050506101a191506112ae565b869293949596169084516352d1902d60e01b815286818981865afa5f91816109f8575b506108ce57855162461bcd60e51b8152808901889052602e60248201527f45524331393637557067726164653a206e657720696d706c656d656e7461746960448201526d6f6e206973206e6f74205555505360901b6064820152608490fd5b9691929396036109a357506108e2826112ae565b7fbc7cd75a20ee27fd9adebab32041f755214dbc6bffa90cc0225b39da2e5c2d3b5f80a283511580159061099b575b61091757005b5f806101a19684519661092988610edb565b602788527f416464726573733a206c6f772d6c6576656c2064656c65676174652063616c6c87890152660819985a5b195960ca1b868901525190845af4913d15610991573d61098361097a82610f2d565b92519283610f0b565b81525f81943d92013e61133d565b506060925061133d565b506001610911565b835162461bcd60e51b8152908101859052602960248201527f45524331393637557067726164653a20756e737570706f727465642070726f786044820152681a58589b195555525160ba1b6064820152608490fd5b9091508781813d8311610a20575b610a108183610f0b565b8101031261012b5751905f61086f565b503d610a06565b823461012b578060031936011261012b57610a40610eaf565b90610a49610ec5565b915f549260ff8460081c161593848095610bc5575b8015610bae575b15610b545760ff1981166001175f5584610b43575b506001600160a01b039082821615610b33571693841561032c5750610ac090610ab260ff5f5460081c16610aad816111ae565b6111ae565b610abb3361120e565b61120e565b606580546001600160a01b0319168417905551915f7fd1579b9ec8e8324f8b7739e0404866377c1e98b9064b26483f794bbed39bf2b08180a3610aff57005b60207f7f26b83ff96e1f2b6a682f133852f6798a09c465da95921460cefb38474024989161ff00195f54165f5560018152a1005b835163d92e233d60e01b81528690fd5b61ffff1916610101175f5585610a7a565b835162461bcd60e51b8152602081880152602e60248201527f496e697469616c697a61626c653a20636f6e747261637420697320616c72656160448201526d191e481a5b9a5d1a585b1a5e995960921b6064820152608490fd5b50303b158015610a655750600160ff821614610a65565b50600160ff821610610a5e565b823461012b578060031936011261012b5760209061015c610bf1610eaf565b610bf9610ec5565b9061113e565b90503461012b576020908160031936011261012b57610c1c610eaf565b6001600160a01b03939092907f00000000000000000000000000000000000000000000000000000000000000008516610c5730821415610f49565b610c735f80516020611410833981519152918783541614610faa565b610c7b611256565b8151908382019682881067ffffffffffffffff891117610dd5578784525f83527f4910fdfa16fed3260ed0e7147f7cc6da11a60208b5b9406d12a635614ffd91435460ff1615610cd5575050505050506101a191506112ae565b869293949596169084516352d1902d60e01b815286818981865afa5f9181610da6575b50610d5757855162461bcd60e51b8152808901889052602e60248201527f45524331393637557067726164653a206e657720696d706c656d656e7461746960448201526d6f6e206973206e6f74205555505360901b6064820152608490fd5b9691929396036109a35750610d6b826112ae565b7fbc7cd75a20ee27fd9adebab32041f755214dbc6bffa90cc0225b39da2e5c2d3b5f80a2835115801590610d9f5761091757005b505f610911565b9091508781813d8311610dce575b610dbe8183610f0b565b8101031261012b5751905f610cf8565b503d610db4565b604186634e487b7160e01b5f525260245ffd5b823461012b57602036600319011261012b576020906001600160a01b03610e0d610eaf565b165f526066825260ff6003825f2001541690519015158152f35b823461012b57602036600319011261012b5760209061015c610e47610eaf565b336110ce565b823461012b57602036600319011261012b576020906001600160a01b03610e72610eaf565b165f526067825260ff815f20541690519015158152f35b823461012b57602036600319011261012b5760209061015c610ea9610eaf565b3361100b565b600435906001600160a01b038216820361012b57565b602435906001600160a01b038216820361012b57565b6060810190811067ffffffffffffffff821117610ef757604052565b634e487b7160e01b5f52604160045260245ffd5b90601f8019910116810190811067ffffffffffffffff821117610ef757604052565b67ffffffffffffffff8111610ef757601f01601f191660200190565b15610f5057565b60405162461bcd60e51b815260206004820152602c60248201527f46756e6374696f6e206d7573742062652063616c6c6564207468726f7567682060448201526b19195b1959d85d1958d85b1b60a21b6064820152608490fd5b15610fb157565b60405162461bcd60e51b815260206004820152602c60248201527f46756e6374696f6e206d7573742062652063616c6c6564207468726f7567682060448201526b6163746976652070726f787960a01b6064820152608490fd5b9060018060a01b0380921691825f526020926066845260ff600360405f20015416156110b6579083915f5260668252604460405f205493826065541660405195869485936321a9204d60e11b855216600484015260248301525afa9182156110ab575f9261107857505090565b90809250813d83116110a4575b61108f8183610f0b565b8101031261012b5751801515810361012b5790565b503d611085565b6040513d5f823e3d90fd5b60249060405190639f25ae3160e01b82526004820152fd5b9060018060a01b0380921691825f526020926066845260ff600360405f20015416156110b6579083915f52606682526044600260405f20015493826065541660405195869485936321a9204d60e11b855216600484015260248301525afa9182156110ab575f9261107857505090565b9060018060a01b0380921691825f526020926066845260ff600360405f20015416156110b6579083915f52606682526044600160405f20015493826065541660405195869485936321a9204d60e11b855216600484015260248301525afa9182156110ab575f9261107857505090565b156111b557565b60405162461bcd60e51b815260206004820152602b60248201527f496e697469616c697a61626c653a20636f6e7472616374206973206e6f74206960448201526a6e697469616c697a696e6760a81b6064820152608490fd5b603380546001600160a01b039283166001600160a01b0319821681179092559091167f8be0079c531659141344cd1fd0a4f28419497f9722a3daafe3b4186f6b6457e05f80a3565b6033546001600160a01b0316330361126a57565b606460405162461bcd60e51b815260206004820152602060248201527f4f776e61626c653a2063616c6c6572206973206e6f7420746865206f776e65726044820152fd5b803b156112e2575f8051602061141083398151915280546001600160a01b0319166001600160a01b03909216919091179055565b60405162461bcd60e51b815260206004820152602d60248201527f455243313936373a206e657720696d706c656d656e746174696f6e206973206e60448201526c1bdd08184818dbdb9d1c9858dd609a1b6064820152608490fd5b9192901561139f5750815115611351575090565b3b1561135a5790565b60405162461bcd60e51b815260206004820152601d60248201527f416464726573733a2063616c6c20746f206e6f6e2d636f6e74726163740000006044820152606490fd5b8251909150156113b25750805190602001fd5b6040519062461bcd60e51b82528160208060048301528251908160248401525f935b8285106113f6575050604492505f838284010152601f80199101168101030190fd5b84810182015186860160440152938101938593506113d456fe360894a13ba1a3210667c828492db98dca3e2076cc3735a920a3ca505d382bbca164736f6c6343000819000a","linkReferences":{}},"methodIdentifiers":{"configAuthority(address)":"26370769","configureGarden(address,uint256,uint256,uint256)":"f04c5076","deconfigureGarden(address)":"76757ff7","gardenHats(address)":"cb22f355","hats()":"f99f0238","initialize(address,address)":"485cc955","isConfigured(address)":"36490ad3","isGardener(address)":"0959f6a8","isGardenerOf(address,address)":"8f1abc98","isOperator(address)":"6d70f7ae","isOperatorOf(address,address)":"39c25e2c","isOwner(address)":"2f54bf6e","isOwnerOf(address,address)":"f582bceb","owner()":"8da5cb5b","proxiableUUID()":"52d1902d","renounceOwnership()":"715018a6","setConfigAuthority(address,bool)":"6b459533","setHatsContract(address)":"e03a4efd","transferOwnership(address)":"f2fde38b","upgradeTo(address)":"3659cfe6","upgradeToAndCall(address,bytes)":"4f1ef286"},"id":128}