{"abi":[{"type":"function","name":"batchSetWearers","inputs":[{"name":"_hatId","type":"uint256","internalType":"uint256"},{"name":"_wearers","type":"address[]","internalType":"address[]"},{"name":"_areWearers","type":"bool[]","internalType":"bool[]"}],"outputs":[],"stateMutability":"nonpayable"},{"type":"function","name":"getHatImageUri","inputs":[{"name":"_hatId","type":"uint256","internalType":"uint256"}],"outputs":[{"name":"","type":"string","internalType":"string"}],"stateMutability":"view"},{"type":"function","name":"hatActive","inputs":[{"name":"","type":"uint256","internalType":"uint256"}],"outputs":[{"name":"","type":"bool","internalType":"bool"}],"stateMutability":"view"},{"type":"function","name":"hatImageUri","inputs":[{"name":"","type":"uint256","internalType":"uint256"}],"outputs":[{"name":"","type":"string","internalType":"string"}],"stateMutability":"view"},{"type":"function","name":"isActive","inputs":[{"name":"_hatId","type":"uint256","internalType":"uint256"}],"outputs":[{"name":"","type":"bool","internalType":"bool"}],"stateMutability":"view"},{"type":"function","name":"isWearerOfHat","inputs":[{"name":"_user","type":"address","internalType":"address"},{"name":"_hatId","type":"uint256","internalType":"uint256"}],"outputs":[{"name":"","type":"bool","internalType":"bool"}],"stateMutability":"view"},{"type":"function","name":"mintHat","inputs":[{"name":"_hatId","type":"uint256","internalType":"uint256"},{"name":"_wearer","type":"address","internalType":"address"}],"outputs":[{"name":"","type":"bool","internalType":"bool"}],"stateMutability":"nonpayable"},{"type":"function","name":"setHatActive","inputs":[{"name":"_hatId","type":"uint256","internalType":"uint256"},{"name":"_isActive","type":"bool","internalType":"bool"}],"outputs":[],"stateMutability":"nonpayable"},{"type":"function","name":"setHatImageUri","inputs":[{"name":"_hatId","type":"uint256","internalType":"uint256"},{"name":"_imageUri","type":"string","internalType":"string"}],"outputs":[],"stateMutability":"nonpayable"},{"type":"function","name":"setWearer","inputs":[{"name":"_hatId","type":"uint256","internalType":"uint256"},{"name":"_wearer","type":"address","internalType":"address"},{"name":"_isWearer","type":"bool","internalType":"bool"}],"outputs":[],"stateMutability":"nonpayable"},{"type":"function","name":"transferHat","inputs":[{"name":"_hatId","type":"uint256","internalType":"uint256"},{"name":"_from","type":"address","internalType":"address"},{"name":"_to","type":"address","internalType":"address"}],"outputs":[],"stateMutability":"nonpayable"},{"type":"function","name":"wearers","inputs":[{"name":"","type":"uint256","internalType":"uint256"},{"name":"","type":"address","internalType":"address"}],"outputs":[{"name":"","type":"bool","internalType":"bool"}],"stateMutability":"view"}],"bytecode":{"object":"0x608080604052346015576106fc908161001a8239f35b5f80fdfe604060808152600480361015610013575f80fd5b5f3560e01c8063188ea09d146101f45780631c10df4d146104e65780634352409a14610480578063641f776e14610437578063715a768e146103f357806382afd23b146101c7578063994f3222146102a0578063a4a1f06c1461022d578063b71ab810146101f4578063b8a27d0b146101c7578063d82720cb146101935763e89064541461009f575f80fd5b3461015a57606036600319011261015a576001600160401b03813560243582811161015a576100d1903690850161068a565b94909260443590811161015a576100eb903690860161068a565b909481870361015e57505f5b86811061010057005b61010b8183886106cb565b3590811515820361015a57845f526020915f8352845f209061012e838b8a6106cb565b356001600160a01b038116929083900361015a57600194610154935f5252855f206106ba565b016100f7565b5f80fd5b606490602084519162461bcd60e51b8352820152600f60248201526e098cadccee8d040dad2e6dac2e8c6d608b1b6044820152fd5b50903461015a578060031936011261015a5760243590811515820361015a576101c592355f5260016020525f206106ba565b005b50903461015a57602036600319011261015a57602091355f526001825260ff815f20541690519015158152f35b50903461015a57602036600319011261015a5761022991355f52600260205261021e815f2061056a565b90519182918261062d565b0390f35b503461015a57606036600319011261015a573590610249610674565b6001600160a01b039190604435838116919082900361015a57600193855f525f602052835f2091165f52602052815f209360ff19948581541690555f525f602052815f20905f526020525f20918254161790555f80f35b503461015a578160031936011261015a5760248035916001600160401b03919082841161015a573660238501121561015a578381013592831161015a57366024848601011161015a57355f52602093600285525f20926103008454610532565b601f81116103b0575b505f91601f84116001146103485750829394505f9261033a575b50505f19600383901b1c191660019190911b179055005b602492500101355f80610323565b5f8581528681209396601f198616925b8383106103945750505094836001959610610378575b505050811b019055005b01602401355f19600384901b60f8161c191690555f808061036e565b908060018a978483969c89010135815501960198019190610358565b845f52855f20601f850160051c8101918786106103e9575b601f0160051c01905b8181106103de5750610309565b5f81556001016103d1565b90915081906103c8565b50903461015a578060031936011261015a57602091610410610674565b90355f525f8352815f209060018060a01b03165f52825260ff815f20541690519015158152f35b50903461015a578060031936011261015a57602091610454610674565b90355f525f8352815f209060018060a01b03165f528252805f20600160ff198254161790555160018152f35b503461015a578160031936011261015a57356001600160a01b0381169081900361015a5760209160243591825f525f8452815f20905f52835260ff815f20541691826104d0575b50519015158152f35b5f908152600184528181205460ff1692506104c7565b50903461015a57606036600319011261015a57610501610674565b9060443591821515830361015a576101c593355f525f602052815f209060018060a01b03165f526020525f206106ba565b90600182811c92168015610560575b602083101461054c57565b634e487b7160e01b5f52602260045260245ffd5b91607f1691610541565b90604051915f90805461057c81610532565b908186526020926001916001811690815f1461060f57506001146105d6575b50505050829003601f01601f191682016001600160401b038111838210176105c257604052565b634e487b7160e01b5f52604160045260245ffd5b909293505f52825f2091835f935b8385106105fb57505050508301015f80808061059b565b8054888601830152930192849082016105e4565b60ff191688860152505050151560051b84010190505f80808061059b565b602080825282518183018190529093925f5b82811061066057505060409293505f838284010152601f8019910116010190565b81810186015184820160400152850161063f565b602435906001600160a01b038216820361015a57565b9181601f8401121561015a578235916001600160401b03831161015a576020808501948460051b01011161015a57565b9060ff801983541691151516179055565b91908110156106db5760051b0190565b634e487b7160e01b5f52603260045260245ffdfea164736f6c6343000819000a","linkReferences":{}},"methodIdentifiers":{"batchSetWearers(uint256,address[],bool[])":"e8906454","getHatImageUri(uint256)":"b71ab810","hatActive(uint256)":"b8a27d0b","hatImageUri(uint256)":"188ea09d","isActive(uint256)":"82afd23b","isWearerOfHat(address,uint256)":"4352409a","mintHat(uint256,address)":"641f776e","setHatActive(uint256,bool)":"d82720cb","setHatImageUri(uint256,string)":"994f3222","setWearer(uint256,address,bool)":"1c10df4d","transferHat(uint256,address,address)":"a4a1f06c","wearers(uint256,address)":"715a768e"},"id":130}