{"abi":[{"type":"function","name":"batchSetWearers","inputs":[{"name":"_hatId","type":"uint256","internalType":"uint256"},{"name":"_wearers","type":"address[]","internalType":"address[]"},{"name":"_areWearers","type":"bool[]","internalType":"bool[]"}],"outputs":[],"stateMutability":"nonpayable"},{"type":"function","name":"getHatImageUri","inputs":[{"name":"_hatId","type":"uint256","internalType":"uint256"}],"outputs":[{"name":"","type":"string","internalType":"string"}],"stateMutability":"view"},{"type":"function","name":"hatActive","inputs":[{"name":"","type":"uint256","internalType":"uint256"}],"outputs":[{"name":"","type":"bool","internalType":"bool"}],"stateMutability":"view"},{"type":"function","name":"hatImageUri","inputs":[{"name":"","type":"uint256","internalType":"uint256"}],"outputs":[{"name":"","type":"string","internalType":"string"}],"stateMutability":"view"},{"type":"function","name":"isActive","inputs":[{"name":"_hatId","type":"uint256","internalType":"uint256"}],"outputs":[{"name":"","type":"bool","internalType":"bool"}],"stateMutability":"view"},{"type":"function","name":"isWearerOfHat","inputs":[{"name":"_user","type":"address","internalType":"address"},{"name":"_hatId","type":"uint256","internalType":"uint256"}],"outputs":[{"name":"","type":"bool","internalType":"bool"}],"stateMutability":"view"},{"type":"function","name":"mintHat","inputs":[{"name":"_hatId","type":"uint256","internalType":"uint256"},{"name":"_wearer","type":"address","internalType":"address"}],"outputs":[{"name":"","type":"bool","internalType":"bool"}],"stateMutability":"nonpayable"},{"type":"function","name":"setHatActive","inputs":[{"name":"_hatId","type":"uint256","internalType":"uint256"},{"name":"_isActive","type":"bool","internalType":"bool"}],"outputs":[],"stateMutability":"nonpayable"},{"type":"function","name":"setHatImageUri","inputs":[{"name":"_hatId","type":"uint256","internalType":"uint256"},{"name":"_imageUri","type":"string","internalType":"string"}],"outputs":[],"stateMutability":"nonpayable"},{"type":"function","name":"setWearer","inputs":[{"name":"_hatId","type":"uint256","internalType":"uint256"},{"name":"_wearer","type":"address","internalType":"address"},{"name":"_isWearer","type":"bool","internalType":"bool"}],"outputs":[],"stateMutability":"nonpayable"},{"type":"function","name":"transferHat","inputs":[{"name":"_hatId","type":"uint256","internalType":"uint256"},{"name":"_from","type":"address","internalType":"address"},{"name":"_to","type":"address","internalType":"address"}],"outputs":[],"stateMutability":"nonpayable"},{"type":"function","name":"wearers","inputs":[{"name":"","type":"uint256","internalType":"uint256"},{"name":"","type":"address","internalType":"address"}],"outputs":[{"name":"","type":"bool","internalType":"bool"}],"stateMutability":"view"}],"bytecode":{"object":"0x60808060405234601557610714908161001a8239f35b5f80fdfe604060808152600480361015610013575f80fd5b5f3560e01c8063188ea09d1461020d5780631c10df4d146105015780634352409a1461049b578063641f776e14610452578063715a768e1461040e57806382afd23b146101e0578063994f3222146102b9578063a4a1f06c14610246578063b71ab8101461020d578063b8a27d0b146101e0578063d82720cb146101a05763e89064541461009f575f80fd5b346101675760603660031901126101675767ffffffffffffffff8135602435828111610167576100d290369085016106b2565b949092604435908111610167576100ec90369086016106b2565b909481870361016b57505f5b86811061010157005b61010c8183886106e3565b3590811515820361016757845f526020915f8352845f209061012f838b8a6106e3565b356001600160a01b038116929083900361016757600194610161935f5252855f209060ff801983541691151516179055565b016100f8565b5f80fd5b606490602084519162461bcd60e51b8352820152600f60248201526e098cadccee8d040dad2e6dac2e8c6d608b1b6044820152fd5b509034610167578060031936011261016757602435908115158203610167576101de92355f5260016020525f209060ff801983541691151516179055565b005b50903461016757602036600319011261016757602091355f526001825260ff815f20541690519015158152f35b5090346101675760203660031901126101675761024291355f526002602052610237815f20610591565b905191829182610655565b0390f35b503461016757606036600319011261016757359061026261069c565b6001600160a01b039190604435838116919082900361016757600193855f525f602052835f2091165f52602052815f209360ff19948581541690555f525f602052815f20905f526020525f20918254161790555f80f35b50346101675781600319360112610167576024906024359167ffffffffffffffff918284116101675736602385011215610167578381013592831161016757366024848601011161016757355f52602093600285525f209261031b8454610559565b601f81116103cb575b505f91601f84116001146103635750829394505f92610355575b50505f19600383901b1c191660019190911b179055005b602492500101355f8061033e565b5f8581528681209396601f198616925b8383106103af5750505094836001959610610393575b505050811b019055005b01602401355f19600384901b60f8161c191690555f8080610389565b908060018a978483969c89010135815501960198019190610373565b845f52855f20601f850160051c810191878610610404575b601f0160051c01905b8181106103f95750610324565b5f81556001016103ec565b90915081906103e3565b50903461016757806003193601126101675760209161042b61069c565b90355f525f8352815f209060018060a01b03165f52825260ff815f20541690519015158152f35b50903461016757806003193601126101675760209161046f61069c565b90355f525f8352815f209060018060a01b03165f528252805f20600160ff198254161790555160018152f35b5034610167578160031936011261016757356001600160a01b038116908190036101675760209160243591825f525f8452815f20905f52835260ff815f20541691826104eb575b50519015158152f35b5f908152600184528181205460ff1692506104e2565b5090346101675760603660031901126101675761051c61069c565b90604435918215158303610167576101de93355f525f602052815f209060018060a01b03165f526020525f209060ff801983541691151516179055565b90600182811c92168015610587575b602083101461057357565b634e487b7160e01b5f52602260045260245ffd5b91607f1691610568565b90604051915f9080546105a381610559565b908186526020926001916001811690815f1461063757506001146105fe575b50505050829003601f01601f1916820167ffffffffffffffff8111838210176105ea57604052565b634e487b7160e01b5f52604160045260245ffd5b909293505f52825f2091835f935b83851061062357505050508301015f8080806105c2565b80548886018301529301928490820161060c565b60ff191688860152505050151560051b84010190505f8080806105c2565b602080825282518183018190529093925f5b82811061068857505060409293505f838284010152601f8019910116010190565b818101860151848201604001528501610667565b602435906001600160a01b038216820361016757565b9181601f840112156101675782359167ffffffffffffffff8311610167576020808501948460051b01011161016757565b91908110156106f35760051b0190565b634e487b7160e01b5f52603260045260245ffdfea164736f6c6343000819000a","linkReferences":{}},"methodIdentifiers":{"batchSetWearers(uint256,address[],bool[])":"e8906454","getHatImageUri(uint256)":"b71ab810","hatActive(uint256)":"b8a27d0b","hatImageUri(uint256)":"188ea09d","isActive(uint256)":"82afd23b","isWearerOfHat(address,uint256)":"4352409a","mintHat(uint256,address)":"641f776e","setHatActive(uint256,bool)":"d82720cb","setHatImageUri(uint256,string)":"994f3222","setWearer(uint256,address,bool)":"1c10df4d","transferHat(uint256,address,address)":"a4a1f06c","wearers(uint256,address)":"715a768e"},"id":124}