{"abi":[{"type":"function","name":"batchCreateHats","inputs":[{"name":"_admins","type":"uint256[]","internalType":"uint256[]"},{"name":"_details","type":"string[]","internalType":"string[]"},{"name":"_maxSupplies","type":"uint32[]","internalType":"uint32[]"},{"name":"_eligibilityModules","type":"address[]","internalType":"address[]"},{"name":"_toggleModules","type":"address[]","internalType":"address[]"},{"name":"_mutables","type":"bool[]","internalType":"bool[]"},{"name":"_imageURIs","type":"string[]","internalType":"string[]"}],"outputs":[{"name":"","type":"bool","internalType":"bool"}],"stateMutability":"nonpayable"},{"type":"function","name":"batchMintHats","inputs":[{"name":"_hatIds","type":"uint256[]","internalType":"uint256[]"},{"name":"_wearers","type":"address[]","internalType":"address[]"}],"outputs":[{"name":"","type":"bool","internalType":"bool"}],"stateMutability":"nonpayable"},{"type":"function","name":"batchSetWearers","inputs":[{"name":"_hatId","type":"uint256","internalType":"uint256"},{"name":"_wearersArr","type":"address[]","internalType":"address[]"},{"name":"_areWearers","type":"bool[]","internalType":"bool[]"}],"outputs":[],"stateMutability":"nonpayable"},{"type":"function","name":"changeHatDetails","inputs":[{"name":"_hatId","type":"uint256","internalType":"uint256"},{"name":"_newDetails","type":"string","internalType":"string"}],"outputs":[],"stateMutability":"nonpayable"},{"type":"function","name":"changeHatEligibility","inputs":[{"name":"_hatId","type":"uint256","internalType":"uint256"},{"name":"_newEligibility","type":"address","internalType":"address"}],"outputs":[],"stateMutability":"nonpayable"},{"type":"function","name":"changeHatImageURI","inputs":[{"name":"_hatId","type":"uint256","internalType":"uint256"},{"name":"_newImageURI","type":"string","internalType":"string"}],"outputs":[],"stateMutability":"nonpayable"},{"type":"function","name":"changeHatMaxSupply","inputs":[{"name":"_hatId","type":"uint256","internalType":"uint256"},{"name":"_newMaxSupply","type":"uint32","internalType":"uint32"}],"outputs":[],"stateMutability":"nonpayable"},{"type":"function","name":"changeHatToggle","inputs":[{"name":"_hatId","type":"uint256","internalType":"uint256"},{"name":"_newToggle","type":"address","internalType":"address"}],"outputs":[],"stateMutability":"nonpayable"},{"type":"function","name":"checkHatStatus","inputs":[{"name":"_hatId","type":"uint256","internalType":"uint256"}],"outputs":[{"name":"","type":"bool","internalType":"bool"}],"stateMutability":"nonpayable"},{"type":"function","name":"checkHatWearerStatus","inputs":[{"name":"_hatId","type":"uint256","internalType":"uint256"},{"name":"_wearer","type":"address","internalType":"address"}],"outputs":[{"name":"","type":"bool","internalType":"bool"}],"stateMutability":"nonpayable"},{"type":"function","name":"createHat","inputs":[{"name":"_admin","type":"uint256","internalType":"uint256"},{"name":"_details","type":"string","internalType":"string"},{"name":"_maxSupply","type":"uint32","internalType":"uint32"},{"name":"_eligibility","type":"address","internalType":"address"},{"name":"_toggle","type":"address","internalType":"address"},{"name":"_mutable","type":"bool","internalType":"bool"},{"name":"_imageURI","type":"string","internalType":"string"}],"outputs":[{"name":"newHatId","type":"uint256","internalType":"uint256"}],"stateMutability":"nonpayable"},{"type":"function","name":"eligibility","inputs":[{"name":"","type":"uint256","internalType":"uint256"},{"name":"","type":"address","internalType":"address"}],"outputs":[{"name":"","type":"bool","internalType":"bool"}],"stateMutability":"view"},{"type":"function","name":"getAdminAtLevel","inputs":[{"name":"_hatId","type":"uint256","internalType":"uint256"},{"name":"_level","type":"uint32","internalType":"uint32"}],"outputs":[{"name":"","type":"uint256","internalType":"uint256"}],"stateMutability":"pure"},{"type":"function","name":"getHatAdmin","inputs":[{"name":"_hatId","type":"uint256","internalType":"uint256"}],"outputs":[{"name":"","type":"uint256","internalType":"uint256"}],"stateMutability":"view"},{"type":"function","name":"getHatImageUri","inputs":[{"name":"_hatId","type":"uint256","internalType":"uint256"}],"outputs":[{"name":"","type":"string","internalType":"string"}],"stateMutability":"view"},{"type":"function","name":"getHatLevel","inputs":[{"name":"_hatId","type":"uint256","internalType":"uint256"}],"outputs":[{"name":"","type":"uint32","internalType":"uint32"}],"stateMutability":"pure"},{"type":"function","name":"getNextId","inputs":[{"name":"_admin","type":"uint256","internalType":"uint256"}],"outputs":[{"name":"","type":"uint256","internalType":"uint256"}],"stateMutability":"view"},{"type":"function","name":"hats","inputs":[{"name":"","type":"uint256","internalType":"uint256"}],"outputs":[{"name":"details","type":"string","internalType":"string"},{"name":"maxSupply","type":"uint32","internalType":"uint32"},{"name":"supply","type":"uint32","internalType":"uint32"},{"name":"eligibility","type":"address","internalType":"address"},{"name":"toggle","type":"address","internalType":"address"},{"name":"imageURI","type":"string","internalType":"string"},{"name":"lastHatId","type":"uint16","internalType":"uint16"},{"name":"mutable_","type":"bool","internalType":"bool"},{"name":"active","type":"bool","internalType":"bool"},{"name":"admin","type":"uint256","internalType":"uint256"}],"stateMutability":"view"},{"type":"function","name":"isActive","inputs":[{"name":"_hatId","type":"uint256","internalType":"uint256"}],"outputs":[{"name":"","type":"bool","internalType":"bool"}],"stateMutability":"view"},{"type":"function","name":"isAdminOfHat","inputs":[{"name":"_user","type":"address","internalType":"address"},{"name":"_hatId","type":"uint256","internalType":"uint256"}],"outputs":[{"name":"","type":"bool","internalType":"bool"}],"stateMutability":"view"},{"type":"function","name":"isTopHat","inputs":[{"name":"_hatId","type":"uint256","internalType":"uint256"}],"outputs":[{"name":"","type":"bool","internalType":"bool"}],"stateMutability":"pure"},{"type":"function","name":"isWearerOfHat","inputs":[{"name":"_user","type":"address","internalType":"address"},{"name":"_hatId","type":"uint256","internalType":"uint256"}],"outputs":[{"name":"","type":"bool","internalType":"bool"}],"stateMutability":"view"},{"type":"function","name":"makeHatImmutable","inputs":[{"name":"_hatId","type":"uint256","internalType":"uint256"}],"outputs":[],"stateMutability":"nonpayable"},{"type":"function","name":"mintHat","inputs":[{"name":"_hatId","type":"uint256","internalType":"uint256"},{"name":"_wearer","type":"address","internalType":"address"}],"outputs":[{"name":"","type":"bool","internalType":"bool"}],"stateMutability":"nonpayable"},{"type":"function","name":"mintTopHat","inputs":[{"name":"_target","type":"address","internalType":"address"},{"name":"_details","type":"string","internalType":"string"},{"name":"_imageURI","type":"string","internalType":"string"}],"outputs":[{"name":"topHatId","type":"uint256","internalType":"uint256"}],"stateMutability":"nonpayable"},{"type":"function","name":"setEligibility","inputs":[{"name":"_hatId","type":"uint256","internalType":"uint256"},{"name":"_wearer","type":"address","internalType":"address"},{"name":"isEligible_","type":"bool","internalType":"bool"}],"outputs":[],"stateMutability":"nonpayable"},{"type":"function","name":"setHatActive","inputs":[{"name":"_hatId","type":"uint256","internalType":"uint256"},{"name":"_active","type":"bool","internalType":"bool"}],"outputs":[],"stateMutability":"nonpayable"},{"type":"function","name":"setHatWearerStatus","inputs":[{"name":"_hatId","type":"uint256","internalType":"uint256"},{"name":"_wearer","type":"address","internalType":"address"},{"name":"_eligible","type":"bool","internalType":"bool"},{"name":"_standing","type":"bool","internalType":"bool"}],"outputs":[{"name":"","type":"bool","internalType":"bool"}],"stateMutability":"nonpayable"},{"type":"function","name":"setStanding","inputs":[{"name":"_hatId","type":"uint256","internalType":"uint256"},{"name":"_wearer","type":"address","internalType":"address"},{"name":"_inStanding","type":"bool","internalType":"bool"}],"outputs":[],"stateMutability":"nonpayable"},{"type":"function","name":"setWearer","inputs":[{"name":"_hatId","type":"uint256","internalType":"uint256"},{"name":"_wearer","type":"address","internalType":"address"},{"name":"_isWearer","type":"bool","internalType":"bool"}],"outputs":[],"stateMutability":"nonpayable"},{"type":"function","name":"standing","inputs":[{"name":"","type":"uint256","internalType":"uint256"},{"name":"","type":"address","internalType":"address"}],"outputs":[{"name":"","type":"bool","internalType":"bool"}],"stateMutability":"view"},{"type":"function","name":"topHatCount","inputs":[],"outputs":[{"name":"","type":"uint256","internalType":"uint256"}],"stateMutability":"view"},{"type":"function","name":"transferHat","inputs":[{"name":"_hatId","type":"uint256","internalType":"uint256"},{"name":"_from","type":"address","internalType":"address"},{"name":"_to","type":"address","internalType":"address"}],"outputs":[],"stateMutability":"nonpayable"},{"type":"function","name":"viewHat","inputs":[{"name":"_hatId","type":"uint256","internalType":"uint256"}],"outputs":[{"name":"details","type":"string","internalType":"string"},{"name":"maxSupply","type":"uint32","internalType":"uint32"},{"name":"supply","type":"uint32","internalType":"uint32"},{"name":"eligibilityAddr","type":"address","internalType":"address"},{"name":"toggle","type":"address","internalType":"address"},{"name":"imageURI","type":"string","internalType":"string"},{"name":"lastHatId","type":"uint16","internalType":"uint16"},{"name":"mutable_","type":"bool","internalType":"bool"},{"name":"active","type":"bool","internalType":"bool"}],"stateMutability":"view"},{"type":"function","name":"wearers","inputs":[{"name":"","type":"uint256","internalType":"uint256"},{"name":"","type":"address","internalType":"address"}],"outputs":[{"name":"","type":"bool","internalType":"bool"}],"stateMutability":"view"},{"type":"error","name":"AlreadyWearingHat","inputs":[]},{"type":"error","name":"ArrayLengthMismatch","inputs":[]},{"type":"error","name":"HatNotActive","inputs":[]},{"type":"error","name":"HatNotMutable","inputs":[]},{"type":"error","name":"MaxLevelReached","inputs":[]},{"type":"error","name":"MaxSupplyReached","inputs":[]},{"type":"error","name":"NotAdmin","inputs":[]},{"type":"error","name":"NotEligible","inputs":[]}],"bytecode":{"object":"0x6080806040523460155761256d908161001a8239f35b5f80fdfe610160806040526004361015610013575f80fd5b5f3560e01c9081630109f85414611ebb575080631183a8c014611e9d5780631a64dfad14611af45780631c10df4d146119a657806321dbb8cb1461194b5780633fa9d544146119255780634352409a1461189f57806345fffac81461187f578063475547ce1461183f57806347d173af1461181357806352a6b26514611665578063550a9df11461162557806359591a8f146115dc57806359701e44146115905780635d5eb5af1461156a578063641f776e14611448578063715a768e146113ff578063756329a4146113d0578063781a488e146113b35780637903e56b14610e6d57806382afd23b146107735780638efc0a5314610e24578063a4a1f06c14610d1e578063afaae55a14610c7e578063b052925e146108bd578063b56f75621461088c578063b71ab81014610848578063bca747b514610778578063d3272ba814610773578063d395acf8146106ae578063d82720cb14610624578063d9fd995b1461054b578063e8906454146102fa578063f737401e146101ce5763fb2aaa4c1461019e575f80fd5b346101ca5760203660031901126101ca5760206101bc6004356124e8565b63ffffffff60405191168152f35b5f80fd5b346101ca576101dc36612189565b825f526020925f845260ff600460405f20015460101c1615806102ef575b6102dd575f525f835260405f20916001600160401b0382116102c95761022a826102248554612072565b85612286565b5f93601f8311600114610269575061025a929382915f9261025e575b50508160011b915f199060031b1c19161790565b9055005b013590508480610246565b90601f19831694845f52825f20925f905b8782106102b1575050836001959610610298575b505050811b019055005b01355f19600384901b60f8161c1916905583808061028e565b8060018496829495870135815501950192019061027a565b634e487b7160e01b5f52604160045260245ffd5b6040516338a6531f60e01b8152600490fd5b5080841b15156101fa565b346101ca5760603660031901126101ca576001600160401b036004356024358281116101ca5761032e903690600401611fd0565b9190926044359081116101ca57610349903690600401611fd0565b939092848103610539575f5b81811061035e57005b8061037461036f600193898961237e565b61243a565b80610505575b1561045e57845f526104588261043763ffffffff6020928084528760405f208a6103b46103af8a8c8060a01b0395869461237e565b6123a2565b165f5285528960405f209160ff199284848254161790558c5f52600287528a816103e66103af8c60405f20948761237e565b165f52875260405f2084848254161790558c5f52600387526104106103af8a8d60405f209561237e565b165f5285528160405f2091825416179055895f525f845260405f2001928354901c1661231a565b67ffffffff0000000082549160201b169067ffffffff000000001916179055565b01610355565b61046c61036f82898961237e565b15806104d2575b1561045857845f526104cd8261043763ffffffff60209280845260405f20896104a66103af898c8c8060a01b039461237e565b165f52845260405f2060ff198154169055895f525f845260405f2001928354901c16612308565b610458565b50845f52602082815260405f2090838060a01b036104f46103af85888a61237e565b165f525260ff60405f205416610473565b50845f52602082815260405f2090838060a01b036105276103af85888a61237e565b165f525260ff60405f2054161561037a565b60405163512509d360e11b8152600490fd5b346101ca5761055936612189565b825f526020925f845260ff600460405f20015460101c161580610619575b6102dd575f525f8352600360405f2001916001600160401b0382116102c9576105a4826102248554612072565b5f93601f83116001146105d3575061025a929382915f9261025e5750508160011b915f199060031b1c19161790565b90601f19831694845f52825f20925f905b87821061060157505083600195961061029857505050811b019055005b806001849682949587013581550195019201906105e4565b5080841b1515610577565b346101ca5760403660031901126101ca5760243580151581036101ca57600480355f908152602081905260409020908101805463ff000000191683151560181b63ff00000016178155918061069c575b61067a57005b600101805463ffffffff19166064179055805462ff0000191662010000179055005b5063ffffffff60018201541615610674565b346101ca5760203660031901126101ca576004355f525f60205261071d60405f20600181015460ff61074b63ffffffff60018060a01b03938460028701541660048701549561070860036107018a6120e7565b99016120e7565b92604051998a99610120808c528b0190612034565b9480821660208b01528160201c1660408a015260401c166060880152608087015285820360a0870152612034565b9161ffff811660c0850152818160101c16151560e085015260181c1615156101008301520390f35b612000565b346101ca5760203660031901126101ca576004355f525f6020526107ec60405f206107a2816120e7565b90600181015460ff61081a63ffffffff60018060a01b03806002870154166107cc600388016120e7565b9160056004890154980154966040519a8b9a610140808d528c0190612034565b9480821660208c01528160201c1660408b015260401c166060890152608088015286820360a0880152612034565b9261ffff811660c0860152818160101c16151560e086015260181c1615156101008401526101208301520390f35b346101ca5760203660031901126101ca576004355f525f602052610888610874600360405f20016120e7565b604051918291602083526020830190612034565b0390f35b346101ca5760403660031901126101ca5760206108b36108aa611f47565b60243590612447565b6040519015158152f35b346101ca5760e03660031901126101ca576024356001600160401b0381116101ca576108ed903690600401611f5d565b60443563ffffffff811681036101ca576064356001600160a01b03811681036101ca57608435916001600160a01b03831683036101ca5760a4359283151584036101ca5760c435906001600160401b0382116101ca576109d59361095a63ffffffff933690600401611f5d565b9390946109aa61096b6004356121bc565b9a6004355f525f602052600460405f2001805461ffff61098c8183166123e6565b169061ffff19161790556040519a6109a38c6120aa565b3691612241565b89521660208801525f60408801526001600160a01b0390811660608801521660808601523691612241565b60a08301525f60c0830152151560e08201526001610100820152600435610120820152815f525f60205260405f209181519283516001600160401b0381116102c957610a2b81610a258454612072565b84612286565b6020601f8211600114610c19578190610a5b939495965f92610c0e5750508160011b915f199060031b1c19161790565b81555b602083810151600183018054604087015167ffffffffffffffff1990911663ffffffff93909316929092179190921b67ffffffff0000000016178155610ab29060608501516001600160a01b0316906122d5565b6002810160018060a01b036080850151166001600160601b0360a01b825416179055600381019260a08101519384516001600160401b0381116102c957602095610b00826102248554612072565b8690601f8311600114610ba55782600595936101209593610b35935f92610b9a5750508160011b915f199060031b1c19161790565b90555b60c081015160048501805460e084015162ff000090151560101b1661ffff90931662ffffff1990911617919091178155610b8d905b610100830151815463ff000000191690151560181b63ff00000016179055565b0151910155604051908152f35b015190508a80610246565b90601f19831691845f52885f20925f5b818110610bf7575092600192859260059896610120989610610bdf575b505050811b019055610b38565b01515f1960f88460031b161c19169055898080610bd2565b92938a600181928786015181550195019301610bb5565b015190508680610246565b825f5260205f20905f5b601f1984168110610c66575060019394959683601f19811610610c4e575b505050811b018155610a5e565b01515f1960f88460031b161c19169055858080610c41565b9091602060018192858b015181550193019101610c23565b346101ca5760803660031901126101ca57600435610c9a611f31565b906044359182151583036101ca576064359182151583036101ca57610ced610d1394825f52600260205260405f209360018060a01b031693845f5260205260405f209060ff801983541691151516179055565b5f52600360205260405f20905f5260205260405f209060ff801983541691151516179055565b602060405160018152f35b346101ca5760603660031901126101ca57600435610d3a611f31565b6001600160a01b0390604435828116908190036101ca57835f526020925f845260ff600460405f20015460101c16156102dd578461043793610e22965f5260019283875260405f2091165f52855260405f2060ff1990818154169055815f525f86528260405f200193610dba63ffffffff956104378782548b1c16612308565b825f5283875260405f20815f52875260405f208483825416179055825f526002875260405f20815f52875260405f208483825416179055825f526003875260405f20905f5286528260405f20918254161790555f525f845260405f2001928354901c1661231a565b005b346101ca5760403660031901126101ca57610e3d611f31565b6004355f52600260205260405f209060018060a01b03165f52602052602060ff60405f2054166040519015158152f35b346101ca5760e03660031901126101ca576004356001600160401b0381116101ca57610e9d903690600401611fd0565b60e0526024356001600160401b0381116101ca57610ebf903690600401611fd0565b9060a0526044356001600160401b0381116101ca57610ee2903690600401611fd0565b60c0526080526064356001600160401b0381116101ca57610f07903690600401611fd0565b9190926084356001600160401b0381116101ca57610f29903690600401611fd0565b60a4929192356001600160401b0381116101ca57610f4b903690600401611fd0565b610140526101205260c4356001600160401b0381116101ca57610f72903690600401611fd0565b610100529260e05185148015906113a5575b8015611399575b801561138d575b801561137e575b801561136f575b610539575f5b60e0518110610fba57602060405160018152f35b610fd0610fca8260e0518761237e565b356121bc565b610fdd8260e0518761237e565b355f525f602052600460405f2001805461ffff610ffb8183166123e6565b169061ffff1916179055611012828860a0516123f9565b6110248460c09493945160805161237e565b3563ffffffff811681036101ca576110d0856110998b8f8f8d966110a56109a39b8f8f9561106d6103af8b611078946110676103af8363ffffffff9c819861237e565b9a61237e565b9761010051906123f9565b97909861108f61036f82610140516101205161237e565b9b60e0519061237e565b359a6040519d8e6120aa565b8b521660208a01525f60408a01526001600160a01b0390811660608a01521660808801523691612241565b60a08501525f60c0850152151560e084015260016101008401526101208301525f525f60205260405f209080518051906001600160401b0382116102c9576111228261111c8654612072565b86612286565b602090601f83116001146113075761115092915f91836112fc5750508160011b915f199060031b1c19161790565b82555b602081810151600184018054604085015167ffffffffffffffff1990911663ffffffff93909316929092179190921b67ffffffff00000000161781556111a79060608301516001600160a01b0316906122d5565b6002820160018060a01b036080830151166001600160601b0360a01b82541617905560a08101518051906001600160401b0382116102c9576111f9826111f06003870154612072565b60038701612286565b602090601f83116001146112875792611232836005946101209460019998975f9261127c5750508160011b915f199060031b1c19161790565b60038501555b60c081015160048501805460e084015162ff000090151560101b1661ffff90931662ffffff199091161791909117815561127190610b6d565b015191015501610fa6565b015190505f80610246565b90600385015f5260205f20915f5b601f19851681106112e4575083610120936001989796938993600597601f198116106112cc575b505050811b016003850155611238565b01515f1960f88460031b161c191690558f80806112bc565b91926020600181928685015181550194019201611295565b015190508d80610246565b9190845f5260205f20905f935b601f1984168510611354576001945083601f1981161061133c575b505050811b018255611153565b01515f1960f88460031b161c191690558c808061132f565b81810151835560209485019460019093019290910190611314565b5060e051610100511415610fa0565b5060e051610140511415610f99565b5060e051821415610f92565b5060e051861415610f8b565b5060e05160c0511415610f84565b346101ca575f3660031901126101ca576020600454604051908152f35b346101ca5760203660031901126101ca576004355f525f602052600460405f200162ff00001981541690555f80f35b346101ca5760403660031901126101ca57611418611f31565b6004355f52600160205260405f209060018060a01b03165f52602052602060ff60405f2054166040519015158152f35b346101ca5760403660031901126101ca57600435611464611f31565b815f526020915f835260405f209160ff600484015460181c161561155857815f5260019283855260405f209160018060a01b031691825f52855260ff60405f20541661154657830190815463ffffffff908180821691881c16101561153457836104379261152c955f5286885260405f20815f52885260405f209160ff19928884825416179055805f526002895260405f20825f52895260405f2088848254161790555f526003885260405f20905f5287528560405f20918254161790558254861c1661231a565b604051908152f35b60405163d05cb60960e01b8152600490fd5b60405163154014e760e11b8152600490fd5b60405163e629aba360e01b8152600490fd5b346101ca5760403660031901126101ca57602061152c611588611fbd565b6004356123b6565b346101ca5760403660031901126101ca576004356115ac611f31565b815f525f60205260ff600460405f20015460101c16156102dd57610e22915f525f602052600160405f20016122d5565b346101ca5760403660031901126101ca576115f5611f31565b6004355f52600360205260405f209060018060a01b03165f52602052602060ff60405f2054166040519015158152f35b346101ca57610e2261163636611f8a565b915f52600260205260405f209060018060a01b03165f5260205260405f209060ff801983541691151516179055565b346101ca5760403660031901126101ca576001600160401b036004358181116101ca57611696903690600401611fd0565b90916024359081116101ca576116b0903690600401611fd0565b9190828203610539575f5b8281106116cd57602060405160018152f35b6116d881848761237e565b355f526020905f825260405f2060ff9081600482015460181c16156115585761170283878a61237e565b355f5260019081855260405f209260018060a01b0393846117276103af888d8c61237e565b165f52865260405f20541661154657810190815463ffffffff908180821691881c161015611534576001958a610437938961180d976117f36103af8f8f906117e28e836117768280968d61237e565b355f52898c5288886117906103af858860405f209561237e565b165f528c5260405f209a60ff199b8b8d8254161790556117b183838361237e565b355f5260028d5289896117cc6103af868960405f209561237e565b165f528d5260405f208b8d82541617905561237e565b355f526003895260405f209561237e565b165f52835260405f20918254161790558354901c1661231a565b016116bb565b346101ca5760203660031901126101ca576004355f525f6020526020600560405f200154604051908152f35b346101ca57610e2261185036611f8a565b915f52600360205260405f209060018060a01b03165f5260205260405f209060ff801983541691151516179055565b346101ca5760203660031901126101ca576020604051600435821b158152f35b346101ca5760403660031901126101ca5760206118ba611f47565b6024355f8181526001845260408082206001600160a01b0385168352855290205460ff16919082611909575b826118f8575b50506040519015158152f35b611902925061232f565b82806118ec565b8092505f525f835260ff600460405f20015460181c16916118e6565b346101ca5760403660031901126101ca5760206108b3611943611f31565b60043561232f565b346101ca5760403660031901126101ca57600435611967611fbd565b90805f525f60205260ff600460405f20015460101c16156102dd575f525f60205263ffffffff600160405f2001911663ffffffff198254161790555f80f35b346101ca576119b436611f8a565b8080611acb575b15611a4d575081610e22925f526020916001835260405f209060018060a01b031690815f52835260405f209060ff1991600183825416179055825f526002845260405f20815f52845260405f20600183825416179055825f526003845260405f20905f528352600160405f20918254161790555f525f815261043763ffffffff600160405f2001928354901c1661231a565b1580611aa3575b611a5a57005b815f52600160205260405f209060018060a01b03165f5260205260405f2060ff1981541690555f525f602052610e22600160405f200161043763ffffffff825460201c16612308565b50815f52600160205260405f2060018060a01b0382165f5260205260ff60405f205416611a54565b50825f52600160205260405f2060018060a01b0383165f5260205260ff60405f205416156119bb565b346101ca5760603660031901126101ca57611b0d611f47565b6024356001600160401b0381116101ca57611b2c903690600401611f5d565b916044356001600160401b0381116101ca57611b4c903690600401611f5d565b60045491905f198314611e8957611b756001611b9894019586600455604051976109a3896120aa565b865260016020870152600160408701525f60608701525f60808701523691612241565b60a08401525f60c08401525f60e084015260016101008401528160e01b6101208401528160e01b5f525f60205260405f2083518051906001600160401b0382116102c957611bea826102248554612072565b602090601f8311600114611e2157611c1892915f9183611e165750508160011b915f199060031b1c19161790565b81555b602084810151600183018054604088015167ffffffffffffffff1990911663ffffffff93909316929092179190921b67ffffffff0000000016178155611c6f9060608601516001600160a01b0316906122d5565b6002810160018060a01b036080860151166001600160601b0360a01b82541617905560a08401519384516001600160401b0381116102c957602095611cbb826111f06003870154612072565b8690601f8311600114611da657826101209360059593611cef935f92610b9a5750508160011b915f199060031b1c19161790565b60038501555b60c081015160048501805460e084015162ff000090151560101b1661ffff90931662ffffff1990911617919091178155611d2e90610b6d565b015191015560e09190911b5f818152600180855260408083206001600160a01b03909516808452948652808320805460ff199081168417909155848452600287528184208685528752818420805482168417905584845260038752818420958452948652918290208054909416179092559051908152f35b90600385015f52875f20915f5b601f1985168110611dff575092600594926001926101209583601f19811610611de7575b505050811b016003850155611cf5565b01515f1960f88460031b161c19169055898080611dd7565b919289600181928685015181550194019201611db3565b015190508780610246565b9190835f5260205f20905f935b601f1984168510611e6e576001945083601f19811610611e56575b505050811b018155611c1b565b01515f1960f88460031b161c19169055868080611e49565b81810151835560209485019460019093019290910190611e2e565b634e487b7160e01b5f52601160045260245ffd5b346101ca5760203660031901126101ca57602061152c6004356121bc565b346101ca5760403660031901126101ca57600435611ed7611f31565b91815f525f60205260ff600460405f20015460101c1615611f2257505f90815260208190526040902060020180546001600160a01b0319166001600160a01b03909216919091179055005b6338a6531f60e01b8152600490fd5b602435906001600160a01b03821682036101ca57565b600435906001600160a01b03821682036101ca57565b9181601f840112156101ca578235916001600160401b0383116101ca57602083818601950101116101ca57565b60609060031901126101ca57600435906024356001600160a01b03811681036101ca579060443580151581036101ca5790565b6024359063ffffffff821682036101ca57565b9181601f840112156101ca578235916001600160401b0383116101ca576020808501948460051b0101116101ca57565b346101ca5760203660031901126101ca576004355f525f602052602060ff600460405f20015460181c166040519015158152f35b91908251928382525f5b84811061205e575050825f602080949584010152601f8019910116010190565b60208183018101518483018201520161203e565b90600182811c921680156120a0575b602083101461208c57565b634e487b7160e01b5f52602260045260245ffd5b91607f1691612081565b61014081019081106001600160401b038211176102c957604052565b90601f801991011681019081106001600160401b038211176102c957604052565b9060405191825f82546120f981612072565b908184526020946001916001811690815f146121675750600114612129575b505050612127925003836120c6565b565b5f90815285812095935091905b81831061214f57505061212793508201015f8080612118565b85548884018501529485019487945091830191612136565b9250505061212794925060ff191682840152151560051b8201015f8080612118565b9060406003198301126101ca5760043591602435906001600160401b0382116101ca576121b891600401611f5d565b9091565b805f525f60205260405f2063ffffffff806121d6846124e8565b16600e81101561222f5760010190808211611e8957640ffffffff09082169160041b169080820460101490151715611e895760e0039060e08211611e89576004015461ffff908116600101818111611e895716901b1790565b60405163921c7d5f60e01b8152600490fd5b9291926001600160401b0382116102c9576040519161226a601f8201601f1916602001846120c6565b8294818452818301116101ca578281602093845f960137010152565b601f821161229357505050565b5f5260205f20906020601f840160051c830193106122cb575b601f0160051c01905b8181106122c0575050565b5f81556001016122b5565b90915081906122ac565b805468010000000000000000600160e01b03191660409290921b68010000000000000000600160e01b0316919091179055565b63ffffffff168015611e89575f190190565b63ffffffff809116908114611e895760010190565b90815f52600260205260405f209060018060a01b031690815f5260205260ff60405f205416918261235f57505090565b9091505f52600360205260405f20905f5260205260ff60405f20541690565b919081101561238e5760051b0190565b634e487b7160e01b5f52603260045260245ffd5b356001600160a01b03811681036101ca5790565b9063ffffffff1680600e0390600e8211611e89578160041b91820460101490600e141715611e89575f19901b1690565b61ffff809116908114611e895760010190565b919081101561238e5760051b81013590601e19813603018212156101ca5701908135916001600160401b0383116101ca5760200182360381136101ca579190565b3580151581036101ca5790565b906020918160201b156124c25761245d826124e8565b63ffffffff93908416925f5b848682161061247c575050505050505f90565b61248681836123b6565b5f908152600180855260408083206001600160a01b038816845286529091205460ff166124b857506001018516612469565b9550505050505090565b91505f52600160205260405f209060018060a01b03165f5260205260ff60405f20541690565b5f905f905b600e82106124fa57505090565b909160018301808411611e8957600481811b918083046010149015171561254d5760e091820391821161254d57508261ffff911c16156125475761253f60019161231a565b9201906124ed565b91505090565b601190634e487b7160e01b5f525260245ffdfea164736f6c6343000819000a","linkReferences":{}},"methodIdentifiers":{"batchCreateHats(uint256[],string[],uint32[],address[],address[],bool[],string[])":"7903e56b","batchMintHats(uint256[],address[])":"52a6b265","batchSetWearers(uint256,address[],bool[])":"e8906454","changeHatDetails(uint256,string)":"f737401e","changeHatEligibility(uint256,address)":"59701e44","changeHatImageURI(uint256,string)":"d9fd995b","changeHatMaxSupply(uint256,uint32)":"21dbb8cb","changeHatToggle(uint256,address)":"0109f854","checkHatStatus(uint256)":"d3272ba8","checkHatWearerStatus(uint256,address)":"3fa9d544","createHat(uint256,string,uint32,address,address,bool,string)":"b052925e","eligibility(uint256,address)":"8efc0a53","getAdminAtLevel(uint256,uint32)":"5d5eb5af","getHatAdmin(uint256)":"47d173af","getHatImageUri(uint256)":"b71ab810","getHatLevel(uint256)":"fb2aaa4c","getNextId(uint256)":"1183a8c0","hats(uint256)":"bca747b5","isActive(uint256)":"82afd23b","isAdminOfHat(address,uint256)":"b56f7562","isTopHat(uint256)":"45fffac8","isWearerOfHat(address,uint256)":"4352409a","makeHatImmutable(uint256)":"756329a4","mintHat(uint256,address)":"641f776e","mintTopHat(address,string,string)":"1a64dfad","setEligibility(uint256,address,bool)":"550a9df1","setHatActive(uint256,bool)":"d82720cb","setHatWearerStatus(uint256,address,bool,bool)":"afaae55a","setStanding(uint256,address,bool)":"475547ce","setWearer(uint256,address,bool)":"1c10df4d","standing(uint256,address)":"59591a8f","topHatCount()":"781a488e","transferHat(uint256,address,address)":"a4a1f06c","viewHat(uint256)":"d395acf8","wearers(uint256,address)":"715a768e"},"id":138}