{"abi":[{"type":"constructor","inputs":[{"name":"_registry","type":"address","internalType":"address"},{"name":"_resolver","type":"address","internalType":"address"},{"name":"_baseNode","type":"bytes32","internalType":"bytes32"},{"name":"_owner","type":"address","internalType":"address"}],"stateMutability":"nonpayable"},{"type":"function","name":"BASE_NODE","inputs":[],"outputs":[{"name":"","type":"bytes32","internalType":"bytes32"}],"stateMutability":"view"},{"type":"function","name":"ENS_REGISTRY","inputs":[],"outputs":[{"name":"","type":"address","internalType":"address"}],"stateMutability":"view"},{"type":"function","name":"ENS_RESOLVER","inputs":[],"outputs":[{"name":"","type":"address","internalType":"address"}],"stateMutability":"view"},{"type":"function","name":"accountToName","inputs":[{"name":"","type":"address","internalType":"address"}],"outputs":[{"name":"","type":"string","internalType":"string"}],"stateMutability":"view"},{"type":"function","name":"available","inputs":[{"name":"name","type":"string","internalType":"string"}],"outputs":[{"name":"","type":"bool","internalType":"bool"}],"stateMutability":"view"},{"type":"function","name":"owner","inputs":[],"outputs":[{"name":"","type":"address","internalType":"address"}],"stateMutability":"view"},{"type":"function","name":"ownerOf","inputs":[{"name":"name","type":"string","internalType":"string"}],"outputs":[{"name":"","type":"address","internalType":"address"}],"stateMutability":"view"},{"type":"function","name":"register","inputs":[{"name":"name","type":"string","internalType":"string"},{"name":"owner","type":"address","internalType":"address"}],"outputs":[],"stateMutability":"nonpayable"},{"type":"function","name":"renounceOwnership","inputs":[],"outputs":[],"stateMutability":"nonpayable"},{"type":"function","name":"resolve","inputs":[{"name":"name","type":"string","internalType":"string"}],"outputs":[{"name":"","type":"address","internalType":"address"}],"stateMutability":"view"},{"type":"function","name":"subdomains","inputs":[{"name":"","type":"string","internalType":"string"}],"outputs":[{"name":"","type":"address","internalType":"address"}],"stateMutability":"view"},{"type":"function","name":"transferOwnership","inputs":[{"name":"newOwner","type":"address","internalType":"address"}],"outputs":[],"stateMutability":"nonpayable"},{"type":"event","name":"OwnershipTransferred","inputs":[{"name":"previousOwner","type":"address","indexed":true,"internalType":"address"},{"name":"newOwner","type":"address","indexed":true,"internalType":"address"}],"anonymous":false},{"type":"event","name":"SubdomainRegistered","inputs":[{"name":"name","type":"string","indexed":true,"internalType":"string"},{"name":"owner","type":"address","indexed":true,"internalType":"address"},{"name":"timestamp","type":"uint256","indexed":false,"internalType":"uint256"}],"anonymous":false},{"type":"error","name":"ENSNotConfigured","inputs":[]},{"type":"error","name":"InvalidName","inputs":[]},{"type":"error","name":"NameNotAvailable","inputs":[]},{"type":"error","name":"UnauthorizedCaller","inputs":[]}],"bytecode":{"object":"0x60e03461010657601f610cf538819003918201601f19168301916001600160401b0383118484101761010a57808492608094604052833981010312610106576100478161011e565b906100546020820161011e565b9061006660606040830151920161011e565b9161007033610132565b6001600160a01b03848116159081156100fb575b5080156100f3575b6100e1576100a29360805260a05260c052610132565b604051610b7c908161017982396080518181816103310152610615015260a0518181816102830152610686015260c0518181816102c801526105c90152f35b6040516388be8a3b60e01b8152600490fd5b50811561008c565b90508116155f610084565b5f80fd5b634e487b7160e01b5f52604160045260245ffd5b51906001600160a01b038216820361010657565b5f80546001600160a01b039283166001600160a01b03198216811783559216907f8be0079c531659141344cd1fd0a4f28419497f9722a3daafe3b4186f6b6457e09080a356fe60806040818152600480361015610014575f80fd5b5f925f3560e01c9081631e59c529146104b657508063461a4478146102ab578063715018a61461045057806380ab96221461035557806385e96917146103115780638da5cb5b146102eb5780638e7a64a1146102b0578063920ffa26146102ab57806393ed446414610263578063aeb8ce9b14610207578063d08f4ec71461018d5763f2fde38b146100a4575f80fd5b34610189576020366003190112610189576100bd6109be565b906100c6610b18565b6001600160a01b038092169283156101205750505f548273ffffffffffffffffffffffffffffffffffffffff198216175f55167f8be0079c531659141344cd1fd0a4f28419497f9722a3daafe3b4186f6b6457e05f80a380f35b906020608492519162461bcd60e51b8352820152602660248201527f4f776e61626c653a206e6577206f776e657220697320746865207a65726f206160448201527f64647265737300000000000000000000000000000000000000000000000000006064820152fd5b8280fd5b5091346102045760203660031901126102045782359067ffffffffffffffff8211610204573660238301121561020457506101f160206101df81958460246001600160a01b0396369301359101610ad2565b81855193828580945193849201610ab1565b8101600181520301902054169051908152f35b80fd5b5091346102045760203660031901126102045782359067ffffffffffffffff82116102045750602061024581946001600160a01b0393369101610990565b91908285519384928337810160018152030190205416159051908152f35b5050346102a757816003193601126102a757602090516001600160a01b037f0000000000000000000000000000000000000000000000000000000000000000168152f35b5080fd5b6109d4565b5050346102a757816003193601126102a757602090517f00000000000000000000000000000000000000000000000000000000000000008152f35b5050346102a757816003193601126102a7576001600160a01b0360209254169051908152f35b5050346102a757816003193601126102a757602090516001600160a01b037f0000000000000000000000000000000000000000000000000000000000000000168152f35b5050346102a75760209182600319360112610204576001600160a01b0361037a6109be565b1681526002835281812083835183819490845461039681610a2f565b91828552858501966001926001811690815f1461042d57506001146103f0575b505050506103c692500383610a8f565b6103e28351948593818552519283809286015285850190610ab1565b601f01601f19168101030190f35b815285812095935091905b8183106104155750889450508201016103c65f80806103b6565b855488840185015294850194879450918301916103fb565b93505050506103c694925060ff19168552151560051b82010186925f80806103b6565b8334610204578060031936011261020457610469610b18565b5f6001600160a01b03815473ffffffffffffffffffffffffffffffffffffffff1981168355167f8be0079c531659141344cd1fd0a4f28419497f9722a3daafe3b4186f6b6457e08280a380f35b92919050346107f957816003193601126107f95767ffffffffffffffff9080358281116107f9576104ea9036908301610990565b9092602435926001600160a01b0393848116978882036107f95788330361096957508651948487873784860181876001928381526020998a910301902054166109415785158015610937575b61090f578851868982378781888101848152030190208a73ffffffffffffffffffffffffffffffffffffffff19825416179055895f5260028752885f20908587116108fc576105858254610a2f565b601f81116108b6575b50865f601f8211600114610851575f929082610846575b501b905f198860031b1c19161790555b6105c0368689610ad2565b868151910120937f000000000000000000000000000000000000000000000000000000000000000090895190888201838152878c8401528b835260608301918383109083111761083357818c528251902096847f000000000000000000000000000000000000000000000000000000000000000016937f06ab5923000000000000000000000000000000000000000000000000000000008352606484015260848301523060a483015288816064815f875af1801561082957908992916107fd575b5050507f000000000000000000000000000000000000000000000000000000000000000090803b156107f9575f8a5180927f1896f70a0000000000000000000000000000000000000000000000000000000082528183816106fb888d8d84019092916001600160a01b036020916040840195845216910152565b03925af180156107ef576107d4575b508a9493929116803b156107d05788517fd5fa2b000000000000000000000000000000000000000000000000000000000081529283019384526001600160a01b03909116602084015290918391839182908490829060400103925af180156107c6576107ae575b50507fbd170c751acb3063b1323e8386cda652993c0c726eade858c12d094aec5e3ad892818551928392833781018781520390209251428152a380f35b6107b790610a67565b6107c257855f610771565b8580fd5b86513d84823e3d90fd5b8480fd5b6107e391959493929b50610a67565b5f99909192935f61070a565b8a513d5f823e3d90fd5b5f80fd5b82903d8411610821575b8161081191610a8f565b810103126107f957865f80610681565b3d9150610807565b8b513d5f823e3d90fd5b604187634e487b7160e01b5f525260245ffd5b8b013592505f6105a5565b5f8481528a812092508990601f198216908c868f5b84841061089d575050505010610884575b505086811b0190556105b5565b8a01355f1960038a901b60f8161c191690555f80610877565b860135875590950194938401938c9350018c868f610866565b825f52885f20601f890160051c8101918a8a106108f2575b601f0160051c019082905b8281106108e757505061058e565b5f81550182906108d9565b90915081906108ce565b604185634e487b7160e01b5f525260245ffd5b8389517f430f13b3000000000000000000000000000000000000000000000000000000008152fd5b5060328611610536565b8389517fa18ea0b6000000000000000000000000000000000000000000000000000000008152fd5b90507f5c427cd9000000000000000000000000000000000000000000000000000000008152fd5b9181601f840112156107f95782359167ffffffffffffffff83116107f957602083818601950101116107f957565b600435906001600160a01b03821682036107f957565b346107f95760203660031901126107f95760043567ffffffffffffffff81116107f9576001600160a01b036020610a1081933690600401610990565b9190826040519384928337810160018152030190205416604051908152f35b90600182811c92168015610a5d575b6020831014610a4957565b634e487b7160e01b5f52602260045260245ffd5b91607f1691610a3e565b67ffffffffffffffff8111610a7b57604052565b634e487b7160e01b5f52604160045260245ffd5b90601f8019910116810190811067ffffffffffffffff821117610a7b57604052565b5f5b838110610ac25750505f910152565b8181015183820152602001610ab3565b92919267ffffffffffffffff8211610a7b5760405191610afc601f8201601f191660200184610a8f565b8294818452818301116107f9578281602093845f960137010152565b6001600160a01b035f54163303610b2b57565b606460405162461bcd60e51b815260206004820152602060248201527f4f776e61626c653a2063616c6c6572206973206e6f7420746865206f776e65726044820152fdfea164736f6c6343000819000a","linkReferences":{}},"methodIdentifiers":{"BASE_NODE()":"8e7a64a1","ENS_REGISTRY()":"85e96917","ENS_RESOLVER()":"93ed4464","accountToName(address)":"80ab9622","available(string)":"aeb8ce9b","owner()":"8da5cb5b","ownerOf(string)":"920ffa26","register(string,address)":"1e59c529","renounceOwnership()":"715018a6","resolve(string)":"461a4478","subdomains(string)":"d08f4ec7","transferOwnership(address)":"f2fde38b"},"id":138}