{"abi":[{"type":"constructor","inputs":[{"name":"_registry","type":"address","internalType":"address"},{"name":"_resolver","type":"address","internalType":"address"},{"name":"_baseNode","type":"bytes32","internalType":"bytes32"},{"name":"_owner","type":"address","internalType":"address"}],"stateMutability":"nonpayable"},{"type":"function","name":"BASE_NODE","inputs":[],"outputs":[{"name":"","type":"bytes32","internalType":"bytes32"}],"stateMutability":"view"},{"type":"function","name":"ENS_REGISTRY","inputs":[],"outputs":[{"name":"","type":"address","internalType":"address"}],"stateMutability":"view"},{"type":"function","name":"ENS_RESOLVER","inputs":[],"outputs":[{"name":"","type":"address","internalType":"address"}],"stateMutability":"view"},{"type":"function","name":"accountToName","inputs":[{"name":"account","type":"address","internalType":"address"}],"outputs":[{"name":"name","type":"string","internalType":"string"}],"stateMutability":"view"},{"type":"function","name":"available","inputs":[{"name":"name","type":"string","internalType":"string"}],"outputs":[{"name":"","type":"bool","internalType":"bool"}],"stateMutability":"view"},{"type":"function","name":"getRecoveryData","inputs":[{"name":"name","type":"string","internalType":"string"}],"outputs":[{"name":"owner","type":"address","internalType":"address"},{"name":"credentialId","type":"bytes32","internalType":"bytes32"},{"name":"claimedAt","type":"uint256","internalType":"uint256"}],"stateMutability":"view"},{"type":"function","name":"owner","inputs":[],"outputs":[{"name":"","type":"address","internalType":"address"}],"stateMutability":"view"},{"type":"function","name":"ownerOf","inputs":[{"name":"name","type":"string","internalType":"string"}],"outputs":[{"name":"","type":"address","internalType":"address"}],"stateMutability":"view"},{"type":"function","name":"profiles","inputs":[{"name":"name","type":"string","internalType":"string"}],"outputs":[{"name":"owner","type":"address","internalType":"address"},{"name":"credentialId","type":"bytes32","internalType":"bytes32"},{"name":"claimedAt","type":"uint256","internalType":"uint256"}],"stateMutability":"view"},{"type":"function","name":"register","inputs":[{"name":"name","type":"string","internalType":"string"},{"name":"owner","type":"address","internalType":"address"},{"name":"credentialId","type":"bytes32","internalType":"bytes32"}],"outputs":[],"stateMutability":"nonpayable"},{"type":"function","name":"renounceOwnership","inputs":[],"outputs":[],"stateMutability":"nonpayable"},{"type":"function","name":"resolve","inputs":[{"name":"name","type":"string","internalType":"string"}],"outputs":[{"name":"","type":"address","internalType":"address"}],"stateMutability":"view"},{"type":"function","name":"subdomains","inputs":[{"name":"name","type":"string","internalType":"string"}],"outputs":[{"name":"owner","type":"address","internalType":"address"}],"stateMutability":"view"},{"type":"function","name":"transferOwnership","inputs":[{"name":"newOwner","type":"address","internalType":"address"}],"outputs":[],"stateMutability":"nonpayable"},{"type":"event","name":"OwnershipTransferred","inputs":[{"name":"previousOwner","type":"address","indexed":true,"internalType":"address"},{"name":"newOwner","type":"address","indexed":true,"internalType":"address"}],"anonymous":false},{"type":"event","name":"SubdomainRegistered","inputs":[{"name":"name","type":"string","indexed":true,"internalType":"string"},{"name":"owner","type":"address","indexed":true,"internalType":"address"},{"name":"credentialId","type":"bytes32","indexed":true,"internalType":"bytes32"},{"name":"timestamp","type":"uint256","indexed":false,"internalType":"uint256"}],"anonymous":false},{"type":"error","name":"ENSNotConfigured","inputs":[]},{"type":"error","name":"InvalidCredentialId","inputs":[]},{"type":"error","name":"InvalidName","inputs":[]},{"type":"error","name":"NameNotAvailable","inputs":[]},{"type":"error","name":"UnauthorizedCaller","inputs":[]}],"bytecode":{"object":"0x60e03461010657601f610d7238819003918201601f19168301916001600160401b0383118484101761010a57808492608094604052833981010312610106576100478161011e565b906100546020820161011e565b9061006660606040830151920161011e565b9161007033610132565b6001600160a01b03848116159081156100fb575b5080156100f3575b6100e1576100a29360805260a05260c052610132565b604051610bf99081610179823960805181818161024b015261083b015260a0518181816102a30152610792015260c05181818161020a01526107dd0152f35b6040516388be8a3b60e01b8152600490fd5b50811561008c565b90508116155f610084565b5f80fd5b634e487b7160e01b5f52604160045260245ffd5b51906001600160a01b038216820361010657565b5f80546001600160a01b039283166001600160a01b03198216811783559216907f8be0079c531659141344cd1fd0a4f28419497f9722a3daafe3b4186f6b6457e09080a356fe60406080815260049081361015610014575f80fd5b5f915f3560e01c8063461a4478146107c1578063715018a61461096157806380ab96221461086a57806385e96917146108275780638da5cb5b146108005780638e7a64a1146107c6578063920ffa26146107c157806393ed44641461077e578063aeb8ce9b14610724578063cba521e2146106be578063d08f4ec714610678578063d5f45b6e146105de578063f2fde38b1461051e5763f34b95b3146100b8575f80fd5b346103df5760603660031901126103df576001600160401b039181358381116103df576100e890369084016109b8565b602435946001600160a01b03808716959192918688036103df576044359787330361050f578651948487873784860184876001928381526020998a910301902054166104ff578a156104ef57851580156104e5575b6104d557885161014c81610a8e565b8a8152878101908c825260028b888c8b83860193428552519182378c818d8101898152030190209351169360018060a01b031994858554161784555185840155519101558a8a51888b823789818a8101600281520301902091825416179055895f5260038752885f209186116104c2576101c68254610a56565b601f811161047c575b50855f601f8211600114610417575f92908261040c575b501b905f198760031b1c19161790555b610201368588610b12565b858151910120927f000000000000000000000000000000000000000000000000000000000000000093885187810190868252828b8201528a815261024481610a8e565b51902094827f000000000000000000000000000000000000000000000000000000000000000016918a51916306ab592360e01b835286830152602482015230604482015287816064815f865af180156103d5579088916103e3575b50507f000000000000000000000000000000000000000000000000000000000000000090803b156103df578951630c4b7b8560e11b81528581018781526001600160a01b038416602082015290915f9183919082908490829060400103925af180156103d5576103ba575b508b9493929116803b156103b657885162d5fa2b60e81b81529283019384526001600160a01b03909116602084015290918391839182908490829060400103925af180156103ac57610394575b50507f0728c594f399f7b6f1c00f8a3c81b2e03d258275e66af7eda375d5d5d83d7d4a92818551928392833781018881520390209251428152a480f35b61039d90610abd565b6103a857865f610357565b8680fd5b86513d84823e3d90fd5b8480fd5b6103c991959493929c50610abd565b5f9a909192935f61030a565b8a513d5f823e3d90fd5b5f80fd5b813d8311610405575b6103f68183610ad0565b810103126103df57865f61029f565b503d6103ec565b8a013592505f6101e6565b5f84815289812092508890601f198216908b868e5b84841061046357505050501061044a575b505085811b0190556101f6565b8901355f19600389901b60f8161c191690555f8061043d565b860135875590950194938401938b9350018b868e61042c565b825f52875f20601f880160051c8101918989106104b8575b601f0160051c019082905b8281106104ad5750506101cf565b5f815501829061049f565b9091508190610494565b604184634e487b7160e01b5f525260245ffd5b885163430f13b360e01b81528490fd5b506032861161013d565b88516372d5567560e11b81528490fd5b88516350c7505b60e11b81528490fd5b508551635c427cd960e01b8152fd5b50346103df5760203660031901126103df57610538610a40565b90610541610b95565b6001600160a01b0391821692831561058c5750505f548260018060a01b03198216175f55167f8be0079c531659141344cd1fd0a4f28419497f9722a3daafe3b4186f6b6457e05f80a3005b906020608492519162461bcd60e51b8352820152602660248201527f4f776e61626c653a206e6577206f776e657220697320746865207a65726f206160448201526564647265737360d01b6064820152fd5b50346103df5760203660031901126103df5780356001600160401b0381116103df5760209161060f913691016109b8565b91908284519384928337810160018152030190209061067481519161063383610a8e565b83546001600160a01b031680845260018501546020808601829052600290960154948301859052915190815293840152604083019190915281906060820190565b0390f35b82346103df5760209061068a36610b57565b8261069d83519283815193849201610af1565b6002908201908152819003830190205490516001600160a01b039091168152f35b82346103df576106e460206106d236610b57565b81845193828580945193849201610af1565b6001908201818152919091039190910190912080549181015460029091015492516001600160a01b03909216825260208201526040810191909152606090f35b5090346103df5760203660031901126103df5781356001600160401b0381116103df57602092610756913691016109b8565b8083519283376001908201908152819003830190205490516001600160a01b03909116158152f35b82346103df575f3660031901126103df57517f00000000000000000000000000000000000000000000000000000000000000006001600160a01b03168152602090f35b6109e5565b82346103df575f3660031901126103df57602090517f00000000000000000000000000000000000000000000000000000000000000008152f35b82346103df575f3660031901126103df575f5490516001600160a01b039091168152602090f35b82346103df575f3660031901126103df57517f00000000000000000000000000000000000000000000000000000000000000006001600160a01b03168152602090f35b82346103df57602090816003193601126103df576001600160a01b0361088e610a40565b165f5260038252805f2081519083825f83546108a981610a56565b90818452848401956001916001811690815f146109405750600114610902575b5050506108d892500383610ad0565b6108f48351948593818552519283809286015285850190610af1565b601f01601f19168101030190f35b5f90815285812095935091905b8183106109285750889450508201016108d888806108c9565b8554888401850152948501948794509183019161090f565b925050506108d894925060ff19168552151560051b820101869288806108c9565b346103df575f3660031901126103df57610979610b95565b5f80546001600160a01b0319811682556001600160a01b03167f8be0079c531659141344cd1fd0a4f28419497f9722a3daafe3b4186f6b6457e08280a3005b9181601f840112156103df578235916001600160401b0383116103df57602083818601950101116103df57565b346103df5760203660031901126103df576004356001600160401b0381116103df57610a1760209136906004016109b8565b80604051928337600190820190815281900382019020546040516001600160a01b039091168152f35b600435906001600160a01b03821682036103df57565b90600182811c92168015610a84575b6020831014610a7057565b634e487b7160e01b5f52602260045260245ffd5b91607f1691610a65565b606081019081106001600160401b03821117610aa957604052565b634e487b7160e01b5f52604160045260245ffd5b6001600160401b038111610aa957604052565b90601f801991011681019081106001600160401b03821117610aa957604052565b5f5b838110610b025750505f910152565b8181015183820152602001610af3565b9291926001600160401b038211610aa95760405191610b3b601f8201601f191660200184610ad0565b8294818452818301116103df578281602093845f960137010152565b60206003198201126103df57600435906001600160401b0382116103df57806023830112156103df57816024610b9293600401359101610b12565b90565b5f546001600160a01b03163303610ba857565b606460405162461bcd60e51b815260206004820152602060248201527f4f776e61626c653a2063616c6c6572206973206e6f7420746865206f776e65726044820152fdfea164736f6c6343000819000a","linkReferences":{}},"methodIdentifiers":{"BASE_NODE()":"8e7a64a1","ENS_REGISTRY()":"85e96917","ENS_RESOLVER()":"93ed4464","accountToName(address)":"80ab9622","available(string)":"aeb8ce9b","getRecoveryData(string)":"d5f45b6e","owner()":"8da5cb5b","ownerOf(string)":"920ffa26","profiles(string)":"cba521e2","register(string,address,bytes32)":"f34b95b3","renounceOwnership()":"715018a6","resolve(string)":"461a4478","subdomains(string)":"d08f4ec7","transferOwnership(address)":"f2fde38b"},"id":142}