{"abi":[{"type":"constructor","inputs":[{"name":"_registry","type":"address","internalType":"address"},{"name":"_resolver","type":"address","internalType":"address"},{"name":"_baseNode","type":"bytes32","internalType":"bytes32"},{"name":"_owner","type":"address","internalType":"address"}],"stateMutability":"nonpayable"},{"type":"function","name":"BASE_NODE","inputs":[],"outputs":[{"name":"","type":"bytes32","internalType":"bytes32"}],"stateMutability":"view"},{"type":"function","name":"ENS_REGISTRY","inputs":[],"outputs":[{"name":"","type":"address","internalType":"address"}],"stateMutability":"view"},{"type":"function","name":"ENS_RESOLVER","inputs":[],"outputs":[{"name":"","type":"address","internalType":"address"}],"stateMutability":"view"},{"type":"function","name":"accountToName","inputs":[{"name":"account","type":"address","internalType":"address"}],"outputs":[{"name":"name","type":"string","internalType":"string"}],"stateMutability":"view"},{"type":"function","name":"available","inputs":[{"name":"name","type":"string","internalType":"string"}],"outputs":[{"name":"","type":"bool","internalType":"bool"}],"stateMutability":"view"},{"type":"function","name":"getRecoveryData","inputs":[{"name":"name","type":"string","internalType":"string"}],"outputs":[{"name":"owner","type":"address","internalType":"address"},{"name":"credentialId","type":"bytes32","internalType":"bytes32"},{"name":"claimedAt","type":"uint256","internalType":"uint256"}],"stateMutability":"view"},{"type":"function","name":"owner","inputs":[],"outputs":[{"name":"","type":"address","internalType":"address"}],"stateMutability":"view"},{"type":"function","name":"ownerOf","inputs":[{"name":"name","type":"string","internalType":"string"}],"outputs":[{"name":"","type":"address","internalType":"address"}],"stateMutability":"view"},{"type":"function","name":"profiles","inputs":[{"name":"name","type":"string","internalType":"string"}],"outputs":[{"name":"owner","type":"address","internalType":"address"},{"name":"credentialId","type":"bytes32","internalType":"bytes32"},{"name":"claimedAt","type":"uint256","internalType":"uint256"}],"stateMutability":"view"},{"type":"function","name":"register","inputs":[{"name":"name","type":"string","internalType":"string"},{"name":"owner","type":"address","internalType":"address"},{"name":"credentialId","type":"bytes32","internalType":"bytes32"}],"outputs":[],"stateMutability":"nonpayable"},{"type":"function","name":"renounceOwnership","inputs":[],"outputs":[],"stateMutability":"nonpayable"},{"type":"function","name":"resolve","inputs":[{"name":"name","type":"string","internalType":"string"}],"outputs":[{"name":"","type":"address","internalType":"address"}],"stateMutability":"view"},{"type":"function","name":"subdomains","inputs":[{"name":"name","type":"string","internalType":"string"}],"outputs":[{"name":"owner","type":"address","internalType":"address"}],"stateMutability":"view"},{"type":"function","name":"transferOwnership","inputs":[{"name":"newOwner","type":"address","internalType":"address"}],"outputs":[],"stateMutability":"nonpayable"},{"type":"event","name":"OwnershipTransferred","inputs":[{"name":"previousOwner","type":"address","indexed":true,"internalType":"address"},{"name":"newOwner","type":"address","indexed":true,"internalType":"address"}],"anonymous":false},{"type":"event","name":"SubdomainRegistered","inputs":[{"name":"name","type":"string","indexed":true,"internalType":"string"},{"name":"owner","type":"address","indexed":true,"internalType":"address"},{"name":"credentialId","type":"bytes32","indexed":true,"internalType":"bytes32"},{"name":"timestamp","type":"uint256","indexed":false,"internalType":"uint256"}],"anonymous":false},{"type":"error","name":"ENSNotConfigured","inputs":[]},{"type":"error","name":"InvalidCredentialId","inputs":[]},{"type":"error","name":"InvalidName","inputs":[]},{"type":"error","name":"NameNotAvailable","inputs":[]},{"type":"error","name":"UnauthorizedCaller","inputs":[]}],"bytecode":{"object":"0x60e03461010657601f610e7638819003918201601f19168301916001600160401b0383118484101761010a57808492608094604052833981010312610106576100478161011e565b906100546020820161011e565b9061006660606040830151920161011e565b9161007033610132565b6001600160a01b03848116159081156100fb575b5080156100f3575b6100e1576100a29360805260a05260c052610132565b604051610cfd908161017982396080518181816102580152610937015260a0518181816102c9015261088f015260c05181818161021701526108cf0152f35b6040516388be8a3b60e01b8152600490fd5b50811561008c565b90508116155f610084565b5f80fd5b634e487b7160e01b5f52604160045260245ffd5b51906001600160a01b038216820361010657565b5f80546001600160a01b039283166001600160a01b03198216811783559216907f8be0079c531659141344cd1fd0a4f28419497f9722a3daafe3b4186f6b6457e09080a356fe60406080815260049081361015610014575f80fd5b5f915f3560e01c8063461a4478146108b3578063715018a614610a5257806380ab96221461095b57806385e96917146109185780638da5cb5b146108f25780638e7a64a1146108b8578063920ffa26146108b357806393ed446414610870578063aeb8ce9b14610816578063cba521e2146107a7578063d08f4ec714610764578063d5f45b6e146106c1578063f2fde38b146105dc5763f34b95b3146100b8575f80fd5b3461043c57606036600319011261043c5767ffffffffffffffff91813583811161043c576100e99036908401610ab6565b93602435946001600160a01b038087169586880361043c57604435978733036105b4578651948487873784860184876001928381526020998a9103019020541661058c578a15610564578515801561055a575b61053257885161014b81610b8d565b8a8152878101908c825260028b888c8b83860193428552519182378c818d8101898152030190209351169373ffffffffffffffffffffffffffffffffffffffff1994858554161784555185840155519101558a8a51888b823789818a8101600281520301902091825416179055895f5260038752885f2091861161051f576101d38254610b55565b601f81116104d9575b50855f601f8211600114610474575f929082610469575b501b905f198760031b1c19161790555b61020e368588610c14565b858151910120927f000000000000000000000000000000000000000000000000000000000000000093885187810190868252828b8201528a815261025181610b8d565b51902094827f000000000000000000000000000000000000000000000000000000000000000016918a51917f06ab592300000000000000000000000000000000000000000000000000000000835286830152602482015230604482015287816064815f865af1801561043257908891610440575b50507f000000000000000000000000000000000000000000000000000000000000000090803b1561043c575f8a5180927f1896f70a00000000000000000000000000000000000000000000000000000000825281838161033e888d8d84019092916001600160a01b036020916040840195845216910152565b03925af1801561043257610417575b508b9493929116803b156104135788517fd5fa2b000000000000000000000000000000000000000000000000000000000081529283019384526001600160a01b03909116602084015290918391839182908490829060400103925af18015610409576103f1575b50507f0728c594f399f7b6f1c00f8a3c81b2e03d258275e66af7eda375d5d5d83d7d4a92818551928392833781018881520390209251428152a480f35b6103fa90610bbd565b61040557865f6103b4565b8680fd5b86513d84823e3d90fd5b8480fd5b61042691959493929c50610bbd565b5f9a909192935f61034d565b8a513d5f823e3d90fd5b5f80fd5b813d8311610462575b6104538183610bd1565b8101031261043c57865f6102c5565b503d610449565b8a013592505f6101f3565b5f84815289812092508890601f198216908b868e5b8484106104c05750505050106104a7575b505085811b019055610203565b8901355f19600389901b60f8161c191690555f8061049a565b860135875590950194938401938b9350018b868e610489565b825f52875f20601f880160051c810191898910610515575b601f0160051c019082905b82811061050a5750506101dc565b5f81550182906104fc565b90915081906104f1565b604184634e487b7160e01b5f525260245ffd5b8389517f430f13b3000000000000000000000000000000000000000000000000000000008152fd5b506032861161013c565b8389517fe5aaacea000000000000000000000000000000000000000000000000000000008152fd5b8389517fa18ea0b6000000000000000000000000000000000000000000000000000000008152fd5b5085517f5c427cd9000000000000000000000000000000000000000000000000000000008152fd5b503461043c57602036600319011261043c576105f6610b3f565b906105ff610c99565b6001600160a01b038092169283156106585750505f548273ffffffffffffffffffffffffffffffffffffffff198216175f55167f8be0079c531659141344cd1fd0a4f28419497f9722a3daafe3b4186f6b6457e05f80a3005b906020608492519162461bcd60e51b8352820152602660248201527f4f776e61626c653a206e6577206f776e657220697320746865207a65726f206160448201527f64647265737300000000000000000000000000000000000000000000000000006064820152fd5b503461043c57602036600319011261043c57803567ffffffffffffffff811161043c576020916106f391369101610ab6565b91908284519384928337810160018152030190209061076081519161071783610b8d565b806001600160a01b038554169384815260026001870154968760208401520154928391015251938493846040919493926001600160a01b03606083019616825260208201520152565b0390f35b823461043c576020906001600160a01b036107948361078236610c5a565b81855193828580945193849201610bf3565b8101600281520301902054169051908152f35b823461043c576107cd60206107bb36610c5a565b81845193828580945193849201610bf3565b81016001815203019020906107606001600160a01b0383541691600260018501549401549051938493846040919493926001600160a01b03606083019616825260208201520152565b50903461043c57602036600319011261043c57813567ffffffffffffffff811161043c57602061085281946001600160a01b0393369101610ab6565b91908285519384928337810160018152030190205416159051908152f35b823461043c575f36600319011261043c57602090516001600160a01b037f0000000000000000000000000000000000000000000000000000000000000000168152f35b610ae4565b823461043c575f36600319011261043c57602090517f00000000000000000000000000000000000000000000000000000000000000008152f35b823461043c575f36600319011261043c576020906001600160a01b035f54169051908152f35b823461043c575f36600319011261043c57602090516001600160a01b037f0000000000000000000000000000000000000000000000000000000000000000168152f35b823461043c576020908160031936011261043c576001600160a01b0361097f610b3f565b165f5260038252805f2081519083825f835461099a81610b55565b90818452848401956001916001811690815f14610a3157506001146109f3575b5050506109c992500383610bd1565b6109e58351948593818552519283809286015285850190610bf3565b601f01601f19168101030190f35b5f90815285812095935091905b818310610a195750889450508201016109c988806109ba565b85548884018501529485019487945091830191610a00565b925050506109c994925060ff19168552151560051b820101869288806109ba565b3461043c575f36600319011261043c57610a6a610c99565b5f6001600160a01b03815473ffffffffffffffffffffffffffffffffffffffff1981168355167f8be0079c531659141344cd1fd0a4f28419497f9722a3daafe3b4186f6b6457e08280a3005b9181601f8401121561043c5782359167ffffffffffffffff831161043c576020838186019501011161043c57565b3461043c57602036600319011261043c5760043567ffffffffffffffff811161043c576001600160a01b036020610b2081933690600401610ab6565b9190826040519384928337810160018152030190205416604051908152f35b600435906001600160a01b038216820361043c57565b90600182811c92168015610b83575b6020831014610b6f57565b634e487b7160e01b5f52602260045260245ffd5b91607f1691610b64565b6060810190811067ffffffffffffffff821117610ba957604052565b634e487b7160e01b5f52604160045260245ffd5b67ffffffffffffffff8111610ba957604052565b90601f8019910116810190811067ffffffffffffffff821117610ba957604052565b5f5b838110610c045750505f910152565b8181015183820152602001610bf5565b92919267ffffffffffffffff8211610ba95760405191610c3e601f8201601f191660200184610bd1565b82948184528183011161043c578281602093845f960137010152565b602060031982011261043c576004359067ffffffffffffffff821161043c578060238301121561043c57816024610c9693600401359101610c14565b90565b6001600160a01b035f54163303610cac57565b606460405162461bcd60e51b815260206004820152602060248201527f4f776e61626c653a2063616c6c6572206973206e6f7420746865206f776e65726044820152fdfea164736f6c6343000819000a","linkReferences":{}},"methodIdentifiers":{"BASE_NODE()":"8e7a64a1","ENS_REGISTRY()":"85e96917","ENS_RESOLVER()":"93ed4464","accountToName(address)":"80ab9622","available(string)":"aeb8ce9b","getRecoveryData(string)":"d5f45b6e","owner()":"8da5cb5b","ownerOf(string)":"920ffa26","profiles(string)":"cba521e2","register(string,address,bytes32)":"f34b95b3","renounceOwnership()":"715018a6","resolve(string)":"461a4478","subdomains(string)":"d08f4ec7","transferOwnership(address)":"f2fde38b"},"id":124}