{"abi":[{"type":"constructor","inputs":[{"name":"_guardian","type":"address","internalType":"address"},{"name":"_initialImplementation","type":"address","internalType":"address"}],"stateMutability":"nonpayable"},{"type":"fallback","stateMutability":"payable"},{"type":"receive","stateMutability":"payable"},{"type":"function","name":"initialize","inputs":[{"name":"implementation","type":"address","internalType":"address"}],"outputs":[],"stateMutability":"nonpayable"},{"type":"event","name":"AdminChanged","inputs":[{"name":"previousAdmin","type":"address","indexed":false,"internalType":"address"},{"name":"newAdmin","type":"address","indexed":false,"internalType":"address"}],"anonymous":false},{"type":"event","name":"BeaconUpgraded","inputs":[{"name":"beacon","type":"address","indexed":true,"internalType":"address"}],"anonymous":false},{"type":"event","name":"Upgraded","inputs":[{"name":"implementation","type":"address","indexed":true,"internalType":"address"}],"anonymous":false},{"type":"error","name":"AlreadyInitialized","inputs":[]},{"type":"error","name":"InvalidImplementation","inputs":[]}],"bytecode":{"object":"0x60c0346100ae57601f61039538819003918201601f19168301916001600160401b038311848410176100b25780849260409485528339810103126100ae57610052602061004b836100c6565b92016100c6565b906001600160a01b03808216159081156100a3575b506100915760805260a0526040516102ba90816100db82396080518160c8015260a0518160500152f35b60405163340aafcd60e11b8152600490fd5b90508216155f610067565b5f80fd5b634e487b7160e01b5f52604160045260245ffd5b51906001600160a01b03821682036100ae5756fe60806040526004361015610018575b3661025757610257565b5f3560e01c63c4d66de80361000e5734610140576020366003190112610140576004356001600160a01b0380821680830361014057817f000000000000000000000000000000000000000000000000000000000000000016036100a6575b5f8051602061028e833981519152541661009557610093906101a4565b005b60405162dc149f60e41b8152600490fd5b631506fd4d60e01b60809081526001600160a01b0383166084526020906024817f000000000000000000000000000000000000000000000000000000000000000085165afa801561013b575f9061010e575b6100765760405163340aafcd60e11b8152600490fd5b5060203d602011610134575b8061012761012f92610144565b60800161017e565b6100f8565b503d61011a565b610199565b5f80fd5b6080601f91909101601f19168101906001600160401b0382119082101761016a57604052565b634e487b7160e01b5f52604160045260245ffd5b602090607f1901126101405760805180151581036101405790565b6040513d5f823e3d90fd5b803b156101fc575f8051602061028e83398151915280546001600160a01b0319166001600160a01b039290921691821790557fbc7cd75a20ee27fd9adebab32041f755214dbc6bffa90cc0225b39da2e5c2d3b5f80a2565b60405162461bcd60e51b815260206004820152602d60248201527f455243313936373a206e657720696d706c656d656e746174696f6e206973206e60448201526c1bdd08184818dbdb9d1c9858dd609a1b6064820152608490fd5b5f8051602061028e833981519152545f9081906001600160a01b0316368280378136915af43d5f803e15610289573d5ff35b3d5ffdfe360894a13ba1a3210667c828492db98dca3e2076cc3735a920a3ca505d382bbca164736f6c6343000819000a","linkReferences":{}},"methodIdentifiers":{"initialize(address)":"c4d66de8"},"id":60}