{"abi":[{"type":"function","name":"footer","inputs":[],"outputs":[{"name":"","type":"bytes","internalType":"bytes"}],"stateMutability":"view"},{"type":"function","name":"header","inputs":[],"outputs":[{"name":"","type":"bytes","internalType":"bytes"}],"stateMutability":"view"}],"bytecode":{"object":"0x60808060405234601957610162908161001e823930815050f35b5f80fdfe60806040908082526004361015610014575f80fd5b5f3560e01c9081630d7163c6146100c45750633ce3018514610034575f80fd5b5f3660031901126100c057805160608101916001600160401b038311828410176100ac576100a8928152602e82527f3314601d573d3dfd5b363d3d373d3d6014360360143d5160601c5af43d60008060208301526d3e80603e573d6000fd5b3d6000f360901b81830152519182918261010e565b0390f35b634e487b7160e01b5f52604160045260245ffd5b5f80fd5b90505f3660031901126100c057808201916001600160401b038311828410176100ac576100a8928152600e82526d604380600d600039806000f3fe7360901b602083015251918291825b602080825282518183018190529093925f5b82811061014157505060409293505f838284010152601f8019910116010190565b81810186015184820160400152850161012056fea164736f6c6343000819000a","linkReferences":{}},"methodIdentifiers":{"footer()":"3ce30185","header()":"0d7163c6"},"id":78}