{"abi":[{"type":"constructor","inputs":[{"name":"_entryPoint","type":"address","internalType":"contract IEntryPoint"}],"stateMutability":"nonpayable"},{"type":"function","name":"entryPoint","inputs":[],"outputs":[{"name":"","type":"address","internalType":"contract IEntryPoint"}],"stateMutability":"view"},{"type":"function","name":"getNonce","inputs":[{"name":"key","type":"uint192","internalType":"uint192"}],"outputs":[{"name":"","type":"uint256","internalType":"uint256"}],"stateMutability":"view"},{"type":"function","name":"getNonce","inputs":[],"outputs":[{"name":"","type":"uint256","internalType":"uint256"}],"stateMutability":"view"},{"type":"function","name":"getOwner","inputs":[],"outputs":[{"name":"","type":"address","internalType":"address"}],"stateMutability":"view"},{"type":"function","name":"transferOwnership","inputs":[{"name":"_newOwner","type":"address","internalType":"address"}],"outputs":[],"stateMutability":"nonpayable"},{"type":"function","name":"upgradeTo","inputs":[{"name":"_newImplementation","type":"address","internalType":"address"}],"outputs":[],"stateMutability":"nonpayable"},{"type":"event","name":"Upgraded","inputs":[{"name":"newImplementation","type":"address","indexed":true,"internalType":"address"}],"anonymous":false}],"bytecode":{"object":"0x60a03460b357601f6105e538819003918201601f19168301916001600160401b0383118484101760b75780849260209460405283398101031260b357516001600160a01b038116810360b3576080527f439ffe7df606b78489639bc0b827913bd09e1246fa6802968a5b3694c53e0dd880546001600160a01b031916600117905560405161051990816100cc823960805181818160870152818161018201528181610218015281816102df01526103790152f35b5f80fd5b634e487b7160e01b5f52604160045260245ffdfe60406080815260049081361015610014575f80fd5b5f3560e01c9081633659cfe61461034f5781633e1b081214610281578163893d20e81461023c578163b0d691fe146101fa578163d087d28814610148575063f2fde38b14610060575f80fd5b3461014457602036600319011261014457356001600160a01b0380821680920361014457807f0000000000000000000000000000000000000000000000000000000000000000163314908115610117575b50801561010e575b6100c290610432565b7f439ffe7df606b78489639bc0b827913bd09e1246fa6802968a5b3694c53e0dd880547fffffffffffffffffffffffff0000000000000000000000000000000000000000169091179055005b503330146100b9565b90507f439ffe7df606b78489639bc0b827913bd09e1246fa6802968a5b3694c53e0dd8541633145f6100b1565b5f80fd5b905034610144575f36600319011261014457805191631aab3f0d60e11b835230908301525f60248301526020826044816001600160a01b037f0000000000000000000000000000000000000000000000000000000000000000165afa9081156101f1575f916101bc575b6020925051908152f35b90506020823d6020116101e9575b816101d7602093836104bd565b810103126101445760209151906101b2565b3d91506101ca565b513d5f823e3d90fd5b34610144575f36600319011261014457602090516001600160a01b037f0000000000000000000000000000000000000000000000000000000000000000168152f35b34610144575f366003190112610144576020906001600160a01b037f439ffe7df606b78489639bc0b827913bd09e1246fa6802968a5b3694c53e0dd854169051908152f35b8234610144576020918260031936011261014457813577ffffffffffffffffffffffffffffffffffffffffffffffff811680910361014457815192631aab3f0d60e11b84523090840152602483015282826044816001600160a01b037f0000000000000000000000000000000000000000000000000000000000000000165afa918215610345575f92610316575b5051908152f35b9091508281813d831161033e575b61032e81836104bd565b810103126101445751908361030f565b503d610324565b50513d5f823e3d90fd5b823461014457602036600319011261014457356001600160a01b03908181169182820361014457807f0000000000000000000000000000000000000000000000000000000000000000163314908115610405575b5080156103fc575b6103b490610432565b7f360894a13ba1a3210667c828492db98dca3e2076cc3735a920a3ca505d382bbc557fbc7cd75a20ee27fd9adebab32041f755214dbc6bffa90cc0225b39da2e5c2d3b5f80a2005b503330146103ab565b90507f439ffe7df606b78489639bc0b827913bd09e1246fa6802968a5b3694c53e0dd854163314836103a3565b1561043957565b60846040517f08c379a000000000000000000000000000000000000000000000000000000000815260206004820152602d60248201527f6163636f756e743a206e6f742066726f6d20656e747279706f696e74206f722060448201527f6f776e6572206f722073656c66000000000000000000000000000000000000006064820152fd5b90601f8019910116810190811067ffffffffffffffff8211176104df57604052565b7f4e487b71000000000000000000000000000000000000000000000000000000005f52604160045260245ffdfea164736f6c6343000819000a","linkReferences":{}},"methodIdentifiers":{"entryPoint()":"b0d691fe","getNonce()":"d087d288","getNonce(uint192)":"3e1b0812","getOwner()":"893d20e8","transferOwnership(address)":"f2fde38b","upgradeTo(address)":"3659cfe6"},"id":2}