{"abi":[{"type":"constructor","inputs":[{"name":"entryPoint_","type":"address","internalType":"address"},{"name":"multicallForwarder","type":"address","internalType":"address"},{"name":"erc6551Registry","type":"address","internalType":"address"},{"name":"guardian","type":"address","internalType":"address"}],"stateMutability":"nonpayable"},{"type":"fallback","stateMutability":"payable"},{"type":"receive","stateMutability":"payable"},{"type":"function","name":"entryPoint","inputs":[],"outputs":[{"name":"","type":"address","internalType":"contract IEntryPoint"}],"stateMutability":"view"},{"type":"function","name":"erc6551Registry","inputs":[],"outputs":[{"name":"","type":"address","internalType":"address"}],"stateMutability":"view"},{"type":"function","name":"execute","inputs":[{"name":"to","type":"address","internalType":"address"},{"name":"value","type":"uint256","internalType":"uint256"},{"name":"data","type":"bytes","internalType":"bytes"},{"name":"operation","type":"uint8","internalType":"uint8"}],"outputs":[{"name":"","type":"bytes","internalType":"bytes"}],"stateMutability":"payable"},{"type":"function","name":"executeBatch","inputs":[{"name":"operations","type":"tuple[]","internalType":"struct BatchExecutor.Operation[]","components":[{"name":"to","type":"address","internalType":"address"},{"name":"value","type":"uint256","internalType":"uint256"},{"name":"data","type":"bytes","internalType":"bytes"},{"name":"operation","type":"uint8","internalType":"uint8"}]}],"outputs":[{"name":"","type":"bytes[]","internalType":"bytes[]"}],"stateMutability":"payable"},{"type":"function","name":"executeNested","inputs":[{"name":"to","type":"address","internalType":"address"},{"name":"value","type":"uint256","internalType":"uint256"},{"name":"data","type":"bytes","internalType":"bytes"},{"name":"operation","type":"uint8","internalType":"uint8"},{"name":"proof","type":"tuple[]","internalType":"struct NestedAccountExecutor.ERC6551AccountInfo[]","components":[{"name":"salt","type":"bytes32","internalType":"bytes32"},{"name":"tokenContract","type":"address","internalType":"address"},{"name":"tokenId","type":"uint256","internalType":"uint256"}]}],"outputs":[{"name":"","type":"bytes","internalType":"bytes"}],"stateMutability":"payable"},{"type":"function","name":"extcall","inputs":[{"name":"to","type":"address","internalType":"address"},{"name":"value","type":"uint256","internalType":"uint256"},{"name":"data","type":"bytes","internalType":"bytes"}],"outputs":[{"name":"result","type":"bytes","internalType":"bytes"}],"stateMutability":"nonpayable"},{"type":"function","name":"extcreate","inputs":[{"name":"value","type":"uint256","internalType":"uint256"},{"name":"bytecode","type":"bytes","internalType":"bytes"}],"outputs":[{"name":"","type":"address","internalType":"address"}],"stateMutability":"nonpayable"},{"type":"function","name":"extcreate2","inputs":[{"name":"value","type":"uint256","internalType":"uint256"},{"name":"salt","type":"bytes32","internalType":"bytes32"},{"name":"bytecode","type":"bytes","internalType":"bytes"}],"outputs":[{"name":"","type":"address","internalType":"address"}],"stateMutability":"nonpayable"},{"type":"function","name":"extsload","inputs":[{"name":"slot","type":"bytes32","internalType":"bytes32"}],"outputs":[{"name":"value","type":"bytes32","internalType":"bytes32"}],"stateMutability":"view"},{"type":"function","name":"getNonce","inputs":[],"outputs":[{"name":"","type":"uint256","internalType":"uint256"}],"stateMutability":"view"},{"type":"function","name":"isLocked","inputs":[],"outputs":[{"name":"","type":"bool","internalType":"bool"}],"stateMutability":"view"},{"type":"function","name":"isTrustedForwarder","inputs":[{"name":"forwarder","type":"address","internalType":"address"}],"outputs":[{"name":"","type":"bool","internalType":"bool"}],"stateMutability":"view"},{"type":"function","name":"isValidSignature","inputs":[{"name":"hash","type":"bytes32","internalType":"bytes32"},{"name":"signature","type":"bytes","internalType":"bytes"}],"outputs":[{"name":"magicValue","type":"bytes4","internalType":"bytes4"}],"stateMutability":"view"},{"type":"function","name":"isValidSigner","inputs":[{"name":"signer","type":"address","internalType":"address"},{"name":"data","type":"bytes","internalType":"bytes"}],"outputs":[{"name":"magicValue","type":"bytes4","internalType":"bytes4"}],"stateMutability":"view"},{"type":"function","name":"lock","inputs":[{"name":"_lockedUntil","type":"uint256","internalType":"uint256"}],"outputs":[],"stateMutability":"nonpayable"},{"type":"function","name":"lockedUntil","inputs":[],"outputs":[{"name":"","type":"uint256","internalType":"uint256"}],"stateMutability":"view"},{"type":"function","name":"onERC1155BatchReceived","inputs":[{"name":"","type":"address","internalType":"address"},{"name":"","type":"address","internalType":"address"},{"name":"","type":"uint256[]","internalType":"uint256[]"},{"name":"","type":"uint256[]","internalType":"uint256[]"},{"name":"","type":"bytes","internalType":"bytes"}],"outputs":[{"name":"","type":"bytes4","internalType":"bytes4"}],"stateMutability":"nonpayable"},{"type":"function","name":"onERC1155Received","inputs":[{"name":"","type":"address","internalType":"address"},{"name":"","type":"address","internalType":"address"},{"name":"","type":"uint256","internalType":"uint256"},{"name":"","type":"uint256","internalType":"uint256"},{"name":"","type":"bytes","internalType":"bytes"}],"outputs":[{"name":"","type":"bytes4","internalType":"bytes4"}],"stateMutability":"nonpayable"},{"type":"function","name":"onERC721Received","inputs":[{"name":"","type":"address","internalType":"address"},{"name":"","type":"address","internalType":"address"},{"name":"tokenId","type":"uint256","internalType":"uint256"},{"name":"","type":"bytes","internalType":"bytes"}],"outputs":[{"name":"","type":"bytes4","internalType":"bytes4"}],"stateMutability":"nonpayable"},{"type":"function","name":"overrides","inputs":[{"name":"","type":"address","internalType":"address"},{"name":"","type":"bytes4","internalType":"bytes4"}],"outputs":[{"name":"","type":"address","internalType":"address"}],"stateMutability":"view"},{"type":"function","name":"owner","inputs":[],"outputs":[{"name":"","type":"address","internalType":"address"}],"stateMutability":"view"},{"type":"function","name":"permissions","inputs":[{"name":"","type":"address","internalType":"address"},{"name":"","type":"address","internalType":"address"}],"outputs":[{"name":"","type":"bool","internalType":"bool"}],"stateMutability":"view"},{"type":"function","name":"proxiableUUID","inputs":[],"outputs":[{"name":"","type":"bytes32","internalType":"bytes32"}],"stateMutability":"view"},{"type":"function","name":"setOverrides","inputs":[{"name":"selectors","type":"bytes4[]","internalType":"bytes4[]"},{"name":"implementations","type":"address[]","internalType":"address[]"}],"outputs":[],"stateMutability":"nonpayable"},{"type":"function","name":"setPermissions","inputs":[{"name":"callers","type":"address[]","internalType":"address[]"},{"name":"_permissions","type":"bool[]","internalType":"bool[]"}],"outputs":[],"stateMutability":"nonpayable"},{"type":"function","name":"state","inputs":[],"outputs":[{"name":"","type":"uint256","internalType":"uint256"}],"stateMutability":"view"},{"type":"function","name":"supportsInterface","inputs":[{"name":"interfaceId","type":"bytes4","internalType":"bytes4"}],"outputs":[{"name":"","type":"bool","internalType":"bool"}],"stateMutability":"view"},{"type":"function","name":"token","inputs":[],"outputs":[{"name":"chainId","type":"uint256","internalType":"uint256"},{"name":"tokenContract","type":"address","internalType":"address"},{"name":"tokenId","type":"uint256","internalType":"uint256"}],"stateMutability":"view"},{"type":"function","name":"upgradeTo","inputs":[{"name":"newImplementation","type":"address","internalType":"address"}],"outputs":[],"stateMutability":"nonpayable"},{"type":"function","name":"upgradeToAndCall","inputs":[{"name":"newImplementation","type":"address","internalType":"address"},{"name":"data","type":"bytes","internalType":"bytes"}],"outputs":[],"stateMutability":"payable"},{"type":"function","name":"validateUserOp","inputs":[{"name":"userOp","type":"tuple","internalType":"struct UserOperation","components":[{"name":"sender","type":"address","internalType":"address"},{"name":"nonce","type":"uint256","internalType":"uint256"},{"name":"initCode","type":"bytes","internalType":"bytes"},{"name":"callData","type":"bytes","internalType":"bytes"},{"name":"callGasLimit","type":"uint256","internalType":"uint256"},{"name":"verificationGasLimit","type":"uint256","internalType":"uint256"},{"name":"preVerificationGas","type":"uint256","internalType":"uint256"},{"name":"maxFeePerGas","type":"uint256","internalType":"uint256"},{"name":"maxPriorityFeePerGas","type":"uint256","internalType":"uint256"},{"name":"paymasterAndData","type":"bytes","internalType":"bytes"},{"name":"signature","type":"bytes","internalType":"bytes"}]},{"name":"userOpHash","type":"bytes32","internalType":"bytes32"},{"name":"missingAccountFunds","type":"uint256","internalType":"uint256"}],"outputs":[{"name":"validationData","type":"uint256","internalType":"uint256"}],"stateMutability":"nonpayable"},{"type":"event","name":"AdminChanged","inputs":[{"name":"previousAdmin","type":"address","indexed":false,"internalType":"address"},{"name":"newAdmin","type":"address","indexed":false,"internalType":"address"}],"anonymous":false},{"type":"event","name":"BeaconUpgraded","inputs":[{"name":"beacon","type":"address","indexed":true,"internalType":"address"}],"anonymous":false},{"type":"event","name":"LockUpdated","inputs":[{"name":"lockedUntil","type":"uint256","indexed":false,"internalType":"uint256"}],"anonymous":false},{"type":"event","name":"OverrideUpdated","inputs":[{"name":"owner","type":"address","indexed":false,"internalType":"address"},{"name":"selector","type":"bytes4","indexed":false,"internalType":"bytes4"},{"name":"implementation","type":"address","indexed":false,"internalType":"address"}],"anonymous":false},{"type":"event","name":"PermissionUpdated","inputs":[{"name":"owner","type":"address","indexed":false,"internalType":"address"},{"name":"caller","type":"address","indexed":false,"internalType":"address"},{"name":"hasPermission","type":"bool","indexed":false,"internalType":"bool"}],"anonymous":false},{"type":"event","name":"Upgraded","inputs":[{"name":"implementation","type":"address","indexed":true,"internalType":"address"}],"anonymous":false},{"type":"error","name":"AccountLocked","inputs":[]},{"type":"error","name":"ContractCreationFailed","inputs":[]},{"type":"error","name":"ExceedsMaxLockTime","inputs":[]},{"type":"error","name":"InvalidAccountProof","inputs":[]},{"type":"error","name":"InvalidERC6551Registry","inputs":[]},{"type":"error","name":"InvalidEntryPoint","inputs":[]},{"type":"error","name":"InvalidImplementation","inputs":[]},{"type":"error","name":"InvalidInput","inputs":[]},{"type":"error","name":"InvalidMulticallForwarder","inputs":[]},{"type":"error","name":"InvalidOperation","inputs":[]},{"type":"error","name":"NotAuthorized","inputs":[]},{"type":"error","name":"OwnershipCycle","inputs":[]}],"bytecode":{"object":"0x6101403461016b57601f612dc738819003918201601f1916830191906001600160401b0383118484101761016f57816080928592604095865283398101031261016b5761004b82610183565b61005760208401610183565b61006e6060610067858701610183565b9501610183565b936001600160a01b03928316801561015a576080523060a0528281161561014a5760c05260e08190528116156101395761010092168252610120903082525190612c2f928361019884396080518381816109ed0152818161110d0152818161130d0152611eb2015260a05183818161173a01526125a5015260c0518381816104410152818161175b01526125c7015260e051838181610f320152818161274c0152612b12015251828181611fc101526121e401525181818161089201528181610c7d0152610e5d0152f35b815163754c753360e11b8152600490fd5b83516246a29560e81b8152600490fd5b8451632039d3c960e01b8152600490fd5b5f80fd5b634e487b7160e01b5f52604160045260245ffd5b51906001600160a01b038216820361016b5756fe60806040526004361015610026575b361561001e5761001c611be3565b005b61001c611be3565b5f3560e01c806301ffc9a714610215578063039721b114610210578063056d5afe1461020b578063150b7a02146102065780631626ba7e146102015780631e2eaeaf146101fc5780631f9838b5146101f75780631fb1ecf0146101f257806334715fb1146101ed5780633659cfe6146101e85780633a871cdd146101e357806343629a73146101de57806345a24e3e146101d95780634f1ef286146101d457806351945447146101cf578063523e3260146101ca57806352d1902d146101c5578063572b6c05146101c05780637a8f7356146101bb5780638da5cb5b146101b6578063a4e2d634146101b1578063b0d691fe146101ac578063b709467c146101a7578063bc197c81146101a2578063c19d93fb1461019d578063ce0617ec14610198578063d087d28814610193578063dd4670641461018e578063ee9c605414610189578063f23a6e61146101845763fc0c546a0361000e576114f9565b611498565b611430565b611388565b6112dc565b6112c0565b6112a3565b611203565b61113c565b6110f8565b6110da565b6110bd565b610f66565b610f0e565b610e4b565b610e03565b610d7f565b610c3c565b610bed565b610b07565b6109b7565b61086b565b610810565b610777565b6106b1565b610692565b610641565b610560565b61042c565b6102db565b610230565b6001600160e01b031981160361022c57565b5f80fd5b3461022c57602036600319011261022c5760206102576004356102528161021a565b611530565b6040519015158152f35b9181601f8401121561022c578235916001600160401b03831161022c576020808501948460051b01011161022c57565b604060031982011261022c576001600160401b039160043583811161022c57826102bd91600401610261565b9390939260243591821161022c576102d791600401610261565b9091565b3461022c576102e936610291565b92906103046102ff6102f9611b16565b9161250a565b6125a2565b6001600160a01b038116801561041a57330361041a57610322611b73565b838503610408575f5b84811061033457005b806103a061034d6103486001948a8861163d565b61165c565b6001600160a01b0385165f90815260026020526040902061038f9061037b610376868c8c61163d565b611666565b60018060a01b03165f5260205260405f2090565b9060ff801983541691151516179055565b7f394777a58092892d136a90c4bb7e4350c72ac50fba6a0208128677f36527dcf56103cf61037683898961163d565b6103dd610348848b8961163d565b604080516001600160a01b03888116825293909316602084015290151590820152606090a10161032b565b60405163b4fa3fb360e01b8152600490fd5b60405163ea8e4eb560e01b8152600490fd5b3461022c575f36600319011261022c576040517f00000000000000000000000000000000000000000000000000000000000000006001600160a01b03168152602090f35b6001600160a01b0381160361022c57565b634e487b7160e01b5f52604160045260245ffd5b602081019081106001600160401b038211176104b057604052565b610481565b606081019081106001600160401b038211176104b057604052565b90601f801991011681019081106001600160401b038211176104b057604052565b6001600160401b0381116104b057601f01601f191660200190565b929192610518826104f1565b9161052660405193846104d0565b82948184528183011161022c578281602093845f960137010152565b9080601f8301121561022c5781602061055d9335910161050c565b90565b3461022c57608036600319011261022c5761057c600435610470565b610587602435610470565b6064356001600160401b03811161022c576105a6903690600401610542565b506105af611b16565b919060018060a01b031633149182610608575b50816105fe575b506105ec576105d6611be3565b604051630a85bd0160e11b8152602090f35b0390f35b60405163b79e3f3f60e01b8152600490fd5b905046145f6105c9565b6044351491505f6105c2565b9181601f8401121561022c578235916001600160401b03831161022c576020838186019501011161022c57565b3461022c57604036600319011261022c576024356001600160401b03811161022c5761067f6106766020923690600401610614565b90600435611670565b6040516001600160e01b03199091168152f35b3461022c57602036600319011261022c57602060043554604051908152f35b3461022c57604036600319011261022c57602060ff6107096004356106d581610470565b602435906106e282610470565b60018060a01b03165f526002845260405f209060018060a01b03165f5260205260405f2090565b54166040519015158152f35b60ff81160361022c57565b5f5b8381106107315750505f910152565b8181015183820152602001610722565b9060209161075a81518092818552858086019101610720565b601f01601f1916010190565b90602061055d928181520190610741565b60a036600319011261022c5760043561078f81610470565b6001600160401b0360443581811161022c576107af903690600401610614565b9190926064356107be81610715565b6084359383851161022c573660238601121561022c57846004013593841161022c57366024606086028701011161022c576105e8956024610804960193602435906116d3565b60405191829182610766565b3461022c57606036600319011261022c576044356001600160401b03811161022c576108596108456020923690600401610614565b9061084e612167565b602435600435612181565b6040516001600160a01b039091168152f35b3461022c57602036600319011261022c5760043561088881610470565b6001600160a01b037f0000000000000000000000000000000000000000000000000000000000000000811691906108c1308414156118b2565b6108dd5f80516020612c03833981519152938285541614611913565b6108e6826121bb565b604051906108f382610495565b5f82527f4910fdfa16fed3260ed0e7147f7cc6da11a60208b5b9406d12a635614ffd91435460ff161561092c57505061001c91506128a6565b6020600491604094939451928380926352d1902d60e01b825286165afa5f9181610986575b506109735760405162461bcd60e51b81528061096f600482016122d4565b0390fd5b61001c936109819114612276565b612855565b6109a991925060203d6020116109b0575b6109a181836104d0565b810190612267565b905f610951565b503d610997565b3461022c5760031960603682011261022c57600435906001600160401b03821161022c5761016090823603011261022c576044357f00000000000000000000000000000000000000000000000000000000000000006001600160a01b03163303610a5f57610a2e6105e89260243590600401612323565b9080610a46575b506040519081529081906020820190565b5f80808093338219f150610a58611ae7565b505f610a35565b60405162461bcd60e51b815260206004820152601c60248201527f6163636f756e743a206e6f742066726f6d20456e747279506f696e74000000006044820152606490fd5b6020808201906020835283518092526040830192602060408460051b8301019501935f915b848310610ad95750505050505090565b9091929394958480610af7600193603f198682030187528a51610741565b9801930193019194939290610ac9565b60208060031936011261022c576004356001600160401b03811161022c57610b33903690600401610261565b91610b4b610b47610b42612749565b611ea5565b1590565b61041a57610b57611b73565b610b60836119b0565b925f5b818110610b7857604051806105e88782610aa4565b80610bd1610b8c61037660019486896119f9565b848787610b9a8684846119f9565b0135610bcb6060610bc588610bbd610bb38289896119f9565b6040810190611a1b565b9790966119f9565b01611a4d565b9361204e565b610bdb8288611a57565b52610be68187611a57565b5001610b63565b3461022c57604036600319011261022c576024356001600160401b03811161022c57610859610c34610c256020933690600401610614565b610c2d612167565b369161050c565b600435612373565b604036600319011261022c57600435610c5481610470565b6024356001600160401b03811161022c57610c73903690600401610542565b6001600160a01b037f00000000000000000000000000000000000000000000000000000000000000008116929190610cad308514156118b2565b610cc95f80516020612c03833981519152948286541614611913565b610cd2836121bb565b7f4910fdfa16fed3260ed0e7147f7cc6da11a60208b5b9406d12a635614ffd91435460ff1615610d0857505061001c91506128a6565b6020600491604094939451928380926352d1902d60e01b825286165afa5f9181610d5e575b50610d4b5760405162461bcd60e51b81528061096f600482016122d4565b61001c93610d599114612276565b61279b565b610d7891925060203d6020116109b0576109a181836104d0565b905f610d2d565b608036600319011261022c57600435610d9781610470565b6044356001600160401b03811161022c57610db6903690600401610614565b60649291923590610dc682610715565b610dd1610b42612749565b1561041a576105e893610def93610de6611b73565b6024359061204e565b604051918291602083526020830190610741565b3461022c57604036600319011261022c57600435610e2081610470565b6024356001600160401b03811161022c57602091610e4561067f923690600401610614565b91611a6b565b3461022c575f36600319011261022c577f00000000000000000000000000000000000000000000000000000000000000006001600160a01b03163003610ea3576040515f80516020612c038339815191528152602090f35b60405162461bcd60e51b815260206004820152603860248201527f555550535570677261646561626c653a206d757374206e6f742062652063616c60448201527f6c6564207468726f7567682064656c656761746563616c6c00000000000000006064820152608490fd5b3461022c57602036600319011261022c576020600435610f2d81610470565b6040517f00000000000000000000000000000000000000000000000000000000000000006001600160a01b039081169216919091148152f35b3461022c57610f7436610291565b9290610f846102ff6102f9611b16565b6001600160a01b038116801561041a57330361041a57610fa2611b73565b610fab306123e7565b3b156110af575b838503610408575f5b848110610fc457005b8061103a610fd86103766001948a8861163d565b6001600160a01b0385165f90815260016020526040902061101b90611006611001868c8c61163d565b611a94565b63ffffffff60e01b165f5260205260405f2090565b80546001600160a01b0319166001600160a01b03909216919091179055565b7f2c722487e90aca38ec1b074c3403210bd2bfb769b4da7f12f7bf0b9e37517c1861106961100183898961163d565b611077610376848b8961163d565b604080516001600160a01b0380891682526001600160e01b03199094166020820152929091169082015280606081010390a101610fbb565b6110b830612436565b610fb2565b3461022c575f36600319011261022c5760206108596102f9611b16565b3461022c575f36600319011261022c5760205f546040519042108152f35b3461022c575f36600319011261022c576040517f00000000000000000000000000000000000000000000000000000000000000006001600160a01b03168152602090f35b3461022c57606036600319011261022c5760043561115981610470565b6044356001600160401b03811161022c576105e891611182610c25610def933690600401610614565b906024359061257a565b6001600160401b0381116104b05760051b60200190565b9080601f8301121561022c5760209082356111bd8161118c565b936111cb60405195866104d0565b81855260208086019260051b82010192831161022c57602001905b8282106111f4575050505090565b813581529083019083016111e6565b3461022c5760a036600319011261022c5761121f600435610470565b61122a602435610470565b6001600160401b0360443581811161022c5761124a9036906004016111a3565b5060643581811161022c576112639036906004016111a3565b5060843590811161022c5761127c903690600401610542565b506105e8611288611a9e565b6040516001600160e01b031990911681529081906020820190565b3461022c575f36600319011261022c576020600354604051908152f35b3461022c575f36600319011261022c5760205f54604051908152f35b3461022c575f36600319011261022c57604051631aab3f0d60e11b81523060048201525f60248201526020816044817f00000000000000000000000000000000000000000000000000000000000000006001600160a01b03165afa8015611383575f9061134f575b604051908152602090f35b506020813d60201161137b575b81611369602093836104d0565b8101031261022c576105e89051611344565b3d915061135c565b6116b3565b3461022c57602036600319011261022c576004356102ff6113bc6113aa611b16565b6001600160a01b03949290919061250a565b16801561041a57330361041a576113d242611ac5565b811161141e576114197fa7b24c66dd3269a292a60b3facdbb8f3e7557d1e19e64d99e0d6ee7250be63ad91611405611b73565b805f55604051918291829190602083019252565b0390a1005b6040516301814f7d60e31b8152600490fd5b3461022c57604036600319011261022c57602060043561144f81610470565b61148e60243561145e8161021a565b6001600160a01b039283165f9081526001855260408082206001600160e01b031990931682526020929092522090565b5416604051908152f35b3461022c5760a036600319011261022c576114b4600435610470565b6114bf602435610470565b6084356001600160401b03811161022c576114de903690600401610542565b506114e7611be3565b60405163f23a6e6160e01b8152602090f35b3461022c575f36600319011261022c576060611513611b16565b604080519384526001600160a01b03909216602084015290820152f35b6001600160e01b0319908116635194544760e01b81149081156115e4575b506115de5761159f61157a916102ff611565611b16565b6001600160a01b03968794909390929061250a565b165f52600160205260405f20905f351663ffffffff60e01b165f5260205260405f2090565b5416806115ab57505f90565b5f8091604051806115bc8136611adb565b03915afa6115c8611ae7565b90156115d657602081519101f35b602081519101fd5b50600190565b636faff5f160e01b8114915081156115fe575b505f61154e565b630271189760e51b811491508115611618575b505f6115f7565b6301ffc9a760e01b1490505f611611565b634e487b7160e01b5f52603260045260245ffd5b919081101561164d5760051b0190565b611629565b8015150361022c57565b3561055d81611652565b3561055d81610470565b9061167b9291611d37565b611683575f90565b630b135d3f60e11b90565b919081101561164d576060020190565b9081602091031261022c575161055d81611652565b6040513d5f823e3d90fd5b9081602091031261022c575161055d81610470565b959490919293946116e2612749565b915f915b80831061171157505050610b476116fc91611ea5565b61041a5761055d9461170c611b73565b61204e565b90919261171f84838561168e565b9061172c60208301611666565b61177f6040840135824686357f00000000000000000000000000000000000000000000000000000000000000007f0000000000000000000000000000000000000000000000000000000000000000611e1e565b92813b156117f757833b61183a575b604080516331a9108f60e11b815291013560048201529190602090839060249082906001600160a01b03165afa5f9281611809575b506117da57604051631052dd2560e21b8152600490fd5b6001600160a01b039081169116036117f7579260010191906116e6565b604051631052dd2560e21b8152600490fd5b61182c91935060203d602011611833575b61182481836104d0565b8101906116be565b915f6117c3565b503d61181a565b604051632938b58d60e21b815260049060208183816001600160a01b038a165afa908115611383575f91611883575b50611874575061178e565b604051636315bfbb60e01b8152fd5b6118a5915060203d6020116118ab575b61189d81836104d0565b81019061169e565b5f611869565b503d611893565b156118b957565b60405162461bcd60e51b815260206004820152602c60248201527f46756e6374696f6e206d7573742062652063616c6c6564207468726f7567682060448201526b19195b1959d85d1958d85b1b60a21b6064820152608490fd5b1561191a57565b60405162461bcd60e51b815260206004820152602c60248201527f46756e6374696f6e206d7573742062652063616c6c6564207468726f7567682060448201526b6163746976652070726f787960a01b6064820152608490fd5b6040519061198182610495565b5f8252565b6040519060a082018281106001600160401b038211176104b0576040526080808352366020840137565b906119ba8261118c565b6119c760405191826104d0565b82815280926119d8601f199161118c565b01905f5b8281106119e857505050565b8060606020809385010152016119dc565b919081101561164d5760051b81013590607e198136030182121561022c570190565b903590601e198136030182121561022c57018035906001600160401b03821161022c5760200191813603831361022c57565b3561055d81610715565b805182101561164d5760209160051b010190565b90611a7b90611a8193369161050c565b5061238d565b611a89575f90565b630291f19360e51b90565b3561055d8161021a565b611aa6611be3565b63bc197c8160e01b90565b634e487b7160e01b5f52601160045260245ffd5b906301e133808201809211611ad657565b611ab1565b90815f8237015f815290565b3d15611b11573d90611af8826104f1565b91611b0660405193846104d0565b82523d5f602084013e565b606090565b60405190608082018281106001600160401b038211176104b05760405260608252602082016060604d82303c60608380518101031261022c5751906060604084015193611b6285610470565b015191926001600160a01b03169190565b5f544210611bd1576003546080611bc9611b8b612b0f565b92908360405194859260208401978852604080850152816060850152848401375f838284010152601f801991011681010360608101845201826104d0565b519020600355565b604051636315bfbb60e01b8152600490fd5b611c2c611c10611bf76102ff6102f9611b16565b6001600160a01b03165f90815260016020526040902090565b5f80356001600160e01b03191681526020919091526040902090565b546001600160a01b038116611c3e5750565b5f8091611c4a306123e7565b9082604051611c8e60488260208101956001600160601b0319809160601b16875236866034840137368201903360601b1660348201520360288101845201826104d0565b51925af16115c8611ae7565b906040101561164d5760400190565b9060201161022c5790602090565b9060401161022c5760200190602090565b909291928360201161022c57831161022c5760200191601f190190565b9093929384831161022c57841161022c578101920390565b359060208110611d0b575090565b5f199060200360031b1b1690565b60051115611d2357565b634e487b7160e01b5f52602160045260245ffd5b909160ff611d5f611d59611d4b8487611c9a565b356001600160f81b03191690565b60f81c90565b1615611d9857611d7a92611d7491369161050c565b90612718565b611d8381611d19565b611d935761055d90611a7b611974565b505f90565b90611dbe611db2611db2611dac8587611ca9565b90611cfd565b6001600160a01b031690565b91611dc7611974565b50611dd4610b478461238d565b80611e0b575b611e0357610c2d818581611df7611dac611dfd9661055d9a611cb7565b91611ce5565b9161269d565b505050505f90565b506001600160a01b038316301415611dda565b91906055959360e2956040519560b787015260018060a01b0316609786015260778501528160578501526e5af43d82803e903d91602b57fd5bf360378501526028840152733d60ad80600a3d3981f3363d3d373d3d3d363d73601484015260b7835260d7830190816040528351602085012061011785015260f7840152520160ff81532090565b6001600160a01b038181167f00000000000000000000000000000000000000000000000000000000000000008216811461202357611ee1611b16565b90468303611f64575b611ef39261250a565b8281168214611f5b57611f05906125a2565b91821614611f54576001600160a01b03165f908152600260205260409020611f4791611f40919060018060a01b03165f5260205260405f2090565b5460ff1690565b611f4f575f90565b600190565b5050600190565b50505050600190565b611f95611f6f612749565b6001600160a01b0390811673111100000000000000000000000000000000111019011690565b85163014611ff9576040516333932be560e11b81526001600160a01b03871660048201526020816024817f00000000000000000000000000000000000000000000000000000000000000008a165afa908115611383575f91612004575b5015611eea575b505050505050600190565b61201d915060203d6020116118ab5761189d81836104d0565b5f611ff2565b505050600190565b909280926014946001600160601b03199060601b1683528483013701015f815290565b9092919360ff1690811561214e57600182146120fd5750600281146120e05760031461208657604051631cc6a69960e11b8152600490fd5b8261055d926120a983806120a3611dac6120b1976120d29a611ca9565b94611cc8565b929091612181565b604051928391602083016014916001600160601b03199060601b1681520190565b03601f1981018352826104d0565b5061055d916120f76120d2946120b193369161050c565b90612373565b61055d949392915061213b9061212d612115306123e7565b93843b15612140575b6040519687936020850161202b565b03601f1981018552846104d0565b61257a565b61214930612436565b61211e565b929161216191509361055d94369161050c565b9161257a565b6001600160a01b03612178306123e7565b16330361041a57565b9161218e9193369161050c565b9060208251920190f5906001600160a01b038216156121a957565b60405163a28c247360e01b8152600490fd5b604051631506fd4d60e01b81526001600160a01b039091166004820152602081806024810103817f00000000000000000000000000000000000000000000000000000000000000006001600160a01b03165afa908115611383575f91612248575b501561223657612230610b47610b42612749565b61041a57565b60405163340aafcd60e11b8152600490fd5b612261915060203d6020116118ab5761189d81836104d0565b5f61221c565b9081602091031261022c575190565b1561227d57565b60405162461bcd60e51b815260206004820152602960248201527f45524331393637557067726164653a20756e737570706f727465642070726f786044820152681a58589b195555525160ba1b6064820152608490fd5b60809060208152602e60208201527f45524331393637557067726164653a206e657720696d706c656d656e7461746960408201526d6f6e206973206e6f74205555505360901b60608201520190565b612366917f19457468657265756d205369676e6564204d6573736167653a0a3332000000005f52601c52612360603c5f2091610140810190611a1b565b91611d37565b61236f57600190565b5f90565b60208251920190f0906001600160a01b038216156121a957565b6123986102f9611b16565b6001600160a01b03828116918082168314611f5b576123b6906125a2565b16809114611f54575f9081526002602090815260408083206001600160a01b0390941683529290522060ff90541690565b600b6123f4605592612935565b602081519101206040519060408201527f97f795a08410e77dc9dbbaba3915f17c601e45642518dd578bd440d8775bfee460208201523081520160ff81532090565b61243f90612935565b8051156124c65780516001600160a01b03917f97f795a08410e77dc9dbbaba3915f17c601e45642518dd578bd440d8775bfee491906020015ff5161561248157565b60405162461bcd60e51b815260206004820152601960248201527f437265617465323a204661696c6564206f6e206465706c6f79000000000000006044820152606490fd5b606460405162461bcd60e51b815260206004820152602060248201527f437265617465323a2062797465636f6465206c656e677468206973207a65726f6044820152fd5b460361257457803b15612574576040516331a9108f60e11b81526004810192909252602090829060249082906001600160a01b03165afa5f9181612553575b5061055d57505f90565b61256d91925060203d6020116118335761182481836104d0565b905f612549565b50505f90565b915f928392602083519301915af190612591611ae7565b911561259957565b50602081519101fd5b907f0000000000000000000000000000000000000000000000000000000000000000917f00000000000000000000000000000000000000000000000000000000000000005b6125f2818584612a0c565b156126985760408051637e062a3560e11b815292606091908290859060049082906001600160a01b03165afa938415611383575f915f935f96612648575b50505092612641916125f29461250a565b91506125e7565b92509250809450813d8311612691575b61266281836104d0565b8101031261022c5782612641916125f294519060208301519261268484610470565b0151909190948193612630565b503d612658565b509150565b5f91929082916040516126d4816120d26020820194630b135d3f60e11b998a87526024840152604060448401526064830190610741565b51915afa906126e1611ae7565b8261270a575b826126f157505090565b61270691925060208082518301019101612267565b1490565b9150602082511015916126e7565b9060418151145f14612740576102d791602082015190606060408401519301515f1a90612a94565b50505f90600290565b337f00000000000000000000000000000000000000000000000000000000000000006001600160a01b03161480612790575b1561278c5736601319013560601c90565b3390565b50601436101561277b565b906127a5826128a6565b6001600160a01b0382167fbc7cd75a20ee27fd9adebab32041f755214dbc6bffa90cc0225b39da2e5c2d3b5f80a280511580159061284d575b6127e6575050565b61284a915f80604051936127f9856104b5565b602785527f416464726573733a206c6f772d6c6576656c2064656c65676174652063616c6c6020860152660819985a5b195960ca1b6040860152602081519101845af4612844611ae7565b91612b69565b50565b5060016127de565b9061285f826128a6565b6001600160a01b0382167fbc7cd75a20ee27fd9adebab32041f755214dbc6bffa90cc0225b39da2e5c2d3b5f80a280511580159061289f576127e6575050565b505f6127de565b803b156128da575f80516020612c0383398151915280546001600160a01b0319166001600160a01b03909216919091179055565b60405162461bcd60e51b815260206004820152602d60248201527f455243313936373a206e657720696d706c656d656e746174696f6e206973206e60448201526c1bdd08184818dbdb9d1c9858dd609a1b6064820152608490fd5b6040908151828101908082106001600160401b038311176104b0578361055d936034936129db9652600e83526129fd602084016d604380600d600039806000f3fe7360901b8152835190612988826104b5565b602e825260208201947f3314601d573d3dfd5b363d3d373d3d6014360360143d5160601c5af43d60008086526d3e80603e573d6000fd5b3d6000f360901b81840152519889965180926020890190610720565b8501926001600160601b03199060601b16602084015251809386840190610720565b010360148101845201826104d0565b9160ad833b03612a8d576014600a600c853c5f5190813b15611e03576001600160a01b0392831682841603611e0357612a43611986565b60208101916080602d84883c60808280518101031261022c57612a8793611db29351604084015191876080606087015196612a7d88610470565b0151951693611e1e565b91161490565b5050505f90565b7f7fffffffffffffffffffffffffffffff5d576e7357a4501ddfe92f46681b20a08411612b04576020935f9360ff60809460405194855216868401526040830152606082015282805260015afa15611383575f516001600160a01b03811615612afc57905f90565b505f90600190565b505050505f90600390565b337f00000000000000000000000000000000000000000000000000000000000000006001600160a01b03161480612b5e575b15612b5857601319360190368211611ad6575f9190565b5f903690565b506014361015612b41565b91929015612bcb5750815115612b7d575090565b3b15612b865790565b60405162461bcd60e51b815260206004820152601d60248201527f416464726573733a2063616c6c20746f206e6f6e2d636f6e74726163740000006044820152606490fd5b825190915015612bde5750805190602001fd5b60405162461bcd60e51b81526020600482015290819061096f90602483019061074156fe360894a13ba1a3210667c828492db98dca3e2076cc3735a920a3ca505d382bbca164736f6c6343000819000a","linkReferences":{}},"methodIdentifiers":{"entryPoint()":"b0d691fe","erc6551Registry()":"056d5afe","execute(address,uint256,bytes,uint8)":"51945447","executeBatch((address,uint256,bytes,uint8)[])":"43629a73","executeNested(address,uint256,bytes,uint8,(bytes32,address,uint256)[])":"1fb1ecf0","extcall(address,uint256,bytes)":"b709467c","extcreate(uint256,bytes)":"45a24e3e","extcreate2(uint256,bytes32,bytes)":"34715fb1","extsload(bytes32)":"1e2eaeaf","getNonce()":"d087d288","isLocked()":"a4e2d634","isTrustedForwarder(address)":"572b6c05","isValidSignature(bytes32,bytes)":"1626ba7e","isValidSigner(address,bytes)":"523e3260","lock(uint256)":"dd467064","lockedUntil()":"ce0617ec","onERC1155BatchReceived(address,address,uint256[],uint256[],bytes)":"bc197c81","onERC1155Received(address,address,uint256,uint256,bytes)":"f23a6e61","onERC721Received(address,address,uint256,bytes)":"150b7a02","overrides(address,bytes4)":"ee9c6054","owner()":"8da5cb5b","permissions(address,address)":"1f9838b5","proxiableUUID()":"52d1902d","setOverrides(bytes4[],address[])":"7a8f7356","setPermissions(address[],bool[])":"039721b1","state()":"c19d93fb","supportsInterface(bytes4)":"01ffc9a7","token()":"fc0c546a","upgradeTo(address)":"3659cfe6","upgradeToAndCall(address,bytes)":"4f1ef286","validateUserOp((address,uint256,bytes,bytes,uint256,uint256,uint256,uint256,uint256,bytes,bytes),bytes32,uint256)":"3a871cdd"},"id":65}