{"abi":[{"type":"constructor","inputs":[{"name":"entryPoint_","type":"address","internalType":"address"},{"name":"multicallForwarder","type":"address","internalType":"address"},{"name":"erc6551Registry","type":"address","internalType":"address"},{"name":"guardian","type":"address","internalType":"address"}],"stateMutability":"nonpayable"},{"type":"fallback","stateMutability":"payable"},{"type":"receive","stateMutability":"payable"},{"type":"function","name":"entryPoint","inputs":[],"outputs":[{"name":"","type":"address","internalType":"contract IEntryPoint"}],"stateMutability":"view"},{"type":"function","name":"erc6551Registry","inputs":[],"outputs":[{"name":"","type":"address","internalType":"address"}],"stateMutability":"view"},{"type":"function","name":"execute","inputs":[{"name":"to","type":"address","internalType":"address"},{"name":"value","type":"uint256","internalType":"uint256"},{"name":"data","type":"bytes","internalType":"bytes"},{"name":"operation","type":"uint8","internalType":"uint8"}],"outputs":[{"name":"","type":"bytes","internalType":"bytes"}],"stateMutability":"payable"},{"type":"function","name":"executeBatch","inputs":[{"name":"operations","type":"tuple[]","internalType":"struct BatchExecutor.Operation[]","components":[{"name":"to","type":"address","internalType":"address"},{"name":"value","type":"uint256","internalType":"uint256"},{"name":"data","type":"bytes","internalType":"bytes"},{"name":"operation","type":"uint8","internalType":"uint8"}]}],"outputs":[{"name":"","type":"bytes[]","internalType":"bytes[]"}],"stateMutability":"payable"},{"type":"function","name":"executeNested","inputs":[{"name":"to","type":"address","internalType":"address"},{"name":"value","type":"uint256","internalType":"uint256"},{"name":"data","type":"bytes","internalType":"bytes"},{"name":"operation","type":"uint8","internalType":"uint8"},{"name":"proof","type":"tuple[]","internalType":"struct NestedAccountExecutor.ERC6551AccountInfo[]","components":[{"name":"salt","type":"bytes32","internalType":"bytes32"},{"name":"tokenContract","type":"address","internalType":"address"},{"name":"tokenId","type":"uint256","internalType":"uint256"}]}],"outputs":[{"name":"","type":"bytes","internalType":"bytes"}],"stateMutability":"payable"},{"type":"function","name":"extcall","inputs":[{"name":"to","type":"address","internalType":"address"},{"name":"value","type":"uint256","internalType":"uint256"},{"name":"data","type":"bytes","internalType":"bytes"}],"outputs":[{"name":"result","type":"bytes","internalType":"bytes"}],"stateMutability":"nonpayable"},{"type":"function","name":"extcreate","inputs":[{"name":"value","type":"uint256","internalType":"uint256"},{"name":"bytecode","type":"bytes","internalType":"bytes"}],"outputs":[{"name":"","type":"address","internalType":"address"}],"stateMutability":"nonpayable"},{"type":"function","name":"extcreate2","inputs":[{"name":"value","type":"uint256","internalType":"uint256"},{"name":"salt","type":"bytes32","internalType":"bytes32"},{"name":"bytecode","type":"bytes","internalType":"bytes"}],"outputs":[{"name":"","type":"address","internalType":"address"}],"stateMutability":"nonpayable"},{"type":"function","name":"extsload","inputs":[{"name":"slot","type":"bytes32","internalType":"bytes32"}],"outputs":[{"name":"value","type":"bytes32","internalType":"bytes32"}],"stateMutability":"view"},{"type":"function","name":"getNonce","inputs":[],"outputs":[{"name":"","type":"uint256","internalType":"uint256"}],"stateMutability":"view"},{"type":"function","name":"isLocked","inputs":[],"outputs":[{"name":"","type":"bool","internalType":"bool"}],"stateMutability":"view"},{"type":"function","name":"isTrustedForwarder","inputs":[{"name":"forwarder","type":"address","internalType":"address"}],"outputs":[{"name":"","type":"bool","internalType":"bool"}],"stateMutability":"view"},{"type":"function","name":"isValidSignature","inputs":[{"name":"hash","type":"bytes32","internalType":"bytes32"},{"name":"signature","type":"bytes","internalType":"bytes"}],"outputs":[{"name":"magicValue","type":"bytes4","internalType":"bytes4"}],"stateMutability":"view"},{"type":"function","name":"isValidSigner","inputs":[{"name":"signer","type":"address","internalType":"address"},{"name":"data","type":"bytes","internalType":"bytes"}],"outputs":[{"name":"magicValue","type":"bytes4","internalType":"bytes4"}],"stateMutability":"view"},{"type":"function","name":"lock","inputs":[{"name":"_lockedUntil","type":"uint256","internalType":"uint256"}],"outputs":[],"stateMutability":"nonpayable"},{"type":"function","name":"lockedUntil","inputs":[],"outputs":[{"name":"","type":"uint256","internalType":"uint256"}],"stateMutability":"view"},{"type":"function","name":"onERC1155BatchReceived","inputs":[{"name":"","type":"address","internalType":"address"},{"name":"","type":"address","internalType":"address"},{"name":"","type":"uint256[]","internalType":"uint256[]"},{"name":"","type":"uint256[]","internalType":"uint256[]"},{"name":"","type":"bytes","internalType":"bytes"}],"outputs":[{"name":"","type":"bytes4","internalType":"bytes4"}],"stateMutability":"nonpayable"},{"type":"function","name":"onERC1155Received","inputs":[{"name":"","type":"address","internalType":"address"},{"name":"","type":"address","internalType":"address"},{"name":"","type":"uint256","internalType":"uint256"},{"name":"","type":"uint256","internalType":"uint256"},{"name":"","type":"bytes","internalType":"bytes"}],"outputs":[{"name":"","type":"bytes4","internalType":"bytes4"}],"stateMutability":"nonpayable"},{"type":"function","name":"onERC721Received","inputs":[{"name":"","type":"address","internalType":"address"},{"name":"","type":"address","internalType":"address"},{"name":"tokenId","type":"uint256","internalType":"uint256"},{"name":"","type":"bytes","internalType":"bytes"}],"outputs":[{"name":"","type":"bytes4","internalType":"bytes4"}],"stateMutability":"nonpayable"},{"type":"function","name":"overrides","inputs":[{"name":"","type":"address","internalType":"address"},{"name":"","type":"bytes4","internalType":"bytes4"}],"outputs":[{"name":"","type":"address","internalType":"address"}],"stateMutability":"view"},{"type":"function","name":"owner","inputs":[],"outputs":[{"name":"","type":"address","internalType":"address"}],"stateMutability":"view"},{"type":"function","name":"permissions","inputs":[{"name":"","type":"address","internalType":"address"},{"name":"","type":"address","internalType":"address"}],"outputs":[{"name":"","type":"bool","internalType":"bool"}],"stateMutability":"view"},{"type":"function","name":"proxiableUUID","inputs":[],"outputs":[{"name":"","type":"bytes32","internalType":"bytes32"}],"stateMutability":"view"},{"type":"function","name":"setOverrides","inputs":[{"name":"selectors","type":"bytes4[]","internalType":"bytes4[]"},{"name":"implementations","type":"address[]","internalType":"address[]"}],"outputs":[],"stateMutability":"nonpayable"},{"type":"function","name":"setPermissions","inputs":[{"name":"callers","type":"address[]","internalType":"address[]"},{"name":"_permissions","type":"bool[]","internalType":"bool[]"}],"outputs":[],"stateMutability":"nonpayable"},{"type":"function","name":"state","inputs":[],"outputs":[{"name":"","type":"uint256","internalType":"uint256"}],"stateMutability":"view"},{"type":"function","name":"supportsInterface","inputs":[{"name":"interfaceId","type":"bytes4","internalType":"bytes4"}],"outputs":[{"name":"","type":"bool","internalType":"bool"}],"stateMutability":"view"},{"type":"function","name":"token","inputs":[],"outputs":[{"name":"chainId","type":"uint256","internalType":"uint256"},{"name":"tokenContract","type":"address","internalType":"address"},{"name":"tokenId","type":"uint256","internalType":"uint256"}],"stateMutability":"view"},{"type":"function","name":"upgradeTo","inputs":[{"name":"newImplementation","type":"address","internalType":"address"}],"outputs":[],"stateMutability":"nonpayable"},{"type":"function","name":"upgradeToAndCall","inputs":[{"name":"newImplementation","type":"address","internalType":"address"},{"name":"data","type":"bytes","internalType":"bytes"}],"outputs":[],"stateMutability":"payable"},{"type":"function","name":"validateUserOp","inputs":[{"name":"userOp","type":"tuple","internalType":"struct UserOperation","components":[{"name":"sender","type":"address","internalType":"address"},{"name":"nonce","type":"uint256","internalType":"uint256"},{"name":"initCode","type":"bytes","internalType":"bytes"},{"name":"callData","type":"bytes","internalType":"bytes"},{"name":"callGasLimit","type":"uint256","internalType":"uint256"},{"name":"verificationGasLimit","type":"uint256","internalType":"uint256"},{"name":"preVerificationGas","type":"uint256","internalType":"uint256"},{"name":"maxFeePerGas","type":"uint256","internalType":"uint256"},{"name":"maxPriorityFeePerGas","type":"uint256","internalType":"uint256"},{"name":"paymasterAndData","type":"bytes","internalType":"bytes"},{"name":"signature","type":"bytes","internalType":"bytes"}]},{"name":"userOpHash","type":"bytes32","internalType":"bytes32"},{"name":"missingAccountFunds","type":"uint256","internalType":"uint256"}],"outputs":[{"name":"validationData","type":"uint256","internalType":"uint256"}],"stateMutability":"nonpayable"},{"type":"event","name":"AdminChanged","inputs":[{"name":"previousAdmin","type":"address","indexed":false,"internalType":"address"},{"name":"newAdmin","type":"address","indexed":false,"internalType":"address"}],"anonymous":false},{"type":"event","name":"BeaconUpgraded","inputs":[{"name":"beacon","type":"address","indexed":true,"internalType":"address"}],"anonymous":false},{"type":"event","name":"LockUpdated","inputs":[{"name":"lockedUntil","type":"uint256","indexed":false,"internalType":"uint256"}],"anonymous":false},{"type":"event","name":"OverrideUpdated","inputs":[{"name":"owner","type":"address","indexed":false,"internalType":"address"},{"name":"selector","type":"bytes4","indexed":false,"internalType":"bytes4"},{"name":"implementation","type":"address","indexed":false,"internalType":"address"}],"anonymous":false},{"type":"event","name":"PermissionUpdated","inputs":[{"name":"owner","type":"address","indexed":false,"internalType":"address"},{"name":"caller","type":"address","indexed":false,"internalType":"address"},{"name":"hasPermission","type":"bool","indexed":false,"internalType":"bool"}],"anonymous":false},{"type":"event","name":"Upgraded","inputs":[{"name":"implementation","type":"address","indexed":true,"internalType":"address"}],"anonymous":false},{"type":"error","name":"AccountLocked","inputs":[]},{"type":"error","name":"ContractCreationFailed","inputs":[]},{"type":"error","name":"ExceedsMaxLockTime","inputs":[]},{"type":"error","name":"InvalidAccountProof","inputs":[]},{"type":"error","name":"InvalidERC6551Registry","inputs":[]},{"type":"error","name":"InvalidEntryPoint","inputs":[]},{"type":"error","name":"InvalidImplementation","inputs":[]},{"type":"error","name":"InvalidInput","inputs":[]},{"type":"error","name":"InvalidMulticallForwarder","inputs":[]},{"type":"error","name":"InvalidOperation","inputs":[]},{"type":"error","name":"NotAuthorized","inputs":[]},{"type":"error","name":"OwnershipCycle","inputs":[]}],"bytecode":{"object":"0x6101403461016b57601f61310438819003918201601f1916830191906001600160401b0383118484101761016f57816080928592604095865283398101031261016b5761004b82610183565b61005760208401610183565b61006e6060610067858701610183565b9501610183565b936001600160a01b03928316801561015a576080523060a0528281161561014a5760c05260e08190528116156101395761010092168252610120903082525190612f6c92836101988439608051838181610aca015281816112720152818161148b015261213d015260a0518381816119370152612889015260c0518381816104810152818161195801526128ab015260e05183818161108d01528181612a4c0152612e7701525182818161227401526124f201525181818161090301528181610d570152610fa30152f35b815163754c753360e11b8152600490fd5b83516246a29560e81b8152600490fd5b8451632039d3c960e01b8152600490fd5b5f80fd5b634e487b7160e01b5f52604160045260245ffd5b51906001600160a01b038216820361016b5756fe60806040526004361015610026575b361561001e5761001c611e4b565b005b61001c611e4b565b5f3560e01c806301ffc9a714610215578063039721b114610210578063056d5afe1461020b578063150b7a02146102065780631626ba7e146102015780631e2eaeaf146101fc5780631f9838b5146101f75780631fb1ecf0146101f257806334715fb1146101ed5780633659cfe6146101e85780633a871cdd146101e357806343629a73146101de57806345a24e3e146101d95780634f1ef286146101d457806351945447146101cf578063523e3260146101ca57806352d1902d146101c5578063572b6c05146101c05780637a8f7356146101bb5780638da5cb5b146101b6578063a4e2d634146101b1578063b0d691fe146101ac578063b709467c146101a7578063bc197c81146101a2578063c19d93fb1461019d578063ce0617ec14610198578063d087d28814610193578063dd4670641461018e578063ee9c605414610189578063f23a6e61146101845763fc0c546a0361000e57611692565b611618565b6115b4565b6114fe565b611439565b61141d565b611400565b61135f565b611296565b611253565b611235565b611218565b6110b4565b61105e565b610f89565b610f40565b610ebb565b610d12565b610cc2565b610bdb565b610a8b565b6108da565b61087f565b6107e5565b61071d565b6106fe565b6106ad565b610599565b610462565b6102dd565b610230565b6001600160e01b031981160361022c57565b5f80fd5b3461022c57602036600319011261022c5760206102576004356102528161021a565b6116ca565b6040519015158152f35b9181601f8401121561022c5782359167ffffffffffffffff831161022c576020808501948460051b01011161022c57565b604060031982011261022c5767ffffffffffffffff9160043583811161022c57826102bf91600401610261565b9390939260243591821161022c576102d991600401610261565b9091565b3461022c576102eb36610292565b92906103066103016102fb611d7e565b916127ee565b612886565b6001600160a01b038116801561043857330361043857610324611ddc565b83850361040e575f5b84811061033657005b806103a661034f61034a6001948a8861183a565b611859565b61039561036d866001600160a01b03165f52600260205260405f2090565b61038061037b868c8c61183a565b611863565b6001600160a01b03165f5260205260405f2090565b9060ff801983541691151516179055565b7f394777a58092892d136a90c4bb7e4350c72ac50fba6a0208128677f36527dcf56103d561037b83898961183a565b6103e361034a848b8961183a565b604080516001600160a01b03888116825293909316602084015290151590820152606090a10161032d565b60046040517fb4fa3fb3000000000000000000000000000000000000000000000000000000008152fd5b60046040517fea8e4eb5000000000000000000000000000000000000000000000000000000008152fd5b3461022c575f36600319011261022c5760206040516001600160a01b037f0000000000000000000000000000000000000000000000000000000000000000168152f35b6001600160a01b0381160361022c57565b634e487b7160e01b5f52604160045260245ffd5b6020810190811067ffffffffffffffff8211176104e657604052565b6104b6565b6060810190811067ffffffffffffffff8211176104e657604052565b90601f8019910116810190811067ffffffffffffffff8211176104e657604052565b67ffffffffffffffff81116104e657601f01601f191660200190565b92919261055182610529565b9161055f6040519384610507565b82948184528183011161022c578281602093845f960137010152565b9080601f8301121561022c5781602061059693359101610545565b90565b3461022c57608036600319011261022c576105b56004356104a5565b6105c06024356104a5565b60643567ffffffffffffffff811161022c576105e090369060040161057b565b506001600160a01b036105f1611d7e565b921633149182610673575b5081610669575b5061063f57610610611e4b565b6040517f150b7a02000000000000000000000000000000000000000000000000000000008152602090f35b0390f35b60046040517fb79e3f3f000000000000000000000000000000000000000000000000000000008152fd5b905046145f610603565b6044351491505f6105fc565b9181601f8401121561022c5782359167ffffffffffffffff831161022c576020838186019501011161022c57565b3461022c57604036600319011261022c5760243567ffffffffffffffff811161022c576106ec6106e3602092369060040161067f565b9060043561186d565b6001600160e01b031960405191168152f35b3461022c57602036600319011261022c57602060043554604051908152f35b3461022c57604036600319011261022c57602060ff610777600435610741816104a5565b6001600160a01b0360243591610756836104a5565b165f526002845260405f20906001600160a01b03165f5260205260405f2090565b54166040519015158152f35b60ff81160361022c57565b5f5b83811061079f5750505f910152565b8181015183820152602001610790565b906020916107c88151809281855285808601910161078e565b601f01601f1916010190565b9060206105969281815201906107af565b60a036600319011261022c576004356107fd816104a5565b67ffffffffffffffff60443581811161022c5761081e90369060040161067f565b91909260643561082d81610783565b6084359383851161022c573660238601121561022c57846004013593841161022c57366024606086028701011161022c5761063b956024610873960193602435906118d0565b604051918291826107d4565b3461022c57606036600319011261022c5760443567ffffffffffffffff811161022c576108c96108b5602092369060040161067f565b906108be61243c565b602435600435612456565b6001600160a01b0360405191168152f35b3461022c57602036600319011261022c576004356108f7816104a5565b6001600160a01b0390817f0000000000000000000000000000000000000000000000000000000000000000169161093083301415611ac6565b61095f7f360894a13ba1a3210667c828492db98dca3e2076cc3735a920a3ca505d382bbc938285541614611b37565b610968826124a8565b60405190610975826104ca565b5f82527f4910fdfa16fed3260ed0e7147f7cc6da11a60208b5b9406d12a635614ffd91435460ff16156109ae57505061001c9150612bb5565b6020600491604094939451928380926352d1902d60e01b825286165afa5f9181610a5a575b50610a475760405162461bcd60e51b815260206004820152602e60248201527f45524331393637557067726164653a206e657720696d706c656d656e7461746960448201527f6f6e206973206e6f7420555550530000000000000000000000000000000000006064820152608490fd5b0390fd5b61001c93610a559114612594565b612b64565b610a7d91925060203d602011610a84575b610a758183610507565b810190612585565b905f6109d3565b503d610a6b565b3461022c5760031960603682011261022c576004359067ffffffffffffffff821161022c5761016090823603011261022c576044356001600160a01b037f0000000000000000000000000000000000000000000000000000000000000000163303610b3457610b0361063b9260243590600401612605565b9080610b1b575b506040519081529081906020820190565b5f80808093338219f150610b2d611d4f565b505f610b0a565b606460405162461bcd60e51b815260206004820152601c60248201527f6163636f756e743a206e6f742066726f6d20456e747279506f696e74000000006044820152fd5b6020808201906020835283518092526040830192602060408460051b8301019501935f915b848310610bad5750505050505090565b9091929394958480610bcb600193603f198682030187528a516107af565b9801930193019194939290610b9d565b60208060031936011261022c5760043567ffffffffffffffff811161022c57610c08903690600401610261565b91610c20610c1c610c17612a42565b61212f565b1590565b61043857610c2c611ddc565b610c3583611be5565b925f5b818110610c4d576040518061063b8782610b78565b80610ca6610c6161037b6001948689611c2e565b848787610c6f868484611c2e565b0135610ca06060610c9a88610c92610c88828989611c2e565b6040810190611c50565b979096611c2e565b01611c83565b93612306565b610cb08288611c8d565b52610cbb8187611c8d565b5001610c38565b3461022c57604036600319011261022c5760243567ffffffffffffffff811161022c576108c9610d0a610cfb602093369060040161067f565b610d0361243c565b3691610545565b600435612655565b604036600319011261022c57600435610d2a816104a5565b60243567ffffffffffffffff811161022c57610d4a90369060040161057b565b906001600160a01b0391827f00000000000000000000000000000000000000000000000000000000000000001692610d8484301415611ac6565b610db37f360894a13ba1a3210667c828492db98dca3e2076cc3735a920a3ca505d382bbc948286541614611b37565b610dbc836124a8565b7f4910fdfa16fed3260ed0e7147f7cc6da11a60208b5b9406d12a635614ffd91435460ff1615610df257505061001c9150612bb5565b6020600491604094939451928380926352d1902d60e01b825286165afa5f9181610e9a575b50610e875760405162461bcd60e51b815260206004820152602e60248201527f45524331393637557067726164653a206e657720696d706c656d656e7461746960448201527f6f6e206973206e6f7420555550530000000000000000000000000000000000006064820152608490fd5b61001c93610e959114612594565b612a94565b610eb491925060203d602011610a8457610a758183610507565b905f610e17565b608036600319011261022c57600435610ed3816104a5565b60443567ffffffffffffffff811161022c57610ef390369060040161067f565b60649291923590610f0382610783565b610f0e610c17612a42565b156104385761063b93610f2c93610f23611ddc565b60243590612306565b6040519182916020835260208301906107af565b3461022c57604036600319011261022c57600435610f5d816104a5565b60243567ffffffffffffffff811161022c57602091610f836106ec92369060040161067f565b91611ca1565b3461022c575f36600319011261022c576001600160a01b037f0000000000000000000000000000000000000000000000000000000000000000163003610ff4576040517f360894a13ba1a3210667c828492db98dca3e2076cc3735a920a3ca505d382bbc8152602090f35b608460405162461bcd60e51b815260206004820152603860248201527f555550535570677261646561626c653a206d757374206e6f742062652063616c60448201527f6c6564207468726f7567682064656c656761746563616c6c00000000000000006064820152fd5b3461022c57602036600319011261022c57602060043561107d816104a5565b6001600160a01b039060405191807f0000000000000000000000000000000000000000000000000000000000000000169116148152f35b3461022c576110c236610292565b92906110d26103016102fb611d7e565b6001600160a01b0381168015610438573303610438576110f0611ddc565b6110f9306126cd565b3b1561120a575b83850361040e575f5b84811061111257005b8061119561112661037b6001948a8861183a565b61116d611144866001600160a01b03165f52600160205260405f2090565b611157611152868c8c61183a565b611ce3565b6001600160e01b0319165f5260205260405f2090565b906001600160a01b031673ffffffffffffffffffffffffffffffffffffffff19825416179055565b7f2c722487e90aca38ec1b074c3403210bd2bfb769b4da7f12f7bf0b9e37517c186111c461115283898961183a565b6111d261037b848b8961183a565b604080516001600160a01b0380891682526001600160e01b03199094166020820152929091169082015280606081010390a101611109565b6112133061271c565b611100565b3461022c575f36600319011261022c5760206108c96102fb611d7e565b3461022c575f36600319011261022c5760205f546040519042108152f35b3461022c575f36600319011261022c5760206040516001600160a01b037f0000000000000000000000000000000000000000000000000000000000000000168152f35b3461022c57606036600319011261022c576004356112b3816104a5565b60443567ffffffffffffffff811161022c5761063b916112dd610cfb610f2c93369060040161067f565b906024359061285e565b67ffffffffffffffff81116104e65760051b60200190565b9080601f8301121561022c576020908235611319816112e7565b936113276040519586610507565b81855260208086019260051b82010192831161022c57602001905b828210611350575050505090565b81358152908301908301611342565b3461022c5760a036600319011261022c5761137b6004356104a5565b6113866024356104a5565b67ffffffffffffffff60443581811161022c576113a79036906004016112ff565b5060643581811161022c576113c09036906004016112ff565b5060843590811161022c576113d990369060040161057b565b5061063b6113e5611ced565b6040516001600160e01b031990911681529081906020820190565b3461022c575f36600319011261022c576020600354604051908152f35b3461022c575f36600319011261022c5760205f54604051908152f35b3461022c575f36600319011261022c576040517f35567e1a0000000000000000000000000000000000000000000000000000000081523060048201525f60248201526020816044816001600160a01b037f0000000000000000000000000000000000000000000000000000000000000000165afa80156114f9575f906114c5575b604051908152602090f35b506020813d6020116114f1575b816114df60209383610507565b8101031261022c5761063b90516114ba565b3d91506114d2565b6118b0565b3461022c57602036600319011261022c576004356001600160a01b036115286103016102fb611d7e565b1680156104385733036104385761153e42611d2d565b811161158a576115857fa7b24c66dd3269a292a60b3facdbb8f3e7557d1e19e64d99e0d6ee7250be63ad91611571611ddc565b805f55604051918291829190602083019252565b0390a1005b60046040517f0c0a7be8000000000000000000000000000000000000000000000000000000008152fd5b3461022c57604036600319011261022c5760206004356115d3816104a5565b61160e6024356115e28161021a565b6001600160a01b038093165f526001845260405f20906001600160e01b0319165f5260205260405f2090565b5416604051908152f35b3461022c5760a036600319011261022c576116346004356104a5565b61163f6024356104a5565b60843567ffffffffffffffff811161022c5761165f90369060040161057b565b50611668611e4b565b60206040517ff23a6e61000000000000000000000000000000000000000000000000000000008152f35b3461022c575f36600319011261022c5760606001600160a01b036116b4611d7e565b9192906040519384521660208301526040820152f35b6001600160e01b03198091167f51945447000000000000000000000000000000000000000000000000000000008114908115611796575b506117905761175161172b91610301611718611d7e565b6001600160a01b039692939187946127ee565b165f52600160205260405f20905f35166001600160e01b0319165f5260205260405f2090565b54168061175d57505f90565b5f80916040518061176e8136611d43565b03915afa61177a611d4f565b901561178857602081519101f35b602081519101fd5b50600190565b7f6faff5f1000000000000000000000000000000000000000000000000000000008114915081156117c9575b505f611701565b7f4e2312e0000000000000000000000000000000000000000000000000000000008114915081156117fc575b505f6117c2565b7f01ffc9a7000000000000000000000000000000000000000000000000000000009150145f6117f5565b634e487b7160e01b5f52603260045260245ffd5b919081101561184a5760051b0190565b611826565b8015150361022c57565b356105968161184f565b35610596816104a5565b906118789291611fa8565b611880575f90565b630b135d3f60e11b90565b919081101561184a576060020190565b9081602091031261022c57516105968161184f565b6040513d5f823e3d90fd5b9081602091031261022c5751610596816104a5565b959490919293946118df612a42565b915f915b80831061190e57505050610c1c6118f99161212f565b6104385761059694611909611ddc565b612306565b90919261191c84838561188b565b9061192960208301611863565b61197c6040840135824686357f00000000000000000000000000000000000000000000000000000000000000007f00000000000000000000000000000000000000000000000000000000000000006120a7565b92813b156119f357833b611a35575b604080516331a9108f60e11b815291013560048201529190602090839060249082906001600160a01b03165afa5f9281611a04575b506119d6576004604051631052dd2560e21b8152fd5b6001600160a01b038091169116036119f3579260010191906118e3565b6004604051631052dd2560e21b8152fd5b611a2791935060203d602011611a2e575b611a1f8183610507565b8101906118bb565b915f6119c0565b503d611a15565b6040517fa4e2d63400000000000000000000000000000000000000000000000000000000815260049060208183816001600160a01b038a165afa9081156114f9575f91611a97575b50611a88575061198b565b604051636315bfbb60e01b8152fd5b611ab9915060203d602011611abf575b611ab18183610507565b81019061189b565b5f611a7d565b503d611aa7565b15611acd57565b608460405162461bcd60e51b815260206004820152602c60248201527f46756e6374696f6e206d7573742062652063616c6c6564207468726f7567682060448201527f64656c656761746563616c6c00000000000000000000000000000000000000006064820152fd5b15611b3e57565b608460405162461bcd60e51b815260206004820152602c60248201527f46756e6374696f6e206d7573742062652063616c6c6564207468726f7567682060448201527f6163746976652070726f787900000000000000000000000000000000000000006064820152fd5b60405190611bb5826104ca565b5f8252565b6040519060a0820182811067ffffffffffffffff8211176104e6576040526080808352366020840137565b90611bef826112e7565b611bfc6040519182610507565b8281528092611c0d601f19916112e7565b01905f5b828110611c1d57505050565b806060602080938501015201611c11565b919081101561184a5760051b81013590607e198136030182121561022c570190565b903590601e198136030182121561022c570180359067ffffffffffffffff821161022c5760200191813603831361022c57565b3561059681610783565b805182101561184a5760209160051b010190565b90611cb190611cb7933691610545565b5061266f565b611cbf575f90565b7f523e32600000000000000000000000000000000000000000000000000000000090565b356105968161021a565b611cf5611e4b565b7fbc197c810000000000000000000000000000000000000000000000000000000090565b634e487b7160e01b5f52601160045260245ffd5b906301e133808201809211611d3e57565b611d19565b90815f8237015f815290565b3d15611d79573d90611d6082610529565b91611d6e6040519384610507565b82523d5f602084013e565b606090565b604051906080820182811067ffffffffffffffff8211176104e65760405260608252602082016060604d82303c60608380518101031261022c5751906001600160a01b036060604085015194611dd3866104a5565b01519293169190565b5f544210611e3a576003546080611e32611df4612e6d565b92908360405194859260208401978852604080850152816060850152848401375f838284010152601f80199101168101036060810184520182610507565b519020600355565b6004604051636315bfbb60e01b8152fd5b611e98611e76611e5f6103016102fb611d7e565b6001600160a01b03165f52600160205260405f2090565b6001600160e01b03195f35166001600160e01b0319165f5260205260405f2090565b546001600160a01b038116611eaa5750565b5f8091611eb6306126cd565b9082604051611eff60488260208101956bffffffffffffffffffffffff19809160601b16875236866034840137368201903360601b166034820152036028810184520182610507565b51925af161177a611d4f565b906040101561184a5760400190565b9060201161022c5790602090565b9060401161022c5760200190602090565b909291928360201161022c57831161022c5760200191601f190190565b9093929384831161022c57841161022c578101920390565b359060208110611f7c575090565b5f199060200360031b1b1690565b60051115611f9457565b634e487b7160e01b5f52602160045260245ffd5b909160ff611fe8611fe2611fbc8487611f0b565b357fff000000000000000000000000000000000000000000000000000000000000001690565b60f81c90565b16156120215761200392611ffd913691610545565b90612a11565b61200c81611f8a565b61201c5761059690611cb1611ba8565b505f90565b9061204761203b61203b6120358587611f1a565b90611f6e565b6001600160a01b031690565b91612050611ba8565b5061205d610c1c8461266f565b80612094575b61208c57610d03818581612080612035612086966105969a611f28565b91611f56565b91612996565b505050505f90565b50306001600160a01b0384161415612063565b9190605595936001600160a01b0360e2966040519660b788015216609786015260778501528160578501526e5af43d82803e903d91602b57fd5bf360378501526028840152733d60ad80600a3d3981f3363d3d373d3d3d363d73601484015260b7835260d7830190816040528351602085012061011785015260f7840152520160ff81532090565b6001600160a01b03808216817f00000000000000000000000000000000000000000000000000000000000000001681146122d65761216b611d7e565b904683036121f3575b61217d926127ee565b82811682146121ea5761218f90612886565b918216146121e3576121d6916121b96121cf926001600160a01b03165f52600260205260405f2090565b906001600160a01b03165f5260205260405f2090565b5460ff1690565b6121de575f90565b600190565b5050600190565b50505050600190565b61222f6121fe612a42565b7fffffffffffffffffffffffffeeeeffffffffffffffffffffffffffffffffeeef6001600160a01b03809216011690565b851630146122ac576040517f672657ca0000000000000000000000000000000000000000000000000000000081526001600160a01b03871660048201526020816024817f00000000000000000000000000000000000000000000000000000000000000008a165afa9081156114f9575f916122b7575b5015612174575b505050505050600190565b6122d0915060203d602011611abf57611ab18183610507565b5f6122a5565b505050600190565b909280926014946bffffffffffffffffffffffff199060601b1683528483013701015f815290565b9092919360ff1690811561242357600182146123d25750600281146123b5576003146123565760046040517f398d4d32000000000000000000000000000000000000000000000000000000008152fd5b82610596926123798380612373612035612381976123a79a611f1a565b94611f39565b929091612456565b604051928391602083016014916bffffffffffffffffffffffff199060601b1681520190565b03601f198101835282610507565b50610596916123cc6123a794612381933691610545565b90612655565b6105969493929150612410906124026123ea306126cd565b93843b15612415575b604051968793602085016122de565b03601f198101855284610507565b61285e565b61241e3061271c565b6123f3565b9291612436915093610596943691610545565b9161285e565b6001600160a01b0361244d306126cd565b16330361043857565b9161246391933691610545565b9060208251920190f5906001600160a01b0382161561247e57565b60046040517fa28c2473000000000000000000000000000000000000000000000000000000008152fd5b6040517f1506fd4d0000000000000000000000000000000000000000000000000000000081526001600160a01b039091166004820152602081806024810103816001600160a01b037f0000000000000000000000000000000000000000000000000000000000000000165afa9081156114f9575f91612566575b501561253c57612536610c1c610c17612a42565b61043857565b60046040517f68155f9a000000000000000000000000000000000000000000000000000000008152fd5b61257f915060203d602011611abf57611ab18183610507565b5f612522565b9081602091031261022c575190565b1561259b57565b608460405162461bcd60e51b815260206004820152602960248201527f45524331393637557067726164653a20756e737570706f727465642070726f7860448201527f6961626c655555494400000000000000000000000000000000000000000000006064820152fd5b612648917f19457468657265756d205369676e6564204d6573736167653a0a3332000000005f52601c52612642603c5f2091610140810190611c50565b91611fa8565b61265157600190565b5f90565b60208251920190f0906001600160a01b0382161561247e57565b61267a6102fb611d7e565b6001600160a01b038083169181811683146121ea5761269890612886565b168091146121e35760ff916126c8915f52600260205260405f20906001600160a01b03165f5260205260405f2090565b541690565b600b6126da605592612c6f565b602081519101206040519060408201527f97f795a08410e77dc9dbbaba3915f17c601e45642518dd578bd440d8775bfee460208201523081520160ff81532090565b61272590612c6f565b8051156127aa577f97f795a08410e77dc9dbbaba3915f17c601e45642518dd578bd440d8775bfee48160206001600160a01b03935191015ff5161561276657565b606460405162461bcd60e51b815260206004820152601960248201527f437265617465323a204661696c6564206f6e206465706c6f79000000000000006044820152fd5b606460405162461bcd60e51b815260206004820152602060248201527f437265617465323a2062797465636f6465206c656e677468206973207a65726f6044820152fd5b460361285857803b15612858576040516331a9108f60e11b81526004810192909252602090829060249082906001600160a01b03165afa5f9181612837575b5061059657505f90565b61285191925060203d602011611a2e57611a1f8183610507565b905f61282d565b50505f90565b915f928392602083519301915af190612875611d4f565b911561287d57565b50602081519101fd5b907f0000000000000000000000000000000000000000000000000000000000000000917f00000000000000000000000000000000000000000000000000000000000000005b6128d6818584612d6a565b15612991576001600160a01b0360408051937ffc0c546a000000000000000000000000000000000000000000000000000000008552846004816060958694165afa9384156114f9575f915f935f96612941575b5050509261293a916128d6946127ee565b91506128cb565b92509250809450813d831161298a575b61295b8183610507565b8101031261022c578261293a916128d694519060208301519261297d846104a5565b0151909190948193612929565b503d612951565b509150565b5f91929082916040516129cd816123a76020820194630b135d3f60e11b998a875260248401526040604484015260648301906107af565b51915afa906129da611d4f565b82612a03575b826129ea57505090565b6129ff91925060208082518301019101612585565b1490565b9150602082511015916129e0565b9060418151145f14612a39576102d991602082015190606060408401519301515f1a90612df2565b50505f90600290565b6001600160a01b037f000000000000000000000000000000000000000000000000000000000000000016331480612a89575b15612a855736601319013560601c90565b3390565b506014361015612a74565b90612a9e82612bb5565b6001600160a01b0382167fbc7cd75a20ee27fd9adebab32041f755214dbc6bffa90cc0225b39da2e5c2d3b5f80a2805115801590612b5c575b612adf575050565b612b59915f8060405193612af2856104eb565b602785527f416464726573733a206c6f772d6c6576656c2064656c65676174652063616c6c60208601527f206661696c6564000000000000000000000000000000000000000000000000006040860152602081519101845af4612b53611d4f565b91612ec7565b50565b506001612ad7565b90612b6e82612bb5565b6001600160a01b0382167fbc7cd75a20ee27fd9adebab32041f755214dbc6bffa90cc0225b39da2e5c2d3b5f80a2805115801590612bae57612adf575050565b505f612ad7565b803b15612c05576001600160a01b037f360894a13ba1a3210667c828492db98dca3e2076cc3735a920a3ca505d382bbc911673ffffffffffffffffffffffffffffffffffffffff19825416179055565b608460405162461bcd60e51b815260206004820152602d60248201527f455243313936373a206e657720696d706c656d656e746174696f6e206973206e60448201527f6f74206120636f6e7472616374000000000000000000000000000000000000006064820152fd5b60409081518281019080821067ffffffffffffffff8311176104e6578361059693603493612d349652600e8352612d5b602084017f604380600d600039806000f3fe730000000000000000000000000000000000008152835190612cd2826104eb565b602e825260208201947f3314601d573d3dfd5b363d3d373d3d6014360360143d5160601c5af43d60008086527f3e80603e573d6000fd5b3d6000f30000000000000000000000000000000000008184015251988996518092602089019061078e565b8501926bffffffffffffffffffffffff199060601b1660208401525180938684019061078e565b01036014810184520182610507565b9160ad833b03612deb576014600a600c853c5f5190813b1561208c576001600160a01b038093168383160361208c57612da1611bba565b60208101916080602d84883c60808280518101031261022c57612de59361203b9351604084015191876080606087015196612ddb886104a5565b01519516936120a7565b91161490565b5050505f90565b7f7fffffffffffffffffffffffffffffff5d576e7357a4501ddfe92f46681b20a08411612e62576020935f9360ff60809460405194855216868401526040830152606082015282805260015afa156114f9575f516001600160a01b03811615612e5a57905f90565b505f90600190565b505050505f90600390565b6001600160a01b037f000000000000000000000000000000000000000000000000000000000000000016331480612ebc575b15612eb657601319360190368211611d3e575f9190565b5f903690565b506014361015612e9f565b91929015612f285750815115612edb575090565b3b15612ee45790565b606460405162461bcd60e51b815260206004820152601d60248201527f416464726573733a2063616c6c20746f206e6f6e2d636f6e74726163740000006044820152fd5b825190915015612f3b5750805190602001fd5b610a439060405191829162461bcd60e51b83526020600484015260248301906107af56fea164736f6c6343000819000a","linkReferences":{}},"methodIdentifiers":{"entryPoint()":"b0d691fe","erc6551Registry()":"056d5afe","execute(address,uint256,bytes,uint8)":"51945447","executeBatch((address,uint256,bytes,uint8)[])":"43629a73","executeNested(address,uint256,bytes,uint8,(bytes32,address,uint256)[])":"1fb1ecf0","extcall(address,uint256,bytes)":"b709467c","extcreate(uint256,bytes)":"45a24e3e","extcreate2(uint256,bytes32,bytes)":"34715fb1","extsload(bytes32)":"1e2eaeaf","getNonce()":"d087d288","isLocked()":"a4e2d634","isTrustedForwarder(address)":"572b6c05","isValidSignature(bytes32,bytes)":"1626ba7e","isValidSigner(address,bytes)":"523e3260","lock(uint256)":"dd467064","lockedUntil()":"ce0617ec","onERC1155BatchReceived(address,address,uint256[],uint256[],bytes)":"bc197c81","onERC1155Received(address,address,uint256,uint256,bytes)":"f23a6e61","onERC721Received(address,address,uint256,bytes)":"150b7a02","overrides(address,bytes4)":"ee9c6054","owner()":"8da5cb5b","permissions(address,address)":"1f9838b5","proxiableUUID()":"52d1902d","setOverrides(bytes4[],address[])":"7a8f7356","setPermissions(address[],bool[])":"039721b1","state()":"c19d93fb","supportsInterface(bytes4)":"01ffc9a7","token()":"fc0c546a","upgradeTo(address)":"3659cfe6","upgradeToAndCall(address,bytes)":"4f1ef286","validateUserOp((address,uint256,bytes,bytes,uint256,uint256,uint256,uint256,uint256,bytes,bytes),bytes32,uint256)":"3a871cdd"},"id":73}