{"abi":[{"type":"constructor","inputs":[],"stateMutability":"nonpayable"},{"type":"function","name":"addProjectAdmin","inputs":[{"name":"garden","type":"address","internalType":"address"},{"name":"admin","type":"address","internalType":"address"}],"outputs":[],"stateMutability":"nonpayable"},{"type":"function","name":"assessmentResolver","inputs":[],"outputs":[{"name":"","type":"address","internalType":"address"}],"stateMutability":"view"},{"type":"function","name":"createImpact","inputs":[{"name":"garden","type":"address","internalType":"address"},{"name":"tokenId","type":"uint256","internalType":"uint256"},{"name":"workTitle","type":"string","internalType":"string"},{"name":"impactDescription","type":"string","internalType":"string"},{"name":"proofIPFS","type":"string","internalType":"string"},{"name":"workUID","type":"bytes32","internalType":"bytes32"}],"outputs":[{"name":"impactUID","type":"bytes32","internalType":"bytes32"}],"stateMutability":"nonpayable"},{"type":"function","name":"createMilestone","inputs":[{"name":"garden","type":"address","internalType":"address"},{"name":"milestoneTitle","type":"string","internalType":"string"},{"name":"milestoneDescription","type":"string","internalType":"string"},{"name":"milestoneMeta","type":"string","internalType":"string"}],"outputs":[{"name":"milestoneUID","type":"bytes32","internalType":"bytes32"}],"stateMutability":"nonpayable"},{"type":"function","name":"createProject","inputs":[{"name":"garden","type":"address","internalType":"address"},{"name":"operator","type":"address","internalType":"address"},{"name":"name","type":"string","internalType":"string"},{"name":"description","type":"string","internalType":"string"},{"name":"location","type":"string","internalType":"string"},{"name":"bannerImage","type":"string","internalType":"string"}],"outputs":[{"name":"projectUID","type":"bytes32","internalType":"bytes32"}],"stateMutability":"nonpayable"},{"type":"function","name":"gardenProjects","inputs":[{"name":"garden","type":"address","internalType":"address"}],"outputs":[{"name":"projectUID","type":"bytes32","internalType":"bytes32"}],"stateMutability":"view"},{"type":"function","name":"gardenToken","inputs":[],"outputs":[{"name":"","type":"address","internalType":"address"}],"stateMutability":"view"},{"type":"function","name":"getProjectUID","inputs":[{"name":"garden","type":"address","internalType":"address"}],"outputs":[{"name":"","type":"bytes32","internalType":"bytes32"}],"stateMutability":"view"},{"type":"function","name":"initialize","inputs":[{"name":"_owner","type":"address","internalType":"address"},{"name":"_gardenToken","type":"address","internalType":"address"},{"name":"_workApprovalResolver","type":"address","internalType":"address"},{"name":"_assessmentResolver","type":"address","internalType":"address"}],"outputs":[],"stateMutability":"nonpayable"},{"type":"function","name":"isSupported","inputs":[],"outputs":[{"name":"","type":"bool","internalType":"bool"}],"stateMutability":"view"},{"type":"function","name":"owner","inputs":[],"outputs":[{"name":"","type":"address","internalType":"address"}],"stateMutability":"view"},{"type":"function","name":"proxiableUUID","inputs":[],"outputs":[{"name":"","type":"bytes32","internalType":"bytes32"}],"stateMutability":"view"},{"type":"function","name":"removeProjectAdmin","inputs":[{"name":"garden","type":"address","internalType":"address"},{"name":"admin","type":"address","internalType":"address"}],"outputs":[],"stateMutability":"nonpayable"},{"type":"function","name":"renounceOwnership","inputs":[],"outputs":[],"stateMutability":"nonpayable"},{"type":"function","name":"setAssessmentResolver","inputs":[{"name":"_assessmentResolver","type":"address","internalType":"address"}],"outputs":[],"stateMutability":"nonpayable"},{"type":"function","name":"setGardenToken","inputs":[{"name":"_gardenToken","type":"address","internalType":"address"}],"outputs":[],"stateMutability":"nonpayable"},{"type":"function","name":"setWorkApprovalResolver","inputs":[{"name":"_workApprovalResolver","type":"address","internalType":"address"}],"outputs":[],"stateMutability":"nonpayable"},{"type":"function","name":"transferOwnership","inputs":[{"name":"newOwner","type":"address","internalType":"address"}],"outputs":[],"stateMutability":"nonpayable"},{"type":"function","name":"upgradeTo","inputs":[{"name":"newImplementation","type":"address","internalType":"address"}],"outputs":[],"stateMutability":"nonpayable"},{"type":"function","name":"upgradeToAndCall","inputs":[{"name":"newImplementation","type":"address","internalType":"address"},{"name":"data","type":"bytes","internalType":"bytes"}],"outputs":[],"stateMutability":"payable"},{"type":"function","name":"workApprovalResolver","inputs":[],"outputs":[{"name":"","type":"address","internalType":"address"}],"stateMutability":"view"},{"type":"event","name":"AdminChanged","inputs":[{"name":"previousAdmin","type":"address","indexed":false,"internalType":"address"},{"name":"newAdmin","type":"address","indexed":false,"internalType":"address"}],"anonymous":false},{"type":"event","name":"BeaconUpgraded","inputs":[{"name":"beacon","type":"address","indexed":true,"internalType":"address"}],"anonymous":false},{"type":"event","name":"GAPImpactCreated","inputs":[{"name":"projectUID","type":"bytes32","indexed":true,"internalType":"bytes32"},{"name":"impactUID","type":"bytes32","indexed":true,"internalType":"bytes32"},{"name":"workUID","type":"bytes32","indexed":false,"internalType":"bytes32"}],"anonymous":false},{"type":"event","name":"GAPMilestoneCreated","inputs":[{"name":"projectUID","type":"bytes32","indexed":true,"internalType":"bytes32"},{"name":"milestoneUID","type":"bytes32","indexed":true,"internalType":"bytes32"},{"name":"title","type":"string","indexed":false,"internalType":"string"}],"anonymous":false},{"type":"event","name":"GAPOperationFailed","inputs":[{"name":"garden","type":"address","indexed":true,"internalType":"address"},{"name":"operation","type":"string","indexed":false,"internalType":"string"},{"name":"reason","type":"string","indexed":false,"internalType":"string"}],"anonymous":false},{"type":"event","name":"GAPProjectAdminAdded","inputs":[{"name":"projectUID","type":"bytes32","indexed":true,"internalType":"bytes32"},{"name":"admin","type":"address","indexed":true,"internalType":"address"}],"anonymous":false},{"type":"event","name":"GAPProjectAdminRemoved","inputs":[{"name":"projectUID","type":"bytes32","indexed":true,"internalType":"bytes32"},{"name":"admin","type":"address","indexed":true,"internalType":"address"}],"anonymous":false},{"type":"event","name":"GAPProjectCreated","inputs":[{"name":"projectUID","type":"bytes32","indexed":true,"internalType":"bytes32"},{"name":"garden","type":"address","indexed":true,"internalType":"address"},{"name":"projectName","type":"string","indexed":false,"internalType":"string"}],"anonymous":false},{"type":"event","name":"Initialized","inputs":[{"name":"version","type":"uint8","indexed":false,"internalType":"uint8"}],"anonymous":false},{"type":"event","name":"OwnershipTransferred","inputs":[{"name":"previousOwner","type":"address","indexed":true,"internalType":"address"},{"name":"newOwner","type":"address","indexed":true,"internalType":"address"}],"anonymous":false},{"type":"event","name":"Upgraded","inputs":[{"name":"implementation","type":"address","indexed":true,"internalType":"address"}],"anonymous":false},{"type":"error","name":"GAPNotSupported","inputs":[]},{"type":"error","name":"KarmaGAPNotSupported","inputs":[]},{"type":"error","name":"NotAssessmentResolver","inputs":[]},{"type":"error","name":"NotAuthorizedCaller","inputs":[]},{"type":"error","name":"NotGardenToken","inputs":[]},{"type":"error","name":"NotWorkApprovalResolver","inputs":[]},{"type":"error","name":"ProjectAlreadyExists","inputs":[{"name":"garden","type":"address","internalType":"address"}]},{"type":"error","name":"ProjectNotFound","inputs":[{"name":"garden","type":"address","internalType":"address"}]},{"type":"error","name":"ZeroAddress","inputs":[]}],"bytecode":{"object":"0x60a0806040523460d657306080525f549060ff8260081c166084575060ff80821603604b575b60405161344790816100db82396080518181816107240152818161081e0152610b2b0152f35b60ff90811916175f557f7f26b83ff96e1f2b6a682f133852f6798a09c465da95921460cefb3847402498602060405160ff8152a15f6025565b62461bcd60e51b815260206004820152602760248201527f496e697469616c697a61626c653a20636f6e747261637420697320696e697469604482015266616c697a696e6760c81b6064820152608490fd5b5f80fdfe60a060409080825260049081361015610016575f80fd5b5f3560e01c9081632744700514610d645750806331c0de9c14610cbe5780633659cfe614610b05578063481a80f114610a855780634f1ef286146107d057806352d1902d146107115780636ed7247914610663578063715018a61461060857806374427937146105e35780638ae4d281146105135780638da5cb5b146104eb578063a1d4b07f1461041e578063a8c9cbfd146104a8578063b709b7fd14610455578063c4e5f7311461041e578063d21a7dfa146103f6578063d9f1376b146103ce578063db61d65c146103a6578063df79e6a814610363578063f2fde38b146102d45763f8c8765e14610107575f80fd5b346102d05760803660031901126102d057610120610de3565b610128610df9565b916001600160a01b039160443583811691908290036102d057606435938085168095036102d0575f549560ff8760081c1615968780986102c3575b80156102ac575b156102525760ff1981166001175f5587610240575b5081831615610230571692831561022257506101bc906101ae60ff5f5460081c166101a981613030565b613030565b6101b733612cf0565b612cf0565b6bffffffffffffffffffffffff60a01b9182606554161760655581606654161760665560675416176067556101ed57005b60207f7f26b83ff96e1f2b6a682f133852f6798a09c465da95921460cefb38474024989161ff00195f54165f555160018152a1005b865163d92e233d60e01b8152fd5b875163d92e233d60e01b81528590fd5b61ffff1916610101175f90815561017f565b885162461bcd60e51b8152602081880152602e60248201527f496e697469616c697a61626c653a20636f6e747261637420697320616c72656160448201526d191e481a5b9a5d1a585b1a5e995960921b6064820152608490fd5b50303b15801561016a5750600160ff82161461016a565b50600160ff821610610163565b5f80fd5b50346102d05760203660031901126102d0576102ee610de3565b916102f7612c98565b6001600160a01b038316156103115761030f83612cf0565b005b906020608492519162461bcd60e51b8352820152602660248201527f4f776e61626c653a206e6577206f776e657220697320746865207a65726f206160448201526564647265737360d01b6064820152fd5b346102d05760203660031901126102d05761037c610de3565b610384612c98565b606780546001600160a01b0319166001600160a01b0392909216919091179055005b82346102d0575f3660031901126102d05760655490516001600160a01b039091168152602090f35b82346102d0575f3660031901126102d05760665490516001600160a01b039091168152602090f35b82346102d0575f3660031901126102d05760675490516001600160a01b039091168152602090f35b82346102d05760203660031901126102d0576020906001600160a01b03610443610de3565b165f5260688252805f20549051908152f35b50346102d05760203660031901126102d05761046f610de3565b610477612c98565b6001600160a01b031691821561049b57606580546001600160a01b03191684179055005b5163d92e233d60e01b8152fd5b346102d05760203660031901126102d0576104c1610de3565b6104c9612c98565b606680546001600160a01b0319166001600160a01b0392909216919091179055005b82346102d0575f3660031901126102d05760335490516001600160a01b039091168152602090f35b5090346102d05760c03660031901126102d05761052e610de3565b91610537610df9565b6001600160401b036044358181116102d0576105569036908501610e0f565b906064358381116102d05761056e9036908701610e0f565b9290916084358581116102d0576105889036908901610e0f565b96909560a4359081116102d0576105a29036908a01610e0f565b606554909b9199906001600160a01b031633036105d557509160209a979593916105ce9997959361218c565b9051908152f35b8a516308a59e4960e11b8152fd5b82346102d0575f3660031901126102d0576020906105ff612a21565b90519015158152f35b346102d0575f3660031901126102d057610620612c98565b603380546001600160a01b031981169091555f906001600160a01b03167f8be0079c531659141344cd1fd0a4f28419497f9722a3daafe3b4186f6b6457e08280a3005b5090346102d05760c03660031901126102d05761067e610de3565b916001600160401b03906044358281116102d05761069f9036908301610e0f565b90926064358181116102d0576106b89036908501610e0f565b9290916084359081116102d0576106d29036908601610e0f565b60665490969195906001600160a01b031633036107035750916105ce959391602098959360a4359660243590611746565b87516310a8fa8960e31b8152fd5b50346102d0575f3660031901126102d0577f00000000000000000000000000000000000000000000000000000000000000006001600160a01b0316300361076857602082515f805160206133fb8339815191528152f35b6020608492519162461bcd60e51b8352820152603860248201527f555550535570677261646561626c653a206d757374206e6f742062652063616c60448201527f6c6564207468726f7567682064656c656761746563616c6c00000000000000006064820152fd5b50816003193601126102d0576107e4610de3565b916024356001600160401b0381116102d057366023820112156102d0576108149036906024818601359101610f0b565b6001600160a01b037f0000000000000000000000000000000000000000000000000000000000000000811692919061084e30851415611529565b61086a5f805160206133fb83398151915294828654161461158a565b610872612c98565b7f4910fdfa16fed3260ed0e7147f7cc6da11a60208b5b9406d12a635614ffd91435460ff16156108aa57505050505061030f906131b3565b85168251936352d1902d60e01b855260209485818881865afa5f9181610a56575b5061092a57845162461bcd60e51b8152808801879052602e60248201527f45524331393637557067726164653a206e657720696d706c656d656e7461746960448201526d6f6e206973206e6f74205555505360901b6064820152608490fd5b9591929503610a01575061093d856131b3565b7fbc7cd75a20ee27fd9adebab32041f755214dbc6bffa90cc0225b39da2e5c2d3b5f80a28251158015906109f9575b61097257005b61030f935f8083519561098487610eb4565b602787527f416464726573733a206c6f772d6c6576656c2064656c65676174652063616c6c86880152660819985a5b195960ca1b858801528581519101845af4913d156109ef573d6109e16109d882610ef0565b92519283610ecf565b81525f81943d92013e61335d565b506060925061335d565b50600161096c565b825162461bcd60e51b8152908101849052602960248201527f45524331393637557067726164653a20756e737570706f727465642070726f786044820152681a58589b195555525160ba1b6064820152608490fd5b9091508681813d8311610a7e575b610a6e8183610ecf565b810103126102d05751905f6108cb565b503d610a64565b5090346102d057806003193601126102d057610a9f610de3565b610aa7610df9565b606554909290336001600160a01b0391821614159081610af5575b81610ae6575b50610ad75761030f838361161d565b51637046c88d60e01b81528390fd5b9050606754163314155f610ac8565b8091506066541633141590610ac2565b50346102d0576020806003193601126102d057610b20610de3565b926001600160a01b037f00000000000000000000000000000000000000000000000000000000000000008116610b5830821415611529565b610b745f805160206133fb83398151915291838354161461158a565b610b7c612c98565b825191610b8883610e99565b5f83527f4910fdfa16fed3260ed0e7147f7cc6da11a60208b5b9406d12a635614ffd91435460ff1615610bc45750505050505061030f906131b3565b86169083516352d1902d60e01b815285818881865afa5f9181610c8f575b50610c4157845162461bcd60e51b8152808801879052602e60248201527f45524331393637557067726164653a206e657720696d706c656d656e7461746960448201526d6f6e206973206e6f74205555505360901b6064820152608490fd5b9591929503610a015750610c54856131b3565b7fbc7cd75a20ee27fd9adebab32041f755214dbc6bffa90cc0225b39da2e5c2d3b5f80a2825115801590610c885761097257005b505f61096c565b9091508681813d8311610cb7575b610ca78183610ecf565b810103126102d05751905f610be2565b503d610c9d565b5090346102d05760803660031901126102d057610cd9610de3565b916001600160401b036024358181116102d057610cf99036908401610e0f565b6044929192358281116102d057610d139036908601610e0f565b9390926064359081116102d057610d2d9036908701610e0f565b60675490989196906001600160a01b03163303610d565750916105ce959391602098959361114e565b875163be4b005560e01b8152fd5b905082346102d0573660031901126102d057610d7e610de3565b610d86610df9565b606554909290336001600160a01b0391821614159081610dd3575b81610dc4575b50610db65761030f8383610f41565b637046c88d60e01b81528390fd5b90506067541633141585610da7565b8091506066541633141590610da1565b600435906001600160a01b03821682036102d057565b602435906001600160a01b03821682036102d057565b9181601f840112156102d0578235916001600160401b0383116102d057602083818601950101116102d057565b6001600160401b038111610e4f57604052565b634e487b7160e01b5f52604160045260245ffd5b60c081019081106001600160401b03821117610e4f57604052565b604081019081106001600160401b03821117610e4f57604052565b602081019081106001600160401b03821117610e4f57604052565b606081019081106001600160401b03821117610e4f57604052565b90601f801991011681019081106001600160401b03821117610e4f57604052565b6001600160401b038111610e4f57601f01601f191660200190565b929192610f1782610ef0565b91610f256040519384610ecf565b8294818452818301116102d0578281602093845f960137010152565b6001600160a01b039081165f818152606860205260408120549193909290821561106457610f6d612a21565b156110645781610f7b612aa6565b16803b156102d05760405163dbf7117760e01b8152600481018590526001600160a01b0383166024820152905f908290604490829084905af19081611051575b5061102757505050505f8051602061341b83398151915260c060405160408152600f60408201526e30b232283937b532b1ba20b236b4b760891b60608201526080602082015260136080820152722330b4b632b2103a379030b2321030b236b4b760691b60a0820152a2565b169250907fe023a851f98526fe8096ed8d817f689e99708db1a157b7ef42c34394feea17649080a3565b61105c919550610e3c565b5f935f610fbb565b5050505050565b5f5b83811061107c5750505f910152565b818101518382015260200161106d565b906020916110a58151809281855285808601910161106b565b601f01601f1916010190565b9060209081835280518284015201519060408082015260018060a01b0382511660608201526001600160401b0360208301511660808201526040820151151560a0820152606082015160c082015261010060a061111e608085015160c060e086015261012085019061108c565b93015191015290565b90918060409360208452816020850152848401375f828201840152601f01601f1916010190565b95939560018060a01b0380911696875f5260209560688752604097885f20549687156114b85761117c612a21565b1561143e57936112da61128c6112b960218c97878f97611344995f9f9e9d9c6112cc9a8f8f8f906111bb6111c06111bb61121d9361129b963691610f0b565b6130d0565b9585519a61121660348d808881019b693d913a34ba3632911d1160b11b8d526111f2815180928c602a8601910161106b565b8101691116113a32bc3a111d1160b11b602a8201520390601482019052018d610ecf565b3691610f0b565b9383519361127c6044868561123b8183019a8b81519384920161106b565b81017f222c2274797065223a2270726f6a6563742d6d696c6573746f6e65222c22646187820152633a30911d60e11b85820152036024810188520186610ecf565b519b8c99518092848c019061106b565b8801925193849184019061106b565b01918c83013701607d60f81b8a820152036001810184520182610ecf565b8b5193849187808401528d83019061108c565b03601f198101845283610ecf565b8951916112e683610e63565b8b83528885840152888b84015287606084015260808301528760a083015261130c612b1c565b918a519261131984610e7e565b835284830152611327612aa6565b1690895197888094819363f17325e760e01b8352600483016110b1565b03925af15f948161140f575b506113d15750505050816113ca61139c925f8051602061341b83398151915294519383859485528401604090600f81526e6372656174654d696c6573746f6e6560881b60208201520190565b90838203908401526040906012815271105d1d195cdd185d1a5bdb8819985a5b195960721b60208201520190565b0390a25f90565b90919350829496955061140a7f75224e84b3f867a419e2f006f56603587110887cfdc90de524124849a6d6c31d93975192839283611127565b0390a3565b9094508581813d8311611437575b6114278183610ecf565b810103126102d05751935f611350565b503d61141d565b5050505050505050816113ca611489925f8051602061341b83398151915294519383859485528401604090600f81526e6372656174654d696c6573746f6e6560881b60208201520190565b9083820390840152604090601381527210da185a5b881b9bdd081cdd5c1c1bdc9d1959606a1b60208201520190565b5050505050505050816113ca611503925f8051602061341b83398151915294519383859485528401604090600f81526e6372656174654d696c6573746f6e6560881b60208201520190565b9083820390840152604090600a815269139bc81c1c9bda9958dd60b21b60208201520190565b1561153057565b60405162461bcd60e51b815260206004820152602c60248201527f46756e6374696f6e206d7573742062652063616c6c6564207468726f7567682060448201526b19195b1959d85d1958d85b1b60a21b6064820152608490fd5b1561159157565b60405162461bcd60e51b815260206004820152602c60248201527f46756e6374696f6e206d7573742062652063616c6c6564207468726f7567682060448201526b6163746976652070726f787960a01b6064820152608490fd5b906115f582610ef0565b6116026040519182610ecf565b8281528092611613601f1991610ef0565b0190602036910137565b6001600160a01b039081165f818152606860205260408120549193909290821561106457611649612a21565b156110645781611657612aa6565b16803b156102d057604051632c1a4e4360e21b8152600481018590526001600160a01b0383166024820152905f908290604490829084905af19081611733575b5061170957505050505f8051602061341b83398151915260c06040516040815260126040820152713932b6b7bb32a83937b532b1ba20b236b4b760711b60608201526080602082015260166080820152752330b4b632b2103a37903932b6b7bb329030b236b4b760511b60a0820152a2565b169250907fbaf2fc70bb642b70a5f9f5861aa45f7e2b104b87ec20f8b2fcfa3cd54fb138069080a3565b61173e919550610e3c565b5f935f611697565b6001600160a01b03165f81815260686020526040902054909897909693949193919287156120fd57611776612a21565b156120855762015180420495620afa6c8701809711611fb15762023ab180880481810298811592828b0414831715611fb1576117e4996117b591613242565b906117d26117c76105b4840484613242565b618eac8404906130c3565b61016d9a8b9162023ab0850490613242565b0492610190808302928304141715611fb15761180090836130c3565b988281029081048303611fb15782606461182461182c936118329660021c906130c3565b910490613242565b90613242565b9687600502600581048903611fb157600281018111611fb15760026099910104978860990290609982048a03611fb15760028201809211611fb157600561187a920490613242565b97600189018911611fb157600a8110156120735760038101809111611fb157905b6002821115612053575b90604051916118b383610e7e565b6004835260203681850137600490815b61201057505060016118d76118de926132f6565b99016132f6565b6118f0610e10620151804206046132f6565b611905603c610e1062015180420606046132f6565b90603c62015180420606926040519361191d85610e7e565b6002855260203681870137600290815b611fc55750506040519b858d9651908160208901916020019161194f9261106b565b860190602d60f81b91826020820152815191826021830191602001916119749261106b565b01906021820152815191826022830191602001916119919261106b565b0160228101601560fa1b9052815191826023830191602001916119b39261106b565b0190601d60f91b91826023820152815191826024830191602001916119d79261106b565b01906024820152815191826025830191602001916119f49261106b565b016025810164171818182d60d91b905203600a81018852602a01611a189088610ecf565b3690611a2392610f0b565b611a2c906130d0565b611a37368886610f0b565b611a40906130d0565b95604051968792693d913a34ba3632911d1160b11b602085015280519081602a86019160200191611a709261106b565b8301691116113a32bc3a111d1160b11b602a82015281519182603483019160200191611a9b9261106b565b016e11161139ba30b93a2230ba32911d1160891b603482015281519060438101826020850191611aca9261106b565b016c11161132b7322230ba32911d1160991b604382015281519182605083019160200191611af79261106b565b0103603081018652605001611b0c9086610ecf565b3690611b1792610f0b565b611b20906130d0565b933690611b2c92610f0b565b611b35906130d0565b92604051938491602083017f222c2264656c6976657261626c6573223a5b7b226e616d65223a22576f726b209052604083017f45766964656e6365222c2270726f6f66223a22697066733a2f2f000000000000905280519081605a85019160200191611ba09261106b565b8201701116113232b9b1b934b83a34b7b7111d1160791b605a82015281519182606b83019160200191611bd29261106b565b0162227d5d60e81b606b82015203604e81018452606e01611bf39084610ecf565b611bfc4661324f565b90611c069061324f565b60405190611c1382610eb4565b6040808352366020840137604051611c2a81610e7e565b601081526f181899199a1a9b1b9c1cb0b131b232b360811b60208201525f5b60208110611f3e5750505f9594611dbc60208096611e5596611dd196611d7360a1611ddf98604051938491888301967f2c226c696e6b73223a5b7b2274797065223a226f74686572222c2275726c223a88527f2268747470733a2f2f677265656e676f6f64732e6d652f67617264656e2f00006040850152611cd4815180928c605e8801910161106b565b8301602f60f81b605e820152611cf3825180938c605f8501910161106b565b016705eeedee4d65e60f60c31b605f820152611d18825180938b60678501910161106b565b017f222c226c6162656c223a225669657720696e20477265656e20476f6f6473227d60678201527f5d2c2274797065223a2270726f6a6563742d757064617465227d0000000000006087820152036081810184520182610ecf565b611db06040519684611d8e899651809289808a01910161106b565b8501611da28251809389808501910161106b565b01915180938684019061106b565b01038084520182610ecf565b6040519283918680840152604083019061108c565b03601f198101835282610ecf565b60405190611dec82610e63565b878252858483015285604083015284606083015260808201528460a0820152611e13612b1c565b9060405191611e2183610e7e565b8252838201526001600160a01b03611e37612aa6565b169060405195868094819363f17325e760e01b8352600483016110b1565b03925af15f9281611f0a575b50611ed7575050505f8051602061341b83398151915260405160408152806113ca611ea960408301604090600c81526b18dc99585d19525b5c1858dd60a21b60208201520190565b82810360208401526040906012815271105d1d195cdd185d1a5bdb8819985a5b195960721b60208201520190565b90919392507f97510c026a2cd5888418c1c8cf2e9bf590175dcd88ae48a3c3dc18bd7abbae1e60208395604051908152a3565b9092506020813d602011611f36575b81611f2660209383610ecf565b810103126102d05751915f611e61565b3d9150611f19565b88811a906001600160f81b0319600f81611f5e600486901c831687613090565b5116908360011b9484860460021485151715611fb157611f8c925f1a611f84878b613090565b531685613090565b511691600181018111611fb157611faa600180945f1a920187613090565b5301611c49565b634e487b7160e01b5f52601160045260245ffd5b6030600a82068101809111611fb1575f19830191838311611fb15761200992600a9260f81b6001600160f81b0319165f1a90612001908a613090565b5304916132ea565b908161192d565b6030600a82068101809111611fb1575f19830191838311611fb15761204c92600a9260f81b6001600160f81b0319165f1a906120019088613090565b90816118c3565b60018101809111156118a557634e487b7160e01b5f52601160045260245ffd5b6008198101908111611fb1579061189b565b5050505050505050505f8051602061341b83398151915260405160408152806113ca6120ce60408301604090600c81526b18dc99585d19525b5c1858dd60a21b60208201520190565b8281036020840152604090601381527210da185a5b881b9bdd081cdd5c1c1bdc9d1959606a1b60208201520190565b5050505050505050505f8051602061341b83398151915260405160408152806113ca61214660408301604090600c81526b18dc99585d19525b5c1858dd60a21b60208201520190565b8281036020840152604090600a815269139bc81c1c9bda9958dd60b21b60208201520190565b600d81526c18dc99585d19541c9bda9958dd609a1b602082015260400190565b979998909396949592919261219f612a21565b156129b8576001600160a01b0389165f90815260686020526040902054612997579899979896978997905f60206122676001600160a01b036121df612aa6565b16809c6040516001858201528481526121f781610e7e565b6040519161220483610e63565b6001600160a01b031682528482018690526001604083015260608201869052608082015260a08101859052612237612d38565b906040519161224583610e7e565b82528482015260405194858094819363f17325e760e01b8352600483016110b1565b03925af15f9181612963575b506122e85750505050505050505050505f8051602061341b8339815191526040516040815260406122a581830161216c565b937f50726f6a656374206174746573746174696f6e206661696c65640000000000006020848703968782870152601a8152015260018060a01b0316930190a25f90565b60206123648b9c9e9a9c5f939e999a9c9e9a60018060a01b038b168552606884528b604086205560405160018582015284815261232481610e7e565b6040519161233183610e63565b6001600160a01b0316825284820186905260016040830152606082018d9052608082015260a08101859052612237612eb4565b03925af19081612932575b5091612460936111bb9261245a94155f1461292d57604051604081525f8051602061341b8339815191526123a56040830161216c565b917f4d656d6265724f66206174746573746174696f6e206661696c656400000000006020828503948582850152601b81520152604060018060a01b038d16930190a25b8115612910578161243a60366111bb93612452956040519485927568747470733a2f2f7733732e6c696e6b2f697066732f60501b60208501528484013781015f83820152036016810184520182610ecf565b9e5b61244a6111bb368a8c610f0b565b9d3691610f0b565b993691610f0b565b996130d0565b9761246c368385610f0b565b9661247788516115eb565b985f9b5f5b8a518110156125e75761248f818c613090565b519d6001600160f81b03198f16604160f81b811015806125d9575b156124f9575060ff8f60209060f86080526080511c0111611fb1578c6124cf826130b5565b9f60ff60f81b906080511c6020016080511b165f1a916124ee91613090565b536001905b0161247c565b9e508e606160f81b811015806125cb575b1561253057508c61251a826130b5565b9f5f1a9161252791613090565b536001906124f3565b600360fc1b81101590816125bc575b501561254f578c61251a826130b5565b9d600160fd1b14612563575b6001906124f3565b8d15158061258e575b1561255b5761257a8e6130b5565b9d612585908d613090565b602d905361255b565b508d5f19810111611fb1578b8e6125b3602d60f81b9260ff60f81b925f190190613090565b5116141561256c565b603960f81b101590508f61253f565b50603d60f91b81111561250a565b50602d60f91b8111156124aa565b5093979b909498509991959998909498801515806128e2575b6128d4575b90816126178c999897969594936115eb565b915f5b8281106128985750505060209461275a60846127b0965f9996611dd19661264361276f976130d0565b91604051968794693d913a34ba3632911d1160b11b8e87015261267081518f928193602a8a01910161106b565b8501701116113232b9b1b934b83a34b7b7111d1160791b602a8201526126a082518f938194603b8501910161106b565b01751116113637b1b0ba34b7b727b324b6b830b1ba111d1160511b603b8201526126d3825180938f60518501910161106b565b016d11161134b6b0b3b2aaa926111d1160911b60518201526126fe825180938e605f8501910161106b565b016911161139b63ab3911d1160b11b605f820152612725825180938d60698501910161106b565b017f222c2274797065223a2270726f6a6563742d64657461696c73227d00000000006069820152036064810184520182610ecf565b6040519283918780840152604083019061108c565b6040519061277c82610e63565b6001600160a01b038a1682528482018690526001604083015260608201889052608082015260a08101859052612237612b1c565b03925af19081612869575b50612827575050505f8051602061341b8339815191526040516040815260406127e581830161216c565b937f44657461696c73206174746573746174696f6e206661696c65640000000000006020848703968782870152601a8152015260018060a01b0316930190a290565b7f03d364024f6102dfc5e23f488f1e462c8e58afc717a21875496e0adc2132d1b491929361286360405192839260018060a01b03169683611127565b0390a390565b6020809294503d8311612891575b6128818183610ecf565b810103126102d05784915f6127bb565b503d612877565b60019192939495969798999a5060ff60f81b6128b48285613090565b51165f1a6128c28287613090565b5301908c99989796959493929161261a565b6128dd906132ea565b612605565b505f198101818111611fb157602d60f81b906001600160f81b0319906129089085613090565b511614612600565b50506124526111bb60405161292481610e99565b5f81529e61243c565b6123e8565b60209081949293943d831161295c575b61294c8183610ecf565b810103126102d05791905f61236f565b503d612942565b9091506020813d60201161298f575b8161297f60209383610ecf565b810103126102d05751905f612273565b3d9150612972565b60405163e0a460cd60e01b81526001600160a01b038a166004820152602490fd5b50505050505050509091505f8051602061341b83398151915260405160408152806113ca6129e86040830161216c565b94828603602084015260018060a01b031694604090601381527210da185a5b881b9bdd081cdd5c1c1bdc9d1959606a1b60208201520190565b600a46148015612a9a575b8015612a8f575b8015612a83575b8015612a77575b8015612a6c575b8015612a61575b8015612a585790565b50610530461490565b506105314614612a4f565b5061a4ec4614612a48565b5062014a344614612a41565b5062aa36a74614612a3a565b5061a4b14614612a33565b5062aa37dc4614612a2c565b61a4b14614612b045761a4ec4614612aec5762014a344614612ad457604051633cb9b43760e01b8152600490fd5b734ca7230fb6b78875bdd1b1e4f665b7b7f189123990565b738791ac8c099314bb1d1514d76de13a1e8027595090565b736dc1d6b864e8bef815806f9e4677123496e1202690565b600a4614612c745762aa37dc4614612c505761a4b14614612c2c5762aa36a74614612c085762014a344614612be45761a4ec4614612bc0576105314614612b9c576105304614612b7857604051633cb9b43760e01b8152600490fd5b7f76f38d22f88a0df52a8ff0763e1c0af912b0822e758be2e0c9cded91aef71d2290565b7f1b4365b92aa47de3f67cdfb53127518381c1e66e0d9e0f8a15bbfa725095096790565b7f9895e82115987d8e3e02b35ced92e6a0509293890333f58f50ec291b34853dac90565b7f9b06f811608d135f913c18295486693fe626f35e213a7d132be87b1f952e508c90565b7f2c270e35bfcdc4d611f0e9d3d2ab6924ec6c673505abc22a1dd07e19b67211af90565b7f16bfe4783b7a9c743c401222c56a07ecb77ed42afc84b61ff1f62f5936c0b9d790565b7fd193e75f420a69910f98fa79cacdfd9d0dcbf5933edce8f8bde9a10bd204d99690565b7f70a3f615f738fc6a4f56100692ada93d947c028b840940d97af7e7d6f0fa057790565b6033546001600160a01b03163303612cac57565b606460405162461bcd60e51b815260206004820152602060248201527f4f776e61626c653a2063616c6c6572206973206e6f7420746865206f776e65726044820152fd5b603380546001600160a01b039283166001600160a01b0319821681179092559091167f8be0079c531659141344cd1fd0a4f28419497f9722a3daafe3b4186f6b6457e05f80a3565b600a4614612e905762aa37dc4614612e6c5761a4b14614612e485762aa36a74614612e245762014a344614612e005761a4ec4614612ddc576105314614612db8576105304614612d9457604051633cb9b43760e01b8152600490fd5b7f9de9294fbb62391b393332a33bfc28b4e0e728dd094aee4bda3955df62f8401a90565b7ff6b89107f8096220051240b89a48abb66e0a23e529c914953b80f5a2bc5ea44c90565b7ff3f753b41e04d1052b5a5ec7624d1dfdb6c2da288a985120e477ddbcac07102290565b7f5ddd6b7a11406771308431ca9bd146cc717848b74b52993a532dc1aad0ccc83f90565b7fec77990a252b54b17673955c774b9712766de5eecb22ca5aa2c440e0e93257fb90565b7fac2a06e955a7e25e6729efe1a6532237e3435b21ccd3dc827ae3c94e624d25b390565b7ff9bbd118dd100459a7d093403af21c6e7f847fd7f331b7a4e6bfb94a1366bd7690565b7f5b873b6e7a16207b526dde366e8164e95bcda2f009272306519667c5e94d219190565b600a461461300c5762aa37dc4614612fe85761a4b14614612fc45762aa36a74614612fa05762014a344614612f7c5761a4ec4614612f58576105314614612f34576105304614612f1057604051633cb9b43760e01b8152600490fd5b7f222fa508c0cdb5954905dd30611a940f6402da2b3c49ce0c88d33e22f72121e790565b7fb7278b94cea2b9f1a8fdd1c4bb52ed66906516a0ff9d59d0f80daffcf147ea5d90565b7fb4186a2401f40a4c78768941ef9140e1fbe5fe595053a65d44f31d6df180b71290565b7f857398d86e2d31bec5af882b950ee7b00d1fefefba2432737ab28b68ee041eb890565b7fdd87b3500457931252424f4439365534ba72a367503a8805ff3482353fb9030190565b7f5f430aec9d04f0dcb3729775c5dfe10752e436469a7607f8c64ae44ef996e47790565b7f611f9655188f372e27dce116a803fa9081ca3e2907986368d54fcad538ca385390565b7f7fbb8a65924d8ad2ae12356e04b1418043e8361ba3b1b6c917de2e23df3ec81c90565b1561303757565b60405162461bcd60e51b815260206004820152602b60248201527f496e697469616c697a61626c653a20636f6e7472616374206973206e6f74206960448201526a6e697469616c697a696e6760a81b6064820152608490fd5b9081518110156130a1570160200190565b634e487b7160e01b5f52603260045260245ffd5b5f198114611fb15760010190565b91908201809211611fb157565b905f805b835181101561311957601160f91b6001600160f81b03196130f58387613090565b511614613105575b6001016130d4565b906131116001916130b5565b9190506130fd565b5080156131b05761312e6131339184516130c3565b6115eb565b5f925f5b81518110156131a9576001906001600160f81b0319601160f91b8161315c8487613090565b51161461318e575b61316e8285613090565b51169561318761317d826130b5565b975f1a9186613090565b5301613137565b605c6131a361319c896130b5565b9887613090565b53613164565b5090925050565b50565b803b156131e7575f805160206133fb83398151915280546001600160a01b0319166001600160a01b03909216919091179055565b60405162461bcd60e51b815260206004820152602d60248201527f455243313936373a206e657720696d706c656d656e746174696f6e206973206e60448201526c1bdd08184818dbdb9d1c9858dd609a1b6064820152608490fd5b91908203918211611fb157565b80156132cc57805f81805b6132b45750613268816115eb565b925b61327357505090565b5f198101908111611fb1578091600a9160308383068101809111611fb15760f81b6001600160f81b0319165f1a906132ab9086613090565b5304908161326a565b91506132c1600a916130b5565b91048083929161325a565b506040516132d981610e7e565b60018152600360fc1b602082015290565b8015611fb1575f190190565b6040519061330382610e7e565b6002825260203681840137600290815b61331c57505090565b600a6030918181068301809311611fb1575f198401848111611fb1576133569360f81b6001600160f81b0319165f1a906120019087613090565b9081613313565b919290156133bf5750815115613371575090565b3b1561337a5790565b60405162461bcd60e51b815260206004820152601d60248201527f416464726573733a2063616c6c20746f206e6f6e2d636f6e74726163740000006044820152606490fd5b8251909150156133d25750805190602001fd5b60405162461bcd60e51b8152602060048201529081906133f690602483019061108c565b0390fdfe360894a13ba1a3210667c828492db98dca3e2076cc3735a920a3ca505d382bbce6f1f105a83ab395dc531f1e5265522ea81ac6eaec25cc579b75825a72fc5dcba164736f6c6343000819000a","linkReferences":{}},"methodIdentifiers":{"addProjectAdmin(address,address)":"27447005","assessmentResolver()":"d21a7dfa","createImpact(address,uint256,string,string,string,bytes32)":"6ed72479","createMilestone(address,string,string,string)":"31c0de9c","createProject(address,address,string,string,string,string)":"8ae4d281","gardenProjects(address)":"c4e5f731","gardenToken()":"db61d65c","getProjectUID(address)":"a1d4b07f","initialize(address,address,address,address)":"f8c8765e","isSupported()":"74427937","owner()":"8da5cb5b","proxiableUUID()":"52d1902d","removeProjectAdmin(address,address)":"481a80f1","renounceOwnership()":"715018a6","setAssessmentResolver(address)":"df79e6a8","setGardenToken(address)":"b709b7fd","setWorkApprovalResolver(address)":"a8c9cbfd","transferOwnership(address)":"f2fde38b","upgradeTo(address)":"3659cfe6","upgradeToAndCall(address,bytes)":"4f1ef286","workApprovalResolver()":"d9f1376b"},"id":144}