{"abi":[{"type":"constructor","inputs":[],"stateMutability":"nonpayable"},{"type":"function","name":"addProjectAdmin","inputs":[{"name":"garden","type":"address","internalType":"address"},{"name":"admin","type":"address","internalType":"address"}],"outputs":[],"stateMutability":"nonpayable"},{"type":"function","name":"assessmentResolver","inputs":[],"outputs":[{"name":"","type":"address","internalType":"address"}],"stateMutability":"view"},{"type":"function","name":"createImpact","inputs":[{"name":"garden","type":"address","internalType":"address"},{"name":"tokenId","type":"uint256","internalType":"uint256"},{"name":"workTitle","type":"string","internalType":"string"},{"name":"impactDescription","type":"string","internalType":"string"},{"name":"proofIPFS","type":"string","internalType":"string"},{"name":"workUID","type":"bytes32","internalType":"bytes32"}],"outputs":[{"name":"impactUID","type":"bytes32","internalType":"bytes32"}],"stateMutability":"nonpayable"},{"type":"function","name":"createMilestone","inputs":[{"name":"garden","type":"address","internalType":"address"},{"name":"milestoneTitle","type":"string","internalType":"string"},{"name":"milestoneDescription","type":"string","internalType":"string"},{"name":"milestoneMeta","type":"string","internalType":"string"}],"outputs":[{"name":"milestoneUID","type":"bytes32","internalType":"bytes32"}],"stateMutability":"nonpayable"},{"type":"function","name":"createProject","inputs":[{"name":"garden","type":"address","internalType":"address"},{"name":"operator","type":"address","internalType":"address"},{"name":"name","type":"string","internalType":"string"},{"name":"description","type":"string","internalType":"string"},{"name":"location","type":"string","internalType":"string"},{"name":"bannerImage","type":"string","internalType":"string"}],"outputs":[{"name":"projectUID","type":"bytes32","internalType":"bytes32"}],"stateMutability":"nonpayable"},{"type":"function","name":"gardenProjects","inputs":[{"name":"garden","type":"address","internalType":"address"}],"outputs":[{"name":"projectUID","type":"bytes32","internalType":"bytes32"}],"stateMutability":"view"},{"type":"function","name":"gardenToken","inputs":[],"outputs":[{"name":"","type":"address","internalType":"address"}],"stateMutability":"view"},{"type":"function","name":"getProjectUID","inputs":[{"name":"garden","type":"address","internalType":"address"}],"outputs":[{"name":"","type":"bytes32","internalType":"bytes32"}],"stateMutability":"view"},{"type":"function","name":"initialize","inputs":[{"name":"_owner","type":"address","internalType":"address"},{"name":"_gardenToken","type":"address","internalType":"address"},{"name":"_workApprovalResolver","type":"address","internalType":"address"},{"name":"_assessmentResolver","type":"address","internalType":"address"}],"outputs":[],"stateMutability":"nonpayable"},{"type":"function","name":"isSupported","inputs":[],"outputs":[{"name":"","type":"bool","internalType":"bool"}],"stateMutability":"view"},{"type":"function","name":"owner","inputs":[],"outputs":[{"name":"","type":"address","internalType":"address"}],"stateMutability":"view"},{"type":"function","name":"proxiableUUID","inputs":[],"outputs":[{"name":"","type":"bytes32","internalType":"bytes32"}],"stateMutability":"view"},{"type":"function","name":"removeProjectAdmin","inputs":[{"name":"garden","type":"address","internalType":"address"},{"name":"admin","type":"address","internalType":"address"}],"outputs":[],"stateMutability":"nonpayable"},{"type":"function","name":"renounceOwnership","inputs":[],"outputs":[],"stateMutability":"nonpayable"},{"type":"function","name":"setAssessmentResolver","inputs":[{"name":"_assessmentResolver","type":"address","internalType":"address"}],"outputs":[],"stateMutability":"nonpayable"},{"type":"function","name":"setGardenToken","inputs":[{"name":"_gardenToken","type":"address","internalType":"address"}],"outputs":[],"stateMutability":"nonpayable"},{"type":"function","name":"setWorkApprovalResolver","inputs":[{"name":"_workApprovalResolver","type":"address","internalType":"address"}],"outputs":[],"stateMutability":"nonpayable"},{"type":"function","name":"transferOwnership","inputs":[{"name":"newOwner","type":"address","internalType":"address"}],"outputs":[],"stateMutability":"nonpayable"},{"type":"function","name":"upgradeTo","inputs":[{"name":"newImplementation","type":"address","internalType":"address"}],"outputs":[],"stateMutability":"nonpayable"},{"type":"function","name":"upgradeToAndCall","inputs":[{"name":"newImplementation","type":"address","internalType":"address"},{"name":"data","type":"bytes","internalType":"bytes"}],"outputs":[],"stateMutability":"payable"},{"type":"function","name":"workApprovalResolver","inputs":[],"outputs":[{"name":"","type":"address","internalType":"address"}],"stateMutability":"view"},{"type":"event","name":"AdminChanged","inputs":[{"name":"previousAdmin","type":"address","indexed":false,"internalType":"address"},{"name":"newAdmin","type":"address","indexed":false,"internalType":"address"}],"anonymous":false},{"type":"event","name":"BeaconUpgraded","inputs":[{"name":"beacon","type":"address","indexed":true,"internalType":"address"}],"anonymous":false},{"type":"event","name":"GAPImpactCreated","inputs":[{"name":"projectUID","type":"bytes32","indexed":true,"internalType":"bytes32"},{"name":"impactUID","type":"bytes32","indexed":true,"internalType":"bytes32"},{"name":"workUID","type":"bytes32","indexed":false,"internalType":"bytes32"}],"anonymous":false},{"type":"event","name":"GAPMilestoneCreated","inputs":[{"name":"projectUID","type":"bytes32","indexed":true,"internalType":"bytes32"},{"name":"milestoneUID","type":"bytes32","indexed":true,"internalType":"bytes32"},{"name":"title","type":"string","indexed":false,"internalType":"string"}],"anonymous":false},{"type":"event","name":"GAPOperationFailed","inputs":[{"name":"garden","type":"address","indexed":true,"internalType":"address"},{"name":"operation","type":"string","indexed":false,"internalType":"string"},{"name":"reason","type":"string","indexed":false,"internalType":"string"}],"anonymous":false},{"type":"event","name":"GAPProjectAdminAdded","inputs":[{"name":"projectUID","type":"bytes32","indexed":true,"internalType":"bytes32"},{"name":"admin","type":"address","indexed":true,"internalType":"address"}],"anonymous":false},{"type":"event","name":"GAPProjectAdminRemoved","inputs":[{"name":"projectUID","type":"bytes32","indexed":true,"internalType":"bytes32"},{"name":"admin","type":"address","indexed":true,"internalType":"address"}],"anonymous":false},{"type":"event","name":"GAPProjectCreated","inputs":[{"name":"projectUID","type":"bytes32","indexed":true,"internalType":"bytes32"},{"name":"garden","type":"address","indexed":true,"internalType":"address"},{"name":"projectName","type":"string","indexed":false,"internalType":"string"}],"anonymous":false},{"type":"event","name":"Initialized","inputs":[{"name":"version","type":"uint8","indexed":false,"internalType":"uint8"}],"anonymous":false},{"type":"event","name":"OwnershipTransferred","inputs":[{"name":"previousOwner","type":"address","indexed":true,"internalType":"address"},{"name":"newOwner","type":"address","indexed":true,"internalType":"address"}],"anonymous":false},{"type":"event","name":"Upgraded","inputs":[{"name":"implementation","type":"address","indexed":true,"internalType":"address"}],"anonymous":false},{"type":"error","name":"GAPNotSupported","inputs":[]},{"type":"error","name":"KarmaGAPNotSupported","inputs":[]},{"type":"error","name":"NotAssessmentResolver","inputs":[]},{"type":"error","name":"NotAuthorizedCaller","inputs":[]},{"type":"error","name":"NotGardenToken","inputs":[]},{"type":"error","name":"NotWorkApprovalResolver","inputs":[]},{"type":"error","name":"ProjectAlreadyExists","inputs":[{"name":"garden","type":"address","internalType":"address"}]},{"type":"error","name":"ProjectNotFound","inputs":[{"name":"garden","type":"address","internalType":"address"}]},{"type":"error","name":"ZeroAddress","inputs":[]}],"bytecode":{"object":"0x60a0806040523460d657306080525f549060ff8260081c166084575060ff80821603604b575b6040516133ea90816100db82396080518181816107240152818161081e0152610b2b0152f35b60ff90811916175f557f7f26b83ff96e1f2b6a682f133852f6798a09c465da95921460cefb3847402498602060405160ff8152a15f6025565b62461bcd60e51b815260206004820152602760248201527f496e697469616c697a61626c653a20636f6e747261637420697320696e697469604482015266616c697a696e6760c81b6064820152608490fd5b5f80fdfe60a060409080825260049081361015610016575f80fd5b5f3560e01c9081632744700514610d645750806331c0de9c14610cbe5780633659cfe614610b05578063481a80f114610a855780634f1ef286146107d057806352d1902d146107115780636ed7247914610663578063715018a61461060857806374427937146105e35780638ae4d281146105135780638da5cb5b146104eb578063a1d4b07f1461041e578063a8c9cbfd146104a8578063b709b7fd14610455578063c4e5f7311461041e578063d21a7dfa146103f6578063d9f1376b146103ce578063db61d65c146103a6578063df79e6a814610363578063f2fde38b146102d45763f8c8765e14610107575f80fd5b346102d05760803660031901126102d057610120610de3565b610128610df9565b916001600160a01b039160443583811691908290036102d057606435938085168095036102d0575f549560ff8760081c1615968780986102c3575b80156102ac575b156102525760ff1981166001175f5587610240575b5081831615610230571692831561022257506101bc906101ae60ff5f5460081c166101a981612fd3565b612fd3565b6101b733612c93565b612c93565b6bffffffffffffffffffffffff60a01b9182606554161760655581606654161760665560675416176067556101ed57005b60207f7f26b83ff96e1f2b6a682f133852f6798a09c465da95921460cefb38474024989161ff00195f54165f555160018152a1005b865163d92e233d60e01b8152fd5b875163d92e233d60e01b81528590fd5b61ffff1916610101175f90815561017f565b885162461bcd60e51b8152602081880152602e60248201527f496e697469616c697a61626c653a20636f6e747261637420697320616c72656160448201526d191e481a5b9a5d1a585b1a5e995960921b6064820152608490fd5b50303b15801561016a5750600160ff82161461016a565b50600160ff821610610163565b5f80fd5b50346102d05760203660031901126102d0576102ee610de3565b916102f7612c3b565b6001600160a01b038316156103115761030f83612c93565b005b906020608492519162461bcd60e51b8352820152602660248201527f4f776e61626c653a206e6577206f776e657220697320746865207a65726f206160448201526564647265737360d01b6064820152fd5b346102d05760203660031901126102d05761037c610de3565b610384612c3b565b606780546001600160a01b0319166001600160a01b0392909216919091179055005b82346102d0575f3660031901126102d05760655490516001600160a01b039091168152602090f35b82346102d0575f3660031901126102d05760665490516001600160a01b039091168152602090f35b82346102d0575f3660031901126102d05760675490516001600160a01b039091168152602090f35b82346102d05760203660031901126102d0576020906001600160a01b03610443610de3565b165f5260688252805f20549051908152f35b50346102d05760203660031901126102d05761046f610de3565b610477612c3b565b6001600160a01b031691821561049b57606580546001600160a01b03191684179055005b5163d92e233d60e01b8152fd5b346102d05760203660031901126102d0576104c1610de3565b6104c9612c3b565b606680546001600160a01b0319166001600160a01b0392909216919091179055005b82346102d0575f3660031901126102d05760335490516001600160a01b039091168152602090f35b5090346102d05760c03660031901126102d05761052e610de3565b91610537610df9565b6001600160401b036044358181116102d0576105569036908501610e0f565b906064358381116102d05761056e9036908701610e0f565b9290916084358581116102d0576105889036908901610e0f565b96909560a4359081116102d0576105a29036908a01610e0f565b606554909b9199906001600160a01b031633036105d557509160209a979593916105ce9997959361212f565b9051908152f35b8a516308a59e4960e11b8152fd5b82346102d0575f3660031901126102d0576020906105ff6129c4565b90519015158152f35b346102d0575f3660031901126102d057610620612c3b565b603380546001600160a01b031981169091555f906001600160a01b03167f8be0079c531659141344cd1fd0a4f28419497f9722a3daafe3b4186f6b6457e08280a3005b5090346102d05760c03660031901126102d05761067e610de3565b916001600160401b03906044358281116102d05761069f9036908301610e0f565b90926064358181116102d0576106b89036908501610e0f565b9290916084359081116102d0576106d29036908601610e0f565b60665490969195906001600160a01b031633036107035750916105ce959391602098959360a4359660243590611746565b87516310a8fa8960e31b8152fd5b50346102d0575f3660031901126102d0577f00000000000000000000000000000000000000000000000000000000000000006001600160a01b0316300361076857602082515f8051602061339e8339815191528152f35b6020608492519162461bcd60e51b8352820152603860248201527f555550535570677261646561626c653a206d757374206e6f742062652063616c60448201527f6c6564207468726f7567682064656c656761746563616c6c00000000000000006064820152fd5b50816003193601126102d0576107e4610de3565b916024356001600160401b0381116102d057366023820112156102d0576108149036906024818601359101610f0b565b6001600160a01b037f0000000000000000000000000000000000000000000000000000000000000000811692919061084e30851415611529565b61086a5f8051602061339e83398151915294828654161461158a565b610872612c3b565b7f4910fdfa16fed3260ed0e7147f7cc6da11a60208b5b9406d12a635614ffd91435460ff16156108aa57505050505061030f90613156565b85168251936352d1902d60e01b855260209485818881865afa5f9181610a56575b5061092a57845162461bcd60e51b8152808801879052602e60248201527f45524331393637557067726164653a206e657720696d706c656d656e7461746960448201526d6f6e206973206e6f74205555505360901b6064820152608490fd5b9591929503610a01575061093d85613156565b7fbc7cd75a20ee27fd9adebab32041f755214dbc6bffa90cc0225b39da2e5c2d3b5f80a28251158015906109f9575b61097257005b61030f935f8083519561098487610eb4565b602787527f416464726573733a206c6f772d6c6576656c2064656c65676174652063616c6c86880152660819985a5b195960ca1b858801528581519101845af4913d156109ef573d6109e16109d882610ef0565b92519283610ecf565b81525f81943d92013e613300565b5060609250613300565b50600161096c565b825162461bcd60e51b8152908101849052602960248201527f45524331393637557067726164653a20756e737570706f727465642070726f786044820152681a58589b195555525160ba1b6064820152608490fd5b9091508681813d8311610a7e575b610a6e8183610ecf565b810103126102d05751905f6108cb565b503d610a64565b5090346102d057806003193601126102d057610a9f610de3565b610aa7610df9565b606554909290336001600160a01b0391821614159081610af5575b81610ae6575b50610ad75761030f838361161d565b51637046c88d60e01b81528390fd5b9050606754163314155f610ac8565b8091506066541633141590610ac2565b50346102d0576020806003193601126102d057610b20610de3565b926001600160a01b037f00000000000000000000000000000000000000000000000000000000000000008116610b5830821415611529565b610b745f8051602061339e83398151915291838354161461158a565b610b7c612c3b565b825191610b8883610e99565b5f83527f4910fdfa16fed3260ed0e7147f7cc6da11a60208b5b9406d12a635614ffd91435460ff1615610bc45750505050505061030f90613156565b86169083516352d1902d60e01b815285818881865afa5f9181610c8f575b50610c4157845162461bcd60e51b8152808801879052602e60248201527f45524331393637557067726164653a206e657720696d706c656d656e7461746960448201526d6f6e206973206e6f74205555505360901b6064820152608490fd5b9591929503610a015750610c5485613156565b7fbc7cd75a20ee27fd9adebab32041f755214dbc6bffa90cc0225b39da2e5c2d3b5f80a2825115801590610c885761097257005b505f61096c565b9091508681813d8311610cb7575b610ca78183610ecf565b810103126102d05751905f610be2565b503d610c9d565b5090346102d05760803660031901126102d057610cd9610de3565b916001600160401b036024358181116102d057610cf99036908401610e0f565b6044929192358281116102d057610d139036908601610e0f565b9390926064359081116102d057610d2d9036908701610e0f565b60675490989196906001600160a01b03163303610d565750916105ce959391602098959361114e565b875163be4b005560e01b8152fd5b905082346102d0573660031901126102d057610d7e610de3565b610d86610df9565b606554909290336001600160a01b0391821614159081610dd3575b81610dc4575b50610db65761030f8383610f41565b637046c88d60e01b81528390fd5b90506067541633141585610da7565b8091506066541633141590610da1565b600435906001600160a01b03821682036102d057565b602435906001600160a01b03821682036102d057565b9181601f840112156102d0578235916001600160401b0383116102d057602083818601950101116102d057565b6001600160401b038111610e4f57604052565b634e487b7160e01b5f52604160045260245ffd5b60c081019081106001600160401b03821117610e4f57604052565b604081019081106001600160401b03821117610e4f57604052565b602081019081106001600160401b03821117610e4f57604052565b606081019081106001600160401b03821117610e4f57604052565b90601f801991011681019081106001600160401b03821117610e4f57604052565b6001600160401b038111610e4f57601f01601f191660200190565b929192610f1782610ef0565b91610f256040519384610ecf565b8294818452818301116102d0578281602093845f960137010152565b6001600160a01b039081165f818152606860205260408120549193909290821561106457610f6d6129c4565b156110645781610f7b612a49565b16803b156102d05760405163dbf7117760e01b8152600481018590526001600160a01b0383166024820152905f908290604490829084905af19081611051575b5061102757505050505f805160206133be83398151915260c060405160408152600f60408201526e30b232283937b532b1ba20b236b4b760891b60608201526080602082015260136080820152722330b4b632b2103a379030b2321030b236b4b760691b60a0820152a2565b169250907fe023a851f98526fe8096ed8d817f689e99708db1a157b7ef42c34394feea17649080a3565b61105c919550610e3c565b5f935f610fbb565b5050505050565b5f5b83811061107c5750505f910152565b818101518382015260200161106d565b906020916110a58151809281855285808601910161106b565b601f01601f1916010190565b9060209081835280518284015201519060408082015260018060a01b0382511660608201526001600160401b0360208301511660808201526040820151151560a0820152606082015160c082015261010060a061111e608085015160c060e086015261012085019061108c565b93015191015290565b90918060409360208452816020850152848401375f828201840152601f01601f1916010190565b95939560018060a01b0380911696875f5260209560688752604097885f20549687156114b85761117c6129c4565b1561143e57936112da61128c6112b960218c97878f97611344995f9f9e9d9c6112cc9a8f8f8f906111bb6111c06111bb61121d9361129b963691610f0b565b613073565b9585519a61121660348d808881019b693d913a34ba3632911d1160b11b8d526111f2815180928c602a8601910161106b565b8101691116113a32bc3a111d1160b11b602a8201520390601482019052018d610ecf565b3691610f0b565b9383519361127c6044868561123b8183019a8b81519384920161106b565b81017f222c2274797065223a2270726f6a6563742d6d696c6573746f6e65222c22646187820152633a30911d60e11b85820152036024810188520186610ecf565b519b8c99518092848c019061106b565b8801925193849184019061106b565b01918c83013701607d60f81b8a820152036001810184520182610ecf565b8b5193849187808401528d83019061108c565b03601f198101845283610ecf565b8951916112e683610e63565b8b83528885840152888b84015287606084015260808301528760a083015261130c612abf565b918a519261131984610e7e565b835284830152611327612a49565b1690895197888094819363f17325e760e01b8352600483016110b1565b03925af15f948161140f575b506113d15750505050816113ca61139c925f805160206133be83398151915294519383859485528401604090600f81526e6372656174654d696c6573746f6e6560881b60208201520190565b90838203908401526040906012815271105d1d195cdd185d1a5bdb8819985a5b195960721b60208201520190565b0390a25f90565b90919350829496955061140a7f75224e84b3f867a419e2f006f56603587110887cfdc90de524124849a6d6c31d93975192839283611127565b0390a3565b9094508581813d8311611437575b6114278183610ecf565b810103126102d05751935f611350565b503d61141d565b5050505050505050816113ca611489925f805160206133be83398151915294519383859485528401604090600f81526e6372656174654d696c6573746f6e6560881b60208201520190565b9083820390840152604090601381527210da185a5b881b9bdd081cdd5c1c1bdc9d1959606a1b60208201520190565b5050505050505050816113ca611503925f805160206133be83398151915294519383859485528401604090600f81526e6372656174654d696c6573746f6e6560881b60208201520190565b9083820390840152604090600a815269139bc81c1c9bda9958dd60b21b60208201520190565b1561153057565b60405162461bcd60e51b815260206004820152602c60248201527f46756e6374696f6e206d7573742062652063616c6c6564207468726f7567682060448201526b19195b1959d85d1958d85b1b60a21b6064820152608490fd5b1561159157565b60405162461bcd60e51b815260206004820152602c60248201527f46756e6374696f6e206d7573742062652063616c6c6564207468726f7567682060448201526b6163746976652070726f787960a01b6064820152608490fd5b906115f582610ef0565b6116026040519182610ecf565b8281528092611613601f1991610ef0565b0190602036910137565b6001600160a01b039081165f8181526068602052604081205491939092908215611064576116496129c4565b156110645781611657612a49565b16803b156102d057604051632c1a4e4360e21b8152600481018590526001600160a01b0383166024820152905f908290604490829084905af19081611733575b5061170957505050505f805160206133be83398151915260c06040516040815260126040820152713932b6b7bb32a83937b532b1ba20b236b4b760711b60608201526080602082015260166080820152752330b4b632b2103a37903932b6b7bb329030b236b4b760511b60a0820152a2565b169250907fbaf2fc70bb642b70a5f9f5861aa45f7e2b104b87ec20f8b2fcfa3cd54fb138069080a3565b61173e919550610e3c565b5f935f611697565b6001600160a01b03165f81815260686020526040902054909897909693949193919287156120a0576117766129c4565b156120285762015180420495620afa6c8701809711611f975762023ab180880481810298811592828b0414831715611f97576117e4996117b5916131e5565b906117d26117c76105b48404846131e5565b618eac840490613066565b61016d9a8b9162023ab08504906131e5565b0492610190808302928304141715611f97576118009083613066565b988281029081048303611f975782606461182461182c936118329660021c90613066565b9104906131e5565b906131e5565b9687600502600581048903611f9757600281018111611f975760026099910104978860990290609982048a03611f975760028201809211611f9757600561187a9204906131e5565b97600189018911611f9757600a8110156120165760038101809111611f9757905b6002821115611ff6575b90604051916118b383610e7e565b6004835260203681850137600490815b611fab5750506118d290613299565b976001016118df90613299565b6118f1610e1062015180420604613299565b611906603c610e106201518042060604613299565b90611918603c62015180420606613299565b926040519b858d965190816020890191602001916119359261106b565b860190602d60f81b918260208201528151918260218301916020019161195a9261106b565b01906021820152815191826022830191602001916119779261106b565b0160228101601560fa1b9052815191826023830191602001916119999261106b565b0190601d60f91b91826023820152815191826024830191602001916119bd9261106b565b01906024820152815191826025830191602001916119da9261106b565b016025810164171818182d60d91b905203600a81018852602a016119fe9088610ecf565b3690611a0992610f0b565b611a1290613073565b611a1d368886610f0b565b611a2690613073565b95604051968792693d913a34ba3632911d1160b11b602085015280519081602a86019160200191611a569261106b565b8301691116113a32bc3a111d1160b11b602a82015281519182603483019160200191611a819261106b565b016e11161139ba30b93a2230ba32911d1160891b603482015281519060438101826020850191611ab09261106b565b016c11161132b7322230ba32911d1160991b604382015281519182605083019160200191611add9261106b565b0103603081018652605001611af29086610ecf565b3690611afd92610f0b565b611b0690613073565b933690611b1292610f0b565b611b1b90613073565b92604051938491602083017f222c2264656c6976657261626c6573223a5b7b226e616d65223a22576f726b209052604083017f45766964656e6365222c2270726f6f66223a22697066733a2f2f000000000000905280519081605a85019160200191611b869261106b565b8201701116113232b9b1b934b83a34b7b7111d1160791b605a82015281519182606b83019160200191611bb89261106b565b0162227d5d60e81b606b82015203604e81018452606e01611bd99084610ecf565b611be2466131f2565b90611bec906131f2565b60405190611bf982610eb4565b6040808352366020840137604051611c1081610e7e565b601081526f181899199a1a9b1b9c1cb0b131b232b360811b60208201525f5b60208110611f245750505f9594611da260208096611e3b96611db796611d5960a1611dc598604051938491888301967f2c226c696e6b73223a5b7b2274797065223a226f74686572222c2275726c223a88527f2268747470733a2f2f677265656e676f6f64732e6d652f67617264656e2f00006040850152611cba815180928c605e8801910161106b565b8301602f60f81b605e820152611cd9825180938c605f8501910161106b565b016705eeedee4d65e60f60c31b605f820152611cfe825180938b60678501910161106b565b017f222c226c6162656c223a225669657720696e20477265656e20476f6f6473227d60678201527f5d2c2274797065223a2270726f6a6563742d757064617465227d0000000000006087820152036081810184520182610ecf565b611d966040519684611d74899651809289808a01910161106b565b8501611d888251809389808501910161106b565b01915180938684019061106b565b01038084520182610ecf565b6040519283918680840152604083019061108c565b03601f198101835282610ecf565b60405190611dd282610e63565b878252858483015285604083015284606083015260808201528460a0820152611df9612abf565b9060405191611e0783610e7e565b8252838201526001600160a01b03611e1d612a49565b169060405195868094819363f17325e760e01b8352600483016110b1565b03925af15f9281611ef0575b50611ebd575050505f805160206133be83398151915260405160408152806113ca611e8f60408301604090600c81526b18dc99585d19525b5c1858dd60a21b60208201520190565b82810360208401526040906012815271105d1d195cdd185d1a5bdb8819985a5b195960721b60208201520190565b90919392507f97510c026a2cd5888418c1c8cf2e9bf590175dcd88ae48a3c3dc18bd7abbae1e60208395604051908152a3565b9092506020813d602011611f1c575b81611f0c60209383610ecf565b810103126102d05751915f611e47565b3d9150611eff565b88811a906001600160f81b0319600f81611f44600486901c831687613033565b5116908360011b9484860460021485151715611f9757611f72925f1a611f6a878b613033565b531685613033565b511691600181018111611f9757611f90600180945f1a920187613033565b5301611c2f565b634e487b7160e01b5f52601160045260245ffd5b6030600a82068101809111611f97575f19830191838311611f9757611fef92600a9260f81b6001600160f81b0319165f1a90611fe79088613033565b53049161328d565b90816118c3565b60018101809111156118a557634e487b7160e01b5f52601160045260245ffd5b6008198101908111611f97579061189b565b5050505050505050505f805160206133be83398151915260405160408152806113ca61207160408301604090600c81526b18dc99585d19525b5c1858dd60a21b60208201520190565b8281036020840152604090601381527210da185a5b881b9bdd081cdd5c1c1bdc9d1959606a1b60208201520190565b5050505050505050505f805160206133be83398151915260405160408152806113ca6120e960408301604090600c81526b18dc99585d19525b5c1858dd60a21b60208201520190565b8281036020840152604090600a815269139bc81c1c9bda9958dd60b21b60208201520190565b600d81526c18dc99585d19541c9bda9958dd609a1b602082015260400190565b97999890939694959291926121426129c4565b1561295b576001600160a01b0389165f9081526068602052604090205461293a579899979896978997905f602061220a6001600160a01b03612182612a49565b16809c60405160018582015284815261219a81610e7e565b604051916121a783610e63565b6001600160a01b031682528482018690526001604083015260608201869052608082015260a081018590526121da612cdb565b90604051916121e883610e7e565b82528482015260405194858094819363f17325e760e01b8352600483016110b1565b03925af15f9181612906575b5061228b5750505050505050505050505f805160206133be83398151915260405160408152604061224881830161210f565b937f50726f6a656374206174746573746174696f6e206661696c65640000000000006020848703968782870152601a8152015260018060a01b0316930190a25f90565b60206123078b9c9e9a9c5f939e999a9c9e9a60018060a01b038b168552606884528b60408620556040516001858201528481526122c781610e7e565b604051916122d483610e63565b6001600160a01b0316825284820186905260016040830152606082018d9052608082015260a081018590526121da612e57565b03925af190816128d5575b5091612403936111bb926123fd94155f146128d057604051604081525f805160206133be8339815191526123486040830161210f565b917f4d656d6265724f66206174746573746174696f6e206661696c656400000000006020828503948582850152601b81520152604060018060a01b038d16930190a25b81156128b357816123dd60366111bb936123f5956040519485927568747470733a2f2f7733732e6c696e6b2f697066732f60501b60208501528484013781015f83820152036016810184520182610ecf565b9e5b6123ed6111bb368a8c610f0b565b9d3691610f0b565b993691610f0b565b99613073565b9761240f368385610f0b565b9661241a88516115eb565b985f9b5f5b8a5181101561258a57612432818c613033565b519d6001600160f81b03198f16604160f81b8110158061257c575b1561249c575060ff8f60209060f86080526080511c0111611f97578c61247282613058565b9f60ff60f81b906080511c6020016080511b165f1a9161249191613033565b536001905b0161241f565b9e508e606160f81b8110158061256e575b156124d357508c6124bd82613058565b9f5f1a916124ca91613033565b53600190612496565b600360fc1b811015908161255f575b50156124f2578c6124bd82613058565b9d600160fd1b14612506575b600190612496565b8d151580612531575b156124fe5761251d8e613058565b9d612528908d613033565b602d90536124fe565b508d5f19810111611f97578b8e612556602d60f81b9260ff60f81b925f190190613033565b5116141561250f565b603960f81b101590508f6124e2565b50603d60f91b8111156124ad565b50602d60f91b81111561244d565b5093979b90949850999195999890949880151580612885575b612877575b90816125ba8c999897969594936115eb565b915f5b82811061283b575050506020946126fd6084612753965f9996611db7966125e661271297613073565b91604051968794693d913a34ba3632911d1160b11b8e87015261261381518f928193602a8a01910161106b565b8501701116113232b9b1b934b83a34b7b7111d1160791b602a82015261264382518f938194603b8501910161106b565b01751116113637b1b0ba34b7b727b324b6b830b1ba111d1160511b603b820152612676825180938f60518501910161106b565b016d11161134b6b0b3b2aaa926111d1160911b60518201526126a1825180938e605f8501910161106b565b016911161139b63ab3911d1160b11b605f8201526126c8825180938d60698501910161106b565b017f222c2274797065223a2270726f6a6563742d64657461696c73227d00000000006069820152036064810184520182610ecf565b6040519283918780840152604083019061108c565b6040519061271f82610e63565b6001600160a01b038a1682528482018690526001604083015260608201889052608082015260a081018590526121da612abf565b03925af1908161280c575b506127ca575050505f805160206133be83398151915260405160408152604061278881830161210f565b937f44657461696c73206174746573746174696f6e206661696c65640000000000006020848703968782870152601a8152015260018060a01b0316930190a290565b7f03d364024f6102dfc5e23f488f1e462c8e58afc717a21875496e0adc2132d1b491929361280660405192839260018060a01b03169683611127565b0390a390565b6020809294503d8311612834575b6128248183610ecf565b810103126102d05784915f61275e565b503d61281a565b60019192939495969798999a5060ff60f81b6128578285613033565b51165f1a6128658287613033565b5301908c9998979695949392916125bd565b6128809061328d565b6125a8565b505f198101818111611f9757602d60f81b906001600160f81b0319906128ab9085613033565b5116146125a3565b50506123f56111bb6040516128c781610e99565b5f81529e6123df565b61238b565b60209081949293943d83116128ff575b6128ef8183610ecf565b810103126102d05791905f612312565b503d6128e5565b9091506020813d602011612932575b8161292260209383610ecf565b810103126102d05751905f612216565b3d9150612915565b60405163e0a460cd60e01b81526001600160a01b038a166004820152602490fd5b50505050505050509091505f805160206133be83398151915260405160408152806113ca61298b6040830161210f565b94828603602084015260018060a01b031694604090601381527210da185a5b881b9bdd081cdd5c1c1bdc9d1959606a1b60208201520190565b600a46148015612a3d575b8015612a32575b8015612a26575b8015612a1a575b8015612a0f575b8015612a04575b80156129fb5790565b50610530461490565b5061053146146129f2565b5061a4ec46146129eb565b5062014a3446146129e4565b5062aa36a746146129dd565b5061a4b146146129d6565b5062aa37dc46146129cf565b61a4b14614612aa75761a4ec4614612a8f5762014a344614612a7757604051633cb9b43760e01b8152600490fd5b734ca7230fb6b78875bdd1b1e4f665b7b7f189123990565b738791ac8c099314bb1d1514d76de13a1e8027595090565b736dc1d6b864e8bef815806f9e4677123496e1202690565b600a4614612c175762aa37dc4614612bf35761a4b14614612bcf5762aa36a74614612bab5762014a344614612b875761a4ec4614612b63576105314614612b3f576105304614612b1b57604051633cb9b43760e01b8152600490fd5b7f76f38d22f88a0df52a8ff0763e1c0af912b0822e758be2e0c9cded91aef71d2290565b7f1b4365b92aa47de3f67cdfb53127518381c1e66e0d9e0f8a15bbfa725095096790565b7f9895e82115987d8e3e02b35ced92e6a0509293890333f58f50ec291b34853dac90565b7f9b06f811608d135f913c18295486693fe626f35e213a7d132be87b1f952e508c90565b7f2c270e35bfcdc4d611f0e9d3d2ab6924ec6c673505abc22a1dd07e19b67211af90565b7f16bfe4783b7a9c743c401222c56a07ecb77ed42afc84b61ff1f62f5936c0b9d790565b7fd193e75f420a69910f98fa79cacdfd9d0dcbf5933edce8f8bde9a10bd204d99690565b7f70a3f615f738fc6a4f56100692ada93d947c028b840940d97af7e7d6f0fa057790565b6033546001600160a01b03163303612c4f57565b606460405162461bcd60e51b815260206004820152602060248201527f4f776e61626c653a2063616c6c6572206973206e6f7420746865206f776e65726044820152fd5b603380546001600160a01b039283166001600160a01b0319821681179092559091167f8be0079c531659141344cd1fd0a4f28419497f9722a3daafe3b4186f6b6457e05f80a3565b600a4614612e335762aa37dc4614612e0f5761a4b14614612deb5762aa36a74614612dc75762014a344614612da35761a4ec4614612d7f576105314614612d5b576105304614612d3757604051633cb9b43760e01b8152600490fd5b7f9de9294fbb62391b393332a33bfc28b4e0e728dd094aee4bda3955df62f8401a90565b7ff6b89107f8096220051240b89a48abb66e0a23e529c914953b80f5a2bc5ea44c90565b7ff3f753b41e04d1052b5a5ec7624d1dfdb6c2da288a985120e477ddbcac07102290565b7f5ddd6b7a11406771308431ca9bd146cc717848b74b52993a532dc1aad0ccc83f90565b7fec77990a252b54b17673955c774b9712766de5eecb22ca5aa2c440e0e93257fb90565b7fac2a06e955a7e25e6729efe1a6532237e3435b21ccd3dc827ae3c94e624d25b390565b7ff9bbd118dd100459a7d093403af21c6e7f847fd7f331b7a4e6bfb94a1366bd7690565b7f5b873b6e7a16207b526dde366e8164e95bcda2f009272306519667c5e94d219190565b600a4614612faf5762aa37dc4614612f8b5761a4b14614612f675762aa36a74614612f435762014a344614612f1f5761a4ec4614612efb576105314614612ed7576105304614612eb357604051633cb9b43760e01b8152600490fd5b7f222fa508c0cdb5954905dd30611a940f6402da2b3c49ce0c88d33e22f72121e790565b7fb7278b94cea2b9f1a8fdd1c4bb52ed66906516a0ff9d59d0f80daffcf147ea5d90565b7fb4186a2401f40a4c78768941ef9140e1fbe5fe595053a65d44f31d6df180b71290565b7f857398d86e2d31bec5af882b950ee7b00d1fefefba2432737ab28b68ee041eb890565b7fdd87b3500457931252424f4439365534ba72a367503a8805ff3482353fb9030190565b7f5f430aec9d04f0dcb3729775c5dfe10752e436469a7607f8c64ae44ef996e47790565b7f611f9655188f372e27dce116a803fa9081ca3e2907986368d54fcad538ca385390565b7f7fbb8a65924d8ad2ae12356e04b1418043e8361ba3b1b6c917de2e23df3ec81c90565b15612fda57565b60405162461bcd60e51b815260206004820152602b60248201527f496e697469616c697a61626c653a20636f6e7472616374206973206e6f74206960448201526a6e697469616c697a696e6760a81b6064820152608490fd5b908151811015613044570160200190565b634e487b7160e01b5f52603260045260245ffd5b5f198114611f975760010190565b91908201809211611f9757565b905f805b83518110156130bc57601160f91b6001600160f81b03196130988387613033565b5116146130a8575b600101613077565b906130b4600191613058565b9190506130a0565b508015613153576130d16130d6918451613066565b6115eb565b5f925f5b815181101561314c576001906001600160f81b0319601160f91b816130ff8487613033565b511614613131575b6131118285613033565b51169561312a61312082613058565b975f1a9186613033565b53016130da565b605c61314661313f89613058565b9887613033565b53613107565b5090925050565b50565b803b1561318a575f8051602061339e83398151915280546001600160a01b0319166001600160a01b03909216919091179055565b60405162461bcd60e51b815260206004820152602d60248201527f455243313936373a206e657720696d706c656d656e746174696f6e206973206e60448201526c1bdd08184818dbdb9d1c9858dd609a1b6064820152608490fd5b91908203918211611f9757565b801561326f57805f81805b613257575061320b816115eb565b925b61321657505090565b5f198101908111611f97578091600a9160308383068101809111611f975760f81b6001600160f81b0319165f1a9061324e9086613033565b5304908161320d565b9150613264600a91613058565b9104808392916131fd565b5060405161327c81610e7e565b60018152600360fc1b602082015290565b8015611f97575f190190565b604051906132a682610e7e565b6002825260203681840137600290815b6132bf57505090565b600a6030918181068301809311611f97575f198401848111611f97576132f99360f81b6001600160f81b0319165f1a90611fe79087613033565b90816132b6565b919290156133625750815115613314575090565b3b1561331d5790565b60405162461bcd60e51b815260206004820152601d60248201527f416464726573733a2063616c6c20746f206e6f6e2d636f6e74726163740000006044820152606490fd5b8251909150156133755750805190602001fd5b60405162461bcd60e51b81526020600482015290819061339990602483019061108c565b0390fdfe360894a13ba1a3210667c828492db98dca3e2076cc3735a920a3ca505d382bbce6f1f105a83ab395dc531f1e5265522ea81ac6eaec25cc579b75825a72fc5dcba164736f6c6343000819000a","linkReferences":{}},"methodIdentifiers":{"addProjectAdmin(address,address)":"27447005","assessmentResolver()":"d21a7dfa","createImpact(address,uint256,string,string,string,bytes32)":"6ed72479","createMilestone(address,string,string,string)":"31c0de9c","createProject(address,address,string,string,string,string)":"8ae4d281","gardenProjects(address)":"c4e5f731","gardenToken()":"db61d65c","getProjectUID(address)":"a1d4b07f","initialize(address,address,address,address)":"f8c8765e","isSupported()":"74427937","owner()":"8da5cb5b","proxiableUUID()":"52d1902d","removeProjectAdmin(address,address)":"481a80f1","renounceOwnership()":"715018a6","setAssessmentResolver(address)":"df79e6a8","setGardenToken(address)":"b709b7fd","setWorkApprovalResolver(address)":"a8c9cbfd","transferOwnership(address)":"f2fde38b","upgradeTo(address)":"3659cfe6","upgradeToAndCall(address,bytes)":"4f1ef286","workApprovalResolver()":"d9f1376b"},"id":137}