{"abi":[{"type":"function","name":"attest","inputs":[{"name":"request","type":"tuple","internalType":"struct AttestationRequest","components":[{"name":"schema","type":"bytes32","internalType":"bytes32"},{"name":"data","type":"tuple","internalType":"struct AttestationRequestData","components":[{"name":"recipient","type":"address","internalType":"address"},{"name":"expirationTime","type":"uint64","internalType":"uint64"},{"name":"revocable","type":"bool","internalType":"bool"},{"name":"refUID","type":"bytes32","internalType":"bytes32"},{"name":"data","type":"bytes","internalType":"bytes"},{"name":"value","type":"uint256","internalType":"uint256"}]}]}],"outputs":[{"name":"","type":"bytes32","internalType":"bytes32"}],"stateMutability":"payable"},{"type":"function","name":"attestByDelegation","inputs":[{"name":"","type":"tuple","internalType":"struct DelegatedAttestationRequest","components":[{"name":"schema","type":"bytes32","internalType":"bytes32"},{"name":"data","type":"tuple","internalType":"struct AttestationRequestData","components":[{"name":"recipient","type":"address","internalType":"address"},{"name":"expirationTime","type":"uint64","internalType":"uint64"},{"name":"revocable","type":"bool","internalType":"bool"},{"name":"refUID","type":"bytes32","internalType":"bytes32"},{"name":"data","type":"bytes","internalType":"bytes"},{"name":"value","type":"uint256","internalType":"uint256"}]},{"name":"signature","type":"tuple","internalType":"struct Signature","components":[{"name":"v","type":"uint8","internalType":"uint8"},{"name":"r","type":"bytes32","internalType":"bytes32"},{"name":"s","type":"bytes32","internalType":"bytes32"}]},{"name":"attester","type":"address","internalType":"address"},{"name":"deadline","type":"uint64","internalType":"uint64"}]}],"outputs":[{"name":"","type":"bytes32","internalType":"bytes32"}],"stateMutability":"payable"},{"type":"function","name":"getAttestation","inputs":[{"name":"uid","type":"bytes32","internalType":"bytes32"}],"outputs":[{"name":"","type":"tuple","internalType":"struct Attestation","components":[{"name":"uid","type":"bytes32","internalType":"bytes32"},{"name":"schema","type":"bytes32","internalType":"bytes32"},{"name":"time","type":"uint64","internalType":"uint64"},{"name":"expirationTime","type":"uint64","internalType":"uint64"},{"name":"revocationTime","type":"uint64","internalType":"uint64"},{"name":"refUID","type":"bytes32","internalType":"bytes32"},{"name":"recipient","type":"address","internalType":"address"},{"name":"attester","type":"address","internalType":"address"},{"name":"revocable","type":"bool","internalType":"bool"},{"name":"data","type":"bytes","internalType":"bytes"}]}],"stateMutability":"view"},{"type":"function","name":"getRevokeOffchain","inputs":[{"name":"","type":"address","internalType":"address"},{"name":"","type":"bytes32","internalType":"bytes32"}],"outputs":[{"name":"","type":"uint64","internalType":"uint64"}],"stateMutability":"pure"},{"type":"function","name":"getSchemaRegistry","inputs":[],"outputs":[{"name":"","type":"address","internalType":"contract ISchemaRegistry"}],"stateMutability":"pure"},{"type":"function","name":"getTimestamp","inputs":[{"name":"","type":"bytes32","internalType":"bytes32"}],"outputs":[{"name":"","type":"uint64","internalType":"uint64"}],"stateMutability":"pure"},{"type":"function","name":"isAttestationValid","inputs":[{"name":"uid","type":"bytes32","internalType":"bytes32"}],"outputs":[{"name":"","type":"bool","internalType":"bool"}],"stateMutability":"view"},{"type":"function","name":"multiAttest","inputs":[{"name":"","type":"tuple[]","internalType":"struct MultiAttestationRequest[]","components":[{"name":"schema","type":"bytes32","internalType":"bytes32"},{"name":"data","type":"tuple[]","internalType":"struct AttestationRequestData[]","components":[{"name":"recipient","type":"address","internalType":"address"},{"name":"expirationTime","type":"uint64","internalType":"uint64"},{"name":"revocable","type":"bool","internalType":"bool"},{"name":"refUID","type":"bytes32","internalType":"bytes32"},{"name":"data","type":"bytes","internalType":"bytes"},{"name":"value","type":"uint256","internalType":"uint256"}]}]}],"outputs":[{"name":"","type":"bytes32[]","internalType":"bytes32[]"}],"stateMutability":"payable"},{"type":"function","name":"multiAttestByDelegation","inputs":[{"name":"","type":"tuple[]","internalType":"struct MultiDelegatedAttestationRequest[]","components":[{"name":"schema","type":"bytes32","internalType":"bytes32"},{"name":"data","type":"tuple[]","internalType":"struct AttestationRequestData[]","components":[{"name":"recipient","type":"address","internalType":"address"},{"name":"expirationTime","type":"uint64","internalType":"uint64"},{"name":"revocable","type":"bool","internalType":"bool"},{"name":"refUID","type":"bytes32","internalType":"bytes32"},{"name":"data","type":"bytes","internalType":"bytes"},{"name":"value","type":"uint256","internalType":"uint256"}]},{"name":"signatures","type":"tuple[]","internalType":"struct Signature[]","components":[{"name":"v","type":"uint8","internalType":"uint8"},{"name":"r","type":"bytes32","internalType":"bytes32"},{"name":"s","type":"bytes32","internalType":"bytes32"}]},{"name":"attester","type":"address","internalType":"address"},{"name":"deadline","type":"uint64","internalType":"uint64"}]}],"outputs":[{"name":"","type":"bytes32[]","internalType":"bytes32[]"}],"stateMutability":"payable"},{"type":"function","name":"multiRevoke","inputs":[{"name":"","type":"tuple[]","internalType":"struct MultiRevocationRequest[]","components":[{"name":"schema","type":"bytes32","internalType":"bytes32"},{"name":"data","type":"tuple[]","internalType":"struct RevocationRequestData[]","components":[{"name":"uid","type":"bytes32","internalType":"bytes32"},{"name":"value","type":"uint256","internalType":"uint256"}]}]}],"outputs":[],"stateMutability":"payable"},{"type":"function","name":"multiRevokeByDelegation","inputs":[{"name":"","type":"tuple[]","internalType":"struct MultiDelegatedRevocationRequest[]","components":[{"name":"schema","type":"bytes32","internalType":"bytes32"},{"name":"data","type":"tuple[]","internalType":"struct RevocationRequestData[]","components":[{"name":"uid","type":"bytes32","internalType":"bytes32"},{"name":"value","type":"uint256","internalType":"uint256"}]},{"name":"signatures","type":"tuple[]","internalType":"struct Signature[]","components":[{"name":"v","type":"uint8","internalType":"uint8"},{"name":"r","type":"bytes32","internalType":"bytes32"},{"name":"s","type":"bytes32","internalType":"bytes32"}]},{"name":"revoker","type":"address","internalType":"address"},{"name":"deadline","type":"uint64","internalType":"uint64"}]}],"outputs":[],"stateMutability":"payable"},{"type":"function","name":"multiRevokeOffchain","inputs":[{"name":"","type":"bytes32[]","internalType":"bytes32[]"}],"outputs":[{"name":"","type":"uint64","internalType":"uint64"}],"stateMutability":"pure"},{"type":"function","name":"multiTimestamp","inputs":[{"name":"","type":"bytes32[]","internalType":"bytes32[]"}],"outputs":[{"name":"","type":"uint64","internalType":"uint64"}],"stateMutability":"pure"},{"type":"function","name":"revoke","inputs":[{"name":"","type":"tuple","internalType":"struct RevocationRequest","components":[{"name":"schema","type":"bytes32","internalType":"bytes32"},{"name":"data","type":"tuple","internalType":"struct RevocationRequestData","components":[{"name":"uid","type":"bytes32","internalType":"bytes32"},{"name":"value","type":"uint256","internalType":"uint256"}]}]}],"outputs":[],"stateMutability":"payable"},{"type":"function","name":"revokeByDelegation","inputs":[{"name":"","type":"tuple","internalType":"struct DelegatedRevocationRequest","components":[{"name":"schema","type":"bytes32","internalType":"bytes32"},{"name":"data","type":"tuple","internalType":"struct RevocationRequestData","components":[{"name":"uid","type":"bytes32","internalType":"bytes32"},{"name":"value","type":"uint256","internalType":"uint256"}]},{"name":"signature","type":"tuple","internalType":"struct Signature","components":[{"name":"v","type":"uint8","internalType":"uint8"},{"name":"r","type":"bytes32","internalType":"bytes32"},{"name":"s","type":"bytes32","internalType":"bytes32"}]},{"name":"revoker","type":"address","internalType":"address"},{"name":"deadline","type":"uint64","internalType":"uint64"}]}],"outputs":[],"stateMutability":"payable"},{"type":"function","name":"revokeOffchain","inputs":[{"name":"","type":"bytes32","internalType":"bytes32"}],"outputs":[{"name":"","type":"uint64","internalType":"uint64"}],"stateMutability":"pure"},{"type":"function","name":"setAttestationByUID","inputs":[{"name":"uid","type":"bytes32","internalType":"bytes32"},{"name":"attestation","type":"tuple","internalType":"struct Attestation","components":[{"name":"uid","type":"bytes32","internalType":"bytes32"},{"name":"schema","type":"bytes32","internalType":"bytes32"},{"name":"time","type":"uint64","internalType":"uint64"},{"name":"expirationTime","type":"uint64","internalType":"uint64"},{"name":"revocationTime","type":"uint64","internalType":"uint64"},{"name":"refUID","type":"bytes32","internalType":"bytes32"},{"name":"recipient","type":"address","internalType":"address"},{"name":"attester","type":"address","internalType":"address"},{"name":"revocable","type":"bool","internalType":"bool"},{"name":"data","type":"bytes","internalType":"bytes"}]}],"outputs":[],"stateMutability":"nonpayable"},{"type":"function","name":"timestamp","inputs":[{"name":"","type":"bytes32","internalType":"bytes32"}],"outputs":[{"name":"","type":"uint64","internalType":"uint64"}],"stateMutability":"pure"},{"type":"function","name":"version","inputs":[],"outputs":[{"name":"","type":"string","internalType":"string"}],"stateMutability":"pure"},{"type":"event","name":"Attested","inputs":[{"name":"recipient","type":"address","indexed":true,"internalType":"address"},{"name":"attester","type":"address","indexed":true,"internalType":"address"},{"name":"uid","type":"bytes32","indexed":false,"internalType":"bytes32"},{"name":"schemaUID","type":"bytes32","indexed":true,"internalType":"bytes32"}],"anonymous":false},{"type":"event","name":"Revoked","inputs":[{"name":"recipient","type":"address","indexed":true,"internalType":"address"},{"name":"attester","type":"address","indexed":true,"internalType":"address"},{"name":"uid","type":"bytes32","indexed":false,"internalType":"bytes32"},{"name":"schemaUID","type":"bytes32","indexed":true,"internalType":"bytes32"}],"anonymous":false},{"type":"event","name":"RevokedOffchain","inputs":[{"name":"revoker","type":"address","indexed":true,"internalType":"address"},{"name":"data","type":"bytes32","indexed":true,"internalType":"bytes32"},{"name":"timestamp","type":"uint64","indexed":true,"internalType":"uint64"}],"anonymous":false},{"type":"event","name":"Timestamped","inputs":[{"name":"data","type":"bytes32","indexed":true,"internalType":"bytes32"},{"name":"timestamp","type":"uint64","indexed":true,"internalType":"uint64"}],"anonymous":false},{"type":"error","name":"NotImplemented","inputs":[{"name":"functionName","type":"string","internalType":"string"}]}],"bytecode":{"object":"0x6080604052600180553480156012575f5ffd5b50611465806100205f395ff3fe608060405260043610610110575f3560e01c8063954115251161009d578063d45c443511610062578063d45c4435146102cd578063e30bb563146102ec578063e71ff3651461031b578063f10b5cc81461033a578063f17325e714610366575f5ffd5b8063954115251461023d578063a3112a6414610250578063a6d4dbc71461027c578063b469318d1461028f578063cf190f34146102ae575f5ffd5b806344adc90e116100e357806344adc90e146101a557806346926267146101c55780634cb7e9e5146101d85780634d003070146101eb57806354fd4d501461020a575f5ffd5b80630eabf660146101145780630eec20131461012957806313893f61146101485780633c04271514610184575b5f5ffd5b610127610122366004610dea565b610379565b005b348015610134575f5ffd5b50610127610143366004610f2e565b6103c7565b348015610153575f5ffd5b50610167610162366004610dea565b6104bb565b6040516001600160401b0390911681526020015b60405180910390f35b61019761019236600461102d565b6104fc565b60405190815260200161017b565b6101b86101b3366004610dea565b61053c565b60405161017b9190611063565b6101276101d33660046110a5565b610576565b6101276101e6366004610dea565b6105a8565b3480156101f6575f5ffd5b506101676102053660046110be565b6105df565b348015610215575f5ffd5b5060408051808201825260058152640312e302e360dc1b6020820152905161017b9190611103565b6101b861024b366004610dea565b610616565b34801561025b575f5ffd5b5061026f61026a3660046110be565b610662565b60405161017b9190611115565b61012761028a3660046111de565b6107ee565b34801561029a575f5ffd5b506101676102a93660046111f0565b61082c565b3480156102b9575f5ffd5b506101676102c83660046110be565b61086b565b3480156102d8575f5ffd5b506101676102e73660046110be565b6108a7565b3480156102f7575f5ffd5b5061030b6103063660046110be565b6108e1565b604051901515815260200161017b565b348015610326575f5ffd5b50610167610335366004610dea565b610a39565b348015610345575f5ffd5b5061034e610a75565b6040516001600160a01b03909116815260200161017b565b610197610374366004611218565b610ab4565b604051631d04569d60e21b815260206004820152601760248201527f6d756c74695265766f6b65427944656c65676174696f6e00000000000000000060448201526064015b60405180910390fd5b5f82815260208181526040918290208351815590830151600182015590820151600282018054606085015160808601516001600160401b03908116600160801b0267ffffffffffffffff60801b19928216600160401b026001600160801b03199094169190951617919091171691909117905560a0820151600382015560c08201516004820180546001600160a01b039283166001600160a01b031990911617905560e08301516005830180546101008601511515600160a01b026001600160a81b0319909116929093169190911791909117905561012082015182919060068201906104b490826112cf565b5050505050565b604051631d04569d60e21b815260206004820152601360248201527236bab63a34a932bb37b5b2a7b33331b430b4b760691b60448201525f906064016103be565b604051631d04569d60e21b815260206004820152601260248201527130ba3a32b9ba213ca232b632b3b0ba34b7b760711b60448201525f906064016103be565b604051631d04569d60e21b815260206004820152600b60248201526a1b5d5b1d1a505d1d195cdd60aa1b60448201526060906064016103be565b604051631d04569d60e21b81526020600482015260066024820152657265766f6b6560d01b60448201526064016103be565b604051631d04569d60e21b815260206004820152600b60248201526a6d756c74695265766f6b6560a81b60448201526064016103be565b604051631d04569d60e21b8152602060048201526009602482015268074696d657374616d760bc1b60448201525f906064016103be565b604051631d04569d60e21b815260206004820152601760248201527f6d756c7469417474657374427944656c65676174696f6e00000000000000000060448201526060906064016103be565b60408051610140810182525f8082526020820181905291810182905260608082018390526080820183905260a0820183905260c0820183905260e082018390526101008201929092526101208101919091525f82815260208181526040918290208251610140810184528154815260018201549281019290925260028101546001600160401b0380821694840194909452600160401b810484166060840152600160801b90049092166080820152600382015460a082015260048201546001600160a01b0390811660c0830152600583015490811660e0830152600160a01b900460ff161515610100820152600682018054919291610120840191906107679061124e565b80601f01602080910402602001604051908101604052809291908181526020018280546107939061124e565b80156107de5780601f106107b5576101008083540402835291602001916107de565b820191905f5260205f20905b8154815290600101906020018083116107c157829003601f168201915b5050505050815250509050919050565b604051631d04569d60e21b81526020600482015260126024820152713932bb37b5b2a13ca232b632b3b0ba34b7b760711b60448201526064016103be565b604051631d04569d60e21b815260206004820152601160248201527033b2ba2932bb37b5b2a7b33331b430b4b760791b60448201525f906064016103be565b604051631d04569d60e21b815260206004820152600e60248201526d3932bb37b5b2a7b33331b430b4b760911b60448201525f906064016103be565b604051631d04569d60e21b815260206004820152600c60248201526b067657454696d657374616d760a41b60448201525f906064016103be565b5f818152602081815260408083208151610140810183528154815260018201549381019390935260028101546001600160401b0380821693850193909352600160401b810483166060850152600160801b90049091166080830152600381015460a083015260048101546001600160a01b0390811660c0840152600582015490811660e0840152600160a01b900460ff161515610100830152600681018054849392916101208401916109939061124e565b80601f01602080910402602001604051908101604052809291908181526020018280546109bf9061124e565b8015610a0a5780601f106109e157610100808354040283529160200191610a0a565b820191905f5260205f20905b8154815290600101906020018083116109ed57829003601f168201915b50505091909252505081519192505015801590610a32575060808101516001600160401b0316155b9392505050565b604051631d04569d60e21b815260206004820152600e60248201526d06d756c746954696d657374616d760941b60448201525f906064016103be565b604051631d04569d60e21b8152602060048201526011602482015270676574536368656d61526567697374727960781b60448201525f906064016103be565b600180545f9182919082610ac783611389565b909155506040805160208101929092526bffffffffffffffffffffffff193360601b169082015242605482015283356074820152609401604051602081830303815290604052805190602001209050604051806101400160405280828152602001845f01358152602001426001600160401b03168152602001848060200190610b5091906113ad565b610b619060408101906020016113cb565b6001600160401b031681526020015f6001600160401b03168152602001848060200190610b8e91906113ad565b606001358152602001848060200190610ba791906113ad565b610bb59060208101906113e4565b6001600160a01b03168152602001336001600160a01b03168152602001848060200190610be291906113ad565b610bf39060608101906040016113fd565b15158152602001848060200190610c0a91906113ad565b610c18906080810190611416565b8080601f0160208091040260200160405190810160405280939291908181526020018383808284375f92018290525093909452505083815260208181526040918290208451815590840151600182015590830151600282018054606086015160808701516001600160401b03908116600160801b0267ffffffffffffffff60801b19928216600160401b026001600160801b03199094169190951617919091171691909117905560a0830151600382015560c08301516004820180546001600160a01b039283166001600160a01b031990911617905560e08401516005830180546101008701511515600160a01b026001600160a81b031990911692909316919091179190911790556101208301519091506006820190610d3990826112cf565b50508335905033610d4d60208601866113ad565b610d5b9060208101906113e4565b6001600160a01b03167f8bf46bf4cfd674fa735a3d63ec1c9ad4153f033c290341f3a588b75685141b3584604051610d9591815260200190565b60405180910390a492915050565b5f5f83601f840112610db3575f5ffd5b5081356001600160401b03811115610dc9575f5ffd5b6020830191508360208260051b8501011115610de3575f5ffd5b9250929050565b5f5f60208385031215610dfb575f5ffd5b82356001600160401b03811115610e10575f5ffd5b610e1c85828601610da3565b90969095509350505050565b634e487b7160e01b5f52604160045260245ffd5b60405161014081016001600160401b0381118282101715610e5f57610e5f610e28565b60405290565b80356001600160401b0381168114610e7b575f5ffd5b919050565b80356001600160a01b0381168114610e7b575f5ffd5b80358015158114610e7b575f5ffd5b5f82601f830112610eb4575f5ffd5b81356001600160401b03811115610ecd57610ecd610e28565b604051601f8201601f19908116603f011681016001600160401b0381118282101715610efb57610efb610e28565b604052818152838201602001851015610f12575f5ffd5b816020850160208301375f918101602001919091529392505050565b5f5f60408385031215610f3f575f5ffd5b8235915060208301356001600160401b03811115610f5b575f5ffd5b83016101408186031215610f6d575f5ffd5b610f75610e3c565b8135815260208083013590820152610f8f60408301610e65565b6040820152610fa060608301610e65565b6060820152610fb160808301610e65565b608082015260a08281013590820152610fcc60c08301610e80565b60c0820152610fdd60e08301610e80565b60e0820152610fef6101008301610e96565b6101008201526101208201356001600160401b0381111561100e575f5ffd5b61101a87828501610ea5565b6101208301525080925050509250929050565b5f6020828403121561103d575f5ffd5b81356001600160401b03811115611052575f5ffd5b820160e08185031215610a32575f5ffd5b602080825282518282018190525f918401906040840190835b8181101561109a57835183526020938401939092019160010161107c565b509095945050505050565b5f60608284031280156110b6575f5ffd5b509092915050565b5f602082840312156110ce575f5ffd5b5035919050565b5f81518084528060208401602086015e5f602082860101526020601f19601f83011685010191505092915050565b602081525f610a3260208301846110d5565b6020815281516020820152602082015160408201525f604083015161114560608401826001600160401b03169052565b5060608301516001600160401b03811660808401525060808301516001600160401b03811660a08401525060a083015160c083015260c083015161119460e08401826001600160a01b03169052565b5060e08301516001600160a01b0381166101008401525061010083015180151561012084015250610120830151610140808401526111d66101608401826110d5565b949350505050565b5f6101008284031280156110b6575f5ffd5b5f5f60408385031215611201575f5ffd5b61120a83610e80565b946020939093013593505050565b5f60208284031215611228575f5ffd5b81356001600160401b0381111561123d575f5ffd5b820160408185031215610a32575f5ffd5b600181811c9082168061126257607f821691505b60208210810361128057634e487b7160e01b5f52602260045260245ffd5b50919050565b601f8211156112ca57805f5260205f20601f840160051c810160208510156112ab5750805b601f840160051c820191505b818110156104b4575f81556001016112b7565b505050565b81516001600160401b038111156112e8576112e8610e28565b6112fc816112f6845461124e565b84611286565b6020601f82116001811461132e575f83156113175750848201515b5f19600385901b1c1916600184901b1784556104b4565b5f84815260208120601f198516915b8281101561135d578785015182556020948501946001909201910161133d565b508482101561137a57868401515f19600387901b60f8161c191681555b50505050600190811b01905550565b5f600182016113a657634e487b7160e01b5f52601160045260245ffd5b5060010190565b5f823560be198336030181126113c1575f5ffd5b9190910192915050565b5f602082840312156113db575f5ffd5b610a3282610e65565b5f602082840312156113f4575f5ffd5b610a3282610e80565b5f6020828403121561140d575f5ffd5b610a3282610e96565b5f5f8335601e1984360301811261142b575f5ffd5b8301803591506001600160401b03821115611444575f5ffd5b602001915036819003821315610de3575f5ffdfea164736f6c634300081c000a","linkReferences":{}},"methodIdentifiers":{"attest((bytes32,(address,uint64,bool,bytes32,bytes,uint256)))":"f17325e7","attestByDelegation((bytes32,(address,uint64,bool,bytes32,bytes,uint256),(uint8,bytes32,bytes32),address,uint64))":"3c042715","getAttestation(bytes32)":"a3112a64","getRevokeOffchain(address,bytes32)":"b469318d","getSchemaRegistry()":"f10b5cc8","getTimestamp(bytes32)":"d45c4435","isAttestationValid(bytes32)":"e30bb563","multiAttest((bytes32,(address,uint64,bool,bytes32,bytes,uint256)[])[])":"44adc90e","multiAttestByDelegation((bytes32,(address,uint64,bool,bytes32,bytes,uint256)[],(uint8,bytes32,bytes32)[],address,uint64)[])":"95411525","multiRevoke((bytes32,(bytes32,uint256)[])[])":"4cb7e9e5","multiRevokeByDelegation((bytes32,(bytes32,uint256)[],(uint8,bytes32,bytes32)[],address,uint64)[])":"0eabf660","multiRevokeOffchain(bytes32[])":"13893f61","multiTimestamp(bytes32[])":"e71ff365","revoke((bytes32,(bytes32,uint256)))":"46926267","revokeByDelegation((bytes32,(bytes32,uint256),(uint8,bytes32,bytes32),address,uint64))":"a6d4dbc7","revokeOffchain(bytes32)":"cf190f34","setAttestationByUID(bytes32,(bytes32,bytes32,uint64,uint64,uint64,bytes32,address,address,bool,bytes))":"0eec2013","timestamp(bytes32)":"4d003070","version()":"54fd4d50"},"id":132}