{"abi":[{"type":"function","name":"attest","inputs":[{"name":"request","type":"tuple","internalType":"struct AttestationRequest","components":[{"name":"schema","type":"bytes32","internalType":"bytes32"},{"name":"data","type":"tuple","internalType":"struct AttestationRequestData","components":[{"name":"recipient","type":"address","internalType":"address"},{"name":"expirationTime","type":"uint64","internalType":"uint64"},{"name":"revocable","type":"bool","internalType":"bool"},{"name":"refUID","type":"bytes32","internalType":"bytes32"},{"name":"data","type":"bytes","internalType":"bytes"},{"name":"value","type":"uint256","internalType":"uint256"}]}]}],"outputs":[{"name":"","type":"bytes32","internalType":"bytes32"}],"stateMutability":"payable"},{"type":"function","name":"attestByDelegation","inputs":[{"name":"","type":"tuple","internalType":"struct DelegatedAttestationRequest","components":[{"name":"schema","type":"bytes32","internalType":"bytes32"},{"name":"data","type":"tuple","internalType":"struct AttestationRequestData","components":[{"name":"recipient","type":"address","internalType":"address"},{"name":"expirationTime","type":"uint64","internalType":"uint64"},{"name":"revocable","type":"bool","internalType":"bool"},{"name":"refUID","type":"bytes32","internalType":"bytes32"},{"name":"data","type":"bytes","internalType":"bytes"},{"name":"value","type":"uint256","internalType":"uint256"}]},{"name":"signature","type":"tuple","internalType":"struct Signature","components":[{"name":"v","type":"uint8","internalType":"uint8"},{"name":"r","type":"bytes32","internalType":"bytes32"},{"name":"s","type":"bytes32","internalType":"bytes32"}]},{"name":"attester","type":"address","internalType":"address"},{"name":"deadline","type":"uint64","internalType":"uint64"}]}],"outputs":[{"name":"","type":"bytes32","internalType":"bytes32"}],"stateMutability":"payable"},{"type":"function","name":"getAttestation","inputs":[{"name":"uid","type":"bytes32","internalType":"bytes32"}],"outputs":[{"name":"","type":"tuple","internalType":"struct Attestation","components":[{"name":"uid","type":"bytes32","internalType":"bytes32"},{"name":"schema","type":"bytes32","internalType":"bytes32"},{"name":"time","type":"uint64","internalType":"uint64"},{"name":"expirationTime","type":"uint64","internalType":"uint64"},{"name":"revocationTime","type":"uint64","internalType":"uint64"},{"name":"refUID","type":"bytes32","internalType":"bytes32"},{"name":"recipient","type":"address","internalType":"address"},{"name":"attester","type":"address","internalType":"address"},{"name":"revocable","type":"bool","internalType":"bool"},{"name":"data","type":"bytes","internalType":"bytes"}]}],"stateMutability":"view"},{"type":"function","name":"getRevokeOffchain","inputs":[{"name":"","type":"address","internalType":"address"},{"name":"","type":"bytes32","internalType":"bytes32"}],"outputs":[{"name":"","type":"uint64","internalType":"uint64"}],"stateMutability":"pure"},{"type":"function","name":"getSchemaRegistry","inputs":[],"outputs":[{"name":"","type":"address","internalType":"contract ISchemaRegistry"}],"stateMutability":"pure"},{"type":"function","name":"getTimestamp","inputs":[{"name":"","type":"bytes32","internalType":"bytes32"}],"outputs":[{"name":"","type":"uint64","internalType":"uint64"}],"stateMutability":"pure"},{"type":"function","name":"isAttestationValid","inputs":[{"name":"uid","type":"bytes32","internalType":"bytes32"}],"outputs":[{"name":"","type":"bool","internalType":"bool"}],"stateMutability":"view"},{"type":"function","name":"multiAttest","inputs":[{"name":"","type":"tuple[]","internalType":"struct MultiAttestationRequest[]","components":[{"name":"schema","type":"bytes32","internalType":"bytes32"},{"name":"data","type":"tuple[]","internalType":"struct AttestationRequestData[]","components":[{"name":"recipient","type":"address","internalType":"address"},{"name":"expirationTime","type":"uint64","internalType":"uint64"},{"name":"revocable","type":"bool","internalType":"bool"},{"name":"refUID","type":"bytes32","internalType":"bytes32"},{"name":"data","type":"bytes","internalType":"bytes"},{"name":"value","type":"uint256","internalType":"uint256"}]}]}],"outputs":[{"name":"","type":"bytes32[]","internalType":"bytes32[]"}],"stateMutability":"payable"},{"type":"function","name":"multiAttestByDelegation","inputs":[{"name":"","type":"tuple[]","internalType":"struct MultiDelegatedAttestationRequest[]","components":[{"name":"schema","type":"bytes32","internalType":"bytes32"},{"name":"data","type":"tuple[]","internalType":"struct AttestationRequestData[]","components":[{"name":"recipient","type":"address","internalType":"address"},{"name":"expirationTime","type":"uint64","internalType":"uint64"},{"name":"revocable","type":"bool","internalType":"bool"},{"name":"refUID","type":"bytes32","internalType":"bytes32"},{"name":"data","type":"bytes","internalType":"bytes"},{"name":"value","type":"uint256","internalType":"uint256"}]},{"name":"signatures","type":"tuple[]","internalType":"struct Signature[]","components":[{"name":"v","type":"uint8","internalType":"uint8"},{"name":"r","type":"bytes32","internalType":"bytes32"},{"name":"s","type":"bytes32","internalType":"bytes32"}]},{"name":"attester","type":"address","internalType":"address"},{"name":"deadline","type":"uint64","internalType":"uint64"}]}],"outputs":[{"name":"","type":"bytes32[]","internalType":"bytes32[]"}],"stateMutability":"payable"},{"type":"function","name":"multiRevoke","inputs":[{"name":"","type":"tuple[]","internalType":"struct MultiRevocationRequest[]","components":[{"name":"schema","type":"bytes32","internalType":"bytes32"},{"name":"data","type":"tuple[]","internalType":"struct RevocationRequestData[]","components":[{"name":"uid","type":"bytes32","internalType":"bytes32"},{"name":"value","type":"uint256","internalType":"uint256"}]}]}],"outputs":[],"stateMutability":"payable"},{"type":"function","name":"multiRevokeByDelegation","inputs":[{"name":"","type":"tuple[]","internalType":"struct MultiDelegatedRevocationRequest[]","components":[{"name":"schema","type":"bytes32","internalType":"bytes32"},{"name":"data","type":"tuple[]","internalType":"struct RevocationRequestData[]","components":[{"name":"uid","type":"bytes32","internalType":"bytes32"},{"name":"value","type":"uint256","internalType":"uint256"}]},{"name":"signatures","type":"tuple[]","internalType":"struct Signature[]","components":[{"name":"v","type":"uint8","internalType":"uint8"},{"name":"r","type":"bytes32","internalType":"bytes32"},{"name":"s","type":"bytes32","internalType":"bytes32"}]},{"name":"revoker","type":"address","internalType":"address"},{"name":"deadline","type":"uint64","internalType":"uint64"}]}],"outputs":[],"stateMutability":"payable"},{"type":"function","name":"multiRevokeOffchain","inputs":[{"name":"","type":"bytes32[]","internalType":"bytes32[]"}],"outputs":[{"name":"","type":"uint64","internalType":"uint64"}],"stateMutability":"pure"},{"type":"function","name":"multiTimestamp","inputs":[{"name":"","type":"bytes32[]","internalType":"bytes32[]"}],"outputs":[{"name":"","type":"uint64","internalType":"uint64"}],"stateMutability":"pure"},{"type":"function","name":"revoke","inputs":[{"name":"","type":"tuple","internalType":"struct RevocationRequest","components":[{"name":"schema","type":"bytes32","internalType":"bytes32"},{"name":"data","type":"tuple","internalType":"struct RevocationRequestData","components":[{"name":"uid","type":"bytes32","internalType":"bytes32"},{"name":"value","type":"uint256","internalType":"uint256"}]}]}],"outputs":[],"stateMutability":"payable"},{"type":"function","name":"revokeByDelegation","inputs":[{"name":"","type":"tuple","internalType":"struct DelegatedRevocationRequest","components":[{"name":"schema","type":"bytes32","internalType":"bytes32"},{"name":"data","type":"tuple","internalType":"struct RevocationRequestData","components":[{"name":"uid","type":"bytes32","internalType":"bytes32"},{"name":"value","type":"uint256","internalType":"uint256"}]},{"name":"signature","type":"tuple","internalType":"struct Signature","components":[{"name":"v","type":"uint8","internalType":"uint8"},{"name":"r","type":"bytes32","internalType":"bytes32"},{"name":"s","type":"bytes32","internalType":"bytes32"}]},{"name":"revoker","type":"address","internalType":"address"},{"name":"deadline","type":"uint64","internalType":"uint64"}]}],"outputs":[],"stateMutability":"payable"},{"type":"function","name":"revokeOffchain","inputs":[{"name":"","type":"bytes32","internalType":"bytes32"}],"outputs":[{"name":"","type":"uint64","internalType":"uint64"}],"stateMutability":"pure"},{"type":"function","name":"setAttestationByUID","inputs":[{"name":"uid","type":"bytes32","internalType":"bytes32"},{"name":"attestation","type":"tuple","internalType":"struct Attestation","components":[{"name":"uid","type":"bytes32","internalType":"bytes32"},{"name":"schema","type":"bytes32","internalType":"bytes32"},{"name":"time","type":"uint64","internalType":"uint64"},{"name":"expirationTime","type":"uint64","internalType":"uint64"},{"name":"revocationTime","type":"uint64","internalType":"uint64"},{"name":"refUID","type":"bytes32","internalType":"bytes32"},{"name":"recipient","type":"address","internalType":"address"},{"name":"attester","type":"address","internalType":"address"},{"name":"revocable","type":"bool","internalType":"bool"},{"name":"data","type":"bytes","internalType":"bytes"}]}],"outputs":[],"stateMutability":"nonpayable"},{"type":"function","name":"timestamp","inputs":[{"name":"","type":"bytes32","internalType":"bytes32"}],"outputs":[{"name":"","type":"uint64","internalType":"uint64"}],"stateMutability":"pure"},{"type":"function","name":"version","inputs":[],"outputs":[{"name":"","type":"string","internalType":"string"}],"stateMutability":"pure"},{"type":"event","name":"Attested","inputs":[{"name":"recipient","type":"address","indexed":true,"internalType":"address"},{"name":"attester","type":"address","indexed":true,"internalType":"address"},{"name":"uid","type":"bytes32","indexed":false,"internalType":"bytes32"},{"name":"schemaUID","type":"bytes32","indexed":true,"internalType":"bytes32"}],"anonymous":false},{"type":"event","name":"Revoked","inputs":[{"name":"recipient","type":"address","indexed":true,"internalType":"address"},{"name":"attester","type":"address","indexed":true,"internalType":"address"},{"name":"uid","type":"bytes32","indexed":false,"internalType":"bytes32"},{"name":"schemaUID","type":"bytes32","indexed":true,"internalType":"bytes32"}],"anonymous":false},{"type":"event","name":"RevokedOffchain","inputs":[{"name":"revoker","type":"address","indexed":true,"internalType":"address"},{"name":"data","type":"bytes32","indexed":true,"internalType":"bytes32"},{"name":"timestamp","type":"uint64","indexed":true,"internalType":"uint64"}],"anonymous":false},{"type":"event","name":"Timestamped","inputs":[{"name":"data","type":"bytes32","indexed":true,"internalType":"bytes32"},{"name":"timestamp","type":"uint64","indexed":true,"internalType":"uint64"}],"anonymous":false},{"type":"error","name":"NotImplemented","inputs":[{"name":"functionName","type":"string","internalType":"string"}]}],"bytecode":{"object":"0x6080806040523460195760018055611220908161001e8239f35b5f80fdfe6080806040526004361015610012575f80fd5b5f3560e01c9081630eabf6601461102a575080630eec201314610d6857806313893f6114610cfa5780633c04271514610c9557806344adc90e14610c345780634692626714610bf95780634cb7e9e514610b985780634d00307014610b5557806354fd4d5014610afe5780639541152514610a8b578063a3112a6414610857578063a6d4dbc71461080f578063b469318d146107b2578063cf190f341461076a578063d45c443514610724578063e30bb563146105bb578063e71ff36514610552578063f10b5cc8146105085763f17325e7146100ed575f80fd5b6003196020368201126104f057600435906001600160401b0382116104f05760409082360301126104f057600154905f1982146104f4576001820160015560405191602083019081523360601b604084015242605484015281600401356074840152607483528260a08101106001600160401b0360a0850111176104dc5760a083016040528251902090602061018960248301836004016111ea565b01356001600160401b03811681036104f05760606101ad60248401846004016111ea565b01356101c76101c260248501856004016111ea565b6111ff565b60406101d960248601866004016111ea565b01359081151582036104f0576101f560248601866004016111ea565b608081013590601e19813603018212156104f05701926001600160401b038435116104f0578335360360208501136104f0576001600160401b036102979561023f60a08b016110ca565b60a08a01899052600488013560c08b015242821660e08b0152166101008901525f6101208901526101408801526001600160a01b03166101608701523361018087015215156101a0860152369080359060200161112f565b6101c0840152815f525f6020526101c0600660405f2060a0860151815560c08601516001820155600281016001600160401b0360e08801511681549067ffffffffffffffff60401b6101008a015160401b16906001600160401b0360801b6101208b015160801b16926001600160401b0360c01b16171717905561014086015160038201556004810160018060a01b03610160880151166bffffffffffffffffffffffff60a01b8254161790556005810160018060a01b036101808801511681549060ff60a01b6101a08a0151151560a01b16916affffffffffffffffffffff60a81b1617179055019301519283516001600160401b0381116104dc5761039e82546111b2565b601f8111610497575b50806020958690601f8311600114610435575f9261042a575b50508160011b915f199060031b1c19161790555b6001600160a01b036103ef6101c260248401600485016111ea565b16906040519083825260040135917f8bf46bf4cfd674fa735a3d63ec1c9ad4153f033c290341f3a588b75685141b35853393a4604051908152f35b015190505f806103c0565b5f8581528881209350601f198516905b8181106104805750908460019594939210610468575b505050811b0190556103d4565b01515f1960f88460031b161c191690555f808061045b565b929389600181928786015181550195019301610445565b825f5260205f20601f830160051c810191602084106104d2575b601f0160051c01905b8181106104c757506103a7565b5f81556001016104ba565b90915081906104b1565b634e487b7160e01b5f52604160045260245ffd5b5f80fd5b634e487b7160e01b5f52601160045260245ffd5b346104f0575f3660031901126104f057604051631d04569d60e21b8152602060048201526011602482015270676574536368656d61526567697374727960781b6044820152606490fd5b346104f05760203660031901126104f0576004356001600160401b0381116104f05761058290369060040161109a565b5050604051631d04569d60e21b815260206004820152600e60248201526d06d756c746954696d657374616d760941b6044820152606490fd5b346104f0576020806003193601126104f0576004355f525f815260405f20604051906105e6826110ca565b805482526001916001820154848201526002820154928460066001600160401b03948587166040860152858760401c16606086015285608086019760801c168752600381015460a086015260ff60018060a01b038060048401541660c0880152600583015490811660e088015260a01c161515610100860152016040519283915f91815491610674836111b2565b808652926001811690811561070157506001146106c3575b50505061069b925003826110e6565b61012082015251151591826106b7575b50506040519015158152f35b511615905082806106ab565b5f90815285812095935091905b8183106106e957508994505082010161069b898061068c565b855487840185015294850194869450918301916106d0565b9250505061069b94925060ff191682840152151560051b8201018792898061068c565b346104f05760203660031901126104f057604051631d04569d60e21b815260206004820152600c60248201526b067657454696d657374616d760a41b6044820152606490fd5b346104f05760203660031901126104f057604051631d04569d60e21b815260206004820152600e60248201526d3932bb37b5b2a7b33331b430b4b760911b6044820152606490fd5b346104f05760403660031901126104f0576004356001600160a01b038116036104f057604051631d04569d60e21b815260206004820152601160248201527033b2ba2932bb37b5b2a7b33331b430b4b760791b6044820152606490fd5b6101003660031901126104f057604051631d04569d60e21b81526020600482015260126024820152713932bb37b5b2a13ca232b632b3b0ba34b7b760711b6044820152606490fd5b346104f05760203660031901126104f0576060610120604051610879816110ca565b5f81525f60208201525f60408201525f838201525f60808201525f60a08201525f60c08201525f60e08201525f61010082015201526004355f525f60205260405f206040516108c7816110ca565b81548152600182015460208201526001600160401b0360028301548181166040840152818160401c16606084015260801c166080820152600382015460a082015260018060a01b0360048301541660c082015260ff600583015460018060a01b03811660e084015260a01c1615156101008201526040515f9260068101549061094f826111b2565b8084529160018116908115610a635750600114610a26575b5050610978816101209403826110e6565b82820152610a226040519283926020845280516020850152602081015160408501526001600160401b0360408201511660608501526001600160401b0360608201511660808501526001600160401b0360808201511660a085015260a081015160c085015260018060a01b0360c08201511660e085015260018060a01b0360e082015116610100850152610100810151151582850152015161014080840152610160830190611174565b0390f35b6006919450015f5260205f205f905b848210610a4d57508101602001925061097881610967565b6001816020925483858701015201910190610a35565b610120965084925060209150926109789360ff191682840152151560051b8201019450610967565b60203660031901126104f0576004356001600160401b0381116104f057610ab690369060040161109a565b5050604051631d04569d60e21b815260206004820152601760248201527f6d756c7469417474657374427944656c65676174696f6e0000000000000000006044820152606490fd5b346104f0575f3660031901126104f05760405160408101908082106001600160401b038311176104dc57610a229160405260058152640312e302e360dc1b6020820152604051918291602083526020830190611174565b346104f05760203660031901126104f057604051631d04569d60e21b8152602060048201526009602482015268074696d657374616d760bc1b6044820152606490fd5b60203660031901126104f0576004356001600160401b0381116104f057610bc390369060040161109a565b5050604051631d04569d60e21b815260206004820152600b60248201526a6d756c74695265766f6b6560a81b6044820152606490fd5b60603660031901126104f057604051631d04569d60e21b81526020600482015260066024820152657265766f6b6560d01b6044820152606490fd5b60203660031901126104f0576004356001600160401b0381116104f057610c5f90369060040161109a565b5050604051631d04569d60e21b815260206004820152600b60248201526a1b5d5b1d1a505d1d195cdd60aa1b6044820152606490fd5b6003196020368201126104f057600435906001600160401b0382116104f05760e091360301126104f057604051631d04569d60e21b815260206004820152601260248201527130ba3a32b9ba213ca232b632b3b0ba34b7b760711b6044820152606490fd5b346104f05760203660031901126104f0576004356001600160401b0381116104f057610d2a90369060040161109a565b5050604051631d04569d60e21b815260206004820152601360248201527236bab63a34a932bb37b5b2a7b33331b430b4b760691b6044820152606490fd5b346104f0576003196040368201126104f057602435906001600160401b03908183116104f0576101409083360301126104f05760405190610da8826110ca565b8260040135825260208083019260248501358452610dc860448601611107565b9060408101918252610ddc60648701611107565b9160608201928352610df060848801611107565b966080830197885260a0830160a48201358152610e0f60c4830161111b565b9060c08501918252610e2360e4840161111b565b9360e086019485526101048401359384151585036104f0576101008701948552610124810135908a82116104f0570196366023890112156104f057610e74600698369060246004820135910161112f565b9b61012088019c8d526004355f525f8a5260405f209751885560019b518c8901558a6002890193511667ffffffffffffffff60401b8454935160401b16916001600160401b0360801b905160801b16926001600160401b0360c01b1617171790555160038501556004840160018060a01b03809251166bffffffffffffffffffffffff60a01b8254161790556005840192511682549160ff60a01b9051151560a01b16916affffffffffffffffffffff60a81b161717905501935180519283116104dc57610f4285546111b2565b601f8111610fe4575b5081601f8411600114610f8557509282939183925f94610f7a575b50501b915f199060031b1c19161790555f80f35b015192508580610f66565b919083601f198116875f52845f20945f905b88838310610fca5750505010610fb2575b505050811b019055005b01515f1960f88460031b161c19169055838080610fa8565b858701518855909601959485019487935090810190610f97565b855f52825f20601f850160051c810191848610611020575b601f0160051c019085905b828110611015575050610f4b565b5f8155018590611007565b9091508190610ffc565b60203660031901126104f057600435906001600160401b0382116104f057611058606492369060040161109a565b5050631d04569d60e21b815260206004820152601760248201527f6d756c74695265766f6b65427944656c65676174696f6e0000000000000000006044820152fd5b9181601f840112156104f0578235916001600160401b0383116104f0576020808501948460051b0101116104f057565b61014081019081106001600160401b038211176104dc57604052565b90601f801991011681019081106001600160401b038211176104dc57604052565b35906001600160401b03821682036104f057565b35906001600160a01b03821682036104f057565b9291926001600160401b0382116104dc5760405191611158601f8201601f1916602001846110e6565b8294818452818301116104f0578281602093845f960137010152565b91908251928382525f5b84811061119e575050825f602080949584010152601f8019910116010190565b60208183018101518483018201520161117e565b90600182811c921680156111e0575b60208310146111cc57565b634e487b7160e01b5f52602260045260245ffd5b91607f16916111c1565b90359060be19813603018212156104f0570190565b356001600160a01b03811681036104f0579056fea164736f6c6343000819000a","linkReferences":{}},"methodIdentifiers":{"attest((bytes32,(address,uint64,bool,bytes32,bytes,uint256)))":"f17325e7","attestByDelegation((bytes32,(address,uint64,bool,bytes32,bytes,uint256),(uint8,bytes32,bytes32),address,uint64))":"3c042715","getAttestation(bytes32)":"a3112a64","getRevokeOffchain(address,bytes32)":"b469318d","getSchemaRegistry()":"f10b5cc8","getTimestamp(bytes32)":"d45c4435","isAttestationValid(bytes32)":"e30bb563","multiAttest((bytes32,(address,uint64,bool,bytes32,bytes,uint256)[])[])":"44adc90e","multiAttestByDelegation((bytes32,(address,uint64,bool,bytes32,bytes,uint256)[],(uint8,bytes32,bytes32)[],address,uint64)[])":"95411525","multiRevoke((bytes32,(bytes32,uint256)[])[])":"4cb7e9e5","multiRevokeByDelegation((bytes32,(bytes32,uint256)[],(uint8,bytes32,bytes32)[],address,uint64)[])":"0eabf660","multiRevokeOffchain(bytes32[])":"13893f61","multiTimestamp(bytes32[])":"e71ff365","revoke((bytes32,(bytes32,uint256)))":"46926267","revokeByDelegation((bytes32,(bytes32,uint256),(uint8,bytes32,bytes32),address,uint64))":"a6d4dbc7","revokeOffchain(bytes32)":"cf190f34","setAttestationByUID(bytes32,(bytes32,bytes32,uint64,uint64,uint64,bytes32,address,address,bool,bytes))":"0eec2013","timestamp(bytes32)":"4d003070","version()":"54fd4d50"},"id":122}