{"abi":[{"type":"function","name":"getAttestation","inputs":[{"name":"id","type":"uint256","internalType":"uint256"}],"outputs":[{"name":"","type":"tuple","internalType":"struct Attestation","components":[{"name":"uid","type":"bytes32","internalType":"bytes32"},{"name":"schema","type":"bytes32","internalType":"bytes32"},{"name":"time","type":"uint64","internalType":"uint64"},{"name":"expirationTime","type":"uint64","internalType":"uint64"},{"name":"revocationTime","type":"uint64","internalType":"uint64"},{"name":"refUID","type":"bytes32","internalType":"bytes32"},{"name":"recipient","type":"address","internalType":"address"},{"name":"attester","type":"address","internalType":"address"},{"name":"revocable","type":"bool","internalType":"bool"},{"name":"data","type":"bytes","internalType":"bytes"}]}],"stateMutability":"view"},{"type":"function","name":"setAttestation","inputs":[{"name":"id","type":"uint256","internalType":"uint256"},{"name":"attestation","type":"tuple","internalType":"struct Attestation","components":[{"name":"uid","type":"bytes32","internalType":"bytes32"},{"name":"schema","type":"bytes32","internalType":"bytes32"},{"name":"time","type":"uint64","internalType":"uint64"},{"name":"expirationTime","type":"uint64","internalType":"uint64"},{"name":"revocationTime","type":"uint64","internalType":"uint64"},{"name":"refUID","type":"bytes32","internalType":"bytes32"},{"name":"recipient","type":"address","internalType":"address"},{"name":"attester","type":"address","internalType":"address"},{"name":"revocable","type":"bool","internalType":"bool"},{"name":"data","type":"bytes","internalType":"bytes"}]}],"outputs":[],"stateMutability":"nonpayable"}],"bytecode":{"object":"0x608080604052346015576108b2908161001a8239f35b5f80fdfe6080806040526004361015610012575f80fd5b5f3560e01c90816329be4db2146104bf575063d94ba66514610032575f80fd5b346104bb577ffffffffffffffffffffffffffffffffffffffffffffffffffffffffffffffffc6040813601126104bb576024359067ffffffffffffffff82116104bb576101409082360301126104bb576040519061008f826107c0565b80600401358252602481013560208301526100ac6044820161081e565b60408301526100bd6064820161081e565b60608301526100ce6084820161081e565b608083015260a481013560a08301526100e960c48201610833565b60c08301526100fa60e48201610833565b60e083015261010481013580151581036104bb576101008301526101248101359067ffffffffffffffff82116104bb573660238383010112156104bb5767ffffffffffffffff600483830101351161048e576040519161018860207fffffffffffffffffffffffffffffffffffffffffffffffffffffffffffffffe0601f60048587010135011601846107dd565b8181016004810135808552369101602401116104bb5760048183826020945f9601013560248383010185880137010135830101526101208201526004355f525f60205260405f208151815561012060066001926020850151848201556002810167ffffffffffffffff6040870151168154906fffffffffffffffff0000000000000000606089015160401b16907fffffffffffffffff00000000000000000000000000000000000000000000000077ffffffffffffffff0000000000000000000000000000000060808b015160801b169316171717905560a085015160038201556004810173ffffffffffffffffffffffffffffffffffffffff908160c0880151167fffffffffffffffffffffffff0000000000000000000000000000000000000000825416179055600582019060e0870151168154907fffffffffffffffffffffff00000000000000000000000000000000000000000074ff00000000000000000000000000000000000000006101008a0151151560a01b16921617179055019201519081519167ffffffffffffffff831161048e576103298454610854565b601f8111610446575b50602090601f84116001146103aa575f9184918261037f575b50507fffffffffffffffffffffffffffffffffffffffffffffffffffffffffffffffff91921b9260031b1c19161790555f80f35b015191507fffffffffffffffffffffffffffffffffffffffffffffffffffffffffffffffff5f61034b565b907fffffffffffffffffffffffffffffffffffffffffffffffffffffffffffffffe08493941691855f528360205f20935f5b8782821061042d575050106103f6575b505050811b019055005b01517fffffffffffffffffffffffffffffffffffffffffffffffffffffffffffffffff60f88460031b161c191690555f80806103ec565b84860151875590950194602094850194879350016103dc565b845f5260205f20601f850160051c81019160208610610484575b601f0160051c019083905b828110610479575050610332565b5f815501839061046b565b9091508190610460565b7f4e487b71000000000000000000000000000000000000000000000000000000005f52604160045260245ffd5b5f80fd5b346104bb5760207ffffffffffffffffffffffffffffffffffffffffffffffffffffffffffffffffc3601126104bb57610120816104fd6060936107c0565b5f81525f60208201525f60408201525f838201525f60808201525f60a08201525f60c08201525f60e08201525f61010082015201526004355f525f60205260405f206040519061054c826107c0565b805482526001810154602083015267ffffffffffffffff60028201548181166040850152818160401c16606085015260801c166080830152600381015460a083015273ffffffffffffffffffffffffffffffffffffffff60048201541660c083015260ff600582015473ffffffffffffffffffffffffffffffffffffffff811660e085015260a01c16151561010083015260405190815f6006830154926105f284610854565b80845293600181169081156107805750600114610739575b50610617925003826107dd565b6101208201526101206040519160208352805160208401526020810151604084015267ffffffffffffffff604082015116606084015267ffffffffffffffff606082015116608084015267ffffffffffffffff60808201511660a084015260a081015160c084015273ffffffffffffffffffffffffffffffffffffffff60c08201511660e084015273ffffffffffffffffffffffffffffffffffffffff60e082015116610100840152610100810151151582840152015161014080830152805190816101608401525f5b828110610722575050817fffffffffffffffffffffffffffffffffffffffffffffffffffffffffffffffe0601f610180935f85828601015201168101030190f35b8060208092840101516101808287010152016106e1565b60069150929192015f5260205f20905f915b818310610764575050906020610617928201018561060a565b602091935080600191548385880101520191019091839261074b565b602093506106179592507fffffffffffffffffffffffffffffffffffffffffffffffffffffffffffffff0091501682840152151560051b8201018561060a565b610140810190811067ffffffffffffffff82111761048e57604052565b90601f7fffffffffffffffffffffffffffffffffffffffffffffffffffffffffffffffe0910116810190811067ffffffffffffffff82111761048e57604052565b359067ffffffffffffffff821682036104bb57565b359073ffffffffffffffffffffffffffffffffffffffff821682036104bb57565b90600182811c9216801561089b575b602083101461086e57565b7f4e487b71000000000000000000000000000000000000000000000000000000005f52602260045260245ffd5b91607f169161086356fea164736f6c6343000819000a","linkReferences":{}},"methodIdentifiers":{"getAttestation(uint256)":"29be4db2","setAttestation(uint256,(bytes32,bytes32,uint64,uint64,uint64,bytes32,address,address,bool,bytes))":"d94ba665"},"id":109}