{"abi":[{"type":"function","name":"addAdmin","inputs":[{"name":"projectUid","type":"bytes32","internalType":"bytes32"},{"name":"addr","type":"address","internalType":"address"}],"outputs":[],"stateMutability":"nonpayable"},{"type":"function","name":"addProjectAdmin","inputs":[{"name":"projectUid","type":"bytes32","internalType":"bytes32"},{"name":"addr","type":"address","internalType":"address"}],"outputs":[],"stateMutability":"nonpayable"},{"type":"function","name":"attest","inputs":[{"name":"request","type":"tuple","internalType":"struct AttestationRequest","components":[{"name":"schema","type":"bytes32","internalType":"bytes32"},{"name":"data","type":"tuple","internalType":"struct AttestationRequestData","components":[{"name":"recipient","type":"address","internalType":"address"},{"name":"expirationTime","type":"uint64","internalType":"uint64"},{"name":"revocable","type":"bool","internalType":"bool"},{"name":"refUID","type":"bytes32","internalType":"bytes32"},{"name":"data","type":"bytes","internalType":"bytes"},{"name":"value","type":"uint256","internalType":"uint256"}]}]}],"outputs":[{"name":"","type":"bytes32","internalType":"bytes32"}],"stateMutability":"payable"},{"type":"function","name":"attestationCount","inputs":[],"outputs":[{"name":"","type":"uint256","internalType":"uint256"}],"stateMutability":"view"},{"type":"function","name":"attestationExists","inputs":[{"name":"uid","type":"bytes32","internalType":"bytes32"}],"outputs":[{"name":"","type":"bool","internalType":"bool"}],"stateMutability":"view"},{"type":"function","name":"attestations","inputs":[{"name":"","type":"bytes32","internalType":"bytes32"}],"outputs":[{"name":"schema","type":"bytes32","internalType":"bytes32"},{"name":"recipient","type":"address","internalType":"address"},{"name":"refUID","type":"bytes32","internalType":"bytes32"},{"name":"data","type":"bytes","internalType":"bytes"},{"name":"exists","type":"bool","internalType":"bool"},{"name":"revocable","type":"bool","internalType":"bool"},{"name":"expirationTime","type":"uint64","internalType":"uint64"}],"stateMutability":"view"},{"type":"function","name":"countAttestationsWithRef","inputs":[{"name":"refUID","type":"bytes32","internalType":"bytes32"}],"outputs":[{"name":"count","type":"uint256","internalType":"uint256"}],"stateMutability":"view"},{"type":"function","name":"createProject","inputs":[{"name":"projectUid","type":"bytes32","internalType":"bytes32"},{"name":"owner","type":"address","internalType":"address"}],"outputs":[],"stateMutability":"nonpayable"},{"type":"function","name":"getAttestation","inputs":[{"name":"uid","type":"bytes32","internalType":"bytes32"}],"outputs":[{"name":"schema","type":"bytes32","internalType":"bytes32"},{"name":"recipient","type":"address","internalType":"address"},{"name":"refUID","type":"bytes32","internalType":"bytes32"},{"name":"data","type":"bytes","internalType":"bytes"},{"name":"exists","type":"bool","internalType":"bool"}],"stateMutability":"view"},{"type":"function","name":"getAttestationDataAsString","inputs":[{"name":"uid","type":"bytes32","internalType":"bytes32"}],"outputs":[{"name":"","type":"string","internalType":"string"}],"stateMutability":"view"},{"type":"function","name":"getProjectAdmins","inputs":[{"name":"projectUid","type":"bytes32","internalType":"bytes32"}],"outputs":[{"name":"","type":"address[]","internalType":"address[]"}],"stateMutability":"view"},{"type":"function","name":"getProjectOwner","inputs":[{"name":"projectUid","type":"bytes32","internalType":"bytes32"}],"outputs":[{"name":"","type":"address","internalType":"address"}],"stateMutability":"view"},{"type":"function","name":"isAdmin","inputs":[{"name":"projectId","type":"bytes32","internalType":"bytes32"},{"name":"addr","type":"address","internalType":"address"}],"outputs":[{"name":"","type":"bool","internalType":"bool"}],"stateMutability":"view"},{"type":"function","name":"isOwner","inputs":[{"name":"projectId","type":"bytes32","internalType":"bytes32"},{"name":"addr","type":"address","internalType":"address"}],"outputs":[{"name":"","type":"bool","internalType":"bool"}],"stateMutability":"view"},{"type":"function","name":"multiSequentialAttest","inputs":[{"name":"requestNodes","type":"tuple[]","internalType":"struct IGap.AttestationRequestNode[]","components":[{"name":"uid","type":"bytes32","internalType":"bytes32"},{"name":"multiRequest","type":"tuple","internalType":"struct MultiAttestationRequest","components":[{"name":"schema","type":"bytes32","internalType":"bytes32"},{"name":"data","type":"tuple[]","internalType":"struct AttestationRequestData[]","components":[{"name":"recipient","type":"address","internalType":"address"},{"name":"expirationTime","type":"uint64","internalType":"uint64"},{"name":"revocable","type":"bool","internalType":"bool"},{"name":"refUID","type":"bytes32","internalType":"bytes32"},{"name":"data","type":"bytes","internalType":"bytes"},{"name":"value","type":"uint256","internalType":"uint256"}]}]},{"name":"refIdx","type":"uint256","internalType":"uint256"}]}],"outputs":[],"stateMutability":"payable"},{"type":"function","name":"projectExists","inputs":[{"name":"projectUid","type":"bytes32","internalType":"bytes32"}],"outputs":[{"name":"","type":"bool","internalType":"bool"}],"stateMutability":"view"},{"type":"function","name":"removeAdmin","inputs":[{"name":"projectUid","type":"bytes32","internalType":"bytes32"},{"name":"addr","type":"address","internalType":"address"}],"outputs":[],"stateMutability":"nonpayable"},{"type":"function","name":"removeProjectAdmin","inputs":[{"name":"projectUid","type":"bytes32","internalType":"bytes32"},{"name":"addr","type":"address","internalType":"address"}],"outputs":[],"stateMutability":"nonpayable"},{"type":"function","name":"revertMessage","inputs":[],"outputs":[{"name":"","type":"string","internalType":"string"}],"stateMutability":"view"},{"type":"function","name":"setAdmin","inputs":[{"name":"projectUid","type":"bytes32","internalType":"bytes32"},{"name":"admin","type":"address","internalType":"address"},{"name":"isAdminStatus","type":"bool","internalType":"bool"}],"outputs":[],"stateMutability":"nonpayable"},{"type":"function","name":"setRevertMessage","inputs":[{"name":"_message","type":"string","internalType":"string"}],"outputs":[],"stateMutability":"nonpayable"},{"type":"function","name":"setShouldRevert","inputs":[{"name":"_shouldRevert","type":"bool","internalType":"bool"}],"outputs":[],"stateMutability":"nonpayable"},{"type":"function","name":"shouldRevert","inputs":[],"outputs":[{"name":"","type":"bool","internalType":"bool"}],"stateMutability":"view"},{"type":"function","name":"transferProjectOwnership","inputs":[{"name":"projectUid","type":"bytes32","internalType":"bytes32"},{"name":"newOwner","type":"address","internalType":"address"}],"outputs":[],"stateMutability":"nonpayable"},{"type":"event","name":"AdminAdded","inputs":[{"name":"projectUID","type":"bytes32","indexed":true,"internalType":"bytes32"},{"name":"admin","type":"address","indexed":true,"internalType":"address"}],"anonymous":false},{"type":"event","name":"AdminRemoved","inputs":[{"name":"projectUID","type":"bytes32","indexed":true,"internalType":"bytes32"},{"name":"admin","type":"address","indexed":true,"internalType":"address"}],"anonymous":false},{"type":"event","name":"AttestationCreated","inputs":[{"name":"uid","type":"bytes32","indexed":true,"internalType":"bytes32"},{"name":"schema","type":"bytes32","indexed":true,"internalType":"bytes32"},{"name":"recipient","type":"address","indexed":true,"internalType":"address"},{"name":"refUID","type":"bytes32","indexed":false,"internalType":"bytes32"}],"anonymous":false},{"type":"event","name":"OwnershipTransferred","inputs":[{"name":"projectUID","type":"bytes32","indexed":true,"internalType":"bytes32"},{"name":"previousOwner","type":"address","indexed":true,"internalType":"address"},{"name":"newOwner","type":"address","indexed":true,"internalType":"address"}],"anonymous":false},{"type":"event","name":"ProjectCreated","inputs":[{"name":"projectUID","type":"bytes32","indexed":true,"internalType":"bytes32"},{"name":"owner","type":"address","indexed":true,"internalType":"address"}],"anonymous":false},{"type":"error","name":"AlreadyAdmin","inputs":[]},{"type":"error","name":"NotAdmin","inputs":[]},{"type":"error","name":"NotProjectAdmin","inputs":[]},{"type":"error","name":"NotProjectOwner","inputs":[]},{"type":"error","name":"ProjectNotFound","inputs":[]},{"type":"error","name":"ZeroAddress","inputs":[]}],"bytecode":{"object":"0x60808060405234601557611dfe908161001a8239f35b5f80fdfe6080806040526004361015610012575f80fd5b5f905f3560e01c908163050a06e9146116935750806338975895146116615780633fb566711461163b5780634ed4fb661461159a5780635913a31c146111005780636419bcdb1461108b5780636813d78714611057578063715957a214610fa8578063797751a314610f88578063940992a314610edd5780639a19daff14610e245780639a387ce614610da85780639d667c9914610d655780639fc0982f14610d35578063a15b932114610d17578063a3112a6414610c8c578063a544d74714610b57578063b069390c14610928578063b3b14a41146107a0578063b75dbb8e1461076f578063d3072d821461074c578063dbf71177146105de578063ec253dbc146105a85763f17325e714610126575f80fd5b6003196020368201126105a057600435906001600160401b0382116105a45760409082360301126105a05760ff6003541661052857610166600254611b5c565b806002556040516101ba816101ac60208201948660040135903342889290916074949284526001600160601b03199060601b166020840152603483015260548201520190565b03601f198101835282611a75565b519020906101d66101d16024830183600401611bc8565b611bdd565b926001600160401b0360606101f16024850185600401611bc8565b013561027b6102136102096024870187600401611bc8565b6080810190611bf1565b9190610230604061022a60248a018a600401611bc8565b01611c23565b9261024c602061024660248b018b600401611bc8565b01611c30565b946040519a61025a8c611a47565b60048a01358c526001600160a01b031660208c015260408b01523691611c5f565b606088015260016080880152151560a08701521660c0850152828152806020526040812093805185556001850160018060a01b036020830151166001600160601b0360a01b8254161790556040810151600286015560608101519485516001600160401b03811161051457602096610303826102fa60038601546118cd565b60038601611cab565b8790601f83116001146104a75791806103359260049594889261049c575b50508160011b915f199060031b1c19161790565b60038201555b019061035960808201511515839060ff801983541691151516179055565b60a081015115159061ff0069ffffffffffffffff000060c0855493015160101b169260081b169069ffffffffffffffffff0019161717905560606103a36024840184600401611bc8565b013515610416575b506103bf6101d16024830183600401611bc8565b827f9b74408e94a1af56fb921847aa095c15849acfe3874695268199f8667e33aae58560606103f46024870187600401611bc8565b60405191013581526001600160a01b03909416946004013593a4604051908152f35b8281526001808552604080832080546001600160a81b0319163360ff60a01b19811691909117600160a01b1782555f818152918401885290829020805460ff19168417905585845291865282206104709190600201611aeb565b827f72d3574e35dc5b7a620c3cbcb395fec0497a0427c47762bfe8deba4688f6ff18339280a35f6103ab565b015190505f80610321565b9060038401865288862091865b601f19851681106104fd575091839160019360049695601f198116106104e5575b505050811b01600382015561033b565b01515f1960f88460031b161c191690555f80806104d5565b91928a6001819286850151815501940192016104b4565b634e487b7160e01b84526041600452602484fd5b6105336004546118cd565b61057c5760405162461bcd60e51b815260206004820152601b60248201527f4d6f636b4741503a206174746573746174696f6e206661696c656400000000006044820152606490fd5b60405162461bcd60e51b8152602060048201528061059c60248201611905565b0390fd5b5080fd5b8280fd5b50346105db5760203660031901126105db57602090600435815260018252604060018060a01b0391205416604051908152f35b80fd5b50346105db5760403660031901126105db576004356105fb611871565b9060ff60035416610707576001600160a01b038281169283156106f5578285526001602052604085209182549060ff8260a01c16156106e3576001840191335f528260205260ff60405f2054161591826106d6575b50506106c457845f528060205260ff60405f2054166106b25761068b92600291865f5260205260405f20600160ff1982541617905501611aeb565b7ff91205dfd6045d43ed190b1272b57bca9409defd9b0ce6fa8966883c813befda8380a380f35b604051631c3681a560e11b8152600490fd5b604051630c4fa5c360e21b8152600490fd5b1633141590505f80610650565b604051632627b46560e11b8152600490fd5b60405163d92e233d60e01b8152600490fd5b60405162461bcd60e51b815260206004820152601960248201527f4d6f636b4741503a206164642061646d696e206661696c6564000000000000006044820152606490fd5b50346105db57806003193601126105db57602060ff600354166040519015158152f35b50346105db5760403660031901126105db57602061079661078e611871565b600435611d9b565b6040519015158152f35b50346105db5760209060206003193601126105db576001600160401b036004358181116105a457366023820112156105a45780600401359182116105a45760243660248484010111610924576107f76004546118cd565b601f81116108cb575b508394601f84116001146108455750508293829161083194926108375750508160011b915f199060031b1c19161790565b60045580f35b602492500101355f80610321565b7f8a35acfbc15ff81a39ae7d344fd709f28e8600b4aa8c65c6b64bfe7fe36bd19b9291601f1985169186915b8383106108af5750505094836001959610610893575b505050811b0160045580f35b01602401355f19600384901b60f8161c191690555f8080610887565b908060018a978483969c89010135815501960198019190610871565b6109149060045f527f8a35acfbc15ff81a39ae7d344fd709f28e8600b4aa8c65c6b64bfe7fe36bd19b601f860160051c8101916020871061091a575b601f0160051c0190611c95565b5f610800565b9091508190610907565b8380fd5b50346105db5760403660031901126105db57600435610945611871565b90600360ff60035416610b12578184526001906001602052604085209081549460ff8660a01c16156106e3576001830191335f528260205260ff60405f2054161580610aff575b6106c45760018060a01b0380921696875f528360205260ff60405f20541615610aed5782168714610aa8579091928493875f5260205260405f2060ff1981541690556002889101945b610a04575b8787877fed26a12a69f99798799967437d7162d514e513fcea1298caaa94fa4be5d5acbf8380a380f35b845480821015610aa2578784610a1a8489611a96565b905490861b1c1614610a2f57508301836109d5565b9093505f198101908111610a8e57610a7f92859492610a54610a6193610a8498611a96565b9054911b1c169184611a96565b90919060018060a01b038084549260031b9316831b921b1916179055565b611aab565b5f808080806109da565b634e487b7160e01b88526011600452602488fd5b506109da565b60405162461bcd60e51b815260206004820152601c60248201527f43616e6e6f742072656d6f7665206f776e65722061732061646d696e000000006044820152606490fd5b604051637bfa4b9f60e01b8152600490fd5b506001600160a01b03871633141561098c565b60405162461bcd60e51b815260206004820152601c60248201527f4d6f636b4741503a2072656d6f76652061646d696e206661696c6564000000006044820152606490fd5b50346105db5760403660031901126105db57600435610b74611871565b60ff60035416610c3c576001600160a01b03818116929083156106f55781855260016020526040852090815460ff8160a01c16156106e3571692338403610c2a57845f526001820160205260405f209081549160ff831615610c0c575b505081546001600160a01b0319168517909155507f0b659dccc8eb950324170e8d9598af5ee04ee070883eb28651a96788721fbf838480a480f35b6001610c229360ff191617905560028301611aeb565b5f8080610bd1565b604051637c2411e960e01b8152600490fd5b60405162461bcd60e51b815260206004820152602260248201527f4d6f636b4741503a207472616e73666572206f776e657273686970206661696c604482015261195960f21b6064820152608490fd5b50346105db5760203660031901126105db5760409060043581528060205220805460018060a01b0360018301541691610d0b60036002830154610ce860ff60048601541694610ce160405180958193016119b6565b0383611a75565b60405195869586526020860152604085015260a0606085015260a08401906118a8565b90151560808301520390f35b50346105db57806003193601126105db576020600254604051908152f35b50346105db5760203660031901126105db5760ff6004604060209382358152808552200154166040519015158152f35b50346105db57806003193601126105db57610da4604051610d9081610d8981611905565b0382611a75565b6040519182916020835260208301906118a8565b0390f35b50346105db5760403660031901126105db5780610dc3611871565b303b15610e2157604051632c1a4e4360e21b815260048035908201526001600160a01b03919091166024820152818160448183305af18015610e1657610e065750f35b610e0f90611a62565b6105db5780f35b6040513d84823e3d90fd5b50fd5b50346105db576020806003193601126105a057600280543360601b93929091600435918460015b85811115610e5e57602087604051908152f35b60405183810190428252896040820152605483818301528152608081018181106001600160401b03821117610ec9576040525190208252818352848460408420015414610eb4575b610eaf90611b5c565b610e4b565b95610ec1610eaf91611b5c565b969050610ea6565b634e487b7160e01b5f52604160045260245ffd5b50346105db5760203660031901126105db5760409060043581528060205220805460018060a01b03600183015416916001600160401b03610f61600283015492600460405191610f3b83610f3481600385016119b6565b0384611a75565b01549360405196879687526020870152604086015260e0606086015260e08501906118a8565b9160ff81161515608085015260ff8160081c16151560a085015260101c1660c08301520390f35b50346105db5760203660031901126105db57610da4610d90600435611ce3565b50346105db57602090816003193601126105db5790600435825260018082526002604084200192604051808486549182815201908196845285842090845b81811061103b5750505081610ffc910382611a75565b6040519380850191818652518092526040850195925b82811061101f5785870386f35b83516001600160a01b0316875295810195928101928401611012565b82546001600160a01b0316845292870192918601918601610fe6565b50346105db5760203660031901126105db576004358015158091036110875760ff80196003541691161760035580f35b5f80fd5b5034611087576040366003190112611087576110a5611871565b303b156110875760405163dbf7117760e01b815260048035908201526001600160a01b039190911660248201525f8160448183305af180156110f5576110e9575080f35b6110f39150611a62565b005b6040513d5f823e3d90fd5b6020366003190112611087576001600160401b036004351161108757366023600435011215611087576001600160401b036004356004013511611087573660246004356004013560051b6004350101116110875760ff6003541661153c5761116d60043560040135611b45565b61117a6040519182611a75565b60048035013580825261118c90611b45565b601f19013660208301375f905b6004356004013582106111a857005b60248260051b60043501013591608219600435360301831215611087576111d0600254611b5c565b60028190556101ac6112296111f060043587016044810190602401611b6a565b3560405192839160208301953342889290916074949284526001600160601b03199060601b166020840152603483015260548201520190565b519020806112378385611b7f565b5260043584016024810135919060640135838110611528575b505f5b61127561126b60043588016044810190602401611b6a565b6020810190611b93565b905081101561151b5761129661126b60043588016044810190602401611b6a565b821015611507576112ad908260051b810190611bc8565b6112c260043588016044810190602401611b6a565b356112cc82611bdd565b906080916112dc83850185611bf1565b6001600160401b036112f060408801611c23565b9261132e61130060208a01611c30565b916040519761130e89611a47565b8852602088019660018060a01b0316875260408801948d86523691611c5f565b9360608701948552600188880152151560a08701521660c0850152875f525f60205260405f209284518455600184019060018060a01b039051166001600160601b0360a01b825416179055516002830155518051906001600160401b038211610ec9576113a2826102fa60038601546118cd565b602090601f831160011461149057926113dd836113fc9460049460019b9a9998975f9261049c5750508160011b915f199060031b1c19161790565b60038201555b01928201511515839060ff801983541691151516179055565b60a081015115159061ff0069ffffffffffffffff000060c0855493015160101b169260081b169069ffffffffffffffffff0019161717905561144c604489600435010160248a6004350101611b6a565b359061145d848060a01b0391611bdd565b1690847f9b74408e94a1af56fb921847aa095c15849acfe3874695268199f8667e33aae56020604051898152a401611253565b90600384015f5260205f20915f5b601f19851681106114ef57508360049360019a99989796938b936113fc97601f198116106114d7575b505050811b0160038201556113e3565b01515f1960f88460031b161c191690558f80806114c7565b9192602060018192868501518155019401920161149e565b634e487b7160e01b5f52603260045260245ffd5b5050506001019150611199565b61153491925084611b7f565b519085611250565b6115476004546118cd565b61057c5760405162461bcd60e51b815260206004820152602160248201527f4d6f636b4741503a206d756c7469206174746573746174696f6e206661696c656044820152601960fa1b6064820152608490fd5b34611087576040366003190112611087576004356115b6611871565b6001600160a01b038116919082156106f5575f82815260016020818152604080842080546001600160a81b0319168817600160a01b1781558785528084018352908420805460ff19168417905592859052526116159190600201611aeb565b7f72d3574e35dc5b7a620c3cbcb395fec0497a0427c47762bfe8deba4688f6ff185f80a3005b34611087576040366003190112611087576020610796611659611871565b600435611b15565b34611087576020366003190112611087576004355f526001602052602060ff60405f205460a01c166040519015158152f35b34611087576060366003190112611087576004356116af611871565b6044359283158015850361108757835f526001948560205260405f209260ff845460a01c161561186257508061183f575b1561173d57506001600160a01b0382165f81815285830160205260409020805460ff19169095179094556117179190600201611aeb565b7ff91205dfd6045d43ed190b1272b57bca9409defd9b0ce6fa8966883c813befda5f80a3005b9193918061181d575b61174c57005b6001600160a01b039384165f81815283830160205260408120805460ff191690559094929160020190825b6117a6575b505050507fed26a12a69f99798799967437d7162d514e513fcea1298caaa94fa4be5d5acbf5f80a3005b815480821015611817578490876117bd8486611a96565b939054600394851b1c16146117d6575050820182611777565b929350915f198101908111611803576117fa94610a7f93610a54610a619387611a96565b8280808061177c565b634e487b7160e01b5f52601160045260245ffd5b5061177c565b506001600160a01b0384165f908152818301602052604090205460ff16611746565b506001600160a01b0383165f908152828601602052604090205460ff16156116e0565b632627b46560e11b8152600490fd5b602435906001600160a01b038216820361108757565b5f5b8381106118985750505f910152565b8181015183820152602001611889565b906020916118c181518092818552858086019101611887565b601f01601f1916010190565b90600182811c921680156118fb575b60208310146118e757565b634e487b7160e01b5f52602260045260245ffd5b91607f16916118dc565b6004545f9291611914826118cd565b808252916020906001908181169081156119915750600114611937575b50505050565b9293945060045f527f8a35acfbc15ff81a39ae7d344fd709f28e8600b4aa8c65c6b64bfe7fe36bd19b925f935b85851061197e57505050602092500101905f808080611931565b8054858501840152938201938101611964565b92505050602093945060ff929192191683830152151560051b0101905f808080611931565b80545f93926119c4826118cd565b918282526020936001916001811690815f14611a2857506001146119ea575b5050505050565b90939495505f92919252835f2092845f945b838610611a1457505050500101905f808080806119e3565b8054858701830152940193859082016119fc565b60ff19168685015250505090151560051b010191505f808080806119e3565b60e081019081106001600160401b03821117610ec957604052565b6001600160401b038111610ec957604052565b90601f801991011681019081106001600160401b03821117610ec957604052565b8054821015611507575f5260205f2001905f90565b80548015611ad7575f190190611ac18282611a96565b81549060018060a01b039060031b1b1916905555565b634e487b7160e01b5f52603160045260245ffd5b9081549168010000000000000000831015610ec95782610a61916001611b1395018155611a96565b565b5f52600160205260405f20549060ff8260a01c1615611b3f576001600160a01b0391821691161490565b50505f90565b6001600160401b038111610ec95760051b60200190565b5f1981146118035760010190565b903590603e1981360301821215611087570190565b80518210156115075760209160051b010190565b903590601e198136030182121561108757018035906001600160401b03821161108757602001918160051b3603831361108757565b90359060be1981360301821215611087570190565b356001600160a01b03811681036110875790565b903590601e198136030182121561108757018035906001600160401b0382116110875760200191813603831361108757565b3580151581036110875790565b356001600160401b03811681036110875790565b6001600160401b038111610ec957601f01601f191660200190565b929192611c6b82611c44565b91611c796040519384611a75565b829481845281830111611087578281602093845f960137010152565b818110611ca0575050565b5f8155600101611c95565b9190601f8111611cba57505050565b611b13925f5260205f20906020601f840160051c8301931061091a57601f0160051c0190611c95565b5f5260205f81526040805f2060ff60048201541615611d7b5790611d1360039392610f34835180968193016119b6565b825183019282818186019503126110875782810151906001600160401b038211611087570183603f82011215611087578281015191611d5183611c44565b94611d5e82519687611a75565b83865281848401011161108757611d789385019101611887565b90565b508051918201908282106001600160401b03831117610ec957525f815290565b5f52600160205260405f2080549160ff8360a01c1615611dea576001808060a01b0380921692835f520160205260ff60405f205416928315611dde575b50505090565b161490505f8080611dd8565b5050505f9056fea164736f6c6343000819000a","linkReferences":{}},"methodIdentifiers":{"addAdmin(bytes32,address)":"6419bcdb","addProjectAdmin(bytes32,address)":"dbf71177","attest((bytes32,(address,uint64,bool,bytes32,bytes,uint256)))":"f17325e7","attestationCount()":"a15b9321","attestationExists(bytes32)":"9fc0982f","attestations(bytes32)":"940992a3","countAttestationsWithRef(bytes32)":"9a19daff","createProject(bytes32,address)":"4ed4fb66","getAttestation(bytes32)":"a3112a64","getAttestationDataAsString(bytes32)":"797751a3","getProjectAdmins(bytes32)":"715957a2","getProjectOwner(bytes32)":"ec253dbc","isAdmin(bytes32,address)":"b75dbb8e","isOwner(bytes32,address)":"3fb56671","multiSequentialAttest((bytes32,(bytes32,(address,uint64,bool,bytes32,bytes,uint256)[]),uint256)[])":"5913a31c","projectExists(bytes32)":"38975895","removeAdmin(bytes32,address)":"9a387ce6","removeProjectAdmin(bytes32,address)":"b069390c","revertMessage()":"9d667c99","setAdmin(bytes32,address,bool)":"050a06e9","setRevertMessage(string)":"b3b14a41","setShouldRevert(bool)":"6813d787","shouldRevert()":"d3072d82","transferProjectOwnership(bytes32,address)":"a544d747"},"id":134}