{"abi":[{"type":"function","name":"addAdmin","inputs":[{"name":"projectUid","type":"bytes32","internalType":"bytes32"},{"name":"addr","type":"address","internalType":"address"}],"outputs":[],"stateMutability":"nonpayable"},{"type":"function","name":"addProjectAdmin","inputs":[{"name":"projectUid","type":"bytes32","internalType":"bytes32"},{"name":"addr","type":"address","internalType":"address"}],"outputs":[],"stateMutability":"nonpayable"},{"type":"function","name":"attest","inputs":[{"name":"request","type":"tuple","internalType":"struct AttestationRequest","components":[{"name":"schema","type":"bytes32","internalType":"bytes32"},{"name":"data","type":"tuple","internalType":"struct AttestationRequestData","components":[{"name":"recipient","type":"address","internalType":"address"},{"name":"expirationTime","type":"uint64","internalType":"uint64"},{"name":"revocable","type":"bool","internalType":"bool"},{"name":"refUID","type":"bytes32","internalType":"bytes32"},{"name":"data","type":"bytes","internalType":"bytes"},{"name":"value","type":"uint256","internalType":"uint256"}]}]}],"outputs":[{"name":"","type":"bytes32","internalType":"bytes32"}],"stateMutability":"payable"},{"type":"function","name":"attestationCount","inputs":[],"outputs":[{"name":"","type":"uint256","internalType":"uint256"}],"stateMutability":"view"},{"type":"function","name":"attestationExists","inputs":[{"name":"uid","type":"bytes32","internalType":"bytes32"}],"outputs":[{"name":"","type":"bool","internalType":"bool"}],"stateMutability":"view"},{"type":"function","name":"attestations","inputs":[{"name":"","type":"bytes32","internalType":"bytes32"}],"outputs":[{"name":"schema","type":"bytes32","internalType":"bytes32"},{"name":"recipient","type":"address","internalType":"address"},{"name":"refUID","type":"bytes32","internalType":"bytes32"},{"name":"data","type":"bytes","internalType":"bytes"},{"name":"exists","type":"bool","internalType":"bool"},{"name":"revocable","type":"bool","internalType":"bool"},{"name":"expirationTime","type":"uint64","internalType":"uint64"}],"stateMutability":"view"},{"type":"function","name":"countAttestationsWithRef","inputs":[{"name":"refUID","type":"bytes32","internalType":"bytes32"}],"outputs":[{"name":"count","type":"uint256","internalType":"uint256"}],"stateMutability":"view"},{"type":"function","name":"createProject","inputs":[{"name":"projectUid","type":"bytes32","internalType":"bytes32"},{"name":"owner","type":"address","internalType":"address"}],"outputs":[],"stateMutability":"nonpayable"},{"type":"function","name":"getAttestation","inputs":[{"name":"uid","type":"bytes32","internalType":"bytes32"}],"outputs":[{"name":"schema","type":"bytes32","internalType":"bytes32"},{"name":"recipient","type":"address","internalType":"address"},{"name":"refUID","type":"bytes32","internalType":"bytes32"},{"name":"data","type":"bytes","internalType":"bytes"},{"name":"exists","type":"bool","internalType":"bool"}],"stateMutability":"view"},{"type":"function","name":"getAttestationDataAsString","inputs":[{"name":"uid","type":"bytes32","internalType":"bytes32"}],"outputs":[{"name":"","type":"string","internalType":"string"}],"stateMutability":"view"},{"type":"function","name":"getProjectAdmins","inputs":[{"name":"projectUid","type":"bytes32","internalType":"bytes32"}],"outputs":[{"name":"","type":"address[]","internalType":"address[]"}],"stateMutability":"view"},{"type":"function","name":"getProjectOwner","inputs":[{"name":"projectUid","type":"bytes32","internalType":"bytes32"}],"outputs":[{"name":"","type":"address","internalType":"address"}],"stateMutability":"view"},{"type":"function","name":"isAdmin","inputs":[{"name":"projectId","type":"bytes32","internalType":"bytes32"},{"name":"addr","type":"address","internalType":"address"}],"outputs":[{"name":"","type":"bool","internalType":"bool"}],"stateMutability":"view"},{"type":"function","name":"isOwner","inputs":[{"name":"projectId","type":"bytes32","internalType":"bytes32"},{"name":"addr","type":"address","internalType":"address"}],"outputs":[{"name":"","type":"bool","internalType":"bool"}],"stateMutability":"view"},{"type":"function","name":"multiSequentialAttest","inputs":[{"name":"requestNodes","type":"tuple[]","internalType":"struct IGap.AttestationRequestNode[]","components":[{"name":"uid","type":"bytes32","internalType":"bytes32"},{"name":"multiRequest","type":"tuple","internalType":"struct MultiAttestationRequest","components":[{"name":"schema","type":"bytes32","internalType":"bytes32"},{"name":"data","type":"tuple[]","internalType":"struct AttestationRequestData[]","components":[{"name":"recipient","type":"address","internalType":"address"},{"name":"expirationTime","type":"uint64","internalType":"uint64"},{"name":"revocable","type":"bool","internalType":"bool"},{"name":"refUID","type":"bytes32","internalType":"bytes32"},{"name":"data","type":"bytes","internalType":"bytes"},{"name":"value","type":"uint256","internalType":"uint256"}]}]},{"name":"refIdx","type":"uint256","internalType":"uint256"}]}],"outputs":[],"stateMutability":"payable"},{"type":"function","name":"projectExists","inputs":[{"name":"projectUid","type":"bytes32","internalType":"bytes32"}],"outputs":[{"name":"","type":"bool","internalType":"bool"}],"stateMutability":"view"},{"type":"function","name":"removeAdmin","inputs":[{"name":"projectUid","type":"bytes32","internalType":"bytes32"},{"name":"addr","type":"address","internalType":"address"}],"outputs":[],"stateMutability":"nonpayable"},{"type":"function","name":"removeProjectAdmin","inputs":[{"name":"projectUid","type":"bytes32","internalType":"bytes32"},{"name":"addr","type":"address","internalType":"address"}],"outputs":[],"stateMutability":"nonpayable"},{"type":"function","name":"revertMessage","inputs":[],"outputs":[{"name":"","type":"string","internalType":"string"}],"stateMutability":"view"},{"type":"function","name":"setAdmin","inputs":[{"name":"projectUid","type":"bytes32","internalType":"bytes32"},{"name":"admin","type":"address","internalType":"address"},{"name":"isAdminStatus","type":"bool","internalType":"bool"}],"outputs":[],"stateMutability":"nonpayable"},{"type":"function","name":"setRevertMessage","inputs":[{"name":"_message","type":"string","internalType":"string"}],"outputs":[],"stateMutability":"nonpayable"},{"type":"function","name":"setShouldRevert","inputs":[{"name":"_shouldRevert","type":"bool","internalType":"bool"}],"outputs":[],"stateMutability":"nonpayable"},{"type":"function","name":"shouldRevert","inputs":[],"outputs":[{"name":"","type":"bool","internalType":"bool"}],"stateMutability":"view"},{"type":"function","name":"transferProjectOwnership","inputs":[{"name":"projectUid","type":"bytes32","internalType":"bytes32"},{"name":"newOwner","type":"address","internalType":"address"}],"outputs":[],"stateMutability":"nonpayable"},{"type":"event","name":"AdminAdded","inputs":[{"name":"projectUID","type":"bytes32","indexed":true,"internalType":"bytes32"},{"name":"admin","type":"address","indexed":true,"internalType":"address"}],"anonymous":false},{"type":"event","name":"AdminRemoved","inputs":[{"name":"projectUID","type":"bytes32","indexed":true,"internalType":"bytes32"},{"name":"admin","type":"address","indexed":true,"internalType":"address"}],"anonymous":false},{"type":"event","name":"AttestationCreated","inputs":[{"name":"uid","type":"bytes32","indexed":true,"internalType":"bytes32"},{"name":"schema","type":"bytes32","indexed":true,"internalType":"bytes32"},{"name":"recipient","type":"address","indexed":true,"internalType":"address"},{"name":"refUID","type":"bytes32","indexed":false,"internalType":"bytes32"}],"anonymous":false},{"type":"event","name":"OwnershipTransferred","inputs":[{"name":"projectUID","type":"bytes32","indexed":true,"internalType":"bytes32"},{"name":"previousOwner","type":"address","indexed":true,"internalType":"address"},{"name":"newOwner","type":"address","indexed":true,"internalType":"address"}],"anonymous":false},{"type":"event","name":"ProjectCreated","inputs":[{"name":"projectUID","type":"bytes32","indexed":true,"internalType":"bytes32"},{"name":"owner","type":"address","indexed":true,"internalType":"address"}],"anonymous":false},{"type":"error","name":"AlreadyAdmin","inputs":[]},{"type":"error","name":"NotAdmin","inputs":[]},{"type":"error","name":"NotProjectAdmin","inputs":[]},{"type":"error","name":"NotProjectOwner","inputs":[]},{"type":"error","name":"ProjectNotFound","inputs":[]},{"type":"error","name":"ZeroAddress","inputs":[]}],"bytecode":{"object":"0x60808060405234601557611d5b908161001a8239f35b5f80fdfe6080806040526004361015610012575f80fd5b5f905f3560e01c908163050a06e9146115645750806338975895146115325780633fb566711461150c5780634ed4fb661461147e5780635913a31c1461102b5780636419bcdb14610fbd5780636813d78714610f89578063715957a214610eda578063797751a314610eba578063940992a314610e0d5780639a19daff14610d525780639a387ce614610cdd5780639d667c9914610c9a5780639fc0982f14610c6a578063a15b932114610c4c578063a3112a6414610bc1578063a544d74714610a8c578063b069390c14610872578063b3b14a4114610731578063b75dbb8e14610700578063d3072d82146106dd578063dbf7117714610586578063ec253dbc146105505763f17325e714610126575f80fd5b60031960203682011261054857600435906001600160401b03821161054c5760409082360301126105485760ff600354166104d2576101666002546119e0565b80600255604051610195816101876020820194866004013590334288611a03565b03601f1981018352826118fc565b519020906101b16101ac6024830183600401611a7a565b611a8f565b9260606101c46024840184600401611a7a565b013561024e6101e66101dc6024860186600401611a7a565b6080810190611aa3565b919061020360406101fd6024890189600401611a7a565b01611ad5565b9261021f602061021960248a018a600401611a7a565b01611ae2565b946040519961022d8b6118ce565b60048901358b526001600160a01b031660208b015260408a01523691611b11565b6060870190815260016080880181905291151560a08801526001600160401b0392831660c088015285845260208481526040808620895181559189015193820180546001600160a01b0319166001600160a01b03959095169490941790935591870151600283015551805190969281116104be576020966102df826102d66003860154611778565b60038601611b5d565b8790601f831160011461045157918061030492600495948892610446575b5050611b95565b60038201555b019061032860808201511515839060ff801983541691151516179055565b60a0810151825460c090920151610100600160501b031990921690151560081b61ff00161760109190911b62010000600160501b031617905560606103736024840160048501611a7a565b0135156103d3575b5061038f6101ac6024830183600401611a7a565b825f80516020611d2f8339815191528560606103b16024870187600401611a7a565b60405191013581526001600160a01b03909416946004013593a4604051908152f35b8281526001808552604080832080546001600160a81b0319163360ff60a01b19811691909117600160a01b1782555f818152918401885290829020805460ff191684179055858452918652822061042d9190600201611974565b825f80516020611cef833981519152339280a35f61037b565b015190505f806102fd565b9060038401865288862091865b601f19851681106104a7575091839160019360049695601f1981161061048f575b505050811b01600382015561030a565b01515f1960f88460031b161c191690555f808061047f565b91928a60018192868501518155019401920161045e565b634e487b7160e01b84526041600452602484fd5b6104dd600454611778565b6105245760405162461bcd60e51b815260206004820152601b60248201527a135bd8dad1d0540e88185d1d195cdd185d1a5bdb8819985a5b1959602a1b6044820152606490fd5b60405162461bcd60e51b81526020600482015280610544602482016117b0565b0390fd5b5080fd5b8280fd5b503461058357602036600319011261058357602090600435815260018252604060018060a01b0391205416604051908152f35b80fd5b5034610583576040366003190112610583576004356105a361171c565b9060ff6003541661069c576001600160a01b0382811692831561068a578285526001602052604085209182549060ff8260a01c1615610678576001840191335f528260205260ff60405f20541615918261066b575b505061065957845f528060205260ff60405f2054166106475761063392600291865f5260205260405f20600160ff1982541617905501611974565b5f80516020611ccf8339815191528380a380f35b604051631c3681a560e11b8152600490fd5b604051630c4fa5c360e21b8152600490fd5b1633141590505f806105f8565b604051632627b46560e11b8152600490fd5b60405163d92e233d60e01b8152600490fd5b60405162461bcd60e51b8152602060048201526019602482015278135bd8dad1d0540e881859190818591b5a5b8819985a5b1959603a1b6044820152606490fd5b5034610583578060031936011261058357602060ff600354166040519015158152f35b503461058357604036600319011261058357602061072761071f61171c565b600435611c78565b6040519015158152f35b50346105835760209081600319360112610583576001600160401b0360043581811161054c573660238201121561054c57806004013591821161054c576024366024848401011161086e57610787600454611778565b601f8111610834575b508394601f84116001146107c8575050829382916107b494926107ba575050611b95565b60045580f35b602492500101355f806102fd565b600485528085209291601f1985169186915b83831061081857505050948360019596106107fc575b505050811b0160045580f35b01602401355f19600384901b60f8161c191690555f80806107f0565b908060018a978483969c890101358155019601980191906107da565b61085e9060045f52865f20601f860160051c810191888710610864575b601f0160051c0190611b47565b5f610790565b9091508190610851565b8380fd5b50346105835760403660031901126105835760043561088f61171c565b90600360ff60035416610a48578184526001906001602052604085209081549460ff8660a01c1615610678576001830191335f528260205260ff60405f2054161580610a35575b6106595760018060a01b0380921696875f528360205260ff60405f20541615610a2357821687146109df579091928493875f5260205260405f2060ff1981541690556002889101945b61093b575b8787875f80516020611d0f8339815191528380a380f35b8454808210156109d9578784610951848961191f565b905490861b1c1614610966575083018361091f565b9093505f1981019081116109c5576109b69285949261098b610998936109bb9861191f565b9054911b1c16918461191f565b90919060018060a01b038084549260031b9316831b921b1916179055565b611934565b5f80808080610924565b634e487b7160e01b88526011600452602488fd5b50610924565b60405162461bcd60e51b815260206004820152601c60248201527b21b0b73737ba103932b6b7bb329037bbb732b91030b99030b236b4b760211b6044820152606490fd5b604051637bfa4b9f60e01b8152600490fd5b506001600160a01b0387163314156108d6565b60405162461bcd60e51b815260206004820152601c60248201527b135bd8dad1d0540e881c995b5bdd994818591b5a5b8819985a5b195960221b6044820152606490fd5b503461058357604036600319011261058357600435610aa961171c565b60ff60035416610b71576001600160a01b038181169290831561068a5781855260016020526040852090815460ff8160a01c1615610678571692338403610b5f57845f526001820160205260405f209081549160ff831615610b41575b505081546001600160a01b0319168517909155507f0b659dccc8eb950324170e8d9598af5ee04ee070883eb28651a96788721fbf838480a480f35b6001610b579360ff191617905560028301611974565b5f8080610b06565b604051637c2411e960e01b8152600490fd5b60405162461bcd60e51b815260206004820152602260248201527f4d6f636b4741503a207472616e73666572206f776e657273686970206661696c604482015261195960f21b6064820152608490fd5b50346105835760203660031901126105835760409060043581528060205220805460018060a01b0360018301541691610c4060036002830154610c1d60ff60048601541694610c16604051809581930161183d565b03836118fc565b60405195869586526020860152604085015260a0606085015260a0840190611753565b90151560808301520390f35b50346105835780600319360112610583576020600254604051908152f35b50346105835760203660031901126105835760ff6004604060209382358152808552200154166040519015158152f35b5034610583578060031936011261058357610cd9604051610cc581610cbe816117b0565b03826118fc565b604051918291602083526020830190611753565b0390f35b50346105835760403660031901126105835780610cf861171c565b303b15610d4f5781610d219160405180938192632c1a4e4360e21b835260043560048401611ba7565b038183305af18015610d4457610d345750f35b610d3d906118e9565b6105835780f35b6040513d84823e3d90fd5b50fd5b50346105835760208060031936011261054857600280543360601b93929091600435918460015b85811115610d8c57602087604051908152f35b60408051428582019081529181018a905260548082018490528152608081016001600160401b03811182821017610df9576040525190208252818352848460408420015414610de4575b610ddf906119e0565b610d79565b95610df1610ddf916119e0565b969050610dd6565b634e487b7160e01b5f52604160045260245ffd5b50346105835760203660031901126105835760409060043581528060205220805460018060a01b0360018301541691610e89600282015491600460405191610e6383610e5c816003850161183d565b03846118fc565b01549260405195869586526020860152604085015260e0606085015260e0840190611753565b60ff80831615156080850152600883901c16151560a084015260109190911c6001600160401b031660c08301520390f35b503461058357602036600319011261058357610cd9610cc5600435611bc0565b503461058357602090816003193601126105835790600435825260018082526002604084200192604051808486549182815201908196845285842090845b818110610f6d5750505081610f2e9103826118fc565b6040519380850191818652518092526040850195925b828110610f515785870386f35b83516001600160a01b0316875295810195928101928401610f44565b82546001600160a01b0316845292870192918601918601610f18565b503461058357602036600319011261058357600435801515809103610fb95760ff80196003541691161760035580f35b5f80fd5b5034610fb9576040366003190112610fb957610fd761171c565b303b15610fb9575f611000916040518093819263dbf7117760e01b835260043560048401611ba7565b038183305af1801561102057611014575080f35b61101e91506118e9565b005b6040513d5f823e3d90fd5b6020366003190112610fb9576001600160401b0360043511610fb957366023600435011215610fb9576001600160401b0360048035013511610fb9573660246004356004013560051b600435010111610fb95760ff6003541661142057611097600435600401356119c9565b6110a460405191826118fc565b6004803501358082526110b6906119c9565b601f19013660208301375f905b6004356004013582106110d257005b60248260051b60043501013591608219600435360301831215610fb9576110fa6002546119e0565b600281905561018761112e61111a600435870160448101906024016119ee565b356040519283916020830195334288611a03565b5190208061113c8385611a31565b526004358401602481013591906064013583811061140c575b505f5b61117a611170600435880160448101906024016119ee565b6020810190611a45565b90508110156113ff5761119b611170600435880160448101906024016119ee565b8210156113eb576111b2908260051b810190611a7a565b6111c7600435880160448101906024016119ee565b356111d182611a8f565b906080916111e183850185611aa3565b6111ed60408701611ad5565b9161122b6111fd60208901611ae2565b916040519661120b886118ce565b8752602087019560018060a01b0316865260408701938c85523691611b11565b60608601908152600187870181905293151560a08701526001600160401b0391821660c08701525f8a815260208190526040902086518155945193850180546001600160a01b0319166001600160a01b0395909516949094179093559051600284015590518051918211610df9576112aa826102d66003860154611778565b602090601f831160011461137457926112d8836112f79460049460019b9a9998975f92610446575050611b95565b60038201555b01928201511515839060ff801983541691151516179055565b60a081015115159061ff0083549160c0620100008960501b0391015160101b169260081b16906101008760501b03191617179055611343604489600435010160248a60043501016119ee565b3590611354848060a01b0391611a8f565b1690845f80516020611d2f8339815191526020604051898152a401611158565b90600384015f5260205f20915f5b601f19851681106113d357508360049360019a99989796938b936112f797601f198116106113bb575b505050811b0160038201556112de565b01515f1960f88460031b161c191690558f80806113ab565b91926020600181928685015181550194019201611382565b634e487b7160e01b5f52603260045260245ffd5b50505060010191506110c3565b61141891925084611a31565b519085611155565b61142b600454611778565b6105245760405162461bcd60e51b815260206004820152602160248201527f4d6f636b4741503a206d756c7469206174746573746174696f6e206661696c656044820152601960fa1b6064820152608490fd5b34610fb9576040366003190112610fb95760043561149a61171c565b6001600160a01b0381169190821561068a575f82815260016020818152604080842080546001600160a81b0319168817600160a01b1781558785528084018352908420805460ff19168417905592859052526114f99190600201611974565b5f80516020611cef8339815191525f80a3005b34610fb9576040366003190112610fb957602061072761152a61171c565b600435611999565b34610fb9576020366003190112610fb9576004355f526001602052602060ff60405f205460a01c166040519015158152f35b34610fb9576060366003190112610fb95760043561158061171c565b60443592831580158503610fb957835f526001948560205260405f209260ff845460a01c161561170d5750806116ea575b156115fb57506001600160a01b0382165f81815285830160205260409020805460ff19169095179094556115e89190600201611974565b5f80516020611ccf8339815191525f80a3005b919391806116c8575b61160a57005b6001600160a01b039384165f81815283830160205260408120805460ff191690559094929160020190825b611651575b505050505f80516020611d0f8339815191525f80a3005b8154808210156116c257849087611668848661191f565b939054600394851b1c1614611681575050820182611635565b929350915f1981019081116116ae576116a5946109b69361098b610998938761191f565b8280808061163a565b634e487b7160e01b5f52601160045260245ffd5b5061163a565b506001600160a01b0384165f908152818301602052604090205460ff16611604565b506001600160a01b0383165f908152828601602052604090205460ff16156115b1565b632627b46560e11b8152600490fd5b602435906001600160a01b0382168203610fb957565b5f5b8381106117435750505f910152565b8181015183820152602001611734565b9060209161176c81518092818552858086019101611732565b601f01601f1916010190565b90600182811c921680156117a6575b602083101461179257565b634e487b7160e01b5f52602260045260245ffd5b91607f1691611787565b6004545f92916117bf82611778565b908181526020926001906001811690815f1461182057506001146117e4575b50505050565b929394509060045f52835f2092845f945b83861061180c57505050500101905f8080806117de565b8054858701830152940193859082016117f5565b60ff191685840152505090151560051b010191505f8080806117de565b80545f939261184b82611778565b918282526020936001916001811690815f146118af5750600114611871575b5050505050565b90939495505f92919252835f2092845f945b83861061189b57505050500101905f8080808061186a565b805485870183015294019385908201611883565b60ff19168685015250505090151560051b010191505f8080808061186a565b60e081019081106001600160401b03821117610df957604052565b6001600160401b038111610df957604052565b601f909101601f19168101906001600160401b03821190821017610df957604052565b80548210156113eb575f5260205f2001905f90565b80548015611960575f19019061194a828261191f565b81549060018060a01b039060031b1b1916905555565b634e487b7160e01b5f52603160045260245ffd5b80549190600160401b831015610df957826109989160016119979501815561191f565b565b5f52600160205260405f20549060ff8260a01c16156119c3576001600160a01b0391821691161490565b50505f90565b6001600160401b038111610df95760051b60200190565b5f1981146116ae5760010190565b903590603e1981360301821215610fb9570190565b90815260609190911b6001600160601b03191660208201526034810191909152605481019190915260740190565b80518210156113eb5760209160051b010190565b903590601e1981360301821215610fb957018035906001600160401b038211610fb957602001918160051b36038313610fb957565b90359060be1981360301821215610fb9570190565b356001600160a01b0381168103610fb95790565b903590601e1981360301821215610fb957018035906001600160401b038211610fb957602001918136038313610fb957565b358015158103610fb95790565b356001600160401b0381168103610fb95790565b6001600160401b038111610df957601f01601f191660200190565b929192611b1d82611af6565b91611b2b60405193846118fc565b829481845281830111610fb9578281602093845f960137010152565b818110611b52575050565b5f8155600101611b47565b9190601f8111611b6c57505050565b611997925f5260205f20906020601f840160051c8301931061086457601f0160051c0190611b47565b8160011b915f199060031b1c19161790565b9081526001600160a01b03909116602082015260400190565b5f5260205f81526040805f2060ff60048201541615611c585790611bf060039392610e5c8351809681930161183d565b82518301928281818601950312610fb95780830151906001600160401b038211610fb9570183603f82011215610fb9578281015191611c2e83611af6565b94611c3b825196876118fc565b838652818484010111610fb957611c559385019101611732565b90565b508051918201906001600160401b03821183831017610df957525f815290565b5f52600160205260405f2080549160ff8360a01c1615611cc7576001808060a01b0380921692835f520160205260ff60405f205416928315611cbb575b50505090565b161490505f8080611cb5565b5050505f9056fef91205dfd6045d43ed190b1272b57bca9409defd9b0ce6fa8966883c813befda72d3574e35dc5b7a620c3cbcb395fec0497a0427c47762bfe8deba4688f6ff18ed26a12a69f99798799967437d7162d514e513fcea1298caaa94fa4be5d5acbf9b74408e94a1af56fb921847aa095c15849acfe3874695268199f8667e33aae5a164736f6c6343000819000a","linkReferences":{}},"methodIdentifiers":{"addAdmin(bytes32,address)":"6419bcdb","addProjectAdmin(bytes32,address)":"dbf71177","attest((bytes32,(address,uint64,bool,bytes32,bytes,uint256)))":"f17325e7","attestationCount()":"a15b9321","attestationExists(bytes32)":"9fc0982f","attestations(bytes32)":"940992a3","countAttestationsWithRef(bytes32)":"9a19daff","createProject(bytes32,address)":"4ed4fb66","getAttestation(bytes32)":"a3112a64","getAttestationDataAsString(bytes32)":"797751a3","getProjectAdmins(bytes32)":"715957a2","getProjectOwner(bytes32)":"ec253dbc","isAdmin(bytes32,address)":"b75dbb8e","isOwner(bytes32,address)":"3fb56671","multiSequentialAttest((bytes32,(bytes32,(address,uint64,bool,bytes32,bytes,uint256)[]),uint256)[])":"5913a31c","projectExists(bytes32)":"38975895","removeAdmin(bytes32,address)":"9a387ce6","removeProjectAdmin(bytes32,address)":"b069390c","revertMessage()":"9d667c99","setAdmin(bytes32,address,bool)":"050a06e9","setRevertMessage(string)":"b3b14a41","setShouldRevert(bool)":"6813d787","shouldRevert()":"d3072d82","transferProjectOwnership(bytes32,address)":"a544d747"},"id":130}